{
	"contracts/Rental.sol": {
		"Rental": {
			"abi": [
				{
					"inputs": [],
					"stateMutability": "nonpayable",
					"type": "constructor"
				},
				{
					"anonymous": false,
					"inputs": [
						{
							"indexed": true,
							"internalType": "bytes32",
							"name": "role",
							"type": "bytes32"
						},
						{
							"indexed": true,
							"internalType": "address",
							"name": "account",
							"type": "address"
						},
						{
							"indexed": true,
							"internalType": "address",
							"name": "sender",
							"type": "address"
						}
					],
					"name": "RoleGranted",
					"type": "event"
				},
				{
					"anonymous": false,
					"inputs": [
						{
							"indexed": true,
							"internalType": "bytes32",
							"name": "role",
							"type": "bytes32"
						},
						{
							"indexed": true,
							"internalType": "address",
							"name": "account",
							"type": "address"
						},
						{
							"indexed": true,
							"internalType": "address",
							"name": "sender",
							"type": "address"
						}
					],
					"name": "RoleRevoked",
					"type": "event"
				},
				{
					"inputs": [],
					"name": "OWNER_ROLE",
					"outputs": [
						{
							"internalType": "bytes32",
							"name": "",
							"type": "bytes32"
						}
					],
					"stateMutability": "view",
					"type": "function"
				},
				{
					"inputs": [],
					"name": "RENTER_ROLE",
					"outputs": [
						{
							"internalType": "bytes32",
							"name": "",
							"type": "bytes32"
						}
					],
					"stateMutability": "view",
					"type": "function"
				},
				{
					"inputs": [
						{
							"internalType": "uint256",
							"name": "carId",
							"type": "uint256"
						},
						{
							"internalType": "uint256",
							"name": "contractId",
							"type": "uint256"
						},
						{
							"internalType": "uint256",
							"name": "insuranceDeposit",
							"type": "uint256"
						}
					],
					"name": "addInsurancePackage",
					"outputs": [
						{
							"internalType": "bool",
							"name": "success",
							"type": "bool"
						}
					],
					"stateMutability": "nonpayable",
					"type": "function"
				},
				{
					"inputs": [
						{
							"internalType": "address",
							"name": "account",
							"type": "address"
						}
					],
					"name": "addOwner",
					"outputs": [],
					"stateMutability": "nonpayable",
					"type": "function"
				},
				{
					"inputs": [
						{
							"internalType": "uint256",
							"name": "carId",
							"type": "uint256"
						},
						{
							"components": [
								{
									"internalType": "bytes32",
									"name": "from",
									"type": "bytes32"
								},
								{
									"internalType": "bytes32",
									"name": "to",
									"type": "bytes32"
								}
							],
							"internalType": "struct Rental.Period",
							"name": "period",
							"type": "tuple"
						},
						{
							"internalType": "uint256",
							"name": "dayscount",
							"type": "uint256"
						}
					],
					"name": "addRentPeriod",
					"outputs": [
						{
							"internalType": "bool",
							"name": "success",
							"type": "bool"
						}
					],
					"stateMutability": "nonpayable",
					"type": "function"
				},
				{
					"inputs": [
						{
							"internalType": "address",
							"name": "account",
							"type": "address"
						}
					],
					"name": "addRenter",
					"outputs": [],
					"stateMutability": "nonpayable",
					"type": "function"
				},
				{
					"inputs": [
						{
							"internalType": "bytes32",
							"name": "name",
							"type": "bytes32"
						},
						{
							"internalType": "bytes32",
							"name": "brand",
							"type": "bytes32"
						},
						{
							"internalType": "enum Rental.VehicleType",
							"name": "vehicleType",
							"type": "uint8"
						},
						{
							"components": [
								{
									"internalType": "bytes",
									"name": "latitude",
									"type": "bytes"
								},
								{
									"internalType": "bytes",
									"name": "longitude",
									"type": "bytes"
								}
							],
							"internalType": "struct Rental.Coordinate",
							"name": "location",
							"type": "tuple"
						},
						{
							"internalType": "uint256",
							"name": "model",
							"type": "uint256"
						},
						{
							"internalType": "bytes32",
							"name": "image",
							"type": "bytes32"
						},
						{
							"internalType": "uint256",
							"name": "rentCost",
							"type": "uint256"
						}
					],
					"name": "addVehicle",
					"outputs": [
						{
							"internalType": "bool",
							"name": "success",
							"type": "bool"
						}
					],
					"stateMutability": "nonpayable",
					"type": "function"
				},
				{
					"inputs": [
						{
							"internalType": "uint256",
							"name": "contractId",
							"type": "uint256"
						},
						{
							"internalType": "uint256",
							"name": "carId",
							"type": "uint256"
						}
					],
					"name": "completion",
					"outputs": [
						{
							"internalType": "bool",
							"name": "success",
							"type": "bool"
						}
					],
					"stateMutability": "payable",
					"type": "function"
				},
				{
					"inputs": [
						{
							"internalType": "uint256",
							"name": "contractId",
							"type": "uint256"
						},
						{
							"internalType": "uint256",
							"name": "carId",
							"type": "uint256"
						}
					],
					"name": "confirmation",
					"outputs": [
						{
							"internalType": "bool",
							"name": "success",
							"type": "bool"
						}
					],
					"stateMutability": "payable",
					"type": "function"
				},
				{
					"inputs": [],
					"name": "contractCount",
					"outputs": [
						{
							"internalType": "uint256",
							"name": "",
							"type": "uint256"
						}
					],
					"stateMutability": "view",
					"type": "function"
				},
				{
					"inputs": [
						{
							"internalType": "uint256",
							"name": "",
							"type": "uint256"
						}
					],
					"name": "contracts",
					"outputs": [
						{
							"internalType": "address",
							"name": "id",
							"type": "address"
						},
						{
							"components": [
								{
									"internalType": "uint256",
									"name": "id",
									"type": "uint256"
								},
								{
									"internalType": "bytes32",
									"name": "name",
									"type": "bytes32"
								},
								{
									"internalType": "bytes32",
									"name": "brand",
									"type": "bytes32"
								},
								{
									"internalType": "enum Rental.VehicleType",
									"name": "vehicleType",
									"type": "uint8"
								},
								{
									"components": [
										{
											"internalType": "bytes",
											"name": "latitude",
											"type": "bytes"
										},
										{
											"internalType": "bytes",
											"name": "longitude",
											"type": "bytes"
										}
									],
									"internalType": "struct Rental.Coordinate",
									"name": "location",
									"type": "tuple"
								},
								{
									"internalType": "uint256",
									"name": "model",
									"type": "uint256"
								},
								{
									"internalType": "bytes32",
									"name": "image",
									"type": "bytes32"
								},
								{
									"internalType": "uint256",
									"name": "rentCost",
									"type": "uint256"
								},
								{
									"internalType": "enum Rental.VehicleStatus",
									"name": "status",
									"type": "uint8"
								}
							],
							"internalType": "struct Rental.Vehicle",
							"name": "selectedVehicle",
							"type": "tuple"
						},
						{
							"components": [
								{
									"internalType": "bytes32",
									"name": "from",
									"type": "bytes32"
								},
								{
									"internalType": "bytes32",
									"name": "to",
									"type": "bytes32"
								}
							],
							"internalType": "struct Rental.Period",
							"name": "period",
							"type": "tuple"
						},
						{
							"internalType": "uint256",
							"name": "totalCost",
							"type": "uint256"
						},
						{
							"internalType": "uint256",
							"name": "insuranceDeposit",
							"type": "uint256"
						},
						{
							"internalType": "uint256",
							"name": "dateOfIssuance",
							"type": "uint256"
						},
						{
							"internalType": "enum Rental.ContractStatus",
							"name": "status",
							"type": "uint8"
						}
					],
					"stateMutability": "view",
					"type": "function"
				},
				{
					"inputs": [
						{
							"internalType": "uint256",
							"name": "",
							"type": "uint256"
						}
					],
					"name": "getContractByID",
					"outputs": [
						{
							"internalType": "address",
							"name": "id",
							"type": "address"
						},
						{
							"components": [
								{
									"internalType": "uint256",
									"name": "id",
									"type": "uint256"
								},
								{
									"internalType": "bytes32",
									"name": "name",
									"type": "bytes32"
								},
								{
									"internalType": "bytes32",
									"name": "brand",
									"type": "bytes32"
								},
								{
									"internalType": "enum Rental.VehicleType",
									"name": "vehicleType",
									"type": "uint8"
								},
								{
									"components": [
										{
											"internalType": "bytes",
											"name": "latitude",
											"type": "bytes"
										},
										{
											"internalType": "bytes",
											"name": "longitude",
											"type": "bytes"
										}
									],
									"internalType": "struct Rental.Coordinate",
									"name": "location",
									"type": "tuple"
								},
								{
									"internalType": "uint256",
									"name": "model",
									"type": "uint256"
								},
								{
									"internalType": "bytes32",
									"name": "image",
									"type": "bytes32"
								},
								{
									"internalType": "uint256",
									"name": "rentCost",
									"type": "uint256"
								},
								{
									"internalType": "enum Rental.VehicleStatus",
									"name": "status",
									"type": "uint8"
								}
							],
							"internalType": "struct Rental.Vehicle",
							"name": "selectedVehicle",
							"type": "tuple"
						},
						{
							"components": [
								{
									"internalType": "bytes32",
									"name": "from",
									"type": "bytes32"
								},
								{
									"internalType": "bytes32",
									"name": "to",
									"type": "bytes32"
								}
							],
							"internalType": "struct Rental.Period",
							"name": "period",
							"type": "tuple"
						},
						{
							"internalType": "uint256",
							"name": "totalCost",
							"type": "uint256"
						},
						{
							"internalType": "uint256",
							"name": "insuranceDeposit",
							"type": "uint256"
						},
						{
							"internalType": "uint256",
							"name": "dateOfIssuance",
							"type": "uint256"
						},
						{
							"internalType": "enum Rental.ContractStatus",
							"name": "status",
							"type": "uint8"
						}
					],
					"stateMutability": "view",
					"type": "function"
				},
				{
					"inputs": [
						{
							"internalType": "bytes32",
							"name": "role",
							"type": "bytes32"
						},
						{
							"internalType": "uint256",
							"name": "index",
							"type": "uint256"
						}
					],
					"name": "getRoleMember",
					"outputs": [
						{
							"internalType": "address",
							"name": "",
							"type": "address"
						}
					],
					"stateMutability": "view",
					"type": "function"
				},
				{
					"inputs": [
						{
							"internalType": "bytes32",
							"name": "role",
							"type": "bytes32"
						}
					],
					"name": "getRoleMemberCount",
					"outputs": [
						{
							"internalType": "uint256",
							"name": "",
							"type": "uint256"
						}
					],
					"stateMutability": "view",
					"type": "function"
				},
				{
					"inputs": [
						{
							"internalType": "uint256",
							"name": "",
							"type": "uint256"
						}
					],
					"name": "getVehicleByID",
					"outputs": [
						{
							"internalType": "uint256",
							"name": "id",
							"type": "uint256"
						},
						{
							"internalType": "bytes32",
							"name": "name",
							"type": "bytes32"
						},
						{
							"internalType": "bytes32",
							"name": "brand",
							"type": "bytes32"
						},
						{
							"internalType": "enum Rental.VehicleType",
							"name": "vehicleType",
							"type": "uint8"
						},
						{
							"components": [
								{
									"internalType": "bytes",
									"name": "latitude",
									"type": "bytes"
								},
								{
									"internalType": "bytes",
									"name": "longitude",
									"type": "bytes"
								}
							],
							"internalType": "struct Rental.Coordinate",
							"name": "location",
							"type": "tuple"
						},
						{
							"internalType": "uint256",
							"name": "model",
							"type": "uint256"
						},
						{
							"internalType": "bytes32",
							"name": "image",
							"type": "bytes32"
						},
						{
							"internalType": "uint256",
							"name": "rentCost",
							"type": "uint256"
						},
						{
							"internalType": "enum Rental.VehicleStatus",
							"name": "status",
							"type": "uint8"
						}
					],
					"stateMutability": "view",
					"type": "function"
				},
				{
					"inputs": [
						{
							"internalType": "bytes32",
							"name": "role",
							"type": "bytes32"
						},
						{
							"internalType": "address",
							"name": "account",
							"type": "address"
						}
					],
					"name": "hasRole",
					"outputs": [
						{
							"internalType": "bool",
							"name": "",
							"type": "bool"
						}
					],
					"stateMutability": "view",
					"type": "function"
				},
				{
					"inputs": [
						{
							"internalType": "address",
							"name": "account",
							"type": "address"
						}
					],
					"name": "isOwner",
					"outputs": [
						{
							"internalType": "bool",
							"name": "",
							"type": "bool"
						}
					],
					"stateMutability": "view",
					"type": "function"
				},
				{
					"inputs": [
						{
							"internalType": "address",
							"name": "account",
							"type": "address"
						}
					],
					"name": "isRenter",
					"outputs": [
						{
							"internalType": "bool",
							"name": "",
							"type": "bool"
						}
					],
					"stateMutability": "view",
					"type": "function"
				},
				{
					"inputs": [
						{
							"internalType": "address",
							"name": "account",
							"type": "address"
						}
					],
					"name": "removeOwner",
					"outputs": [],
					"stateMutability": "nonpayable",
					"type": "function"
				},
				{
					"inputs": [
						{
							"internalType": "address",
							"name": "account",
							"type": "address"
						}
					],
					"name": "removeRenter",
					"outputs": [],
					"stateMutability": "nonpayable",
					"type": "function"
				},
				{
					"inputs": [],
					"name": "renounceOwner",
					"outputs": [],
					"stateMutability": "nonpayable",
					"type": "function"
				},
				{
					"inputs": [],
					"name": "renounceRenter",
					"outputs": [],
					"stateMutability": "nonpayable",
					"type": "function"
				},
				{
					"inputs": [],
					"name": "vehicleCount",
					"outputs": [
						{
							"internalType": "uint256",
							"name": "",
							"type": "uint256"
						}
					],
					"stateMutability": "view",
					"type": "function"
				},
				{
					"inputs": [
						{
							"internalType": "uint256",
							"name": "",
							"type": "uint256"
						}
					],
					"name": "vehicles",
					"outputs": [
						{
							"internalType": "uint256",
							"name": "id",
							"type": "uint256"
						},
						{
							"internalType": "bytes32",
							"name": "name",
							"type": "bytes32"
						},
						{
							"internalType": "bytes32",
							"name": "brand",
							"type": "bytes32"
						},
						{
							"internalType": "enum Rental.VehicleType",
							"name": "vehicleType",
							"type": "uint8"
						},
						{
							"components": [
								{
									"internalType": "bytes",
									"name": "latitude",
									"type": "bytes"
								},
								{
									"internalType": "bytes",
									"name": "longitude",
									"type": "bytes"
								}
							],
							"internalType": "struct Rental.Coordinate",
							"name": "location",
							"type": "tuple"
						},
						{
							"internalType": "uint256",
							"name": "model",
							"type": "uint256"
						},
						{
							"internalType": "bytes32",
							"name": "image",
							"type": "bytes32"
						},
						{
							"internalType": "uint256",
							"name": "rentCost",
							"type": "uint256"
						},
						{
							"internalType": "enum Rental.VehicleStatus",
							"name": "status",
							"type": "uint8"
						}
					],
					"stateMutability": "view",
					"type": "function"
				}
			],
			"devdoc": {
				"kind": "dev",
				"methods": {
					"addInsurancePackage(uint256,uint256,uint256)": {
						"details": "The following function will be used to add insurance package to the selected vehicle. Modifiers:  - Restricted to members of the renter role.  - The selected vehicle should be available.  - The selected contract should exist."
					},
					"addOwner(address)": {
						"details": "Add an account to the owner role. Restricted to proposals."
					},
					"addRentPeriod(uint256,(bytes32,bytes32),uint256)": {
						"details": "The following function will be used to add the rent period to the selected vehicle. Modifiers:  - Restricted to members of the renter role.  - The selected vehicle should exist."
					},
					"addRenter(address)": {
						"details": "Add an account to the renter role. Restricted to proposals."
					},
					"addVehicle(bytes32,bytes32,uint8,(bytes,bytes),uint256,bytes32,uint256)": {
						"details": "The following function will be used to add Vehicles. Modifiers:  - Restricted to members of the owner role.  - Should not exist."
					},
					"completion(uint256,uint256)": {
						"details": "The following function will be used to complete the ride and return insurrance money. Modifiers:  - Restricted to members of the renter role.  - The selected vehicle should exist.  - The selected contract should exist.  - The balance of ETH in the billing account wallet should be sufficient."
					},
					"confirmation(uint256,uint256)": {
						"details": "The following function will be used for the selected vehicle and its options (sign contract).  It will include the payment process also. Modifiers:  - Restricted to members of the owner role.  - The selected vehicle should exist.  - The selected vehicle should be available.  - The selected contract should exist.  - The balance of ETH in the billing account wallet should be sufficient."
					},
					"getRoleMember(bytes32,uint256)": {
						"details": "This function will return one of the accounts that contain the 'role' attribute.  The value of the 'index' variable must be between 0 and getRoleMemberCount, excluding both numbers. There is no specific order to the people who hold roles, and the sequence in  which they appear might shift at any time. WARNING:  You need to make sure that all of your queries are performed on the same block  when you are using {getRoleMember} and {getRoleMemberCount}. For more information, take a look at the following: https://forum.openzeppelin.com/t/iterating-over-elements-on-enumerableset-in-openzeppelin-contracts/2296[forum post]"
					},
					"getRoleMemberCount(bytes32)": {
						"details": "This function returns the total number of accounts that contain the 'role' attribute. It is possible to enumerate all bearers of a role by using this method in conjunction with  the getRoleMember method."
					},
					"hasRole(bytes32,address)": {
						"details": "Returns `true` if `account` has been granted `role`."
					},
					"isOwner(address)": {
						"details": "Return `true` if the account belongs to the owner role."
					},
					"isRenter(address)": {
						"details": "Return `true` if the account belongs to the renter role."
					},
					"removeOwner(address)": {
						"details": "Remove an account from the owner role. Restricted to proposals."
					},
					"removeRenter(address)": {
						"details": "Remove an account from the renter role. Restricted to proposals."
					},
					"renounceOwner()": {
						"details": "Remove oneself from the leader role."
					},
					"renounceRenter()": {
						"details": "Remove oneself from the renter role."
					}
				},
				"version": 1
			},
			"evm": {
				"assembly": "    /* \"contracts/Rental.sol\":80:7903  contract Rental is Access {... */\n  mstore(0x40, 0x80)\n    /* \"contracts/Rental.sol\":1109:1110  0 */\n  0x00\n    /* \"contracts/Rental.sol\":1082:1110  uint public vehicleCount = 0 */\n  0x03\n  sstore\n    /* \"contracts/Rental.sol\":1144:1145  0 */\n  0x00\n    /* \"contracts/Rental.sol\":1116:1145  uint public contractCount = 0 */\n  0x04\n  sstore\n    /* \"contracts/Rental.sol\":1323:1340  constructor() { } */\n  callvalue\n  dup1\n  iszero\n  tag_1\n  jumpi\n  0x00\n  dup1\n  revert\ntag_1:\n  pop\n    /* \"contracts/Rental.sol\":80:7903  contract Rental is Access {... */\n  dataSize(sub_0)\n  dup1\n  dataOffset(sub_0)\n  0x00\n  codecopy\n  0x00\n  return\nstop\n\nsub_0: assembly {\n        /* \"contracts/Rental.sol\":80:7903  contract Rental is Access {... */\n      mstore(0x40, 0x80)\n      jumpi(tag_1, lt(calldatasize, 0x04))\n      shr(0xe0, calldataload(0x00))\n      dup1\n      0x87b50547\n      gt\n      tag_26\n      jumpi\n      dup1\n      0xa36a5d8d\n      gt\n      tag_27\n      jumpi\n      dup1\n      0xa36a5d8d\n      eq\n      tag_20\n      jumpi\n      dup1\n      0xb8ba95fa\n      eq\n      tag_21\n      jumpi\n      dup1\n      0xb97c9f77\n      eq\n      tag_22\n      jumpi\n      dup1\n      0xca15c873\n      eq\n      tag_23\n      jumpi\n      dup1\n      0xde8b1989\n      eq\n      tag_24\n      jumpi\n      dup1\n      0xe58378bb\n      eq\n      tag_25\n      jumpi\n      jump(tag_1)\n    tag_27:\n      dup1\n      0x87b50547\n      eq\n      tag_14\n      jumpi\n      dup1\n      0x9010d07c\n      eq\n      tag_15\n      jumpi\n      dup1\n      0x91d14854\n      eq\n      tag_16\n      jumpi\n      dup1\n      0x99704937\n      eq\n      tag_17\n      jumpi\n      dup1\n      0x9f2bc40e\n      eq\n      tag_18\n      jumpi\n      dup1\n      0xa1a25243\n      eq\n      tag_19\n      jumpi\n      jump(tag_1)\n    tag_26:\n      dup1\n      0x474da79a\n      gt\n      tag_28\n      jumpi\n      dup1\n      0x474da79a\n      eq\n      tag_8\n      jumpi\n      dup1\n      0x69a8f49e\n      eq\n      tag_9\n      jumpi\n      dup1\n      0x7065cb48\n      eq\n      tag_10\n      jumpi\n      dup1\n      0x79b67caa\n      eq\n      tag_11\n      jumpi\n      dup1\n      0x7b66fe2e\n      eq\n      tag_12\n      jumpi\n      dup1\n      0x8736381a\n      eq\n      tag_13\n      jumpi\n      jump(tag_1)\n    tag_28:\n      dup1\n      0x02aec3ce\n      eq\n      tag_2\n      jumpi\n      dup1\n      0x11060ec7\n      eq\n      tag_3\n      jumpi\n      dup1\n      0x173825d9\n      eq\n      tag_4\n      jumpi\n      dup1\n      0x28c23a45\n      eq\n      tag_5\n      jumpi\n      dup1\n      0x2f54bf6e\n      eq\n      tag_6\n      jumpi\n      dup1\n      0x37c3510a\n      eq\n      tag_7\n      jumpi\n    tag_1:\n      0x00\n      dup1\n      revert\n        /* \"contracts/Access.sol\":1533:1637  function removeRenter(address account) public virtual {... */\n    tag_2:\n      callvalue\n      dup1\n      iszero\n      tag_29\n      jumpi\n      0x00\n      dup1\n      revert\n    tag_29:\n      pop\n      tag_30\n      0x04\n      dup1\n      calldatasize\n      sub\n      dup2\n      add\n      swap1\n      tag_31\n      swap2\n      swap1\n      tag_32\n      jump\t// in\n    tag_31:\n      tag_33\n      jump\t// in\n    tag_30:\n      stop\n        /* \"contracts/Rental.sol\":3378:4048  function addVehicle(bytes32 name, bytes32 brand, VehicleType vehicleType, Coordinate memory location, uint model, bytes32 image, uint rentCost) ... */\n    tag_3:\n      callvalue\n      dup1\n      iszero\n      tag_34\n      jumpi\n      0x00\n      dup1\n      revert\n    tag_34:\n      pop\n      tag_35\n      0x04\n      dup1\n      calldatasize\n      sub\n      dup2\n      add\n      swap1\n      tag_36\n      swap2\n      swap1\n      tag_37\n      jump\t// in\n    tag_36:\n      tag_38\n      jump\t// in\n    tag_35:\n      mload(0x40)\n      tag_39\n      swap2\n      swap1\n      tag_40\n      jump\t// in\n    tag_39:\n      mload(0x40)\n      dup1\n      swap2\n      sub\n      swap1\n      return\n        /* \"contracts/Access.sol\":1720:1822  function removeOwner(address account) public virtual {... */\n    tag_4:\n      callvalue\n      dup1\n      iszero\n      tag_41\n      jumpi\n      0x00\n      dup1\n      revert\n    tag_41:\n      pop\n      tag_42\n      0x04\n      dup1\n      calldatasize\n      sub\n      dup2\n      add\n      swap1\n      tag_43\n      swap2\n      swap1\n      tag_32\n      jump\t// in\n    tag_43:\n      tag_44\n      jump\t// in\n    tag_42:\n      stop\n        /* \"contracts/Access.sol\":1879:1971  function renounceOwner() public virtual {... */\n    tag_5:\n      callvalue\n      dup1\n      iszero\n      tag_45\n      jumpi\n      0x00\n      dup1\n      revert\n    tag_45:\n      pop\n      tag_46\n      tag_47\n      jump\t// in\n    tag_46:\n      stop\n        /* \"contracts/Access.sol\":701:822  function isOwner(address account) public virtual view returns (bool) {... */\n    tag_6:\n      callvalue\n      dup1\n      iszero\n      tag_48\n      jumpi\n      0x00\n      dup1\n      revert\n    tag_48:\n      pop\n      tag_49\n      0x04\n      dup1\n      calldatasize\n      sub\n      dup2\n      add\n      swap1\n      tag_50\n      swap2\n      swap1\n      tag_32\n      jump\t// in\n    tag_50:\n      tag_51\n      jump\t// in\n    tag_49:\n      mload(0x40)\n      tag_52\n      swap2\n      swap1\n      tag_40\n      jump\t// in\n    tag_52:\n      mload(0x40)\n      dup1\n      swap2\n      sub\n      swap1\n      return\n        /* \"contracts/Rental.sol\":5263:5598  function addInsurancePackage(uint carId, uint contractId, uint insuranceDeposit)... */\n    tag_7:\n      callvalue\n      dup1\n      iszero\n      tag_53\n      jumpi\n      0x00\n      dup1\n      revert\n    tag_53:\n      pop\n      tag_54\n      0x04\n      dup1\n      calldatasize\n      sub\n      dup2\n      add\n      swap1\n      tag_55\n      swap2\n      swap1\n      tag_56\n      jump\t// in\n    tag_55:\n      tag_57\n      jump\t// in\n    tag_54:\n      mload(0x40)\n      tag_58\n      swap2\n      swap1\n      tag_40\n      jump\t// in\n    tag_58:\n      mload(0x40)\n      dup1\n      swap2\n      sub\n      swap1\n      return\n        /* \"contracts/Rental.sol\":1289:1316  Contract[] public contracts */\n    tag_8:\n      callvalue\n      dup1\n      iszero\n      tag_59\n      jumpi\n      0x00\n      dup1\n      revert\n    tag_59:\n      pop\n      tag_60\n      0x04\n      dup1\n      calldatasize\n      sub\n      dup2\n      add\n      swap1\n      tag_61\n      swap2\n      swap1\n      tag_62\n      jump\t// in\n    tag_61:\n      tag_63\n      jump\t// in\n    tag_60:\n      mload(0x40)\n      tag_64\n      swap8\n      swap7\n      swap6\n      swap5\n      swap4\n      swap3\n      swap2\n      swap1\n      tag_65\n      jump\t// in\n    tag_64:\n      mload(0x40)\n      dup1\n      swap2\n      sub\n      swap1\n      return\n        /* \"contracts/Rental.sol\":1152:1198  mapping(uint => Vehicle) public getVehicleByID */\n    tag_9:\n      callvalue\n      dup1\n      iszero\n      tag_66\n      jumpi\n      0x00\n      dup1\n      revert\n    tag_66:\n      pop\n      tag_67\n      0x04\n      dup1\n      calldatasize\n      sub\n      dup2\n      add\n      swap1\n      tag_68\n      swap2\n      swap1\n      tag_62\n      jump\t// in\n    tag_68:\n      tag_69\n      jump\t// in\n    tag_67:\n      mload(0x40)\n      tag_70\n      swap10\n      swap9\n      swap8\n      swap7\n      swap6\n      swap5\n      swap4\n      swap3\n      swap2\n      swap1\n      tag_71\n      jump\t// in\n    tag_70:\n      mload(0x40)\n      dup1\n      swap2\n      sub\n      swap1\n      return\n        /* \"contracts/Access.sol\":1313:1449  function addOwner(address account) public virtual {... */\n    tag_10:\n      callvalue\n      dup1\n      iszero\n      tag_72\n      jumpi\n      0x00\n      dup1\n      revert\n    tag_72:\n      pop\n      tag_73\n      0x04\n      dup1\n      calldatasize\n      sub\n      dup2\n      add\n      swap1\n      tag_74\n      swap2\n      swap1\n      tag_32\n      jump\t// in\n    tag_74:\n      tag_75\n      jump\t// in\n    tag_73:\n      stop\n        /* \"contracts/Rental.sol\":6077:6832  function confirmation(uint contractId, uint carId) ... */\n    tag_11:\n      tag_76\n      0x04\n      dup1\n      calldatasize\n      sub\n      dup2\n      add\n      swap1\n      tag_77\n      swap2\n      swap1\n      tag_78\n      jump\t// in\n    tag_77:\n      tag_79\n      jump\t// in\n    tag_76:\n      mload(0x40)\n      tag_80\n      swap2\n      swap1\n      tag_40\n      jump\t// in\n    tag_80:\n      mload(0x40)\n      dup1\n      swap2\n      sub\n      swap1\n      return\n        /* \"contracts/Rental.sol\":1235:1283  mapping(uint => Contract) public getContractByID */\n    tag_12:\n      callvalue\n      dup1\n      iszero\n      tag_81\n      jumpi\n      0x00\n      dup1\n      revert\n    tag_81:\n      pop\n      tag_82\n      0x04\n      dup1\n      calldatasize\n      sub\n      dup2\n      add\n      swap1\n      tag_83\n      swap2\n      swap1\n      tag_62\n      jump\t// in\n    tag_83:\n      tag_84\n      jump\t// in\n    tag_82:\n      mload(0x40)\n      tag_85\n      swap8\n      swap7\n      swap6\n      swap5\n      swap4\n      swap3\n      swap2\n      swap1\n      tag_65\n      jump\t// in\n    tag_85:\n      mload(0x40)\n      dup1\n      swap2\n      sub\n      swap1\n      return\n        /* \"contracts/Rental.sol\":1116:1145  uint public contractCount = 0 */\n    tag_13:\n      callvalue\n      dup1\n      iszero\n      tag_86\n      jumpi\n      0x00\n      dup1\n      revert\n    tag_86:\n      pop\n      tag_87\n      tag_88\n      jump\t// in\n    tag_87:\n      mload(0x40)\n      tag_89\n      swap2\n      swap1\n      tag_90\n      jump\t// in\n    tag_89:\n      mload(0x40)\n      dup1\n      swap2\n      sub\n      swap1\n      return\n        /* \"contracts/Rental.sol\":7202:7901  function completion(uint contractId, uint carId) ... */\n    tag_14:\n      tag_91\n      0x04\n      dup1\n      calldatasize\n      sub\n      dup2\n      add\n      swap1\n      tag_92\n      swap2\n      swap1\n      tag_78\n      jump\t// in\n    tag_92:\n      tag_93\n      jump\t// in\n    tag_91:\n      mload(0x40)\n      tag_94\n      swap2\n      swap1\n      tag_40\n      jump\t// in\n    tag_94:\n      mload(0x40)\n      dup1\n      swap2\n      sub\n      swap1\n      return\n        /* \"contracts/utils/AccessControl.sol\":2691:2819  function getRoleMember(bytes32 role, uint256 index) public view returns (address) {... */\n    tag_15:\n      callvalue\n      dup1\n      iszero\n      tag_95\n      jumpi\n      0x00\n      dup1\n      revert\n    tag_95:\n      pop\n      tag_96\n      0x04\n      dup1\n      calldatasize\n      sub\n      dup2\n      add\n      swap1\n      tag_97\n      swap2\n      swap1\n      tag_98\n      jump\t// in\n    tag_97:\n      tag_99\n      jump\t// in\n    tag_96:\n      mload(0x40)\n      tag_100\n      swap2\n      swap1\n      tag_101\n      jump\t// in\n    tag_100:\n      mload(0x40)\n      dup1\n      swap2\n      sub\n      swap1\n      return\n        /* \"contracts/utils/AccessControl.sol\":1459:1588  function hasRole(bytes32 role, address account) public view returns (bool) {... */\n    tag_16:\n      callvalue\n      dup1\n      iszero\n      tag_102\n      jumpi\n      0x00\n      dup1\n      revert\n    tag_102:\n      pop\n      tag_103\n      0x04\n      dup1\n      calldatasize\n      sub\n      dup2\n      add\n      swap1\n      tag_104\n      swap2\n      swap1\n      tag_105\n      jump\t// in\n    tag_104:\n      tag_106\n      jump\t// in\n    tag_103:\n      mload(0x40)\n      tag_107\n      swap2\n      swap1\n      tag_40\n      jump\t// in\n    tag_107:\n      mload(0x40)\n      dup1\n      swap2\n      sub\n      swap1\n      return\n        /* \"contracts/Rental.sol\":1082:1110  uint public vehicleCount = 0 */\n    tag_17:\n      callvalue\n      dup1\n      iszero\n      tag_108\n      jumpi\n      0x00\n      dup1\n      revert\n    tag_108:\n      pop\n      tag_109\n      tag_110\n      jump\t// in\n    tag_109:\n      mload(0x40)\n      tag_111\n      swap2\n      swap1\n      tag_90\n      jump\t// in\n    tag_111:\n      mload(0x40)\n      dup1\n      swap2\n      sub\n      swap1\n      return\n        /* \"contracts/Access.sol\":898:1021  function isRenter(address account) public virtual view returns (bool) {... */\n    tag_18:\n      callvalue\n      dup1\n      iszero\n      tag_112\n      jumpi\n      0x00\n      dup1\n      revert\n    tag_112:\n      pop\n      tag_113\n      0x04\n      dup1\n      calldatasize\n      sub\n      dup2\n      add\n      swap1\n      tag_114\n      swap2\n      swap1\n      tag_32\n      jump\t// in\n    tag_114:\n      tag_115\n      jump\t// in\n    tag_113:\n      mload(0x40)\n      tag_116\n      swap2\n      swap1\n      tag_40\n      jump\t// in\n    tag_116:\n      mload(0x40)\n      dup1\n      swap2\n      sub\n      swap1\n      return\n        /* \"contracts/Rental.sol\":4288:4964  function addRentPeriod(uint carId, Period memory period, uint dayscount) ... */\n    tag_19:\n      callvalue\n      dup1\n      iszero\n      tag_117\n      jumpi\n      0x00\n      dup1\n      revert\n    tag_117:\n      pop\n      tag_118\n      0x04\n      dup1\n      calldatasize\n      sub\n      dup2\n      add\n      swap1\n      tag_119\n      swap2\n      swap1\n      tag_120\n      jump\t// in\n    tag_119:\n      tag_121\n      jump\t// in\n    tag_118:\n      mload(0x40)\n      tag_122\n      swap2\n      swap1\n      tag_40\n      jump\t// in\n    tag_122:\n      mload(0x40)\n      dup1\n      swap2\n      sub\n      swap1\n      return\n        /* \"contracts/Access.sol\":2027:2121  function renounceRenter() public virtual {... */\n    tag_20:\n      callvalue\n      dup1\n      iszero\n      tag_123\n      jumpi\n      0x00\n      dup1\n      revert\n    tag_123:\n      pop\n      tag_124\n      tag_125\n      jump\t// in\n    tag_124:\n      stop\n        /* \"contracts/Rental.sol\":1204:1229  Vehicle[] public vehicles */\n    tag_21:\n      callvalue\n      dup1\n      iszero\n      tag_126\n      jumpi\n      0x00\n      dup1\n      revert\n    tag_126:\n      pop\n      tag_127\n      0x04\n      dup1\n      calldatasize\n      sub\n      dup2\n      add\n      swap1\n      tag_128\n      swap2\n      swap1\n      tag_62\n      jump\t// in\n    tag_128:\n      tag_129\n      jump\t// in\n    tag_127:\n      mload(0x40)\n      tag_130\n      swap10\n      swap9\n      swap8\n      swap7\n      swap6\n      swap5\n      swap4\n      swap3\n      swap2\n      swap1\n      tag_71\n      jump\t// in\n    tag_130:\n      mload(0x40)\n      dup1\n      swap2\n      sub\n      swap1\n      return\n        /* \"contracts/Access.sol\":192:238  bytes32 public constant RENTER_ROLE = \"RENTER\" */\n    tag_22:\n      callvalue\n      dup1\n      iszero\n      tag_131\n      jumpi\n      0x00\n      dup1\n      revert\n    tag_131:\n      pop\n      tag_132\n      tag_133\n      jump\t// in\n    tag_132:\n      mload(0x40)\n      tag_134\n      swap2\n      swap1\n      tag_135\n      jump\t// in\n    tag_134:\n      mload(0x40)\n      dup1\n      swap2\n      sub\n      swap1\n      return\n        /* \"contracts/utils/AccessControl.sol\":1840:1957  function getRoleMemberCount(bytes32 role) public view returns (uint256) {... */\n    tag_23:\n      callvalue\n      dup1\n      iszero\n      tag_136\n      jumpi\n      0x00\n      dup1\n      revert\n    tag_136:\n      pop\n      tag_137\n      0x04\n      dup1\n      calldatasize\n      sub\n      dup2\n      add\n      swap1\n      tag_138\n      swap2\n      swap1\n      tag_139\n      jump\t// in\n    tag_138:\n      tag_140\n      jump\t// in\n    tag_137:\n      mload(0x40)\n      tag_141\n      swap2\n      swap1\n      tag_90\n      jump\t// in\n    tag_141:\n      mload(0x40)\n      dup1\n      swap2\n      sub\n      swap1\n      return\n        /* \"contracts/Access.sol\":1100:1235  function addRenter(address account) public virtual {... */\n    tag_24:\n      callvalue\n      dup1\n      iszero\n      tag_142\n      jumpi\n      0x00\n      dup1\n      revert\n    tag_142:\n      pop\n      tag_143\n      0x04\n      dup1\n      calldatasize\n      sub\n      dup2\n      add\n      swap1\n      tag_144\n      swap2\n      swap1\n      tag_32\n      jump\t// in\n    tag_144:\n      tag_145\n      jump\t// in\n    tag_143:\n      stop\n        /* \"contracts/Access.sol\":142:186  bytes32 public constant OWNER_ROLE = \"OWNER\" */\n    tag_25:\n      callvalue\n      dup1\n      iszero\n      tag_146\n      jumpi\n      0x00\n      dup1\n      revert\n    tag_146:\n      pop\n      tag_147\n      tag_148\n      jump\t// in\n    tag_147:\n      mload(0x40)\n      tag_149\n      swap2\n      swap1\n      tag_135\n      jump\t// in\n    tag_149:\n      mload(0x40)\n      dup1\n      swap2\n      sub\n      swap1\n      return\n        /* \"contracts/Access.sol\":1533:1637  function removeRenter(address account) public virtual {... */\n    tag_33:\n        /* \"contracts/Access.sol\":1597:1630  _revokeRole(RENTER_ROLE, account) */\n      tag_151\n        /* \"contracts/Access.sol\":1609:1620  RENTER_ROLE */\n      0x52454e5445520000000000000000000000000000000000000000000000000000\n        /* \"contracts/Access.sol\":1622:1629  account */\n      dup3\n        /* \"contracts/Access.sol\":1597:1608  _revokeRole */\n      tag_152\n        /* \"contracts/Access.sol\":1597:1630  _revokeRole(RENTER_ROLE, account) */\n      jump\t// in\n    tag_151:\n        /* \"contracts/Access.sol\":1533:1637  function removeRenter(address account) public virtual {... */\n      pop\n      jump\t// out\n        /* \"contracts/Rental.sol\":3378:4048  function addVehicle(bytes32 name, bytes32 brand, VehicleType vehicleType, Coordinate memory location, uint model, bytes32 image, uint rentCost) ... */\n    tag_38:\n        /* \"contracts/Rental.sol\":3596:3608  bool success */\n      0x00\n        /* \"contracts/Access.sol\":397:416  isOwner(msg.sender) */\n      tag_154\n        /* \"contracts/Access.sol\":405:415  msg.sender */\n      caller\n        /* \"contracts/Access.sol\":397:404  isOwner */\n      tag_51\n        /* \"contracts/Access.sol\":397:416  isOwner(msg.sender) */\n      jump\t// in\n    tag_154:\n        /* \"contracts/Access.sol\":389:442  require(isOwner(msg.sender), \"Restricted to owners.\") */\n      tag_155\n      jumpi\n      mload(0x40)\n      0x08c379a000000000000000000000000000000000000000000000000000000000\n      dup2\n      mstore\n      0x04\n      add\n      tag_156\n      swap1\n      tag_157\n      jump\t// in\n    tag_156:\n      mload(0x40)\n      dup1\n      swap2\n      sub\n      swap1\n      revert\n    tag_155:\n        /* \"contracts/Rental.sol\":1517:1518  1 */\n      0x01\n        /* \"contracts/Rental.sol\":1504:1516  vehicleCount */\n      sload(0x03)\n        /* \"contracts/Rental.sol\":1504:1518  vehicleCount+1 */\n      tag_159\n      swap2\n      swap1\n      tag_160\n      jump\t// in\n    tag_159:\n        /* \"contracts/Rental.sol\":1486:1494  vehicles */\n      0x06\n        /* \"contracts/Rental.sol\":1486:1501  vehicles.length */\n      dup1\n      sload\n      swap1\n      pop\n        /* \"contracts/Rental.sol\":1486:1518  vehicles.length < vehicleCount+1 */\n      lt\n        /* \"contracts/Rental.sol\":1478:1568  require(vehicles.length < vehicleCount+1, \"The following vehicle has already been added.\") */\n      tag_161\n      jumpi\n      mload(0x40)\n      0x08c379a000000000000000000000000000000000000000000000000000000000\n      dup2\n      mstore\n      0x04\n      add\n      tag_162\n      swap1\n      tag_163\n      jump\t// in\n    tag_162:\n      mload(0x40)\n      dup1\n      swap2\n      sub\n      swap1\n      revert\n    tag_161:\n        /* \"contracts/Rental.sol\":3624:3636  vehicleCount */\n      0x03\n      0x00\n        /* \"contracts/Rental.sol\":3624:3638  vehicleCount++ */\n      dup2\n      sload\n      dup1\n      swap3\n      swap2\n      swap1\n      tag_165\n      swap1\n      tag_166\n      jump\t// in\n    tag_165:\n      swap2\n      swap1\n      pop\n      sstore\n      pop\n        /* \"contracts/Rental.sol\":3648:3675  Vehicle memory temporaryObj */\n      0x00\n        /* \"contracts/Rental.sol\":3678:3902  Vehicle(... */\n      mload(0x40)\n      dup1\n      0x0120\n      add\n      0x40\n      mstore\n      dup1\n        /* \"contracts/Rental.sol\":3699:3711  vehicleCount */\n      sload(0x03)\n        /* \"contracts/Rental.sol\":3678:3902  Vehicle(... */\n      dup2\n      mstore\n      0x20\n      add\n        /* \"contracts/Rental.sol\":3725:3729  name */\n      dup11\n        /* \"contracts/Rental.sol\":3678:3902  Vehicle(... */\n      dup2\n      mstore\n      0x20\n      add\n        /* \"contracts/Rental.sol\":3743:3748  brand */\n      dup10\n        /* \"contracts/Rental.sol\":3678:3902  Vehicle(... */\n      dup2\n      mstore\n      0x20\n      add\n        /* \"contracts/Rental.sol\":3762:3773  vehicleType */\n      dup9\n        /* \"contracts/Rental.sol\":3678:3902  Vehicle(... */\n      0x06\n      dup2\n      gt\n      iszero\n      tag_167\n      jumpi\n      tag_168\n      tag_169\n      jump\t// in\n    tag_168:\n    tag_167:\n      dup2\n      mstore\n      0x20\n      add\n        /* \"contracts/Rental.sol\":3787:3795  location */\n      dup8\n        /* \"contracts/Rental.sol\":3678:3902  Vehicle(... */\n      dup2\n      mstore\n      0x20\n      add\n        /* \"contracts/Rental.sol\":3809:3814  model */\n      dup7\n        /* \"contracts/Rental.sol\":3678:3902  Vehicle(... */\n      dup2\n      mstore\n      0x20\n      add\n        /* \"contracts/Rental.sol\":3828:3833  image */\n      dup6\n        /* \"contracts/Rental.sol\":3678:3902  Vehicle(... */\n      dup2\n      mstore\n      0x20\n      add\n        /* \"contracts/Rental.sol\":3847:3855  rentCost */\n      dup5\n        /* \"contracts/Rental.sol\":3678:3902  Vehicle(... */\n      dup2\n      mstore\n      0x20\n      add\n        /* \"contracts/Rental.sol\":3869:3892  VehicleStatus.Available */\n      0x00\n        /* \"contracts/Rental.sol\":3678:3902  Vehicle(... */\n      0x01\n      dup2\n      gt\n      iszero\n      tag_170\n      jumpi\n      tag_171\n      tag_169\n      jump\t// in\n    tag_171:\n    tag_170:\n      dup2\n      mstore\n      pop\n        /* \"contracts/Rental.sol\":3648:3902  Vehicle memory temporaryObj = Vehicle(... */\n      swap1\n      pop\n        /* \"contracts/Rental.sol\":3943:3955  temporaryObj */\n      dup1\n        /* \"contracts/Rental.sol\":3912:3926  getVehicleByID */\n      0x05\n        /* \"contracts/Rental.sol\":3912:3940  getVehicleByID[vehicleCount] */\n      0x00\n        /* \"contracts/Rental.sol\":3927:3939  vehicleCount */\n      sload(0x03)\n        /* \"contracts/Rental.sol\":3912:3940  getVehicleByID[vehicleCount] */\n      dup2\n      mstore\n      0x20\n      add\n      swap1\n      dup2\n      mstore\n      0x20\n      add\n      0x00\n      keccak256\n        /* \"contracts/Rental.sol\":3912:3955  getVehicleByID[vehicleCount] = temporaryObj */\n      0x00\n      dup3\n      add\n      mload\n      dup2\n      0x00\n      add\n      sstore\n      0x20\n      dup3\n      add\n      mload\n      dup2\n      0x01\n      add\n      sstore\n      0x40\n      dup3\n      add\n      mload\n      dup2\n      0x02\n      add\n      sstore\n      0x60\n      dup3\n      add\n      mload\n      dup2\n      0x03\n      add\n      exp(0x0100, 0x00)\n      dup2\n      sload\n      dup2\n      0xff\n      mul\n      not\n      and\n      swap1\n      dup4\n      0x06\n      dup2\n      gt\n      iszero\n      tag_172\n      jumpi\n      tag_173\n      tag_169\n      jump\t// in\n    tag_173:\n    tag_172:\n      mul\n      or\n      swap1\n      sstore\n      pop\n      0x80\n      dup3\n      add\n      mload\n      dup2\n      0x04\n      add\n      0x00\n      dup3\n      add\n      mload\n      dup2\n      0x00\n      add\n      swap1\n      dup1\n      mload\n      swap1\n      0x20\n      add\n      swap1\n      tag_174\n      swap3\n      swap2\n      swap1\n      tag_175\n      jump\t// in\n    tag_174:\n      pop\n      0x20\n      dup3\n      add\n      mload\n      dup2\n      0x01\n      add\n      swap1\n      dup1\n      mload\n      swap1\n      0x20\n      add\n      swap1\n      tag_176\n      swap3\n      swap2\n      swap1\n      tag_175\n      jump\t// in\n    tag_176:\n      pop\n      pop\n      pop\n      0xa0\n      dup3\n      add\n      mload\n      dup2\n      0x06\n      add\n      sstore\n      0xc0\n      dup3\n      add\n      mload\n      dup2\n      0x07\n      add\n      sstore\n      0xe0\n      dup3\n      add\n      mload\n      dup2\n      0x08\n      add\n      sstore\n      0x0100\n      dup3\n      add\n      mload\n      dup2\n      0x09\n      add\n      exp(0x0100, 0x00)\n      dup2\n      sload\n      dup2\n      0xff\n      mul\n      not\n      and\n      swap1\n      dup4\n      0x01\n      dup2\n      gt\n      iszero\n      tag_177\n      jumpi\n      tag_178\n      tag_169\n      jump\t// in\n    tag_178:\n    tag_177:\n      mul\n      or\n      swap1\n      sstore\n      pop\n      swap1\n      pop\n      pop\n        /* \"contracts/Rental.sol\":3965:3973  vehicles */\n      0x06\n        /* \"contracts/Rental.sol\":3979:3991  temporaryObj */\n      dup2\n        /* \"contracts/Rental.sol\":3965:3992  vehicles.push(temporaryObj) */\n      swap1\n      dup1\n      0x01\n      dup2\n      sload\n      add\n      dup1\n      dup3\n      sstore\n      dup1\n      swap2\n      pop\n      pop\n      0x01\n      swap1\n      sub\n      swap1\n      0x00\n      mstore\n      keccak256(0x00, 0x20)\n      swap1\n      0x0a\n      mul\n      add\n      0x00\n      swap1\n      swap2\n      swap1\n      swap2\n      swap1\n      swap2\n      pop\n      0x00\n      dup3\n      add\n      mload\n      dup2\n      0x00\n      add\n      sstore\n      0x20\n      dup3\n      add\n      mload\n      dup2\n      0x01\n      add\n      sstore\n      0x40\n      dup3\n      add\n      mload\n      dup2\n      0x02\n      add\n      sstore\n      0x60\n      dup3\n      add\n      mload\n      dup2\n      0x03\n      add\n      exp(0x0100, 0x00)\n      dup2\n      sload\n      dup2\n      0xff\n      mul\n      not\n      and\n      swap1\n      dup4\n      0x06\n      dup2\n      gt\n      iszero\n      tag_180\n      jumpi\n      tag_181\n      tag_169\n      jump\t// in\n    tag_181:\n    tag_180:\n      mul\n      or\n      swap1\n      sstore\n      pop\n      0x80\n      dup3\n      add\n      mload\n      dup2\n      0x04\n      add\n      0x00\n      dup3\n      add\n      mload\n      dup2\n      0x00\n      add\n      swap1\n      dup1\n      mload\n      swap1\n      0x20\n      add\n      swap1\n      tag_182\n      swap3\n      swap2\n      swap1\n      tag_175\n      jump\t// in\n    tag_182:\n      pop\n      0x20\n      dup3\n      add\n      mload\n      dup2\n      0x01\n      add\n      swap1\n      dup1\n      mload\n      swap1\n      0x20\n      add\n      swap1\n      tag_183\n      swap3\n      swap2\n      swap1\n      tag_175\n      jump\t// in\n    tag_183:\n      pop\n      pop\n      pop\n      0xa0\n      dup3\n      add\n      mload\n      dup2\n      0x06\n      add\n      sstore\n      0xc0\n      dup3\n      add\n      mload\n      dup2\n      0x07\n      add\n      sstore\n      0xe0\n      dup3\n      add\n      mload\n      dup2\n      0x08\n      add\n      sstore\n      0x0100\n      dup3\n      add\n      mload\n      dup2\n      0x09\n      add\n      exp(0x0100, 0x00)\n      dup2\n      sload\n      dup2\n      0xff\n      mul\n      not\n      and\n      swap1\n      dup4\n      0x01\n      dup2\n      gt\n      iszero\n      tag_184\n      jumpi\n      tag_185\n      tag_169\n      jump\t// in\n    tag_185:\n    tag_184:\n      mul\n      or\n      swap1\n      sstore\n      pop\n      pop\n      pop\n        /* \"contracts/Rental.sol\":4029:4041  vehicleCount */\n      sload(0x03)\n        /* \"contracts/Rental.sol\":4010:4018  vehicles */\n      0x06\n        /* \"contracts/Rental.sol\":4010:4025  vehicles.length */\n      dup1\n      sload\n      swap1\n      pop\n        /* \"contracts/Rental.sol\":4010:4041  vehicles.length == vehicleCount */\n      eq\n        /* \"contracts/Rental.sol\":4003:4041  return vehicles.length == vehicleCount */\n      swap2\n      pop\n      pop\n        /* \"contracts/Rental.sol\":3378:4048  function addVehicle(bytes32 name, bytes32 brand, VehicleType vehicleType, Coordinate memory location, uint model, bytes32 image, uint rentCost) ... */\n      swap8\n      swap7\n      pop\n      pop\n      pop\n      pop\n      pop\n      pop\n      pop\n      jump\t// out\n        /* \"contracts/Access.sol\":1720:1822  function removeOwner(address account) public virtual {... */\n    tag_44:\n        /* \"contracts/Access.sol\":1783:1815  _revokeRole(OWNER_ROLE, account) */\n      tag_187\n        /* \"contracts/Access.sol\":1795:1805  OWNER_ROLE */\n      0x4f574e4552000000000000000000000000000000000000000000000000000000\n        /* \"contracts/Access.sol\":1807:1814  account */\n      dup3\n        /* \"contracts/Access.sol\":1783:1794  _revokeRole */\n      tag_152\n        /* \"contracts/Access.sol\":1783:1815  _revokeRole(OWNER_ROLE, account) */\n      jump\t// in\n    tag_187:\n        /* \"contracts/Access.sol\":1720:1822  function removeOwner(address account) public virtual {... */\n      pop\n      jump\t// out\n        /* \"contracts/Access.sol\":1879:1971  function renounceOwner() public virtual {... */\n    tag_47:\n        /* \"contracts/Access.sol\":1929:1964  _revokeRole(OWNER_ROLE, msg.sender) */\n      tag_189\n        /* \"contracts/Access.sol\":1941:1951  OWNER_ROLE */\n      0x4f574e4552000000000000000000000000000000000000000000000000000000\n        /* \"contracts/Access.sol\":1953:1963  msg.sender */\n      caller\n        /* \"contracts/Access.sol\":1929:1940  _revokeRole */\n      tag_152\n        /* \"contracts/Access.sol\":1929:1964  _revokeRole(OWNER_ROLE, msg.sender) */\n      jump\t// in\n    tag_189:\n        /* \"contracts/Access.sol\":1879:1971  function renounceOwner() public virtual {... */\n      jump\t// out\n        /* \"contracts/Access.sol\":701:822  function isOwner(address account) public virtual view returns (bool) {... */\n    tag_51:\n        /* \"contracts/Access.sol\":764:768  bool */\n      0x00\n        /* \"contracts/Access.sol\":787:815  hasRole(OWNER_ROLE, account) */\n      tag_191\n        /* \"contracts/Access.sol\":795:805  OWNER_ROLE */\n      0x4f574e4552000000000000000000000000000000000000000000000000000000\n        /* \"contracts/Access.sol\":807:814  account */\n      dup4\n        /* \"contracts/Access.sol\":787:794  hasRole */\n      tag_106\n        /* \"contracts/Access.sol\":787:815  hasRole(OWNER_ROLE, account) */\n      jump\t// in\n    tag_191:\n        /* \"contracts/Access.sol\":780:815  return hasRole(OWNER_ROLE, account) */\n      swap1\n      pop\n        /* \"contracts/Access.sol\":701:822  function isOwner(address account) public virtual view returns (bool) {... */\n      swap2\n      swap1\n      pop\n      jump\t// out\n        /* \"contracts/Rental.sol\":5263:5598  function addInsurancePackage(uint carId, uint contractId, uint insuranceDeposit)... */\n    tag_57:\n        /* \"contracts/Rental.sol\":5449:5461  bool success */\n      0x00\n        /* \"contracts/Access.sol\":561:581  isRenter(msg.sender) */\n      tag_193\n        /* \"contracts/Access.sol\":570:580  msg.sender */\n      caller\n        /* \"contracts/Access.sol\":561:569  isRenter */\n      tag_115\n        /* \"contracts/Access.sol\":561:581  isRenter(msg.sender) */\n      jump\t// in\n    tag_193:\n        /* \"contracts/Access.sol\":553:608  require(isRenter(msg.sender), \"Restricted to renters.\") */\n      tag_194\n      jumpi\n      mload(0x40)\n      0x08c379a000000000000000000000000000000000000000000000000000000000\n      dup2\n      mstore\n      0x04\n      add\n      tag_195\n      swap1\n      tag_196\n      jump\t// in\n    tag_195:\n      mload(0x40)\n      dup1\n      swap2\n      sub\n      swap1\n      revert\n    tag_194:\n        /* \"contracts/Rental.sol\":5397:5402  carId */\n      dup4\n        /* \"contracts/Rental.sol\":1975:1998  VehicleStatus.Available */\n      0x00\n        /* \"contracts/Rental.sol\":1946:1998  getVehicleByID[id].status == VehicleStatus.Available */\n      0x01\n      dup2\n      gt\n      iszero\n      tag_198\n      jumpi\n      tag_199\n      tag_169\n      jump\t// in\n    tag_199:\n    tag_198:\n        /* \"contracts/Rental.sol\":1946:1960  getVehicleByID */\n      0x05\n        /* \"contracts/Rental.sol\":1946:1964  getVehicleByID[id] */\n      0x00\n        /* \"contracts/Rental.sol\":1961:1963  id */\n      dup4\n        /* \"contracts/Rental.sol\":1946:1964  getVehicleByID[id] */\n      dup2\n      mstore\n      0x20\n      add\n      swap1\n      dup2\n      mstore\n      0x20\n      add\n      0x00\n      keccak256\n        /* \"contracts/Rental.sol\":1946:1971  getVehicleByID[id].status */\n      0x09\n      add\n      0x00\n      swap1\n      sload\n      swap1\n      0x0100\n      exp\n      swap1\n      div\n      0xff\n      and\n        /* \"contracts/Rental.sol\":1946:1998  getVehicleByID[id].status == VehicleStatus.Available */\n      0x01\n      dup2\n      gt\n      iszero\n      tag_200\n      jumpi\n      tag_201\n      tag_169\n      jump\t// in\n    tag_201:\n    tag_200:\n      eq\n        /* \"contracts/Rental.sol\":1938:2051  require(getVehicleByID[id].status == VehicleStatus.Available, \"The selected vehicle is currently not available.\") */\n      tag_202\n      jumpi\n      mload(0x40)\n      0x08c379a000000000000000000000000000000000000000000000000000000000\n      dup2\n      mstore\n      0x04\n      add\n      tag_203\n      swap1\n      tag_204\n      jump\t// in\n    tag_203:\n      mload(0x40)\n      dup1\n      swap2\n      sub\n      swap1\n      revert\n    tag_202:\n        /* \"contracts/Rental.sol\":5420:5430  contractId */\n      dup4\n        /* \"contracts/Rental.sol\":2453:2456  0x0 */\n      0x00\n        /* \"contracts/Rental.sol\":2419:2457  getContractByID[id].id != address(0x0) */\n      0xffffffffffffffffffffffffffffffffffffffff\n      and\n        /* \"contracts/Rental.sol\":2419:2434  getContractByID */\n      0x07\n        /* \"contracts/Rental.sol\":2419:2438  getContractByID[id] */\n      0x00\n        /* \"contracts/Rental.sol\":2435:2437  id */\n      dup4\n        /* \"contracts/Rental.sol\":2419:2438  getContractByID[id] */\n      dup2\n      mstore\n      0x20\n      add\n      swap1\n      dup2\n      mstore\n      0x20\n      add\n      0x00\n      keccak256\n        /* \"contracts/Rental.sol\":2419:2441  getContractByID[id].id */\n      0x00\n      add\n      0x00\n      swap1\n      sload\n      swap1\n      0x0100\n      exp\n      swap1\n      div\n      0xffffffffffffffffffffffffffffffffffffffff\n      and\n        /* \"contracts/Rental.sol\":2419:2457  getContractByID[id].id != address(0x0) */\n      0xffffffffffffffffffffffffffffffffffffffff\n      and\n      eq\n      iszero\n        /* \"contracts/Rental.sol\":2411:2524  require(getContractByID[id].id != address(0x0), \"The following contract could not be found in the mapping list.\") */\n      tag_206\n      jumpi\n      mload(0x40)\n      0x08c379a000000000000000000000000000000000000000000000000000000000\n      dup2\n      mstore\n      0x04\n      add\n      tag_207\n      swap1\n      tag_208\n      jump\t// in\n    tag_207:\n      mload(0x40)\n      dup1\n      swap2\n      sub\n      swap1\n      revert\n    tag_206:\n        /* \"contracts/Rental.sol\":5524:5540  insuranceDeposit */\n      dup4\n        /* \"contracts/Rental.sol\":5477:5492  getContractByID */\n      0x07\n        /* \"contracts/Rental.sol\":5477:5504  getContractByID[contractId] */\n      0x00\n        /* \"contracts/Rental.sol\":5493:5503  contractId */\n      dup8\n        /* \"contracts/Rental.sol\":5477:5504  getContractByID[contractId] */\n      dup2\n      mstore\n      0x20\n      add\n      swap1\n      dup2\n      mstore\n      0x20\n      add\n      0x00\n      keccak256\n        /* \"contracts/Rental.sol\":5477:5521  getContractByID[contractId].insuranceDeposit */\n      0x0e\n      add\n        /* \"contracts/Rental.sol\":5477:5540  getContractByID[contractId].insuranceDeposit = insuranceDeposit */\n      dup2\n      swap1\n      sstore\n      pop\n        /* \"contracts/Rental.sol\":5578:5591  contractCount */\n      sload(0x04)\n        /* \"contracts/Rental.sol\":5558:5567  contracts */\n      0x08\n        /* \"contracts/Rental.sol\":5558:5574  contracts.length */\n      dup1\n      sload\n      swap1\n      pop\n        /* \"contracts/Rental.sol\":5558:5591  contracts.length == contractCount */\n      eq\n        /* \"contracts/Rental.sol\":5551:5591  return contracts.length == contractCount */\n      swap3\n      pop\n        /* \"contracts/Rental.sol\":2061:2062  _ */\n      pop\n        /* \"contracts/Access.sol\":618:619  _ */\n      pop\n        /* \"contracts/Rental.sol\":5263:5598  function addInsurancePackage(uint carId, uint contractId, uint insuranceDeposit)... */\n      swap4\n      swap3\n      pop\n      pop\n      pop\n      jump\t// out\n        /* \"contracts/Rental.sol\":1289:1316  Contract[] public contracts */\n    tag_63:\n      0x08\n      dup2\n      dup2\n      sload\n      dup2\n      lt\n      tag_210\n      jumpi\n      0x00\n      dup1\n      revert\n    tag_210:\n      swap1\n      0x00\n      mstore\n      keccak256(0x00, 0x20)\n      swap1\n      0x11\n      mul\n      add\n      0x00\n      swap2\n      pop\n      swap1\n      pop\n      dup1\n      0x00\n      add\n      0x00\n      swap1\n      sload\n      swap1\n      0x0100\n      exp\n      swap1\n      div\n      0xffffffffffffffffffffffffffffffffffffffff\n      and\n      swap1\n      dup1\n      0x01\n      add\n      mload(0x40)\n      dup1\n      0x0120\n      add\n      0x40\n      mstore\n      swap1\n      dup2\n      0x00\n      dup3\n      add\n      sload\n      dup2\n      mstore\n      0x20\n      add\n      0x01\n      dup3\n      add\n      sload\n      dup2\n      mstore\n      0x20\n      add\n      0x02\n      dup3\n      add\n      sload\n      dup2\n      mstore\n      0x20\n      add\n      0x03\n      dup3\n      add\n      0x00\n      swap1\n      sload\n      swap1\n      0x0100\n      exp\n      swap1\n      div\n      0xff\n      and\n      0x06\n      dup2\n      gt\n      iszero\n      tag_212\n      jumpi\n      tag_213\n      tag_169\n      jump\t// in\n    tag_213:\n    tag_212:\n      0x06\n      dup2\n      gt\n      iszero\n      tag_214\n      jumpi\n      tag_215\n      tag_169\n      jump\t// in\n    tag_215:\n    tag_214:\n      dup2\n      mstore\n      0x20\n      add\n      0x04\n      dup3\n      add\n      mload(0x40)\n      dup1\n      0x40\n      add\n      0x40\n      mstore\n      swap1\n      dup2\n      0x00\n      dup3\n      add\n      dup1\n      sload\n      tag_216\n      swap1\n      tag_217\n      jump\t// in\n    tag_216:\n      dup1\n      0x1f\n      add\n      0x20\n      dup1\n      swap2\n      div\n      mul\n      0x20\n      add\n      mload(0x40)\n      swap1\n      dup2\n      add\n      0x40\n      mstore\n      dup1\n      swap3\n      swap2\n      swap1\n      dup2\n      dup2\n      mstore\n      0x20\n      add\n      dup3\n      dup1\n      sload\n      tag_218\n      swap1\n      tag_217\n      jump\t// in\n    tag_218:\n      dup1\n      iszero\n      tag_219\n      jumpi\n      dup1\n      0x1f\n      lt\n      tag_220\n      jumpi\n      0x0100\n      dup1\n      dup4\n      sload\n      div\n      mul\n      dup4\n      mstore\n      swap2\n      0x20\n      add\n      swap2\n      jump(tag_219)\n    tag_220:\n      dup3\n      add\n      swap2\n      swap1\n      0x00\n      mstore\n      keccak256(0x00, 0x20)\n      swap1\n    tag_221:\n      dup2\n      sload\n      dup2\n      mstore\n      swap1\n      0x01\n      add\n      swap1\n      0x20\n      add\n      dup1\n      dup4\n      gt\n      tag_221\n      jumpi\n      dup3\n      swap1\n      sub\n      0x1f\n      and\n      dup3\n      add\n      swap2\n    tag_219:\n      pop\n      pop\n      pop\n      pop\n      pop\n      dup2\n      mstore\n      0x20\n      add\n      0x01\n      dup3\n      add\n      dup1\n      sload\n      tag_222\n      swap1\n      tag_217\n      jump\t// in\n    tag_222:\n      dup1\n      0x1f\n      add\n      0x20\n      dup1\n      swap2\n      div\n      mul\n      0x20\n      add\n      mload(0x40)\n      swap1\n      dup2\n      add\n      0x40\n      mstore\n      dup1\n      swap3\n      swap2\n      swap1\n      dup2\n      dup2\n      mstore\n      0x20\n      add\n      dup3\n      dup1\n      sload\n      tag_223\n      swap1\n      tag_217\n      jump\t// in\n    tag_223:\n      dup1\n      iszero\n      tag_224\n      jumpi\n      dup1\n      0x1f\n      lt\n      tag_225\n      jumpi\n      0x0100\n      dup1\n      dup4\n      sload\n      div\n      mul\n      dup4\n      mstore\n      swap2\n      0x20\n      add\n      swap2\n      jump(tag_224)\n    tag_225:\n      dup3\n      add\n      swap2\n      swap1\n      0x00\n      mstore\n      keccak256(0x00, 0x20)\n      swap1\n    tag_226:\n      dup2\n      sload\n      dup2\n      mstore\n      swap1\n      0x01\n      add\n      swap1\n      0x20\n      add\n      dup1\n      dup4\n      gt\n      tag_226\n      jumpi\n      dup3\n      swap1\n      sub\n      0x1f\n      and\n      dup3\n      add\n      swap2\n    tag_224:\n      pop\n      pop\n      pop\n      pop\n      pop\n      dup2\n      mstore\n      pop\n      pop\n      dup2\n      mstore\n      0x20\n      add\n      0x06\n      dup3\n      add\n      sload\n      dup2\n      mstore\n      0x20\n      add\n      0x07\n      dup3\n      add\n      sload\n      dup2\n      mstore\n      0x20\n      add\n      0x08\n      dup3\n      add\n      sload\n      dup2\n      mstore\n      0x20\n      add\n      0x09\n      dup3\n      add\n      0x00\n      swap1\n      sload\n      swap1\n      0x0100\n      exp\n      swap1\n      div\n      0xff\n      and\n      0x01\n      dup2\n      gt\n      iszero\n      tag_227\n      jumpi\n      tag_228\n      tag_169\n      jump\t// in\n    tag_228:\n    tag_227:\n      0x01\n      dup2\n      gt\n      iszero\n      tag_229\n      jumpi\n      tag_230\n      tag_169\n      jump\t// in\n    tag_230:\n    tag_229:\n      dup2\n      mstore\n      pop\n      pop\n      swap1\n      dup1\n      0x0b\n      add\n      mload(0x40)\n      dup1\n      0x40\n      add\n      0x40\n      mstore\n      swap1\n      dup2\n      0x00\n      dup3\n      add\n      sload\n      dup2\n      mstore\n      0x20\n      add\n      0x01\n      dup3\n      add\n      sload\n      dup2\n      mstore\n      pop\n      pop\n      swap1\n      dup1\n      0x0d\n      add\n      sload\n      swap1\n      dup1\n      0x0e\n      add\n      sload\n      swap1\n      dup1\n      0x0f\n      add\n      sload\n      swap1\n      dup1\n      0x10\n      add\n      0x00\n      swap1\n      sload\n      swap1\n      0x0100\n      exp\n      swap1\n      div\n      0xff\n      and\n      swap1\n      pop\n      dup8\n      jump\t// out\n        /* \"contracts/Rental.sol\":1152:1198  mapping(uint => Vehicle) public getVehicleByID */\n    tag_69:\n      mstore(0x20, 0x05)\n      dup1\n      0x00\n      mstore\n      keccak256(0x00, 0x40)\n      0x00\n      swap2\n      pop\n      swap1\n      pop\n      dup1\n      0x00\n      add\n      sload\n      swap1\n      dup1\n      0x01\n      add\n      sload\n      swap1\n      dup1\n      0x02\n      add\n      sload\n      swap1\n      dup1\n      0x03\n      add\n      0x00\n      swap1\n      sload\n      swap1\n      0x0100\n      exp\n      swap1\n      div\n      0xff\n      and\n      swap1\n      dup1\n      0x04\n      add\n      mload(0x40)\n      dup1\n      0x40\n      add\n      0x40\n      mstore\n      swap1\n      dup2\n      0x00\n      dup3\n      add\n      dup1\n      sload\n      tag_231\n      swap1\n      tag_217\n      jump\t// in\n    tag_231:\n      dup1\n      0x1f\n      add\n      0x20\n      dup1\n      swap2\n      div\n      mul\n      0x20\n      add\n      mload(0x40)\n      swap1\n      dup2\n      add\n      0x40\n      mstore\n      dup1\n      swap3\n      swap2\n      swap1\n      dup2\n      dup2\n      mstore\n      0x20\n      add\n      dup3\n      dup1\n      sload\n      tag_232\n      swap1\n      tag_217\n      jump\t// in\n    tag_232:\n      dup1\n      iszero\n      tag_233\n      jumpi\n      dup1\n      0x1f\n      lt\n      tag_234\n      jumpi\n      0x0100\n      dup1\n      dup4\n      sload\n      div\n      mul\n      dup4\n      mstore\n      swap2\n      0x20\n      add\n      swap2\n      jump(tag_233)\n    tag_234:\n      dup3\n      add\n      swap2\n      swap1\n      0x00\n      mstore\n      keccak256(0x00, 0x20)\n      swap1\n    tag_235:\n      dup2\n      sload\n      dup2\n      mstore\n      swap1\n      0x01\n      add\n      swap1\n      0x20\n      add\n      dup1\n      dup4\n      gt\n      tag_235\n      jumpi\n      dup3\n      swap1\n      sub\n      0x1f\n      and\n      dup3\n      add\n      swap2\n    tag_233:\n      pop\n      pop\n      pop\n      pop\n      pop\n      dup2\n      mstore\n      0x20\n      add\n      0x01\n      dup3\n      add\n      dup1\n      sload\n      tag_236\n      swap1\n      tag_217\n      jump\t// in\n    tag_236:\n      dup1\n      0x1f\n      add\n      0x20\n      dup1\n      swap2\n      div\n      mul\n      0x20\n      add\n      mload(0x40)\n      swap1\n      dup2\n      add\n      0x40\n      mstore\n      dup1\n      swap3\n      swap2\n      swap1\n      dup2\n      dup2\n      mstore\n      0x20\n      add\n      dup3\n      dup1\n      sload\n      tag_237\n      swap1\n      tag_217\n      jump\t// in\n    tag_237:\n      dup1\n      iszero\n      tag_238\n      jumpi\n      dup1\n      0x1f\n      lt\n      tag_239\n      jumpi\n      0x0100\n      dup1\n      dup4\n      sload\n      div\n      mul\n      dup4\n      mstore\n      swap2\n      0x20\n      add\n      swap2\n      jump(tag_238)\n    tag_239:\n      dup3\n      add\n      swap2\n      swap1\n      0x00\n      mstore\n      keccak256(0x00, 0x20)\n      swap1\n    tag_240:\n      dup2\n      sload\n      dup2\n      mstore\n      swap1\n      0x01\n      add\n      swap1\n      0x20\n      add\n      dup1\n      dup4\n      gt\n      tag_240\n      jumpi\n      dup3\n      swap1\n      sub\n      0x1f\n      and\n      dup3\n      add\n      swap2\n    tag_238:\n      pop\n      pop\n      pop\n      pop\n      pop\n      dup2\n      mstore\n      pop\n      pop\n      swap1\n      dup1\n      0x06\n      add\n      sload\n      swap1\n      dup1\n      0x07\n      add\n      sload\n      swap1\n      dup1\n      0x08\n      add\n      sload\n      swap1\n      dup1\n      0x09\n      add\n      0x00\n      swap1\n      sload\n      swap1\n      0x0100\n      exp\n      swap1\n      div\n      0xff\n      and\n      swap1\n      pop\n      dup10\n      jump\t// out\n        /* \"contracts/Access.sol\":1313:1449  function addOwner(address account) public virtual {... */\n    tag_75:\n        /* \"contracts/Access.sol\":1393:1400  account */\n      dup1\n        /* \"contracts/Access.sol\":1373:1382  recipient */\n      0x02\n      0x00\n        /* \"contracts/Access.sol\":1373:1401  recipient = payable(account) */\n      0x0100\n      exp\n      dup2\n      sload\n      dup2\n      0xffffffffffffffffffffffffffffffffffffffff\n      mul\n      not\n      and\n      swap1\n      dup4\n      0xffffffffffffffffffffffffffffffffffffffff\n      and\n      mul\n      or\n      swap1\n      sstore\n      pop\n        /* \"contracts/Access.sol\":1411:1442  _grantRole(OWNER_ROLE, account) */\n      tag_242\n        /* \"contracts/Access.sol\":1422:1432  OWNER_ROLE */\n      0x4f574e4552000000000000000000000000000000000000000000000000000000\n        /* \"contracts/Access.sol\":1434:1441  account */\n      dup3\n        /* \"contracts/Access.sol\":1411:1421  _grantRole */\n      tag_243\n        /* \"contracts/Access.sol\":1411:1442  _grantRole(OWNER_ROLE, account) */\n      jump\t// in\n    tag_242:\n        /* \"contracts/Access.sol\":1313:1449  function addOwner(address account) public virtual {... */\n      pop\n      jump\t// out\n        /* \"contracts/Rental.sol\":6077:6832  function confirmation(uint contractId, uint carId) ... */\n    tag_79:\n        /* \"contracts/Rental.sol\":6304:6316  bool success */\n      0x00\n        /* \"contracts/Access.sol\":397:416  isOwner(msg.sender) */\n      tag_245\n        /* \"contracts/Access.sol\":405:415  msg.sender */\n      caller\n        /* \"contracts/Access.sol\":397:404  isOwner */\n      tag_51\n        /* \"contracts/Access.sol\":397:416  isOwner(msg.sender) */\n      jump\t// in\n    tag_245:\n        /* \"contracts/Access.sol\":389:442  require(isOwner(msg.sender), \"Restricted to owners.\") */\n      tag_246\n      jumpi\n      mload(0x40)\n      0x08c379a000000000000000000000000000000000000000000000000000000000\n      dup2\n      mstore\n      0x04\n      add\n      tag_247\n      swap1\n      tag_157\n      jump\t// in\n    tag_247:\n      mload(0x40)\n      dup1\n      swap2\n      sub\n      swap1\n      revert\n    tag_246:\n        /* \"contracts/Rental.sol\":6185:6190  carId */\n      dup2\n        /* \"contracts/Rental.sol\":1733:1736  0x0 */\n      0x00\n        /* \"contracts/Rental.sol\":1704:1718  getVehicleByID */\n      0x05\n        /* \"contracts/Rental.sol\":1704:1722  getVehicleByID[id] */\n      0x00\n        /* \"contracts/Rental.sol\":1719:1721  id */\n      dup4\n        /* \"contracts/Rental.sol\":1704:1722  getVehicleByID[id] */\n      dup2\n      mstore\n      0x20\n      add\n      swap1\n      dup2\n      mstore\n      0x20\n      add\n      0x00\n      keccak256\n        /* \"contracts/Rental.sol\":1704:1725  getVehicleByID[id].id */\n      0x00\n      add\n      sload\n        /* \"contracts/Rental.sol\":1704:1737  getVehicleByID[id].id > uint(0x0) */\n      gt\n        /* \"contracts/Rental.sol\":1696:1803  require(getVehicleByID[id].id > uint(0x0), \"The following vehicle could not be found in the mapping list.\") */\n      tag_249\n      jumpi\n      mload(0x40)\n      0x08c379a000000000000000000000000000000000000000000000000000000000\n      dup2\n      mstore\n      0x04\n      add\n      tag_250\n      swap1\n      tag_251\n      jump\t// in\n    tag_250:\n      mload(0x40)\n      dup1\n      swap2\n      sub\n      swap1\n      revert\n    tag_249:\n        /* \"contracts/Rental.sol\":6211:6216  carId */\n      dup3\n        /* \"contracts/Rental.sol\":1975:1998  VehicleStatus.Available */\n      0x00\n        /* \"contracts/Rental.sol\":1946:1998  getVehicleByID[id].status == VehicleStatus.Available */\n      0x01\n      dup2\n      gt\n      iszero\n      tag_253\n      jumpi\n      tag_254\n      tag_169\n      jump\t// in\n    tag_254:\n    tag_253:\n        /* \"contracts/Rental.sol\":1946:1960  getVehicleByID */\n      0x05\n        /* \"contracts/Rental.sol\":1946:1964  getVehicleByID[id] */\n      0x00\n        /* \"contracts/Rental.sol\":1961:1963  id */\n      dup4\n        /* \"contracts/Rental.sol\":1946:1964  getVehicleByID[id] */\n      dup2\n      mstore\n      0x20\n      add\n      swap1\n      dup2\n      mstore\n      0x20\n      add\n      0x00\n      keccak256\n        /* \"contracts/Rental.sol\":1946:1971  getVehicleByID[id].status */\n      0x09\n      add\n      0x00\n      swap1\n      sload\n      swap1\n      0x0100\n      exp\n      swap1\n      div\n      0xff\n      and\n        /* \"contracts/Rental.sol\":1946:1998  getVehicleByID[id].status == VehicleStatus.Available */\n      0x01\n      dup2\n      gt\n      iszero\n      tag_255\n      jumpi\n      tag_256\n      tag_169\n      jump\t// in\n    tag_256:\n    tag_255:\n      eq\n        /* \"contracts/Rental.sol\":1938:2051  require(getVehicleByID[id].status == VehicleStatus.Available, \"The selected vehicle is currently not available.\") */\n      tag_257\n      jumpi\n      mload(0x40)\n      0x08c379a000000000000000000000000000000000000000000000000000000000\n      dup2\n      mstore\n      0x04\n      add\n      tag_258\n      swap1\n      tag_204\n      jump\t// in\n    tag_258:\n      mload(0x40)\n      dup1\n      swap2\n      sub\n      swap1\n      revert\n    tag_257:\n        /* \"contracts/Rental.sol\":6234:6244  contractId */\n      dup5\n        /* \"contracts/Rental.sol\":2453:2456  0x0 */\n      0x00\n        /* \"contracts/Rental.sol\":2419:2457  getContractByID[id].id != address(0x0) */\n      0xffffffffffffffffffffffffffffffffffffffff\n      and\n        /* \"contracts/Rental.sol\":2419:2434  getContractByID */\n      0x07\n        /* \"contracts/Rental.sol\":2419:2438  getContractByID[id] */\n      0x00\n        /* \"contracts/Rental.sol\":2435:2437  id */\n      dup4\n        /* \"contracts/Rental.sol\":2419:2438  getContractByID[id] */\n      dup2\n      mstore\n      0x20\n      add\n      swap1\n      dup2\n      mstore\n      0x20\n      add\n      0x00\n      keccak256\n        /* \"contracts/Rental.sol\":2419:2441  getContractByID[id].id */\n      0x00\n      add\n      0x00\n      swap1\n      sload\n      swap1\n      0x0100\n      exp\n      swap1\n      div\n      0xffffffffffffffffffffffffffffffffffffffff\n      and\n        /* \"contracts/Rental.sol\":2419:2457  getContractByID[id].id != address(0x0) */\n      0xffffffffffffffffffffffffffffffffffffffff\n      and\n      eq\n      iszero\n        /* \"contracts/Rental.sol\":2411:2524  require(getContractByID[id].id != address(0x0), \"The following contract could not be found in the mapping list.\") */\n      tag_260\n      jumpi\n      mload(0x40)\n      0x08c379a000000000000000000000000000000000000000000000000000000000\n      dup2\n      mstore\n      0x04\n      add\n      tag_261\n      swap1\n      tag_208\n      jump\t// in\n    tag_261:\n      mload(0x40)\n      dup1\n      swap2\n      sub\n      swap1\n      revert\n    tag_260:\n        /* \"contracts/Rental.sol\":6275:6285  contractId */\n      dup6\n        /* \"contracts/Rental.sol\":2707:2723  uint totalAmount */\n      0x00\n        /* \"contracts/Rental.sol\":2765:2780  getContractByID */\n      0x07\n        /* \"contracts/Rental.sol\":2765:2784  getContractByID[id] */\n      0x00\n        /* \"contracts/Rental.sol\":2781:2783  id */\n      dup4\n        /* \"contracts/Rental.sol\":2765:2784  getContractByID[id] */\n      dup2\n      mstore\n      0x20\n      add\n      swap1\n      dup2\n      mstore\n      0x20\n      add\n      0x00\n      keccak256\n        /* \"contracts/Rental.sol\":2765:2794  getContractByID[id].totalCost */\n      0x0d\n      add\n      sload\n        /* \"contracts/Rental.sol\":2726:2741  getContractByID */\n      0x07\n        /* \"contracts/Rental.sol\":2726:2745  getContractByID[id] */\n      0x00\n        /* \"contracts/Rental.sol\":2742:2744  id */\n      dup5\n        /* \"contracts/Rental.sol\":2726:2745  getContractByID[id] */\n      dup2\n      mstore\n      0x20\n      add\n      swap1\n      dup2\n      mstore\n      0x20\n      add\n      0x00\n      keccak256\n        /* \"contracts/Rental.sol\":2726:2762  getContractByID[id].insuranceDeposit */\n      0x0e\n      add\n      sload\n        /* \"contracts/Rental.sol\":2726:2794  getContractByID[id].insuranceDeposit + getContractByID[id].totalCost */\n      tag_263\n      swap2\n      swap1\n      tag_160\n      jump\t// in\n    tag_263:\n        /* \"contracts/Rental.sol\":2707:2794  uint totalAmount = getContractByID[id].insuranceDeposit + getContractByID[id].totalCost */\n      swap1\n      pop\n        /* \"contracts/Rental.sol\":2825:2836  totalAmount */\n      dup1\n        /* \"contracts/Rental.sol\":2812:2821  msg.value */\n      callvalue\n        /* \"contracts/Rental.sol\":2812:2836  msg.value >= totalAmount */\n      lt\n      iszero\n        /* \"contracts/Rental.sol\":2804:2905  require(msg.value >= totalAmount, \"Could not proceed because there is not enough ETH in your wallet\") */\n      tag_264\n      jumpi\n      mload(0x40)\n      0x08c379a000000000000000000000000000000000000000000000000000000000\n      dup2\n      mstore\n      0x04\n      add\n      tag_265\n      swap1\n      tag_266\n      jump\t// in\n    tag_265:\n      mload(0x40)\n      dup1\n      swap2\n      sub\n      swap1\n      revert\n    tag_264:\n        /* \"contracts/Rental.sol\":6396:6421  ContractStatus.InProgress */\n      0x01\n        /* \"contracts/Rental.sol\":6359:6374  getContractByID */\n      0x07\n        /* \"contracts/Rental.sol\":6359:6386  getContractByID[contractId] */\n      0x00\n        /* \"contracts/Rental.sol\":6375:6385  contractId */\n      dup11\n        /* \"contracts/Rental.sol\":6359:6386  getContractByID[contractId] */\n      dup2\n      mstore\n      0x20\n      add\n      swap1\n      dup2\n      mstore\n      0x20\n      add\n      0x00\n      keccak256\n        /* \"contracts/Rental.sol\":6359:6393  getContractByID[contractId].status */\n      0x10\n      add\n      0x00\n        /* \"contracts/Rental.sol\":6359:6421  getContractByID[contractId].status = ContractStatus.InProgress */\n      0x0100\n      exp\n      dup2\n      sload\n      dup2\n      0xff\n      mul\n      not\n      and\n      swap1\n      dup4\n      0x02\n      dup2\n      gt\n      iszero\n      tag_268\n      jumpi\n      tag_269\n      tag_169\n      jump\t// in\n    tag_269:\n    tag_268:\n      mul\n      or\n      swap1\n      sstore\n      pop\n        /* \"contracts/Rental.sol\":6462:6481  VehicleStatus.Hired */\n      0x01\n        /* \"contracts/Rental.sol\":6431:6445  getVehicleByID */\n      0x05\n        /* \"contracts/Rental.sol\":6431:6452  getVehicleByID[carId] */\n      0x00\n        /* \"contracts/Rental.sol\":6446:6451  carId */\n      dup10\n        /* \"contracts/Rental.sol\":6431:6452  getVehicleByID[carId] */\n      dup2\n      mstore\n      0x20\n      add\n      swap1\n      dup2\n      mstore\n      0x20\n      add\n      0x00\n      keccak256\n        /* \"contracts/Rental.sol\":6431:6459  getVehicleByID[carId].status */\n      0x09\n      add\n      0x00\n        /* \"contracts/Rental.sol\":6431:6481  getVehicleByID[carId].status = VehicleStatus.Hired */\n      0x0100\n      exp\n      dup2\n      sload\n      dup2\n      0xff\n      mul\n      not\n      and\n      swap1\n      dup4\n      0x01\n      dup2\n      gt\n      iszero\n      tag_270\n      jumpi\n      tag_271\n      tag_169\n      jump\t// in\n    tag_271:\n    tag_270:\n      mul\n      or\n      swap1\n      sstore\n      pop\n        /* \"contracts/Rental.sol\":6518:6534  uint totalAmount */\n      0x00\n        /* \"contracts/Rental.sol\":6577:6592  getContractByID */\n      0x07\n        /* \"contracts/Rental.sol\":6577:6604  getContractByID[contractId] */\n      0x00\n        /* \"contracts/Rental.sol\":6593:6603  contractId */\n      dup11\n        /* \"contracts/Rental.sol\":6577:6604  getContractByID[contractId] */\n      dup2\n      mstore\n      0x20\n      add\n      swap1\n      dup2\n      mstore\n      0x20\n      add\n      0x00\n      keccak256\n        /* \"contracts/Rental.sol\":6577:6621  getContractByID[contractId].insuranceDeposit */\n      0x0e\n      add\n      sload\n        /* \"contracts/Rental.sol\":6537:6552  getContractByID */\n      0x07\n        /* \"contracts/Rental.sol\":6537:6564  getContractByID[contractId] */\n      0x00\n        /* \"contracts/Rental.sol\":6553:6563  contractId */\n      dup12\n        /* \"contracts/Rental.sol\":6537:6564  getContractByID[contractId] */\n      dup2\n      mstore\n      0x20\n      add\n      swap1\n      dup2\n      mstore\n      0x20\n      add\n      0x00\n      keccak256\n        /* \"contracts/Rental.sol\":6537:6574  getContractByID[contractId].totalCost */\n      0x0d\n      add\n      sload\n        /* \"contracts/Rental.sol\":6537:6621  getContractByID[contractId].totalCost + getContractByID[contractId].insuranceDeposit */\n      tag_272\n      swap2\n      swap1\n      tag_160\n      jump\t// in\n    tag_272:\n        /* \"contracts/Rental.sol\":6518:6621  uint totalAmount = getContractByID[contractId].totalCost + getContractByID[contractId].insuranceDeposit */\n      swap1\n      pop\n        /* \"contracts/Rental.sol\":6812:6825  contractCount */\n      sload(0x04)\n        /* \"contracts/Rental.sol\":6792:6801  contracts */\n      0x08\n        /* \"contracts/Rental.sol\":6792:6808  contracts.length */\n      dup1\n      sload\n      swap1\n      pop\n        /* \"contracts/Rental.sol\":6792:6825  contracts.length == contractCount */\n      eq\n        /* \"contracts/Rental.sol\":6785:6825  return contracts.length == contractCount */\n      swap7\n      pop\n      pop\n        /* \"contracts/Rental.sol\":2697:2923  {... */\n      pop\n        /* \"contracts/Rental.sol\":2534:2535  _ */\n      pop\n        /* \"contracts/Rental.sol\":2061:2062  _ */\n      pop\n        /* \"contracts/Rental.sol\":1813:1814  _ */\n      pop\n        /* \"contracts/Access.sol\":452:453  _ */\n      pop\n        /* \"contracts/Rental.sol\":6077:6832  function confirmation(uint contractId, uint carId) ... */\n      swap3\n      swap2\n      pop\n      pop\n      jump\t// out\n        /* \"contracts/Rental.sol\":1235:1283  mapping(uint => Contract) public getContractByID */\n    tag_84:\n      mstore(0x20, 0x07)\n      dup1\n      0x00\n      mstore\n      keccak256(0x00, 0x40)\n      0x00\n      swap2\n      pop\n      swap1\n      pop\n      dup1\n      0x00\n      add\n      0x00\n      swap1\n      sload\n      swap1\n      0x0100\n      exp\n      swap1\n      div\n      0xffffffffffffffffffffffffffffffffffffffff\n      and\n      swap1\n      dup1\n      0x01\n      add\n      mload(0x40)\n      dup1\n      0x0120\n      add\n      0x40\n      mstore\n      swap1\n      dup2\n      0x00\n      dup3\n      add\n      sload\n      dup2\n      mstore\n      0x20\n      add\n      0x01\n      dup3\n      add\n      sload\n      dup2\n      mstore\n      0x20\n      add\n      0x02\n      dup3\n      add\n      sload\n      dup2\n      mstore\n      0x20\n      add\n      0x03\n      dup3\n      add\n      0x00\n      swap1\n      sload\n      swap1\n      0x0100\n      exp\n      swap1\n      div\n      0xff\n      and\n      0x06\n      dup2\n      gt\n      iszero\n      tag_273\n      jumpi\n      tag_274\n      tag_169\n      jump\t// in\n    tag_274:\n    tag_273:\n      0x06\n      dup2\n      gt\n      iszero\n      tag_275\n      jumpi\n      tag_276\n      tag_169\n      jump\t// in\n    tag_276:\n    tag_275:\n      dup2\n      mstore\n      0x20\n      add\n      0x04\n      dup3\n      add\n      mload(0x40)\n      dup1\n      0x40\n      add\n      0x40\n      mstore\n      swap1\n      dup2\n      0x00\n      dup3\n      add\n      dup1\n      sload\n      tag_277\n      swap1\n      tag_217\n      jump\t// in\n    tag_277:\n      dup1\n      0x1f\n      add\n      0x20\n      dup1\n      swap2\n      div\n      mul\n      0x20\n      add\n      mload(0x40)\n      swap1\n      dup2\n      add\n      0x40\n      mstore\n      dup1\n      swap3\n      swap2\n      swap1\n      dup2\n      dup2\n      mstore\n      0x20\n      add\n      dup3\n      dup1\n      sload\n      tag_278\n      swap1\n      tag_217\n      jump\t// in\n    tag_278:\n      dup1\n      iszero\n      tag_279\n      jumpi\n      dup1\n      0x1f\n      lt\n      tag_280\n      jumpi\n      0x0100\n      dup1\n      dup4\n      sload\n      div\n      mul\n      dup4\n      mstore\n      swap2\n      0x20\n      add\n      swap2\n      jump(tag_279)\n    tag_280:\n      dup3\n      add\n      swap2\n      swap1\n      0x00\n      mstore\n      keccak256(0x00, 0x20)\n      swap1\n    tag_281:\n      dup2\n      sload\n      dup2\n      mstore\n      swap1\n      0x01\n      add\n      swap1\n      0x20\n      add\n      dup1\n      dup4\n      gt\n      tag_281\n      jumpi\n      dup3\n      swap1\n      sub\n      0x1f\n      and\n      dup3\n      add\n      swap2\n    tag_279:\n      pop\n      pop\n      pop\n      pop\n      pop\n      dup2\n      mstore\n      0x20\n      add\n      0x01\n      dup3\n      add\n      dup1\n      sload\n      tag_282\n      swap1\n      tag_217\n      jump\t// in\n    tag_282:\n      dup1\n      0x1f\n      add\n      0x20\n      dup1\n      swap2\n      div\n      mul\n      0x20\n      add\n      mload(0x40)\n      swap1\n      dup2\n      add\n      0x40\n      mstore\n      dup1\n      swap3\n      swap2\n      swap1\n      dup2\n      dup2\n      mstore\n      0x20\n      add\n      dup3\n      dup1\n      sload\n      tag_283\n      swap1\n      tag_217\n      jump\t// in\n    tag_283:\n      dup1\n      iszero\n      tag_284\n      jumpi\n      dup1\n      0x1f\n      lt\n      tag_285\n      jumpi\n      0x0100\n      dup1\n      dup4\n      sload\n      div\n      mul\n      dup4\n      mstore\n      swap2\n      0x20\n      add\n      swap2\n      jump(tag_284)\n    tag_285:\n      dup3\n      add\n      swap2\n      swap1\n      0x00\n      mstore\n      keccak256(0x00, 0x20)\n      swap1\n    tag_286:\n      dup2\n      sload\n      dup2\n      mstore\n      swap1\n      0x01\n      add\n      swap1\n      0x20\n      add\n      dup1\n      dup4\n      gt\n      tag_286\n      jumpi\n      dup3\n      swap1\n      sub\n      0x1f\n      and\n      dup3\n      add\n      swap2\n    tag_284:\n      pop\n      pop\n      pop\n      pop\n      pop\n      dup2\n      mstore\n      pop\n      pop\n      dup2\n      mstore\n      0x20\n      add\n      0x06\n      dup3\n      add\n      sload\n      dup2\n      mstore\n      0x20\n      add\n      0x07\n      dup3\n      add\n      sload\n      dup2\n      mstore\n      0x20\n      add\n      0x08\n      dup3\n      add\n      sload\n      dup2\n      mstore\n      0x20\n      add\n      0x09\n      dup3\n      add\n      0x00\n      swap1\n      sload\n      swap1\n      0x0100\n      exp\n      swap1\n      div\n      0xff\n      and\n      0x01\n      dup2\n      gt\n      iszero\n      tag_287\n      jumpi\n      tag_288\n      tag_169\n      jump\t// in\n    tag_288:\n    tag_287:\n      0x01\n      dup2\n      gt\n      iszero\n      tag_289\n      jumpi\n      tag_290\n      tag_169\n      jump\t// in\n    tag_290:\n    tag_289:\n      dup2\n      mstore\n      pop\n      pop\n      swap1\n      dup1\n      0x0b\n      add\n      mload(0x40)\n      dup1\n      0x40\n      add\n      0x40\n      mstore\n      swap1\n      dup2\n      0x00\n      dup3\n      add\n      sload\n      dup2\n      mstore\n      0x20\n      add\n      0x01\n      dup3\n      add\n      sload\n      dup2\n      mstore\n      pop\n      pop\n      swap1\n      dup1\n      0x0d\n      add\n      sload\n      swap1\n      dup1\n      0x0e\n      add\n      sload\n      swap1\n      dup1\n      0x0f\n      add\n      sload\n      swap1\n      dup1\n      0x10\n      add\n      0x00\n      swap1\n      sload\n      swap1\n      0x0100\n      exp\n      swap1\n      div\n      0xff\n      and\n      swap1\n      pop\n      dup8\n      jump\t// out\n        /* \"contracts/Rental.sol\":1116:1145  uint public contractCount = 0 */\n    tag_88:\n      sload(0x04)\n      dup2\n      jump\t// out\n        /* \"contracts/Rental.sol\":7202:7901  function completion(uint contractId, uint carId) ... */\n    tag_93:\n        /* \"contracts/Rental.sol\":7400:7412  bool success */\n      0x00\n        /* \"contracts/Access.sol\":561:581  isRenter(msg.sender) */\n      tag_292\n        /* \"contracts/Access.sol\":570:580  msg.sender */\n      caller\n        /* \"contracts/Access.sol\":561:569  isRenter */\n      tag_115\n        /* \"contracts/Access.sol\":561:581  isRenter(msg.sender) */\n      jump\t// in\n    tag_292:\n        /* \"contracts/Access.sol\":553:608  require(isRenter(msg.sender), \"Restricted to renters.\") */\n      tag_293\n      jumpi\n      mload(0x40)\n      0x08c379a000000000000000000000000000000000000000000000000000000000\n      dup2\n      mstore\n      0x04\n      add\n      tag_294\n      swap1\n      tag_196\n      jump\t// in\n    tag_294:\n      mload(0x40)\n      dup1\n      swap2\n      sub\n      swap1\n      revert\n    tag_293:\n        /* \"contracts/Rental.sol\":7309:7314  carId */\n      dup2\n        /* \"contracts/Rental.sol\":1733:1736  0x0 */\n      0x00\n        /* \"contracts/Rental.sol\":1704:1718  getVehicleByID */\n      0x05\n        /* \"contracts/Rental.sol\":1704:1722  getVehicleByID[id] */\n      0x00\n        /* \"contracts/Rental.sol\":1719:1721  id */\n      dup4\n        /* \"contracts/Rental.sol\":1704:1722  getVehicleByID[id] */\n      dup2\n      mstore\n      0x20\n      add\n      swap1\n      dup2\n      mstore\n      0x20\n      add\n      0x00\n      keccak256\n        /* \"contracts/Rental.sol\":1704:1725  getVehicleByID[id].id */\n      0x00\n      add\n      sload\n        /* \"contracts/Rental.sol\":1704:1737  getVehicleByID[id].id > uint(0x0) */\n      gt\n        /* \"contracts/Rental.sol\":1696:1803  require(getVehicleByID[id].id > uint(0x0), \"The following vehicle could not be found in the mapping list.\") */\n      tag_296\n      jumpi\n      mload(0x40)\n      0x08c379a000000000000000000000000000000000000000000000000000000000\n      dup2\n      mstore\n      0x04\n      add\n      tag_297\n      swap1\n      tag_251\n      jump\t// in\n    tag_297:\n      mload(0x40)\n      dup1\n      swap2\n      sub\n      swap1\n      revert\n    tag_296:\n        /* \"contracts/Rental.sol\":7332:7342  contractId */\n      dup4\n        /* \"contracts/Rental.sol\":2453:2456  0x0 */\n      0x00\n        /* \"contracts/Rental.sol\":2419:2457  getContractByID[id].id != address(0x0) */\n      0xffffffffffffffffffffffffffffffffffffffff\n      and\n        /* \"contracts/Rental.sol\":2419:2434  getContractByID */\n      0x07\n        /* \"contracts/Rental.sol\":2419:2438  getContractByID[id] */\n      0x00\n        /* \"contracts/Rental.sol\":2435:2437  id */\n      dup4\n        /* \"contracts/Rental.sol\":2419:2438  getContractByID[id] */\n      dup2\n      mstore\n      0x20\n      add\n      swap1\n      dup2\n      mstore\n      0x20\n      add\n      0x00\n      keccak256\n        /* \"contracts/Rental.sol\":2419:2441  getContractByID[id].id */\n      0x00\n      add\n      0x00\n      swap1\n      sload\n      swap1\n      0x0100\n      exp\n      swap1\n      div\n      0xffffffffffffffffffffffffffffffffffffffff\n      and\n        /* \"contracts/Rental.sol\":2419:2457  getContractByID[id].id != address(0x0) */\n      0xffffffffffffffffffffffffffffffffffffffff\n      and\n      eq\n      iszero\n        /* \"contracts/Rental.sol\":2411:2524  require(getContractByID[id].id != address(0x0), \"The following contract could not be found in the mapping list.\") */\n      tag_299\n      jumpi\n      mload(0x40)\n      0x08c379a000000000000000000000000000000000000000000000000000000000\n      dup2\n      mstore\n      0x04\n      add\n      tag_300\n      swap1\n      tag_208\n      jump\t// in\n    tag_300:\n      mload(0x40)\n      dup1\n      swap2\n      sub\n      swap1\n      revert\n    tag_299:\n        /* \"contracts/Rental.sol\":7371:7381  contractId */\n      dup5\n        /* \"contracts/Rental.sol\":2984:3000  uint totalAmount */\n      0x00\n        /* \"contracts/Rental.sol\":3003:3018  getContractByID */\n      0x07\n        /* \"contracts/Rental.sol\":3003:3022  getContractByID[id] */\n      0x00\n        /* \"contracts/Rental.sol\":3019:3021  id */\n      dup4\n        /* \"contracts/Rental.sol\":3003:3022  getContractByID[id] */\n      dup2\n      mstore\n      0x20\n      add\n      swap1\n      dup2\n      mstore\n      0x20\n      add\n      0x00\n      keccak256\n        /* \"contracts/Rental.sol\":3003:3039  getContractByID[id].insuranceDeposit */\n      0x0e\n      add\n      sload\n        /* \"contracts/Rental.sol\":2984:3039  uint totalAmount = getContractByID[id].insuranceDeposit */\n      swap1\n      pop\n        /* \"contracts/Rental.sol\":3070:3081  totalAmount */\n      dup1\n        /* \"contracts/Rental.sol\":3057:3066  msg.value */\n      callvalue\n        /* \"contracts/Rental.sol\":3057:3081  msg.value >= totalAmount */\n      lt\n      iszero\n        /* \"contracts/Rental.sol\":3049:3150  require(msg.value >= totalAmount, \"Could not proceed because there is not enough ETH in your wallet\") */\n      tag_302\n      jumpi\n      mload(0x40)\n      0x08c379a000000000000000000000000000000000000000000000000000000000\n      dup2\n      mstore\n      0x04\n      add\n      tag_303\n      swap1\n      tag_266\n      jump\t// in\n    tag_303:\n      mload(0x40)\n      dup1\n      swap2\n      sub\n      swap1\n      revert\n    tag_302:\n        /* \"contracts/Rental.sol\":7492:7516  ContractStatus.Completed */\n      0x02\n        /* \"contracts/Rental.sol\":7455:7470  getContractByID */\n      0x07\n        /* \"contracts/Rental.sol\":7455:7482  getContractByID[contractId] */\n      0x00\n        /* \"contracts/Rental.sol\":7471:7481  contractId */\n      dup10\n        /* \"contracts/Rental.sol\":7455:7482  getContractByID[contractId] */\n      dup2\n      mstore\n      0x20\n      add\n      swap1\n      dup2\n      mstore\n      0x20\n      add\n      0x00\n      keccak256\n        /* \"contracts/Rental.sol\":7455:7489  getContractByID[contractId].status */\n      0x10\n      add\n      0x00\n        /* \"contracts/Rental.sol\":7455:7516  getContractByID[contractId].status = ContractStatus.Completed */\n      0x0100\n      exp\n      dup2\n      sload\n      dup2\n      0xff\n      mul\n      not\n      and\n      swap1\n      dup4\n      0x02\n      dup2\n      gt\n      iszero\n      tag_305\n      jumpi\n      tag_306\n      tag_169\n      jump\t// in\n    tag_306:\n    tag_305:\n      mul\n      or\n      swap1\n      sstore\n      pop\n        /* \"contracts/Rental.sol\":7557:7580  VehicleStatus.Available */\n      0x00\n        /* \"contracts/Rental.sol\":7526:7540  getVehicleByID */\n      0x05\n        /* \"contracts/Rental.sol\":7526:7547  getVehicleByID[carId] */\n      0x00\n        /* \"contracts/Rental.sol\":7541:7546  carId */\n      dup9\n        /* \"contracts/Rental.sol\":7526:7547  getVehicleByID[carId] */\n      dup2\n      mstore\n      0x20\n      add\n      swap1\n      dup2\n      mstore\n      0x20\n      add\n      0x00\n      keccak256\n        /* \"contracts/Rental.sol\":7526:7554  getVehicleByID[carId].status */\n      0x09\n      add\n      0x00\n        /* \"contracts/Rental.sol\":7526:7580  getVehicleByID[carId].status = VehicleStatus.Available */\n      0x0100\n      exp\n      dup2\n      sload\n      dup2\n      0xff\n      mul\n      not\n      and\n      swap1\n      dup4\n      0x01\n      dup2\n      gt\n      iszero\n      tag_307\n      jumpi\n      tag_308\n      tag_169\n      jump\t// in\n    tag_308:\n    tag_307:\n      mul\n      or\n      swap1\n      sstore\n      pop\n        /* \"contracts/Rental.sol\":7617:7638  uint insuranceDeposit */\n      0x00\n        /* \"contracts/Rental.sol\":7641:7656  getContractByID */\n      0x07\n        /* \"contracts/Rental.sol\":7641:7668  getContractByID[contractId] */\n      0x00\n        /* \"contracts/Rental.sol\":7657:7667  contractId */\n      dup10\n        /* \"contracts/Rental.sol\":7641:7668  getContractByID[contractId] */\n      dup2\n      mstore\n      0x20\n      add\n      swap1\n      dup2\n      mstore\n      0x20\n      add\n      0x00\n      keccak256\n        /* \"contracts/Rental.sol\":7641:7685  getContractByID[contractId].insuranceDeposit */\n      0x0e\n      add\n      sload\n        /* \"contracts/Rental.sol\":7617:7685  uint insuranceDeposit = getContractByID[contractId].insuranceDeposit */\n      swap1\n      pop\n        /* \"contracts/Rental.sol\":7881:7894  contractCount */\n      sload(0x04)\n        /* \"contracts/Rental.sol\":7861:7870  contracts */\n      0x08\n        /* \"contracts/Rental.sol\":7861:7877  contracts.length */\n      dup1\n      sload\n      swap1\n      pop\n        /* \"contracts/Rental.sol\":7861:7894  contracts.length == contractCount */\n      eq\n        /* \"contracts/Rental.sol\":7854:7894  return contracts.length == contractCount */\n      swap6\n      pop\n      pop\n        /* \"contracts/Rental.sol\":2974:3168  {... */\n      pop\n        /* \"contracts/Rental.sol\":2534:2535  _ */\n      pop\n        /* \"contracts/Rental.sol\":1813:1814  _ */\n      pop\n        /* \"contracts/Access.sol\":618:619  _ */\n      pop\n        /* \"contracts/Rental.sol\":7202:7901  function completion(uint contractId, uint carId) ... */\n      swap3\n      swap2\n      pop\n      pop\n      jump\t// out\n        /* \"contracts/utils/AccessControl.sol\":2691:2819  function getRoleMember(bytes32 role, uint256 index) public view returns (address) {... */\n    tag_99:\n        /* \"contracts/utils/AccessControl.sol\":2764:2771  address */\n      0x00\n        /* \"contracts/utils/AccessControl.sol\":2790:2812  _roles[role].at(index) */\n      tag_310\n        /* \"contracts/utils/AccessControl.sol\":2806:2811  index */\n      dup3\n        /* \"contracts/utils/AccessControl.sol\":2790:2796  _roles */\n      0x00\n        /* \"contracts/utils/AccessControl.sol\":2790:2802  _roles[role] */\n      dup1\n        /* \"contracts/utils/AccessControl.sol\":2797:2801  role */\n      dup7\n        /* \"contracts/utils/AccessControl.sol\":2790:2802  _roles[role] */\n      dup2\n      mstore\n      0x20\n      add\n      swap1\n      dup2\n      mstore\n      0x20\n      add\n      0x00\n      keccak256\n        /* \"contracts/utils/AccessControl.sol\":2790:2805  _roles[role].at */\n      tag_311\n      swap1\n        /* \"contracts/utils/AccessControl.sol\":2790:2812  _roles[role].at(index) */\n      swap2\n      swap1\n      0xffffffff\n      and\n      jump\t// in\n    tag_310:\n        /* \"contracts/utils/AccessControl.sol\":2783:2812  return _roles[role].at(index) */\n      swap1\n      pop\n        /* \"contracts/utils/AccessControl.sol\":2691:2819  function getRoleMember(bytes32 role, uint256 index) public view returns (address) {... */\n      swap3\n      swap2\n      pop\n      pop\n      jump\t// out\n        /* \"contracts/utils/AccessControl.sol\":1459:1588  function hasRole(bytes32 role, address account) public view returns (bool) {... */\n    tag_106:\n        /* \"contracts/utils/AccessControl.sol\":1528:1532  bool */\n      0x00\n        /* \"contracts/utils/AccessControl.sol\":1551:1581  _roles[role].contains(account) */\n      tag_313\n        /* \"contracts/utils/AccessControl.sol\":1573:1580  account */\n      dup3\n        /* \"contracts/utils/AccessControl.sol\":1551:1557  _roles */\n      0x00\n        /* \"contracts/utils/AccessControl.sol\":1551:1563  _roles[role] */\n      dup1\n        /* \"contracts/utils/AccessControl.sol\":1558:1562  role */\n      dup7\n        /* \"contracts/utils/AccessControl.sol\":1551:1563  _roles[role] */\n      dup2\n      mstore\n      0x20\n      add\n      swap1\n      dup2\n      mstore\n      0x20\n      add\n      0x00\n      keccak256\n        /* \"contracts/utils/AccessControl.sol\":1551:1572  _roles[role].contains */\n      tag_314\n      swap1\n        /* \"contracts/utils/AccessControl.sol\":1551:1581  _roles[role].contains(account) */\n      swap2\n      swap1\n      0xffffffff\n      and\n      jump\t// in\n    tag_313:\n        /* \"contracts/utils/AccessControl.sol\":1544:1581  return _roles[role].contains(account) */\n      swap1\n      pop\n        /* \"contracts/utils/AccessControl.sol\":1459:1588  function hasRole(bytes32 role, address account) public view returns (bool) {... */\n      swap3\n      swap2\n      pop\n      pop\n      jump\t// out\n        /* \"contracts/Rental.sol\":1082:1110  uint public vehicleCount = 0 */\n    tag_110:\n      sload(0x03)\n      dup2\n      jump\t// out\n        /* \"contracts/Access.sol\":898:1021  function isRenter(address account) public virtual view returns (bool) {... */\n    tag_115:\n        /* \"contracts/Access.sol\":962:966  bool */\n      0x00\n        /* \"contracts/Access.sol\":985:1014  hasRole(RENTER_ROLE, account) */\n      tag_316\n        /* \"contracts/Access.sol\":993:1004  RENTER_ROLE */\n      0x52454e5445520000000000000000000000000000000000000000000000000000\n        /* \"contracts/Access.sol\":1006:1013  account */\n      dup4\n        /* \"contracts/Access.sol\":985:992  hasRole */\n      tag_106\n        /* \"contracts/Access.sol\":985:1014  hasRole(RENTER_ROLE, account) */\n      jump\t// in\n    tag_316:\n        /* \"contracts/Access.sol\":978:1014  return hasRole(RENTER_ROLE, account) */\n      swap1\n      pop\n        /* \"contracts/Access.sol\":898:1021  function isRenter(address account) public virtual view returns (bool) {... */\n      swap2\n      swap1\n      pop\n      jump\t// out\n        /* \"contracts/Rental.sol\":4288:4964  function addRentPeriod(uint carId, Period memory period, uint dayscount) ... */\n    tag_121:\n        /* \"contracts/Rental.sol\":4458:4470  bool success */\n      0x00\n        /* \"contracts/Access.sol\":561:581  isRenter(msg.sender) */\n      tag_318\n        /* \"contracts/Access.sol\":570:580  msg.sender */\n      caller\n        /* \"contracts/Access.sol\":561:569  isRenter */\n      tag_115\n        /* \"contracts/Access.sol\":561:581  isRenter(msg.sender) */\n      jump\t// in\n    tag_318:\n        /* \"contracts/Access.sol\":553:608  require(isRenter(msg.sender), \"Restricted to renters.\") */\n      tag_319\n      jumpi\n      mload(0x40)\n      0x08c379a000000000000000000000000000000000000000000000000000000000\n      dup2\n      mstore\n      0x04\n      add\n      tag_320\n      swap1\n      tag_196\n      jump\t// in\n    tag_320:\n      mload(0x40)\n      dup1\n      swap2\n      sub\n      swap1\n      revert\n    tag_319:\n        /* \"contracts/Rental.sol\":4411:4416  carId */\n      dup4\n        /* \"contracts/Rental.sol\":1733:1736  0x0 */\n      0x00\n        /* \"contracts/Rental.sol\":1704:1718  getVehicleByID */\n      0x05\n        /* \"contracts/Rental.sol\":1704:1722  getVehicleByID[id] */\n      0x00\n        /* \"contracts/Rental.sol\":1719:1721  id */\n      dup4\n        /* \"contracts/Rental.sol\":1704:1722  getVehicleByID[id] */\n      dup2\n      mstore\n      0x20\n      add\n      swap1\n      dup2\n      mstore\n      0x20\n      add\n      0x00\n      keccak256\n        /* \"contracts/Rental.sol\":1704:1725  getVehicleByID[id].id */\n      0x00\n      add\n      sload\n        /* \"contracts/Rental.sol\":1704:1737  getVehicleByID[id].id > uint(0x0) */\n      gt\n        /* \"contracts/Rental.sol\":1696:1803  require(getVehicleByID[id].id > uint(0x0), \"The following vehicle could not be found in the mapping list.\") */\n      tag_322\n      jumpi\n      mload(0x40)\n      0x08c379a000000000000000000000000000000000000000000000000000000000\n      dup2\n      mstore\n      0x04\n      add\n      tag_323\n      swap1\n      tag_251\n      jump\t// in\n    tag_323:\n      mload(0x40)\n      dup1\n      swap2\n      sub\n      swap1\n      revert\n    tag_322:\n        /* \"contracts/Rental.sol\":2230:2231  1 */\n      0x01\n        /* \"contracts/Rental.sol\":2216:2229  contractCount */\n      sload(0x04)\n        /* \"contracts/Rental.sol\":2216:2231  contractCount+1 */\n      tag_325\n      swap2\n      swap1\n      tag_160\n      jump\t// in\n    tag_325:\n        /* \"contracts/Rental.sol\":2197:2206  contracts */\n      0x08\n        /* \"contracts/Rental.sol\":2197:2213  contracts.length */\n      dup1\n      sload\n      swap1\n      pop\n        /* \"contracts/Rental.sol\":2197:2231  contracts.length < contractCount+1 */\n      lt\n        /* \"contracts/Rental.sol\":2189:2282  require(contracts.length < contractCount+1, \"The following contract has already been added.\") */\n      tag_326\n      jumpi\n      mload(0x40)\n      0x08c379a000000000000000000000000000000000000000000000000000000000\n      dup2\n      mstore\n      0x04\n      add\n      tag_327\n      swap1\n      tag_328\n      jump\t// in\n    tag_327:\n      mload(0x40)\n      dup1\n      swap2\n      sub\n      swap1\n      revert\n    tag_326:\n        /* \"contracts/Rental.sol\":4486:4499  contractCount */\n      0x04\n      0x00\n        /* \"contracts/Rental.sol\":4486:4501  contractCount++ */\n      dup2\n      sload\n      dup1\n      swap3\n      swap2\n      swap1\n      tag_330\n      swap1\n      tag_166\n      jump\t// in\n    tag_330:\n      swap2\n      swap1\n      pop\n      sstore\n      pop\n        /* \"contracts/Rental.sol\":4511:4525  uint feeAmount */\n      0x00\n        /* \"contracts/Rental.sol\":4561:4570  dayscount */\n      dup4\n        /* \"contracts/Rental.sol\":4528:4542  getVehicleByID */\n      0x05\n        /* \"contracts/Rental.sol\":4528:4549  getVehicleByID[carId] */\n      0x00\n        /* \"contracts/Rental.sol\":4543:4548  carId */\n      dup9\n        /* \"contracts/Rental.sol\":4528:4549  getVehicleByID[carId] */\n      dup2\n      mstore\n      0x20\n      add\n      swap1\n      dup2\n      mstore\n      0x20\n      add\n      0x00\n      keccak256\n        /* \"contracts/Rental.sol\":4528:4558  getVehicleByID[carId].rentCost */\n      0x08\n      add\n      sload\n        /* \"contracts/Rental.sol\":4528:4570  getVehicleByID[carId].rentCost * dayscount */\n      tag_331\n      swap2\n      swap1\n      tag_332\n      jump\t// in\n    tag_331:\n        /* \"contracts/Rental.sol\":4511:4570  uint feeAmount = getVehicleByID[carId].rentCost * dayscount */\n      swap1\n      pop\n        /* \"contracts/Rental.sol\":4580:4608  Contract memory temporaryObj */\n      0x00\n        /* \"contracts/Rental.sol\":4611:4813  Contract(... */\n      mload(0x40)\n      dup1\n      0xe0\n      add\n      0x40\n      mstore\n      dup1\n        /* \"contracts/Rental.sol\":4633:4643  msg.sender */\n      caller\n        /* \"contracts/Rental.sol\":4611:4813  Contract(... */\n      0xffffffffffffffffffffffffffffffffffffffff\n      and\n      dup2\n      mstore\n      0x20\n      add\n        /* \"contracts/Rental.sol\":4657:4671  getVehicleByID */\n      0x05\n        /* \"contracts/Rental.sol\":4657:4678  getVehicleByID[carId] */\n      0x00\n        /* \"contracts/Rental.sol\":4672:4677  carId */\n      dup11\n        /* \"contracts/Rental.sol\":4657:4678  getVehicleByID[carId] */\n      dup2\n      mstore\n      0x20\n      add\n      swap1\n      dup2\n      mstore\n      0x20\n      add\n      0x00\n      keccak256\n        /* \"contracts/Rental.sol\":4611:4813  Contract(... */\n      mload(0x40)\n      dup1\n      0x0120\n      add\n      0x40\n      mstore\n      swap1\n      dup2\n      0x00\n      dup3\n      add\n      sload\n      dup2\n      mstore\n      0x20\n      add\n      0x01\n      dup3\n      add\n      sload\n      dup2\n      mstore\n      0x20\n      add\n      0x02\n      dup3\n      add\n      sload\n      dup2\n      mstore\n      0x20\n      add\n      0x03\n      dup3\n      add\n      0x00\n      swap1\n      sload\n      swap1\n      0x0100\n      exp\n      swap1\n      div\n      0xff\n      and\n      0x06\n      dup2\n      gt\n      iszero\n      tag_333\n      jumpi\n      tag_334\n      tag_169\n      jump\t// in\n    tag_334:\n    tag_333:\n      0x06\n      dup2\n      gt\n      iszero\n      tag_335\n      jumpi\n      tag_336\n      tag_169\n      jump\t// in\n    tag_336:\n    tag_335:\n      dup2\n      mstore\n      0x20\n      add\n      0x04\n      dup3\n      add\n      mload(0x40)\n      dup1\n      0x40\n      add\n      0x40\n      mstore\n      swap1\n      dup2\n      0x00\n      dup3\n      add\n      dup1\n      sload\n      tag_337\n      swap1\n      tag_217\n      jump\t// in\n    tag_337:\n      dup1\n      0x1f\n      add\n      0x20\n      dup1\n      swap2\n      div\n      mul\n      0x20\n      add\n      mload(0x40)\n      swap1\n      dup2\n      add\n      0x40\n      mstore\n      dup1\n      swap3\n      swap2\n      swap1\n      dup2\n      dup2\n      mstore\n      0x20\n      add\n      dup3\n      dup1\n      sload\n      tag_338\n      swap1\n      tag_217\n      jump\t// in\n    tag_338:\n      dup1\n      iszero\n      tag_339\n      jumpi\n      dup1\n      0x1f\n      lt\n      tag_340\n      jumpi\n      0x0100\n      dup1\n      dup4\n      sload\n      div\n      mul\n      dup4\n      mstore\n      swap2\n      0x20\n      add\n      swap2\n      jump(tag_339)\n    tag_340:\n      dup3\n      add\n      swap2\n      swap1\n      0x00\n      mstore\n      keccak256(0x00, 0x20)\n      swap1\n    tag_341:\n      dup2\n      sload\n      dup2\n      mstore\n      swap1\n      0x01\n      add\n      swap1\n      0x20\n      add\n      dup1\n      dup4\n      gt\n      tag_341\n      jumpi\n      dup3\n      swap1\n      sub\n      0x1f\n      and\n      dup3\n      add\n      swap2\n    tag_339:\n      pop\n      pop\n      pop\n      pop\n      pop\n      dup2\n      mstore\n      0x20\n      add\n      0x01\n      dup3\n      add\n      dup1\n      sload\n      tag_342\n      swap1\n      tag_217\n      jump\t// in\n    tag_342:\n      dup1\n      0x1f\n      add\n      0x20\n      dup1\n      swap2\n      div\n      mul\n      0x20\n      add\n      mload(0x40)\n      swap1\n      dup2\n      add\n      0x40\n      mstore\n      dup1\n      swap3\n      swap2\n      swap1\n      dup2\n      dup2\n      mstore\n      0x20\n      add\n      dup3\n      dup1\n      sload\n      tag_343\n      swap1\n      tag_217\n      jump\t// in\n    tag_343:\n      dup1\n      iszero\n      tag_344\n      jumpi\n      dup1\n      0x1f\n      lt\n      tag_345\n      jumpi\n      0x0100\n      dup1\n      dup4\n      sload\n      div\n      mul\n      dup4\n      mstore\n      swap2\n      0x20\n      add\n      swap2\n      jump(tag_344)\n    tag_345:\n      dup3\n      add\n      swap2\n      swap1\n      0x00\n      mstore\n      keccak256(0x00, 0x20)\n      swap1\n    tag_346:\n      dup2\n      sload\n      dup2\n      mstore\n      swap1\n      0x01\n      add\n      swap1\n      0x20\n      add\n      dup1\n      dup4\n      gt\n      tag_346\n      jumpi\n      dup3\n      swap1\n      sub\n      0x1f\n      and\n      dup3\n      add\n      swap2\n    tag_344:\n      pop\n      pop\n      pop\n      pop\n      pop\n      dup2\n      mstore\n      pop\n      pop\n      dup2\n      mstore\n      0x20\n      add\n      0x06\n      dup3\n      add\n      sload\n      dup2\n      mstore\n      0x20\n      add\n      0x07\n      dup3\n      add\n      sload\n      dup2\n      mstore\n      0x20\n      add\n      0x08\n      dup3\n      add\n      sload\n      dup2\n      mstore\n      0x20\n      add\n      0x09\n      dup3\n      add\n      0x00\n      swap1\n      sload\n      swap1\n      0x0100\n      exp\n      swap1\n      div\n      0xff\n      and\n      0x01\n      dup2\n      gt\n      iszero\n      tag_347\n      jumpi\n      tag_348\n      tag_169\n      jump\t// in\n    tag_348:\n    tag_347:\n      0x01\n      dup2\n      gt\n      iszero\n      tag_349\n      jumpi\n      tag_350\n      tag_169\n      jump\t// in\n    tag_350:\n    tag_349:\n      dup2\n      mstore\n      pop\n      pop\n      dup2\n      mstore\n      0x20\n      add\n        /* \"contracts/Rental.sol\":4692:4698  period */\n      dup8\n        /* \"contracts/Rental.sol\":4611:4813  Contract(... */\n      dup2\n      mstore\n      0x20\n      add\n        /* \"contracts/Rental.sol\":4712:4721  feeAmount */\n      dup4\n        /* \"contracts/Rental.sol\":4611:4813  Contract(... */\n      dup2\n      mstore\n      0x20\n      add\n        /* \"contracts/Rental.sol\":4735:4736  0 */\n      0x00\n        /* \"contracts/Rental.sol\":4611:4813  Contract(... */\n      dup2\n      mstore\n      0x20\n      add\n        /* \"contracts/Rental.sol\":4750:4765  block.timestamp */\n      timestamp\n        /* \"contracts/Rental.sol\":4611:4813  Contract(... */\n      dup2\n      mstore\n      0x20\n      add\n        /* \"contracts/Rental.sol\":4779:4803  ContractStatus.Initiated */\n      0x00\n        /* \"contracts/Rental.sol\":4611:4813  Contract(... */\n      0x02\n      dup2\n      gt\n      iszero\n      tag_351\n      jumpi\n      tag_352\n      tag_169\n      jump\t// in\n    tag_352:\n    tag_351:\n      dup2\n      mstore\n      pop\n        /* \"contracts/Rental.sol\":4580:4813  Contract memory temporaryObj = Contract(... */\n      swap1\n      pop\n        /* \"contracts/Rental.sol\":4856:4868  temporaryObj */\n      dup1\n        /* \"contracts/Rental.sol\":4823:4838  getContractByID */\n      0x07\n        /* \"contracts/Rental.sol\":4823:4853  getContractByID[contractCount] */\n      0x00\n        /* \"contracts/Rental.sol\":4839:4852  contractCount */\n      sload(0x04)\n        /* \"contracts/Rental.sol\":4823:4853  getContractByID[contractCount] */\n      dup2\n      mstore\n      0x20\n      add\n      swap1\n      dup2\n      mstore\n      0x20\n      add\n      0x00\n      keccak256\n        /* \"contracts/Rental.sol\":4823:4868  getContractByID[contractCount] = temporaryObj */\n      0x00\n      dup3\n      add\n      mload\n      dup2\n      0x00\n      add\n      exp(0x0100, 0x00)\n      dup2\n      sload\n      dup2\n      0xffffffffffffffffffffffffffffffffffffffff\n      mul\n      not\n      and\n      swap1\n      dup4\n      0xffffffffffffffffffffffffffffffffffffffff\n      and\n      mul\n      or\n      swap1\n      sstore\n      pop\n      0x20\n      dup3\n      add\n      mload\n      dup2\n      0x01\n      add\n      0x00\n      dup3\n      add\n      mload\n      dup2\n      0x00\n      add\n      sstore\n      0x20\n      dup3\n      add\n      mload\n      dup2\n      0x01\n      add\n      sstore\n      0x40\n      dup3\n      add\n      mload\n      dup2\n      0x02\n      add\n      sstore\n      0x60\n      dup3\n      add\n      mload\n      dup2\n      0x03\n      add\n      exp(0x0100, 0x00)\n      dup2\n      sload\n      dup2\n      0xff\n      mul\n      not\n      and\n      swap1\n      dup4\n      0x06\n      dup2\n      gt\n      iszero\n      tag_353\n      jumpi\n      tag_354\n      tag_169\n      jump\t// in\n    tag_354:\n    tag_353:\n      mul\n      or\n      swap1\n      sstore\n      pop\n      0x80\n      dup3\n      add\n      mload\n      dup2\n      0x04\n      add\n      0x00\n      dup3\n      add\n      mload\n      dup2\n      0x00\n      add\n      swap1\n      dup1\n      mload\n      swap1\n      0x20\n      add\n      swap1\n      tag_355\n      swap3\n      swap2\n      swap1\n      tag_175\n      jump\t// in\n    tag_355:\n      pop\n      0x20\n      dup3\n      add\n      mload\n      dup2\n      0x01\n      add\n      swap1\n      dup1\n      mload\n      swap1\n      0x20\n      add\n      swap1\n      tag_356\n      swap3\n      swap2\n      swap1\n      tag_175\n      jump\t// in\n    tag_356:\n      pop\n      pop\n      pop\n      0xa0\n      dup3\n      add\n      mload\n      dup2\n      0x06\n      add\n      sstore\n      0xc0\n      dup3\n      add\n      mload\n      dup2\n      0x07\n      add\n      sstore\n      0xe0\n      dup3\n      add\n      mload\n      dup2\n      0x08\n      add\n      sstore\n      0x0100\n      dup3\n      add\n      mload\n      dup2\n      0x09\n      add\n      exp(0x0100, 0x00)\n      dup2\n      sload\n      dup2\n      0xff\n      mul\n      not\n      and\n      swap1\n      dup4\n      0x01\n      dup2\n      gt\n      iszero\n      tag_357\n      jumpi\n      tag_358\n      tag_169\n      jump\t// in\n    tag_358:\n    tag_357:\n      mul\n      or\n      swap1\n      sstore\n      pop\n      pop\n      pop\n      0x40\n      dup3\n      add\n      mload\n      dup2\n      0x0b\n      add\n      0x00\n      dup3\n      add\n      mload\n      dup2\n      0x00\n      add\n      sstore\n      0x20\n      dup3\n      add\n      mload\n      dup2\n      0x01\n      add\n      sstore\n      pop\n      pop\n      0x60\n      dup3\n      add\n      mload\n      dup2\n      0x0d\n      add\n      sstore\n      0x80\n      dup3\n      add\n      mload\n      dup2\n      0x0e\n      add\n      sstore\n      0xa0\n      dup3\n      add\n      mload\n      dup2\n      0x0f\n      add\n      sstore\n      0xc0\n      dup3\n      add\n      mload\n      dup2\n      0x10\n      add\n      exp(0x0100, 0x00)\n      dup2\n      sload\n      dup2\n      0xff\n      mul\n      not\n      and\n      swap1\n      dup4\n      0x02\n      dup2\n      gt\n      iszero\n      tag_359\n      jumpi\n      tag_360\n      tag_169\n      jump\t// in\n    tag_360:\n    tag_359:\n      mul\n      or\n      swap1\n      sstore\n      pop\n      swap1\n      pop\n      pop\n        /* \"contracts/Rental.sol\":4878:4887  contracts */\n      0x08\n        /* \"contracts/Rental.sol\":4893:4905  temporaryObj */\n      dup2\n        /* \"contracts/Rental.sol\":4878:4906  contracts.push(temporaryObj) */\n      swap1\n      dup1\n      0x01\n      dup2\n      sload\n      add\n      dup1\n      dup3\n      sstore\n      dup1\n      swap2\n      pop\n      pop\n      0x01\n      swap1\n      sub\n      swap1\n      0x00\n      mstore\n      keccak256(0x00, 0x20)\n      swap1\n      0x11\n      mul\n      add\n      0x00\n      swap1\n      swap2\n      swap1\n      swap2\n      swap1\n      swap2\n      pop\n      0x00\n      dup3\n      add\n      mload\n      dup2\n      0x00\n      add\n      exp(0x0100, 0x00)\n      dup2\n      sload\n      dup2\n      0xffffffffffffffffffffffffffffffffffffffff\n      mul\n      not\n      and\n      swap1\n      dup4\n      0xffffffffffffffffffffffffffffffffffffffff\n      and\n      mul\n      or\n      swap1\n      sstore\n      pop\n      0x20\n      dup3\n      add\n      mload\n      dup2\n      0x01\n      add\n      0x00\n      dup3\n      add\n      mload\n      dup2\n      0x00\n      add\n      sstore\n      0x20\n      dup3\n      add\n      mload\n      dup2\n      0x01\n      add\n      sstore\n      0x40\n      dup3\n      add\n      mload\n      dup2\n      0x02\n      add\n      sstore\n      0x60\n      dup3\n      add\n      mload\n      dup2\n      0x03\n      add\n      exp(0x0100, 0x00)\n      dup2\n      sload\n      dup2\n      0xff\n      mul\n      not\n      and\n      swap1\n      dup4\n      0x06\n      dup2\n      gt\n      iszero\n      tag_362\n      jumpi\n      tag_363\n      tag_169\n      jump\t// in\n    tag_363:\n    tag_362:\n      mul\n      or\n      swap1\n      sstore\n      pop\n      0x80\n      dup3\n      add\n      mload\n      dup2\n      0x04\n      add\n      0x00\n      dup3\n      add\n      mload\n      dup2\n      0x00\n      add\n      swap1\n      dup1\n      mload\n      swap1\n      0x20\n      add\n      swap1\n      tag_364\n      swap3\n      swap2\n      swap1\n      tag_175\n      jump\t// in\n    tag_364:\n      pop\n      0x20\n      dup3\n      add\n      mload\n      dup2\n      0x01\n      add\n      swap1\n      dup1\n      mload\n      swap1\n      0x20\n      add\n      swap1\n      tag_365\n      swap3\n      swap2\n      swap1\n      tag_175\n      jump\t// in\n    tag_365:\n      pop\n      pop\n      pop\n      0xa0\n      dup3\n      add\n      mload\n      dup2\n      0x06\n      add\n      sstore\n      0xc0\n      dup3\n      add\n      mload\n      dup2\n      0x07\n      add\n      sstore\n      0xe0\n      dup3\n      add\n      mload\n      dup2\n      0x08\n      add\n      sstore\n      0x0100\n      dup3\n      add\n      mload\n      dup2\n      0x09\n      add\n      exp(0x0100, 0x00)\n      dup2\n      sload\n      dup2\n      0xff\n      mul\n      not\n      and\n      swap1\n      dup4\n      0x01\n      dup2\n      gt\n      iszero\n      tag_366\n      jumpi\n      tag_367\n      tag_169\n      jump\t// in\n    tag_367:\n    tag_366:\n      mul\n      or\n      swap1\n      sstore\n      pop\n      pop\n      pop\n      0x40\n      dup3\n      add\n      mload\n      dup2\n      0x0b\n      add\n      0x00\n      dup3\n      add\n      mload\n      dup2\n      0x00\n      add\n      sstore\n      0x20\n      dup3\n      add\n      mload\n      dup2\n      0x01\n      add\n      sstore\n      pop\n      pop\n      0x60\n      dup3\n      add\n      mload\n      dup2\n      0x0d\n      add\n      sstore\n      0x80\n      dup3\n      add\n      mload\n      dup2\n      0x0e\n      add\n      sstore\n      0xa0\n      dup3\n      add\n      mload\n      dup2\n      0x0f\n      add\n      sstore\n      0xc0\n      dup3\n      add\n      mload\n      dup2\n      0x10\n      add\n      exp(0x0100, 0x00)\n      dup2\n      sload\n      dup2\n      0xff\n      mul\n      not\n      and\n      swap1\n      dup4\n      0x02\n      dup2\n      gt\n      iszero\n      tag_368\n      jumpi\n      tag_369\n      tag_169\n      jump\t// in\n    tag_369:\n    tag_368:\n      mul\n      or\n      swap1\n      sstore\n      pop\n      pop\n      pop\n        /* \"contracts/Rental.sol\":4944:4957  contractCount */\n      sload(0x04)\n        /* \"contracts/Rental.sol\":4924:4933  contracts */\n      0x08\n        /* \"contracts/Rental.sol\":4924:4940  contracts.length */\n      dup1\n      sload\n      swap1\n      pop\n        /* \"contracts/Rental.sol\":4924:4957  contracts.length == contractCount */\n      eq\n        /* \"contracts/Rental.sol\":4917:4957  return contracts.length == contractCount */\n      swap4\n      pop\n      pop\n      pop\n        /* \"contracts/Access.sol\":618:619  _ */\n      pop\n        /* \"contracts/Rental.sol\":4288:4964  function addRentPeriod(uint carId, Period memory period, uint dayscount) ... */\n      swap4\n      swap3\n      pop\n      pop\n      pop\n      jump\t// out\n        /* \"contracts/Access.sol\":2027:2121  function renounceRenter() public virtual {... */\n    tag_125:\n        /* \"contracts/Access.sol\":2078:2114  _revokeRole(RENTER_ROLE, msg.sender) */\n      tag_371\n        /* \"contracts/Access.sol\":2090:2101  RENTER_ROLE */\n      0x52454e5445520000000000000000000000000000000000000000000000000000\n        /* \"contracts/Access.sol\":2103:2113  msg.sender */\n      caller\n        /* \"contracts/Access.sol\":2078:2089  _revokeRole */\n      tag_152\n        /* \"contracts/Access.sol\":2078:2114  _revokeRole(RENTER_ROLE, msg.sender) */\n      jump\t// in\n    tag_371:\n        /* \"contracts/Access.sol\":2027:2121  function renounceRenter() public virtual {... */\n      jump\t// out\n        /* \"contracts/Rental.sol\":1204:1229  Vehicle[] public vehicles */\n    tag_129:\n      0x06\n      dup2\n      dup2\n      sload\n      dup2\n      lt\n      tag_372\n      jumpi\n      0x00\n      dup1\n      revert\n    tag_372:\n      swap1\n      0x00\n      mstore\n      keccak256(0x00, 0x20)\n      swap1\n      0x0a\n      mul\n      add\n      0x00\n      swap2\n      pop\n      swap1\n      pop\n      dup1\n      0x00\n      add\n      sload\n      swap1\n      dup1\n      0x01\n      add\n      sload\n      swap1\n      dup1\n      0x02\n      add\n      sload\n      swap1\n      dup1\n      0x03\n      add\n      0x00\n      swap1\n      sload\n      swap1\n      0x0100\n      exp\n      swap1\n      div\n      0xff\n      and\n      swap1\n      dup1\n      0x04\n      add\n      mload(0x40)\n      dup1\n      0x40\n      add\n      0x40\n      mstore\n      swap1\n      dup2\n      0x00\n      dup3\n      add\n      dup1\n      sload\n      tag_374\n      swap1\n      tag_217\n      jump\t// in\n    tag_374:\n      dup1\n      0x1f\n      add\n      0x20\n      dup1\n      swap2\n      div\n      mul\n      0x20\n      add\n      mload(0x40)\n      swap1\n      dup2\n      add\n      0x40\n      mstore\n      dup1\n      swap3\n      swap2\n      swap1\n      dup2\n      dup2\n      mstore\n      0x20\n      add\n      dup3\n      dup1\n      sload\n      tag_375\n      swap1\n      tag_217\n      jump\t// in\n    tag_375:\n      dup1\n      iszero\n      tag_376\n      jumpi\n      dup1\n      0x1f\n      lt\n      tag_377\n      jumpi\n      0x0100\n      dup1\n      dup4\n      sload\n      div\n      mul\n      dup4\n      mstore\n      swap2\n      0x20\n      add\n      swap2\n      jump(tag_376)\n    tag_377:\n      dup3\n      add\n      swap2\n      swap1\n      0x00\n      mstore\n      keccak256(0x00, 0x20)\n      swap1\n    tag_378:\n      dup2\n      sload\n      dup2\n      mstore\n      swap1\n      0x01\n      add\n      swap1\n      0x20\n      add\n      dup1\n      dup4\n      gt\n      tag_378\n      jumpi\n      dup3\n      swap1\n      sub\n      0x1f\n      and\n      dup3\n      add\n      swap2\n    tag_376:\n      pop\n      pop\n      pop\n      pop\n      pop\n      dup2\n      mstore\n      0x20\n      add\n      0x01\n      dup3\n      add\n      dup1\n      sload\n      tag_379\n      swap1\n      tag_217\n      jump\t// in\n    tag_379:\n      dup1\n      0x1f\n      add\n      0x20\n      dup1\n      swap2\n      div\n      mul\n      0x20\n      add\n      mload(0x40)\n      swap1\n      dup2\n      add\n      0x40\n      mstore\n      dup1\n      swap3\n      swap2\n      swap1\n      dup2\n      dup2\n      mstore\n      0x20\n      add\n      dup3\n      dup1\n      sload\n      tag_380\n      swap1\n      tag_217\n      jump\t// in\n    tag_380:\n      dup1\n      iszero\n      tag_381\n      jumpi\n      dup1\n      0x1f\n      lt\n      tag_382\n      jumpi\n      0x0100\n      dup1\n      dup4\n      sload\n      div\n      mul\n      dup4\n      mstore\n      swap2\n      0x20\n      add\n      swap2\n      jump(tag_381)\n    tag_382:\n      dup3\n      add\n      swap2\n      swap1\n      0x00\n      mstore\n      keccak256(0x00, 0x20)\n      swap1\n    tag_383:\n      dup2\n      sload\n      dup2\n      mstore\n      swap1\n      0x01\n      add\n      swap1\n      0x20\n      add\n      dup1\n      dup4\n      gt\n      tag_383\n      jumpi\n      dup3\n      swap1\n      sub\n      0x1f\n      and\n      dup3\n      add\n      swap2\n    tag_381:\n      pop\n      pop\n      pop\n      pop\n      pop\n      dup2\n      mstore\n      pop\n      pop\n      swap1\n      dup1\n      0x06\n      add\n      sload\n      swap1\n      dup1\n      0x07\n      add\n      sload\n      swap1\n      dup1\n      0x08\n      add\n      sload\n      swap1\n      dup1\n      0x09\n      add\n      0x00\n      swap1\n      sload\n      swap1\n      0x0100\n      exp\n      swap1\n      div\n      0xff\n      and\n      swap1\n      pop\n      dup10\n      jump\t// out\n        /* \"contracts/Access.sol\":192:238  bytes32 public constant RENTER_ROLE = \"RENTER\" */\n    tag_133:\n      0x52454e5445520000000000000000000000000000000000000000000000000000\n      dup2\n      jump\t// out\n        /* \"contracts/utils/AccessControl.sol\":1840:1957  function getRoleMemberCount(bytes32 role) public view returns (uint256) {... */\n    tag_140:\n        /* \"contracts/utils/AccessControl.sol\":1903:1910  uint256 */\n      0x00\n        /* \"contracts/utils/AccessControl.sol\":1929:1950  _roles[role].length() */\n      tag_385\n        /* \"contracts/utils/AccessControl.sol\":1929:1935  _roles */\n      0x00\n        /* \"contracts/utils/AccessControl.sol\":1929:1941  _roles[role] */\n      dup1\n        /* \"contracts/utils/AccessControl.sol\":1936:1940  role */\n      dup5\n        /* \"contracts/utils/AccessControl.sol\":1929:1941  _roles[role] */\n      dup2\n      mstore\n      0x20\n      add\n      swap1\n      dup2\n      mstore\n      0x20\n      add\n      0x00\n      keccak256\n        /* \"contracts/utils/AccessControl.sol\":1929:1948  _roles[role].length */\n      tag_386\n        /* \"contracts/utils/AccessControl.sol\":1929:1950  _roles[role].length() */\n      jump\t// in\n    tag_385:\n        /* \"contracts/utils/AccessControl.sol\":1922:1950  return _roles[role].length() */\n      swap1\n      pop\n        /* \"contracts/utils/AccessControl.sol\":1840:1957  function getRoleMemberCount(bytes32 role) public view returns (uint256) {... */\n      swap2\n      swap1\n      pop\n      jump\t// out\n        /* \"contracts/Access.sol\":1100:1235  function addRenter(address account) public virtual {... */\n    tag_145:\n        /* \"contracts/Access.sol\":1178:1185  account */\n      dup1\n        /* \"contracts/Access.sol\":1161:1167  sender */\n      0x01\n      0x00\n        /* \"contracts/Access.sol\":1161:1186  sender = payable(account) */\n      0x0100\n      exp\n      dup2\n      sload\n      dup2\n      0xffffffffffffffffffffffffffffffffffffffff\n      mul\n      not\n      and\n      swap1\n      dup4\n      0xffffffffffffffffffffffffffffffffffffffff\n      and\n      mul\n      or\n      swap1\n      sstore\n      pop\n        /* \"contracts/Access.sol\":1196:1228  _grantRole(RENTER_ROLE, account) */\n      tag_388\n        /* \"contracts/Access.sol\":1207:1218  RENTER_ROLE */\n      0x52454e5445520000000000000000000000000000000000000000000000000000\n        /* \"contracts/Access.sol\":1220:1227  account */\n      dup3\n        /* \"contracts/Access.sol\":1196:1206  _grantRole */\n      tag_243\n        /* \"contracts/Access.sol\":1196:1228  _grantRole(RENTER_ROLE, account) */\n      jump\t// in\n    tag_388:\n        /* \"contracts/Access.sol\":1100:1235  function addRenter(address account) public virtual {... */\n      pop\n      jump\t// out\n        /* \"contracts/Access.sol\":142:186  bytes32 public constant OWNER_ROLE = \"OWNER\" */\n    tag_148:\n      0x4f574e4552000000000000000000000000000000000000000000000000000000\n      dup2\n      jump\t// out\n        /* \"contracts/utils/AccessControl.sol\":3008:3189  function _revokeRole(bytes32 role, address account) internal {... */\n    tag_152:\n        /* \"contracts/utils/AccessControl.sol\":3083:3111  _roles[role].remove(account) */\n      tag_390\n        /* \"contracts/utils/AccessControl.sol\":3103:3110  account */\n      dup2\n        /* \"contracts/utils/AccessControl.sol\":3083:3089  _roles */\n      0x00\n        /* \"contracts/utils/AccessControl.sol\":3083:3095  _roles[role] */\n      dup1\n        /* \"contracts/utils/AccessControl.sol\":3090:3094  role */\n      dup6\n        /* \"contracts/utils/AccessControl.sol\":3083:3095  _roles[role] */\n      dup2\n      mstore\n      0x20\n      add\n      swap1\n      dup2\n      mstore\n      0x20\n      add\n      0x00\n      keccak256\n        /* \"contracts/utils/AccessControl.sol\":3083:3102  _roles[role].remove */\n      tag_391\n      swap1\n        /* \"contracts/utils/AccessControl.sol\":3083:3111  _roles[role].remove(account) */\n      swap2\n      swap1\n      0xffffffff\n      and\n      jump\t// in\n    tag_390:\n        /* \"contracts/utils/AccessControl.sol\":3079:3183  if (_roles[role].remove(account)) {... */\n      iszero\n      tag_392\n      jumpi\n        /* \"contracts/utils/AccessControl.sol\":3159:3171  _msgSender() */\n      tag_393\n        /* \"contracts/utils/AccessControl.sol\":3159:3169  _msgSender */\n      tag_394\n        /* \"contracts/utils/AccessControl.sol\":3159:3171  _msgSender() */\n      jump\t// in\n    tag_393:\n        /* \"contracts/utils/AccessControl.sol\":3132:3172  RoleRevoked(role, account, _msgSender()) */\n      0xffffffffffffffffffffffffffffffffffffffff\n      and\n        /* \"contracts/utils/AccessControl.sol\":3150:3157  account */\n      dup2\n        /* \"contracts/utils/AccessControl.sol\":3132:3172  RoleRevoked(role, account, _msgSender()) */\n      0xffffffffffffffffffffffffffffffffffffffff\n      and\n        /* \"contracts/utils/AccessControl.sol\":3144:3148  role */\n      dup4\n        /* \"contracts/utils/AccessControl.sol\":3132:3172  RoleRevoked(role, account, _msgSender()) */\n      0xf6391f5c32d9c69d2a47ea670b442974b53935d1edc7fd64eb21e047a839171b\n      mload(0x40)\n      mload(0x40)\n      dup1\n      swap2\n      sub\n      swap1\n      log4\n        /* \"contracts/utils/AccessControl.sol\":3079:3183  if (_roles[role].remove(account)) {... */\n    tag_392:\n        /* \"contracts/utils/AccessControl.sol\":3008:3189  function _revokeRole(bytes32 role, address account) internal {... */\n      pop\n      pop\n      jump\t// out\n        /* \"contracts/utils/AccessControl.sol\":2825:3002  function _grantRole(bytes32 role, address account) internal {... */\n    tag_243:\n        /* \"contracts/utils/AccessControl.sol\":2899:2924  _roles[role].add(account) */\n      tag_396\n        /* \"contracts/utils/AccessControl.sol\":2916:2923  account */\n      dup2\n        /* \"contracts/utils/AccessControl.sol\":2899:2905  _roles */\n      0x00\n        /* \"contracts/utils/AccessControl.sol\":2899:2911  _roles[role] */\n      dup1\n        /* \"contracts/utils/AccessControl.sol\":2906:2910  role */\n      dup6\n        /* \"contracts/utils/AccessControl.sol\":2899:2911  _roles[role] */\n      dup2\n      mstore\n      0x20\n      add\n      swap1\n      dup2\n      mstore\n      0x20\n      add\n      0x00\n      keccak256\n        /* \"contracts/utils/AccessControl.sol\":2899:2915  _roles[role].add */\n      tag_397\n      swap1\n        /* \"contracts/utils/AccessControl.sol\":2899:2924  _roles[role].add(account) */\n      swap2\n      swap1\n      0xffffffff\n      and\n      jump\t// in\n    tag_396:\n        /* \"contracts/utils/AccessControl.sol\":2895:2996  if (_roles[role].add(account)) {... */\n      iszero\n      tag_398\n      jumpi\n        /* \"contracts/utils/AccessControl.sol\":2972:2984  _msgSender() */\n      tag_399\n        /* \"contracts/utils/AccessControl.sol\":2972:2982  _msgSender */\n      tag_394\n        /* \"contracts/utils/AccessControl.sol\":2972:2984  _msgSender() */\n      jump\t// in\n    tag_399:\n        /* \"contracts/utils/AccessControl.sol\":2945:2985  RoleGranted(role, account, _msgSender()) */\n      0xffffffffffffffffffffffffffffffffffffffff\n      and\n        /* \"contracts/utils/AccessControl.sol\":2963:2970  account */\n      dup2\n        /* \"contracts/utils/AccessControl.sol\":2945:2985  RoleGranted(role, account, _msgSender()) */\n      0xffffffffffffffffffffffffffffffffffffffff\n      and\n        /* \"contracts/utils/AccessControl.sol\":2957:2961  role */\n      dup4\n        /* \"contracts/utils/AccessControl.sol\":2945:2985  RoleGranted(role, account, _msgSender()) */\n      0x2f8788117e7eff1d82e926ec794901d17c78024a50270940304540a733656f0d\n      mload(0x40)\n      mload(0x40)\n      dup1\n      swap2\n      sub\n      swap1\n      log4\n        /* \"contracts/utils/AccessControl.sol\":2895:2996  if (_roles[role].add(account)) {... */\n    tag_398:\n        /* \"contracts/utils/AccessControl.sol\":2825:3002  function _grantRole(bytes32 role, address account) internal {... */\n      pop\n      pop\n      jump\t// out\n        /* \"@openzeppelin/contracts/utils/structs/EnumerableSet.sol\":9286:9442  function at(AddressSet storage set, uint256 index) internal view returns (address) {... */\n    tag_311:\n        /* \"@openzeppelin/contracts/utils/structs/EnumerableSet.sol\":9360:9367  address */\n      0x00\n        /* \"@openzeppelin/contracts/utils/structs/EnumerableSet.sol\":9410:9432  _at(set._inner, index) */\n      tag_401\n        /* \"@openzeppelin/contracts/utils/structs/EnumerableSet.sol\":9414:9417  set */\n      dup4\n        /* \"@openzeppelin/contracts/utils/structs/EnumerableSet.sol\":9414:9424  set._inner */\n      0x00\n      add\n        /* \"@openzeppelin/contracts/utils/structs/EnumerableSet.sol\":9426:9431  index */\n      dup4\n        /* \"@openzeppelin/contracts/utils/structs/EnumerableSet.sol\":9410:9413  _at */\n      tag_402\n        /* \"@openzeppelin/contracts/utils/structs/EnumerableSet.sol\":9410:9432  _at(set._inner, index) */\n      jump\t// in\n    tag_401:\n        /* \"@openzeppelin/contracts/utils/structs/EnumerableSet.sol\":9402:9433  uint256(_at(set._inner, index)) */\n      0x00\n      shr\n        /* \"@openzeppelin/contracts/utils/structs/EnumerableSet.sol\":9379:9435  return address(uint160(uint256(_at(set._inner, index)))) */\n      swap1\n      pop\n        /* \"@openzeppelin/contracts/utils/structs/EnumerableSet.sol\":9286:9442  function at(AddressSet storage set, uint256 index) internal view returns (address) {... */\n      swap3\n      swap2\n      pop\n      pop\n      jump\t// out\n        /* \"@openzeppelin/contracts/utils/structs/EnumerableSet.sol\":8583:8748  function contains(AddressSet storage set, address value) internal view returns (bool) {... */\n    tag_314:\n        /* \"@openzeppelin/contracts/utils/structs/EnumerableSet.sol\":8663:8667  bool */\n      0x00\n        /* \"@openzeppelin/contracts/utils/structs/EnumerableSet.sol\":8686:8741  _contains(set._inner, bytes32(uint256(uint160(value)))) */\n      tag_404\n        /* \"@openzeppelin/contracts/utils/structs/EnumerableSet.sol\":8696:8699  set */\n      dup4\n        /* \"@openzeppelin/contracts/utils/structs/EnumerableSet.sol\":8696:8706  set._inner */\n      0x00\n      add\n        /* \"@openzeppelin/contracts/utils/structs/EnumerableSet.sol\":8732:8737  value */\n      dup4\n        /* \"@openzeppelin/contracts/utils/structs/EnumerableSet.sol\":8716:8739  uint256(uint160(value)) */\n      0xffffffffffffffffffffffffffffffffffffffff\n      and\n        /* \"@openzeppelin/contracts/utils/structs/EnumerableSet.sol\":8708:8740  bytes32(uint256(uint160(value))) */\n      0x00\n      shl\n        /* \"@openzeppelin/contracts/utils/structs/EnumerableSet.sol\":8686:8695  _contains */\n      tag_405\n        /* \"@openzeppelin/contracts/utils/structs/EnumerableSet.sol\":8686:8741  _contains(set._inner, bytes32(uint256(uint160(value)))) */\n      jump\t// in\n    tag_404:\n        /* \"@openzeppelin/contracts/utils/structs/EnumerableSet.sol\":8679:8741  return _contains(set._inner, bytes32(uint256(uint160(value)))) */\n      swap1\n      pop\n        /* \"@openzeppelin/contracts/utils/structs/EnumerableSet.sol\":8583:8748  function contains(AddressSet storage set, address value) internal view returns (bool) {... */\n      swap3\n      swap2\n      pop\n      pop\n      jump\t// out\n        /* \"@openzeppelin/contracts/utils/structs/EnumerableSet.sol\":8829:8944  function length(AddressSet storage set) internal view returns (uint256) {... */\n    tag_386:\n        /* \"@openzeppelin/contracts/utils/structs/EnumerableSet.sol\":8892:8899  uint256 */\n      0x00\n        /* \"@openzeppelin/contracts/utils/structs/EnumerableSet.sol\":8918:8937  _length(set._inner) */\n      tag_407\n        /* \"@openzeppelin/contracts/utils/structs/EnumerableSet.sol\":8926:8929  set */\n      dup3\n        /* \"@openzeppelin/contracts/utils/structs/EnumerableSet.sol\":8926:8936  set._inner */\n      0x00\n      add\n        /* \"@openzeppelin/contracts/utils/structs/EnumerableSet.sol\":8918:8925  _length */\n      tag_408\n        /* \"@openzeppelin/contracts/utils/structs/EnumerableSet.sol\":8918:8937  _length(set._inner) */\n      jump\t// in\n    tag_407:\n        /* \"@openzeppelin/contracts/utils/structs/EnumerableSet.sol\":8911:8937  return _length(set._inner) */\n      swap1\n      pop\n        /* \"@openzeppelin/contracts/utils/structs/EnumerableSet.sol\":8829:8944  function length(AddressSet storage set) internal view returns (uint256) {... */\n      swap2\n      swap1\n      pop\n      jump\t// out\n        /* \"@openzeppelin/contracts/utils/structs/EnumerableSet.sol\":8346:8502  function remove(AddressSet storage set, address value) internal returns (bool) {... */\n    tag_391:\n        /* \"@openzeppelin/contracts/utils/structs/EnumerableSet.sol\":8419:8423  bool */\n      0x00\n        /* \"@openzeppelin/contracts/utils/structs/EnumerableSet.sol\":8442:8495  _remove(set._inner, bytes32(uint256(uint160(value)))) */\n      tag_410\n        /* \"@openzeppelin/contracts/utils/structs/EnumerableSet.sol\":8450:8453  set */\n      dup4\n        /* \"@openzeppelin/contracts/utils/structs/EnumerableSet.sol\":8450:8460  set._inner */\n      0x00\n      add\n        /* \"@openzeppelin/contracts/utils/structs/EnumerableSet.sol\":8486:8491  value */\n      dup4\n        /* \"@openzeppelin/contracts/utils/structs/EnumerableSet.sol\":8470:8493  uint256(uint160(value)) */\n      0xffffffffffffffffffffffffffffffffffffffff\n      and\n        /* \"@openzeppelin/contracts/utils/structs/EnumerableSet.sol\":8462:8494  bytes32(uint256(uint160(value))) */\n      0x00\n      shl\n        /* \"@openzeppelin/contracts/utils/structs/EnumerableSet.sol\":8442:8449  _remove */\n      tag_411\n        /* \"@openzeppelin/contracts/utils/structs/EnumerableSet.sol\":8442:8495  _remove(set._inner, bytes32(uint256(uint160(value)))) */\n      jump\t// in\n    tag_410:\n        /* \"@openzeppelin/contracts/utils/structs/EnumerableSet.sol\":8435:8495  return _remove(set._inner, bytes32(uint256(uint160(value)))) */\n      swap1\n      pop\n        /* \"@openzeppelin/contracts/utils/structs/EnumerableSet.sol\":8346:8502  function remove(AddressSet storage set, address value) internal returns (bool) {... */\n      swap3\n      swap2\n      pop\n      pop\n      jump\t// out\n        /* \"contracts/utils/Context.sol\":606:702  function _msgSender() internal view virtual returns (address) {... */\n    tag_394:\n        /* \"contracts/utils/Context.sol\":659:666  address */\n      0x00\n        /* \"contracts/utils/Context.sol\":685:695  msg.sender */\n      caller\n        /* \"contracts/utils/Context.sol\":678:695  return msg.sender */\n      swap1\n      pop\n        /* \"contracts/utils/Context.sol\":606:702  function _msgSender() internal view virtual returns (address) {... */\n      swap1\n      jump\t// out\n        /* \"@openzeppelin/contracts/utils/structs/EnumerableSet.sol\":8028:8178  function add(AddressSet storage set, address value) internal returns (bool) {... */\n    tag_397:\n        /* \"@openzeppelin/contracts/utils/structs/EnumerableSet.sol\":8098:8102  bool */\n      0x00\n        /* \"@openzeppelin/contracts/utils/structs/EnumerableSet.sol\":8121:8171  _add(set._inner, bytes32(uint256(uint160(value)))) */\n      tag_414\n        /* \"@openzeppelin/contracts/utils/structs/EnumerableSet.sol\":8126:8129  set */\n      dup4\n        /* \"@openzeppelin/contracts/utils/structs/EnumerableSet.sol\":8126:8136  set._inner */\n      0x00\n      add\n        /* \"@openzeppelin/contracts/utils/structs/EnumerableSet.sol\":8162:8167  value */\n      dup4\n        /* \"@openzeppelin/contracts/utils/structs/EnumerableSet.sol\":8146:8169  uint256(uint160(value)) */\n      0xffffffffffffffffffffffffffffffffffffffff\n      and\n        /* \"@openzeppelin/contracts/utils/structs/EnumerableSet.sol\":8138:8170  bytes32(uint256(uint160(value))) */\n      0x00\n      shl\n        /* \"@openzeppelin/contracts/utils/structs/EnumerableSet.sol\":8121:8125  _add */\n      tag_415\n        /* \"@openzeppelin/contracts/utils/structs/EnumerableSet.sol\":8121:8171  _add(set._inner, bytes32(uint256(uint160(value)))) */\n      jump\t// in\n    tag_414:\n        /* \"@openzeppelin/contracts/utils/structs/EnumerableSet.sol\":8114:8171  return _add(set._inner, bytes32(uint256(uint160(value)))) */\n      swap1\n      pop\n        /* \"@openzeppelin/contracts/utils/structs/EnumerableSet.sol\":8028:8178  function add(AddressSet storage set, address value) internal returns (bool) {... */\n      swap3\n      swap2\n      pop\n      pop\n      jump\t// out\n        /* \"@openzeppelin/contracts/utils/structs/EnumerableSet.sol\":4811:4929  function _at(Set storage set, uint256 index) private view returns (bytes32) {... */\n    tag_402:\n        /* \"@openzeppelin/contracts/utils/structs/EnumerableSet.sol\":4878:4885  bytes32 */\n      0x00\n        /* \"@openzeppelin/contracts/utils/structs/EnumerableSet.sol\":4904:4907  set */\n      dup3\n        /* \"@openzeppelin/contracts/utils/structs/EnumerableSet.sol\":4904:4915  set._values */\n      0x00\n      add\n        /* \"@openzeppelin/contracts/utils/structs/EnumerableSet.sol\":4916:4921  index */\n      dup3\n        /* \"@openzeppelin/contracts/utils/structs/EnumerableSet.sol\":4904:4922  set._values[index] */\n      dup2\n      sload\n      dup2\n      lt\n      tag_417\n      jumpi\n      tag_418\n      tag_419\n      jump\t// in\n    tag_418:\n    tag_417:\n      swap1\n      0x00\n      mstore\n      keccak256(0x00, 0x20)\n      add\n      sload\n        /* \"@openzeppelin/contracts/utils/structs/EnumerableSet.sol\":4897:4922  return set._values[index] */\n      swap1\n      pop\n        /* \"@openzeppelin/contracts/utils/structs/EnumerableSet.sol\":4811:4929  function _at(Set storage set, uint256 index) private view returns (bytes32) {... */\n      swap3\n      swap2\n      pop\n      pop\n      jump\t// out\n        /* \"@openzeppelin/contracts/utils/structs/EnumerableSet.sol\":4154:4281  function _contains(Set storage set, bytes32 value) private view returns (bool) {... */\n    tag_405:\n        /* \"@openzeppelin/contracts/utils/structs/EnumerableSet.sol\":4227:4231  bool */\n      0x00\n        /* \"@openzeppelin/contracts/utils/structs/EnumerableSet.sol\":4273:4274  0 */\n      dup1\n        /* \"@openzeppelin/contracts/utils/structs/EnumerableSet.sol\":4250:4253  set */\n      dup4\n        /* \"@openzeppelin/contracts/utils/structs/EnumerableSet.sol\":4250:4262  set._indexes */\n      0x01\n      add\n        /* \"@openzeppelin/contracts/utils/structs/EnumerableSet.sol\":4250:4269  set._indexes[value] */\n      0x00\n        /* \"@openzeppelin/contracts/utils/structs/EnumerableSet.sol\":4263:4268  value */\n      dup5\n        /* \"@openzeppelin/contracts/utils/structs/EnumerableSet.sol\":4250:4269  set._indexes[value] */\n      dup2\n      mstore\n      0x20\n      add\n      swap1\n      dup2\n      mstore\n      0x20\n      add\n      0x00\n      keccak256\n      sload\n        /* \"@openzeppelin/contracts/utils/structs/EnumerableSet.sol\":4250:4274  set._indexes[value] != 0 */\n      eq\n      iszero\n        /* \"@openzeppelin/contracts/utils/structs/EnumerableSet.sol\":4243:4274  return set._indexes[value] != 0 */\n      swap1\n      pop\n        /* \"@openzeppelin/contracts/utils/structs/EnumerableSet.sol\":4154:4281  function _contains(Set storage set, bytes32 value) private view returns (bool) {... */\n      swap3\n      swap2\n      pop\n      pop\n      jump\t// out\n        /* \"@openzeppelin/contracts/utils/structs/EnumerableSet.sol\":4362:4469  function _length(Set storage set) private view returns (uint256) {... */\n    tag_408:\n        /* \"@openzeppelin/contracts/utils/structs/EnumerableSet.sol\":4418:4425  uint256 */\n      0x00\n        /* \"@openzeppelin/contracts/utils/structs/EnumerableSet.sol\":4444:4447  set */\n      dup2\n        /* \"@openzeppelin/contracts/utils/structs/EnumerableSet.sol\":4444:4455  set._values */\n      0x00\n      add\n        /* \"@openzeppelin/contracts/utils/structs/EnumerableSet.sol\":4444:4462  set._values.length */\n      dup1\n      sload\n      swap1\n      pop\n        /* \"@openzeppelin/contracts/utils/structs/EnumerableSet.sol\":4437:4462  return set._values.length */\n      swap1\n      pop\n        /* \"@openzeppelin/contracts/utils/structs/EnumerableSet.sol\":4362:4469  function _length(Set storage set) private view returns (uint256) {... */\n      swap2\n      swap1\n      pop\n      jump\t// out\n        /* \"@openzeppelin/contracts/utils/structs/EnumerableSet.sol\":2685:4073  function _remove(Set storage set, bytes32 value) private returns (bool) {... */\n    tag_411:\n        /* \"@openzeppelin/contracts/utils/structs/EnumerableSet.sol\":2751:2755  bool */\n      0x00\n        /* \"@openzeppelin/contracts/utils/structs/EnumerableSet.sol\":2867:2885  uint256 valueIndex */\n      dup1\n        /* \"@openzeppelin/contracts/utils/structs/EnumerableSet.sol\":2888:2891  set */\n      dup4\n        /* \"@openzeppelin/contracts/utils/structs/EnumerableSet.sol\":2888:2900  set._indexes */\n      0x01\n      add\n        /* \"@openzeppelin/contracts/utils/structs/EnumerableSet.sol\":2888:2907  set._indexes[value] */\n      0x00\n        /* \"@openzeppelin/contracts/utils/structs/EnumerableSet.sol\":2901:2906  value */\n      dup5\n        /* \"@openzeppelin/contracts/utils/structs/EnumerableSet.sol\":2888:2907  set._indexes[value] */\n      dup2\n      mstore\n      0x20\n      add\n      swap1\n      dup2\n      mstore\n      0x20\n      add\n      0x00\n      keccak256\n      sload\n        /* \"@openzeppelin/contracts/utils/structs/EnumerableSet.sol\":2867:2907  uint256 valueIndex = set._indexes[value] */\n      swap1\n      pop\n        /* \"@openzeppelin/contracts/utils/structs/EnumerableSet.sol\":2936:2937  0 */\n      0x00\n        /* \"@openzeppelin/contracts/utils/structs/EnumerableSet.sol\":2922:2932  valueIndex */\n      dup2\n        /* \"@openzeppelin/contracts/utils/structs/EnumerableSet.sol\":2922:2937  valueIndex != 0 */\n      eq\n        /* \"@openzeppelin/contracts/utils/structs/EnumerableSet.sol\":2918:4067  if (valueIndex != 0) {... */\n      tag_424\n      jumpi\n        /* \"@openzeppelin/contracts/utils/structs/EnumerableSet.sol\":3291:3312  uint256 toDeleteIndex */\n      0x00\n        /* \"@openzeppelin/contracts/utils/structs/EnumerableSet.sol\":3328:3329  1 */\n      0x01\n        /* \"@openzeppelin/contracts/utils/structs/EnumerableSet.sol\":3315:3325  valueIndex */\n      dup3\n        /* \"@openzeppelin/contracts/utils/structs/EnumerableSet.sol\":3315:3329  valueIndex - 1 */\n      tag_425\n      swap2\n      swap1\n      tag_426\n      jump\t// in\n    tag_425:\n        /* \"@openzeppelin/contracts/utils/structs/EnumerableSet.sol\":3291:3329  uint256 toDeleteIndex = valueIndex - 1 */\n      swap1\n      pop\n        /* \"@openzeppelin/contracts/utils/structs/EnumerableSet.sol\":3343:3360  uint256 lastIndex */\n      0x00\n        /* \"@openzeppelin/contracts/utils/structs/EnumerableSet.sol\":3384:3385  1 */\n      0x01\n        /* \"@openzeppelin/contracts/utils/structs/EnumerableSet.sol\":3363:3366  set */\n      dup7\n        /* \"@openzeppelin/contracts/utils/structs/EnumerableSet.sol\":3363:3374  set._values */\n      0x00\n      add\n        /* \"@openzeppelin/contracts/utils/structs/EnumerableSet.sol\":3363:3381  set._values.length */\n      dup1\n      sload\n      swap1\n      pop\n        /* \"@openzeppelin/contracts/utils/structs/EnumerableSet.sol\":3363:3385  set._values.length - 1 */\n      tag_427\n      swap2\n      swap1\n      tag_426\n      jump\t// in\n    tag_427:\n        /* \"@openzeppelin/contracts/utils/structs/EnumerableSet.sol\":3343:3385  uint256 lastIndex = set._values.length - 1 */\n      swap1\n      pop\n        /* \"@openzeppelin/contracts/utils/structs/EnumerableSet.sol\":3417:3430  toDeleteIndex */\n      dup2\n        /* \"@openzeppelin/contracts/utils/structs/EnumerableSet.sol\":3404:3413  lastIndex */\n      dup2\n        /* \"@openzeppelin/contracts/utils/structs/EnumerableSet.sol\":3404:3430  lastIndex != toDeleteIndex */\n      eq\n        /* \"@openzeppelin/contracts/utils/structs/EnumerableSet.sol\":3400:3798  if (lastIndex != toDeleteIndex) {... */\n      tag_428\n      jumpi\n        /* \"@openzeppelin/contracts/utils/structs/EnumerableSet.sol\":3450:3467  bytes32 lastValue */\n      0x00\n        /* \"@openzeppelin/contracts/utils/structs/EnumerableSet.sol\":3470:3473  set */\n      dup7\n        /* \"@openzeppelin/contracts/utils/structs/EnumerableSet.sol\":3470:3481  set._values */\n      0x00\n      add\n        /* \"@openzeppelin/contracts/utils/structs/EnumerableSet.sol\":3482:3491  lastIndex */\n      dup3\n        /* \"@openzeppelin/contracts/utils/structs/EnumerableSet.sol\":3470:3492  set._values[lastIndex] */\n      dup2\n      sload\n      dup2\n      lt\n      tag_429\n      jumpi\n      tag_430\n      tag_419\n      jump\t// in\n    tag_430:\n    tag_429:\n      swap1\n      0x00\n      mstore\n      keccak256(0x00, 0x20)\n      add\n      sload\n        /* \"@openzeppelin/contracts/utils/structs/EnumerableSet.sol\":3450:3492  bytes32 lastValue = set._values[lastIndex] */\n      swap1\n      pop\n        /* \"@openzeppelin/contracts/utils/structs/EnumerableSet.sol\":3621:3630  lastValue */\n      dup1\n        /* \"@openzeppelin/contracts/utils/structs/EnumerableSet.sol\":3592:3595  set */\n      dup8\n        /* \"@openzeppelin/contracts/utils/structs/EnumerableSet.sol\":3592:3603  set._values */\n      0x00\n      add\n        /* \"@openzeppelin/contracts/utils/structs/EnumerableSet.sol\":3604:3617  toDeleteIndex */\n      dup5\n        /* \"@openzeppelin/contracts/utils/structs/EnumerableSet.sol\":3592:3618  set._values[toDeleteIndex] */\n      dup2\n      sload\n      dup2\n      lt\n      tag_432\n      jumpi\n      tag_433\n      tag_419\n      jump\t// in\n    tag_433:\n    tag_432:\n      swap1\n      0x00\n      mstore\n      keccak256(0x00, 0x20)\n      add\n        /* \"@openzeppelin/contracts/utils/structs/EnumerableSet.sol\":3592:3630  set._values[toDeleteIndex] = lastValue */\n      dup2\n      swap1\n      sstore\n      pop\n        /* \"@openzeppelin/contracts/utils/structs/EnumerableSet.sol\":3730:3740  valueIndex */\n      dup4\n        /* \"@openzeppelin/contracts/utils/structs/EnumerableSet.sol\":3704:3707  set */\n      dup8\n        /* \"@openzeppelin/contracts/utils/structs/EnumerableSet.sol\":3704:3716  set._indexes */\n      0x01\n      add\n        /* \"@openzeppelin/contracts/utils/structs/EnumerableSet.sol\":3704:3727  set._indexes[lastValue] */\n      0x00\n        /* \"@openzeppelin/contracts/utils/structs/EnumerableSet.sol\":3717:3726  lastValue */\n      dup4\n        /* \"@openzeppelin/contracts/utils/structs/EnumerableSet.sol\":3704:3727  set._indexes[lastValue] */\n      dup2\n      mstore\n      0x20\n      add\n      swap1\n      dup2\n      mstore\n      0x20\n      add\n      0x00\n      keccak256\n        /* \"@openzeppelin/contracts/utils/structs/EnumerableSet.sol\":3704:3740  set._indexes[lastValue] = valueIndex */\n      dup2\n      swap1\n      sstore\n      pop\n        /* \"@openzeppelin/contracts/utils/structs/EnumerableSet.sol\":3432:3798  {... */\n      pop\n        /* \"@openzeppelin/contracts/utils/structs/EnumerableSet.sol\":3400:3798  if (lastIndex != toDeleteIndex) {... */\n    tag_428:\n        /* \"@openzeppelin/contracts/utils/structs/EnumerableSet.sol\":3876:3879  set */\n      dup6\n        /* \"@openzeppelin/contracts/utils/structs/EnumerableSet.sol\":3876:3887  set._values */\n      0x00\n      add\n        /* \"@openzeppelin/contracts/utils/structs/EnumerableSet.sol\":3876:3893  set._values.pop() */\n      dup1\n      sload\n      dup1\n      tag_435\n      jumpi\n      tag_436\n      tag_437\n      jump\t// in\n    tag_436:\n    tag_435:\n      0x01\n      swap1\n      sub\n      dup2\n      dup2\n      swap1\n      0x00\n      mstore\n      keccak256(0x00, 0x20)\n      add\n      0x00\n      swap1\n      sstore\n      swap1\n      sstore\n        /* \"@openzeppelin/contracts/utils/structs/EnumerableSet.sol\":3968:3971  set */\n      dup6\n        /* \"@openzeppelin/contracts/utils/structs/EnumerableSet.sol\":3968:3980  set._indexes */\n      0x01\n      add\n        /* \"@openzeppelin/contracts/utils/structs/EnumerableSet.sol\":3968:3987  set._indexes[value] */\n      0x00\n        /* \"@openzeppelin/contracts/utils/structs/EnumerableSet.sol\":3981:3986  value */\n      dup7\n        /* \"@openzeppelin/contracts/utils/structs/EnumerableSet.sol\":3968:3987  set._indexes[value] */\n      dup2\n      mstore\n      0x20\n      add\n      swap1\n      dup2\n      mstore\n      0x20\n      add\n      0x00\n      keccak256\n        /* \"@openzeppelin/contracts/utils/structs/EnumerableSet.sol\":3961:3987  delete set._indexes[value] */\n      0x00\n      swap1\n      sstore\n        /* \"@openzeppelin/contracts/utils/structs/EnumerableSet.sol\":4009:4013  true */\n      0x01\n        /* \"@openzeppelin/contracts/utils/structs/EnumerableSet.sol\":4002:4013  return true */\n      swap4\n      pop\n      pop\n      pop\n      pop\n      jump(tag_423)\n        /* \"@openzeppelin/contracts/utils/structs/EnumerableSet.sol\":2918:4067  if (valueIndex != 0) {... */\n    tag_424:\n        /* \"@openzeppelin/contracts/utils/structs/EnumerableSet.sol\":4051:4056  false */\n      0x00\n        /* \"@openzeppelin/contracts/utils/structs/EnumerableSet.sol\":4044:4056  return false */\n      swap2\n      pop\n      pop\n        /* \"@openzeppelin/contracts/utils/structs/EnumerableSet.sol\":2685:4073  function _remove(Set storage set, bytes32 value) private returns (bool) {... */\n    tag_423:\n      swap3\n      swap2\n      pop\n      pop\n      jump\t// out\n        /* \"@openzeppelin/contracts/utils/structs/EnumerableSet.sol\":2113:2517  function _add(Set storage set, bytes32 value) private returns (bool) {... */\n    tag_415:\n        /* \"@openzeppelin/contracts/utils/structs/EnumerableSet.sol\":2176:2180  bool */\n      0x00\n        /* \"@openzeppelin/contracts/utils/structs/EnumerableSet.sol\":2197:2218  _contains(set, value) */\n      tag_441\n        /* \"@openzeppelin/contracts/utils/structs/EnumerableSet.sol\":2207:2210  set */\n      dup4\n        /* \"@openzeppelin/contracts/utils/structs/EnumerableSet.sol\":2212:2217  value */\n      dup4\n        /* \"@openzeppelin/contracts/utils/structs/EnumerableSet.sol\":2197:2206  _contains */\n      tag_405\n        /* \"@openzeppelin/contracts/utils/structs/EnumerableSet.sol\":2197:2218  _contains(set, value) */\n      jump\t// in\n    tag_441:\n        /* \"@openzeppelin/contracts/utils/structs/EnumerableSet.sol\":2192:2511  if (!_contains(set, value)) {... */\n      tag_442\n      jumpi\n        /* \"@openzeppelin/contracts/utils/structs/EnumerableSet.sol\":2234:2237  set */\n      dup3\n        /* \"@openzeppelin/contracts/utils/structs/EnumerableSet.sol\":2234:2245  set._values */\n      0x00\n      add\n        /* \"@openzeppelin/contracts/utils/structs/EnumerableSet.sol\":2251:2256  value */\n      dup3\n        /* \"@openzeppelin/contracts/utils/structs/EnumerableSet.sol\":2234:2257  set._values.push(value) */\n      swap1\n      dup1\n      0x01\n      dup2\n      sload\n      add\n      dup1\n      dup3\n      sstore\n      dup1\n      swap2\n      pop\n      pop\n      0x01\n      swap1\n      sub\n      swap1\n      0x00\n      mstore\n      keccak256(0x00, 0x20)\n      add\n      0x00\n      swap1\n      swap2\n      swap1\n      swap2\n      swap1\n      swap2\n      pop\n      sstore\n        /* \"@openzeppelin/contracts/utils/structs/EnumerableSet.sol\":2414:2417  set */\n      dup3\n        /* \"@openzeppelin/contracts/utils/structs/EnumerableSet.sol\":2414:2425  set._values */\n      0x00\n      add\n        /* \"@openzeppelin/contracts/utils/structs/EnumerableSet.sol\":2414:2432  set._values.length */\n      dup1\n      sload\n      swap1\n      pop\n        /* \"@openzeppelin/contracts/utils/structs/EnumerableSet.sol\":2392:2395  set */\n      dup4\n        /* \"@openzeppelin/contracts/utils/structs/EnumerableSet.sol\":2392:2404  set._indexes */\n      0x01\n      add\n        /* \"@openzeppelin/contracts/utils/structs/EnumerableSet.sol\":2392:2411  set._indexes[value] */\n      0x00\n        /* \"@openzeppelin/contracts/utils/structs/EnumerableSet.sol\":2405:2410  value */\n      dup5\n        /* \"@openzeppelin/contracts/utils/structs/EnumerableSet.sol\":2392:2411  set._indexes[value] */\n      dup2\n      mstore\n      0x20\n      add\n      swap1\n      dup2\n      mstore\n      0x20\n      add\n      0x00\n      keccak256\n        /* \"@openzeppelin/contracts/utils/structs/EnumerableSet.sol\":2392:2432  set._indexes[value] = set._values.length */\n      dup2\n      swap1\n      sstore\n      pop\n        /* \"@openzeppelin/contracts/utils/structs/EnumerableSet.sol\":2453:2457  true */\n      0x01\n        /* \"@openzeppelin/contracts/utils/structs/EnumerableSet.sol\":2446:2457  return true */\n      swap1\n      pop\n      jump(tag_440)\n        /* \"@openzeppelin/contracts/utils/structs/EnumerableSet.sol\":2192:2511  if (!_contains(set, value)) {... */\n    tag_442:\n        /* \"@openzeppelin/contracts/utils/structs/EnumerableSet.sol\":2495:2500  false */\n      0x00\n        /* \"@openzeppelin/contracts/utils/structs/EnumerableSet.sol\":2488:2500  return false */\n      swap1\n      pop\n        /* \"@openzeppelin/contracts/utils/structs/EnumerableSet.sol\":2113:2517  function _add(Set storage set, bytes32 value) private returns (bool) {... */\n    tag_440:\n      swap3\n      swap2\n      pop\n      pop\n      jump\t// out\n    tag_175:\n      dup3\n      dup1\n      sload\n      tag_445\n      swap1\n      tag_217\n      jump\t// in\n    tag_445:\n      swap1\n      0x00\n      mstore\n      keccak256(0x00, 0x20)\n      swap1\n      0x1f\n      add\n      0x20\n      swap1\n      div\n      dup2\n      add\n      swap3\n      dup3\n      tag_447\n      jumpi\n      0x00\n      dup6\n      sstore\n      jump(tag_446)\n    tag_447:\n      dup3\n      0x1f\n      lt\n      tag_448\n      jumpi\n      dup1\n      mload\n      not(0xff)\n      and\n      dup4\n      dup1\n      add\n      or\n      dup6\n      sstore\n      jump(tag_446)\n    tag_448:\n      dup3\n      dup1\n      add\n      0x01\n      add\n      dup6\n      sstore\n      dup3\n      iszero\n      tag_446\n      jumpi\n      swap2\n      dup3\n      add\n    tag_449:\n      dup3\n      dup2\n      gt\n      iszero\n      tag_450\n      jumpi\n      dup3\n      mload\n      dup3\n      sstore\n      swap2\n      0x20\n      add\n      swap2\n      swap1\n      0x01\n      add\n      swap1\n      jump(tag_449)\n    tag_450:\n    tag_446:\n      pop\n      swap1\n      pop\n      tag_451\n      swap2\n      swap1\n      tag_452\n      jump\t// in\n    tag_451:\n      pop\n      swap1\n      jump\t// out\n    tag_452:\n    tag_453:\n      dup1\n      dup3\n      gt\n      iszero\n      tag_454\n      jumpi\n      0x00\n      dup2\n      0x00\n      swap1\n      sstore\n      pop\n      0x01\n      add\n      jump(tag_453)\n    tag_454:\n      pop\n      swap1\n      jump\t// out\n        /* \"#utility.yul\":7:417   */\n    tag_456:\n        /* \"#utility.yul\":84:89   */\n      0x00\n        /* \"#utility.yul\":109:174   */\n      tag_458\n        /* \"#utility.yul\":125:173   */\n      tag_459\n        /* \"#utility.yul\":166:172   */\n      dup5\n        /* \"#utility.yul\":125:173   */\n      tag_460\n      jump\t// in\n    tag_459:\n        /* \"#utility.yul\":109:174   */\n      tag_461\n      jump\t// in\n    tag_458:\n        /* \"#utility.yul\":100:174   */\n      swap1\n      pop\n        /* \"#utility.yul\":197:203   */\n      dup3\n        /* \"#utility.yul\":190:195   */\n      dup2\n        /* \"#utility.yul\":183:204   */\n      mstore\n        /* \"#utility.yul\":235:239   */\n      0x20\n        /* \"#utility.yul\":228:233   */\n      dup2\n        /* \"#utility.yul\":224:240   */\n      add\n        /* \"#utility.yul\":273:276   */\n      dup5\n        /* \"#utility.yul\":264:270   */\n      dup5\n        /* \"#utility.yul\":259:262   */\n      dup5\n        /* \"#utility.yul\":255:271   */\n      add\n        /* \"#utility.yul\":252:277   */\n      gt\n        /* \"#utility.yul\":249:361   */\n      iszero\n      tag_462\n      jumpi\n        /* \"#utility.yul\":280:359   */\n      tag_463\n      tag_464\n      jump\t// in\n    tag_463:\n        /* \"#utility.yul\":249:361   */\n    tag_462:\n        /* \"#utility.yul\":370:411   */\n      tag_465\n        /* \"#utility.yul\":404:410   */\n      dup5\n        /* \"#utility.yul\":399:402   */\n      dup3\n        /* \"#utility.yul\":394:397   */\n      dup6\n        /* \"#utility.yul\":370:411   */\n      tag_466\n      jump\t// in\n    tag_465:\n        /* \"#utility.yul\":90:417   */\n      pop\n        /* \"#utility.yul\":7:417   */\n      swap4\n      swap3\n      pop\n      pop\n      pop\n      jump\t// out\n        /* \"#utility.yul\":423:562   */\n    tag_467:\n        /* \"#utility.yul\":469:474   */\n      0x00\n        /* \"#utility.yul\":507:513   */\n      dup2\n        /* \"#utility.yul\":494:514   */\n      calldataload\n        /* \"#utility.yul\":485:514   */\n      swap1\n      pop\n        /* \"#utility.yul\":523:556   */\n      tag_469\n        /* \"#utility.yul\":550:555   */\n      dup2\n        /* \"#utility.yul\":523:556   */\n      tag_470\n      jump\t// in\n    tag_469:\n        /* \"#utility.yul\":423:562   */\n      swap3\n      swap2\n      pop\n      pop\n      jump\t// out\n        /* \"#utility.yul\":568:707   */\n    tag_471:\n        /* \"#utility.yul\":614:619   */\n      0x00\n        /* \"#utility.yul\":652:658   */\n      dup2\n        /* \"#utility.yul\":639:659   */\n      calldataload\n        /* \"#utility.yul\":630:659   */\n      swap1\n      pop\n        /* \"#utility.yul\":668:701   */\n      tag_473\n        /* \"#utility.yul\":695:700   */\n      dup2\n        /* \"#utility.yul\":668:701   */\n      tag_474\n      jump\t// in\n    tag_473:\n        /* \"#utility.yul\":568:707   */\n      swap3\n      swap2\n      pop\n      pop\n      jump\t// out\n        /* \"#utility.yul\":726:1064   */\n    tag_475:\n        /* \"#utility.yul\":781:786   */\n      0x00\n        /* \"#utility.yul\":830:833   */\n      dup3\n        /* \"#utility.yul\":823:827   */\n      0x1f\n        /* \"#utility.yul\":815:821   */\n      dup4\n        /* \"#utility.yul\":811:828   */\n      add\n        /* \"#utility.yul\":807:834   */\n      slt\n        /* \"#utility.yul\":797:919   */\n      tag_477\n      jumpi\n        /* \"#utility.yul\":838:917   */\n      tag_478\n      tag_479\n      jump\t// in\n    tag_478:\n        /* \"#utility.yul\":797:919   */\n    tag_477:\n        /* \"#utility.yul\":955:961   */\n      dup2\n        /* \"#utility.yul\":942:962   */\n      calldataload\n        /* \"#utility.yul\":980:1058   */\n      tag_480\n        /* \"#utility.yul\":1054:1057   */\n      dup5\n        /* \"#utility.yul\":1046:1052   */\n      dup3\n        /* \"#utility.yul\":1039:1043   */\n      0x20\n        /* \"#utility.yul\":1031:1037   */\n      dup7\n        /* \"#utility.yul\":1027:1044   */\n      add\n        /* \"#utility.yul\":980:1058   */\n      tag_456\n      jump\t// in\n    tag_480:\n        /* \"#utility.yul\":971:1058   */\n      swap2\n      pop\n        /* \"#utility.yul\":787:1064   */\n      pop\n        /* \"#utility.yul\":726:1064   */\n      swap3\n      swap2\n      pop\n      pop\n      jump\t// out\n        /* \"#utility.yul\":1070:1241   */\n    tag_481:\n        /* \"#utility.yul\":1132:1137   */\n      0x00\n        /* \"#utility.yul\":1170:1176   */\n      dup2\n        /* \"#utility.yul\":1157:1177   */\n      calldataload\n        /* \"#utility.yul\":1148:1177   */\n      swap1\n      pop\n        /* \"#utility.yul\":1186:1235   */\n      tag_483\n        /* \"#utility.yul\":1229:1234   */\n      dup2\n        /* \"#utility.yul\":1186:1235   */\n      tag_484\n      jump\t// in\n    tag_483:\n        /* \"#utility.yul\":1070:1241   */\n      swap3\n      swap2\n      pop\n      pop\n      jump\t// out\n        /* \"#utility.yul\":1279:2203   */\n    tag_485:\n        /* \"#utility.yul\":1356:1361   */\n      0x00\n        /* \"#utility.yul\":1400:1404   */\n      0x40\n        /* \"#utility.yul\":1388:1397   */\n      dup3\n        /* \"#utility.yul\":1383:1386   */\n      dup5\n        /* \"#utility.yul\":1379:1398   */\n      sub\n        /* \"#utility.yul\":1375:1405   */\n      slt\n        /* \"#utility.yul\":1372:1489   */\n      iszero\n      tag_487\n      jumpi\n        /* \"#utility.yul\":1408:1487   */\n      tag_488\n      tag_489\n      jump\t// in\n    tag_488:\n        /* \"#utility.yul\":1372:1489   */\n    tag_487:\n        /* \"#utility.yul\":1507:1528   */\n      tag_490\n        /* \"#utility.yul\":1523:1527   */\n      0x40\n        /* \"#utility.yul\":1507:1528   */\n      tag_461\n      jump\t// in\n    tag_490:\n        /* \"#utility.yul\":1498:1528   */\n      swap1\n      pop\n        /* \"#utility.yul\":1619:1620   */\n      0x00\n        /* \"#utility.yul\":1608:1617   */\n      dup3\n        /* \"#utility.yul\":1604:1621   */\n      add\n        /* \"#utility.yul\":1591:1622   */\n      calldataload\n        /* \"#utility.yul\":1649:1667   */\n      0xffffffffffffffff\n        /* \"#utility.yul\":1641:1647   */\n      dup2\n        /* \"#utility.yul\":1638:1668   */\n      gt\n        /* \"#utility.yul\":1635:1752   */\n      iszero\n      tag_491\n      jumpi\n        /* \"#utility.yul\":1671:1750   */\n      tag_492\n      tag_493\n      jump\t// in\n    tag_492:\n        /* \"#utility.yul\":1635:1752   */\n    tag_491:\n        /* \"#utility.yul\":1791:1849   */\n      tag_494\n        /* \"#utility.yul\":1845:1848   */\n      dup5\n        /* \"#utility.yul\":1836:1842   */\n      dup3\n        /* \"#utility.yul\":1825:1834   */\n      dup6\n        /* \"#utility.yul\":1821:1843   */\n      add\n        /* \"#utility.yul\":1791:1849   */\n      tag_475\n      jump\t// in\n    tag_494:\n        /* \"#utility.yul\":1784:1788   */\n      0x00\n        /* \"#utility.yul\":1777:1782   */\n      dup4\n        /* \"#utility.yul\":1773:1789   */\n      add\n        /* \"#utility.yul\":1766:1850   */\n      mstore\n        /* \"#utility.yul\":1538:1861   */\n      pop\n        /* \"#utility.yul\":1953:1955   */\n      0x20\n        /* \"#utility.yul\":1942:1951   */\n      dup3\n        /* \"#utility.yul\":1938:1956   */\n      add\n        /* \"#utility.yul\":1925:1957   */\n      calldataload\n        /* \"#utility.yul\":1984:2002   */\n      0xffffffffffffffff\n        /* \"#utility.yul\":1976:1982   */\n      dup2\n        /* \"#utility.yul\":1973:2003   */\n      gt\n        /* \"#utility.yul\":1970:2087   */\n      iszero\n      tag_495\n      jumpi\n        /* \"#utility.yul\":2006:2085   */\n      tag_496\n      tag_493\n      jump\t// in\n    tag_496:\n        /* \"#utility.yul\":1970:2087   */\n    tag_495:\n        /* \"#utility.yul\":2126:2184   */\n      tag_497\n        /* \"#utility.yul\":2180:2183   */\n      dup5\n        /* \"#utility.yul\":2171:2177   */\n      dup3\n        /* \"#utility.yul\":2160:2169   */\n      dup6\n        /* \"#utility.yul\":2156:2178   */\n      add\n        /* \"#utility.yul\":2126:2184   */\n      tag_475\n      jump\t// in\n    tag_497:\n        /* \"#utility.yul\":2119:2123   */\n      0x20\n        /* \"#utility.yul\":2112:2117   */\n      dup4\n        /* \"#utility.yul\":2108:2124   */\n      add\n        /* \"#utility.yul\":2101:2185   */\n      mstore\n        /* \"#utility.yul\":1871:2196   */\n      pop\n        /* \"#utility.yul\":1279:2203   */\n      swap3\n      swap2\n      pop\n      pop\n      jump\t// out\n        /* \"#utility.yul\":2237:2808   */\n    tag_498:\n        /* \"#utility.yul\":2310:2315   */\n      0x00\n        /* \"#utility.yul\":2354:2358   */\n      0x40\n        /* \"#utility.yul\":2342:2351   */\n      dup3\n        /* \"#utility.yul\":2337:2340   */\n      dup5\n        /* \"#utility.yul\":2333:2352   */\n      sub\n        /* \"#utility.yul\":2329:2359   */\n      slt\n        /* \"#utility.yul\":2326:2443   */\n      iszero\n      tag_500\n      jumpi\n        /* \"#utility.yul\":2362:2441   */\n      tag_501\n      tag_489\n      jump\t// in\n    tag_501:\n        /* \"#utility.yul\":2326:2443   */\n    tag_500:\n        /* \"#utility.yul\":2461:2482   */\n      tag_502\n        /* \"#utility.yul\":2477:2481   */\n      0x40\n        /* \"#utility.yul\":2461:2482   */\n      tag_461\n      jump\t// in\n    tag_502:\n        /* \"#utility.yul\":2452:2482   */\n      swap1\n      pop\n        /* \"#utility.yul\":2541:2542   */\n      0x00\n        /* \"#utility.yul\":2581:2630   */\n      tag_503\n        /* \"#utility.yul\":2626:2629   */\n      dup5\n        /* \"#utility.yul\":2617:2623   */\n      dup3\n        /* \"#utility.yul\":2606:2615   */\n      dup6\n        /* \"#utility.yul\":2602:2624   */\n      add\n        /* \"#utility.yul\":2581:2630   */\n      tag_471\n      jump\t// in\n    tag_503:\n        /* \"#utility.yul\":2574:2578   */\n      0x00\n        /* \"#utility.yul\":2567:2572   */\n      dup4\n        /* \"#utility.yul\":2563:2579   */\n      add\n        /* \"#utility.yul\":2556:2631   */\n      mstore\n        /* \"#utility.yul\":2492:2642   */\n      pop\n        /* \"#utility.yul\":2699:2701   */\n      0x20\n        /* \"#utility.yul\":2740:2789   */\n      tag_504\n        /* \"#utility.yul\":2785:2788   */\n      dup5\n        /* \"#utility.yul\":2776:2782   */\n      dup3\n        /* \"#utility.yul\":2765:2774   */\n      dup6\n        /* \"#utility.yul\":2761:2783   */\n      add\n        /* \"#utility.yul\":2740:2789   */\n      tag_471\n      jump\t// in\n    tag_504:\n        /* \"#utility.yul\":2733:2737   */\n      0x20\n        /* \"#utility.yul\":2726:2731   */\n      dup4\n        /* \"#utility.yul\":2722:2738   */\n      add\n        /* \"#utility.yul\":2715:2790   */\n      mstore\n        /* \"#utility.yul\":2652:2801   */\n      pop\n        /* \"#utility.yul\":2237:2808   */\n      swap3\n      swap2\n      pop\n      pop\n      jump\t// out\n        /* \"#utility.yul\":2814:2953   */\n    tag_505:\n        /* \"#utility.yul\":2860:2865   */\n      0x00\n        /* \"#utility.yul\":2898:2904   */\n      dup2\n        /* \"#utility.yul\":2885:2905   */\n      calldataload\n        /* \"#utility.yul\":2876:2905   */\n      swap1\n      pop\n        /* \"#utility.yul\":2914:2947   */\n      tag_507\n        /* \"#utility.yul\":2941:2946   */\n      dup2\n        /* \"#utility.yul\":2914:2947   */\n      tag_508\n      jump\t// in\n    tag_507:\n        /* \"#utility.yul\":2814:2953   */\n      swap3\n      swap2\n      pop\n      pop\n      jump\t// out\n        /* \"#utility.yul\":2959:3288   */\n    tag_32:\n        /* \"#utility.yul\":3018:3024   */\n      0x00\n        /* \"#utility.yul\":3067:3069   */\n      0x20\n        /* \"#utility.yul\":3055:3064   */\n      dup3\n        /* \"#utility.yul\":3046:3053   */\n      dup5\n        /* \"#utility.yul\":3042:3065   */\n      sub\n        /* \"#utility.yul\":3038:3070   */\n      slt\n        /* \"#utility.yul\":3035:3154   */\n      iszero\n      tag_510\n      jumpi\n        /* \"#utility.yul\":3073:3152   */\n      tag_511\n      tag_512\n      jump\t// in\n    tag_511:\n        /* \"#utility.yul\":3035:3154   */\n    tag_510:\n        /* \"#utility.yul\":3193:3194   */\n      0x00\n        /* \"#utility.yul\":3218:3271   */\n      tag_513\n        /* \"#utility.yul\":3263:3270   */\n      dup5\n        /* \"#utility.yul\":3254:3260   */\n      dup3\n        /* \"#utility.yul\":3243:3252   */\n      dup6\n        /* \"#utility.yul\":3239:3261   */\n      add\n        /* \"#utility.yul\":3218:3271   */\n      tag_467\n      jump\t// in\n    tag_513:\n        /* \"#utility.yul\":3208:3271   */\n      swap2\n      pop\n        /* \"#utility.yul\":3164:3281   */\n      pop\n        /* \"#utility.yul\":2959:3288   */\n      swap3\n      swap2\n      pop\n      pop\n      jump\t// out\n        /* \"#utility.yul\":3294:3623   */\n    tag_139:\n        /* \"#utility.yul\":3353:3359   */\n      0x00\n        /* \"#utility.yul\":3402:3404   */\n      0x20\n        /* \"#utility.yul\":3390:3399   */\n      dup3\n        /* \"#utility.yul\":3381:3388   */\n      dup5\n        /* \"#utility.yul\":3377:3400   */\n      sub\n        /* \"#utility.yul\":3373:3405   */\n      slt\n        /* \"#utility.yul\":3370:3489   */\n      iszero\n      tag_515\n      jumpi\n        /* \"#utility.yul\":3408:3487   */\n      tag_516\n      tag_512\n      jump\t// in\n    tag_516:\n        /* \"#utility.yul\":3370:3489   */\n    tag_515:\n        /* \"#utility.yul\":3528:3529   */\n      0x00\n        /* \"#utility.yul\":3553:3606   */\n      tag_517\n        /* \"#utility.yul\":3598:3605   */\n      dup5\n        /* \"#utility.yul\":3589:3595   */\n      dup3\n        /* \"#utility.yul\":3578:3587   */\n      dup6\n        /* \"#utility.yul\":3574:3596   */\n      add\n        /* \"#utility.yul\":3553:3606   */\n      tag_471\n      jump\t// in\n    tag_517:\n        /* \"#utility.yul\":3543:3606   */\n      swap2\n      pop\n        /* \"#utility.yul\":3499:3616   */\n      pop\n        /* \"#utility.yul\":3294:3623   */\n      swap3\n      swap2\n      pop\n      pop\n      jump\t// out\n        /* \"#utility.yul\":3629:4103   */\n    tag_105:\n        /* \"#utility.yul\":3697:3703   */\n      0x00\n        /* \"#utility.yul\":3705:3711   */\n      dup1\n        /* \"#utility.yul\":3754:3756   */\n      0x40\n        /* \"#utility.yul\":3742:3751   */\n      dup4\n        /* \"#utility.yul\":3733:3740   */\n      dup6\n        /* \"#utility.yul\":3729:3752   */\n      sub\n        /* \"#utility.yul\":3725:3757   */\n      slt\n        /* \"#utility.yul\":3722:3841   */\n      iszero\n      tag_519\n      jumpi\n        /* \"#utility.yul\":3760:3839   */\n      tag_520\n      tag_512\n      jump\t// in\n    tag_520:\n        /* \"#utility.yul\":3722:3841   */\n    tag_519:\n        /* \"#utility.yul\":3880:3881   */\n      0x00\n        /* \"#utility.yul\":3905:3958   */\n      tag_521\n        /* \"#utility.yul\":3950:3957   */\n      dup6\n        /* \"#utility.yul\":3941:3947   */\n      dup3\n        /* \"#utility.yul\":3930:3939   */\n      dup7\n        /* \"#utility.yul\":3926:3948   */\n      add\n        /* \"#utility.yul\":3905:3958   */\n      tag_471\n      jump\t// in\n    tag_521:\n        /* \"#utility.yul\":3895:3958   */\n      swap3\n      pop\n        /* \"#utility.yul\":3851:3968   */\n      pop\n        /* \"#utility.yul\":4007:4009   */\n      0x20\n        /* \"#utility.yul\":4033:4086   */\n      tag_522\n        /* \"#utility.yul\":4078:4085   */\n      dup6\n        /* \"#utility.yul\":4069:4075   */\n      dup3\n        /* \"#utility.yul\":4058:4067   */\n      dup7\n        /* \"#utility.yul\":4054:4076   */\n      add\n        /* \"#utility.yul\":4033:4086   */\n      tag_467\n      jump\t// in\n    tag_522:\n        /* \"#utility.yul\":4023:4086   */\n      swap2\n      pop\n        /* \"#utility.yul\":3978:4096   */\n      pop\n        /* \"#utility.yul\":3629:4103   */\n      swap3\n      pop\n      swap3\n      swap1\n      pop\n      jump\t// out\n        /* \"#utility.yul\":4109:5560   */\n    tag_37:\n        /* \"#utility.yul\":4266:4272   */\n      0x00\n        /* \"#utility.yul\":4274:4280   */\n      dup1\n        /* \"#utility.yul\":4282:4288   */\n      0x00\n        /* \"#utility.yul\":4290:4296   */\n      dup1\n        /* \"#utility.yul\":4298:4304   */\n      0x00\n        /* \"#utility.yul\":4306:4312   */\n      dup1\n        /* \"#utility.yul\":4314:4320   */\n      0x00\n        /* \"#utility.yul\":4363:4366   */\n      0xe0\n        /* \"#utility.yul\":4351:4360   */\n      dup9\n        /* \"#utility.yul\":4342:4349   */\n      dup11\n        /* \"#utility.yul\":4338:4361   */\n      sub\n        /* \"#utility.yul\":4334:4367   */\n      slt\n        /* \"#utility.yul\":4331:4451   */\n      iszero\n      tag_524\n      jumpi\n        /* \"#utility.yul\":4370:4449   */\n      tag_525\n      tag_512\n      jump\t// in\n    tag_525:\n        /* \"#utility.yul\":4331:4451   */\n    tag_524:\n        /* \"#utility.yul\":4490:4491   */\n      0x00\n        /* \"#utility.yul\":4515:4568   */\n      tag_526\n        /* \"#utility.yul\":4560:4567   */\n      dup11\n        /* \"#utility.yul\":4551:4557   */\n      dup3\n        /* \"#utility.yul\":4540:4549   */\n      dup12\n        /* \"#utility.yul\":4536:4558   */\n      add\n        /* \"#utility.yul\":4515:4568   */\n      tag_471\n      jump\t// in\n    tag_526:\n        /* \"#utility.yul\":4505:4568   */\n      swap8\n      pop\n        /* \"#utility.yul\":4461:4578   */\n      pop\n        /* \"#utility.yul\":4617:4619   */\n      0x20\n        /* \"#utility.yul\":4643:4696   */\n      tag_527\n        /* \"#utility.yul\":4688:4695   */\n      dup11\n        /* \"#utility.yul\":4679:4685   */\n      dup3\n        /* \"#utility.yul\":4668:4677   */\n      dup12\n        /* \"#utility.yul\":4664:4686   */\n      add\n        /* \"#utility.yul\":4643:4696   */\n      tag_471\n      jump\t// in\n    tag_527:\n        /* \"#utility.yul\":4633:4696   */\n      swap7\n      pop\n        /* \"#utility.yul\":4588:4706   */\n      pop\n        /* \"#utility.yul\":4745:4747   */\n      0x40\n        /* \"#utility.yul\":4771:4840   */\n      tag_528\n        /* \"#utility.yul\":4832:4839   */\n      dup11\n        /* \"#utility.yul\":4823:4829   */\n      dup3\n        /* \"#utility.yul\":4812:4821   */\n      dup12\n        /* \"#utility.yul\":4808:4830   */\n      add\n        /* \"#utility.yul\":4771:4840   */\n      tag_481\n      jump\t// in\n    tag_528:\n        /* \"#utility.yul\":4761:4840   */\n      swap6\n      pop\n        /* \"#utility.yul\":4716:4850   */\n      pop\n        /* \"#utility.yul\":4917:4919   */\n      0x60\n        /* \"#utility.yul\":4906:4915   */\n      dup9\n        /* \"#utility.yul\":4902:4920   */\n      add\n        /* \"#utility.yul\":4889:4921   */\n      calldataload\n        /* \"#utility.yul\":4948:4966   */\n      0xffffffffffffffff\n        /* \"#utility.yul\":4940:4946   */\n      dup2\n        /* \"#utility.yul\":4937:4967   */\n      gt\n        /* \"#utility.yul\":4934:5051   */\n      iszero\n      tag_529\n      jumpi\n        /* \"#utility.yul\":4970:5049   */\n      tag_530\n      tag_531\n      jump\t// in\n    tag_530:\n        /* \"#utility.yul\":4934:5051   */\n    tag_529:\n        /* \"#utility.yul\":5075:5156   */\n      tag_532\n        /* \"#utility.yul\":5148:5155   */\n      dup11\n        /* \"#utility.yul\":5139:5145   */\n      dup3\n        /* \"#utility.yul\":5128:5137   */\n      dup12\n        /* \"#utility.yul\":5124:5146   */\n      add\n        /* \"#utility.yul\":5075:5156   */\n      tag_485\n      jump\t// in\n    tag_532:\n        /* \"#utility.yul\":5065:5156   */\n      swap5\n      pop\n        /* \"#utility.yul\":4860:5166   */\n      pop\n        /* \"#utility.yul\":5205:5208   */\n      0x80\n        /* \"#utility.yul\":5232:5285   */\n      tag_533\n        /* \"#utility.yul\":5277:5284   */\n      dup11\n        /* \"#utility.yul\":5268:5274   */\n      dup3\n        /* \"#utility.yul\":5257:5266   */\n      dup12\n        /* \"#utility.yul\":5253:5275   */\n      add\n        /* \"#utility.yul\":5232:5285   */\n      tag_505\n      jump\t// in\n    tag_533:\n        /* \"#utility.yul\":5222:5285   */\n      swap4\n      pop\n        /* \"#utility.yul\":5176:5295   */\n      pop\n        /* \"#utility.yul\":5334:5337   */\n      0xa0\n        /* \"#utility.yul\":5361:5414   */\n      tag_534\n        /* \"#utility.yul\":5406:5413   */\n      dup11\n        /* \"#utility.yul\":5397:5403   */\n      dup3\n        /* \"#utility.yul\":5386:5395   */\n      dup12\n        /* \"#utility.yul\":5382:5404   */\n      add\n        /* \"#utility.yul\":5361:5414   */\n      tag_471\n      jump\t// in\n    tag_534:\n        /* \"#utility.yul\":5351:5414   */\n      swap3\n      pop\n        /* \"#utility.yul\":5305:5424   */\n      pop\n        /* \"#utility.yul\":5463:5466   */\n      0xc0\n        /* \"#utility.yul\":5490:5543   */\n      tag_535\n        /* \"#utility.yul\":5535:5542   */\n      dup11\n        /* \"#utility.yul\":5526:5532   */\n      dup3\n        /* \"#utility.yul\":5515:5524   */\n      dup12\n        /* \"#utility.yul\":5511:5533   */\n      add\n        /* \"#utility.yul\":5490:5543   */\n      tag_505\n      jump\t// in\n    tag_535:\n        /* \"#utility.yul\":5480:5543   */\n      swap2\n      pop\n        /* \"#utility.yul\":5434:5553   */\n      pop\n        /* \"#utility.yul\":4109:5560   */\n      swap3\n      swap6\n      swap9\n      swap2\n      swap5\n      swap8\n      pop\n      swap3\n      swap6\n      pop\n      jump\t// out\n        /* \"#utility.yul\":5566:6040   */\n    tag_98:\n        /* \"#utility.yul\":5634:5640   */\n      0x00\n        /* \"#utility.yul\":5642:5648   */\n      dup1\n        /* \"#utility.yul\":5691:5693   */\n      0x40\n        /* \"#utility.yul\":5679:5688   */\n      dup4\n        /* \"#utility.yul\":5670:5677   */\n      dup6\n        /* \"#utility.yul\":5666:5689   */\n      sub\n        /* \"#utility.yul\":5662:5694   */\n      slt\n        /* \"#utility.yul\":5659:5778   */\n      iszero\n      tag_537\n      jumpi\n        /* \"#utility.yul\":5697:5776   */\n      tag_538\n      tag_512\n      jump\t// in\n    tag_538:\n        /* \"#utility.yul\":5659:5778   */\n    tag_537:\n        /* \"#utility.yul\":5817:5818   */\n      0x00\n        /* \"#utility.yul\":5842:5895   */\n      tag_539\n        /* \"#utility.yul\":5887:5894   */\n      dup6\n        /* \"#utility.yul\":5878:5884   */\n      dup3\n        /* \"#utility.yul\":5867:5876   */\n      dup7\n        /* \"#utility.yul\":5863:5885   */\n      add\n        /* \"#utility.yul\":5842:5895   */\n      tag_471\n      jump\t// in\n    tag_539:\n        /* \"#utility.yul\":5832:5895   */\n      swap3\n      pop\n        /* \"#utility.yul\":5788:5905   */\n      pop\n        /* \"#utility.yul\":5944:5946   */\n      0x20\n        /* \"#utility.yul\":5970:6023   */\n      tag_540\n        /* \"#utility.yul\":6015:6022   */\n      dup6\n        /* \"#utility.yul\":6006:6012   */\n      dup3\n        /* \"#utility.yul\":5995:6004   */\n      dup7\n        /* \"#utility.yul\":5991:6013   */\n      add\n        /* \"#utility.yul\":5970:6023   */\n      tag_505\n      jump\t// in\n    tag_540:\n        /* \"#utility.yul\":5960:6023   */\n      swap2\n      pop\n        /* \"#utility.yul\":5915:6033   */\n      pop\n        /* \"#utility.yul\":5566:6040   */\n      swap3\n      pop\n      swap3\n      swap1\n      pop\n      jump\t// out\n        /* \"#utility.yul\":6046:6375   */\n    tag_62:\n        /* \"#utility.yul\":6105:6111   */\n      0x00\n        /* \"#utility.yul\":6154:6156   */\n      0x20\n        /* \"#utility.yul\":6142:6151   */\n      dup3\n        /* \"#utility.yul\":6133:6140   */\n      dup5\n        /* \"#utility.yul\":6129:6152   */\n      sub\n        /* \"#utility.yul\":6125:6157   */\n      slt\n        /* \"#utility.yul\":6122:6241   */\n      iszero\n      tag_542\n      jumpi\n        /* \"#utility.yul\":6160:6239   */\n      tag_543\n      tag_512\n      jump\t// in\n    tag_543:\n        /* \"#utility.yul\":6122:6241   */\n    tag_542:\n        /* \"#utility.yul\":6280:6281   */\n      0x00\n        /* \"#utility.yul\":6305:6358   */\n      tag_544\n        /* \"#utility.yul\":6350:6357   */\n      dup5\n        /* \"#utility.yul\":6341:6347   */\n      dup3\n        /* \"#utility.yul\":6330:6339   */\n      dup6\n        /* \"#utility.yul\":6326:6348   */\n      add\n        /* \"#utility.yul\":6305:6358   */\n      tag_505\n      jump\t// in\n    tag_544:\n        /* \"#utility.yul\":6295:6358   */\n      swap2\n      pop\n        /* \"#utility.yul\":6251:6368   */\n      pop\n        /* \"#utility.yul\":6046:6375   */\n      swap3\n      swap2\n      pop\n      pop\n      jump\t// out\n        /* \"#utility.yul\":6381:7049   */\n    tag_120:\n        /* \"#utility.yul\":6482:6488   */\n      0x00\n        /* \"#utility.yul\":6490:6496   */\n      dup1\n        /* \"#utility.yul\":6498:6504   */\n      0x00\n        /* \"#utility.yul\":6547:6550   */\n      0x80\n        /* \"#utility.yul\":6535:6544   */\n      dup5\n        /* \"#utility.yul\":6526:6533   */\n      dup7\n        /* \"#utility.yul\":6522:6545   */\n      sub\n        /* \"#utility.yul\":6518:6551   */\n      slt\n        /* \"#utility.yul\":6515:6635   */\n      iszero\n      tag_546\n      jumpi\n        /* \"#utility.yul\":6554:6633   */\n      tag_547\n      tag_512\n      jump\t// in\n    tag_547:\n        /* \"#utility.yul\":6515:6635   */\n    tag_546:\n        /* \"#utility.yul\":6674:6675   */\n      0x00\n        /* \"#utility.yul\":6699:6752   */\n      tag_548\n        /* \"#utility.yul\":6744:6751   */\n      dup7\n        /* \"#utility.yul\":6735:6741   */\n      dup3\n        /* \"#utility.yul\":6724:6733   */\n      dup8\n        /* \"#utility.yul\":6720:6742   */\n      add\n        /* \"#utility.yul\":6699:6752   */\n      tag_505\n      jump\t// in\n    tag_548:\n        /* \"#utility.yul\":6689:6752   */\n      swap4\n      pop\n        /* \"#utility.yul\":6645:6762   */\n      pop\n        /* \"#utility.yul\":6801:6803   */\n      0x20\n        /* \"#utility.yul\":6827:6904   */\n      tag_549\n        /* \"#utility.yul\":6896:6903   */\n      dup7\n        /* \"#utility.yul\":6887:6893   */\n      dup3\n        /* \"#utility.yul\":6876:6885   */\n      dup8\n        /* \"#utility.yul\":6872:6894   */\n      add\n        /* \"#utility.yul\":6827:6904   */\n      tag_498\n      jump\t// in\n    tag_549:\n        /* \"#utility.yul\":6817:6904   */\n      swap3\n      pop\n        /* \"#utility.yul\":6772:6914   */\n      pop\n        /* \"#utility.yul\":6953:6955   */\n      0x60\n        /* \"#utility.yul\":6979:7032   */\n      tag_550\n        /* \"#utility.yul\":7024:7031   */\n      dup7\n        /* \"#utility.yul\":7015:7021   */\n      dup3\n        /* \"#utility.yul\":7004:7013   */\n      dup8\n        /* \"#utility.yul\":7000:7022   */\n      add\n        /* \"#utility.yul\":6979:7032   */\n      tag_505\n      jump\t// in\n    tag_550:\n        /* \"#utility.yul\":6969:7032   */\n      swap2\n      pop\n        /* \"#utility.yul\":6924:7042   */\n      pop\n        /* \"#utility.yul\":6381:7049   */\n      swap3\n      pop\n      swap3\n      pop\n      swap3\n      jump\t// out\n        /* \"#utility.yul\":7055:7529   */\n    tag_78:\n        /* \"#utility.yul\":7123:7129   */\n      0x00\n        /* \"#utility.yul\":7131:7137   */\n      dup1\n        /* \"#utility.yul\":7180:7182   */\n      0x40\n        /* \"#utility.yul\":7168:7177   */\n      dup4\n        /* \"#utility.yul\":7159:7166   */\n      dup6\n        /* \"#utility.yul\":7155:7178   */\n      sub\n        /* \"#utility.yul\":7151:7183   */\n      slt\n        /* \"#utility.yul\":7148:7267   */\n      iszero\n      tag_552\n      jumpi\n        /* \"#utility.yul\":7186:7265   */\n      tag_553\n      tag_512\n      jump\t// in\n    tag_553:\n        /* \"#utility.yul\":7148:7267   */\n    tag_552:\n        /* \"#utility.yul\":7306:7307   */\n      0x00\n        /* \"#utility.yul\":7331:7384   */\n      tag_554\n        /* \"#utility.yul\":7376:7383   */\n      dup6\n        /* \"#utility.yul\":7367:7373   */\n      dup3\n        /* \"#utility.yul\":7356:7365   */\n      dup7\n        /* \"#utility.yul\":7352:7374   */\n      add\n        /* \"#utility.yul\":7331:7384   */\n      tag_505\n      jump\t// in\n    tag_554:\n        /* \"#utility.yul\":7321:7384   */\n      swap3\n      pop\n        /* \"#utility.yul\":7277:7394   */\n      pop\n        /* \"#utility.yul\":7433:7435   */\n      0x20\n        /* \"#utility.yul\":7459:7512   */\n      tag_555\n        /* \"#utility.yul\":7504:7511   */\n      dup6\n        /* \"#utility.yul\":7495:7501   */\n      dup3\n        /* \"#utility.yul\":7484:7493   */\n      dup7\n        /* \"#utility.yul\":7480:7502   */\n      add\n        /* \"#utility.yul\":7459:7512   */\n      tag_505\n      jump\t// in\n    tag_555:\n        /* \"#utility.yul\":7449:7512   */\n      swap2\n      pop\n        /* \"#utility.yul\":7404:7522   */\n      pop\n        /* \"#utility.yul\":7055:7529   */\n      swap3\n      pop\n      swap3\n      swap1\n      pop\n      jump\t// out\n        /* \"#utility.yul\":7535:8154   */\n    tag_56:\n        /* \"#utility.yul\":7612:7618   */\n      0x00\n        /* \"#utility.yul\":7620:7626   */\n      dup1\n        /* \"#utility.yul\":7628:7634   */\n      0x00\n        /* \"#utility.yul\":7677:7679   */\n      0x60\n        /* \"#utility.yul\":7665:7674   */\n      dup5\n        /* \"#utility.yul\":7656:7663   */\n      dup7\n        /* \"#utility.yul\":7652:7675   */\n      sub\n        /* \"#utility.yul\":7648:7680   */\n      slt\n        /* \"#utility.yul\":7645:7764   */\n      iszero\n      tag_557\n      jumpi\n        /* \"#utility.yul\":7683:7762   */\n      tag_558\n      tag_512\n      jump\t// in\n    tag_558:\n        /* \"#utility.yul\":7645:7764   */\n    tag_557:\n        /* \"#utility.yul\":7803:7804   */\n      0x00\n        /* \"#utility.yul\":7828:7881   */\n      tag_559\n        /* \"#utility.yul\":7873:7880   */\n      dup7\n        /* \"#utility.yul\":7864:7870   */\n      dup3\n        /* \"#utility.yul\":7853:7862   */\n      dup8\n        /* \"#utility.yul\":7849:7871   */\n      add\n        /* \"#utility.yul\":7828:7881   */\n      tag_505\n      jump\t// in\n    tag_559:\n        /* \"#utility.yul\":7818:7881   */\n      swap4\n      pop\n        /* \"#utility.yul\":7774:7891   */\n      pop\n        /* \"#utility.yul\":7930:7932   */\n      0x20\n        /* \"#utility.yul\":7956:8009   */\n      tag_560\n        /* \"#utility.yul\":8001:8008   */\n      dup7\n        /* \"#utility.yul\":7992:7998   */\n      dup3\n        /* \"#utility.yul\":7981:7990   */\n      dup8\n        /* \"#utility.yul\":7977:7999   */\n      add\n        /* \"#utility.yul\":7956:8009   */\n      tag_505\n      jump\t// in\n    tag_560:\n        /* \"#utility.yul\":7946:8009   */\n      swap3\n      pop\n        /* \"#utility.yul\":7901:8019   */\n      pop\n        /* \"#utility.yul\":8058:8060   */\n      0x40\n        /* \"#utility.yul\":8084:8137   */\n      tag_561\n        /* \"#utility.yul\":8129:8136   */\n      dup7\n        /* \"#utility.yul\":8120:8126   */\n      dup3\n        /* \"#utility.yul\":8109:8118   */\n      dup8\n        /* \"#utility.yul\":8105:8127   */\n      add\n        /* \"#utility.yul\":8084:8137   */\n      tag_505\n      jump\t// in\n    tag_561:\n        /* \"#utility.yul\":8074:8137   */\n      swap2\n      pop\n        /* \"#utility.yul\":8029:8147   */\n      pop\n        /* \"#utility.yul\":7535:8154   */\n      swap3\n      pop\n      swap3\n      pop\n      swap3\n      jump\t// out\n        /* \"#utility.yul\":8160:8278   */\n    tag_562:\n        /* \"#utility.yul\":8247:8271   */\n      tag_564\n        /* \"#utility.yul\":8265:8270   */\n      dup2\n        /* \"#utility.yul\":8247:8271   */\n      tag_565\n      jump\t// in\n    tag_564:\n        /* \"#utility.yul\":8242:8245   */\n      dup3\n        /* \"#utility.yul\":8235:8272   */\n      mstore\n        /* \"#utility.yul\":8160:8278   */\n      pop\n      pop\n      jump\t// out\n        /* \"#utility.yul\":8284:8393   */\n    tag_566:\n        /* \"#utility.yul\":8365:8386   */\n      tag_568\n        /* \"#utility.yul\":8380:8385   */\n      dup2\n        /* \"#utility.yul\":8365:8386   */\n      tag_569\n      jump\t// in\n    tag_568:\n        /* \"#utility.yul\":8360:8363   */\n      dup3\n        /* \"#utility.yul\":8353:8387   */\n      mstore\n        /* \"#utility.yul\":8284:8393   */\n      pop\n      pop\n      jump\t// out\n        /* \"#utility.yul\":8399:8507   */\n    tag_570:\n        /* \"#utility.yul\":8476:8500   */\n      tag_572\n        /* \"#utility.yul\":8494:8499   */\n      dup2\n        /* \"#utility.yul\":8476:8500   */\n      tag_573\n      jump\t// in\n    tag_572:\n        /* \"#utility.yul\":8471:8474   */\n      dup3\n        /* \"#utility.yul\":8464:8501   */\n      mstore\n        /* \"#utility.yul\":8399:8507   */\n      pop\n      pop\n      jump\t// out\n        /* \"#utility.yul\":8513:8631   */\n    tag_574:\n        /* \"#utility.yul\":8600:8624   */\n      tag_576\n        /* \"#utility.yul\":8618:8623   */\n      dup2\n        /* \"#utility.yul\":8600:8624   */\n      tag_573\n      jump\t// in\n    tag_576:\n        /* \"#utility.yul\":8595:8598   */\n      dup3\n        /* \"#utility.yul\":8588:8625   */\n      mstore\n        /* \"#utility.yul\":8513:8631   */\n      pop\n      pop\n      jump\t// out\n        /* \"#utility.yul\":8637:8977   */\n    tag_577:\n        /* \"#utility.yul\":8713:8716   */\n      0x00\n        /* \"#utility.yul\":8741:8779   */\n      tag_579\n        /* \"#utility.yul\":8773:8778   */\n      dup3\n        /* \"#utility.yul\":8741:8779   */\n      tag_580\n      jump\t// in\n    tag_579:\n        /* \"#utility.yul\":8795:8855   */\n      tag_581\n        /* \"#utility.yul\":8848:8854   */\n      dup2\n        /* \"#utility.yul\":8843:8846   */\n      dup6\n        /* \"#utility.yul\":8795:8855   */\n      tag_582\n      jump\t// in\n    tag_581:\n        /* \"#utility.yul\":8788:8855   */\n      swap4\n      pop\n        /* \"#utility.yul\":8864:8916   */\n      tag_583\n        /* \"#utility.yul\":8909:8915   */\n      dup2\n        /* \"#utility.yul\":8904:8907   */\n      dup6\n        /* \"#utility.yul\":8897:8901   */\n      0x20\n        /* \"#utility.yul\":8890:8895   */\n      dup7\n        /* \"#utility.yul\":8886:8902   */\n      add\n        /* \"#utility.yul\":8864:8916   */\n      tag_584\n      jump\t// in\n    tag_583:\n        /* \"#utility.yul\":8941:8970   */\n      tag_585\n        /* \"#utility.yul\":8963:8969   */\n      dup2\n        /* \"#utility.yul\":8941:8970   */\n      tag_586\n      jump\t// in\n    tag_585:\n        /* \"#utility.yul\":8936:8939   */\n      dup5\n        /* \"#utility.yul\":8932:8971   */\n      add\n        /* \"#utility.yul\":8925:8971   */\n      swap2\n      pop\n        /* \"#utility.yul\":8717:8977   */\n      pop\n        /* \"#utility.yul\":8637:8977   */\n      swap3\n      swap2\n      pop\n      pop\n      jump\t// out\n        /* \"#utility.yul\":8983:9148   */\n    tag_587:\n        /* \"#utility.yul\":9087:9141   */\n      tag_589\n        /* \"#utility.yul\":9135:9140   */\n      dup2\n        /* \"#utility.yul\":9087:9141   */\n      tag_590\n      jump\t// in\n    tag_589:\n        /* \"#utility.yul\":9082:9085   */\n      dup3\n        /* \"#utility.yul\":9075:9142   */\n      mstore\n        /* \"#utility.yul\":8983:9148   */\n      pop\n      pop\n      jump\t// out\n        /* \"#utility.yul\":9154:9307   */\n    tag_591:\n        /* \"#utility.yul\":9247:9300   */\n      tag_593\n        /* \"#utility.yul\":9294:9299   */\n      dup2\n        /* \"#utility.yul\":9247:9300   */\n      tag_594\n      jump\t// in\n    tag_593:\n        /* \"#utility.yul\":9242:9245   */\n      dup3\n        /* \"#utility.yul\":9235:9301   */\n      mstore\n        /* \"#utility.yul\":9154:9307   */\n      pop\n      pop\n      jump\t// out\n        /* \"#utility.yul\":9313:9476   */\n    tag_595:\n        /* \"#utility.yul\":9416:9469   */\n      tag_597\n        /* \"#utility.yul\":9463:9468   */\n      dup2\n        /* \"#utility.yul\":9416:9469   */\n      tag_594\n      jump\t// in\n    tag_597:\n        /* \"#utility.yul\":9411:9414   */\n      dup3\n        /* \"#utility.yul\":9404:9470   */\n      mstore\n        /* \"#utility.yul\":9313:9476   */\n      pop\n      pop\n      jump\t// out\n        /* \"#utility.yul\":9482:9631   */\n    tag_598:\n        /* \"#utility.yul\":9573:9624   */\n      tag_600\n        /* \"#utility.yul\":9618:9623   */\n      dup2\n        /* \"#utility.yul\":9573:9624   */\n      tag_601\n      jump\t// in\n    tag_600:\n        /* \"#utility.yul\":9568:9571   */\n      dup3\n        /* \"#utility.yul\":9561:9625   */\n      mstore\n        /* \"#utility.yul\":9482:9631   */\n      pop\n      pop\n      jump\t// out\n        /* \"#utility.yul\":9637:9796   */\n    tag_602:\n        /* \"#utility.yul\":9738:9789   */\n      tag_604\n        /* \"#utility.yul\":9783:9788   */\n      dup2\n        /* \"#utility.yul\":9738:9789   */\n      tag_601\n      jump\t// in\n    tag_604:\n        /* \"#utility.yul\":9733:9736   */\n      dup3\n        /* \"#utility.yul\":9726:9790   */\n      mstore\n        /* \"#utility.yul\":9637:9796   */\n      pop\n      pop\n      jump\t// out\n        /* \"#utility.yul\":9802:10168   */\n    tag_605:\n        /* \"#utility.yul\":9944:9947   */\n      0x00\n        /* \"#utility.yul\":9965:10032   */\n      tag_607\n        /* \"#utility.yul\":10029:10031   */\n      0x2e\n        /* \"#utility.yul\":10024:10027   */\n      dup4\n        /* \"#utility.yul\":9965:10032   */\n      tag_608\n      jump\t// in\n    tag_607:\n        /* \"#utility.yul\":9958:10032   */\n      swap2\n      pop\n        /* \"#utility.yul\":10041:10134   */\n      tag_609\n        /* \"#utility.yul\":10130:10133   */\n      dup3\n        /* \"#utility.yul\":10041:10134   */\n      tag_610\n      jump\t// in\n    tag_609:\n        /* \"#utility.yul\":10159:10161   */\n      0x40\n        /* \"#utility.yul\":10154:10157   */\n      dup3\n        /* \"#utility.yul\":10150:10162   */\n      add\n        /* \"#utility.yul\":10143:10162   */\n      swap1\n      pop\n        /* \"#utility.yul\":9802:10168   */\n      swap2\n      swap1\n      pop\n      jump\t// out\n        /* \"#utility.yul\":10174:10540   */\n    tag_611:\n        /* \"#utility.yul\":10316:10319   */\n      0x00\n        /* \"#utility.yul\":10337:10404   */\n      tag_613\n        /* \"#utility.yul\":10401:10403   */\n      0x2d\n        /* \"#utility.yul\":10396:10399   */\n      dup4\n        /* \"#utility.yul\":10337:10404   */\n      tag_608\n      jump\t// in\n    tag_613:\n        /* \"#utility.yul\":10330:10404   */\n      swap2\n      pop\n        /* \"#utility.yul\":10413:10506   */\n      tag_614\n        /* \"#utility.yul\":10502:10505   */\n      dup3\n        /* \"#utility.yul\":10413:10506   */\n      tag_615\n      jump\t// in\n    tag_614:\n        /* \"#utility.yul\":10531:10533   */\n      0x40\n        /* \"#utility.yul\":10526:10529   */\n      dup3\n        /* \"#utility.yul\":10522:10534   */\n      add\n        /* \"#utility.yul\":10515:10534   */\n      swap1\n      pop\n        /* \"#utility.yul\":10174:10540   */\n      swap2\n      swap1\n      pop\n      jump\t// out\n        /* \"#utility.yul\":10546:10912   */\n    tag_616:\n        /* \"#utility.yul\":10688:10691   */\n      0x00\n        /* \"#utility.yul\":10709:10776   */\n      tag_618\n        /* \"#utility.yul\":10773:10775   */\n      0x40\n        /* \"#utility.yul\":10768:10771   */\n      dup4\n        /* \"#utility.yul\":10709:10776   */\n      tag_608\n      jump\t// in\n    tag_618:\n        /* \"#utility.yul\":10702:10776   */\n      swap2\n      pop\n        /* \"#utility.yul\":10785:10878   */\n      tag_619\n        /* \"#utility.yul\":10874:10877   */\n      dup3\n        /* \"#utility.yul\":10785:10878   */\n      tag_620\n      jump\t// in\n    tag_619:\n        /* \"#utility.yul\":10903:10905   */\n      0x40\n        /* \"#utility.yul\":10898:10901   */\n      dup3\n        /* \"#utility.yul\":10894:10906   */\n      add\n        /* \"#utility.yul\":10887:10906   */\n      swap1\n      pop\n        /* \"#utility.yul\":10546:10912   */\n      swap2\n      swap1\n      pop\n      jump\t// out\n        /* \"#utility.yul\":10918:11284   */\n    tag_621:\n        /* \"#utility.yul\":11060:11063   */\n      0x00\n        /* \"#utility.yul\":11081:11148   */\n      tag_623\n        /* \"#utility.yul\":11145:11147   */\n      0x15\n        /* \"#utility.yul\":11140:11143   */\n      dup4\n        /* \"#utility.yul\":11081:11148   */\n      tag_608\n      jump\t// in\n    tag_623:\n        /* \"#utility.yul\":11074:11148   */\n      swap2\n      pop\n        /* \"#utility.yul\":11157:11250   */\n      tag_624\n        /* \"#utility.yul\":11246:11249   */\n      dup3\n        /* \"#utility.yul\":11157:11250   */\n      tag_625\n      jump\t// in\n    tag_624:\n        /* \"#utility.yul\":11275:11277   */\n      0x20\n        /* \"#utility.yul\":11270:11273   */\n      dup3\n        /* \"#utility.yul\":11266:11278   */\n      add\n        /* \"#utility.yul\":11259:11278   */\n      swap1\n      pop\n        /* \"#utility.yul\":10918:11284   */\n      swap2\n      swap1\n      pop\n      jump\t// out\n        /* \"#utility.yul\":11290:11656   */\n    tag_626:\n        /* \"#utility.yul\":11432:11435   */\n      0x00\n        /* \"#utility.yul\":11453:11520   */\n      tag_628\n        /* \"#utility.yul\":11517:11519   */\n      0x30\n        /* \"#utility.yul\":11512:11515   */\n      dup4\n        /* \"#utility.yul\":11453:11520   */\n      tag_608\n      jump\t// in\n    tag_628:\n        /* \"#utility.yul\":11446:11520   */\n      swap2\n      pop\n        /* \"#utility.yul\":11529:11622   */\n      tag_629\n        /* \"#utility.yul\":11618:11621   */\n      dup3\n        /* \"#utility.yul\":11529:11622   */\n      tag_630\n      jump\t// in\n    tag_629:\n        /* \"#utility.yul\":11647:11649   */\n      0x40\n        /* \"#utility.yul\":11642:11645   */\n      dup3\n        /* \"#utility.yul\":11638:11650   */\n      add\n        /* \"#utility.yul\":11631:11650   */\n      swap1\n      pop\n        /* \"#utility.yul\":11290:11656   */\n      swap2\n      swap1\n      pop\n      jump\t// out\n        /* \"#utility.yul\":11662:12028   */\n    tag_631:\n        /* \"#utility.yul\":11804:11807   */\n      0x00\n        /* \"#utility.yul\":11825:11892   */\n      tag_633\n        /* \"#utility.yul\":11889:11891   */\n      0x3e\n        /* \"#utility.yul\":11884:11887   */\n      dup4\n        /* \"#utility.yul\":11825:11892   */\n      tag_608\n      jump\t// in\n    tag_633:\n        /* \"#utility.yul\":11818:11892   */\n      swap2\n      pop\n        /* \"#utility.yul\":11901:11994   */\n      tag_634\n        /* \"#utility.yul\":11990:11993   */\n      dup3\n        /* \"#utility.yul\":11901:11994   */\n      tag_635\n      jump\t// in\n    tag_634:\n        /* \"#utility.yul\":12019:12021   */\n      0x40\n        /* \"#utility.yul\":12014:12017   */\n      dup3\n        /* \"#utility.yul\":12010:12022   */\n      add\n        /* \"#utility.yul\":12003:12022   */\n      swap1\n      pop\n        /* \"#utility.yul\":11662:12028   */\n      swap2\n      swap1\n      pop\n      jump\t// out\n        /* \"#utility.yul\":12034:12400   */\n    tag_636:\n        /* \"#utility.yul\":12176:12179   */\n      0x00\n        /* \"#utility.yul\":12197:12264   */\n      tag_638\n        /* \"#utility.yul\":12261:12263   */\n      0x16\n        /* \"#utility.yul\":12256:12259   */\n      dup4\n        /* \"#utility.yul\":12197:12264   */\n      tag_608\n      jump\t// in\n    tag_638:\n        /* \"#utility.yul\":12190:12264   */\n      swap2\n      pop\n        /* \"#utility.yul\":12273:12366   */\n      tag_639\n        /* \"#utility.yul\":12362:12365   */\n      dup3\n        /* \"#utility.yul\":12273:12366   */\n      tag_640\n      jump\t// in\n    tag_639:\n        /* \"#utility.yul\":12391:12393   */\n      0x20\n        /* \"#utility.yul\":12386:12389   */\n      dup3\n        /* \"#utility.yul\":12382:12394   */\n      add\n        /* \"#utility.yul\":12375:12394   */\n      swap1\n      pop\n        /* \"#utility.yul\":12034:12400   */\n      swap2\n      swap1\n      pop\n      jump\t// out\n        /* \"#utility.yul\":12406:12772   */\n    tag_641:\n        /* \"#utility.yul\":12548:12551   */\n      0x00\n        /* \"#utility.yul\":12569:12636   */\n      tag_643\n        /* \"#utility.yul\":12633:12635   */\n      0x3d\n        /* \"#utility.yul\":12628:12631   */\n      dup4\n        /* \"#utility.yul\":12569:12636   */\n      tag_608\n      jump\t// in\n    tag_643:\n        /* \"#utility.yul\":12562:12636   */\n      swap2\n      pop\n        /* \"#utility.yul\":12645:12738   */\n      tag_644\n        /* \"#utility.yul\":12734:12737   */\n      dup3\n        /* \"#utility.yul\":12645:12738   */\n      tag_645\n      jump\t// in\n    tag_644:\n        /* \"#utility.yul\":12763:12765   */\n      0x40\n        /* \"#utility.yul\":12758:12761   */\n      dup3\n        /* \"#utility.yul\":12754:12766   */\n      add\n        /* \"#utility.yul\":12747:12766   */\n      swap1\n      pop\n        /* \"#utility.yul\":12406:12772   */\n      swap2\n      swap1\n      pop\n      jump\t// out\n        /* \"#utility.yul\":12838:13516   */\n    tag_646:\n        /* \"#utility.yul\":12953:12956   */\n      0x00\n        /* \"#utility.yul\":12989:12993   */\n      0x40\n        /* \"#utility.yul\":12984:12987   */\n      dup4\n        /* \"#utility.yul\":12980:12994   */\n      add\n        /* \"#utility.yul\":13080:13084   */\n      0x00\n        /* \"#utility.yul\":13073:13078   */\n      dup4\n        /* \"#utility.yul\":13069:13085   */\n      add\n        /* \"#utility.yul\":13063:13086   */\n      mload\n        /* \"#utility.yul\":13133:13136   */\n      dup5\n        /* \"#utility.yul\":13127:13131   */\n      dup3\n        /* \"#utility.yul\":13123:13137   */\n      sub\n        /* \"#utility.yul\":13116:13120   */\n      0x00\n        /* \"#utility.yul\":13111:13114   */\n      dup7\n        /* \"#utility.yul\":13107:13121   */\n      add\n        /* \"#utility.yul\":13100:13138   */\n      mstore\n        /* \"#utility.yul\":13159:13230   */\n      tag_648\n        /* \"#utility.yul\":13225:13229   */\n      dup3\n        /* \"#utility.yul\":13211:13223   */\n      dup3\n        /* \"#utility.yul\":13159:13230   */\n      tag_577\n      jump\t// in\n    tag_648:\n        /* \"#utility.yul\":13151:13230   */\n      swap2\n      pop\n        /* \"#utility.yul\":13004:13241   */\n      pop\n        /* \"#utility.yul\":13328:13332   */\n      0x20\n        /* \"#utility.yul\":13321:13326   */\n      dup4\n        /* \"#utility.yul\":13317:13333   */\n      add\n        /* \"#utility.yul\":13311:13334   */\n      mload\n        /* \"#utility.yul\":13381:13384   */\n      dup5\n        /* \"#utility.yul\":13375:13379   */\n      dup3\n        /* \"#utility.yul\":13371:13385   */\n      sub\n        /* \"#utility.yul\":13364:13368   */\n      0x20\n        /* \"#utility.yul\":13359:13362   */\n      dup7\n        /* \"#utility.yul\":13355:13369   */\n      add\n        /* \"#utility.yul\":13348:13386   */\n      mstore\n        /* \"#utility.yul\":13407:13478   */\n      tag_649\n        /* \"#utility.yul\":13473:13477   */\n      dup3\n        /* \"#utility.yul\":13459:13471   */\n      dup3\n        /* \"#utility.yul\":13407:13478   */\n      tag_577\n      jump\t// in\n    tag_649:\n        /* \"#utility.yul\":13399:13478   */\n      swap2\n      pop\n        /* \"#utility.yul\":13251:13489   */\n      pop\n        /* \"#utility.yul\":13506:13510   */\n      dup1\n        /* \"#utility.yul\":13499:13510   */\n      swap2\n      pop\n        /* \"#utility.yul\":12958:13516   */\n      pop\n        /* \"#utility.yul\":12838:13516   */\n      swap3\n      swap2\n      pop\n      pop\n      jump\t// out\n        /* \"#utility.yul\":13582:14270   */\n    tag_650:\n        /* \"#utility.yul\":13707:13710   */\n      0x00\n        /* \"#utility.yul\":13743:13747   */\n      0x40\n        /* \"#utility.yul\":13738:13741   */\n      dup4\n        /* \"#utility.yul\":13734:13748   */\n      add\n        /* \"#utility.yul\":13834:13838   */\n      0x00\n        /* \"#utility.yul\":13827:13832   */\n      dup4\n        /* \"#utility.yul\":13823:13839   */\n      add\n        /* \"#utility.yul\":13817:13840   */\n      mload\n        /* \"#utility.yul\":13887:13890   */\n      dup5\n        /* \"#utility.yul\":13881:13885   */\n      dup3\n        /* \"#utility.yul\":13877:13891   */\n      sub\n        /* \"#utility.yul\":13870:13874   */\n      0x00\n        /* \"#utility.yul\":13865:13868   */\n      dup7\n        /* \"#utility.yul\":13861:13875   */\n      add\n        /* \"#utility.yul\":13854:13892   */\n      mstore\n        /* \"#utility.yul\":13913:13984   */\n      tag_652\n        /* \"#utility.yul\":13979:13983   */\n      dup3\n        /* \"#utility.yul\":13965:13977   */\n      dup3\n        /* \"#utility.yul\":13913:13984   */\n      tag_577\n      jump\t// in\n    tag_652:\n        /* \"#utility.yul\":13905:13984   */\n      swap2\n      pop\n        /* \"#utility.yul\":13758:13995   */\n      pop\n        /* \"#utility.yul\":14082:14086   */\n      0x20\n        /* \"#utility.yul\":14075:14080   */\n      dup4\n        /* \"#utility.yul\":14071:14087   */\n      add\n        /* \"#utility.yul\":14065:14088   */\n      mload\n        /* \"#utility.yul\":14135:14138   */\n      dup5\n        /* \"#utility.yul\":14129:14133   */\n      dup3\n        /* \"#utility.yul\":14125:14139   */\n      sub\n        /* \"#utility.yul\":14118:14122   */\n      0x20\n        /* \"#utility.yul\":14113:14116   */\n      dup7\n        /* \"#utility.yul\":14109:14123   */\n      add\n        /* \"#utility.yul\":14102:14140   */\n      mstore\n        /* \"#utility.yul\":14161:14232   */\n      tag_653\n        /* \"#utility.yul\":14227:14231   */\n      dup3\n        /* \"#utility.yul\":14213:14225   */\n      dup3\n        /* \"#utility.yul\":14161:14232   */\n      tag_577\n      jump\t// in\n    tag_653:\n        /* \"#utility.yul\":14153:14232   */\n      swap2\n      pop\n        /* \"#utility.yul\":14005:14243   */\n      pop\n        /* \"#utility.yul\":14260:14264   */\n      dup1\n        /* \"#utility.yul\":14253:14264   */\n      swap2\n      pop\n        /* \"#utility.yul\":13712:14270   */\n      pop\n        /* \"#utility.yul\":13582:14270   */\n      swap3\n      swap2\n      pop\n      pop\n      jump\t// out\n        /* \"#utility.yul\":14328:14831   */\n    tag_654:\n        /* \"#utility.yul\":14473:14477   */\n      0x40\n        /* \"#utility.yul\":14468:14471   */\n      dup3\n        /* \"#utility.yul\":14464:14478   */\n      add\n        /* \"#utility.yul\":14560:14564   */\n      0x00\n        /* \"#utility.yul\":14553:14558   */\n      dup3\n        /* \"#utility.yul\":14549:14565   */\n      add\n        /* \"#utility.yul\":14543:14566   */\n      mload\n        /* \"#utility.yul\":14579:14642   */\n      tag_656\n        /* \"#utility.yul\":14636:14640   */\n      0x00\n        /* \"#utility.yul\":14631:14634   */\n      dup6\n        /* \"#utility.yul\":14627:14641   */\n      add\n        /* \"#utility.yul\":14613:14625   */\n      dup3\n        /* \"#utility.yul\":14579:14642   */\n      tag_570\n      jump\t// in\n    tag_656:\n        /* \"#utility.yul\":14488:14652   */\n      pop\n        /* \"#utility.yul\":14732:14736   */\n      0x20\n        /* \"#utility.yul\":14725:14730   */\n      dup3\n        /* \"#utility.yul\":14721:14737   */\n      add\n        /* \"#utility.yul\":14715:14738   */\n      mload\n        /* \"#utility.yul\":14751:14814   */\n      tag_657\n        /* \"#utility.yul\":14808:14812   */\n      0x20\n        /* \"#utility.yul\":14803:14806   */\n      dup6\n        /* \"#utility.yul\":14799:14813   */\n      add\n        /* \"#utility.yul\":14785:14797   */\n      dup3\n        /* \"#utility.yul\":14751:14814   */\n      tag_570\n      jump\t// in\n    tag_657:\n        /* \"#utility.yul\":14662:14824   */\n      pop\n        /* \"#utility.yul\":14442:14831   */\n      pop\n        /* \"#utility.yul\":14328:14831   */\n      pop\n      pop\n      jump\t// out\n        /* \"#utility.yul\":14891:16805   */\n    tag_658:\n        /* \"#utility.yul\":15010:15013   */\n      0x00\n        /* \"#utility.yul\":15046:15052   */\n      0x0120\n        /* \"#utility.yul\":15041:15044   */\n      dup4\n        /* \"#utility.yul\":15037:15053   */\n      add\n        /* \"#utility.yul\":15133:15137   */\n      0x00\n        /* \"#utility.yul\":15126:15131   */\n      dup4\n        /* \"#utility.yul\":15122:15138   */\n      add\n        /* \"#utility.yul\":15116:15139   */\n      mload\n        /* \"#utility.yul\":15152:15215   */\n      tag_660\n        /* \"#utility.yul\":15209:15213   */\n      0x00\n        /* \"#utility.yul\":15204:15207   */\n      dup7\n        /* \"#utility.yul\":15200:15214   */\n      add\n        /* \"#utility.yul\":15186:15198   */\n      dup3\n        /* \"#utility.yul\":15152:15215   */\n      tag_661\n      jump\t// in\n    tag_660:\n        /* \"#utility.yul\":15063:15225   */\n      pop\n        /* \"#utility.yul\":15307:15311   */\n      0x20\n        /* \"#utility.yul\":15300:15305   */\n      dup4\n        /* \"#utility.yul\":15296:15312   */\n      add\n        /* \"#utility.yul\":15290:15313   */\n      mload\n        /* \"#utility.yul\":15326:15389   */\n      tag_662\n        /* \"#utility.yul\":15383:15387   */\n      0x20\n        /* \"#utility.yul\":15378:15381   */\n      dup7\n        /* \"#utility.yul\":15374:15388   */\n      add\n        /* \"#utility.yul\":15360:15372   */\n      dup3\n        /* \"#utility.yul\":15326:15389   */\n      tag_570\n      jump\t// in\n    tag_662:\n        /* \"#utility.yul\":15235:15399   */\n      pop\n        /* \"#utility.yul\":15482:15486   */\n      0x40\n        /* \"#utility.yul\":15475:15480   */\n      dup4\n        /* \"#utility.yul\":15471:15487   */\n      add\n        /* \"#utility.yul\":15465:15488   */\n      mload\n        /* \"#utility.yul\":15501:15564   */\n      tag_663\n        /* \"#utility.yul\":15558:15562   */\n      0x40\n        /* \"#utility.yul\":15553:15556   */\n      dup7\n        /* \"#utility.yul\":15549:15563   */\n      add\n        /* \"#utility.yul\":15535:15547   */\n      dup3\n        /* \"#utility.yul\":15501:15564   */\n      tag_570\n      jump\t// in\n    tag_663:\n        /* \"#utility.yul\":15409:15574   */\n      pop\n        /* \"#utility.yul\":15663:15667   */\n      0x60\n        /* \"#utility.yul\":15656:15661   */\n      dup4\n        /* \"#utility.yul\":15652:15668   */\n      add\n        /* \"#utility.yul\":15646:15669   */\n      mload\n        /* \"#utility.yul\":15682:15759   */\n      tag_664\n        /* \"#utility.yul\":15753:15757   */\n      0x60\n        /* \"#utility.yul\":15748:15751   */\n      dup7\n        /* \"#utility.yul\":15744:15758   */\n      add\n        /* \"#utility.yul\":15730:15742   */\n      dup3\n        /* \"#utility.yul\":15682:15759   */\n      tag_598\n      jump\t// in\n    tag_664:\n        /* \"#utility.yul\":15584:15769   */\n      pop\n        /* \"#utility.yul\":15855:15859   */\n      0x80\n        /* \"#utility.yul\":15848:15853   */\n      dup4\n        /* \"#utility.yul\":15844:15860   */\n      add\n        /* \"#utility.yul\":15838:15861   */\n      mload\n        /* \"#utility.yul\":15908:15911   */\n      dup5\n        /* \"#utility.yul\":15902:15906   */\n      dup3\n        /* \"#utility.yul\":15898:15912   */\n      sub\n        /* \"#utility.yul\":15891:15895   */\n      0x80\n        /* \"#utility.yul\":15886:15889   */\n      dup7\n        /* \"#utility.yul\":15882:15896   */\n      add\n        /* \"#utility.yul\":15875:15913   */\n      mstore\n        /* \"#utility.yul\":15934:16043   */\n      tag_665\n        /* \"#utility.yul\":16038:16042   */\n      dup3\n        /* \"#utility.yul\":16024:16036   */\n      dup3\n        /* \"#utility.yul\":15934:16043   */\n      tag_646\n      jump\t// in\n    tag_665:\n        /* \"#utility.yul\":15926:16043   */\n      swap2\n      pop\n        /* \"#utility.yul\":15779:16054   */\n      pop\n        /* \"#utility.yul\":16137:16141   */\n      0xa0\n        /* \"#utility.yul\":16130:16135   */\n      dup4\n        /* \"#utility.yul\":16126:16142   */\n      add\n        /* \"#utility.yul\":16120:16143   */\n      mload\n        /* \"#utility.yul\":16156:16219   */\n      tag_666\n        /* \"#utility.yul\":16213:16217   */\n      0xa0\n        /* \"#utility.yul\":16208:16211   */\n      dup7\n        /* \"#utility.yul\":16204:16218   */\n      add\n        /* \"#utility.yul\":16190:16202   */\n      dup3\n        /* \"#utility.yul\":16156:16219   */\n      tag_661\n      jump\t// in\n    tag_666:\n        /* \"#utility.yul\":16064:16229   */\n      pop\n        /* \"#utility.yul\":16312:16316   */\n      0xc0\n        /* \"#utility.yul\":16305:16310   */\n      dup4\n        /* \"#utility.yul\":16301:16317   */\n      add\n        /* \"#utility.yul\":16295:16318   */\n      mload\n        /* \"#utility.yul\":16331:16394   */\n      tag_667\n        /* \"#utility.yul\":16388:16392   */\n      0xc0\n        /* \"#utility.yul\":16383:16386   */\n      dup7\n        /* \"#utility.yul\":16379:16393   */\n      add\n        /* \"#utility.yul\":16365:16377   */\n      dup3\n        /* \"#utility.yul\":16331:16394   */\n      tag_570\n      jump\t// in\n    tag_667:\n        /* \"#utility.yul\":16239:16404   */\n      pop\n        /* \"#utility.yul\":16490:16494   */\n      0xe0\n        /* \"#utility.yul\":16483:16488   */\n      dup4\n        /* \"#utility.yul\":16479:16495   */\n      add\n        /* \"#utility.yul\":16473:16496   */\n      mload\n        /* \"#utility.yul\":16509:16572   */\n      tag_668\n        /* \"#utility.yul\":16566:16570   */\n      0xe0\n        /* \"#utility.yul\":16561:16564   */\n      dup7\n        /* \"#utility.yul\":16557:16571   */\n      add\n        /* \"#utility.yul\":16543:16555   */\n      dup3\n        /* \"#utility.yul\":16509:16572   */\n      tag_661\n      jump\t// in\n    tag_668:\n        /* \"#utility.yul\":16414:16582   */\n      pop\n        /* \"#utility.yul\":16666:16672   */\n      0x0100\n        /* \"#utility.yul\":16659:16664   */\n      dup4\n        /* \"#utility.yul\":16655:16673   */\n      add\n        /* \"#utility.yul\":16649:16674   */\n      mload\n        /* \"#utility.yul\":16687:16768   */\n      tag_669\n        /* \"#utility.yul\":16760:16766   */\n      0x0100\n        /* \"#utility.yul\":16755:16758   */\n      dup7\n        /* \"#utility.yul\":16751:16767   */\n      add\n        /* \"#utility.yul\":16737:16749   */\n      dup3\n        /* \"#utility.yul\":16687:16768   */\n      tag_591\n      jump\t// in\n    tag_669:\n        /* \"#utility.yul\":16592:16778   */\n      pop\n        /* \"#utility.yul\":16795:16799   */\n      dup1\n        /* \"#utility.yul\":16788:16799   */\n      swap2\n      pop\n        /* \"#utility.yul\":15015:16805   */\n      pop\n        /* \"#utility.yul\":14891:16805   */\n      swap3\n      swap2\n      pop\n      pop\n      jump\t// out\n        /* \"#utility.yul\":16811:16919   */\n    tag_661:\n        /* \"#utility.yul\":16888:16912   */\n      tag_671\n        /* \"#utility.yul\":16906:16911   */\n      dup2\n        /* \"#utility.yul\":16888:16912   */\n      tag_672\n      jump\t// in\n    tag_671:\n        /* \"#utility.yul\":16883:16886   */\n      dup3\n        /* \"#utility.yul\":16876:16913   */\n      mstore\n        /* \"#utility.yul\":16811:16919   */\n      pop\n      pop\n      jump\t// out\n        /* \"#utility.yul\":16925:17043   */\n    tag_673:\n        /* \"#utility.yul\":17012:17036   */\n      tag_675\n        /* \"#utility.yul\":17030:17035   */\n      dup2\n        /* \"#utility.yul\":17012:17036   */\n      tag_672\n      jump\t// in\n    tag_675:\n        /* \"#utility.yul\":17007:17010   */\n      dup3\n        /* \"#utility.yul\":17000:17037   */\n      mstore\n        /* \"#utility.yul\":16925:17043   */\n      pop\n      pop\n      jump\t// out\n        /* \"#utility.yul\":17049:17271   */\n    tag_101:\n        /* \"#utility.yul\":17142:17146   */\n      0x00\n        /* \"#utility.yul\":17180:17182   */\n      0x20\n        /* \"#utility.yul\":17169:17178   */\n      dup3\n        /* \"#utility.yul\":17165:17183   */\n      add\n        /* \"#utility.yul\":17157:17183   */\n      swap1\n      pop\n        /* \"#utility.yul\":17193:17264   */\n      tag_677\n        /* \"#utility.yul\":17261:17262   */\n      0x00\n        /* \"#utility.yul\":17250:17259   */\n      dup4\n        /* \"#utility.yul\":17246:17263   */\n      add\n        /* \"#utility.yul\":17237:17243   */\n      dup5\n        /* \"#utility.yul\":17193:17264   */\n      tag_562\n      jump\t// in\n    tag_677:\n        /* \"#utility.yul\":17049:17271   */\n      swap3\n      swap2\n      pop\n      pop\n      jump\t// out\n        /* \"#utility.yul\":17277:18445   */\n    tag_65:\n        /* \"#utility.yul\":17653:17657   */\n      0x00\n        /* \"#utility.yul\":17691:17694   */\n      0x0100\n        /* \"#utility.yul\":17680:17689   */\n      dup3\n        /* \"#utility.yul\":17676:17695   */\n      add\n        /* \"#utility.yul\":17668:17695   */\n      swap1\n      pop\n        /* \"#utility.yul\":17705:17776   */\n      tag_679\n        /* \"#utility.yul\":17773:17774   */\n      0x00\n        /* \"#utility.yul\":17762:17771   */\n      dup4\n        /* \"#utility.yul\":17758:17775   */\n      add\n        /* \"#utility.yul\":17749:17755   */\n      dup11\n        /* \"#utility.yul\":17705:17776   */\n      tag_562\n      jump\t// in\n    tag_679:\n        /* \"#utility.yul\":17823:17832   */\n      dup2\n        /* \"#utility.yul\":17817:17821   */\n      dup2\n        /* \"#utility.yul\":17813:17833   */\n      sub\n        /* \"#utility.yul\":17808:17810   */\n      0x20\n        /* \"#utility.yul\":17797:17806   */\n      dup4\n        /* \"#utility.yul\":17793:17811   */\n      add\n        /* \"#utility.yul\":17786:17834   */\n      mstore\n        /* \"#utility.yul\":17851:17959   */\n      tag_680\n        /* \"#utility.yul\":17954:17958   */\n      dup2\n        /* \"#utility.yul\":17945:17951   */\n      dup10\n        /* \"#utility.yul\":17851:17959   */\n      tag_658\n      jump\t// in\n    tag_680:\n        /* \"#utility.yul\":17843:17959   */\n      swap1\n      pop\n        /* \"#utility.yul\":17969:18089   */\n      tag_681\n        /* \"#utility.yul\":18085:18087   */\n      0x40\n        /* \"#utility.yul\":18074:18083   */\n      dup4\n        /* \"#utility.yul\":18070:18088   */\n      add\n        /* \"#utility.yul\":18061:18067   */\n      dup9\n        /* \"#utility.yul\":17969:18089   */\n      tag_654\n      jump\t// in\n    tag_681:\n        /* \"#utility.yul\":18099:18172   */\n      tag_682\n        /* \"#utility.yul\":18167:18170   */\n      0x80\n        /* \"#utility.yul\":18156:18165   */\n      dup4\n        /* \"#utility.yul\":18152:18171   */\n      add\n        /* \"#utility.yul\":18143:18149   */\n      dup8\n        /* \"#utility.yul\":18099:18172   */\n      tag_673\n      jump\t// in\n    tag_682:\n        /* \"#utility.yul\":18182:18255   */\n      tag_683\n        /* \"#utility.yul\":18250:18253   */\n      0xa0\n        /* \"#utility.yul\":18239:18248   */\n      dup4\n        /* \"#utility.yul\":18235:18254   */\n      add\n        /* \"#utility.yul\":18226:18232   */\n      dup7\n        /* \"#utility.yul\":18182:18255   */\n      tag_673\n      jump\t// in\n    tag_683:\n        /* \"#utility.yul\":18265:18338   */\n      tag_684\n        /* \"#utility.yul\":18333:18336   */\n      0xc0\n        /* \"#utility.yul\":18322:18331   */\n      dup4\n        /* \"#utility.yul\":18318:18337   */\n      add\n        /* \"#utility.yul\":18309:18315   */\n      dup6\n        /* \"#utility.yul\":18265:18338   */\n      tag_673\n      jump\t// in\n    tag_684:\n        /* \"#utility.yul\":18348:18438   */\n      tag_685\n        /* \"#utility.yul\":18433:18436   */\n      0xe0\n        /* \"#utility.yul\":18422:18431   */\n      dup4\n        /* \"#utility.yul\":18418:18437   */\n      add\n        /* \"#utility.yul\":18409:18415   */\n      dup5\n        /* \"#utility.yul\":18348:18438   */\n      tag_587\n      jump\t// in\n    tag_685:\n        /* \"#utility.yul\":17277:18445   */\n      swap9\n      swap8\n      pop\n      pop\n      pop\n      pop\n      pop\n      pop\n      pop\n      pop\n      jump\t// out\n        /* \"#utility.yul\":18451:18661   */\n    tag_40:\n        /* \"#utility.yul\":18538:18542   */\n      0x00\n        /* \"#utility.yul\":18576:18578   */\n      0x20\n        /* \"#utility.yul\":18565:18574   */\n      dup3\n        /* \"#utility.yul\":18561:18579   */\n      add\n        /* \"#utility.yul\":18553:18579   */\n      swap1\n      pop\n        /* \"#utility.yul\":18589:18654   */\n      tag_687\n        /* \"#utility.yul\":18651:18652   */\n      0x00\n        /* \"#utility.yul\":18640:18649   */\n      dup4\n        /* \"#utility.yul\":18636:18653   */\n      add\n        /* \"#utility.yul\":18627:18633   */\n      dup5\n        /* \"#utility.yul\":18589:18654   */\n      tag_566\n      jump\t// in\n    tag_687:\n        /* \"#utility.yul\":18451:18661   */\n      swap3\n      swap2\n      pop\n      pop\n      jump\t// out\n        /* \"#utility.yul\":18667:18889   */\n    tag_135:\n        /* \"#utility.yul\":18760:18764   */\n      0x00\n        /* \"#utility.yul\":18798:18800   */\n      0x20\n        /* \"#utility.yul\":18787:18796   */\n      dup3\n        /* \"#utility.yul\":18783:18801   */\n      add\n        /* \"#utility.yul\":18775:18801   */\n      swap1\n      pop\n        /* \"#utility.yul\":18811:18882   */\n      tag_689\n        /* \"#utility.yul\":18879:18880   */\n      0x00\n        /* \"#utility.yul\":18868:18877   */\n      dup4\n        /* \"#utility.yul\":18864:18881   */\n      add\n        /* \"#utility.yul\":18855:18861   */\n      dup5\n        /* \"#utility.yul\":18811:18882   */\n      tag_574\n      jump\t// in\n    tag_689:\n        /* \"#utility.yul\":18667:18889   */\n      swap3\n      swap2\n      pop\n      pop\n      jump\t// out\n        /* \"#utility.yul\":18895:19314   */\n    tag_328:\n        /* \"#utility.yul\":19061:19065   */\n      0x00\n        /* \"#utility.yul\":19099:19101   */\n      0x20\n        /* \"#utility.yul\":19088:19097   */\n      dup3\n        /* \"#utility.yul\":19084:19102   */\n      add\n        /* \"#utility.yul\":19076:19102   */\n      swap1\n      pop\n        /* \"#utility.yul\":19148:19157   */\n      dup2\n        /* \"#utility.yul\":19142:19146   */\n      dup2\n        /* \"#utility.yul\":19138:19158   */\n      sub\n        /* \"#utility.yul\":19134:19135   */\n      0x00\n        /* \"#utility.yul\":19123:19132   */\n      dup4\n        /* \"#utility.yul\":19119:19136   */\n      add\n        /* \"#utility.yul\":19112:19159   */\n      mstore\n        /* \"#utility.yul\":19176:19307   */\n      tag_691\n        /* \"#utility.yul\":19302:19306   */\n      dup2\n        /* \"#utility.yul\":19176:19307   */\n      tag_605\n      jump\t// in\n    tag_691:\n        /* \"#utility.yul\":19168:19307   */\n      swap1\n      pop\n        /* \"#utility.yul\":18895:19314   */\n      swap2\n      swap1\n      pop\n      jump\t// out\n        /* \"#utility.yul\":19320:19739   */\n    tag_163:\n        /* \"#utility.yul\":19486:19490   */\n      0x00\n        /* \"#utility.yul\":19524:19526   */\n      0x20\n        /* \"#utility.yul\":19513:19522   */\n      dup3\n        /* \"#utility.yul\":19509:19527   */\n      add\n        /* \"#utility.yul\":19501:19527   */\n      swap1\n      pop\n        /* \"#utility.yul\":19573:19582   */\n      dup2\n        /* \"#utility.yul\":19567:19571   */\n      dup2\n        /* \"#utility.yul\":19563:19583   */\n      sub\n        /* \"#utility.yul\":19559:19560   */\n      0x00\n        /* \"#utility.yul\":19548:19557   */\n      dup4\n        /* \"#utility.yul\":19544:19561   */\n      add\n        /* \"#utility.yul\":19537:19584   */\n      mstore\n        /* \"#utility.yul\":19601:19732   */\n      tag_693\n        /* \"#utility.yul\":19727:19731   */\n      dup2\n        /* \"#utility.yul\":19601:19732   */\n      tag_611\n      jump\t// in\n    tag_693:\n        /* \"#utility.yul\":19593:19732   */\n      swap1\n      pop\n        /* \"#utility.yul\":19320:19739   */\n      swap2\n      swap1\n      pop\n      jump\t// out\n        /* \"#utility.yul\":19745:20164   */\n    tag_266:\n        /* \"#utility.yul\":19911:19915   */\n      0x00\n        /* \"#utility.yul\":19949:19951   */\n      0x20\n        /* \"#utility.yul\":19938:19947   */\n      dup3\n        /* \"#utility.yul\":19934:19952   */\n      add\n        /* \"#utility.yul\":19926:19952   */\n      swap1\n      pop\n        /* \"#utility.yul\":19998:20007   */\n      dup2\n        /* \"#utility.yul\":19992:19996   */\n      dup2\n        /* \"#utility.yul\":19988:20008   */\n      sub\n        /* \"#utility.yul\":19984:19985   */\n      0x00\n        /* \"#utility.yul\":19973:19982   */\n      dup4\n        /* \"#utility.yul\":19969:19986   */\n      add\n        /* \"#utility.yul\":19962:20009   */\n      mstore\n        /* \"#utility.yul\":20026:20157   */\n      tag_695\n        /* \"#utility.yul\":20152:20156   */\n      dup2\n        /* \"#utility.yul\":20026:20157   */\n      tag_616\n      jump\t// in\n    tag_695:\n        /* \"#utility.yul\":20018:20157   */\n      swap1\n      pop\n        /* \"#utility.yul\":19745:20164   */\n      swap2\n      swap1\n      pop\n      jump\t// out\n        /* \"#utility.yul\":20170:20589   */\n    tag_157:\n        /* \"#utility.yul\":20336:20340   */\n      0x00\n        /* \"#utility.yul\":20374:20376   */\n      0x20\n        /* \"#utility.yul\":20363:20372   */\n      dup3\n        /* \"#utility.yul\":20359:20377   */\n      add\n        /* \"#utility.yul\":20351:20377   */\n      swap1\n      pop\n        /* \"#utility.yul\":20423:20432   */\n      dup2\n        /* \"#utility.yul\":20417:20421   */\n      dup2\n        /* \"#utility.yul\":20413:20433   */\n      sub\n        /* \"#utility.yul\":20409:20410   */\n      0x00\n        /* \"#utility.yul\":20398:20407   */\n      dup4\n        /* \"#utility.yul\":20394:20411   */\n      add\n        /* \"#utility.yul\":20387:20434   */\n      mstore\n        /* \"#utility.yul\":20451:20582   */\n      tag_697\n        /* \"#utility.yul\":20577:20581   */\n      dup2\n        /* \"#utility.yul\":20451:20582   */\n      tag_621\n      jump\t// in\n    tag_697:\n        /* \"#utility.yul\":20443:20582   */\n      swap1\n      pop\n        /* \"#utility.yul\":20170:20589   */\n      swap2\n      swap1\n      pop\n      jump\t// out\n        /* \"#utility.yul\":20595:21014   */\n    tag_204:\n        /* \"#utility.yul\":20761:20765   */\n      0x00\n        /* \"#utility.yul\":20799:20801   */\n      0x20\n        /* \"#utility.yul\":20788:20797   */\n      dup3\n        /* \"#utility.yul\":20784:20802   */\n      add\n        /* \"#utility.yul\":20776:20802   */\n      swap1\n      pop\n        /* \"#utility.yul\":20848:20857   */\n      dup2\n        /* \"#utility.yul\":20842:20846   */\n      dup2\n        /* \"#utility.yul\":20838:20858   */\n      sub\n        /* \"#utility.yul\":20834:20835   */\n      0x00\n        /* \"#utility.yul\":20823:20832   */\n      dup4\n        /* \"#utility.yul\":20819:20836   */\n      add\n        /* \"#utility.yul\":20812:20859   */\n      mstore\n        /* \"#utility.yul\":20876:21007   */\n      tag_699\n        /* \"#utility.yul\":21002:21006   */\n      dup2\n        /* \"#utility.yul\":20876:21007   */\n      tag_626\n      jump\t// in\n    tag_699:\n        /* \"#utility.yul\":20868:21007   */\n      swap1\n      pop\n        /* \"#utility.yul\":20595:21014   */\n      swap2\n      swap1\n      pop\n      jump\t// out\n        /* \"#utility.yul\":21020:21439   */\n    tag_208:\n        /* \"#utility.yul\":21186:21190   */\n      0x00\n        /* \"#utility.yul\":21224:21226   */\n      0x20\n        /* \"#utility.yul\":21213:21222   */\n      dup3\n        /* \"#utility.yul\":21209:21227   */\n      add\n        /* \"#utility.yul\":21201:21227   */\n      swap1\n      pop\n        /* \"#utility.yul\":21273:21282   */\n      dup2\n        /* \"#utility.yul\":21267:21271   */\n      dup2\n        /* \"#utility.yul\":21263:21283   */\n      sub\n        /* \"#utility.yul\":21259:21260   */\n      0x00\n        /* \"#utility.yul\":21248:21257   */\n      dup4\n        /* \"#utility.yul\":21244:21261   */\n      add\n        /* \"#utility.yul\":21237:21284   */\n      mstore\n        /* \"#utility.yul\":21301:21432   */\n      tag_701\n        /* \"#utility.yul\":21427:21431   */\n      dup2\n        /* \"#utility.yul\":21301:21432   */\n      tag_631\n      jump\t// in\n    tag_701:\n        /* \"#utility.yul\":21293:21432   */\n      swap1\n      pop\n        /* \"#utility.yul\":21020:21439   */\n      swap2\n      swap1\n      pop\n      jump\t// out\n        /* \"#utility.yul\":21445:21864   */\n    tag_196:\n        /* \"#utility.yul\":21611:21615   */\n      0x00\n        /* \"#utility.yul\":21649:21651   */\n      0x20\n        /* \"#utility.yul\":21638:21647   */\n      dup3\n        /* \"#utility.yul\":21634:21652   */\n      add\n        /* \"#utility.yul\":21626:21652   */\n      swap1\n      pop\n        /* \"#utility.yul\":21698:21707   */\n      dup2\n        /* \"#utility.yul\":21692:21696   */\n      dup2\n        /* \"#utility.yul\":21688:21708   */\n      sub\n        /* \"#utility.yul\":21684:21685   */\n      0x00\n        /* \"#utility.yul\":21673:21682   */\n      dup4\n        /* \"#utility.yul\":21669:21686   */\n      add\n        /* \"#utility.yul\":21662:21709   */\n      mstore\n        /* \"#utility.yul\":21726:21857   */\n      tag_703\n        /* \"#utility.yul\":21852:21856   */\n      dup2\n        /* \"#utility.yul\":21726:21857   */\n      tag_636\n      jump\t// in\n    tag_703:\n        /* \"#utility.yul\":21718:21857   */\n      swap1\n      pop\n        /* \"#utility.yul\":21445:21864   */\n      swap2\n      swap1\n      pop\n      jump\t// out\n        /* \"#utility.yul\":21870:22289   */\n    tag_251:\n        /* \"#utility.yul\":22036:22040   */\n      0x00\n        /* \"#utility.yul\":22074:22076   */\n      0x20\n        /* \"#utility.yul\":22063:22072   */\n      dup3\n        /* \"#utility.yul\":22059:22077   */\n      add\n        /* \"#utility.yul\":22051:22077   */\n      swap1\n      pop\n        /* \"#utility.yul\":22123:22132   */\n      dup2\n        /* \"#utility.yul\":22117:22121   */\n      dup2\n        /* \"#utility.yul\":22113:22133   */\n      sub\n        /* \"#utility.yul\":22109:22110   */\n      0x00\n        /* \"#utility.yul\":22098:22107   */\n      dup4\n        /* \"#utility.yul\":22094:22111   */\n      add\n        /* \"#utility.yul\":22087:22134   */\n      mstore\n        /* \"#utility.yul\":22151:22282   */\n      tag_705\n        /* \"#utility.yul\":22277:22281   */\n      dup2\n        /* \"#utility.yul\":22151:22282   */\n      tag_641\n      jump\t// in\n    tag_705:\n        /* \"#utility.yul\":22143:22282   */\n      swap1\n      pop\n        /* \"#utility.yul\":21870:22289   */\n      swap2\n      swap1\n      pop\n      jump\t// out\n        /* \"#utility.yul\":22295:22517   */\n    tag_90:\n        /* \"#utility.yul\":22388:22392   */\n      0x00\n        /* \"#utility.yul\":22426:22428   */\n      0x20\n        /* \"#utility.yul\":22415:22424   */\n      dup3\n        /* \"#utility.yul\":22411:22429   */\n      add\n        /* \"#utility.yul\":22403:22429   */\n      swap1\n      pop\n        /* \"#utility.yul\":22439:22510   */\n      tag_707\n        /* \"#utility.yul\":22507:22508   */\n      0x00\n        /* \"#utility.yul\":22496:22505   */\n      dup4\n        /* \"#utility.yul\":22492:22509   */\n      add\n        /* \"#utility.yul\":22483:22489   */\n      dup5\n        /* \"#utility.yul\":22439:22510   */\n      tag_673\n      jump\t// in\n    tag_707:\n        /* \"#utility.yul\":22295:22517   */\n      swap3\n      swap2\n      pop\n      pop\n      jump\t// out\n        /* \"#utility.yul\":22523:23854   */\n    tag_71:\n        /* \"#utility.yul\":22926:22930   */\n      0x00\n        /* \"#utility.yul\":22964:22967   */\n      0x0120\n        /* \"#utility.yul\":22953:22962   */\n      dup3\n        /* \"#utility.yul\":22949:22968   */\n      add\n        /* \"#utility.yul\":22941:22968   */\n      swap1\n      pop\n        /* \"#utility.yul\":22978:23049   */\n      tag_709\n        /* \"#utility.yul\":23046:23047   */\n      0x00\n        /* \"#utility.yul\":23035:23044   */\n      dup4\n        /* \"#utility.yul\":23031:23048   */\n      add\n        /* \"#utility.yul\":23022:23028   */\n      dup13\n        /* \"#utility.yul\":22978:23049   */\n      tag_673\n      jump\t// in\n    tag_709:\n        /* \"#utility.yul\":23059:23131   */\n      tag_710\n        /* \"#utility.yul\":23127:23129   */\n      0x20\n        /* \"#utility.yul\":23116:23125   */\n      dup4\n        /* \"#utility.yul\":23112:23130   */\n      add\n        /* \"#utility.yul\":23103:23109   */\n      dup12\n        /* \"#utility.yul\":23059:23131   */\n      tag_574\n      jump\t// in\n    tag_710:\n        /* \"#utility.yul\":23141:23213   */\n      tag_711\n        /* \"#utility.yul\":23209:23211   */\n      0x40\n        /* \"#utility.yul\":23198:23207   */\n      dup4\n        /* \"#utility.yul\":23194:23212   */\n      add\n        /* \"#utility.yul\":23185:23191   */\n      dup11\n        /* \"#utility.yul\":23141:23213   */\n      tag_574\n      jump\t// in\n    tag_711:\n        /* \"#utility.yul\":23223:23309   */\n      tag_712\n        /* \"#utility.yul\":23305:23307   */\n      0x60\n        /* \"#utility.yul\":23294:23303   */\n      dup4\n        /* \"#utility.yul\":23290:23308   */\n      add\n        /* \"#utility.yul\":23281:23287   */\n      dup10\n        /* \"#utility.yul\":23223:23309   */\n      tag_602\n      jump\t// in\n    tag_712:\n        /* \"#utility.yul\":23357:23366   */\n      dup2\n        /* \"#utility.yul\":23351:23355   */\n      dup2\n        /* \"#utility.yul\":23347:23367   */\n      sub\n        /* \"#utility.yul\":23341:23344   */\n      0x80\n        /* \"#utility.yul\":23330:23339   */\n      dup4\n        /* \"#utility.yul\":23326:23345   */\n      add\n        /* \"#utility.yul\":23319:23368   */\n      mstore\n        /* \"#utility.yul\":23385:23499   */\n      tag_713\n        /* \"#utility.yul\":23494:23498   */\n      dup2\n        /* \"#utility.yul\":23485:23491   */\n      dup9\n        /* \"#utility.yul\":23385:23499   */\n      tag_650\n      jump\t// in\n    tag_713:\n        /* \"#utility.yul\":23377:23499   */\n      swap1\n      pop\n        /* \"#utility.yul\":23509:23582   */\n      tag_714\n        /* \"#utility.yul\":23577:23580   */\n      0xa0\n        /* \"#utility.yul\":23566:23575   */\n      dup4\n        /* \"#utility.yul\":23562:23581   */\n      add\n        /* \"#utility.yul\":23553:23559   */\n      dup8\n        /* \"#utility.yul\":23509:23582   */\n      tag_673\n      jump\t// in\n    tag_714:\n        /* \"#utility.yul\":23592:23665   */\n      tag_715\n        /* \"#utility.yul\":23660:23663   */\n      0xc0\n        /* \"#utility.yul\":23649:23658   */\n      dup4\n        /* \"#utility.yul\":23645:23664   */\n      add\n        /* \"#utility.yul\":23636:23642   */\n      dup7\n        /* \"#utility.yul\":23592:23665   */\n      tag_574\n      jump\t// in\n    tag_715:\n        /* \"#utility.yul\":23675:23748   */\n      tag_716\n        /* \"#utility.yul\":23743:23746   */\n      0xe0\n        /* \"#utility.yul\":23732:23741   */\n      dup4\n        /* \"#utility.yul\":23728:23747   */\n      add\n        /* \"#utility.yul\":23719:23725   */\n      dup6\n        /* \"#utility.yul\":23675:23748   */\n      tag_673\n      jump\t// in\n    tag_716:\n        /* \"#utility.yul\":23758:23847   */\n      tag_717\n        /* \"#utility.yul\":23842:23845   */\n      0x0100\n        /* \"#utility.yul\":23831:23840   */\n      dup4\n        /* \"#utility.yul\":23827:23846   */\n      add\n        /* \"#utility.yul\":23818:23824   */\n      dup5\n        /* \"#utility.yul\":23758:23847   */\n      tag_595\n      jump\t// in\n    tag_717:\n        /* \"#utility.yul\":22523:23854   */\n      swap11\n      swap10\n      pop\n      pop\n      pop\n      pop\n      pop\n      pop\n      pop\n      pop\n      pop\n      pop\n      jump\t// out\n        /* \"#utility.yul\":23860:23989   */\n    tag_461:\n        /* \"#utility.yul\":23894:23900   */\n      0x00\n        /* \"#utility.yul\":23921:23941   */\n      tag_719\n      tag_720\n      jump\t// in\n    tag_719:\n        /* \"#utility.yul\":23911:23941   */\n      swap1\n      pop\n        /* \"#utility.yul\":23950:23983   */\n      tag_721\n        /* \"#utility.yul\":23978:23982   */\n      dup3\n        /* \"#utility.yul\":23970:23976   */\n      dup3\n        /* \"#utility.yul\":23950:23983   */\n      tag_722\n      jump\t// in\n    tag_721:\n        /* \"#utility.yul\":23860:23989   */\n      swap2\n      swap1\n      pop\n      jump\t// out\n        /* \"#utility.yul\":23995:24070   */\n    tag_720:\n        /* \"#utility.yul\":24028:24034   */\n      0x00\n        /* \"#utility.yul\":24061:24063   */\n      0x40\n        /* \"#utility.yul\":24055:24064   */\n      mload\n        /* \"#utility.yul\":24045:24064   */\n      swap1\n      pop\n        /* \"#utility.yul\":23995:24070   */\n      swap1\n      jump\t// out\n        /* \"#utility.yul\":24076:24383   */\n    tag_460:\n        /* \"#utility.yul\":24137:24141   */\n      0x00\n        /* \"#utility.yul\":24227:24245   */\n      0xffffffffffffffff\n        /* \"#utility.yul\":24219:24225   */\n      dup3\n        /* \"#utility.yul\":24216:24246   */\n      gt\n        /* \"#utility.yul\":24213:24269   */\n      iszero\n      tag_725\n      jumpi\n        /* \"#utility.yul\":24249:24267   */\n      tag_726\n      tag_727\n      jump\t// in\n    tag_726:\n        /* \"#utility.yul\":24213:24269   */\n    tag_725:\n        /* \"#utility.yul\":24287:24316   */\n      tag_728\n        /* \"#utility.yul\":24309:24315   */\n      dup3\n        /* \"#utility.yul\":24287:24316   */\n      tag_586\n      jump\t// in\n    tag_728:\n        /* \"#utility.yul\":24279:24316   */\n      swap1\n      pop\n        /* \"#utility.yul\":24371:24375   */\n      0x20\n        /* \"#utility.yul\":24365:24369   */\n      dup2\n        /* \"#utility.yul\":24361:24376   */\n      add\n        /* \"#utility.yul\":24353:24376   */\n      swap1\n      pop\n        /* \"#utility.yul\":24076:24383   */\n      swap2\n      swap1\n      pop\n      jump\t// out\n        /* \"#utility.yul\":24389:24487   */\n    tag_580:\n        /* \"#utility.yul\":24440:24446   */\n      0x00\n        /* \"#utility.yul\":24474:24479   */\n      dup2\n        /* \"#utility.yul\":24468:24480   */\n      mload\n        /* \"#utility.yul\":24458:24480   */\n      swap1\n      pop\n        /* \"#utility.yul\":24389:24487   */\n      swap2\n      swap1\n      pop\n      jump\t// out\n        /* \"#utility.yul\":24493:24651   */\n    tag_582:\n        /* \"#utility.yul\":24566:24577   */\n      0x00\n        /* \"#utility.yul\":24600:24606   */\n      dup3\n        /* \"#utility.yul\":24595:24598   */\n      dup3\n        /* \"#utility.yul\":24588:24607   */\n      mstore\n        /* \"#utility.yul\":24640:24644   */\n      0x20\n        /* \"#utility.yul\":24635:24638   */\n      dup3\n        /* \"#utility.yul\":24631:24645   */\n      add\n        /* \"#utility.yul\":24616:24645   */\n      swap1\n      pop\n        /* \"#utility.yul\":24493:24651   */\n      swap3\n      swap2\n      pop\n      pop\n      jump\t// out\n        /* \"#utility.yul\":24657:24826   */\n    tag_608:\n        /* \"#utility.yul\":24741:24752   */\n      0x00\n        /* \"#utility.yul\":24775:24781   */\n      dup3\n        /* \"#utility.yul\":24770:24773   */\n      dup3\n        /* \"#utility.yul\":24763:24782   */\n      mstore\n        /* \"#utility.yul\":24815:24819   */\n      0x20\n        /* \"#utility.yul\":24810:24813   */\n      dup3\n        /* \"#utility.yul\":24806:24820   */\n      add\n        /* \"#utility.yul\":24791:24820   */\n      swap1\n      pop\n        /* \"#utility.yul\":24657:24826   */\n      swap3\n      swap2\n      pop\n      pop\n      jump\t// out\n        /* \"#utility.yul\":24832:25137   */\n    tag_160:\n        /* \"#utility.yul\":24872:24875   */\n      0x00\n        /* \"#utility.yul\":24891:24911   */\n      tag_733\n        /* \"#utility.yul\":24909:24910   */\n      dup3\n        /* \"#utility.yul\":24891:24911   */\n      tag_672\n      jump\t// in\n    tag_733:\n        /* \"#utility.yul\":24886:24911   */\n      swap2\n      pop\n        /* \"#utility.yul\":24925:24945   */\n      tag_734\n        /* \"#utility.yul\":24943:24944   */\n      dup4\n        /* \"#utility.yul\":24925:24945   */\n      tag_672\n      jump\t// in\n    tag_734:\n        /* \"#utility.yul\":24920:24945   */\n      swap3\n      pop\n        /* \"#utility.yul\":25079:25080   */\n      dup3\n        /* \"#utility.yul\":25011:25077   */\n      0xffffffffffffffffffffffffffffffffffffffffffffffffffffffffffffffff\n        /* \"#utility.yul\":25007:25081   */\n      sub\n        /* \"#utility.yul\":25004:25005   */\n      dup3\n        /* \"#utility.yul\":25001:25082   */\n      gt\n        /* \"#utility.yul\":24998:25105   */\n      iszero\n      tag_735\n      jumpi\n        /* \"#utility.yul\":25085:25103   */\n      tag_736\n      tag_737\n      jump\t// in\n    tag_736:\n        /* \"#utility.yul\":24998:25105   */\n    tag_735:\n        /* \"#utility.yul\":25129:25130   */\n      dup3\n        /* \"#utility.yul\":25126:25127   */\n      dup3\n        /* \"#utility.yul\":25122:25131   */\n      add\n        /* \"#utility.yul\":25115:25131   */\n      swap1\n      pop\n        /* \"#utility.yul\":24832:25137   */\n      swap3\n      swap2\n      pop\n      pop\n      jump\t// out\n        /* \"#utility.yul\":25143:25491   */\n    tag_332:\n        /* \"#utility.yul\":25183:25190   */\n      0x00\n        /* \"#utility.yul\":25206:25226   */\n      tag_739\n        /* \"#utility.yul\":25224:25225   */\n      dup3\n        /* \"#utility.yul\":25206:25226   */\n      tag_672\n      jump\t// in\n    tag_739:\n        /* \"#utility.yul\":25201:25226   */\n      swap2\n      pop\n        /* \"#utility.yul\":25240:25260   */\n      tag_740\n        /* \"#utility.yul\":25258:25259   */\n      dup4\n        /* \"#utility.yul\":25240:25260   */\n      tag_672\n      jump\t// in\n    tag_740:\n        /* \"#utility.yul\":25235:25260   */\n      swap3\n      pop\n        /* \"#utility.yul\":25428:25429   */\n      dup2\n        /* \"#utility.yul\":25360:25426   */\n      0xffffffffffffffffffffffffffffffffffffffffffffffffffffffffffffffff\n        /* \"#utility.yul\":25356:25430   */\n      div\n        /* \"#utility.yul\":25353:25354   */\n      dup4\n        /* \"#utility.yul\":25350:25431   */\n      gt\n        /* \"#utility.yul\":25345:25346   */\n      dup3\n        /* \"#utility.yul\":25338:25347   */\n      iszero\n        /* \"#utility.yul\":25331:25348   */\n      iszero\n        /* \"#utility.yul\":25327:25432   */\n      and\n        /* \"#utility.yul\":25324:25455   */\n      iszero\n      tag_741\n      jumpi\n        /* \"#utility.yul\":25435:25453   */\n      tag_742\n      tag_737\n      jump\t// in\n    tag_742:\n        /* \"#utility.yul\":25324:25455   */\n    tag_741:\n        /* \"#utility.yul\":25483:25484   */\n      dup3\n        /* \"#utility.yul\":25480:25481   */\n      dup3\n        /* \"#utility.yul\":25476:25485   */\n      mul\n        /* \"#utility.yul\":25465:25485   */\n      swap1\n      pop\n        /* \"#utility.yul\":25143:25491   */\n      swap3\n      swap2\n      pop\n      pop\n      jump\t// out\n        /* \"#utility.yul\":25497:25688   */\n    tag_426:\n        /* \"#utility.yul\":25537:25541   */\n      0x00\n        /* \"#utility.yul\":25557:25577   */\n      tag_744\n        /* \"#utility.yul\":25575:25576   */\n      dup3\n        /* \"#utility.yul\":25557:25577   */\n      tag_672\n      jump\t// in\n    tag_744:\n        /* \"#utility.yul\":25552:25577   */\n      swap2\n      pop\n        /* \"#utility.yul\":25591:25611   */\n      tag_745\n        /* \"#utility.yul\":25609:25610   */\n      dup4\n        /* \"#utility.yul\":25591:25611   */\n      tag_672\n      jump\t// in\n    tag_745:\n        /* \"#utility.yul\":25586:25611   */\n      swap3\n      pop\n        /* \"#utility.yul\":25630:25631   */\n      dup3\n        /* \"#utility.yul\":25627:25628   */\n      dup3\n        /* \"#utility.yul\":25624:25632   */\n      lt\n        /* \"#utility.yul\":25621:25655   */\n      iszero\n      tag_746\n      jumpi\n        /* \"#utility.yul\":25635:25653   */\n      tag_747\n      tag_737\n      jump\t// in\n    tag_747:\n        /* \"#utility.yul\":25621:25655   */\n    tag_746:\n        /* \"#utility.yul\":25680:25681   */\n      dup3\n        /* \"#utility.yul\":25677:25678   */\n      dup3\n        /* \"#utility.yul\":25673:25682   */\n      sub\n        /* \"#utility.yul\":25665:25682   */\n      swap1\n      pop\n        /* \"#utility.yul\":25497:25688   */\n      swap3\n      swap2\n      pop\n      pop\n      jump\t// out\n        /* \"#utility.yul\":25694:25790   */\n    tag_565:\n        /* \"#utility.yul\":25731:25738   */\n      0x00\n        /* \"#utility.yul\":25760:25784   */\n      tag_749\n        /* \"#utility.yul\":25778:25783   */\n      dup3\n        /* \"#utility.yul\":25760:25784   */\n      tag_750\n      jump\t// in\n    tag_749:\n        /* \"#utility.yul\":25749:25784   */\n      swap1\n      pop\n        /* \"#utility.yul\":25694:25790   */\n      swap2\n      swap1\n      pop\n      jump\t// out\n        /* \"#utility.yul\":25796:25886   */\n    tag_569:\n        /* \"#utility.yul\":25830:25837   */\n      0x00\n        /* \"#utility.yul\":25873:25878   */\n      dup2\n        /* \"#utility.yul\":25866:25879   */\n      iszero\n        /* \"#utility.yul\":25859:25880   */\n      iszero\n        /* \"#utility.yul\":25848:25880   */\n      swap1\n      pop\n        /* \"#utility.yul\":25796:25886   */\n      swap2\n      swap1\n      pop\n      jump\t// out\n        /* \"#utility.yul\":25892:25969   */\n    tag_573:\n        /* \"#utility.yul\":25929:25936   */\n      0x00\n        /* \"#utility.yul\":25958:25963   */\n      dup2\n        /* \"#utility.yul\":25947:25963   */\n      swap1\n      pop\n        /* \"#utility.yul\":25892:25969   */\n      swap2\n      swap1\n      pop\n      jump\t// out\n        /* \"#utility.yul\":25975:26124   */\n    tag_753:\n        /* \"#utility.yul\":26031:26038   */\n      0x00\n        /* \"#utility.yul\":26060:26065   */\n      dup2\n        /* \"#utility.yul\":26049:26065   */\n      swap1\n      pop\n        /* \"#utility.yul\":26066:26118   */\n      tag_755\n        /* \"#utility.yul\":26112:26117   */\n      dup3\n        /* \"#utility.yul\":26066:26118   */\n      tag_756\n      jump\t// in\n    tag_755:\n        /* \"#utility.yul\":25975:26124   */\n      swap2\n      swap1\n      pop\n      jump\t// out\n        /* \"#utility.yul\":26130:26277   */\n    tag_757:\n        /* \"#utility.yul\":26185:26192   */\n      0x00\n        /* \"#utility.yul\":26214:26219   */\n      dup2\n        /* \"#utility.yul\":26203:26219   */\n      swap1\n      pop\n        /* \"#utility.yul\":26220:26271   */\n      tag_759\n        /* \"#utility.yul\":26265:26270   */\n      dup3\n        /* \"#utility.yul\":26220:26271   */\n      tag_760\n      jump\t// in\n    tag_759:\n        /* \"#utility.yul\":26130:26277   */\n      swap2\n      swap1\n      pop\n      jump\t// out\n        /* \"#utility.yul\":26283:26426   */\n    tag_761:\n        /* \"#utility.yul\":26336:26343   */\n      0x00\n        /* \"#utility.yul\":26365:26370   */\n      dup2\n        /* \"#utility.yul\":26354:26370   */\n      swap1\n      pop\n        /* \"#utility.yul\":26371:26420   */\n      tag_763\n        /* \"#utility.yul\":26414:26419   */\n      dup3\n        /* \"#utility.yul\":26371:26420   */\n      tag_764\n      jump\t// in\n    tag_763:\n        /* \"#utility.yul\":26283:26426   */\n      swap2\n      swap1\n      pop\n      jump\t// out\n        /* \"#utility.yul\":26432:26558   */\n    tag_750:\n        /* \"#utility.yul\":26469:26476   */\n      0x00\n        /* \"#utility.yul\":26509:26551   */\n      0xffffffffffffffffffffffffffffffffffffffff\n        /* \"#utility.yul\":26502:26507   */\n      dup3\n        /* \"#utility.yul\":26498:26552   */\n      and\n        /* \"#utility.yul\":26487:26552   */\n      swap1\n      pop\n        /* \"#utility.yul\":26432:26558   */\n      swap2\n      swap1\n      pop\n      jump\t// out\n        /* \"#utility.yul\":26564:26641   */\n    tag_672:\n        /* \"#utility.yul\":26601:26608   */\n      0x00\n        /* \"#utility.yul\":26630:26635   */\n      dup2\n        /* \"#utility.yul\":26619:26635   */\n      swap1\n      pop\n        /* \"#utility.yul\":26564:26641   */\n      swap2\n      swap1\n      pop\n      jump\t// out\n        /* \"#utility.yul\":26647:26796   */\n    tag_590:\n        /* \"#utility.yul\":26714:26723   */\n      0x00\n        /* \"#utility.yul\":26747:26790   */\n      tag_768\n        /* \"#utility.yul\":26784:26789   */\n      dup3\n        /* \"#utility.yul\":26747:26790   */\n      tag_753\n      jump\t// in\n    tag_768:\n        /* \"#utility.yul\":26734:26790   */\n      swap1\n      pop\n        /* \"#utility.yul\":26647:26796   */\n      swap2\n      swap1\n      pop\n      jump\t// out\n        /* \"#utility.yul\":26802:26949   */\n    tag_594:\n        /* \"#utility.yul\":26868:26877   */\n      0x00\n        /* \"#utility.yul\":26901:26943   */\n      tag_770\n        /* \"#utility.yul\":26937:26942   */\n      dup3\n        /* \"#utility.yul\":26901:26943   */\n      tag_757\n      jump\t// in\n    tag_770:\n        /* \"#utility.yul\":26888:26943   */\n      swap1\n      pop\n        /* \"#utility.yul\":26802:26949   */\n      swap2\n      swap1\n      pop\n      jump\t// out\n        /* \"#utility.yul\":26955:27098   */\n    tag_601:\n        /* \"#utility.yul\":27019:27028   */\n      0x00\n        /* \"#utility.yul\":27052:27092   */\n      tag_772\n        /* \"#utility.yul\":27086:27091   */\n      dup3\n        /* \"#utility.yul\":27052:27092   */\n      tag_761\n      jump\t// in\n    tag_772:\n        /* \"#utility.yul\":27039:27092   */\n      swap1\n      pop\n        /* \"#utility.yul\":26955:27098   */\n      swap2\n      swap1\n      pop\n      jump\t// out\n        /* \"#utility.yul\":27104:27258   */\n    tag_466:\n        /* \"#utility.yul\":27188:27194   */\n      dup3\n        /* \"#utility.yul\":27183:27186   */\n      dup2\n        /* \"#utility.yul\":27178:27181   */\n      dup4\n        /* \"#utility.yul\":27165:27195   */\n      calldatacopy\n        /* \"#utility.yul\":27250:27251   */\n      0x00\n        /* \"#utility.yul\":27241:27247   */\n      dup4\n        /* \"#utility.yul\":27236:27239   */\n      dup4\n        /* \"#utility.yul\":27232:27248   */\n      add\n        /* \"#utility.yul\":27225:27252   */\n      mstore\n        /* \"#utility.yul\":27104:27258   */\n      pop\n      pop\n      pop\n      jump\t// out\n        /* \"#utility.yul\":27264:27571   */\n    tag_584:\n        /* \"#utility.yul\":27332:27333   */\n      0x00\n        /* \"#utility.yul\":27342:27455   */\n    tag_775:\n        /* \"#utility.yul\":27356:27362   */\n      dup4\n        /* \"#utility.yul\":27353:27354   */\n      dup2\n        /* \"#utility.yul\":27350:27363   */\n      lt\n        /* \"#utility.yul\":27342:27455   */\n      iszero\n      tag_777\n      jumpi\n        /* \"#utility.yul\":27441:27442   */\n      dup1\n        /* \"#utility.yul\":27436:27439   */\n      dup3\n        /* \"#utility.yul\":27432:27443   */\n      add\n        /* \"#utility.yul\":27426:27444   */\n      mload\n        /* \"#utility.yul\":27422:27423   */\n      dup2\n        /* \"#utility.yul\":27417:27420   */\n      dup5\n        /* \"#utility.yul\":27413:27424   */\n      add\n        /* \"#utility.yul\":27406:27445   */\n      mstore\n        /* \"#utility.yul\":27378:27380   */\n      0x20\n        /* \"#utility.yul\":27375:27376   */\n      dup2\n        /* \"#utility.yul\":27371:27381   */\n      add\n        /* \"#utility.yul\":27366:27381   */\n      swap1\n      pop\n        /* \"#utility.yul\":27342:27455   */\n      jump(tag_775)\n    tag_777:\n        /* \"#utility.yul\":27473:27479   */\n      dup4\n        /* \"#utility.yul\":27470:27471   */\n      dup2\n        /* \"#utility.yul\":27467:27480   */\n      gt\n        /* \"#utility.yul\":27464:27565   */\n      iszero\n      tag_778\n      jumpi\n        /* \"#utility.yul\":27553:27554   */\n      0x00\n        /* \"#utility.yul\":27544:27550   */\n      dup5\n        /* \"#utility.yul\":27539:27542   */\n      dup5\n        /* \"#utility.yul\":27535:27551   */\n      add\n        /* \"#utility.yul\":27528:27555   */\n      mstore\n        /* \"#utility.yul\":27464:27565   */\n    tag_778:\n        /* \"#utility.yul\":27313:27571   */\n      pop\n        /* \"#utility.yul\":27264:27571   */\n      pop\n      pop\n      pop\n      jump\t// out\n        /* \"#utility.yul\":27577:27897   */\n    tag_217:\n        /* \"#utility.yul\":27621:27627   */\n      0x00\n        /* \"#utility.yul\":27658:27659   */\n      0x02\n        /* \"#utility.yul\":27652:27656   */\n      dup3\n        /* \"#utility.yul\":27648:27660   */\n      div\n        /* \"#utility.yul\":27638:27660   */\n      swap1\n      pop\n        /* \"#utility.yul\":27705:27706   */\n      0x01\n        /* \"#utility.yul\":27699:27703   */\n      dup3\n        /* \"#utility.yul\":27695:27707   */\n      and\n        /* \"#utility.yul\":27726:27744   */\n      dup1\n        /* \"#utility.yul\":27716:27797   */\n      tag_780\n      jumpi\n        /* \"#utility.yul\":27782:27786   */\n      0x7f\n        /* \"#utility.yul\":27774:27780   */\n      dup3\n        /* \"#utility.yul\":27770:27787   */\n      and\n        /* \"#utility.yul\":27760:27787   */\n      swap2\n      pop\n        /* \"#utility.yul\":27716:27797   */\n    tag_780:\n        /* \"#utility.yul\":27844:27846   */\n      0x20\n        /* \"#utility.yul\":27836:27842   */\n      dup3\n        /* \"#utility.yul\":27833:27847   */\n      lt\n        /* \"#utility.yul\":27813:27831   */\n      dup2\n        /* \"#utility.yul\":27810:27848   */\n      eq\n        /* \"#utility.yul\":27807:27891   */\n      iszero\n      tag_781\n      jumpi\n        /* \"#utility.yul\":27863:27881   */\n      tag_782\n      tag_783\n      jump\t// in\n    tag_782:\n        /* \"#utility.yul\":27807:27891   */\n    tag_781:\n        /* \"#utility.yul\":27628:27897   */\n      pop\n        /* \"#utility.yul\":27577:27897   */\n      swap2\n      swap1\n      pop\n      jump\t// out\n        /* \"#utility.yul\":27903:28184   */\n    tag_722:\n        /* \"#utility.yul\":27986:28013   */\n      tag_785\n        /* \"#utility.yul\":28008:28012   */\n      dup3\n        /* \"#utility.yul\":27986:28013   */\n      tag_586\n      jump\t// in\n    tag_785:\n        /* \"#utility.yul\":27978:27984   */\n      dup2\n        /* \"#utility.yul\":27974:28014   */\n      add\n        /* \"#utility.yul\":28116:28122   */\n      dup2\n        /* \"#utility.yul\":28104:28114   */\n      dup2\n        /* \"#utility.yul\":28101:28123   */\n      lt\n        /* \"#utility.yul\":28080:28098   */\n      0xffffffffffffffff\n        /* \"#utility.yul\":28068:28078   */\n      dup3\n        /* \"#utility.yul\":28065:28099   */\n      gt\n        /* \"#utility.yul\":28062:28124   */\n      or\n        /* \"#utility.yul\":28059:28147   */\n      iszero\n      tag_786\n      jumpi\n        /* \"#utility.yul\":28127:28145   */\n      tag_787\n      tag_727\n      jump\t// in\n    tag_787:\n        /* \"#utility.yul\":28059:28147   */\n    tag_786:\n        /* \"#utility.yul\":28167:28177   */\n      dup1\n        /* \"#utility.yul\":28163:28165   */\n      0x40\n        /* \"#utility.yul\":28156:28178   */\n      mstore\n        /* \"#utility.yul\":27946:28184   */\n      pop\n        /* \"#utility.yul\":27903:28184   */\n      pop\n      pop\n      jump\t// out\n        /* \"#utility.yul\":28190:28423   */\n    tag_166:\n        /* \"#utility.yul\":28229:28232   */\n      0x00\n        /* \"#utility.yul\":28252:28276   */\n      tag_789\n        /* \"#utility.yul\":28270:28275   */\n      dup3\n        /* \"#utility.yul\":28252:28276   */\n      tag_672\n      jump\t// in\n    tag_789:\n        /* \"#utility.yul\":28243:28276   */\n      swap2\n      pop\n        /* \"#utility.yul\":28298:28364   */\n      0xffffffffffffffffffffffffffffffffffffffffffffffffffffffffffffffff\n        /* \"#utility.yul\":28291:28296   */\n      dup3\n        /* \"#utility.yul\":28288:28365   */\n      eq\n        /* \"#utility.yul\":28285:28388   */\n      iszero\n      tag_790\n      jumpi\n        /* \"#utility.yul\":28368:28386   */\n      tag_791\n      tag_737\n      jump\t// in\n    tag_791:\n        /* \"#utility.yul\":28285:28388   */\n    tag_790:\n        /* \"#utility.yul\":28415:28416   */\n      0x01\n        /* \"#utility.yul\":28408:28413   */\n      dup3\n        /* \"#utility.yul\":28404:28417   */\n      add\n        /* \"#utility.yul\":28397:28417   */\n      swap1\n      pop\n        /* \"#utility.yul\":28190:28423   */\n      swap2\n      swap1\n      pop\n      jump\t// out\n        /* \"#utility.yul\":28429:28609   */\n    tag_737:\n        /* \"#utility.yul\":28477:28554   */\n      0x4e487b7100000000000000000000000000000000000000000000000000000000\n        /* \"#utility.yul\":28474:28475   */\n      0x00\n        /* \"#utility.yul\":28467:28555   */\n      mstore\n        /* \"#utility.yul\":28574:28578   */\n      0x11\n        /* \"#utility.yul\":28571:28572   */\n      0x04\n        /* \"#utility.yul\":28564:28579   */\n      mstore\n        /* \"#utility.yul\":28598:28602   */\n      0x24\n        /* \"#utility.yul\":28595:28596   */\n      0x00\n        /* \"#utility.yul\":28588:28603   */\n      revert\n        /* \"#utility.yul\":28615:28795   */\n    tag_169:\n        /* \"#utility.yul\":28663:28740   */\n      0x4e487b7100000000000000000000000000000000000000000000000000000000\n        /* \"#utility.yul\":28660:28661   */\n      0x00\n        /* \"#utility.yul\":28653:28741   */\n      mstore\n        /* \"#utility.yul\":28760:28764   */\n      0x21\n        /* \"#utility.yul\":28757:28758   */\n      0x04\n        /* \"#utility.yul\":28750:28765   */\n      mstore\n        /* \"#utility.yul\":28784:28788   */\n      0x24\n        /* \"#utility.yul\":28781:28782   */\n      0x00\n        /* \"#utility.yul\":28774:28789   */\n      revert\n        /* \"#utility.yul\":28801:28981   */\n    tag_783:\n        /* \"#utility.yul\":28849:28926   */\n      0x4e487b7100000000000000000000000000000000000000000000000000000000\n        /* \"#utility.yul\":28846:28847   */\n      0x00\n        /* \"#utility.yul\":28839:28927   */\n      mstore\n        /* \"#utility.yul\":28946:28950   */\n      0x22\n        /* \"#utility.yul\":28943:28944   */\n      0x04\n        /* \"#utility.yul\":28936:28951   */\n      mstore\n        /* \"#utility.yul\":28970:28974   */\n      0x24\n        /* \"#utility.yul\":28967:28968   */\n      0x00\n        /* \"#utility.yul\":28960:28975   */\n      revert\n        /* \"#utility.yul\":28987:29167   */\n    tag_437:\n        /* \"#utility.yul\":29035:29112   */\n      0x4e487b7100000000000000000000000000000000000000000000000000000000\n        /* \"#utility.yul\":29032:29033   */\n      0x00\n        /* \"#utility.yul\":29025:29113   */\n      mstore\n        /* \"#utility.yul\":29132:29136   */\n      0x31\n        /* \"#utility.yul\":29129:29130   */\n      0x04\n        /* \"#utility.yul\":29122:29137   */\n      mstore\n        /* \"#utility.yul\":29156:29160   */\n      0x24\n        /* \"#utility.yul\":29153:29154   */\n      0x00\n        /* \"#utility.yul\":29146:29161   */\n      revert\n        /* \"#utility.yul\":29173:29353   */\n    tag_419:\n        /* \"#utility.yul\":29221:29298   */\n      0x4e487b7100000000000000000000000000000000000000000000000000000000\n        /* \"#utility.yul\":29218:29219   */\n      0x00\n        /* \"#utility.yul\":29211:29299   */\n      mstore\n        /* \"#utility.yul\":29318:29322   */\n      0x32\n        /* \"#utility.yul\":29315:29316   */\n      0x04\n        /* \"#utility.yul\":29308:29323   */\n      mstore\n        /* \"#utility.yul\":29342:29346   */\n      0x24\n        /* \"#utility.yul\":29339:29340   */\n      0x00\n        /* \"#utility.yul\":29332:29347   */\n      revert\n        /* \"#utility.yul\":29359:29539   */\n    tag_727:\n        /* \"#utility.yul\":29407:29484   */\n      0x4e487b7100000000000000000000000000000000000000000000000000000000\n        /* \"#utility.yul\":29404:29405   */\n      0x00\n        /* \"#utility.yul\":29397:29485   */\n      mstore\n        /* \"#utility.yul\":29504:29508   */\n      0x41\n        /* \"#utility.yul\":29501:29502   */\n      0x04\n        /* \"#utility.yul\":29494:29509   */\n      mstore\n        /* \"#utility.yul\":29528:29532   */\n      0x24\n        /* \"#utility.yul\":29525:29526   */\n      0x00\n        /* \"#utility.yul\":29518:29533   */\n      revert\n        /* \"#utility.yul\":29545:29662   */\n    tag_479:\n        /* \"#utility.yul\":29654:29655   */\n      0x00\n        /* \"#utility.yul\":29651:29652   */\n      dup1\n        /* \"#utility.yul\":29644:29656   */\n      revert\n        /* \"#utility.yul\":29668:29785   */\n    tag_489:\n        /* \"#utility.yul\":29777:29778   */\n      0x00\n        /* \"#utility.yul\":29774:29775   */\n      dup1\n        /* \"#utility.yul\":29767:29779   */\n      revert\n        /* \"#utility.yul\":29791:29908   */\n    tag_493:\n        /* \"#utility.yul\":29900:29901   */\n      0x00\n        /* \"#utility.yul\":29897:29898   */\n      dup1\n        /* \"#utility.yul\":29890:29902   */\n      revert\n        /* \"#utility.yul\":29914:30031   */\n    tag_464:\n        /* \"#utility.yul\":30023:30024   */\n      0x00\n        /* \"#utility.yul\":30020:30021   */\n      dup1\n        /* \"#utility.yul\":30013:30025   */\n      revert\n        /* \"#utility.yul\":30037:30154   */\n    tag_531:\n        /* \"#utility.yul\":30146:30147   */\n      0x00\n        /* \"#utility.yul\":30143:30144   */\n      dup1\n        /* \"#utility.yul\":30136:30148   */\n      revert\n        /* \"#utility.yul\":30160:30277   */\n    tag_512:\n        /* \"#utility.yul\":30269:30270   */\n      0x00\n        /* \"#utility.yul\":30266:30267   */\n      dup1\n        /* \"#utility.yul\":30259:30271   */\n      revert\n        /* \"#utility.yul\":30283:30385   */\n    tag_586:\n        /* \"#utility.yul\":30324:30330   */\n      0x00\n        /* \"#utility.yul\":30375:30377   */\n      0x1f\n        /* \"#utility.yul\":30371:30378   */\n      not\n        /* \"#utility.yul\":30366:30368   */\n      0x1f\n        /* \"#utility.yul\":30359:30364   */\n      dup4\n        /* \"#utility.yul\":30355:30369   */\n      add\n        /* \"#utility.yul\":30351:30379   */\n      and\n        /* \"#utility.yul\":30341:30379   */\n      swap1\n      pop\n        /* \"#utility.yul\":30283:30385   */\n      swap2\n      swap1\n      pop\n      jump\t// out\n        /* \"#utility.yul\":30391:30624   */\n    tag_610:\n        /* \"#utility.yul\":30531:30565   */\n      0x54686520666f6c6c6f77696e6720636f6e74726163742068617320616c726561\n        /* \"#utility.yul\":30527:30528   */\n      0x00\n        /* \"#utility.yul\":30519:30525   */\n      dup3\n        /* \"#utility.yul\":30515:30529   */\n      add\n        /* \"#utility.yul\":30508:30566   */\n      mstore\n        /* \"#utility.yul\":30600:30616   */\n      0x6479206265656e2061646465642e000000000000000000000000000000000000\n        /* \"#utility.yul\":30595:30597   */\n      0x20\n        /* \"#utility.yul\":30587:30593   */\n      dup3\n        /* \"#utility.yul\":30583:30598   */\n      add\n        /* \"#utility.yul\":30576:30617   */\n      mstore\n        /* \"#utility.yul\":30391:30624   */\n      pop\n      jump\t// out\n        /* \"#utility.yul\":30630:30862   */\n    tag_615:\n        /* \"#utility.yul\":30770:30804   */\n      0x54686520666f6c6c6f77696e672076656869636c652068617320616c72656164\n        /* \"#utility.yul\":30766:30767   */\n      0x00\n        /* \"#utility.yul\":30758:30764   */\n      dup3\n        /* \"#utility.yul\":30754:30768   */\n      add\n        /* \"#utility.yul\":30747:30805   */\n      mstore\n        /* \"#utility.yul\":30839:30854   */\n      0x79206265656e2061646465642e00000000000000000000000000000000000000\n        /* \"#utility.yul\":30834:30836   */\n      0x20\n        /* \"#utility.yul\":30826:30832   */\n      dup3\n        /* \"#utility.yul\":30822:30837   */\n      add\n        /* \"#utility.yul\":30815:30855   */\n      mstore\n        /* \"#utility.yul\":30630:30862   */\n      pop\n      jump\t// out\n        /* \"#utility.yul\":30868:31119   */\n    tag_620:\n        /* \"#utility.yul\":31008:31042   */\n      0x436f756c64206e6f742070726f63656564206265636175736520746865726520\n        /* \"#utility.yul\":31004:31005   */\n      0x00\n        /* \"#utility.yul\":30996:31002   */\n      dup3\n        /* \"#utility.yul\":30992:31006   */\n      add\n        /* \"#utility.yul\":30985:31043   */\n      mstore\n        /* \"#utility.yul\":31077:31111   */\n      0x6973206e6f7420656e6f7567682045544820696e20796f75722077616c6c6574\n        /* \"#utility.yul\":31072:31074   */\n      0x20\n        /* \"#utility.yul\":31064:31070   */\n      dup3\n        /* \"#utility.yul\":31060:31075   */\n      add\n        /* \"#utility.yul\":31053:31112   */\n      mstore\n        /* \"#utility.yul\":30868:31119   */\n      pop\n      jump\t// out\n        /* \"#utility.yul\":31125:31296   */\n    tag_625:\n        /* \"#utility.yul\":31265:31288   */\n      0x5265737472696374656420746f206f776e6572732e0000000000000000000000\n        /* \"#utility.yul\":31261:31262   */\n      0x00\n        /* \"#utility.yul\":31253:31259   */\n      dup3\n        /* \"#utility.yul\":31249:31263   */\n      add\n        /* \"#utility.yul\":31242:31289   */\n      mstore\n        /* \"#utility.yul\":31125:31296   */\n      pop\n      jump\t// out\n        /* \"#utility.yul\":31302:31537   */\n    tag_630:\n        /* \"#utility.yul\":31442:31476   */\n      0x5468652073656c65637465642076656869636c652069732063757272656e746c\n        /* \"#utility.yul\":31438:31439   */\n      0x00\n        /* \"#utility.yul\":31430:31436   */\n      dup3\n        /* \"#utility.yul\":31426:31440   */\n      add\n        /* \"#utility.yul\":31419:31477   */\n      mstore\n        /* \"#utility.yul\":31511:31529   */\n      0x79206e6f7420617661696c61626c652e00000000000000000000000000000000\n        /* \"#utility.yul\":31506:31508   */\n      0x20\n        /* \"#utility.yul\":31498:31504   */\n      dup3\n        /* \"#utility.yul\":31494:31509   */\n      add\n        /* \"#utility.yul\":31487:31530   */\n      mstore\n        /* \"#utility.yul\":31302:31537   */\n      pop\n      jump\t// out\n        /* \"#utility.yul\":31543:31792   */\n    tag_635:\n        /* \"#utility.yul\":31683:31717   */\n      0x54686520666f6c6c6f77696e6720636f6e747261637420636f756c64206e6f74\n        /* \"#utility.yul\":31679:31680   */\n      0x00\n        /* \"#utility.yul\":31671:31677   */\n      dup3\n        /* \"#utility.yul\":31667:31681   */\n      add\n        /* \"#utility.yul\":31660:31718   */\n      mstore\n        /* \"#utility.yul\":31752:31784   */\n      0x20626520666f756e6420696e20746865206d617070696e67206c6973742e0000\n        /* \"#utility.yul\":31747:31749   */\n      0x20\n        /* \"#utility.yul\":31739:31745   */\n      dup3\n        /* \"#utility.yul\":31735:31750   */\n      add\n        /* \"#utility.yul\":31728:31785   */\n      mstore\n        /* \"#utility.yul\":31543:31792   */\n      pop\n      jump\t// out\n        /* \"#utility.yul\":31798:31970   */\n    tag_640:\n        /* \"#utility.yul\":31938:31962   */\n      0x5265737472696374656420746f2072656e746572732e00000000000000000000\n        /* \"#utility.yul\":31934:31935   */\n      0x00\n        /* \"#utility.yul\":31926:31932   */\n      dup3\n        /* \"#utility.yul\":31922:31936   */\n      add\n        /* \"#utility.yul\":31915:31963   */\n      mstore\n        /* \"#utility.yul\":31798:31970   */\n      pop\n      jump\t// out\n        /* \"#utility.yul\":31976:32224   */\n    tag_645:\n        /* \"#utility.yul\":32116:32150   */\n      0x54686520666f6c6c6f77696e672076656869636c6520636f756c64206e6f7420\n        /* \"#utility.yul\":32112:32113   */\n      0x00\n        /* \"#utility.yul\":32104:32110   */\n      dup3\n        /* \"#utility.yul\":32100:32114   */\n      add\n        /* \"#utility.yul\":32093:32151   */\n      mstore\n        /* \"#utility.yul\":32185:32216   */\n      0x626520666f756e6420696e20746865206d617070696e67206c6973742e000000\n        /* \"#utility.yul\":32180:32182   */\n      0x20\n        /* \"#utility.yul\":32172:32178   */\n      dup3\n        /* \"#utility.yul\":32168:32183   */\n      add\n        /* \"#utility.yul\":32161:32217   */\n      mstore\n        /* \"#utility.yul\":31976:32224   */\n      pop\n      jump\t// out\n        /* \"#utility.yul\":32230:32354   */\n    tag_756:\n        /* \"#utility.yul\":32322:32323   */\n      0x03\n        /* \"#utility.yul\":32315:32320   */\n      dup2\n        /* \"#utility.yul\":32312:32324   */\n      lt\n        /* \"#utility.yul\":32302:32348   */\n      tag_814\n      jumpi\n        /* \"#utility.yul\":32328:32346   */\n      tag_815\n      tag_169\n      jump\t// in\n    tag_815:\n        /* \"#utility.yul\":32302:32348   */\n    tag_814:\n        /* \"#utility.yul\":32230:32354   */\n      pop\n      jump\t// out\n        /* \"#utility.yul\":32360:32483   */\n    tag_760:\n        /* \"#utility.yul\":32451:32452   */\n      0x02\n        /* \"#utility.yul\":32444:32449   */\n      dup2\n        /* \"#utility.yul\":32441:32453   */\n      lt\n        /* \"#utility.yul\":32431:32477   */\n      tag_817\n      jumpi\n        /* \"#utility.yul\":32457:32475   */\n      tag_818\n      tag_169\n      jump\t// in\n    tag_818:\n        /* \"#utility.yul\":32431:32477   */\n    tag_817:\n        /* \"#utility.yul\":32360:32483   */\n      pop\n      jump\t// out\n        /* \"#utility.yul\":32489:32610   */\n    tag_764:\n        /* \"#utility.yul\":32578:32579   */\n      0x07\n        /* \"#utility.yul\":32571:32576   */\n      dup2\n        /* \"#utility.yul\":32568:32580   */\n      lt\n        /* \"#utility.yul\":32558:32604   */\n      tag_820\n      jumpi\n        /* \"#utility.yul\":32584:32602   */\n      tag_821\n      tag_169\n      jump\t// in\n    tag_821:\n        /* \"#utility.yul\":32558:32604   */\n    tag_820:\n        /* \"#utility.yul\":32489:32610   */\n      pop\n      jump\t// out\n        /* \"#utility.yul\":32616:32738   */\n    tag_470:\n        /* \"#utility.yul\":32689:32713   */\n      tag_823\n        /* \"#utility.yul\":32707:32712   */\n      dup2\n        /* \"#utility.yul\":32689:32713   */\n      tag_565\n      jump\t// in\n    tag_823:\n        /* \"#utility.yul\":32682:32687   */\n      dup2\n        /* \"#utility.yul\":32679:32714   */\n      eq\n        /* \"#utility.yul\":32669:32732   */\n      tag_824\n      jumpi\n        /* \"#utility.yul\":32728:32729   */\n      0x00\n        /* \"#utility.yul\":32725:32726   */\n      dup1\n        /* \"#utility.yul\":32718:32730   */\n      revert\n        /* \"#utility.yul\":32669:32732   */\n    tag_824:\n        /* \"#utility.yul\":32616:32738   */\n      pop\n      jump\t// out\n        /* \"#utility.yul\":32744:32866   */\n    tag_474:\n        /* \"#utility.yul\":32817:32841   */\n      tag_826\n        /* \"#utility.yul\":32835:32840   */\n      dup2\n        /* \"#utility.yul\":32817:32841   */\n      tag_573\n      jump\t// in\n    tag_826:\n        /* \"#utility.yul\":32810:32815   */\n      dup2\n        /* \"#utility.yul\":32807:32842   */\n      eq\n        /* \"#utility.yul\":32797:32860   */\n      tag_827\n      jumpi\n        /* \"#utility.yul\":32856:32857   */\n      0x00\n        /* \"#utility.yul\":32853:32854   */\n      dup1\n        /* \"#utility.yul\":32846:32858   */\n      revert\n        /* \"#utility.yul\":32797:32860   */\n    tag_827:\n        /* \"#utility.yul\":32744:32866   */\n      pop\n      jump\t// out\n        /* \"#utility.yul\":32872:32987   */\n    tag_484:\n        /* \"#utility.yul\":32961:32962   */\n      0x07\n        /* \"#utility.yul\":32954:32959   */\n      dup2\n        /* \"#utility.yul\":32951:32963   */\n      lt\n        /* \"#utility.yul\":32941:32981   */\n      tag_829\n      jumpi\n        /* \"#utility.yul\":32977:32978   */\n      0x00\n        /* \"#utility.yul\":32974:32975   */\n      dup1\n        /* \"#utility.yul\":32967:32979   */\n      revert\n        /* \"#utility.yul\":32941:32981   */\n    tag_829:\n        /* \"#utility.yul\":32872:32987   */\n      pop\n      jump\t// out\n        /* \"#utility.yul\":32993:33115   */\n    tag_508:\n        /* \"#utility.yul\":33066:33090   */\n      tag_831\n        /* \"#utility.yul\":33084:33089   */\n      dup2\n        /* \"#utility.yul\":33066:33090   */\n      tag_672\n      jump\t// in\n    tag_831:\n        /* \"#utility.yul\":33059:33064   */\n      dup2\n        /* \"#utility.yul\":33056:33091   */\n      eq\n        /* \"#utility.yul\":33046:33109   */\n      tag_832\n      jumpi\n        /* \"#utility.yul\":33105:33106   */\n      0x00\n        /* \"#utility.yul\":33102:33103   */\n      dup1\n        /* \"#utility.yul\":33095:33107   */\n      revert\n        /* \"#utility.yul\":33046:33109   */\n    tag_832:\n        /* \"#utility.yul\":32993:33115   */\n      pop\n      jump\t// out\n\n    auxdata: 0xa2646970667358221220c5f9634c3444e989e31d2d7e92e8be36414e24984288b5a0441987710b21378264736f6c63430008070033\n}\n",
				"bytecode": {
					"linkReferences": {},
					"object": "60806040526000600355600060045534801561001a57600080fd5b506138de8061002a6000396000f3fe60806040526004361061014b5760003560e01c806387b50547116100b6578063a36a5d8d1161006f578063a36a5d8d1461050e578063b8ba95fa14610525578063b97c9f771461056a578063ca15c87314610595578063de8b1989146105d2578063e58378bb146105fb5761014b565b806387b50547146103bf5780639010d07c146103ef57806391d148541461042c57806399704937146104695780639f2bc40e14610494578063a1a25243146104d15761014b565b8063474da79a11610108578063474da79a1461027057806369a8f49e146102b35780637065cb48146102f857806379b67caa146103215780637b66fe2e146103515780638736381a146103945761014b565b806302aec3ce1461015057806311060ec714610179578063173825d9146101b657806328c23a45146101df5780632f54bf6e146101f657806337c3510a14610233575b600080fd5b34801561015c57600080fd5b50610177600480360381019061017291906128f8565b610626565b005b34801561018557600080fd5b506101a0600480360381019061019b9190612992565b610653565b6040516101ad9190612fa7565b60405180910390f35b3480156101c257600080fd5b506101dd60048036038101906101d891906128f8565b610998565b005b3480156101eb57600080fd5b506101f46109c5565b005b34801561020257600080fd5b5061021d600480360381019061021891906128f8565b6109f1565b60405161022a9190612fa7565b60405180910390f35b34801561023f57600080fd5b5061025a60048036038101906102559190612b50565b610a24565b6040516102679190612fa7565b60405180910390f35b34801561027c57600080fd5b5061029760048036038101906102929190612a90565b610bd0565b6040516102aa9796959493929190612f30565b60405180910390f35b3480156102bf57600080fd5b506102da60048036038101906102d59190612a90565b610e62565b6040516102ef999897969594939291906130f8565b60405180910390f35b34801561030457600080fd5b5061031f600480360381019061031a91906128f8565b610ff8565b005b61033b60048036038101906103369190612b10565b611066565b6040516103489190612fa7565b60405180910390f35b34801561035d57600080fd5b5061037860048036038101906103739190612a90565b61138e565b60405161038b9796959493929190612f30565b60405180910390f35b3480156103a057600080fd5b506103a9611610565b6040516103b691906130dd565b60405180910390f35b6103d960048036038101906103d49190612b10565b611616565b6040516103e69190612fa7565b60405180910390f35b3480156103fb57600080fd5b5061041660048036038101906104119190612a50565b611870565b6040516104239190612f15565b60405180910390f35b34801561043857600080fd5b50610453600480360381019061044e9190612952565b61189e565b6040516104609190612fa7565b60405180910390f35b34801561047557600080fd5b5061047e6118cc565b60405161048b91906130dd565b60405180910390f35b3480156104a057600080fd5b506104bb60048036038101906104b691906128f8565b6118d2565b6040516104c89190612fa7565b60405180910390f35b3480156104dd57600080fd5b506104f860048036038101906104f39190612abd565b611905565b6040516105059190612fa7565b60405180910390f35b34801561051a57600080fd5b50610523612044565b005b34801561053157600080fd5b5061054c60048036038101906105479190612a90565b612070565b604051610561999897969594939291906130f8565b60405180910390f35b34801561057657600080fd5b5061057f612216565b60405161058c9190612fc2565b60405180910390f35b3480156105a157600080fd5b506105bc60048036038101906105b79190612925565b61223a565b6040516105c991906130dd565b60405180910390f35b3480156105de57600080fd5b506105f960048036038101906105f491906128f8565b61225d565b005b34801561060757600080fd5b506106106122cb565b60405161061d9190612fc2565b60405180910390f35b6106507f52454e5445520000000000000000000000000000000000000000000000000000826122ef565b50565b600061065e336109f1565b61069d576040517f08c379a00000000000000000000000000000000000000000000000000000000081526004016106949061303d565b60405180910390fd5b60016003546106ac919061320f565b600680549050106106f2576040517f08c379a00000000000000000000000000000000000000000000000000000000081526004016106e990612ffd565b60405180910390fd5b6003600081548092919061070590613459565b9190505550600060405180610120016040528060035481526020018a815260200189815260200188600681111561073f5761073e6134d1565b5b8152602001878152602001868152602001858152602001848152602001600060018111156107705761076f6134d1565b5b81525090508060056000600354815260200190815260200160002060008201518160000155602082015181600101556040820151816002015560608201518160030160006101000a81548160ff021916908360068111156107d4576107d36134d1565b5b021790555060808201518160040160008201518160000190805190602001906107fe9291906126b9565b50602082015181600101908051906020019061081b9291906126b9565b50505060a0820151816006015560c0820151816007015560e082015181600801556101008201518160090160006101000a81548160ff02191690836001811115610868576108676134d1565b5b021790555090505060068190806001815401808255809150506001900390600052602060002090600a020160009091909190915060008201518160000155602082015181600101556040820151816002015560608201518160030160006101000a81548160ff021916908360068111156108e5576108e46134d1565b5b0217905550608082015181600401600082015181600001908051906020019061090f9291906126b9565b50602082015181600101908051906020019061092c9291906126b9565b50505060a0820151816006015560c0820151816007015560e082015181600801556101008201518160090160006101000a81548160ff02191690836001811115610979576109786134d1565b5b0217905550505060035460068054905014915050979650505050505050565b6109c27f4f574e4552000000000000000000000000000000000000000000000000000000826122ef565b50565b6109ef7f4f574e4552000000000000000000000000000000000000000000000000000000336122ef565b565b6000610a1d7f4f574e45520000000000000000000000000000000000000000000000000000008361189e565b9050919050565b6000610a2f336118d2565b610a6e576040517f08c379a0000000000000000000000000000000000000000000000000000000008152600401610a659061309d565b60405180910390fd5b8360006001811115610a8357610a826134d1565b5b6005600083815260200190815260200160002060090160009054906101000a900460ff166001811115610ab957610ab86134d1565b5b14610af9576040517f08c379a0000000000000000000000000000000000000000000000000000000008152600401610af09061305d565b60405180910390fd5b83600073ffffffffffffffffffffffffffffffffffffffff166007600083815260200190815260200160002060000160009054906101000a900473ffffffffffffffffffffffffffffffffffffffff1673ffffffffffffffffffffffffffffffffffffffff161415610ba0576040517f08c379a0000000000000000000000000000000000000000000000000000000008152600401610b979061307d565b60405180910390fd5b8360076000878152602001908152602001600020600e018190555060045460088054905014925050509392505050565b60088181548110610be057600080fd5b90600052602060002090601102016000915090508060000160009054906101000a900473ffffffffffffffffffffffffffffffffffffffff169080600101604051806101200160405290816000820154815260200160018201548152602001600282015481526020016003820160009054906101000a900460ff166006811115610c6d57610c6c6134d1565b5b6006811115610c7f57610c7e6134d1565b5b815260200160048201604051806040016040529081600082018054610ca3906133f6565b80601f0160208091040260200160405190810160405280929190818152602001828054610ccf906133f6565b8015610d1c5780601f10610cf157610100808354040283529160200191610d1c565b820191906000526020600020905b815481529060010190602001808311610cff57829003601f168201915b50505050508152602001600182018054610d35906133f6565b80601f0160208091040260200160405190810160405280929190818152602001828054610d61906133f6565b8015610dae5780601f10610d8357610100808354040283529160200191610dae565b820191906000526020600020905b815481529060010190602001808311610d9157829003601f168201915b50505050508152505081526020016006820154815260200160078201548152602001600882015481526020016009820160009054906101000a900460ff166001811115610dfe57610dfd6134d1565b5b6001811115610e1057610e0f6134d1565b5b815250509080600b01604051806040016040529081600082015481526020016001820154815250509080600d01549080600e01549080600f0154908060100160009054906101000a900460ff16905087565b60056020528060005260406000206000915090508060000154908060010154908060020154908060030160009054906101000a900460ff169080600401604051806040016040529081600082018054610eba906133f6565b80601f0160208091040260200160405190810160405280929190818152602001828054610ee6906133f6565b8015610f335780601f10610f0857610100808354040283529160200191610f33565b820191906000526020600020905b815481529060010190602001808311610f1657829003601f168201915b50505050508152602001600182018054610f4c906133f6565b80601f0160208091040260200160405190810160405280929190818152602001828054610f78906133f6565b8015610fc55780601f10610f9a57610100808354040283529160200191610fc5565b820191906000526020600020905b815481529060010190602001808311610fa857829003601f168201915b505050505081525050908060060154908060070154908060080154908060090160009054906101000a900460ff16905089565b80600260006101000a81548173ffffffffffffffffffffffffffffffffffffffff021916908373ffffffffffffffffffffffffffffffffffffffff1602179055506110637f4f574e45520000000000000000000000000000000000000000000000000000008261237f565b50565b6000611071336109f1565b6110b0576040517f08c379a00000000000000000000000000000000000000000000000000000000081526004016110a79061303d565b60405180910390fd5b81600060056000838152602001908152602001600020600001541161110a576040517f08c379a0000000000000000000000000000000000000000000000000000000008152600401611101906130bd565b60405180910390fd5b826000600181111561111f5761111e6134d1565b5b6005600083815260200190815260200160002060090160009054906101000a900460ff166001811115611155576111546134d1565b5b14611195576040517f08c379a000000000000000000000000000000000000000000000000000000000815260040161118c9061305d565b60405180910390fd5b84600073ffffffffffffffffffffffffffffffffffffffff166007600083815260200190815260200160002060000160009054906101000a900473ffffffffffffffffffffffffffffffffffffffff1673ffffffffffffffffffffffffffffffffffffffff16141561123c576040517f08c379a00000000000000000000000000000000000000000000000000000000081526004016112339061307d565b60405180910390fd5b85600060076000838152602001908152602001600020600d015460076000848152602001908152602001600020600e0154611277919061320f565b9050803410156112bc576040517f08c379a00000000000000000000000000000000000000000000000000000000081526004016112b39061301d565b60405180910390fd5b6001600760008a815260200190815260200160002060100160006101000a81548160ff021916908360028111156112f6576112f56134d1565b5b021790555060016005600089815260200190815260200160002060090160006101000a81548160ff02191690836001811115611335576113346134d1565b5b02179055506000600760008a8152602001908152602001600020600e0154600760008b8152602001908152602001600020600d0154611374919061320f565b905060045460088054905014965050505050505092915050565b60076020528060005260406000206000915090508060000160009054906101000a900473ffffffffffffffffffffffffffffffffffffffff169080600101604051806101200160405290816000820154815260200160018201548152602001600282015481526020016003820160009054906101000a900460ff16600681111561141b5761141a6134d1565b5b600681111561142d5761142c6134d1565b5b815260200160048201604051806040016040529081600082018054611451906133f6565b80601f016020809104026020016040519081016040528092919081815260200182805461147d906133f6565b80156114ca5780601f1061149f576101008083540402835291602001916114ca565b820191906000526020600020905b8154815290600101906020018083116114ad57829003601f168201915b505050505081526020016001820180546114e3906133f6565b80601f016020809104026020016040519081016040528092919081815260200182805461150f906133f6565b801561155c5780601f106115315761010080835404028352916020019161155c565b820191906000526020600020905b81548152906001019060200180831161153f57829003601f168201915b50505050508152505081526020016006820154815260200160078201548152602001600882015481526020016009820160009054906101000a900460ff1660018111156115ac576115ab6134d1565b5b60018111156115be576115bd6134d1565b5b815250509080600b01604051806040016040529081600082015481526020016001820154815250509080600d01549080600e01549080600f0154908060100160009054906101000a900460ff16905087565b60045481565b6000611621336118d2565b611660576040517f08c379a00000000000000000000000000000000000000000000000000000000081526004016116579061309d565b60405180910390fd5b8160006005600083815260200190815260200160002060000154116116ba576040517f08c379a00000000000000000000000000000000000000000000000000000000081526004016116b1906130bd565b60405180910390fd5b83600073ffffffffffffffffffffffffffffffffffffffff166007600083815260200190815260200160002060000160009054906101000a900473ffffffffffffffffffffffffffffffffffffffff1673ffffffffffffffffffffffffffffffffffffffff161415611761576040517f08c379a00000000000000000000000000000000000000000000000000000000081526004016117589061307d565b60405180910390fd5b84600060076000838152602001908152602001600020600e01549050803410156117c0576040517f08c379a00000000000000000000000000000000000000000000000000000000081526004016117b79061301d565b60405180910390fd5b60026007600089815260200190815260200160002060100160006101000a81548160ff021916908360028111156117fa576117f96134d1565b5b021790555060006005600088815260200190815260200160002060090160006101000a81548160ff02191690836001811115611839576118386134d1565b5b0217905550600060076000898152602001908152602001600020600e01549050600454600880549050149550505050505092915050565b60006118968260008086815260200190815260200160002061240f90919063ffffffff16565b905092915050565b60006118c48260008086815260200190815260200160002061242990919063ffffffff16565b905092915050565b60035481565b60006118fe7f52454e54455200000000000000000000000000000000000000000000000000008361189e565b9050919050565b6000611910336118d2565b61194f576040517f08c379a00000000000000000000000000000000000000000000000000000000081526004016119469061309d565b60405180910390fd5b8360006005600083815260200190815260200160002060000154116119a9576040517f08c379a00000000000000000000000000000000000000000000000000000000081526004016119a0906130bd565b60405180910390fd5b60016004546119b8919061320f565b600880549050106119fe576040517f08c379a00000000000000000000000000000000000000000000000000000000081526004016119f590612fdd565b60405180910390fd5b60046000815480929190611a1190613459565b91905055506000836005600088815260200190815260200160002060080154611a3a9190613265565b905060006040518060e001604052803373ffffffffffffffffffffffffffffffffffffffff168152602001600560008a8152602001908152602001600020604051806101200160405290816000820154815260200160018201548152602001600282015481526020016003820160009054906101000a900460ff166006811115611ac757611ac66134d1565b5b6006811115611ad957611ad86134d1565b5b815260200160048201604051806040016040529081600082018054611afd906133f6565b80601f0160208091040260200160405190810160405280929190818152602001828054611b29906133f6565b8015611b765780601f10611b4b57610100808354040283529160200191611b76565b820191906000526020600020905b815481529060010190602001808311611b5957829003601f168201915b50505050508152602001600182018054611b8f906133f6565b80601f0160208091040260200160405190810160405280929190818152602001828054611bbb906133f6565b8015611c085780601f10611bdd57610100808354040283529160200191611c08565b820191906000526020600020905b815481529060010190602001808311611beb57829003601f168201915b50505050508152505081526020016006820154815260200160078201548152602001600882015481526020016009820160009054906101000a900460ff166001811115611c5857611c576134d1565b5b6001811115611c6a57611c696134d1565b5b8152505081526020018781526020018381526020016000815260200142815260200160006002811115611ca057611c9f6134d1565b5b81525090508060076000600454815260200190815260200160002060008201518160000160006101000a81548173ffffffffffffffffffffffffffffffffffffffff021916908373ffffffffffffffffffffffffffffffffffffffff16021790555060208201518160010160008201518160000155602082015181600101556040820151816002015560608201518160030160006101000a81548160ff02191690836006811115611d5457611d536134d1565b5b02179055506080820151816004016000820151816000019080519060200190611d7e9291906126b9565b506020820151816001019080519060200190611d9b9291906126b9565b50505060a0820151816006015560c0820151816007015560e082015181600801556101008201518160090160006101000a81548160ff02191690836001811115611de857611de76134d1565b5b02179055505050604082015181600b0160008201518160000155602082015181600101555050606082015181600d0155608082015181600e015560a082015181600f015560c08201518160100160006101000a81548160ff02191690836002811115611e5757611e566134d1565b5b0217905550905050600881908060018154018082558091505060019003906000526020600020906011020160009091909190915060008201518160000160006101000a81548173ffffffffffffffffffffffffffffffffffffffff021916908373ffffffffffffffffffffffffffffffffffffffff16021790555060208201518160010160008201518160000155602082015181600101556040820151816002015560608201518160030160006101000a81548160ff02191690836006811115611f2457611f236134d1565b5b02179055506080820151816004016000820151816000019080519060200190611f4e9291906126b9565b506020820151816001019080519060200190611f6b9291906126b9565b50505060a0820151816006015560c0820151816007015560e082015181600801556101008201518160090160006101000a81548160ff02191690836001811115611fb857611fb76134d1565b5b02179055505050604082015181600b0160008201518160000155602082015181600101555050606082015181600d0155608082015181600e015560a082015181600f015560c08201518160100160006101000a81548160ff02191690836002811115612027576120266134d1565b5b021790555050506004546008805490501493505050509392505050565b61206e7f52454e5445520000000000000000000000000000000000000000000000000000336122ef565b565b6006818154811061208057600080fd5b90600052602060002090600a02016000915090508060000154908060010154908060020154908060030160009054906101000a900460ff1690806004016040518060400160405290816000820180546120d8906133f6565b80601f0160208091040260200160405190810160405280929190818152602001828054612104906133f6565b80156121515780601f1061212657610100808354040283529160200191612151565b820191906000526020600020905b81548152906001019060200180831161213457829003601f168201915b5050505050815260200160018201805461216a906133f6565b80601f0160208091040260200160405190810160405280929190818152602001828054612196906133f6565b80156121e35780601f106121b8576101008083540402835291602001916121e3565b820191906000526020600020905b8154815290600101906020018083116121c657829003601f168201915b505050505081525050908060060154908060070154908060080154908060090160009054906101000a900460ff16905089565b7f52454e544552000000000000000000000000000000000000000000000000000081565b6000612256600080848152602001908152602001600020612459565b9050919050565b80600160006101000a81548173ffffffffffffffffffffffffffffffffffffffff021916908373ffffffffffffffffffffffffffffffffffffffff1602179055506122c87f52454e54455200000000000000000000000000000000000000000000000000008261237f565b50565b7f4f574e455200000000000000000000000000000000000000000000000000000081565b6123138160008085815260200190815260200160002061246e90919063ffffffff16565b1561237b5761232061249e565b73ffffffffffffffffffffffffffffffffffffffff168173ffffffffffffffffffffffffffffffffffffffff16837ff6391f5c32d9c69d2a47ea670b442974b53935d1edc7fd64eb21e047a839171b60405160405180910390a45b5050565b6123a3816000808581526020019081526020016000206124a690919063ffffffff16565b1561240b576123b061249e565b73ffffffffffffffffffffffffffffffffffffffff168173ffffffffffffffffffffffffffffffffffffffff16837f2f8788117e7eff1d82e926ec794901d17c78024a50270940304540a733656f0d60405160405180910390a45b5050565b600061241e83600001836124d6565b60001c905092915050565b6000612451836000018373ffffffffffffffffffffffffffffffffffffffff1660001b612501565b905092915050565b600061246782600001612524565b9050919050565b6000612496836000018373ffffffffffffffffffffffffffffffffffffffff1660001b612535565b905092915050565b600033905090565b60006124ce836000018373ffffffffffffffffffffffffffffffffffffffff1660001b612649565b905092915050565b60008260000182815481106124ee576124ed61355e565b5b9060005260206000200154905092915050565b600080836001016000848152602001908152602001600020541415905092915050565b600081600001805490509050919050565b6000808360010160008481526020019081526020016000205490506000811461263d57600060018261256791906132bf565b905060006001866000018054905061257f91906132bf565b90508181146125ee5760008660000182815481106125a05761259f61355e565b5b90600052602060002001549050808760000184815481106125c4576125c361355e565b5b90600052602060002001819055508387600101600083815260200190815260200160002081905550505b856000018054806126025761260161352f565b5b600190038181906000526020600020016000905590558560010160008681526020019081526020016000206000905560019350505050612643565b60009150505b92915050565b60006126558383612501565b6126ae5782600001829080600181540180825580915050600190039060005260206000200160009091909190915055826000018054905083600101600084815260200190815260200160002081905550600190506126b3565b600090505b92915050565b8280546126c5906133f6565b90600052602060002090601f0160209004810192826126e7576000855561272e565b82601f1061270057805160ff191683800117855561272e565b8280016001018555821561272e579182015b8281111561272d578251825591602001919060010190612712565b5b50905061273b919061273f565b5090565b5b80821115612758576000816000905550600101612740565b5090565b600061276f61276a846131b1565b61318c565b90508281526020810184848401111561278b5761278a6135cb565b5b6127968482856133b4565b509392505050565b6000813590506127ad81613853565b92915050565b6000813590506127c28161386a565b92915050565b600082601f8301126127dd576127dc6135bc565b5b81356127ed84826020860161275c565b91505092915050565b60008135905061280581613881565b92915050565b600060408284031215612821576128206135c1565b5b61282b604061318c565b9050600082013567ffffffffffffffff81111561284b5761284a6135c6565b5b612857848285016127c8565b600083015250602082013567ffffffffffffffff81111561287b5761287a6135c6565b5b612887848285016127c8565b60208301525092915050565b6000604082840312156128a9576128a86135c1565b5b6128b3604061318c565b905060006128c3848285016127b3565b60008301525060206128d7848285016127b3565b60208301525092915050565b6000813590506128f281613891565b92915050565b60006020828403121561290e5761290d6135d5565b5b600061291c8482850161279e565b91505092915050565b60006020828403121561293b5761293a6135d5565b5b6000612949848285016127b3565b91505092915050565b60008060408385031215612969576129686135d5565b5b6000612977858286016127b3565b92505060206129888582860161279e565b9150509250929050565b600080600080600080600060e0888a0312156129b1576129b06135d5565b5b60006129bf8a828b016127b3565b97505060206129d08a828b016127b3565b96505060406129e18a828b016127f6565b955050606088013567ffffffffffffffff811115612a0257612a016135d0565b5b612a0e8a828b0161280b565b9450506080612a1f8a828b016128e3565b93505060a0612a308a828b016127b3565b92505060c0612a418a828b016128e3565b91505092959891949750929550565b60008060408385031215612a6757612a666135d5565b5b6000612a75858286016127b3565b9250506020612a86858286016128e3565b9150509250929050565b600060208284031215612aa657612aa56135d5565b5b6000612ab4848285016128e3565b91505092915050565b600080600060808486031215612ad657612ad56135d5565b5b6000612ae4868287016128e3565b9350506020612af586828701612893565b9250506060612b06868287016128e3565b9150509250925092565b60008060408385031215612b2757612b266135d5565b5b6000612b35858286016128e3565b9250506020612b46858286016128e3565b9150509250929050565b600080600060608486031215612b6957612b686135d5565b5b6000612b77868287016128e3565b9350506020612b88868287016128e3565b9250506040612b99868287016128e3565b9150509250925092565b612bac816132f3565b82525050565b612bbb81613305565b82525050565b612bca81613311565b82525050565b612bd981613311565b82525050565b6000612bea826131e2565b612bf481856131ed565b9350612c048185602086016133c3565b612c0d816135da565b840191505092915050565b612c218161337e565b82525050565b612c3081613390565b82525050565b612c3f81613390565b82525050565b612c4e816133a2565b82525050565b612c5d816133a2565b82525050565b6000612c70602e836131fe565b9150612c7b826135eb565b604082019050919050565b6000612c93602d836131fe565b9150612c9e8261363a565b604082019050919050565b6000612cb66040836131fe565b9150612cc182613689565b604082019050919050565b6000612cd96015836131fe565b9150612ce4826136d8565b602082019050919050565b6000612cfc6030836131fe565b9150612d0782613701565b604082019050919050565b6000612d1f603e836131fe565b9150612d2a82613750565b604082019050919050565b6000612d426016836131fe565b9150612d4d8261379f565b602082019050919050565b6000612d65603d836131fe565b9150612d70826137c8565b604082019050919050565b60006040830160008301518482036000860152612d988282612bdf565b91505060208301518482036020860152612db28282612bdf565b9150508091505092915050565b60006040830160008301518482036000860152612ddc8282612bdf565b91505060208301518482036020860152612df68282612bdf565b9150508091505092915050565b604082016000820151612e196000850182612bc1565b506020820151612e2c6020850182612bc1565b50505050565b600061012083016000830151612e4b6000860182612ef7565b506020830151612e5e6020860182612bc1565b506040830151612e716040860182612bc1565b506060830151612e846060860182612c45565b5060808301518482036080860152612e9c8282612d7b565b91505060a0830151612eb160a0860182612ef7565b5060c0830151612ec460c0860182612bc1565b5060e0830151612ed760e0860182612ef7565b50610100830151612eec610100860182612c27565b508091505092915050565b612f0081613374565b82525050565b612f0f81613374565b82525050565b6000602082019050612f2a6000830184612ba3565b92915050565b600061010082019050612f46600083018a612ba3565b8181036020830152612f588189612e32565b9050612f676040830188612e03565b612f746080830187612f06565b612f8160a0830186612f06565b612f8e60c0830185612f06565b612f9b60e0830184612c18565b98975050505050505050565b6000602082019050612fbc6000830184612bb2565b92915050565b6000602082019050612fd76000830184612bd0565b92915050565b60006020820190508181036000830152612ff681612c63565b9050919050565b6000602082019050818103600083015261301681612c86565b9050919050565b6000602082019050818103600083015261303681612ca9565b9050919050565b6000602082019050818103600083015261305681612ccc565b9050919050565b6000602082019050818103600083015261307681612cef565b9050919050565b6000602082019050818103600083015261309681612d12565b9050919050565b600060208201905081810360008301526130b681612d35565b9050919050565b600060208201905081810360008301526130d681612d58565b9050919050565b60006020820190506130f26000830184612f06565b92915050565b60006101208201905061310e600083018c612f06565b61311b602083018b612bd0565b613128604083018a612bd0565b6131356060830189612c54565b81810360808301526131478188612dbf565b905061315660a0830187612f06565b61316360c0830186612bd0565b61317060e0830185612f06565b61317e610100830184612c36565b9a9950505050505050505050565b60006131966131a7565b90506131a28282613428565b919050565b6000604051905090565b600067ffffffffffffffff8211156131cc576131cb61358d565b5b6131d5826135da565b9050602081019050919050565b600081519050919050565b600082825260208201905092915050565b600082825260208201905092915050565b600061321a82613374565b915061322583613374565b9250827fffffffffffffffffffffffffffffffffffffffffffffffffffffffffffffffff0382111561325a576132596134a2565b5b828201905092915050565b600061327082613374565b915061327b83613374565b9250817fffffffffffffffffffffffffffffffffffffffffffffffffffffffffffffffff04831182151516156132b4576132b36134a2565b5b828202905092915050565b60006132ca82613374565b91506132d583613374565b9250828210156132e8576132e76134a2565b5b828203905092915050565b60006132fe82613354565b9050919050565b60008115159050919050565b6000819050919050565b600081905061332982613817565b919050565b600081905061333c8261382b565b919050565b600081905061334f8261383f565b919050565b600073ffffffffffffffffffffffffffffffffffffffff82169050919050565b6000819050919050565b60006133898261331b565b9050919050565b600061339b8261332e565b9050919050565b60006133ad82613341565b9050919050565b82818337600083830152505050565b60005b838110156133e15780820151818401526020810190506133c6565b838111156133f0576000848401525b50505050565b6000600282049050600182168061340e57607f821691505b6020821081141561342257613421613500565b5b50919050565b613431826135da565b810181811067ffffffffffffffff821117156134505761344f61358d565b5b80604052505050565b600061346482613374565b91507fffffffffffffffffffffffffffffffffffffffffffffffffffffffffffffffff821415613497576134966134a2565b5b600182019050919050565b7f4e487b7100000000000000000000000000000000000000000000000000000000600052601160045260246000fd5b7f4e487b7100000000000000000000000000000000000000000000000000000000600052602160045260246000fd5b7f4e487b7100000000000000000000000000000000000000000000000000000000600052602260045260246000fd5b7f4e487b7100000000000000000000000000000000000000000000000000000000600052603160045260246000fd5b7f4e487b7100000000000000000000000000000000000000000000000000000000600052603260045260246000fd5b7f4e487b7100000000000000000000000000000000000000000000000000000000600052604160045260246000fd5b600080fd5b600080fd5b600080fd5b600080fd5b600080fd5b600080fd5b6000601f19601f8301169050919050565b7f54686520666f6c6c6f77696e6720636f6e74726163742068617320616c72656160008201527f6479206265656e2061646465642e000000000000000000000000000000000000602082015250565b7f54686520666f6c6c6f77696e672076656869636c652068617320616c7265616460008201527f79206265656e2061646465642e00000000000000000000000000000000000000602082015250565b7f436f756c64206e6f742070726f6365656420626563617573652074686572652060008201527f6973206e6f7420656e6f7567682045544820696e20796f75722077616c6c6574602082015250565b7f5265737472696374656420746f206f776e6572732e0000000000000000000000600082015250565b7f5468652073656c65637465642076656869636c652069732063757272656e746c60008201527f79206e6f7420617661696c61626c652e00000000000000000000000000000000602082015250565b7f54686520666f6c6c6f77696e6720636f6e747261637420636f756c64206e6f7460008201527f20626520666f756e6420696e20746865206d617070696e67206c6973742e0000602082015250565b7f5265737472696374656420746f2072656e746572732e00000000000000000000600082015250565b7f54686520666f6c6c6f77696e672076656869636c6520636f756c64206e6f742060008201527f626520666f756e6420696e20746865206d617070696e67206c6973742e000000602082015250565b60038110613828576138276134d1565b5b50565b6002811061383c5761383b6134d1565b5b50565b600781106138505761384f6134d1565b5b50565b61385c816132f3565b811461386757600080fd5b50565b61387381613311565b811461387e57600080fd5b50565b6007811061388e57600080fd5b50565b61389a81613374565b81146138a557600080fd5b5056fea2646970667358221220c5f9634c3444e989e31d2d7e92e8be36414e24984288b5a0441987710b21378264736f6c63430008070033",
					"opcodes": "PUSH1 0x80 PUSH1 0x40 MSTORE PUSH1 0x0 PUSH1 0x3 SSTORE PUSH1 0x0 PUSH1 0x4 SSTORE CALLVALUE DUP1 ISZERO PUSH2 0x1A JUMPI PUSH1 0x0 DUP1 REVERT JUMPDEST POP PUSH2 0x38DE DUP1 PUSH2 0x2A PUSH1 0x0 CODECOPY PUSH1 0x0 RETURN INVALID PUSH1 0x80 PUSH1 0x40 MSTORE PUSH1 0x4 CALLDATASIZE LT PUSH2 0x14B JUMPI PUSH1 0x0 CALLDATALOAD PUSH1 0xE0 SHR DUP1 PUSH4 0x87B50547 GT PUSH2 0xB6 JUMPI DUP1 PUSH4 0xA36A5D8D GT PUSH2 0x6F JUMPI DUP1 PUSH4 0xA36A5D8D EQ PUSH2 0x50E JUMPI DUP1 PUSH4 0xB8BA95FA EQ PUSH2 0x525 JUMPI DUP1 PUSH4 0xB97C9F77 EQ PUSH2 0x56A JUMPI DUP1 PUSH4 0xCA15C873 EQ PUSH2 0x595 JUMPI DUP1 PUSH4 0xDE8B1989 EQ PUSH2 0x5D2 JUMPI DUP1 PUSH4 0xE58378BB EQ PUSH2 0x5FB JUMPI PUSH2 0x14B JUMP JUMPDEST DUP1 PUSH4 0x87B50547 EQ PUSH2 0x3BF JUMPI DUP1 PUSH4 0x9010D07C EQ PUSH2 0x3EF JUMPI DUP1 PUSH4 0x91D14854 EQ PUSH2 0x42C JUMPI DUP1 PUSH4 0x99704937 EQ PUSH2 0x469 JUMPI DUP1 PUSH4 0x9F2BC40E EQ PUSH2 0x494 JUMPI DUP1 PUSH4 0xA1A25243 EQ PUSH2 0x4D1 JUMPI PUSH2 0x14B JUMP JUMPDEST DUP1 PUSH4 0x474DA79A GT PUSH2 0x108 JUMPI DUP1 PUSH4 0x474DA79A EQ PUSH2 0x270 JUMPI DUP1 PUSH4 0x69A8F49E EQ PUSH2 0x2B3 JUMPI DUP1 PUSH4 0x7065CB48 EQ PUSH2 0x2F8 JUMPI DUP1 PUSH4 0x79B67CAA EQ PUSH2 0x321 JUMPI DUP1 PUSH4 0x7B66FE2E EQ PUSH2 0x351 JUMPI DUP1 PUSH4 0x8736381A EQ PUSH2 0x394 JUMPI PUSH2 0x14B JUMP JUMPDEST DUP1 PUSH4 0x2AEC3CE EQ PUSH2 0x150 JUMPI DUP1 PUSH4 0x11060EC7 EQ PUSH2 0x179 JUMPI DUP1 PUSH4 0x173825D9 EQ PUSH2 0x1B6 JUMPI DUP1 PUSH4 0x28C23A45 EQ PUSH2 0x1DF JUMPI DUP1 PUSH4 0x2F54BF6E EQ PUSH2 0x1F6 JUMPI DUP1 PUSH4 0x37C3510A EQ PUSH2 0x233 JUMPI JUMPDEST PUSH1 0x0 DUP1 REVERT JUMPDEST CALLVALUE DUP1 ISZERO PUSH2 0x15C JUMPI PUSH1 0x0 DUP1 REVERT JUMPDEST POP PUSH2 0x177 PUSH1 0x4 DUP1 CALLDATASIZE SUB DUP2 ADD SWAP1 PUSH2 0x172 SWAP2 SWAP1 PUSH2 0x28F8 JUMP JUMPDEST PUSH2 0x626 JUMP JUMPDEST STOP JUMPDEST CALLVALUE DUP1 ISZERO PUSH2 0x185 JUMPI PUSH1 0x0 DUP1 REVERT JUMPDEST POP PUSH2 0x1A0 PUSH1 0x4 DUP1 CALLDATASIZE SUB DUP2 ADD SWAP1 PUSH2 0x19B SWAP2 SWAP1 PUSH2 0x2992 JUMP JUMPDEST PUSH2 0x653 JUMP JUMPDEST PUSH1 0x40 MLOAD PUSH2 0x1AD SWAP2 SWAP1 PUSH2 0x2FA7 JUMP JUMPDEST PUSH1 0x40 MLOAD DUP1 SWAP2 SUB SWAP1 RETURN JUMPDEST CALLVALUE DUP1 ISZERO PUSH2 0x1C2 JUMPI PUSH1 0x0 DUP1 REVERT JUMPDEST POP PUSH2 0x1DD PUSH1 0x4 DUP1 CALLDATASIZE SUB DUP2 ADD SWAP1 PUSH2 0x1D8 SWAP2 SWAP1 PUSH2 0x28F8 JUMP JUMPDEST PUSH2 0x998 JUMP JUMPDEST STOP JUMPDEST CALLVALUE DUP1 ISZERO PUSH2 0x1EB JUMPI PUSH1 0x0 DUP1 REVERT JUMPDEST POP PUSH2 0x1F4 PUSH2 0x9C5 JUMP JUMPDEST STOP JUMPDEST CALLVALUE DUP1 ISZERO PUSH2 0x202 JUMPI PUSH1 0x0 DUP1 REVERT JUMPDEST POP PUSH2 0x21D PUSH1 0x4 DUP1 CALLDATASIZE SUB DUP2 ADD SWAP1 PUSH2 0x218 SWAP2 SWAP1 PUSH2 0x28F8 JUMP JUMPDEST PUSH2 0x9F1 JUMP JUMPDEST PUSH1 0x40 MLOAD PUSH2 0x22A SWAP2 SWAP1 PUSH2 0x2FA7 JUMP JUMPDEST PUSH1 0x40 MLOAD DUP1 SWAP2 SUB SWAP1 RETURN JUMPDEST CALLVALUE DUP1 ISZERO PUSH2 0x23F JUMPI PUSH1 0x0 DUP1 REVERT JUMPDEST POP PUSH2 0x25A PUSH1 0x4 DUP1 CALLDATASIZE SUB DUP2 ADD SWAP1 PUSH2 0x255 SWAP2 SWAP1 PUSH2 0x2B50 JUMP JUMPDEST PUSH2 0xA24 JUMP JUMPDEST PUSH1 0x40 MLOAD PUSH2 0x267 SWAP2 SWAP1 PUSH2 0x2FA7 JUMP JUMPDEST PUSH1 0x40 MLOAD DUP1 SWAP2 SUB SWAP1 RETURN JUMPDEST CALLVALUE DUP1 ISZERO PUSH2 0x27C JUMPI PUSH1 0x0 DUP1 REVERT JUMPDEST POP PUSH2 0x297 PUSH1 0x4 DUP1 CALLDATASIZE SUB DUP2 ADD SWAP1 PUSH2 0x292 SWAP2 SWAP1 PUSH2 0x2A90 JUMP JUMPDEST PUSH2 0xBD0 JUMP JUMPDEST PUSH1 0x40 MLOAD PUSH2 0x2AA SWAP8 SWAP7 SWAP6 SWAP5 SWAP4 SWAP3 SWAP2 SWAP1 PUSH2 0x2F30 JUMP JUMPDEST PUSH1 0x40 MLOAD DUP1 SWAP2 SUB SWAP1 RETURN JUMPDEST CALLVALUE DUP1 ISZERO PUSH2 0x2BF JUMPI PUSH1 0x0 DUP1 REVERT JUMPDEST POP PUSH2 0x2DA PUSH1 0x4 DUP1 CALLDATASIZE SUB DUP2 ADD SWAP1 PUSH2 0x2D5 SWAP2 SWAP1 PUSH2 0x2A90 JUMP JUMPDEST PUSH2 0xE62 JUMP JUMPDEST PUSH1 0x40 MLOAD PUSH2 0x2EF SWAP10 SWAP9 SWAP8 SWAP7 SWAP6 SWAP5 SWAP4 SWAP3 SWAP2 SWAP1 PUSH2 0x30F8 JUMP JUMPDEST PUSH1 0x40 MLOAD DUP1 SWAP2 SUB SWAP1 RETURN JUMPDEST CALLVALUE DUP1 ISZERO PUSH2 0x304 JUMPI PUSH1 0x0 DUP1 REVERT JUMPDEST POP PUSH2 0x31F PUSH1 0x4 DUP1 CALLDATASIZE SUB DUP2 ADD SWAP1 PUSH2 0x31A SWAP2 SWAP1 PUSH2 0x28F8 JUMP JUMPDEST PUSH2 0xFF8 JUMP JUMPDEST STOP JUMPDEST PUSH2 0x33B PUSH1 0x4 DUP1 CALLDATASIZE SUB DUP2 ADD SWAP1 PUSH2 0x336 SWAP2 SWAP1 PUSH2 0x2B10 JUMP JUMPDEST PUSH2 0x1066 JUMP JUMPDEST PUSH1 0x40 MLOAD PUSH2 0x348 SWAP2 SWAP1 PUSH2 0x2FA7 JUMP JUMPDEST PUSH1 0x40 MLOAD DUP1 SWAP2 SUB SWAP1 RETURN JUMPDEST CALLVALUE DUP1 ISZERO PUSH2 0x35D JUMPI PUSH1 0x0 DUP1 REVERT JUMPDEST POP PUSH2 0x378 PUSH1 0x4 DUP1 CALLDATASIZE SUB DUP2 ADD SWAP1 PUSH2 0x373 SWAP2 SWAP1 PUSH2 0x2A90 JUMP JUMPDEST PUSH2 0x138E JUMP JUMPDEST PUSH1 0x40 MLOAD PUSH2 0x38B SWAP8 SWAP7 SWAP6 SWAP5 SWAP4 SWAP3 SWAP2 SWAP1 PUSH2 0x2F30 JUMP JUMPDEST PUSH1 0x40 MLOAD DUP1 SWAP2 SUB SWAP1 RETURN JUMPDEST CALLVALUE DUP1 ISZERO PUSH2 0x3A0 JUMPI PUSH1 0x0 DUP1 REVERT JUMPDEST POP PUSH2 0x3A9 PUSH2 0x1610 JUMP JUMPDEST PUSH1 0x40 MLOAD PUSH2 0x3B6 SWAP2 SWAP1 PUSH2 0x30DD JUMP JUMPDEST PUSH1 0x40 MLOAD DUP1 SWAP2 SUB SWAP1 RETURN JUMPDEST PUSH2 0x3D9 PUSH1 0x4 DUP1 CALLDATASIZE SUB DUP2 ADD SWAP1 PUSH2 0x3D4 SWAP2 SWAP1 PUSH2 0x2B10 JUMP JUMPDEST PUSH2 0x1616 JUMP JUMPDEST PUSH1 0x40 MLOAD PUSH2 0x3E6 SWAP2 SWAP1 PUSH2 0x2FA7 JUMP JUMPDEST PUSH1 0x40 MLOAD DUP1 SWAP2 SUB SWAP1 RETURN JUMPDEST CALLVALUE DUP1 ISZERO PUSH2 0x3FB JUMPI PUSH1 0x0 DUP1 REVERT JUMPDEST POP PUSH2 0x416 PUSH1 0x4 DUP1 CALLDATASIZE SUB DUP2 ADD SWAP1 PUSH2 0x411 SWAP2 SWAP1 PUSH2 0x2A50 JUMP JUMPDEST PUSH2 0x1870 JUMP JUMPDEST PUSH1 0x40 MLOAD PUSH2 0x423 SWAP2 SWAP1 PUSH2 0x2F15 JUMP JUMPDEST PUSH1 0x40 MLOAD DUP1 SWAP2 SUB SWAP1 RETURN JUMPDEST CALLVALUE DUP1 ISZERO PUSH2 0x438 JUMPI PUSH1 0x0 DUP1 REVERT JUMPDEST POP PUSH2 0x453 PUSH1 0x4 DUP1 CALLDATASIZE SUB DUP2 ADD SWAP1 PUSH2 0x44E SWAP2 SWAP1 PUSH2 0x2952 JUMP JUMPDEST PUSH2 0x189E JUMP JUMPDEST PUSH1 0x40 MLOAD PUSH2 0x460 SWAP2 SWAP1 PUSH2 0x2FA7 JUMP JUMPDEST PUSH1 0x40 MLOAD DUP1 SWAP2 SUB SWAP1 RETURN JUMPDEST CALLVALUE DUP1 ISZERO PUSH2 0x475 JUMPI PUSH1 0x0 DUP1 REVERT JUMPDEST POP PUSH2 0x47E PUSH2 0x18CC JUMP JUMPDEST PUSH1 0x40 MLOAD PUSH2 0x48B SWAP2 SWAP1 PUSH2 0x30DD JUMP JUMPDEST PUSH1 0x40 MLOAD DUP1 SWAP2 SUB SWAP1 RETURN JUMPDEST CALLVALUE DUP1 ISZERO PUSH2 0x4A0 JUMPI PUSH1 0x0 DUP1 REVERT JUMPDEST POP PUSH2 0x4BB PUSH1 0x4 DUP1 CALLDATASIZE SUB DUP2 ADD SWAP1 PUSH2 0x4B6 SWAP2 SWAP1 PUSH2 0x28F8 JUMP JUMPDEST PUSH2 0x18D2 JUMP JUMPDEST PUSH1 0x40 MLOAD PUSH2 0x4C8 SWAP2 SWAP1 PUSH2 0x2FA7 JUMP JUMPDEST PUSH1 0x40 MLOAD DUP1 SWAP2 SUB SWAP1 RETURN JUMPDEST CALLVALUE DUP1 ISZERO PUSH2 0x4DD JUMPI PUSH1 0x0 DUP1 REVERT JUMPDEST POP PUSH2 0x4F8 PUSH1 0x4 DUP1 CALLDATASIZE SUB DUP2 ADD SWAP1 PUSH2 0x4F3 SWAP2 SWAP1 PUSH2 0x2ABD JUMP JUMPDEST PUSH2 0x1905 JUMP JUMPDEST PUSH1 0x40 MLOAD PUSH2 0x505 SWAP2 SWAP1 PUSH2 0x2FA7 JUMP JUMPDEST PUSH1 0x40 MLOAD DUP1 SWAP2 SUB SWAP1 RETURN JUMPDEST CALLVALUE DUP1 ISZERO PUSH2 0x51A JUMPI PUSH1 0x0 DUP1 REVERT JUMPDEST POP PUSH2 0x523 PUSH2 0x2044 JUMP JUMPDEST STOP JUMPDEST CALLVALUE DUP1 ISZERO PUSH2 0x531 JUMPI PUSH1 0x0 DUP1 REVERT JUMPDEST POP PUSH2 0x54C PUSH1 0x4 DUP1 CALLDATASIZE SUB DUP2 ADD SWAP1 PUSH2 0x547 SWAP2 SWAP1 PUSH2 0x2A90 JUMP JUMPDEST PUSH2 0x2070 JUMP JUMPDEST PUSH1 0x40 MLOAD PUSH2 0x561 SWAP10 SWAP9 SWAP8 SWAP7 SWAP6 SWAP5 SWAP4 SWAP3 SWAP2 SWAP1 PUSH2 0x30F8 JUMP JUMPDEST PUSH1 0x40 MLOAD DUP1 SWAP2 SUB SWAP1 RETURN JUMPDEST CALLVALUE DUP1 ISZERO PUSH2 0x576 JUMPI PUSH1 0x0 DUP1 REVERT JUMPDEST POP PUSH2 0x57F PUSH2 0x2216 JUMP JUMPDEST PUSH1 0x40 MLOAD PUSH2 0x58C SWAP2 SWAP1 PUSH2 0x2FC2 JUMP JUMPDEST PUSH1 0x40 MLOAD DUP1 SWAP2 SUB SWAP1 RETURN JUMPDEST CALLVALUE DUP1 ISZERO PUSH2 0x5A1 JUMPI PUSH1 0x0 DUP1 REVERT JUMPDEST POP PUSH2 0x5BC PUSH1 0x4 DUP1 CALLDATASIZE SUB DUP2 ADD SWAP1 PUSH2 0x5B7 SWAP2 SWAP1 PUSH2 0x2925 JUMP JUMPDEST PUSH2 0x223A JUMP JUMPDEST PUSH1 0x40 MLOAD PUSH2 0x5C9 SWAP2 SWAP1 PUSH2 0x30DD JUMP JUMPDEST PUSH1 0x40 MLOAD DUP1 SWAP2 SUB SWAP1 RETURN JUMPDEST CALLVALUE DUP1 ISZERO PUSH2 0x5DE JUMPI PUSH1 0x0 DUP1 REVERT JUMPDEST POP PUSH2 0x5F9 PUSH1 0x4 DUP1 CALLDATASIZE SUB DUP2 ADD SWAP1 PUSH2 0x5F4 SWAP2 SWAP1 PUSH2 0x28F8 JUMP JUMPDEST PUSH2 0x225D JUMP JUMPDEST STOP JUMPDEST CALLVALUE DUP1 ISZERO PUSH2 0x607 JUMPI PUSH1 0x0 DUP1 REVERT JUMPDEST POP PUSH2 0x610 PUSH2 0x22CB JUMP JUMPDEST PUSH1 0x40 MLOAD PUSH2 0x61D SWAP2 SWAP1 PUSH2 0x2FC2 JUMP JUMPDEST PUSH1 0x40 MLOAD DUP1 SWAP2 SUB SWAP1 RETURN JUMPDEST PUSH2 0x650 PUSH32 0x52454E5445520000000000000000000000000000000000000000000000000000 DUP3 PUSH2 0x22EF JUMP JUMPDEST POP JUMP JUMPDEST PUSH1 0x0 PUSH2 0x65E CALLER PUSH2 0x9F1 JUMP JUMPDEST PUSH2 0x69D JUMPI PUSH1 0x40 MLOAD PUSH32 0x8C379A000000000000000000000000000000000000000000000000000000000 DUP2 MSTORE PUSH1 0x4 ADD PUSH2 0x694 SWAP1 PUSH2 0x303D JUMP JUMPDEST PUSH1 0x40 MLOAD DUP1 SWAP2 SUB SWAP1 REVERT JUMPDEST PUSH1 0x1 PUSH1 0x3 SLOAD PUSH2 0x6AC SWAP2 SWAP1 PUSH2 0x320F JUMP JUMPDEST PUSH1 0x6 DUP1 SLOAD SWAP1 POP LT PUSH2 0x6F2 JUMPI PUSH1 0x40 MLOAD PUSH32 0x8C379A000000000000000000000000000000000000000000000000000000000 DUP2 MSTORE PUSH1 0x4 ADD PUSH2 0x6E9 SWAP1 PUSH2 0x2FFD JUMP JUMPDEST PUSH1 0x40 MLOAD DUP1 SWAP2 SUB SWAP1 REVERT JUMPDEST PUSH1 0x3 PUSH1 0x0 DUP2 SLOAD DUP1 SWAP3 SWAP2 SWAP1 PUSH2 0x705 SWAP1 PUSH2 0x3459 JUMP JUMPDEST SWAP2 SWAP1 POP SSTORE POP PUSH1 0x0 PUSH1 0x40 MLOAD DUP1 PUSH2 0x120 ADD PUSH1 0x40 MSTORE DUP1 PUSH1 0x3 SLOAD DUP2 MSTORE PUSH1 0x20 ADD DUP11 DUP2 MSTORE PUSH1 0x20 ADD DUP10 DUP2 MSTORE PUSH1 0x20 ADD DUP9 PUSH1 0x6 DUP2 GT ISZERO PUSH2 0x73F JUMPI PUSH2 0x73E PUSH2 0x34D1 JUMP JUMPDEST JUMPDEST DUP2 MSTORE PUSH1 0x20 ADD DUP8 DUP2 MSTORE PUSH1 0x20 ADD DUP7 DUP2 MSTORE PUSH1 0x20 ADD DUP6 DUP2 MSTORE PUSH1 0x20 ADD DUP5 DUP2 MSTORE PUSH1 0x20 ADD PUSH1 0x0 PUSH1 0x1 DUP2 GT ISZERO PUSH2 0x770 JUMPI PUSH2 0x76F PUSH2 0x34D1 JUMP JUMPDEST JUMPDEST DUP2 MSTORE POP SWAP1 POP DUP1 PUSH1 0x5 PUSH1 0x0 PUSH1 0x3 SLOAD DUP2 MSTORE PUSH1 0x20 ADD SWAP1 DUP2 MSTORE PUSH1 0x20 ADD PUSH1 0x0 KECCAK256 PUSH1 0x0 DUP3 ADD MLOAD DUP2 PUSH1 0x0 ADD SSTORE PUSH1 0x20 DUP3 ADD MLOAD DUP2 PUSH1 0x1 ADD SSTORE PUSH1 0x40 DUP3 ADD MLOAD DUP2 PUSH1 0x2 ADD SSTORE PUSH1 0x60 DUP3 ADD MLOAD DUP2 PUSH1 0x3 ADD PUSH1 0x0 PUSH2 0x100 EXP DUP2 SLOAD DUP2 PUSH1 0xFF MUL NOT AND SWAP1 DUP4 PUSH1 0x6 DUP2 GT ISZERO PUSH2 0x7D4 JUMPI PUSH2 0x7D3 PUSH2 0x34D1 JUMP JUMPDEST JUMPDEST MUL OR SWAP1 SSTORE POP PUSH1 0x80 DUP3 ADD MLOAD DUP2 PUSH1 0x4 ADD PUSH1 0x0 DUP3 ADD MLOAD DUP2 PUSH1 0x0 ADD SWAP1 DUP1 MLOAD SWAP1 PUSH1 0x20 ADD SWAP1 PUSH2 0x7FE SWAP3 SWAP2 SWAP1 PUSH2 0x26B9 JUMP JUMPDEST POP PUSH1 0x20 DUP3 ADD MLOAD DUP2 PUSH1 0x1 ADD SWAP1 DUP1 MLOAD SWAP1 PUSH1 0x20 ADD SWAP1 PUSH2 0x81B SWAP3 SWAP2 SWAP1 PUSH2 0x26B9 JUMP JUMPDEST POP POP POP PUSH1 0xA0 DUP3 ADD MLOAD DUP2 PUSH1 0x6 ADD SSTORE PUSH1 0xC0 DUP3 ADD MLOAD DUP2 PUSH1 0x7 ADD SSTORE PUSH1 0xE0 DUP3 ADD MLOAD DUP2 PUSH1 0x8 ADD SSTORE PUSH2 0x100 DUP3 ADD MLOAD DUP2 PUSH1 0x9 ADD PUSH1 0x0 PUSH2 0x100 EXP DUP2 SLOAD DUP2 PUSH1 0xFF MUL NOT AND SWAP1 DUP4 PUSH1 0x1 DUP2 GT ISZERO PUSH2 0x868 JUMPI PUSH2 0x867 PUSH2 0x34D1 JUMP JUMPDEST JUMPDEST MUL OR SWAP1 SSTORE POP SWAP1 POP POP PUSH1 0x6 DUP2 SWAP1 DUP1 PUSH1 0x1 DUP2 SLOAD ADD DUP1 DUP3 SSTORE DUP1 SWAP2 POP POP PUSH1 0x1 SWAP1 SUB SWAP1 PUSH1 0x0 MSTORE PUSH1 0x20 PUSH1 0x0 KECCAK256 SWAP1 PUSH1 0xA MUL ADD PUSH1 0x0 SWAP1 SWAP2 SWAP1 SWAP2 SWAP1 SWAP2 POP PUSH1 0x0 DUP3 ADD MLOAD DUP2 PUSH1 0x0 ADD SSTORE PUSH1 0x20 DUP3 ADD MLOAD DUP2 PUSH1 0x1 ADD SSTORE PUSH1 0x40 DUP3 ADD MLOAD DUP2 PUSH1 0x2 ADD SSTORE PUSH1 0x60 DUP3 ADD MLOAD DUP2 PUSH1 0x3 ADD PUSH1 0x0 PUSH2 0x100 EXP DUP2 SLOAD DUP2 PUSH1 0xFF MUL NOT AND SWAP1 DUP4 PUSH1 0x6 DUP2 GT ISZERO PUSH2 0x8E5 JUMPI PUSH2 0x8E4 PUSH2 0x34D1 JUMP JUMPDEST JUMPDEST MUL OR SWAP1 SSTORE POP PUSH1 0x80 DUP3 ADD MLOAD DUP2 PUSH1 0x4 ADD PUSH1 0x0 DUP3 ADD MLOAD DUP2 PUSH1 0x0 ADD SWAP1 DUP1 MLOAD SWAP1 PUSH1 0x20 ADD SWAP1 PUSH2 0x90F SWAP3 SWAP2 SWAP1 PUSH2 0x26B9 JUMP JUMPDEST POP PUSH1 0x20 DUP3 ADD MLOAD DUP2 PUSH1 0x1 ADD SWAP1 DUP1 MLOAD SWAP1 PUSH1 0x20 ADD SWAP1 PUSH2 0x92C SWAP3 SWAP2 SWAP1 PUSH2 0x26B9 JUMP JUMPDEST POP POP POP PUSH1 0xA0 DUP3 ADD MLOAD DUP2 PUSH1 0x6 ADD SSTORE PUSH1 0xC0 DUP3 ADD MLOAD DUP2 PUSH1 0x7 ADD SSTORE PUSH1 0xE0 DUP3 ADD MLOAD DUP2 PUSH1 0x8 ADD SSTORE PUSH2 0x100 DUP3 ADD MLOAD DUP2 PUSH1 0x9 ADD PUSH1 0x0 PUSH2 0x100 EXP DUP2 SLOAD DUP2 PUSH1 0xFF MUL NOT AND SWAP1 DUP4 PUSH1 0x1 DUP2 GT ISZERO PUSH2 0x979 JUMPI PUSH2 0x978 PUSH2 0x34D1 JUMP JUMPDEST JUMPDEST MUL OR SWAP1 SSTORE POP POP POP PUSH1 0x3 SLOAD PUSH1 0x6 DUP1 SLOAD SWAP1 POP EQ SWAP2 POP POP SWAP8 SWAP7 POP POP POP POP POP POP POP JUMP JUMPDEST PUSH2 0x9C2 PUSH32 0x4F574E4552000000000000000000000000000000000000000000000000000000 DUP3 PUSH2 0x22EF JUMP JUMPDEST POP JUMP JUMPDEST PUSH2 0x9EF PUSH32 0x4F574E4552000000000000000000000000000000000000000000000000000000 CALLER PUSH2 0x22EF JUMP JUMPDEST JUMP JUMPDEST PUSH1 0x0 PUSH2 0xA1D PUSH32 0x4F574E4552000000000000000000000000000000000000000000000000000000 DUP4 PUSH2 0x189E JUMP JUMPDEST SWAP1 POP SWAP2 SWAP1 POP JUMP JUMPDEST PUSH1 0x0 PUSH2 0xA2F CALLER PUSH2 0x18D2 JUMP JUMPDEST PUSH2 0xA6E JUMPI PUSH1 0x40 MLOAD PUSH32 0x8C379A000000000000000000000000000000000000000000000000000000000 DUP2 MSTORE PUSH1 0x4 ADD PUSH2 0xA65 SWAP1 PUSH2 0x309D JUMP JUMPDEST PUSH1 0x40 MLOAD DUP1 SWAP2 SUB SWAP1 REVERT JUMPDEST DUP4 PUSH1 0x0 PUSH1 0x1 DUP2 GT ISZERO PUSH2 0xA83 JUMPI PUSH2 0xA82 PUSH2 0x34D1 JUMP JUMPDEST JUMPDEST PUSH1 0x5 PUSH1 0x0 DUP4 DUP2 MSTORE PUSH1 0x20 ADD SWAP1 DUP2 MSTORE PUSH1 0x20 ADD PUSH1 0x0 KECCAK256 PUSH1 0x9 ADD PUSH1 0x0 SWAP1 SLOAD SWAP1 PUSH2 0x100 EXP SWAP1 DIV PUSH1 0xFF AND PUSH1 0x1 DUP2 GT ISZERO PUSH2 0xAB9 JUMPI PUSH2 0xAB8 PUSH2 0x34D1 JUMP JUMPDEST JUMPDEST EQ PUSH2 0xAF9 JUMPI PUSH1 0x40 MLOAD PUSH32 0x8C379A000000000000000000000000000000000000000000000000000000000 DUP2 MSTORE PUSH1 0x4 ADD PUSH2 0xAF0 SWAP1 PUSH2 0x305D JUMP JUMPDEST PUSH1 0x40 MLOAD DUP1 SWAP2 SUB SWAP1 REVERT JUMPDEST DUP4 PUSH1 0x0 PUSH20 0xFFFFFFFFFFFFFFFFFFFFFFFFFFFFFFFFFFFFFFFF AND PUSH1 0x7 PUSH1 0x0 DUP4 DUP2 MSTORE PUSH1 0x20 ADD SWAP1 DUP2 MSTORE PUSH1 0x20 ADD PUSH1 0x0 KECCAK256 PUSH1 0x0 ADD PUSH1 0x0 SWAP1 SLOAD SWAP1 PUSH2 0x100 EXP SWAP1 DIV PUSH20 0xFFFFFFFFFFFFFFFFFFFFFFFFFFFFFFFFFFFFFFFF AND PUSH20 0xFFFFFFFFFFFFFFFFFFFFFFFFFFFFFFFFFFFFFFFF AND EQ ISZERO PUSH2 0xBA0 JUMPI PUSH1 0x40 MLOAD PUSH32 0x8C379A000000000000000000000000000000000000000000000000000000000 DUP2 MSTORE PUSH1 0x4 ADD PUSH2 0xB97 SWAP1 PUSH2 0x307D JUMP JUMPDEST PUSH1 0x40 MLOAD DUP1 SWAP2 SUB SWAP1 REVERT JUMPDEST DUP4 PUSH1 0x7 PUSH1 0x0 DUP8 DUP2 MSTORE PUSH1 0x20 ADD SWAP1 DUP2 MSTORE PUSH1 0x20 ADD PUSH1 0x0 KECCAK256 PUSH1 0xE ADD DUP2 SWAP1 SSTORE POP PUSH1 0x4 SLOAD PUSH1 0x8 DUP1 SLOAD SWAP1 POP EQ SWAP3 POP POP POP SWAP4 SWAP3 POP POP POP JUMP JUMPDEST PUSH1 0x8 DUP2 DUP2 SLOAD DUP2 LT PUSH2 0xBE0 JUMPI PUSH1 0x0 DUP1 REVERT JUMPDEST SWAP1 PUSH1 0x0 MSTORE PUSH1 0x20 PUSH1 0x0 KECCAK256 SWAP1 PUSH1 0x11 MUL ADD PUSH1 0x0 SWAP2 POP SWAP1 POP DUP1 PUSH1 0x0 ADD PUSH1 0x0 SWAP1 SLOAD SWAP1 PUSH2 0x100 EXP SWAP1 DIV PUSH20 0xFFFFFFFFFFFFFFFFFFFFFFFFFFFFFFFFFFFFFFFF AND SWAP1 DUP1 PUSH1 0x1 ADD PUSH1 0x40 MLOAD DUP1 PUSH2 0x120 ADD PUSH1 0x40 MSTORE SWAP1 DUP2 PUSH1 0x0 DUP3 ADD SLOAD DUP2 MSTORE PUSH1 0x20 ADD PUSH1 0x1 DUP3 ADD SLOAD DUP2 MSTORE PUSH1 0x20 ADD PUSH1 0x2 DUP3 ADD SLOAD DUP2 MSTORE PUSH1 0x20 ADD PUSH1 0x3 DUP3 ADD PUSH1 0x0 SWAP1 SLOAD SWAP1 PUSH2 0x100 EXP SWAP1 DIV PUSH1 0xFF AND PUSH1 0x6 DUP2 GT ISZERO PUSH2 0xC6D JUMPI PUSH2 0xC6C PUSH2 0x34D1 JUMP JUMPDEST JUMPDEST PUSH1 0x6 DUP2 GT ISZERO PUSH2 0xC7F JUMPI PUSH2 0xC7E PUSH2 0x34D1 JUMP JUMPDEST JUMPDEST DUP2 MSTORE PUSH1 0x20 ADD PUSH1 0x4 DUP3 ADD PUSH1 0x40 MLOAD DUP1 PUSH1 0x40 ADD PUSH1 0x40 MSTORE SWAP1 DUP2 PUSH1 0x0 DUP3 ADD DUP1 SLOAD PUSH2 0xCA3 SWAP1 PUSH2 0x33F6 JUMP JUMPDEST DUP1 PUSH1 0x1F ADD PUSH1 0x20 DUP1 SWAP2 DIV MUL PUSH1 0x20 ADD PUSH1 0x40 MLOAD SWAP1 DUP2 ADD PUSH1 0x40 MSTORE DUP1 SWAP3 SWAP2 SWAP1 DUP2 DUP2 MSTORE PUSH1 0x20 ADD DUP3 DUP1 SLOAD PUSH2 0xCCF SWAP1 PUSH2 0x33F6 JUMP JUMPDEST DUP1 ISZERO PUSH2 0xD1C JUMPI DUP1 PUSH1 0x1F LT PUSH2 0xCF1 JUMPI PUSH2 0x100 DUP1 DUP4 SLOAD DIV MUL DUP4 MSTORE SWAP2 PUSH1 0x20 ADD SWAP2 PUSH2 0xD1C JUMP JUMPDEST DUP3 ADD SWAP2 SWAP1 PUSH1 0x0 MSTORE PUSH1 0x20 PUSH1 0x0 KECCAK256 SWAP1 JUMPDEST DUP2 SLOAD DUP2 MSTORE SWAP1 PUSH1 0x1 ADD SWAP1 PUSH1 0x20 ADD DUP1 DUP4 GT PUSH2 0xCFF JUMPI DUP3 SWAP1 SUB PUSH1 0x1F AND DUP3 ADD SWAP2 JUMPDEST POP POP POP POP POP DUP2 MSTORE PUSH1 0x20 ADD PUSH1 0x1 DUP3 ADD DUP1 SLOAD PUSH2 0xD35 SWAP1 PUSH2 0x33F6 JUMP JUMPDEST DUP1 PUSH1 0x1F ADD PUSH1 0x20 DUP1 SWAP2 DIV MUL PUSH1 0x20 ADD PUSH1 0x40 MLOAD SWAP1 DUP2 ADD PUSH1 0x40 MSTORE DUP1 SWAP3 SWAP2 SWAP1 DUP2 DUP2 MSTORE PUSH1 0x20 ADD DUP3 DUP1 SLOAD PUSH2 0xD61 SWAP1 PUSH2 0x33F6 JUMP JUMPDEST DUP1 ISZERO PUSH2 0xDAE JUMPI DUP1 PUSH1 0x1F LT PUSH2 0xD83 JUMPI PUSH2 0x100 DUP1 DUP4 SLOAD DIV MUL DUP4 MSTORE SWAP2 PUSH1 0x20 ADD SWAP2 PUSH2 0xDAE JUMP JUMPDEST DUP3 ADD SWAP2 SWAP1 PUSH1 0x0 MSTORE PUSH1 0x20 PUSH1 0x0 KECCAK256 SWAP1 JUMPDEST DUP2 SLOAD DUP2 MSTORE SWAP1 PUSH1 0x1 ADD SWAP1 PUSH1 0x20 ADD DUP1 DUP4 GT PUSH2 0xD91 JUMPI DUP3 SWAP1 SUB PUSH1 0x1F AND DUP3 ADD SWAP2 JUMPDEST POP POP POP POP POP DUP2 MSTORE POP POP DUP2 MSTORE PUSH1 0x20 ADD PUSH1 0x6 DUP3 ADD SLOAD DUP2 MSTORE PUSH1 0x20 ADD PUSH1 0x7 DUP3 ADD SLOAD DUP2 MSTORE PUSH1 0x20 ADD PUSH1 0x8 DUP3 ADD SLOAD DUP2 MSTORE PUSH1 0x20 ADD PUSH1 0x9 DUP3 ADD PUSH1 0x0 SWAP1 SLOAD SWAP1 PUSH2 0x100 EXP SWAP1 DIV PUSH1 0xFF AND PUSH1 0x1 DUP2 GT ISZERO PUSH2 0xDFE JUMPI PUSH2 0xDFD PUSH2 0x34D1 JUMP JUMPDEST JUMPDEST PUSH1 0x1 DUP2 GT ISZERO PUSH2 0xE10 JUMPI PUSH2 0xE0F PUSH2 0x34D1 JUMP JUMPDEST JUMPDEST DUP2 MSTORE POP POP SWAP1 DUP1 PUSH1 0xB ADD PUSH1 0x40 MLOAD DUP1 PUSH1 0x40 ADD PUSH1 0x40 MSTORE SWAP1 DUP2 PUSH1 0x0 DUP3 ADD SLOAD DUP2 MSTORE PUSH1 0x20 ADD PUSH1 0x1 DUP3 ADD SLOAD DUP2 MSTORE POP POP SWAP1 DUP1 PUSH1 0xD ADD SLOAD SWAP1 DUP1 PUSH1 0xE ADD SLOAD SWAP1 DUP1 PUSH1 0xF ADD SLOAD SWAP1 DUP1 PUSH1 0x10 ADD PUSH1 0x0 SWAP1 SLOAD SWAP1 PUSH2 0x100 EXP SWAP1 DIV PUSH1 0xFF AND SWAP1 POP DUP8 JUMP JUMPDEST PUSH1 0x5 PUSH1 0x20 MSTORE DUP1 PUSH1 0x0 MSTORE PUSH1 0x40 PUSH1 0x0 KECCAK256 PUSH1 0x0 SWAP2 POP SWAP1 POP DUP1 PUSH1 0x0 ADD SLOAD SWAP1 DUP1 PUSH1 0x1 ADD SLOAD SWAP1 DUP1 PUSH1 0x2 ADD SLOAD SWAP1 DUP1 PUSH1 0x3 ADD PUSH1 0x0 SWAP1 SLOAD SWAP1 PUSH2 0x100 EXP SWAP1 DIV PUSH1 0xFF AND SWAP1 DUP1 PUSH1 0x4 ADD PUSH1 0x40 MLOAD DUP1 PUSH1 0x40 ADD PUSH1 0x40 MSTORE SWAP1 DUP2 PUSH1 0x0 DUP3 ADD DUP1 SLOAD PUSH2 0xEBA SWAP1 PUSH2 0x33F6 JUMP JUMPDEST DUP1 PUSH1 0x1F ADD PUSH1 0x20 DUP1 SWAP2 DIV MUL PUSH1 0x20 ADD PUSH1 0x40 MLOAD SWAP1 DUP2 ADD PUSH1 0x40 MSTORE DUP1 SWAP3 SWAP2 SWAP1 DUP2 DUP2 MSTORE PUSH1 0x20 ADD DUP3 DUP1 SLOAD PUSH2 0xEE6 SWAP1 PUSH2 0x33F6 JUMP JUMPDEST DUP1 ISZERO PUSH2 0xF33 JUMPI DUP1 PUSH1 0x1F LT PUSH2 0xF08 JUMPI PUSH2 0x100 DUP1 DUP4 SLOAD DIV MUL DUP4 MSTORE SWAP2 PUSH1 0x20 ADD SWAP2 PUSH2 0xF33 JUMP JUMPDEST DUP3 ADD SWAP2 SWAP1 PUSH1 0x0 MSTORE PUSH1 0x20 PUSH1 0x0 KECCAK256 SWAP1 JUMPDEST DUP2 SLOAD DUP2 MSTORE SWAP1 PUSH1 0x1 ADD SWAP1 PUSH1 0x20 ADD DUP1 DUP4 GT PUSH2 0xF16 JUMPI DUP3 SWAP1 SUB PUSH1 0x1F AND DUP3 ADD SWAP2 JUMPDEST POP POP POP POP POP DUP2 MSTORE PUSH1 0x20 ADD PUSH1 0x1 DUP3 ADD DUP1 SLOAD PUSH2 0xF4C SWAP1 PUSH2 0x33F6 JUMP JUMPDEST DUP1 PUSH1 0x1F ADD PUSH1 0x20 DUP1 SWAP2 DIV MUL PUSH1 0x20 ADD PUSH1 0x40 MLOAD SWAP1 DUP2 ADD PUSH1 0x40 MSTORE DUP1 SWAP3 SWAP2 SWAP1 DUP2 DUP2 MSTORE PUSH1 0x20 ADD DUP3 DUP1 SLOAD PUSH2 0xF78 SWAP1 PUSH2 0x33F6 JUMP JUMPDEST DUP1 ISZERO PUSH2 0xFC5 JUMPI DUP1 PUSH1 0x1F LT PUSH2 0xF9A JUMPI PUSH2 0x100 DUP1 DUP4 SLOAD DIV MUL DUP4 MSTORE SWAP2 PUSH1 0x20 ADD SWAP2 PUSH2 0xFC5 JUMP JUMPDEST DUP3 ADD SWAP2 SWAP1 PUSH1 0x0 MSTORE PUSH1 0x20 PUSH1 0x0 KECCAK256 SWAP1 JUMPDEST DUP2 SLOAD DUP2 MSTORE SWAP1 PUSH1 0x1 ADD SWAP1 PUSH1 0x20 ADD DUP1 DUP4 GT PUSH2 0xFA8 JUMPI DUP3 SWAP1 SUB PUSH1 0x1F AND DUP3 ADD SWAP2 JUMPDEST POP POP POP POP POP DUP2 MSTORE POP POP SWAP1 DUP1 PUSH1 0x6 ADD SLOAD SWAP1 DUP1 PUSH1 0x7 ADD SLOAD SWAP1 DUP1 PUSH1 0x8 ADD SLOAD SWAP1 DUP1 PUSH1 0x9 ADD PUSH1 0x0 SWAP1 SLOAD SWAP1 PUSH2 0x100 EXP SWAP1 DIV PUSH1 0xFF AND SWAP1 POP DUP10 JUMP JUMPDEST DUP1 PUSH1 0x2 PUSH1 0x0 PUSH2 0x100 EXP DUP2 SLOAD DUP2 PUSH20 0xFFFFFFFFFFFFFFFFFFFFFFFFFFFFFFFFFFFFFFFF MUL NOT AND SWAP1 DUP4 PUSH20 0xFFFFFFFFFFFFFFFFFFFFFFFFFFFFFFFFFFFFFFFF AND MUL OR SWAP1 SSTORE POP PUSH2 0x1063 PUSH32 0x4F574E4552000000000000000000000000000000000000000000000000000000 DUP3 PUSH2 0x237F JUMP JUMPDEST POP JUMP JUMPDEST PUSH1 0x0 PUSH2 0x1071 CALLER PUSH2 0x9F1 JUMP JUMPDEST PUSH2 0x10B0 JUMPI PUSH1 0x40 MLOAD PUSH32 0x8C379A000000000000000000000000000000000000000000000000000000000 DUP2 MSTORE PUSH1 0x4 ADD PUSH2 0x10A7 SWAP1 PUSH2 0x303D JUMP JUMPDEST PUSH1 0x40 MLOAD DUP1 SWAP2 SUB SWAP1 REVERT JUMPDEST DUP2 PUSH1 0x0 PUSH1 0x5 PUSH1 0x0 DUP4 DUP2 MSTORE PUSH1 0x20 ADD SWAP1 DUP2 MSTORE PUSH1 0x20 ADD PUSH1 0x0 KECCAK256 PUSH1 0x0 ADD SLOAD GT PUSH2 0x110A JUMPI PUSH1 0x40 MLOAD PUSH32 0x8C379A000000000000000000000000000000000000000000000000000000000 DUP2 MSTORE PUSH1 0x4 ADD PUSH2 0x1101 SWAP1 PUSH2 0x30BD JUMP JUMPDEST PUSH1 0x40 MLOAD DUP1 SWAP2 SUB SWAP1 REVERT JUMPDEST DUP3 PUSH1 0x0 PUSH1 0x1 DUP2 GT ISZERO PUSH2 0x111F JUMPI PUSH2 0x111E PUSH2 0x34D1 JUMP JUMPDEST JUMPDEST PUSH1 0x5 PUSH1 0x0 DUP4 DUP2 MSTORE PUSH1 0x20 ADD SWAP1 DUP2 MSTORE PUSH1 0x20 ADD PUSH1 0x0 KECCAK256 PUSH1 0x9 ADD PUSH1 0x0 SWAP1 SLOAD SWAP1 PUSH2 0x100 EXP SWAP1 DIV PUSH1 0xFF AND PUSH1 0x1 DUP2 GT ISZERO PUSH2 0x1155 JUMPI PUSH2 0x1154 PUSH2 0x34D1 JUMP JUMPDEST JUMPDEST EQ PUSH2 0x1195 JUMPI PUSH1 0x40 MLOAD PUSH32 0x8C379A000000000000000000000000000000000000000000000000000000000 DUP2 MSTORE PUSH1 0x4 ADD PUSH2 0x118C SWAP1 PUSH2 0x305D JUMP JUMPDEST PUSH1 0x40 MLOAD DUP1 SWAP2 SUB SWAP1 REVERT JUMPDEST DUP5 PUSH1 0x0 PUSH20 0xFFFFFFFFFFFFFFFFFFFFFFFFFFFFFFFFFFFFFFFF AND PUSH1 0x7 PUSH1 0x0 DUP4 DUP2 MSTORE PUSH1 0x20 ADD SWAP1 DUP2 MSTORE PUSH1 0x20 ADD PUSH1 0x0 KECCAK256 PUSH1 0x0 ADD PUSH1 0x0 SWAP1 SLOAD SWAP1 PUSH2 0x100 EXP SWAP1 DIV PUSH20 0xFFFFFFFFFFFFFFFFFFFFFFFFFFFFFFFFFFFFFFFF AND PUSH20 0xFFFFFFFFFFFFFFFFFFFFFFFFFFFFFFFFFFFFFFFF AND EQ ISZERO PUSH2 0x123C JUMPI PUSH1 0x40 MLOAD PUSH32 0x8C379A000000000000000000000000000000000000000000000000000000000 DUP2 MSTORE PUSH1 0x4 ADD PUSH2 0x1233 SWAP1 PUSH2 0x307D JUMP JUMPDEST PUSH1 0x40 MLOAD DUP1 SWAP2 SUB SWAP1 REVERT JUMPDEST DUP6 PUSH1 0x0 PUSH1 0x7 PUSH1 0x0 DUP4 DUP2 MSTORE PUSH1 0x20 ADD SWAP1 DUP2 MSTORE PUSH1 0x20 ADD PUSH1 0x0 KECCAK256 PUSH1 0xD ADD SLOAD PUSH1 0x7 PUSH1 0x0 DUP5 DUP2 MSTORE PUSH1 0x20 ADD SWAP1 DUP2 MSTORE PUSH1 0x20 ADD PUSH1 0x0 KECCAK256 PUSH1 0xE ADD SLOAD PUSH2 0x1277 SWAP2 SWAP1 PUSH2 0x320F JUMP JUMPDEST SWAP1 POP DUP1 CALLVALUE LT ISZERO PUSH2 0x12BC JUMPI PUSH1 0x40 MLOAD PUSH32 0x8C379A000000000000000000000000000000000000000000000000000000000 DUP2 MSTORE PUSH1 0x4 ADD PUSH2 0x12B3 SWAP1 PUSH2 0x301D JUMP JUMPDEST PUSH1 0x40 MLOAD DUP1 SWAP2 SUB SWAP1 REVERT JUMPDEST PUSH1 0x1 PUSH1 0x7 PUSH1 0x0 DUP11 DUP2 MSTORE PUSH1 0x20 ADD SWAP1 DUP2 MSTORE PUSH1 0x20 ADD PUSH1 0x0 KECCAK256 PUSH1 0x10 ADD PUSH1 0x0 PUSH2 0x100 EXP DUP2 SLOAD DUP2 PUSH1 0xFF MUL NOT AND SWAP1 DUP4 PUSH1 0x2 DUP2 GT ISZERO PUSH2 0x12F6 JUMPI PUSH2 0x12F5 PUSH2 0x34D1 JUMP JUMPDEST JUMPDEST MUL OR SWAP1 SSTORE POP PUSH1 0x1 PUSH1 0x5 PUSH1 0x0 DUP10 DUP2 MSTORE PUSH1 0x20 ADD SWAP1 DUP2 MSTORE PUSH1 0x20 ADD PUSH1 0x0 KECCAK256 PUSH1 0x9 ADD PUSH1 0x0 PUSH2 0x100 EXP DUP2 SLOAD DUP2 PUSH1 0xFF MUL NOT AND SWAP1 DUP4 PUSH1 0x1 DUP2 GT ISZERO PUSH2 0x1335 JUMPI PUSH2 0x1334 PUSH2 0x34D1 JUMP JUMPDEST JUMPDEST MUL OR SWAP1 SSTORE POP PUSH1 0x0 PUSH1 0x7 PUSH1 0x0 DUP11 DUP2 MSTORE PUSH1 0x20 ADD SWAP1 DUP2 MSTORE PUSH1 0x20 ADD PUSH1 0x0 KECCAK256 PUSH1 0xE ADD SLOAD PUSH1 0x7 PUSH1 0x0 DUP12 DUP2 MSTORE PUSH1 0x20 ADD SWAP1 DUP2 MSTORE PUSH1 0x20 ADD PUSH1 0x0 KECCAK256 PUSH1 0xD ADD SLOAD PUSH2 0x1374 SWAP2 SWAP1 PUSH2 0x320F JUMP JUMPDEST SWAP1 POP PUSH1 0x4 SLOAD PUSH1 0x8 DUP1 SLOAD SWAP1 POP EQ SWAP7 POP POP POP POP POP POP POP SWAP3 SWAP2 POP POP JUMP JUMPDEST PUSH1 0x7 PUSH1 0x20 MSTORE DUP1 PUSH1 0x0 MSTORE PUSH1 0x40 PUSH1 0x0 KECCAK256 PUSH1 0x0 SWAP2 POP SWAP1 POP DUP1 PUSH1 0x0 ADD PUSH1 0x0 SWAP1 SLOAD SWAP1 PUSH2 0x100 EXP SWAP1 DIV PUSH20 0xFFFFFFFFFFFFFFFFFFFFFFFFFFFFFFFFFFFFFFFF AND SWAP1 DUP1 PUSH1 0x1 ADD PUSH1 0x40 MLOAD DUP1 PUSH2 0x120 ADD PUSH1 0x40 MSTORE SWAP1 DUP2 PUSH1 0x0 DUP3 ADD SLOAD DUP2 MSTORE PUSH1 0x20 ADD PUSH1 0x1 DUP3 ADD SLOAD DUP2 MSTORE PUSH1 0x20 ADD PUSH1 0x2 DUP3 ADD SLOAD DUP2 MSTORE PUSH1 0x20 ADD PUSH1 0x3 DUP3 ADD PUSH1 0x0 SWAP1 SLOAD SWAP1 PUSH2 0x100 EXP SWAP1 DIV PUSH1 0xFF AND PUSH1 0x6 DUP2 GT ISZERO PUSH2 0x141B JUMPI PUSH2 0x141A PUSH2 0x34D1 JUMP JUMPDEST JUMPDEST PUSH1 0x6 DUP2 GT ISZERO PUSH2 0x142D JUMPI PUSH2 0x142C PUSH2 0x34D1 JUMP JUMPDEST JUMPDEST DUP2 MSTORE PUSH1 0x20 ADD PUSH1 0x4 DUP3 ADD PUSH1 0x40 MLOAD DUP1 PUSH1 0x40 ADD PUSH1 0x40 MSTORE SWAP1 DUP2 PUSH1 0x0 DUP3 ADD DUP1 SLOAD PUSH2 0x1451 SWAP1 PUSH2 0x33F6 JUMP JUMPDEST DUP1 PUSH1 0x1F ADD PUSH1 0x20 DUP1 SWAP2 DIV MUL PUSH1 0x20 ADD PUSH1 0x40 MLOAD SWAP1 DUP2 ADD PUSH1 0x40 MSTORE DUP1 SWAP3 SWAP2 SWAP1 DUP2 DUP2 MSTORE PUSH1 0x20 ADD DUP3 DUP1 SLOAD PUSH2 0x147D SWAP1 PUSH2 0x33F6 JUMP JUMPDEST DUP1 ISZERO PUSH2 0x14CA JUMPI DUP1 PUSH1 0x1F LT PUSH2 0x149F JUMPI PUSH2 0x100 DUP1 DUP4 SLOAD DIV MUL DUP4 MSTORE SWAP2 PUSH1 0x20 ADD SWAP2 PUSH2 0x14CA JUMP JUMPDEST DUP3 ADD SWAP2 SWAP1 PUSH1 0x0 MSTORE PUSH1 0x20 PUSH1 0x0 KECCAK256 SWAP1 JUMPDEST DUP2 SLOAD DUP2 MSTORE SWAP1 PUSH1 0x1 ADD SWAP1 PUSH1 0x20 ADD DUP1 DUP4 GT PUSH2 0x14AD JUMPI DUP3 SWAP1 SUB PUSH1 0x1F AND DUP3 ADD SWAP2 JUMPDEST POP POP POP POP POP DUP2 MSTORE PUSH1 0x20 ADD PUSH1 0x1 DUP3 ADD DUP1 SLOAD PUSH2 0x14E3 SWAP1 PUSH2 0x33F6 JUMP JUMPDEST DUP1 PUSH1 0x1F ADD PUSH1 0x20 DUP1 SWAP2 DIV MUL PUSH1 0x20 ADD PUSH1 0x40 MLOAD SWAP1 DUP2 ADD PUSH1 0x40 MSTORE DUP1 SWAP3 SWAP2 SWAP1 DUP2 DUP2 MSTORE PUSH1 0x20 ADD DUP3 DUP1 SLOAD PUSH2 0x150F SWAP1 PUSH2 0x33F6 JUMP JUMPDEST DUP1 ISZERO PUSH2 0x155C JUMPI DUP1 PUSH1 0x1F LT PUSH2 0x1531 JUMPI PUSH2 0x100 DUP1 DUP4 SLOAD DIV MUL DUP4 MSTORE SWAP2 PUSH1 0x20 ADD SWAP2 PUSH2 0x155C JUMP JUMPDEST DUP3 ADD SWAP2 SWAP1 PUSH1 0x0 MSTORE PUSH1 0x20 PUSH1 0x0 KECCAK256 SWAP1 JUMPDEST DUP2 SLOAD DUP2 MSTORE SWAP1 PUSH1 0x1 ADD SWAP1 PUSH1 0x20 ADD DUP1 DUP4 GT PUSH2 0x153F JUMPI DUP3 SWAP1 SUB PUSH1 0x1F AND DUP3 ADD SWAP2 JUMPDEST POP POP POP POP POP DUP2 MSTORE POP POP DUP2 MSTORE PUSH1 0x20 ADD PUSH1 0x6 DUP3 ADD SLOAD DUP2 MSTORE PUSH1 0x20 ADD PUSH1 0x7 DUP3 ADD SLOAD DUP2 MSTORE PUSH1 0x20 ADD PUSH1 0x8 DUP3 ADD SLOAD DUP2 MSTORE PUSH1 0x20 ADD PUSH1 0x9 DUP3 ADD PUSH1 0x0 SWAP1 SLOAD SWAP1 PUSH2 0x100 EXP SWAP1 DIV PUSH1 0xFF AND PUSH1 0x1 DUP2 GT ISZERO PUSH2 0x15AC JUMPI PUSH2 0x15AB PUSH2 0x34D1 JUMP JUMPDEST JUMPDEST PUSH1 0x1 DUP2 GT ISZERO PUSH2 0x15BE JUMPI PUSH2 0x15BD PUSH2 0x34D1 JUMP JUMPDEST JUMPDEST DUP2 MSTORE POP POP SWAP1 DUP1 PUSH1 0xB ADD PUSH1 0x40 MLOAD DUP1 PUSH1 0x40 ADD PUSH1 0x40 MSTORE SWAP1 DUP2 PUSH1 0x0 DUP3 ADD SLOAD DUP2 MSTORE PUSH1 0x20 ADD PUSH1 0x1 DUP3 ADD SLOAD DUP2 MSTORE POP POP SWAP1 DUP1 PUSH1 0xD ADD SLOAD SWAP1 DUP1 PUSH1 0xE ADD SLOAD SWAP1 DUP1 PUSH1 0xF ADD SLOAD SWAP1 DUP1 PUSH1 0x10 ADD PUSH1 0x0 SWAP1 SLOAD SWAP1 PUSH2 0x100 EXP SWAP1 DIV PUSH1 0xFF AND SWAP1 POP DUP8 JUMP JUMPDEST PUSH1 0x4 SLOAD DUP2 JUMP JUMPDEST PUSH1 0x0 PUSH2 0x1621 CALLER PUSH2 0x18D2 JUMP JUMPDEST PUSH2 0x1660 JUMPI PUSH1 0x40 MLOAD PUSH32 0x8C379A000000000000000000000000000000000000000000000000000000000 DUP2 MSTORE PUSH1 0x4 ADD PUSH2 0x1657 SWAP1 PUSH2 0x309D JUMP JUMPDEST PUSH1 0x40 MLOAD DUP1 SWAP2 SUB SWAP1 REVERT JUMPDEST DUP2 PUSH1 0x0 PUSH1 0x5 PUSH1 0x0 DUP4 DUP2 MSTORE PUSH1 0x20 ADD SWAP1 DUP2 MSTORE PUSH1 0x20 ADD PUSH1 0x0 KECCAK256 PUSH1 0x0 ADD SLOAD GT PUSH2 0x16BA JUMPI PUSH1 0x40 MLOAD PUSH32 0x8C379A000000000000000000000000000000000000000000000000000000000 DUP2 MSTORE PUSH1 0x4 ADD PUSH2 0x16B1 SWAP1 PUSH2 0x30BD JUMP JUMPDEST PUSH1 0x40 MLOAD DUP1 SWAP2 SUB SWAP1 REVERT JUMPDEST DUP4 PUSH1 0x0 PUSH20 0xFFFFFFFFFFFFFFFFFFFFFFFFFFFFFFFFFFFFFFFF AND PUSH1 0x7 PUSH1 0x0 DUP4 DUP2 MSTORE PUSH1 0x20 ADD SWAP1 DUP2 MSTORE PUSH1 0x20 ADD PUSH1 0x0 KECCAK256 PUSH1 0x0 ADD PUSH1 0x0 SWAP1 SLOAD SWAP1 PUSH2 0x100 EXP SWAP1 DIV PUSH20 0xFFFFFFFFFFFFFFFFFFFFFFFFFFFFFFFFFFFFFFFF AND PUSH20 0xFFFFFFFFFFFFFFFFFFFFFFFFFFFFFFFFFFFFFFFF AND EQ ISZERO PUSH2 0x1761 JUMPI PUSH1 0x40 MLOAD PUSH32 0x8C379A000000000000000000000000000000000000000000000000000000000 DUP2 MSTORE PUSH1 0x4 ADD PUSH2 0x1758 SWAP1 PUSH2 0x307D JUMP JUMPDEST PUSH1 0x40 MLOAD DUP1 SWAP2 SUB SWAP1 REVERT JUMPDEST DUP5 PUSH1 0x0 PUSH1 0x7 PUSH1 0x0 DUP4 DUP2 MSTORE PUSH1 0x20 ADD SWAP1 DUP2 MSTORE PUSH1 0x20 ADD PUSH1 0x0 KECCAK256 PUSH1 0xE ADD SLOAD SWAP1 POP DUP1 CALLVALUE LT ISZERO PUSH2 0x17C0 JUMPI PUSH1 0x40 MLOAD PUSH32 0x8C379A000000000000000000000000000000000000000000000000000000000 DUP2 MSTORE PUSH1 0x4 ADD PUSH2 0x17B7 SWAP1 PUSH2 0x301D JUMP JUMPDEST PUSH1 0x40 MLOAD DUP1 SWAP2 SUB SWAP1 REVERT JUMPDEST PUSH1 0x2 PUSH1 0x7 PUSH1 0x0 DUP10 DUP2 MSTORE PUSH1 0x20 ADD SWAP1 DUP2 MSTORE PUSH1 0x20 ADD PUSH1 0x0 KECCAK256 PUSH1 0x10 ADD PUSH1 0x0 PUSH2 0x100 EXP DUP2 SLOAD DUP2 PUSH1 0xFF MUL NOT AND SWAP1 DUP4 PUSH1 0x2 DUP2 GT ISZERO PUSH2 0x17FA JUMPI PUSH2 0x17F9 PUSH2 0x34D1 JUMP JUMPDEST JUMPDEST MUL OR SWAP1 SSTORE POP PUSH1 0x0 PUSH1 0x5 PUSH1 0x0 DUP9 DUP2 MSTORE PUSH1 0x20 ADD SWAP1 DUP2 MSTORE PUSH1 0x20 ADD PUSH1 0x0 KECCAK256 PUSH1 0x9 ADD PUSH1 0x0 PUSH2 0x100 EXP DUP2 SLOAD DUP2 PUSH1 0xFF MUL NOT AND SWAP1 DUP4 PUSH1 0x1 DUP2 GT ISZERO PUSH2 0x1839 JUMPI PUSH2 0x1838 PUSH2 0x34D1 JUMP JUMPDEST JUMPDEST MUL OR SWAP1 SSTORE POP PUSH1 0x0 PUSH1 0x7 PUSH1 0x0 DUP10 DUP2 MSTORE PUSH1 0x20 ADD SWAP1 DUP2 MSTORE PUSH1 0x20 ADD PUSH1 0x0 KECCAK256 PUSH1 0xE ADD SLOAD SWAP1 POP PUSH1 0x4 SLOAD PUSH1 0x8 DUP1 SLOAD SWAP1 POP EQ SWAP6 POP POP POP POP POP POP SWAP3 SWAP2 POP POP JUMP JUMPDEST PUSH1 0x0 PUSH2 0x1896 DUP3 PUSH1 0x0 DUP1 DUP7 DUP2 MSTORE PUSH1 0x20 ADD SWAP1 DUP2 MSTORE PUSH1 0x20 ADD PUSH1 0x0 KECCAK256 PUSH2 0x240F SWAP1 SWAP2 SWAP1 PUSH4 0xFFFFFFFF AND JUMP JUMPDEST SWAP1 POP SWAP3 SWAP2 POP POP JUMP JUMPDEST PUSH1 0x0 PUSH2 0x18C4 DUP3 PUSH1 0x0 DUP1 DUP7 DUP2 MSTORE PUSH1 0x20 ADD SWAP1 DUP2 MSTORE PUSH1 0x20 ADD PUSH1 0x0 KECCAK256 PUSH2 0x2429 SWAP1 SWAP2 SWAP1 PUSH4 0xFFFFFFFF AND JUMP JUMPDEST SWAP1 POP SWAP3 SWAP2 POP POP JUMP JUMPDEST PUSH1 0x3 SLOAD DUP2 JUMP JUMPDEST PUSH1 0x0 PUSH2 0x18FE PUSH32 0x52454E5445520000000000000000000000000000000000000000000000000000 DUP4 PUSH2 0x189E JUMP JUMPDEST SWAP1 POP SWAP2 SWAP1 POP JUMP JUMPDEST PUSH1 0x0 PUSH2 0x1910 CALLER PUSH2 0x18D2 JUMP JUMPDEST PUSH2 0x194F JUMPI PUSH1 0x40 MLOAD PUSH32 0x8C379A000000000000000000000000000000000000000000000000000000000 DUP2 MSTORE PUSH1 0x4 ADD PUSH2 0x1946 SWAP1 PUSH2 0x309D JUMP JUMPDEST PUSH1 0x40 MLOAD DUP1 SWAP2 SUB SWAP1 REVERT JUMPDEST DUP4 PUSH1 0x0 PUSH1 0x5 PUSH1 0x0 DUP4 DUP2 MSTORE PUSH1 0x20 ADD SWAP1 DUP2 MSTORE PUSH1 0x20 ADD PUSH1 0x0 KECCAK256 PUSH1 0x0 ADD SLOAD GT PUSH2 0x19A9 JUMPI PUSH1 0x40 MLOAD PUSH32 0x8C379A000000000000000000000000000000000000000000000000000000000 DUP2 MSTORE PUSH1 0x4 ADD PUSH2 0x19A0 SWAP1 PUSH2 0x30BD JUMP JUMPDEST PUSH1 0x40 MLOAD DUP1 SWAP2 SUB SWAP1 REVERT JUMPDEST PUSH1 0x1 PUSH1 0x4 SLOAD PUSH2 0x19B8 SWAP2 SWAP1 PUSH2 0x320F JUMP JUMPDEST PUSH1 0x8 DUP1 SLOAD SWAP1 POP LT PUSH2 0x19FE JUMPI PUSH1 0x40 MLOAD PUSH32 0x8C379A000000000000000000000000000000000000000000000000000000000 DUP2 MSTORE PUSH1 0x4 ADD PUSH2 0x19F5 SWAP1 PUSH2 0x2FDD JUMP JUMPDEST PUSH1 0x40 MLOAD DUP1 SWAP2 SUB SWAP1 REVERT JUMPDEST PUSH1 0x4 PUSH1 0x0 DUP2 SLOAD DUP1 SWAP3 SWAP2 SWAP1 PUSH2 0x1A11 SWAP1 PUSH2 0x3459 JUMP JUMPDEST SWAP2 SWAP1 POP SSTORE POP PUSH1 0x0 DUP4 PUSH1 0x5 PUSH1 0x0 DUP9 DUP2 MSTORE PUSH1 0x20 ADD SWAP1 DUP2 MSTORE PUSH1 0x20 ADD PUSH1 0x0 KECCAK256 PUSH1 0x8 ADD SLOAD PUSH2 0x1A3A SWAP2 SWAP1 PUSH2 0x3265 JUMP JUMPDEST SWAP1 POP PUSH1 0x0 PUSH1 0x40 MLOAD DUP1 PUSH1 0xE0 ADD PUSH1 0x40 MSTORE DUP1 CALLER PUSH20 0xFFFFFFFFFFFFFFFFFFFFFFFFFFFFFFFFFFFFFFFF AND DUP2 MSTORE PUSH1 0x20 ADD PUSH1 0x5 PUSH1 0x0 DUP11 DUP2 MSTORE PUSH1 0x20 ADD SWAP1 DUP2 MSTORE PUSH1 0x20 ADD PUSH1 0x0 KECCAK256 PUSH1 0x40 MLOAD DUP1 PUSH2 0x120 ADD PUSH1 0x40 MSTORE SWAP1 DUP2 PUSH1 0x0 DUP3 ADD SLOAD DUP2 MSTORE PUSH1 0x20 ADD PUSH1 0x1 DUP3 ADD SLOAD DUP2 MSTORE PUSH1 0x20 ADD PUSH1 0x2 DUP3 ADD SLOAD DUP2 MSTORE PUSH1 0x20 ADD PUSH1 0x3 DUP3 ADD PUSH1 0x0 SWAP1 SLOAD SWAP1 PUSH2 0x100 EXP SWAP1 DIV PUSH1 0xFF AND PUSH1 0x6 DUP2 GT ISZERO PUSH2 0x1AC7 JUMPI PUSH2 0x1AC6 PUSH2 0x34D1 JUMP JUMPDEST JUMPDEST PUSH1 0x6 DUP2 GT ISZERO PUSH2 0x1AD9 JUMPI PUSH2 0x1AD8 PUSH2 0x34D1 JUMP JUMPDEST JUMPDEST DUP2 MSTORE PUSH1 0x20 ADD PUSH1 0x4 DUP3 ADD PUSH1 0x40 MLOAD DUP1 PUSH1 0x40 ADD PUSH1 0x40 MSTORE SWAP1 DUP2 PUSH1 0x0 DUP3 ADD DUP1 SLOAD PUSH2 0x1AFD SWAP1 PUSH2 0x33F6 JUMP JUMPDEST DUP1 PUSH1 0x1F ADD PUSH1 0x20 DUP1 SWAP2 DIV MUL PUSH1 0x20 ADD PUSH1 0x40 MLOAD SWAP1 DUP2 ADD PUSH1 0x40 MSTORE DUP1 SWAP3 SWAP2 SWAP1 DUP2 DUP2 MSTORE PUSH1 0x20 ADD DUP3 DUP1 SLOAD PUSH2 0x1B29 SWAP1 PUSH2 0x33F6 JUMP JUMPDEST DUP1 ISZERO PUSH2 0x1B76 JUMPI DUP1 PUSH1 0x1F LT PUSH2 0x1B4B JUMPI PUSH2 0x100 DUP1 DUP4 SLOAD DIV MUL DUP4 MSTORE SWAP2 PUSH1 0x20 ADD SWAP2 PUSH2 0x1B76 JUMP JUMPDEST DUP3 ADD SWAP2 SWAP1 PUSH1 0x0 MSTORE PUSH1 0x20 PUSH1 0x0 KECCAK256 SWAP1 JUMPDEST DUP2 SLOAD DUP2 MSTORE SWAP1 PUSH1 0x1 ADD SWAP1 PUSH1 0x20 ADD DUP1 DUP4 GT PUSH2 0x1B59 JUMPI DUP3 SWAP1 SUB PUSH1 0x1F AND DUP3 ADD SWAP2 JUMPDEST POP POP POP POP POP DUP2 MSTORE PUSH1 0x20 ADD PUSH1 0x1 DUP3 ADD DUP1 SLOAD PUSH2 0x1B8F SWAP1 PUSH2 0x33F6 JUMP JUMPDEST DUP1 PUSH1 0x1F ADD PUSH1 0x20 DUP1 SWAP2 DIV MUL PUSH1 0x20 ADD PUSH1 0x40 MLOAD SWAP1 DUP2 ADD PUSH1 0x40 MSTORE DUP1 SWAP3 SWAP2 SWAP1 DUP2 DUP2 MSTORE PUSH1 0x20 ADD DUP3 DUP1 SLOAD PUSH2 0x1BBB SWAP1 PUSH2 0x33F6 JUMP JUMPDEST DUP1 ISZERO PUSH2 0x1C08 JUMPI DUP1 PUSH1 0x1F LT PUSH2 0x1BDD JUMPI PUSH2 0x100 DUP1 DUP4 SLOAD DIV MUL DUP4 MSTORE SWAP2 PUSH1 0x20 ADD SWAP2 PUSH2 0x1C08 JUMP JUMPDEST DUP3 ADD SWAP2 SWAP1 PUSH1 0x0 MSTORE PUSH1 0x20 PUSH1 0x0 KECCAK256 SWAP1 JUMPDEST DUP2 SLOAD DUP2 MSTORE SWAP1 PUSH1 0x1 ADD SWAP1 PUSH1 0x20 ADD DUP1 DUP4 GT PUSH2 0x1BEB JUMPI DUP3 SWAP1 SUB PUSH1 0x1F AND DUP3 ADD SWAP2 JUMPDEST POP POP POP POP POP DUP2 MSTORE POP POP DUP2 MSTORE PUSH1 0x20 ADD PUSH1 0x6 DUP3 ADD SLOAD DUP2 MSTORE PUSH1 0x20 ADD PUSH1 0x7 DUP3 ADD SLOAD DUP2 MSTORE PUSH1 0x20 ADD PUSH1 0x8 DUP3 ADD SLOAD DUP2 MSTORE PUSH1 0x20 ADD PUSH1 0x9 DUP3 ADD PUSH1 0x0 SWAP1 SLOAD SWAP1 PUSH2 0x100 EXP SWAP1 DIV PUSH1 0xFF AND PUSH1 0x1 DUP2 GT ISZERO PUSH2 0x1C58 JUMPI PUSH2 0x1C57 PUSH2 0x34D1 JUMP JUMPDEST JUMPDEST PUSH1 0x1 DUP2 GT ISZERO PUSH2 0x1C6A JUMPI PUSH2 0x1C69 PUSH2 0x34D1 JUMP JUMPDEST JUMPDEST DUP2 MSTORE POP POP DUP2 MSTORE PUSH1 0x20 ADD DUP8 DUP2 MSTORE PUSH1 0x20 ADD DUP4 DUP2 MSTORE PUSH1 0x20 ADD PUSH1 0x0 DUP2 MSTORE PUSH1 0x20 ADD TIMESTAMP DUP2 MSTORE PUSH1 0x20 ADD PUSH1 0x0 PUSH1 0x2 DUP2 GT ISZERO PUSH2 0x1CA0 JUMPI PUSH2 0x1C9F PUSH2 0x34D1 JUMP JUMPDEST JUMPDEST DUP2 MSTORE POP SWAP1 POP DUP1 PUSH1 0x7 PUSH1 0x0 PUSH1 0x4 SLOAD DUP2 MSTORE PUSH1 0x20 ADD SWAP1 DUP2 MSTORE PUSH1 0x20 ADD PUSH1 0x0 KECCAK256 PUSH1 0x0 DUP3 ADD MLOAD DUP2 PUSH1 0x0 ADD PUSH1 0x0 PUSH2 0x100 EXP DUP2 SLOAD DUP2 PUSH20 0xFFFFFFFFFFFFFFFFFFFFFFFFFFFFFFFFFFFFFFFF MUL NOT AND SWAP1 DUP4 PUSH20 0xFFFFFFFFFFFFFFFFFFFFFFFFFFFFFFFFFFFFFFFF AND MUL OR SWAP1 SSTORE POP PUSH1 0x20 DUP3 ADD MLOAD DUP2 PUSH1 0x1 ADD PUSH1 0x0 DUP3 ADD MLOAD DUP2 PUSH1 0x0 ADD SSTORE PUSH1 0x20 DUP3 ADD MLOAD DUP2 PUSH1 0x1 ADD SSTORE PUSH1 0x40 DUP3 ADD MLOAD DUP2 PUSH1 0x2 ADD SSTORE PUSH1 0x60 DUP3 ADD MLOAD DUP2 PUSH1 0x3 ADD PUSH1 0x0 PUSH2 0x100 EXP DUP2 SLOAD DUP2 PUSH1 0xFF MUL NOT AND SWAP1 DUP4 PUSH1 0x6 DUP2 GT ISZERO PUSH2 0x1D54 JUMPI PUSH2 0x1D53 PUSH2 0x34D1 JUMP JUMPDEST JUMPDEST MUL OR SWAP1 SSTORE POP PUSH1 0x80 DUP3 ADD MLOAD DUP2 PUSH1 0x4 ADD PUSH1 0x0 DUP3 ADD MLOAD DUP2 PUSH1 0x0 ADD SWAP1 DUP1 MLOAD SWAP1 PUSH1 0x20 ADD SWAP1 PUSH2 0x1D7E SWAP3 SWAP2 SWAP1 PUSH2 0x26B9 JUMP JUMPDEST POP PUSH1 0x20 DUP3 ADD MLOAD DUP2 PUSH1 0x1 ADD SWAP1 DUP1 MLOAD SWAP1 PUSH1 0x20 ADD SWAP1 PUSH2 0x1D9B SWAP3 SWAP2 SWAP1 PUSH2 0x26B9 JUMP JUMPDEST POP POP POP PUSH1 0xA0 DUP3 ADD MLOAD DUP2 PUSH1 0x6 ADD SSTORE PUSH1 0xC0 DUP3 ADD MLOAD DUP2 PUSH1 0x7 ADD SSTORE PUSH1 0xE0 DUP3 ADD MLOAD DUP2 PUSH1 0x8 ADD SSTORE PUSH2 0x100 DUP3 ADD MLOAD DUP2 PUSH1 0x9 ADD PUSH1 0x0 PUSH2 0x100 EXP DUP2 SLOAD DUP2 PUSH1 0xFF MUL NOT AND SWAP1 DUP4 PUSH1 0x1 DUP2 GT ISZERO PUSH2 0x1DE8 JUMPI PUSH2 0x1DE7 PUSH2 0x34D1 JUMP JUMPDEST JUMPDEST MUL OR SWAP1 SSTORE POP POP POP PUSH1 0x40 DUP3 ADD MLOAD DUP2 PUSH1 0xB ADD PUSH1 0x0 DUP3 ADD MLOAD DUP2 PUSH1 0x0 ADD SSTORE PUSH1 0x20 DUP3 ADD MLOAD DUP2 PUSH1 0x1 ADD SSTORE POP POP PUSH1 0x60 DUP3 ADD MLOAD DUP2 PUSH1 0xD ADD SSTORE PUSH1 0x80 DUP3 ADD MLOAD DUP2 PUSH1 0xE ADD SSTORE PUSH1 0xA0 DUP3 ADD MLOAD DUP2 PUSH1 0xF ADD SSTORE PUSH1 0xC0 DUP3 ADD MLOAD DUP2 PUSH1 0x10 ADD PUSH1 0x0 PUSH2 0x100 EXP DUP2 SLOAD DUP2 PUSH1 0xFF MUL NOT AND SWAP1 DUP4 PUSH1 0x2 DUP2 GT ISZERO PUSH2 0x1E57 JUMPI PUSH2 0x1E56 PUSH2 0x34D1 JUMP JUMPDEST JUMPDEST MUL OR SWAP1 SSTORE POP SWAP1 POP POP PUSH1 0x8 DUP2 SWAP1 DUP1 PUSH1 0x1 DUP2 SLOAD ADD DUP1 DUP3 SSTORE DUP1 SWAP2 POP POP PUSH1 0x1 SWAP1 SUB SWAP1 PUSH1 0x0 MSTORE PUSH1 0x20 PUSH1 0x0 KECCAK256 SWAP1 PUSH1 0x11 MUL ADD PUSH1 0x0 SWAP1 SWAP2 SWAP1 SWAP2 SWAP1 SWAP2 POP PUSH1 0x0 DUP3 ADD MLOAD DUP2 PUSH1 0x0 ADD PUSH1 0x0 PUSH2 0x100 EXP DUP2 SLOAD DUP2 PUSH20 0xFFFFFFFFFFFFFFFFFFFFFFFFFFFFFFFFFFFFFFFF MUL NOT AND SWAP1 DUP4 PUSH20 0xFFFFFFFFFFFFFFFFFFFFFFFFFFFFFFFFFFFFFFFF AND MUL OR SWAP1 SSTORE POP PUSH1 0x20 DUP3 ADD MLOAD DUP2 PUSH1 0x1 ADD PUSH1 0x0 DUP3 ADD MLOAD DUP2 PUSH1 0x0 ADD SSTORE PUSH1 0x20 DUP3 ADD MLOAD DUP2 PUSH1 0x1 ADD SSTORE PUSH1 0x40 DUP3 ADD MLOAD DUP2 PUSH1 0x2 ADD SSTORE PUSH1 0x60 DUP3 ADD MLOAD DUP2 PUSH1 0x3 ADD PUSH1 0x0 PUSH2 0x100 EXP DUP2 SLOAD DUP2 PUSH1 0xFF MUL NOT AND SWAP1 DUP4 PUSH1 0x6 DUP2 GT ISZERO PUSH2 0x1F24 JUMPI PUSH2 0x1F23 PUSH2 0x34D1 JUMP JUMPDEST JUMPDEST MUL OR SWAP1 SSTORE POP PUSH1 0x80 DUP3 ADD MLOAD DUP2 PUSH1 0x4 ADD PUSH1 0x0 DUP3 ADD MLOAD DUP2 PUSH1 0x0 ADD SWAP1 DUP1 MLOAD SWAP1 PUSH1 0x20 ADD SWAP1 PUSH2 0x1F4E SWAP3 SWAP2 SWAP1 PUSH2 0x26B9 JUMP JUMPDEST POP PUSH1 0x20 DUP3 ADD MLOAD DUP2 PUSH1 0x1 ADD SWAP1 DUP1 MLOAD SWAP1 PUSH1 0x20 ADD SWAP1 PUSH2 0x1F6B SWAP3 SWAP2 SWAP1 PUSH2 0x26B9 JUMP JUMPDEST POP POP POP PUSH1 0xA0 DUP3 ADD MLOAD DUP2 PUSH1 0x6 ADD SSTORE PUSH1 0xC0 DUP3 ADD MLOAD DUP2 PUSH1 0x7 ADD SSTORE PUSH1 0xE0 DUP3 ADD MLOAD DUP2 PUSH1 0x8 ADD SSTORE PUSH2 0x100 DUP3 ADD MLOAD DUP2 PUSH1 0x9 ADD PUSH1 0x0 PUSH2 0x100 EXP DUP2 SLOAD DUP2 PUSH1 0xFF MUL NOT AND SWAP1 DUP4 PUSH1 0x1 DUP2 GT ISZERO PUSH2 0x1FB8 JUMPI PUSH2 0x1FB7 PUSH2 0x34D1 JUMP JUMPDEST JUMPDEST MUL OR SWAP1 SSTORE POP POP POP PUSH1 0x40 DUP3 ADD MLOAD DUP2 PUSH1 0xB ADD PUSH1 0x0 DUP3 ADD MLOAD DUP2 PUSH1 0x0 ADD SSTORE PUSH1 0x20 DUP3 ADD MLOAD DUP2 PUSH1 0x1 ADD SSTORE POP POP PUSH1 0x60 DUP3 ADD MLOAD DUP2 PUSH1 0xD ADD SSTORE PUSH1 0x80 DUP3 ADD MLOAD DUP2 PUSH1 0xE ADD SSTORE PUSH1 0xA0 DUP3 ADD MLOAD DUP2 PUSH1 0xF ADD SSTORE PUSH1 0xC0 DUP3 ADD MLOAD DUP2 PUSH1 0x10 ADD PUSH1 0x0 PUSH2 0x100 EXP DUP2 SLOAD DUP2 PUSH1 0xFF MUL NOT AND SWAP1 DUP4 PUSH1 0x2 DUP2 GT ISZERO PUSH2 0x2027 JUMPI PUSH2 0x2026 PUSH2 0x34D1 JUMP JUMPDEST JUMPDEST MUL OR SWAP1 SSTORE POP POP POP PUSH1 0x4 SLOAD PUSH1 0x8 DUP1 SLOAD SWAP1 POP EQ SWAP4 POP POP POP POP SWAP4 SWAP3 POP POP POP JUMP JUMPDEST PUSH2 0x206E PUSH32 0x52454E5445520000000000000000000000000000000000000000000000000000 CALLER PUSH2 0x22EF JUMP JUMPDEST JUMP JUMPDEST PUSH1 0x6 DUP2 DUP2 SLOAD DUP2 LT PUSH2 0x2080 JUMPI PUSH1 0x0 DUP1 REVERT JUMPDEST SWAP1 PUSH1 0x0 MSTORE PUSH1 0x20 PUSH1 0x0 KECCAK256 SWAP1 PUSH1 0xA MUL ADD PUSH1 0x0 SWAP2 POP SWAP1 POP DUP1 PUSH1 0x0 ADD SLOAD SWAP1 DUP1 PUSH1 0x1 ADD SLOAD SWAP1 DUP1 PUSH1 0x2 ADD SLOAD SWAP1 DUP1 PUSH1 0x3 ADD PUSH1 0x0 SWAP1 SLOAD SWAP1 PUSH2 0x100 EXP SWAP1 DIV PUSH1 0xFF AND SWAP1 DUP1 PUSH1 0x4 ADD PUSH1 0x40 MLOAD DUP1 PUSH1 0x40 ADD PUSH1 0x40 MSTORE SWAP1 DUP2 PUSH1 0x0 DUP3 ADD DUP1 SLOAD PUSH2 0x20D8 SWAP1 PUSH2 0x33F6 JUMP JUMPDEST DUP1 PUSH1 0x1F ADD PUSH1 0x20 DUP1 SWAP2 DIV MUL PUSH1 0x20 ADD PUSH1 0x40 MLOAD SWAP1 DUP2 ADD PUSH1 0x40 MSTORE DUP1 SWAP3 SWAP2 SWAP1 DUP2 DUP2 MSTORE PUSH1 0x20 ADD DUP3 DUP1 SLOAD PUSH2 0x2104 SWAP1 PUSH2 0x33F6 JUMP JUMPDEST DUP1 ISZERO PUSH2 0x2151 JUMPI DUP1 PUSH1 0x1F LT PUSH2 0x2126 JUMPI PUSH2 0x100 DUP1 DUP4 SLOAD DIV MUL DUP4 MSTORE SWAP2 PUSH1 0x20 ADD SWAP2 PUSH2 0x2151 JUMP JUMPDEST DUP3 ADD SWAP2 SWAP1 PUSH1 0x0 MSTORE PUSH1 0x20 PUSH1 0x0 KECCAK256 SWAP1 JUMPDEST DUP2 SLOAD DUP2 MSTORE SWAP1 PUSH1 0x1 ADD SWAP1 PUSH1 0x20 ADD DUP1 DUP4 GT PUSH2 0x2134 JUMPI DUP3 SWAP1 SUB PUSH1 0x1F AND DUP3 ADD SWAP2 JUMPDEST POP POP POP POP POP DUP2 MSTORE PUSH1 0x20 ADD PUSH1 0x1 DUP3 ADD DUP1 SLOAD PUSH2 0x216A SWAP1 PUSH2 0x33F6 JUMP JUMPDEST DUP1 PUSH1 0x1F ADD PUSH1 0x20 DUP1 SWAP2 DIV MUL PUSH1 0x20 ADD PUSH1 0x40 MLOAD SWAP1 DUP2 ADD PUSH1 0x40 MSTORE DUP1 SWAP3 SWAP2 SWAP1 DUP2 DUP2 MSTORE PUSH1 0x20 ADD DUP3 DUP1 SLOAD PUSH2 0x2196 SWAP1 PUSH2 0x33F6 JUMP JUMPDEST DUP1 ISZERO PUSH2 0x21E3 JUMPI DUP1 PUSH1 0x1F LT PUSH2 0x21B8 JUMPI PUSH2 0x100 DUP1 DUP4 SLOAD DIV MUL DUP4 MSTORE SWAP2 PUSH1 0x20 ADD SWAP2 PUSH2 0x21E3 JUMP JUMPDEST DUP3 ADD SWAP2 SWAP1 PUSH1 0x0 MSTORE PUSH1 0x20 PUSH1 0x0 KECCAK256 SWAP1 JUMPDEST DUP2 SLOAD DUP2 MSTORE SWAP1 PUSH1 0x1 ADD SWAP1 PUSH1 0x20 ADD DUP1 DUP4 GT PUSH2 0x21C6 JUMPI DUP3 SWAP1 SUB PUSH1 0x1F AND DUP3 ADD SWAP2 JUMPDEST POP POP POP POP POP DUP2 MSTORE POP POP SWAP1 DUP1 PUSH1 0x6 ADD SLOAD SWAP1 DUP1 PUSH1 0x7 ADD SLOAD SWAP1 DUP1 PUSH1 0x8 ADD SLOAD SWAP1 DUP1 PUSH1 0x9 ADD PUSH1 0x0 SWAP1 SLOAD SWAP1 PUSH2 0x100 EXP SWAP1 DIV PUSH1 0xFF AND SWAP1 POP DUP10 JUMP JUMPDEST PUSH32 0x52454E5445520000000000000000000000000000000000000000000000000000 DUP2 JUMP JUMPDEST PUSH1 0x0 PUSH2 0x2256 PUSH1 0x0 DUP1 DUP5 DUP2 MSTORE PUSH1 0x20 ADD SWAP1 DUP2 MSTORE PUSH1 0x20 ADD PUSH1 0x0 KECCAK256 PUSH2 0x2459 JUMP JUMPDEST SWAP1 POP SWAP2 SWAP1 POP JUMP JUMPDEST DUP1 PUSH1 0x1 PUSH1 0x0 PUSH2 0x100 EXP DUP2 SLOAD DUP2 PUSH20 0xFFFFFFFFFFFFFFFFFFFFFFFFFFFFFFFFFFFFFFFF MUL NOT AND SWAP1 DUP4 PUSH20 0xFFFFFFFFFFFFFFFFFFFFFFFFFFFFFFFFFFFFFFFF AND MUL OR SWAP1 SSTORE POP PUSH2 0x22C8 PUSH32 0x52454E5445520000000000000000000000000000000000000000000000000000 DUP3 PUSH2 0x237F JUMP JUMPDEST POP JUMP JUMPDEST PUSH32 0x4F574E4552000000000000000000000000000000000000000000000000000000 DUP2 JUMP JUMPDEST PUSH2 0x2313 DUP2 PUSH1 0x0 DUP1 DUP6 DUP2 MSTORE PUSH1 0x20 ADD SWAP1 DUP2 MSTORE PUSH1 0x20 ADD PUSH1 0x0 KECCAK256 PUSH2 0x246E SWAP1 SWAP2 SWAP1 PUSH4 0xFFFFFFFF AND JUMP JUMPDEST ISZERO PUSH2 0x237B JUMPI PUSH2 0x2320 PUSH2 0x249E JUMP JUMPDEST PUSH20 0xFFFFFFFFFFFFFFFFFFFFFFFFFFFFFFFFFFFFFFFF AND DUP2 PUSH20 0xFFFFFFFFFFFFFFFFFFFFFFFFFFFFFFFFFFFFFFFF AND DUP4 PUSH32 0xF6391F5C32D9C69D2A47EA670B442974B53935D1EDC7FD64EB21E047A839171B PUSH1 0x40 MLOAD PUSH1 0x40 MLOAD DUP1 SWAP2 SUB SWAP1 LOG4 JUMPDEST POP POP JUMP JUMPDEST PUSH2 0x23A3 DUP2 PUSH1 0x0 DUP1 DUP6 DUP2 MSTORE PUSH1 0x20 ADD SWAP1 DUP2 MSTORE PUSH1 0x20 ADD PUSH1 0x0 KECCAK256 PUSH2 0x24A6 SWAP1 SWAP2 SWAP1 PUSH4 0xFFFFFFFF AND JUMP JUMPDEST ISZERO PUSH2 0x240B JUMPI PUSH2 0x23B0 PUSH2 0x249E JUMP JUMPDEST PUSH20 0xFFFFFFFFFFFFFFFFFFFFFFFFFFFFFFFFFFFFFFFF AND DUP2 PUSH20 0xFFFFFFFFFFFFFFFFFFFFFFFFFFFFFFFFFFFFFFFF AND DUP4 PUSH32 0x2F8788117E7EFF1D82E926EC794901D17C78024A50270940304540A733656F0D PUSH1 0x40 MLOAD PUSH1 0x40 MLOAD DUP1 SWAP2 SUB SWAP1 LOG4 JUMPDEST POP POP JUMP JUMPDEST PUSH1 0x0 PUSH2 0x241E DUP4 PUSH1 0x0 ADD DUP4 PUSH2 0x24D6 JUMP JUMPDEST PUSH1 0x0 SHR SWAP1 POP SWAP3 SWAP2 POP POP JUMP JUMPDEST PUSH1 0x0 PUSH2 0x2451 DUP4 PUSH1 0x0 ADD DUP4 PUSH20 0xFFFFFFFFFFFFFFFFFFFFFFFFFFFFFFFFFFFFFFFF AND PUSH1 0x0 SHL PUSH2 0x2501 JUMP JUMPDEST SWAP1 POP SWAP3 SWAP2 POP POP JUMP JUMPDEST PUSH1 0x0 PUSH2 0x2467 DUP3 PUSH1 0x0 ADD PUSH2 0x2524 JUMP JUMPDEST SWAP1 POP SWAP2 SWAP1 POP JUMP JUMPDEST PUSH1 0x0 PUSH2 0x2496 DUP4 PUSH1 0x0 ADD DUP4 PUSH20 0xFFFFFFFFFFFFFFFFFFFFFFFFFFFFFFFFFFFFFFFF AND PUSH1 0x0 SHL PUSH2 0x2535 JUMP JUMPDEST SWAP1 POP SWAP3 SWAP2 POP POP JUMP JUMPDEST PUSH1 0x0 CALLER SWAP1 POP SWAP1 JUMP JUMPDEST PUSH1 0x0 PUSH2 0x24CE DUP4 PUSH1 0x0 ADD DUP4 PUSH20 0xFFFFFFFFFFFFFFFFFFFFFFFFFFFFFFFFFFFFFFFF AND PUSH1 0x0 SHL PUSH2 0x2649 JUMP JUMPDEST SWAP1 POP SWAP3 SWAP2 POP POP JUMP JUMPDEST PUSH1 0x0 DUP3 PUSH1 0x0 ADD DUP3 DUP2 SLOAD DUP2 LT PUSH2 0x24EE JUMPI PUSH2 0x24ED PUSH2 0x355E JUMP JUMPDEST JUMPDEST SWAP1 PUSH1 0x0 MSTORE PUSH1 0x20 PUSH1 0x0 KECCAK256 ADD SLOAD SWAP1 POP SWAP3 SWAP2 POP POP JUMP JUMPDEST PUSH1 0x0 DUP1 DUP4 PUSH1 0x1 ADD PUSH1 0x0 DUP5 DUP2 MSTORE PUSH1 0x20 ADD SWAP1 DUP2 MSTORE PUSH1 0x20 ADD PUSH1 0x0 KECCAK256 SLOAD EQ ISZERO SWAP1 POP SWAP3 SWAP2 POP POP JUMP JUMPDEST PUSH1 0x0 DUP2 PUSH1 0x0 ADD DUP1 SLOAD SWAP1 POP SWAP1 POP SWAP2 SWAP1 POP JUMP JUMPDEST PUSH1 0x0 DUP1 DUP4 PUSH1 0x1 ADD PUSH1 0x0 DUP5 DUP2 MSTORE PUSH1 0x20 ADD SWAP1 DUP2 MSTORE PUSH1 0x20 ADD PUSH1 0x0 KECCAK256 SLOAD SWAP1 POP PUSH1 0x0 DUP2 EQ PUSH2 0x263D JUMPI PUSH1 0x0 PUSH1 0x1 DUP3 PUSH2 0x2567 SWAP2 SWAP1 PUSH2 0x32BF JUMP JUMPDEST SWAP1 POP PUSH1 0x0 PUSH1 0x1 DUP7 PUSH1 0x0 ADD DUP1 SLOAD SWAP1 POP PUSH2 0x257F SWAP2 SWAP1 PUSH2 0x32BF JUMP JUMPDEST SWAP1 POP DUP2 DUP2 EQ PUSH2 0x25EE JUMPI PUSH1 0x0 DUP7 PUSH1 0x0 ADD DUP3 DUP2 SLOAD DUP2 LT PUSH2 0x25A0 JUMPI PUSH2 0x259F PUSH2 0x355E JUMP JUMPDEST JUMPDEST SWAP1 PUSH1 0x0 MSTORE PUSH1 0x20 PUSH1 0x0 KECCAK256 ADD SLOAD SWAP1 POP DUP1 DUP8 PUSH1 0x0 ADD DUP5 DUP2 SLOAD DUP2 LT PUSH2 0x25C4 JUMPI PUSH2 0x25C3 PUSH2 0x355E JUMP JUMPDEST JUMPDEST SWAP1 PUSH1 0x0 MSTORE PUSH1 0x20 PUSH1 0x0 KECCAK256 ADD DUP2 SWAP1 SSTORE POP DUP4 DUP8 PUSH1 0x1 ADD PUSH1 0x0 DUP4 DUP2 MSTORE PUSH1 0x20 ADD SWAP1 DUP2 MSTORE PUSH1 0x20 ADD PUSH1 0x0 KECCAK256 DUP2 SWAP1 SSTORE POP POP JUMPDEST DUP6 PUSH1 0x0 ADD DUP1 SLOAD DUP1 PUSH2 0x2602 JUMPI PUSH2 0x2601 PUSH2 0x352F JUMP JUMPDEST JUMPDEST PUSH1 0x1 SWAP1 SUB DUP2 DUP2 SWAP1 PUSH1 0x0 MSTORE PUSH1 0x20 PUSH1 0x0 KECCAK256 ADD PUSH1 0x0 SWAP1 SSTORE SWAP1 SSTORE DUP6 PUSH1 0x1 ADD PUSH1 0x0 DUP7 DUP2 MSTORE PUSH1 0x20 ADD SWAP1 DUP2 MSTORE PUSH1 0x20 ADD PUSH1 0x0 KECCAK256 PUSH1 0x0 SWAP1 SSTORE PUSH1 0x1 SWAP4 POP POP POP POP PUSH2 0x2643 JUMP JUMPDEST PUSH1 0x0 SWAP2 POP POP JUMPDEST SWAP3 SWAP2 POP POP JUMP JUMPDEST PUSH1 0x0 PUSH2 0x2655 DUP4 DUP4 PUSH2 0x2501 JUMP JUMPDEST PUSH2 0x26AE JUMPI DUP3 PUSH1 0x0 ADD DUP3 SWAP1 DUP1 PUSH1 0x1 DUP2 SLOAD ADD DUP1 DUP3 SSTORE DUP1 SWAP2 POP POP PUSH1 0x1 SWAP1 SUB SWAP1 PUSH1 0x0 MSTORE PUSH1 0x20 PUSH1 0x0 KECCAK256 ADD PUSH1 0x0 SWAP1 SWAP2 SWAP1 SWAP2 SWAP1 SWAP2 POP SSTORE DUP3 PUSH1 0x0 ADD DUP1 SLOAD SWAP1 POP DUP4 PUSH1 0x1 ADD PUSH1 0x0 DUP5 DUP2 MSTORE PUSH1 0x20 ADD SWAP1 DUP2 MSTORE PUSH1 0x20 ADD PUSH1 0x0 KECCAK256 DUP2 SWAP1 SSTORE POP PUSH1 0x1 SWAP1 POP PUSH2 0x26B3 JUMP JUMPDEST PUSH1 0x0 SWAP1 POP JUMPDEST SWAP3 SWAP2 POP POP JUMP JUMPDEST DUP3 DUP1 SLOAD PUSH2 0x26C5 SWAP1 PUSH2 0x33F6 JUMP JUMPDEST SWAP1 PUSH1 0x0 MSTORE PUSH1 0x20 PUSH1 0x0 KECCAK256 SWAP1 PUSH1 0x1F ADD PUSH1 0x20 SWAP1 DIV DUP2 ADD SWAP3 DUP3 PUSH2 0x26E7 JUMPI PUSH1 0x0 DUP6 SSTORE PUSH2 0x272E JUMP JUMPDEST DUP3 PUSH1 0x1F LT PUSH2 0x2700 JUMPI DUP1 MLOAD PUSH1 0xFF NOT AND DUP4 DUP1 ADD OR DUP6 SSTORE PUSH2 0x272E JUMP JUMPDEST DUP3 DUP1 ADD PUSH1 0x1 ADD DUP6 SSTORE DUP3 ISZERO PUSH2 0x272E JUMPI SWAP2 DUP3 ADD JUMPDEST DUP3 DUP2 GT ISZERO PUSH2 0x272D JUMPI DUP3 MLOAD DUP3 SSTORE SWAP2 PUSH1 0x20 ADD SWAP2 SWAP1 PUSH1 0x1 ADD SWAP1 PUSH2 0x2712 JUMP JUMPDEST JUMPDEST POP SWAP1 POP PUSH2 0x273B SWAP2 SWAP1 PUSH2 0x273F JUMP JUMPDEST POP SWAP1 JUMP JUMPDEST JUMPDEST DUP1 DUP3 GT ISZERO PUSH2 0x2758 JUMPI PUSH1 0x0 DUP2 PUSH1 0x0 SWAP1 SSTORE POP PUSH1 0x1 ADD PUSH2 0x2740 JUMP JUMPDEST POP SWAP1 JUMP JUMPDEST PUSH1 0x0 PUSH2 0x276F PUSH2 0x276A DUP5 PUSH2 0x31B1 JUMP JUMPDEST PUSH2 0x318C JUMP JUMPDEST SWAP1 POP DUP3 DUP2 MSTORE PUSH1 0x20 DUP2 ADD DUP5 DUP5 DUP5 ADD GT ISZERO PUSH2 0x278B JUMPI PUSH2 0x278A PUSH2 0x35CB JUMP JUMPDEST JUMPDEST PUSH2 0x2796 DUP5 DUP3 DUP6 PUSH2 0x33B4 JUMP JUMPDEST POP SWAP4 SWAP3 POP POP POP JUMP JUMPDEST PUSH1 0x0 DUP2 CALLDATALOAD SWAP1 POP PUSH2 0x27AD DUP2 PUSH2 0x3853 JUMP JUMPDEST SWAP3 SWAP2 POP POP JUMP JUMPDEST PUSH1 0x0 DUP2 CALLDATALOAD SWAP1 POP PUSH2 0x27C2 DUP2 PUSH2 0x386A JUMP JUMPDEST SWAP3 SWAP2 POP POP JUMP JUMPDEST PUSH1 0x0 DUP3 PUSH1 0x1F DUP4 ADD SLT PUSH2 0x27DD JUMPI PUSH2 0x27DC PUSH2 0x35BC JUMP JUMPDEST JUMPDEST DUP2 CALLDATALOAD PUSH2 0x27ED DUP5 DUP3 PUSH1 0x20 DUP7 ADD PUSH2 0x275C JUMP JUMPDEST SWAP2 POP POP SWAP3 SWAP2 POP POP JUMP JUMPDEST PUSH1 0x0 DUP2 CALLDATALOAD SWAP1 POP PUSH2 0x2805 DUP2 PUSH2 0x3881 JUMP JUMPDEST SWAP3 SWAP2 POP POP JUMP JUMPDEST PUSH1 0x0 PUSH1 0x40 DUP3 DUP5 SUB SLT ISZERO PUSH2 0x2821 JUMPI PUSH2 0x2820 PUSH2 0x35C1 JUMP JUMPDEST JUMPDEST PUSH2 0x282B PUSH1 0x40 PUSH2 0x318C JUMP JUMPDEST SWAP1 POP PUSH1 0x0 DUP3 ADD CALLDATALOAD PUSH8 0xFFFFFFFFFFFFFFFF DUP2 GT ISZERO PUSH2 0x284B JUMPI PUSH2 0x284A PUSH2 0x35C6 JUMP JUMPDEST JUMPDEST PUSH2 0x2857 DUP5 DUP3 DUP6 ADD PUSH2 0x27C8 JUMP JUMPDEST PUSH1 0x0 DUP4 ADD MSTORE POP PUSH1 0x20 DUP3 ADD CALLDATALOAD PUSH8 0xFFFFFFFFFFFFFFFF DUP2 GT ISZERO PUSH2 0x287B JUMPI PUSH2 0x287A PUSH2 0x35C6 JUMP JUMPDEST JUMPDEST PUSH2 0x2887 DUP5 DUP3 DUP6 ADD PUSH2 0x27C8 JUMP JUMPDEST PUSH1 0x20 DUP4 ADD MSTORE POP SWAP3 SWAP2 POP POP JUMP JUMPDEST PUSH1 0x0 PUSH1 0x40 DUP3 DUP5 SUB SLT ISZERO PUSH2 0x28A9 JUMPI PUSH2 0x28A8 PUSH2 0x35C1 JUMP JUMPDEST JUMPDEST PUSH2 0x28B3 PUSH1 0x40 PUSH2 0x318C JUMP JUMPDEST SWAP1 POP PUSH1 0x0 PUSH2 0x28C3 DUP5 DUP3 DUP6 ADD PUSH2 0x27B3 JUMP JUMPDEST PUSH1 0x0 DUP4 ADD MSTORE POP PUSH1 0x20 PUSH2 0x28D7 DUP5 DUP3 DUP6 ADD PUSH2 0x27B3 JUMP JUMPDEST PUSH1 0x20 DUP4 ADD MSTORE POP SWAP3 SWAP2 POP POP JUMP JUMPDEST PUSH1 0x0 DUP2 CALLDATALOAD SWAP1 POP PUSH2 0x28F2 DUP2 PUSH2 0x3891 JUMP JUMPDEST SWAP3 SWAP2 POP POP JUMP JUMPDEST PUSH1 0x0 PUSH1 0x20 DUP3 DUP5 SUB SLT ISZERO PUSH2 0x290E JUMPI PUSH2 0x290D PUSH2 0x35D5 JUMP JUMPDEST JUMPDEST PUSH1 0x0 PUSH2 0x291C DUP5 DUP3 DUP6 ADD PUSH2 0x279E JUMP JUMPDEST SWAP2 POP POP SWAP3 SWAP2 POP POP JUMP JUMPDEST PUSH1 0x0 PUSH1 0x20 DUP3 DUP5 SUB SLT ISZERO PUSH2 0x293B JUMPI PUSH2 0x293A PUSH2 0x35D5 JUMP JUMPDEST JUMPDEST PUSH1 0x0 PUSH2 0x2949 DUP5 DUP3 DUP6 ADD PUSH2 0x27B3 JUMP JUMPDEST SWAP2 POP POP SWAP3 SWAP2 POP POP JUMP JUMPDEST PUSH1 0x0 DUP1 PUSH1 0x40 DUP4 DUP6 SUB SLT ISZERO PUSH2 0x2969 JUMPI PUSH2 0x2968 PUSH2 0x35D5 JUMP JUMPDEST JUMPDEST PUSH1 0x0 PUSH2 0x2977 DUP6 DUP3 DUP7 ADD PUSH2 0x27B3 JUMP JUMPDEST SWAP3 POP POP PUSH1 0x20 PUSH2 0x2988 DUP6 DUP3 DUP7 ADD PUSH2 0x279E JUMP JUMPDEST SWAP2 POP POP SWAP3 POP SWAP3 SWAP1 POP JUMP JUMPDEST PUSH1 0x0 DUP1 PUSH1 0x0 DUP1 PUSH1 0x0 DUP1 PUSH1 0x0 PUSH1 0xE0 DUP9 DUP11 SUB SLT ISZERO PUSH2 0x29B1 JUMPI PUSH2 0x29B0 PUSH2 0x35D5 JUMP JUMPDEST JUMPDEST PUSH1 0x0 PUSH2 0x29BF DUP11 DUP3 DUP12 ADD PUSH2 0x27B3 JUMP JUMPDEST SWAP8 POP POP PUSH1 0x20 PUSH2 0x29D0 DUP11 DUP3 DUP12 ADD PUSH2 0x27B3 JUMP JUMPDEST SWAP7 POP POP PUSH1 0x40 PUSH2 0x29E1 DUP11 DUP3 DUP12 ADD PUSH2 0x27F6 JUMP JUMPDEST SWAP6 POP POP PUSH1 0x60 DUP9 ADD CALLDATALOAD PUSH8 0xFFFFFFFFFFFFFFFF DUP2 GT ISZERO PUSH2 0x2A02 JUMPI PUSH2 0x2A01 PUSH2 0x35D0 JUMP JUMPDEST JUMPDEST PUSH2 0x2A0E DUP11 DUP3 DUP12 ADD PUSH2 0x280B JUMP JUMPDEST SWAP5 POP POP PUSH1 0x80 PUSH2 0x2A1F DUP11 DUP3 DUP12 ADD PUSH2 0x28E3 JUMP JUMPDEST SWAP4 POP POP PUSH1 0xA0 PUSH2 0x2A30 DUP11 DUP3 DUP12 ADD PUSH2 0x27B3 JUMP JUMPDEST SWAP3 POP POP PUSH1 0xC0 PUSH2 0x2A41 DUP11 DUP3 DUP12 ADD PUSH2 0x28E3 JUMP JUMPDEST SWAP2 POP POP SWAP3 SWAP6 SWAP9 SWAP2 SWAP5 SWAP8 POP SWAP3 SWAP6 POP JUMP JUMPDEST PUSH1 0x0 DUP1 PUSH1 0x40 DUP4 DUP6 SUB SLT ISZERO PUSH2 0x2A67 JUMPI PUSH2 0x2A66 PUSH2 0x35D5 JUMP JUMPDEST JUMPDEST PUSH1 0x0 PUSH2 0x2A75 DUP6 DUP3 DUP7 ADD PUSH2 0x27B3 JUMP JUMPDEST SWAP3 POP POP PUSH1 0x20 PUSH2 0x2A86 DUP6 DUP3 DUP7 ADD PUSH2 0x28E3 JUMP JUMPDEST SWAP2 POP POP SWAP3 POP SWAP3 SWAP1 POP JUMP JUMPDEST PUSH1 0x0 PUSH1 0x20 DUP3 DUP5 SUB SLT ISZERO PUSH2 0x2AA6 JUMPI PUSH2 0x2AA5 PUSH2 0x35D5 JUMP JUMPDEST JUMPDEST PUSH1 0x0 PUSH2 0x2AB4 DUP5 DUP3 DUP6 ADD PUSH2 0x28E3 JUMP JUMPDEST SWAP2 POP POP SWAP3 SWAP2 POP POP JUMP JUMPDEST PUSH1 0x0 DUP1 PUSH1 0x0 PUSH1 0x80 DUP5 DUP7 SUB SLT ISZERO PUSH2 0x2AD6 JUMPI PUSH2 0x2AD5 PUSH2 0x35D5 JUMP JUMPDEST JUMPDEST PUSH1 0x0 PUSH2 0x2AE4 DUP7 DUP3 DUP8 ADD PUSH2 0x28E3 JUMP JUMPDEST SWAP4 POP POP PUSH1 0x20 PUSH2 0x2AF5 DUP7 DUP3 DUP8 ADD PUSH2 0x2893 JUMP JUMPDEST SWAP3 POP POP PUSH1 0x60 PUSH2 0x2B06 DUP7 DUP3 DUP8 ADD PUSH2 0x28E3 JUMP JUMPDEST SWAP2 POP POP SWAP3 POP SWAP3 POP SWAP3 JUMP JUMPDEST PUSH1 0x0 DUP1 PUSH1 0x40 DUP4 DUP6 SUB SLT ISZERO PUSH2 0x2B27 JUMPI PUSH2 0x2B26 PUSH2 0x35D5 JUMP JUMPDEST JUMPDEST PUSH1 0x0 PUSH2 0x2B35 DUP6 DUP3 DUP7 ADD PUSH2 0x28E3 JUMP JUMPDEST SWAP3 POP POP PUSH1 0x20 PUSH2 0x2B46 DUP6 DUP3 DUP7 ADD PUSH2 0x28E3 JUMP JUMPDEST SWAP2 POP POP SWAP3 POP SWAP3 SWAP1 POP JUMP JUMPDEST PUSH1 0x0 DUP1 PUSH1 0x0 PUSH1 0x60 DUP5 DUP7 SUB SLT ISZERO PUSH2 0x2B69 JUMPI PUSH2 0x2B68 PUSH2 0x35D5 JUMP JUMPDEST JUMPDEST PUSH1 0x0 PUSH2 0x2B77 DUP7 DUP3 DUP8 ADD PUSH2 0x28E3 JUMP JUMPDEST SWAP4 POP POP PUSH1 0x20 PUSH2 0x2B88 DUP7 DUP3 DUP8 ADD PUSH2 0x28E3 JUMP JUMPDEST SWAP3 POP POP PUSH1 0x40 PUSH2 0x2B99 DUP7 DUP3 DUP8 ADD PUSH2 0x28E3 JUMP JUMPDEST SWAP2 POP POP SWAP3 POP SWAP3 POP SWAP3 JUMP JUMPDEST PUSH2 0x2BAC DUP2 PUSH2 0x32F3 JUMP JUMPDEST DUP3 MSTORE POP POP JUMP JUMPDEST PUSH2 0x2BBB DUP2 PUSH2 0x3305 JUMP JUMPDEST DUP3 MSTORE POP POP JUMP JUMPDEST PUSH2 0x2BCA DUP2 PUSH2 0x3311 JUMP JUMPDEST DUP3 MSTORE POP POP JUMP JUMPDEST PUSH2 0x2BD9 DUP2 PUSH2 0x3311 JUMP JUMPDEST DUP3 MSTORE POP POP JUMP JUMPDEST PUSH1 0x0 PUSH2 0x2BEA DUP3 PUSH2 0x31E2 JUMP JUMPDEST PUSH2 0x2BF4 DUP2 DUP6 PUSH2 0x31ED JUMP JUMPDEST SWAP4 POP PUSH2 0x2C04 DUP2 DUP6 PUSH1 0x20 DUP7 ADD PUSH2 0x33C3 JUMP JUMPDEST PUSH2 0x2C0D DUP2 PUSH2 0x35DA JUMP JUMPDEST DUP5 ADD SWAP2 POP POP SWAP3 SWAP2 POP POP JUMP JUMPDEST PUSH2 0x2C21 DUP2 PUSH2 0x337E JUMP JUMPDEST DUP3 MSTORE POP POP JUMP JUMPDEST PUSH2 0x2C30 DUP2 PUSH2 0x3390 JUMP JUMPDEST DUP3 MSTORE POP POP JUMP JUMPDEST PUSH2 0x2C3F DUP2 PUSH2 0x3390 JUMP JUMPDEST DUP3 MSTORE POP POP JUMP JUMPDEST PUSH2 0x2C4E DUP2 PUSH2 0x33A2 JUMP JUMPDEST DUP3 MSTORE POP POP JUMP JUMPDEST PUSH2 0x2C5D DUP2 PUSH2 0x33A2 JUMP JUMPDEST DUP3 MSTORE POP POP JUMP JUMPDEST PUSH1 0x0 PUSH2 0x2C70 PUSH1 0x2E DUP4 PUSH2 0x31FE JUMP JUMPDEST SWAP2 POP PUSH2 0x2C7B DUP3 PUSH2 0x35EB JUMP JUMPDEST PUSH1 0x40 DUP3 ADD SWAP1 POP SWAP2 SWAP1 POP JUMP JUMPDEST PUSH1 0x0 PUSH2 0x2C93 PUSH1 0x2D DUP4 PUSH2 0x31FE JUMP JUMPDEST SWAP2 POP PUSH2 0x2C9E DUP3 PUSH2 0x363A JUMP JUMPDEST PUSH1 0x40 DUP3 ADD SWAP1 POP SWAP2 SWAP1 POP JUMP JUMPDEST PUSH1 0x0 PUSH2 0x2CB6 PUSH1 0x40 DUP4 PUSH2 0x31FE JUMP JUMPDEST SWAP2 POP PUSH2 0x2CC1 DUP3 PUSH2 0x3689 JUMP JUMPDEST PUSH1 0x40 DUP3 ADD SWAP1 POP SWAP2 SWAP1 POP JUMP JUMPDEST PUSH1 0x0 PUSH2 0x2CD9 PUSH1 0x15 DUP4 PUSH2 0x31FE JUMP JUMPDEST SWAP2 POP PUSH2 0x2CE4 DUP3 PUSH2 0x36D8 JUMP JUMPDEST PUSH1 0x20 DUP3 ADD SWAP1 POP SWAP2 SWAP1 POP JUMP JUMPDEST PUSH1 0x0 PUSH2 0x2CFC PUSH1 0x30 DUP4 PUSH2 0x31FE JUMP JUMPDEST SWAP2 POP PUSH2 0x2D07 DUP3 PUSH2 0x3701 JUMP JUMPDEST PUSH1 0x40 DUP3 ADD SWAP1 POP SWAP2 SWAP1 POP JUMP JUMPDEST PUSH1 0x0 PUSH2 0x2D1F PUSH1 0x3E DUP4 PUSH2 0x31FE JUMP JUMPDEST SWAP2 POP PUSH2 0x2D2A DUP3 PUSH2 0x3750 JUMP JUMPDEST PUSH1 0x40 DUP3 ADD SWAP1 POP SWAP2 SWAP1 POP JUMP JUMPDEST PUSH1 0x0 PUSH2 0x2D42 PUSH1 0x16 DUP4 PUSH2 0x31FE JUMP JUMPDEST SWAP2 POP PUSH2 0x2D4D DUP3 PUSH2 0x379F JUMP JUMPDEST PUSH1 0x20 DUP3 ADD SWAP1 POP SWAP2 SWAP1 POP JUMP JUMPDEST PUSH1 0x0 PUSH2 0x2D65 PUSH1 0x3D DUP4 PUSH2 0x31FE JUMP JUMPDEST SWAP2 POP PUSH2 0x2D70 DUP3 PUSH2 0x37C8 JUMP JUMPDEST PUSH1 0x40 DUP3 ADD SWAP1 POP SWAP2 SWAP1 POP JUMP JUMPDEST PUSH1 0x0 PUSH1 0x40 DUP4 ADD PUSH1 0x0 DUP4 ADD MLOAD DUP5 DUP3 SUB PUSH1 0x0 DUP7 ADD MSTORE PUSH2 0x2D98 DUP3 DUP3 PUSH2 0x2BDF JUMP JUMPDEST SWAP2 POP POP PUSH1 0x20 DUP4 ADD MLOAD DUP5 DUP3 SUB PUSH1 0x20 DUP7 ADD MSTORE PUSH2 0x2DB2 DUP3 DUP3 PUSH2 0x2BDF JUMP JUMPDEST SWAP2 POP POP DUP1 SWAP2 POP POP SWAP3 SWAP2 POP POP JUMP JUMPDEST PUSH1 0x0 PUSH1 0x40 DUP4 ADD PUSH1 0x0 DUP4 ADD MLOAD DUP5 DUP3 SUB PUSH1 0x0 DUP7 ADD MSTORE PUSH2 0x2DDC DUP3 DUP3 PUSH2 0x2BDF JUMP JUMPDEST SWAP2 POP POP PUSH1 0x20 DUP4 ADD MLOAD DUP5 DUP3 SUB PUSH1 0x20 DUP7 ADD MSTORE PUSH2 0x2DF6 DUP3 DUP3 PUSH2 0x2BDF JUMP JUMPDEST SWAP2 POP POP DUP1 SWAP2 POP POP SWAP3 SWAP2 POP POP JUMP JUMPDEST PUSH1 0x40 DUP3 ADD PUSH1 0x0 DUP3 ADD MLOAD PUSH2 0x2E19 PUSH1 0x0 DUP6 ADD DUP3 PUSH2 0x2BC1 JUMP JUMPDEST POP PUSH1 0x20 DUP3 ADD MLOAD PUSH2 0x2E2C PUSH1 0x20 DUP6 ADD DUP3 PUSH2 0x2BC1 JUMP JUMPDEST POP POP POP POP JUMP JUMPDEST PUSH1 0x0 PUSH2 0x120 DUP4 ADD PUSH1 0x0 DUP4 ADD MLOAD PUSH2 0x2E4B PUSH1 0x0 DUP7 ADD DUP3 PUSH2 0x2EF7 JUMP JUMPDEST POP PUSH1 0x20 DUP4 ADD MLOAD PUSH2 0x2E5E PUSH1 0x20 DUP7 ADD DUP3 PUSH2 0x2BC1 JUMP JUMPDEST POP PUSH1 0x40 DUP4 ADD MLOAD PUSH2 0x2E71 PUSH1 0x40 DUP7 ADD DUP3 PUSH2 0x2BC1 JUMP JUMPDEST POP PUSH1 0x60 DUP4 ADD MLOAD PUSH2 0x2E84 PUSH1 0x60 DUP7 ADD DUP3 PUSH2 0x2C45 JUMP JUMPDEST POP PUSH1 0x80 DUP4 ADD MLOAD DUP5 DUP3 SUB PUSH1 0x80 DUP7 ADD MSTORE PUSH2 0x2E9C DUP3 DUP3 PUSH2 0x2D7B JUMP JUMPDEST SWAP2 POP POP PUSH1 0xA0 DUP4 ADD MLOAD PUSH2 0x2EB1 PUSH1 0xA0 DUP7 ADD DUP3 PUSH2 0x2EF7 JUMP JUMPDEST POP PUSH1 0xC0 DUP4 ADD MLOAD PUSH2 0x2EC4 PUSH1 0xC0 DUP7 ADD DUP3 PUSH2 0x2BC1 JUMP JUMPDEST POP PUSH1 0xE0 DUP4 ADD MLOAD PUSH2 0x2ED7 PUSH1 0xE0 DUP7 ADD DUP3 PUSH2 0x2EF7 JUMP JUMPDEST POP PUSH2 0x100 DUP4 ADD MLOAD PUSH2 0x2EEC PUSH2 0x100 DUP7 ADD DUP3 PUSH2 0x2C27 JUMP JUMPDEST POP DUP1 SWAP2 POP POP SWAP3 SWAP2 POP POP JUMP JUMPDEST PUSH2 0x2F00 DUP2 PUSH2 0x3374 JUMP JUMPDEST DUP3 MSTORE POP POP JUMP JUMPDEST PUSH2 0x2F0F DUP2 PUSH2 0x3374 JUMP JUMPDEST DUP3 MSTORE POP POP JUMP JUMPDEST PUSH1 0x0 PUSH1 0x20 DUP3 ADD SWAP1 POP PUSH2 0x2F2A PUSH1 0x0 DUP4 ADD DUP5 PUSH2 0x2BA3 JUMP JUMPDEST SWAP3 SWAP2 POP POP JUMP JUMPDEST PUSH1 0x0 PUSH2 0x100 DUP3 ADD SWAP1 POP PUSH2 0x2F46 PUSH1 0x0 DUP4 ADD DUP11 PUSH2 0x2BA3 JUMP JUMPDEST DUP2 DUP2 SUB PUSH1 0x20 DUP4 ADD MSTORE PUSH2 0x2F58 DUP2 DUP10 PUSH2 0x2E32 JUMP JUMPDEST SWAP1 POP PUSH2 0x2F67 PUSH1 0x40 DUP4 ADD DUP9 PUSH2 0x2E03 JUMP JUMPDEST PUSH2 0x2F74 PUSH1 0x80 DUP4 ADD DUP8 PUSH2 0x2F06 JUMP JUMPDEST PUSH2 0x2F81 PUSH1 0xA0 DUP4 ADD DUP7 PUSH2 0x2F06 JUMP JUMPDEST PUSH2 0x2F8E PUSH1 0xC0 DUP4 ADD DUP6 PUSH2 0x2F06 JUMP JUMPDEST PUSH2 0x2F9B PUSH1 0xE0 DUP4 ADD DUP5 PUSH2 0x2C18 JUMP JUMPDEST SWAP9 SWAP8 POP POP POP POP POP POP POP POP JUMP JUMPDEST PUSH1 0x0 PUSH1 0x20 DUP3 ADD SWAP1 POP PUSH2 0x2FBC PUSH1 0x0 DUP4 ADD DUP5 PUSH2 0x2BB2 JUMP JUMPDEST SWAP3 SWAP2 POP POP JUMP JUMPDEST PUSH1 0x0 PUSH1 0x20 DUP3 ADD SWAP1 POP PUSH2 0x2FD7 PUSH1 0x0 DUP4 ADD DUP5 PUSH2 0x2BD0 JUMP JUMPDEST SWAP3 SWAP2 POP POP JUMP JUMPDEST PUSH1 0x0 PUSH1 0x20 DUP3 ADD SWAP1 POP DUP2 DUP2 SUB PUSH1 0x0 DUP4 ADD MSTORE PUSH2 0x2FF6 DUP2 PUSH2 0x2C63 JUMP JUMPDEST SWAP1 POP SWAP2 SWAP1 POP JUMP JUMPDEST PUSH1 0x0 PUSH1 0x20 DUP3 ADD SWAP1 POP DUP2 DUP2 SUB PUSH1 0x0 DUP4 ADD MSTORE PUSH2 0x3016 DUP2 PUSH2 0x2C86 JUMP JUMPDEST SWAP1 POP SWAP2 SWAP1 POP JUMP JUMPDEST PUSH1 0x0 PUSH1 0x20 DUP3 ADD SWAP1 POP DUP2 DUP2 SUB PUSH1 0x0 DUP4 ADD MSTORE PUSH2 0x3036 DUP2 PUSH2 0x2CA9 JUMP JUMPDEST SWAP1 POP SWAP2 SWAP1 POP JUMP JUMPDEST PUSH1 0x0 PUSH1 0x20 DUP3 ADD SWAP1 POP DUP2 DUP2 SUB PUSH1 0x0 DUP4 ADD MSTORE PUSH2 0x3056 DUP2 PUSH2 0x2CCC JUMP JUMPDEST SWAP1 POP SWAP2 SWAP1 POP JUMP JUMPDEST PUSH1 0x0 PUSH1 0x20 DUP3 ADD SWAP1 POP DUP2 DUP2 SUB PUSH1 0x0 DUP4 ADD MSTORE PUSH2 0x3076 DUP2 PUSH2 0x2CEF JUMP JUMPDEST SWAP1 POP SWAP2 SWAP1 POP JUMP JUMPDEST PUSH1 0x0 PUSH1 0x20 DUP3 ADD SWAP1 POP DUP2 DUP2 SUB PUSH1 0x0 DUP4 ADD MSTORE PUSH2 0x3096 DUP2 PUSH2 0x2D12 JUMP JUMPDEST SWAP1 POP SWAP2 SWAP1 POP JUMP JUMPDEST PUSH1 0x0 PUSH1 0x20 DUP3 ADD SWAP1 POP DUP2 DUP2 SUB PUSH1 0x0 DUP4 ADD MSTORE PUSH2 0x30B6 DUP2 PUSH2 0x2D35 JUMP JUMPDEST SWAP1 POP SWAP2 SWAP1 POP JUMP JUMPDEST PUSH1 0x0 PUSH1 0x20 DUP3 ADD SWAP1 POP DUP2 DUP2 SUB PUSH1 0x0 DUP4 ADD MSTORE PUSH2 0x30D6 DUP2 PUSH2 0x2D58 JUMP JUMPDEST SWAP1 POP SWAP2 SWAP1 POP JUMP JUMPDEST PUSH1 0x0 PUSH1 0x20 DUP3 ADD SWAP1 POP PUSH2 0x30F2 PUSH1 0x0 DUP4 ADD DUP5 PUSH2 0x2F06 JUMP JUMPDEST SWAP3 SWAP2 POP POP JUMP JUMPDEST PUSH1 0x0 PUSH2 0x120 DUP3 ADD SWAP1 POP PUSH2 0x310E PUSH1 0x0 DUP4 ADD DUP13 PUSH2 0x2F06 JUMP JUMPDEST PUSH2 0x311B PUSH1 0x20 DUP4 ADD DUP12 PUSH2 0x2BD0 JUMP JUMPDEST PUSH2 0x3128 PUSH1 0x40 DUP4 ADD DUP11 PUSH2 0x2BD0 JUMP JUMPDEST PUSH2 0x3135 PUSH1 0x60 DUP4 ADD DUP10 PUSH2 0x2C54 JUMP JUMPDEST DUP2 DUP2 SUB PUSH1 0x80 DUP4 ADD MSTORE PUSH2 0x3147 DUP2 DUP9 PUSH2 0x2DBF JUMP JUMPDEST SWAP1 POP PUSH2 0x3156 PUSH1 0xA0 DUP4 ADD DUP8 PUSH2 0x2F06 JUMP JUMPDEST PUSH2 0x3163 PUSH1 0xC0 DUP4 ADD DUP7 PUSH2 0x2BD0 JUMP JUMPDEST PUSH2 0x3170 PUSH1 0xE0 DUP4 ADD DUP6 PUSH2 0x2F06 JUMP JUMPDEST PUSH2 0x317E PUSH2 0x100 DUP4 ADD DUP5 PUSH2 0x2C36 JUMP JUMPDEST SWAP11 SWAP10 POP POP POP POP POP POP POP POP POP POP JUMP JUMPDEST PUSH1 0x0 PUSH2 0x3196 PUSH2 0x31A7 JUMP JUMPDEST SWAP1 POP PUSH2 0x31A2 DUP3 DUP3 PUSH2 0x3428 JUMP JUMPDEST SWAP2 SWAP1 POP JUMP JUMPDEST PUSH1 0x0 PUSH1 0x40 MLOAD SWAP1 POP SWAP1 JUMP JUMPDEST PUSH1 0x0 PUSH8 0xFFFFFFFFFFFFFFFF DUP3 GT ISZERO PUSH2 0x31CC JUMPI PUSH2 0x31CB PUSH2 0x358D JUMP JUMPDEST JUMPDEST PUSH2 0x31D5 DUP3 PUSH2 0x35DA JUMP JUMPDEST SWAP1 POP PUSH1 0x20 DUP2 ADD SWAP1 POP SWAP2 SWAP1 POP JUMP JUMPDEST PUSH1 0x0 DUP2 MLOAD SWAP1 POP SWAP2 SWAP1 POP JUMP JUMPDEST PUSH1 0x0 DUP3 DUP3 MSTORE PUSH1 0x20 DUP3 ADD SWAP1 POP SWAP3 SWAP2 POP POP JUMP JUMPDEST PUSH1 0x0 DUP3 DUP3 MSTORE PUSH1 0x20 DUP3 ADD SWAP1 POP SWAP3 SWAP2 POP POP JUMP JUMPDEST PUSH1 0x0 PUSH2 0x321A DUP3 PUSH2 0x3374 JUMP JUMPDEST SWAP2 POP PUSH2 0x3225 DUP4 PUSH2 0x3374 JUMP JUMPDEST SWAP3 POP DUP3 PUSH32 0xFFFFFFFFFFFFFFFFFFFFFFFFFFFFFFFFFFFFFFFFFFFFFFFFFFFFFFFFFFFFFFFF SUB DUP3 GT ISZERO PUSH2 0x325A JUMPI PUSH2 0x3259 PUSH2 0x34A2 JUMP JUMPDEST JUMPDEST DUP3 DUP3 ADD SWAP1 POP SWAP3 SWAP2 POP POP JUMP JUMPDEST PUSH1 0x0 PUSH2 0x3270 DUP3 PUSH2 0x3374 JUMP JUMPDEST SWAP2 POP PUSH2 0x327B DUP4 PUSH2 0x3374 JUMP JUMPDEST SWAP3 POP DUP2 PUSH32 0xFFFFFFFFFFFFFFFFFFFFFFFFFFFFFFFFFFFFFFFFFFFFFFFFFFFFFFFFFFFFFFFF DIV DUP4 GT DUP3 ISZERO ISZERO AND ISZERO PUSH2 0x32B4 JUMPI PUSH2 0x32B3 PUSH2 0x34A2 JUMP JUMPDEST JUMPDEST DUP3 DUP3 MUL SWAP1 POP SWAP3 SWAP2 POP POP JUMP JUMPDEST PUSH1 0x0 PUSH2 0x32CA DUP3 PUSH2 0x3374 JUMP JUMPDEST SWAP2 POP PUSH2 0x32D5 DUP4 PUSH2 0x3374 JUMP JUMPDEST SWAP3 POP DUP3 DUP3 LT ISZERO PUSH2 0x32E8 JUMPI PUSH2 0x32E7 PUSH2 0x34A2 JUMP JUMPDEST JUMPDEST DUP3 DUP3 SUB SWAP1 POP SWAP3 SWAP2 POP POP JUMP JUMPDEST PUSH1 0x0 PUSH2 0x32FE DUP3 PUSH2 0x3354 JUMP JUMPDEST SWAP1 POP SWAP2 SWAP1 POP JUMP JUMPDEST PUSH1 0x0 DUP2 ISZERO ISZERO SWAP1 POP SWAP2 SWAP1 POP JUMP JUMPDEST PUSH1 0x0 DUP2 SWAP1 POP SWAP2 SWAP1 POP JUMP JUMPDEST PUSH1 0x0 DUP2 SWAP1 POP PUSH2 0x3329 DUP3 PUSH2 0x3817 JUMP JUMPDEST SWAP2 SWAP1 POP JUMP JUMPDEST PUSH1 0x0 DUP2 SWAP1 POP PUSH2 0x333C DUP3 PUSH2 0x382B JUMP JUMPDEST SWAP2 SWAP1 POP JUMP JUMPDEST PUSH1 0x0 DUP2 SWAP1 POP PUSH2 0x334F DUP3 PUSH2 0x383F JUMP JUMPDEST SWAP2 SWAP1 POP JUMP JUMPDEST PUSH1 0x0 PUSH20 0xFFFFFFFFFFFFFFFFFFFFFFFFFFFFFFFFFFFFFFFF DUP3 AND SWAP1 POP SWAP2 SWAP1 POP JUMP JUMPDEST PUSH1 0x0 DUP2 SWAP1 POP SWAP2 SWAP1 POP JUMP JUMPDEST PUSH1 0x0 PUSH2 0x3389 DUP3 PUSH2 0x331B JUMP JUMPDEST SWAP1 POP SWAP2 SWAP1 POP JUMP JUMPDEST PUSH1 0x0 PUSH2 0x339B DUP3 PUSH2 0x332E JUMP JUMPDEST SWAP1 POP SWAP2 SWAP1 POP JUMP JUMPDEST PUSH1 0x0 PUSH2 0x33AD DUP3 PUSH2 0x3341 JUMP JUMPDEST SWAP1 POP SWAP2 SWAP1 POP JUMP JUMPDEST DUP3 DUP2 DUP4 CALLDATACOPY PUSH1 0x0 DUP4 DUP4 ADD MSTORE POP POP POP JUMP JUMPDEST PUSH1 0x0 JUMPDEST DUP4 DUP2 LT ISZERO PUSH2 0x33E1 JUMPI DUP1 DUP3 ADD MLOAD DUP2 DUP5 ADD MSTORE PUSH1 0x20 DUP2 ADD SWAP1 POP PUSH2 0x33C6 JUMP JUMPDEST DUP4 DUP2 GT ISZERO PUSH2 0x33F0 JUMPI PUSH1 0x0 DUP5 DUP5 ADD MSTORE JUMPDEST POP POP POP POP JUMP JUMPDEST PUSH1 0x0 PUSH1 0x2 DUP3 DIV SWAP1 POP PUSH1 0x1 DUP3 AND DUP1 PUSH2 0x340E JUMPI PUSH1 0x7F DUP3 AND SWAP2 POP JUMPDEST PUSH1 0x20 DUP3 LT DUP2 EQ ISZERO PUSH2 0x3422 JUMPI PUSH2 0x3421 PUSH2 0x3500 JUMP JUMPDEST JUMPDEST POP SWAP2 SWAP1 POP JUMP JUMPDEST PUSH2 0x3431 DUP3 PUSH2 0x35DA JUMP JUMPDEST DUP2 ADD DUP2 DUP2 LT PUSH8 0xFFFFFFFFFFFFFFFF DUP3 GT OR ISZERO PUSH2 0x3450 JUMPI PUSH2 0x344F PUSH2 0x358D JUMP JUMPDEST JUMPDEST DUP1 PUSH1 0x40 MSTORE POP POP POP JUMP JUMPDEST PUSH1 0x0 PUSH2 0x3464 DUP3 PUSH2 0x3374 JUMP JUMPDEST SWAP2 POP PUSH32 0xFFFFFFFFFFFFFFFFFFFFFFFFFFFFFFFFFFFFFFFFFFFFFFFFFFFFFFFFFFFFFFFF DUP3 EQ ISZERO PUSH2 0x3497 JUMPI PUSH2 0x3496 PUSH2 0x34A2 JUMP JUMPDEST JUMPDEST PUSH1 0x1 DUP3 ADD SWAP1 POP SWAP2 SWAP1 POP JUMP JUMPDEST PUSH32 0x4E487B7100000000000000000000000000000000000000000000000000000000 PUSH1 0x0 MSTORE PUSH1 0x11 PUSH1 0x4 MSTORE PUSH1 0x24 PUSH1 0x0 REVERT JUMPDEST PUSH32 0x4E487B7100000000000000000000000000000000000000000000000000000000 PUSH1 0x0 MSTORE PUSH1 0x21 PUSH1 0x4 MSTORE PUSH1 0x24 PUSH1 0x0 REVERT JUMPDEST PUSH32 0x4E487B7100000000000000000000000000000000000000000000000000000000 PUSH1 0x0 MSTORE PUSH1 0x22 PUSH1 0x4 MSTORE PUSH1 0x24 PUSH1 0x0 REVERT JUMPDEST PUSH32 0x4E487B7100000000000000000000000000000000000000000000000000000000 PUSH1 0x0 MSTORE PUSH1 0x31 PUSH1 0x4 MSTORE PUSH1 0x24 PUSH1 0x0 REVERT JUMPDEST PUSH32 0x4E487B7100000000000000000000000000000000000000000000000000000000 PUSH1 0x0 MSTORE PUSH1 0x32 PUSH1 0x4 MSTORE PUSH1 0x24 PUSH1 0x0 REVERT JUMPDEST PUSH32 0x4E487B7100000000000000000000000000000000000000000000000000000000 PUSH1 0x0 MSTORE PUSH1 0x41 PUSH1 0x4 MSTORE PUSH1 0x24 PUSH1 0x0 REVERT JUMPDEST PUSH1 0x0 DUP1 REVERT JUMPDEST PUSH1 0x0 DUP1 REVERT JUMPDEST PUSH1 0x0 DUP1 REVERT JUMPDEST PUSH1 0x0 DUP1 REVERT JUMPDEST PUSH1 0x0 DUP1 REVERT JUMPDEST PUSH1 0x0 DUP1 REVERT JUMPDEST PUSH1 0x0 PUSH1 0x1F NOT PUSH1 0x1F DUP4 ADD AND SWAP1 POP SWAP2 SWAP1 POP JUMP JUMPDEST PUSH32 0x54686520666F6C6C6F77696E6720636F6E74726163742068617320616C726561 PUSH1 0x0 DUP3 ADD MSTORE PUSH32 0x6479206265656E2061646465642E000000000000000000000000000000000000 PUSH1 0x20 DUP3 ADD MSTORE POP JUMP JUMPDEST PUSH32 0x54686520666F6C6C6F77696E672076656869636C652068617320616C72656164 PUSH1 0x0 DUP3 ADD MSTORE PUSH32 0x79206265656E2061646465642E00000000000000000000000000000000000000 PUSH1 0x20 DUP3 ADD MSTORE POP JUMP JUMPDEST PUSH32 0x436F756C64206E6F742070726F63656564206265636175736520746865726520 PUSH1 0x0 DUP3 ADD MSTORE PUSH32 0x6973206E6F7420656E6F7567682045544820696E20796F75722077616C6C6574 PUSH1 0x20 DUP3 ADD MSTORE POP JUMP JUMPDEST PUSH32 0x5265737472696374656420746F206F776E6572732E0000000000000000000000 PUSH1 0x0 DUP3 ADD MSTORE POP JUMP JUMPDEST PUSH32 0x5468652073656C65637465642076656869636C652069732063757272656E746C PUSH1 0x0 DUP3 ADD MSTORE PUSH32 0x79206E6F7420617661696C61626C652E00000000000000000000000000000000 PUSH1 0x20 DUP3 ADD MSTORE POP JUMP JUMPDEST PUSH32 0x54686520666F6C6C6F77696E6720636F6E747261637420636F756C64206E6F74 PUSH1 0x0 DUP3 ADD MSTORE PUSH32 0x20626520666F756E6420696E20746865206D617070696E67206C6973742E0000 PUSH1 0x20 DUP3 ADD MSTORE POP JUMP JUMPDEST PUSH32 0x5265737472696374656420746F2072656E746572732E00000000000000000000 PUSH1 0x0 DUP3 ADD MSTORE POP JUMP JUMPDEST PUSH32 0x54686520666F6C6C6F77696E672076656869636C6520636F756C64206E6F7420 PUSH1 0x0 DUP3 ADD MSTORE PUSH32 0x626520666F756E6420696E20746865206D617070696E67206C6973742E000000 PUSH1 0x20 DUP3 ADD MSTORE POP JUMP JUMPDEST PUSH1 0x3 DUP2 LT PUSH2 0x3828 JUMPI PUSH2 0x3827 PUSH2 0x34D1 JUMP JUMPDEST JUMPDEST POP JUMP JUMPDEST PUSH1 0x2 DUP2 LT PUSH2 0x383C JUMPI PUSH2 0x383B PUSH2 0x34D1 JUMP JUMPDEST JUMPDEST POP JUMP JUMPDEST PUSH1 0x7 DUP2 LT PUSH2 0x3850 JUMPI PUSH2 0x384F PUSH2 0x34D1 JUMP JUMPDEST JUMPDEST POP JUMP JUMPDEST PUSH2 0x385C DUP2 PUSH2 0x32F3 JUMP JUMPDEST DUP2 EQ PUSH2 0x3867 JUMPI PUSH1 0x0 DUP1 REVERT JUMPDEST POP JUMP JUMPDEST PUSH2 0x3873 DUP2 PUSH2 0x3311 JUMP JUMPDEST DUP2 EQ PUSH2 0x387E JUMPI PUSH1 0x0 DUP1 REVERT JUMPDEST POP JUMP JUMPDEST PUSH1 0x7 DUP2 LT PUSH2 0x388E JUMPI PUSH1 0x0 DUP1 REVERT JUMPDEST POP JUMP JUMPDEST PUSH2 0x389A DUP2 PUSH2 0x3374 JUMP JUMPDEST DUP2 EQ PUSH2 0x38A5 JUMPI PUSH1 0x0 DUP1 REVERT JUMPDEST POP JUMP INVALID LOG2 PUSH5 0x6970667358 0x22 SLT KECCAK256 0xC5 0xF9 PUSH4 0x4C3444E9 DUP10 0xE3 SAR 0x2D PUSH31 0x92E8BE36414E24984288B5A0441987710B21378264736F6C63430008070033 "
				},
				"gasEstimates": {
					"creation": {
						"codeDepositCost": "2911600",
						"executionCost": "13197",
						"totalCost": "2924797"
					},
					"external": {
						"OWNER_ROLE()": "461",
						"RENTER_ROLE()": "395",
						"addInsurancePackage(uint256,uint256,uint256)": "infinite",
						"addOwner(address)": "infinite",
						"addRentPeriod(uint256,(bytes32,bytes32),uint256)": "infinite",
						"addRenter(address)": "infinite",
						"addVehicle(bytes32,bytes32,uint8,(bytes,bytes),uint256,bytes32,uint256)": "infinite",
						"completion(uint256,uint256)": "infinite",
						"confirmation(uint256,uint256)": "infinite",
						"contractCount()": "2562",
						"contracts(uint256)": "infinite",
						"getContractByID(uint256)": "infinite",
						"getRoleMember(bytes32,uint256)": "infinite",
						"getRoleMemberCount(bytes32)": "2974",
						"getVehicleByID(uint256)": "infinite",
						"hasRole(bytes32,address)": "infinite",
						"isOwner(address)": "infinite",
						"isRenter(address)": "infinite",
						"removeOwner(address)": "infinite",
						"removeRenter(address)": "infinite",
						"renounceOwner()": "infinite",
						"renounceRenter()": "infinite",
						"vehicleCount()": "2518",
						"vehicles(uint256)": "infinite"
					}
				},
				"methodIdentifiers": {
					"OWNER_ROLE()": "e58378bb",
					"RENTER_ROLE()": "b97c9f77",
					"addInsurancePackage(uint256,uint256,uint256)": "37c3510a",
					"addOwner(address)": "7065cb48",
					"addRentPeriod(uint256,(bytes32,bytes32),uint256)": "a1a25243",
					"addRenter(address)": "de8b1989",
					"addVehicle(bytes32,bytes32,uint8,(bytes,bytes),uint256,bytes32,uint256)": "11060ec7",
					"completion(uint256,uint256)": "87b50547",
					"confirmation(uint256,uint256)": "79b67caa",
					"contractCount()": "8736381a",
					"contracts(uint256)": "474da79a",
					"getContractByID(uint256)": "7b66fe2e",
					"getRoleMember(bytes32,uint256)": "9010d07c",
					"getRoleMemberCount(bytes32)": "ca15c873",
					"getVehicleByID(uint256)": "69a8f49e",
					"hasRole(bytes32,address)": "91d14854",
					"isOwner(address)": "2f54bf6e",
					"isRenter(address)": "9f2bc40e",
					"removeOwner(address)": "173825d9",
					"removeRenter(address)": "02aec3ce",
					"renounceOwner()": "28c23a45",
					"renounceRenter()": "a36a5d8d",
					"vehicleCount()": "99704937",
					"vehicles(uint256)": "b8ba95fa"
				}
			},
			"storageLayout": {
				"storage": [
					{
						"astId": 2396,
						"contract": "contracts/Rental.sol:Rental",
						"label": "_roles",
						"offset": 0,
						"slot": "0",
						"type": "t_mapping(t_bytes32,t_struct(AddressSet)1433_storage)"
					},
					{
						"astId": 1733,
						"contract": "contracts/Rental.sol:Rental",
						"label": "sender",
						"offset": 0,
						"slot": "1",
						"type": "t_address_payable"
					},
					{
						"astId": 1735,
						"contract": "contracts/Rental.sol:Rental",
						"label": "recipient",
						"offset": 0,
						"slot": "2",
						"type": "t_address_payable"
					},
					{
						"astId": 1947,
						"contract": "contracts/Rental.sol:Rental",
						"label": "vehicleCount",
						"offset": 0,
						"slot": "3",
						"type": "t_uint256"
					},
					{
						"astId": 1950,
						"contract": "contracts/Rental.sol:Rental",
						"label": "contractCount",
						"offset": 0,
						"slot": "4",
						"type": "t_uint256"
					},
					{
						"astId": 1955,
						"contract": "contracts/Rental.sol:Rental",
						"label": "getVehicleByID",
						"offset": 0,
						"slot": "5",
						"type": "t_mapping(t_uint256,t_struct(Vehicle)1920_storage)"
					},
					{
						"astId": 1959,
						"contract": "contracts/Rental.sol:Rental",
						"label": "vehicles",
						"offset": 0,
						"slot": "6",
						"type": "t_array(t_struct(Vehicle)1920_storage)dyn_storage"
					},
					{
						"astId": 1964,
						"contract": "contracts/Rental.sol:Rental",
						"label": "getContractByID",
						"offset": 0,
						"slot": "7",
						"type": "t_mapping(t_uint256,t_struct(Contract)1943_storage)"
					},
					{
						"astId": 1968,
						"contract": "contracts/Rental.sol:Rental",
						"label": "contracts",
						"offset": 0,
						"slot": "8",
						"type": "t_array(t_struct(Contract)1943_storage)dyn_storage"
					}
				],
				"types": {
					"t_address": {
						"encoding": "inplace",
						"label": "address",
						"numberOfBytes": "20"
					},
					"t_address_payable": {
						"encoding": "inplace",
						"label": "address payable",
						"numberOfBytes": "20"
					},
					"t_array(t_bytes32)dyn_storage": {
						"base": "t_bytes32",
						"encoding": "dynamic_array",
						"label": "bytes32[]",
						"numberOfBytes": "32"
					},
					"t_array(t_struct(Contract)1943_storage)dyn_storage": {
						"base": "t_struct(Contract)1943_storage",
						"encoding": "dynamic_array",
						"label": "struct Rental.Contract[]",
						"numberOfBytes": "32"
					},
					"t_array(t_struct(Vehicle)1920_storage)dyn_storage": {
						"base": "t_struct(Vehicle)1920_storage",
						"encoding": "dynamic_array",
						"label": "struct Rental.Vehicle[]",
						"numberOfBytes": "32"
					},
					"t_bytes32": {
						"encoding": "inplace",
						"label": "bytes32",
						"numberOfBytes": "32"
					},
					"t_bytes_storage": {
						"encoding": "bytes",
						"label": "bytes",
						"numberOfBytes": "32"
					},
					"t_enum(ContractStatus)1893": {
						"encoding": "inplace",
						"label": "enum Rental.ContractStatus",
						"numberOfBytes": "1"
					},
					"t_enum(VehicleStatus)1889": {
						"encoding": "inplace",
						"label": "enum Rental.VehicleStatus",
						"numberOfBytes": "1"
					},
					"t_enum(VehicleType)1886": {
						"encoding": "inplace",
						"label": "enum Rental.VehicleType",
						"numberOfBytes": "1"
					},
					"t_mapping(t_bytes32,t_struct(AddressSet)1433_storage)": {
						"encoding": "mapping",
						"key": "t_bytes32",
						"label": "mapping(bytes32 => struct EnumerableSet.AddressSet)",
						"numberOfBytes": "32",
						"value": "t_struct(AddressSet)1433_storage"
					},
					"t_mapping(t_bytes32,t_uint256)": {
						"encoding": "mapping",
						"key": "t_bytes32",
						"label": "mapping(bytes32 => uint256)",
						"numberOfBytes": "32",
						"value": "t_uint256"
					},
					"t_mapping(t_uint256,t_struct(Contract)1943_storage)": {
						"encoding": "mapping",
						"key": "t_uint256",
						"label": "mapping(uint256 => struct Rental.Contract)",
						"numberOfBytes": "32",
						"value": "t_struct(Contract)1943_storage"
					},
					"t_mapping(t_uint256,t_struct(Vehicle)1920_storage)": {
						"encoding": "mapping",
						"key": "t_uint256",
						"label": "mapping(uint256 => struct Rental.Vehicle)",
						"numberOfBytes": "32",
						"value": "t_struct(Vehicle)1920_storage"
					},
					"t_struct(AddressSet)1433_storage": {
						"encoding": "inplace",
						"label": "struct EnumerableSet.AddressSet",
						"members": [
							{
								"astId": 1432,
								"contract": "contracts/Rental.sol:Rental",
								"label": "_inner",
								"offset": 0,
								"slot": "0",
								"type": "t_struct(Set)1132_storage"
							}
						],
						"numberOfBytes": "64"
					},
					"t_struct(Contract)1943_storage": {
						"encoding": "inplace",
						"label": "struct Rental.Contract",
						"members": [
							{
								"astId": 1927,
								"contract": "contracts/Rental.sol:Rental",
								"label": "id",
								"offset": 0,
								"slot": "0",
								"type": "t_address"
							},
							{
								"astId": 1930,
								"contract": "contracts/Rental.sol:Rental",
								"label": "selectedVehicle",
								"offset": 0,
								"slot": "1",
								"type": "t_struct(Vehicle)1920_storage"
							},
							{
								"astId": 1933,
								"contract": "contracts/Rental.sol:Rental",
								"label": "period",
								"offset": 0,
								"slot": "11",
								"type": "t_struct(Period)1925_storage"
							},
							{
								"astId": 1935,
								"contract": "contracts/Rental.sol:Rental",
								"label": "totalCost",
								"offset": 0,
								"slot": "13",
								"type": "t_uint256"
							},
							{
								"astId": 1937,
								"contract": "contracts/Rental.sol:Rental",
								"label": "insuranceDeposit",
								"offset": 0,
								"slot": "14",
								"type": "t_uint256"
							},
							{
								"astId": 1939,
								"contract": "contracts/Rental.sol:Rental",
								"label": "dateOfIssuance",
								"offset": 0,
								"slot": "15",
								"type": "t_uint256"
							},
							{
								"astId": 1942,
								"contract": "contracts/Rental.sol:Rental",
								"label": "status",
								"offset": 0,
								"slot": "16",
								"type": "t_enum(ContractStatus)1893"
							}
						],
						"numberOfBytes": "544"
					},
					"t_struct(Coordinate)1898_storage": {
						"encoding": "inplace",
						"label": "struct Rental.Coordinate",
						"members": [
							{
								"astId": 1895,
								"contract": "contracts/Rental.sol:Rental",
								"label": "latitude",
								"offset": 0,
								"slot": "0",
								"type": "t_bytes_storage"
							},
							{
								"astId": 1897,
								"contract": "contracts/Rental.sol:Rental",
								"label": "longitude",
								"offset": 0,
								"slot": "1",
								"type": "t_bytes_storage"
							}
						],
						"numberOfBytes": "64"
					},
					"t_struct(Period)1925_storage": {
						"encoding": "inplace",
						"label": "struct Rental.Period",
						"members": [
							{
								"astId": 1922,
								"contract": "contracts/Rental.sol:Rental",
								"label": "from",
								"offset": 0,
								"slot": "0",
								"type": "t_bytes32"
							},
							{
								"astId": 1924,
								"contract": "contracts/Rental.sol:Rental",
								"label": "to",
								"offset": 0,
								"slot": "1",
								"type": "t_bytes32"
							}
						],
						"numberOfBytes": "64"
					},
					"t_struct(Set)1132_storage": {
						"encoding": "inplace",
						"label": "struct EnumerableSet.Set",
						"members": [
							{
								"astId": 1127,
								"contract": "contracts/Rental.sol:Rental",
								"label": "_values",
								"offset": 0,
								"slot": "0",
								"type": "t_array(t_bytes32)dyn_storage"
							},
							{
								"astId": 1131,
								"contract": "contracts/Rental.sol:Rental",
								"label": "_indexes",
								"offset": 0,
								"slot": "1",
								"type": "t_mapping(t_bytes32,t_uint256)"
							}
						],
						"numberOfBytes": "64"
					},
					"t_struct(Vehicle)1920_storage": {
						"encoding": "inplace",
						"label": "struct Rental.Vehicle",
						"members": [
							{
								"astId": 1900,
								"contract": "contracts/Rental.sol:Rental",
								"label": "id",
								"offset": 0,
								"slot": "0",
								"type": "t_uint256"
							},
							{
								"astId": 1902,
								"contract": "contracts/Rental.sol:Rental",
								"label": "name",
								"offset": 0,
								"slot": "1",
								"type": "t_bytes32"
							},
							{
								"astId": 1904,
								"contract": "contracts/Rental.sol:Rental",
								"label": "brand",
								"offset": 0,
								"slot": "2",
								"type": "t_bytes32"
							},
							{
								"astId": 1907,
								"contract": "contracts/Rental.sol:Rental",
								"label": "vehicleType",
								"offset": 0,
								"slot": "3",
								"type": "t_enum(VehicleType)1886"
							},
							{
								"astId": 1910,
								"contract": "contracts/Rental.sol:Rental",
								"label": "location",
								"offset": 0,
								"slot": "4",
								"type": "t_struct(Coordinate)1898_storage"
							},
							{
								"astId": 1912,
								"contract": "contracts/Rental.sol:Rental",
								"label": "model",
								"offset": 0,
								"slot": "6",
								"type": "t_uint256"
							},
							{
								"astId": 1914,
								"contract": "contracts/Rental.sol:Rental",
								"label": "image",
								"offset": 0,
								"slot": "7",
								"type": "t_bytes32"
							},
							{
								"astId": 1916,
								"contract": "contracts/Rental.sol:Rental",
								"label": "rentCost",
								"offset": 0,
								"slot": "8",
								"type": "t_uint256"
							},
							{
								"astId": 1919,
								"contract": "contracts/Rental.sol:Rental",
								"label": "status",
								"offset": 0,
								"slot": "9",
								"type": "t_enum(VehicleStatus)1889"
							}
						],
						"numberOfBytes": "320"
					},
					"t_uint256": {
						"encoding": "inplace",
						"label": "uint256",
						"numberOfBytes": "32"
					}
				}
			},
			"userdoc": {
				"kind": "user",
				"methods": {
					"vehicleCount()": {
						"notice": "Variables"
					}
				},
				"version": 1
			}
		}
	}
}