{
	"contracts/Rental.sol": {
		"Rental": {
			"abi": [
				{
					"inputs": [],
					"stateMutability": "nonpayable",
					"type": "constructor"
				},
				{
					"anonymous": false,
					"inputs": [
						{
							"indexed": true,
							"internalType": "bytes32",
							"name": "role",
							"type": "bytes32"
						},
						{
							"indexed": true,
							"internalType": "address",
							"name": "account",
							"type": "address"
						},
						{
							"indexed": true,
							"internalType": "address",
							"name": "sender",
							"type": "address"
						}
					],
					"name": "RoleGranted",
					"type": "event"
				},
				{
					"anonymous": false,
					"inputs": [
						{
							"indexed": true,
							"internalType": "bytes32",
							"name": "role",
							"type": "bytes32"
						},
						{
							"indexed": true,
							"internalType": "address",
							"name": "account",
							"type": "address"
						},
						{
							"indexed": true,
							"internalType": "address",
							"name": "sender",
							"type": "address"
						}
					],
					"name": "RoleRevoked",
					"type": "event"
				},
				{
					"inputs": [],
					"name": "OWNER_ROLE",
					"outputs": [
						{
							"internalType": "bytes32",
							"name": "",
							"type": "bytes32"
						}
					],
					"stateMutability": "view",
					"type": "function"
				},
				{
					"inputs": [],
					"name": "RENTER_ROLE",
					"outputs": [
						{
							"internalType": "bytes32",
							"name": "",
							"type": "bytes32"
						}
					],
					"stateMutability": "view",
					"type": "function"
				},
				{
					"inputs": [
						{
							"internalType": "uint256",
							"name": "carId",
							"type": "uint256"
						},
						{
							"internalType": "uint256",
							"name": "contractId",
							"type": "uint256"
						},
						{
							"internalType": "uint256",
							"name": "insuranceDeposit",
							"type": "uint256"
						}
					],
					"name": "addInsurancePackage",
					"outputs": [
						{
							"internalType": "bool",
							"name": "success",
							"type": "bool"
						}
					],
					"stateMutability": "nonpayable",
					"type": "function"
				},
				{
					"inputs": [
						{
							"internalType": "address",
							"name": "account",
							"type": "address"
						}
					],
					"name": "addOwner",
					"outputs": [],
					"stateMutability": "nonpayable",
					"type": "function"
				},
				{
					"inputs": [
						{
							"internalType": "uint256",
							"name": "carId",
							"type": "uint256"
						},
						{
							"components": [
								{
									"internalType": "bytes32",
									"name": "from",
									"type": "bytes32"
								},
								{
									"internalType": "bytes32",
									"name": "to",
									"type": "bytes32"
								}
							],
							"internalType": "struct Rental.Period",
							"name": "period",
							"type": "tuple"
						},
						{
							"internalType": "uint256",
							"name": "dayscount",
							"type": "uint256"
						}
					],
					"name": "addRentPeriod",
					"outputs": [
						{
							"internalType": "bool",
							"name": "success",
							"type": "bool"
						}
					],
					"stateMutability": "nonpayable",
					"type": "function"
				},
				{
					"inputs": [
						{
							"internalType": "address",
							"name": "account",
							"type": "address"
						}
					],
					"name": "addRenter",
					"outputs": [],
					"stateMutability": "nonpayable",
					"type": "function"
				},
				{
					"inputs": [
						{
							"internalType": "bytes32",
							"name": "name",
							"type": "bytes32"
						},
						{
							"internalType": "bytes32",
							"name": "brand",
							"type": "bytes32"
						},
						{
							"internalType": "enum Rental.VehicleType",
							"name": "vehicleType",
							"type": "uint8"
						},
						{
							"components": [
								{
									"internalType": "bytes32",
									"name": "latitude",
									"type": "bytes32"
								},
								{
									"internalType": "bytes32",
									"name": "longitude",
									"type": "bytes32"
								}
							],
							"internalType": "struct Rental.Coordinate",
							"name": "location",
							"type": "tuple"
						},
						{
							"internalType": "uint256",
							"name": "model",
							"type": "uint256"
						},
						{
							"internalType": "bytes32",
							"name": "image",
							"type": "bytes32"
						},
						{
							"internalType": "uint256",
							"name": "rentCost",
							"type": "uint256"
						}
					],
					"name": "addVehicle",
					"outputs": [
						{
							"internalType": "bool",
							"name": "success",
							"type": "bool"
						}
					],
					"stateMutability": "nonpayable",
					"type": "function"
				},
				{
					"inputs": [
						{
							"internalType": "uint256",
							"name": "contractId",
							"type": "uint256"
						},
						{
							"internalType": "uint256",
							"name": "carId",
							"type": "uint256"
						}
					],
					"name": "completion",
					"outputs": [
						{
							"internalType": "bool",
							"name": "success",
							"type": "bool"
						}
					],
					"stateMutability": "payable",
					"type": "function"
				},
				{
					"inputs": [
						{
							"internalType": "uint256",
							"name": "contractId",
							"type": "uint256"
						},
						{
							"internalType": "uint256",
							"name": "carId",
							"type": "uint256"
						}
					],
					"name": "confirmation",
					"outputs": [
						{
							"internalType": "bool",
							"name": "success",
							"type": "bool"
						}
					],
					"stateMutability": "payable",
					"type": "function"
				},
				{
					"inputs": [],
					"name": "contractCount",
					"outputs": [
						{
							"internalType": "uint256",
							"name": "",
							"type": "uint256"
						}
					],
					"stateMutability": "view",
					"type": "function"
				},
				{
					"inputs": [
						{
							"internalType": "uint256",
							"name": "",
							"type": "uint256"
						}
					],
					"name": "contracts",
					"outputs": [
						{
							"internalType": "address",
							"name": "id",
							"type": "address"
						},
						{
							"components": [
								{
									"internalType": "uint256",
									"name": "id",
									"type": "uint256"
								},
								{
									"internalType": "bytes32",
									"name": "name",
									"type": "bytes32"
								},
								{
									"internalType": "bytes32",
									"name": "brand",
									"type": "bytes32"
								},
								{
									"internalType": "enum Rental.VehicleType",
									"name": "vehicleType",
									"type": "uint8"
								},
								{
									"components": [
										{
											"internalType": "bytes32",
											"name": "latitude",
											"type": "bytes32"
										},
										{
											"internalType": "bytes32",
											"name": "longitude",
											"type": "bytes32"
										}
									],
									"internalType": "struct Rental.Coordinate",
									"name": "location",
									"type": "tuple"
								},
								{
									"internalType": "uint256",
									"name": "model",
									"type": "uint256"
								},
								{
									"internalType": "bytes32",
									"name": "image",
									"type": "bytes32"
								},
								{
									"internalType": "uint256",
									"name": "rentCost",
									"type": "uint256"
								},
								{
									"internalType": "enum Rental.VehicleStatus",
									"name": "status",
									"type": "uint8"
								}
							],
							"internalType": "struct Rental.Vehicle",
							"name": "selectedVehicle",
							"type": "tuple"
						},
						{
							"components": [
								{
									"internalType": "bytes32",
									"name": "from",
									"type": "bytes32"
								},
								{
									"internalType": "bytes32",
									"name": "to",
									"type": "bytes32"
								}
							],
							"internalType": "struct Rental.Period",
							"name": "period",
							"type": "tuple"
						},
						{
							"internalType": "uint256",
							"name": "totalCost",
							"type": "uint256"
						},
						{
							"internalType": "uint256",
							"name": "insuranceDeposit",
							"type": "uint256"
						},
						{
							"internalType": "uint256",
							"name": "dateOfIssuance",
							"type": "uint256"
						},
						{
							"internalType": "enum Rental.ContractStatus",
							"name": "status",
							"type": "uint8"
						}
					],
					"stateMutability": "view",
					"type": "function"
				},
				{
					"inputs": [
						{
							"internalType": "uint256",
							"name": "",
							"type": "uint256"
						}
					],
					"name": "getContractByID",
					"outputs": [
						{
							"internalType": "address",
							"name": "id",
							"type": "address"
						},
						{
							"components": [
								{
									"internalType": "uint256",
									"name": "id",
									"type": "uint256"
								},
								{
									"internalType": "bytes32",
									"name": "name",
									"type": "bytes32"
								},
								{
									"internalType": "bytes32",
									"name": "brand",
									"type": "bytes32"
								},
								{
									"internalType": "enum Rental.VehicleType",
									"name": "vehicleType",
									"type": "uint8"
								},
								{
									"components": [
										{
											"internalType": "bytes32",
											"name": "latitude",
											"type": "bytes32"
										},
										{
											"internalType": "bytes32",
											"name": "longitude",
											"type": "bytes32"
										}
									],
									"internalType": "struct Rental.Coordinate",
									"name": "location",
									"type": "tuple"
								},
								{
									"internalType": "uint256",
									"name": "model",
									"type": "uint256"
								},
								{
									"internalType": "bytes32",
									"name": "image",
									"type": "bytes32"
								},
								{
									"internalType": "uint256",
									"name": "rentCost",
									"type": "uint256"
								},
								{
									"internalType": "enum Rental.VehicleStatus",
									"name": "status",
									"type": "uint8"
								}
							],
							"internalType": "struct Rental.Vehicle",
							"name": "selectedVehicle",
							"type": "tuple"
						},
						{
							"components": [
								{
									"internalType": "bytes32",
									"name": "from",
									"type": "bytes32"
								},
								{
									"internalType": "bytes32",
									"name": "to",
									"type": "bytes32"
								}
							],
							"internalType": "struct Rental.Period",
							"name": "period",
							"type": "tuple"
						},
						{
							"internalType": "uint256",
							"name": "totalCost",
							"type": "uint256"
						},
						{
							"internalType": "uint256",
							"name": "insuranceDeposit",
							"type": "uint256"
						},
						{
							"internalType": "uint256",
							"name": "dateOfIssuance",
							"type": "uint256"
						},
						{
							"internalType": "enum Rental.ContractStatus",
							"name": "status",
							"type": "uint8"
						}
					],
					"stateMutability": "view",
					"type": "function"
				},
				{
					"inputs": [
						{
							"internalType": "bytes32",
							"name": "role",
							"type": "bytes32"
						},
						{
							"internalType": "uint256",
							"name": "index",
							"type": "uint256"
						}
					],
					"name": "getRoleMember",
					"outputs": [
						{
							"internalType": "address",
							"name": "",
							"type": "address"
						}
					],
					"stateMutability": "view",
					"type": "function"
				},
				{
					"inputs": [
						{
							"internalType": "bytes32",
							"name": "role",
							"type": "bytes32"
						}
					],
					"name": "getRoleMemberCount",
					"outputs": [
						{
							"internalType": "uint256",
							"name": "",
							"type": "uint256"
						}
					],
					"stateMutability": "view",
					"type": "function"
				},
				{
					"inputs": [
						{
							"internalType": "uint256",
							"name": "",
							"type": "uint256"
						}
					],
					"name": "getVehicleByID",
					"outputs": [
						{
							"internalType": "uint256",
							"name": "id",
							"type": "uint256"
						},
						{
							"internalType": "bytes32",
							"name": "name",
							"type": "bytes32"
						},
						{
							"internalType": "bytes32",
							"name": "brand",
							"type": "bytes32"
						},
						{
							"internalType": "enum Rental.VehicleType",
							"name": "vehicleType",
							"type": "uint8"
						},
						{
							"components": [
								{
									"internalType": "bytes32",
									"name": "latitude",
									"type": "bytes32"
								},
								{
									"internalType": "bytes32",
									"name": "longitude",
									"type": "bytes32"
								}
							],
							"internalType": "struct Rental.Coordinate",
							"name": "location",
							"type": "tuple"
						},
						{
							"internalType": "uint256",
							"name": "model",
							"type": "uint256"
						},
						{
							"internalType": "bytes32",
							"name": "image",
							"type": "bytes32"
						},
						{
							"internalType": "uint256",
							"name": "rentCost",
							"type": "uint256"
						},
						{
							"internalType": "enum Rental.VehicleStatus",
							"name": "status",
							"type": "uint8"
						}
					],
					"stateMutability": "view",
					"type": "function"
				},
				{
					"inputs": [
						{
							"internalType": "bytes32",
							"name": "role",
							"type": "bytes32"
						},
						{
							"internalType": "address",
							"name": "account",
							"type": "address"
						}
					],
					"name": "hasRole",
					"outputs": [
						{
							"internalType": "bool",
							"name": "",
							"type": "bool"
						}
					],
					"stateMutability": "view",
					"type": "function"
				},
				{
					"inputs": [
						{
							"internalType": "address",
							"name": "account",
							"type": "address"
						}
					],
					"name": "isOwner",
					"outputs": [
						{
							"internalType": "bool",
							"name": "",
							"type": "bool"
						}
					],
					"stateMutability": "view",
					"type": "function"
				},
				{
					"inputs": [
						{
							"internalType": "address",
							"name": "account",
							"type": "address"
						}
					],
					"name": "isRenter",
					"outputs": [
						{
							"internalType": "bool",
							"name": "",
							"type": "bool"
						}
					],
					"stateMutability": "view",
					"type": "function"
				},
				{
					"inputs": [
						{
							"internalType": "uint256",
							"name": "",
							"type": "uint256"
						}
					],
					"name": "paymentProcess",
					"outputs": [],
					"stateMutability": "payable",
					"type": "function"
				},
				{
					"inputs": [
						{
							"internalType": "address",
							"name": "account",
							"type": "address"
						}
					],
					"name": "removeOwner",
					"outputs": [],
					"stateMutability": "nonpayable",
					"type": "function"
				},
				{
					"inputs": [
						{
							"internalType": "address",
							"name": "account",
							"type": "address"
						}
					],
					"name": "removeRenter",
					"outputs": [],
					"stateMutability": "nonpayable",
					"type": "function"
				},
				{
					"inputs": [],
					"name": "renounceOwner",
					"outputs": [],
					"stateMutability": "nonpayable",
					"type": "function"
				},
				{
					"inputs": [],
					"name": "renounceRenter",
					"outputs": [],
					"stateMutability": "nonpayable",
					"type": "function"
				},
				{
					"inputs": [],
					"name": "vehicleCount",
					"outputs": [
						{
							"internalType": "uint256",
							"name": "",
							"type": "uint256"
						}
					],
					"stateMutability": "view",
					"type": "function"
				},
				{
					"inputs": [
						{
							"internalType": "uint256",
							"name": "",
							"type": "uint256"
						}
					],
					"name": "vehicles",
					"outputs": [
						{
							"internalType": "uint256",
							"name": "id",
							"type": "uint256"
						},
						{
							"internalType": "bytes32",
							"name": "name",
							"type": "bytes32"
						},
						{
							"internalType": "bytes32",
							"name": "brand",
							"type": "bytes32"
						},
						{
							"internalType": "enum Rental.VehicleType",
							"name": "vehicleType",
							"type": "uint8"
						},
						{
							"components": [
								{
									"internalType": "bytes32",
									"name": "latitude",
									"type": "bytes32"
								},
								{
									"internalType": "bytes32",
									"name": "longitude",
									"type": "bytes32"
								}
							],
							"internalType": "struct Rental.Coordinate",
							"name": "location",
							"type": "tuple"
						},
						{
							"internalType": "uint256",
							"name": "model",
							"type": "uint256"
						},
						{
							"internalType": "bytes32",
							"name": "image",
							"type": "bytes32"
						},
						{
							"internalType": "uint256",
							"name": "rentCost",
							"type": "uint256"
						},
						{
							"internalType": "enum Rental.VehicleStatus",
							"name": "status",
							"type": "uint8"
						}
					],
					"stateMutability": "view",
					"type": "function"
				}
			],
			"devdoc": {
				"kind": "dev",
				"methods": {
					"addInsurancePackage(uint256,uint256,uint256)": {
						"details": "The following function will be used to add insurance package to the selected vehicle. Modifiers:  - Restricted to members of the renter role.  - The selected vehicle should be available.  - The selected contract should exist."
					},
					"addOwner(address)": {
						"details": "Add an account to the owner role. Restricted to proposals."
					},
					"addRentPeriod(uint256,(bytes32,bytes32),uint256)": {
						"details": "The following function will be used to add the rent period to the selected vehicle. Modifiers:  - Restricted to members of the renter role.  - The selected vehicle should exist."
					},
					"addRenter(address)": {
						"details": "Add an account to the renter role. Restricted to proposals."
					},
					"addVehicle(bytes32,bytes32,uint8,(bytes32,bytes32),uint256,bytes32,uint256)": {
						"details": "The following function will be used to add Vehicles. Modifiers:  - Restricted to members of the owner role.  - Should not exist."
					},
					"completion(uint256,uint256)": {
						"details": "The following function will be used to complete the ride and return insurrance money. Modifiers:  - Restricted to members of the renter role.  - The selected vehicle should exist.  - The selected contract should exist.  - The balance of ETH in the billing account wallet should be sufficient."
					},
					"confirmation(uint256,uint256)": {
						"details": "The following function will be used for the selected vehicle and its options (sign contract).  It will include the payment process also. Modifiers:  - Restricted to members of the renter role.  - The selected vehicle should exist.  - The selected vehicle should be available.  - The selected contract should exist.  - The balance of ETH in the billing account wallet should be sufficient."
					},
					"getRoleMember(bytes32,uint256)": {
						"details": "This function will return one of the accounts that contain the 'role' attribute.  The value of the 'index' variable must be between 0 and getRoleMemberCount, excluding both numbers. There is no specific order to the people who hold roles, and the sequence in  which they appear might shift at any time. WARNING:  You need to make sure that all of your queries are performed on the same block  when you are using {getRoleMember} and {getRoleMemberCount}. For more information, take a look at the following: https://forum.openzeppelin.com/t/iterating-over-elements-on-enumerableset-in-openzeppelin-contracts/2296[forum post]"
					},
					"getRoleMemberCount(bytes32)": {
						"details": "This function returns the total number of accounts that contain the 'role' attribute. It is possible to enumerate all bearers of a role by using this method in conjunction with  the getRoleMember method."
					},
					"hasRole(bytes32,address)": {
						"details": "Returns `true` if `account` has been granted `role`."
					},
					"isOwner(address)": {
						"details": "Return `true` if the account belongs to the owner role."
					},
					"isRenter(address)": {
						"details": "Return `true` if the account belongs to the renter role."
					},
					"paymentProcess(uint256)": {
						"details": "The following function will be used to send ETH from wallet to smart contract."
					},
					"removeOwner(address)": {
						"details": "Remove an account from the owner role. Restricted to proposals."
					},
					"removeRenter(address)": {
						"details": "Remove an account from the renter role. Restricted to proposals."
					},
					"renounceOwner()": {
						"details": "Remove oneself from the leader role."
					},
					"renounceRenter()": {
						"details": "Remove oneself from the renter role."
					}
				},
				"version": 1
			},
			"evm": {
				"assembly": "    /* \"contracts/Rental.sol\":80:8002  contract Rental is Access {... */\n  mstore(0x40, 0x80)\n    /* \"contracts/Rental.sol\":1113:1114  0 */\n  0x00\n    /* \"contracts/Rental.sol\":1086:1114  uint public vehicleCount = 0 */\n  0x03\n  sstore\n    /* \"contracts/Rental.sol\":1148:1149  0 */\n  0x00\n    /* \"contracts/Rental.sol\":1120:1149  uint public contractCount = 0 */\n  0x04\n  sstore\n    /* \"contracts/Rental.sol\":1327:1344  constructor() { } */\n  callvalue\n  dup1\n  iszero\n  tag_1\n  jumpi\n  0x00\n  dup1\n  revert\ntag_1:\n  pop\n    /* \"contracts/Rental.sol\":80:8002  contract Rental is Access {... */\n  dataSize(sub_0)\n  dup1\n  dataOffset(sub_0)\n  0x00\n  codecopy\n  0x00\n  return\nstop\n\nsub_0: assembly {\n        /* \"contracts/Rental.sol\":80:8002  contract Rental is Access {... */\n      mstore(0x40, 0x80)\n      jumpi(tag_1, lt(calldatasize, 0x04))\n      shr(0xe0, calldataload(0x00))\n      dup1\n      0x8736381a\n      gt\n      tag_27\n      jumpi\n      dup1\n      0xa1a25243\n      gt\n      tag_28\n      jumpi\n      dup1\n      0xb97c9f77\n      gt\n      tag_29\n      jumpi\n      dup1\n      0xb97c9f77\n      eq\n      tag_23\n      jumpi\n      dup1\n      0xca15c873\n      eq\n      tag_24\n      jumpi\n      dup1\n      0xde8b1989\n      eq\n      tag_25\n      jumpi\n      dup1\n      0xe58378bb\n      eq\n      tag_26\n      jumpi\n      jump(tag_1)\n    tag_29:\n      dup1\n      0xa1a25243\n      eq\n      tag_20\n      jumpi\n      dup1\n      0xa36a5d8d\n      eq\n      tag_21\n      jumpi\n      dup1\n      0xb8ba95fa\n      eq\n      tag_22\n      jumpi\n      jump(tag_1)\n    tag_28:\n      dup1\n      0x8736381a\n      eq\n      tag_14\n      jumpi\n      dup1\n      0x87b50547\n      eq\n      tag_15\n      jumpi\n      dup1\n      0x9010d07c\n      eq\n      tag_16\n      jumpi\n      dup1\n      0x91d14854\n      eq\n      tag_17\n      jumpi\n      dup1\n      0x99704937\n      eq\n      tag_18\n      jumpi\n      dup1\n      0x9f2bc40e\n      eq\n      tag_19\n      jumpi\n      jump(tag_1)\n    tag_27:\n      dup1\n      0x648bbc86\n      gt\n      tag_30\n      jumpi\n      dup1\n      0x648bbc86\n      eq\n      tag_8\n      jumpi\n      dup1\n      0x69a8f49e\n      eq\n      tag_9\n      jumpi\n      dup1\n      0x7065cb48\n      eq\n      tag_10\n      jumpi\n      dup1\n      0x74539cd0\n      eq\n      tag_11\n      jumpi\n      dup1\n      0x79b67caa\n      eq\n      tag_12\n      jumpi\n      dup1\n      0x7b66fe2e\n      eq\n      tag_13\n      jumpi\n      jump(tag_1)\n    tag_30:\n      dup1\n      0x02aec3ce\n      eq\n      tag_2\n      jumpi\n      dup1\n      0x173825d9\n      eq\n      tag_3\n      jumpi\n      dup1\n      0x28c23a45\n      eq\n      tag_4\n      jumpi\n      dup1\n      0x2f54bf6e\n      eq\n      tag_5\n      jumpi\n      dup1\n      0x37c3510a\n      eq\n      tag_6\n      jumpi\n      dup1\n      0x474da79a\n      eq\n      tag_7\n      jumpi\n    tag_1:\n      0x00\n      dup1\n      revert\n        /* \"contracts/Access.sol\":1533:1637  function removeRenter(address account) public virtual {... */\n    tag_2:\n      callvalue\n      dup1\n      iszero\n      tag_31\n      jumpi\n      0x00\n      dup1\n      revert\n    tag_31:\n      pop\n      tag_32\n      0x04\n      dup1\n      calldatasize\n      sub\n      dup2\n      add\n      swap1\n      tag_33\n      swap2\n      swap1\n      tag_34\n      jump\t// in\n    tag_33:\n      tag_35\n      jump\t// in\n    tag_32:\n      stop\n        /* \"contracts/Access.sol\":1720:1822  function removeOwner(address account) public virtual {... */\n    tag_3:\n      callvalue\n      dup1\n      iszero\n      tag_36\n      jumpi\n      0x00\n      dup1\n      revert\n    tag_36:\n      pop\n      tag_37\n      0x04\n      dup1\n      calldatasize\n      sub\n      dup2\n      add\n      swap1\n      tag_38\n      swap2\n      swap1\n      tag_34\n      jump\t// in\n    tag_38:\n      tag_39\n      jump\t// in\n    tag_37:\n      stop\n        /* \"contracts/Access.sol\":1879:1971  function renounceOwner() public virtual {... */\n    tag_4:\n      callvalue\n      dup1\n      iszero\n      tag_40\n      jumpi\n      0x00\n      dup1\n      revert\n    tag_40:\n      pop\n      tag_41\n      tag_42\n      jump\t// in\n    tag_41:\n      stop\n        /* \"contracts/Access.sol\":701:822  function isOwner(address account) public virtual view returns (bool) {... */\n    tag_5:\n      callvalue\n      dup1\n      iszero\n      tag_43\n      jumpi\n      0x00\n      dup1\n      revert\n    tag_43:\n      pop\n      tag_44\n      0x04\n      dup1\n      calldatasize\n      sub\n      dup2\n      add\n      swap1\n      tag_45\n      swap2\n      swap1\n      tag_34\n      jump\t// in\n    tag_45:\n      tag_46\n      jump\t// in\n    tag_44:\n      mload(0x40)\n      tag_47\n      swap2\n      swap1\n      tag_48\n      jump\t// in\n    tag_47:\n      mload(0x40)\n      dup1\n      swap2\n      sub\n      swap1\n      return\n        /* \"contracts/Rental.sol\":5284:5619  function addInsurancePackage(uint carId, uint contractId, uint insuranceDeposit)... */\n    tag_6:\n      callvalue\n      dup1\n      iszero\n      tag_49\n      jumpi\n      0x00\n      dup1\n      revert\n    tag_49:\n      pop\n      tag_50\n      0x04\n      dup1\n      calldatasize\n      sub\n      dup2\n      add\n      swap1\n      tag_51\n      swap2\n      swap1\n      tag_52\n      jump\t// in\n    tag_51:\n      tag_53\n      jump\t// in\n    tag_50:\n      mload(0x40)\n      tag_54\n      swap2\n      swap1\n      tag_48\n      jump\t// in\n    tag_54:\n      mload(0x40)\n      dup1\n      swap2\n      sub\n      swap1\n      return\n        /* \"contracts/Rental.sol\":1293:1320  Contract[] public contracts */\n    tag_7:\n      callvalue\n      dup1\n      iszero\n      tag_55\n      jumpi\n      0x00\n      dup1\n      revert\n    tag_55:\n      pop\n      tag_56\n      0x04\n      dup1\n      calldatasize\n      sub\n      dup2\n      add\n      swap1\n      tag_57\n      swap2\n      swap1\n      tag_58\n      jump\t// in\n    tag_57:\n      tag_59\n      jump\t// in\n    tag_56:\n      mload(0x40)\n      tag_60\n      swap8\n      swap7\n      swap6\n      swap5\n      swap4\n      swap3\n      swap2\n      swap1\n      tag_61\n      jump\t// in\n    tag_60:\n      mload(0x40)\n      dup1\n      swap2\n      sub\n      swap1\n      return\n        /* \"contracts/Rental.sol\":3399:4069  function addVehicle(bytes32 name, bytes32 brand, VehicleType vehicleType, Coordinate memory location, uint model, bytes32 image, uint rentCost) ... */\n    tag_8:\n      callvalue\n      dup1\n      iszero\n      tag_62\n      jumpi\n      0x00\n      dup1\n      revert\n    tag_62:\n      pop\n      tag_63\n      0x04\n      dup1\n      calldatasize\n      sub\n      dup2\n      add\n      swap1\n      tag_64\n      swap2\n      swap1\n      tag_65\n      jump\t// in\n    tag_64:\n      tag_66\n      jump\t// in\n    tag_63:\n      mload(0x40)\n      tag_67\n      swap2\n      swap1\n      tag_48\n      jump\t// in\n    tag_67:\n      mload(0x40)\n      dup1\n      swap2\n      sub\n      swap1\n      return\n        /* \"contracts/Rental.sol\":1156:1202  mapping(uint => Vehicle) public getVehicleByID */\n    tag_9:\n      callvalue\n      dup1\n      iszero\n      tag_68\n      jumpi\n      0x00\n      dup1\n      revert\n    tag_68:\n      pop\n      tag_69\n      0x04\n      dup1\n      calldatasize\n      sub\n      dup2\n      add\n      swap1\n      tag_70\n      swap2\n      swap1\n      tag_58\n      jump\t// in\n    tag_70:\n      tag_71\n      jump\t// in\n    tag_69:\n      mload(0x40)\n      tag_72\n      swap10\n      swap9\n      swap8\n      swap7\n      swap6\n      swap5\n      swap4\n      swap3\n      swap2\n      swap1\n      tag_73\n      jump\t// in\n    tag_72:\n      mload(0x40)\n      dup1\n      swap2\n      sub\n      swap1\n      return\n        /* \"contracts/Access.sol\":1313:1449  function addOwner(address account) public virtual {... */\n    tag_10:\n      callvalue\n      dup1\n      iszero\n      tag_74\n      jumpi\n      0x00\n      dup1\n      revert\n    tag_74:\n      pop\n      tag_75\n      0x04\n      dup1\n      calldatasize\n      sub\n      dup2\n      add\n      swap1\n      tag_76\n      swap2\n      swap1\n      tag_34\n      jump\t// in\n    tag_76:\n      tag_77\n      jump\t// in\n    tag_75:\n      stop\n        /* \"contracts/Rental.sol\":7950:8000  function paymentProcess(uint256) public payable {} */\n    tag_11:\n      tag_78\n      0x04\n      dup1\n      calldatasize\n      sub\n      dup2\n      add\n      swap1\n      tag_79\n      swap2\n      swap1\n      tag_58\n      jump\t// in\n    tag_79:\n      tag_80\n      jump\t// in\n    tag_78:\n      stop\n        /* \"contracts/Rental.sol\":6099:6744  function confirmation(uint contractId, uint carId) ... */\n    tag_12:\n      tag_81\n      0x04\n      dup1\n      calldatasize\n      sub\n      dup2\n      add\n      swap1\n      tag_82\n      swap2\n      swap1\n      tag_83\n      jump\t// in\n    tag_82:\n      tag_84\n      jump\t// in\n    tag_81:\n      mload(0x40)\n      tag_85\n      swap2\n      swap1\n      tag_48\n      jump\t// in\n    tag_85:\n      mload(0x40)\n      dup1\n      swap2\n      sub\n      swap1\n      return\n        /* \"contracts/Rental.sol\":1239:1287  mapping(uint => Contract) public getContractByID */\n    tag_13:\n      callvalue\n      dup1\n      iszero\n      tag_86\n      jumpi\n      0x00\n      dup1\n      revert\n    tag_86:\n      pop\n      tag_87\n      0x04\n      dup1\n      calldatasize\n      sub\n      dup2\n      add\n      swap1\n      tag_88\n      swap2\n      swap1\n      tag_58\n      jump\t// in\n    tag_88:\n      tag_89\n      jump\t// in\n    tag_87:\n      mload(0x40)\n      tag_90\n      swap8\n      swap7\n      swap6\n      swap5\n      swap4\n      swap3\n      swap2\n      swap1\n      tag_61\n      jump\t// in\n    tag_90:\n      mload(0x40)\n      dup1\n      swap2\n      sub\n      swap1\n      return\n        /* \"contracts/Rental.sol\":1120:1149  uint public contractCount = 0 */\n    tag_14:\n      callvalue\n      dup1\n      iszero\n      tag_91\n      jumpi\n      0x00\n      dup1\n      revert\n    tag_91:\n      pop\n      tag_92\n      tag_93\n      jump\t// in\n    tag_92:\n      mload(0x40)\n      tag_94\n      swap2\n      swap1\n      tag_95\n      jump\t// in\n    tag_94:\n      mload(0x40)\n      dup1\n      swap2\n      sub\n      swap1\n      return\n        /* \"contracts/Rental.sol\":7114:7836  function completion(uint contractId, uint carId) ... */\n    tag_15:\n      tag_96\n      0x04\n      dup1\n      calldatasize\n      sub\n      dup2\n      add\n      swap1\n      tag_97\n      swap2\n      swap1\n      tag_83\n      jump\t// in\n    tag_97:\n      tag_98\n      jump\t// in\n    tag_96:\n      mload(0x40)\n      tag_99\n      swap2\n      swap1\n      tag_48\n      jump\t// in\n    tag_99:\n      mload(0x40)\n      dup1\n      swap2\n      sub\n      swap1\n      return\n        /* \"contracts/utils/AccessControl.sol\":2691:2819  function getRoleMember(bytes32 role, uint256 index) public view returns (address) {... */\n    tag_16:\n      callvalue\n      dup1\n      iszero\n      tag_100\n      jumpi\n      0x00\n      dup1\n      revert\n    tag_100:\n      pop\n      tag_101\n      0x04\n      dup1\n      calldatasize\n      sub\n      dup2\n      add\n      swap1\n      tag_102\n      swap2\n      swap1\n      tag_103\n      jump\t// in\n    tag_102:\n      tag_104\n      jump\t// in\n    tag_101:\n      mload(0x40)\n      tag_105\n      swap2\n      swap1\n      tag_106\n      jump\t// in\n    tag_105:\n      mload(0x40)\n      dup1\n      swap2\n      sub\n      swap1\n      return\n        /* \"contracts/utils/AccessControl.sol\":1459:1588  function hasRole(bytes32 role, address account) public view returns (bool) {... */\n    tag_17:\n      callvalue\n      dup1\n      iszero\n      tag_107\n      jumpi\n      0x00\n      dup1\n      revert\n    tag_107:\n      pop\n      tag_108\n      0x04\n      dup1\n      calldatasize\n      sub\n      dup2\n      add\n      swap1\n      tag_109\n      swap2\n      swap1\n      tag_110\n      jump\t// in\n    tag_109:\n      tag_111\n      jump\t// in\n    tag_108:\n      mload(0x40)\n      tag_112\n      swap2\n      swap1\n      tag_48\n      jump\t// in\n    tag_112:\n      mload(0x40)\n      dup1\n      swap2\n      sub\n      swap1\n      return\n        /* \"contracts/Rental.sol\":1086:1114  uint public vehicleCount = 0 */\n    tag_18:\n      callvalue\n      dup1\n      iszero\n      tag_113\n      jumpi\n      0x00\n      dup1\n      revert\n    tag_113:\n      pop\n      tag_114\n      tag_115\n      jump\t// in\n    tag_114:\n      mload(0x40)\n      tag_116\n      swap2\n      swap1\n      tag_95\n      jump\t// in\n    tag_116:\n      mload(0x40)\n      dup1\n      swap2\n      sub\n      swap1\n      return\n        /* \"contracts/Access.sol\":898:1021  function isRenter(address account) public virtual view returns (bool) {... */\n    tag_19:\n      callvalue\n      dup1\n      iszero\n      tag_117\n      jumpi\n      0x00\n      dup1\n      revert\n    tag_117:\n      pop\n      tag_118\n      0x04\n      dup1\n      calldatasize\n      sub\n      dup2\n      add\n      swap1\n      tag_119\n      swap2\n      swap1\n      tag_34\n      jump\t// in\n    tag_119:\n      tag_120\n      jump\t// in\n    tag_118:\n      mload(0x40)\n      tag_121\n      swap2\n      swap1\n      tag_48\n      jump\t// in\n    tag_121:\n      mload(0x40)\n      dup1\n      swap2\n      sub\n      swap1\n      return\n        /* \"contracts/Rental.sol\":4309:4985  function addRentPeriod(uint carId, Period memory period, uint dayscount) ... */\n    tag_20:\n      callvalue\n      dup1\n      iszero\n      tag_122\n      jumpi\n      0x00\n      dup1\n      revert\n    tag_122:\n      pop\n      tag_123\n      0x04\n      dup1\n      calldatasize\n      sub\n      dup2\n      add\n      swap1\n      tag_124\n      swap2\n      swap1\n      tag_125\n      jump\t// in\n    tag_124:\n      tag_126\n      jump\t// in\n    tag_123:\n      mload(0x40)\n      tag_127\n      swap2\n      swap1\n      tag_48\n      jump\t// in\n    tag_127:\n      mload(0x40)\n      dup1\n      swap2\n      sub\n      swap1\n      return\n        /* \"contracts/Access.sol\":2027:2121  function renounceRenter() public virtual {... */\n    tag_21:\n      callvalue\n      dup1\n      iszero\n      tag_128\n      jumpi\n      0x00\n      dup1\n      revert\n    tag_128:\n      pop\n      tag_129\n      tag_130\n      jump\t// in\n    tag_129:\n      stop\n        /* \"contracts/Rental.sol\":1208:1233  Vehicle[] public vehicles */\n    tag_22:\n      callvalue\n      dup1\n      iszero\n      tag_131\n      jumpi\n      0x00\n      dup1\n      revert\n    tag_131:\n      pop\n      tag_132\n      0x04\n      dup1\n      calldatasize\n      sub\n      dup2\n      add\n      swap1\n      tag_133\n      swap2\n      swap1\n      tag_58\n      jump\t// in\n    tag_133:\n      tag_134\n      jump\t// in\n    tag_132:\n      mload(0x40)\n      tag_135\n      swap10\n      swap9\n      swap8\n      swap7\n      swap6\n      swap5\n      swap4\n      swap3\n      swap2\n      swap1\n      tag_73\n      jump\t// in\n    tag_135:\n      mload(0x40)\n      dup1\n      swap2\n      sub\n      swap1\n      return\n        /* \"contracts/Access.sol\":192:238  bytes32 public constant RENTER_ROLE = \"RENTER\" */\n    tag_23:\n      callvalue\n      dup1\n      iszero\n      tag_136\n      jumpi\n      0x00\n      dup1\n      revert\n    tag_136:\n      pop\n      tag_137\n      tag_138\n      jump\t// in\n    tag_137:\n      mload(0x40)\n      tag_139\n      swap2\n      swap1\n      tag_140\n      jump\t// in\n    tag_139:\n      mload(0x40)\n      dup1\n      swap2\n      sub\n      swap1\n      return\n        /* \"contracts/utils/AccessControl.sol\":1840:1957  function getRoleMemberCount(bytes32 role) public view returns (uint256) {... */\n    tag_24:\n      callvalue\n      dup1\n      iszero\n      tag_141\n      jumpi\n      0x00\n      dup1\n      revert\n    tag_141:\n      pop\n      tag_142\n      0x04\n      dup1\n      calldatasize\n      sub\n      dup2\n      add\n      swap1\n      tag_143\n      swap2\n      swap1\n      tag_144\n      jump\t// in\n    tag_143:\n      tag_145\n      jump\t// in\n    tag_142:\n      mload(0x40)\n      tag_146\n      swap2\n      swap1\n      tag_95\n      jump\t// in\n    tag_146:\n      mload(0x40)\n      dup1\n      swap2\n      sub\n      swap1\n      return\n        /* \"contracts/Access.sol\":1100:1235  function addRenter(address account) public virtual {... */\n    tag_25:\n      callvalue\n      dup1\n      iszero\n      tag_147\n      jumpi\n      0x00\n      dup1\n      revert\n    tag_147:\n      pop\n      tag_148\n      0x04\n      dup1\n      calldatasize\n      sub\n      dup2\n      add\n      swap1\n      tag_149\n      swap2\n      swap1\n      tag_34\n      jump\t// in\n    tag_149:\n      tag_150\n      jump\t// in\n    tag_148:\n      stop\n        /* \"contracts/Access.sol\":142:186  bytes32 public constant OWNER_ROLE = \"OWNER\" */\n    tag_26:\n      callvalue\n      dup1\n      iszero\n      tag_151\n      jumpi\n      0x00\n      dup1\n      revert\n    tag_151:\n      pop\n      tag_152\n      tag_153\n      jump\t// in\n    tag_152:\n      mload(0x40)\n      tag_154\n      swap2\n      swap1\n      tag_140\n      jump\t// in\n    tag_154:\n      mload(0x40)\n      dup1\n      swap2\n      sub\n      swap1\n      return\n        /* \"contracts/Access.sol\":1533:1637  function removeRenter(address account) public virtual {... */\n    tag_35:\n        /* \"contracts/Access.sol\":1597:1630  _revokeRole(RENTER_ROLE, account) */\n      tag_156\n        /* \"contracts/Access.sol\":1609:1620  RENTER_ROLE */\n      0x52454e5445520000000000000000000000000000000000000000000000000000\n        /* \"contracts/Access.sol\":1622:1629  account */\n      dup3\n        /* \"contracts/Access.sol\":1597:1608  _revokeRole */\n      tag_157\n        /* \"contracts/Access.sol\":1597:1630  _revokeRole(RENTER_ROLE, account) */\n      jump\t// in\n    tag_156:\n        /* \"contracts/Access.sol\":1533:1637  function removeRenter(address account) public virtual {... */\n      pop\n      jump\t// out\n        /* \"contracts/Access.sol\":1720:1822  function removeOwner(address account) public virtual {... */\n    tag_39:\n        /* \"contracts/Access.sol\":1783:1815  _revokeRole(OWNER_ROLE, account) */\n      tag_159\n        /* \"contracts/Access.sol\":1795:1805  OWNER_ROLE */\n      0x4f574e4552000000000000000000000000000000000000000000000000000000\n        /* \"contracts/Access.sol\":1807:1814  account */\n      dup3\n        /* \"contracts/Access.sol\":1783:1794  _revokeRole */\n      tag_157\n        /* \"contracts/Access.sol\":1783:1815  _revokeRole(OWNER_ROLE, account) */\n      jump\t// in\n    tag_159:\n        /* \"contracts/Access.sol\":1720:1822  function removeOwner(address account) public virtual {... */\n      pop\n      jump\t// out\n        /* \"contracts/Access.sol\":1879:1971  function renounceOwner() public virtual {... */\n    tag_42:\n        /* \"contracts/Access.sol\":1929:1964  _revokeRole(OWNER_ROLE, msg.sender) */\n      tag_161\n        /* \"contracts/Access.sol\":1941:1951  OWNER_ROLE */\n      0x4f574e4552000000000000000000000000000000000000000000000000000000\n        /* \"contracts/Access.sol\":1953:1963  msg.sender */\n      caller\n        /* \"contracts/Access.sol\":1929:1940  _revokeRole */\n      tag_157\n        /* \"contracts/Access.sol\":1929:1964  _revokeRole(OWNER_ROLE, msg.sender) */\n      jump\t// in\n    tag_161:\n        /* \"contracts/Access.sol\":1879:1971  function renounceOwner() public virtual {... */\n      jump\t// out\n        /* \"contracts/Access.sol\":701:822  function isOwner(address account) public virtual view returns (bool) {... */\n    tag_46:\n        /* \"contracts/Access.sol\":764:768  bool */\n      0x00\n        /* \"contracts/Access.sol\":787:815  hasRole(OWNER_ROLE, account) */\n      tag_163\n        /* \"contracts/Access.sol\":795:805  OWNER_ROLE */\n      0x4f574e4552000000000000000000000000000000000000000000000000000000\n        /* \"contracts/Access.sol\":807:814  account */\n      dup4\n        /* \"contracts/Access.sol\":787:794  hasRole */\n      tag_111\n        /* \"contracts/Access.sol\":787:815  hasRole(OWNER_ROLE, account) */\n      jump\t// in\n    tag_163:\n        /* \"contracts/Access.sol\":780:815  return hasRole(OWNER_ROLE, account) */\n      swap1\n      pop\n        /* \"contracts/Access.sol\":701:822  function isOwner(address account) public virtual view returns (bool) {... */\n      swap2\n      swap1\n      pop\n      jump\t// out\n        /* \"contracts/Rental.sol\":5284:5619  function addInsurancePackage(uint carId, uint contractId, uint insuranceDeposit)... */\n    tag_53:\n        /* \"contracts/Rental.sol\":5470:5482  bool success */\n      0x00\n        /* \"contracts/Access.sol\":561:581  isRenter(msg.sender) */\n      tag_165\n        /* \"contracts/Access.sol\":570:580  msg.sender */\n      caller\n        /* \"contracts/Access.sol\":561:569  isRenter */\n      tag_120\n        /* \"contracts/Access.sol\":561:581  isRenter(msg.sender) */\n      jump\t// in\n    tag_165:\n        /* \"contracts/Access.sol\":553:608  require(isRenter(msg.sender), \"Restricted to renters.\") */\n      tag_166\n      jumpi\n      mload(0x40)\n      0x08c379a000000000000000000000000000000000000000000000000000000000\n      dup2\n      mstore\n      0x04\n      add\n      tag_167\n      swap1\n      tag_168\n      jump\t// in\n    tag_167:\n      mload(0x40)\n      dup1\n      swap2\n      sub\n      swap1\n      revert\n    tag_166:\n        /* \"contracts/Rental.sol\":5418:5423  carId */\n      dup4\n        /* \"contracts/Rental.sol\":1979:2002  VehicleStatus.Available */\n      0x00\n        /* \"contracts/Rental.sol\":1950:2002  getVehicleByID[id].status == VehicleStatus.Available */\n      0x01\n      dup2\n      gt\n      iszero\n      tag_170\n      jumpi\n      tag_171\n      tag_172\n      jump\t// in\n    tag_171:\n    tag_170:\n        /* \"contracts/Rental.sol\":1950:1964  getVehicleByID */\n      0x05\n        /* \"contracts/Rental.sol\":1950:1968  getVehicleByID[id] */\n      0x00\n        /* \"contracts/Rental.sol\":1965:1967  id */\n      dup4\n        /* \"contracts/Rental.sol\":1950:1968  getVehicleByID[id] */\n      dup2\n      mstore\n      0x20\n      add\n      swap1\n      dup2\n      mstore\n      0x20\n      add\n      0x00\n      keccak256\n        /* \"contracts/Rental.sol\":1950:1975  getVehicleByID[id].status */\n      0x09\n      add\n      0x00\n      swap1\n      sload\n      swap1\n      0x0100\n      exp\n      swap1\n      div\n      0xff\n      and\n        /* \"contracts/Rental.sol\":1950:2002  getVehicleByID[id].status == VehicleStatus.Available */\n      0x01\n      dup2\n      gt\n      iszero\n      tag_173\n      jumpi\n      tag_174\n      tag_172\n      jump\t// in\n    tag_174:\n    tag_173:\n      eq\n        /* \"contracts/Rental.sol\":1942:2055  require(getVehicleByID[id].status == VehicleStatus.Available, \"The selected vehicle is currently not available.\") */\n      tag_175\n      jumpi\n      mload(0x40)\n      0x08c379a000000000000000000000000000000000000000000000000000000000\n      dup2\n      mstore\n      0x04\n      add\n      tag_176\n      swap1\n      tag_177\n      jump\t// in\n    tag_176:\n      mload(0x40)\n      dup1\n      swap2\n      sub\n      swap1\n      revert\n    tag_175:\n        /* \"contracts/Rental.sol\":5441:5451  contractId */\n      dup4\n        /* \"contracts/Rental.sol\":2457:2460  0x0 */\n      0x00\n        /* \"contracts/Rental.sol\":2423:2461  getContractByID[id].id != address(0x0) */\n      0xffffffffffffffffffffffffffffffffffffffff\n      and\n        /* \"contracts/Rental.sol\":2423:2438  getContractByID */\n      0x07\n        /* \"contracts/Rental.sol\":2423:2442  getContractByID[id] */\n      0x00\n        /* \"contracts/Rental.sol\":2439:2441  id */\n      dup4\n        /* \"contracts/Rental.sol\":2423:2442  getContractByID[id] */\n      dup2\n      mstore\n      0x20\n      add\n      swap1\n      dup2\n      mstore\n      0x20\n      add\n      0x00\n      keccak256\n        /* \"contracts/Rental.sol\":2423:2445  getContractByID[id].id */\n      0x00\n      add\n      0x00\n      swap1\n      sload\n      swap1\n      0x0100\n      exp\n      swap1\n      div\n      0xffffffffffffffffffffffffffffffffffffffff\n      and\n        /* \"contracts/Rental.sol\":2423:2461  getContractByID[id].id != address(0x0) */\n      0xffffffffffffffffffffffffffffffffffffffff\n      and\n      eq\n      iszero\n        /* \"contracts/Rental.sol\":2415:2528  require(getContractByID[id].id != address(0x0), \"The following contract could not be found in the mapping list.\") */\n      tag_179\n      jumpi\n      mload(0x40)\n      0x08c379a000000000000000000000000000000000000000000000000000000000\n      dup2\n      mstore\n      0x04\n      add\n      tag_180\n      swap1\n      tag_181\n      jump\t// in\n    tag_180:\n      mload(0x40)\n      dup1\n      swap2\n      sub\n      swap1\n      revert\n    tag_179:\n        /* \"contracts/Rental.sol\":5545:5561  insuranceDeposit */\n      dup4\n        /* \"contracts/Rental.sol\":5498:5513  getContractByID */\n      0x07\n        /* \"contracts/Rental.sol\":5498:5525  getContractByID[contractId] */\n      0x00\n        /* \"contracts/Rental.sol\":5514:5524  contractId */\n      dup8\n        /* \"contracts/Rental.sol\":5498:5525  getContractByID[contractId] */\n      dup2\n      mstore\n      0x20\n      add\n      swap1\n      dup2\n      mstore\n      0x20\n      add\n      0x00\n      keccak256\n        /* \"contracts/Rental.sol\":5498:5542  getContractByID[contractId].insuranceDeposit */\n      0x0e\n      add\n        /* \"contracts/Rental.sol\":5498:5561  getContractByID[contractId].insuranceDeposit = insuranceDeposit */\n      dup2\n      swap1\n      sstore\n      pop\n        /* \"contracts/Rental.sol\":5599:5612  contractCount */\n      sload(0x04)\n        /* \"contracts/Rental.sol\":5579:5588  contracts */\n      0x08\n        /* \"contracts/Rental.sol\":5579:5595  contracts.length */\n      dup1\n      sload\n      swap1\n      pop\n        /* \"contracts/Rental.sol\":5579:5612  contracts.length == contractCount */\n      eq\n        /* \"contracts/Rental.sol\":5572:5612  return contracts.length == contractCount */\n      swap3\n      pop\n        /* \"contracts/Rental.sol\":2065:2066  _ */\n      pop\n        /* \"contracts/Access.sol\":618:619  _ */\n      pop\n        /* \"contracts/Rental.sol\":5284:5619  function addInsurancePackage(uint carId, uint contractId, uint insuranceDeposit)... */\n      swap4\n      swap3\n      pop\n      pop\n      pop\n      jump\t// out\n        /* \"contracts/Rental.sol\":1293:1320  Contract[] public contracts */\n    tag_59:\n      0x08\n      dup2\n      dup2\n      sload\n      dup2\n      lt\n      tag_183\n      jumpi\n      0x00\n      dup1\n      revert\n    tag_183:\n      swap1\n      0x00\n      mstore\n      keccak256(0x00, 0x20)\n      swap1\n      0x11\n      mul\n      add\n      0x00\n      swap2\n      pop\n      swap1\n      pop\n      dup1\n      0x00\n      add\n      0x00\n      swap1\n      sload\n      swap1\n      0x0100\n      exp\n      swap1\n      div\n      0xffffffffffffffffffffffffffffffffffffffff\n      and\n      swap1\n      dup1\n      0x01\n      add\n      mload(0x40)\n      dup1\n      0x0120\n      add\n      0x40\n      mstore\n      swap1\n      dup2\n      0x00\n      dup3\n      add\n      sload\n      dup2\n      mstore\n      0x20\n      add\n      0x01\n      dup3\n      add\n      sload\n      dup2\n      mstore\n      0x20\n      add\n      0x02\n      dup3\n      add\n      sload\n      dup2\n      mstore\n      0x20\n      add\n      0x03\n      dup3\n      add\n      0x00\n      swap1\n      sload\n      swap1\n      0x0100\n      exp\n      swap1\n      div\n      0xff\n      and\n      0x06\n      dup2\n      gt\n      iszero\n      tag_185\n      jumpi\n      tag_186\n      tag_172\n      jump\t// in\n    tag_186:\n    tag_185:\n      0x06\n      dup2\n      gt\n      iszero\n      tag_187\n      jumpi\n      tag_188\n      tag_172\n      jump\t// in\n    tag_188:\n    tag_187:\n      dup2\n      mstore\n      0x20\n      add\n      0x04\n      dup3\n      add\n      mload(0x40)\n      dup1\n      0x40\n      add\n      0x40\n      mstore\n      swap1\n      dup2\n      0x00\n      dup3\n      add\n      sload\n      dup2\n      mstore\n      0x20\n      add\n      0x01\n      dup3\n      add\n      sload\n      dup2\n      mstore\n      pop\n      pop\n      dup2\n      mstore\n      0x20\n      add\n      0x06\n      dup3\n      add\n      sload\n      dup2\n      mstore\n      0x20\n      add\n      0x07\n      dup3\n      add\n      sload\n      dup2\n      mstore\n      0x20\n      add\n      0x08\n      dup3\n      add\n      sload\n      dup2\n      mstore\n      0x20\n      add\n      0x09\n      dup3\n      add\n      0x00\n      swap1\n      sload\n      swap1\n      0x0100\n      exp\n      swap1\n      div\n      0xff\n      and\n      0x01\n      dup2\n      gt\n      iszero\n      tag_189\n      jumpi\n      tag_190\n      tag_172\n      jump\t// in\n    tag_190:\n    tag_189:\n      0x01\n      dup2\n      gt\n      iszero\n      tag_191\n      jumpi\n      tag_192\n      tag_172\n      jump\t// in\n    tag_192:\n    tag_191:\n      dup2\n      mstore\n      pop\n      pop\n      swap1\n      dup1\n      0x0b\n      add\n      mload(0x40)\n      dup1\n      0x40\n      add\n      0x40\n      mstore\n      swap1\n      dup2\n      0x00\n      dup3\n      add\n      sload\n      dup2\n      mstore\n      0x20\n      add\n      0x01\n      dup3\n      add\n      sload\n      dup2\n      mstore\n      pop\n      pop\n      swap1\n      dup1\n      0x0d\n      add\n      sload\n      swap1\n      dup1\n      0x0e\n      add\n      sload\n      swap1\n      dup1\n      0x0f\n      add\n      sload\n      swap1\n      dup1\n      0x10\n      add\n      0x00\n      swap1\n      sload\n      swap1\n      0x0100\n      exp\n      swap1\n      div\n      0xff\n      and\n      swap1\n      pop\n      dup8\n      jump\t// out\n        /* \"contracts/Rental.sol\":3399:4069  function addVehicle(bytes32 name, bytes32 brand, VehicleType vehicleType, Coordinate memory location, uint model, bytes32 image, uint rentCost) ... */\n    tag_66:\n        /* \"contracts/Rental.sol\":3617:3629  bool success */\n      0x00\n        /* \"contracts/Access.sol\":397:416  isOwner(msg.sender) */\n      tag_194\n        /* \"contracts/Access.sol\":405:415  msg.sender */\n      caller\n        /* \"contracts/Access.sol\":397:404  isOwner */\n      tag_46\n        /* \"contracts/Access.sol\":397:416  isOwner(msg.sender) */\n      jump\t// in\n    tag_194:\n        /* \"contracts/Access.sol\":389:442  require(isOwner(msg.sender), \"Restricted to owners.\") */\n      tag_195\n      jumpi\n      mload(0x40)\n      0x08c379a000000000000000000000000000000000000000000000000000000000\n      dup2\n      mstore\n      0x04\n      add\n      tag_196\n      swap1\n      tag_197\n      jump\t// in\n    tag_196:\n      mload(0x40)\n      dup1\n      swap2\n      sub\n      swap1\n      revert\n    tag_195:\n        /* \"contracts/Rental.sol\":1521:1522  1 */\n      0x01\n        /* \"contracts/Rental.sol\":1508:1520  vehicleCount */\n      sload(0x03)\n        /* \"contracts/Rental.sol\":1508:1522  vehicleCount+1 */\n      tag_199\n      swap2\n      swap1\n      tag_200\n      jump\t// in\n    tag_199:\n        /* \"contracts/Rental.sol\":1490:1498  vehicles */\n      0x06\n        /* \"contracts/Rental.sol\":1490:1505  vehicles.length */\n      dup1\n      sload\n      swap1\n      pop\n        /* \"contracts/Rental.sol\":1490:1522  vehicles.length < vehicleCount+1 */\n      lt\n        /* \"contracts/Rental.sol\":1482:1572  require(vehicles.length < vehicleCount+1, \"The following vehicle has already been added.\") */\n      tag_201\n      jumpi\n      mload(0x40)\n      0x08c379a000000000000000000000000000000000000000000000000000000000\n      dup2\n      mstore\n      0x04\n      add\n      tag_202\n      swap1\n      tag_203\n      jump\t// in\n    tag_202:\n      mload(0x40)\n      dup1\n      swap2\n      sub\n      swap1\n      revert\n    tag_201:\n        /* \"contracts/Rental.sol\":3645:3657  vehicleCount */\n      0x03\n      0x00\n        /* \"contracts/Rental.sol\":3645:3659  vehicleCount++ */\n      dup2\n      sload\n      dup1\n      swap3\n      swap2\n      swap1\n      tag_205\n      swap1\n      tag_206\n      jump\t// in\n    tag_205:\n      swap2\n      swap1\n      pop\n      sstore\n      pop\n        /* \"contracts/Rental.sol\":3669:3696  Vehicle memory temporaryObj */\n      0x00\n        /* \"contracts/Rental.sol\":3699:3923  Vehicle(... */\n      mload(0x40)\n      dup1\n      0x0120\n      add\n      0x40\n      mstore\n      dup1\n        /* \"contracts/Rental.sol\":3720:3732  vehicleCount */\n      sload(0x03)\n        /* \"contracts/Rental.sol\":3699:3923  Vehicle(... */\n      dup2\n      mstore\n      0x20\n      add\n        /* \"contracts/Rental.sol\":3746:3750  name */\n      dup11\n        /* \"contracts/Rental.sol\":3699:3923  Vehicle(... */\n      dup2\n      mstore\n      0x20\n      add\n        /* \"contracts/Rental.sol\":3764:3769  brand */\n      dup10\n        /* \"contracts/Rental.sol\":3699:3923  Vehicle(... */\n      dup2\n      mstore\n      0x20\n      add\n        /* \"contracts/Rental.sol\":3783:3794  vehicleType */\n      dup9\n        /* \"contracts/Rental.sol\":3699:3923  Vehicle(... */\n      0x06\n      dup2\n      gt\n      iszero\n      tag_207\n      jumpi\n      tag_208\n      tag_172\n      jump\t// in\n    tag_208:\n    tag_207:\n      dup2\n      mstore\n      0x20\n      add\n        /* \"contracts/Rental.sol\":3808:3816  location */\n      dup8\n        /* \"contracts/Rental.sol\":3699:3923  Vehicle(... */\n      dup2\n      mstore\n      0x20\n      add\n        /* \"contracts/Rental.sol\":3830:3835  model */\n      dup7\n        /* \"contracts/Rental.sol\":3699:3923  Vehicle(... */\n      dup2\n      mstore\n      0x20\n      add\n        /* \"contracts/Rental.sol\":3849:3854  image */\n      dup6\n        /* \"contracts/Rental.sol\":3699:3923  Vehicle(... */\n      dup2\n      mstore\n      0x20\n      add\n        /* \"contracts/Rental.sol\":3868:3876  rentCost */\n      dup5\n        /* \"contracts/Rental.sol\":3699:3923  Vehicle(... */\n      dup2\n      mstore\n      0x20\n      add\n        /* \"contracts/Rental.sol\":3890:3913  VehicleStatus.Available */\n      0x00\n        /* \"contracts/Rental.sol\":3699:3923  Vehicle(... */\n      0x01\n      dup2\n      gt\n      iszero\n      tag_209\n      jumpi\n      tag_210\n      tag_172\n      jump\t// in\n    tag_210:\n    tag_209:\n      dup2\n      mstore\n      pop\n        /* \"contracts/Rental.sol\":3669:3923  Vehicle memory temporaryObj = Vehicle(... */\n      swap1\n      pop\n        /* \"contracts/Rental.sol\":3964:3976  temporaryObj */\n      dup1\n        /* \"contracts/Rental.sol\":3933:3947  getVehicleByID */\n      0x05\n        /* \"contracts/Rental.sol\":3933:3961  getVehicleByID[vehicleCount] */\n      0x00\n        /* \"contracts/Rental.sol\":3948:3960  vehicleCount */\n      sload(0x03)\n        /* \"contracts/Rental.sol\":3933:3961  getVehicleByID[vehicleCount] */\n      dup2\n      mstore\n      0x20\n      add\n      swap1\n      dup2\n      mstore\n      0x20\n      add\n      0x00\n      keccak256\n        /* \"contracts/Rental.sol\":3933:3976  getVehicleByID[vehicleCount] = temporaryObj */\n      0x00\n      dup3\n      add\n      mload\n      dup2\n      0x00\n      add\n      sstore\n      0x20\n      dup3\n      add\n      mload\n      dup2\n      0x01\n      add\n      sstore\n      0x40\n      dup3\n      add\n      mload\n      dup2\n      0x02\n      add\n      sstore\n      0x60\n      dup3\n      add\n      mload\n      dup2\n      0x03\n      add\n      exp(0x0100, 0x00)\n      dup2\n      sload\n      dup2\n      0xff\n      mul\n      not\n      and\n      swap1\n      dup4\n      0x06\n      dup2\n      gt\n      iszero\n      tag_211\n      jumpi\n      tag_212\n      tag_172\n      jump\t// in\n    tag_212:\n    tag_211:\n      mul\n      or\n      swap1\n      sstore\n      pop\n      0x80\n      dup3\n      add\n      mload\n      dup2\n      0x04\n      add\n      0x00\n      dup3\n      add\n      mload\n      dup2\n      0x00\n      add\n      sstore\n      0x20\n      dup3\n      add\n      mload\n      dup2\n      0x01\n      add\n      sstore\n      pop\n      pop\n      0xa0\n      dup3\n      add\n      mload\n      dup2\n      0x06\n      add\n      sstore\n      0xc0\n      dup3\n      add\n      mload\n      dup2\n      0x07\n      add\n      sstore\n      0xe0\n      dup3\n      add\n      mload\n      dup2\n      0x08\n      add\n      sstore\n      0x0100\n      dup3\n      add\n      mload\n      dup2\n      0x09\n      add\n      exp(0x0100, 0x00)\n      dup2\n      sload\n      dup2\n      0xff\n      mul\n      not\n      and\n      swap1\n      dup4\n      0x01\n      dup2\n      gt\n      iszero\n      tag_213\n      jumpi\n      tag_214\n      tag_172\n      jump\t// in\n    tag_214:\n    tag_213:\n      mul\n      or\n      swap1\n      sstore\n      pop\n      swap1\n      pop\n      pop\n        /* \"contracts/Rental.sol\":3986:3994  vehicles */\n      0x06\n        /* \"contracts/Rental.sol\":4000:4012  temporaryObj */\n      dup2\n        /* \"contracts/Rental.sol\":3986:4013  vehicles.push(temporaryObj) */\n      swap1\n      dup1\n      0x01\n      dup2\n      sload\n      add\n      dup1\n      dup3\n      sstore\n      dup1\n      swap2\n      pop\n      pop\n      0x01\n      swap1\n      sub\n      swap1\n      0x00\n      mstore\n      keccak256(0x00, 0x20)\n      swap1\n      0x0a\n      mul\n      add\n      0x00\n      swap1\n      swap2\n      swap1\n      swap2\n      swap1\n      swap2\n      pop\n      0x00\n      dup3\n      add\n      mload\n      dup2\n      0x00\n      add\n      sstore\n      0x20\n      dup3\n      add\n      mload\n      dup2\n      0x01\n      add\n      sstore\n      0x40\n      dup3\n      add\n      mload\n      dup2\n      0x02\n      add\n      sstore\n      0x60\n      dup3\n      add\n      mload\n      dup2\n      0x03\n      add\n      exp(0x0100, 0x00)\n      dup2\n      sload\n      dup2\n      0xff\n      mul\n      not\n      and\n      swap1\n      dup4\n      0x06\n      dup2\n      gt\n      iszero\n      tag_216\n      jumpi\n      tag_217\n      tag_172\n      jump\t// in\n    tag_217:\n    tag_216:\n      mul\n      or\n      swap1\n      sstore\n      pop\n      0x80\n      dup3\n      add\n      mload\n      dup2\n      0x04\n      add\n      0x00\n      dup3\n      add\n      mload\n      dup2\n      0x00\n      add\n      sstore\n      0x20\n      dup3\n      add\n      mload\n      dup2\n      0x01\n      add\n      sstore\n      pop\n      pop\n      0xa0\n      dup3\n      add\n      mload\n      dup2\n      0x06\n      add\n      sstore\n      0xc0\n      dup3\n      add\n      mload\n      dup2\n      0x07\n      add\n      sstore\n      0xe0\n      dup3\n      add\n      mload\n      dup2\n      0x08\n      add\n      sstore\n      0x0100\n      dup3\n      add\n      mload\n      dup2\n      0x09\n      add\n      exp(0x0100, 0x00)\n      dup2\n      sload\n      dup2\n      0xff\n      mul\n      not\n      and\n      swap1\n      dup4\n      0x01\n      dup2\n      gt\n      iszero\n      tag_218\n      jumpi\n      tag_219\n      tag_172\n      jump\t// in\n    tag_219:\n    tag_218:\n      mul\n      or\n      swap1\n      sstore\n      pop\n      pop\n      pop\n        /* \"contracts/Rental.sol\":4050:4062  vehicleCount */\n      sload(0x03)\n        /* \"contracts/Rental.sol\":4031:4039  vehicles */\n      0x06\n        /* \"contracts/Rental.sol\":4031:4046  vehicles.length */\n      dup1\n      sload\n      swap1\n      pop\n        /* \"contracts/Rental.sol\":4031:4062  vehicles.length == vehicleCount */\n      eq\n        /* \"contracts/Rental.sol\":4024:4062  return vehicles.length == vehicleCount */\n      swap2\n      pop\n      pop\n        /* \"contracts/Rental.sol\":3399:4069  function addVehicle(bytes32 name, bytes32 brand, VehicleType vehicleType, Coordinate memory location, uint model, bytes32 image, uint rentCost) ... */\n      swap8\n      swap7\n      pop\n      pop\n      pop\n      pop\n      pop\n      pop\n      pop\n      jump\t// out\n        /* \"contracts/Rental.sol\":1156:1202  mapping(uint => Vehicle) public getVehicleByID */\n    tag_71:\n      mstore(0x20, 0x05)\n      dup1\n      0x00\n      mstore\n      keccak256(0x00, 0x40)\n      0x00\n      swap2\n      pop\n      swap1\n      pop\n      dup1\n      0x00\n      add\n      sload\n      swap1\n      dup1\n      0x01\n      add\n      sload\n      swap1\n      dup1\n      0x02\n      add\n      sload\n      swap1\n      dup1\n      0x03\n      add\n      0x00\n      swap1\n      sload\n      swap1\n      0x0100\n      exp\n      swap1\n      div\n      0xff\n      and\n      swap1\n      dup1\n      0x04\n      add\n      mload(0x40)\n      dup1\n      0x40\n      add\n      0x40\n      mstore\n      swap1\n      dup2\n      0x00\n      dup3\n      add\n      sload\n      dup2\n      mstore\n      0x20\n      add\n      0x01\n      dup3\n      add\n      sload\n      dup2\n      mstore\n      pop\n      pop\n      swap1\n      dup1\n      0x06\n      add\n      sload\n      swap1\n      dup1\n      0x07\n      add\n      sload\n      swap1\n      dup1\n      0x08\n      add\n      sload\n      swap1\n      dup1\n      0x09\n      add\n      0x00\n      swap1\n      sload\n      swap1\n      0x0100\n      exp\n      swap1\n      div\n      0xff\n      and\n      swap1\n      pop\n      dup10\n      jump\t// out\n        /* \"contracts/Access.sol\":1313:1449  function addOwner(address account) public virtual {... */\n    tag_77:\n        /* \"contracts/Access.sol\":1393:1400  account */\n      dup1\n        /* \"contracts/Access.sol\":1373:1382  recipient */\n      0x02\n      0x00\n        /* \"contracts/Access.sol\":1373:1401  recipient = payable(account) */\n      0x0100\n      exp\n      dup2\n      sload\n      dup2\n      0xffffffffffffffffffffffffffffffffffffffff\n      mul\n      not\n      and\n      swap1\n      dup4\n      0xffffffffffffffffffffffffffffffffffffffff\n      and\n      mul\n      or\n      swap1\n      sstore\n      pop\n        /* \"contracts/Access.sol\":1411:1442  _grantRole(OWNER_ROLE, account) */\n      tag_221\n        /* \"contracts/Access.sol\":1422:1432  OWNER_ROLE */\n      0x4f574e4552000000000000000000000000000000000000000000000000000000\n        /* \"contracts/Access.sol\":1434:1441  account */\n      dup3\n        /* \"contracts/Access.sol\":1411:1421  _grantRole */\n      tag_222\n        /* \"contracts/Access.sol\":1411:1442  _grantRole(OWNER_ROLE, account) */\n      jump\t// in\n    tag_221:\n        /* \"contracts/Access.sol\":1313:1449  function addOwner(address account) public virtual {... */\n      pop\n      jump\t// out\n        /* \"contracts/Rental.sol\":7950:8000  function paymentProcess(uint256) public payable {} */\n    tag_80:\n      pop\n      jump\t// out\n        /* \"contracts/Rental.sol\":6099:6744  function confirmation(uint contractId, uint carId) ... */\n    tag_84:\n        /* \"contracts/Rental.sol\":6327:6339  bool success */\n      0x00\n        /* \"contracts/Access.sol\":561:581  isRenter(msg.sender) */\n      tag_225\n        /* \"contracts/Access.sol\":570:580  msg.sender */\n      caller\n        /* \"contracts/Access.sol\":561:569  isRenter */\n      tag_120\n        /* \"contracts/Access.sol\":561:581  isRenter(msg.sender) */\n      jump\t// in\n    tag_225:\n        /* \"contracts/Access.sol\":553:608  require(isRenter(msg.sender), \"Restricted to renters.\") */\n      tag_226\n      jumpi\n      mload(0x40)\n      0x08c379a000000000000000000000000000000000000000000000000000000000\n      dup2\n      mstore\n      0x04\n      add\n      tag_227\n      swap1\n      tag_168\n      jump\t// in\n    tag_227:\n      mload(0x40)\n      dup1\n      swap2\n      sub\n      swap1\n      revert\n    tag_226:\n        /* \"contracts/Rental.sol\":6208:6213  carId */\n      dup2\n        /* \"contracts/Rental.sol\":1737:1740  0x0 */\n      0x00\n        /* \"contracts/Rental.sol\":1708:1722  getVehicleByID */\n      0x05\n        /* \"contracts/Rental.sol\":1708:1726  getVehicleByID[id] */\n      0x00\n        /* \"contracts/Rental.sol\":1723:1725  id */\n      dup4\n        /* \"contracts/Rental.sol\":1708:1726  getVehicleByID[id] */\n      dup2\n      mstore\n      0x20\n      add\n      swap1\n      dup2\n      mstore\n      0x20\n      add\n      0x00\n      keccak256\n        /* \"contracts/Rental.sol\":1708:1729  getVehicleByID[id].id */\n      0x00\n      add\n      sload\n        /* \"contracts/Rental.sol\":1708:1741  getVehicleByID[id].id > uint(0x0) */\n      gt\n        /* \"contracts/Rental.sol\":1700:1807  require(getVehicleByID[id].id > uint(0x0), \"The following vehicle could not be found in the mapping list.\") */\n      tag_229\n      jumpi\n      mload(0x40)\n      0x08c379a000000000000000000000000000000000000000000000000000000000\n      dup2\n      mstore\n      0x04\n      add\n      tag_230\n      swap1\n      tag_231\n      jump\t// in\n    tag_230:\n      mload(0x40)\n      dup1\n      swap2\n      sub\n      swap1\n      revert\n    tag_229:\n        /* \"contracts/Rental.sol\":6234:6239  carId */\n      dup3\n        /* \"contracts/Rental.sol\":1979:2002  VehicleStatus.Available */\n      0x00\n        /* \"contracts/Rental.sol\":1950:2002  getVehicleByID[id].status == VehicleStatus.Available */\n      0x01\n      dup2\n      gt\n      iszero\n      tag_233\n      jumpi\n      tag_234\n      tag_172\n      jump\t// in\n    tag_234:\n    tag_233:\n        /* \"contracts/Rental.sol\":1950:1964  getVehicleByID */\n      0x05\n        /* \"contracts/Rental.sol\":1950:1968  getVehicleByID[id] */\n      0x00\n        /* \"contracts/Rental.sol\":1965:1967  id */\n      dup4\n        /* \"contracts/Rental.sol\":1950:1968  getVehicleByID[id] */\n      dup2\n      mstore\n      0x20\n      add\n      swap1\n      dup2\n      mstore\n      0x20\n      add\n      0x00\n      keccak256\n        /* \"contracts/Rental.sol\":1950:1975  getVehicleByID[id].status */\n      0x09\n      add\n      0x00\n      swap1\n      sload\n      swap1\n      0x0100\n      exp\n      swap1\n      div\n      0xff\n      and\n        /* \"contracts/Rental.sol\":1950:2002  getVehicleByID[id].status == VehicleStatus.Available */\n      0x01\n      dup2\n      gt\n      iszero\n      tag_235\n      jumpi\n      tag_236\n      tag_172\n      jump\t// in\n    tag_236:\n    tag_235:\n      eq\n        /* \"contracts/Rental.sol\":1942:2055  require(getVehicleByID[id].status == VehicleStatus.Available, \"The selected vehicle is currently not available.\") */\n      tag_237\n      jumpi\n      mload(0x40)\n      0x08c379a000000000000000000000000000000000000000000000000000000000\n      dup2\n      mstore\n      0x04\n      add\n      tag_238\n      swap1\n      tag_177\n      jump\t// in\n    tag_238:\n      mload(0x40)\n      dup1\n      swap2\n      sub\n      swap1\n      revert\n    tag_237:\n        /* \"contracts/Rental.sol\":6257:6267  contractId */\n      dup5\n        /* \"contracts/Rental.sol\":2457:2460  0x0 */\n      0x00\n        /* \"contracts/Rental.sol\":2423:2461  getContractByID[id].id != address(0x0) */\n      0xffffffffffffffffffffffffffffffffffffffff\n      and\n        /* \"contracts/Rental.sol\":2423:2438  getContractByID */\n      0x07\n        /* \"contracts/Rental.sol\":2423:2442  getContractByID[id] */\n      0x00\n        /* \"contracts/Rental.sol\":2439:2441  id */\n      dup4\n        /* \"contracts/Rental.sol\":2423:2442  getContractByID[id] */\n      dup2\n      mstore\n      0x20\n      add\n      swap1\n      dup2\n      mstore\n      0x20\n      add\n      0x00\n      keccak256\n        /* \"contracts/Rental.sol\":2423:2445  getContractByID[id].id */\n      0x00\n      add\n      0x00\n      swap1\n      sload\n      swap1\n      0x0100\n      exp\n      swap1\n      div\n      0xffffffffffffffffffffffffffffffffffffffff\n      and\n        /* \"contracts/Rental.sol\":2423:2461  getContractByID[id].id != address(0x0) */\n      0xffffffffffffffffffffffffffffffffffffffff\n      and\n      eq\n      iszero\n        /* \"contracts/Rental.sol\":2415:2528  require(getContractByID[id].id != address(0x0), \"The following contract could not be found in the mapping list.\") */\n      tag_240\n      jumpi\n      mload(0x40)\n      0x08c379a000000000000000000000000000000000000000000000000000000000\n      dup2\n      mstore\n      0x04\n      add\n      tag_241\n      swap1\n      tag_181\n      jump\t// in\n    tag_241:\n      mload(0x40)\n      dup1\n      swap2\n      sub\n      swap1\n      revert\n    tag_240:\n        /* \"contracts/Rental.sol\":6298:6308  contractId */\n      dup6\n        /* \"contracts/Rental.sol\":2711:2727  uint totalAmount */\n      0x00\n        /* \"contracts/Rental.sol\":2769:2784  getContractByID */\n      0x07\n        /* \"contracts/Rental.sol\":2769:2788  getContractByID[id] */\n      0x00\n        /* \"contracts/Rental.sol\":2785:2787  id */\n      dup4\n        /* \"contracts/Rental.sol\":2769:2788  getContractByID[id] */\n      dup2\n      mstore\n      0x20\n      add\n      swap1\n      dup2\n      mstore\n      0x20\n      add\n      0x00\n      keccak256\n        /* \"contracts/Rental.sol\":2769:2798  getContractByID[id].totalCost */\n      0x0d\n      add\n      sload\n        /* \"contracts/Rental.sol\":2730:2745  getContractByID */\n      0x07\n        /* \"contracts/Rental.sol\":2730:2749  getContractByID[id] */\n      0x00\n        /* \"contracts/Rental.sol\":2746:2748  id */\n      dup5\n        /* \"contracts/Rental.sol\":2730:2749  getContractByID[id] */\n      dup2\n      mstore\n      0x20\n      add\n      swap1\n      dup2\n      mstore\n      0x20\n      add\n      0x00\n      keccak256\n        /* \"contracts/Rental.sol\":2730:2766  getContractByID[id].insuranceDeposit */\n      0x0e\n      add\n      sload\n        /* \"contracts/Rental.sol\":2730:2798  getContractByID[id].insuranceDeposit + getContractByID[id].totalCost */\n      tag_243\n      swap2\n      swap1\n      tag_200\n      jump\t// in\n    tag_243:\n        /* \"contracts/Rental.sol\":2711:2798  uint totalAmount = getContractByID[id].insuranceDeposit + getContractByID[id].totalCost */\n      swap1\n      pop\n        /* \"contracts/Rental.sol\":2834:2845  totalAmount */\n      dup1\n        /* \"contracts/Rental.sol\":2816:2822  sender */\n      0x01\n      0x00\n      swap1\n      sload\n      swap1\n      0x0100\n      exp\n      swap1\n      div\n      0xffffffffffffffffffffffffffffffffffffffff\n      and\n        /* \"contracts/Rental.sol\":2816:2830  sender.balance */\n      0xffffffffffffffffffffffffffffffffffffffff\n      and\n      balance\n        /* \"contracts/Rental.sol\":2816:2845  sender.balance >= totalAmount */\n      lt\n      iszero\n        /* \"contracts/Rental.sol\":2808:2914  require(sender.balance >= totalAmount, \"Could not proceed because there is not enough ETH in your wallet\") */\n      tag_244\n      jumpi\n      mload(0x40)\n      0x08c379a000000000000000000000000000000000000000000000000000000000\n      dup2\n      mstore\n      0x04\n      add\n      tag_245\n      swap1\n      tag_246\n      jump\t// in\n    tag_245:\n      mload(0x40)\n      dup1\n      swap2\n      sub\n      swap1\n      revert\n    tag_244:\n        /* \"contracts/Rental.sol\":6419:6444  ContractStatus.InProgress */\n      0x01\n        /* \"contracts/Rental.sol\":6382:6397  getContractByID */\n      0x07\n        /* \"contracts/Rental.sol\":6382:6409  getContractByID[contractId] */\n      0x00\n        /* \"contracts/Rental.sol\":6398:6408  contractId */\n      dup11\n        /* \"contracts/Rental.sol\":6382:6409  getContractByID[contractId] */\n      dup2\n      mstore\n      0x20\n      add\n      swap1\n      dup2\n      mstore\n      0x20\n      add\n      0x00\n      keccak256\n        /* \"contracts/Rental.sol\":6382:6416  getContractByID[contractId].status */\n      0x10\n      add\n      0x00\n        /* \"contracts/Rental.sol\":6382:6444  getContractByID[contractId].status = ContractStatus.InProgress */\n      0x0100\n      exp\n      dup2\n      sload\n      dup2\n      0xff\n      mul\n      not\n      and\n      swap1\n      dup4\n      0x02\n      dup2\n      gt\n      iszero\n      tag_248\n      jumpi\n      tag_249\n      tag_172\n      jump\t// in\n    tag_249:\n    tag_248:\n      mul\n      or\n      swap1\n      sstore\n      pop\n        /* \"contracts/Rental.sol\":6485:6504  VehicleStatus.Hired */\n      0x01\n        /* \"contracts/Rental.sol\":6454:6468  getVehicleByID */\n      0x05\n        /* \"contracts/Rental.sol\":6454:6475  getVehicleByID[carId] */\n      0x00\n        /* \"contracts/Rental.sol\":6469:6474  carId */\n      dup10\n        /* \"contracts/Rental.sol\":6454:6475  getVehicleByID[carId] */\n      dup2\n      mstore\n      0x20\n      add\n      swap1\n      dup2\n      mstore\n      0x20\n      add\n      0x00\n      keccak256\n        /* \"contracts/Rental.sol\":6454:6482  getVehicleByID[carId].status */\n      0x09\n      add\n      0x00\n        /* \"contracts/Rental.sol\":6454:6504  getVehicleByID[carId].status = VehicleStatus.Hired */\n      0x0100\n      exp\n      dup2\n      sload\n      dup2\n      0xff\n      mul\n      not\n      and\n      swap1\n      dup4\n      0x01\n      dup2\n      gt\n      iszero\n      tag_250\n      jumpi\n      tag_251\n      tag_172\n      jump\t// in\n    tag_251:\n    tag_250:\n      mul\n      or\n      swap1\n      sstore\n      pop\n        /* \"contracts/Rental.sol\":6541:6557  uint totalAmount */\n      0x00\n        /* \"contracts/Rental.sol\":6600:6615  getContractByID */\n      0x07\n        /* \"contracts/Rental.sol\":6600:6627  getContractByID[contractId] */\n      0x00\n        /* \"contracts/Rental.sol\":6616:6626  contractId */\n      dup11\n        /* \"contracts/Rental.sol\":6600:6627  getContractByID[contractId] */\n      dup2\n      mstore\n      0x20\n      add\n      swap1\n      dup2\n      mstore\n      0x20\n      add\n      0x00\n      keccak256\n        /* \"contracts/Rental.sol\":6600:6644  getContractByID[contractId].insuranceDeposit */\n      0x0e\n      add\n      sload\n        /* \"contracts/Rental.sol\":6560:6575  getContractByID */\n      0x07\n        /* \"contracts/Rental.sol\":6560:6587  getContractByID[contractId] */\n      0x00\n        /* \"contracts/Rental.sol\":6576:6586  contractId */\n      dup12\n        /* \"contracts/Rental.sol\":6560:6587  getContractByID[contractId] */\n      dup2\n      mstore\n      0x20\n      add\n      swap1\n      dup2\n      mstore\n      0x20\n      add\n      0x00\n      keccak256\n        /* \"contracts/Rental.sol\":6560:6597  getContractByID[contractId].totalCost */\n      0x0d\n      add\n      sload\n        /* \"contracts/Rental.sol\":6560:6644  getContractByID[contractId].totalCost + getContractByID[contractId].insuranceDeposit */\n      tag_252\n      swap2\n      swap1\n      tag_200\n      jump\t// in\n    tag_252:\n        /* \"contracts/Rental.sol\":6541:6644  uint totalAmount = getContractByID[contractId].totalCost + getContractByID[contractId].insuranceDeposit */\n      swap1\n      pop\n        /* \"contracts/Rental.sol\":6654:6658  this */\n      address\n        /* \"contracts/Rental.sol\":6654:6673  this.paymentProcess */\n      0xffffffffffffffffffffffffffffffffffffffff\n      and\n      0x74539cd0\n        /* \"contracts/Rental.sol\":6674:6685  totalAmount */\n      dup3\n        /* \"contracts/Rental.sol\":6654:6686  this.paymentProcess(totalAmount) */\n      mload(0x40)\n      dup3\n      0xffffffff\n      and\n      0xe0\n      shl\n      dup2\n      mstore\n      0x04\n      add\n      tag_253\n      swap2\n      swap1\n      tag_95\n      jump\t// in\n    tag_253:\n      0x00\n      mload(0x40)\n      dup1\n      dup4\n      sub\n      dup2\n      0x00\n      dup8\n      dup1\n      extcodesize\n      iszero\n      dup1\n      iszero\n      tag_254\n      jumpi\n      0x00\n      dup1\n      revert\n    tag_254:\n      pop\n      gas\n      call\n      iszero\n      dup1\n      iszero\n      tag_256\n      jumpi\n      returndatasize\n      0x00\n      dup1\n      returndatacopy\n      revert(0x00, returndatasize)\n    tag_256:\n      pop\n      pop\n      pop\n      pop\n        /* \"contracts/Rental.sol\":6724:6737  contractCount */\n      sload(0x04)\n        /* \"contracts/Rental.sol\":6704:6713  contracts */\n      0x08\n        /* \"contracts/Rental.sol\":6704:6720  contracts.length */\n      dup1\n      sload\n      swap1\n      pop\n        /* \"contracts/Rental.sol\":6704:6737  contracts.length == contractCount */\n      eq\n        /* \"contracts/Rental.sol\":6697:6737  return contracts.length == contractCount */\n      swap7\n      pop\n      pop\n        /* \"contracts/Rental.sol\":2701:2932  {... */\n      pop\n        /* \"contracts/Rental.sol\":2538:2539  _ */\n      pop\n        /* \"contracts/Rental.sol\":2065:2066  _ */\n      pop\n        /* \"contracts/Rental.sol\":1817:1818  _ */\n      pop\n        /* \"contracts/Access.sol\":618:619  _ */\n      pop\n        /* \"contracts/Rental.sol\":6099:6744  function confirmation(uint contractId, uint carId) ... */\n      swap3\n      swap2\n      pop\n      pop\n      jump\t// out\n        /* \"contracts/Rental.sol\":1239:1287  mapping(uint => Contract) public getContractByID */\n    tag_89:\n      mstore(0x20, 0x07)\n      dup1\n      0x00\n      mstore\n      keccak256(0x00, 0x40)\n      0x00\n      swap2\n      pop\n      swap1\n      pop\n      dup1\n      0x00\n      add\n      0x00\n      swap1\n      sload\n      swap1\n      0x0100\n      exp\n      swap1\n      div\n      0xffffffffffffffffffffffffffffffffffffffff\n      and\n      swap1\n      dup1\n      0x01\n      add\n      mload(0x40)\n      dup1\n      0x0120\n      add\n      0x40\n      mstore\n      swap1\n      dup2\n      0x00\n      dup3\n      add\n      sload\n      dup2\n      mstore\n      0x20\n      add\n      0x01\n      dup3\n      add\n      sload\n      dup2\n      mstore\n      0x20\n      add\n      0x02\n      dup3\n      add\n      sload\n      dup2\n      mstore\n      0x20\n      add\n      0x03\n      dup3\n      add\n      0x00\n      swap1\n      sload\n      swap1\n      0x0100\n      exp\n      swap1\n      div\n      0xff\n      and\n      0x06\n      dup2\n      gt\n      iszero\n      tag_257\n      jumpi\n      tag_258\n      tag_172\n      jump\t// in\n    tag_258:\n    tag_257:\n      0x06\n      dup2\n      gt\n      iszero\n      tag_259\n      jumpi\n      tag_260\n      tag_172\n      jump\t// in\n    tag_260:\n    tag_259:\n      dup2\n      mstore\n      0x20\n      add\n      0x04\n      dup3\n      add\n      mload(0x40)\n      dup1\n      0x40\n      add\n      0x40\n      mstore\n      swap1\n      dup2\n      0x00\n      dup3\n      add\n      sload\n      dup2\n      mstore\n      0x20\n      add\n      0x01\n      dup3\n      add\n      sload\n      dup2\n      mstore\n      pop\n      pop\n      dup2\n      mstore\n      0x20\n      add\n      0x06\n      dup3\n      add\n      sload\n      dup2\n      mstore\n      0x20\n      add\n      0x07\n      dup3\n      add\n      sload\n      dup2\n      mstore\n      0x20\n      add\n      0x08\n      dup3\n      add\n      sload\n      dup2\n      mstore\n      0x20\n      add\n      0x09\n      dup3\n      add\n      0x00\n      swap1\n      sload\n      swap1\n      0x0100\n      exp\n      swap1\n      div\n      0xff\n      and\n      0x01\n      dup2\n      gt\n      iszero\n      tag_261\n      jumpi\n      tag_262\n      tag_172\n      jump\t// in\n    tag_262:\n    tag_261:\n      0x01\n      dup2\n      gt\n      iszero\n      tag_263\n      jumpi\n      tag_264\n      tag_172\n      jump\t// in\n    tag_264:\n    tag_263:\n      dup2\n      mstore\n      pop\n      pop\n      swap1\n      dup1\n      0x0b\n      add\n      mload(0x40)\n      dup1\n      0x40\n      add\n      0x40\n      mstore\n      swap1\n      dup2\n      0x00\n      dup3\n      add\n      sload\n      dup2\n      mstore\n      0x20\n      add\n      0x01\n      dup3\n      add\n      sload\n      dup2\n      mstore\n      pop\n      pop\n      swap1\n      dup1\n      0x0d\n      add\n      sload\n      swap1\n      dup1\n      0x0e\n      add\n      sload\n      swap1\n      dup1\n      0x0f\n      add\n      sload\n      swap1\n      dup1\n      0x10\n      add\n      0x00\n      swap1\n      sload\n      swap1\n      0x0100\n      exp\n      swap1\n      div\n      0xff\n      and\n      swap1\n      pop\n      dup8\n      jump\t// out\n        /* \"contracts/Rental.sol\":1120:1149  uint public contractCount = 0 */\n    tag_93:\n      sload(0x04)\n      dup2\n      jump\t// out\n        /* \"contracts/Rental.sol\":7114:7836  function completion(uint contractId, uint carId) ... */\n    tag_98:\n        /* \"contracts/Rental.sol\":7312:7324  bool success */\n      0x00\n        /* \"contracts/Access.sol\":561:581  isRenter(msg.sender) */\n      tag_266\n        /* \"contracts/Access.sol\":570:580  msg.sender */\n      caller\n        /* \"contracts/Access.sol\":561:569  isRenter */\n      tag_120\n        /* \"contracts/Access.sol\":561:581  isRenter(msg.sender) */\n      jump\t// in\n    tag_266:\n        /* \"contracts/Access.sol\":553:608  require(isRenter(msg.sender), \"Restricted to renters.\") */\n      tag_267\n      jumpi\n      mload(0x40)\n      0x08c379a000000000000000000000000000000000000000000000000000000000\n      dup2\n      mstore\n      0x04\n      add\n      tag_268\n      swap1\n      tag_168\n      jump\t// in\n    tag_268:\n      mload(0x40)\n      dup1\n      swap2\n      sub\n      swap1\n      revert\n    tag_267:\n        /* \"contracts/Rental.sol\":7221:7226  carId */\n      dup2\n        /* \"contracts/Rental.sol\":1737:1740  0x0 */\n      0x00\n        /* \"contracts/Rental.sol\":1708:1722  getVehicleByID */\n      0x05\n        /* \"contracts/Rental.sol\":1708:1726  getVehicleByID[id] */\n      0x00\n        /* \"contracts/Rental.sol\":1723:1725  id */\n      dup4\n        /* \"contracts/Rental.sol\":1708:1726  getVehicleByID[id] */\n      dup2\n      mstore\n      0x20\n      add\n      swap1\n      dup2\n      mstore\n      0x20\n      add\n      0x00\n      keccak256\n        /* \"contracts/Rental.sol\":1708:1729  getVehicleByID[id].id */\n      0x00\n      add\n      sload\n        /* \"contracts/Rental.sol\":1708:1741  getVehicleByID[id].id > uint(0x0) */\n      gt\n        /* \"contracts/Rental.sol\":1700:1807  require(getVehicleByID[id].id > uint(0x0), \"The following vehicle could not be found in the mapping list.\") */\n      tag_270\n      jumpi\n      mload(0x40)\n      0x08c379a000000000000000000000000000000000000000000000000000000000\n      dup2\n      mstore\n      0x04\n      add\n      tag_271\n      swap1\n      tag_231\n      jump\t// in\n    tag_271:\n      mload(0x40)\n      dup1\n      swap2\n      sub\n      swap1\n      revert\n    tag_270:\n        /* \"contracts/Rental.sol\":7244:7254  contractId */\n      dup4\n        /* \"contracts/Rental.sol\":2457:2460  0x0 */\n      0x00\n        /* \"contracts/Rental.sol\":2423:2461  getContractByID[id].id != address(0x0) */\n      0xffffffffffffffffffffffffffffffffffffffff\n      and\n        /* \"contracts/Rental.sol\":2423:2438  getContractByID */\n      0x07\n        /* \"contracts/Rental.sol\":2423:2442  getContractByID[id] */\n      0x00\n        /* \"contracts/Rental.sol\":2439:2441  id */\n      dup4\n        /* \"contracts/Rental.sol\":2423:2442  getContractByID[id] */\n      dup2\n      mstore\n      0x20\n      add\n      swap1\n      dup2\n      mstore\n      0x20\n      add\n      0x00\n      keccak256\n        /* \"contracts/Rental.sol\":2423:2445  getContractByID[id].id */\n      0x00\n      add\n      0x00\n      swap1\n      sload\n      swap1\n      0x0100\n      exp\n      swap1\n      div\n      0xffffffffffffffffffffffffffffffffffffffff\n      and\n        /* \"contracts/Rental.sol\":2423:2461  getContractByID[id].id != address(0x0) */\n      0xffffffffffffffffffffffffffffffffffffffff\n      and\n      eq\n      iszero\n        /* \"contracts/Rental.sol\":2415:2528  require(getContractByID[id].id != address(0x0), \"The following contract could not be found in the mapping list.\") */\n      tag_273\n      jumpi\n      mload(0x40)\n      0x08c379a000000000000000000000000000000000000000000000000000000000\n      dup2\n      mstore\n      0x04\n      add\n      tag_274\n      swap1\n      tag_181\n      jump\t// in\n    tag_274:\n      mload(0x40)\n      dup1\n      swap2\n      sub\n      swap1\n      revert\n    tag_273:\n        /* \"contracts/Rental.sol\":7283:7293  contractId */\n      dup5\n        /* \"contracts/Rental.sol\":2993:3009  uint totalAmount */\n      0x00\n        /* \"contracts/Rental.sol\":3012:3027  getContractByID */\n      0x07\n        /* \"contracts/Rental.sol\":3012:3031  getContractByID[id] */\n      0x00\n        /* \"contracts/Rental.sol\":3028:3030  id */\n      dup4\n        /* \"contracts/Rental.sol\":3012:3031  getContractByID[id] */\n      dup2\n      mstore\n      0x20\n      add\n      swap1\n      dup2\n      mstore\n      0x20\n      add\n      0x00\n      keccak256\n        /* \"contracts/Rental.sol\":3012:3048  getContractByID[id].insuranceDeposit */\n      0x0e\n      add\n      sload\n        /* \"contracts/Rental.sol\":2993:3048  uint totalAmount = getContractByID[id].insuranceDeposit */\n      swap1\n      pop\n        /* \"contracts/Rental.sol\":3091:3102  totalAmount */\n      dup1\n        /* \"contracts/Rental.sol\":3066:3087  address(this).balance */\n      selfbalance\n        /* \"contracts/Rental.sol\":3066:3102  address(this).balance >= totalAmount */\n      lt\n      iszero\n        /* \"contracts/Rental.sol\":3058:3171  require(address(this).balance >= totalAmount, \"Could not proceed because there is not enough ETH in your wallet\") */\n      tag_276\n      jumpi\n      mload(0x40)\n      0x08c379a000000000000000000000000000000000000000000000000000000000\n      dup2\n      mstore\n      0x04\n      add\n      tag_277\n      swap1\n      tag_246\n      jump\t// in\n    tag_277:\n      mload(0x40)\n      dup1\n      swap2\n      sub\n      swap1\n      revert\n    tag_276:\n        /* \"contracts/Rental.sol\":7404:7428  ContractStatus.Completed */\n      0x02\n        /* \"contracts/Rental.sol\":7367:7382  getContractByID */\n      0x07\n        /* \"contracts/Rental.sol\":7367:7394  getContractByID[contractId] */\n      0x00\n        /* \"contracts/Rental.sol\":7383:7393  contractId */\n      dup10\n        /* \"contracts/Rental.sol\":7367:7394  getContractByID[contractId] */\n      dup2\n      mstore\n      0x20\n      add\n      swap1\n      dup2\n      mstore\n      0x20\n      add\n      0x00\n      keccak256\n        /* \"contracts/Rental.sol\":7367:7401  getContractByID[contractId].status */\n      0x10\n      add\n      0x00\n        /* \"contracts/Rental.sol\":7367:7428  getContractByID[contractId].status = ContractStatus.Completed */\n      0x0100\n      exp\n      dup2\n      sload\n      dup2\n      0xff\n      mul\n      not\n      and\n      swap1\n      dup4\n      0x02\n      dup2\n      gt\n      iszero\n      tag_279\n      jumpi\n      tag_280\n      tag_172\n      jump\t// in\n    tag_280:\n    tag_279:\n      mul\n      or\n      swap1\n      sstore\n      pop\n        /* \"contracts/Rental.sol\":7469:7492  VehicleStatus.Available */\n      0x00\n        /* \"contracts/Rental.sol\":7438:7452  getVehicleByID */\n      0x05\n        /* \"contracts/Rental.sol\":7438:7459  getVehicleByID[carId] */\n      0x00\n        /* \"contracts/Rental.sol\":7453:7458  carId */\n      dup9\n        /* \"contracts/Rental.sol\":7438:7459  getVehicleByID[carId] */\n      dup2\n      mstore\n      0x20\n      add\n      swap1\n      dup2\n      mstore\n      0x20\n      add\n      0x00\n      keccak256\n        /* \"contracts/Rental.sol\":7438:7466  getVehicleByID[carId].status */\n      0x09\n      add\n      0x00\n        /* \"contracts/Rental.sol\":7438:7492  getVehicleByID[carId].status = VehicleStatus.Available */\n      0x0100\n      exp\n      dup2\n      sload\n      dup2\n      0xff\n      mul\n      not\n      and\n      swap1\n      dup4\n      0x01\n      dup2\n      gt\n      iszero\n      tag_281\n      jumpi\n      tag_282\n      tag_172\n      jump\t// in\n    tag_282:\n    tag_281:\n      mul\n      or\n      swap1\n      sstore\n      pop\n        /* \"contracts/Rental.sol\":7529:7550  uint insuranceDeposit */\n      0x00\n        /* \"contracts/Rental.sol\":7553:7568  getContractByID */\n      0x07\n        /* \"contracts/Rental.sol\":7553:7580  getContractByID[contractId] */\n      0x00\n        /* \"contracts/Rental.sol\":7569:7579  contractId */\n      dup10\n        /* \"contracts/Rental.sol\":7553:7580  getContractByID[contractId] */\n      dup2\n      mstore\n      0x20\n      add\n      swap1\n      dup2\n      mstore\n      0x20\n      add\n      0x00\n      keccak256\n        /* \"contracts/Rental.sol\":7553:7597  getContractByID[contractId].insuranceDeposit */\n      0x0e\n      add\n      sload\n        /* \"contracts/Rental.sol\":7529:7597  uint insuranceDeposit = getContractByID[contractId].insuranceDeposit */\n      swap1\n      pop\n        /* \"contracts/Rental.sol\":7607:7632  address payable recipient */\n      0x00\n        /* \"contracts/Rental.sol\":7643:7653  msg.sender */\n      caller\n        /* \"contracts/Rental.sol\":7607:7654  address payable recipient = payable(msg.sender) */\n      swap1\n      pop\n        /* \"contracts/Rental.sol\":7665:7674  bool sent */\n      0x00\n        /* \"contracts/Rental.sol\":7680:7689  recipient */\n      dup2\n        /* \"contracts/Rental.sol\":7680:7694  recipient.call */\n      0xffffffffffffffffffffffffffffffffffffffff\n      and\n        /* \"contracts/Rental.sol\":7702:7718  insuranceDeposit */\n      dup4\n        /* \"contracts/Rental.sol\":7680:7723  recipient.call{value: insuranceDeposit}(\"\") */\n      mload(0x40)\n      tag_283\n      swap1\n      tag_284\n      jump\t// in\n    tag_283:\n      0x00\n      mload(0x40)\n      dup1\n      dup4\n      sub\n      dup2\n      dup6\n      dup8\n      gas\n      call\n      swap3\n      pop\n      pop\n      pop\n      returndatasize\n      dup1\n      0x00\n      dup2\n      eq\n      tag_287\n      jumpi\n      mload(0x40)\n      swap2\n      pop\n      and(add(returndatasize, 0x3f), not(0x1f))\n      dup3\n      add\n      0x40\n      mstore\n      returndatasize\n      dup3\n      mstore\n      returndatasize\n      0x00\n      0x20\n      dup5\n      add\n      returndatacopy\n      jump(tag_286)\n    tag_287:\n      0x60\n      swap2\n      pop\n    tag_286:\n      pop\n        /* \"contracts/Rental.sol\":7664:7723  (bool sent, ) = recipient.call{value: insuranceDeposit}(\"\") */\n      pop\n      swap1\n      pop\n        /* \"contracts/Rental.sol\":7741:7745  sent */\n      dup1\n        /* \"contracts/Rental.sol\":7733:7770  require(sent, \"Failed to send Ether\") */\n      tag_288\n      jumpi\n      mload(0x40)\n      0x08c379a000000000000000000000000000000000000000000000000000000000\n      dup2\n      mstore\n      0x04\n      add\n      tag_289\n      swap1\n      tag_290\n      jump\t// in\n    tag_289:\n      mload(0x40)\n      dup1\n      swap2\n      sub\n      swap1\n      revert\n    tag_288:\n        /* \"contracts/Rental.sol\":7816:7829  contractCount */\n      sload(0x04)\n        /* \"contracts/Rental.sol\":7796:7805  contracts */\n      0x08\n        /* \"contracts/Rental.sol\":7796:7812  contracts.length */\n      dup1\n      sload\n      swap1\n      pop\n        /* \"contracts/Rental.sol\":7796:7829  contracts.length == contractCount */\n      eq\n        /* \"contracts/Rental.sol\":7789:7829  return contracts.length == contractCount */\n      swap8\n      pop\n      pop\n      pop\n      pop\n        /* \"contracts/Rental.sol\":2983:3189  {... */\n      pop\n        /* \"contracts/Rental.sol\":2538:2539  _ */\n      pop\n        /* \"contracts/Rental.sol\":1817:1818  _ */\n      pop\n        /* \"contracts/Access.sol\":618:619  _ */\n      pop\n        /* \"contracts/Rental.sol\":7114:7836  function completion(uint contractId, uint carId) ... */\n      swap3\n      swap2\n      pop\n      pop\n      jump\t// out\n        /* \"contracts/utils/AccessControl.sol\":2691:2819  function getRoleMember(bytes32 role, uint256 index) public view returns (address) {... */\n    tag_104:\n        /* \"contracts/utils/AccessControl.sol\":2764:2771  address */\n      0x00\n        /* \"contracts/utils/AccessControl.sol\":2790:2812  _roles[role].at(index) */\n      tag_292\n        /* \"contracts/utils/AccessControl.sol\":2806:2811  index */\n      dup3\n        /* \"contracts/utils/AccessControl.sol\":2790:2796  _roles */\n      0x00\n        /* \"contracts/utils/AccessControl.sol\":2790:2802  _roles[role] */\n      dup1\n        /* \"contracts/utils/AccessControl.sol\":2797:2801  role */\n      dup7\n        /* \"contracts/utils/AccessControl.sol\":2790:2802  _roles[role] */\n      dup2\n      mstore\n      0x20\n      add\n      swap1\n      dup2\n      mstore\n      0x20\n      add\n      0x00\n      keccak256\n        /* \"contracts/utils/AccessControl.sol\":2790:2805  _roles[role].at */\n      tag_293\n      swap1\n        /* \"contracts/utils/AccessControl.sol\":2790:2812  _roles[role].at(index) */\n      swap2\n      swap1\n      0xffffffff\n      and\n      jump\t// in\n    tag_292:\n        /* \"contracts/utils/AccessControl.sol\":2783:2812  return _roles[role].at(index) */\n      swap1\n      pop\n        /* \"contracts/utils/AccessControl.sol\":2691:2819  function getRoleMember(bytes32 role, uint256 index) public view returns (address) {... */\n      swap3\n      swap2\n      pop\n      pop\n      jump\t// out\n        /* \"contracts/utils/AccessControl.sol\":1459:1588  function hasRole(bytes32 role, address account) public view returns (bool) {... */\n    tag_111:\n        /* \"contracts/utils/AccessControl.sol\":1528:1532  bool */\n      0x00\n        /* \"contracts/utils/AccessControl.sol\":1551:1581  _roles[role].contains(account) */\n      tag_295\n        /* \"contracts/utils/AccessControl.sol\":1573:1580  account */\n      dup3\n        /* \"contracts/utils/AccessControl.sol\":1551:1557  _roles */\n      0x00\n        /* \"contracts/utils/AccessControl.sol\":1551:1563  _roles[role] */\n      dup1\n        /* \"contracts/utils/AccessControl.sol\":1558:1562  role */\n      dup7\n        /* \"contracts/utils/AccessControl.sol\":1551:1563  _roles[role] */\n      dup2\n      mstore\n      0x20\n      add\n      swap1\n      dup2\n      mstore\n      0x20\n      add\n      0x00\n      keccak256\n        /* \"contracts/utils/AccessControl.sol\":1551:1572  _roles[role].contains */\n      tag_296\n      swap1\n        /* \"contracts/utils/AccessControl.sol\":1551:1581  _roles[role].contains(account) */\n      swap2\n      swap1\n      0xffffffff\n      and\n      jump\t// in\n    tag_295:\n        /* \"contracts/utils/AccessControl.sol\":1544:1581  return _roles[role].contains(account) */\n      swap1\n      pop\n        /* \"contracts/utils/AccessControl.sol\":1459:1588  function hasRole(bytes32 role, address account) public view returns (bool) {... */\n      swap3\n      swap2\n      pop\n      pop\n      jump\t// out\n        /* \"contracts/Rental.sol\":1086:1114  uint public vehicleCount = 0 */\n    tag_115:\n      sload(0x03)\n      dup2\n      jump\t// out\n        /* \"contracts/Access.sol\":898:1021  function isRenter(address account) public virtual view returns (bool) {... */\n    tag_120:\n        /* \"contracts/Access.sol\":962:966  bool */\n      0x00\n        /* \"contracts/Access.sol\":985:1014  hasRole(RENTER_ROLE, account) */\n      tag_298\n        /* \"contracts/Access.sol\":993:1004  RENTER_ROLE */\n      0x52454e5445520000000000000000000000000000000000000000000000000000\n        /* \"contracts/Access.sol\":1006:1013  account */\n      dup4\n        /* \"contracts/Access.sol\":985:992  hasRole */\n      tag_111\n        /* \"contracts/Access.sol\":985:1014  hasRole(RENTER_ROLE, account) */\n      jump\t// in\n    tag_298:\n        /* \"contracts/Access.sol\":978:1014  return hasRole(RENTER_ROLE, account) */\n      swap1\n      pop\n        /* \"contracts/Access.sol\":898:1021  function isRenter(address account) public virtual view returns (bool) {... */\n      swap2\n      swap1\n      pop\n      jump\t// out\n        /* \"contracts/Rental.sol\":4309:4985  function addRentPeriod(uint carId, Period memory period, uint dayscount) ... */\n    tag_126:\n        /* \"contracts/Rental.sol\":4479:4491  bool success */\n      0x00\n        /* \"contracts/Access.sol\":561:581  isRenter(msg.sender) */\n      tag_300\n        /* \"contracts/Access.sol\":570:580  msg.sender */\n      caller\n        /* \"contracts/Access.sol\":561:569  isRenter */\n      tag_120\n        /* \"contracts/Access.sol\":561:581  isRenter(msg.sender) */\n      jump\t// in\n    tag_300:\n        /* \"contracts/Access.sol\":553:608  require(isRenter(msg.sender), \"Restricted to renters.\") */\n      tag_301\n      jumpi\n      mload(0x40)\n      0x08c379a000000000000000000000000000000000000000000000000000000000\n      dup2\n      mstore\n      0x04\n      add\n      tag_302\n      swap1\n      tag_168\n      jump\t// in\n    tag_302:\n      mload(0x40)\n      dup1\n      swap2\n      sub\n      swap1\n      revert\n    tag_301:\n        /* \"contracts/Rental.sol\":4432:4437  carId */\n      dup4\n        /* \"contracts/Rental.sol\":1737:1740  0x0 */\n      0x00\n        /* \"contracts/Rental.sol\":1708:1722  getVehicleByID */\n      0x05\n        /* \"contracts/Rental.sol\":1708:1726  getVehicleByID[id] */\n      0x00\n        /* \"contracts/Rental.sol\":1723:1725  id */\n      dup4\n        /* \"contracts/Rental.sol\":1708:1726  getVehicleByID[id] */\n      dup2\n      mstore\n      0x20\n      add\n      swap1\n      dup2\n      mstore\n      0x20\n      add\n      0x00\n      keccak256\n        /* \"contracts/Rental.sol\":1708:1729  getVehicleByID[id].id */\n      0x00\n      add\n      sload\n        /* \"contracts/Rental.sol\":1708:1741  getVehicleByID[id].id > uint(0x0) */\n      gt\n        /* \"contracts/Rental.sol\":1700:1807  require(getVehicleByID[id].id > uint(0x0), \"The following vehicle could not be found in the mapping list.\") */\n      tag_304\n      jumpi\n      mload(0x40)\n      0x08c379a000000000000000000000000000000000000000000000000000000000\n      dup2\n      mstore\n      0x04\n      add\n      tag_305\n      swap1\n      tag_231\n      jump\t// in\n    tag_305:\n      mload(0x40)\n      dup1\n      swap2\n      sub\n      swap1\n      revert\n    tag_304:\n        /* \"contracts/Rental.sol\":2234:2235  1 */\n      0x01\n        /* \"contracts/Rental.sol\":2220:2233  contractCount */\n      sload(0x04)\n        /* \"contracts/Rental.sol\":2220:2235  contractCount+1 */\n      tag_307\n      swap2\n      swap1\n      tag_200\n      jump\t// in\n    tag_307:\n        /* \"contracts/Rental.sol\":2201:2210  contracts */\n      0x08\n        /* \"contracts/Rental.sol\":2201:2217  contracts.length */\n      dup1\n      sload\n      swap1\n      pop\n        /* \"contracts/Rental.sol\":2201:2235  contracts.length < contractCount+1 */\n      lt\n        /* \"contracts/Rental.sol\":2193:2286  require(contracts.length < contractCount+1, \"The following contract has already been added.\") */\n      tag_308\n      jumpi\n      mload(0x40)\n      0x08c379a000000000000000000000000000000000000000000000000000000000\n      dup2\n      mstore\n      0x04\n      add\n      tag_309\n      swap1\n      tag_310\n      jump\t// in\n    tag_309:\n      mload(0x40)\n      dup1\n      swap2\n      sub\n      swap1\n      revert\n    tag_308:\n        /* \"contracts/Rental.sol\":4507:4520  contractCount */\n      0x04\n      0x00\n        /* \"contracts/Rental.sol\":4507:4522  contractCount++ */\n      dup2\n      sload\n      dup1\n      swap3\n      swap2\n      swap1\n      tag_312\n      swap1\n      tag_206\n      jump\t// in\n    tag_312:\n      swap2\n      swap1\n      pop\n      sstore\n      pop\n        /* \"contracts/Rental.sol\":4532:4546  uint feeAmount */\n      0x00\n        /* \"contracts/Rental.sol\":4582:4591  dayscount */\n      dup4\n        /* \"contracts/Rental.sol\":4549:4563  getVehicleByID */\n      0x05\n        /* \"contracts/Rental.sol\":4549:4570  getVehicleByID[carId] */\n      0x00\n        /* \"contracts/Rental.sol\":4564:4569  carId */\n      dup9\n        /* \"contracts/Rental.sol\":4549:4570  getVehicleByID[carId] */\n      dup2\n      mstore\n      0x20\n      add\n      swap1\n      dup2\n      mstore\n      0x20\n      add\n      0x00\n      keccak256\n        /* \"contracts/Rental.sol\":4549:4579  getVehicleByID[carId].rentCost */\n      0x08\n      add\n      sload\n        /* \"contracts/Rental.sol\":4549:4591  getVehicleByID[carId].rentCost * dayscount */\n      tag_313\n      swap2\n      swap1\n      tag_314\n      jump\t// in\n    tag_313:\n        /* \"contracts/Rental.sol\":4532:4591  uint feeAmount = getVehicleByID[carId].rentCost * dayscount */\n      swap1\n      pop\n        /* \"contracts/Rental.sol\":4601:4629  Contract memory temporaryObj */\n      0x00\n        /* \"contracts/Rental.sol\":4632:4834  Contract(... */\n      mload(0x40)\n      dup1\n      0xe0\n      add\n      0x40\n      mstore\n      dup1\n        /* \"contracts/Rental.sol\":4654:4664  msg.sender */\n      caller\n        /* \"contracts/Rental.sol\":4632:4834  Contract(... */\n      0xffffffffffffffffffffffffffffffffffffffff\n      and\n      dup2\n      mstore\n      0x20\n      add\n        /* \"contracts/Rental.sol\":4678:4692  getVehicleByID */\n      0x05\n        /* \"contracts/Rental.sol\":4678:4699  getVehicleByID[carId] */\n      0x00\n        /* \"contracts/Rental.sol\":4693:4698  carId */\n      dup11\n        /* \"contracts/Rental.sol\":4678:4699  getVehicleByID[carId] */\n      dup2\n      mstore\n      0x20\n      add\n      swap1\n      dup2\n      mstore\n      0x20\n      add\n      0x00\n      keccak256\n        /* \"contracts/Rental.sol\":4632:4834  Contract(... */\n      mload(0x40)\n      dup1\n      0x0120\n      add\n      0x40\n      mstore\n      swap1\n      dup2\n      0x00\n      dup3\n      add\n      sload\n      dup2\n      mstore\n      0x20\n      add\n      0x01\n      dup3\n      add\n      sload\n      dup2\n      mstore\n      0x20\n      add\n      0x02\n      dup3\n      add\n      sload\n      dup2\n      mstore\n      0x20\n      add\n      0x03\n      dup3\n      add\n      0x00\n      swap1\n      sload\n      swap1\n      0x0100\n      exp\n      swap1\n      div\n      0xff\n      and\n      0x06\n      dup2\n      gt\n      iszero\n      tag_315\n      jumpi\n      tag_316\n      tag_172\n      jump\t// in\n    tag_316:\n    tag_315:\n      0x06\n      dup2\n      gt\n      iszero\n      tag_317\n      jumpi\n      tag_318\n      tag_172\n      jump\t// in\n    tag_318:\n    tag_317:\n      dup2\n      mstore\n      0x20\n      add\n      0x04\n      dup3\n      add\n      mload(0x40)\n      dup1\n      0x40\n      add\n      0x40\n      mstore\n      swap1\n      dup2\n      0x00\n      dup3\n      add\n      sload\n      dup2\n      mstore\n      0x20\n      add\n      0x01\n      dup3\n      add\n      sload\n      dup2\n      mstore\n      pop\n      pop\n      dup2\n      mstore\n      0x20\n      add\n      0x06\n      dup3\n      add\n      sload\n      dup2\n      mstore\n      0x20\n      add\n      0x07\n      dup3\n      add\n      sload\n      dup2\n      mstore\n      0x20\n      add\n      0x08\n      dup3\n      add\n      sload\n      dup2\n      mstore\n      0x20\n      add\n      0x09\n      dup3\n      add\n      0x00\n      swap1\n      sload\n      swap1\n      0x0100\n      exp\n      swap1\n      div\n      0xff\n      and\n      0x01\n      dup2\n      gt\n      iszero\n      tag_319\n      jumpi\n      tag_320\n      tag_172\n      jump\t// in\n    tag_320:\n    tag_319:\n      0x01\n      dup2\n      gt\n      iszero\n      tag_321\n      jumpi\n      tag_322\n      tag_172\n      jump\t// in\n    tag_322:\n    tag_321:\n      dup2\n      mstore\n      pop\n      pop\n      dup2\n      mstore\n      0x20\n      add\n        /* \"contracts/Rental.sol\":4713:4719  period */\n      dup8\n        /* \"contracts/Rental.sol\":4632:4834  Contract(... */\n      dup2\n      mstore\n      0x20\n      add\n        /* \"contracts/Rental.sol\":4733:4742  feeAmount */\n      dup4\n        /* \"contracts/Rental.sol\":4632:4834  Contract(... */\n      dup2\n      mstore\n      0x20\n      add\n        /* \"contracts/Rental.sol\":4756:4757  0 */\n      0x00\n        /* \"contracts/Rental.sol\":4632:4834  Contract(... */\n      dup2\n      mstore\n      0x20\n      add\n        /* \"contracts/Rental.sol\":4771:4786  block.timestamp */\n      timestamp\n        /* \"contracts/Rental.sol\":4632:4834  Contract(... */\n      dup2\n      mstore\n      0x20\n      add\n        /* \"contracts/Rental.sol\":4800:4824  ContractStatus.Initiated */\n      0x00\n        /* \"contracts/Rental.sol\":4632:4834  Contract(... */\n      0x02\n      dup2\n      gt\n      iszero\n      tag_323\n      jumpi\n      tag_324\n      tag_172\n      jump\t// in\n    tag_324:\n    tag_323:\n      dup2\n      mstore\n      pop\n        /* \"contracts/Rental.sol\":4601:4834  Contract memory temporaryObj = Contract(... */\n      swap1\n      pop\n        /* \"contracts/Rental.sol\":4877:4889  temporaryObj */\n      dup1\n        /* \"contracts/Rental.sol\":4844:4859  getContractByID */\n      0x07\n        /* \"contracts/Rental.sol\":4844:4874  getContractByID[contractCount] */\n      0x00\n        /* \"contracts/Rental.sol\":4860:4873  contractCount */\n      sload(0x04)\n        /* \"contracts/Rental.sol\":4844:4874  getContractByID[contractCount] */\n      dup2\n      mstore\n      0x20\n      add\n      swap1\n      dup2\n      mstore\n      0x20\n      add\n      0x00\n      keccak256\n        /* \"contracts/Rental.sol\":4844:4889  getContractByID[contractCount] = temporaryObj */\n      0x00\n      dup3\n      add\n      mload\n      dup2\n      0x00\n      add\n      exp(0x0100, 0x00)\n      dup2\n      sload\n      dup2\n      0xffffffffffffffffffffffffffffffffffffffff\n      mul\n      not\n      and\n      swap1\n      dup4\n      0xffffffffffffffffffffffffffffffffffffffff\n      and\n      mul\n      or\n      swap1\n      sstore\n      pop\n      0x20\n      dup3\n      add\n      mload\n      dup2\n      0x01\n      add\n      0x00\n      dup3\n      add\n      mload\n      dup2\n      0x00\n      add\n      sstore\n      0x20\n      dup3\n      add\n      mload\n      dup2\n      0x01\n      add\n      sstore\n      0x40\n      dup3\n      add\n      mload\n      dup2\n      0x02\n      add\n      sstore\n      0x60\n      dup3\n      add\n      mload\n      dup2\n      0x03\n      add\n      exp(0x0100, 0x00)\n      dup2\n      sload\n      dup2\n      0xff\n      mul\n      not\n      and\n      swap1\n      dup4\n      0x06\n      dup2\n      gt\n      iszero\n      tag_325\n      jumpi\n      tag_326\n      tag_172\n      jump\t// in\n    tag_326:\n    tag_325:\n      mul\n      or\n      swap1\n      sstore\n      pop\n      0x80\n      dup3\n      add\n      mload\n      dup2\n      0x04\n      add\n      0x00\n      dup3\n      add\n      mload\n      dup2\n      0x00\n      add\n      sstore\n      0x20\n      dup3\n      add\n      mload\n      dup2\n      0x01\n      add\n      sstore\n      pop\n      pop\n      0xa0\n      dup3\n      add\n      mload\n      dup2\n      0x06\n      add\n      sstore\n      0xc0\n      dup3\n      add\n      mload\n      dup2\n      0x07\n      add\n      sstore\n      0xe0\n      dup3\n      add\n      mload\n      dup2\n      0x08\n      add\n      sstore\n      0x0100\n      dup3\n      add\n      mload\n      dup2\n      0x09\n      add\n      exp(0x0100, 0x00)\n      dup2\n      sload\n      dup2\n      0xff\n      mul\n      not\n      and\n      swap1\n      dup4\n      0x01\n      dup2\n      gt\n      iszero\n      tag_327\n      jumpi\n      tag_328\n      tag_172\n      jump\t// in\n    tag_328:\n    tag_327:\n      mul\n      or\n      swap1\n      sstore\n      pop\n      pop\n      pop\n      0x40\n      dup3\n      add\n      mload\n      dup2\n      0x0b\n      add\n      0x00\n      dup3\n      add\n      mload\n      dup2\n      0x00\n      add\n      sstore\n      0x20\n      dup3\n      add\n      mload\n      dup2\n      0x01\n      add\n      sstore\n      pop\n      pop\n      0x60\n      dup3\n      add\n      mload\n      dup2\n      0x0d\n      add\n      sstore\n      0x80\n      dup3\n      add\n      mload\n      dup2\n      0x0e\n      add\n      sstore\n      0xa0\n      dup3\n      add\n      mload\n      dup2\n      0x0f\n      add\n      sstore\n      0xc0\n      dup3\n      add\n      mload\n      dup2\n      0x10\n      add\n      exp(0x0100, 0x00)\n      dup2\n      sload\n      dup2\n      0xff\n      mul\n      not\n      and\n      swap1\n      dup4\n      0x02\n      dup2\n      gt\n      iszero\n      tag_329\n      jumpi\n      tag_330\n      tag_172\n      jump\t// in\n    tag_330:\n    tag_329:\n      mul\n      or\n      swap1\n      sstore\n      pop\n      swap1\n      pop\n      pop\n        /* \"contracts/Rental.sol\":4899:4908  contracts */\n      0x08\n        /* \"contracts/Rental.sol\":4914:4926  temporaryObj */\n      dup2\n        /* \"contracts/Rental.sol\":4899:4927  contracts.push(temporaryObj) */\n      swap1\n      dup1\n      0x01\n      dup2\n      sload\n      add\n      dup1\n      dup3\n      sstore\n      dup1\n      swap2\n      pop\n      pop\n      0x01\n      swap1\n      sub\n      swap1\n      0x00\n      mstore\n      keccak256(0x00, 0x20)\n      swap1\n      0x11\n      mul\n      add\n      0x00\n      swap1\n      swap2\n      swap1\n      swap2\n      swap1\n      swap2\n      pop\n      0x00\n      dup3\n      add\n      mload\n      dup2\n      0x00\n      add\n      exp(0x0100, 0x00)\n      dup2\n      sload\n      dup2\n      0xffffffffffffffffffffffffffffffffffffffff\n      mul\n      not\n      and\n      swap1\n      dup4\n      0xffffffffffffffffffffffffffffffffffffffff\n      and\n      mul\n      or\n      swap1\n      sstore\n      pop\n      0x20\n      dup3\n      add\n      mload\n      dup2\n      0x01\n      add\n      0x00\n      dup3\n      add\n      mload\n      dup2\n      0x00\n      add\n      sstore\n      0x20\n      dup3\n      add\n      mload\n      dup2\n      0x01\n      add\n      sstore\n      0x40\n      dup3\n      add\n      mload\n      dup2\n      0x02\n      add\n      sstore\n      0x60\n      dup3\n      add\n      mload\n      dup2\n      0x03\n      add\n      exp(0x0100, 0x00)\n      dup2\n      sload\n      dup2\n      0xff\n      mul\n      not\n      and\n      swap1\n      dup4\n      0x06\n      dup2\n      gt\n      iszero\n      tag_332\n      jumpi\n      tag_333\n      tag_172\n      jump\t// in\n    tag_333:\n    tag_332:\n      mul\n      or\n      swap1\n      sstore\n      pop\n      0x80\n      dup3\n      add\n      mload\n      dup2\n      0x04\n      add\n      0x00\n      dup3\n      add\n      mload\n      dup2\n      0x00\n      add\n      sstore\n      0x20\n      dup3\n      add\n      mload\n      dup2\n      0x01\n      add\n      sstore\n      pop\n      pop\n      0xa0\n      dup3\n      add\n      mload\n      dup2\n      0x06\n      add\n      sstore\n      0xc0\n      dup3\n      add\n      mload\n      dup2\n      0x07\n      add\n      sstore\n      0xe0\n      dup3\n      add\n      mload\n      dup2\n      0x08\n      add\n      sstore\n      0x0100\n      dup3\n      add\n      mload\n      dup2\n      0x09\n      add\n      exp(0x0100, 0x00)\n      dup2\n      sload\n      dup2\n      0xff\n      mul\n      not\n      and\n      swap1\n      dup4\n      0x01\n      dup2\n      gt\n      iszero\n      tag_334\n      jumpi\n      tag_335\n      tag_172\n      jump\t// in\n    tag_335:\n    tag_334:\n      mul\n      or\n      swap1\n      sstore\n      pop\n      pop\n      pop\n      0x40\n      dup3\n      add\n      mload\n      dup2\n      0x0b\n      add\n      0x00\n      dup3\n      add\n      mload\n      dup2\n      0x00\n      add\n      sstore\n      0x20\n      dup3\n      add\n      mload\n      dup2\n      0x01\n      add\n      sstore\n      pop\n      pop\n      0x60\n      dup3\n      add\n      mload\n      dup2\n      0x0d\n      add\n      sstore\n      0x80\n      dup3\n      add\n      mload\n      dup2\n      0x0e\n      add\n      sstore\n      0xa0\n      dup3\n      add\n      mload\n      dup2\n      0x0f\n      add\n      sstore\n      0xc0\n      dup3\n      add\n      mload\n      dup2\n      0x10\n      add\n      exp(0x0100, 0x00)\n      dup2\n      sload\n      dup2\n      0xff\n      mul\n      not\n      and\n      swap1\n      dup4\n      0x02\n      dup2\n      gt\n      iszero\n      tag_336\n      jumpi\n      tag_337\n      tag_172\n      jump\t// in\n    tag_337:\n    tag_336:\n      mul\n      or\n      swap1\n      sstore\n      pop\n      pop\n      pop\n        /* \"contracts/Rental.sol\":4965:4978  contractCount */\n      sload(0x04)\n        /* \"contracts/Rental.sol\":4945:4954  contracts */\n      0x08\n        /* \"contracts/Rental.sol\":4945:4961  contracts.length */\n      dup1\n      sload\n      swap1\n      pop\n        /* \"contracts/Rental.sol\":4945:4978  contracts.length == contractCount */\n      eq\n        /* \"contracts/Rental.sol\":4938:4978  return contracts.length == contractCount */\n      swap4\n      pop\n      pop\n      pop\n        /* \"contracts/Access.sol\":618:619  _ */\n      pop\n        /* \"contracts/Rental.sol\":4309:4985  function addRentPeriod(uint carId, Period memory period, uint dayscount) ... */\n      swap4\n      swap3\n      pop\n      pop\n      pop\n      jump\t// out\n        /* \"contracts/Access.sol\":2027:2121  function renounceRenter() public virtual {... */\n    tag_130:\n        /* \"contracts/Access.sol\":2078:2114  _revokeRole(RENTER_ROLE, msg.sender) */\n      tag_339\n        /* \"contracts/Access.sol\":2090:2101  RENTER_ROLE */\n      0x52454e5445520000000000000000000000000000000000000000000000000000\n        /* \"contracts/Access.sol\":2103:2113  msg.sender */\n      caller\n        /* \"contracts/Access.sol\":2078:2089  _revokeRole */\n      tag_157\n        /* \"contracts/Access.sol\":2078:2114  _revokeRole(RENTER_ROLE, msg.sender) */\n      jump\t// in\n    tag_339:\n        /* \"contracts/Access.sol\":2027:2121  function renounceRenter() public virtual {... */\n      jump\t// out\n        /* \"contracts/Rental.sol\":1208:1233  Vehicle[] public vehicles */\n    tag_134:\n      0x06\n      dup2\n      dup2\n      sload\n      dup2\n      lt\n      tag_340\n      jumpi\n      0x00\n      dup1\n      revert\n    tag_340:\n      swap1\n      0x00\n      mstore\n      keccak256(0x00, 0x20)\n      swap1\n      0x0a\n      mul\n      add\n      0x00\n      swap2\n      pop\n      swap1\n      pop\n      dup1\n      0x00\n      add\n      sload\n      swap1\n      dup1\n      0x01\n      add\n      sload\n      swap1\n      dup1\n      0x02\n      add\n      sload\n      swap1\n      dup1\n      0x03\n      add\n      0x00\n      swap1\n      sload\n      swap1\n      0x0100\n      exp\n      swap1\n      div\n      0xff\n      and\n      swap1\n      dup1\n      0x04\n      add\n      mload(0x40)\n      dup1\n      0x40\n      add\n      0x40\n      mstore\n      swap1\n      dup2\n      0x00\n      dup3\n      add\n      sload\n      dup2\n      mstore\n      0x20\n      add\n      0x01\n      dup3\n      add\n      sload\n      dup2\n      mstore\n      pop\n      pop\n      swap1\n      dup1\n      0x06\n      add\n      sload\n      swap1\n      dup1\n      0x07\n      add\n      sload\n      swap1\n      dup1\n      0x08\n      add\n      sload\n      swap1\n      dup1\n      0x09\n      add\n      0x00\n      swap1\n      sload\n      swap1\n      0x0100\n      exp\n      swap1\n      div\n      0xff\n      and\n      swap1\n      pop\n      dup10\n      jump\t// out\n        /* \"contracts/Access.sol\":192:238  bytes32 public constant RENTER_ROLE = \"RENTER\" */\n    tag_138:\n      0x52454e5445520000000000000000000000000000000000000000000000000000\n      dup2\n      jump\t// out\n        /* \"contracts/utils/AccessControl.sol\":1840:1957  function getRoleMemberCount(bytes32 role) public view returns (uint256) {... */\n    tag_145:\n        /* \"contracts/utils/AccessControl.sol\":1903:1910  uint256 */\n      0x00\n        /* \"contracts/utils/AccessControl.sol\":1929:1950  _roles[role].length() */\n      tag_343\n        /* \"contracts/utils/AccessControl.sol\":1929:1935  _roles */\n      0x00\n        /* \"contracts/utils/AccessControl.sol\":1929:1941  _roles[role] */\n      dup1\n        /* \"contracts/utils/AccessControl.sol\":1936:1940  role */\n      dup5\n        /* \"contracts/utils/AccessControl.sol\":1929:1941  _roles[role] */\n      dup2\n      mstore\n      0x20\n      add\n      swap1\n      dup2\n      mstore\n      0x20\n      add\n      0x00\n      keccak256\n        /* \"contracts/utils/AccessControl.sol\":1929:1948  _roles[role].length */\n      tag_344\n        /* \"contracts/utils/AccessControl.sol\":1929:1950  _roles[role].length() */\n      jump\t// in\n    tag_343:\n        /* \"contracts/utils/AccessControl.sol\":1922:1950  return _roles[role].length() */\n      swap1\n      pop\n        /* \"contracts/utils/AccessControl.sol\":1840:1957  function getRoleMemberCount(bytes32 role) public view returns (uint256) {... */\n      swap2\n      swap1\n      pop\n      jump\t// out\n        /* \"contracts/Access.sol\":1100:1235  function addRenter(address account) public virtual {... */\n    tag_150:\n        /* \"contracts/Access.sol\":1178:1185  account */\n      dup1\n        /* \"contracts/Access.sol\":1161:1167  sender */\n      0x01\n      0x00\n        /* \"contracts/Access.sol\":1161:1186  sender = payable(account) */\n      0x0100\n      exp\n      dup2\n      sload\n      dup2\n      0xffffffffffffffffffffffffffffffffffffffff\n      mul\n      not\n      and\n      swap1\n      dup4\n      0xffffffffffffffffffffffffffffffffffffffff\n      and\n      mul\n      or\n      swap1\n      sstore\n      pop\n        /* \"contracts/Access.sol\":1196:1228  _grantRole(RENTER_ROLE, account) */\n      tag_346\n        /* \"contracts/Access.sol\":1207:1218  RENTER_ROLE */\n      0x52454e5445520000000000000000000000000000000000000000000000000000\n        /* \"contracts/Access.sol\":1220:1227  account */\n      dup3\n        /* \"contracts/Access.sol\":1196:1206  _grantRole */\n      tag_222\n        /* \"contracts/Access.sol\":1196:1228  _grantRole(RENTER_ROLE, account) */\n      jump\t// in\n    tag_346:\n        /* \"contracts/Access.sol\":1100:1235  function addRenter(address account) public virtual {... */\n      pop\n      jump\t// out\n        /* \"contracts/Access.sol\":142:186  bytes32 public constant OWNER_ROLE = \"OWNER\" */\n    tag_153:\n      0x4f574e4552000000000000000000000000000000000000000000000000000000\n      dup2\n      jump\t// out\n        /* \"contracts/utils/AccessControl.sol\":3008:3189  function _revokeRole(bytes32 role, address account) internal {... */\n    tag_157:\n        /* \"contracts/utils/AccessControl.sol\":3083:3111  _roles[role].remove(account) */\n      tag_348\n        /* \"contracts/utils/AccessControl.sol\":3103:3110  account */\n      dup2\n        /* \"contracts/utils/AccessControl.sol\":3083:3089  _roles */\n      0x00\n        /* \"contracts/utils/AccessControl.sol\":3083:3095  _roles[role] */\n      dup1\n        /* \"contracts/utils/AccessControl.sol\":3090:3094  role */\n      dup6\n        /* \"contracts/utils/AccessControl.sol\":3083:3095  _roles[role] */\n      dup2\n      mstore\n      0x20\n      add\n      swap1\n      dup2\n      mstore\n      0x20\n      add\n      0x00\n      keccak256\n        /* \"contracts/utils/AccessControl.sol\":3083:3102  _roles[role].remove */\n      tag_349\n      swap1\n        /* \"contracts/utils/AccessControl.sol\":3083:3111  _roles[role].remove(account) */\n      swap2\n      swap1\n      0xffffffff\n      and\n      jump\t// in\n    tag_348:\n        /* \"contracts/utils/AccessControl.sol\":3079:3183  if (_roles[role].remove(account)) {... */\n      iszero\n      tag_350\n      jumpi\n        /* \"contracts/utils/AccessControl.sol\":3159:3171  _msgSender() */\n      tag_351\n        /* \"contracts/utils/AccessControl.sol\":3159:3169  _msgSender */\n      tag_352\n        /* \"contracts/utils/AccessControl.sol\":3159:3171  _msgSender() */\n      jump\t// in\n    tag_351:\n        /* \"contracts/utils/AccessControl.sol\":3132:3172  RoleRevoked(role, account, _msgSender()) */\n      0xffffffffffffffffffffffffffffffffffffffff\n      and\n        /* \"contracts/utils/AccessControl.sol\":3150:3157  account */\n      dup2\n        /* \"contracts/utils/AccessControl.sol\":3132:3172  RoleRevoked(role, account, _msgSender()) */\n      0xffffffffffffffffffffffffffffffffffffffff\n      and\n        /* \"contracts/utils/AccessControl.sol\":3144:3148  role */\n      dup4\n        /* \"contracts/utils/AccessControl.sol\":3132:3172  RoleRevoked(role, account, _msgSender()) */\n      0xf6391f5c32d9c69d2a47ea670b442974b53935d1edc7fd64eb21e047a839171b\n      mload(0x40)\n      mload(0x40)\n      dup1\n      swap2\n      sub\n      swap1\n      log4\n        /* \"contracts/utils/AccessControl.sol\":3079:3183  if (_roles[role].remove(account)) {... */\n    tag_350:\n        /* \"contracts/utils/AccessControl.sol\":3008:3189  function _revokeRole(bytes32 role, address account) internal {... */\n      pop\n      pop\n      jump\t// out\n        /* \"contracts/utils/AccessControl.sol\":2825:3002  function _grantRole(bytes32 role, address account) internal {... */\n    tag_222:\n        /* \"contracts/utils/AccessControl.sol\":2899:2924  _roles[role].add(account) */\n      tag_354\n        /* \"contracts/utils/AccessControl.sol\":2916:2923  account */\n      dup2\n        /* \"contracts/utils/AccessControl.sol\":2899:2905  _roles */\n      0x00\n        /* \"contracts/utils/AccessControl.sol\":2899:2911  _roles[role] */\n      dup1\n        /* \"contracts/utils/AccessControl.sol\":2906:2910  role */\n      dup6\n        /* \"contracts/utils/AccessControl.sol\":2899:2911  _roles[role] */\n      dup2\n      mstore\n      0x20\n      add\n      swap1\n      dup2\n      mstore\n      0x20\n      add\n      0x00\n      keccak256\n        /* \"contracts/utils/AccessControl.sol\":2899:2915  _roles[role].add */\n      tag_355\n      swap1\n        /* \"contracts/utils/AccessControl.sol\":2899:2924  _roles[role].add(account) */\n      swap2\n      swap1\n      0xffffffff\n      and\n      jump\t// in\n    tag_354:\n        /* \"contracts/utils/AccessControl.sol\":2895:2996  if (_roles[role].add(account)) {... */\n      iszero\n      tag_356\n      jumpi\n        /* \"contracts/utils/AccessControl.sol\":2972:2984  _msgSender() */\n      tag_357\n        /* \"contracts/utils/AccessControl.sol\":2972:2982  _msgSender */\n      tag_352\n        /* \"contracts/utils/AccessControl.sol\":2972:2984  _msgSender() */\n      jump\t// in\n    tag_357:\n        /* \"contracts/utils/AccessControl.sol\":2945:2985  RoleGranted(role, account, _msgSender()) */\n      0xffffffffffffffffffffffffffffffffffffffff\n      and\n        /* \"contracts/utils/AccessControl.sol\":2963:2970  account */\n      dup2\n        /* \"contracts/utils/AccessControl.sol\":2945:2985  RoleGranted(role, account, _msgSender()) */\n      0xffffffffffffffffffffffffffffffffffffffff\n      and\n        /* \"contracts/utils/AccessControl.sol\":2957:2961  role */\n      dup4\n        /* \"contracts/utils/AccessControl.sol\":2945:2985  RoleGranted(role, account, _msgSender()) */\n      0x2f8788117e7eff1d82e926ec794901d17c78024a50270940304540a733656f0d\n      mload(0x40)\n      mload(0x40)\n      dup1\n      swap2\n      sub\n      swap1\n      log4\n        /* \"contracts/utils/AccessControl.sol\":2895:2996  if (_roles[role].add(account)) {... */\n    tag_356:\n        /* \"contracts/utils/AccessControl.sol\":2825:3002  function _grantRole(bytes32 role, address account) internal {... */\n      pop\n      pop\n      jump\t// out\n        /* \"@openzeppelin/contracts/utils/structs/EnumerableSet.sol\":9286:9442  function at(AddressSet storage set, uint256 index) internal view returns (address) {... */\n    tag_293:\n        /* \"@openzeppelin/contracts/utils/structs/EnumerableSet.sol\":9360:9367  address */\n      0x00\n        /* \"@openzeppelin/contracts/utils/structs/EnumerableSet.sol\":9410:9432  _at(set._inner, index) */\n      tag_359\n        /* \"@openzeppelin/contracts/utils/structs/EnumerableSet.sol\":9414:9417  set */\n      dup4\n        /* \"@openzeppelin/contracts/utils/structs/EnumerableSet.sol\":9414:9424  set._inner */\n      0x00\n      add\n        /* \"@openzeppelin/contracts/utils/structs/EnumerableSet.sol\":9426:9431  index */\n      dup4\n        /* \"@openzeppelin/contracts/utils/structs/EnumerableSet.sol\":9410:9413  _at */\n      tag_360\n        /* \"@openzeppelin/contracts/utils/structs/EnumerableSet.sol\":9410:9432  _at(set._inner, index) */\n      jump\t// in\n    tag_359:\n        /* \"@openzeppelin/contracts/utils/structs/EnumerableSet.sol\":9402:9433  uint256(_at(set._inner, index)) */\n      0x00\n      shr\n        /* \"@openzeppelin/contracts/utils/structs/EnumerableSet.sol\":9379:9435  return address(uint160(uint256(_at(set._inner, index)))) */\n      swap1\n      pop\n        /* \"@openzeppelin/contracts/utils/structs/EnumerableSet.sol\":9286:9442  function at(AddressSet storage set, uint256 index) internal view returns (address) {... */\n      swap3\n      swap2\n      pop\n      pop\n      jump\t// out\n        /* \"@openzeppelin/contracts/utils/structs/EnumerableSet.sol\":8583:8748  function contains(AddressSet storage set, address value) internal view returns (bool) {... */\n    tag_296:\n        /* \"@openzeppelin/contracts/utils/structs/EnumerableSet.sol\":8663:8667  bool */\n      0x00\n        /* \"@openzeppelin/contracts/utils/structs/EnumerableSet.sol\":8686:8741  _contains(set._inner, bytes32(uint256(uint160(value)))) */\n      tag_362\n        /* \"@openzeppelin/contracts/utils/structs/EnumerableSet.sol\":8696:8699  set */\n      dup4\n        /* \"@openzeppelin/contracts/utils/structs/EnumerableSet.sol\":8696:8706  set._inner */\n      0x00\n      add\n        /* \"@openzeppelin/contracts/utils/structs/EnumerableSet.sol\":8732:8737  value */\n      dup4\n        /* \"@openzeppelin/contracts/utils/structs/EnumerableSet.sol\":8716:8739  uint256(uint160(value)) */\n      0xffffffffffffffffffffffffffffffffffffffff\n      and\n        /* \"@openzeppelin/contracts/utils/structs/EnumerableSet.sol\":8708:8740  bytes32(uint256(uint160(value))) */\n      0x00\n      shl\n        /* \"@openzeppelin/contracts/utils/structs/EnumerableSet.sol\":8686:8695  _contains */\n      tag_363\n        /* \"@openzeppelin/contracts/utils/structs/EnumerableSet.sol\":8686:8741  _contains(set._inner, bytes32(uint256(uint160(value)))) */\n      jump\t// in\n    tag_362:\n        /* \"@openzeppelin/contracts/utils/structs/EnumerableSet.sol\":8679:8741  return _contains(set._inner, bytes32(uint256(uint160(value)))) */\n      swap1\n      pop\n        /* \"@openzeppelin/contracts/utils/structs/EnumerableSet.sol\":8583:8748  function contains(AddressSet storage set, address value) internal view returns (bool) {... */\n      swap3\n      swap2\n      pop\n      pop\n      jump\t// out\n        /* \"@openzeppelin/contracts/utils/structs/EnumerableSet.sol\":8829:8944  function length(AddressSet storage set) internal view returns (uint256) {... */\n    tag_344:\n        /* \"@openzeppelin/contracts/utils/structs/EnumerableSet.sol\":8892:8899  uint256 */\n      0x00\n        /* \"@openzeppelin/contracts/utils/structs/EnumerableSet.sol\":8918:8937  _length(set._inner) */\n      tag_365\n        /* \"@openzeppelin/contracts/utils/structs/EnumerableSet.sol\":8926:8929  set */\n      dup3\n        /* \"@openzeppelin/contracts/utils/structs/EnumerableSet.sol\":8926:8936  set._inner */\n      0x00\n      add\n        /* \"@openzeppelin/contracts/utils/structs/EnumerableSet.sol\":8918:8925  _length */\n      tag_366\n        /* \"@openzeppelin/contracts/utils/structs/EnumerableSet.sol\":8918:8937  _length(set._inner) */\n      jump\t// in\n    tag_365:\n        /* \"@openzeppelin/contracts/utils/structs/EnumerableSet.sol\":8911:8937  return _length(set._inner) */\n      swap1\n      pop\n        /* \"@openzeppelin/contracts/utils/structs/EnumerableSet.sol\":8829:8944  function length(AddressSet storage set) internal view returns (uint256) {... */\n      swap2\n      swap1\n      pop\n      jump\t// out\n        /* \"@openzeppelin/contracts/utils/structs/EnumerableSet.sol\":8346:8502  function remove(AddressSet storage set, address value) internal returns (bool) {... */\n    tag_349:\n        /* \"@openzeppelin/contracts/utils/structs/EnumerableSet.sol\":8419:8423  bool */\n      0x00\n        /* \"@openzeppelin/contracts/utils/structs/EnumerableSet.sol\":8442:8495  _remove(set._inner, bytes32(uint256(uint160(value)))) */\n      tag_368\n        /* \"@openzeppelin/contracts/utils/structs/EnumerableSet.sol\":8450:8453  set */\n      dup4\n        /* \"@openzeppelin/contracts/utils/structs/EnumerableSet.sol\":8450:8460  set._inner */\n      0x00\n      add\n        /* \"@openzeppelin/contracts/utils/structs/EnumerableSet.sol\":8486:8491  value */\n      dup4\n        /* \"@openzeppelin/contracts/utils/structs/EnumerableSet.sol\":8470:8493  uint256(uint160(value)) */\n      0xffffffffffffffffffffffffffffffffffffffff\n      and\n        /* \"@openzeppelin/contracts/utils/structs/EnumerableSet.sol\":8462:8494  bytes32(uint256(uint160(value))) */\n      0x00\n      shl\n        /* \"@openzeppelin/contracts/utils/structs/EnumerableSet.sol\":8442:8449  _remove */\n      tag_369\n        /* \"@openzeppelin/contracts/utils/structs/EnumerableSet.sol\":8442:8495  _remove(set._inner, bytes32(uint256(uint160(value)))) */\n      jump\t// in\n    tag_368:\n        /* \"@openzeppelin/contracts/utils/structs/EnumerableSet.sol\":8435:8495  return _remove(set._inner, bytes32(uint256(uint160(value)))) */\n      swap1\n      pop\n        /* \"@openzeppelin/contracts/utils/structs/EnumerableSet.sol\":8346:8502  function remove(AddressSet storage set, address value) internal returns (bool) {... */\n      swap3\n      swap2\n      pop\n      pop\n      jump\t// out\n        /* \"contracts/utils/Context.sol\":606:702  function _msgSender() internal view virtual returns (address) {... */\n    tag_352:\n        /* \"contracts/utils/Context.sol\":659:666  address */\n      0x00\n        /* \"contracts/utils/Context.sol\":685:695  msg.sender */\n      caller\n        /* \"contracts/utils/Context.sol\":678:695  return msg.sender */\n      swap1\n      pop\n        /* \"contracts/utils/Context.sol\":606:702  function _msgSender() internal view virtual returns (address) {... */\n      swap1\n      jump\t// out\n        /* \"@openzeppelin/contracts/utils/structs/EnumerableSet.sol\":8028:8178  function add(AddressSet storage set, address value) internal returns (bool) {... */\n    tag_355:\n        /* \"@openzeppelin/contracts/utils/structs/EnumerableSet.sol\":8098:8102  bool */\n      0x00\n        /* \"@openzeppelin/contracts/utils/structs/EnumerableSet.sol\":8121:8171  _add(set._inner, bytes32(uint256(uint160(value)))) */\n      tag_372\n        /* \"@openzeppelin/contracts/utils/structs/EnumerableSet.sol\":8126:8129  set */\n      dup4\n        /* \"@openzeppelin/contracts/utils/structs/EnumerableSet.sol\":8126:8136  set._inner */\n      0x00\n      add\n        /* \"@openzeppelin/contracts/utils/structs/EnumerableSet.sol\":8162:8167  value */\n      dup4\n        /* \"@openzeppelin/contracts/utils/structs/EnumerableSet.sol\":8146:8169  uint256(uint160(value)) */\n      0xffffffffffffffffffffffffffffffffffffffff\n      and\n        /* \"@openzeppelin/contracts/utils/structs/EnumerableSet.sol\":8138:8170  bytes32(uint256(uint160(value))) */\n      0x00\n      shl\n        /* \"@openzeppelin/contracts/utils/structs/EnumerableSet.sol\":8121:8125  _add */\n      tag_373\n        /* \"@openzeppelin/contracts/utils/structs/EnumerableSet.sol\":8121:8171  _add(set._inner, bytes32(uint256(uint160(value)))) */\n      jump\t// in\n    tag_372:\n        /* \"@openzeppelin/contracts/utils/structs/EnumerableSet.sol\":8114:8171  return _add(set._inner, bytes32(uint256(uint160(value)))) */\n      swap1\n      pop\n        /* \"@openzeppelin/contracts/utils/structs/EnumerableSet.sol\":8028:8178  function add(AddressSet storage set, address value) internal returns (bool) {... */\n      swap3\n      swap2\n      pop\n      pop\n      jump\t// out\n        /* \"@openzeppelin/contracts/utils/structs/EnumerableSet.sol\":4811:4929  function _at(Set storage set, uint256 index) private view returns (bytes32) {... */\n    tag_360:\n        /* \"@openzeppelin/contracts/utils/structs/EnumerableSet.sol\":4878:4885  bytes32 */\n      0x00\n        /* \"@openzeppelin/contracts/utils/structs/EnumerableSet.sol\":4904:4907  set */\n      dup3\n        /* \"@openzeppelin/contracts/utils/structs/EnumerableSet.sol\":4904:4915  set._values */\n      0x00\n      add\n        /* \"@openzeppelin/contracts/utils/structs/EnumerableSet.sol\":4916:4921  index */\n      dup3\n        /* \"@openzeppelin/contracts/utils/structs/EnumerableSet.sol\":4904:4922  set._values[index] */\n      dup2\n      sload\n      dup2\n      lt\n      tag_375\n      jumpi\n      tag_376\n      tag_377\n      jump\t// in\n    tag_376:\n    tag_375:\n      swap1\n      0x00\n      mstore\n      keccak256(0x00, 0x20)\n      add\n      sload\n        /* \"@openzeppelin/contracts/utils/structs/EnumerableSet.sol\":4897:4922  return set._values[index] */\n      swap1\n      pop\n        /* \"@openzeppelin/contracts/utils/structs/EnumerableSet.sol\":4811:4929  function _at(Set storage set, uint256 index) private view returns (bytes32) {... */\n      swap3\n      swap2\n      pop\n      pop\n      jump\t// out\n        /* \"@openzeppelin/contracts/utils/structs/EnumerableSet.sol\":4154:4281  function _contains(Set storage set, bytes32 value) private view returns (bool) {... */\n    tag_363:\n        /* \"@openzeppelin/contracts/utils/structs/EnumerableSet.sol\":4227:4231  bool */\n      0x00\n        /* \"@openzeppelin/contracts/utils/structs/EnumerableSet.sol\":4273:4274  0 */\n      dup1\n        /* \"@openzeppelin/contracts/utils/structs/EnumerableSet.sol\":4250:4253  set */\n      dup4\n        /* \"@openzeppelin/contracts/utils/structs/EnumerableSet.sol\":4250:4262  set._indexes */\n      0x01\n      add\n        /* \"@openzeppelin/contracts/utils/structs/EnumerableSet.sol\":4250:4269  set._indexes[value] */\n      0x00\n        /* \"@openzeppelin/contracts/utils/structs/EnumerableSet.sol\":4263:4268  value */\n      dup5\n        /* \"@openzeppelin/contracts/utils/structs/EnumerableSet.sol\":4250:4269  set._indexes[value] */\n      dup2\n      mstore\n      0x20\n      add\n      swap1\n      dup2\n      mstore\n      0x20\n      add\n      0x00\n      keccak256\n      sload\n        /* \"@openzeppelin/contracts/utils/structs/EnumerableSet.sol\":4250:4274  set._indexes[value] != 0 */\n      eq\n      iszero\n        /* \"@openzeppelin/contracts/utils/structs/EnumerableSet.sol\":4243:4274  return set._indexes[value] != 0 */\n      swap1\n      pop\n        /* \"@openzeppelin/contracts/utils/structs/EnumerableSet.sol\":4154:4281  function _contains(Set storage set, bytes32 value) private view returns (bool) {... */\n      swap3\n      swap2\n      pop\n      pop\n      jump\t// out\n        /* \"@openzeppelin/contracts/utils/structs/EnumerableSet.sol\":4362:4469  function _length(Set storage set) private view returns (uint256) {... */\n    tag_366:\n        /* \"@openzeppelin/contracts/utils/structs/EnumerableSet.sol\":4418:4425  uint256 */\n      0x00\n        /* \"@openzeppelin/contracts/utils/structs/EnumerableSet.sol\":4444:4447  set */\n      dup2\n        /* \"@openzeppelin/contracts/utils/structs/EnumerableSet.sol\":4444:4455  set._values */\n      0x00\n      add\n        /* \"@openzeppelin/contracts/utils/structs/EnumerableSet.sol\":4444:4462  set._values.length */\n      dup1\n      sload\n      swap1\n      pop\n        /* \"@openzeppelin/contracts/utils/structs/EnumerableSet.sol\":4437:4462  return set._values.length */\n      swap1\n      pop\n        /* \"@openzeppelin/contracts/utils/structs/EnumerableSet.sol\":4362:4469  function _length(Set storage set) private view returns (uint256) {... */\n      swap2\n      swap1\n      pop\n      jump\t// out\n        /* \"@openzeppelin/contracts/utils/structs/EnumerableSet.sol\":2685:4073  function _remove(Set storage set, bytes32 value) private returns (bool) {... */\n    tag_369:\n        /* \"@openzeppelin/contracts/utils/structs/EnumerableSet.sol\":2751:2755  bool */\n      0x00\n        /* \"@openzeppelin/contracts/utils/structs/EnumerableSet.sol\":2867:2885  uint256 valueIndex */\n      dup1\n        /* \"@openzeppelin/contracts/utils/structs/EnumerableSet.sol\":2888:2891  set */\n      dup4\n        /* \"@openzeppelin/contracts/utils/structs/EnumerableSet.sol\":2888:2900  set._indexes */\n      0x01\n      add\n        /* \"@openzeppelin/contracts/utils/structs/EnumerableSet.sol\":2888:2907  set._indexes[value] */\n      0x00\n        /* \"@openzeppelin/contracts/utils/structs/EnumerableSet.sol\":2901:2906  value */\n      dup5\n        /* \"@openzeppelin/contracts/utils/structs/EnumerableSet.sol\":2888:2907  set._indexes[value] */\n      dup2\n      mstore\n      0x20\n      add\n      swap1\n      dup2\n      mstore\n      0x20\n      add\n      0x00\n      keccak256\n      sload\n        /* \"@openzeppelin/contracts/utils/structs/EnumerableSet.sol\":2867:2907  uint256 valueIndex = set._indexes[value] */\n      swap1\n      pop\n        /* \"@openzeppelin/contracts/utils/structs/EnumerableSet.sol\":2936:2937  0 */\n      0x00\n        /* \"@openzeppelin/contracts/utils/structs/EnumerableSet.sol\":2922:2932  valueIndex */\n      dup2\n        /* \"@openzeppelin/contracts/utils/structs/EnumerableSet.sol\":2922:2937  valueIndex != 0 */\n      eq\n        /* \"@openzeppelin/contracts/utils/structs/EnumerableSet.sol\":2918:4067  if (valueIndex != 0) {... */\n      tag_382\n      jumpi\n        /* \"@openzeppelin/contracts/utils/structs/EnumerableSet.sol\":3291:3312  uint256 toDeleteIndex */\n      0x00\n        /* \"@openzeppelin/contracts/utils/structs/EnumerableSet.sol\":3328:3329  1 */\n      0x01\n        /* \"@openzeppelin/contracts/utils/structs/EnumerableSet.sol\":3315:3325  valueIndex */\n      dup3\n        /* \"@openzeppelin/contracts/utils/structs/EnumerableSet.sol\":3315:3329  valueIndex - 1 */\n      tag_383\n      swap2\n      swap1\n      tag_384\n      jump\t// in\n    tag_383:\n        /* \"@openzeppelin/contracts/utils/structs/EnumerableSet.sol\":3291:3329  uint256 toDeleteIndex = valueIndex - 1 */\n      swap1\n      pop\n        /* \"@openzeppelin/contracts/utils/structs/EnumerableSet.sol\":3343:3360  uint256 lastIndex */\n      0x00\n        /* \"@openzeppelin/contracts/utils/structs/EnumerableSet.sol\":3384:3385  1 */\n      0x01\n        /* \"@openzeppelin/contracts/utils/structs/EnumerableSet.sol\":3363:3366  set */\n      dup7\n        /* \"@openzeppelin/contracts/utils/structs/EnumerableSet.sol\":3363:3374  set._values */\n      0x00\n      add\n        /* \"@openzeppelin/contracts/utils/structs/EnumerableSet.sol\":3363:3381  set._values.length */\n      dup1\n      sload\n      swap1\n      pop\n        /* \"@openzeppelin/contracts/utils/structs/EnumerableSet.sol\":3363:3385  set._values.length - 1 */\n      tag_385\n      swap2\n      swap1\n      tag_384\n      jump\t// in\n    tag_385:\n        /* \"@openzeppelin/contracts/utils/structs/EnumerableSet.sol\":3343:3385  uint256 lastIndex = set._values.length - 1 */\n      swap1\n      pop\n        /* \"@openzeppelin/contracts/utils/structs/EnumerableSet.sol\":3417:3430  toDeleteIndex */\n      dup2\n        /* \"@openzeppelin/contracts/utils/structs/EnumerableSet.sol\":3404:3413  lastIndex */\n      dup2\n        /* \"@openzeppelin/contracts/utils/structs/EnumerableSet.sol\":3404:3430  lastIndex != toDeleteIndex */\n      eq\n        /* \"@openzeppelin/contracts/utils/structs/EnumerableSet.sol\":3400:3798  if (lastIndex != toDeleteIndex) {... */\n      tag_386\n      jumpi\n        /* \"@openzeppelin/contracts/utils/structs/EnumerableSet.sol\":3450:3467  bytes32 lastValue */\n      0x00\n        /* \"@openzeppelin/contracts/utils/structs/EnumerableSet.sol\":3470:3473  set */\n      dup7\n        /* \"@openzeppelin/contracts/utils/structs/EnumerableSet.sol\":3470:3481  set._values */\n      0x00\n      add\n        /* \"@openzeppelin/contracts/utils/structs/EnumerableSet.sol\":3482:3491  lastIndex */\n      dup3\n        /* \"@openzeppelin/contracts/utils/structs/EnumerableSet.sol\":3470:3492  set._values[lastIndex] */\n      dup2\n      sload\n      dup2\n      lt\n      tag_387\n      jumpi\n      tag_388\n      tag_377\n      jump\t// in\n    tag_388:\n    tag_387:\n      swap1\n      0x00\n      mstore\n      keccak256(0x00, 0x20)\n      add\n      sload\n        /* \"@openzeppelin/contracts/utils/structs/EnumerableSet.sol\":3450:3492  bytes32 lastValue = set._values[lastIndex] */\n      swap1\n      pop\n        /* \"@openzeppelin/contracts/utils/structs/EnumerableSet.sol\":3621:3630  lastValue */\n      dup1\n        /* \"@openzeppelin/contracts/utils/structs/EnumerableSet.sol\":3592:3595  set */\n      dup8\n        /* \"@openzeppelin/contracts/utils/structs/EnumerableSet.sol\":3592:3603  set._values */\n      0x00\n      add\n        /* \"@openzeppelin/contracts/utils/structs/EnumerableSet.sol\":3604:3617  toDeleteIndex */\n      dup5\n        /* \"@openzeppelin/contracts/utils/structs/EnumerableSet.sol\":3592:3618  set._values[toDeleteIndex] */\n      dup2\n      sload\n      dup2\n      lt\n      tag_390\n      jumpi\n      tag_391\n      tag_377\n      jump\t// in\n    tag_391:\n    tag_390:\n      swap1\n      0x00\n      mstore\n      keccak256(0x00, 0x20)\n      add\n        /* \"@openzeppelin/contracts/utils/structs/EnumerableSet.sol\":3592:3630  set._values[toDeleteIndex] = lastValue */\n      dup2\n      swap1\n      sstore\n      pop\n        /* \"@openzeppelin/contracts/utils/structs/EnumerableSet.sol\":3730:3740  valueIndex */\n      dup4\n        /* \"@openzeppelin/contracts/utils/structs/EnumerableSet.sol\":3704:3707  set */\n      dup8\n        /* \"@openzeppelin/contracts/utils/structs/EnumerableSet.sol\":3704:3716  set._indexes */\n      0x01\n      add\n        /* \"@openzeppelin/contracts/utils/structs/EnumerableSet.sol\":3704:3727  set._indexes[lastValue] */\n      0x00\n        /* \"@openzeppelin/contracts/utils/structs/EnumerableSet.sol\":3717:3726  lastValue */\n      dup4\n        /* \"@openzeppelin/contracts/utils/structs/EnumerableSet.sol\":3704:3727  set._indexes[lastValue] */\n      dup2\n      mstore\n      0x20\n      add\n      swap1\n      dup2\n      mstore\n      0x20\n      add\n      0x00\n      keccak256\n        /* \"@openzeppelin/contracts/utils/structs/EnumerableSet.sol\":3704:3740  set._indexes[lastValue] = valueIndex */\n      dup2\n      swap1\n      sstore\n      pop\n        /* \"@openzeppelin/contracts/utils/structs/EnumerableSet.sol\":3432:3798  {... */\n      pop\n        /* \"@openzeppelin/contracts/utils/structs/EnumerableSet.sol\":3400:3798  if (lastIndex != toDeleteIndex) {... */\n    tag_386:\n        /* \"@openzeppelin/contracts/utils/structs/EnumerableSet.sol\":3876:3879  set */\n      dup6\n        /* \"@openzeppelin/contracts/utils/structs/EnumerableSet.sol\":3876:3887  set._values */\n      0x00\n      add\n        /* \"@openzeppelin/contracts/utils/structs/EnumerableSet.sol\":3876:3893  set._values.pop() */\n      dup1\n      sload\n      dup1\n      tag_393\n      jumpi\n      tag_394\n      tag_395\n      jump\t// in\n    tag_394:\n    tag_393:\n      0x01\n      swap1\n      sub\n      dup2\n      dup2\n      swap1\n      0x00\n      mstore\n      keccak256(0x00, 0x20)\n      add\n      0x00\n      swap1\n      sstore\n      swap1\n      sstore\n        /* \"@openzeppelin/contracts/utils/structs/EnumerableSet.sol\":3968:3971  set */\n      dup6\n        /* \"@openzeppelin/contracts/utils/structs/EnumerableSet.sol\":3968:3980  set._indexes */\n      0x01\n      add\n        /* \"@openzeppelin/contracts/utils/structs/EnumerableSet.sol\":3968:3987  set._indexes[value] */\n      0x00\n        /* \"@openzeppelin/contracts/utils/structs/EnumerableSet.sol\":3981:3986  value */\n      dup7\n        /* \"@openzeppelin/contracts/utils/structs/EnumerableSet.sol\":3968:3987  set._indexes[value] */\n      dup2\n      mstore\n      0x20\n      add\n      swap1\n      dup2\n      mstore\n      0x20\n      add\n      0x00\n      keccak256\n        /* \"@openzeppelin/contracts/utils/structs/EnumerableSet.sol\":3961:3987  delete set._indexes[value] */\n      0x00\n      swap1\n      sstore\n        /* \"@openzeppelin/contracts/utils/structs/EnumerableSet.sol\":4009:4013  true */\n      0x01\n        /* \"@openzeppelin/contracts/utils/structs/EnumerableSet.sol\":4002:4013  return true */\n      swap4\n      pop\n      pop\n      pop\n      pop\n      jump(tag_381)\n        /* \"@openzeppelin/contracts/utils/structs/EnumerableSet.sol\":2918:4067  if (valueIndex != 0) {... */\n    tag_382:\n        /* \"@openzeppelin/contracts/utils/structs/EnumerableSet.sol\":4051:4056  false */\n      0x00\n        /* \"@openzeppelin/contracts/utils/structs/EnumerableSet.sol\":4044:4056  return false */\n      swap2\n      pop\n      pop\n        /* \"@openzeppelin/contracts/utils/structs/EnumerableSet.sol\":2685:4073  function _remove(Set storage set, bytes32 value) private returns (bool) {... */\n    tag_381:\n      swap3\n      swap2\n      pop\n      pop\n      jump\t// out\n        /* \"@openzeppelin/contracts/utils/structs/EnumerableSet.sol\":2113:2517  function _add(Set storage set, bytes32 value) private returns (bool) {... */\n    tag_373:\n        /* \"@openzeppelin/contracts/utils/structs/EnumerableSet.sol\":2176:2180  bool */\n      0x00\n        /* \"@openzeppelin/contracts/utils/structs/EnumerableSet.sol\":2197:2218  _contains(set, value) */\n      tag_399\n        /* \"@openzeppelin/contracts/utils/structs/EnumerableSet.sol\":2207:2210  set */\n      dup4\n        /* \"@openzeppelin/contracts/utils/structs/EnumerableSet.sol\":2212:2217  value */\n      dup4\n        /* \"@openzeppelin/contracts/utils/structs/EnumerableSet.sol\":2197:2206  _contains */\n      tag_363\n        /* \"@openzeppelin/contracts/utils/structs/EnumerableSet.sol\":2197:2218  _contains(set, value) */\n      jump\t// in\n    tag_399:\n        /* \"@openzeppelin/contracts/utils/structs/EnumerableSet.sol\":2192:2511  if (!_contains(set, value)) {... */\n      tag_400\n      jumpi\n        /* \"@openzeppelin/contracts/utils/structs/EnumerableSet.sol\":2234:2237  set */\n      dup3\n        /* \"@openzeppelin/contracts/utils/structs/EnumerableSet.sol\":2234:2245  set._values */\n      0x00\n      add\n        /* \"@openzeppelin/contracts/utils/structs/EnumerableSet.sol\":2251:2256  value */\n      dup3\n        /* \"@openzeppelin/contracts/utils/structs/EnumerableSet.sol\":2234:2257  set._values.push(value) */\n      swap1\n      dup1\n      0x01\n      dup2\n      sload\n      add\n      dup1\n      dup3\n      sstore\n      dup1\n      swap2\n      pop\n      pop\n      0x01\n      swap1\n      sub\n      swap1\n      0x00\n      mstore\n      keccak256(0x00, 0x20)\n      add\n      0x00\n      swap1\n      swap2\n      swap1\n      swap2\n      swap1\n      swap2\n      pop\n      sstore\n        /* \"@openzeppelin/contracts/utils/structs/EnumerableSet.sol\":2414:2417  set */\n      dup3\n        /* \"@openzeppelin/contracts/utils/structs/EnumerableSet.sol\":2414:2425  set._values */\n      0x00\n      add\n        /* \"@openzeppelin/contracts/utils/structs/EnumerableSet.sol\":2414:2432  set._values.length */\n      dup1\n      sload\n      swap1\n      pop\n        /* \"@openzeppelin/contracts/utils/structs/EnumerableSet.sol\":2392:2395  set */\n      dup4\n        /* \"@openzeppelin/contracts/utils/structs/EnumerableSet.sol\":2392:2404  set._indexes */\n      0x01\n      add\n        /* \"@openzeppelin/contracts/utils/structs/EnumerableSet.sol\":2392:2411  set._indexes[value] */\n      0x00\n        /* \"@openzeppelin/contracts/utils/structs/EnumerableSet.sol\":2405:2410  value */\n      dup5\n        /* \"@openzeppelin/contracts/utils/structs/EnumerableSet.sol\":2392:2411  set._indexes[value] */\n      dup2\n      mstore\n      0x20\n      add\n      swap1\n      dup2\n      mstore\n      0x20\n      add\n      0x00\n      keccak256\n        /* \"@openzeppelin/contracts/utils/structs/EnumerableSet.sol\":2392:2432  set._indexes[value] = set._values.length */\n      dup2\n      swap1\n      sstore\n      pop\n        /* \"@openzeppelin/contracts/utils/structs/EnumerableSet.sol\":2453:2457  true */\n      0x01\n        /* \"@openzeppelin/contracts/utils/structs/EnumerableSet.sol\":2446:2457  return true */\n      swap1\n      pop\n      jump(tag_398)\n        /* \"@openzeppelin/contracts/utils/structs/EnumerableSet.sol\":2192:2511  if (!_contains(set, value)) {... */\n    tag_400:\n        /* \"@openzeppelin/contracts/utils/structs/EnumerableSet.sol\":2495:2500  false */\n      0x00\n        /* \"@openzeppelin/contracts/utils/structs/EnumerableSet.sol\":2488:2500  return false */\n      swap1\n      pop\n        /* \"@openzeppelin/contracts/utils/structs/EnumerableSet.sol\":2113:2517  function _add(Set storage set, bytes32 value) private returns (bool) {... */\n    tag_398:\n      swap3\n      swap2\n      pop\n      pop\n      jump\t// out\n        /* \"#utility.yul\":7:146   */\n    tag_404:\n        /* \"#utility.yul\":53:58   */\n      0x00\n        /* \"#utility.yul\":91:97   */\n      dup2\n        /* \"#utility.yul\":78:98   */\n      calldataload\n        /* \"#utility.yul\":69:98   */\n      swap1\n      pop\n        /* \"#utility.yul\":107:140   */\n      tag_406\n        /* \"#utility.yul\":134:139   */\n      dup2\n        /* \"#utility.yul\":107:140   */\n      tag_407\n      jump\t// in\n    tag_406:\n        /* \"#utility.yul\":7:146   */\n      swap3\n      swap2\n      pop\n      pop\n      jump\t// out\n        /* \"#utility.yul\":152:291   */\n    tag_408:\n        /* \"#utility.yul\":198:203   */\n      0x00\n        /* \"#utility.yul\":236:242   */\n      dup2\n        /* \"#utility.yul\":223:243   */\n      calldataload\n        /* \"#utility.yul\":214:243   */\n      swap1\n      pop\n        /* \"#utility.yul\":252:285   */\n      tag_410\n        /* \"#utility.yul\":279:284   */\n      dup2\n        /* \"#utility.yul\":252:285   */\n      tag_411\n      jump\t// in\n    tag_410:\n        /* \"#utility.yul\":152:291   */\n      swap3\n      swap2\n      pop\n      pop\n      jump\t// out\n        /* \"#utility.yul\":297:468   */\n    tag_412:\n        /* \"#utility.yul\":359:364   */\n      0x00\n        /* \"#utility.yul\":397:403   */\n      dup2\n        /* \"#utility.yul\":384:404   */\n      calldataload\n        /* \"#utility.yul\":375:404   */\n      swap1\n      pop\n        /* \"#utility.yul\":413:462   */\n      tag_414\n        /* \"#utility.yul\":456:461   */\n      dup2\n        /* \"#utility.yul\":413:462   */\n      tag_415\n      jump\t// in\n    tag_414:\n        /* \"#utility.yul\":297:468   */\n      swap3\n      swap2\n      pop\n      pop\n      jump\t// out\n        /* \"#utility.yul\":506:1092   */\n    tag_416:\n        /* \"#utility.yul\":583:588   */\n      0x00\n        /* \"#utility.yul\":627:631   */\n      0x40\n        /* \"#utility.yul\":615:624   */\n      dup3\n        /* \"#utility.yul\":610:613   */\n      dup5\n        /* \"#utility.yul\":606:625   */\n      sub\n        /* \"#utility.yul\":602:632   */\n      slt\n        /* \"#utility.yul\":599:716   */\n      iszero\n      tag_418\n      jumpi\n        /* \"#utility.yul\":635:714   */\n      tag_419\n      tag_420\n      jump\t// in\n    tag_419:\n        /* \"#utility.yul\":599:716   */\n    tag_418:\n        /* \"#utility.yul\":734:755   */\n      tag_421\n        /* \"#utility.yul\":750:754   */\n      0x40\n        /* \"#utility.yul\":734:755   */\n      tag_422\n      jump\t// in\n    tag_421:\n        /* \"#utility.yul\":725:755   */\n      swap1\n      pop\n        /* \"#utility.yul\":818:819   */\n      0x00\n        /* \"#utility.yul\":858:907   */\n      tag_423\n        /* \"#utility.yul\":903:906   */\n      dup5\n        /* \"#utility.yul\":894:900   */\n      dup3\n        /* \"#utility.yul\":883:892   */\n      dup6\n        /* \"#utility.yul\":879:901   */\n      add\n        /* \"#utility.yul\":858:907   */\n      tag_408\n      jump\t// in\n    tag_423:\n        /* \"#utility.yul\":851:855   */\n      0x00\n        /* \"#utility.yul\":844:849   */\n      dup4\n        /* \"#utility.yul\":840:856   */\n      add\n        /* \"#utility.yul\":833:908   */\n      mstore\n        /* \"#utility.yul\":765:919   */\n      pop\n        /* \"#utility.yul\":983:985   */\n      0x20\n        /* \"#utility.yul\":1024:1073   */\n      tag_424\n        /* \"#utility.yul\":1069:1072   */\n      dup5\n        /* \"#utility.yul\":1060:1066   */\n      dup3\n        /* \"#utility.yul\":1049:1058   */\n      dup6\n        /* \"#utility.yul\":1045:1067   */\n      add\n        /* \"#utility.yul\":1024:1073   */\n      tag_408\n      jump\t// in\n    tag_424:\n        /* \"#utility.yul\":1017:1021   */\n      0x20\n        /* \"#utility.yul\":1010:1015   */\n      dup4\n        /* \"#utility.yul\":1006:1022   */\n      add\n        /* \"#utility.yul\":999:1074   */\n      mstore\n        /* \"#utility.yul\":929:1085   */\n      pop\n        /* \"#utility.yul\":506:1092   */\n      swap3\n      swap2\n      pop\n      pop\n      jump\t// out\n        /* \"#utility.yul\":1126:1697   */\n    tag_425:\n        /* \"#utility.yul\":1199:1204   */\n      0x00\n        /* \"#utility.yul\":1243:1247   */\n      0x40\n        /* \"#utility.yul\":1231:1240   */\n      dup3\n        /* \"#utility.yul\":1226:1229   */\n      dup5\n        /* \"#utility.yul\":1222:1241   */\n      sub\n        /* \"#utility.yul\":1218:1248   */\n      slt\n        /* \"#utility.yul\":1215:1332   */\n      iszero\n      tag_427\n      jumpi\n        /* \"#utility.yul\":1251:1330   */\n      tag_428\n      tag_420\n      jump\t// in\n    tag_428:\n        /* \"#utility.yul\":1215:1332   */\n    tag_427:\n        /* \"#utility.yul\":1350:1371   */\n      tag_429\n        /* \"#utility.yul\":1366:1370   */\n      0x40\n        /* \"#utility.yul\":1350:1371   */\n      tag_422\n      jump\t// in\n    tag_429:\n        /* \"#utility.yul\":1341:1371   */\n      swap1\n      pop\n        /* \"#utility.yul\":1430:1431   */\n      0x00\n        /* \"#utility.yul\":1470:1519   */\n      tag_430\n        /* \"#utility.yul\":1515:1518   */\n      dup5\n        /* \"#utility.yul\":1506:1512   */\n      dup3\n        /* \"#utility.yul\":1495:1504   */\n      dup6\n        /* \"#utility.yul\":1491:1513   */\n      add\n        /* \"#utility.yul\":1470:1519   */\n      tag_408\n      jump\t// in\n    tag_430:\n        /* \"#utility.yul\":1463:1467   */\n      0x00\n        /* \"#utility.yul\":1456:1461   */\n      dup4\n        /* \"#utility.yul\":1452:1468   */\n      add\n        /* \"#utility.yul\":1445:1520   */\n      mstore\n        /* \"#utility.yul\":1381:1531   */\n      pop\n        /* \"#utility.yul\":1588:1590   */\n      0x20\n        /* \"#utility.yul\":1629:1678   */\n      tag_431\n        /* \"#utility.yul\":1674:1677   */\n      dup5\n        /* \"#utility.yul\":1665:1671   */\n      dup3\n        /* \"#utility.yul\":1654:1663   */\n      dup6\n        /* \"#utility.yul\":1650:1672   */\n      add\n        /* \"#utility.yul\":1629:1678   */\n      tag_408\n      jump\t// in\n    tag_431:\n        /* \"#utility.yul\":1622:1626   */\n      0x20\n        /* \"#utility.yul\":1615:1620   */\n      dup4\n        /* \"#utility.yul\":1611:1627   */\n      add\n        /* \"#utility.yul\":1604:1679   */\n      mstore\n        /* \"#utility.yul\":1541:1690   */\n      pop\n        /* \"#utility.yul\":1126:1697   */\n      swap3\n      swap2\n      pop\n      pop\n      jump\t// out\n        /* \"#utility.yul\":1703:1842   */\n    tag_432:\n        /* \"#utility.yul\":1749:1754   */\n      0x00\n        /* \"#utility.yul\":1787:1793   */\n      dup2\n        /* \"#utility.yul\":1774:1794   */\n      calldataload\n        /* \"#utility.yul\":1765:1794   */\n      swap1\n      pop\n        /* \"#utility.yul\":1803:1836   */\n      tag_434\n        /* \"#utility.yul\":1830:1835   */\n      dup2\n        /* \"#utility.yul\":1803:1836   */\n      tag_435\n      jump\t// in\n    tag_434:\n        /* \"#utility.yul\":1703:1842   */\n      swap3\n      swap2\n      pop\n      pop\n      jump\t// out\n        /* \"#utility.yul\":1848:2177   */\n    tag_34:\n        /* \"#utility.yul\":1907:1913   */\n      0x00\n        /* \"#utility.yul\":1956:1958   */\n      0x20\n        /* \"#utility.yul\":1944:1953   */\n      dup3\n        /* \"#utility.yul\":1935:1942   */\n      dup5\n        /* \"#utility.yul\":1931:1954   */\n      sub\n        /* \"#utility.yul\":1927:1959   */\n      slt\n        /* \"#utility.yul\":1924:2043   */\n      iszero\n      tag_437\n      jumpi\n        /* \"#utility.yul\":1962:2041   */\n      tag_438\n      tag_439\n      jump\t// in\n    tag_438:\n        /* \"#utility.yul\":1924:2043   */\n    tag_437:\n        /* \"#utility.yul\":2082:2083   */\n      0x00\n        /* \"#utility.yul\":2107:2160   */\n      tag_440\n        /* \"#utility.yul\":2152:2159   */\n      dup5\n        /* \"#utility.yul\":2143:2149   */\n      dup3\n        /* \"#utility.yul\":2132:2141   */\n      dup6\n        /* \"#utility.yul\":2128:2150   */\n      add\n        /* \"#utility.yul\":2107:2160   */\n      tag_404\n      jump\t// in\n    tag_440:\n        /* \"#utility.yul\":2097:2160   */\n      swap2\n      pop\n        /* \"#utility.yul\":2053:2170   */\n      pop\n        /* \"#utility.yul\":1848:2177   */\n      swap3\n      swap2\n      pop\n      pop\n      jump\t// out\n        /* \"#utility.yul\":2183:2512   */\n    tag_144:\n        /* \"#utility.yul\":2242:2248   */\n      0x00\n        /* \"#utility.yul\":2291:2293   */\n      0x20\n        /* \"#utility.yul\":2279:2288   */\n      dup3\n        /* \"#utility.yul\":2270:2277   */\n      dup5\n        /* \"#utility.yul\":2266:2289   */\n      sub\n        /* \"#utility.yul\":2262:2294   */\n      slt\n        /* \"#utility.yul\":2259:2378   */\n      iszero\n      tag_442\n      jumpi\n        /* \"#utility.yul\":2297:2376   */\n      tag_443\n      tag_439\n      jump\t// in\n    tag_443:\n        /* \"#utility.yul\":2259:2378   */\n    tag_442:\n        /* \"#utility.yul\":2417:2418   */\n      0x00\n        /* \"#utility.yul\":2442:2495   */\n      tag_444\n        /* \"#utility.yul\":2487:2494   */\n      dup5\n        /* \"#utility.yul\":2478:2484   */\n      dup3\n        /* \"#utility.yul\":2467:2476   */\n      dup6\n        /* \"#utility.yul\":2463:2485   */\n      add\n        /* \"#utility.yul\":2442:2495   */\n      tag_408\n      jump\t// in\n    tag_444:\n        /* \"#utility.yul\":2432:2495   */\n      swap2\n      pop\n        /* \"#utility.yul\":2388:2505   */\n      pop\n        /* \"#utility.yul\":2183:2512   */\n      swap3\n      swap2\n      pop\n      pop\n      jump\t// out\n        /* \"#utility.yul\":2518:2992   */\n    tag_110:\n        /* \"#utility.yul\":2586:2592   */\n      0x00\n        /* \"#utility.yul\":2594:2600   */\n      dup1\n        /* \"#utility.yul\":2643:2645   */\n      0x40\n        /* \"#utility.yul\":2631:2640   */\n      dup4\n        /* \"#utility.yul\":2622:2629   */\n      dup6\n        /* \"#utility.yul\":2618:2641   */\n      sub\n        /* \"#utility.yul\":2614:2646   */\n      slt\n        /* \"#utility.yul\":2611:2730   */\n      iszero\n      tag_446\n      jumpi\n        /* \"#utility.yul\":2649:2728   */\n      tag_447\n      tag_439\n      jump\t// in\n    tag_447:\n        /* \"#utility.yul\":2611:2730   */\n    tag_446:\n        /* \"#utility.yul\":2769:2770   */\n      0x00\n        /* \"#utility.yul\":2794:2847   */\n      tag_448\n        /* \"#utility.yul\":2839:2846   */\n      dup6\n        /* \"#utility.yul\":2830:2836   */\n      dup3\n        /* \"#utility.yul\":2819:2828   */\n      dup7\n        /* \"#utility.yul\":2815:2837   */\n      add\n        /* \"#utility.yul\":2794:2847   */\n      tag_408\n      jump\t// in\n    tag_448:\n        /* \"#utility.yul\":2784:2847   */\n      swap3\n      pop\n        /* \"#utility.yul\":2740:2857   */\n      pop\n        /* \"#utility.yul\":2896:2898   */\n      0x20\n        /* \"#utility.yul\":2922:2975   */\n      tag_449\n        /* \"#utility.yul\":2967:2974   */\n      dup6\n        /* \"#utility.yul\":2958:2964   */\n      dup3\n        /* \"#utility.yul\":2947:2956   */\n      dup7\n        /* \"#utility.yul\":2943:2965   */\n      add\n        /* \"#utility.yul\":2922:2975   */\n      tag_404\n      jump\t// in\n    tag_449:\n        /* \"#utility.yul\":2912:2975   */\n      swap2\n      pop\n        /* \"#utility.yul\":2867:2985   */\n      pop\n        /* \"#utility.yul\":2518:2992   */\n      swap3\n      pop\n      swap3\n      swap1\n      pop\n      jump\t// out\n        /* \"#utility.yul\":2998:4289   */\n    tag_65:\n        /* \"#utility.yul\":3155:3161   */\n      0x00\n        /* \"#utility.yul\":3163:3169   */\n      dup1\n        /* \"#utility.yul\":3171:3177   */\n      0x00\n        /* \"#utility.yul\":3179:3185   */\n      dup1\n        /* \"#utility.yul\":3187:3193   */\n      0x00\n        /* \"#utility.yul\":3195:3201   */\n      dup1\n        /* \"#utility.yul\":3203:3209   */\n      0x00\n        /* \"#utility.yul\":3252:3255   */\n      0x0100\n        /* \"#utility.yul\":3240:3249   */\n      dup9\n        /* \"#utility.yul\":3231:3238   */\n      dup11\n        /* \"#utility.yul\":3227:3250   */\n      sub\n        /* \"#utility.yul\":3223:3256   */\n      slt\n        /* \"#utility.yul\":3220:3340   */\n      iszero\n      tag_451\n      jumpi\n        /* \"#utility.yul\":3259:3338   */\n      tag_452\n      tag_439\n      jump\t// in\n    tag_452:\n        /* \"#utility.yul\":3220:3340   */\n    tag_451:\n        /* \"#utility.yul\":3379:3380   */\n      0x00\n        /* \"#utility.yul\":3404:3457   */\n      tag_453\n        /* \"#utility.yul\":3449:3456   */\n      dup11\n        /* \"#utility.yul\":3440:3446   */\n      dup3\n        /* \"#utility.yul\":3429:3438   */\n      dup12\n        /* \"#utility.yul\":3425:3447   */\n      add\n        /* \"#utility.yul\":3404:3457   */\n      tag_408\n      jump\t// in\n    tag_453:\n        /* \"#utility.yul\":3394:3457   */\n      swap8\n      pop\n        /* \"#utility.yul\":3350:3467   */\n      pop\n        /* \"#utility.yul\":3506:3508   */\n      0x20\n        /* \"#utility.yul\":3532:3585   */\n      tag_454\n        /* \"#utility.yul\":3577:3584   */\n      dup11\n        /* \"#utility.yul\":3568:3574   */\n      dup3\n        /* \"#utility.yul\":3557:3566   */\n      dup12\n        /* \"#utility.yul\":3553:3575   */\n      add\n        /* \"#utility.yul\":3532:3585   */\n      tag_408\n      jump\t// in\n    tag_454:\n        /* \"#utility.yul\":3522:3585   */\n      swap7\n      pop\n        /* \"#utility.yul\":3477:3595   */\n      pop\n        /* \"#utility.yul\":3634:3636   */\n      0x40\n        /* \"#utility.yul\":3660:3729   */\n      tag_455\n        /* \"#utility.yul\":3721:3728   */\n      dup11\n        /* \"#utility.yul\":3712:3718   */\n      dup3\n        /* \"#utility.yul\":3701:3710   */\n      dup12\n        /* \"#utility.yul\":3697:3719   */\n      add\n        /* \"#utility.yul\":3660:3729   */\n      tag_412\n      jump\t// in\n    tag_455:\n        /* \"#utility.yul\":3650:3729   */\n      swap6\n      pop\n        /* \"#utility.yul\":3605:3739   */\n      pop\n        /* \"#utility.yul\":3778:3780   */\n      0x60\n        /* \"#utility.yul\":3804:3885   */\n      tag_456\n        /* \"#utility.yul\":3877:3884   */\n      dup11\n        /* \"#utility.yul\":3868:3874   */\n      dup3\n        /* \"#utility.yul\":3857:3866   */\n      dup12\n        /* \"#utility.yul\":3853:3875   */\n      add\n        /* \"#utility.yul\":3804:3885   */\n      tag_416\n      jump\t// in\n    tag_456:\n        /* \"#utility.yul\":3794:3885   */\n      swap5\n      pop\n        /* \"#utility.yul\":3749:3895   */\n      pop\n        /* \"#utility.yul\":3934:3937   */\n      0xa0\n        /* \"#utility.yul\":3961:4014   */\n      tag_457\n        /* \"#utility.yul\":4006:4013   */\n      dup11\n        /* \"#utility.yul\":3997:4003   */\n      dup3\n        /* \"#utility.yul\":3986:3995   */\n      dup12\n        /* \"#utility.yul\":3982:4004   */\n      add\n        /* \"#utility.yul\":3961:4014   */\n      tag_432\n      jump\t// in\n    tag_457:\n        /* \"#utility.yul\":3951:4014   */\n      swap4\n      pop\n        /* \"#utility.yul\":3905:4024   */\n      pop\n        /* \"#utility.yul\":4063:4066   */\n      0xc0\n        /* \"#utility.yul\":4090:4143   */\n      tag_458\n        /* \"#utility.yul\":4135:4142   */\n      dup11\n        /* \"#utility.yul\":4126:4132   */\n      dup3\n        /* \"#utility.yul\":4115:4124   */\n      dup12\n        /* \"#utility.yul\":4111:4133   */\n      add\n        /* \"#utility.yul\":4090:4143   */\n      tag_408\n      jump\t// in\n    tag_458:\n        /* \"#utility.yul\":4080:4143   */\n      swap3\n      pop\n        /* \"#utility.yul\":4034:4153   */\n      pop\n        /* \"#utility.yul\":4192:4195   */\n      0xe0\n        /* \"#utility.yul\":4219:4272   */\n      tag_459\n        /* \"#utility.yul\":4264:4271   */\n      dup11\n        /* \"#utility.yul\":4255:4261   */\n      dup3\n        /* \"#utility.yul\":4244:4253   */\n      dup12\n        /* \"#utility.yul\":4240:4262   */\n      add\n        /* \"#utility.yul\":4219:4272   */\n      tag_432\n      jump\t// in\n    tag_459:\n        /* \"#utility.yul\":4209:4272   */\n      swap2\n      pop\n        /* \"#utility.yul\":4163:4282   */\n      pop\n        /* \"#utility.yul\":2998:4289   */\n      swap3\n      swap6\n      swap9\n      swap2\n      swap5\n      swap8\n      pop\n      swap3\n      swap6\n      pop\n      jump\t// out\n        /* \"#utility.yul\":4295:4769   */\n    tag_103:\n        /* \"#utility.yul\":4363:4369   */\n      0x00\n        /* \"#utility.yul\":4371:4377   */\n      dup1\n        /* \"#utility.yul\":4420:4422   */\n      0x40\n        /* \"#utility.yul\":4408:4417   */\n      dup4\n        /* \"#utility.yul\":4399:4406   */\n      dup6\n        /* \"#utility.yul\":4395:4418   */\n      sub\n        /* \"#utility.yul\":4391:4423   */\n      slt\n        /* \"#utility.yul\":4388:4507   */\n      iszero\n      tag_461\n      jumpi\n        /* \"#utility.yul\":4426:4505   */\n      tag_462\n      tag_439\n      jump\t// in\n    tag_462:\n        /* \"#utility.yul\":4388:4507   */\n    tag_461:\n        /* \"#utility.yul\":4546:4547   */\n      0x00\n        /* \"#utility.yul\":4571:4624   */\n      tag_463\n        /* \"#utility.yul\":4616:4623   */\n      dup6\n        /* \"#utility.yul\":4607:4613   */\n      dup3\n        /* \"#utility.yul\":4596:4605   */\n      dup7\n        /* \"#utility.yul\":4592:4614   */\n      add\n        /* \"#utility.yul\":4571:4624   */\n      tag_408\n      jump\t// in\n    tag_463:\n        /* \"#utility.yul\":4561:4624   */\n      swap3\n      pop\n        /* \"#utility.yul\":4517:4634   */\n      pop\n        /* \"#utility.yul\":4673:4675   */\n      0x20\n        /* \"#utility.yul\":4699:4752   */\n      tag_464\n        /* \"#utility.yul\":4744:4751   */\n      dup6\n        /* \"#utility.yul\":4735:4741   */\n      dup3\n        /* \"#utility.yul\":4724:4733   */\n      dup7\n        /* \"#utility.yul\":4720:4742   */\n      add\n        /* \"#utility.yul\":4699:4752   */\n      tag_432\n      jump\t// in\n    tag_464:\n        /* \"#utility.yul\":4689:4752   */\n      swap2\n      pop\n        /* \"#utility.yul\":4644:4762   */\n      pop\n        /* \"#utility.yul\":4295:4769   */\n      swap3\n      pop\n      swap3\n      swap1\n      pop\n      jump\t// out\n        /* \"#utility.yul\":4775:5104   */\n    tag_58:\n        /* \"#utility.yul\":4834:4840   */\n      0x00\n        /* \"#utility.yul\":4883:4885   */\n      0x20\n        /* \"#utility.yul\":4871:4880   */\n      dup3\n        /* \"#utility.yul\":4862:4869   */\n      dup5\n        /* \"#utility.yul\":4858:4881   */\n      sub\n        /* \"#utility.yul\":4854:4886   */\n      slt\n        /* \"#utility.yul\":4851:4970   */\n      iszero\n      tag_466\n      jumpi\n        /* \"#utility.yul\":4889:4968   */\n      tag_467\n      tag_439\n      jump\t// in\n    tag_467:\n        /* \"#utility.yul\":4851:4970   */\n    tag_466:\n        /* \"#utility.yul\":5009:5010   */\n      0x00\n        /* \"#utility.yul\":5034:5087   */\n      tag_468\n        /* \"#utility.yul\":5079:5086   */\n      dup5\n        /* \"#utility.yul\":5070:5076   */\n      dup3\n        /* \"#utility.yul\":5059:5068   */\n      dup6\n        /* \"#utility.yul\":5055:5077   */\n      add\n        /* \"#utility.yul\":5034:5087   */\n      tag_432\n      jump\t// in\n    tag_468:\n        /* \"#utility.yul\":5024:5087   */\n      swap2\n      pop\n        /* \"#utility.yul\":4980:5097   */\n      pop\n        /* \"#utility.yul\":4775:5104   */\n      swap3\n      swap2\n      pop\n      pop\n      jump\t// out\n        /* \"#utility.yul\":5110:5778   */\n    tag_125:\n        /* \"#utility.yul\":5211:5217   */\n      0x00\n        /* \"#utility.yul\":5219:5225   */\n      dup1\n        /* \"#utility.yul\":5227:5233   */\n      0x00\n        /* \"#utility.yul\":5276:5279   */\n      0x80\n        /* \"#utility.yul\":5264:5273   */\n      dup5\n        /* \"#utility.yul\":5255:5262   */\n      dup7\n        /* \"#utility.yul\":5251:5274   */\n      sub\n        /* \"#utility.yul\":5247:5280   */\n      slt\n        /* \"#utility.yul\":5244:5364   */\n      iszero\n      tag_470\n      jumpi\n        /* \"#utility.yul\":5283:5362   */\n      tag_471\n      tag_439\n      jump\t// in\n    tag_471:\n        /* \"#utility.yul\":5244:5364   */\n    tag_470:\n        /* \"#utility.yul\":5403:5404   */\n      0x00\n        /* \"#utility.yul\":5428:5481   */\n      tag_472\n        /* \"#utility.yul\":5473:5480   */\n      dup7\n        /* \"#utility.yul\":5464:5470   */\n      dup3\n        /* \"#utility.yul\":5453:5462   */\n      dup8\n        /* \"#utility.yul\":5449:5471   */\n      add\n        /* \"#utility.yul\":5428:5481   */\n      tag_432\n      jump\t// in\n    tag_472:\n        /* \"#utility.yul\":5418:5481   */\n      swap4\n      pop\n        /* \"#utility.yul\":5374:5491   */\n      pop\n        /* \"#utility.yul\":5530:5532   */\n      0x20\n        /* \"#utility.yul\":5556:5633   */\n      tag_473\n        /* \"#utility.yul\":5625:5632   */\n      dup7\n        /* \"#utility.yul\":5616:5622   */\n      dup3\n        /* \"#utility.yul\":5605:5614   */\n      dup8\n        /* \"#utility.yul\":5601:5623   */\n      add\n        /* \"#utility.yul\":5556:5633   */\n      tag_425\n      jump\t// in\n    tag_473:\n        /* \"#utility.yul\":5546:5633   */\n      swap3\n      pop\n        /* \"#utility.yul\":5501:5643   */\n      pop\n        /* \"#utility.yul\":5682:5684   */\n      0x60\n        /* \"#utility.yul\":5708:5761   */\n      tag_474\n        /* \"#utility.yul\":5753:5760   */\n      dup7\n        /* \"#utility.yul\":5744:5750   */\n      dup3\n        /* \"#utility.yul\":5733:5742   */\n      dup8\n        /* \"#utility.yul\":5729:5751   */\n      add\n        /* \"#utility.yul\":5708:5761   */\n      tag_432\n      jump\t// in\n    tag_474:\n        /* \"#utility.yul\":5698:5761   */\n      swap2\n      pop\n        /* \"#utility.yul\":5653:5771   */\n      pop\n        /* \"#utility.yul\":5110:5778   */\n      swap3\n      pop\n      swap3\n      pop\n      swap3\n      jump\t// out\n        /* \"#utility.yul\":5784:6258   */\n    tag_83:\n        /* \"#utility.yul\":5852:5858   */\n      0x00\n        /* \"#utility.yul\":5860:5866   */\n      dup1\n        /* \"#utility.yul\":5909:5911   */\n      0x40\n        /* \"#utility.yul\":5897:5906   */\n      dup4\n        /* \"#utility.yul\":5888:5895   */\n      dup6\n        /* \"#utility.yul\":5884:5907   */\n      sub\n        /* \"#utility.yul\":5880:5912   */\n      slt\n        /* \"#utility.yul\":5877:5996   */\n      iszero\n      tag_476\n      jumpi\n        /* \"#utility.yul\":5915:5994   */\n      tag_477\n      tag_439\n      jump\t// in\n    tag_477:\n        /* \"#utility.yul\":5877:5996   */\n    tag_476:\n        /* \"#utility.yul\":6035:6036   */\n      0x00\n        /* \"#utility.yul\":6060:6113   */\n      tag_478\n        /* \"#utility.yul\":6105:6112   */\n      dup6\n        /* \"#utility.yul\":6096:6102   */\n      dup3\n        /* \"#utility.yul\":6085:6094   */\n      dup7\n        /* \"#utility.yul\":6081:6103   */\n      add\n        /* \"#utility.yul\":6060:6113   */\n      tag_432\n      jump\t// in\n    tag_478:\n        /* \"#utility.yul\":6050:6113   */\n      swap3\n      pop\n        /* \"#utility.yul\":6006:6123   */\n      pop\n        /* \"#utility.yul\":6162:6164   */\n      0x20\n        /* \"#utility.yul\":6188:6241   */\n      tag_479\n        /* \"#utility.yul\":6233:6240   */\n      dup6\n        /* \"#utility.yul\":6224:6230   */\n      dup3\n        /* \"#utility.yul\":6213:6222   */\n      dup7\n        /* \"#utility.yul\":6209:6231   */\n      add\n        /* \"#utility.yul\":6188:6241   */\n      tag_432\n      jump\t// in\n    tag_479:\n        /* \"#utility.yul\":6178:6241   */\n      swap2\n      pop\n        /* \"#utility.yul\":6133:6251   */\n      pop\n        /* \"#utility.yul\":5784:6258   */\n      swap3\n      pop\n      swap3\n      swap1\n      pop\n      jump\t// out\n        /* \"#utility.yul\":6264:6883   */\n    tag_52:\n        /* \"#utility.yul\":6341:6347   */\n      0x00\n        /* \"#utility.yul\":6349:6355   */\n      dup1\n        /* \"#utility.yul\":6357:6363   */\n      0x00\n        /* \"#utility.yul\":6406:6408   */\n      0x60\n        /* \"#utility.yul\":6394:6403   */\n      dup5\n        /* \"#utility.yul\":6385:6392   */\n      dup7\n        /* \"#utility.yul\":6381:6404   */\n      sub\n        /* \"#utility.yul\":6377:6409   */\n      slt\n        /* \"#utility.yul\":6374:6493   */\n      iszero\n      tag_481\n      jumpi\n        /* \"#utility.yul\":6412:6491   */\n      tag_482\n      tag_439\n      jump\t// in\n    tag_482:\n        /* \"#utility.yul\":6374:6493   */\n    tag_481:\n        /* \"#utility.yul\":6532:6533   */\n      0x00\n        /* \"#utility.yul\":6557:6610   */\n      tag_483\n        /* \"#utility.yul\":6602:6609   */\n      dup7\n        /* \"#utility.yul\":6593:6599   */\n      dup3\n        /* \"#utility.yul\":6582:6591   */\n      dup8\n        /* \"#utility.yul\":6578:6600   */\n      add\n        /* \"#utility.yul\":6557:6610   */\n      tag_432\n      jump\t// in\n    tag_483:\n        /* \"#utility.yul\":6547:6610   */\n      swap4\n      pop\n        /* \"#utility.yul\":6503:6620   */\n      pop\n        /* \"#utility.yul\":6659:6661   */\n      0x20\n        /* \"#utility.yul\":6685:6738   */\n      tag_484\n        /* \"#utility.yul\":6730:6737   */\n      dup7\n        /* \"#utility.yul\":6721:6727   */\n      dup3\n        /* \"#utility.yul\":6710:6719   */\n      dup8\n        /* \"#utility.yul\":6706:6728   */\n      add\n        /* \"#utility.yul\":6685:6738   */\n      tag_432\n      jump\t// in\n    tag_484:\n        /* \"#utility.yul\":6675:6738   */\n      swap3\n      pop\n        /* \"#utility.yul\":6630:6748   */\n      pop\n        /* \"#utility.yul\":6787:6789   */\n      0x40\n        /* \"#utility.yul\":6813:6866   */\n      tag_485\n        /* \"#utility.yul\":6858:6865   */\n      dup7\n        /* \"#utility.yul\":6849:6855   */\n      dup3\n        /* \"#utility.yul\":6838:6847   */\n      dup8\n        /* \"#utility.yul\":6834:6856   */\n      add\n        /* \"#utility.yul\":6813:6866   */\n      tag_432\n      jump\t// in\n    tag_485:\n        /* \"#utility.yul\":6803:6866   */\n      swap2\n      pop\n        /* \"#utility.yul\":6758:6876   */\n      pop\n        /* \"#utility.yul\":6264:6883   */\n      swap3\n      pop\n      swap3\n      pop\n      swap3\n      jump\t// out\n        /* \"#utility.yul\":6889:7007   */\n    tag_486:\n        /* \"#utility.yul\":6976:7000   */\n      tag_488\n        /* \"#utility.yul\":6994:6999   */\n      dup2\n        /* \"#utility.yul\":6976:7000   */\n      tag_489\n      jump\t// in\n    tag_488:\n        /* \"#utility.yul\":6971:6974   */\n      dup3\n        /* \"#utility.yul\":6964:7001   */\n      mstore\n        /* \"#utility.yul\":6889:7007   */\n      pop\n      pop\n      jump\t// out\n        /* \"#utility.yul\":7013:7122   */\n    tag_490:\n        /* \"#utility.yul\":7094:7115   */\n      tag_492\n        /* \"#utility.yul\":7109:7114   */\n      dup2\n        /* \"#utility.yul\":7094:7115   */\n      tag_493\n      jump\t// in\n    tag_492:\n        /* \"#utility.yul\":7089:7092   */\n      dup3\n        /* \"#utility.yul\":7082:7116   */\n      mstore\n        /* \"#utility.yul\":7013:7122   */\n      pop\n      pop\n      jump\t// out\n        /* \"#utility.yul\":7128:7236   */\n    tag_494:\n        /* \"#utility.yul\":7205:7229   */\n      tag_496\n        /* \"#utility.yul\":7223:7228   */\n      dup2\n        /* \"#utility.yul\":7205:7229   */\n      tag_497\n      jump\t// in\n    tag_496:\n        /* \"#utility.yul\":7200:7203   */\n      dup3\n        /* \"#utility.yul\":7193:7230   */\n      mstore\n        /* \"#utility.yul\":7128:7236   */\n      pop\n      pop\n      jump\t// out\n        /* \"#utility.yul\":7242:7360   */\n    tag_498:\n        /* \"#utility.yul\":7329:7353   */\n      tag_500\n        /* \"#utility.yul\":7347:7352   */\n      dup2\n        /* \"#utility.yul\":7329:7353   */\n      tag_497\n      jump\t// in\n    tag_500:\n        /* \"#utility.yul\":7324:7327   */\n      dup3\n        /* \"#utility.yul\":7317:7354   */\n      mstore\n        /* \"#utility.yul\":7242:7360   */\n      pop\n      pop\n      jump\t// out\n        /* \"#utility.yul\":7366:7531   */\n    tag_501:\n        /* \"#utility.yul\":7470:7524   */\n      tag_503\n        /* \"#utility.yul\":7518:7523   */\n      dup2\n        /* \"#utility.yul\":7470:7524   */\n      tag_504\n      jump\t// in\n    tag_503:\n        /* \"#utility.yul\":7465:7468   */\n      dup3\n        /* \"#utility.yul\":7458:7525   */\n      mstore\n        /* \"#utility.yul\":7366:7531   */\n      pop\n      pop\n      jump\t// out\n        /* \"#utility.yul\":7537:7690   */\n    tag_505:\n        /* \"#utility.yul\":7630:7683   */\n      tag_507\n        /* \"#utility.yul\":7677:7682   */\n      dup2\n        /* \"#utility.yul\":7630:7683   */\n      tag_508\n      jump\t// in\n    tag_507:\n        /* \"#utility.yul\":7625:7628   */\n      dup3\n        /* \"#utility.yul\":7618:7684   */\n      mstore\n        /* \"#utility.yul\":7537:7690   */\n      pop\n      pop\n      jump\t// out\n        /* \"#utility.yul\":7696:7859   */\n    tag_509:\n        /* \"#utility.yul\":7799:7852   */\n      tag_511\n        /* \"#utility.yul\":7846:7851   */\n      dup2\n        /* \"#utility.yul\":7799:7852   */\n      tag_508\n      jump\t// in\n    tag_511:\n        /* \"#utility.yul\":7794:7797   */\n      dup3\n        /* \"#utility.yul\":7787:7853   */\n      mstore\n        /* \"#utility.yul\":7696:7859   */\n      pop\n      pop\n      jump\t// out\n        /* \"#utility.yul\":7865:8014   */\n    tag_512:\n        /* \"#utility.yul\":7956:8007   */\n      tag_514\n        /* \"#utility.yul\":8001:8006   */\n      dup2\n        /* \"#utility.yul\":7956:8007   */\n      tag_515\n      jump\t// in\n    tag_514:\n        /* \"#utility.yul\":7951:7954   */\n      dup3\n        /* \"#utility.yul\":7944:8008   */\n      mstore\n        /* \"#utility.yul\":7865:8014   */\n      pop\n      pop\n      jump\t// out\n        /* \"#utility.yul\":8020:8179   */\n    tag_516:\n        /* \"#utility.yul\":8121:8172   */\n      tag_518\n        /* \"#utility.yul\":8166:8171   */\n      dup2\n        /* \"#utility.yul\":8121:8172   */\n      tag_515\n      jump\t// in\n    tag_518:\n        /* \"#utility.yul\":8116:8119   */\n      dup3\n        /* \"#utility.yul\":8109:8173   */\n      mstore\n        /* \"#utility.yul\":8020:8179   */\n      pop\n      pop\n      jump\t// out\n        /* \"#utility.yul\":8185:8551   */\n    tag_519:\n        /* \"#utility.yul\":8327:8330   */\n      0x00\n        /* \"#utility.yul\":8348:8415   */\n      tag_521\n        /* \"#utility.yul\":8412:8414   */\n      0x2e\n        /* \"#utility.yul\":8407:8410   */\n      dup4\n        /* \"#utility.yul\":8348:8415   */\n      tag_522\n      jump\t// in\n    tag_521:\n        /* \"#utility.yul\":8341:8415   */\n      swap2\n      pop\n        /* \"#utility.yul\":8424:8517   */\n      tag_523\n        /* \"#utility.yul\":8513:8516   */\n      dup3\n        /* \"#utility.yul\":8424:8517   */\n      tag_524\n      jump\t// in\n    tag_523:\n        /* \"#utility.yul\":8542:8544   */\n      0x40\n        /* \"#utility.yul\":8537:8540   */\n      dup3\n        /* \"#utility.yul\":8533:8545   */\n      add\n        /* \"#utility.yul\":8526:8545   */\n      swap1\n      pop\n        /* \"#utility.yul\":8185:8551   */\n      swap2\n      swap1\n      pop\n      jump\t// out\n        /* \"#utility.yul\":8557:8923   */\n    tag_525:\n        /* \"#utility.yul\":8699:8702   */\n      0x00\n        /* \"#utility.yul\":8720:8787   */\n      tag_527\n        /* \"#utility.yul\":8784:8786   */\n      0x2d\n        /* \"#utility.yul\":8779:8782   */\n      dup4\n        /* \"#utility.yul\":8720:8787   */\n      tag_522\n      jump\t// in\n    tag_527:\n        /* \"#utility.yul\":8713:8787   */\n      swap2\n      pop\n        /* \"#utility.yul\":8796:8889   */\n      tag_528\n        /* \"#utility.yul\":8885:8888   */\n      dup3\n        /* \"#utility.yul\":8796:8889   */\n      tag_529\n      jump\t// in\n    tag_528:\n        /* \"#utility.yul\":8914:8916   */\n      0x40\n        /* \"#utility.yul\":8909:8912   */\n      dup3\n        /* \"#utility.yul\":8905:8917   */\n      add\n        /* \"#utility.yul\":8898:8917   */\n      swap1\n      pop\n        /* \"#utility.yul\":8557:8923   */\n      swap2\n      swap1\n      pop\n      jump\t// out\n        /* \"#utility.yul\":8929:9295   */\n    tag_530:\n        /* \"#utility.yul\":9071:9074   */\n      0x00\n        /* \"#utility.yul\":9092:9159   */\n      tag_532\n        /* \"#utility.yul\":9156:9158   */\n      0x40\n        /* \"#utility.yul\":9151:9154   */\n      dup4\n        /* \"#utility.yul\":9092:9159   */\n      tag_522\n      jump\t// in\n    tag_532:\n        /* \"#utility.yul\":9085:9159   */\n      swap2\n      pop\n        /* \"#utility.yul\":9168:9261   */\n      tag_533\n        /* \"#utility.yul\":9257:9260   */\n      dup3\n        /* \"#utility.yul\":9168:9261   */\n      tag_534\n      jump\t// in\n    tag_533:\n        /* \"#utility.yul\":9286:9288   */\n      0x40\n        /* \"#utility.yul\":9281:9284   */\n      dup3\n        /* \"#utility.yul\":9277:9289   */\n      add\n        /* \"#utility.yul\":9270:9289   */\n      swap1\n      pop\n        /* \"#utility.yul\":8929:9295   */\n      swap2\n      swap1\n      pop\n      jump\t// out\n        /* \"#utility.yul\":9301:9667   */\n    tag_535:\n        /* \"#utility.yul\":9443:9446   */\n      0x00\n        /* \"#utility.yul\":9464:9531   */\n      tag_537\n        /* \"#utility.yul\":9528:9530   */\n      0x15\n        /* \"#utility.yul\":9523:9526   */\n      dup4\n        /* \"#utility.yul\":9464:9531   */\n      tag_522\n      jump\t// in\n    tag_537:\n        /* \"#utility.yul\":9457:9531   */\n      swap2\n      pop\n        /* \"#utility.yul\":9540:9633   */\n      tag_538\n        /* \"#utility.yul\":9629:9632   */\n      dup3\n        /* \"#utility.yul\":9540:9633   */\n      tag_539\n      jump\t// in\n    tag_538:\n        /* \"#utility.yul\":9658:9660   */\n      0x20\n        /* \"#utility.yul\":9653:9656   */\n      dup3\n        /* \"#utility.yul\":9649:9661   */\n      add\n        /* \"#utility.yul\":9642:9661   */\n      swap1\n      pop\n        /* \"#utility.yul\":9301:9667   */\n      swap2\n      swap1\n      pop\n      jump\t// out\n        /* \"#utility.yul\":9673:10039   */\n    tag_540:\n        /* \"#utility.yul\":9815:9818   */\n      0x00\n        /* \"#utility.yul\":9836:9903   */\n      tag_542\n        /* \"#utility.yul\":9900:9902   */\n      0x14\n        /* \"#utility.yul\":9895:9898   */\n      dup4\n        /* \"#utility.yul\":9836:9903   */\n      tag_522\n      jump\t// in\n    tag_542:\n        /* \"#utility.yul\":9829:9903   */\n      swap2\n      pop\n        /* \"#utility.yul\":9912:10005   */\n      tag_543\n        /* \"#utility.yul\":10001:10004   */\n      dup3\n        /* \"#utility.yul\":9912:10005   */\n      tag_544\n      jump\t// in\n    tag_543:\n        /* \"#utility.yul\":10030:10032   */\n      0x20\n        /* \"#utility.yul\":10025:10028   */\n      dup3\n        /* \"#utility.yul\":10021:10033   */\n      add\n        /* \"#utility.yul\":10014:10033   */\n      swap1\n      pop\n        /* \"#utility.yul\":9673:10039   */\n      swap2\n      swap1\n      pop\n      jump\t// out\n        /* \"#utility.yul\":10045:10411   */\n    tag_545:\n        /* \"#utility.yul\":10187:10190   */\n      0x00\n        /* \"#utility.yul\":10208:10275   */\n      tag_547\n        /* \"#utility.yul\":10272:10274   */\n      0x30\n        /* \"#utility.yul\":10267:10270   */\n      dup4\n        /* \"#utility.yul\":10208:10275   */\n      tag_522\n      jump\t// in\n    tag_547:\n        /* \"#utility.yul\":10201:10275   */\n      swap2\n      pop\n        /* \"#utility.yul\":10284:10377   */\n      tag_548\n        /* \"#utility.yul\":10373:10376   */\n      dup3\n        /* \"#utility.yul\":10284:10377   */\n      tag_549\n      jump\t// in\n    tag_548:\n        /* \"#utility.yul\":10402:10404   */\n      0x40\n        /* \"#utility.yul\":10397:10400   */\n      dup3\n        /* \"#utility.yul\":10393:10405   */\n      add\n        /* \"#utility.yul\":10386:10405   */\n      swap1\n      pop\n        /* \"#utility.yul\":10045:10411   */\n      swap2\n      swap1\n      pop\n      jump\t// out\n        /* \"#utility.yul\":10417:10783   */\n    tag_550:\n        /* \"#utility.yul\":10559:10562   */\n      0x00\n        /* \"#utility.yul\":10580:10647   */\n      tag_552\n        /* \"#utility.yul\":10644:10646   */\n      0x3e\n        /* \"#utility.yul\":10639:10642   */\n      dup4\n        /* \"#utility.yul\":10580:10647   */\n      tag_522\n      jump\t// in\n    tag_552:\n        /* \"#utility.yul\":10573:10647   */\n      swap2\n      pop\n        /* \"#utility.yul\":10656:10749   */\n      tag_553\n        /* \"#utility.yul\":10745:10748   */\n      dup3\n        /* \"#utility.yul\":10656:10749   */\n      tag_554\n      jump\t// in\n    tag_553:\n        /* \"#utility.yul\":10774:10776   */\n      0x40\n        /* \"#utility.yul\":10769:10772   */\n      dup3\n        /* \"#utility.yul\":10765:10777   */\n      add\n        /* \"#utility.yul\":10758:10777   */\n      swap1\n      pop\n        /* \"#utility.yul\":10417:10783   */\n      swap2\n      swap1\n      pop\n      jump\t// out\n        /* \"#utility.yul\":10789:11187   */\n    tag_555:\n        /* \"#utility.yul\":10948:10951   */\n      0x00\n        /* \"#utility.yul\":10969:11052   */\n      tag_557\n        /* \"#utility.yul\":11050:11051   */\n      0x00\n        /* \"#utility.yul\":11045:11048   */\n      dup4\n        /* \"#utility.yul\":10969:11052   */\n      tag_558\n      jump\t// in\n    tag_557:\n        /* \"#utility.yul\":10962:11052   */\n      swap2\n      pop\n        /* \"#utility.yul\":11061:11154   */\n      tag_559\n        /* \"#utility.yul\":11150:11153   */\n      dup3\n        /* \"#utility.yul\":11061:11154   */\n      tag_560\n      jump\t// in\n    tag_559:\n        /* \"#utility.yul\":11179:11180   */\n      0x00\n        /* \"#utility.yul\":11174:11177   */\n      dup3\n        /* \"#utility.yul\":11170:11181   */\n      add\n        /* \"#utility.yul\":11163:11181   */\n      swap1\n      pop\n        /* \"#utility.yul\":10789:11187   */\n      swap2\n      swap1\n      pop\n      jump\t// out\n        /* \"#utility.yul\":11193:11559   */\n    tag_561:\n        /* \"#utility.yul\":11335:11338   */\n      0x00\n        /* \"#utility.yul\":11356:11423   */\n      tag_563\n        /* \"#utility.yul\":11420:11422   */\n      0x16\n        /* \"#utility.yul\":11415:11418   */\n      dup4\n        /* \"#utility.yul\":11356:11423   */\n      tag_522\n      jump\t// in\n    tag_563:\n        /* \"#utility.yul\":11349:11423   */\n      swap2\n      pop\n        /* \"#utility.yul\":11432:11525   */\n      tag_564\n        /* \"#utility.yul\":11521:11524   */\n      dup3\n        /* \"#utility.yul\":11432:11525   */\n      tag_565\n      jump\t// in\n    tag_564:\n        /* \"#utility.yul\":11550:11552   */\n      0x20\n        /* \"#utility.yul\":11545:11548   */\n      dup3\n        /* \"#utility.yul\":11541:11553   */\n      add\n        /* \"#utility.yul\":11534:11553   */\n      swap1\n      pop\n        /* \"#utility.yul\":11193:11559   */\n      swap2\n      swap1\n      pop\n      jump\t// out\n        /* \"#utility.yul\":11565:11931   */\n    tag_566:\n        /* \"#utility.yul\":11707:11710   */\n      0x00\n        /* \"#utility.yul\":11728:11795   */\n      tag_568\n        /* \"#utility.yul\":11792:11794   */\n      0x3d\n        /* \"#utility.yul\":11787:11790   */\n      dup4\n        /* \"#utility.yul\":11728:11795   */\n      tag_522\n      jump\t// in\n    tag_568:\n        /* \"#utility.yul\":11721:11795   */\n      swap2\n      pop\n        /* \"#utility.yul\":11804:11897   */\n      tag_569\n        /* \"#utility.yul\":11893:11896   */\n      dup3\n        /* \"#utility.yul\":11804:11897   */\n      tag_570\n      jump\t// in\n    tag_569:\n        /* \"#utility.yul\":11922:11924   */\n      0x40\n        /* \"#utility.yul\":11917:11920   */\n      dup3\n        /* \"#utility.yul\":11913:11925   */\n      add\n        /* \"#utility.yul\":11906:11925   */\n      swap1\n      pop\n        /* \"#utility.yul\":11565:11931   */\n      swap2\n      swap1\n      pop\n      jump\t// out\n        /* \"#utility.yul\":11997:12509   */\n    tag_571:\n        /* \"#utility.yul\":12140:12144   */\n      0x40\n        /* \"#utility.yul\":12135:12138   */\n      dup3\n        /* \"#utility.yul\":12131:12145   */\n      add\n        /* \"#utility.yul\":12231:12235   */\n      0x00\n        /* \"#utility.yul\":12224:12229   */\n      dup3\n        /* \"#utility.yul\":12220:12236   */\n      add\n        /* \"#utility.yul\":12214:12237   */\n      mload\n        /* \"#utility.yul\":12250:12313   */\n      tag_573\n        /* \"#utility.yul\":12307:12311   */\n      0x00\n        /* \"#utility.yul\":12302:12305   */\n      dup6\n        /* \"#utility.yul\":12298:12312   */\n      add\n        /* \"#utility.yul\":12284:12296   */\n      dup3\n        /* \"#utility.yul\":12250:12313   */\n      tag_494\n      jump\t// in\n    tag_573:\n        /* \"#utility.yul\":12155:12323   */\n      pop\n        /* \"#utility.yul\":12410:12414   */\n      0x20\n        /* \"#utility.yul\":12403:12408   */\n      dup3\n        /* \"#utility.yul\":12399:12415   */\n      add\n        /* \"#utility.yul\":12393:12416   */\n      mload\n        /* \"#utility.yul\":12429:12492   */\n      tag_574\n        /* \"#utility.yul\":12486:12490   */\n      0x20\n        /* \"#utility.yul\":12481:12484   */\n      dup6\n        /* \"#utility.yul\":12477:12491   */\n      add\n        /* \"#utility.yul\":12463:12475   */\n      dup3\n        /* \"#utility.yul\":12429:12492   */\n      tag_494\n      jump\t// in\n    tag_574:\n        /* \"#utility.yul\":12333:12502   */\n      pop\n        /* \"#utility.yul\":12109:12509   */\n      pop\n        /* \"#utility.yul\":11997:12509   */\n      pop\n      pop\n      jump\t// out\n        /* \"#utility.yul\":12575:13097   */\n    tag_575:\n        /* \"#utility.yul\":12728:12732   */\n      0x40\n        /* \"#utility.yul\":12723:12726   */\n      dup3\n        /* \"#utility.yul\":12719:12733   */\n      add\n        /* \"#utility.yul\":12819:12823   */\n      0x00\n        /* \"#utility.yul\":12812:12817   */\n      dup3\n        /* \"#utility.yul\":12808:12824   */\n      add\n        /* \"#utility.yul\":12802:12825   */\n      mload\n        /* \"#utility.yul\":12838:12901   */\n      tag_577\n        /* \"#utility.yul\":12895:12899   */\n      0x00\n        /* \"#utility.yul\":12890:12893   */\n      dup6\n        /* \"#utility.yul\":12886:12900   */\n      add\n        /* \"#utility.yul\":12872:12884   */\n      dup3\n        /* \"#utility.yul\":12838:12901   */\n      tag_494\n      jump\t// in\n    tag_577:\n        /* \"#utility.yul\":12743:12911   */\n      pop\n        /* \"#utility.yul\":12998:13002   */\n      0x20\n        /* \"#utility.yul\":12991:12996   */\n      dup3\n        /* \"#utility.yul\":12987:13003   */\n      add\n        /* \"#utility.yul\":12981:13004   */\n      mload\n        /* \"#utility.yul\":13017:13080   */\n      tag_578\n        /* \"#utility.yul\":13074:13078   */\n      0x20\n        /* \"#utility.yul\":13069:13072   */\n      dup6\n        /* \"#utility.yul\":13065:13079   */\n      add\n        /* \"#utility.yul\":13051:13063   */\n      dup3\n        /* \"#utility.yul\":13017:13080   */\n      tag_494\n      jump\t// in\n    tag_578:\n        /* \"#utility.yul\":12921:13090   */\n      pop\n        /* \"#utility.yul\":12697:13097   */\n      pop\n        /* \"#utility.yul\":12575:13097   */\n      pop\n      pop\n      jump\t// out\n        /* \"#utility.yul\":13155:13658   */\n    tag_579:\n        /* \"#utility.yul\":13300:13304   */\n      0x40\n        /* \"#utility.yul\":13295:13298   */\n      dup3\n        /* \"#utility.yul\":13291:13305   */\n      add\n        /* \"#utility.yul\":13387:13391   */\n      0x00\n        /* \"#utility.yul\":13380:13385   */\n      dup3\n        /* \"#utility.yul\":13376:13392   */\n      add\n        /* \"#utility.yul\":13370:13393   */\n      mload\n        /* \"#utility.yul\":13406:13469   */\n      tag_581\n        /* \"#utility.yul\":13463:13467   */\n      0x00\n        /* \"#utility.yul\":13458:13461   */\n      dup6\n        /* \"#utility.yul\":13454:13468   */\n      add\n        /* \"#utility.yul\":13440:13452   */\n      dup3\n        /* \"#utility.yul\":13406:13469   */\n      tag_494\n      jump\t// in\n    tag_581:\n        /* \"#utility.yul\":13315:13479   */\n      pop\n        /* \"#utility.yul\":13559:13563   */\n      0x20\n        /* \"#utility.yul\":13552:13557   */\n      dup3\n        /* \"#utility.yul\":13548:13564   */\n      add\n        /* \"#utility.yul\":13542:13565   */\n      mload\n        /* \"#utility.yul\":13578:13641   */\n      tag_582\n        /* \"#utility.yul\":13635:13639   */\n      0x20\n        /* \"#utility.yul\":13630:13633   */\n      dup6\n        /* \"#utility.yul\":13626:13640   */\n      add\n        /* \"#utility.yul\":13612:13624   */\n      dup3\n        /* \"#utility.yul\":13578:13641   */\n      tag_494\n      jump\t// in\n    tag_582:\n        /* \"#utility.yul\":13489:13651   */\n      pop\n        /* \"#utility.yul\":13269:13658   */\n      pop\n        /* \"#utility.yul\":13155:13658   */\n      pop\n      pop\n      jump\t// out\n        /* \"#utility.yul\":13718:15555   */\n    tag_583:\n        /* \"#utility.yul\":13865:13871   */\n      0x0140\n        /* \"#utility.yul\":13860:13863   */\n      dup3\n        /* \"#utility.yul\":13856:13872   */\n      add\n        /* \"#utility.yul\":13952:13956   */\n      0x00\n        /* \"#utility.yul\":13945:13950   */\n      dup3\n        /* \"#utility.yul\":13941:13957   */\n      add\n        /* \"#utility.yul\":13935:13958   */\n      mload\n        /* \"#utility.yul\":13971:14034   */\n      tag_585\n        /* \"#utility.yul\":14028:14032   */\n      0x00\n        /* \"#utility.yul\":14023:14026   */\n      dup6\n        /* \"#utility.yul\":14019:14033   */\n      add\n        /* \"#utility.yul\":14005:14017   */\n      dup3\n        /* \"#utility.yul\":13971:14034   */\n      tag_586\n      jump\t// in\n    tag_585:\n        /* \"#utility.yul\":13882:14044   */\n      pop\n        /* \"#utility.yul\":14126:14130   */\n      0x20\n        /* \"#utility.yul\":14119:14124   */\n      dup3\n        /* \"#utility.yul\":14115:14131   */\n      add\n        /* \"#utility.yul\":14109:14132   */\n      mload\n        /* \"#utility.yul\":14145:14208   */\n      tag_587\n        /* \"#utility.yul\":14202:14206   */\n      0x20\n        /* \"#utility.yul\":14197:14200   */\n      dup6\n        /* \"#utility.yul\":14193:14207   */\n      add\n        /* \"#utility.yul\":14179:14191   */\n      dup3\n        /* \"#utility.yul\":14145:14208   */\n      tag_494\n      jump\t// in\n    tag_587:\n        /* \"#utility.yul\":14054:14218   */\n      pop\n        /* \"#utility.yul\":14301:14305   */\n      0x40\n        /* \"#utility.yul\":14294:14299   */\n      dup3\n        /* \"#utility.yul\":14290:14306   */\n      add\n        /* \"#utility.yul\":14284:14307   */\n      mload\n        /* \"#utility.yul\":14320:14383   */\n      tag_588\n        /* \"#utility.yul\":14377:14381   */\n      0x40\n        /* \"#utility.yul\":14372:14375   */\n      dup6\n        /* \"#utility.yul\":14368:14382   */\n      add\n        /* \"#utility.yul\":14354:14366   */\n      dup3\n        /* \"#utility.yul\":14320:14383   */\n      tag_494\n      jump\t// in\n    tag_588:\n        /* \"#utility.yul\":14228:14393   */\n      pop\n        /* \"#utility.yul\":14482:14486   */\n      0x60\n        /* \"#utility.yul\":14475:14480   */\n      dup3\n        /* \"#utility.yul\":14471:14487   */\n      add\n        /* \"#utility.yul\":14465:14488   */\n      mload\n        /* \"#utility.yul\":14501:14578   */\n      tag_589\n        /* \"#utility.yul\":14572:14576   */\n      0x60\n        /* \"#utility.yul\":14567:14570   */\n      dup6\n        /* \"#utility.yul\":14563:14577   */\n      add\n        /* \"#utility.yul\":14549:14561   */\n      dup3\n        /* \"#utility.yul\":14501:14578   */\n      tag_512\n      jump\t// in\n    tag_589:\n        /* \"#utility.yul\":14403:14588   */\n      pop\n        /* \"#utility.yul\":14674:14678   */\n      0x80\n        /* \"#utility.yul\":14667:14672   */\n      dup3\n        /* \"#utility.yul\":14663:14679   */\n      add\n        /* \"#utility.yul\":14657:14680   */\n      mload\n        /* \"#utility.yul\":14693:14812   */\n      tag_590\n        /* \"#utility.yul\":14806:14810   */\n      0x80\n        /* \"#utility.yul\":14801:14804   */\n      dup6\n        /* \"#utility.yul\":14797:14811   */\n      add\n        /* \"#utility.yul\":14783:14795   */\n      dup3\n        /* \"#utility.yul\":14693:14812   */\n      tag_571\n      jump\t// in\n    tag_590:\n        /* \"#utility.yul\":14598:14822   */\n      pop\n        /* \"#utility.yul\":14905:14909   */\n      0xa0\n        /* \"#utility.yul\":14898:14903   */\n      dup3\n        /* \"#utility.yul\":14894:14910   */\n      add\n        /* \"#utility.yul\":14888:14911   */\n      mload\n        /* \"#utility.yul\":14924:14987   */\n      tag_591\n        /* \"#utility.yul\":14981:14985   */\n      0xc0\n        /* \"#utility.yul\":14976:14979   */\n      dup6\n        /* \"#utility.yul\":14972:14986   */\n      add\n        /* \"#utility.yul\":14958:14970   */\n      dup3\n        /* \"#utility.yul\":14924:14987   */\n      tag_586\n      jump\t// in\n    tag_591:\n        /* \"#utility.yul\":14832:14997   */\n      pop\n        /* \"#utility.yul\":15080:15084   */\n      0xc0\n        /* \"#utility.yul\":15073:15078   */\n      dup3\n        /* \"#utility.yul\":15069:15085   */\n      add\n        /* \"#utility.yul\":15063:15086   */\n      mload\n        /* \"#utility.yul\":15099:15162   */\n      tag_592\n        /* \"#utility.yul\":15156:15160   */\n      0xe0\n        /* \"#utility.yul\":15151:15154   */\n      dup6\n        /* \"#utility.yul\":15147:15161   */\n      add\n        /* \"#utility.yul\":15133:15145   */\n      dup3\n        /* \"#utility.yul\":15099:15162   */\n      tag_494\n      jump\t// in\n    tag_592:\n        /* \"#utility.yul\":15007:15172   */\n      pop\n        /* \"#utility.yul\":15258:15262   */\n      0xe0\n        /* \"#utility.yul\":15251:15256   */\n      dup3\n        /* \"#utility.yul\":15247:15263   */\n      add\n        /* \"#utility.yul\":15241:15264   */\n      mload\n        /* \"#utility.yul\":15277:15342   */\n      tag_593\n        /* \"#utility.yul\":15334:15340   */\n      0x0100\n        /* \"#utility.yul\":15329:15332   */\n      dup6\n        /* \"#utility.yul\":15325:15341   */\n      add\n        /* \"#utility.yul\":15311:15323   */\n      dup3\n        /* \"#utility.yul\":15277:15342   */\n      tag_586\n      jump\t// in\n    tag_593:\n        /* \"#utility.yul\":15182:15352   */\n      pop\n        /* \"#utility.yul\":15436:15442   */\n      0x0100\n        /* \"#utility.yul\":15429:15434   */\n      dup3\n        /* \"#utility.yul\":15425:15443   */\n      add\n        /* \"#utility.yul\":15419:15444   */\n      mload\n        /* \"#utility.yul\":15457:15538   */\n      tag_594\n        /* \"#utility.yul\":15530:15536   */\n      0x0120\n        /* \"#utility.yul\":15525:15528   */\n      dup6\n        /* \"#utility.yul\":15521:15537   */\n      add\n        /* \"#utility.yul\":15507:15519   */\n      dup3\n        /* \"#utility.yul\":15457:15538   */\n      tag_505\n      jump\t// in\n    tag_594:\n        /* \"#utility.yul\":15362:15548   */\n      pop\n        /* \"#utility.yul\":13834:15555   */\n      pop\n        /* \"#utility.yul\":13718:15555   */\n      pop\n      pop\n      jump\t// out\n        /* \"#utility.yul\":15561:15669   */\n    tag_586:\n        /* \"#utility.yul\":15638:15662   */\n      tag_596\n        /* \"#utility.yul\":15656:15661   */\n      dup2\n        /* \"#utility.yul\":15638:15662   */\n      tag_597\n      jump\t// in\n    tag_596:\n        /* \"#utility.yul\":15633:15636   */\n      dup3\n        /* \"#utility.yul\":15626:15663   */\n      mstore\n        /* \"#utility.yul\":15561:15669   */\n      pop\n      pop\n      jump\t// out\n        /* \"#utility.yul\":15675:15793   */\n    tag_598:\n        /* \"#utility.yul\":15762:15786   */\n      tag_600\n        /* \"#utility.yul\":15780:15785   */\n      dup2\n        /* \"#utility.yul\":15762:15786   */\n      tag_597\n      jump\t// in\n    tag_600:\n        /* \"#utility.yul\":15757:15760   */\n      dup3\n        /* \"#utility.yul\":15750:15787   */\n      mstore\n        /* \"#utility.yul\":15675:15793   */\n      pop\n      pop\n      jump\t// out\n        /* \"#utility.yul\":15799:16178   */\n    tag_284:\n        /* \"#utility.yul\":15983:15986   */\n      0x00\n        /* \"#utility.yul\":16005:16152   */\n      tag_602\n        /* \"#utility.yul\":16148:16151   */\n      dup3\n        /* \"#utility.yul\":16005:16152   */\n      tag_555\n      jump\t// in\n    tag_602:\n        /* \"#utility.yul\":15998:16152   */\n      swap2\n      pop\n        /* \"#utility.yul\":16169:16172   */\n      dup2\n        /* \"#utility.yul\":16162:16172   */\n      swap1\n      pop\n        /* \"#utility.yul\":15799:16178   */\n      swap2\n      swap1\n      pop\n      jump\t// out\n        /* \"#utility.yul\":16184:16406   */\n    tag_106:\n        /* \"#utility.yul\":16277:16281   */\n      0x00\n        /* \"#utility.yul\":16315:16317   */\n      0x20\n        /* \"#utility.yul\":16304:16313   */\n      dup3\n        /* \"#utility.yul\":16300:16318   */\n      add\n        /* \"#utility.yul\":16292:16318   */\n      swap1\n      pop\n        /* \"#utility.yul\":16328:16399   */\n      tag_604\n        /* \"#utility.yul\":16396:16397   */\n      0x00\n        /* \"#utility.yul\":16385:16394   */\n      dup4\n        /* \"#utility.yul\":16381:16398   */\n      add\n        /* \"#utility.yul\":16372:16378   */\n      dup5\n        /* \"#utility.yul\":16328:16399   */\n      tag_486\n      jump\t// in\n    tag_604:\n        /* \"#utility.yul\":16184:16406   */\n      swap3\n      swap2\n      pop\n      pop\n      jump\t// out\n        /* \"#utility.yul\":16412:17530   */\n    tag_61:\n        /* \"#utility.yul\":16788:16792   */\n      0x00\n        /* \"#utility.yul\":16826:16829   */\n      0x0220\n        /* \"#utility.yul\":16815:16824   */\n      dup3\n        /* \"#utility.yul\":16811:16830   */\n      add\n        /* \"#utility.yul\":16803:16830   */\n      swap1\n      pop\n        /* \"#utility.yul\":16840:16911   */\n      tag_606\n        /* \"#utility.yul\":16908:16909   */\n      0x00\n        /* \"#utility.yul\":16897:16906   */\n      dup4\n        /* \"#utility.yul\":16893:16910   */\n      add\n        /* \"#utility.yul\":16884:16890   */\n      dup11\n        /* \"#utility.yul\":16840:16911   */\n      tag_486\n      jump\t// in\n    tag_606:\n        /* \"#utility.yul\":16921:17043   */\n      tag_607\n        /* \"#utility.yul\":17039:17041   */\n      0x20\n        /* \"#utility.yul\":17028:17037   */\n      dup4\n        /* \"#utility.yul\":17024:17042   */\n      add\n        /* \"#utility.yul\":17015:17021   */\n      dup10\n        /* \"#utility.yul\":16921:17043   */\n      tag_583\n      jump\t// in\n    tag_607:\n        /* \"#utility.yul\":17053:17174   */\n      tag_608\n        /* \"#utility.yul\":17169:17172   */\n      0x0160\n        /* \"#utility.yul\":17158:17167   */\n      dup4\n        /* \"#utility.yul\":17154:17173   */\n      add\n        /* \"#utility.yul\":17145:17151   */\n      dup9\n        /* \"#utility.yul\":17053:17174   */\n      tag_579\n      jump\t// in\n    tag_608:\n        /* \"#utility.yul\":17184:17257   */\n      tag_609\n        /* \"#utility.yul\":17252:17255   */\n      0x01a0\n        /* \"#utility.yul\":17241:17250   */\n      dup4\n        /* \"#utility.yul\":17237:17256   */\n      add\n        /* \"#utility.yul\":17228:17234   */\n      dup8\n        /* \"#utility.yul\":17184:17257   */\n      tag_598\n      jump\t// in\n    tag_609:\n        /* \"#utility.yul\":17267:17340   */\n      tag_610\n        /* \"#utility.yul\":17335:17338   */\n      0x01c0\n        /* \"#utility.yul\":17324:17333   */\n      dup4\n        /* \"#utility.yul\":17320:17339   */\n      add\n        /* \"#utility.yul\":17311:17317   */\n      dup7\n        /* \"#utility.yul\":17267:17340   */\n      tag_598\n      jump\t// in\n    tag_610:\n        /* \"#utility.yul\":17350:17423   */\n      tag_611\n        /* \"#utility.yul\":17418:17421   */\n      0x01e0\n        /* \"#utility.yul\":17407:17416   */\n      dup4\n        /* \"#utility.yul\":17403:17422   */\n      add\n        /* \"#utility.yul\":17394:17400   */\n      dup6\n        /* \"#utility.yul\":17350:17423   */\n      tag_598\n      jump\t// in\n    tag_611:\n        /* \"#utility.yul\":17433:17523   */\n      tag_612\n        /* \"#utility.yul\":17518:17521   */\n      0x0200\n        /* \"#utility.yul\":17507:17516   */\n      dup4\n        /* \"#utility.yul\":17503:17522   */\n      add\n        /* \"#utility.yul\":17494:17500   */\n      dup5\n        /* \"#utility.yul\":17433:17523   */\n      tag_501\n      jump\t// in\n    tag_612:\n        /* \"#utility.yul\":16412:17530   */\n      swap9\n      swap8\n      pop\n      pop\n      pop\n      pop\n      pop\n      pop\n      pop\n      pop\n      jump\t// out\n        /* \"#utility.yul\":17536:17746   */\n    tag_48:\n        /* \"#utility.yul\":17623:17627   */\n      0x00\n        /* \"#utility.yul\":17661:17663   */\n      0x20\n        /* \"#utility.yul\":17650:17659   */\n      dup3\n        /* \"#utility.yul\":17646:17664   */\n      add\n        /* \"#utility.yul\":17638:17664   */\n      swap1\n      pop\n        /* \"#utility.yul\":17674:17739   */\n      tag_614\n        /* \"#utility.yul\":17736:17737   */\n      0x00\n        /* \"#utility.yul\":17725:17734   */\n      dup4\n        /* \"#utility.yul\":17721:17738   */\n      add\n        /* \"#utility.yul\":17712:17718   */\n      dup5\n        /* \"#utility.yul\":17674:17739   */\n      tag_490\n      jump\t// in\n    tag_614:\n        /* \"#utility.yul\":17536:17746   */\n      swap3\n      swap2\n      pop\n      pop\n      jump\t// out\n        /* \"#utility.yul\":17752:17974   */\n    tag_140:\n        /* \"#utility.yul\":17845:17849   */\n      0x00\n        /* \"#utility.yul\":17883:17885   */\n      0x20\n        /* \"#utility.yul\":17872:17881   */\n      dup3\n        /* \"#utility.yul\":17868:17886   */\n      add\n        /* \"#utility.yul\":17860:17886   */\n      swap1\n      pop\n        /* \"#utility.yul\":17896:17967   */\n      tag_616\n        /* \"#utility.yul\":17964:17965   */\n      0x00\n        /* \"#utility.yul\":17953:17962   */\n      dup4\n        /* \"#utility.yul\":17949:17966   */\n      add\n        /* \"#utility.yul\":17940:17946   */\n      dup5\n        /* \"#utility.yul\":17896:17967   */\n      tag_498\n      jump\t// in\n    tag_616:\n        /* \"#utility.yul\":17752:17974   */\n      swap3\n      swap2\n      pop\n      pop\n      jump\t// out\n        /* \"#utility.yul\":17980:18399   */\n    tag_310:\n        /* \"#utility.yul\":18146:18150   */\n      0x00\n        /* \"#utility.yul\":18184:18186   */\n      0x20\n        /* \"#utility.yul\":18173:18182   */\n      dup3\n        /* \"#utility.yul\":18169:18187   */\n      add\n        /* \"#utility.yul\":18161:18187   */\n      swap1\n      pop\n        /* \"#utility.yul\":18233:18242   */\n      dup2\n        /* \"#utility.yul\":18227:18231   */\n      dup2\n        /* \"#utility.yul\":18223:18243   */\n      sub\n        /* \"#utility.yul\":18219:18220   */\n      0x00\n        /* \"#utility.yul\":18208:18217   */\n      dup4\n        /* \"#utility.yul\":18204:18221   */\n      add\n        /* \"#utility.yul\":18197:18244   */\n      mstore\n        /* \"#utility.yul\":18261:18392   */\n      tag_618\n        /* \"#utility.yul\":18387:18391   */\n      dup2\n        /* \"#utility.yul\":18261:18392   */\n      tag_519\n      jump\t// in\n    tag_618:\n        /* \"#utility.yul\":18253:18392   */\n      swap1\n      pop\n        /* \"#utility.yul\":17980:18399   */\n      swap2\n      swap1\n      pop\n      jump\t// out\n        /* \"#utility.yul\":18405:18824   */\n    tag_203:\n        /* \"#utility.yul\":18571:18575   */\n      0x00\n        /* \"#utility.yul\":18609:18611   */\n      0x20\n        /* \"#utility.yul\":18598:18607   */\n      dup3\n        /* \"#utility.yul\":18594:18612   */\n      add\n        /* \"#utility.yul\":18586:18612   */\n      swap1\n      pop\n        /* \"#utility.yul\":18658:18667   */\n      dup2\n        /* \"#utility.yul\":18652:18656   */\n      dup2\n        /* \"#utility.yul\":18648:18668   */\n      sub\n        /* \"#utility.yul\":18644:18645   */\n      0x00\n        /* \"#utility.yul\":18633:18642   */\n      dup4\n        /* \"#utility.yul\":18629:18646   */\n      add\n        /* \"#utility.yul\":18622:18669   */\n      mstore\n        /* \"#utility.yul\":18686:18817   */\n      tag_620\n        /* \"#utility.yul\":18812:18816   */\n      dup2\n        /* \"#utility.yul\":18686:18817   */\n      tag_525\n      jump\t// in\n    tag_620:\n        /* \"#utility.yul\":18678:18817   */\n      swap1\n      pop\n        /* \"#utility.yul\":18405:18824   */\n      swap2\n      swap1\n      pop\n      jump\t// out\n        /* \"#utility.yul\":18830:19249   */\n    tag_246:\n        /* \"#utility.yul\":18996:19000   */\n      0x00\n        /* \"#utility.yul\":19034:19036   */\n      0x20\n        /* \"#utility.yul\":19023:19032   */\n      dup3\n        /* \"#utility.yul\":19019:19037   */\n      add\n        /* \"#utility.yul\":19011:19037   */\n      swap1\n      pop\n        /* \"#utility.yul\":19083:19092   */\n      dup2\n        /* \"#utility.yul\":19077:19081   */\n      dup2\n        /* \"#utility.yul\":19073:19093   */\n      sub\n        /* \"#utility.yul\":19069:19070   */\n      0x00\n        /* \"#utility.yul\":19058:19067   */\n      dup4\n        /* \"#utility.yul\":19054:19071   */\n      add\n        /* \"#utility.yul\":19047:19094   */\n      mstore\n        /* \"#utility.yul\":19111:19242   */\n      tag_622\n        /* \"#utility.yul\":19237:19241   */\n      dup2\n        /* \"#utility.yul\":19111:19242   */\n      tag_530\n      jump\t// in\n    tag_622:\n        /* \"#utility.yul\":19103:19242   */\n      swap1\n      pop\n        /* \"#utility.yul\":18830:19249   */\n      swap2\n      swap1\n      pop\n      jump\t// out\n        /* \"#utility.yul\":19255:19674   */\n    tag_197:\n        /* \"#utility.yul\":19421:19425   */\n      0x00\n        /* \"#utility.yul\":19459:19461   */\n      0x20\n        /* \"#utility.yul\":19448:19457   */\n      dup3\n        /* \"#utility.yul\":19444:19462   */\n      add\n        /* \"#utility.yul\":19436:19462   */\n      swap1\n      pop\n        /* \"#utility.yul\":19508:19517   */\n      dup2\n        /* \"#utility.yul\":19502:19506   */\n      dup2\n        /* \"#utility.yul\":19498:19518   */\n      sub\n        /* \"#utility.yul\":19494:19495   */\n      0x00\n        /* \"#utility.yul\":19483:19492   */\n      dup4\n        /* \"#utility.yul\":19479:19496   */\n      add\n        /* \"#utility.yul\":19472:19519   */\n      mstore\n        /* \"#utility.yul\":19536:19667   */\n      tag_624\n        /* \"#utility.yul\":19662:19666   */\n      dup2\n        /* \"#utility.yul\":19536:19667   */\n      tag_535\n      jump\t// in\n    tag_624:\n        /* \"#utility.yul\":19528:19667   */\n      swap1\n      pop\n        /* \"#utility.yul\":19255:19674   */\n      swap2\n      swap1\n      pop\n      jump\t// out\n        /* \"#utility.yul\":19680:20099   */\n    tag_290:\n        /* \"#utility.yul\":19846:19850   */\n      0x00\n        /* \"#utility.yul\":19884:19886   */\n      0x20\n        /* \"#utility.yul\":19873:19882   */\n      dup3\n        /* \"#utility.yul\":19869:19887   */\n      add\n        /* \"#utility.yul\":19861:19887   */\n      swap1\n      pop\n        /* \"#utility.yul\":19933:19942   */\n      dup2\n        /* \"#utility.yul\":19927:19931   */\n      dup2\n        /* \"#utility.yul\":19923:19943   */\n      sub\n        /* \"#utility.yul\":19919:19920   */\n      0x00\n        /* \"#utility.yul\":19908:19917   */\n      dup4\n        /* \"#utility.yul\":19904:19921   */\n      add\n        /* \"#utility.yul\":19897:19944   */\n      mstore\n        /* \"#utility.yul\":19961:20092   */\n      tag_626\n        /* \"#utility.yul\":20087:20091   */\n      dup2\n        /* \"#utility.yul\":19961:20092   */\n      tag_540\n      jump\t// in\n    tag_626:\n        /* \"#utility.yul\":19953:20092   */\n      swap1\n      pop\n        /* \"#utility.yul\":19680:20099   */\n      swap2\n      swap1\n      pop\n      jump\t// out\n        /* \"#utility.yul\":20105:20524   */\n    tag_177:\n        /* \"#utility.yul\":20271:20275   */\n      0x00\n        /* \"#utility.yul\":20309:20311   */\n      0x20\n        /* \"#utility.yul\":20298:20307   */\n      dup3\n        /* \"#utility.yul\":20294:20312   */\n      add\n        /* \"#utility.yul\":20286:20312   */\n      swap1\n      pop\n        /* \"#utility.yul\":20358:20367   */\n      dup2\n        /* \"#utility.yul\":20352:20356   */\n      dup2\n        /* \"#utility.yul\":20348:20368   */\n      sub\n        /* \"#utility.yul\":20344:20345   */\n      0x00\n        /* \"#utility.yul\":20333:20342   */\n      dup4\n        /* \"#utility.yul\":20329:20346   */\n      add\n        /* \"#utility.yul\":20322:20369   */\n      mstore\n        /* \"#utility.yul\":20386:20517   */\n      tag_628\n        /* \"#utility.yul\":20512:20516   */\n      dup2\n        /* \"#utility.yul\":20386:20517   */\n      tag_545\n      jump\t// in\n    tag_628:\n        /* \"#utility.yul\":20378:20517   */\n      swap1\n      pop\n        /* \"#utility.yul\":20105:20524   */\n      swap2\n      swap1\n      pop\n      jump\t// out\n        /* \"#utility.yul\":20530:20949   */\n    tag_181:\n        /* \"#utility.yul\":20696:20700   */\n      0x00\n        /* \"#utility.yul\":20734:20736   */\n      0x20\n        /* \"#utility.yul\":20723:20732   */\n      dup3\n        /* \"#utility.yul\":20719:20737   */\n      add\n        /* \"#utility.yul\":20711:20737   */\n      swap1\n      pop\n        /* \"#utility.yul\":20783:20792   */\n      dup2\n        /* \"#utility.yul\":20777:20781   */\n      dup2\n        /* \"#utility.yul\":20773:20793   */\n      sub\n        /* \"#utility.yul\":20769:20770   */\n      0x00\n        /* \"#utility.yul\":20758:20767   */\n      dup4\n        /* \"#utility.yul\":20754:20771   */\n      add\n        /* \"#utility.yul\":20747:20794   */\n      mstore\n        /* \"#utility.yul\":20811:20942   */\n      tag_630\n        /* \"#utility.yul\":20937:20941   */\n      dup2\n        /* \"#utility.yul\":20811:20942   */\n      tag_550\n      jump\t// in\n    tag_630:\n        /* \"#utility.yul\":20803:20942   */\n      swap1\n      pop\n        /* \"#utility.yul\":20530:20949   */\n      swap2\n      swap1\n      pop\n      jump\t// out\n        /* \"#utility.yul\":20955:21374   */\n    tag_168:\n        /* \"#utility.yul\":21121:21125   */\n      0x00\n        /* \"#utility.yul\":21159:21161   */\n      0x20\n        /* \"#utility.yul\":21148:21157   */\n      dup3\n        /* \"#utility.yul\":21144:21162   */\n      add\n        /* \"#utility.yul\":21136:21162   */\n      swap1\n      pop\n        /* \"#utility.yul\":21208:21217   */\n      dup2\n        /* \"#utility.yul\":21202:21206   */\n      dup2\n        /* \"#utility.yul\":21198:21218   */\n      sub\n        /* \"#utility.yul\":21194:21195   */\n      0x00\n        /* \"#utility.yul\":21183:21192   */\n      dup4\n        /* \"#utility.yul\":21179:21196   */\n      add\n        /* \"#utility.yul\":21172:21219   */\n      mstore\n        /* \"#utility.yul\":21236:21367   */\n      tag_632\n        /* \"#utility.yul\":21362:21366   */\n      dup2\n        /* \"#utility.yul\":21236:21367   */\n      tag_561\n      jump\t// in\n    tag_632:\n        /* \"#utility.yul\":21228:21367   */\n      swap1\n      pop\n        /* \"#utility.yul\":20955:21374   */\n      swap2\n      swap1\n      pop\n      jump\t// out\n        /* \"#utility.yul\":21380:21799   */\n    tag_231:\n        /* \"#utility.yul\":21546:21550   */\n      0x00\n        /* \"#utility.yul\":21584:21586   */\n      0x20\n        /* \"#utility.yul\":21573:21582   */\n      dup3\n        /* \"#utility.yul\":21569:21587   */\n      add\n        /* \"#utility.yul\":21561:21587   */\n      swap1\n      pop\n        /* \"#utility.yul\":21633:21642   */\n      dup2\n        /* \"#utility.yul\":21627:21631   */\n      dup2\n        /* \"#utility.yul\":21623:21643   */\n      sub\n        /* \"#utility.yul\":21619:21620   */\n      0x00\n        /* \"#utility.yul\":21608:21617   */\n      dup4\n        /* \"#utility.yul\":21604:21621   */\n      add\n        /* \"#utility.yul\":21597:21644   */\n      mstore\n        /* \"#utility.yul\":21661:21792   */\n      tag_634\n        /* \"#utility.yul\":21787:21791   */\n      dup2\n        /* \"#utility.yul\":21661:21792   */\n      tag_566\n      jump\t// in\n    tag_634:\n        /* \"#utility.yul\":21653:21792   */\n      swap1\n      pop\n        /* \"#utility.yul\":21380:21799   */\n      swap2\n      swap1\n      pop\n      jump\t// out\n        /* \"#utility.yul\":21805:22027   */\n    tag_95:\n        /* \"#utility.yul\":21898:21902   */\n      0x00\n        /* \"#utility.yul\":21936:21938   */\n      0x20\n        /* \"#utility.yul\":21925:21934   */\n      dup3\n        /* \"#utility.yul\":21921:21939   */\n      add\n        /* \"#utility.yul\":21913:21939   */\n      swap1\n      pop\n        /* \"#utility.yul\":21949:22020   */\n      tag_636\n        /* \"#utility.yul\":22017:22018   */\n      0x00\n        /* \"#utility.yul\":22006:22015   */\n      dup4\n        /* \"#utility.yul\":22002:22019   */\n      add\n        /* \"#utility.yul\":21993:21999   */\n      dup5\n        /* \"#utility.yul\":21949:22020   */\n      tag_598\n      jump\t// in\n    tag_636:\n        /* \"#utility.yul\":21805:22027   */\n      swap3\n      swap2\n      pop\n      pop\n      jump\t// out\n        /* \"#utility.yul\":22033:23313   */\n    tag_73:\n        /* \"#utility.yul\":22436:22440   */\n      0x00\n        /* \"#utility.yul\":22474:22477   */\n      0x0140\n        /* \"#utility.yul\":22463:22472   */\n      dup3\n        /* \"#utility.yul\":22459:22478   */\n      add\n        /* \"#utility.yul\":22451:22478   */\n      swap1\n      pop\n        /* \"#utility.yul\":22488:22559   */\n      tag_638\n        /* \"#utility.yul\":22556:22557   */\n      0x00\n        /* \"#utility.yul\":22545:22554   */\n      dup4\n        /* \"#utility.yul\":22541:22558   */\n      add\n        /* \"#utility.yul\":22532:22538   */\n      dup13\n        /* \"#utility.yul\":22488:22559   */\n      tag_598\n      jump\t// in\n    tag_638:\n        /* \"#utility.yul\":22569:22641   */\n      tag_639\n        /* \"#utility.yul\":22637:22639   */\n      0x20\n        /* \"#utility.yul\":22626:22635   */\n      dup4\n        /* \"#utility.yul\":22622:22640   */\n      add\n        /* \"#utility.yul\":22613:22619   */\n      dup12\n        /* \"#utility.yul\":22569:22641   */\n      tag_498\n      jump\t// in\n    tag_639:\n        /* \"#utility.yul\":22651:22723   */\n      tag_640\n        /* \"#utility.yul\":22719:22721   */\n      0x40\n        /* \"#utility.yul\":22708:22717   */\n      dup4\n        /* \"#utility.yul\":22704:22722   */\n      add\n        /* \"#utility.yul\":22695:22701   */\n      dup11\n        /* \"#utility.yul\":22651:22723   */\n      tag_498\n      jump\t// in\n    tag_640:\n        /* \"#utility.yul\":22733:22819   */\n      tag_641\n        /* \"#utility.yul\":22815:22817   */\n      0x60\n        /* \"#utility.yul\":22804:22813   */\n      dup4\n        /* \"#utility.yul\":22800:22818   */\n      add\n        /* \"#utility.yul\":22791:22797   */\n      dup10\n        /* \"#utility.yul\":22733:22819   */\n      tag_516\n      jump\t// in\n    tag_641:\n        /* \"#utility.yul\":22829:22958   */\n      tag_642\n        /* \"#utility.yul\":22953:22956   */\n      0x80\n        /* \"#utility.yul\":22942:22951   */\n      dup4\n        /* \"#utility.yul\":22938:22957   */\n      add\n        /* \"#utility.yul\":22929:22935   */\n      dup9\n        /* \"#utility.yul\":22829:22958   */\n      tag_575\n      jump\t// in\n    tag_642:\n        /* \"#utility.yul\":22968:23041   */\n      tag_643\n        /* \"#utility.yul\":23036:23039   */\n      0xc0\n        /* \"#utility.yul\":23025:23034   */\n      dup4\n        /* \"#utility.yul\":23021:23040   */\n      add\n        /* \"#utility.yul\":23012:23018   */\n      dup8\n        /* \"#utility.yul\":22968:23041   */\n      tag_598\n      jump\t// in\n    tag_643:\n        /* \"#utility.yul\":23051:23124   */\n      tag_644\n        /* \"#utility.yul\":23119:23122   */\n      0xe0\n        /* \"#utility.yul\":23108:23117   */\n      dup4\n        /* \"#utility.yul\":23104:23123   */\n      add\n        /* \"#utility.yul\":23095:23101   */\n      dup7\n        /* \"#utility.yul\":23051:23124   */\n      tag_498\n      jump\t// in\n    tag_644:\n        /* \"#utility.yul\":23134:23207   */\n      tag_645\n        /* \"#utility.yul\":23202:23205   */\n      0x0100\n        /* \"#utility.yul\":23191:23200   */\n      dup4\n        /* \"#utility.yul\":23187:23206   */\n      add\n        /* \"#utility.yul\":23178:23184   */\n      dup6\n        /* \"#utility.yul\":23134:23207   */\n      tag_598\n      jump\t// in\n    tag_645:\n        /* \"#utility.yul\":23217:23306   */\n      tag_646\n        /* \"#utility.yul\":23301:23304   */\n      0x0120\n        /* \"#utility.yul\":23290:23299   */\n      dup4\n        /* \"#utility.yul\":23286:23305   */\n      add\n        /* \"#utility.yul\":23277:23283   */\n      dup5\n        /* \"#utility.yul\":23217:23306   */\n      tag_509\n      jump\t// in\n    tag_646:\n        /* \"#utility.yul\":22033:23313   */\n      swap11\n      swap10\n      pop\n      pop\n      pop\n      pop\n      pop\n      pop\n      pop\n      pop\n      pop\n      pop\n      jump\t// out\n        /* \"#utility.yul\":23319:23448   */\n    tag_422:\n        /* \"#utility.yul\":23353:23359   */\n      0x00\n        /* \"#utility.yul\":23380:23400   */\n      tag_648\n      tag_649\n      jump\t// in\n    tag_648:\n        /* \"#utility.yul\":23370:23400   */\n      swap1\n      pop\n        /* \"#utility.yul\":23409:23442   */\n      tag_650\n        /* \"#utility.yul\":23437:23441   */\n      dup3\n        /* \"#utility.yul\":23429:23435   */\n      dup3\n        /* \"#utility.yul\":23409:23442   */\n      tag_651\n      jump\t// in\n    tag_650:\n        /* \"#utility.yul\":23319:23448   */\n      swap2\n      swap1\n      pop\n      jump\t// out\n        /* \"#utility.yul\":23454:23529   */\n    tag_649:\n        /* \"#utility.yul\":23487:23493   */\n      0x00\n        /* \"#utility.yul\":23520:23522   */\n      0x40\n        /* \"#utility.yul\":23514:23523   */\n      mload\n        /* \"#utility.yul\":23504:23523   */\n      swap1\n      pop\n        /* \"#utility.yul\":23454:23529   */\n      swap1\n      jump\t// out\n        /* \"#utility.yul\":23535:23682   */\n    tag_558:\n        /* \"#utility.yul\":23636:23647   */\n      0x00\n        /* \"#utility.yul\":23673:23676   */\n      dup2\n        /* \"#utility.yul\":23658:23676   */\n      swap1\n      pop\n        /* \"#utility.yul\":23535:23682   */\n      swap3\n      swap2\n      pop\n      pop\n      jump\t// out\n        /* \"#utility.yul\":23688:23857   */\n    tag_522:\n        /* \"#utility.yul\":23772:23783   */\n      0x00\n        /* \"#utility.yul\":23806:23812   */\n      dup3\n        /* \"#utility.yul\":23801:23804   */\n      dup3\n        /* \"#utility.yul\":23794:23813   */\n      mstore\n        /* \"#utility.yul\":23846:23850   */\n      0x20\n        /* \"#utility.yul\":23841:23844   */\n      dup3\n        /* \"#utility.yul\":23837:23851   */\n      add\n        /* \"#utility.yul\":23822:23851   */\n      swap1\n      pop\n        /* \"#utility.yul\":23688:23857   */\n      swap3\n      swap2\n      pop\n      pop\n      jump\t// out\n        /* \"#utility.yul\":23863:24168   */\n    tag_200:\n        /* \"#utility.yul\":23903:23906   */\n      0x00\n        /* \"#utility.yul\":23922:23942   */\n      tag_656\n        /* \"#utility.yul\":23940:23941   */\n      dup3\n        /* \"#utility.yul\":23922:23942   */\n      tag_597\n      jump\t// in\n    tag_656:\n        /* \"#utility.yul\":23917:23942   */\n      swap2\n      pop\n        /* \"#utility.yul\":23956:23976   */\n      tag_657\n        /* \"#utility.yul\":23974:23975   */\n      dup4\n        /* \"#utility.yul\":23956:23976   */\n      tag_597\n      jump\t// in\n    tag_657:\n        /* \"#utility.yul\":23951:23976   */\n      swap3\n      pop\n        /* \"#utility.yul\":24110:24111   */\n      dup3\n        /* \"#utility.yul\":24042:24108   */\n      0xffffffffffffffffffffffffffffffffffffffffffffffffffffffffffffffff\n        /* \"#utility.yul\":24038:24112   */\n      sub\n        /* \"#utility.yul\":24035:24036   */\n      dup3\n        /* \"#utility.yul\":24032:24113   */\n      gt\n        /* \"#utility.yul\":24029:24136   */\n      iszero\n      tag_658\n      jumpi\n        /* \"#utility.yul\":24116:24134   */\n      tag_659\n      tag_660\n      jump\t// in\n    tag_659:\n        /* \"#utility.yul\":24029:24136   */\n    tag_658:\n        /* \"#utility.yul\":24160:24161   */\n      dup3\n        /* \"#utility.yul\":24157:24158   */\n      dup3\n        /* \"#utility.yul\":24153:24162   */\n      add\n        /* \"#utility.yul\":24146:24162   */\n      swap1\n      pop\n        /* \"#utility.yul\":23863:24168   */\n      swap3\n      swap2\n      pop\n      pop\n      jump\t// out\n        /* \"#utility.yul\":24174:24522   */\n    tag_314:\n        /* \"#utility.yul\":24214:24221   */\n      0x00\n        /* \"#utility.yul\":24237:24257   */\n      tag_662\n        /* \"#utility.yul\":24255:24256   */\n      dup3\n        /* \"#utility.yul\":24237:24257   */\n      tag_597\n      jump\t// in\n    tag_662:\n        /* \"#utility.yul\":24232:24257   */\n      swap2\n      pop\n        /* \"#utility.yul\":24271:24291   */\n      tag_663\n        /* \"#utility.yul\":24289:24290   */\n      dup4\n        /* \"#utility.yul\":24271:24291   */\n      tag_597\n      jump\t// in\n    tag_663:\n        /* \"#utility.yul\":24266:24291   */\n      swap3\n      pop\n        /* \"#utility.yul\":24459:24460   */\n      dup2\n        /* \"#utility.yul\":24391:24457   */\n      0xffffffffffffffffffffffffffffffffffffffffffffffffffffffffffffffff\n        /* \"#utility.yul\":24387:24461   */\n      div\n        /* \"#utility.yul\":24384:24385   */\n      dup4\n        /* \"#utility.yul\":24381:24462   */\n      gt\n        /* \"#utility.yul\":24376:24377   */\n      dup3\n        /* \"#utility.yul\":24369:24378   */\n      iszero\n        /* \"#utility.yul\":24362:24379   */\n      iszero\n        /* \"#utility.yul\":24358:24463   */\n      and\n        /* \"#utility.yul\":24355:24486   */\n      iszero\n      tag_664\n      jumpi\n        /* \"#utility.yul\":24466:24484   */\n      tag_665\n      tag_660\n      jump\t// in\n    tag_665:\n        /* \"#utility.yul\":24355:24486   */\n    tag_664:\n        /* \"#utility.yul\":24514:24515   */\n      dup3\n        /* \"#utility.yul\":24511:24512   */\n      dup3\n        /* \"#utility.yul\":24507:24516   */\n      mul\n        /* \"#utility.yul\":24496:24516   */\n      swap1\n      pop\n        /* \"#utility.yul\":24174:24522   */\n      swap3\n      swap2\n      pop\n      pop\n      jump\t// out\n        /* \"#utility.yul\":24528:24719   */\n    tag_384:\n        /* \"#utility.yul\":24568:24572   */\n      0x00\n        /* \"#utility.yul\":24588:24608   */\n      tag_667\n        /* \"#utility.yul\":24606:24607   */\n      dup3\n        /* \"#utility.yul\":24588:24608   */\n      tag_597\n      jump\t// in\n    tag_667:\n        /* \"#utility.yul\":24583:24608   */\n      swap2\n      pop\n        /* \"#utility.yul\":24622:24642   */\n      tag_668\n        /* \"#utility.yul\":24640:24641   */\n      dup4\n        /* \"#utility.yul\":24622:24642   */\n      tag_597\n      jump\t// in\n    tag_668:\n        /* \"#utility.yul\":24617:24642   */\n      swap3\n      pop\n        /* \"#utility.yul\":24661:24662   */\n      dup3\n        /* \"#utility.yul\":24658:24659   */\n      dup3\n        /* \"#utility.yul\":24655:24663   */\n      lt\n        /* \"#utility.yul\":24652:24686   */\n      iszero\n      tag_669\n      jumpi\n        /* \"#utility.yul\":24666:24684   */\n      tag_670\n      tag_660\n      jump\t// in\n    tag_670:\n        /* \"#utility.yul\":24652:24686   */\n    tag_669:\n        /* \"#utility.yul\":24711:24712   */\n      dup3\n        /* \"#utility.yul\":24708:24709   */\n      dup3\n        /* \"#utility.yul\":24704:24713   */\n      sub\n        /* \"#utility.yul\":24696:24713   */\n      swap1\n      pop\n        /* \"#utility.yul\":24528:24719   */\n      swap3\n      swap2\n      pop\n      pop\n      jump\t// out\n        /* \"#utility.yul\":24725:24821   */\n    tag_489:\n        /* \"#utility.yul\":24762:24769   */\n      0x00\n        /* \"#utility.yul\":24791:24815   */\n      tag_672\n        /* \"#utility.yul\":24809:24814   */\n      dup3\n        /* \"#utility.yul\":24791:24815   */\n      tag_673\n      jump\t// in\n    tag_672:\n        /* \"#utility.yul\":24780:24815   */\n      swap1\n      pop\n        /* \"#utility.yul\":24725:24821   */\n      swap2\n      swap1\n      pop\n      jump\t// out\n        /* \"#utility.yul\":24827:24917   */\n    tag_493:\n        /* \"#utility.yul\":24861:24868   */\n      0x00\n        /* \"#utility.yul\":24904:24909   */\n      dup2\n        /* \"#utility.yul\":24897:24910   */\n      iszero\n        /* \"#utility.yul\":24890:24911   */\n      iszero\n        /* \"#utility.yul\":24879:24911   */\n      swap1\n      pop\n        /* \"#utility.yul\":24827:24917   */\n      swap2\n      swap1\n      pop\n      jump\t// out\n        /* \"#utility.yul\":24923:25000   */\n    tag_497:\n        /* \"#utility.yul\":24960:24967   */\n      0x00\n        /* \"#utility.yul\":24989:24994   */\n      dup2\n        /* \"#utility.yul\":24978:24994   */\n      swap1\n      pop\n        /* \"#utility.yul\":24923:25000   */\n      swap2\n      swap1\n      pop\n      jump\t// out\n        /* \"#utility.yul\":25006:25155   */\n    tag_676:\n        /* \"#utility.yul\":25062:25069   */\n      0x00\n        /* \"#utility.yul\":25091:25096   */\n      dup2\n        /* \"#utility.yul\":25080:25096   */\n      swap1\n      pop\n        /* \"#utility.yul\":25097:25149   */\n      tag_678\n        /* \"#utility.yul\":25143:25148   */\n      dup3\n        /* \"#utility.yul\":25097:25149   */\n      tag_679\n      jump\t// in\n    tag_678:\n        /* \"#utility.yul\":25006:25155   */\n      swap2\n      swap1\n      pop\n      jump\t// out\n        /* \"#utility.yul\":25161:25308   */\n    tag_680:\n        /* \"#utility.yul\":25216:25223   */\n      0x00\n        /* \"#utility.yul\":25245:25250   */\n      dup2\n        /* \"#utility.yul\":25234:25250   */\n      swap1\n      pop\n        /* \"#utility.yul\":25251:25302   */\n      tag_682\n        /* \"#utility.yul\":25296:25301   */\n      dup3\n        /* \"#utility.yul\":25251:25302   */\n      tag_683\n      jump\t// in\n    tag_682:\n        /* \"#utility.yul\":25161:25308   */\n      swap2\n      swap1\n      pop\n      jump\t// out\n        /* \"#utility.yul\":25314:25457   */\n    tag_684:\n        /* \"#utility.yul\":25367:25374   */\n      0x00\n        /* \"#utility.yul\":25396:25401   */\n      dup2\n        /* \"#utility.yul\":25385:25401   */\n      swap1\n      pop\n        /* \"#utility.yul\":25402:25451   */\n      tag_686\n        /* \"#utility.yul\":25445:25450   */\n      dup3\n        /* \"#utility.yul\":25402:25451   */\n      tag_687\n      jump\t// in\n    tag_686:\n        /* \"#utility.yul\":25314:25457   */\n      swap2\n      swap1\n      pop\n      jump\t// out\n        /* \"#utility.yul\":25463:25589   */\n    tag_673:\n        /* \"#utility.yul\":25500:25507   */\n      0x00\n        /* \"#utility.yul\":25540:25582   */\n      0xffffffffffffffffffffffffffffffffffffffff\n        /* \"#utility.yul\":25533:25538   */\n      dup3\n        /* \"#utility.yul\":25529:25583   */\n      and\n        /* \"#utility.yul\":25518:25583   */\n      swap1\n      pop\n        /* \"#utility.yul\":25463:25589   */\n      swap2\n      swap1\n      pop\n      jump\t// out\n        /* \"#utility.yul\":25595:25672   */\n    tag_597:\n        /* \"#utility.yul\":25632:25639   */\n      0x00\n        /* \"#utility.yul\":25661:25666   */\n      dup2\n        /* \"#utility.yul\":25650:25666   */\n      swap1\n      pop\n        /* \"#utility.yul\":25595:25672   */\n      swap2\n      swap1\n      pop\n      jump\t// out\n        /* \"#utility.yul\":25678:25827   */\n    tag_504:\n        /* \"#utility.yul\":25745:25754   */\n      0x00\n        /* \"#utility.yul\":25778:25821   */\n      tag_691\n        /* \"#utility.yul\":25815:25820   */\n      dup3\n        /* \"#utility.yul\":25778:25821   */\n      tag_676\n      jump\t// in\n    tag_691:\n        /* \"#utility.yul\":25765:25821   */\n      swap1\n      pop\n        /* \"#utility.yul\":25678:25827   */\n      swap2\n      swap1\n      pop\n      jump\t// out\n        /* \"#utility.yul\":25833:25980   */\n    tag_508:\n        /* \"#utility.yul\":25899:25908   */\n      0x00\n        /* \"#utility.yul\":25932:25974   */\n      tag_693\n        /* \"#utility.yul\":25968:25973   */\n      dup3\n        /* \"#utility.yul\":25932:25974   */\n      tag_680\n      jump\t// in\n    tag_693:\n        /* \"#utility.yul\":25919:25974   */\n      swap1\n      pop\n        /* \"#utility.yul\":25833:25980   */\n      swap2\n      swap1\n      pop\n      jump\t// out\n        /* \"#utility.yul\":25986:26129   */\n    tag_515:\n        /* \"#utility.yul\":26050:26059   */\n      0x00\n        /* \"#utility.yul\":26083:26123   */\n      tag_695\n        /* \"#utility.yul\":26117:26122   */\n      dup3\n        /* \"#utility.yul\":26083:26123   */\n      tag_684\n      jump\t// in\n    tag_695:\n        /* \"#utility.yul\":26070:26123   */\n      swap1\n      pop\n        /* \"#utility.yul\":25986:26129   */\n      swap2\n      swap1\n      pop\n      jump\t// out\n        /* \"#utility.yul\":26135:26416   */\n    tag_651:\n        /* \"#utility.yul\":26218:26245   */\n      tag_697\n        /* \"#utility.yul\":26240:26244   */\n      dup3\n        /* \"#utility.yul\":26218:26245   */\n      tag_698\n      jump\t// in\n    tag_697:\n        /* \"#utility.yul\":26210:26216   */\n      dup2\n        /* \"#utility.yul\":26206:26246   */\n      add\n        /* \"#utility.yul\":26348:26354   */\n      dup2\n        /* \"#utility.yul\":26336:26346   */\n      dup2\n        /* \"#utility.yul\":26333:26355   */\n      lt\n        /* \"#utility.yul\":26312:26330   */\n      0xffffffffffffffff\n        /* \"#utility.yul\":26300:26310   */\n      dup3\n        /* \"#utility.yul\":26297:26331   */\n      gt\n        /* \"#utility.yul\":26294:26356   */\n      or\n        /* \"#utility.yul\":26291:26379   */\n      iszero\n      tag_699\n      jumpi\n        /* \"#utility.yul\":26359:26377   */\n      tag_700\n      tag_701\n      jump\t// in\n    tag_700:\n        /* \"#utility.yul\":26291:26379   */\n    tag_699:\n        /* \"#utility.yul\":26399:26409   */\n      dup1\n        /* \"#utility.yul\":26395:26397   */\n      0x40\n        /* \"#utility.yul\":26388:26410   */\n      mstore\n        /* \"#utility.yul\":26178:26416   */\n      pop\n        /* \"#utility.yul\":26135:26416   */\n      pop\n      pop\n      jump\t// out\n        /* \"#utility.yul\":26422:26655   */\n    tag_206:\n        /* \"#utility.yul\":26461:26464   */\n      0x00\n        /* \"#utility.yul\":26484:26508   */\n      tag_703\n        /* \"#utility.yul\":26502:26507   */\n      dup3\n        /* \"#utility.yul\":26484:26508   */\n      tag_597\n      jump\t// in\n    tag_703:\n        /* \"#utility.yul\":26475:26508   */\n      swap2\n      pop\n        /* \"#utility.yul\":26530:26596   */\n      0xffffffffffffffffffffffffffffffffffffffffffffffffffffffffffffffff\n        /* \"#utility.yul\":26523:26528   */\n      dup3\n        /* \"#utility.yul\":26520:26597   */\n      eq\n        /* \"#utility.yul\":26517:26620   */\n      iszero\n      tag_704\n      jumpi\n        /* \"#utility.yul\":26600:26618   */\n      tag_705\n      tag_660\n      jump\t// in\n    tag_705:\n        /* \"#utility.yul\":26517:26620   */\n    tag_704:\n        /* \"#utility.yul\":26647:26648   */\n      0x01\n        /* \"#utility.yul\":26640:26645   */\n      dup3\n        /* \"#utility.yul\":26636:26649   */\n      add\n        /* \"#utility.yul\":26629:26649   */\n      swap1\n      pop\n        /* \"#utility.yul\":26422:26655   */\n      swap2\n      swap1\n      pop\n      jump\t// out\n        /* \"#utility.yul\":26661:26841   */\n    tag_660:\n        /* \"#utility.yul\":26709:26786   */\n      0x4e487b7100000000000000000000000000000000000000000000000000000000\n        /* \"#utility.yul\":26706:26707   */\n      0x00\n        /* \"#utility.yul\":26699:26787   */\n      mstore\n        /* \"#utility.yul\":26806:26810   */\n      0x11\n        /* \"#utility.yul\":26803:26804   */\n      0x04\n        /* \"#utility.yul\":26796:26811   */\n      mstore\n        /* \"#utility.yul\":26830:26834   */\n      0x24\n        /* \"#utility.yul\":26827:26828   */\n      0x00\n        /* \"#utility.yul\":26820:26835   */\n      revert\n        /* \"#utility.yul\":26847:27027   */\n    tag_172:\n        /* \"#utility.yul\":26895:26972   */\n      0x4e487b7100000000000000000000000000000000000000000000000000000000\n        /* \"#utility.yul\":26892:26893   */\n      0x00\n        /* \"#utility.yul\":26885:26973   */\n      mstore\n        /* \"#utility.yul\":26992:26996   */\n      0x21\n        /* \"#utility.yul\":26989:26990   */\n      0x04\n        /* \"#utility.yul\":26982:26997   */\n      mstore\n        /* \"#utility.yul\":27016:27020   */\n      0x24\n        /* \"#utility.yul\":27013:27014   */\n      0x00\n        /* \"#utility.yul\":27006:27021   */\n      revert\n        /* \"#utility.yul\":27033:27213   */\n    tag_395:\n        /* \"#utility.yul\":27081:27158   */\n      0x4e487b7100000000000000000000000000000000000000000000000000000000\n        /* \"#utility.yul\":27078:27079   */\n      0x00\n        /* \"#utility.yul\":27071:27159   */\n      mstore\n        /* \"#utility.yul\":27178:27182   */\n      0x31\n        /* \"#utility.yul\":27175:27176   */\n      0x04\n        /* \"#utility.yul\":27168:27183   */\n      mstore\n        /* \"#utility.yul\":27202:27206   */\n      0x24\n        /* \"#utility.yul\":27199:27200   */\n      0x00\n        /* \"#utility.yul\":27192:27207   */\n      revert\n        /* \"#utility.yul\":27219:27399   */\n    tag_377:\n        /* \"#utility.yul\":27267:27344   */\n      0x4e487b7100000000000000000000000000000000000000000000000000000000\n        /* \"#utility.yul\":27264:27265   */\n      0x00\n        /* \"#utility.yul\":27257:27345   */\n      mstore\n        /* \"#utility.yul\":27364:27368   */\n      0x32\n        /* \"#utility.yul\":27361:27362   */\n      0x04\n        /* \"#utility.yul\":27354:27369   */\n      mstore\n        /* \"#utility.yul\":27388:27392   */\n      0x24\n        /* \"#utility.yul\":27385:27386   */\n      0x00\n        /* \"#utility.yul\":27378:27393   */\n      revert\n        /* \"#utility.yul\":27405:27585   */\n    tag_701:\n        /* \"#utility.yul\":27453:27530   */\n      0x4e487b7100000000000000000000000000000000000000000000000000000000\n        /* \"#utility.yul\":27450:27451   */\n      0x00\n        /* \"#utility.yul\":27443:27531   */\n      mstore\n        /* \"#utility.yul\":27550:27554   */\n      0x41\n        /* \"#utility.yul\":27547:27548   */\n      0x04\n        /* \"#utility.yul\":27540:27555   */\n      mstore\n        /* \"#utility.yul\":27574:27578   */\n      0x24\n        /* \"#utility.yul\":27571:27572   */\n      0x00\n        /* \"#utility.yul\":27564:27579   */\n      revert\n        /* \"#utility.yul\":27591:27708   */\n    tag_420:\n        /* \"#utility.yul\":27700:27701   */\n      0x00\n        /* \"#utility.yul\":27697:27698   */\n      dup1\n        /* \"#utility.yul\":27690:27702   */\n      revert\n        /* \"#utility.yul\":27960:28077   */\n    tag_439:\n        /* \"#utility.yul\":28069:28070   */\n      0x00\n        /* \"#utility.yul\":28066:28067   */\n      dup1\n        /* \"#utility.yul\":28059:28071   */\n      revert\n        /* \"#utility.yul\":28083:28185   */\n    tag_698:\n        /* \"#utility.yul\":28124:28130   */\n      0x00\n        /* \"#utility.yul\":28175:28177   */\n      0x1f\n        /* \"#utility.yul\":28171:28178   */\n      not\n        /* \"#utility.yul\":28166:28168   */\n      0x1f\n        /* \"#utility.yul\":28159:28164   */\n      dup4\n        /* \"#utility.yul\":28155:28169   */\n      add\n        /* \"#utility.yul\":28151:28179   */\n      and\n        /* \"#utility.yul\":28141:28179   */\n      swap1\n      pop\n        /* \"#utility.yul\":28083:28185   */\n      swap2\n      swap1\n      pop\n      jump\t// out\n        /* \"#utility.yul\":28191:28424   */\n    tag_524:\n        /* \"#utility.yul\":28331:28365   */\n      0x54686520666f6c6c6f77696e6720636f6e74726163742068617320616c726561\n        /* \"#utility.yul\":28327:28328   */\n      0x00\n        /* \"#utility.yul\":28319:28325   */\n      dup3\n        /* \"#utility.yul\":28315:28329   */\n      add\n        /* \"#utility.yul\":28308:28366   */\n      mstore\n        /* \"#utility.yul\":28400:28416   */\n      0x6479206265656e2061646465642e000000000000000000000000000000000000\n        /* \"#utility.yul\":28395:28397   */\n      0x20\n        /* \"#utility.yul\":28387:28393   */\n      dup3\n        /* \"#utility.yul\":28383:28398   */\n      add\n        /* \"#utility.yul\":28376:28417   */\n      mstore\n        /* \"#utility.yul\":28191:28424   */\n      pop\n      jump\t// out\n        /* \"#utility.yul\":28430:28662   */\n    tag_529:\n        /* \"#utility.yul\":28570:28604   */\n      0x54686520666f6c6c6f77696e672076656869636c652068617320616c72656164\n        /* \"#utility.yul\":28566:28567   */\n      0x00\n        /* \"#utility.yul\":28558:28564   */\n      dup3\n        /* \"#utility.yul\":28554:28568   */\n      add\n        /* \"#utility.yul\":28547:28605   */\n      mstore\n        /* \"#utility.yul\":28639:28654   */\n      0x79206265656e2061646465642e00000000000000000000000000000000000000\n        /* \"#utility.yul\":28634:28636   */\n      0x20\n        /* \"#utility.yul\":28626:28632   */\n      dup3\n        /* \"#utility.yul\":28622:28637   */\n      add\n        /* \"#utility.yul\":28615:28655   */\n      mstore\n        /* \"#utility.yul\":28430:28662   */\n      pop\n      jump\t// out\n        /* \"#utility.yul\":28668:28919   */\n    tag_534:\n        /* \"#utility.yul\":28808:28842   */\n      0x436f756c64206e6f742070726f63656564206265636175736520746865726520\n        /* \"#utility.yul\":28804:28805   */\n      0x00\n        /* \"#utility.yul\":28796:28802   */\n      dup3\n        /* \"#utility.yul\":28792:28806   */\n      add\n        /* \"#utility.yul\":28785:28843   */\n      mstore\n        /* \"#utility.yul\":28877:28911   */\n      0x6973206e6f7420656e6f7567682045544820696e20796f75722077616c6c6574\n        /* \"#utility.yul\":28872:28874   */\n      0x20\n        /* \"#utility.yul\":28864:28870   */\n      dup3\n        /* \"#utility.yul\":28860:28875   */\n      add\n        /* \"#utility.yul\":28853:28912   */\n      mstore\n        /* \"#utility.yul\":28668:28919   */\n      pop\n      jump\t// out\n        /* \"#utility.yul\":28925:29096   */\n    tag_539:\n        /* \"#utility.yul\":29065:29088   */\n      0x5265737472696374656420746f206f776e6572732e0000000000000000000000\n        /* \"#utility.yul\":29061:29062   */\n      0x00\n        /* \"#utility.yul\":29053:29059   */\n      dup3\n        /* \"#utility.yul\":29049:29063   */\n      add\n        /* \"#utility.yul\":29042:29089   */\n      mstore\n        /* \"#utility.yul\":28925:29096   */\n      pop\n      jump\t// out\n        /* \"#utility.yul\":29102:29272   */\n    tag_544:\n        /* \"#utility.yul\":29242:29264   */\n      0x4661696c656420746f2073656e64204574686572000000000000000000000000\n        /* \"#utility.yul\":29238:29239   */\n      0x00\n        /* \"#utility.yul\":29230:29236   */\n      dup3\n        /* \"#utility.yul\":29226:29240   */\n      add\n        /* \"#utility.yul\":29219:29265   */\n      mstore\n        /* \"#utility.yul\":29102:29272   */\n      pop\n      jump\t// out\n        /* \"#utility.yul\":29278:29513   */\n    tag_549:\n        /* \"#utility.yul\":29418:29452   */\n      0x5468652073656c65637465642076656869636c652069732063757272656e746c\n        /* \"#utility.yul\":29414:29415   */\n      0x00\n        /* \"#utility.yul\":29406:29412   */\n      dup3\n        /* \"#utility.yul\":29402:29416   */\n      add\n        /* \"#utility.yul\":29395:29453   */\n      mstore\n        /* \"#utility.yul\":29487:29505   */\n      0x79206e6f7420617661696c61626c652e00000000000000000000000000000000\n        /* \"#utility.yul\":29482:29484   */\n      0x20\n        /* \"#utility.yul\":29474:29480   */\n      dup3\n        /* \"#utility.yul\":29470:29485   */\n      add\n        /* \"#utility.yul\":29463:29506   */\n      mstore\n        /* \"#utility.yul\":29278:29513   */\n      pop\n      jump\t// out\n        /* \"#utility.yul\":29519:29768   */\n    tag_554:\n        /* \"#utility.yul\":29659:29693   */\n      0x54686520666f6c6c6f77696e6720636f6e747261637420636f756c64206e6f74\n        /* \"#utility.yul\":29655:29656   */\n      0x00\n        /* \"#utility.yul\":29647:29653   */\n      dup3\n        /* \"#utility.yul\":29643:29657   */\n      add\n        /* \"#utility.yul\":29636:29694   */\n      mstore\n        /* \"#utility.yul\":29728:29760   */\n      0x20626520666f756e6420696e20746865206d617070696e67206c6973742e0000\n        /* \"#utility.yul\":29723:29725   */\n      0x20\n        /* \"#utility.yul\":29715:29721   */\n      dup3\n        /* \"#utility.yul\":29711:29726   */\n      add\n        /* \"#utility.yul\":29704:29761   */\n      mstore\n        /* \"#utility.yul\":29519:29768   */\n      pop\n      jump\t// out\n        /* \"#utility.yul\":29774:29888   */\n    tag_560:\n      pop\n      jump\t// out\n        /* \"#utility.yul\":29894:30066   */\n    tag_565:\n        /* \"#utility.yul\":30034:30058   */\n      0x5265737472696374656420746f2072656e746572732e00000000000000000000\n        /* \"#utility.yul\":30030:30031   */\n      0x00\n        /* \"#utility.yul\":30022:30028   */\n      dup3\n        /* \"#utility.yul\":30018:30032   */\n      add\n        /* \"#utility.yul\":30011:30059   */\n      mstore\n        /* \"#utility.yul\":29894:30066   */\n      pop\n      jump\t// out\n        /* \"#utility.yul\":30072:30320   */\n    tag_570:\n        /* \"#utility.yul\":30212:30246   */\n      0x54686520666f6c6c6f77696e672076656869636c6520636f756c64206e6f7420\n        /* \"#utility.yul\":30208:30209   */\n      0x00\n        /* \"#utility.yul\":30200:30206   */\n      dup3\n        /* \"#utility.yul\":30196:30210   */\n      add\n        /* \"#utility.yul\":30189:30247   */\n      mstore\n        /* \"#utility.yul\":30281:30312   */\n      0x626520666f756e6420696e20746865206d617070696e67206c6973742e000000\n        /* \"#utility.yul\":30276:30278   */\n      0x20\n        /* \"#utility.yul\":30268:30274   */\n      dup3\n        /* \"#utility.yul\":30264:30279   */\n      add\n        /* \"#utility.yul\":30257:30313   */\n      mstore\n        /* \"#utility.yul\":30072:30320   */\n      pop\n      jump\t// out\n        /* \"#utility.yul\":30326:30450   */\n    tag_679:\n        /* \"#utility.yul\":30418:30419   */\n      0x03\n        /* \"#utility.yul\":30411:30416   */\n      dup2\n        /* \"#utility.yul\":30408:30420   */\n      lt\n        /* \"#utility.yul\":30398:30444   */\n      tag_729\n      jumpi\n        /* \"#utility.yul\":30424:30442   */\n      tag_730\n      tag_172\n      jump\t// in\n    tag_730:\n        /* \"#utility.yul\":30398:30444   */\n    tag_729:\n        /* \"#utility.yul\":30326:30450   */\n      pop\n      jump\t// out\n        /* \"#utility.yul\":30456:30579   */\n    tag_683:\n        /* \"#utility.yul\":30547:30548   */\n      0x02\n        /* \"#utility.yul\":30540:30545   */\n      dup2\n        /* \"#utility.yul\":30537:30549   */\n      lt\n        /* \"#utility.yul\":30527:30573   */\n      tag_732\n      jumpi\n        /* \"#utility.yul\":30553:30571   */\n      tag_733\n      tag_172\n      jump\t// in\n    tag_733:\n        /* \"#utility.yul\":30527:30573   */\n    tag_732:\n        /* \"#utility.yul\":30456:30579   */\n      pop\n      jump\t// out\n        /* \"#utility.yul\":30585:30706   */\n    tag_687:\n        /* \"#utility.yul\":30674:30675   */\n      0x07\n        /* \"#utility.yul\":30667:30672   */\n      dup2\n        /* \"#utility.yul\":30664:30676   */\n      lt\n        /* \"#utility.yul\":30654:30700   */\n      tag_735\n      jumpi\n        /* \"#utility.yul\":30680:30698   */\n      tag_736\n      tag_172\n      jump\t// in\n    tag_736:\n        /* \"#utility.yul\":30654:30700   */\n    tag_735:\n        /* \"#utility.yul\":30585:30706   */\n      pop\n      jump\t// out\n        /* \"#utility.yul\":30712:30834   */\n    tag_407:\n        /* \"#utility.yul\":30785:30809   */\n      tag_738\n        /* \"#utility.yul\":30803:30808   */\n      dup2\n        /* \"#utility.yul\":30785:30809   */\n      tag_489\n      jump\t// in\n    tag_738:\n        /* \"#utility.yul\":30778:30783   */\n      dup2\n        /* \"#utility.yul\":30775:30810   */\n      eq\n        /* \"#utility.yul\":30765:30828   */\n      tag_739\n      jumpi\n        /* \"#utility.yul\":30824:30825   */\n      0x00\n        /* \"#utility.yul\":30821:30822   */\n      dup1\n        /* \"#utility.yul\":30814:30826   */\n      revert\n        /* \"#utility.yul\":30765:30828   */\n    tag_739:\n        /* \"#utility.yul\":30712:30834   */\n      pop\n      jump\t// out\n        /* \"#utility.yul\":30840:30962   */\n    tag_411:\n        /* \"#utility.yul\":30913:30937   */\n      tag_741\n        /* \"#utility.yul\":30931:30936   */\n      dup2\n        /* \"#utility.yul\":30913:30937   */\n      tag_497\n      jump\t// in\n    tag_741:\n        /* \"#utility.yul\":30906:30911   */\n      dup2\n        /* \"#utility.yul\":30903:30938   */\n      eq\n        /* \"#utility.yul\":30893:30956   */\n      tag_742\n      jumpi\n        /* \"#utility.yul\":30952:30953   */\n      0x00\n        /* \"#utility.yul\":30949:30950   */\n      dup1\n        /* \"#utility.yul\":30942:30954   */\n      revert\n        /* \"#utility.yul\":30893:30956   */\n    tag_742:\n        /* \"#utility.yul\":30840:30962   */\n      pop\n      jump\t// out\n        /* \"#utility.yul\":30968:31083   */\n    tag_415:\n        /* \"#utility.yul\":31057:31058   */\n      0x07\n        /* \"#utility.yul\":31050:31055   */\n      dup2\n        /* \"#utility.yul\":31047:31059   */\n      lt\n        /* \"#utility.yul\":31037:31077   */\n      tag_744\n      jumpi\n        /* \"#utility.yul\":31073:31074   */\n      0x00\n        /* \"#utility.yul\":31070:31071   */\n      dup1\n        /* \"#utility.yul\":31063:31075   */\n      revert\n        /* \"#utility.yul\":31037:31077   */\n    tag_744:\n        /* \"#utility.yul\":30968:31083   */\n      pop\n      jump\t// out\n        /* \"#utility.yul\":31089:31211   */\n    tag_435:\n        /* \"#utility.yul\":31162:31186   */\n      tag_746\n        /* \"#utility.yul\":31180:31185   */\n      dup2\n        /* \"#utility.yul\":31162:31186   */\n      tag_597\n      jump\t// in\n    tag_746:\n        /* \"#utility.yul\":31155:31160   */\n      dup2\n        /* \"#utility.yul\":31152:31187   */\n      eq\n        /* \"#utility.yul\":31142:31205   */\n      tag_747\n      jumpi\n        /* \"#utility.yul\":31201:31202   */\n      0x00\n        /* \"#utility.yul\":31198:31199   */\n      dup1\n        /* \"#utility.yul\":31191:31203   */\n      revert\n        /* \"#utility.yul\":31142:31205   */\n    tag_747:\n        /* \"#utility.yul\":31089:31211   */\n      pop\n      jump\t// out\n\n    auxdata: 0xa2646970667358221220d9a622b477ba69fbb28fd50d8142ec0a3fb7fc3ca5cef811214b0314342a2f2b64736f6c63430008070033\n}\n",
				"bytecode": {
					"linkReferences": {},
					"object": "60806040526000600355600060045534801561001a57600080fd5b506132578061002a6000396000f3fe6080604052600436106101665760003560e01c80638736381a116100d1578063a1a252431161008a578063b97c9f7711610064578063b97c9f77146105a1578063ca15c873146105cc578063de8b198914610609578063e58378bb1461063257610166565b8063a1a2524314610508578063a36a5d8d14610545578063b8ba95fa1461055c57610166565b80638736381a146103cb57806387b50547146103f65780639010d07c1461042657806391d148541461046357806399704937146104a05780639f2bc40e146104cb57610166565b8063648bbc8611610123578063648bbc861461029157806369a8f49e146102ce5780637065cb481461031357806374539cd01461033c57806379b67caa146103585780637b66fe2e1461038857610166565b806302aec3ce1461016b578063173825d91461019457806328c23a45146101bd5780632f54bf6e146101d457806337c3510a14610211578063474da79a1461024e575b600080fd5b34801561017757600080fd5b50610192600480360381019061018d9190612356565b61065d565b005b3480156101a057600080fd5b506101bb60048036038101906101b69190612356565b61068a565b005b3480156101c957600080fd5b506101d26106b7565b005b3480156101e057600080fd5b506101fb60048036038101906101f69190612356565b6106e3565b60405161020891906129d3565b60405180910390f35b34801561021d57600080fd5b5061023860048036038101906102339190612593565b610716565b60405161024591906129d3565b60405180910390f35b34801561025a57600080fd5b50610275600480360381019061027091906124d3565b6108c2565b604051610288979695949392919061295e565b60405180910390f35b34801561029d57600080fd5b506102b860048036038101906102b391906123f0565b610a44565b6040516102c591906129d3565b60405180910390f35b3480156102da57600080fd5b506102f560048036038101906102f091906124d3565b610d3d565b60405161030a99989796959493929190612b44565b60405180910390f35b34801561031f57600080fd5b5061033a60048036038101906103359190612356565b610dc3565b005b610356600480360381019061035191906124d3565b610e31565b005b610372600480360381019061036d9190612553565b610e34565b60405161037f91906129d3565b60405180910390f35b34801561039457600080fd5b506103af60048036038101906103aa91906124d3565b611200565b6040516103c2979695949392919061295e565b60405180910390f35b3480156103d757600080fd5b506103e0611372565b6040516103ed9190612b29565b60405180910390f35b610410600480360381019061040b9190612553565b611378565b60405161041d91906129d3565b60405180910390f35b34801561043257600080fd5b5061044d60048036038101906104489190612493565b611685565b60405161045a9190612943565b60405180910390f35b34801561046f57600080fd5b5061048a600480360381019061048591906123b0565b6116b3565b60405161049791906129d3565b60405180910390f35b3480156104ac57600080fd5b506104b56116e1565b6040516104c29190612b29565b60405180910390f35b3480156104d757600080fd5b506104f260048036038101906104ed9190612356565b6116e7565b6040516104ff91906129d3565b60405180910390f35b34801561051457600080fd5b5061052f600480360381019061052a9190612500565b61171a565b60405161053c91906129d3565b60405180910390f35b34801561055157600080fd5b5061055a611cfd565b005b34801561056857600080fd5b50610583600480360381019061057e91906124d3565b611d29565b60405161059899989796959493929190612b44565b60405180910390f35b3480156105ad57600080fd5b506105b6611dbf565b6040516105c391906129ee565b60405180910390f35b3480156105d857600080fd5b506105f360048036038101906105ee9190612383565b611de3565b6040516106009190612b29565b60405180910390f35b34801561061557600080fd5b50610630600480360381019061062b9190612356565b611e06565b005b34801561063e57600080fd5b50610647611e74565b60405161065491906129ee565b60405180910390f35b6106877f52454e544552000000000000000000000000000000000000000000000000000082611e98565b50565b6106b47f4f574e455200000000000000000000000000000000000000000000000000000082611e98565b50565b6106e17f4f574e455200000000000000000000000000000000000000000000000000000033611e98565b565b600061070f7f4f574e4552000000000000000000000000000000000000000000000000000000836116b3565b9050919050565b6000610721336116e7565b610760576040517f08c379a000000000000000000000000000000000000000000000000000000000815260040161075790612ae9565b60405180910390fd5b836000600181111561077557610774612e61565b5b6005600083815260200190815260200160002060090160009054906101000a900460ff1660018111156107ab576107aa612e61565b5b146107eb576040517f08c379a00000000000000000000000000000000000000000000000000000000081526004016107e290612aa9565b60405180910390fd5b83600073ffffffffffffffffffffffffffffffffffffffff166007600083815260200190815260200160002060000160009054906101000a900473ffffffffffffffffffffffffffffffffffffffff1673ffffffffffffffffffffffffffffffffffffffff161415610892576040517f08c379a000000000000000000000000000000000000000000000000000000000815260040161088990612ac9565b60405180910390fd5b8360076000878152602001908152602001600020600e018190555060045460088054905014925050509392505050565b600881815481106108d257600080fd5b90600052602060002090601102016000915090508060000160009054906101000a900473ffffffffffffffffffffffffffffffffffffffff169080600101604051806101200160405290816000820154815260200160018201548152602001600282015481526020016003820160009054906101000a900460ff16600681111561095f5761095e612e61565b5b600681111561097157610970612e61565b5b8152602001600482016040518060400160405290816000820154815260200160018201548152505081526020016006820154815260200160078201548152602001600882015481526020016009820160009054906101000a900460ff1660018111156109e0576109df612e61565b5b60018111156109f2576109f1612e61565b5b815250509080600b01604051806040016040529081600082015481526020016001820154815250509080600d01549080600e01549080600f0154908060100160009054906101000a900460ff16905087565b6000610a4f336106e3565b610a8e576040517f08c379a0000000000000000000000000000000000000000000000000000000008152600401610a8590612a69565b60405180910390fd5b6001600354610a9d9190612c13565b60068054905010610ae3576040517f08c379a0000000000000000000000000000000000000000000000000000000008152600401610ada90612a29565b60405180910390fd5b60036000815480929190610af690612de9565b9190505550600060405180610120016040528060035481526020018a8152602001898152602001886006811115610b3057610b2f612e61565b5b815260200187815260200186815260200185815260200184815260200160006001811115610b6157610b60612e61565b5b81525090508060056000600354815260200190815260200160002060008201518160000155602082015181600101556040820151816002015560608201518160030160006101000a81548160ff02191690836006811115610bc557610bc4612e61565b5b02179055506080820151816004016000820151816000015560208201518160010155505060a0820151816006015560c0820151816007015560e082015181600801556101008201518160090160006101000a81548160ff02191690836001811115610c3357610c32612e61565b5b021790555090505060068190806001815401808255809150506001900390600052602060002090600a020160009091909190915060008201518160000155602082015181600101556040820151816002015560608201518160030160006101000a81548160ff02191690836006811115610cb057610caf612e61565b5b02179055506080820151816004016000820151816000015560208201518160010155505060a0820151816006015560c0820151816007015560e082015181600801556101008201518160090160006101000a81548160ff02191690836001811115610d1e57610d1d612e61565b5b0217905550505060035460068054905014915050979650505050505050565b60056020528060005260406000206000915090508060000154908060010154908060020154908060030160009054906101000a900460ff16908060040160405180604001604052908160008201548152602001600182015481525050908060060154908060070154908060080154908060090160009054906101000a900460ff16905089565b80600260006101000a81548173ffffffffffffffffffffffffffffffffffffffff021916908373ffffffffffffffffffffffffffffffffffffffff160217905550610e2e7f4f574e455200000000000000000000000000000000000000000000000000000082611f28565b50565b50565b6000610e3f336116e7565b610e7e576040517f08c379a0000000000000000000000000000000000000000000000000000000008152600401610e7590612ae9565b60405180910390fd5b816000600560008381526020019081526020016000206000015411610ed8576040517f08c379a0000000000000000000000000000000000000000000000000000000008152600401610ecf90612b09565b60405180910390fd5b8260006001811115610eed57610eec612e61565b5b6005600083815260200190815260200160002060090160009054906101000a900460ff166001811115610f2357610f22612e61565b5b14610f63576040517f08c379a0000000000000000000000000000000000000000000000000000000008152600401610f5a90612aa9565b60405180910390fd5b84600073ffffffffffffffffffffffffffffffffffffffff166007600083815260200190815260200160002060000160009054906101000a900473ffffffffffffffffffffffffffffffffffffffff1673ffffffffffffffffffffffffffffffffffffffff16141561100a576040517f08c379a000000000000000000000000000000000000000000000000000000000815260040161100190612ac9565b60405180910390fd5b85600060076000838152602001908152602001600020600d015460076000848152602001908152602001600020600e01546110459190612c13565b905080600160009054906101000a900473ffffffffffffffffffffffffffffffffffffffff1673ffffffffffffffffffffffffffffffffffffffff163110156110c3576040517f08c379a00000000000000000000000000000000000000000000000000000000081526004016110ba90612a49565b60405180910390fd5b6001600760008a815260200190815260200160002060100160006101000a81548160ff021916908360028111156110fd576110fc612e61565b5b021790555060016005600089815260200190815260200160002060090160006101000a81548160ff0219169083600181111561113c5761113b612e61565b5b02179055506000600760008a8152602001908152602001600020600e0154600760008b8152602001908152602001600020600d015461117b9190612c13565b90503073ffffffffffffffffffffffffffffffffffffffff166374539cd0826040518263ffffffff1660e01b81526004016111b69190612b29565b600060405180830381600087803b1580156111d057600080fd5b505af11580156111e4573d6000803e3d6000fd5b5050505060045460088054905014965050505050505092915050565b60076020528060005260406000206000915090508060000160009054906101000a900473ffffffffffffffffffffffffffffffffffffffff169080600101604051806101200160405290816000820154815260200160018201548152602001600282015481526020016003820160009054906101000a900460ff16600681111561128d5761128c612e61565b5b600681111561129f5761129e612e61565b5b8152602001600482016040518060400160405290816000820154815260200160018201548152505081526020016006820154815260200160078201548152602001600882015481526020016009820160009054906101000a900460ff16600181111561130e5761130d612e61565b5b60018111156113205761131f612e61565b5b815250509080600b01604051806040016040529081600082015481526020016001820154815250509080600d01549080600e01549080600f0154908060100160009054906101000a900460ff16905087565b60045481565b6000611383336116e7565b6113c2576040517f08c379a00000000000000000000000000000000000000000000000000000000081526004016113b990612ae9565b60405180910390fd5b81600060056000838152602001908152602001600020600001541161141c576040517f08c379a000000000000000000000000000000000000000000000000000000000815260040161141390612b09565b60405180910390fd5b83600073ffffffffffffffffffffffffffffffffffffffff166007600083815260200190815260200160002060000160009054906101000a900473ffffffffffffffffffffffffffffffffffffffff1673ffffffffffffffffffffffffffffffffffffffff1614156114c3576040517f08c379a00000000000000000000000000000000000000000000000000000000081526004016114ba90612ac9565b60405180910390fd5b84600060076000838152602001908152602001600020600e0154905080471015611522576040517f08c379a000000000000000000000000000000000000000000000000000000000815260040161151990612a49565b60405180910390fd5b60026007600089815260200190815260200160002060100160006101000a81548160ff0219169083600281111561155c5761155b612e61565b5b021790555060006005600088815260200190815260200160002060090160006101000a81548160ff0219169083600181111561159b5761159a612e61565b5b0217905550600060076000898152602001908152602001600020600e01549050600033905060008173ffffffffffffffffffffffffffffffffffffffff16836040516115e69061292e565b60006040518083038185875af1925050503d8060008114611623576040519150601f19603f3d011682016040523d82523d6000602084013e611628565b606091505b505090508061166c576040517f08c379a000000000000000000000000000000000000000000000000000000000815260040161166390612a89565b60405180910390fd5b6004546008805490501497505050505050505092915050565b60006116ab82600080868152602001908152602001600020611fb890919063ffffffff16565b905092915050565b60006116d982600080868152602001908152602001600020611fd290919063ffffffff16565b905092915050565b60035481565b60006117137f52454e5445520000000000000000000000000000000000000000000000000000836116b3565b9050919050565b6000611725336116e7565b611764576040517f08c379a000000000000000000000000000000000000000000000000000000000815260040161175b90612ae9565b60405180910390fd5b8360006005600083815260200190815260200160002060000154116117be576040517f08c379a00000000000000000000000000000000000000000000000000000000081526004016117b590612b09565b60405180910390fd5b60016004546117cd9190612c13565b60088054905010611813576040517f08c379a000000000000000000000000000000000000000000000000000000000815260040161180a90612a09565b60405180910390fd5b6004600081548092919061182690612de9565b9190505550600083600560008881526020019081526020016000206008015461184f9190612c69565b905060006040518060e001604052803373ffffffffffffffffffffffffffffffffffffffff168152602001600560008a8152602001908152602001600020604051806101200160405290816000820154815260200160018201548152602001600282015481526020016003820160009054906101000a900460ff1660068111156118dc576118db612e61565b5b60068111156118ee576118ed612e61565b5b8152602001600482016040518060400160405290816000820154815260200160018201548152505081526020016006820154815260200160078201548152602001600882015481526020016009820160009054906101000a900460ff16600181111561195d5761195c612e61565b5b600181111561196f5761196e612e61565b5b81525050815260200187815260200183815260200160008152602001428152602001600060028111156119a5576119a4612e61565b5b81525090508060076000600454815260200190815260200160002060008201518160000160006101000a81548173ffffffffffffffffffffffffffffffffffffffff021916908373ffffffffffffffffffffffffffffffffffffffff16021790555060208201518160010160008201518160000155602082015181600101556040820151816002015560608201518160030160006101000a81548160ff02191690836006811115611a5957611a58612e61565b5b02179055506080820151816004016000820151816000015560208201518160010155505060a0820151816006015560c0820151816007015560e082015181600801556101008201518160090160006101000a81548160ff02191690836001811115611ac757611ac6612e61565b5b02179055505050604082015181600b0160008201518160000155602082015181600101555050606082015181600d0155608082015181600e015560a082015181600f015560c08201518160100160006101000a81548160ff02191690836002811115611b3657611b35612e61565b5b0217905550905050600881908060018154018082558091505060019003906000526020600020906011020160009091909190915060008201518160000160006101000a81548173ffffffffffffffffffffffffffffffffffffffff021916908373ffffffffffffffffffffffffffffffffffffffff16021790555060208201518160010160008201518160000155602082015181600101556040820151816002015560608201518160030160006101000a81548160ff02191690836006811115611c0357611c02612e61565b5b02179055506080820151816004016000820151816000015560208201518160010155505060a0820151816006015560c0820151816007015560e082015181600801556101008201518160090160006101000a81548160ff02191690836001811115611c7157611c70612e61565b5b02179055505050604082015181600b0160008201518160000155602082015181600101555050606082015181600d0155608082015181600e015560a082015181600f015560c08201518160100160006101000a81548160ff02191690836002811115611ce057611cdf612e61565b5b021790555050506004546008805490501493505050509392505050565b611d277f52454e544552000000000000000000000000000000000000000000000000000033611e98565b565b60068181548110611d3957600080fd5b90600052602060002090600a02016000915090508060000154908060010154908060020154908060030160009054906101000a900460ff16908060040160405180604001604052908160008201548152602001600182015481525050908060060154908060070154908060080154908060090160009054906101000a900460ff16905089565b7f52454e544552000000000000000000000000000000000000000000000000000081565b6000611dff600080848152602001908152602001600020612002565b9050919050565b80600160006101000a81548173ffffffffffffffffffffffffffffffffffffffff021916908373ffffffffffffffffffffffffffffffffffffffff160217905550611e717f52454e544552000000000000000000000000000000000000000000000000000082611f28565b50565b7f4f574e455200000000000000000000000000000000000000000000000000000081565b611ebc8160008085815260200190815260200160002061201790919063ffffffff16565b15611f2457611ec9612047565b73ffffffffffffffffffffffffffffffffffffffff168173ffffffffffffffffffffffffffffffffffffffff16837ff6391f5c32d9c69d2a47ea670b442974b53935d1edc7fd64eb21e047a839171b60405160405180910390a45b5050565b611f4c8160008085815260200190815260200160002061204f90919063ffffffff16565b15611fb457611f59612047565b73ffffffffffffffffffffffffffffffffffffffff168173ffffffffffffffffffffffffffffffffffffffff16837f2f8788117e7eff1d82e926ec794901d17c78024a50270940304540a733656f0d60405160405180910390a45b5050565b6000611fc7836000018361207f565b60001c905092915050565b6000611ffa836000018373ffffffffffffffffffffffffffffffffffffffff1660001b6120aa565b905092915050565b6000612010826000016120cd565b9050919050565b600061203f836000018373ffffffffffffffffffffffffffffffffffffffff1660001b6120de565b905092915050565b600033905090565b6000612077836000018373ffffffffffffffffffffffffffffffffffffffff1660001b6121f2565b905092915050565b600082600001828154811061209757612096612ebf565b5b9060005260206000200154905092915050565b600080836001016000848152602001908152602001600020541415905092915050565b600081600001805490509050919050565b600080836001016000848152602001908152602001600020549050600081146121e65760006001826121109190612cc3565b90506000600186600001805490506121289190612cc3565b905081811461219757600086600001828154811061214957612148612ebf565b5b906000526020600020015490508087600001848154811061216d5761216c612ebf565b5b90600052602060002001819055508387600101600083815260200190815260200160002081905550505b856000018054806121ab576121aa612e90565b5b6001900381819060005260206000200160009055905585600101600086815260200190815260200160002060009055600193505050506121ec565b60009150505b92915050565b60006121fe83836120aa565b61225757826000018290806001815401808255809150506001900390600052602060002001600090919091909150558260000180549050836001016000848152602001908152602001600020819055506001905061225c565b600090505b92915050565b600081359050612271816131cc565b92915050565b600081359050612286816131e3565b92915050565b60008135905061229b816131fa565b92915050565b6000604082840312156122b7576122b6612f1d565b5b6122c16040612bd2565b905060006122d184828501612277565b60008301525060206122e584828501612277565b60208301525092915050565b60006040828403121561230757612306612f1d565b5b6123116040612bd2565b9050600061232184828501612277565b600083015250602061233584828501612277565b60208301525092915050565b6000813590506123508161320a565b92915050565b60006020828403121561236c5761236b612f22565b5b600061237a84828501612262565b91505092915050565b60006020828403121561239957612398612f22565b5b60006123a784828501612277565b91505092915050565b600080604083850312156123c7576123c6612f22565b5b60006123d585828601612277565b92505060206123e685828601612262565b9150509250929050565b6000806000806000806000610100888a0312156124105761240f612f22565b5b600061241e8a828b01612277565b975050602061242f8a828b01612277565b96505060406124408a828b0161228c565b95505060606124518a828b016122a1565b94505060a06124628a828b01612341565b93505060c06124738a828b01612277565b92505060e06124848a828b01612341565b91505092959891949750929550565b600080604083850312156124aa576124a9612f22565b5b60006124b885828601612277565b92505060206124c985828601612341565b9150509250929050565b6000602082840312156124e9576124e8612f22565b5b60006124f784828501612341565b91505092915050565b60008060006080848603121561251957612518612f22565b5b600061252786828701612341565b9350506020612538868287016122f1565b925050606061254986828701612341565b9150509250925092565b6000806040838503121561256a57612569612f22565b5b600061257885828601612341565b925050602061258985828601612341565b9150509250929050565b6000806000606084860312156125ac576125ab612f22565b5b60006125ba86828701612341565b93505060206125cb86828701612341565b92505060406125dc86828701612341565b9150509250925092565b6125ef81612cf7565b82525050565b6125fe81612d09565b82525050565b61260d81612d15565b82525050565b61261c81612d15565b82525050565b61262b81612d82565b82525050565b61263a81612d94565b82525050565b61264981612d94565b82525050565b61265881612da6565b82525050565b61266781612da6565b82525050565b600061267a602e83612c02565b915061268582612f38565b604082019050919050565b600061269d602d83612c02565b91506126a882612f87565b604082019050919050565b60006126c0604083612c02565b91506126cb82612fd6565b604082019050919050565b60006126e3601583612c02565b91506126ee82613025565b602082019050919050565b6000612706601483612c02565b91506127118261304e565b602082019050919050565b6000612729603083612c02565b915061273482613077565b604082019050919050565b600061274c603e83612c02565b9150612757826130c6565b604082019050919050565b600061276f600083612bf7565b915061277a82613115565b600082019050919050565b6000612792601683612c02565b915061279d82613118565b602082019050919050565b60006127b5603d83612c02565b91506127c082613141565b604082019050919050565b6040820160008201516127e16000850182612604565b5060208201516127f46020850182612604565b50505050565b6040820160008201516128106000850182612604565b5060208201516128236020850182612604565b50505050565b60408201600082015161283f6000850182612604565b5060208201516128526020850182612604565b50505050565b6101408201600082015161286f6000850182612910565b5060208201516128826020850182612604565b5060408201516128956040850182612604565b5060608201516128a8606085018261264f565b5060808201516128bb60808501826127cb565b5060a08201516128ce60c0850182612910565b5060c08201516128e160e0850182612604565b5060e08201516128f5610100850182612910565b5061010082015161290a610120850182612631565b50505050565b61291981612d78565b82525050565b61292881612d78565b82525050565b600061293982612762565b9150819050919050565b600060208201905061295860008301846125e6565b92915050565b600061022082019050612974600083018a6125e6565b6129816020830189612858565b61298f610160830188612829565b61299d6101a083018761291f565b6129ab6101c083018661291f565b6129b96101e083018561291f565b6129c7610200830184612622565b98975050505050505050565b60006020820190506129e860008301846125f5565b92915050565b6000602082019050612a036000830184612613565b92915050565b60006020820190508181036000830152612a228161266d565b9050919050565b60006020820190508181036000830152612a4281612690565b9050919050565b60006020820190508181036000830152612a62816126b3565b9050919050565b60006020820190508181036000830152612a82816126d6565b9050919050565b60006020820190508181036000830152612aa2816126f9565b9050919050565b60006020820190508181036000830152612ac28161271c565b9050919050565b60006020820190508181036000830152612ae28161273f565b9050919050565b60006020820190508181036000830152612b0281612785565b9050919050565b60006020820190508181036000830152612b22816127a8565b9050919050565b6000602082019050612b3e600083018461291f565b92915050565b600061014082019050612b5a600083018c61291f565b612b67602083018b612613565b612b74604083018a612613565b612b81606083018961265e565b612b8e60808301886127fa565b612b9b60c083018761291f565b612ba860e0830186612613565b612bb661010083018561291f565b612bc4610120830184612640565b9a9950505050505050505050565b6000612bdc612bed565b9050612be88282612db8565b919050565b6000604051905090565b600081905092915050565b600082825260208201905092915050565b6000612c1e82612d78565b9150612c2983612d78565b9250827fffffffffffffffffffffffffffffffffffffffffffffffffffffffffffffffff03821115612c5e57612c5d612e32565b5b828201905092915050565b6000612c7482612d78565b9150612c7f83612d78565b9250817fffffffffffffffffffffffffffffffffffffffffffffffffffffffffffffffff0483118215151615612cb857612cb7612e32565b5b828202905092915050565b6000612cce82612d78565b9150612cd983612d78565b925082821015612cec57612ceb612e32565b5b828203905092915050565b6000612d0282612d58565b9050919050565b60008115159050919050565b6000819050919050565b6000819050612d2d82613190565b919050565b6000819050612d40826131a4565b919050565b6000819050612d53826131b8565b919050565b600073ffffffffffffffffffffffffffffffffffffffff82169050919050565b6000819050919050565b6000612d8d82612d1f565b9050919050565b6000612d9f82612d32565b9050919050565b6000612db182612d45565b9050919050565b612dc182612f27565b810181811067ffffffffffffffff82111715612de057612ddf612eee565b5b80604052505050565b6000612df482612d78565b91507fffffffffffffffffffffffffffffffffffffffffffffffffffffffffffffffff821415612e2757612e26612e32565b5b600182019050919050565b7f4e487b7100000000000000000000000000000000000000000000000000000000600052601160045260246000fd5b7f4e487b7100000000000000000000000000000000000000000000000000000000600052602160045260246000fd5b7f4e487b7100000000000000000000000000000000000000000000000000000000600052603160045260246000fd5b7f4e487b7100000000000000000000000000000000000000000000000000000000600052603260045260246000fd5b7f4e487b7100000000000000000000000000000000000000000000000000000000600052604160045260246000fd5b600080fd5b600080fd5b6000601f19601f8301169050919050565b7f54686520666f6c6c6f77696e6720636f6e74726163742068617320616c72656160008201527f6479206265656e2061646465642e000000000000000000000000000000000000602082015250565b7f54686520666f6c6c6f77696e672076656869636c652068617320616c7265616460008201527f79206265656e2061646465642e00000000000000000000000000000000000000602082015250565b7f436f756c64206e6f742070726f6365656420626563617573652074686572652060008201527f6973206e6f7420656e6f7567682045544820696e20796f75722077616c6c6574602082015250565b7f5265737472696374656420746f206f776e6572732e0000000000000000000000600082015250565b7f4661696c656420746f2073656e64204574686572000000000000000000000000600082015250565b7f5468652073656c65637465642076656869636c652069732063757272656e746c60008201527f79206e6f7420617661696c61626c652e00000000000000000000000000000000602082015250565b7f54686520666f6c6c6f77696e6720636f6e747261637420636f756c64206e6f7460008201527f20626520666f756e6420696e20746865206d617070696e67206c6973742e0000602082015250565b50565b7f5265737472696374656420746f2072656e746572732e00000000000000000000600082015250565b7f54686520666f6c6c6f77696e672076656869636c6520636f756c64206e6f742060008201527f626520666f756e6420696e20746865206d617070696e67206c6973742e000000602082015250565b600381106131a1576131a0612e61565b5b50565b600281106131b5576131b4612e61565b5b50565b600781106131c9576131c8612e61565b5b50565b6131d581612cf7565b81146131e057600080fd5b50565b6131ec81612d15565b81146131f757600080fd5b50565b6007811061320757600080fd5b50565b61321381612d78565b811461321e57600080fd5b5056fea2646970667358221220d9a622b477ba69fbb28fd50d8142ec0a3fb7fc3ca5cef811214b0314342a2f2b64736f6c63430008070033",
					"opcodes": "PUSH1 0x80 PUSH1 0x40 MSTORE PUSH1 0x0 PUSH1 0x3 SSTORE PUSH1 0x0 PUSH1 0x4 SSTORE CALLVALUE DUP1 ISZERO PUSH2 0x1A JUMPI PUSH1 0x0 DUP1 REVERT JUMPDEST POP PUSH2 0x3257 DUP1 PUSH2 0x2A PUSH1 0x0 CODECOPY PUSH1 0x0 RETURN INVALID PUSH1 0x80 PUSH1 0x40 MSTORE PUSH1 0x4 CALLDATASIZE LT PUSH2 0x166 JUMPI PUSH1 0x0 CALLDATALOAD PUSH1 0xE0 SHR DUP1 PUSH4 0x8736381A GT PUSH2 0xD1 JUMPI DUP1 PUSH4 0xA1A25243 GT PUSH2 0x8A JUMPI DUP1 PUSH4 0xB97C9F77 GT PUSH2 0x64 JUMPI DUP1 PUSH4 0xB97C9F77 EQ PUSH2 0x5A1 JUMPI DUP1 PUSH4 0xCA15C873 EQ PUSH2 0x5CC JUMPI DUP1 PUSH4 0xDE8B1989 EQ PUSH2 0x609 JUMPI DUP1 PUSH4 0xE58378BB EQ PUSH2 0x632 JUMPI PUSH2 0x166 JUMP JUMPDEST DUP1 PUSH4 0xA1A25243 EQ PUSH2 0x508 JUMPI DUP1 PUSH4 0xA36A5D8D EQ PUSH2 0x545 JUMPI DUP1 PUSH4 0xB8BA95FA EQ PUSH2 0x55C JUMPI PUSH2 0x166 JUMP JUMPDEST DUP1 PUSH4 0x8736381A EQ PUSH2 0x3CB JUMPI DUP1 PUSH4 0x87B50547 EQ PUSH2 0x3F6 JUMPI DUP1 PUSH4 0x9010D07C EQ PUSH2 0x426 JUMPI DUP1 PUSH4 0x91D14854 EQ PUSH2 0x463 JUMPI DUP1 PUSH4 0x99704937 EQ PUSH2 0x4A0 JUMPI DUP1 PUSH4 0x9F2BC40E EQ PUSH2 0x4CB JUMPI PUSH2 0x166 JUMP JUMPDEST DUP1 PUSH4 0x648BBC86 GT PUSH2 0x123 JUMPI DUP1 PUSH4 0x648BBC86 EQ PUSH2 0x291 JUMPI DUP1 PUSH4 0x69A8F49E EQ PUSH2 0x2CE JUMPI DUP1 PUSH4 0x7065CB48 EQ PUSH2 0x313 JUMPI DUP1 PUSH4 0x74539CD0 EQ PUSH2 0x33C JUMPI DUP1 PUSH4 0x79B67CAA EQ PUSH2 0x358 JUMPI DUP1 PUSH4 0x7B66FE2E EQ PUSH2 0x388 JUMPI PUSH2 0x166 JUMP JUMPDEST DUP1 PUSH4 0x2AEC3CE EQ PUSH2 0x16B JUMPI DUP1 PUSH4 0x173825D9 EQ PUSH2 0x194 JUMPI DUP1 PUSH4 0x28C23A45 EQ PUSH2 0x1BD JUMPI DUP1 PUSH4 0x2F54BF6E EQ PUSH2 0x1D4 JUMPI DUP1 PUSH4 0x37C3510A EQ PUSH2 0x211 JUMPI DUP1 PUSH4 0x474DA79A EQ PUSH2 0x24E JUMPI JUMPDEST PUSH1 0x0 DUP1 REVERT JUMPDEST CALLVALUE DUP1 ISZERO PUSH2 0x177 JUMPI PUSH1 0x0 DUP1 REVERT JUMPDEST POP PUSH2 0x192 PUSH1 0x4 DUP1 CALLDATASIZE SUB DUP2 ADD SWAP1 PUSH2 0x18D SWAP2 SWAP1 PUSH2 0x2356 JUMP JUMPDEST PUSH2 0x65D JUMP JUMPDEST STOP JUMPDEST CALLVALUE DUP1 ISZERO PUSH2 0x1A0 JUMPI PUSH1 0x0 DUP1 REVERT JUMPDEST POP PUSH2 0x1BB PUSH1 0x4 DUP1 CALLDATASIZE SUB DUP2 ADD SWAP1 PUSH2 0x1B6 SWAP2 SWAP1 PUSH2 0x2356 JUMP JUMPDEST PUSH2 0x68A JUMP JUMPDEST STOP JUMPDEST CALLVALUE DUP1 ISZERO PUSH2 0x1C9 JUMPI PUSH1 0x0 DUP1 REVERT JUMPDEST POP PUSH2 0x1D2 PUSH2 0x6B7 JUMP JUMPDEST STOP JUMPDEST CALLVALUE DUP1 ISZERO PUSH2 0x1E0 JUMPI PUSH1 0x0 DUP1 REVERT JUMPDEST POP PUSH2 0x1FB PUSH1 0x4 DUP1 CALLDATASIZE SUB DUP2 ADD SWAP1 PUSH2 0x1F6 SWAP2 SWAP1 PUSH2 0x2356 JUMP JUMPDEST PUSH2 0x6E3 JUMP JUMPDEST PUSH1 0x40 MLOAD PUSH2 0x208 SWAP2 SWAP1 PUSH2 0x29D3 JUMP JUMPDEST PUSH1 0x40 MLOAD DUP1 SWAP2 SUB SWAP1 RETURN JUMPDEST CALLVALUE DUP1 ISZERO PUSH2 0x21D JUMPI PUSH1 0x0 DUP1 REVERT JUMPDEST POP PUSH2 0x238 PUSH1 0x4 DUP1 CALLDATASIZE SUB DUP2 ADD SWAP1 PUSH2 0x233 SWAP2 SWAP1 PUSH2 0x2593 JUMP JUMPDEST PUSH2 0x716 JUMP JUMPDEST PUSH1 0x40 MLOAD PUSH2 0x245 SWAP2 SWAP1 PUSH2 0x29D3 JUMP JUMPDEST PUSH1 0x40 MLOAD DUP1 SWAP2 SUB SWAP1 RETURN JUMPDEST CALLVALUE DUP1 ISZERO PUSH2 0x25A JUMPI PUSH1 0x0 DUP1 REVERT JUMPDEST POP PUSH2 0x275 PUSH1 0x4 DUP1 CALLDATASIZE SUB DUP2 ADD SWAP1 PUSH2 0x270 SWAP2 SWAP1 PUSH2 0x24D3 JUMP JUMPDEST PUSH2 0x8C2 JUMP JUMPDEST PUSH1 0x40 MLOAD PUSH2 0x288 SWAP8 SWAP7 SWAP6 SWAP5 SWAP4 SWAP3 SWAP2 SWAP1 PUSH2 0x295E JUMP JUMPDEST PUSH1 0x40 MLOAD DUP1 SWAP2 SUB SWAP1 RETURN JUMPDEST CALLVALUE DUP1 ISZERO PUSH2 0x29D JUMPI PUSH1 0x0 DUP1 REVERT JUMPDEST POP PUSH2 0x2B8 PUSH1 0x4 DUP1 CALLDATASIZE SUB DUP2 ADD SWAP1 PUSH2 0x2B3 SWAP2 SWAP1 PUSH2 0x23F0 JUMP JUMPDEST PUSH2 0xA44 JUMP JUMPDEST PUSH1 0x40 MLOAD PUSH2 0x2C5 SWAP2 SWAP1 PUSH2 0x29D3 JUMP JUMPDEST PUSH1 0x40 MLOAD DUP1 SWAP2 SUB SWAP1 RETURN JUMPDEST CALLVALUE DUP1 ISZERO PUSH2 0x2DA JUMPI PUSH1 0x0 DUP1 REVERT JUMPDEST POP PUSH2 0x2F5 PUSH1 0x4 DUP1 CALLDATASIZE SUB DUP2 ADD SWAP1 PUSH2 0x2F0 SWAP2 SWAP1 PUSH2 0x24D3 JUMP JUMPDEST PUSH2 0xD3D JUMP JUMPDEST PUSH1 0x40 MLOAD PUSH2 0x30A SWAP10 SWAP9 SWAP8 SWAP7 SWAP6 SWAP5 SWAP4 SWAP3 SWAP2 SWAP1 PUSH2 0x2B44 JUMP JUMPDEST PUSH1 0x40 MLOAD DUP1 SWAP2 SUB SWAP1 RETURN JUMPDEST CALLVALUE DUP1 ISZERO PUSH2 0x31F JUMPI PUSH1 0x0 DUP1 REVERT JUMPDEST POP PUSH2 0x33A PUSH1 0x4 DUP1 CALLDATASIZE SUB DUP2 ADD SWAP1 PUSH2 0x335 SWAP2 SWAP1 PUSH2 0x2356 JUMP JUMPDEST PUSH2 0xDC3 JUMP JUMPDEST STOP JUMPDEST PUSH2 0x356 PUSH1 0x4 DUP1 CALLDATASIZE SUB DUP2 ADD SWAP1 PUSH2 0x351 SWAP2 SWAP1 PUSH2 0x24D3 JUMP JUMPDEST PUSH2 0xE31 JUMP JUMPDEST STOP JUMPDEST PUSH2 0x372 PUSH1 0x4 DUP1 CALLDATASIZE SUB DUP2 ADD SWAP1 PUSH2 0x36D SWAP2 SWAP1 PUSH2 0x2553 JUMP JUMPDEST PUSH2 0xE34 JUMP JUMPDEST PUSH1 0x40 MLOAD PUSH2 0x37F SWAP2 SWAP1 PUSH2 0x29D3 JUMP JUMPDEST PUSH1 0x40 MLOAD DUP1 SWAP2 SUB SWAP1 RETURN JUMPDEST CALLVALUE DUP1 ISZERO PUSH2 0x394 JUMPI PUSH1 0x0 DUP1 REVERT JUMPDEST POP PUSH2 0x3AF PUSH1 0x4 DUP1 CALLDATASIZE SUB DUP2 ADD SWAP1 PUSH2 0x3AA SWAP2 SWAP1 PUSH2 0x24D3 JUMP JUMPDEST PUSH2 0x1200 JUMP JUMPDEST PUSH1 0x40 MLOAD PUSH2 0x3C2 SWAP8 SWAP7 SWAP6 SWAP5 SWAP4 SWAP3 SWAP2 SWAP1 PUSH2 0x295E JUMP JUMPDEST PUSH1 0x40 MLOAD DUP1 SWAP2 SUB SWAP1 RETURN JUMPDEST CALLVALUE DUP1 ISZERO PUSH2 0x3D7 JUMPI PUSH1 0x0 DUP1 REVERT JUMPDEST POP PUSH2 0x3E0 PUSH2 0x1372 JUMP JUMPDEST PUSH1 0x40 MLOAD PUSH2 0x3ED SWAP2 SWAP1 PUSH2 0x2B29 JUMP JUMPDEST PUSH1 0x40 MLOAD DUP1 SWAP2 SUB SWAP1 RETURN JUMPDEST PUSH2 0x410 PUSH1 0x4 DUP1 CALLDATASIZE SUB DUP2 ADD SWAP1 PUSH2 0x40B SWAP2 SWAP1 PUSH2 0x2553 JUMP JUMPDEST PUSH2 0x1378 JUMP JUMPDEST PUSH1 0x40 MLOAD PUSH2 0x41D SWAP2 SWAP1 PUSH2 0x29D3 JUMP JUMPDEST PUSH1 0x40 MLOAD DUP1 SWAP2 SUB SWAP1 RETURN JUMPDEST CALLVALUE DUP1 ISZERO PUSH2 0x432 JUMPI PUSH1 0x0 DUP1 REVERT JUMPDEST POP PUSH2 0x44D PUSH1 0x4 DUP1 CALLDATASIZE SUB DUP2 ADD SWAP1 PUSH2 0x448 SWAP2 SWAP1 PUSH2 0x2493 JUMP JUMPDEST PUSH2 0x1685 JUMP JUMPDEST PUSH1 0x40 MLOAD PUSH2 0x45A SWAP2 SWAP1 PUSH2 0x2943 JUMP JUMPDEST PUSH1 0x40 MLOAD DUP1 SWAP2 SUB SWAP1 RETURN JUMPDEST CALLVALUE DUP1 ISZERO PUSH2 0x46F JUMPI PUSH1 0x0 DUP1 REVERT JUMPDEST POP PUSH2 0x48A PUSH1 0x4 DUP1 CALLDATASIZE SUB DUP2 ADD SWAP1 PUSH2 0x485 SWAP2 SWAP1 PUSH2 0x23B0 JUMP JUMPDEST PUSH2 0x16B3 JUMP JUMPDEST PUSH1 0x40 MLOAD PUSH2 0x497 SWAP2 SWAP1 PUSH2 0x29D3 JUMP JUMPDEST PUSH1 0x40 MLOAD DUP1 SWAP2 SUB SWAP1 RETURN JUMPDEST CALLVALUE DUP1 ISZERO PUSH2 0x4AC JUMPI PUSH1 0x0 DUP1 REVERT JUMPDEST POP PUSH2 0x4B5 PUSH2 0x16E1 JUMP JUMPDEST PUSH1 0x40 MLOAD PUSH2 0x4C2 SWAP2 SWAP1 PUSH2 0x2B29 JUMP JUMPDEST PUSH1 0x40 MLOAD DUP1 SWAP2 SUB SWAP1 RETURN JUMPDEST CALLVALUE DUP1 ISZERO PUSH2 0x4D7 JUMPI PUSH1 0x0 DUP1 REVERT JUMPDEST POP PUSH2 0x4F2 PUSH1 0x4 DUP1 CALLDATASIZE SUB DUP2 ADD SWAP1 PUSH2 0x4ED SWAP2 SWAP1 PUSH2 0x2356 JUMP JUMPDEST PUSH2 0x16E7 JUMP JUMPDEST PUSH1 0x40 MLOAD PUSH2 0x4FF SWAP2 SWAP1 PUSH2 0x29D3 JUMP JUMPDEST PUSH1 0x40 MLOAD DUP1 SWAP2 SUB SWAP1 RETURN JUMPDEST CALLVALUE DUP1 ISZERO PUSH2 0x514 JUMPI PUSH1 0x0 DUP1 REVERT JUMPDEST POP PUSH2 0x52F PUSH1 0x4 DUP1 CALLDATASIZE SUB DUP2 ADD SWAP1 PUSH2 0x52A SWAP2 SWAP1 PUSH2 0x2500 JUMP JUMPDEST PUSH2 0x171A JUMP JUMPDEST PUSH1 0x40 MLOAD PUSH2 0x53C SWAP2 SWAP1 PUSH2 0x29D3 JUMP JUMPDEST PUSH1 0x40 MLOAD DUP1 SWAP2 SUB SWAP1 RETURN JUMPDEST CALLVALUE DUP1 ISZERO PUSH2 0x551 JUMPI PUSH1 0x0 DUP1 REVERT JUMPDEST POP PUSH2 0x55A PUSH2 0x1CFD JUMP JUMPDEST STOP JUMPDEST CALLVALUE DUP1 ISZERO PUSH2 0x568 JUMPI PUSH1 0x0 DUP1 REVERT JUMPDEST POP PUSH2 0x583 PUSH1 0x4 DUP1 CALLDATASIZE SUB DUP2 ADD SWAP1 PUSH2 0x57E SWAP2 SWAP1 PUSH2 0x24D3 JUMP JUMPDEST PUSH2 0x1D29 JUMP JUMPDEST PUSH1 0x40 MLOAD PUSH2 0x598 SWAP10 SWAP9 SWAP8 SWAP7 SWAP6 SWAP5 SWAP4 SWAP3 SWAP2 SWAP1 PUSH2 0x2B44 JUMP JUMPDEST PUSH1 0x40 MLOAD DUP1 SWAP2 SUB SWAP1 RETURN JUMPDEST CALLVALUE DUP1 ISZERO PUSH2 0x5AD JUMPI PUSH1 0x0 DUP1 REVERT JUMPDEST POP PUSH2 0x5B6 PUSH2 0x1DBF JUMP JUMPDEST PUSH1 0x40 MLOAD PUSH2 0x5C3 SWAP2 SWAP1 PUSH2 0x29EE JUMP JUMPDEST PUSH1 0x40 MLOAD DUP1 SWAP2 SUB SWAP1 RETURN JUMPDEST CALLVALUE DUP1 ISZERO PUSH2 0x5D8 JUMPI PUSH1 0x0 DUP1 REVERT JUMPDEST POP PUSH2 0x5F3 PUSH1 0x4 DUP1 CALLDATASIZE SUB DUP2 ADD SWAP1 PUSH2 0x5EE SWAP2 SWAP1 PUSH2 0x2383 JUMP JUMPDEST PUSH2 0x1DE3 JUMP JUMPDEST PUSH1 0x40 MLOAD PUSH2 0x600 SWAP2 SWAP1 PUSH2 0x2B29 JUMP JUMPDEST PUSH1 0x40 MLOAD DUP1 SWAP2 SUB SWAP1 RETURN JUMPDEST CALLVALUE DUP1 ISZERO PUSH2 0x615 JUMPI PUSH1 0x0 DUP1 REVERT JUMPDEST POP PUSH2 0x630 PUSH1 0x4 DUP1 CALLDATASIZE SUB DUP2 ADD SWAP1 PUSH2 0x62B SWAP2 SWAP1 PUSH2 0x2356 JUMP JUMPDEST PUSH2 0x1E06 JUMP JUMPDEST STOP JUMPDEST CALLVALUE DUP1 ISZERO PUSH2 0x63E JUMPI PUSH1 0x0 DUP1 REVERT JUMPDEST POP PUSH2 0x647 PUSH2 0x1E74 JUMP JUMPDEST PUSH1 0x40 MLOAD PUSH2 0x654 SWAP2 SWAP1 PUSH2 0x29EE JUMP JUMPDEST PUSH1 0x40 MLOAD DUP1 SWAP2 SUB SWAP1 RETURN JUMPDEST PUSH2 0x687 PUSH32 0x52454E5445520000000000000000000000000000000000000000000000000000 DUP3 PUSH2 0x1E98 JUMP JUMPDEST POP JUMP JUMPDEST PUSH2 0x6B4 PUSH32 0x4F574E4552000000000000000000000000000000000000000000000000000000 DUP3 PUSH2 0x1E98 JUMP JUMPDEST POP JUMP JUMPDEST PUSH2 0x6E1 PUSH32 0x4F574E4552000000000000000000000000000000000000000000000000000000 CALLER PUSH2 0x1E98 JUMP JUMPDEST JUMP JUMPDEST PUSH1 0x0 PUSH2 0x70F PUSH32 0x4F574E4552000000000000000000000000000000000000000000000000000000 DUP4 PUSH2 0x16B3 JUMP JUMPDEST SWAP1 POP SWAP2 SWAP1 POP JUMP JUMPDEST PUSH1 0x0 PUSH2 0x721 CALLER PUSH2 0x16E7 JUMP JUMPDEST PUSH2 0x760 JUMPI PUSH1 0x40 MLOAD PUSH32 0x8C379A000000000000000000000000000000000000000000000000000000000 DUP2 MSTORE PUSH1 0x4 ADD PUSH2 0x757 SWAP1 PUSH2 0x2AE9 JUMP JUMPDEST PUSH1 0x40 MLOAD DUP1 SWAP2 SUB SWAP1 REVERT JUMPDEST DUP4 PUSH1 0x0 PUSH1 0x1 DUP2 GT ISZERO PUSH2 0x775 JUMPI PUSH2 0x774 PUSH2 0x2E61 JUMP JUMPDEST JUMPDEST PUSH1 0x5 PUSH1 0x0 DUP4 DUP2 MSTORE PUSH1 0x20 ADD SWAP1 DUP2 MSTORE PUSH1 0x20 ADD PUSH1 0x0 KECCAK256 PUSH1 0x9 ADD PUSH1 0x0 SWAP1 SLOAD SWAP1 PUSH2 0x100 EXP SWAP1 DIV PUSH1 0xFF AND PUSH1 0x1 DUP2 GT ISZERO PUSH2 0x7AB JUMPI PUSH2 0x7AA PUSH2 0x2E61 JUMP JUMPDEST JUMPDEST EQ PUSH2 0x7EB JUMPI PUSH1 0x40 MLOAD PUSH32 0x8C379A000000000000000000000000000000000000000000000000000000000 DUP2 MSTORE PUSH1 0x4 ADD PUSH2 0x7E2 SWAP1 PUSH2 0x2AA9 JUMP JUMPDEST PUSH1 0x40 MLOAD DUP1 SWAP2 SUB SWAP1 REVERT JUMPDEST DUP4 PUSH1 0x0 PUSH20 0xFFFFFFFFFFFFFFFFFFFFFFFFFFFFFFFFFFFFFFFF AND PUSH1 0x7 PUSH1 0x0 DUP4 DUP2 MSTORE PUSH1 0x20 ADD SWAP1 DUP2 MSTORE PUSH1 0x20 ADD PUSH1 0x0 KECCAK256 PUSH1 0x0 ADD PUSH1 0x0 SWAP1 SLOAD SWAP1 PUSH2 0x100 EXP SWAP1 DIV PUSH20 0xFFFFFFFFFFFFFFFFFFFFFFFFFFFFFFFFFFFFFFFF AND PUSH20 0xFFFFFFFFFFFFFFFFFFFFFFFFFFFFFFFFFFFFFFFF AND EQ ISZERO PUSH2 0x892 JUMPI PUSH1 0x40 MLOAD PUSH32 0x8C379A000000000000000000000000000000000000000000000000000000000 DUP2 MSTORE PUSH1 0x4 ADD PUSH2 0x889 SWAP1 PUSH2 0x2AC9 JUMP JUMPDEST PUSH1 0x40 MLOAD DUP1 SWAP2 SUB SWAP1 REVERT JUMPDEST DUP4 PUSH1 0x7 PUSH1 0x0 DUP8 DUP2 MSTORE PUSH1 0x20 ADD SWAP1 DUP2 MSTORE PUSH1 0x20 ADD PUSH1 0x0 KECCAK256 PUSH1 0xE ADD DUP2 SWAP1 SSTORE POP PUSH1 0x4 SLOAD PUSH1 0x8 DUP1 SLOAD SWAP1 POP EQ SWAP3 POP POP POP SWAP4 SWAP3 POP POP POP JUMP JUMPDEST PUSH1 0x8 DUP2 DUP2 SLOAD DUP2 LT PUSH2 0x8D2 JUMPI PUSH1 0x0 DUP1 REVERT JUMPDEST SWAP1 PUSH1 0x0 MSTORE PUSH1 0x20 PUSH1 0x0 KECCAK256 SWAP1 PUSH1 0x11 MUL ADD PUSH1 0x0 SWAP2 POP SWAP1 POP DUP1 PUSH1 0x0 ADD PUSH1 0x0 SWAP1 SLOAD SWAP1 PUSH2 0x100 EXP SWAP1 DIV PUSH20 0xFFFFFFFFFFFFFFFFFFFFFFFFFFFFFFFFFFFFFFFF AND SWAP1 DUP1 PUSH1 0x1 ADD PUSH1 0x40 MLOAD DUP1 PUSH2 0x120 ADD PUSH1 0x40 MSTORE SWAP1 DUP2 PUSH1 0x0 DUP3 ADD SLOAD DUP2 MSTORE PUSH1 0x20 ADD PUSH1 0x1 DUP3 ADD SLOAD DUP2 MSTORE PUSH1 0x20 ADD PUSH1 0x2 DUP3 ADD SLOAD DUP2 MSTORE PUSH1 0x20 ADD PUSH1 0x3 DUP3 ADD PUSH1 0x0 SWAP1 SLOAD SWAP1 PUSH2 0x100 EXP SWAP1 DIV PUSH1 0xFF AND PUSH1 0x6 DUP2 GT ISZERO PUSH2 0x95F JUMPI PUSH2 0x95E PUSH2 0x2E61 JUMP JUMPDEST JUMPDEST PUSH1 0x6 DUP2 GT ISZERO PUSH2 0x971 JUMPI PUSH2 0x970 PUSH2 0x2E61 JUMP JUMPDEST JUMPDEST DUP2 MSTORE PUSH1 0x20 ADD PUSH1 0x4 DUP3 ADD PUSH1 0x40 MLOAD DUP1 PUSH1 0x40 ADD PUSH1 0x40 MSTORE SWAP1 DUP2 PUSH1 0x0 DUP3 ADD SLOAD DUP2 MSTORE PUSH1 0x20 ADD PUSH1 0x1 DUP3 ADD SLOAD DUP2 MSTORE POP POP DUP2 MSTORE PUSH1 0x20 ADD PUSH1 0x6 DUP3 ADD SLOAD DUP2 MSTORE PUSH1 0x20 ADD PUSH1 0x7 DUP3 ADD SLOAD DUP2 MSTORE PUSH1 0x20 ADD PUSH1 0x8 DUP3 ADD SLOAD DUP2 MSTORE PUSH1 0x20 ADD PUSH1 0x9 DUP3 ADD PUSH1 0x0 SWAP1 SLOAD SWAP1 PUSH2 0x100 EXP SWAP1 DIV PUSH1 0xFF AND PUSH1 0x1 DUP2 GT ISZERO PUSH2 0x9E0 JUMPI PUSH2 0x9DF PUSH2 0x2E61 JUMP JUMPDEST JUMPDEST PUSH1 0x1 DUP2 GT ISZERO PUSH2 0x9F2 JUMPI PUSH2 0x9F1 PUSH2 0x2E61 JUMP JUMPDEST JUMPDEST DUP2 MSTORE POP POP SWAP1 DUP1 PUSH1 0xB ADD PUSH1 0x40 MLOAD DUP1 PUSH1 0x40 ADD PUSH1 0x40 MSTORE SWAP1 DUP2 PUSH1 0x0 DUP3 ADD SLOAD DUP2 MSTORE PUSH1 0x20 ADD PUSH1 0x1 DUP3 ADD SLOAD DUP2 MSTORE POP POP SWAP1 DUP1 PUSH1 0xD ADD SLOAD SWAP1 DUP1 PUSH1 0xE ADD SLOAD SWAP1 DUP1 PUSH1 0xF ADD SLOAD SWAP1 DUP1 PUSH1 0x10 ADD PUSH1 0x0 SWAP1 SLOAD SWAP1 PUSH2 0x100 EXP SWAP1 DIV PUSH1 0xFF AND SWAP1 POP DUP8 JUMP JUMPDEST PUSH1 0x0 PUSH2 0xA4F CALLER PUSH2 0x6E3 JUMP JUMPDEST PUSH2 0xA8E JUMPI PUSH1 0x40 MLOAD PUSH32 0x8C379A000000000000000000000000000000000000000000000000000000000 DUP2 MSTORE PUSH1 0x4 ADD PUSH2 0xA85 SWAP1 PUSH2 0x2A69 JUMP JUMPDEST PUSH1 0x40 MLOAD DUP1 SWAP2 SUB SWAP1 REVERT JUMPDEST PUSH1 0x1 PUSH1 0x3 SLOAD PUSH2 0xA9D SWAP2 SWAP1 PUSH2 0x2C13 JUMP JUMPDEST PUSH1 0x6 DUP1 SLOAD SWAP1 POP LT PUSH2 0xAE3 JUMPI PUSH1 0x40 MLOAD PUSH32 0x8C379A000000000000000000000000000000000000000000000000000000000 DUP2 MSTORE PUSH1 0x4 ADD PUSH2 0xADA SWAP1 PUSH2 0x2A29 JUMP JUMPDEST PUSH1 0x40 MLOAD DUP1 SWAP2 SUB SWAP1 REVERT JUMPDEST PUSH1 0x3 PUSH1 0x0 DUP2 SLOAD DUP1 SWAP3 SWAP2 SWAP1 PUSH2 0xAF6 SWAP1 PUSH2 0x2DE9 JUMP JUMPDEST SWAP2 SWAP1 POP SSTORE POP PUSH1 0x0 PUSH1 0x40 MLOAD DUP1 PUSH2 0x120 ADD PUSH1 0x40 MSTORE DUP1 PUSH1 0x3 SLOAD DUP2 MSTORE PUSH1 0x20 ADD DUP11 DUP2 MSTORE PUSH1 0x20 ADD DUP10 DUP2 MSTORE PUSH1 0x20 ADD DUP9 PUSH1 0x6 DUP2 GT ISZERO PUSH2 0xB30 JUMPI PUSH2 0xB2F PUSH2 0x2E61 JUMP JUMPDEST JUMPDEST DUP2 MSTORE PUSH1 0x20 ADD DUP8 DUP2 MSTORE PUSH1 0x20 ADD DUP7 DUP2 MSTORE PUSH1 0x20 ADD DUP6 DUP2 MSTORE PUSH1 0x20 ADD DUP5 DUP2 MSTORE PUSH1 0x20 ADD PUSH1 0x0 PUSH1 0x1 DUP2 GT ISZERO PUSH2 0xB61 JUMPI PUSH2 0xB60 PUSH2 0x2E61 JUMP JUMPDEST JUMPDEST DUP2 MSTORE POP SWAP1 POP DUP1 PUSH1 0x5 PUSH1 0x0 PUSH1 0x3 SLOAD DUP2 MSTORE PUSH1 0x20 ADD SWAP1 DUP2 MSTORE PUSH1 0x20 ADD PUSH1 0x0 KECCAK256 PUSH1 0x0 DUP3 ADD MLOAD DUP2 PUSH1 0x0 ADD SSTORE PUSH1 0x20 DUP3 ADD MLOAD DUP2 PUSH1 0x1 ADD SSTORE PUSH1 0x40 DUP3 ADD MLOAD DUP2 PUSH1 0x2 ADD SSTORE PUSH1 0x60 DUP3 ADD MLOAD DUP2 PUSH1 0x3 ADD PUSH1 0x0 PUSH2 0x100 EXP DUP2 SLOAD DUP2 PUSH1 0xFF MUL NOT AND SWAP1 DUP4 PUSH1 0x6 DUP2 GT ISZERO PUSH2 0xBC5 JUMPI PUSH2 0xBC4 PUSH2 0x2E61 JUMP JUMPDEST JUMPDEST MUL OR SWAP1 SSTORE POP PUSH1 0x80 DUP3 ADD MLOAD DUP2 PUSH1 0x4 ADD PUSH1 0x0 DUP3 ADD MLOAD DUP2 PUSH1 0x0 ADD SSTORE PUSH1 0x20 DUP3 ADD MLOAD DUP2 PUSH1 0x1 ADD SSTORE POP POP PUSH1 0xA0 DUP3 ADD MLOAD DUP2 PUSH1 0x6 ADD SSTORE PUSH1 0xC0 DUP3 ADD MLOAD DUP2 PUSH1 0x7 ADD SSTORE PUSH1 0xE0 DUP3 ADD MLOAD DUP2 PUSH1 0x8 ADD SSTORE PUSH2 0x100 DUP3 ADD MLOAD DUP2 PUSH1 0x9 ADD PUSH1 0x0 PUSH2 0x100 EXP DUP2 SLOAD DUP2 PUSH1 0xFF MUL NOT AND SWAP1 DUP4 PUSH1 0x1 DUP2 GT ISZERO PUSH2 0xC33 JUMPI PUSH2 0xC32 PUSH2 0x2E61 JUMP JUMPDEST JUMPDEST MUL OR SWAP1 SSTORE POP SWAP1 POP POP PUSH1 0x6 DUP2 SWAP1 DUP1 PUSH1 0x1 DUP2 SLOAD ADD DUP1 DUP3 SSTORE DUP1 SWAP2 POP POP PUSH1 0x1 SWAP1 SUB SWAP1 PUSH1 0x0 MSTORE PUSH1 0x20 PUSH1 0x0 KECCAK256 SWAP1 PUSH1 0xA MUL ADD PUSH1 0x0 SWAP1 SWAP2 SWAP1 SWAP2 SWAP1 SWAP2 POP PUSH1 0x0 DUP3 ADD MLOAD DUP2 PUSH1 0x0 ADD SSTORE PUSH1 0x20 DUP3 ADD MLOAD DUP2 PUSH1 0x1 ADD SSTORE PUSH1 0x40 DUP3 ADD MLOAD DUP2 PUSH1 0x2 ADD SSTORE PUSH1 0x60 DUP3 ADD MLOAD DUP2 PUSH1 0x3 ADD PUSH1 0x0 PUSH2 0x100 EXP DUP2 SLOAD DUP2 PUSH1 0xFF MUL NOT AND SWAP1 DUP4 PUSH1 0x6 DUP2 GT ISZERO PUSH2 0xCB0 JUMPI PUSH2 0xCAF PUSH2 0x2E61 JUMP JUMPDEST JUMPDEST MUL OR SWAP1 SSTORE POP PUSH1 0x80 DUP3 ADD MLOAD DUP2 PUSH1 0x4 ADD PUSH1 0x0 DUP3 ADD MLOAD DUP2 PUSH1 0x0 ADD SSTORE PUSH1 0x20 DUP3 ADD MLOAD DUP2 PUSH1 0x1 ADD SSTORE POP POP PUSH1 0xA0 DUP3 ADD MLOAD DUP2 PUSH1 0x6 ADD SSTORE PUSH1 0xC0 DUP3 ADD MLOAD DUP2 PUSH1 0x7 ADD SSTORE PUSH1 0xE0 DUP3 ADD MLOAD DUP2 PUSH1 0x8 ADD SSTORE PUSH2 0x100 DUP3 ADD MLOAD DUP2 PUSH1 0x9 ADD PUSH1 0x0 PUSH2 0x100 EXP DUP2 SLOAD DUP2 PUSH1 0xFF MUL NOT AND SWAP1 DUP4 PUSH1 0x1 DUP2 GT ISZERO PUSH2 0xD1E JUMPI PUSH2 0xD1D PUSH2 0x2E61 JUMP JUMPDEST JUMPDEST MUL OR SWAP1 SSTORE POP POP POP PUSH1 0x3 SLOAD PUSH1 0x6 DUP1 SLOAD SWAP1 POP EQ SWAP2 POP POP SWAP8 SWAP7 POP POP POP POP POP POP POP JUMP JUMPDEST PUSH1 0x5 PUSH1 0x20 MSTORE DUP1 PUSH1 0x0 MSTORE PUSH1 0x40 PUSH1 0x0 KECCAK256 PUSH1 0x0 SWAP2 POP SWAP1 POP DUP1 PUSH1 0x0 ADD SLOAD SWAP1 DUP1 PUSH1 0x1 ADD SLOAD SWAP1 DUP1 PUSH1 0x2 ADD SLOAD SWAP1 DUP1 PUSH1 0x3 ADD PUSH1 0x0 SWAP1 SLOAD SWAP1 PUSH2 0x100 EXP SWAP1 DIV PUSH1 0xFF AND SWAP1 DUP1 PUSH1 0x4 ADD PUSH1 0x40 MLOAD DUP1 PUSH1 0x40 ADD PUSH1 0x40 MSTORE SWAP1 DUP2 PUSH1 0x0 DUP3 ADD SLOAD DUP2 MSTORE PUSH1 0x20 ADD PUSH1 0x1 DUP3 ADD SLOAD DUP2 MSTORE POP POP SWAP1 DUP1 PUSH1 0x6 ADD SLOAD SWAP1 DUP1 PUSH1 0x7 ADD SLOAD SWAP1 DUP1 PUSH1 0x8 ADD SLOAD SWAP1 DUP1 PUSH1 0x9 ADD PUSH1 0x0 SWAP1 SLOAD SWAP1 PUSH2 0x100 EXP SWAP1 DIV PUSH1 0xFF AND SWAP1 POP DUP10 JUMP JUMPDEST DUP1 PUSH1 0x2 PUSH1 0x0 PUSH2 0x100 EXP DUP2 SLOAD DUP2 PUSH20 0xFFFFFFFFFFFFFFFFFFFFFFFFFFFFFFFFFFFFFFFF MUL NOT AND SWAP1 DUP4 PUSH20 0xFFFFFFFFFFFFFFFFFFFFFFFFFFFFFFFFFFFFFFFF AND MUL OR SWAP1 SSTORE POP PUSH2 0xE2E PUSH32 0x4F574E4552000000000000000000000000000000000000000000000000000000 DUP3 PUSH2 0x1F28 JUMP JUMPDEST POP JUMP JUMPDEST POP JUMP JUMPDEST PUSH1 0x0 PUSH2 0xE3F CALLER PUSH2 0x16E7 JUMP JUMPDEST PUSH2 0xE7E JUMPI PUSH1 0x40 MLOAD PUSH32 0x8C379A000000000000000000000000000000000000000000000000000000000 DUP2 MSTORE PUSH1 0x4 ADD PUSH2 0xE75 SWAP1 PUSH2 0x2AE9 JUMP JUMPDEST PUSH1 0x40 MLOAD DUP1 SWAP2 SUB SWAP1 REVERT JUMPDEST DUP2 PUSH1 0x0 PUSH1 0x5 PUSH1 0x0 DUP4 DUP2 MSTORE PUSH1 0x20 ADD SWAP1 DUP2 MSTORE PUSH1 0x20 ADD PUSH1 0x0 KECCAK256 PUSH1 0x0 ADD SLOAD GT PUSH2 0xED8 JUMPI PUSH1 0x40 MLOAD PUSH32 0x8C379A000000000000000000000000000000000000000000000000000000000 DUP2 MSTORE PUSH1 0x4 ADD PUSH2 0xECF SWAP1 PUSH2 0x2B09 JUMP JUMPDEST PUSH1 0x40 MLOAD DUP1 SWAP2 SUB SWAP1 REVERT JUMPDEST DUP3 PUSH1 0x0 PUSH1 0x1 DUP2 GT ISZERO PUSH2 0xEED JUMPI PUSH2 0xEEC PUSH2 0x2E61 JUMP JUMPDEST JUMPDEST PUSH1 0x5 PUSH1 0x0 DUP4 DUP2 MSTORE PUSH1 0x20 ADD SWAP1 DUP2 MSTORE PUSH1 0x20 ADD PUSH1 0x0 KECCAK256 PUSH1 0x9 ADD PUSH1 0x0 SWAP1 SLOAD SWAP1 PUSH2 0x100 EXP SWAP1 DIV PUSH1 0xFF AND PUSH1 0x1 DUP2 GT ISZERO PUSH2 0xF23 JUMPI PUSH2 0xF22 PUSH2 0x2E61 JUMP JUMPDEST JUMPDEST EQ PUSH2 0xF63 JUMPI PUSH1 0x40 MLOAD PUSH32 0x8C379A000000000000000000000000000000000000000000000000000000000 DUP2 MSTORE PUSH1 0x4 ADD PUSH2 0xF5A SWAP1 PUSH2 0x2AA9 JUMP JUMPDEST PUSH1 0x40 MLOAD DUP1 SWAP2 SUB SWAP1 REVERT JUMPDEST DUP5 PUSH1 0x0 PUSH20 0xFFFFFFFFFFFFFFFFFFFFFFFFFFFFFFFFFFFFFFFF AND PUSH1 0x7 PUSH1 0x0 DUP4 DUP2 MSTORE PUSH1 0x20 ADD SWAP1 DUP2 MSTORE PUSH1 0x20 ADD PUSH1 0x0 KECCAK256 PUSH1 0x0 ADD PUSH1 0x0 SWAP1 SLOAD SWAP1 PUSH2 0x100 EXP SWAP1 DIV PUSH20 0xFFFFFFFFFFFFFFFFFFFFFFFFFFFFFFFFFFFFFFFF AND PUSH20 0xFFFFFFFFFFFFFFFFFFFFFFFFFFFFFFFFFFFFFFFF AND EQ ISZERO PUSH2 0x100A JUMPI PUSH1 0x40 MLOAD PUSH32 0x8C379A000000000000000000000000000000000000000000000000000000000 DUP2 MSTORE PUSH1 0x4 ADD PUSH2 0x1001 SWAP1 PUSH2 0x2AC9 JUMP JUMPDEST PUSH1 0x40 MLOAD DUP1 SWAP2 SUB SWAP1 REVERT JUMPDEST DUP6 PUSH1 0x0 PUSH1 0x7 PUSH1 0x0 DUP4 DUP2 MSTORE PUSH1 0x20 ADD SWAP1 DUP2 MSTORE PUSH1 0x20 ADD PUSH1 0x0 KECCAK256 PUSH1 0xD ADD SLOAD PUSH1 0x7 PUSH1 0x0 DUP5 DUP2 MSTORE PUSH1 0x20 ADD SWAP1 DUP2 MSTORE PUSH1 0x20 ADD PUSH1 0x0 KECCAK256 PUSH1 0xE ADD SLOAD PUSH2 0x1045 SWAP2 SWAP1 PUSH2 0x2C13 JUMP JUMPDEST SWAP1 POP DUP1 PUSH1 0x1 PUSH1 0x0 SWAP1 SLOAD SWAP1 PUSH2 0x100 EXP SWAP1 DIV PUSH20 0xFFFFFFFFFFFFFFFFFFFFFFFFFFFFFFFFFFFFFFFF AND PUSH20 0xFFFFFFFFFFFFFFFFFFFFFFFFFFFFFFFFFFFFFFFF AND BALANCE LT ISZERO PUSH2 0x10C3 JUMPI PUSH1 0x40 MLOAD PUSH32 0x8C379A000000000000000000000000000000000000000000000000000000000 DUP2 MSTORE PUSH1 0x4 ADD PUSH2 0x10BA SWAP1 PUSH2 0x2A49 JUMP JUMPDEST PUSH1 0x40 MLOAD DUP1 SWAP2 SUB SWAP1 REVERT JUMPDEST PUSH1 0x1 PUSH1 0x7 PUSH1 0x0 DUP11 DUP2 MSTORE PUSH1 0x20 ADD SWAP1 DUP2 MSTORE PUSH1 0x20 ADD PUSH1 0x0 KECCAK256 PUSH1 0x10 ADD PUSH1 0x0 PUSH2 0x100 EXP DUP2 SLOAD DUP2 PUSH1 0xFF MUL NOT AND SWAP1 DUP4 PUSH1 0x2 DUP2 GT ISZERO PUSH2 0x10FD JUMPI PUSH2 0x10FC PUSH2 0x2E61 JUMP JUMPDEST JUMPDEST MUL OR SWAP1 SSTORE POP PUSH1 0x1 PUSH1 0x5 PUSH1 0x0 DUP10 DUP2 MSTORE PUSH1 0x20 ADD SWAP1 DUP2 MSTORE PUSH1 0x20 ADD PUSH1 0x0 KECCAK256 PUSH1 0x9 ADD PUSH1 0x0 PUSH2 0x100 EXP DUP2 SLOAD DUP2 PUSH1 0xFF MUL NOT AND SWAP1 DUP4 PUSH1 0x1 DUP2 GT ISZERO PUSH2 0x113C JUMPI PUSH2 0x113B PUSH2 0x2E61 JUMP JUMPDEST JUMPDEST MUL OR SWAP1 SSTORE POP PUSH1 0x0 PUSH1 0x7 PUSH1 0x0 DUP11 DUP2 MSTORE PUSH1 0x20 ADD SWAP1 DUP2 MSTORE PUSH1 0x20 ADD PUSH1 0x0 KECCAK256 PUSH1 0xE ADD SLOAD PUSH1 0x7 PUSH1 0x0 DUP12 DUP2 MSTORE PUSH1 0x20 ADD SWAP1 DUP2 MSTORE PUSH1 0x20 ADD PUSH1 0x0 KECCAK256 PUSH1 0xD ADD SLOAD PUSH2 0x117B SWAP2 SWAP1 PUSH2 0x2C13 JUMP JUMPDEST SWAP1 POP ADDRESS PUSH20 0xFFFFFFFFFFFFFFFFFFFFFFFFFFFFFFFFFFFFFFFF AND PUSH4 0x74539CD0 DUP3 PUSH1 0x40 MLOAD DUP3 PUSH4 0xFFFFFFFF AND PUSH1 0xE0 SHL DUP2 MSTORE PUSH1 0x4 ADD PUSH2 0x11B6 SWAP2 SWAP1 PUSH2 0x2B29 JUMP JUMPDEST PUSH1 0x0 PUSH1 0x40 MLOAD DUP1 DUP4 SUB DUP2 PUSH1 0x0 DUP8 DUP1 EXTCODESIZE ISZERO DUP1 ISZERO PUSH2 0x11D0 JUMPI PUSH1 0x0 DUP1 REVERT JUMPDEST POP GAS CALL ISZERO DUP1 ISZERO PUSH2 0x11E4 JUMPI RETURNDATASIZE PUSH1 0x0 DUP1 RETURNDATACOPY RETURNDATASIZE PUSH1 0x0 REVERT JUMPDEST POP POP POP POP PUSH1 0x4 SLOAD PUSH1 0x8 DUP1 SLOAD SWAP1 POP EQ SWAP7 POP POP POP POP POP POP POP SWAP3 SWAP2 POP POP JUMP JUMPDEST PUSH1 0x7 PUSH1 0x20 MSTORE DUP1 PUSH1 0x0 MSTORE PUSH1 0x40 PUSH1 0x0 KECCAK256 PUSH1 0x0 SWAP2 POP SWAP1 POP DUP1 PUSH1 0x0 ADD PUSH1 0x0 SWAP1 SLOAD SWAP1 PUSH2 0x100 EXP SWAP1 DIV PUSH20 0xFFFFFFFFFFFFFFFFFFFFFFFFFFFFFFFFFFFFFFFF AND SWAP1 DUP1 PUSH1 0x1 ADD PUSH1 0x40 MLOAD DUP1 PUSH2 0x120 ADD PUSH1 0x40 MSTORE SWAP1 DUP2 PUSH1 0x0 DUP3 ADD SLOAD DUP2 MSTORE PUSH1 0x20 ADD PUSH1 0x1 DUP3 ADD SLOAD DUP2 MSTORE PUSH1 0x20 ADD PUSH1 0x2 DUP3 ADD SLOAD DUP2 MSTORE PUSH1 0x20 ADD PUSH1 0x3 DUP3 ADD PUSH1 0x0 SWAP1 SLOAD SWAP1 PUSH2 0x100 EXP SWAP1 DIV PUSH1 0xFF AND PUSH1 0x6 DUP2 GT ISZERO PUSH2 0x128D JUMPI PUSH2 0x128C PUSH2 0x2E61 JUMP JUMPDEST JUMPDEST PUSH1 0x6 DUP2 GT ISZERO PUSH2 0x129F JUMPI PUSH2 0x129E PUSH2 0x2E61 JUMP JUMPDEST JUMPDEST DUP2 MSTORE PUSH1 0x20 ADD PUSH1 0x4 DUP3 ADD PUSH1 0x40 MLOAD DUP1 PUSH1 0x40 ADD PUSH1 0x40 MSTORE SWAP1 DUP2 PUSH1 0x0 DUP3 ADD SLOAD DUP2 MSTORE PUSH1 0x20 ADD PUSH1 0x1 DUP3 ADD SLOAD DUP2 MSTORE POP POP DUP2 MSTORE PUSH1 0x20 ADD PUSH1 0x6 DUP3 ADD SLOAD DUP2 MSTORE PUSH1 0x20 ADD PUSH1 0x7 DUP3 ADD SLOAD DUP2 MSTORE PUSH1 0x20 ADD PUSH1 0x8 DUP3 ADD SLOAD DUP2 MSTORE PUSH1 0x20 ADD PUSH1 0x9 DUP3 ADD PUSH1 0x0 SWAP1 SLOAD SWAP1 PUSH2 0x100 EXP SWAP1 DIV PUSH1 0xFF AND PUSH1 0x1 DUP2 GT ISZERO PUSH2 0x130E JUMPI PUSH2 0x130D PUSH2 0x2E61 JUMP JUMPDEST JUMPDEST PUSH1 0x1 DUP2 GT ISZERO PUSH2 0x1320 JUMPI PUSH2 0x131F PUSH2 0x2E61 JUMP JUMPDEST JUMPDEST DUP2 MSTORE POP POP SWAP1 DUP1 PUSH1 0xB ADD PUSH1 0x40 MLOAD DUP1 PUSH1 0x40 ADD PUSH1 0x40 MSTORE SWAP1 DUP2 PUSH1 0x0 DUP3 ADD SLOAD DUP2 MSTORE PUSH1 0x20 ADD PUSH1 0x1 DUP3 ADD SLOAD DUP2 MSTORE POP POP SWAP1 DUP1 PUSH1 0xD ADD SLOAD SWAP1 DUP1 PUSH1 0xE ADD SLOAD SWAP1 DUP1 PUSH1 0xF ADD SLOAD SWAP1 DUP1 PUSH1 0x10 ADD PUSH1 0x0 SWAP1 SLOAD SWAP1 PUSH2 0x100 EXP SWAP1 DIV PUSH1 0xFF AND SWAP1 POP DUP8 JUMP JUMPDEST PUSH1 0x4 SLOAD DUP2 JUMP JUMPDEST PUSH1 0x0 PUSH2 0x1383 CALLER PUSH2 0x16E7 JUMP JUMPDEST PUSH2 0x13C2 JUMPI PUSH1 0x40 MLOAD PUSH32 0x8C379A000000000000000000000000000000000000000000000000000000000 DUP2 MSTORE PUSH1 0x4 ADD PUSH2 0x13B9 SWAP1 PUSH2 0x2AE9 JUMP JUMPDEST PUSH1 0x40 MLOAD DUP1 SWAP2 SUB SWAP1 REVERT JUMPDEST DUP2 PUSH1 0x0 PUSH1 0x5 PUSH1 0x0 DUP4 DUP2 MSTORE PUSH1 0x20 ADD SWAP1 DUP2 MSTORE PUSH1 0x20 ADD PUSH1 0x0 KECCAK256 PUSH1 0x0 ADD SLOAD GT PUSH2 0x141C JUMPI PUSH1 0x40 MLOAD PUSH32 0x8C379A000000000000000000000000000000000000000000000000000000000 DUP2 MSTORE PUSH1 0x4 ADD PUSH2 0x1413 SWAP1 PUSH2 0x2B09 JUMP JUMPDEST PUSH1 0x40 MLOAD DUP1 SWAP2 SUB SWAP1 REVERT JUMPDEST DUP4 PUSH1 0x0 PUSH20 0xFFFFFFFFFFFFFFFFFFFFFFFFFFFFFFFFFFFFFFFF AND PUSH1 0x7 PUSH1 0x0 DUP4 DUP2 MSTORE PUSH1 0x20 ADD SWAP1 DUP2 MSTORE PUSH1 0x20 ADD PUSH1 0x0 KECCAK256 PUSH1 0x0 ADD PUSH1 0x0 SWAP1 SLOAD SWAP1 PUSH2 0x100 EXP SWAP1 DIV PUSH20 0xFFFFFFFFFFFFFFFFFFFFFFFFFFFFFFFFFFFFFFFF AND PUSH20 0xFFFFFFFFFFFFFFFFFFFFFFFFFFFFFFFFFFFFFFFF AND EQ ISZERO PUSH2 0x14C3 JUMPI PUSH1 0x40 MLOAD PUSH32 0x8C379A000000000000000000000000000000000000000000000000000000000 DUP2 MSTORE PUSH1 0x4 ADD PUSH2 0x14BA SWAP1 PUSH2 0x2AC9 JUMP JUMPDEST PUSH1 0x40 MLOAD DUP1 SWAP2 SUB SWAP1 REVERT JUMPDEST DUP5 PUSH1 0x0 PUSH1 0x7 PUSH1 0x0 DUP4 DUP2 MSTORE PUSH1 0x20 ADD SWAP1 DUP2 MSTORE PUSH1 0x20 ADD PUSH1 0x0 KECCAK256 PUSH1 0xE ADD SLOAD SWAP1 POP DUP1 SELFBALANCE LT ISZERO PUSH2 0x1522 JUMPI PUSH1 0x40 MLOAD PUSH32 0x8C379A000000000000000000000000000000000000000000000000000000000 DUP2 MSTORE PUSH1 0x4 ADD PUSH2 0x1519 SWAP1 PUSH2 0x2A49 JUMP JUMPDEST PUSH1 0x40 MLOAD DUP1 SWAP2 SUB SWAP1 REVERT JUMPDEST PUSH1 0x2 PUSH1 0x7 PUSH1 0x0 DUP10 DUP2 MSTORE PUSH1 0x20 ADD SWAP1 DUP2 MSTORE PUSH1 0x20 ADD PUSH1 0x0 KECCAK256 PUSH1 0x10 ADD PUSH1 0x0 PUSH2 0x100 EXP DUP2 SLOAD DUP2 PUSH1 0xFF MUL NOT AND SWAP1 DUP4 PUSH1 0x2 DUP2 GT ISZERO PUSH2 0x155C JUMPI PUSH2 0x155B PUSH2 0x2E61 JUMP JUMPDEST JUMPDEST MUL OR SWAP1 SSTORE POP PUSH1 0x0 PUSH1 0x5 PUSH1 0x0 DUP9 DUP2 MSTORE PUSH1 0x20 ADD SWAP1 DUP2 MSTORE PUSH1 0x20 ADD PUSH1 0x0 KECCAK256 PUSH1 0x9 ADD PUSH1 0x0 PUSH2 0x100 EXP DUP2 SLOAD DUP2 PUSH1 0xFF MUL NOT AND SWAP1 DUP4 PUSH1 0x1 DUP2 GT ISZERO PUSH2 0x159B JUMPI PUSH2 0x159A PUSH2 0x2E61 JUMP JUMPDEST JUMPDEST MUL OR SWAP1 SSTORE POP PUSH1 0x0 PUSH1 0x7 PUSH1 0x0 DUP10 DUP2 MSTORE PUSH1 0x20 ADD SWAP1 DUP2 MSTORE PUSH1 0x20 ADD PUSH1 0x0 KECCAK256 PUSH1 0xE ADD SLOAD SWAP1 POP PUSH1 0x0 CALLER SWAP1 POP PUSH1 0x0 DUP2 PUSH20 0xFFFFFFFFFFFFFFFFFFFFFFFFFFFFFFFFFFFFFFFF AND DUP4 PUSH1 0x40 MLOAD PUSH2 0x15E6 SWAP1 PUSH2 0x292E JUMP JUMPDEST PUSH1 0x0 PUSH1 0x40 MLOAD DUP1 DUP4 SUB DUP2 DUP6 DUP8 GAS CALL SWAP3 POP POP POP RETURNDATASIZE DUP1 PUSH1 0x0 DUP2 EQ PUSH2 0x1623 JUMPI PUSH1 0x40 MLOAD SWAP2 POP PUSH1 0x1F NOT PUSH1 0x3F RETURNDATASIZE ADD AND DUP3 ADD PUSH1 0x40 MSTORE RETURNDATASIZE DUP3 MSTORE RETURNDATASIZE PUSH1 0x0 PUSH1 0x20 DUP5 ADD RETURNDATACOPY PUSH2 0x1628 JUMP JUMPDEST PUSH1 0x60 SWAP2 POP JUMPDEST POP POP SWAP1 POP DUP1 PUSH2 0x166C JUMPI PUSH1 0x40 MLOAD PUSH32 0x8C379A000000000000000000000000000000000000000000000000000000000 DUP2 MSTORE PUSH1 0x4 ADD PUSH2 0x1663 SWAP1 PUSH2 0x2A89 JUMP JUMPDEST PUSH1 0x40 MLOAD DUP1 SWAP2 SUB SWAP1 REVERT JUMPDEST PUSH1 0x4 SLOAD PUSH1 0x8 DUP1 SLOAD SWAP1 POP EQ SWAP8 POP POP POP POP POP POP POP POP SWAP3 SWAP2 POP POP JUMP JUMPDEST PUSH1 0x0 PUSH2 0x16AB DUP3 PUSH1 0x0 DUP1 DUP7 DUP2 MSTORE PUSH1 0x20 ADD SWAP1 DUP2 MSTORE PUSH1 0x20 ADD PUSH1 0x0 KECCAK256 PUSH2 0x1FB8 SWAP1 SWAP2 SWAP1 PUSH4 0xFFFFFFFF AND JUMP JUMPDEST SWAP1 POP SWAP3 SWAP2 POP POP JUMP JUMPDEST PUSH1 0x0 PUSH2 0x16D9 DUP3 PUSH1 0x0 DUP1 DUP7 DUP2 MSTORE PUSH1 0x20 ADD SWAP1 DUP2 MSTORE PUSH1 0x20 ADD PUSH1 0x0 KECCAK256 PUSH2 0x1FD2 SWAP1 SWAP2 SWAP1 PUSH4 0xFFFFFFFF AND JUMP JUMPDEST SWAP1 POP SWAP3 SWAP2 POP POP JUMP JUMPDEST PUSH1 0x3 SLOAD DUP2 JUMP JUMPDEST PUSH1 0x0 PUSH2 0x1713 PUSH32 0x52454E5445520000000000000000000000000000000000000000000000000000 DUP4 PUSH2 0x16B3 JUMP JUMPDEST SWAP1 POP SWAP2 SWAP1 POP JUMP JUMPDEST PUSH1 0x0 PUSH2 0x1725 CALLER PUSH2 0x16E7 JUMP JUMPDEST PUSH2 0x1764 JUMPI PUSH1 0x40 MLOAD PUSH32 0x8C379A000000000000000000000000000000000000000000000000000000000 DUP2 MSTORE PUSH1 0x4 ADD PUSH2 0x175B SWAP1 PUSH2 0x2AE9 JUMP JUMPDEST PUSH1 0x40 MLOAD DUP1 SWAP2 SUB SWAP1 REVERT JUMPDEST DUP4 PUSH1 0x0 PUSH1 0x5 PUSH1 0x0 DUP4 DUP2 MSTORE PUSH1 0x20 ADD SWAP1 DUP2 MSTORE PUSH1 0x20 ADD PUSH1 0x0 KECCAK256 PUSH1 0x0 ADD SLOAD GT PUSH2 0x17BE JUMPI PUSH1 0x40 MLOAD PUSH32 0x8C379A000000000000000000000000000000000000000000000000000000000 DUP2 MSTORE PUSH1 0x4 ADD PUSH2 0x17B5 SWAP1 PUSH2 0x2B09 JUMP JUMPDEST PUSH1 0x40 MLOAD DUP1 SWAP2 SUB SWAP1 REVERT JUMPDEST PUSH1 0x1 PUSH1 0x4 SLOAD PUSH2 0x17CD SWAP2 SWAP1 PUSH2 0x2C13 JUMP JUMPDEST PUSH1 0x8 DUP1 SLOAD SWAP1 POP LT PUSH2 0x1813 JUMPI PUSH1 0x40 MLOAD PUSH32 0x8C379A000000000000000000000000000000000000000000000000000000000 DUP2 MSTORE PUSH1 0x4 ADD PUSH2 0x180A SWAP1 PUSH2 0x2A09 JUMP JUMPDEST PUSH1 0x40 MLOAD DUP1 SWAP2 SUB SWAP1 REVERT JUMPDEST PUSH1 0x4 PUSH1 0x0 DUP2 SLOAD DUP1 SWAP3 SWAP2 SWAP1 PUSH2 0x1826 SWAP1 PUSH2 0x2DE9 JUMP JUMPDEST SWAP2 SWAP1 POP SSTORE POP PUSH1 0x0 DUP4 PUSH1 0x5 PUSH1 0x0 DUP9 DUP2 MSTORE PUSH1 0x20 ADD SWAP1 DUP2 MSTORE PUSH1 0x20 ADD PUSH1 0x0 KECCAK256 PUSH1 0x8 ADD SLOAD PUSH2 0x184F SWAP2 SWAP1 PUSH2 0x2C69 JUMP JUMPDEST SWAP1 POP PUSH1 0x0 PUSH1 0x40 MLOAD DUP1 PUSH1 0xE0 ADD PUSH1 0x40 MSTORE DUP1 CALLER PUSH20 0xFFFFFFFFFFFFFFFFFFFFFFFFFFFFFFFFFFFFFFFF AND DUP2 MSTORE PUSH1 0x20 ADD PUSH1 0x5 PUSH1 0x0 DUP11 DUP2 MSTORE PUSH1 0x20 ADD SWAP1 DUP2 MSTORE PUSH1 0x20 ADD PUSH1 0x0 KECCAK256 PUSH1 0x40 MLOAD DUP1 PUSH2 0x120 ADD PUSH1 0x40 MSTORE SWAP1 DUP2 PUSH1 0x0 DUP3 ADD SLOAD DUP2 MSTORE PUSH1 0x20 ADD PUSH1 0x1 DUP3 ADD SLOAD DUP2 MSTORE PUSH1 0x20 ADD PUSH1 0x2 DUP3 ADD SLOAD DUP2 MSTORE PUSH1 0x20 ADD PUSH1 0x3 DUP3 ADD PUSH1 0x0 SWAP1 SLOAD SWAP1 PUSH2 0x100 EXP SWAP1 DIV PUSH1 0xFF AND PUSH1 0x6 DUP2 GT ISZERO PUSH2 0x18DC JUMPI PUSH2 0x18DB PUSH2 0x2E61 JUMP JUMPDEST JUMPDEST PUSH1 0x6 DUP2 GT ISZERO PUSH2 0x18EE JUMPI PUSH2 0x18ED PUSH2 0x2E61 JUMP JUMPDEST JUMPDEST DUP2 MSTORE PUSH1 0x20 ADD PUSH1 0x4 DUP3 ADD PUSH1 0x40 MLOAD DUP1 PUSH1 0x40 ADD PUSH1 0x40 MSTORE SWAP1 DUP2 PUSH1 0x0 DUP3 ADD SLOAD DUP2 MSTORE PUSH1 0x20 ADD PUSH1 0x1 DUP3 ADD SLOAD DUP2 MSTORE POP POP DUP2 MSTORE PUSH1 0x20 ADD PUSH1 0x6 DUP3 ADD SLOAD DUP2 MSTORE PUSH1 0x20 ADD PUSH1 0x7 DUP3 ADD SLOAD DUP2 MSTORE PUSH1 0x20 ADD PUSH1 0x8 DUP3 ADD SLOAD DUP2 MSTORE PUSH1 0x20 ADD PUSH1 0x9 DUP3 ADD PUSH1 0x0 SWAP1 SLOAD SWAP1 PUSH2 0x100 EXP SWAP1 DIV PUSH1 0xFF AND PUSH1 0x1 DUP2 GT ISZERO PUSH2 0x195D JUMPI PUSH2 0x195C PUSH2 0x2E61 JUMP JUMPDEST JUMPDEST PUSH1 0x1 DUP2 GT ISZERO PUSH2 0x196F JUMPI PUSH2 0x196E PUSH2 0x2E61 JUMP JUMPDEST JUMPDEST DUP2 MSTORE POP POP DUP2 MSTORE PUSH1 0x20 ADD DUP8 DUP2 MSTORE PUSH1 0x20 ADD DUP4 DUP2 MSTORE PUSH1 0x20 ADD PUSH1 0x0 DUP2 MSTORE PUSH1 0x20 ADD TIMESTAMP DUP2 MSTORE PUSH1 0x20 ADD PUSH1 0x0 PUSH1 0x2 DUP2 GT ISZERO PUSH2 0x19A5 JUMPI PUSH2 0x19A4 PUSH2 0x2E61 JUMP JUMPDEST JUMPDEST DUP2 MSTORE POP SWAP1 POP DUP1 PUSH1 0x7 PUSH1 0x0 PUSH1 0x4 SLOAD DUP2 MSTORE PUSH1 0x20 ADD SWAP1 DUP2 MSTORE PUSH1 0x20 ADD PUSH1 0x0 KECCAK256 PUSH1 0x0 DUP3 ADD MLOAD DUP2 PUSH1 0x0 ADD PUSH1 0x0 PUSH2 0x100 EXP DUP2 SLOAD DUP2 PUSH20 0xFFFFFFFFFFFFFFFFFFFFFFFFFFFFFFFFFFFFFFFF MUL NOT AND SWAP1 DUP4 PUSH20 0xFFFFFFFFFFFFFFFFFFFFFFFFFFFFFFFFFFFFFFFF AND MUL OR SWAP1 SSTORE POP PUSH1 0x20 DUP3 ADD MLOAD DUP2 PUSH1 0x1 ADD PUSH1 0x0 DUP3 ADD MLOAD DUP2 PUSH1 0x0 ADD SSTORE PUSH1 0x20 DUP3 ADD MLOAD DUP2 PUSH1 0x1 ADD SSTORE PUSH1 0x40 DUP3 ADD MLOAD DUP2 PUSH1 0x2 ADD SSTORE PUSH1 0x60 DUP3 ADD MLOAD DUP2 PUSH1 0x3 ADD PUSH1 0x0 PUSH2 0x100 EXP DUP2 SLOAD DUP2 PUSH1 0xFF MUL NOT AND SWAP1 DUP4 PUSH1 0x6 DUP2 GT ISZERO PUSH2 0x1A59 JUMPI PUSH2 0x1A58 PUSH2 0x2E61 JUMP JUMPDEST JUMPDEST MUL OR SWAP1 SSTORE POP PUSH1 0x80 DUP3 ADD MLOAD DUP2 PUSH1 0x4 ADD PUSH1 0x0 DUP3 ADD MLOAD DUP2 PUSH1 0x0 ADD SSTORE PUSH1 0x20 DUP3 ADD MLOAD DUP2 PUSH1 0x1 ADD SSTORE POP POP PUSH1 0xA0 DUP3 ADD MLOAD DUP2 PUSH1 0x6 ADD SSTORE PUSH1 0xC0 DUP3 ADD MLOAD DUP2 PUSH1 0x7 ADD SSTORE PUSH1 0xE0 DUP3 ADD MLOAD DUP2 PUSH1 0x8 ADD SSTORE PUSH2 0x100 DUP3 ADD MLOAD DUP2 PUSH1 0x9 ADD PUSH1 0x0 PUSH2 0x100 EXP DUP2 SLOAD DUP2 PUSH1 0xFF MUL NOT AND SWAP1 DUP4 PUSH1 0x1 DUP2 GT ISZERO PUSH2 0x1AC7 JUMPI PUSH2 0x1AC6 PUSH2 0x2E61 JUMP JUMPDEST JUMPDEST MUL OR SWAP1 SSTORE POP POP POP PUSH1 0x40 DUP3 ADD MLOAD DUP2 PUSH1 0xB ADD PUSH1 0x0 DUP3 ADD MLOAD DUP2 PUSH1 0x0 ADD SSTORE PUSH1 0x20 DUP3 ADD MLOAD DUP2 PUSH1 0x1 ADD SSTORE POP POP PUSH1 0x60 DUP3 ADD MLOAD DUP2 PUSH1 0xD ADD SSTORE PUSH1 0x80 DUP3 ADD MLOAD DUP2 PUSH1 0xE ADD SSTORE PUSH1 0xA0 DUP3 ADD MLOAD DUP2 PUSH1 0xF ADD SSTORE PUSH1 0xC0 DUP3 ADD MLOAD DUP2 PUSH1 0x10 ADD PUSH1 0x0 PUSH2 0x100 EXP DUP2 SLOAD DUP2 PUSH1 0xFF MUL NOT AND SWAP1 DUP4 PUSH1 0x2 DUP2 GT ISZERO PUSH2 0x1B36 JUMPI PUSH2 0x1B35 PUSH2 0x2E61 JUMP JUMPDEST JUMPDEST MUL OR SWAP1 SSTORE POP SWAP1 POP POP PUSH1 0x8 DUP2 SWAP1 DUP1 PUSH1 0x1 DUP2 SLOAD ADD DUP1 DUP3 SSTORE DUP1 SWAP2 POP POP PUSH1 0x1 SWAP1 SUB SWAP1 PUSH1 0x0 MSTORE PUSH1 0x20 PUSH1 0x0 KECCAK256 SWAP1 PUSH1 0x11 MUL ADD PUSH1 0x0 SWAP1 SWAP2 SWAP1 SWAP2 SWAP1 SWAP2 POP PUSH1 0x0 DUP3 ADD MLOAD DUP2 PUSH1 0x0 ADD PUSH1 0x0 PUSH2 0x100 EXP DUP2 SLOAD DUP2 PUSH20 0xFFFFFFFFFFFFFFFFFFFFFFFFFFFFFFFFFFFFFFFF MUL NOT AND SWAP1 DUP4 PUSH20 0xFFFFFFFFFFFFFFFFFFFFFFFFFFFFFFFFFFFFFFFF AND MUL OR SWAP1 SSTORE POP PUSH1 0x20 DUP3 ADD MLOAD DUP2 PUSH1 0x1 ADD PUSH1 0x0 DUP3 ADD MLOAD DUP2 PUSH1 0x0 ADD SSTORE PUSH1 0x20 DUP3 ADD MLOAD DUP2 PUSH1 0x1 ADD SSTORE PUSH1 0x40 DUP3 ADD MLOAD DUP2 PUSH1 0x2 ADD SSTORE PUSH1 0x60 DUP3 ADD MLOAD DUP2 PUSH1 0x3 ADD PUSH1 0x0 PUSH2 0x100 EXP DUP2 SLOAD DUP2 PUSH1 0xFF MUL NOT AND SWAP1 DUP4 PUSH1 0x6 DUP2 GT ISZERO PUSH2 0x1C03 JUMPI PUSH2 0x1C02 PUSH2 0x2E61 JUMP JUMPDEST JUMPDEST MUL OR SWAP1 SSTORE POP PUSH1 0x80 DUP3 ADD MLOAD DUP2 PUSH1 0x4 ADD PUSH1 0x0 DUP3 ADD MLOAD DUP2 PUSH1 0x0 ADD SSTORE PUSH1 0x20 DUP3 ADD MLOAD DUP2 PUSH1 0x1 ADD SSTORE POP POP PUSH1 0xA0 DUP3 ADD MLOAD DUP2 PUSH1 0x6 ADD SSTORE PUSH1 0xC0 DUP3 ADD MLOAD DUP2 PUSH1 0x7 ADD SSTORE PUSH1 0xE0 DUP3 ADD MLOAD DUP2 PUSH1 0x8 ADD SSTORE PUSH2 0x100 DUP3 ADD MLOAD DUP2 PUSH1 0x9 ADD PUSH1 0x0 PUSH2 0x100 EXP DUP2 SLOAD DUP2 PUSH1 0xFF MUL NOT AND SWAP1 DUP4 PUSH1 0x1 DUP2 GT ISZERO PUSH2 0x1C71 JUMPI PUSH2 0x1C70 PUSH2 0x2E61 JUMP JUMPDEST JUMPDEST MUL OR SWAP1 SSTORE POP POP POP PUSH1 0x40 DUP3 ADD MLOAD DUP2 PUSH1 0xB ADD PUSH1 0x0 DUP3 ADD MLOAD DUP2 PUSH1 0x0 ADD SSTORE PUSH1 0x20 DUP3 ADD MLOAD DUP2 PUSH1 0x1 ADD SSTORE POP POP PUSH1 0x60 DUP3 ADD MLOAD DUP2 PUSH1 0xD ADD SSTORE PUSH1 0x80 DUP3 ADD MLOAD DUP2 PUSH1 0xE ADD SSTORE PUSH1 0xA0 DUP3 ADD MLOAD DUP2 PUSH1 0xF ADD SSTORE PUSH1 0xC0 DUP3 ADD MLOAD DUP2 PUSH1 0x10 ADD PUSH1 0x0 PUSH2 0x100 EXP DUP2 SLOAD DUP2 PUSH1 0xFF MUL NOT AND SWAP1 DUP4 PUSH1 0x2 DUP2 GT ISZERO PUSH2 0x1CE0 JUMPI PUSH2 0x1CDF PUSH2 0x2E61 JUMP JUMPDEST JUMPDEST MUL OR SWAP1 SSTORE POP POP POP PUSH1 0x4 SLOAD PUSH1 0x8 DUP1 SLOAD SWAP1 POP EQ SWAP4 POP POP POP POP SWAP4 SWAP3 POP POP POP JUMP JUMPDEST PUSH2 0x1D27 PUSH32 0x52454E5445520000000000000000000000000000000000000000000000000000 CALLER PUSH2 0x1E98 JUMP JUMPDEST JUMP JUMPDEST PUSH1 0x6 DUP2 DUP2 SLOAD DUP2 LT PUSH2 0x1D39 JUMPI PUSH1 0x0 DUP1 REVERT JUMPDEST SWAP1 PUSH1 0x0 MSTORE PUSH1 0x20 PUSH1 0x0 KECCAK256 SWAP1 PUSH1 0xA MUL ADD PUSH1 0x0 SWAP2 POP SWAP1 POP DUP1 PUSH1 0x0 ADD SLOAD SWAP1 DUP1 PUSH1 0x1 ADD SLOAD SWAP1 DUP1 PUSH1 0x2 ADD SLOAD SWAP1 DUP1 PUSH1 0x3 ADD PUSH1 0x0 SWAP1 SLOAD SWAP1 PUSH2 0x100 EXP SWAP1 DIV PUSH1 0xFF AND SWAP1 DUP1 PUSH1 0x4 ADD PUSH1 0x40 MLOAD DUP1 PUSH1 0x40 ADD PUSH1 0x40 MSTORE SWAP1 DUP2 PUSH1 0x0 DUP3 ADD SLOAD DUP2 MSTORE PUSH1 0x20 ADD PUSH1 0x1 DUP3 ADD SLOAD DUP2 MSTORE POP POP SWAP1 DUP1 PUSH1 0x6 ADD SLOAD SWAP1 DUP1 PUSH1 0x7 ADD SLOAD SWAP1 DUP1 PUSH1 0x8 ADD SLOAD SWAP1 DUP1 PUSH1 0x9 ADD PUSH1 0x0 SWAP1 SLOAD SWAP1 PUSH2 0x100 EXP SWAP1 DIV PUSH1 0xFF AND SWAP1 POP DUP10 JUMP JUMPDEST PUSH32 0x52454E5445520000000000000000000000000000000000000000000000000000 DUP2 JUMP JUMPDEST PUSH1 0x0 PUSH2 0x1DFF PUSH1 0x0 DUP1 DUP5 DUP2 MSTORE PUSH1 0x20 ADD SWAP1 DUP2 MSTORE PUSH1 0x20 ADD PUSH1 0x0 KECCAK256 PUSH2 0x2002 JUMP JUMPDEST SWAP1 POP SWAP2 SWAP1 POP JUMP JUMPDEST DUP1 PUSH1 0x1 PUSH1 0x0 PUSH2 0x100 EXP DUP2 SLOAD DUP2 PUSH20 0xFFFFFFFFFFFFFFFFFFFFFFFFFFFFFFFFFFFFFFFF MUL NOT AND SWAP1 DUP4 PUSH20 0xFFFFFFFFFFFFFFFFFFFFFFFFFFFFFFFFFFFFFFFF AND MUL OR SWAP1 SSTORE POP PUSH2 0x1E71 PUSH32 0x52454E5445520000000000000000000000000000000000000000000000000000 DUP3 PUSH2 0x1F28 JUMP JUMPDEST POP JUMP JUMPDEST PUSH32 0x4F574E4552000000000000000000000000000000000000000000000000000000 DUP2 JUMP JUMPDEST PUSH2 0x1EBC DUP2 PUSH1 0x0 DUP1 DUP6 DUP2 MSTORE PUSH1 0x20 ADD SWAP1 DUP2 MSTORE PUSH1 0x20 ADD PUSH1 0x0 KECCAK256 PUSH2 0x2017 SWAP1 SWAP2 SWAP1 PUSH4 0xFFFFFFFF AND JUMP JUMPDEST ISZERO PUSH2 0x1F24 JUMPI PUSH2 0x1EC9 PUSH2 0x2047 JUMP JUMPDEST PUSH20 0xFFFFFFFFFFFFFFFFFFFFFFFFFFFFFFFFFFFFFFFF AND DUP2 PUSH20 0xFFFFFFFFFFFFFFFFFFFFFFFFFFFFFFFFFFFFFFFF AND DUP4 PUSH32 0xF6391F5C32D9C69D2A47EA670B442974B53935D1EDC7FD64EB21E047A839171B PUSH1 0x40 MLOAD PUSH1 0x40 MLOAD DUP1 SWAP2 SUB SWAP1 LOG4 JUMPDEST POP POP JUMP JUMPDEST PUSH2 0x1F4C DUP2 PUSH1 0x0 DUP1 DUP6 DUP2 MSTORE PUSH1 0x20 ADD SWAP1 DUP2 MSTORE PUSH1 0x20 ADD PUSH1 0x0 KECCAK256 PUSH2 0x204F SWAP1 SWAP2 SWAP1 PUSH4 0xFFFFFFFF AND JUMP JUMPDEST ISZERO PUSH2 0x1FB4 JUMPI PUSH2 0x1F59 PUSH2 0x2047 JUMP JUMPDEST PUSH20 0xFFFFFFFFFFFFFFFFFFFFFFFFFFFFFFFFFFFFFFFF AND DUP2 PUSH20 0xFFFFFFFFFFFFFFFFFFFFFFFFFFFFFFFFFFFFFFFF AND DUP4 PUSH32 0x2F8788117E7EFF1D82E926EC794901D17C78024A50270940304540A733656F0D PUSH1 0x40 MLOAD PUSH1 0x40 MLOAD DUP1 SWAP2 SUB SWAP1 LOG4 JUMPDEST POP POP JUMP JUMPDEST PUSH1 0x0 PUSH2 0x1FC7 DUP4 PUSH1 0x0 ADD DUP4 PUSH2 0x207F JUMP JUMPDEST PUSH1 0x0 SHR SWAP1 POP SWAP3 SWAP2 POP POP JUMP JUMPDEST PUSH1 0x0 PUSH2 0x1FFA DUP4 PUSH1 0x0 ADD DUP4 PUSH20 0xFFFFFFFFFFFFFFFFFFFFFFFFFFFFFFFFFFFFFFFF AND PUSH1 0x0 SHL PUSH2 0x20AA JUMP JUMPDEST SWAP1 POP SWAP3 SWAP2 POP POP JUMP JUMPDEST PUSH1 0x0 PUSH2 0x2010 DUP3 PUSH1 0x0 ADD PUSH2 0x20CD JUMP JUMPDEST SWAP1 POP SWAP2 SWAP1 POP JUMP JUMPDEST PUSH1 0x0 PUSH2 0x203F DUP4 PUSH1 0x0 ADD DUP4 PUSH20 0xFFFFFFFFFFFFFFFFFFFFFFFFFFFFFFFFFFFFFFFF AND PUSH1 0x0 SHL PUSH2 0x20DE JUMP JUMPDEST SWAP1 POP SWAP3 SWAP2 POP POP JUMP JUMPDEST PUSH1 0x0 CALLER SWAP1 POP SWAP1 JUMP JUMPDEST PUSH1 0x0 PUSH2 0x2077 DUP4 PUSH1 0x0 ADD DUP4 PUSH20 0xFFFFFFFFFFFFFFFFFFFFFFFFFFFFFFFFFFFFFFFF AND PUSH1 0x0 SHL PUSH2 0x21F2 JUMP JUMPDEST SWAP1 POP SWAP3 SWAP2 POP POP JUMP JUMPDEST PUSH1 0x0 DUP3 PUSH1 0x0 ADD DUP3 DUP2 SLOAD DUP2 LT PUSH2 0x2097 JUMPI PUSH2 0x2096 PUSH2 0x2EBF JUMP JUMPDEST JUMPDEST SWAP1 PUSH1 0x0 MSTORE PUSH1 0x20 PUSH1 0x0 KECCAK256 ADD SLOAD SWAP1 POP SWAP3 SWAP2 POP POP JUMP JUMPDEST PUSH1 0x0 DUP1 DUP4 PUSH1 0x1 ADD PUSH1 0x0 DUP5 DUP2 MSTORE PUSH1 0x20 ADD SWAP1 DUP2 MSTORE PUSH1 0x20 ADD PUSH1 0x0 KECCAK256 SLOAD EQ ISZERO SWAP1 POP SWAP3 SWAP2 POP POP JUMP JUMPDEST PUSH1 0x0 DUP2 PUSH1 0x0 ADD DUP1 SLOAD SWAP1 POP SWAP1 POP SWAP2 SWAP1 POP JUMP JUMPDEST PUSH1 0x0 DUP1 DUP4 PUSH1 0x1 ADD PUSH1 0x0 DUP5 DUP2 MSTORE PUSH1 0x20 ADD SWAP1 DUP2 MSTORE PUSH1 0x20 ADD PUSH1 0x0 KECCAK256 SLOAD SWAP1 POP PUSH1 0x0 DUP2 EQ PUSH2 0x21E6 JUMPI PUSH1 0x0 PUSH1 0x1 DUP3 PUSH2 0x2110 SWAP2 SWAP1 PUSH2 0x2CC3 JUMP JUMPDEST SWAP1 POP PUSH1 0x0 PUSH1 0x1 DUP7 PUSH1 0x0 ADD DUP1 SLOAD SWAP1 POP PUSH2 0x2128 SWAP2 SWAP1 PUSH2 0x2CC3 JUMP JUMPDEST SWAP1 POP DUP2 DUP2 EQ PUSH2 0x2197 JUMPI PUSH1 0x0 DUP7 PUSH1 0x0 ADD DUP3 DUP2 SLOAD DUP2 LT PUSH2 0x2149 JUMPI PUSH2 0x2148 PUSH2 0x2EBF JUMP JUMPDEST JUMPDEST SWAP1 PUSH1 0x0 MSTORE PUSH1 0x20 PUSH1 0x0 KECCAK256 ADD SLOAD SWAP1 POP DUP1 DUP8 PUSH1 0x0 ADD DUP5 DUP2 SLOAD DUP2 LT PUSH2 0x216D JUMPI PUSH2 0x216C PUSH2 0x2EBF JUMP JUMPDEST JUMPDEST SWAP1 PUSH1 0x0 MSTORE PUSH1 0x20 PUSH1 0x0 KECCAK256 ADD DUP2 SWAP1 SSTORE POP DUP4 DUP8 PUSH1 0x1 ADD PUSH1 0x0 DUP4 DUP2 MSTORE PUSH1 0x20 ADD SWAP1 DUP2 MSTORE PUSH1 0x20 ADD PUSH1 0x0 KECCAK256 DUP2 SWAP1 SSTORE POP POP JUMPDEST DUP6 PUSH1 0x0 ADD DUP1 SLOAD DUP1 PUSH2 0x21AB JUMPI PUSH2 0x21AA PUSH2 0x2E90 JUMP JUMPDEST JUMPDEST PUSH1 0x1 SWAP1 SUB DUP2 DUP2 SWAP1 PUSH1 0x0 MSTORE PUSH1 0x20 PUSH1 0x0 KECCAK256 ADD PUSH1 0x0 SWAP1 SSTORE SWAP1 SSTORE DUP6 PUSH1 0x1 ADD PUSH1 0x0 DUP7 DUP2 MSTORE PUSH1 0x20 ADD SWAP1 DUP2 MSTORE PUSH1 0x20 ADD PUSH1 0x0 KECCAK256 PUSH1 0x0 SWAP1 SSTORE PUSH1 0x1 SWAP4 POP POP POP POP PUSH2 0x21EC JUMP JUMPDEST PUSH1 0x0 SWAP2 POP POP JUMPDEST SWAP3 SWAP2 POP POP JUMP JUMPDEST PUSH1 0x0 PUSH2 0x21FE DUP4 DUP4 PUSH2 0x20AA JUMP JUMPDEST PUSH2 0x2257 JUMPI DUP3 PUSH1 0x0 ADD DUP3 SWAP1 DUP1 PUSH1 0x1 DUP2 SLOAD ADD DUP1 DUP3 SSTORE DUP1 SWAP2 POP POP PUSH1 0x1 SWAP1 SUB SWAP1 PUSH1 0x0 MSTORE PUSH1 0x20 PUSH1 0x0 KECCAK256 ADD PUSH1 0x0 SWAP1 SWAP2 SWAP1 SWAP2 SWAP1 SWAP2 POP SSTORE DUP3 PUSH1 0x0 ADD DUP1 SLOAD SWAP1 POP DUP4 PUSH1 0x1 ADD PUSH1 0x0 DUP5 DUP2 MSTORE PUSH1 0x20 ADD SWAP1 DUP2 MSTORE PUSH1 0x20 ADD PUSH1 0x0 KECCAK256 DUP2 SWAP1 SSTORE POP PUSH1 0x1 SWAP1 POP PUSH2 0x225C JUMP JUMPDEST PUSH1 0x0 SWAP1 POP JUMPDEST SWAP3 SWAP2 POP POP JUMP JUMPDEST PUSH1 0x0 DUP2 CALLDATALOAD SWAP1 POP PUSH2 0x2271 DUP2 PUSH2 0x31CC JUMP JUMPDEST SWAP3 SWAP2 POP POP JUMP JUMPDEST PUSH1 0x0 DUP2 CALLDATALOAD SWAP1 POP PUSH2 0x2286 DUP2 PUSH2 0x31E3 JUMP JUMPDEST SWAP3 SWAP2 POP POP JUMP JUMPDEST PUSH1 0x0 DUP2 CALLDATALOAD SWAP1 POP PUSH2 0x229B DUP2 PUSH2 0x31FA JUMP JUMPDEST SWAP3 SWAP2 POP POP JUMP JUMPDEST PUSH1 0x0 PUSH1 0x40 DUP3 DUP5 SUB SLT ISZERO PUSH2 0x22B7 JUMPI PUSH2 0x22B6 PUSH2 0x2F1D JUMP JUMPDEST JUMPDEST PUSH2 0x22C1 PUSH1 0x40 PUSH2 0x2BD2 JUMP JUMPDEST SWAP1 POP PUSH1 0x0 PUSH2 0x22D1 DUP5 DUP3 DUP6 ADD PUSH2 0x2277 JUMP JUMPDEST PUSH1 0x0 DUP4 ADD MSTORE POP PUSH1 0x20 PUSH2 0x22E5 DUP5 DUP3 DUP6 ADD PUSH2 0x2277 JUMP JUMPDEST PUSH1 0x20 DUP4 ADD MSTORE POP SWAP3 SWAP2 POP POP JUMP JUMPDEST PUSH1 0x0 PUSH1 0x40 DUP3 DUP5 SUB SLT ISZERO PUSH2 0x2307 JUMPI PUSH2 0x2306 PUSH2 0x2F1D JUMP JUMPDEST JUMPDEST PUSH2 0x2311 PUSH1 0x40 PUSH2 0x2BD2 JUMP JUMPDEST SWAP1 POP PUSH1 0x0 PUSH2 0x2321 DUP5 DUP3 DUP6 ADD PUSH2 0x2277 JUMP JUMPDEST PUSH1 0x0 DUP4 ADD MSTORE POP PUSH1 0x20 PUSH2 0x2335 DUP5 DUP3 DUP6 ADD PUSH2 0x2277 JUMP JUMPDEST PUSH1 0x20 DUP4 ADD MSTORE POP SWAP3 SWAP2 POP POP JUMP JUMPDEST PUSH1 0x0 DUP2 CALLDATALOAD SWAP1 POP PUSH2 0x2350 DUP2 PUSH2 0x320A JUMP JUMPDEST SWAP3 SWAP2 POP POP JUMP JUMPDEST PUSH1 0x0 PUSH1 0x20 DUP3 DUP5 SUB SLT ISZERO PUSH2 0x236C JUMPI PUSH2 0x236B PUSH2 0x2F22 JUMP JUMPDEST JUMPDEST PUSH1 0x0 PUSH2 0x237A DUP5 DUP3 DUP6 ADD PUSH2 0x2262 JUMP JUMPDEST SWAP2 POP POP SWAP3 SWAP2 POP POP JUMP JUMPDEST PUSH1 0x0 PUSH1 0x20 DUP3 DUP5 SUB SLT ISZERO PUSH2 0x2399 JUMPI PUSH2 0x2398 PUSH2 0x2F22 JUMP JUMPDEST JUMPDEST PUSH1 0x0 PUSH2 0x23A7 DUP5 DUP3 DUP6 ADD PUSH2 0x2277 JUMP JUMPDEST SWAP2 POP POP SWAP3 SWAP2 POP POP JUMP JUMPDEST PUSH1 0x0 DUP1 PUSH1 0x40 DUP4 DUP6 SUB SLT ISZERO PUSH2 0x23C7 JUMPI PUSH2 0x23C6 PUSH2 0x2F22 JUMP JUMPDEST JUMPDEST PUSH1 0x0 PUSH2 0x23D5 DUP6 DUP3 DUP7 ADD PUSH2 0x2277 JUMP JUMPDEST SWAP3 POP POP PUSH1 0x20 PUSH2 0x23E6 DUP6 DUP3 DUP7 ADD PUSH2 0x2262 JUMP JUMPDEST SWAP2 POP POP SWAP3 POP SWAP3 SWAP1 POP JUMP JUMPDEST PUSH1 0x0 DUP1 PUSH1 0x0 DUP1 PUSH1 0x0 DUP1 PUSH1 0x0 PUSH2 0x100 DUP9 DUP11 SUB SLT ISZERO PUSH2 0x2410 JUMPI PUSH2 0x240F PUSH2 0x2F22 JUMP JUMPDEST JUMPDEST PUSH1 0x0 PUSH2 0x241E DUP11 DUP3 DUP12 ADD PUSH2 0x2277 JUMP JUMPDEST SWAP8 POP POP PUSH1 0x20 PUSH2 0x242F DUP11 DUP3 DUP12 ADD PUSH2 0x2277 JUMP JUMPDEST SWAP7 POP POP PUSH1 0x40 PUSH2 0x2440 DUP11 DUP3 DUP12 ADD PUSH2 0x228C JUMP JUMPDEST SWAP6 POP POP PUSH1 0x60 PUSH2 0x2451 DUP11 DUP3 DUP12 ADD PUSH2 0x22A1 JUMP JUMPDEST SWAP5 POP POP PUSH1 0xA0 PUSH2 0x2462 DUP11 DUP3 DUP12 ADD PUSH2 0x2341 JUMP JUMPDEST SWAP4 POP POP PUSH1 0xC0 PUSH2 0x2473 DUP11 DUP3 DUP12 ADD PUSH2 0x2277 JUMP JUMPDEST SWAP3 POP POP PUSH1 0xE0 PUSH2 0x2484 DUP11 DUP3 DUP12 ADD PUSH2 0x2341 JUMP JUMPDEST SWAP2 POP POP SWAP3 SWAP6 SWAP9 SWAP2 SWAP5 SWAP8 POP SWAP3 SWAP6 POP JUMP JUMPDEST PUSH1 0x0 DUP1 PUSH1 0x40 DUP4 DUP6 SUB SLT ISZERO PUSH2 0x24AA JUMPI PUSH2 0x24A9 PUSH2 0x2F22 JUMP JUMPDEST JUMPDEST PUSH1 0x0 PUSH2 0x24B8 DUP6 DUP3 DUP7 ADD PUSH2 0x2277 JUMP JUMPDEST SWAP3 POP POP PUSH1 0x20 PUSH2 0x24C9 DUP6 DUP3 DUP7 ADD PUSH2 0x2341 JUMP JUMPDEST SWAP2 POP POP SWAP3 POP SWAP3 SWAP1 POP JUMP JUMPDEST PUSH1 0x0 PUSH1 0x20 DUP3 DUP5 SUB SLT ISZERO PUSH2 0x24E9 JUMPI PUSH2 0x24E8 PUSH2 0x2F22 JUMP JUMPDEST JUMPDEST PUSH1 0x0 PUSH2 0x24F7 DUP5 DUP3 DUP6 ADD PUSH2 0x2341 JUMP JUMPDEST SWAP2 POP POP SWAP3 SWAP2 POP POP JUMP JUMPDEST PUSH1 0x0 DUP1 PUSH1 0x0 PUSH1 0x80 DUP5 DUP7 SUB SLT ISZERO PUSH2 0x2519 JUMPI PUSH2 0x2518 PUSH2 0x2F22 JUMP JUMPDEST JUMPDEST PUSH1 0x0 PUSH2 0x2527 DUP7 DUP3 DUP8 ADD PUSH2 0x2341 JUMP JUMPDEST SWAP4 POP POP PUSH1 0x20 PUSH2 0x2538 DUP7 DUP3 DUP8 ADD PUSH2 0x22F1 JUMP JUMPDEST SWAP3 POP POP PUSH1 0x60 PUSH2 0x2549 DUP7 DUP3 DUP8 ADD PUSH2 0x2341 JUMP JUMPDEST SWAP2 POP POP SWAP3 POP SWAP3 POP SWAP3 JUMP JUMPDEST PUSH1 0x0 DUP1 PUSH1 0x40 DUP4 DUP6 SUB SLT ISZERO PUSH2 0x256A JUMPI PUSH2 0x2569 PUSH2 0x2F22 JUMP JUMPDEST JUMPDEST PUSH1 0x0 PUSH2 0x2578 DUP6 DUP3 DUP7 ADD PUSH2 0x2341 JUMP JUMPDEST SWAP3 POP POP PUSH1 0x20 PUSH2 0x2589 DUP6 DUP3 DUP7 ADD PUSH2 0x2341 JUMP JUMPDEST SWAP2 POP POP SWAP3 POP SWAP3 SWAP1 POP JUMP JUMPDEST PUSH1 0x0 DUP1 PUSH1 0x0 PUSH1 0x60 DUP5 DUP7 SUB SLT ISZERO PUSH2 0x25AC JUMPI PUSH2 0x25AB PUSH2 0x2F22 JUMP JUMPDEST JUMPDEST PUSH1 0x0 PUSH2 0x25BA DUP7 DUP3 DUP8 ADD PUSH2 0x2341 JUMP JUMPDEST SWAP4 POP POP PUSH1 0x20 PUSH2 0x25CB DUP7 DUP3 DUP8 ADD PUSH2 0x2341 JUMP JUMPDEST SWAP3 POP POP PUSH1 0x40 PUSH2 0x25DC DUP7 DUP3 DUP8 ADD PUSH2 0x2341 JUMP JUMPDEST SWAP2 POP POP SWAP3 POP SWAP3 POP SWAP3 JUMP JUMPDEST PUSH2 0x25EF DUP2 PUSH2 0x2CF7 JUMP JUMPDEST DUP3 MSTORE POP POP JUMP JUMPDEST PUSH2 0x25FE DUP2 PUSH2 0x2D09 JUMP JUMPDEST DUP3 MSTORE POP POP JUMP JUMPDEST PUSH2 0x260D DUP2 PUSH2 0x2D15 JUMP JUMPDEST DUP3 MSTORE POP POP JUMP JUMPDEST PUSH2 0x261C DUP2 PUSH2 0x2D15 JUMP JUMPDEST DUP3 MSTORE POP POP JUMP JUMPDEST PUSH2 0x262B DUP2 PUSH2 0x2D82 JUMP JUMPDEST DUP3 MSTORE POP POP JUMP JUMPDEST PUSH2 0x263A DUP2 PUSH2 0x2D94 JUMP JUMPDEST DUP3 MSTORE POP POP JUMP JUMPDEST PUSH2 0x2649 DUP2 PUSH2 0x2D94 JUMP JUMPDEST DUP3 MSTORE POP POP JUMP JUMPDEST PUSH2 0x2658 DUP2 PUSH2 0x2DA6 JUMP JUMPDEST DUP3 MSTORE POP POP JUMP JUMPDEST PUSH2 0x2667 DUP2 PUSH2 0x2DA6 JUMP JUMPDEST DUP3 MSTORE POP POP JUMP JUMPDEST PUSH1 0x0 PUSH2 0x267A PUSH1 0x2E DUP4 PUSH2 0x2C02 JUMP JUMPDEST SWAP2 POP PUSH2 0x2685 DUP3 PUSH2 0x2F38 JUMP JUMPDEST PUSH1 0x40 DUP3 ADD SWAP1 POP SWAP2 SWAP1 POP JUMP JUMPDEST PUSH1 0x0 PUSH2 0x269D PUSH1 0x2D DUP4 PUSH2 0x2C02 JUMP JUMPDEST SWAP2 POP PUSH2 0x26A8 DUP3 PUSH2 0x2F87 JUMP JUMPDEST PUSH1 0x40 DUP3 ADD SWAP1 POP SWAP2 SWAP1 POP JUMP JUMPDEST PUSH1 0x0 PUSH2 0x26C0 PUSH1 0x40 DUP4 PUSH2 0x2C02 JUMP JUMPDEST SWAP2 POP PUSH2 0x26CB DUP3 PUSH2 0x2FD6 JUMP JUMPDEST PUSH1 0x40 DUP3 ADD SWAP1 POP SWAP2 SWAP1 POP JUMP JUMPDEST PUSH1 0x0 PUSH2 0x26E3 PUSH1 0x15 DUP4 PUSH2 0x2C02 JUMP JUMPDEST SWAP2 POP PUSH2 0x26EE DUP3 PUSH2 0x3025 JUMP JUMPDEST PUSH1 0x20 DUP3 ADD SWAP1 POP SWAP2 SWAP1 POP JUMP JUMPDEST PUSH1 0x0 PUSH2 0x2706 PUSH1 0x14 DUP4 PUSH2 0x2C02 JUMP JUMPDEST SWAP2 POP PUSH2 0x2711 DUP3 PUSH2 0x304E JUMP JUMPDEST PUSH1 0x20 DUP3 ADD SWAP1 POP SWAP2 SWAP1 POP JUMP JUMPDEST PUSH1 0x0 PUSH2 0x2729 PUSH1 0x30 DUP4 PUSH2 0x2C02 JUMP JUMPDEST SWAP2 POP PUSH2 0x2734 DUP3 PUSH2 0x3077 JUMP JUMPDEST PUSH1 0x40 DUP3 ADD SWAP1 POP SWAP2 SWAP1 POP JUMP JUMPDEST PUSH1 0x0 PUSH2 0x274C PUSH1 0x3E DUP4 PUSH2 0x2C02 JUMP JUMPDEST SWAP2 POP PUSH2 0x2757 DUP3 PUSH2 0x30C6 JUMP JUMPDEST PUSH1 0x40 DUP3 ADD SWAP1 POP SWAP2 SWAP1 POP JUMP JUMPDEST PUSH1 0x0 PUSH2 0x276F PUSH1 0x0 DUP4 PUSH2 0x2BF7 JUMP JUMPDEST SWAP2 POP PUSH2 0x277A DUP3 PUSH2 0x3115 JUMP JUMPDEST PUSH1 0x0 DUP3 ADD SWAP1 POP SWAP2 SWAP1 POP JUMP JUMPDEST PUSH1 0x0 PUSH2 0x2792 PUSH1 0x16 DUP4 PUSH2 0x2C02 JUMP JUMPDEST SWAP2 POP PUSH2 0x279D DUP3 PUSH2 0x3118 JUMP JUMPDEST PUSH1 0x20 DUP3 ADD SWAP1 POP SWAP2 SWAP1 POP JUMP JUMPDEST PUSH1 0x0 PUSH2 0x27B5 PUSH1 0x3D DUP4 PUSH2 0x2C02 JUMP JUMPDEST SWAP2 POP PUSH2 0x27C0 DUP3 PUSH2 0x3141 JUMP JUMPDEST PUSH1 0x40 DUP3 ADD SWAP1 POP SWAP2 SWAP1 POP JUMP JUMPDEST PUSH1 0x40 DUP3 ADD PUSH1 0x0 DUP3 ADD MLOAD PUSH2 0x27E1 PUSH1 0x0 DUP6 ADD DUP3 PUSH2 0x2604 JUMP JUMPDEST POP PUSH1 0x20 DUP3 ADD MLOAD PUSH2 0x27F4 PUSH1 0x20 DUP6 ADD DUP3 PUSH2 0x2604 JUMP JUMPDEST POP POP POP POP JUMP JUMPDEST PUSH1 0x40 DUP3 ADD PUSH1 0x0 DUP3 ADD MLOAD PUSH2 0x2810 PUSH1 0x0 DUP6 ADD DUP3 PUSH2 0x2604 JUMP JUMPDEST POP PUSH1 0x20 DUP3 ADD MLOAD PUSH2 0x2823 PUSH1 0x20 DUP6 ADD DUP3 PUSH2 0x2604 JUMP JUMPDEST POP POP POP POP JUMP JUMPDEST PUSH1 0x40 DUP3 ADD PUSH1 0x0 DUP3 ADD MLOAD PUSH2 0x283F PUSH1 0x0 DUP6 ADD DUP3 PUSH2 0x2604 JUMP JUMPDEST POP PUSH1 0x20 DUP3 ADD MLOAD PUSH2 0x2852 PUSH1 0x20 DUP6 ADD DUP3 PUSH2 0x2604 JUMP JUMPDEST POP POP POP POP JUMP JUMPDEST PUSH2 0x140 DUP3 ADD PUSH1 0x0 DUP3 ADD MLOAD PUSH2 0x286F PUSH1 0x0 DUP6 ADD DUP3 PUSH2 0x2910 JUMP JUMPDEST POP PUSH1 0x20 DUP3 ADD MLOAD PUSH2 0x2882 PUSH1 0x20 DUP6 ADD DUP3 PUSH2 0x2604 JUMP JUMPDEST POP PUSH1 0x40 DUP3 ADD MLOAD PUSH2 0x2895 PUSH1 0x40 DUP6 ADD DUP3 PUSH2 0x2604 JUMP JUMPDEST POP PUSH1 0x60 DUP3 ADD MLOAD PUSH2 0x28A8 PUSH1 0x60 DUP6 ADD DUP3 PUSH2 0x264F JUMP JUMPDEST POP PUSH1 0x80 DUP3 ADD MLOAD PUSH2 0x28BB PUSH1 0x80 DUP6 ADD DUP3 PUSH2 0x27CB JUMP JUMPDEST POP PUSH1 0xA0 DUP3 ADD MLOAD PUSH2 0x28CE PUSH1 0xC0 DUP6 ADD DUP3 PUSH2 0x2910 JUMP JUMPDEST POP PUSH1 0xC0 DUP3 ADD MLOAD PUSH2 0x28E1 PUSH1 0xE0 DUP6 ADD DUP3 PUSH2 0x2604 JUMP JUMPDEST POP PUSH1 0xE0 DUP3 ADD MLOAD PUSH2 0x28F5 PUSH2 0x100 DUP6 ADD DUP3 PUSH2 0x2910 JUMP JUMPDEST POP PUSH2 0x100 DUP3 ADD MLOAD PUSH2 0x290A PUSH2 0x120 DUP6 ADD DUP3 PUSH2 0x2631 JUMP JUMPDEST POP POP POP POP JUMP JUMPDEST PUSH2 0x2919 DUP2 PUSH2 0x2D78 JUMP JUMPDEST DUP3 MSTORE POP POP JUMP JUMPDEST PUSH2 0x2928 DUP2 PUSH2 0x2D78 JUMP JUMPDEST DUP3 MSTORE POP POP JUMP JUMPDEST PUSH1 0x0 PUSH2 0x2939 DUP3 PUSH2 0x2762 JUMP JUMPDEST SWAP2 POP DUP2 SWAP1 POP SWAP2 SWAP1 POP JUMP JUMPDEST PUSH1 0x0 PUSH1 0x20 DUP3 ADD SWAP1 POP PUSH2 0x2958 PUSH1 0x0 DUP4 ADD DUP5 PUSH2 0x25E6 JUMP JUMPDEST SWAP3 SWAP2 POP POP JUMP JUMPDEST PUSH1 0x0 PUSH2 0x220 DUP3 ADD SWAP1 POP PUSH2 0x2974 PUSH1 0x0 DUP4 ADD DUP11 PUSH2 0x25E6 JUMP JUMPDEST PUSH2 0x2981 PUSH1 0x20 DUP4 ADD DUP10 PUSH2 0x2858 JUMP JUMPDEST PUSH2 0x298F PUSH2 0x160 DUP4 ADD DUP9 PUSH2 0x2829 JUMP JUMPDEST PUSH2 0x299D PUSH2 0x1A0 DUP4 ADD DUP8 PUSH2 0x291F JUMP JUMPDEST PUSH2 0x29AB PUSH2 0x1C0 DUP4 ADD DUP7 PUSH2 0x291F JUMP JUMPDEST PUSH2 0x29B9 PUSH2 0x1E0 DUP4 ADD DUP6 PUSH2 0x291F JUMP JUMPDEST PUSH2 0x29C7 PUSH2 0x200 DUP4 ADD DUP5 PUSH2 0x2622 JUMP JUMPDEST SWAP9 SWAP8 POP POP POP POP POP POP POP POP JUMP JUMPDEST PUSH1 0x0 PUSH1 0x20 DUP3 ADD SWAP1 POP PUSH2 0x29E8 PUSH1 0x0 DUP4 ADD DUP5 PUSH2 0x25F5 JUMP JUMPDEST SWAP3 SWAP2 POP POP JUMP JUMPDEST PUSH1 0x0 PUSH1 0x20 DUP3 ADD SWAP1 POP PUSH2 0x2A03 PUSH1 0x0 DUP4 ADD DUP5 PUSH2 0x2613 JUMP JUMPDEST SWAP3 SWAP2 POP POP JUMP JUMPDEST PUSH1 0x0 PUSH1 0x20 DUP3 ADD SWAP1 POP DUP2 DUP2 SUB PUSH1 0x0 DUP4 ADD MSTORE PUSH2 0x2A22 DUP2 PUSH2 0x266D JUMP JUMPDEST SWAP1 POP SWAP2 SWAP1 POP JUMP JUMPDEST PUSH1 0x0 PUSH1 0x20 DUP3 ADD SWAP1 POP DUP2 DUP2 SUB PUSH1 0x0 DUP4 ADD MSTORE PUSH2 0x2A42 DUP2 PUSH2 0x2690 JUMP JUMPDEST SWAP1 POP SWAP2 SWAP1 POP JUMP JUMPDEST PUSH1 0x0 PUSH1 0x20 DUP3 ADD SWAP1 POP DUP2 DUP2 SUB PUSH1 0x0 DUP4 ADD MSTORE PUSH2 0x2A62 DUP2 PUSH2 0x26B3 JUMP JUMPDEST SWAP1 POP SWAP2 SWAP1 POP JUMP JUMPDEST PUSH1 0x0 PUSH1 0x20 DUP3 ADD SWAP1 POP DUP2 DUP2 SUB PUSH1 0x0 DUP4 ADD MSTORE PUSH2 0x2A82 DUP2 PUSH2 0x26D6 JUMP JUMPDEST SWAP1 POP SWAP2 SWAP1 POP JUMP JUMPDEST PUSH1 0x0 PUSH1 0x20 DUP3 ADD SWAP1 POP DUP2 DUP2 SUB PUSH1 0x0 DUP4 ADD MSTORE PUSH2 0x2AA2 DUP2 PUSH2 0x26F9 JUMP JUMPDEST SWAP1 POP SWAP2 SWAP1 POP JUMP JUMPDEST PUSH1 0x0 PUSH1 0x20 DUP3 ADD SWAP1 POP DUP2 DUP2 SUB PUSH1 0x0 DUP4 ADD MSTORE PUSH2 0x2AC2 DUP2 PUSH2 0x271C JUMP JUMPDEST SWAP1 POP SWAP2 SWAP1 POP JUMP JUMPDEST PUSH1 0x0 PUSH1 0x20 DUP3 ADD SWAP1 POP DUP2 DUP2 SUB PUSH1 0x0 DUP4 ADD MSTORE PUSH2 0x2AE2 DUP2 PUSH2 0x273F JUMP JUMPDEST SWAP1 POP SWAP2 SWAP1 POP JUMP JUMPDEST PUSH1 0x0 PUSH1 0x20 DUP3 ADD SWAP1 POP DUP2 DUP2 SUB PUSH1 0x0 DUP4 ADD MSTORE PUSH2 0x2B02 DUP2 PUSH2 0x2785 JUMP JUMPDEST SWAP1 POP SWAP2 SWAP1 POP JUMP JUMPDEST PUSH1 0x0 PUSH1 0x20 DUP3 ADD SWAP1 POP DUP2 DUP2 SUB PUSH1 0x0 DUP4 ADD MSTORE PUSH2 0x2B22 DUP2 PUSH2 0x27A8 JUMP JUMPDEST SWAP1 POP SWAP2 SWAP1 POP JUMP JUMPDEST PUSH1 0x0 PUSH1 0x20 DUP3 ADD SWAP1 POP PUSH2 0x2B3E PUSH1 0x0 DUP4 ADD DUP5 PUSH2 0x291F JUMP JUMPDEST SWAP3 SWAP2 POP POP JUMP JUMPDEST PUSH1 0x0 PUSH2 0x140 DUP3 ADD SWAP1 POP PUSH2 0x2B5A PUSH1 0x0 DUP4 ADD DUP13 PUSH2 0x291F JUMP JUMPDEST PUSH2 0x2B67 PUSH1 0x20 DUP4 ADD DUP12 PUSH2 0x2613 JUMP JUMPDEST PUSH2 0x2B74 PUSH1 0x40 DUP4 ADD DUP11 PUSH2 0x2613 JUMP JUMPDEST PUSH2 0x2B81 PUSH1 0x60 DUP4 ADD DUP10 PUSH2 0x265E JUMP JUMPDEST PUSH2 0x2B8E PUSH1 0x80 DUP4 ADD DUP9 PUSH2 0x27FA JUMP JUMPDEST PUSH2 0x2B9B PUSH1 0xC0 DUP4 ADD DUP8 PUSH2 0x291F JUMP JUMPDEST PUSH2 0x2BA8 PUSH1 0xE0 DUP4 ADD DUP7 PUSH2 0x2613 JUMP JUMPDEST PUSH2 0x2BB6 PUSH2 0x100 DUP4 ADD DUP6 PUSH2 0x291F JUMP JUMPDEST PUSH2 0x2BC4 PUSH2 0x120 DUP4 ADD DUP5 PUSH2 0x2640 JUMP JUMPDEST SWAP11 SWAP10 POP POP POP POP POP POP POP POP POP POP JUMP JUMPDEST PUSH1 0x0 PUSH2 0x2BDC PUSH2 0x2BED JUMP JUMPDEST SWAP1 POP PUSH2 0x2BE8 DUP3 DUP3 PUSH2 0x2DB8 JUMP JUMPDEST SWAP2 SWAP1 POP JUMP JUMPDEST PUSH1 0x0 PUSH1 0x40 MLOAD SWAP1 POP SWAP1 JUMP JUMPDEST PUSH1 0x0 DUP2 SWAP1 POP SWAP3 SWAP2 POP POP JUMP JUMPDEST PUSH1 0x0 DUP3 DUP3 MSTORE PUSH1 0x20 DUP3 ADD SWAP1 POP SWAP3 SWAP2 POP POP JUMP JUMPDEST PUSH1 0x0 PUSH2 0x2C1E DUP3 PUSH2 0x2D78 JUMP JUMPDEST SWAP2 POP PUSH2 0x2C29 DUP4 PUSH2 0x2D78 JUMP JUMPDEST SWAP3 POP DUP3 PUSH32 0xFFFFFFFFFFFFFFFFFFFFFFFFFFFFFFFFFFFFFFFFFFFFFFFFFFFFFFFFFFFFFFFF SUB DUP3 GT ISZERO PUSH2 0x2C5E JUMPI PUSH2 0x2C5D PUSH2 0x2E32 JUMP JUMPDEST JUMPDEST DUP3 DUP3 ADD SWAP1 POP SWAP3 SWAP2 POP POP JUMP JUMPDEST PUSH1 0x0 PUSH2 0x2C74 DUP3 PUSH2 0x2D78 JUMP JUMPDEST SWAP2 POP PUSH2 0x2C7F DUP4 PUSH2 0x2D78 JUMP JUMPDEST SWAP3 POP DUP2 PUSH32 0xFFFFFFFFFFFFFFFFFFFFFFFFFFFFFFFFFFFFFFFFFFFFFFFFFFFFFFFFFFFFFFFF DIV DUP4 GT DUP3 ISZERO ISZERO AND ISZERO PUSH2 0x2CB8 JUMPI PUSH2 0x2CB7 PUSH2 0x2E32 JUMP JUMPDEST JUMPDEST DUP3 DUP3 MUL SWAP1 POP SWAP3 SWAP2 POP POP JUMP JUMPDEST PUSH1 0x0 PUSH2 0x2CCE DUP3 PUSH2 0x2D78 JUMP JUMPDEST SWAP2 POP PUSH2 0x2CD9 DUP4 PUSH2 0x2D78 JUMP JUMPDEST SWAP3 POP DUP3 DUP3 LT ISZERO PUSH2 0x2CEC JUMPI PUSH2 0x2CEB PUSH2 0x2E32 JUMP JUMPDEST JUMPDEST DUP3 DUP3 SUB SWAP1 POP SWAP3 SWAP2 POP POP JUMP JUMPDEST PUSH1 0x0 PUSH2 0x2D02 DUP3 PUSH2 0x2D58 JUMP JUMPDEST SWAP1 POP SWAP2 SWAP1 POP JUMP JUMPDEST PUSH1 0x0 DUP2 ISZERO ISZERO SWAP1 POP SWAP2 SWAP1 POP JUMP JUMPDEST PUSH1 0x0 DUP2 SWAP1 POP SWAP2 SWAP1 POP JUMP JUMPDEST PUSH1 0x0 DUP2 SWAP1 POP PUSH2 0x2D2D DUP3 PUSH2 0x3190 JUMP JUMPDEST SWAP2 SWAP1 POP JUMP JUMPDEST PUSH1 0x0 DUP2 SWAP1 POP PUSH2 0x2D40 DUP3 PUSH2 0x31A4 JUMP JUMPDEST SWAP2 SWAP1 POP JUMP JUMPDEST PUSH1 0x0 DUP2 SWAP1 POP PUSH2 0x2D53 DUP3 PUSH2 0x31B8 JUMP JUMPDEST SWAP2 SWAP1 POP JUMP JUMPDEST PUSH1 0x0 PUSH20 0xFFFFFFFFFFFFFFFFFFFFFFFFFFFFFFFFFFFFFFFF DUP3 AND SWAP1 POP SWAP2 SWAP1 POP JUMP JUMPDEST PUSH1 0x0 DUP2 SWAP1 POP SWAP2 SWAP1 POP JUMP JUMPDEST PUSH1 0x0 PUSH2 0x2D8D DUP3 PUSH2 0x2D1F JUMP JUMPDEST SWAP1 POP SWAP2 SWAP1 POP JUMP JUMPDEST PUSH1 0x0 PUSH2 0x2D9F DUP3 PUSH2 0x2D32 JUMP JUMPDEST SWAP1 POP SWAP2 SWAP1 POP JUMP JUMPDEST PUSH1 0x0 PUSH2 0x2DB1 DUP3 PUSH2 0x2D45 JUMP JUMPDEST SWAP1 POP SWAP2 SWAP1 POP JUMP JUMPDEST PUSH2 0x2DC1 DUP3 PUSH2 0x2F27 JUMP JUMPDEST DUP2 ADD DUP2 DUP2 LT PUSH8 0xFFFFFFFFFFFFFFFF DUP3 GT OR ISZERO PUSH2 0x2DE0 JUMPI PUSH2 0x2DDF PUSH2 0x2EEE JUMP JUMPDEST JUMPDEST DUP1 PUSH1 0x40 MSTORE POP POP POP JUMP JUMPDEST PUSH1 0x0 PUSH2 0x2DF4 DUP3 PUSH2 0x2D78 JUMP JUMPDEST SWAP2 POP PUSH32 0xFFFFFFFFFFFFFFFFFFFFFFFFFFFFFFFFFFFFFFFFFFFFFFFFFFFFFFFFFFFFFFFF DUP3 EQ ISZERO PUSH2 0x2E27 JUMPI PUSH2 0x2E26 PUSH2 0x2E32 JUMP JUMPDEST JUMPDEST PUSH1 0x1 DUP3 ADD SWAP1 POP SWAP2 SWAP1 POP JUMP JUMPDEST PUSH32 0x4E487B7100000000000000000000000000000000000000000000000000000000 PUSH1 0x0 MSTORE PUSH1 0x11 PUSH1 0x4 MSTORE PUSH1 0x24 PUSH1 0x0 REVERT JUMPDEST PUSH32 0x4E487B7100000000000000000000000000000000000000000000000000000000 PUSH1 0x0 MSTORE PUSH1 0x21 PUSH1 0x4 MSTORE PUSH1 0x24 PUSH1 0x0 REVERT JUMPDEST PUSH32 0x4E487B7100000000000000000000000000000000000000000000000000000000 PUSH1 0x0 MSTORE PUSH1 0x31 PUSH1 0x4 MSTORE PUSH1 0x24 PUSH1 0x0 REVERT JUMPDEST PUSH32 0x4E487B7100000000000000000000000000000000000000000000000000000000 PUSH1 0x0 MSTORE PUSH1 0x32 PUSH1 0x4 MSTORE PUSH1 0x24 PUSH1 0x0 REVERT JUMPDEST PUSH32 0x4E487B7100000000000000000000000000000000000000000000000000000000 PUSH1 0x0 MSTORE PUSH1 0x41 PUSH1 0x4 MSTORE PUSH1 0x24 PUSH1 0x0 REVERT JUMPDEST PUSH1 0x0 DUP1 REVERT JUMPDEST PUSH1 0x0 DUP1 REVERT JUMPDEST PUSH1 0x0 PUSH1 0x1F NOT PUSH1 0x1F DUP4 ADD AND SWAP1 POP SWAP2 SWAP1 POP JUMP JUMPDEST PUSH32 0x54686520666F6C6C6F77696E6720636F6E74726163742068617320616C726561 PUSH1 0x0 DUP3 ADD MSTORE PUSH32 0x6479206265656E2061646465642E000000000000000000000000000000000000 PUSH1 0x20 DUP3 ADD MSTORE POP JUMP JUMPDEST PUSH32 0x54686520666F6C6C6F77696E672076656869636C652068617320616C72656164 PUSH1 0x0 DUP3 ADD MSTORE PUSH32 0x79206265656E2061646465642E00000000000000000000000000000000000000 PUSH1 0x20 DUP3 ADD MSTORE POP JUMP JUMPDEST PUSH32 0x436F756C64206E6F742070726F63656564206265636175736520746865726520 PUSH1 0x0 DUP3 ADD MSTORE PUSH32 0x6973206E6F7420656E6F7567682045544820696E20796F75722077616C6C6574 PUSH1 0x20 DUP3 ADD MSTORE POP JUMP JUMPDEST PUSH32 0x5265737472696374656420746F206F776E6572732E0000000000000000000000 PUSH1 0x0 DUP3 ADD MSTORE POP JUMP JUMPDEST PUSH32 0x4661696C656420746F2073656E64204574686572000000000000000000000000 PUSH1 0x0 DUP3 ADD MSTORE POP JUMP JUMPDEST PUSH32 0x5468652073656C65637465642076656869636C652069732063757272656E746C PUSH1 0x0 DUP3 ADD MSTORE PUSH32 0x79206E6F7420617661696C61626C652E00000000000000000000000000000000 PUSH1 0x20 DUP3 ADD MSTORE POP JUMP JUMPDEST PUSH32 0x54686520666F6C6C6F77696E6720636F6E747261637420636F756C64206E6F74 PUSH1 0x0 DUP3 ADD MSTORE PUSH32 0x20626520666F756E6420696E20746865206D617070696E67206C6973742E0000 PUSH1 0x20 DUP3 ADD MSTORE POP JUMP JUMPDEST POP JUMP JUMPDEST PUSH32 0x5265737472696374656420746F2072656E746572732E00000000000000000000 PUSH1 0x0 DUP3 ADD MSTORE POP JUMP JUMPDEST PUSH32 0x54686520666F6C6C6F77696E672076656869636C6520636F756C64206E6F7420 PUSH1 0x0 DUP3 ADD MSTORE PUSH32 0x626520666F756E6420696E20746865206D617070696E67206C6973742E000000 PUSH1 0x20 DUP3 ADD MSTORE POP JUMP JUMPDEST PUSH1 0x3 DUP2 LT PUSH2 0x31A1 JUMPI PUSH2 0x31A0 PUSH2 0x2E61 JUMP JUMPDEST JUMPDEST POP JUMP JUMPDEST PUSH1 0x2 DUP2 LT PUSH2 0x31B5 JUMPI PUSH2 0x31B4 PUSH2 0x2E61 JUMP JUMPDEST JUMPDEST POP JUMP JUMPDEST PUSH1 0x7 DUP2 LT PUSH2 0x31C9 JUMPI PUSH2 0x31C8 PUSH2 0x2E61 JUMP JUMPDEST JUMPDEST POP JUMP JUMPDEST PUSH2 0x31D5 DUP2 PUSH2 0x2CF7 JUMP JUMPDEST DUP2 EQ PUSH2 0x31E0 JUMPI PUSH1 0x0 DUP1 REVERT JUMPDEST POP JUMP JUMPDEST PUSH2 0x31EC DUP2 PUSH2 0x2D15 JUMP JUMPDEST DUP2 EQ PUSH2 0x31F7 JUMPI PUSH1 0x0 DUP1 REVERT JUMPDEST POP JUMP JUMPDEST PUSH1 0x7 DUP2 LT PUSH2 0x3207 JUMPI PUSH1 0x0 DUP1 REVERT JUMPDEST POP JUMP JUMPDEST PUSH2 0x3213 DUP2 PUSH2 0x2D78 JUMP JUMPDEST DUP2 EQ PUSH2 0x321E JUMPI PUSH1 0x0 DUP1 REVERT JUMPDEST POP JUMP INVALID LOG2 PUSH5 0x6970667358 0x22 SLT KECCAK256 0xD9 0xA6 0x22 0xB4 PUSH24 0xBA69FBB28FD50D8142EC0A3FB7FC3CA5CEF811214B031434 0x2A 0x2F 0x2B PUSH5 0x736F6C6343 STOP ADDMOD SMOD STOP CALLER "
				},
				"gasEstimates": {
					"creation": {
						"codeDepositCost": "2577400",
						"executionCost": "12798",
						"totalCost": "2590198"
					},
					"external": {
						"OWNER_ROLE()": "439",
						"RENTER_ROLE()": "373",
						"addInsurancePackage(uint256,uint256,uint256)": "infinite",
						"addOwner(address)": "infinite",
						"addRentPeriod(uint256,(bytes32,bytes32),uint256)": "infinite",
						"addRenter(address)": "infinite",
						"addVehicle(bytes32,bytes32,uint8,(bytes32,bytes32),uint256,bytes32,uint256)": "infinite",
						"completion(uint256,uint256)": "infinite",
						"confirmation(uint256,uint256)": "infinite",
						"contractCount()": "2452",
						"contracts(uint256)": "infinite",
						"getContractByID(uint256)": "infinite",
						"getRoleMember(bytes32,uint256)": "infinite",
						"getRoleMemberCount(bytes32)": "2952",
						"getVehicleByID(uint256)": "infinite",
						"hasRole(bytes32,address)": "infinite",
						"isOwner(address)": "infinite",
						"isRenter(address)": "infinite",
						"paymentProcess(uint256)": "471",
						"removeOwner(address)": "infinite",
						"removeRenter(address)": "infinite",
						"renounceOwner()": "infinite",
						"renounceRenter()": "infinite",
						"vehicleCount()": "2540",
						"vehicles(uint256)": "infinite"
					}
				},
				"methodIdentifiers": {
					"OWNER_ROLE()": "e58378bb",
					"RENTER_ROLE()": "b97c9f77",
					"addInsurancePackage(uint256,uint256,uint256)": "37c3510a",
					"addOwner(address)": "7065cb48",
					"addRentPeriod(uint256,(bytes32,bytes32),uint256)": "a1a25243",
					"addRenter(address)": "de8b1989",
					"addVehicle(bytes32,bytes32,uint8,(bytes32,bytes32),uint256,bytes32,uint256)": "648bbc86",
					"completion(uint256,uint256)": "87b50547",
					"confirmation(uint256,uint256)": "79b67caa",
					"contractCount()": "8736381a",
					"contracts(uint256)": "474da79a",
					"getContractByID(uint256)": "7b66fe2e",
					"getRoleMember(bytes32,uint256)": "9010d07c",
					"getRoleMemberCount(bytes32)": "ca15c873",
					"getVehicleByID(uint256)": "69a8f49e",
					"hasRole(bytes32,address)": "91d14854",
					"isOwner(address)": "2f54bf6e",
					"isRenter(address)": "9f2bc40e",
					"paymentProcess(uint256)": "74539cd0",
					"removeOwner(address)": "173825d9",
					"removeRenter(address)": "02aec3ce",
					"renounceOwner()": "28c23a45",
					"renounceRenter()": "a36a5d8d",
					"vehicleCount()": "99704937",
					"vehicles(uint256)": "b8ba95fa"
				}
			},
			"storageLayout": {
				"storage": [
					{
						"astId": 2434,
						"contract": "contracts/Rental.sol:Rental",
						"label": "_roles",
						"offset": 0,
						"slot": "0",
						"type": "t_mapping(t_bytes32,t_struct(AddressSet)1433_storage)"
					},
					{
						"astId": 1733,
						"contract": "contracts/Rental.sol:Rental",
						"label": "sender",
						"offset": 0,
						"slot": "1",
						"type": "t_address_payable"
					},
					{
						"astId": 1735,
						"contract": "contracts/Rental.sol:Rental",
						"label": "recipient",
						"offset": 0,
						"slot": "2",
						"type": "t_address_payable"
					},
					{
						"astId": 1947,
						"contract": "contracts/Rental.sol:Rental",
						"label": "vehicleCount",
						"offset": 0,
						"slot": "3",
						"type": "t_uint256"
					},
					{
						"astId": 1950,
						"contract": "contracts/Rental.sol:Rental",
						"label": "contractCount",
						"offset": 0,
						"slot": "4",
						"type": "t_uint256"
					},
					{
						"astId": 1955,
						"contract": "contracts/Rental.sol:Rental",
						"label": "getVehicleByID",
						"offset": 0,
						"slot": "5",
						"type": "t_mapping(t_uint256,t_struct(Vehicle)1920_storage)"
					},
					{
						"astId": 1959,
						"contract": "contracts/Rental.sol:Rental",
						"label": "vehicles",
						"offset": 0,
						"slot": "6",
						"type": "t_array(t_struct(Vehicle)1920_storage)dyn_storage"
					},
					{
						"astId": 1964,
						"contract": "contracts/Rental.sol:Rental",
						"label": "getContractByID",
						"offset": 0,
						"slot": "7",
						"type": "t_mapping(t_uint256,t_struct(Contract)1943_storage)"
					},
					{
						"astId": 1968,
						"contract": "contracts/Rental.sol:Rental",
						"label": "contracts",
						"offset": 0,
						"slot": "8",
						"type": "t_array(t_struct(Contract)1943_storage)dyn_storage"
					}
				],
				"types": {
					"t_address": {
						"encoding": "inplace",
						"label": "address",
						"numberOfBytes": "20"
					},
					"t_address_payable": {
						"encoding": "inplace",
						"label": "address payable",
						"numberOfBytes": "20"
					},
					"t_array(t_bytes32)dyn_storage": {
						"base": "t_bytes32",
						"encoding": "dynamic_array",
						"label": "bytes32[]",
						"numberOfBytes": "32"
					},
					"t_array(t_struct(Contract)1943_storage)dyn_storage": {
						"base": "t_struct(Contract)1943_storage",
						"encoding": "dynamic_array",
						"label": "struct Rental.Contract[]",
						"numberOfBytes": "32"
					},
					"t_array(t_struct(Vehicle)1920_storage)dyn_storage": {
						"base": "t_struct(Vehicle)1920_storage",
						"encoding": "dynamic_array",
						"label": "struct Rental.Vehicle[]",
						"numberOfBytes": "32"
					},
					"t_bytes32": {
						"encoding": "inplace",
						"label": "bytes32",
						"numberOfBytes": "32"
					},
					"t_enum(ContractStatus)1893": {
						"encoding": "inplace",
						"label": "enum Rental.ContractStatus",
						"numberOfBytes": "1"
					},
					"t_enum(VehicleStatus)1889": {
						"encoding": "inplace",
						"label": "enum Rental.VehicleStatus",
						"numberOfBytes": "1"
					},
					"t_enum(VehicleType)1886": {
						"encoding": "inplace",
						"label": "enum Rental.VehicleType",
						"numberOfBytes": "1"
					},
					"t_mapping(t_bytes32,t_struct(AddressSet)1433_storage)": {
						"encoding": "mapping",
						"key": "t_bytes32",
						"label": "mapping(bytes32 => struct EnumerableSet.AddressSet)",
						"numberOfBytes": "32",
						"value": "t_struct(AddressSet)1433_storage"
					},
					"t_mapping(t_bytes32,t_uint256)": {
						"encoding": "mapping",
						"key": "t_bytes32",
						"label": "mapping(bytes32 => uint256)",
						"numberOfBytes": "32",
						"value": "t_uint256"
					},
					"t_mapping(t_uint256,t_struct(Contract)1943_storage)": {
						"encoding": "mapping",
						"key": "t_uint256",
						"label": "mapping(uint256 => struct Rental.Contract)",
						"numberOfBytes": "32",
						"value": "t_struct(Contract)1943_storage"
					},
					"t_mapping(t_uint256,t_struct(Vehicle)1920_storage)": {
						"encoding": "mapping",
						"key": "t_uint256",
						"label": "mapping(uint256 => struct Rental.Vehicle)",
						"numberOfBytes": "32",
						"value": "t_struct(Vehicle)1920_storage"
					},
					"t_struct(AddressSet)1433_storage": {
						"encoding": "inplace",
						"label": "struct EnumerableSet.AddressSet",
						"members": [
							{
								"astId": 1432,
								"contract": "contracts/Rental.sol:Rental",
								"label": "_inner",
								"offset": 0,
								"slot": "0",
								"type": "t_struct(Set)1132_storage"
							}
						],
						"numberOfBytes": "64"
					},
					"t_struct(Contract)1943_storage": {
						"encoding": "inplace",
						"label": "struct Rental.Contract",
						"members": [
							{
								"astId": 1927,
								"contract": "contracts/Rental.sol:Rental",
								"label": "id",
								"offset": 0,
								"slot": "0",
								"type": "t_address"
							},
							{
								"astId": 1930,
								"contract": "contracts/Rental.sol:Rental",
								"label": "selectedVehicle",
								"offset": 0,
								"slot": "1",
								"type": "t_struct(Vehicle)1920_storage"
							},
							{
								"astId": 1933,
								"contract": "contracts/Rental.sol:Rental",
								"label": "period",
								"offset": 0,
								"slot": "11",
								"type": "t_struct(Period)1925_storage"
							},
							{
								"astId": 1935,
								"contract": "contracts/Rental.sol:Rental",
								"label": "totalCost",
								"offset": 0,
								"slot": "13",
								"type": "t_uint256"
							},
							{
								"astId": 1937,
								"contract": "contracts/Rental.sol:Rental",
								"label": "insuranceDeposit",
								"offset": 0,
								"slot": "14",
								"type": "t_uint256"
							},
							{
								"astId": 1939,
								"contract": "contracts/Rental.sol:Rental",
								"label": "dateOfIssuance",
								"offset": 0,
								"slot": "15",
								"type": "t_uint256"
							},
							{
								"astId": 1942,
								"contract": "contracts/Rental.sol:Rental",
								"label": "status",
								"offset": 0,
								"slot": "16",
								"type": "t_enum(ContractStatus)1893"
							}
						],
						"numberOfBytes": "544"
					},
					"t_struct(Coordinate)1898_storage": {
						"encoding": "inplace",
						"label": "struct Rental.Coordinate",
						"members": [
							{
								"astId": 1895,
								"contract": "contracts/Rental.sol:Rental",
								"label": "latitude",
								"offset": 0,
								"slot": "0",
								"type": "t_bytes32"
							},
							{
								"astId": 1897,
								"contract": "contracts/Rental.sol:Rental",
								"label": "longitude",
								"offset": 0,
								"slot": "1",
								"type": "t_bytes32"
							}
						],
						"numberOfBytes": "64"
					},
					"t_struct(Period)1925_storage": {
						"encoding": "inplace",
						"label": "struct Rental.Period",
						"members": [
							{
								"astId": 1922,
								"contract": "contracts/Rental.sol:Rental",
								"label": "from",
								"offset": 0,
								"slot": "0",
								"type": "t_bytes32"
							},
							{
								"astId": 1924,
								"contract": "contracts/Rental.sol:Rental",
								"label": "to",
								"offset": 0,
								"slot": "1",
								"type": "t_bytes32"
							}
						],
						"numberOfBytes": "64"
					},
					"t_struct(Set)1132_storage": {
						"encoding": "inplace",
						"label": "struct EnumerableSet.Set",
						"members": [
							{
								"astId": 1127,
								"contract": "contracts/Rental.sol:Rental",
								"label": "_values",
								"offset": 0,
								"slot": "0",
								"type": "t_array(t_bytes32)dyn_storage"
							},
							{
								"astId": 1131,
								"contract": "contracts/Rental.sol:Rental",
								"label": "_indexes",
								"offset": 0,
								"slot": "1",
								"type": "t_mapping(t_bytes32,t_uint256)"
							}
						],
						"numberOfBytes": "64"
					},
					"t_struct(Vehicle)1920_storage": {
						"encoding": "inplace",
						"label": "struct Rental.Vehicle",
						"members": [
							{
								"astId": 1900,
								"contract": "contracts/Rental.sol:Rental",
								"label": "id",
								"offset": 0,
								"slot": "0",
								"type": "t_uint256"
							},
							{
								"astId": 1902,
								"contract": "contracts/Rental.sol:Rental",
								"label": "name",
								"offset": 0,
								"slot": "1",
								"type": "t_bytes32"
							},
							{
								"astId": 1904,
								"contract": "contracts/Rental.sol:Rental",
								"label": "brand",
								"offset": 0,
								"slot": "2",
								"type": "t_bytes32"
							},
							{
								"astId": 1907,
								"contract": "contracts/Rental.sol:Rental",
								"label": "vehicleType",
								"offset": 0,
								"slot": "3",
								"type": "t_enum(VehicleType)1886"
							},
							{
								"astId": 1910,
								"contract": "contracts/Rental.sol:Rental",
								"label": "location",
								"offset": 0,
								"slot": "4",
								"type": "t_struct(Coordinate)1898_storage"
							},
							{
								"astId": 1912,
								"contract": "contracts/Rental.sol:Rental",
								"label": "model",
								"offset": 0,
								"slot": "6",
								"type": "t_uint256"
							},
							{
								"astId": 1914,
								"contract": "contracts/Rental.sol:Rental",
								"label": "image",
								"offset": 0,
								"slot": "7",
								"type": "t_bytes32"
							},
							{
								"astId": 1916,
								"contract": "contracts/Rental.sol:Rental",
								"label": "rentCost",
								"offset": 0,
								"slot": "8",
								"type": "t_uint256"
							},
							{
								"astId": 1919,
								"contract": "contracts/Rental.sol:Rental",
								"label": "status",
								"offset": 0,
								"slot": "9",
								"type": "t_enum(VehicleStatus)1889"
							}
						],
						"numberOfBytes": "320"
					},
					"t_uint256": {
						"encoding": "inplace",
						"label": "uint256",
						"numberOfBytes": "32"
					}
				}
			},
			"userdoc": {
				"kind": "user",
				"methods": {
					"vehicleCount()": {
						"notice": "Variables"
					}
				},
				"version": 1
			}
		}
	}
}