{
	"contracts/Rental.sol": {
		"Rental": {
			"abi": [
				{
					"inputs": [],
					"stateMutability": "nonpayable",
					"type": "constructor"
				},
				{
					"anonymous": false,
					"inputs": [
						{
							"indexed": true,
							"internalType": "bytes32",
							"name": "role",
							"type": "bytes32"
						},
						{
							"indexed": true,
							"internalType": "address",
							"name": "account",
							"type": "address"
						},
						{
							"indexed": true,
							"internalType": "address",
							"name": "sender",
							"type": "address"
						}
					],
					"name": "RoleGranted",
					"type": "event"
				},
				{
					"anonymous": false,
					"inputs": [
						{
							"indexed": true,
							"internalType": "bytes32",
							"name": "role",
							"type": "bytes32"
						},
						{
							"indexed": true,
							"internalType": "address",
							"name": "account",
							"type": "address"
						},
						{
							"indexed": true,
							"internalType": "address",
							"name": "sender",
							"type": "address"
						}
					],
					"name": "RoleRevoked",
					"type": "event"
				},
				{
					"inputs": [],
					"name": "OWNER_ROLE",
					"outputs": [
						{
							"internalType": "bytes32",
							"name": "",
							"type": "bytes32"
						}
					],
					"stateMutability": "view",
					"type": "function"
				},
				{
					"inputs": [],
					"name": "RENTER_ROLE",
					"outputs": [
						{
							"internalType": "bytes32",
							"name": "",
							"type": "bytes32"
						}
					],
					"stateMutability": "view",
					"type": "function"
				},
				{
					"inputs": [
						{
							"internalType": "bytes32",
							"name": "name",
							"type": "bytes32"
						},
						{
							"internalType": "bytes32",
							"name": "brand",
							"type": "bytes32"
						},
						{
							"internalType": "enum Rental.CarType",
							"name": "carType",
							"type": "uint8"
						},
						{
							"components": [
								{
									"internalType": "string",
									"name": "latitude",
									"type": "string"
								},
								{
									"internalType": "string",
									"name": "longitude",
									"type": "string"
								}
							],
							"internalType": "struct Rental.Coordinate",
							"name": "location",
							"type": "tuple"
						},
						{
							"internalType": "uint256",
							"name": "model",
							"type": "uint256"
						},
						{
							"internalType": "bytes32",
							"name": "image",
							"type": "bytes32"
						},
						{
							"internalType": "uint256",
							"name": "rentCost",
							"type": "uint256"
						},
						{
							"internalType": "uint256",
							"name": "insuranceDeposit",
							"type": "uint256"
						}
					],
					"name": "addCar",
					"outputs": [
						{
							"internalType": "bool",
							"name": "success",
							"type": "bool"
						}
					],
					"stateMutability": "nonpayable",
					"type": "function"
				},
				{
					"inputs": [
						{
							"internalType": "address",
							"name": "account",
							"type": "address"
						}
					],
					"name": "addOwner",
					"outputs": [],
					"stateMutability": "nonpayable",
					"type": "function"
				},
				{
					"inputs": [
						{
							"internalType": "address",
							"name": "account",
							"type": "address"
						}
					],
					"name": "addRenter",
					"outputs": [],
					"stateMutability": "nonpayable",
					"type": "function"
				},
				{
					"inputs": [],
					"name": "carCount",
					"outputs": [
						{
							"internalType": "uint256",
							"name": "",
							"type": "uint256"
						}
					],
					"stateMutability": "view",
					"type": "function"
				},
				{
					"inputs": [
						{
							"internalType": "uint256",
							"name": "",
							"type": "uint256"
						},
						{
							"internalType": "uint256",
							"name": "",
							"type": "uint256"
						}
					],
					"name": "cars",
					"outputs": [
						{
							"internalType": "uint256",
							"name": "id",
							"type": "uint256"
						},
						{
							"internalType": "bytes32",
							"name": "name",
							"type": "bytes32"
						},
						{
							"internalType": "bytes32",
							"name": "brand",
							"type": "bytes32"
						},
						{
							"internalType": "enum Rental.CarType",
							"name": "carType",
							"type": "uint8"
						},
						{
							"components": [
								{
									"internalType": "string",
									"name": "latitude",
									"type": "string"
								},
								{
									"internalType": "string",
									"name": "longitude",
									"type": "string"
								}
							],
							"internalType": "struct Rental.Coordinate",
							"name": "location",
							"type": "tuple"
						},
						{
							"internalType": "uint256",
							"name": "model",
							"type": "uint256"
						},
						{
							"internalType": "bytes32",
							"name": "image",
							"type": "bytes32"
						},
						{
							"internalType": "uint256",
							"name": "rentCost",
							"type": "uint256"
						},
						{
							"internalType": "uint256",
							"name": "insuranceDeposit",
							"type": "uint256"
						},
						{
							"internalType": "uint256",
							"name": "timestamp",
							"type": "uint256"
						},
						{
							"internalType": "enum Rental.CarStatus",
							"name": "status",
							"type": "uint8"
						}
					],
					"stateMutability": "view",
					"type": "function"
				},
				{
					"inputs": [
						{
							"internalType": "uint256",
							"name": "",
							"type": "uint256"
						}
					],
					"name": "getCarByID",
					"outputs": [
						{
							"internalType": "uint256",
							"name": "id",
							"type": "uint256"
						},
						{
							"internalType": "bytes32",
							"name": "name",
							"type": "bytes32"
						},
						{
							"internalType": "bytes32",
							"name": "brand",
							"type": "bytes32"
						},
						{
							"internalType": "enum Rental.CarType",
							"name": "carType",
							"type": "uint8"
						},
						{
							"components": [
								{
									"internalType": "string",
									"name": "latitude",
									"type": "string"
								},
								{
									"internalType": "string",
									"name": "longitude",
									"type": "string"
								}
							],
							"internalType": "struct Rental.Coordinate",
							"name": "location",
							"type": "tuple"
						},
						{
							"internalType": "uint256",
							"name": "model",
							"type": "uint256"
						},
						{
							"internalType": "bytes32",
							"name": "image",
							"type": "bytes32"
						},
						{
							"internalType": "uint256",
							"name": "rentCost",
							"type": "uint256"
						},
						{
							"internalType": "uint256",
							"name": "insuranceDeposit",
							"type": "uint256"
						},
						{
							"internalType": "uint256",
							"name": "timestamp",
							"type": "uint256"
						},
						{
							"internalType": "enum Rental.CarStatus",
							"name": "status",
							"type": "uint8"
						}
					],
					"stateMutability": "view",
					"type": "function"
				},
				{
					"inputs": [
						{
							"internalType": "bytes32",
							"name": "role",
							"type": "bytes32"
						},
						{
							"internalType": "uint256",
							"name": "index",
							"type": "uint256"
						}
					],
					"name": "getRoleMember",
					"outputs": [
						{
							"internalType": "address",
							"name": "",
							"type": "address"
						}
					],
					"stateMutability": "view",
					"type": "function"
				},
				{
					"inputs": [
						{
							"internalType": "bytes32",
							"name": "role",
							"type": "bytes32"
						}
					],
					"name": "getRoleMemberCount",
					"outputs": [
						{
							"internalType": "uint256",
							"name": "",
							"type": "uint256"
						}
					],
					"stateMutability": "view",
					"type": "function"
				},
				{
					"inputs": [
						{
							"internalType": "bytes32",
							"name": "role",
							"type": "bytes32"
						},
						{
							"internalType": "address",
							"name": "account",
							"type": "address"
						}
					],
					"name": "hasRole",
					"outputs": [
						{
							"internalType": "bool",
							"name": "",
							"type": "bool"
						}
					],
					"stateMutability": "view",
					"type": "function"
				},
				{
					"inputs": [
						{
							"internalType": "address",
							"name": "account",
							"type": "address"
						}
					],
					"name": "isOwner",
					"outputs": [
						{
							"internalType": "bool",
							"name": "",
							"type": "bool"
						}
					],
					"stateMutability": "view",
					"type": "function"
				},
				{
					"inputs": [
						{
							"internalType": "address",
							"name": "account",
							"type": "address"
						}
					],
					"name": "isRenter",
					"outputs": [
						{
							"internalType": "bool",
							"name": "",
							"type": "bool"
						}
					],
					"stateMutability": "view",
					"type": "function"
				},
				{
					"inputs": [
						{
							"internalType": "address",
							"name": "account",
							"type": "address"
						}
					],
					"name": "removeOwner",
					"outputs": [],
					"stateMutability": "nonpayable",
					"type": "function"
				},
				{
					"inputs": [
						{
							"internalType": "address",
							"name": "account",
							"type": "address"
						}
					],
					"name": "removeRenter",
					"outputs": [],
					"stateMutability": "nonpayable",
					"type": "function"
				},
				{
					"inputs": [],
					"name": "renounceOwner",
					"outputs": [],
					"stateMutability": "nonpayable",
					"type": "function"
				},
				{
					"inputs": [],
					"name": "renounceRenter",
					"outputs": [],
					"stateMutability": "nonpayable",
					"type": "function"
				}
			],
			"devdoc": {
				"kind": "dev",
				"methods": {
					"addCar(bytes32,bytes32,uint8,(string,string),uint256,bytes32,uint256,uint256)": {
						"details": "The following function will be used to add Cars. Modifiers:  - Restricted to members of the owner role.  - Should not exist."
					},
					"addOwner(address)": {
						"details": "Add an account to the owner role. Restricted to proposals."
					},
					"addRenter(address)": {
						"details": "Add an account to the renter role. Restricted to proposals."
					},
					"getRoleMember(bytes32,uint256)": {
						"details": "This function will return one of the accounts that contain the 'role' attribute.  The value of the 'index' variable must be between 0 and getRoleMemberCount, excluding both numbers. There is no specific order to the people who hold roles, and the sequence in  which they appear might shift at any time. WARNING:  You need to make sure that all of your queries are performed on the same block  when you are using {getRoleMember} and {getRoleMemberCount}. For more information, take a look at the following: https://forum.openzeppelin.com/t/iterating-over-elements-on-enumerableset-in-openzeppelin-contracts/2296[forum post]"
					},
					"getRoleMemberCount(bytes32)": {
						"details": "This function returns the total number of accounts that contain the 'role' attribute. It is possible to enumerate all bearers of a role by using this method in conjunction with  the getRoleMember method."
					},
					"hasRole(bytes32,address)": {
						"details": "Returns `true` if `account` has been granted `role`."
					},
					"isOwner(address)": {
						"details": "Return `true` if the account belongs to the owner role."
					},
					"isRenter(address)": {
						"details": "Return `true` if the account belongs to the renter role."
					},
					"removeOwner(address)": {
						"details": "Remove an account from the owner role. Restricted to proposals."
					},
					"removeRenter(address)": {
						"details": "Remove an account from the renter role. Restricted to proposals."
					},
					"renounceOwner()": {
						"details": "Remove oneself from the leader role."
					},
					"renounceRenter()": {
						"details": "Remove oneself from the renter role."
					}
				},
				"version": 1
			},
			"evm": {
				"assembly": "    /* \"contracts/Rental.sol\":80:2213  contract Rental is Access {... */\n  mstore(0x40, 0x80)\n    /* \"contracts/Rental.sol\":762:763  0 */\n  0x00\n    /* \"contracts/Rental.sol\":739:763  uint public carCount = 0 */\n  0x01\n  sstore\n    /* \"contracts/Rental.sol\":855:872  constructor() { } */\n  callvalue\n  dup1\n  iszero\n  tag_1\n  jumpi\n  0x00\n  dup1\n  revert\ntag_1:\n  pop\n    /* \"contracts/Rental.sol\":80:2213  contract Rental is Access {... */\n  dataSize(sub_0)\n  dup1\n  dataOffset(sub_0)\n  0x00\n  codecopy\n  0x00\n  return\nstop\n\nsub_0: assembly {\n        /* \"contracts/Rental.sol\":80:2213  contract Rental is Access {... */\n      mstore(0x40, 0x80)\n      callvalue\n      dup1\n      iszero\n      tag_1\n      jumpi\n      0x00\n      dup1\n      revert\n    tag_1:\n      pop\n      jumpi(tag_2, lt(calldatasize, 0x04))\n      shr(0xe0, calldataload(0x00))\n      dup1\n      0x9010d07c\n      gt\n      tag_20\n      jumpi\n      dup1\n      0xa5139670\n      gt\n      tag_21\n      jumpi\n      dup1\n      0xa5139670\n      eq\n      tag_15\n      jumpi\n      dup1\n      0xb97c9f77\n      eq\n      tag_16\n      jumpi\n      dup1\n      0xca15c873\n      eq\n      tag_17\n      jumpi\n      dup1\n      0xde8b1989\n      eq\n      tag_18\n      jumpi\n      dup1\n      0xe58378bb\n      eq\n      tag_19\n      jumpi\n      jump(tag_2)\n    tag_21:\n      dup1\n      0x9010d07c\n      eq\n      tag_11\n      jumpi\n      dup1\n      0x91d14854\n      eq\n      tag_12\n      jumpi\n      dup1\n      0x9f2bc40e\n      eq\n      tag_13\n      jumpi\n      dup1\n      0xa36a5d8d\n      eq\n      tag_14\n      jumpi\n      jump(tag_2)\n    tag_20:\n      dup1\n      0x2f54bf6e\n      gt\n      tag_22\n      jumpi\n      dup1\n      0x2f54bf6e\n      eq\n      tag_7\n      jumpi\n      dup1\n      0x312bd3b5\n      eq\n      tag_8\n      jumpi\n      dup1\n      0x41500498\n      eq\n      tag_9\n      jumpi\n      dup1\n      0x7065cb48\n      eq\n      tag_10\n      jumpi\n      jump(tag_2)\n    tag_22:\n      dup1\n      0x02aec3ce\n      eq\n      tag_3\n      jumpi\n      dup1\n      0x173825d9\n      eq\n      tag_4\n      jumpi\n      dup1\n      0x28c23a45\n      eq\n      tag_5\n      jumpi\n      dup1\n      0x297a1f56\n      eq\n      tag_6\n      jumpi\n    tag_2:\n      0x00\n      dup1\n      revert\n        /* \"contracts/Access.sol\":1400:1504  function removeRenter(address account) public virtual {... */\n    tag_3:\n      tag_23\n      0x04\n      dup1\n      calldatasize\n      sub\n      dup2\n      add\n      swap1\n      tag_24\n      swap2\n      swap1\n      tag_25\n      jump\t// in\n    tag_24:\n      tag_26\n      jump\t// in\n    tag_23:\n      stop\n        /* \"contracts/Access.sol\":1587:1689  function removeOwner(address account) public virtual {... */\n    tag_4:\n      tag_27\n      0x04\n      dup1\n      calldatasize\n      sub\n      dup2\n      add\n      swap1\n      tag_28\n      swap2\n      swap1\n      tag_25\n      jump\t// in\n    tag_28:\n      tag_29\n      jump\t// in\n    tag_27:\n      stop\n        /* \"contracts/Access.sol\":1746:1838  function renounceOwner() public virtual {... */\n    tag_5:\n      tag_30\n      tag_31\n      jump\t// in\n    tag_30:\n      stop\n        /* \"contracts/Rental.sol\":739:763  uint public carCount = 0 */\n    tag_6:\n      tag_32\n      tag_33\n      jump\t// in\n    tag_32:\n      mload(0x40)\n      tag_34\n      swap2\n      swap1\n      tag_35\n      jump\t// in\n    tag_34:\n      mload(0x40)\n      dup1\n      swap2\n      sub\n      swap1\n      return\n        /* \"contracts/Access.sol\":641:762  function isOwner(address account) public virtual view returns (bool) {... */\n    tag_7:\n      tag_36\n      0x04\n      dup1\n      calldatasize\n      sub\n      dup2\n      add\n      swap1\n      tag_37\n      swap2\n      swap1\n      tag_25\n      jump\t// in\n    tag_37:\n      tag_38\n      jump\t// in\n    tag_36:\n      mload(0x40)\n      tag_39\n      swap2\n      swap1\n      tag_40\n      jump\t// in\n    tag_39:\n      mload(0x40)\n      dup1\n      swap2\n      sub\n      swap1\n      return\n        /* \"contracts/Rental.sol\":1545:2211  function addCar(bytes32 name, bytes32 brand, CarType carType, Coordinate memory location, uint model, bytes32 image, uint rentCost, uint insuranceDeposit) ... */\n    tag_8:\n      tag_41\n      0x04\n      dup1\n      calldatasize\n      sub\n      dup2\n      add\n      swap1\n      tag_42\n      swap2\n      swap1\n      tag_43\n      jump\t// in\n    tag_42:\n      tag_44\n      jump\t// in\n    tag_41:\n      mload(0x40)\n      tag_45\n      swap2\n      swap1\n      tag_40\n      jump\t// in\n    tag_45:\n      mload(0x40)\n      dup1\n      swap2\n      sub\n      swap1\n      return\n        /* \"contracts/Rental.sol\":814:848  mapping(uint => Car[]) public cars */\n    tag_9:\n      tag_46\n      0x04\n      dup1\n      calldatasize\n      sub\n      dup2\n      add\n      swap1\n      tag_47\n      swap2\n      swap1\n      tag_48\n      jump\t// in\n    tag_47:\n      tag_49\n      jump\t// in\n    tag_46:\n      mload(0x40)\n      tag_50\n      swap12\n      swap11\n      swap10\n      swap9\n      swap8\n      swap7\n      swap6\n      swap5\n      swap4\n      swap3\n      swap2\n      swap1\n      tag_51\n      jump\t// in\n    tag_50:\n      mload(0x40)\n      dup1\n      swap2\n      sub\n      swap1\n      return\n        /* \"contracts/Access.sol\":1218:1316  function addOwner(address account) public virtual {... */\n    tag_10:\n      tag_52\n      0x04\n      dup1\n      calldatasize\n      sub\n      dup2\n      add\n      swap1\n      tag_53\n      swap2\n      swap1\n      tag_25\n      jump\t// in\n    tag_53:\n      tag_54\n      jump\t// in\n    tag_52:\n      stop\n        /* \"contracts/utils/AccessControl.sol\":2691:2819  function getRoleMember(bytes32 role, uint256 index) public view returns (address) {... */\n    tag_11:\n      tag_55\n      0x04\n      dup1\n      calldatasize\n      sub\n      dup2\n      add\n      swap1\n      tag_56\n      swap2\n      swap1\n      tag_57\n      jump\t// in\n    tag_56:\n      tag_58\n      jump\t// in\n    tag_55:\n      mload(0x40)\n      tag_59\n      swap2\n      swap1\n      tag_60\n      jump\t// in\n    tag_59:\n      mload(0x40)\n      dup1\n      swap2\n      sub\n      swap1\n      return\n        /* \"contracts/utils/AccessControl.sol\":1459:1588  function hasRole(bytes32 role, address account) public view returns (bool) {... */\n    tag_12:\n      tag_61\n      0x04\n      dup1\n      calldatasize\n      sub\n      dup2\n      add\n      swap1\n      tag_62\n      swap2\n      swap1\n      tag_63\n      jump\t// in\n    tag_62:\n      tag_64\n      jump\t// in\n    tag_61:\n      mload(0x40)\n      tag_65\n      swap2\n      swap1\n      tag_40\n      jump\t// in\n    tag_65:\n      mload(0x40)\n      dup1\n      swap2\n      sub\n      swap1\n      return\n        /* \"contracts/Access.sol\":838:961  function isRenter(address account) public virtual view returns (bool) {... */\n    tag_13:\n      tag_66\n      0x04\n      dup1\n      calldatasize\n      sub\n      dup2\n      add\n      swap1\n      tag_67\n      swap2\n      swap1\n      tag_25\n      jump\t// in\n    tag_67:\n      tag_68\n      jump\t// in\n    tag_66:\n      mload(0x40)\n      tag_69\n      swap2\n      swap1\n      tag_40\n      jump\t// in\n    tag_69:\n      mload(0x40)\n      dup1\n      swap2\n      sub\n      swap1\n      return\n        /* \"contracts/Access.sol\":1894:1988  function renounceRenter() public virtual {... */\n    tag_14:\n      tag_70\n      tag_71\n      jump\t// in\n    tag_70:\n      stop\n        /* \"contracts/Rental.sol\":770:808  mapping(uint => Car) public getCarByID */\n    tag_15:\n      tag_72\n      0x04\n      dup1\n      calldatasize\n      sub\n      dup2\n      add\n      swap1\n      tag_73\n      swap2\n      swap1\n      tag_74\n      jump\t// in\n    tag_73:\n      tag_75\n      jump\t// in\n    tag_72:\n      mload(0x40)\n      tag_76\n      swap12\n      swap11\n      swap10\n      swap9\n      swap8\n      swap7\n      swap6\n      swap5\n      swap4\n      swap3\n      swap2\n      swap1\n      tag_51\n      jump\t// in\n    tag_76:\n      mload(0x40)\n      dup1\n      swap2\n      sub\n      swap1\n      return\n        /* \"contracts/Access.sol\":192:238  bytes32 public constant RENTER_ROLE = \"RENTER\" */\n    tag_16:\n      tag_77\n      tag_78\n      jump\t// in\n    tag_77:\n      mload(0x40)\n      tag_79\n      swap2\n      swap1\n      tag_80\n      jump\t// in\n    tag_79:\n      mload(0x40)\n      dup1\n      swap2\n      sub\n      swap1\n      return\n        /* \"contracts/utils/AccessControl.sol\":1840:1957  function getRoleMemberCount(bytes32 role) public view returns (uint256) {... */\n    tag_17:\n      tag_81\n      0x04\n      dup1\n      calldatasize\n      sub\n      dup2\n      add\n      swap1\n      tag_82\n      swap2\n      swap1\n      tag_83\n      jump\t// in\n    tag_82:\n      tag_84\n      jump\t// in\n    tag_81:\n      mload(0x40)\n      tag_85\n      swap2\n      swap1\n      tag_35\n      jump\t// in\n    tag_85:\n      mload(0x40)\n      dup1\n      swap2\n      sub\n      swap1\n      return\n        /* \"contracts/Access.sol\":1040:1140  function addRenter(address account) public virtual {... */\n    tag_18:\n      tag_86\n      0x04\n      dup1\n      calldatasize\n      sub\n      dup2\n      add\n      swap1\n      tag_87\n      swap2\n      swap1\n      tag_25\n      jump\t// in\n    tag_87:\n      tag_88\n      jump\t// in\n    tag_86:\n      stop\n        /* \"contracts/Access.sol\":142:186  bytes32 public constant OWNER_ROLE = \"OWNER\" */\n    tag_19:\n      tag_89\n      tag_90\n      jump\t// in\n    tag_89:\n      mload(0x40)\n      tag_91\n      swap2\n      swap1\n      tag_80\n      jump\t// in\n    tag_91:\n      mload(0x40)\n      dup1\n      swap2\n      sub\n      swap1\n      return\n        /* \"contracts/Access.sol\":1400:1504  function removeRenter(address account) public virtual {... */\n    tag_26:\n        /* \"contracts/Access.sol\":1464:1497  _revokeRole(RENTER_ROLE, account) */\n      tag_93\n        /* \"contracts/Access.sol\":1476:1487  RENTER_ROLE */\n      0x52454e5445520000000000000000000000000000000000000000000000000000\n        /* \"contracts/Access.sol\":1489:1496  account */\n      dup3\n        /* \"contracts/Access.sol\":1464:1475  _revokeRole */\n      tag_94\n        /* \"contracts/Access.sol\":1464:1497  _revokeRole(RENTER_ROLE, account) */\n      jump\t// in\n    tag_93:\n        /* \"contracts/Access.sol\":1400:1504  function removeRenter(address account) public virtual {... */\n      pop\n      jump\t// out\n        /* \"contracts/Access.sol\":1587:1689  function removeOwner(address account) public virtual {... */\n    tag_29:\n        /* \"contracts/Access.sol\":1650:1682  _revokeRole(OWNER_ROLE, account) */\n      tag_96\n        /* \"contracts/Access.sol\":1662:1672  OWNER_ROLE */\n      0x4f574e4552000000000000000000000000000000000000000000000000000000\n        /* \"contracts/Access.sol\":1674:1681  account */\n      dup3\n        /* \"contracts/Access.sol\":1650:1661  _revokeRole */\n      tag_94\n        /* \"contracts/Access.sol\":1650:1682  _revokeRole(OWNER_ROLE, account) */\n      jump\t// in\n    tag_96:\n        /* \"contracts/Access.sol\":1587:1689  function removeOwner(address account) public virtual {... */\n      pop\n      jump\t// out\n        /* \"contracts/Access.sol\":1746:1838  function renounceOwner() public virtual {... */\n    tag_31:\n        /* \"contracts/Access.sol\":1796:1831  _revokeRole(OWNER_ROLE, msg.sender) */\n      tag_98\n        /* \"contracts/Access.sol\":1808:1818  OWNER_ROLE */\n      0x4f574e4552000000000000000000000000000000000000000000000000000000\n        /* \"contracts/Access.sol\":1820:1830  msg.sender */\n      caller\n        /* \"contracts/Access.sol\":1796:1807  _revokeRole */\n      tag_94\n        /* \"contracts/Access.sol\":1796:1831  _revokeRole(OWNER_ROLE, msg.sender) */\n      jump\t// in\n    tag_98:\n        /* \"contracts/Access.sol\":1746:1838  function renounceOwner() public virtual {... */\n      jump\t// out\n        /* \"contracts/Rental.sol\":739:763  uint public carCount = 0 */\n    tag_33:\n      sload(0x01)\n      dup2\n      jump\t// out\n        /* \"contracts/Access.sol\":641:762  function isOwner(address account) public virtual view returns (bool) {... */\n    tag_38:\n        /* \"contracts/Access.sol\":704:708  bool */\n      0x00\n        /* \"contracts/Access.sol\":727:755  hasRole(OWNER_ROLE, account) */\n      tag_100\n        /* \"contracts/Access.sol\":735:745  OWNER_ROLE */\n      0x4f574e4552000000000000000000000000000000000000000000000000000000\n        /* \"contracts/Access.sol\":747:754  account */\n      dup4\n        /* \"contracts/Access.sol\":727:734  hasRole */\n      tag_64\n        /* \"contracts/Access.sol\":727:755  hasRole(OWNER_ROLE, account) */\n      jump\t// in\n    tag_100:\n        /* \"contracts/Access.sol\":720:755  return hasRole(OWNER_ROLE, account) */\n      swap1\n      pop\n        /* \"contracts/Access.sol\":641:762  function isOwner(address account) public virtual view returns (bool) {... */\n      swap2\n      swap1\n      pop\n      jump\t// out\n        /* \"contracts/Rental.sol\":1545:2211  function addCar(bytes32 name, bytes32 brand, CarType carType, Coordinate memory location, uint model, bytes32 image, uint rentCost, uint insuranceDeposit) ... */\n    tag_44:\n        /* \"contracts/Rental.sol\":1776:1788  bool success */\n      0x00\n        /* \"contracts/Access.sol\":337:356  isOwner(msg.sender) */\n      tag_102\n        /* \"contracts/Access.sol\":345:355  msg.sender */\n      caller\n        /* \"contracts/Access.sol\":337:344  isOwner */\n      tag_38\n        /* \"contracts/Access.sol\":337:356  isOwner(msg.sender) */\n      jump\t// in\n    tag_102:\n        /* \"contracts/Access.sol\":329:382  require(isOwner(msg.sender), \"Restricted to owners.\") */\n      tag_103\n      jumpi\n      mload(0x40)\n      0x08c379a000000000000000000000000000000000000000000000000000000000\n      dup2\n      mstore\n      0x04\n      add\n      tag_104\n      swap1\n      tag_105\n      jump\t// in\n    tag_104:\n      mload(0x40)\n      dup1\n      swap2\n      sub\n      swap1\n      revert\n    tag_103:\n        /* \"contracts/Rental.sol\":1753:1757  name */\n      dup9\n        /* \"contracts/Rental.sol\":1051:1055  name */\n      dup1\n        /* \"contracts/Rental.sol\":1022:1032  getCarByID */\n      0x02\n        /* \"contracts/Rental.sol\":1022:1042  getCarByID[carCount] */\n      0x00\n        /* \"contracts/Rental.sol\":1033:1041  carCount */\n      sload(0x01)\n        /* \"contracts/Rental.sol\":1022:1042  getCarByID[carCount] */\n      dup2\n      mstore\n      0x20\n      add\n      swap1\n      dup2\n      mstore\n      0x20\n      add\n      0x00\n      keccak256\n        /* \"contracts/Rental.sol\":1022:1047  getCarByID[carCount].name */\n      0x01\n      add\n      sload\n        /* \"contracts/Rental.sol\":1022:1055  getCarByID[carCount].name == name */\n      eq\n        /* \"contracts/Rental.sol\":1014:1101  require(getCarByID[carCount].name == name, \"The following car has already been added.\") */\n      tag_107\n      jumpi\n      mload(0x40)\n      0x08c379a000000000000000000000000000000000000000000000000000000000\n      dup2\n      mstore\n      0x04\n      add\n      tag_108\n      swap1\n      tag_109\n      jump\t// in\n    tag_108:\n      mload(0x40)\n      dup1\n      swap2\n      sub\n      swap1\n      revert\n    tag_107:\n        /* \"contracts/Rental.sol\":1804:1812  carCount */\n      0x01\n      0x00\n        /* \"contracts/Rental.sol\":1804:1814  carCount++ */\n      dup2\n      sload\n      dup1\n      swap3\n      swap2\n      swap1\n      tag_111\n      swap1\n      tag_112\n      jump\t// in\n    tag_111:\n      swap2\n      swap1\n      pop\n      sstore\n      pop\n        /* \"contracts/Rental.sol\":1824:1847  Car memory temporaryObj */\n      0x00\n        /* \"contracts/Rental.sol\":1850:2117  Car(... */\n      mload(0x40)\n      dup1\n      0x0160\n      add\n      0x40\n      mstore\n      dup1\n        /* \"contracts/Rental.sol\":1867:1875  carCount */\n      sload(0x01)\n        /* \"contracts/Rental.sol\":1850:2117  Car(... */\n      dup2\n      mstore\n      0x20\n      add\n        /* \"contracts/Rental.sol\":1889:1893  name */\n      dup13\n        /* \"contracts/Rental.sol\":1850:2117  Car(... */\n      dup2\n      mstore\n      0x20\n      add\n        /* \"contracts/Rental.sol\":1907:1912  brand */\n      dup12\n        /* \"contracts/Rental.sol\":1850:2117  Car(... */\n      dup2\n      mstore\n      0x20\n      add\n        /* \"contracts/Rental.sol\":1926:1933  carType */\n      dup11\n        /* \"contracts/Rental.sol\":1850:2117  Car(... */\n      0x06\n      dup2\n      gt\n      iszero\n      tag_113\n      jumpi\n      tag_114\n      tag_115\n      jump\t// in\n    tag_114:\n    tag_113:\n      dup2\n      mstore\n      0x20\n      add\n        /* \"contracts/Rental.sol\":1947:1955  location */\n      dup10\n        /* \"contracts/Rental.sol\":1850:2117  Car(... */\n      dup2\n      mstore\n      0x20\n      add\n        /* \"contracts/Rental.sol\":1969:1974  model */\n      dup9\n        /* \"contracts/Rental.sol\":1850:2117  Car(... */\n      dup2\n      mstore\n      0x20\n      add\n        /* \"contracts/Rental.sol\":1988:1993  image */\n      dup8\n        /* \"contracts/Rental.sol\":1850:2117  Car(... */\n      dup2\n      mstore\n      0x20\n      add\n        /* \"contracts/Rental.sol\":2007:2015  rentCost */\n      dup7\n        /* \"contracts/Rental.sol\":1850:2117  Car(... */\n      dup2\n      mstore\n      0x20\n      add\n        /* \"contracts/Rental.sol\":2029:2045  insuranceDeposit */\n      dup6\n        /* \"contracts/Rental.sol\":1850:2117  Car(... */\n      dup2\n      mstore\n      0x20\n      add\n        /* \"contracts/Rental.sol\":2059:2074  block.timestamp */\n      timestamp\n        /* \"contracts/Rental.sol\":1850:2117  Car(... */\n      dup2\n      mstore\n      0x20\n      add\n        /* \"contracts/Rental.sol\":2088:2107  CarStatus.Available */\n      0x00\n        /* \"contracts/Rental.sol\":1850:2117  Car(... */\n      0x01\n      dup2\n      gt\n      iszero\n      tag_116\n      jumpi\n      tag_117\n      tag_115\n      jump\t// in\n    tag_117:\n    tag_116:\n      dup2\n      mstore\n      pop\n        /* \"contracts/Rental.sol\":1824:2117  Car memory temporaryObj = Car(... */\n      swap1\n      pop\n        /* \"contracts/Rental.sol\":2127:2131  cars */\n      0x03\n        /* \"contracts/Rental.sol\":2127:2141  cars[carCount] */\n      0x00\n        /* \"contracts/Rental.sol\":2132:2140  carCount */\n      sload(0x01)\n        /* \"contracts/Rental.sol\":2127:2141  cars[carCount] */\n      dup2\n      mstore\n      0x20\n      add\n      swap1\n      dup2\n      mstore\n      0x20\n      add\n      0x00\n      keccak256\n        /* \"contracts/Rental.sol\":2147:2159  temporaryObj */\n      dup2\n        /* \"contracts/Rental.sol\":2127:2160  cars[carCount].push(temporaryObj) */\n      swap1\n      dup1\n      0x01\n      dup2\n      sload\n      add\n      dup1\n      dup3\n      sstore\n      dup1\n      swap2\n      pop\n      pop\n      0x01\n      swap1\n      sub\n      swap1\n      0x00\n      mstore\n      keccak256(0x00, 0x20)\n      swap1\n      0x0c\n      mul\n      add\n      0x00\n      swap1\n      swap2\n      swap1\n      swap2\n      swap1\n      swap2\n      pop\n      0x00\n      dup3\n      add\n      mload\n      dup2\n      0x00\n      add\n      sstore\n      0x20\n      dup3\n      add\n      mload\n      dup2\n      0x01\n      add\n      sstore\n      0x40\n      dup3\n      add\n      mload\n      dup2\n      0x02\n      add\n      sstore\n      0x60\n      dup3\n      add\n      mload\n      dup2\n      0x03\n      add\n      exp(0x0100, 0x00)\n      dup2\n      sload\n      dup2\n      0xff\n      mul\n      not\n      and\n      swap1\n      dup4\n      0x06\n      dup2\n      gt\n      iszero\n      tag_119\n      jumpi\n      tag_120\n      tag_115\n      jump\t// in\n    tag_120:\n    tag_119:\n      mul\n      or\n      swap1\n      sstore\n      pop\n      0x80\n      dup3\n      add\n      mload\n      dup2\n      0x04\n      add\n      0x00\n      dup3\n      add\n      mload\n      dup2\n      0x00\n      add\n      swap1\n      dup1\n      mload\n      swap1\n      0x20\n      add\n      swap1\n      tag_121\n      swap3\n      swap2\n      swap1\n      tag_122\n      jump\t// in\n    tag_121:\n      pop\n      0x20\n      dup3\n      add\n      mload\n      dup2\n      0x01\n      add\n      swap1\n      dup1\n      mload\n      swap1\n      0x20\n      add\n      swap1\n      tag_123\n      swap3\n      swap2\n      swap1\n      tag_122\n      jump\t// in\n    tag_123:\n      pop\n      pop\n      pop\n      0xa0\n      dup3\n      add\n      mload\n      dup2\n      0x06\n      add\n      sstore\n      0xc0\n      dup3\n      add\n      mload\n      dup2\n      0x07\n      add\n      sstore\n      0xe0\n      dup3\n      add\n      mload\n      dup2\n      0x08\n      add\n      sstore\n      0x0100\n      dup3\n      add\n      mload\n      dup2\n      0x09\n      add\n      sstore\n      0x0120\n      dup3\n      add\n      mload\n      dup2\n      0x0a\n      add\n      sstore\n      0x0140\n      dup3\n      add\n      mload\n      dup2\n      0x0b\n      add\n      exp(0x0100, 0x00)\n      dup2\n      sload\n      dup2\n      0xff\n      mul\n      not\n      and\n      swap1\n      dup4\n      0x01\n      dup2\n      gt\n      iszero\n      tag_124\n      jumpi\n      tag_125\n      tag_115\n      jump\t// in\n    tag_125:\n    tag_124:\n      mul\n      or\n      swap1\n      sstore\n      pop\n      pop\n      pop\n        /* \"contracts/Rental.sol\":2203:2204  0 */\n      0x00\n        /* \"contracts/Rental.sol\":2178:2182  cars */\n      0x03\n        /* \"contracts/Rental.sol\":2178:2192  cars[carCount] */\n      0x00\n        /* \"contracts/Rental.sol\":2183:2191  carCount */\n      sload(0x01)\n        /* \"contracts/Rental.sol\":2178:2192  cars[carCount] */\n      dup2\n      mstore\n      0x20\n      add\n      swap1\n      dup2\n      mstore\n      0x20\n      add\n      0x00\n      keccak256\n        /* \"contracts/Rental.sol\":2178:2199  cars[carCount].length */\n      dup1\n      sload\n      swap1\n      pop\n        /* \"contracts/Rental.sol\":2178:2204  cars[carCount].length != 0 */\n      eq\n      iszero\n        /* \"contracts/Rental.sol\":2171:2204  return cars[carCount].length != 0 */\n      swap3\n      pop\n      pop\n        /* \"contracts/Access.sol\":392:393  _ */\n      pop\n        /* \"contracts/Rental.sol\":1545:2211  function addCar(bytes32 name, bytes32 brand, CarType carType, Coordinate memory location, uint model, bytes32 image, uint rentCost, uint insuranceDeposit) ... */\n      swap9\n      swap8\n      pop\n      pop\n      pop\n      pop\n      pop\n      pop\n      pop\n      pop\n      jump\t// out\n        /* \"contracts/Rental.sol\":814:848  mapping(uint => Car[]) public cars */\n    tag_49:\n      mstore(0x20, 0x03)\n      dup2\n      0x00\n      mstore\n      keccak256(0x00, 0x40)\n      dup2\n      dup2\n      sload\n      dup2\n      lt\n      tag_126\n      jumpi\n      0x00\n      dup1\n      revert\n    tag_126:\n      swap1\n      0x00\n      mstore\n      keccak256(0x00, 0x20)\n      swap1\n      0x0c\n      mul\n      add\n      0x00\n      swap2\n      pop\n      swap2\n      pop\n      pop\n      dup1\n      0x00\n      add\n      sload\n      swap1\n      dup1\n      0x01\n      add\n      sload\n      swap1\n      dup1\n      0x02\n      add\n      sload\n      swap1\n      dup1\n      0x03\n      add\n      0x00\n      swap1\n      sload\n      swap1\n      0x0100\n      exp\n      swap1\n      div\n      0xff\n      and\n      swap1\n      dup1\n      0x04\n      add\n      mload(0x40)\n      dup1\n      0x40\n      add\n      0x40\n      mstore\n      swap1\n      dup2\n      0x00\n      dup3\n      add\n      dup1\n      sload\n      tag_128\n      swap1\n      tag_129\n      jump\t// in\n    tag_128:\n      dup1\n      0x1f\n      add\n      0x20\n      dup1\n      swap2\n      div\n      mul\n      0x20\n      add\n      mload(0x40)\n      swap1\n      dup2\n      add\n      0x40\n      mstore\n      dup1\n      swap3\n      swap2\n      swap1\n      dup2\n      dup2\n      mstore\n      0x20\n      add\n      dup3\n      dup1\n      sload\n      tag_130\n      swap1\n      tag_129\n      jump\t// in\n    tag_130:\n      dup1\n      iszero\n      tag_131\n      jumpi\n      dup1\n      0x1f\n      lt\n      tag_132\n      jumpi\n      0x0100\n      dup1\n      dup4\n      sload\n      div\n      mul\n      dup4\n      mstore\n      swap2\n      0x20\n      add\n      swap2\n      jump(tag_131)\n    tag_132:\n      dup3\n      add\n      swap2\n      swap1\n      0x00\n      mstore\n      keccak256(0x00, 0x20)\n      swap1\n    tag_133:\n      dup2\n      sload\n      dup2\n      mstore\n      swap1\n      0x01\n      add\n      swap1\n      0x20\n      add\n      dup1\n      dup4\n      gt\n      tag_133\n      jumpi\n      dup3\n      swap1\n      sub\n      0x1f\n      and\n      dup3\n      add\n      swap2\n    tag_131:\n      pop\n      pop\n      pop\n      pop\n      pop\n      dup2\n      mstore\n      0x20\n      add\n      0x01\n      dup3\n      add\n      dup1\n      sload\n      tag_134\n      swap1\n      tag_129\n      jump\t// in\n    tag_134:\n      dup1\n      0x1f\n      add\n      0x20\n      dup1\n      swap2\n      div\n      mul\n      0x20\n      add\n      mload(0x40)\n      swap1\n      dup2\n      add\n      0x40\n      mstore\n      dup1\n      swap3\n      swap2\n      swap1\n      dup2\n      dup2\n      mstore\n      0x20\n      add\n      dup3\n      dup1\n      sload\n      tag_135\n      swap1\n      tag_129\n      jump\t// in\n    tag_135:\n      dup1\n      iszero\n      tag_136\n      jumpi\n      dup1\n      0x1f\n      lt\n      tag_137\n      jumpi\n      0x0100\n      dup1\n      dup4\n      sload\n      div\n      mul\n      dup4\n      mstore\n      swap2\n      0x20\n      add\n      swap2\n      jump(tag_136)\n    tag_137:\n      dup3\n      add\n      swap2\n      swap1\n      0x00\n      mstore\n      keccak256(0x00, 0x20)\n      swap1\n    tag_138:\n      dup2\n      sload\n      dup2\n      mstore\n      swap1\n      0x01\n      add\n      swap1\n      0x20\n      add\n      dup1\n      dup4\n      gt\n      tag_138\n      jumpi\n      dup3\n      swap1\n      sub\n      0x1f\n      and\n      dup3\n      add\n      swap2\n    tag_136:\n      pop\n      pop\n      pop\n      pop\n      pop\n      dup2\n      mstore\n      pop\n      pop\n      swap1\n      dup1\n      0x06\n      add\n      sload\n      swap1\n      dup1\n      0x07\n      add\n      sload\n      swap1\n      dup1\n      0x08\n      add\n      sload\n      swap1\n      dup1\n      0x09\n      add\n      sload\n      swap1\n      dup1\n      0x0a\n      add\n      sload\n      swap1\n      dup1\n      0x0b\n      add\n      0x00\n      swap1\n      sload\n      swap1\n      0x0100\n      exp\n      swap1\n      div\n      0xff\n      and\n      swap1\n      pop\n      dup12\n      jump\t// out\n        /* \"contracts/Access.sol\":1218:1316  function addOwner(address account) public virtual {... */\n    tag_54:\n        /* \"contracts/Access.sol\":1278:1309  _grantRole(OWNER_ROLE, account) */\n      tag_140\n        /* \"contracts/Access.sol\":1289:1299  OWNER_ROLE */\n      0x4f574e4552000000000000000000000000000000000000000000000000000000\n        /* \"contracts/Access.sol\":1301:1308  account */\n      dup3\n        /* \"contracts/Access.sol\":1278:1288  _grantRole */\n      tag_141\n        /* \"contracts/Access.sol\":1278:1309  _grantRole(OWNER_ROLE, account) */\n      jump\t// in\n    tag_140:\n        /* \"contracts/Access.sol\":1218:1316  function addOwner(address account) public virtual {... */\n      pop\n      jump\t// out\n        /* \"contracts/utils/AccessControl.sol\":2691:2819  function getRoleMember(bytes32 role, uint256 index) public view returns (address) {... */\n    tag_58:\n        /* \"contracts/utils/AccessControl.sol\":2764:2771  address */\n      0x00\n        /* \"contracts/utils/AccessControl.sol\":2790:2812  _roles[role].at(index) */\n      tag_143\n        /* \"contracts/utils/AccessControl.sol\":2806:2811  index */\n      dup3\n        /* \"contracts/utils/AccessControl.sol\":2790:2796  _roles */\n      0x00\n        /* \"contracts/utils/AccessControl.sol\":2790:2802  _roles[role] */\n      dup1\n        /* \"contracts/utils/AccessControl.sol\":2797:2801  role */\n      dup7\n        /* \"contracts/utils/AccessControl.sol\":2790:2802  _roles[role] */\n      dup2\n      mstore\n      0x20\n      add\n      swap1\n      dup2\n      mstore\n      0x20\n      add\n      0x00\n      keccak256\n        /* \"contracts/utils/AccessControl.sol\":2790:2805  _roles[role].at */\n      tag_144\n      swap1\n        /* \"contracts/utils/AccessControl.sol\":2790:2812  _roles[role].at(index) */\n      swap2\n      swap1\n      0xffffffff\n      and\n      jump\t// in\n    tag_143:\n        /* \"contracts/utils/AccessControl.sol\":2783:2812  return _roles[role].at(index) */\n      swap1\n      pop\n        /* \"contracts/utils/AccessControl.sol\":2691:2819  function getRoleMember(bytes32 role, uint256 index) public view returns (address) {... */\n      swap3\n      swap2\n      pop\n      pop\n      jump\t// out\n        /* \"contracts/utils/AccessControl.sol\":1459:1588  function hasRole(bytes32 role, address account) public view returns (bool) {... */\n    tag_64:\n        /* \"contracts/utils/AccessControl.sol\":1528:1532  bool */\n      0x00\n        /* \"contracts/utils/AccessControl.sol\":1551:1581  _roles[role].contains(account) */\n      tag_146\n        /* \"contracts/utils/AccessControl.sol\":1573:1580  account */\n      dup3\n        /* \"contracts/utils/AccessControl.sol\":1551:1557  _roles */\n      0x00\n        /* \"contracts/utils/AccessControl.sol\":1551:1563  _roles[role] */\n      dup1\n        /* \"contracts/utils/AccessControl.sol\":1558:1562  role */\n      dup7\n        /* \"contracts/utils/AccessControl.sol\":1551:1563  _roles[role] */\n      dup2\n      mstore\n      0x20\n      add\n      swap1\n      dup2\n      mstore\n      0x20\n      add\n      0x00\n      keccak256\n        /* \"contracts/utils/AccessControl.sol\":1551:1572  _roles[role].contains */\n      tag_147\n      swap1\n        /* \"contracts/utils/AccessControl.sol\":1551:1581  _roles[role].contains(account) */\n      swap2\n      swap1\n      0xffffffff\n      and\n      jump\t// in\n    tag_146:\n        /* \"contracts/utils/AccessControl.sol\":1544:1581  return _roles[role].contains(account) */\n      swap1\n      pop\n        /* \"contracts/utils/AccessControl.sol\":1459:1588  function hasRole(bytes32 role, address account) public view returns (bool) {... */\n      swap3\n      swap2\n      pop\n      pop\n      jump\t// out\n        /* \"contracts/Access.sol\":838:961  function isRenter(address account) public virtual view returns (bool) {... */\n    tag_68:\n        /* \"contracts/Access.sol\":902:906  bool */\n      0x00\n        /* \"contracts/Access.sol\":925:954  hasRole(RENTER_ROLE, account) */\n      tag_149\n        /* \"contracts/Access.sol\":933:944  RENTER_ROLE */\n      0x52454e5445520000000000000000000000000000000000000000000000000000\n        /* \"contracts/Access.sol\":946:953  account */\n      dup4\n        /* \"contracts/Access.sol\":925:932  hasRole */\n      tag_64\n        /* \"contracts/Access.sol\":925:954  hasRole(RENTER_ROLE, account) */\n      jump\t// in\n    tag_149:\n        /* \"contracts/Access.sol\":918:954  return hasRole(RENTER_ROLE, account) */\n      swap1\n      pop\n        /* \"contracts/Access.sol\":838:961  function isRenter(address account) public virtual view returns (bool) {... */\n      swap2\n      swap1\n      pop\n      jump\t// out\n        /* \"contracts/Access.sol\":1894:1988  function renounceRenter() public virtual {... */\n    tag_71:\n        /* \"contracts/Access.sol\":1945:1981  _revokeRole(RENTER_ROLE, msg.sender) */\n      tag_151\n        /* \"contracts/Access.sol\":1957:1968  RENTER_ROLE */\n      0x52454e5445520000000000000000000000000000000000000000000000000000\n        /* \"contracts/Access.sol\":1970:1980  msg.sender */\n      caller\n        /* \"contracts/Access.sol\":1945:1956  _revokeRole */\n      tag_94\n        /* \"contracts/Access.sol\":1945:1981  _revokeRole(RENTER_ROLE, msg.sender) */\n      jump\t// in\n    tag_151:\n        /* \"contracts/Access.sol\":1894:1988  function renounceRenter() public virtual {... */\n      jump\t// out\n        /* \"contracts/Rental.sol\":770:808  mapping(uint => Car) public getCarByID */\n    tag_75:\n      mstore(0x20, 0x02)\n      dup1\n      0x00\n      mstore\n      keccak256(0x00, 0x40)\n      0x00\n      swap2\n      pop\n      swap1\n      pop\n      dup1\n      0x00\n      add\n      sload\n      swap1\n      dup1\n      0x01\n      add\n      sload\n      swap1\n      dup1\n      0x02\n      add\n      sload\n      swap1\n      dup1\n      0x03\n      add\n      0x00\n      swap1\n      sload\n      swap1\n      0x0100\n      exp\n      swap1\n      div\n      0xff\n      and\n      swap1\n      dup1\n      0x04\n      add\n      mload(0x40)\n      dup1\n      0x40\n      add\n      0x40\n      mstore\n      swap1\n      dup2\n      0x00\n      dup3\n      add\n      dup1\n      sload\n      tag_152\n      swap1\n      tag_129\n      jump\t// in\n    tag_152:\n      dup1\n      0x1f\n      add\n      0x20\n      dup1\n      swap2\n      div\n      mul\n      0x20\n      add\n      mload(0x40)\n      swap1\n      dup2\n      add\n      0x40\n      mstore\n      dup1\n      swap3\n      swap2\n      swap1\n      dup2\n      dup2\n      mstore\n      0x20\n      add\n      dup3\n      dup1\n      sload\n      tag_153\n      swap1\n      tag_129\n      jump\t// in\n    tag_153:\n      dup1\n      iszero\n      tag_154\n      jumpi\n      dup1\n      0x1f\n      lt\n      tag_155\n      jumpi\n      0x0100\n      dup1\n      dup4\n      sload\n      div\n      mul\n      dup4\n      mstore\n      swap2\n      0x20\n      add\n      swap2\n      jump(tag_154)\n    tag_155:\n      dup3\n      add\n      swap2\n      swap1\n      0x00\n      mstore\n      keccak256(0x00, 0x20)\n      swap1\n    tag_156:\n      dup2\n      sload\n      dup2\n      mstore\n      swap1\n      0x01\n      add\n      swap1\n      0x20\n      add\n      dup1\n      dup4\n      gt\n      tag_156\n      jumpi\n      dup3\n      swap1\n      sub\n      0x1f\n      and\n      dup3\n      add\n      swap2\n    tag_154:\n      pop\n      pop\n      pop\n      pop\n      pop\n      dup2\n      mstore\n      0x20\n      add\n      0x01\n      dup3\n      add\n      dup1\n      sload\n      tag_157\n      swap1\n      tag_129\n      jump\t// in\n    tag_157:\n      dup1\n      0x1f\n      add\n      0x20\n      dup1\n      swap2\n      div\n      mul\n      0x20\n      add\n      mload(0x40)\n      swap1\n      dup2\n      add\n      0x40\n      mstore\n      dup1\n      swap3\n      swap2\n      swap1\n      dup2\n      dup2\n      mstore\n      0x20\n      add\n      dup3\n      dup1\n      sload\n      tag_158\n      swap1\n      tag_129\n      jump\t// in\n    tag_158:\n      dup1\n      iszero\n      tag_159\n      jumpi\n      dup1\n      0x1f\n      lt\n      tag_160\n      jumpi\n      0x0100\n      dup1\n      dup4\n      sload\n      div\n      mul\n      dup4\n      mstore\n      swap2\n      0x20\n      add\n      swap2\n      jump(tag_159)\n    tag_160:\n      dup3\n      add\n      swap2\n      swap1\n      0x00\n      mstore\n      keccak256(0x00, 0x20)\n      swap1\n    tag_161:\n      dup2\n      sload\n      dup2\n      mstore\n      swap1\n      0x01\n      add\n      swap1\n      0x20\n      add\n      dup1\n      dup4\n      gt\n      tag_161\n      jumpi\n      dup3\n      swap1\n      sub\n      0x1f\n      and\n      dup3\n      add\n      swap2\n    tag_159:\n      pop\n      pop\n      pop\n      pop\n      pop\n      dup2\n      mstore\n      pop\n      pop\n      swap1\n      dup1\n      0x06\n      add\n      sload\n      swap1\n      dup1\n      0x07\n      add\n      sload\n      swap1\n      dup1\n      0x08\n      add\n      sload\n      swap1\n      dup1\n      0x09\n      add\n      sload\n      swap1\n      dup1\n      0x0a\n      add\n      sload\n      swap1\n      dup1\n      0x0b\n      add\n      0x00\n      swap1\n      sload\n      swap1\n      0x0100\n      exp\n      swap1\n      div\n      0xff\n      and\n      swap1\n      pop\n      dup12\n      jump\t// out\n        /* \"contracts/Access.sol\":192:238  bytes32 public constant RENTER_ROLE = \"RENTER\" */\n    tag_78:\n      0x52454e5445520000000000000000000000000000000000000000000000000000\n      dup2\n      jump\t// out\n        /* \"contracts/utils/AccessControl.sol\":1840:1957  function getRoleMemberCount(bytes32 role) public view returns (uint256) {... */\n    tag_84:\n        /* \"contracts/utils/AccessControl.sol\":1903:1910  uint256 */\n      0x00\n        /* \"contracts/utils/AccessControl.sol\":1929:1950  _roles[role].length() */\n      tag_163\n        /* \"contracts/utils/AccessControl.sol\":1929:1935  _roles */\n      0x00\n        /* \"contracts/utils/AccessControl.sol\":1929:1941  _roles[role] */\n      dup1\n        /* \"contracts/utils/AccessControl.sol\":1936:1940  role */\n      dup5\n        /* \"contracts/utils/AccessControl.sol\":1929:1941  _roles[role] */\n      dup2\n      mstore\n      0x20\n      add\n      swap1\n      dup2\n      mstore\n      0x20\n      add\n      0x00\n      keccak256\n        /* \"contracts/utils/AccessControl.sol\":1929:1948  _roles[role].length */\n      tag_164\n        /* \"contracts/utils/AccessControl.sol\":1929:1950  _roles[role].length() */\n      jump\t// in\n    tag_163:\n        /* \"contracts/utils/AccessControl.sol\":1922:1950  return _roles[role].length() */\n      swap1\n      pop\n        /* \"contracts/utils/AccessControl.sol\":1840:1957  function getRoleMemberCount(bytes32 role) public view returns (uint256) {... */\n      swap2\n      swap1\n      pop\n      jump\t// out\n        /* \"contracts/Access.sol\":1040:1140  function addRenter(address account) public virtual {... */\n    tag_88:\n        /* \"contracts/Access.sol\":1101:1133  _grantRole(RENTER_ROLE, account) */\n      tag_166\n        /* \"contracts/Access.sol\":1112:1123  RENTER_ROLE */\n      0x52454e5445520000000000000000000000000000000000000000000000000000\n        /* \"contracts/Access.sol\":1125:1132  account */\n      dup3\n        /* \"contracts/Access.sol\":1101:1111  _grantRole */\n      tag_141\n        /* \"contracts/Access.sol\":1101:1133  _grantRole(RENTER_ROLE, account) */\n      jump\t// in\n    tag_166:\n        /* \"contracts/Access.sol\":1040:1140  function addRenter(address account) public virtual {... */\n      pop\n      jump\t// out\n        /* \"contracts/Access.sol\":142:186  bytes32 public constant OWNER_ROLE = \"OWNER\" */\n    tag_90:\n      0x4f574e4552000000000000000000000000000000000000000000000000000000\n      dup2\n      jump\t// out\n        /* \"contracts/utils/AccessControl.sol\":3008:3189  function _revokeRole(bytes32 role, address account) internal {... */\n    tag_94:\n        /* \"contracts/utils/AccessControl.sol\":3083:3111  _roles[role].remove(account) */\n      tag_168\n        /* \"contracts/utils/AccessControl.sol\":3103:3110  account */\n      dup2\n        /* \"contracts/utils/AccessControl.sol\":3083:3089  _roles */\n      0x00\n        /* \"contracts/utils/AccessControl.sol\":3083:3095  _roles[role] */\n      dup1\n        /* \"contracts/utils/AccessControl.sol\":3090:3094  role */\n      dup6\n        /* \"contracts/utils/AccessControl.sol\":3083:3095  _roles[role] */\n      dup2\n      mstore\n      0x20\n      add\n      swap1\n      dup2\n      mstore\n      0x20\n      add\n      0x00\n      keccak256\n        /* \"contracts/utils/AccessControl.sol\":3083:3102  _roles[role].remove */\n      tag_169\n      swap1\n        /* \"contracts/utils/AccessControl.sol\":3083:3111  _roles[role].remove(account) */\n      swap2\n      swap1\n      0xffffffff\n      and\n      jump\t// in\n    tag_168:\n        /* \"contracts/utils/AccessControl.sol\":3079:3183  if (_roles[role].remove(account)) {... */\n      iszero\n      tag_170\n      jumpi\n        /* \"contracts/utils/AccessControl.sol\":3159:3171  _msgSender() */\n      tag_171\n        /* \"contracts/utils/AccessControl.sol\":3159:3169  _msgSender */\n      tag_172\n        /* \"contracts/utils/AccessControl.sol\":3159:3171  _msgSender() */\n      jump\t// in\n    tag_171:\n        /* \"contracts/utils/AccessControl.sol\":3132:3172  RoleRevoked(role, account, _msgSender()) */\n      0xffffffffffffffffffffffffffffffffffffffff\n      and\n        /* \"contracts/utils/AccessControl.sol\":3150:3157  account */\n      dup2\n        /* \"contracts/utils/AccessControl.sol\":3132:3172  RoleRevoked(role, account, _msgSender()) */\n      0xffffffffffffffffffffffffffffffffffffffff\n      and\n        /* \"contracts/utils/AccessControl.sol\":3144:3148  role */\n      dup4\n        /* \"contracts/utils/AccessControl.sol\":3132:3172  RoleRevoked(role, account, _msgSender()) */\n      0xf6391f5c32d9c69d2a47ea670b442974b53935d1edc7fd64eb21e047a839171b\n      mload(0x40)\n      mload(0x40)\n      dup1\n      swap2\n      sub\n      swap1\n      log4\n        /* \"contracts/utils/AccessControl.sol\":3079:3183  if (_roles[role].remove(account)) {... */\n    tag_170:\n        /* \"contracts/utils/AccessControl.sol\":3008:3189  function _revokeRole(bytes32 role, address account) internal {... */\n      pop\n      pop\n      jump\t// out\n        /* \"contracts/utils/AccessControl.sol\":2825:3002  function _grantRole(bytes32 role, address account) internal {... */\n    tag_141:\n        /* \"contracts/utils/AccessControl.sol\":2899:2924  _roles[role].add(account) */\n      tag_174\n        /* \"contracts/utils/AccessControl.sol\":2916:2923  account */\n      dup2\n        /* \"contracts/utils/AccessControl.sol\":2899:2905  _roles */\n      0x00\n        /* \"contracts/utils/AccessControl.sol\":2899:2911  _roles[role] */\n      dup1\n        /* \"contracts/utils/AccessControl.sol\":2906:2910  role */\n      dup6\n        /* \"contracts/utils/AccessControl.sol\":2899:2911  _roles[role] */\n      dup2\n      mstore\n      0x20\n      add\n      swap1\n      dup2\n      mstore\n      0x20\n      add\n      0x00\n      keccak256\n        /* \"contracts/utils/AccessControl.sol\":2899:2915  _roles[role].add */\n      tag_175\n      swap1\n        /* \"contracts/utils/AccessControl.sol\":2899:2924  _roles[role].add(account) */\n      swap2\n      swap1\n      0xffffffff\n      and\n      jump\t// in\n    tag_174:\n        /* \"contracts/utils/AccessControl.sol\":2895:2996  if (_roles[role].add(account)) {... */\n      iszero\n      tag_176\n      jumpi\n        /* \"contracts/utils/AccessControl.sol\":2972:2984  _msgSender() */\n      tag_177\n        /* \"contracts/utils/AccessControl.sol\":2972:2982  _msgSender */\n      tag_172\n        /* \"contracts/utils/AccessControl.sol\":2972:2984  _msgSender() */\n      jump\t// in\n    tag_177:\n        /* \"contracts/utils/AccessControl.sol\":2945:2985  RoleGranted(role, account, _msgSender()) */\n      0xffffffffffffffffffffffffffffffffffffffff\n      and\n        /* \"contracts/utils/AccessControl.sol\":2963:2970  account */\n      dup2\n        /* \"contracts/utils/AccessControl.sol\":2945:2985  RoleGranted(role, account, _msgSender()) */\n      0xffffffffffffffffffffffffffffffffffffffff\n      and\n        /* \"contracts/utils/AccessControl.sol\":2957:2961  role */\n      dup4\n        /* \"contracts/utils/AccessControl.sol\":2945:2985  RoleGranted(role, account, _msgSender()) */\n      0x2f8788117e7eff1d82e926ec794901d17c78024a50270940304540a733656f0d\n      mload(0x40)\n      mload(0x40)\n      dup1\n      swap2\n      sub\n      swap1\n      log4\n        /* \"contracts/utils/AccessControl.sol\":2895:2996  if (_roles[role].add(account)) {... */\n    tag_176:\n        /* \"contracts/utils/AccessControl.sol\":2825:3002  function _grantRole(bytes32 role, address account) internal {... */\n      pop\n      pop\n      jump\t// out\n        /* \"@openzeppelin/contracts/utils/structs/EnumerableSet.sol\":9286:9442  function at(AddressSet storage set, uint256 index) internal view returns (address) {... */\n    tag_144:\n        /* \"@openzeppelin/contracts/utils/structs/EnumerableSet.sol\":9360:9367  address */\n      0x00\n        /* \"@openzeppelin/contracts/utils/structs/EnumerableSet.sol\":9410:9432  _at(set._inner, index) */\n      tag_179\n        /* \"@openzeppelin/contracts/utils/structs/EnumerableSet.sol\":9414:9417  set */\n      dup4\n        /* \"@openzeppelin/contracts/utils/structs/EnumerableSet.sol\":9414:9424  set._inner */\n      0x00\n      add\n        /* \"@openzeppelin/contracts/utils/structs/EnumerableSet.sol\":9426:9431  index */\n      dup4\n        /* \"@openzeppelin/contracts/utils/structs/EnumerableSet.sol\":9410:9413  _at */\n      tag_180\n        /* \"@openzeppelin/contracts/utils/structs/EnumerableSet.sol\":9410:9432  _at(set._inner, index) */\n      jump\t// in\n    tag_179:\n        /* \"@openzeppelin/contracts/utils/structs/EnumerableSet.sol\":9402:9433  uint256(_at(set._inner, index)) */\n      0x00\n      shr\n        /* \"@openzeppelin/contracts/utils/structs/EnumerableSet.sol\":9379:9435  return address(uint160(uint256(_at(set._inner, index)))) */\n      swap1\n      pop\n        /* \"@openzeppelin/contracts/utils/structs/EnumerableSet.sol\":9286:9442  function at(AddressSet storage set, uint256 index) internal view returns (address) {... */\n      swap3\n      swap2\n      pop\n      pop\n      jump\t// out\n        /* \"@openzeppelin/contracts/utils/structs/EnumerableSet.sol\":8583:8748  function contains(AddressSet storage set, address value) internal view returns (bool) {... */\n    tag_147:\n        /* \"@openzeppelin/contracts/utils/structs/EnumerableSet.sol\":8663:8667  bool */\n      0x00\n        /* \"@openzeppelin/contracts/utils/structs/EnumerableSet.sol\":8686:8741  _contains(set._inner, bytes32(uint256(uint160(value)))) */\n      tag_182\n        /* \"@openzeppelin/contracts/utils/structs/EnumerableSet.sol\":8696:8699  set */\n      dup4\n        /* \"@openzeppelin/contracts/utils/structs/EnumerableSet.sol\":8696:8706  set._inner */\n      0x00\n      add\n        /* \"@openzeppelin/contracts/utils/structs/EnumerableSet.sol\":8732:8737  value */\n      dup4\n        /* \"@openzeppelin/contracts/utils/structs/EnumerableSet.sol\":8716:8739  uint256(uint160(value)) */\n      0xffffffffffffffffffffffffffffffffffffffff\n      and\n        /* \"@openzeppelin/contracts/utils/structs/EnumerableSet.sol\":8708:8740  bytes32(uint256(uint160(value))) */\n      0x00\n      shl\n        /* \"@openzeppelin/contracts/utils/structs/EnumerableSet.sol\":8686:8695  _contains */\n      tag_183\n        /* \"@openzeppelin/contracts/utils/structs/EnumerableSet.sol\":8686:8741  _contains(set._inner, bytes32(uint256(uint160(value)))) */\n      jump\t// in\n    tag_182:\n        /* \"@openzeppelin/contracts/utils/structs/EnumerableSet.sol\":8679:8741  return _contains(set._inner, bytes32(uint256(uint160(value)))) */\n      swap1\n      pop\n        /* \"@openzeppelin/contracts/utils/structs/EnumerableSet.sol\":8583:8748  function contains(AddressSet storage set, address value) internal view returns (bool) {... */\n      swap3\n      swap2\n      pop\n      pop\n      jump\t// out\n        /* \"@openzeppelin/contracts/utils/structs/EnumerableSet.sol\":8829:8944  function length(AddressSet storage set) internal view returns (uint256) {... */\n    tag_164:\n        /* \"@openzeppelin/contracts/utils/structs/EnumerableSet.sol\":8892:8899  uint256 */\n      0x00\n        /* \"@openzeppelin/contracts/utils/structs/EnumerableSet.sol\":8918:8937  _length(set._inner) */\n      tag_185\n        /* \"@openzeppelin/contracts/utils/structs/EnumerableSet.sol\":8926:8929  set */\n      dup3\n        /* \"@openzeppelin/contracts/utils/structs/EnumerableSet.sol\":8926:8936  set._inner */\n      0x00\n      add\n        /* \"@openzeppelin/contracts/utils/structs/EnumerableSet.sol\":8918:8925  _length */\n      tag_186\n        /* \"@openzeppelin/contracts/utils/structs/EnumerableSet.sol\":8918:8937  _length(set._inner) */\n      jump\t// in\n    tag_185:\n        /* \"@openzeppelin/contracts/utils/structs/EnumerableSet.sol\":8911:8937  return _length(set._inner) */\n      swap1\n      pop\n        /* \"@openzeppelin/contracts/utils/structs/EnumerableSet.sol\":8829:8944  function length(AddressSet storage set) internal view returns (uint256) {... */\n      swap2\n      swap1\n      pop\n      jump\t// out\n        /* \"@openzeppelin/contracts/utils/structs/EnumerableSet.sol\":8346:8502  function remove(AddressSet storage set, address value) internal returns (bool) {... */\n    tag_169:\n        /* \"@openzeppelin/contracts/utils/structs/EnumerableSet.sol\":8419:8423  bool */\n      0x00\n        /* \"@openzeppelin/contracts/utils/structs/EnumerableSet.sol\":8442:8495  _remove(set._inner, bytes32(uint256(uint160(value)))) */\n      tag_188\n        /* \"@openzeppelin/contracts/utils/structs/EnumerableSet.sol\":8450:8453  set */\n      dup4\n        /* \"@openzeppelin/contracts/utils/structs/EnumerableSet.sol\":8450:8460  set._inner */\n      0x00\n      add\n        /* \"@openzeppelin/contracts/utils/structs/EnumerableSet.sol\":8486:8491  value */\n      dup4\n        /* \"@openzeppelin/contracts/utils/structs/EnumerableSet.sol\":8470:8493  uint256(uint160(value)) */\n      0xffffffffffffffffffffffffffffffffffffffff\n      and\n        /* \"@openzeppelin/contracts/utils/structs/EnumerableSet.sol\":8462:8494  bytes32(uint256(uint160(value))) */\n      0x00\n      shl\n        /* \"@openzeppelin/contracts/utils/structs/EnumerableSet.sol\":8442:8449  _remove */\n      tag_189\n        /* \"@openzeppelin/contracts/utils/structs/EnumerableSet.sol\":8442:8495  _remove(set._inner, bytes32(uint256(uint160(value)))) */\n      jump\t// in\n    tag_188:\n        /* \"@openzeppelin/contracts/utils/structs/EnumerableSet.sol\":8435:8495  return _remove(set._inner, bytes32(uint256(uint160(value)))) */\n      swap1\n      pop\n        /* \"@openzeppelin/contracts/utils/structs/EnumerableSet.sol\":8346:8502  function remove(AddressSet storage set, address value) internal returns (bool) {... */\n      swap3\n      swap2\n      pop\n      pop\n      jump\t// out\n        /* \"contracts/utils/Context.sol\":606:702  function _msgSender() internal view virtual returns (address) {... */\n    tag_172:\n        /* \"contracts/utils/Context.sol\":659:666  address */\n      0x00\n        /* \"contracts/utils/Context.sol\":685:695  msg.sender */\n      caller\n        /* \"contracts/utils/Context.sol\":678:695  return msg.sender */\n      swap1\n      pop\n        /* \"contracts/utils/Context.sol\":606:702  function _msgSender() internal view virtual returns (address) {... */\n      swap1\n      jump\t// out\n        /* \"@openzeppelin/contracts/utils/structs/EnumerableSet.sol\":8028:8178  function add(AddressSet storage set, address value) internal returns (bool) {... */\n    tag_175:\n        /* \"@openzeppelin/contracts/utils/structs/EnumerableSet.sol\":8098:8102  bool */\n      0x00\n        /* \"@openzeppelin/contracts/utils/structs/EnumerableSet.sol\":8121:8171  _add(set._inner, bytes32(uint256(uint160(value)))) */\n      tag_192\n        /* \"@openzeppelin/contracts/utils/structs/EnumerableSet.sol\":8126:8129  set */\n      dup4\n        /* \"@openzeppelin/contracts/utils/structs/EnumerableSet.sol\":8126:8136  set._inner */\n      0x00\n      add\n        /* \"@openzeppelin/contracts/utils/structs/EnumerableSet.sol\":8162:8167  value */\n      dup4\n        /* \"@openzeppelin/contracts/utils/structs/EnumerableSet.sol\":8146:8169  uint256(uint160(value)) */\n      0xffffffffffffffffffffffffffffffffffffffff\n      and\n        /* \"@openzeppelin/contracts/utils/structs/EnumerableSet.sol\":8138:8170  bytes32(uint256(uint160(value))) */\n      0x00\n      shl\n        /* \"@openzeppelin/contracts/utils/structs/EnumerableSet.sol\":8121:8125  _add */\n      tag_193\n        /* \"@openzeppelin/contracts/utils/structs/EnumerableSet.sol\":8121:8171  _add(set._inner, bytes32(uint256(uint160(value)))) */\n      jump\t// in\n    tag_192:\n        /* \"@openzeppelin/contracts/utils/structs/EnumerableSet.sol\":8114:8171  return _add(set._inner, bytes32(uint256(uint160(value)))) */\n      swap1\n      pop\n        /* \"@openzeppelin/contracts/utils/structs/EnumerableSet.sol\":8028:8178  function add(AddressSet storage set, address value) internal returns (bool) {... */\n      swap3\n      swap2\n      pop\n      pop\n      jump\t// out\n        /* \"@openzeppelin/contracts/utils/structs/EnumerableSet.sol\":4811:4929  function _at(Set storage set, uint256 index) private view returns (bytes32) {... */\n    tag_180:\n        /* \"@openzeppelin/contracts/utils/structs/EnumerableSet.sol\":4878:4885  bytes32 */\n      0x00\n        /* \"@openzeppelin/contracts/utils/structs/EnumerableSet.sol\":4904:4907  set */\n      dup3\n        /* \"@openzeppelin/contracts/utils/structs/EnumerableSet.sol\":4904:4915  set._values */\n      0x00\n      add\n        /* \"@openzeppelin/contracts/utils/structs/EnumerableSet.sol\":4916:4921  index */\n      dup3\n        /* \"@openzeppelin/contracts/utils/structs/EnumerableSet.sol\":4904:4922  set._values[index] */\n      dup2\n      sload\n      dup2\n      lt\n      tag_195\n      jumpi\n      tag_196\n      tag_197\n      jump\t// in\n    tag_196:\n    tag_195:\n      swap1\n      0x00\n      mstore\n      keccak256(0x00, 0x20)\n      add\n      sload\n        /* \"@openzeppelin/contracts/utils/structs/EnumerableSet.sol\":4897:4922  return set._values[index] */\n      swap1\n      pop\n        /* \"@openzeppelin/contracts/utils/structs/EnumerableSet.sol\":4811:4929  function _at(Set storage set, uint256 index) private view returns (bytes32) {... */\n      swap3\n      swap2\n      pop\n      pop\n      jump\t// out\n        /* \"@openzeppelin/contracts/utils/structs/EnumerableSet.sol\":4154:4281  function _contains(Set storage set, bytes32 value) private view returns (bool) {... */\n    tag_183:\n        /* \"@openzeppelin/contracts/utils/structs/EnumerableSet.sol\":4227:4231  bool */\n      0x00\n        /* \"@openzeppelin/contracts/utils/structs/EnumerableSet.sol\":4273:4274  0 */\n      dup1\n        /* \"@openzeppelin/contracts/utils/structs/EnumerableSet.sol\":4250:4253  set */\n      dup4\n        /* \"@openzeppelin/contracts/utils/structs/EnumerableSet.sol\":4250:4262  set._indexes */\n      0x01\n      add\n        /* \"@openzeppelin/contracts/utils/structs/EnumerableSet.sol\":4250:4269  set._indexes[value] */\n      0x00\n        /* \"@openzeppelin/contracts/utils/structs/EnumerableSet.sol\":4263:4268  value */\n      dup5\n        /* \"@openzeppelin/contracts/utils/structs/EnumerableSet.sol\":4250:4269  set._indexes[value] */\n      dup2\n      mstore\n      0x20\n      add\n      swap1\n      dup2\n      mstore\n      0x20\n      add\n      0x00\n      keccak256\n      sload\n        /* \"@openzeppelin/contracts/utils/structs/EnumerableSet.sol\":4250:4274  set._indexes[value] != 0 */\n      eq\n      iszero\n        /* \"@openzeppelin/contracts/utils/structs/EnumerableSet.sol\":4243:4274  return set._indexes[value] != 0 */\n      swap1\n      pop\n        /* \"@openzeppelin/contracts/utils/structs/EnumerableSet.sol\":4154:4281  function _contains(Set storage set, bytes32 value) private view returns (bool) {... */\n      swap3\n      swap2\n      pop\n      pop\n      jump\t// out\n        /* \"@openzeppelin/contracts/utils/structs/EnumerableSet.sol\":4362:4469  function _length(Set storage set) private view returns (uint256) {... */\n    tag_186:\n        /* \"@openzeppelin/contracts/utils/structs/EnumerableSet.sol\":4418:4425  uint256 */\n      0x00\n        /* \"@openzeppelin/contracts/utils/structs/EnumerableSet.sol\":4444:4447  set */\n      dup2\n        /* \"@openzeppelin/contracts/utils/structs/EnumerableSet.sol\":4444:4455  set._values */\n      0x00\n      add\n        /* \"@openzeppelin/contracts/utils/structs/EnumerableSet.sol\":4444:4462  set._values.length */\n      dup1\n      sload\n      swap1\n      pop\n        /* \"@openzeppelin/contracts/utils/structs/EnumerableSet.sol\":4437:4462  return set._values.length */\n      swap1\n      pop\n        /* \"@openzeppelin/contracts/utils/structs/EnumerableSet.sol\":4362:4469  function _length(Set storage set) private view returns (uint256) {... */\n      swap2\n      swap1\n      pop\n      jump\t// out\n        /* \"@openzeppelin/contracts/utils/structs/EnumerableSet.sol\":2685:4073  function _remove(Set storage set, bytes32 value) private returns (bool) {... */\n    tag_189:\n        /* \"@openzeppelin/contracts/utils/structs/EnumerableSet.sol\":2751:2755  bool */\n      0x00\n        /* \"@openzeppelin/contracts/utils/structs/EnumerableSet.sol\":2867:2885  uint256 valueIndex */\n      dup1\n        /* \"@openzeppelin/contracts/utils/structs/EnumerableSet.sol\":2888:2891  set */\n      dup4\n        /* \"@openzeppelin/contracts/utils/structs/EnumerableSet.sol\":2888:2900  set._indexes */\n      0x01\n      add\n        /* \"@openzeppelin/contracts/utils/structs/EnumerableSet.sol\":2888:2907  set._indexes[value] */\n      0x00\n        /* \"@openzeppelin/contracts/utils/structs/EnumerableSet.sol\":2901:2906  value */\n      dup5\n        /* \"@openzeppelin/contracts/utils/structs/EnumerableSet.sol\":2888:2907  set._indexes[value] */\n      dup2\n      mstore\n      0x20\n      add\n      swap1\n      dup2\n      mstore\n      0x20\n      add\n      0x00\n      keccak256\n      sload\n        /* \"@openzeppelin/contracts/utils/structs/EnumerableSet.sol\":2867:2907  uint256 valueIndex = set._indexes[value] */\n      swap1\n      pop\n        /* \"@openzeppelin/contracts/utils/structs/EnumerableSet.sol\":2936:2937  0 */\n      0x00\n        /* \"@openzeppelin/contracts/utils/structs/EnumerableSet.sol\":2922:2932  valueIndex */\n      dup2\n        /* \"@openzeppelin/contracts/utils/structs/EnumerableSet.sol\":2922:2937  valueIndex != 0 */\n      eq\n        /* \"@openzeppelin/contracts/utils/structs/EnumerableSet.sol\":2918:4067  if (valueIndex != 0) {... */\n      tag_202\n      jumpi\n        /* \"@openzeppelin/contracts/utils/structs/EnumerableSet.sol\":3291:3312  uint256 toDeleteIndex */\n      0x00\n        /* \"@openzeppelin/contracts/utils/structs/EnumerableSet.sol\":3328:3329  1 */\n      0x01\n        /* \"@openzeppelin/contracts/utils/structs/EnumerableSet.sol\":3315:3325  valueIndex */\n      dup3\n        /* \"@openzeppelin/contracts/utils/structs/EnumerableSet.sol\":3315:3329  valueIndex - 1 */\n      tag_203\n      swap2\n      swap1\n      tag_204\n      jump\t// in\n    tag_203:\n        /* \"@openzeppelin/contracts/utils/structs/EnumerableSet.sol\":3291:3329  uint256 toDeleteIndex = valueIndex - 1 */\n      swap1\n      pop\n        /* \"@openzeppelin/contracts/utils/structs/EnumerableSet.sol\":3343:3360  uint256 lastIndex */\n      0x00\n        /* \"@openzeppelin/contracts/utils/structs/EnumerableSet.sol\":3384:3385  1 */\n      0x01\n        /* \"@openzeppelin/contracts/utils/structs/EnumerableSet.sol\":3363:3366  set */\n      dup7\n        /* \"@openzeppelin/contracts/utils/structs/EnumerableSet.sol\":3363:3374  set._values */\n      0x00\n      add\n        /* \"@openzeppelin/contracts/utils/structs/EnumerableSet.sol\":3363:3381  set._values.length */\n      dup1\n      sload\n      swap1\n      pop\n        /* \"@openzeppelin/contracts/utils/structs/EnumerableSet.sol\":3363:3385  set._values.length - 1 */\n      tag_205\n      swap2\n      swap1\n      tag_204\n      jump\t// in\n    tag_205:\n        /* \"@openzeppelin/contracts/utils/structs/EnumerableSet.sol\":3343:3385  uint256 lastIndex = set._values.length - 1 */\n      swap1\n      pop\n        /* \"@openzeppelin/contracts/utils/structs/EnumerableSet.sol\":3417:3430  toDeleteIndex */\n      dup2\n        /* \"@openzeppelin/contracts/utils/structs/EnumerableSet.sol\":3404:3413  lastIndex */\n      dup2\n        /* \"@openzeppelin/contracts/utils/structs/EnumerableSet.sol\":3404:3430  lastIndex != toDeleteIndex */\n      eq\n        /* \"@openzeppelin/contracts/utils/structs/EnumerableSet.sol\":3400:3798  if (lastIndex != toDeleteIndex) {... */\n      tag_206\n      jumpi\n        /* \"@openzeppelin/contracts/utils/structs/EnumerableSet.sol\":3450:3467  bytes32 lastValue */\n      0x00\n        /* \"@openzeppelin/contracts/utils/structs/EnumerableSet.sol\":3470:3473  set */\n      dup7\n        /* \"@openzeppelin/contracts/utils/structs/EnumerableSet.sol\":3470:3481  set._values */\n      0x00\n      add\n        /* \"@openzeppelin/contracts/utils/structs/EnumerableSet.sol\":3482:3491  lastIndex */\n      dup3\n        /* \"@openzeppelin/contracts/utils/structs/EnumerableSet.sol\":3470:3492  set._values[lastIndex] */\n      dup2\n      sload\n      dup2\n      lt\n      tag_207\n      jumpi\n      tag_208\n      tag_197\n      jump\t// in\n    tag_208:\n    tag_207:\n      swap1\n      0x00\n      mstore\n      keccak256(0x00, 0x20)\n      add\n      sload\n        /* \"@openzeppelin/contracts/utils/structs/EnumerableSet.sol\":3450:3492  bytes32 lastValue = set._values[lastIndex] */\n      swap1\n      pop\n        /* \"@openzeppelin/contracts/utils/structs/EnumerableSet.sol\":3621:3630  lastValue */\n      dup1\n        /* \"@openzeppelin/contracts/utils/structs/EnumerableSet.sol\":3592:3595  set */\n      dup8\n        /* \"@openzeppelin/contracts/utils/structs/EnumerableSet.sol\":3592:3603  set._values */\n      0x00\n      add\n        /* \"@openzeppelin/contracts/utils/structs/EnumerableSet.sol\":3604:3617  toDeleteIndex */\n      dup5\n        /* \"@openzeppelin/contracts/utils/structs/EnumerableSet.sol\":3592:3618  set._values[toDeleteIndex] */\n      dup2\n      sload\n      dup2\n      lt\n      tag_210\n      jumpi\n      tag_211\n      tag_197\n      jump\t// in\n    tag_211:\n    tag_210:\n      swap1\n      0x00\n      mstore\n      keccak256(0x00, 0x20)\n      add\n        /* \"@openzeppelin/contracts/utils/structs/EnumerableSet.sol\":3592:3630  set._values[toDeleteIndex] = lastValue */\n      dup2\n      swap1\n      sstore\n      pop\n        /* \"@openzeppelin/contracts/utils/structs/EnumerableSet.sol\":3730:3740  valueIndex */\n      dup4\n        /* \"@openzeppelin/contracts/utils/structs/EnumerableSet.sol\":3704:3707  set */\n      dup8\n        /* \"@openzeppelin/contracts/utils/structs/EnumerableSet.sol\":3704:3716  set._indexes */\n      0x01\n      add\n        /* \"@openzeppelin/contracts/utils/structs/EnumerableSet.sol\":3704:3727  set._indexes[lastValue] */\n      0x00\n        /* \"@openzeppelin/contracts/utils/structs/EnumerableSet.sol\":3717:3726  lastValue */\n      dup4\n        /* \"@openzeppelin/contracts/utils/structs/EnumerableSet.sol\":3704:3727  set._indexes[lastValue] */\n      dup2\n      mstore\n      0x20\n      add\n      swap1\n      dup2\n      mstore\n      0x20\n      add\n      0x00\n      keccak256\n        /* \"@openzeppelin/contracts/utils/structs/EnumerableSet.sol\":3704:3740  set._indexes[lastValue] = valueIndex */\n      dup2\n      swap1\n      sstore\n      pop\n        /* \"@openzeppelin/contracts/utils/structs/EnumerableSet.sol\":3432:3798  {... */\n      pop\n        /* \"@openzeppelin/contracts/utils/structs/EnumerableSet.sol\":3400:3798  if (lastIndex != toDeleteIndex) {... */\n    tag_206:\n        /* \"@openzeppelin/contracts/utils/structs/EnumerableSet.sol\":3876:3879  set */\n      dup6\n        /* \"@openzeppelin/contracts/utils/structs/EnumerableSet.sol\":3876:3887  set._values */\n      0x00\n      add\n        /* \"@openzeppelin/contracts/utils/structs/EnumerableSet.sol\":3876:3893  set._values.pop() */\n      dup1\n      sload\n      dup1\n      tag_213\n      jumpi\n      tag_214\n      tag_215\n      jump\t// in\n    tag_214:\n    tag_213:\n      0x01\n      swap1\n      sub\n      dup2\n      dup2\n      swap1\n      0x00\n      mstore\n      keccak256(0x00, 0x20)\n      add\n      0x00\n      swap1\n      sstore\n      swap1\n      sstore\n        /* \"@openzeppelin/contracts/utils/structs/EnumerableSet.sol\":3968:3971  set */\n      dup6\n        /* \"@openzeppelin/contracts/utils/structs/EnumerableSet.sol\":3968:3980  set._indexes */\n      0x01\n      add\n        /* \"@openzeppelin/contracts/utils/structs/EnumerableSet.sol\":3968:3987  set._indexes[value] */\n      0x00\n        /* \"@openzeppelin/contracts/utils/structs/EnumerableSet.sol\":3981:3986  value */\n      dup7\n        /* \"@openzeppelin/contracts/utils/structs/EnumerableSet.sol\":3968:3987  set._indexes[value] */\n      dup2\n      mstore\n      0x20\n      add\n      swap1\n      dup2\n      mstore\n      0x20\n      add\n      0x00\n      keccak256\n        /* \"@openzeppelin/contracts/utils/structs/EnumerableSet.sol\":3961:3987  delete set._indexes[value] */\n      0x00\n      swap1\n      sstore\n        /* \"@openzeppelin/contracts/utils/structs/EnumerableSet.sol\":4009:4013  true */\n      0x01\n        /* \"@openzeppelin/contracts/utils/structs/EnumerableSet.sol\":4002:4013  return true */\n      swap4\n      pop\n      pop\n      pop\n      pop\n      jump(tag_201)\n        /* \"@openzeppelin/contracts/utils/structs/EnumerableSet.sol\":2918:4067  if (valueIndex != 0) {... */\n    tag_202:\n        /* \"@openzeppelin/contracts/utils/structs/EnumerableSet.sol\":4051:4056  false */\n      0x00\n        /* \"@openzeppelin/contracts/utils/structs/EnumerableSet.sol\":4044:4056  return false */\n      swap2\n      pop\n      pop\n        /* \"@openzeppelin/contracts/utils/structs/EnumerableSet.sol\":2685:4073  function _remove(Set storage set, bytes32 value) private returns (bool) {... */\n    tag_201:\n      swap3\n      swap2\n      pop\n      pop\n      jump\t// out\n        /* \"@openzeppelin/contracts/utils/structs/EnumerableSet.sol\":2113:2517  function _add(Set storage set, bytes32 value) private returns (bool) {... */\n    tag_193:\n        /* \"@openzeppelin/contracts/utils/structs/EnumerableSet.sol\":2176:2180  bool */\n      0x00\n        /* \"@openzeppelin/contracts/utils/structs/EnumerableSet.sol\":2197:2218  _contains(set, value) */\n      tag_219\n        /* \"@openzeppelin/contracts/utils/structs/EnumerableSet.sol\":2207:2210  set */\n      dup4\n        /* \"@openzeppelin/contracts/utils/structs/EnumerableSet.sol\":2212:2217  value */\n      dup4\n        /* \"@openzeppelin/contracts/utils/structs/EnumerableSet.sol\":2197:2206  _contains */\n      tag_183\n        /* \"@openzeppelin/contracts/utils/structs/EnumerableSet.sol\":2197:2218  _contains(set, value) */\n      jump\t// in\n    tag_219:\n        /* \"@openzeppelin/contracts/utils/structs/EnumerableSet.sol\":2192:2511  if (!_contains(set, value)) {... */\n      tag_220\n      jumpi\n        /* \"@openzeppelin/contracts/utils/structs/EnumerableSet.sol\":2234:2237  set */\n      dup3\n        /* \"@openzeppelin/contracts/utils/structs/EnumerableSet.sol\":2234:2245  set._values */\n      0x00\n      add\n        /* \"@openzeppelin/contracts/utils/structs/EnumerableSet.sol\":2251:2256  value */\n      dup3\n        /* \"@openzeppelin/contracts/utils/structs/EnumerableSet.sol\":2234:2257  set._values.push(value) */\n      swap1\n      dup1\n      0x01\n      dup2\n      sload\n      add\n      dup1\n      dup3\n      sstore\n      dup1\n      swap2\n      pop\n      pop\n      0x01\n      swap1\n      sub\n      swap1\n      0x00\n      mstore\n      keccak256(0x00, 0x20)\n      add\n      0x00\n      swap1\n      swap2\n      swap1\n      swap2\n      swap1\n      swap2\n      pop\n      sstore\n        /* \"@openzeppelin/contracts/utils/structs/EnumerableSet.sol\":2414:2417  set */\n      dup3\n        /* \"@openzeppelin/contracts/utils/structs/EnumerableSet.sol\":2414:2425  set._values */\n      0x00\n      add\n        /* \"@openzeppelin/contracts/utils/structs/EnumerableSet.sol\":2414:2432  set._values.length */\n      dup1\n      sload\n      swap1\n      pop\n        /* \"@openzeppelin/contracts/utils/structs/EnumerableSet.sol\":2392:2395  set */\n      dup4\n        /* \"@openzeppelin/contracts/utils/structs/EnumerableSet.sol\":2392:2404  set._indexes */\n      0x01\n      add\n        /* \"@openzeppelin/contracts/utils/structs/EnumerableSet.sol\":2392:2411  set._indexes[value] */\n      0x00\n        /* \"@openzeppelin/contracts/utils/structs/EnumerableSet.sol\":2405:2410  value */\n      dup5\n        /* \"@openzeppelin/contracts/utils/structs/EnumerableSet.sol\":2392:2411  set._indexes[value] */\n      dup2\n      mstore\n      0x20\n      add\n      swap1\n      dup2\n      mstore\n      0x20\n      add\n      0x00\n      keccak256\n        /* \"@openzeppelin/contracts/utils/structs/EnumerableSet.sol\":2392:2432  set._indexes[value] = set._values.length */\n      dup2\n      swap1\n      sstore\n      pop\n        /* \"@openzeppelin/contracts/utils/structs/EnumerableSet.sol\":2453:2457  true */\n      0x01\n        /* \"@openzeppelin/contracts/utils/structs/EnumerableSet.sol\":2446:2457  return true */\n      swap1\n      pop\n      jump(tag_218)\n        /* \"@openzeppelin/contracts/utils/structs/EnumerableSet.sol\":2192:2511  if (!_contains(set, value)) {... */\n    tag_220:\n        /* \"@openzeppelin/contracts/utils/structs/EnumerableSet.sol\":2495:2500  false */\n      0x00\n        /* \"@openzeppelin/contracts/utils/structs/EnumerableSet.sol\":2488:2500  return false */\n      swap1\n      pop\n        /* \"@openzeppelin/contracts/utils/structs/EnumerableSet.sol\":2113:2517  function _add(Set storage set, bytes32 value) private returns (bool) {... */\n    tag_218:\n      swap3\n      swap2\n      pop\n      pop\n      jump\t// out\n    tag_122:\n      dup3\n      dup1\n      sload\n      tag_223\n      swap1\n      tag_129\n      jump\t// in\n    tag_223:\n      swap1\n      0x00\n      mstore\n      keccak256(0x00, 0x20)\n      swap1\n      0x1f\n      add\n      0x20\n      swap1\n      div\n      dup2\n      add\n      swap3\n      dup3\n      tag_225\n      jumpi\n      0x00\n      dup6\n      sstore\n      jump(tag_224)\n    tag_225:\n      dup3\n      0x1f\n      lt\n      tag_226\n      jumpi\n      dup1\n      mload\n      not(0xff)\n      and\n      dup4\n      dup1\n      add\n      or\n      dup6\n      sstore\n      jump(tag_224)\n    tag_226:\n      dup3\n      dup1\n      add\n      0x01\n      add\n      dup6\n      sstore\n      dup3\n      iszero\n      tag_224\n      jumpi\n      swap2\n      dup3\n      add\n    tag_227:\n      dup3\n      dup2\n      gt\n      iszero\n      tag_228\n      jumpi\n      dup3\n      mload\n      dup3\n      sstore\n      swap2\n      0x20\n      add\n      swap2\n      swap1\n      0x01\n      add\n      swap1\n      jump(tag_227)\n    tag_228:\n    tag_224:\n      pop\n      swap1\n      pop\n      tag_229\n      swap2\n      swap1\n      tag_230\n      jump\t// in\n    tag_229:\n      pop\n      swap1\n      jump\t// out\n    tag_230:\n    tag_231:\n      dup1\n      dup3\n      gt\n      iszero\n      tag_232\n      jumpi\n      0x00\n      dup2\n      0x00\n      swap1\n      sstore\n      pop\n      0x01\n      add\n      jump(tag_231)\n    tag_232:\n      pop\n      swap1\n      jump\t// out\n        /* \"#utility.yul\":7:419   */\n    tag_234:\n        /* \"#utility.yul\":85:90   */\n      0x00\n        /* \"#utility.yul\":110:176   */\n      tag_236\n        /* \"#utility.yul\":126:175   */\n      tag_237\n        /* \"#utility.yul\":168:174   */\n      dup5\n        /* \"#utility.yul\":126:175   */\n      tag_238\n      jump\t// in\n    tag_237:\n        /* \"#utility.yul\":110:176   */\n      tag_239\n      jump\t// in\n    tag_236:\n        /* \"#utility.yul\":101:176   */\n      swap1\n      pop\n        /* \"#utility.yul\":199:205   */\n      dup3\n        /* \"#utility.yul\":192:197   */\n      dup2\n        /* \"#utility.yul\":185:206   */\n      mstore\n        /* \"#utility.yul\":237:241   */\n      0x20\n        /* \"#utility.yul\":230:235   */\n      dup2\n        /* \"#utility.yul\":226:242   */\n      add\n        /* \"#utility.yul\":275:278   */\n      dup5\n        /* \"#utility.yul\":266:272   */\n      dup5\n        /* \"#utility.yul\":261:264   */\n      dup5\n        /* \"#utility.yul\":257:273   */\n      add\n        /* \"#utility.yul\":254:279   */\n      gt\n        /* \"#utility.yul\":251:363   */\n      iszero\n      tag_240\n      jumpi\n        /* \"#utility.yul\":282:361   */\n      tag_241\n      tag_242\n      jump\t// in\n    tag_241:\n        /* \"#utility.yul\":251:363   */\n    tag_240:\n        /* \"#utility.yul\":372:413   */\n      tag_243\n        /* \"#utility.yul\":406:412   */\n      dup5\n        /* \"#utility.yul\":401:404   */\n      dup3\n        /* \"#utility.yul\":396:399   */\n      dup6\n        /* \"#utility.yul\":372:413   */\n      tag_244\n      jump\t// in\n    tag_243:\n        /* \"#utility.yul\":91:419   */\n      pop\n        /* \"#utility.yul\":7:419   */\n      swap4\n      swap3\n      pop\n      pop\n      pop\n      jump\t// out\n        /* \"#utility.yul\":425:564   */\n    tag_245:\n        /* \"#utility.yul\":471:476   */\n      0x00\n        /* \"#utility.yul\":509:515   */\n      dup2\n        /* \"#utility.yul\":496:516   */\n      calldataload\n        /* \"#utility.yul\":487:516   */\n      swap1\n      pop\n        /* \"#utility.yul\":525:558   */\n      tag_247\n        /* \"#utility.yul\":552:557   */\n      dup2\n        /* \"#utility.yul\":525:558   */\n      tag_248\n      jump\t// in\n    tag_247:\n        /* \"#utility.yul\":425:564   */\n      swap3\n      swap2\n      pop\n      pop\n      jump\t// out\n        /* \"#utility.yul\":570:709   */\n    tag_249:\n        /* \"#utility.yul\":616:621   */\n      0x00\n        /* \"#utility.yul\":654:660   */\n      dup2\n        /* \"#utility.yul\":641:661   */\n      calldataload\n        /* \"#utility.yul\":632:661   */\n      swap1\n      pop\n        /* \"#utility.yul\":670:703   */\n      tag_251\n        /* \"#utility.yul\":697:702   */\n      dup2\n        /* \"#utility.yul\":670:703   */\n      tag_252\n      jump\t// in\n    tag_251:\n        /* \"#utility.yul\":570:709   */\n      swap3\n      swap2\n      pop\n      pop\n      jump\t// out\n        /* \"#utility.yul\":715:878   */\n    tag_253:\n        /* \"#utility.yul\":773:778   */\n      0x00\n        /* \"#utility.yul\":811:817   */\n      dup2\n        /* \"#utility.yul\":798:818   */\n      calldataload\n        /* \"#utility.yul\":789:818   */\n      swap1\n      pop\n        /* \"#utility.yul\":827:872   */\n      tag_255\n        /* \"#utility.yul\":866:871   */\n      dup2\n        /* \"#utility.yul\":827:872   */\n      tag_256\n      jump\t// in\n    tag_255:\n        /* \"#utility.yul\":715:878   */\n      swap3\n      swap2\n      pop\n      pop\n      jump\t// out\n        /* \"#utility.yul\":898:1238   */\n    tag_257:\n        /* \"#utility.yul\":954:959   */\n      0x00\n        /* \"#utility.yul\":1003:1006   */\n      dup3\n        /* \"#utility.yul\":996:1000   */\n      0x1f\n        /* \"#utility.yul\":988:994   */\n      dup4\n        /* \"#utility.yul\":984:1001   */\n      add\n        /* \"#utility.yul\":980:1007   */\n      slt\n        /* \"#utility.yul\":970:1092   */\n      tag_259\n      jumpi\n        /* \"#utility.yul\":1011:1090   */\n      tag_260\n      tag_261\n      jump\t// in\n    tag_260:\n        /* \"#utility.yul\":970:1092   */\n    tag_259:\n        /* \"#utility.yul\":1128:1134   */\n      dup2\n        /* \"#utility.yul\":1115:1135   */\n      calldataload\n        /* \"#utility.yul\":1153:1232   */\n      tag_262\n        /* \"#utility.yul\":1228:1231   */\n      dup5\n        /* \"#utility.yul\":1220:1226   */\n      dup3\n        /* \"#utility.yul\":1213:1217   */\n      0x20\n        /* \"#utility.yul\":1205:1211   */\n      dup7\n        /* \"#utility.yul\":1201:1218   */\n      add\n        /* \"#utility.yul\":1153:1232   */\n      tag_234\n      jump\t// in\n    tag_262:\n        /* \"#utility.yul\":1144:1232   */\n      swap2\n      pop\n        /* \"#utility.yul\":960:1238   */\n      pop\n        /* \"#utility.yul\":898:1238   */\n      swap3\n      swap2\n      pop\n      pop\n      jump\t// out\n        /* \"#utility.yul\":1276:2202   */\n    tag_263:\n        /* \"#utility.yul\":1353:1358   */\n      0x00\n        /* \"#utility.yul\":1397:1401   */\n      0x40\n        /* \"#utility.yul\":1385:1394   */\n      dup3\n        /* \"#utility.yul\":1380:1383   */\n      dup5\n        /* \"#utility.yul\":1376:1395   */\n      sub\n        /* \"#utility.yul\":1372:1402   */\n      slt\n        /* \"#utility.yul\":1369:1486   */\n      iszero\n      tag_265\n      jumpi\n        /* \"#utility.yul\":1405:1484   */\n      tag_266\n      tag_267\n      jump\t// in\n    tag_266:\n        /* \"#utility.yul\":1369:1486   */\n    tag_265:\n        /* \"#utility.yul\":1504:1525   */\n      tag_268\n        /* \"#utility.yul\":1520:1524   */\n      0x40\n        /* \"#utility.yul\":1504:1525   */\n      tag_239\n      jump\t// in\n    tag_268:\n        /* \"#utility.yul\":1495:1525   */\n      swap1\n      pop\n        /* \"#utility.yul\":1616:1617   */\n      0x00\n        /* \"#utility.yul\":1605:1614   */\n      dup3\n        /* \"#utility.yul\":1601:1618   */\n      add\n        /* \"#utility.yul\":1588:1619   */\n      calldataload\n        /* \"#utility.yul\":1646:1664   */\n      0xffffffffffffffff\n        /* \"#utility.yul\":1638:1644   */\n      dup2\n        /* \"#utility.yul\":1635:1665   */\n      gt\n        /* \"#utility.yul\":1632:1749   */\n      iszero\n      tag_269\n      jumpi\n        /* \"#utility.yul\":1668:1747   */\n      tag_270\n      tag_271\n      jump\t// in\n    tag_270:\n        /* \"#utility.yul\":1632:1749   */\n    tag_269:\n        /* \"#utility.yul\":1788:1847   */\n      tag_272\n        /* \"#utility.yul\":1843:1846   */\n      dup5\n        /* \"#utility.yul\":1834:1840   */\n      dup3\n        /* \"#utility.yul\":1823:1832   */\n      dup6\n        /* \"#utility.yul\":1819:1841   */\n      add\n        /* \"#utility.yul\":1788:1847   */\n      tag_257\n      jump\t// in\n    tag_272:\n        /* \"#utility.yul\":1781:1785   */\n      0x00\n        /* \"#utility.yul\":1774:1779   */\n      dup4\n        /* \"#utility.yul\":1770:1786   */\n      add\n        /* \"#utility.yul\":1763:1848   */\n      mstore\n        /* \"#utility.yul\":1535:1859   */\n      pop\n        /* \"#utility.yul\":1951:1953   */\n      0x20\n        /* \"#utility.yul\":1940:1949   */\n      dup3\n        /* \"#utility.yul\":1936:1954   */\n      add\n        /* \"#utility.yul\":1923:1955   */\n      calldataload\n        /* \"#utility.yul\":1982:2000   */\n      0xffffffffffffffff\n        /* \"#utility.yul\":1974:1980   */\n      dup2\n        /* \"#utility.yul\":1971:2001   */\n      gt\n        /* \"#utility.yul\":1968:2085   */\n      iszero\n      tag_273\n      jumpi\n        /* \"#utility.yul\":2004:2083   */\n      tag_274\n      tag_271\n      jump\t// in\n    tag_274:\n        /* \"#utility.yul\":1968:2085   */\n    tag_273:\n        /* \"#utility.yul\":2124:2183   */\n      tag_275\n        /* \"#utility.yul\":2179:2182   */\n      dup5\n        /* \"#utility.yul\":2170:2176   */\n      dup3\n        /* \"#utility.yul\":2159:2168   */\n      dup6\n        /* \"#utility.yul\":2155:2177   */\n      add\n        /* \"#utility.yul\":2124:2183   */\n      tag_257\n      jump\t// in\n    tag_275:\n        /* \"#utility.yul\":2117:2121   */\n      0x20\n        /* \"#utility.yul\":2110:2115   */\n      dup4\n        /* \"#utility.yul\":2106:2122   */\n      add\n        /* \"#utility.yul\":2099:2184   */\n      mstore\n        /* \"#utility.yul\":1869:2195   */\n      pop\n        /* \"#utility.yul\":1276:2202   */\n      swap3\n      swap2\n      pop\n      pop\n      jump\t// out\n        /* \"#utility.yul\":2208:2347   */\n    tag_276:\n        /* \"#utility.yul\":2254:2259   */\n      0x00\n        /* \"#utility.yul\":2292:2298   */\n      dup2\n        /* \"#utility.yul\":2279:2299   */\n      calldataload\n        /* \"#utility.yul\":2270:2299   */\n      swap1\n      pop\n        /* \"#utility.yul\":2308:2341   */\n      tag_278\n        /* \"#utility.yul\":2335:2340   */\n      dup2\n        /* \"#utility.yul\":2308:2341   */\n      tag_279\n      jump\t// in\n    tag_278:\n        /* \"#utility.yul\":2208:2347   */\n      swap3\n      swap2\n      pop\n      pop\n      jump\t// out\n        /* \"#utility.yul\":2353:2682   */\n    tag_25:\n        /* \"#utility.yul\":2412:2418   */\n      0x00\n        /* \"#utility.yul\":2461:2463   */\n      0x20\n        /* \"#utility.yul\":2449:2458   */\n      dup3\n        /* \"#utility.yul\":2440:2447   */\n      dup5\n        /* \"#utility.yul\":2436:2459   */\n      sub\n        /* \"#utility.yul\":2432:2464   */\n      slt\n        /* \"#utility.yul\":2429:2548   */\n      iszero\n      tag_281\n      jumpi\n        /* \"#utility.yul\":2467:2546   */\n      tag_282\n      tag_283\n      jump\t// in\n    tag_282:\n        /* \"#utility.yul\":2429:2548   */\n    tag_281:\n        /* \"#utility.yul\":2587:2588   */\n      0x00\n        /* \"#utility.yul\":2612:2665   */\n      tag_284\n        /* \"#utility.yul\":2657:2664   */\n      dup5\n        /* \"#utility.yul\":2648:2654   */\n      dup3\n        /* \"#utility.yul\":2637:2646   */\n      dup6\n        /* \"#utility.yul\":2633:2655   */\n      add\n        /* \"#utility.yul\":2612:2665   */\n      tag_245\n      jump\t// in\n    tag_284:\n        /* \"#utility.yul\":2602:2665   */\n      swap2\n      pop\n        /* \"#utility.yul\":2558:2675   */\n      pop\n        /* \"#utility.yul\":2353:2682   */\n      swap3\n      swap2\n      pop\n      pop\n      jump\t// out\n        /* \"#utility.yul\":2688:3017   */\n    tag_83:\n        /* \"#utility.yul\":2747:2753   */\n      0x00\n        /* \"#utility.yul\":2796:2798   */\n      0x20\n        /* \"#utility.yul\":2784:2793   */\n      dup3\n        /* \"#utility.yul\":2775:2782   */\n      dup5\n        /* \"#utility.yul\":2771:2794   */\n      sub\n        /* \"#utility.yul\":2767:2799   */\n      slt\n        /* \"#utility.yul\":2764:2883   */\n      iszero\n      tag_286\n      jumpi\n        /* \"#utility.yul\":2802:2881   */\n      tag_287\n      tag_283\n      jump\t// in\n    tag_287:\n        /* \"#utility.yul\":2764:2883   */\n    tag_286:\n        /* \"#utility.yul\":2922:2923   */\n      0x00\n        /* \"#utility.yul\":2947:3000   */\n      tag_288\n        /* \"#utility.yul\":2992:2999   */\n      dup5\n        /* \"#utility.yul\":2983:2989   */\n      dup3\n        /* \"#utility.yul\":2972:2981   */\n      dup6\n        /* \"#utility.yul\":2968:2990   */\n      add\n        /* \"#utility.yul\":2947:3000   */\n      tag_249\n      jump\t// in\n    tag_288:\n        /* \"#utility.yul\":2937:3000   */\n      swap2\n      pop\n        /* \"#utility.yul\":2893:3010   */\n      pop\n        /* \"#utility.yul\":2688:3017   */\n      swap3\n      swap2\n      pop\n      pop\n      jump\t// out\n        /* \"#utility.yul\":3023:3497   */\n    tag_63:\n        /* \"#utility.yul\":3091:3097   */\n      0x00\n        /* \"#utility.yul\":3099:3105   */\n      dup1\n        /* \"#utility.yul\":3148:3150   */\n      0x40\n        /* \"#utility.yul\":3136:3145   */\n      dup4\n        /* \"#utility.yul\":3127:3134   */\n      dup6\n        /* \"#utility.yul\":3123:3146   */\n      sub\n        /* \"#utility.yul\":3119:3151   */\n      slt\n        /* \"#utility.yul\":3116:3235   */\n      iszero\n      tag_290\n      jumpi\n        /* \"#utility.yul\":3154:3233   */\n      tag_291\n      tag_283\n      jump\t// in\n    tag_291:\n        /* \"#utility.yul\":3116:3235   */\n    tag_290:\n        /* \"#utility.yul\":3274:3275   */\n      0x00\n        /* \"#utility.yul\":3299:3352   */\n      tag_292\n        /* \"#utility.yul\":3344:3351   */\n      dup6\n        /* \"#utility.yul\":3335:3341   */\n      dup3\n        /* \"#utility.yul\":3324:3333   */\n      dup7\n        /* \"#utility.yul\":3320:3342   */\n      add\n        /* \"#utility.yul\":3299:3352   */\n      tag_249\n      jump\t// in\n    tag_292:\n        /* \"#utility.yul\":3289:3352   */\n      swap3\n      pop\n        /* \"#utility.yul\":3245:3362   */\n      pop\n        /* \"#utility.yul\":3401:3403   */\n      0x20\n        /* \"#utility.yul\":3427:3480   */\n      tag_293\n        /* \"#utility.yul\":3472:3479   */\n      dup6\n        /* \"#utility.yul\":3463:3469   */\n      dup3\n        /* \"#utility.yul\":3452:3461   */\n      dup7\n        /* \"#utility.yul\":3448:3470   */\n      add\n        /* \"#utility.yul\":3427:3480   */\n      tag_245\n      jump\t// in\n    tag_293:\n        /* \"#utility.yul\":3417:3480   */\n      swap2\n      pop\n        /* \"#utility.yul\":3372:3490   */\n      pop\n        /* \"#utility.yul\":3023:3497   */\n      swap3\n      pop\n      swap3\n      swap1\n      pop\n      jump\t// out\n        /* \"#utility.yul\":3503:5092   */\n    tag_43:\n        /* \"#utility.yul\":3665:3671   */\n      0x00\n        /* \"#utility.yul\":3673:3679   */\n      dup1\n        /* \"#utility.yul\":3681:3687   */\n      0x00\n        /* \"#utility.yul\":3689:3695   */\n      dup1\n        /* \"#utility.yul\":3697:3703   */\n      0x00\n        /* \"#utility.yul\":3705:3711   */\n      dup1\n        /* \"#utility.yul\":3713:3719   */\n      0x00\n        /* \"#utility.yul\":3721:3727   */\n      dup1\n        /* \"#utility.yul\":3770:3773   */\n      0x0100\n        /* \"#utility.yul\":3758:3767   */\n      dup10\n        /* \"#utility.yul\":3749:3756   */\n      dup12\n        /* \"#utility.yul\":3745:3768   */\n      sub\n        /* \"#utility.yul\":3741:3774   */\n      slt\n        /* \"#utility.yul\":3738:3858   */\n      iszero\n      tag_295\n      jumpi\n        /* \"#utility.yul\":3777:3856   */\n      tag_296\n      tag_283\n      jump\t// in\n    tag_296:\n        /* \"#utility.yul\":3738:3858   */\n    tag_295:\n        /* \"#utility.yul\":3897:3898   */\n      0x00\n        /* \"#utility.yul\":3922:3975   */\n      tag_297\n        /* \"#utility.yul\":3967:3974   */\n      dup12\n        /* \"#utility.yul\":3958:3964   */\n      dup3\n        /* \"#utility.yul\":3947:3956   */\n      dup13\n        /* \"#utility.yul\":3943:3965   */\n      add\n        /* \"#utility.yul\":3922:3975   */\n      tag_249\n      jump\t// in\n    tag_297:\n        /* \"#utility.yul\":3912:3975   */\n      swap9\n      pop\n        /* \"#utility.yul\":3868:3985   */\n      pop\n        /* \"#utility.yul\":4024:4026   */\n      0x20\n        /* \"#utility.yul\":4050:4103   */\n      tag_298\n        /* \"#utility.yul\":4095:4102   */\n      dup12\n        /* \"#utility.yul\":4086:4092   */\n      dup3\n        /* \"#utility.yul\":4075:4084   */\n      dup13\n        /* \"#utility.yul\":4071:4093   */\n      add\n        /* \"#utility.yul\":4050:4103   */\n      tag_249\n      jump\t// in\n    tag_298:\n        /* \"#utility.yul\":4040:4103   */\n      swap8\n      pop\n        /* \"#utility.yul\":3995:4113   */\n      pop\n        /* \"#utility.yul\":4152:4154   */\n      0x40\n        /* \"#utility.yul\":4178:4243   */\n      tag_299\n        /* \"#utility.yul\":4235:4242   */\n      dup12\n        /* \"#utility.yul\":4226:4232   */\n      dup3\n        /* \"#utility.yul\":4215:4224   */\n      dup13\n        /* \"#utility.yul\":4211:4233   */\n      add\n        /* \"#utility.yul\":4178:4243   */\n      tag_253\n      jump\t// in\n    tag_299:\n        /* \"#utility.yul\":4168:4243   */\n      swap7\n      pop\n        /* \"#utility.yul\":4123:4253   */\n      pop\n        /* \"#utility.yul\":4320:4322   */\n      0x60\n        /* \"#utility.yul\":4309:4318   */\n      dup10\n        /* \"#utility.yul\":4305:4323   */\n      add\n        /* \"#utility.yul\":4292:4324   */\n      calldataload\n        /* \"#utility.yul\":4351:4369   */\n      0xffffffffffffffff\n        /* \"#utility.yul\":4343:4349   */\n      dup2\n        /* \"#utility.yul\":4340:4370   */\n      gt\n        /* \"#utility.yul\":4337:4454   */\n      iszero\n      tag_300\n      jumpi\n        /* \"#utility.yul\":4373:4452   */\n      tag_301\n      tag_302\n      jump\t// in\n    tag_301:\n        /* \"#utility.yul\":4337:4454   */\n    tag_300:\n        /* \"#utility.yul\":4478:4559   */\n      tag_303\n        /* \"#utility.yul\":4551:4558   */\n      dup12\n        /* \"#utility.yul\":4542:4548   */\n      dup3\n        /* \"#utility.yul\":4531:4540   */\n      dup13\n        /* \"#utility.yul\":4527:4549   */\n      add\n        /* \"#utility.yul\":4478:4559   */\n      tag_263\n      jump\t// in\n    tag_303:\n        /* \"#utility.yul\":4468:4559   */\n      swap6\n      pop\n        /* \"#utility.yul\":4263:4569   */\n      pop\n        /* \"#utility.yul\":4608:4611   */\n      0x80\n        /* \"#utility.yul\":4635:4688   */\n      tag_304\n        /* \"#utility.yul\":4680:4687   */\n      dup12\n        /* \"#utility.yul\":4671:4677   */\n      dup3\n        /* \"#utility.yul\":4660:4669   */\n      dup13\n        /* \"#utility.yul\":4656:4678   */\n      add\n        /* \"#utility.yul\":4635:4688   */\n      tag_276\n      jump\t// in\n    tag_304:\n        /* \"#utility.yul\":4625:4688   */\n      swap5\n      pop\n        /* \"#utility.yul\":4579:4698   */\n      pop\n        /* \"#utility.yul\":4737:4740   */\n      0xa0\n        /* \"#utility.yul\":4764:4817   */\n      tag_305\n        /* \"#utility.yul\":4809:4816   */\n      dup12\n        /* \"#utility.yul\":4800:4806   */\n      dup3\n        /* \"#utility.yul\":4789:4798   */\n      dup13\n        /* \"#utility.yul\":4785:4807   */\n      add\n        /* \"#utility.yul\":4764:4817   */\n      tag_249\n      jump\t// in\n    tag_305:\n        /* \"#utility.yul\":4754:4817   */\n      swap4\n      pop\n        /* \"#utility.yul\":4708:4827   */\n      pop\n        /* \"#utility.yul\":4866:4869   */\n      0xc0\n        /* \"#utility.yul\":4893:4946   */\n      tag_306\n        /* \"#utility.yul\":4938:4945   */\n      dup12\n        /* \"#utility.yul\":4929:4935   */\n      dup3\n        /* \"#utility.yul\":4918:4927   */\n      dup13\n        /* \"#utility.yul\":4914:4936   */\n      add\n        /* \"#utility.yul\":4893:4946   */\n      tag_276\n      jump\t// in\n    tag_306:\n        /* \"#utility.yul\":4883:4946   */\n      swap3\n      pop\n        /* \"#utility.yul\":4837:4956   */\n      pop\n        /* \"#utility.yul\":4995:4998   */\n      0xe0\n        /* \"#utility.yul\":5022:5075   */\n      tag_307\n        /* \"#utility.yul\":5067:5074   */\n      dup12\n        /* \"#utility.yul\":5058:5064   */\n      dup3\n        /* \"#utility.yul\":5047:5056   */\n      dup13\n        /* \"#utility.yul\":5043:5065   */\n      add\n        /* \"#utility.yul\":5022:5075   */\n      tag_276\n      jump\t// in\n    tag_307:\n        /* \"#utility.yul\":5012:5075   */\n      swap2\n      pop\n        /* \"#utility.yul\":4966:5085   */\n      pop\n        /* \"#utility.yul\":3503:5092   */\n      swap3\n      swap6\n      swap9\n      pop\n      swap3\n      swap6\n      swap9\n      swap1\n      swap4\n      swap7\n      pop\n      jump\t// out\n        /* \"#utility.yul\":5098:5572   */\n    tag_57:\n        /* \"#utility.yul\":5166:5172   */\n      0x00\n        /* \"#utility.yul\":5174:5180   */\n      dup1\n        /* \"#utility.yul\":5223:5225   */\n      0x40\n        /* \"#utility.yul\":5211:5220   */\n      dup4\n        /* \"#utility.yul\":5202:5209   */\n      dup6\n        /* \"#utility.yul\":5198:5221   */\n      sub\n        /* \"#utility.yul\":5194:5226   */\n      slt\n        /* \"#utility.yul\":5191:5310   */\n      iszero\n      tag_309\n      jumpi\n        /* \"#utility.yul\":5229:5308   */\n      tag_310\n      tag_283\n      jump\t// in\n    tag_310:\n        /* \"#utility.yul\":5191:5310   */\n    tag_309:\n        /* \"#utility.yul\":5349:5350   */\n      0x00\n        /* \"#utility.yul\":5374:5427   */\n      tag_311\n        /* \"#utility.yul\":5419:5426   */\n      dup6\n        /* \"#utility.yul\":5410:5416   */\n      dup3\n        /* \"#utility.yul\":5399:5408   */\n      dup7\n        /* \"#utility.yul\":5395:5417   */\n      add\n        /* \"#utility.yul\":5374:5427   */\n      tag_249\n      jump\t// in\n    tag_311:\n        /* \"#utility.yul\":5364:5427   */\n      swap3\n      pop\n        /* \"#utility.yul\":5320:5437   */\n      pop\n        /* \"#utility.yul\":5476:5478   */\n      0x20\n        /* \"#utility.yul\":5502:5555   */\n      tag_312\n        /* \"#utility.yul\":5547:5554   */\n      dup6\n        /* \"#utility.yul\":5538:5544   */\n      dup3\n        /* \"#utility.yul\":5527:5536   */\n      dup7\n        /* \"#utility.yul\":5523:5545   */\n      add\n        /* \"#utility.yul\":5502:5555   */\n      tag_276\n      jump\t// in\n    tag_312:\n        /* \"#utility.yul\":5492:5555   */\n      swap2\n      pop\n        /* \"#utility.yul\":5447:5565   */\n      pop\n        /* \"#utility.yul\":5098:5572   */\n      swap3\n      pop\n      swap3\n      swap1\n      pop\n      jump\t// out\n        /* \"#utility.yul\":5578:5907   */\n    tag_74:\n        /* \"#utility.yul\":5637:5643   */\n      0x00\n        /* \"#utility.yul\":5686:5688   */\n      0x20\n        /* \"#utility.yul\":5674:5683   */\n      dup3\n        /* \"#utility.yul\":5665:5672   */\n      dup5\n        /* \"#utility.yul\":5661:5684   */\n      sub\n        /* \"#utility.yul\":5657:5689   */\n      slt\n        /* \"#utility.yul\":5654:5773   */\n      iszero\n      tag_314\n      jumpi\n        /* \"#utility.yul\":5692:5771   */\n      tag_315\n      tag_283\n      jump\t// in\n    tag_315:\n        /* \"#utility.yul\":5654:5773   */\n    tag_314:\n        /* \"#utility.yul\":5812:5813   */\n      0x00\n        /* \"#utility.yul\":5837:5890   */\n      tag_316\n        /* \"#utility.yul\":5882:5889   */\n      dup5\n        /* \"#utility.yul\":5873:5879   */\n      dup3\n        /* \"#utility.yul\":5862:5871   */\n      dup6\n        /* \"#utility.yul\":5858:5880   */\n      add\n        /* \"#utility.yul\":5837:5890   */\n      tag_276\n      jump\t// in\n    tag_316:\n        /* \"#utility.yul\":5827:5890   */\n      swap2\n      pop\n        /* \"#utility.yul\":5783:5900   */\n      pop\n        /* \"#utility.yul\":5578:5907   */\n      swap3\n      swap2\n      pop\n      pop\n      jump\t// out\n        /* \"#utility.yul\":5913:6387   */\n    tag_48:\n        /* \"#utility.yul\":5981:5987   */\n      0x00\n        /* \"#utility.yul\":5989:5995   */\n      dup1\n        /* \"#utility.yul\":6038:6040   */\n      0x40\n        /* \"#utility.yul\":6026:6035   */\n      dup4\n        /* \"#utility.yul\":6017:6024   */\n      dup6\n        /* \"#utility.yul\":6013:6036   */\n      sub\n        /* \"#utility.yul\":6009:6041   */\n      slt\n        /* \"#utility.yul\":6006:6125   */\n      iszero\n      tag_318\n      jumpi\n        /* \"#utility.yul\":6044:6123   */\n      tag_319\n      tag_283\n      jump\t// in\n    tag_319:\n        /* \"#utility.yul\":6006:6125   */\n    tag_318:\n        /* \"#utility.yul\":6164:6165   */\n      0x00\n        /* \"#utility.yul\":6189:6242   */\n      tag_320\n        /* \"#utility.yul\":6234:6241   */\n      dup6\n        /* \"#utility.yul\":6225:6231   */\n      dup3\n        /* \"#utility.yul\":6214:6223   */\n      dup7\n        /* \"#utility.yul\":6210:6232   */\n      add\n        /* \"#utility.yul\":6189:6242   */\n      tag_276\n      jump\t// in\n    tag_320:\n        /* \"#utility.yul\":6179:6242   */\n      swap3\n      pop\n        /* \"#utility.yul\":6135:6252   */\n      pop\n        /* \"#utility.yul\":6291:6293   */\n      0x20\n        /* \"#utility.yul\":6317:6370   */\n      tag_321\n        /* \"#utility.yul\":6362:6369   */\n      dup6\n        /* \"#utility.yul\":6353:6359   */\n      dup3\n        /* \"#utility.yul\":6342:6351   */\n      dup7\n        /* \"#utility.yul\":6338:6360   */\n      add\n        /* \"#utility.yul\":6317:6370   */\n      tag_276\n      jump\t// in\n    tag_321:\n        /* \"#utility.yul\":6307:6370   */\n      swap2\n      pop\n        /* \"#utility.yul\":6262:6380   */\n      pop\n        /* \"#utility.yul\":5913:6387   */\n      swap3\n      pop\n      swap3\n      swap1\n      pop\n      jump\t// out\n        /* \"#utility.yul\":6393:6511   */\n    tag_322:\n        /* \"#utility.yul\":6480:6504   */\n      tag_324\n        /* \"#utility.yul\":6498:6503   */\n      dup2\n        /* \"#utility.yul\":6480:6504   */\n      tag_325\n      jump\t// in\n    tag_324:\n        /* \"#utility.yul\":6475:6478   */\n      dup3\n        /* \"#utility.yul\":6468:6505   */\n      mstore\n        /* \"#utility.yul\":6393:6511   */\n      pop\n      pop\n      jump\t// out\n        /* \"#utility.yul\":6517:6626   */\n    tag_326:\n        /* \"#utility.yul\":6598:6619   */\n      tag_328\n        /* \"#utility.yul\":6613:6618   */\n      dup2\n        /* \"#utility.yul\":6598:6619   */\n      tag_329\n      jump\t// in\n    tag_328:\n        /* \"#utility.yul\":6593:6596   */\n      dup3\n        /* \"#utility.yul\":6586:6620   */\n      mstore\n        /* \"#utility.yul\":6517:6626   */\n      pop\n      pop\n      jump\t// out\n        /* \"#utility.yul\":6632:6750   */\n    tag_330:\n        /* \"#utility.yul\":6719:6743   */\n      tag_332\n        /* \"#utility.yul\":6737:6742   */\n      dup2\n        /* \"#utility.yul\":6719:6743   */\n      tag_333\n      jump\t// in\n    tag_332:\n        /* \"#utility.yul\":6714:6717   */\n      dup3\n        /* \"#utility.yul\":6707:6744   */\n      mstore\n        /* \"#utility.yul\":6632:6750   */\n      pop\n      pop\n      jump\t// out\n        /* \"#utility.yul\":6756:6911   */\n    tag_334:\n        /* \"#utility.yul\":6855:6904   */\n      tag_336\n        /* \"#utility.yul\":6898:6903   */\n      dup2\n        /* \"#utility.yul\":6855:6904   */\n      tag_337\n      jump\t// in\n    tag_336:\n        /* \"#utility.yul\":6850:6853   */\n      dup3\n        /* \"#utility.yul\":6843:6905   */\n      mstore\n        /* \"#utility.yul\":6756:6911   */\n      pop\n      pop\n      jump\t// out\n        /* \"#utility.yul\":6917:7068   */\n    tag_338:\n        /* \"#utility.yul\":7014:7061   */\n      tag_340\n        /* \"#utility.yul\":7055:7060   */\n      dup2\n        /* \"#utility.yul\":7014:7061   */\n      tag_341\n      jump\t// in\n    tag_340:\n        /* \"#utility.yul\":7009:7012   */\n      dup3\n        /* \"#utility.yul\":7002:7062   */\n      mstore\n        /* \"#utility.yul\":6917:7068   */\n      pop\n      pop\n      jump\t// out\n        /* \"#utility.yul\":7074:7418   */\n    tag_342:\n        /* \"#utility.yul\":7152:7155   */\n      0x00\n        /* \"#utility.yul\":7180:7219   */\n      tag_344\n        /* \"#utility.yul\":7213:7218   */\n      dup3\n        /* \"#utility.yul\":7180:7219   */\n      tag_345\n      jump\t// in\n    tag_344:\n        /* \"#utility.yul\":7235:7296   */\n      tag_346\n        /* \"#utility.yul\":7289:7295   */\n      dup2\n        /* \"#utility.yul\":7284:7287   */\n      dup6\n        /* \"#utility.yul\":7235:7296   */\n      tag_347\n      jump\t// in\n    tag_346:\n        /* \"#utility.yul\":7228:7296   */\n      swap4\n      pop\n        /* \"#utility.yul\":7305:7357   */\n      tag_348\n        /* \"#utility.yul\":7350:7356   */\n      dup2\n        /* \"#utility.yul\":7345:7348   */\n      dup6\n        /* \"#utility.yul\":7338:7342   */\n      0x20\n        /* \"#utility.yul\":7331:7336   */\n      dup7\n        /* \"#utility.yul\":7327:7343   */\n      add\n        /* \"#utility.yul\":7305:7357   */\n      tag_349\n      jump\t// in\n    tag_348:\n        /* \"#utility.yul\":7382:7411   */\n      tag_350\n        /* \"#utility.yul\":7404:7410   */\n      dup2\n        /* \"#utility.yul\":7382:7411   */\n      tag_351\n      jump\t// in\n    tag_350:\n        /* \"#utility.yul\":7377:7380   */\n      dup5\n        /* \"#utility.yul\":7373:7412   */\n      add\n        /* \"#utility.yul\":7366:7412   */\n      swap2\n      pop\n        /* \"#utility.yul\":7156:7418   */\n      pop\n        /* \"#utility.yul\":7074:7418   */\n      swap3\n      swap2\n      pop\n      pop\n      jump\t// out\n        /* \"#utility.yul\":7424:7790   */\n    tag_352:\n        /* \"#utility.yul\":7566:7569   */\n      0x00\n        /* \"#utility.yul\":7587:7654   */\n      tag_354\n        /* \"#utility.yul\":7651:7653   */\n      0x15\n        /* \"#utility.yul\":7646:7649   */\n      dup4\n        /* \"#utility.yul\":7587:7654   */\n      tag_355\n      jump\t// in\n    tag_354:\n        /* \"#utility.yul\":7580:7654   */\n      swap2\n      pop\n        /* \"#utility.yul\":7663:7756   */\n      tag_356\n        /* \"#utility.yul\":7752:7755   */\n      dup3\n        /* \"#utility.yul\":7663:7756   */\n      tag_357\n      jump\t// in\n    tag_356:\n        /* \"#utility.yul\":7781:7783   */\n      0x20\n        /* \"#utility.yul\":7776:7779   */\n      dup3\n        /* \"#utility.yul\":7772:7784   */\n      add\n        /* \"#utility.yul\":7765:7784   */\n      swap1\n      pop\n        /* \"#utility.yul\":7424:7790   */\n      swap2\n      swap1\n      pop\n      jump\t// out\n        /* \"#utility.yul\":7796:8162   */\n    tag_358:\n        /* \"#utility.yul\":7938:7941   */\n      0x00\n        /* \"#utility.yul\":7959:8026   */\n      tag_360\n        /* \"#utility.yul\":8023:8025   */\n      0x29\n        /* \"#utility.yul\":8018:8021   */\n      dup4\n        /* \"#utility.yul\":7959:8026   */\n      tag_355\n      jump\t// in\n    tag_360:\n        /* \"#utility.yul\":7952:8026   */\n      swap2\n      pop\n        /* \"#utility.yul\":8035:8128   */\n      tag_361\n        /* \"#utility.yul\":8124:8127   */\n      dup3\n        /* \"#utility.yul\":8035:8128   */\n      tag_362\n      jump\t// in\n    tag_361:\n        /* \"#utility.yul\":8153:8155   */\n      0x40\n        /* \"#utility.yul\":8148:8151   */\n      dup3\n        /* \"#utility.yul\":8144:8156   */\n      add\n        /* \"#utility.yul\":8137:8156   */\n      swap1\n      pop\n        /* \"#utility.yul\":7796:8162   */\n      swap2\n      swap1\n      pop\n      jump\t// out\n        /* \"#utility.yul\":8228:8920   */\n    tag_363:\n        /* \"#utility.yul\":8353:8356   */\n      0x00\n        /* \"#utility.yul\":8389:8393   */\n      0x40\n        /* \"#utility.yul\":8384:8387   */\n      dup4\n        /* \"#utility.yul\":8380:8394   */\n      add\n        /* \"#utility.yul\":8480:8484   */\n      0x00\n        /* \"#utility.yul\":8473:8478   */\n      dup4\n        /* \"#utility.yul\":8469:8485   */\n      add\n        /* \"#utility.yul\":8463:8486   */\n      mload\n        /* \"#utility.yul\":8533:8536   */\n      dup5\n        /* \"#utility.yul\":8527:8531   */\n      dup3\n        /* \"#utility.yul\":8523:8537   */\n      sub\n        /* \"#utility.yul\":8516:8520   */\n      0x00\n        /* \"#utility.yul\":8511:8514   */\n      dup7\n        /* \"#utility.yul\":8507:8521   */\n      add\n        /* \"#utility.yul\":8500:8538   */\n      mstore\n        /* \"#utility.yul\":8559:8632   */\n      tag_365\n        /* \"#utility.yul\":8627:8631   */\n      dup3\n        /* \"#utility.yul\":8613:8625   */\n      dup3\n        /* \"#utility.yul\":8559:8632   */\n      tag_342\n      jump\t// in\n    tag_365:\n        /* \"#utility.yul\":8551:8632   */\n      swap2\n      pop\n        /* \"#utility.yul\":8404:8643   */\n      pop\n        /* \"#utility.yul\":8730:8734   */\n      0x20\n        /* \"#utility.yul\":8723:8728   */\n      dup4\n        /* \"#utility.yul\":8719:8735   */\n      add\n        /* \"#utility.yul\":8713:8736   */\n      mload\n        /* \"#utility.yul\":8783:8786   */\n      dup5\n        /* \"#utility.yul\":8777:8781   */\n      dup3\n        /* \"#utility.yul\":8773:8787   */\n      sub\n        /* \"#utility.yul\":8766:8770   */\n      0x20\n        /* \"#utility.yul\":8761:8764   */\n      dup7\n        /* \"#utility.yul\":8757:8771   */\n      add\n        /* \"#utility.yul\":8750:8788   */\n      mstore\n        /* \"#utility.yul\":8809:8882   */\n      tag_366\n        /* \"#utility.yul\":8877:8881   */\n      dup3\n        /* \"#utility.yul\":8863:8875   */\n      dup3\n        /* \"#utility.yul\":8809:8882   */\n      tag_342\n      jump\t// in\n    tag_366:\n        /* \"#utility.yul\":8801:8882   */\n      swap2\n      pop\n        /* \"#utility.yul\":8653:8893   */\n      pop\n        /* \"#utility.yul\":8910:8914   */\n      dup1\n        /* \"#utility.yul\":8903:8914   */\n      swap2\n      pop\n        /* \"#utility.yul\":8358:8920   */\n      pop\n        /* \"#utility.yul\":8228:8920   */\n      swap3\n      swap2\n      pop\n      pop\n      jump\t// out\n        /* \"#utility.yul\":8926:9044   */\n    tag_367:\n        /* \"#utility.yul\":9013:9037   */\n      tag_369\n        /* \"#utility.yul\":9031:9036   */\n      dup2\n        /* \"#utility.yul\":9013:9037   */\n      tag_370\n      jump\t// in\n    tag_369:\n        /* \"#utility.yul\":9008:9011   */\n      dup3\n        /* \"#utility.yul\":9001:9038   */\n      mstore\n        /* \"#utility.yul\":8926:9044   */\n      pop\n      pop\n      jump\t// out\n        /* \"#utility.yul\":9050:9272   */\n    tag_60:\n        /* \"#utility.yul\":9143:9147   */\n      0x00\n        /* \"#utility.yul\":9181:9183   */\n      0x20\n        /* \"#utility.yul\":9170:9179   */\n      dup3\n        /* \"#utility.yul\":9166:9184   */\n      add\n        /* \"#utility.yul\":9158:9184   */\n      swap1\n      pop\n        /* \"#utility.yul\":9194:9265   */\n      tag_372\n        /* \"#utility.yul\":9262:9263   */\n      0x00\n        /* \"#utility.yul\":9251:9260   */\n      dup4\n        /* \"#utility.yul\":9247:9264   */\n      add\n        /* \"#utility.yul\":9238:9244   */\n      dup5\n        /* \"#utility.yul\":9194:9265   */\n      tag_322\n      jump\t// in\n    tag_372:\n        /* \"#utility.yul\":9050:9272   */\n      swap3\n      swap2\n      pop\n      pop\n      jump\t// out\n        /* \"#utility.yul\":9278:9488   */\n    tag_40:\n        /* \"#utility.yul\":9365:9369   */\n      0x00\n        /* \"#utility.yul\":9403:9405   */\n      0x20\n        /* \"#utility.yul\":9392:9401   */\n      dup3\n        /* \"#utility.yul\":9388:9406   */\n      add\n        /* \"#utility.yul\":9380:9406   */\n      swap1\n      pop\n        /* \"#utility.yul\":9416:9481   */\n      tag_374\n        /* \"#utility.yul\":9478:9479   */\n      0x00\n        /* \"#utility.yul\":9467:9476   */\n      dup4\n        /* \"#utility.yul\":9463:9480   */\n      add\n        /* \"#utility.yul\":9454:9460   */\n      dup5\n        /* \"#utility.yul\":9416:9481   */\n      tag_326\n      jump\t// in\n    tag_374:\n        /* \"#utility.yul\":9278:9488   */\n      swap3\n      swap2\n      pop\n      pop\n      jump\t// out\n        /* \"#utility.yul\":9494:9716   */\n    tag_80:\n        /* \"#utility.yul\":9587:9591   */\n      0x00\n        /* \"#utility.yul\":9625:9627   */\n      0x20\n        /* \"#utility.yul\":9614:9623   */\n      dup3\n        /* \"#utility.yul\":9610:9628   */\n      add\n        /* \"#utility.yul\":9602:9628   */\n      swap1\n      pop\n        /* \"#utility.yul\":9638:9709   */\n      tag_376\n        /* \"#utility.yul\":9706:9707   */\n      0x00\n        /* \"#utility.yul\":9695:9704   */\n      dup4\n        /* \"#utility.yul\":9691:9708   */\n      add\n        /* \"#utility.yul\":9682:9688   */\n      dup5\n        /* \"#utility.yul\":9638:9709   */\n      tag_330\n      jump\t// in\n    tag_376:\n        /* \"#utility.yul\":9494:9716   */\n      swap3\n      swap2\n      pop\n      pop\n      jump\t// out\n        /* \"#utility.yul\":9722:10141   */\n    tag_105:\n        /* \"#utility.yul\":9888:9892   */\n      0x00\n        /* \"#utility.yul\":9926:9928   */\n      0x20\n        /* \"#utility.yul\":9915:9924   */\n      dup3\n        /* \"#utility.yul\":9911:9929   */\n      add\n        /* \"#utility.yul\":9903:9929   */\n      swap1\n      pop\n        /* \"#utility.yul\":9975:9984   */\n      dup2\n        /* \"#utility.yul\":9969:9973   */\n      dup2\n        /* \"#utility.yul\":9965:9985   */\n      sub\n        /* \"#utility.yul\":9961:9962   */\n      0x00\n        /* \"#utility.yul\":9950:9959   */\n      dup4\n        /* \"#utility.yul\":9946:9963   */\n      add\n        /* \"#utility.yul\":9939:9986   */\n      mstore\n        /* \"#utility.yul\":10003:10134   */\n      tag_378\n        /* \"#utility.yul\":10129:10133   */\n      dup2\n        /* \"#utility.yul\":10003:10134   */\n      tag_352\n      jump\t// in\n    tag_378:\n        /* \"#utility.yul\":9995:10134   */\n      swap1\n      pop\n        /* \"#utility.yul\":9722:10141   */\n      swap2\n      swap1\n      pop\n      jump\t// out\n        /* \"#utility.yul\":10147:10566   */\n    tag_109:\n        /* \"#utility.yul\":10313:10317   */\n      0x00\n        /* \"#utility.yul\":10351:10353   */\n      0x20\n        /* \"#utility.yul\":10340:10349   */\n      dup3\n        /* \"#utility.yul\":10336:10354   */\n      add\n        /* \"#utility.yul\":10328:10354   */\n      swap1\n      pop\n        /* \"#utility.yul\":10400:10409   */\n      dup2\n        /* \"#utility.yul\":10394:10398   */\n      dup2\n        /* \"#utility.yul\":10390:10410   */\n      sub\n        /* \"#utility.yul\":10386:10387   */\n      0x00\n        /* \"#utility.yul\":10375:10384   */\n      dup4\n        /* \"#utility.yul\":10371:10388   */\n      add\n        /* \"#utility.yul\":10364:10411   */\n      mstore\n        /* \"#utility.yul\":10428:10559   */\n      tag_380\n        /* \"#utility.yul\":10554:10558   */\n      dup2\n        /* \"#utility.yul\":10428:10559   */\n      tag_358\n      jump\t// in\n    tag_380:\n        /* \"#utility.yul\":10420:10559   */\n      swap1\n      pop\n        /* \"#utility.yul\":10147:10566   */\n      swap2\n      swap1\n      pop\n      jump\t// out\n        /* \"#utility.yul\":10572:10794   */\n    tag_35:\n        /* \"#utility.yul\":10665:10669   */\n      0x00\n        /* \"#utility.yul\":10703:10705   */\n      0x20\n        /* \"#utility.yul\":10692:10701   */\n      dup3\n        /* \"#utility.yul\":10688:10706   */\n      add\n        /* \"#utility.yul\":10680:10706   */\n      swap1\n      pop\n        /* \"#utility.yul\":10716:10787   */\n      tag_382\n        /* \"#utility.yul\":10784:10785   */\n      0x00\n        /* \"#utility.yul\":10773:10782   */\n      dup4\n        /* \"#utility.yul\":10769:10786   */\n      add\n        /* \"#utility.yul\":10760:10766   */\n      dup5\n        /* \"#utility.yul\":10716:10787   */\n      tag_367\n      jump\t// in\n    tag_382:\n        /* \"#utility.yul\":10572:10794   */\n      swap3\n      swap2\n      pop\n      pop\n      jump\t// out\n        /* \"#utility.yul\":10800:12339   */\n    tag_51:\n        /* \"#utility.yul\":11252:11256   */\n      0x00\n        /* \"#utility.yul\":11290:11293   */\n      0x0160\n        /* \"#utility.yul\":11279:11288   */\n      dup3\n        /* \"#utility.yul\":11275:11294   */\n      add\n        /* \"#utility.yul\":11267:11294   */\n      swap1\n      pop\n        /* \"#utility.yul\":11304:11375   */\n      tag_384\n        /* \"#utility.yul\":11372:11373   */\n      0x00\n        /* \"#utility.yul\":11361:11370   */\n      dup4\n        /* \"#utility.yul\":11357:11374   */\n      add\n        /* \"#utility.yul\":11348:11354   */\n      dup15\n        /* \"#utility.yul\":11304:11375   */\n      tag_367\n      jump\t// in\n    tag_384:\n        /* \"#utility.yul\":11385:11457   */\n      tag_385\n        /* \"#utility.yul\":11453:11455   */\n      0x20\n        /* \"#utility.yul\":11442:11451   */\n      dup4\n        /* \"#utility.yul\":11438:11456   */\n      add\n        /* \"#utility.yul\":11429:11435   */\n      dup14\n        /* \"#utility.yul\":11385:11457   */\n      tag_330\n      jump\t// in\n    tag_385:\n        /* \"#utility.yul\":11467:11539   */\n      tag_386\n        /* \"#utility.yul\":11535:11537   */\n      0x40\n        /* \"#utility.yul\":11524:11533   */\n      dup4\n        /* \"#utility.yul\":11520:11538   */\n      add\n        /* \"#utility.yul\":11511:11517   */\n      dup13\n        /* \"#utility.yul\":11467:11539   */\n      tag_330\n      jump\t// in\n    tag_386:\n        /* \"#utility.yul\":11549:11631   */\n      tag_387\n        /* \"#utility.yul\":11627:11629   */\n      0x60\n        /* \"#utility.yul\":11616:11625   */\n      dup4\n        /* \"#utility.yul\":11612:11630   */\n      add\n        /* \"#utility.yul\":11603:11609   */\n      dup12\n        /* \"#utility.yul\":11549:11631   */\n      tag_338\n      jump\t// in\n    tag_387:\n        /* \"#utility.yul\":11679:11688   */\n      dup2\n        /* \"#utility.yul\":11673:11677   */\n      dup2\n        /* \"#utility.yul\":11669:11689   */\n      sub\n        /* \"#utility.yul\":11663:11666   */\n      0x80\n        /* \"#utility.yul\":11652:11661   */\n      dup4\n        /* \"#utility.yul\":11648:11667   */\n      add\n        /* \"#utility.yul\":11641:11690   */\n      mstore\n        /* \"#utility.yul\":11707:11821   */\n      tag_388\n        /* \"#utility.yul\":11816:11820   */\n      dup2\n        /* \"#utility.yul\":11807:11813   */\n      dup11\n        /* \"#utility.yul\":11707:11821   */\n      tag_363\n      jump\t// in\n    tag_388:\n        /* \"#utility.yul\":11699:11821   */\n      swap1\n      pop\n        /* \"#utility.yul\":11831:11904   */\n      tag_389\n        /* \"#utility.yul\":11899:11902   */\n      0xa0\n        /* \"#utility.yul\":11888:11897   */\n      dup4\n        /* \"#utility.yul\":11884:11903   */\n      add\n        /* \"#utility.yul\":11875:11881   */\n      dup10\n        /* \"#utility.yul\":11831:11904   */\n      tag_367\n      jump\t// in\n    tag_389:\n        /* \"#utility.yul\":11914:11987   */\n      tag_390\n        /* \"#utility.yul\":11982:11985   */\n      0xc0\n        /* \"#utility.yul\":11971:11980   */\n      dup4\n        /* \"#utility.yul\":11967:11986   */\n      add\n        /* \"#utility.yul\":11958:11964   */\n      dup9\n        /* \"#utility.yul\":11914:11987   */\n      tag_330\n      jump\t// in\n    tag_390:\n        /* \"#utility.yul\":11997:12070   */\n      tag_391\n        /* \"#utility.yul\":12065:12068   */\n      0xe0\n        /* \"#utility.yul\":12054:12063   */\n      dup4\n        /* \"#utility.yul\":12050:12069   */\n      add\n        /* \"#utility.yul\":12041:12047   */\n      dup8\n        /* \"#utility.yul\":11997:12070   */\n      tag_367\n      jump\t// in\n    tag_391:\n        /* \"#utility.yul\":12080:12153   */\n      tag_392\n        /* \"#utility.yul\":12148:12151   */\n      0x0100\n        /* \"#utility.yul\":12137:12146   */\n      dup4\n        /* \"#utility.yul\":12133:12152   */\n      add\n        /* \"#utility.yul\":12124:12130   */\n      dup7\n        /* \"#utility.yul\":12080:12153   */\n      tag_367\n      jump\t// in\n    tag_392:\n        /* \"#utility.yul\":12163:12236   */\n      tag_393\n        /* \"#utility.yul\":12231:12234   */\n      0x0120\n        /* \"#utility.yul\":12220:12229   */\n      dup4\n        /* \"#utility.yul\":12216:12235   */\n      add\n        /* \"#utility.yul\":12207:12213   */\n      dup6\n        /* \"#utility.yul\":12163:12236   */\n      tag_367\n      jump\t// in\n    tag_393:\n        /* \"#utility.yul\":12246:12332   */\n      tag_394\n        /* \"#utility.yul\":12327:12330   */\n      0x0140\n        /* \"#utility.yul\":12316:12325   */\n      dup4\n        /* \"#utility.yul\":12312:12331   */\n      add\n        /* \"#utility.yul\":12302:12309   */\n      dup5\n        /* \"#utility.yul\":12246:12332   */\n      tag_334\n      jump\t// in\n    tag_394:\n        /* \"#utility.yul\":10800:12339   */\n      swap13\n      swap12\n      pop\n      pop\n      pop\n      pop\n      pop\n      pop\n      pop\n      pop\n      pop\n      pop\n      pop\n      pop\n      jump\t// out\n        /* \"#utility.yul\":12345:12474   */\n    tag_239:\n        /* \"#utility.yul\":12379:12385   */\n      0x00\n        /* \"#utility.yul\":12406:12426   */\n      tag_396\n      tag_397\n      jump\t// in\n    tag_396:\n        /* \"#utility.yul\":12396:12426   */\n      swap1\n      pop\n        /* \"#utility.yul\":12435:12468   */\n      tag_398\n        /* \"#utility.yul\":12463:12467   */\n      dup3\n        /* \"#utility.yul\":12455:12461   */\n      dup3\n        /* \"#utility.yul\":12435:12468   */\n      tag_399\n      jump\t// in\n    tag_398:\n        /* \"#utility.yul\":12345:12474   */\n      swap2\n      swap1\n      pop\n      jump\t// out\n        /* \"#utility.yul\":12480:12555   */\n    tag_397:\n        /* \"#utility.yul\":12513:12519   */\n      0x00\n        /* \"#utility.yul\":12546:12548   */\n      0x40\n        /* \"#utility.yul\":12540:12549   */\n      mload\n        /* \"#utility.yul\":12530:12549   */\n      swap1\n      pop\n        /* \"#utility.yul\":12480:12555   */\n      swap1\n      jump\t// out\n        /* \"#utility.yul\":12561:12869   */\n    tag_238:\n        /* \"#utility.yul\":12623:12627   */\n      0x00\n        /* \"#utility.yul\":12713:12731   */\n      0xffffffffffffffff\n        /* \"#utility.yul\":12705:12711   */\n      dup3\n        /* \"#utility.yul\":12702:12732   */\n      gt\n        /* \"#utility.yul\":12699:12755   */\n      iszero\n      tag_402\n      jumpi\n        /* \"#utility.yul\":12735:12753   */\n      tag_403\n      tag_404\n      jump\t// in\n    tag_403:\n        /* \"#utility.yul\":12699:12755   */\n    tag_402:\n        /* \"#utility.yul\":12773:12802   */\n      tag_405\n        /* \"#utility.yul\":12795:12801   */\n      dup3\n        /* \"#utility.yul\":12773:12802   */\n      tag_351\n      jump\t// in\n    tag_405:\n        /* \"#utility.yul\":12765:12802   */\n      swap1\n      pop\n        /* \"#utility.yul\":12857:12861   */\n      0x20\n        /* \"#utility.yul\":12851:12855   */\n      dup2\n        /* \"#utility.yul\":12847:12862   */\n      add\n        /* \"#utility.yul\":12839:12862   */\n      swap1\n      pop\n        /* \"#utility.yul\":12561:12869   */\n      swap2\n      swap1\n      pop\n      jump\t// out\n        /* \"#utility.yul\":12875:12974   */\n    tag_345:\n        /* \"#utility.yul\":12927:12933   */\n      0x00\n        /* \"#utility.yul\":12961:12966   */\n      dup2\n        /* \"#utility.yul\":12955:12967   */\n      mload\n        /* \"#utility.yul\":12945:12967   */\n      swap1\n      pop\n        /* \"#utility.yul\":12875:12974   */\n      swap2\n      swap1\n      pop\n      jump\t// out\n        /* \"#utility.yul\":12980:13139   */\n    tag_347:\n        /* \"#utility.yul\":13054:13065   */\n      0x00\n        /* \"#utility.yul\":13088:13094   */\n      dup3\n        /* \"#utility.yul\":13083:13086   */\n      dup3\n        /* \"#utility.yul\":13076:13095   */\n      mstore\n        /* \"#utility.yul\":13128:13132   */\n      0x20\n        /* \"#utility.yul\":13123:13126   */\n      dup3\n        /* \"#utility.yul\":13119:13133   */\n      add\n        /* \"#utility.yul\":13104:13133   */\n      swap1\n      pop\n        /* \"#utility.yul\":12980:13139   */\n      swap3\n      swap2\n      pop\n      pop\n      jump\t// out\n        /* \"#utility.yul\":13145:13314   */\n    tag_355:\n        /* \"#utility.yul\":13229:13240   */\n      0x00\n        /* \"#utility.yul\":13263:13269   */\n      dup3\n        /* \"#utility.yul\":13258:13261   */\n      dup3\n        /* \"#utility.yul\":13251:13270   */\n      mstore\n        /* \"#utility.yul\":13303:13307   */\n      0x20\n        /* \"#utility.yul\":13298:13301   */\n      dup3\n        /* \"#utility.yul\":13294:13308   */\n      add\n        /* \"#utility.yul\":13279:13308   */\n      swap1\n      pop\n        /* \"#utility.yul\":13145:13314   */\n      swap3\n      swap2\n      pop\n      pop\n      jump\t// out\n        /* \"#utility.yul\":13320:13511   */\n    tag_204:\n        /* \"#utility.yul\":13360:13364   */\n      0x00\n        /* \"#utility.yul\":13380:13400   */\n      tag_410\n        /* \"#utility.yul\":13398:13399   */\n      dup3\n        /* \"#utility.yul\":13380:13400   */\n      tag_370\n      jump\t// in\n    tag_410:\n        /* \"#utility.yul\":13375:13400   */\n      swap2\n      pop\n        /* \"#utility.yul\":13414:13434   */\n      tag_411\n        /* \"#utility.yul\":13432:13433   */\n      dup4\n        /* \"#utility.yul\":13414:13434   */\n      tag_370\n      jump\t// in\n    tag_411:\n        /* \"#utility.yul\":13409:13434   */\n      swap3\n      pop\n        /* \"#utility.yul\":13453:13454   */\n      dup3\n        /* \"#utility.yul\":13450:13451   */\n      dup3\n        /* \"#utility.yul\":13447:13455   */\n      lt\n        /* \"#utility.yul\":13444:13478   */\n      iszero\n      tag_412\n      jumpi\n        /* \"#utility.yul\":13458:13476   */\n      tag_413\n      tag_414\n      jump\t// in\n    tag_413:\n        /* \"#utility.yul\":13444:13478   */\n    tag_412:\n        /* \"#utility.yul\":13503:13504   */\n      dup3\n        /* \"#utility.yul\":13500:13501   */\n      dup3\n        /* \"#utility.yul\":13496:13505   */\n      sub\n        /* \"#utility.yul\":13488:13505   */\n      swap1\n      pop\n        /* \"#utility.yul\":13320:13511   */\n      swap3\n      swap2\n      pop\n      pop\n      jump\t// out\n        /* \"#utility.yul\":13517:13613   */\n    tag_325:\n        /* \"#utility.yul\":13554:13561   */\n      0x00\n        /* \"#utility.yul\":13583:13607   */\n      tag_416\n        /* \"#utility.yul\":13601:13606   */\n      dup3\n        /* \"#utility.yul\":13583:13607   */\n      tag_417\n      jump\t// in\n    tag_416:\n        /* \"#utility.yul\":13572:13607   */\n      swap1\n      pop\n        /* \"#utility.yul\":13517:13613   */\n      swap2\n      swap1\n      pop\n      jump\t// out\n        /* \"#utility.yul\":13619:13709   */\n    tag_329:\n        /* \"#utility.yul\":13653:13660   */\n      0x00\n        /* \"#utility.yul\":13696:13701   */\n      dup2\n        /* \"#utility.yul\":13689:13702   */\n      iszero\n        /* \"#utility.yul\":13682:13703   */\n      iszero\n        /* \"#utility.yul\":13671:13703   */\n      swap1\n      pop\n        /* \"#utility.yul\":13619:13709   */\n      swap2\n      swap1\n      pop\n      jump\t// out\n        /* \"#utility.yul\":13715:13792   */\n    tag_333:\n        /* \"#utility.yul\":13752:13759   */\n      0x00\n        /* \"#utility.yul\":13781:13786   */\n      dup2\n        /* \"#utility.yul\":13770:13786   */\n      swap1\n      pop\n        /* \"#utility.yul\":13715:13792   */\n      swap2\n      swap1\n      pop\n      jump\t// out\n        /* \"#utility.yul\":13798:13937   */\n    tag_420:\n        /* \"#utility.yul\":13849:13856   */\n      0x00\n        /* \"#utility.yul\":13878:13883   */\n      dup2\n        /* \"#utility.yul\":13867:13883   */\n      swap1\n      pop\n        /* \"#utility.yul\":13884:13931   */\n      tag_422\n        /* \"#utility.yul\":13925:13930   */\n      dup3\n        /* \"#utility.yul\":13884:13931   */\n      tag_423\n      jump\t// in\n    tag_422:\n        /* \"#utility.yul\":13798:13937   */\n      swap2\n      swap1\n      pop\n      jump\t// out\n        /* \"#utility.yul\":13943:14078   */\n    tag_424:\n        /* \"#utility.yul\":13992:13999   */\n      0x00\n        /* \"#utility.yul\":14021:14026   */\n      dup2\n        /* \"#utility.yul\":14010:14026   */\n      swap1\n      pop\n        /* \"#utility.yul\":14027:14072   */\n      tag_426\n        /* \"#utility.yul\":14066:14071   */\n      dup3\n        /* \"#utility.yul\":14027:14072   */\n      tag_427\n      jump\t// in\n    tag_426:\n        /* \"#utility.yul\":13943:14078   */\n      swap2\n      swap1\n      pop\n      jump\t// out\n        /* \"#utility.yul\":14084:14210   */\n    tag_417:\n        /* \"#utility.yul\":14121:14128   */\n      0x00\n        /* \"#utility.yul\":14161:14203   */\n      0xffffffffffffffffffffffffffffffffffffffff\n        /* \"#utility.yul\":14154:14159   */\n      dup3\n        /* \"#utility.yul\":14150:14204   */\n      and\n        /* \"#utility.yul\":14139:14204   */\n      swap1\n      pop\n        /* \"#utility.yul\":14084:14210   */\n      swap2\n      swap1\n      pop\n      jump\t// out\n        /* \"#utility.yul\":14216:14293   */\n    tag_370:\n        /* \"#utility.yul\":14253:14260   */\n      0x00\n        /* \"#utility.yul\":14282:14287   */\n      dup2\n        /* \"#utility.yul\":14271:14287   */\n      swap1\n      pop\n        /* \"#utility.yul\":14216:14293   */\n      swap2\n      swap1\n      pop\n      jump\t// out\n        /* \"#utility.yul\":14299:14438   */\n    tag_337:\n        /* \"#utility.yul\":14361:14370   */\n      0x00\n        /* \"#utility.yul\":14394:14432   */\n      tag_431\n        /* \"#utility.yul\":14426:14431   */\n      dup3\n        /* \"#utility.yul\":14394:14432   */\n      tag_420\n      jump\t// in\n    tag_431:\n        /* \"#utility.yul\":14381:14432   */\n      swap1\n      pop\n        /* \"#utility.yul\":14299:14438   */\n      swap2\n      swap1\n      pop\n      jump\t// out\n        /* \"#utility.yul\":14444:14579   */\n    tag_341:\n        /* \"#utility.yul\":14504:14513   */\n      0x00\n        /* \"#utility.yul\":14537:14573   */\n      tag_433\n        /* \"#utility.yul\":14567:14572   */\n      dup3\n        /* \"#utility.yul\":14537:14573   */\n      tag_424\n      jump\t// in\n    tag_433:\n        /* \"#utility.yul\":14524:14573   */\n      swap1\n      pop\n        /* \"#utility.yul\":14444:14579   */\n      swap2\n      swap1\n      pop\n      jump\t// out\n        /* \"#utility.yul\":14585:14739   */\n    tag_244:\n        /* \"#utility.yul\":14669:14675   */\n      dup3\n        /* \"#utility.yul\":14664:14667   */\n      dup2\n        /* \"#utility.yul\":14659:14662   */\n      dup4\n        /* \"#utility.yul\":14646:14676   */\n      calldatacopy\n        /* \"#utility.yul\":14731:14732   */\n      0x00\n        /* \"#utility.yul\":14722:14728   */\n      dup4\n        /* \"#utility.yul\":14717:14720   */\n      dup4\n        /* \"#utility.yul\":14713:14729   */\n      add\n        /* \"#utility.yul\":14706:14733   */\n      mstore\n        /* \"#utility.yul\":14585:14739   */\n      pop\n      pop\n      pop\n      jump\t// out\n        /* \"#utility.yul\":14745:15052   */\n    tag_349:\n        /* \"#utility.yul\":14813:14814   */\n      0x00\n        /* \"#utility.yul\":14823:14936   */\n    tag_436:\n        /* \"#utility.yul\":14837:14843   */\n      dup4\n        /* \"#utility.yul\":14834:14835   */\n      dup2\n        /* \"#utility.yul\":14831:14844   */\n      lt\n        /* \"#utility.yul\":14823:14936   */\n      iszero\n      tag_438\n      jumpi\n        /* \"#utility.yul\":14922:14923   */\n      dup1\n        /* \"#utility.yul\":14917:14920   */\n      dup3\n        /* \"#utility.yul\":14913:14924   */\n      add\n        /* \"#utility.yul\":14907:14925   */\n      mload\n        /* \"#utility.yul\":14903:14904   */\n      dup2\n        /* \"#utility.yul\":14898:14901   */\n      dup5\n        /* \"#utility.yul\":14894:14905   */\n      add\n        /* \"#utility.yul\":14887:14926   */\n      mstore\n        /* \"#utility.yul\":14859:14861   */\n      0x20\n        /* \"#utility.yul\":14856:14857   */\n      dup2\n        /* \"#utility.yul\":14852:14862   */\n      add\n        /* \"#utility.yul\":14847:14862   */\n      swap1\n      pop\n        /* \"#utility.yul\":14823:14936   */\n      jump(tag_436)\n    tag_438:\n        /* \"#utility.yul\":14954:14960   */\n      dup4\n        /* \"#utility.yul\":14951:14952   */\n      dup2\n        /* \"#utility.yul\":14948:14961   */\n      gt\n        /* \"#utility.yul\":14945:15046   */\n      iszero\n      tag_439\n      jumpi\n        /* \"#utility.yul\":15034:15035   */\n      0x00\n        /* \"#utility.yul\":15025:15031   */\n      dup5\n        /* \"#utility.yul\":15020:15023   */\n      dup5\n        /* \"#utility.yul\":15016:15032   */\n      add\n        /* \"#utility.yul\":15009:15036   */\n      mstore\n        /* \"#utility.yul\":14945:15046   */\n    tag_439:\n        /* \"#utility.yul\":14794:15052   */\n      pop\n        /* \"#utility.yul\":14745:15052   */\n      pop\n      pop\n      pop\n      jump\t// out\n        /* \"#utility.yul\":15058:15378   */\n    tag_129:\n        /* \"#utility.yul\":15102:15108   */\n      0x00\n        /* \"#utility.yul\":15139:15140   */\n      0x02\n        /* \"#utility.yul\":15133:15137   */\n      dup3\n        /* \"#utility.yul\":15129:15141   */\n      div\n        /* \"#utility.yul\":15119:15141   */\n      swap1\n      pop\n        /* \"#utility.yul\":15186:15187   */\n      0x01\n        /* \"#utility.yul\":15180:15184   */\n      dup3\n        /* \"#utility.yul\":15176:15188   */\n      and\n        /* \"#utility.yul\":15207:15225   */\n      dup1\n        /* \"#utility.yul\":15197:15278   */\n      tag_441\n      jumpi\n        /* \"#utility.yul\":15263:15267   */\n      0x7f\n        /* \"#utility.yul\":15255:15261   */\n      dup3\n        /* \"#utility.yul\":15251:15268   */\n      and\n        /* \"#utility.yul\":15241:15268   */\n      swap2\n      pop\n        /* \"#utility.yul\":15197:15278   */\n    tag_441:\n        /* \"#utility.yul\":15325:15327   */\n      0x20\n        /* \"#utility.yul\":15317:15323   */\n      dup3\n        /* \"#utility.yul\":15314:15328   */\n      lt\n        /* \"#utility.yul\":15294:15312   */\n      dup2\n        /* \"#utility.yul\":15291:15329   */\n      eq\n        /* \"#utility.yul\":15288:15372   */\n      iszero\n      tag_442\n      jumpi\n        /* \"#utility.yul\":15344:15362   */\n      tag_443\n      tag_444\n      jump\t// in\n    tag_443:\n        /* \"#utility.yul\":15288:15372   */\n    tag_442:\n        /* \"#utility.yul\":15109:15378   */\n      pop\n        /* \"#utility.yul\":15058:15378   */\n      swap2\n      swap1\n      pop\n      jump\t// out\n        /* \"#utility.yul\":15384:15665   */\n    tag_399:\n        /* \"#utility.yul\":15467:15494   */\n      tag_446\n        /* \"#utility.yul\":15489:15493   */\n      dup3\n        /* \"#utility.yul\":15467:15494   */\n      tag_351\n      jump\t// in\n    tag_446:\n        /* \"#utility.yul\":15459:15465   */\n      dup2\n        /* \"#utility.yul\":15455:15495   */\n      add\n        /* \"#utility.yul\":15597:15603   */\n      dup2\n        /* \"#utility.yul\":15585:15595   */\n      dup2\n        /* \"#utility.yul\":15582:15604   */\n      lt\n        /* \"#utility.yul\":15561:15579   */\n      0xffffffffffffffff\n        /* \"#utility.yul\":15549:15559   */\n      dup3\n        /* \"#utility.yul\":15546:15580   */\n      gt\n        /* \"#utility.yul\":15543:15605   */\n      or\n        /* \"#utility.yul\":15540:15628   */\n      iszero\n      tag_447\n      jumpi\n        /* \"#utility.yul\":15608:15626   */\n      tag_448\n      tag_404\n      jump\t// in\n    tag_448:\n        /* \"#utility.yul\":15540:15628   */\n    tag_447:\n        /* \"#utility.yul\":15648:15658   */\n      dup1\n        /* \"#utility.yul\":15644:15646   */\n      0x40\n        /* \"#utility.yul\":15637:15659   */\n      mstore\n        /* \"#utility.yul\":15427:15665   */\n      pop\n        /* \"#utility.yul\":15384:15665   */\n      pop\n      pop\n      jump\t// out\n        /* \"#utility.yul\":15671:15904   */\n    tag_112:\n        /* \"#utility.yul\":15710:15713   */\n      0x00\n        /* \"#utility.yul\":15733:15757   */\n      tag_450\n        /* \"#utility.yul\":15751:15756   */\n      dup3\n        /* \"#utility.yul\":15733:15757   */\n      tag_370\n      jump\t// in\n    tag_450:\n        /* \"#utility.yul\":15724:15757   */\n      swap2\n      pop\n        /* \"#utility.yul\":15779:15845   */\n      0xffffffffffffffffffffffffffffffffffffffffffffffffffffffffffffffff\n        /* \"#utility.yul\":15772:15777   */\n      dup3\n        /* \"#utility.yul\":15769:15846   */\n      eq\n        /* \"#utility.yul\":15766:15869   */\n      iszero\n      tag_451\n      jumpi\n        /* \"#utility.yul\":15849:15867   */\n      tag_452\n      tag_414\n      jump\t// in\n    tag_452:\n        /* \"#utility.yul\":15766:15869   */\n    tag_451:\n        /* \"#utility.yul\":15896:15897   */\n      0x01\n        /* \"#utility.yul\":15889:15894   */\n      dup3\n        /* \"#utility.yul\":15885:15898   */\n      add\n        /* \"#utility.yul\":15878:15898   */\n      swap1\n      pop\n        /* \"#utility.yul\":15671:15904   */\n      swap2\n      swap1\n      pop\n      jump\t// out\n        /* \"#utility.yul\":15910:16090   */\n    tag_414:\n        /* \"#utility.yul\":15958:16035   */\n      0x4e487b7100000000000000000000000000000000000000000000000000000000\n        /* \"#utility.yul\":15955:15956   */\n      0x00\n        /* \"#utility.yul\":15948:16036   */\n      mstore\n        /* \"#utility.yul\":16055:16059   */\n      0x11\n        /* \"#utility.yul\":16052:16053   */\n      0x04\n        /* \"#utility.yul\":16045:16060   */\n      mstore\n        /* \"#utility.yul\":16079:16083   */\n      0x24\n        /* \"#utility.yul\":16076:16077   */\n      0x00\n        /* \"#utility.yul\":16069:16084   */\n      revert\n        /* \"#utility.yul\":16096:16276   */\n    tag_115:\n        /* \"#utility.yul\":16144:16221   */\n      0x4e487b7100000000000000000000000000000000000000000000000000000000\n        /* \"#utility.yul\":16141:16142   */\n      0x00\n        /* \"#utility.yul\":16134:16222   */\n      mstore\n        /* \"#utility.yul\":16241:16245   */\n      0x21\n        /* \"#utility.yul\":16238:16239   */\n      0x04\n        /* \"#utility.yul\":16231:16246   */\n      mstore\n        /* \"#utility.yul\":16265:16269   */\n      0x24\n        /* \"#utility.yul\":16262:16263   */\n      0x00\n        /* \"#utility.yul\":16255:16270   */\n      revert\n        /* \"#utility.yul\":16282:16462   */\n    tag_444:\n        /* \"#utility.yul\":16330:16407   */\n      0x4e487b7100000000000000000000000000000000000000000000000000000000\n        /* \"#utility.yul\":16327:16328   */\n      0x00\n        /* \"#utility.yul\":16320:16408   */\n      mstore\n        /* \"#utility.yul\":16427:16431   */\n      0x22\n        /* \"#utility.yul\":16424:16425   */\n      0x04\n        /* \"#utility.yul\":16417:16432   */\n      mstore\n        /* \"#utility.yul\":16451:16455   */\n      0x24\n        /* \"#utility.yul\":16448:16449   */\n      0x00\n        /* \"#utility.yul\":16441:16456   */\n      revert\n        /* \"#utility.yul\":16468:16648   */\n    tag_215:\n        /* \"#utility.yul\":16516:16593   */\n      0x4e487b7100000000000000000000000000000000000000000000000000000000\n        /* \"#utility.yul\":16513:16514   */\n      0x00\n        /* \"#utility.yul\":16506:16594   */\n      mstore\n        /* \"#utility.yul\":16613:16617   */\n      0x31\n        /* \"#utility.yul\":16610:16611   */\n      0x04\n        /* \"#utility.yul\":16603:16618   */\n      mstore\n        /* \"#utility.yul\":16637:16641   */\n      0x24\n        /* \"#utility.yul\":16634:16635   */\n      0x00\n        /* \"#utility.yul\":16627:16642   */\n      revert\n        /* \"#utility.yul\":16654:16834   */\n    tag_197:\n        /* \"#utility.yul\":16702:16779   */\n      0x4e487b7100000000000000000000000000000000000000000000000000000000\n        /* \"#utility.yul\":16699:16700   */\n      0x00\n        /* \"#utility.yul\":16692:16780   */\n      mstore\n        /* \"#utility.yul\":16799:16803   */\n      0x32\n        /* \"#utility.yul\":16796:16797   */\n      0x04\n        /* \"#utility.yul\":16789:16804   */\n      mstore\n        /* \"#utility.yul\":16823:16827   */\n      0x24\n        /* \"#utility.yul\":16820:16821   */\n      0x00\n        /* \"#utility.yul\":16813:16828   */\n      revert\n        /* \"#utility.yul\":16840:17020   */\n    tag_404:\n        /* \"#utility.yul\":16888:16965   */\n      0x4e487b7100000000000000000000000000000000000000000000000000000000\n        /* \"#utility.yul\":16885:16886   */\n      0x00\n        /* \"#utility.yul\":16878:16966   */\n      mstore\n        /* \"#utility.yul\":16985:16989   */\n      0x41\n        /* \"#utility.yul\":16982:16983   */\n      0x04\n        /* \"#utility.yul\":16975:16990   */\n      mstore\n        /* \"#utility.yul\":17009:17013   */\n      0x24\n        /* \"#utility.yul\":17006:17007   */\n      0x00\n        /* \"#utility.yul\":16999:17014   */\n      revert\n        /* \"#utility.yul\":17026:17143   */\n    tag_261:\n        /* \"#utility.yul\":17135:17136   */\n      0x00\n        /* \"#utility.yul\":17132:17133   */\n      dup1\n        /* \"#utility.yul\":17125:17137   */\n      revert\n        /* \"#utility.yul\":17149:17266   */\n    tag_267:\n        /* \"#utility.yul\":17258:17259   */\n      0x00\n        /* \"#utility.yul\":17255:17256   */\n      dup1\n        /* \"#utility.yul\":17248:17260   */\n      revert\n        /* \"#utility.yul\":17272:17389   */\n    tag_271:\n        /* \"#utility.yul\":17381:17382   */\n      0x00\n        /* \"#utility.yul\":17378:17379   */\n      dup1\n        /* \"#utility.yul\":17371:17383   */\n      revert\n        /* \"#utility.yul\":17395:17512   */\n    tag_242:\n        /* \"#utility.yul\":17504:17505   */\n      0x00\n        /* \"#utility.yul\":17501:17502   */\n      dup1\n        /* \"#utility.yul\":17494:17506   */\n      revert\n        /* \"#utility.yul\":17518:17635   */\n    tag_302:\n        /* \"#utility.yul\":17627:17628   */\n      0x00\n        /* \"#utility.yul\":17624:17625   */\n      dup1\n        /* \"#utility.yul\":17617:17629   */\n      revert\n        /* \"#utility.yul\":17641:17758   */\n    tag_283:\n        /* \"#utility.yul\":17750:17751   */\n      0x00\n        /* \"#utility.yul\":17747:17748   */\n      dup1\n        /* \"#utility.yul\":17740:17752   */\n      revert\n        /* \"#utility.yul\":17764:17866   */\n    tag_351:\n        /* \"#utility.yul\":17805:17811   */\n      0x00\n        /* \"#utility.yul\":17856:17858   */\n      0x1f\n        /* \"#utility.yul\":17852:17859   */\n      not\n        /* \"#utility.yul\":17847:17849   */\n      0x1f\n        /* \"#utility.yul\":17840:17845   */\n      dup4\n        /* \"#utility.yul\":17836:17850   */\n      add\n        /* \"#utility.yul\":17832:17860   */\n      and\n        /* \"#utility.yul\":17822:17860   */\n      swap1\n      pop\n        /* \"#utility.yul\":17764:17866   */\n      swap2\n      swap1\n      pop\n      jump\t// out\n        /* \"#utility.yul\":17872:18043   */\n    tag_357:\n        /* \"#utility.yul\":18012:18035   */\n      0x5265737472696374656420746f206f776e6572732e0000000000000000000000\n        /* \"#utility.yul\":18008:18009   */\n      0x00\n        /* \"#utility.yul\":18000:18006   */\n      dup3\n        /* \"#utility.yul\":17996:18010   */\n      add\n        /* \"#utility.yul\":17989:18036   */\n      mstore\n        /* \"#utility.yul\":17872:18043   */\n      pop\n      jump\t// out\n        /* \"#utility.yul\":18049:18277   */\n    tag_362:\n        /* \"#utility.yul\":18189:18223   */\n      0x54686520666f6c6c6f77696e67206361722068617320616c7265616479206265\n        /* \"#utility.yul\":18185:18186   */\n      0x00\n        /* \"#utility.yul\":18177:18183   */\n      dup3\n        /* \"#utility.yul\":18173:18187   */\n      add\n        /* \"#utility.yul\":18166:18224   */\n      mstore\n        /* \"#utility.yul\":18258:18269   */\n      0x656e2061646465642e0000000000000000000000000000000000000000000000\n        /* \"#utility.yul\":18253:18255   */\n      0x20\n        /* \"#utility.yul\":18245:18251   */\n      dup3\n        /* \"#utility.yul\":18241:18256   */\n      add\n        /* \"#utility.yul\":18234:18270   */\n      mstore\n        /* \"#utility.yul\":18049:18277   */\n      pop\n      jump\t// out\n        /* \"#utility.yul\":18283:18402   */\n    tag_423:\n        /* \"#utility.yul\":18370:18371   */\n      0x02\n        /* \"#utility.yul\":18363:18368   */\n      dup2\n        /* \"#utility.yul\":18360:18372   */\n      lt\n        /* \"#utility.yul\":18350:18396   */\n      tag_469\n      jumpi\n        /* \"#utility.yul\":18376:18394   */\n      tag_470\n      tag_115\n      jump\t// in\n    tag_470:\n        /* \"#utility.yul\":18350:18396   */\n    tag_469:\n        /* \"#utility.yul\":18283:18402   */\n      pop\n      jump\t// out\n        /* \"#utility.yul\":18408:18525   */\n    tag_427:\n        /* \"#utility.yul\":18493:18494   */\n      0x07\n        /* \"#utility.yul\":18486:18491   */\n      dup2\n        /* \"#utility.yul\":18483:18495   */\n      lt\n        /* \"#utility.yul\":18473:18519   */\n      tag_472\n      jumpi\n        /* \"#utility.yul\":18499:18517   */\n      tag_473\n      tag_115\n      jump\t// in\n    tag_473:\n        /* \"#utility.yul\":18473:18519   */\n    tag_472:\n        /* \"#utility.yul\":18408:18525   */\n      pop\n      jump\t// out\n        /* \"#utility.yul\":18531:18653   */\n    tag_248:\n        /* \"#utility.yul\":18604:18628   */\n      tag_475\n        /* \"#utility.yul\":18622:18627   */\n      dup2\n        /* \"#utility.yul\":18604:18628   */\n      tag_325\n      jump\t// in\n    tag_475:\n        /* \"#utility.yul\":18597:18602   */\n      dup2\n        /* \"#utility.yul\":18594:18629   */\n      eq\n        /* \"#utility.yul\":18584:18647   */\n      tag_476\n      jumpi\n        /* \"#utility.yul\":18643:18644   */\n      0x00\n        /* \"#utility.yul\":18640:18641   */\n      dup1\n        /* \"#utility.yul\":18633:18645   */\n      revert\n        /* \"#utility.yul\":18584:18647   */\n    tag_476:\n        /* \"#utility.yul\":18531:18653   */\n      pop\n      jump\t// out\n        /* \"#utility.yul\":18659:18781   */\n    tag_252:\n        /* \"#utility.yul\":18732:18756   */\n      tag_478\n        /* \"#utility.yul\":18750:18755   */\n      dup2\n        /* \"#utility.yul\":18732:18756   */\n      tag_333\n      jump\t// in\n    tag_478:\n        /* \"#utility.yul\":18725:18730   */\n      dup2\n        /* \"#utility.yul\":18722:18757   */\n      eq\n        /* \"#utility.yul\":18712:18775   */\n      tag_479\n      jumpi\n        /* \"#utility.yul\":18771:18772   */\n      0x00\n        /* \"#utility.yul\":18768:18769   */\n      dup1\n        /* \"#utility.yul\":18761:18773   */\n      revert\n        /* \"#utility.yul\":18712:18775   */\n    tag_479:\n        /* \"#utility.yul\":18659:18781   */\n      pop\n      jump\t// out\n        /* \"#utility.yul\":18787:18898   */\n    tag_256:\n        /* \"#utility.yul\":18872:18873   */\n      0x07\n        /* \"#utility.yul\":18865:18870   */\n      dup2\n        /* \"#utility.yul\":18862:18874   */\n      lt\n        /* \"#utility.yul\":18852:18892   */\n      tag_481\n      jumpi\n        /* \"#utility.yul\":18888:18889   */\n      0x00\n        /* \"#utility.yul\":18885:18886   */\n      dup1\n        /* \"#utility.yul\":18878:18890   */\n      revert\n        /* \"#utility.yul\":18852:18892   */\n    tag_481:\n        /* \"#utility.yul\":18787:18898   */\n      pop\n      jump\t// out\n        /* \"#utility.yul\":18904:19026   */\n    tag_279:\n        /* \"#utility.yul\":18977:19001   */\n      tag_483\n        /* \"#utility.yul\":18995:19000   */\n      dup2\n        /* \"#utility.yul\":18977:19001   */\n      tag_370\n      jump\t// in\n    tag_483:\n        /* \"#utility.yul\":18970:18975   */\n      dup2\n        /* \"#utility.yul\":18967:19002   */\n      eq\n        /* \"#utility.yul\":18957:19020   */\n      tag_484\n      jumpi\n        /* \"#utility.yul\":19016:19017   */\n      0x00\n        /* \"#utility.yul\":19013:19014   */\n      dup1\n        /* \"#utility.yul\":19006:19018   */\n      revert\n        /* \"#utility.yul\":18957:19020   */\n    tag_484:\n        /* \"#utility.yul\":18904:19026   */\n      pop\n      jump\t// out\n\n    auxdata: 0xa264697066735822122016c61f4254c7107deef94ff1301b92830d9d187ebcbf822878a4897482e5b96f64736f6c63430008070033\n}\n",
				"bytecode": {
					"linkReferences": {},
					"object": "6080604052600060015534801561001557600080fd5b50611abe806100256000396000f3fe608060405234801561001057600080fd5b506004361061010b5760003560e01c80639010d07c116100a2578063a513967011610071578063a5139670146102c0578063b97c9f77146102fa578063ca15c87314610318578063de8b198914610348578063e58378bb146103645761010b565b80639010d07c1461022657806391d14854146102565780639f2bc40e14610286578063a36a5d8d146102b65761010b565b80632f54bf6e116100de5780632f54bf6e14610170578063312bd3b5146101a057806341500498146101d05780637065cb481461020a5761010b565b806302aec3ce14610110578063173825d91461012c57806328c23a4514610148578063297a1f5614610152575b600080fd5b61012a60048036038101906101259190611175565b610382565b005b61014660048036038101906101419190611175565b6103af565b005b6101506103dc565b005b61015a610408565b604051610167919061153c565b60405180910390f35b61018a60048036038101906101859190611175565b61040e565b60405161019791906114c6565b60405180910390f35b6101ba60048036038101906101b5919061120f565b610441565b6040516101c791906114c6565b60405180910390f35b6101ea60048036038101906101e5919061134e565b6106db565b6040516102019b9a99989796959493929190611557565b60405180910390f35b610224600480360381019061021f9190611175565b61089a565b005b610240600480360381019061023b91906112e1565b6108c7565b60405161024d91906114ab565b60405180910390f35b610270600480360381019061026b91906111cf565b6108f5565b60405161027d91906114c6565b60405180910390f35b6102a0600480360381019061029b9190611175565b610923565b6040516102ad91906114c6565b60405180910390f35b6102be610956565b005b6102da60048036038101906102d59190611321565b610982565b6040516102f19b9a99989796959493929190611557565b60405180910390f35b610302610b24565b60405161030f91906114e1565b60405180910390f35b610332600480360381019061032d91906111a2565b610b48565b60405161033f919061153c565b60405180910390f35b610362600480360381019061035d9190611175565b610b6b565b005b61036c610b98565b60405161037991906114e1565b60405180910390f35b6103ac7f52454e544552000000000000000000000000000000000000000000000000000082610bbc565b50565b6103d97f4f574e455200000000000000000000000000000000000000000000000000000082610bbc565b50565b6104067f4f574e455200000000000000000000000000000000000000000000000000000033610bbc565b565b60015481565b600061043a7f4f574e4552000000000000000000000000000000000000000000000000000000836108f5565b9050919050565b600061044c3361040e565b61048b576040517f08c379a0000000000000000000000000000000000000000000000000000000008152600401610482906114fc565b60405180910390fd5b888060026000600154815260200190815260200160002060010154146104e6576040517f08c379a00000000000000000000000000000000000000000000000000000000081526004016104dd9061151c565b60405180910390fd5b600160008154809291906104f990611801565b9190505550600060405180610160016040528060015481526020018c81526020018b81526020018a600681111561053357610532611879565b5b8152602001898152602001888152602001878152602001868152602001858152602001428152602001600060018111156105705761056f611879565b5b81525090506003600060015481526020019081526020016000208190806001815401808255809150506001900390600052602060002090600c020160009091909190915060008201518160000155602082015181600101556040820151816002015560608201518160030160006101000a81548160ff021916908360068111156105fd576105fc611879565b5b02179055506080820151816004016000820151816000019080519060200190610627929190610f86565b506020820151816001019080519060200190610644929190610f86565b50505060a0820151816006015560c0820151816007015560e08201518160080155610100820151816009015561012082015181600a015561014082015181600b0160006101000a81548160ff021916908360018111156106a7576106a6611879565b5b0217905550505060006003600060015481526020019081526020016000208054905014159250505098975050505050505050565b600360205281600052604060002081815481106106f757600080fd5b90600052602060002090600c0201600091509150508060000154908060010154908060020154908060030160009054906101000a900460ff1690806004016040518060400160405290816000820180546107509061179e565b80601f016020809104026020016040519081016040528092919081815260200182805461077c9061179e565b80156107c95780601f1061079e576101008083540402835291602001916107c9565b820191906000526020600020905b8154815290600101906020018083116107ac57829003601f168201915b505050505081526020016001820180546107e29061179e565b80601f016020809104026020016040519081016040528092919081815260200182805461080e9061179e565b801561085b5780601f106108305761010080835404028352916020019161085b565b820191906000526020600020905b81548152906001019060200180831161083e57829003601f168201915b5050505050815250509080600601549080600701549080600801549080600901549080600a01549080600b0160009054906101000a900460ff1690508b565b6108c47f4f574e455200000000000000000000000000000000000000000000000000000082610c4c565b50565b60006108ed82600080868152602001908152602001600020610cdc90919063ffffffff16565b905092915050565b600061091b82600080868152602001908152602001600020610cf690919063ffffffff16565b905092915050565b600061094f7f52454e5445520000000000000000000000000000000000000000000000000000836108f5565b9050919050565b6109807f52454e544552000000000000000000000000000000000000000000000000000033610bbc565b565b60026020528060005260406000206000915090508060000154908060010154908060020154908060030160009054906101000a900460ff1690806004016040518060400160405290816000820180546109da9061179e565b80601f0160208091040260200160405190810160405280929190818152602001828054610a069061179e565b8015610a535780601f10610a2857610100808354040283529160200191610a53565b820191906000526020600020905b815481529060010190602001808311610a3657829003601f168201915b50505050508152602001600182018054610a6c9061179e565b80601f0160208091040260200160405190810160405280929190818152602001828054610a989061179e565b8015610ae55780601f10610aba57610100808354040283529160200191610ae5565b820191906000526020600020905b815481529060010190602001808311610ac857829003601f168201915b5050505050815250509080600601549080600701549080600801549080600901549080600a01549080600b0160009054906101000a900460ff1690508b565b7f52454e544552000000000000000000000000000000000000000000000000000081565b6000610b64600080848152602001908152602001600020610d26565b9050919050565b610b957f52454e544552000000000000000000000000000000000000000000000000000082610c4c565b50565b7f4f574e455200000000000000000000000000000000000000000000000000000081565b610be081600080858152602001908152602001600020610d3b90919063ffffffff16565b15610c4857610bed610d6b565b73ffffffffffffffffffffffffffffffffffffffff168173ffffffffffffffffffffffffffffffffffffffff16837ff6391f5c32d9c69d2a47ea670b442974b53935d1edc7fd64eb21e047a839171b60405160405180910390a45b5050565b610c7081600080858152602001908152602001600020610d7390919063ffffffff16565b15610cd857610c7d610d6b565b73ffffffffffffffffffffffffffffffffffffffff168173ffffffffffffffffffffffffffffffffffffffff16837f2f8788117e7eff1d82e926ec794901d17c78024a50270940304540a733656f0d60405160405180910390a45b5050565b6000610ceb8360000183610da3565b60001c905092915050565b6000610d1e836000018373ffffffffffffffffffffffffffffffffffffffff1660001b610dce565b905092915050565b6000610d3482600001610df1565b9050919050565b6000610d63836000018373ffffffffffffffffffffffffffffffffffffffff1660001b610e02565b905092915050565b600033905090565b6000610d9b836000018373ffffffffffffffffffffffffffffffffffffffff1660001b610f16565b905092915050565b6000826000018281548110610dbb57610dba611906565b5b9060005260206000200154905092915050565b600080836001016000848152602001908152602001600020541415905092915050565b600081600001805490509050919050565b60008083600101600084815260200190815260200160002054905060008114610f0a576000600182610e34919061168c565b9050600060018660000180549050610e4c919061168c565b9050818114610ebb576000866000018281548110610e6d57610e6c611906565b5b9060005260206000200154905080876000018481548110610e9157610e90611906565b5b90600052602060002001819055508387600101600083815260200190815260200160002081905550505b85600001805480610ecf57610ece6118d7565b5b600190038181906000526020600020016000905590558560010160008681526020019081526020016000206000905560019350505050610f10565b60009150505b92915050565b6000610f228383610dce565b610f7b578260000182908060018154018082558091505060019003906000526020600020016000909190919091505582600001805490508360010160008481526020019081526020016000208190555060019050610f80565b600090505b92915050565b828054610f929061179e565b90600052602060002090601f016020900481019282610fb45760008555610ffb565b82601f10610fcd57805160ff1916838001178555610ffb565b82800160010185558215610ffb579182015b82811115610ffa578251825591602001919060010190610fdf565b5b509050611008919061100c565b5090565b5b8082111561102557600081600090555060010161100d565b5090565b600061103c6110378461162e565b611609565b90508281526020810184848401111561105857611057611973565b5b61106384828561175c565b509392505050565b60008135905061107a81611a33565b92915050565b60008135905061108f81611a4a565b92915050565b6000813590506110a481611a61565b92915050565b600082601f8301126110bf576110be611964565b5b81356110cf848260208601611029565b91505092915050565b6000604082840312156110ee576110ed611969565b5b6110f86040611609565b9050600082013567ffffffffffffffff8111156111185761111761196e565b5b611124848285016110aa565b600083015250602082013567ffffffffffffffff8111156111485761114761196e565b5b611154848285016110aa565b60208301525092915050565b60008135905061116f81611a71565b92915050565b60006020828403121561118b5761118a61197d565b5b60006111998482850161106b565b91505092915050565b6000602082840312156111b8576111b761197d565b5b60006111c684828501611080565b91505092915050565b600080604083850312156111e6576111e561197d565b5b60006111f485828601611080565b92505060206112058582860161106b565b9150509250929050565b600080600080600080600080610100898b0312156112305761122f61197d565b5b600061123e8b828c01611080565b985050602061124f8b828c01611080565b97505060406112608b828c01611095565b965050606089013567ffffffffffffffff81111561128157611280611978565b5b61128d8b828c016110d8565b955050608061129e8b828c01611160565b94505060a06112af8b828c01611080565b93505060c06112c08b828c01611160565b92505060e06112d18b828c01611160565b9150509295985092959890939650565b600080604083850312156112f8576112f761197d565b5b600061130685828601611080565b925050602061131785828601611160565b9150509250929050565b6000602082840312156113375761133661197d565b5b600061134584828501611160565b91505092915050565b600080604083850312156113655761136461197d565b5b600061137385828601611160565b925050602061138485828601611160565b9150509250929050565b611397816116c0565b82525050565b6113a6816116d2565b82525050565b6113b5816116de565b82525050565b6113c481611738565b82525050565b6113d38161174a565b82525050565b60006113e48261165f565b6113ee818561166a565b93506113fe81856020860161176b565b61140781611982565b840191505092915050565b600061141f60158361167b565b915061142a82611993565b602082019050919050565b600061144260298361167b565b915061144d826119bc565b604082019050919050565b6000604083016000830151848203600086015261147582826113d9565b9150506020830151848203602086015261148f82826113d9565b9150508091505092915050565b6114a58161172e565b82525050565b60006020820190506114c0600083018461138e565b92915050565b60006020820190506114db600083018461139d565b92915050565b60006020820190506114f660008301846113ac565b92915050565b6000602082019050818103600083015261151581611412565b9050919050565b6000602082019050818103600083015261153581611435565b9050919050565b6000602082019050611551600083018461149c565b92915050565b60006101608201905061156d600083018e61149c565b61157a602083018d6113ac565b611587604083018c6113ac565b611594606083018b6113ca565b81810360808301526115a6818a611458565b90506115b560a083018961149c565b6115c260c08301886113ac565b6115cf60e083018761149c565b6115dd61010083018661149c565b6115eb61012083018561149c565b6115f96101408301846113bb565b9c9b505050505050505050505050565b6000611613611624565b905061161f82826117d0565b919050565b6000604051905090565b600067ffffffffffffffff82111561164957611648611935565b5b61165282611982565b9050602081019050919050565b600081519050919050565b600082825260208201905092915050565b600082825260208201905092915050565b60006116978261172e565b91506116a28361172e565b9250828210156116b5576116b461184a565b5b828203905092915050565b60006116cb8261170e565b9050919050565b60008115159050919050565b6000819050919050565b60008190506116f682611a0b565b919050565b600081905061170982611a1f565b919050565b600073ffffffffffffffffffffffffffffffffffffffff82169050919050565b6000819050919050565b6000611743826116e8565b9050919050565b6000611755826116fb565b9050919050565b82818337600083830152505050565b60005b8381101561178957808201518184015260208101905061176e565b83811115611798576000848401525b50505050565b600060028204905060018216806117b657607f821691505b602082108114156117ca576117c96118a8565b5b50919050565b6117d982611982565b810181811067ffffffffffffffff821117156117f8576117f7611935565b5b80604052505050565b600061180c8261172e565b91507fffffffffffffffffffffffffffffffffffffffffffffffffffffffffffffffff82141561183f5761183e61184a565b5b600182019050919050565b7f4e487b7100000000000000000000000000000000000000000000000000000000600052601160045260246000fd5b7f4e487b7100000000000000000000000000000000000000000000000000000000600052602160045260246000fd5b7f4e487b7100000000000000000000000000000000000000000000000000000000600052602260045260246000fd5b7f4e487b7100000000000000000000000000000000000000000000000000000000600052603160045260246000fd5b7f4e487b7100000000000000000000000000000000000000000000000000000000600052603260045260246000fd5b7f4e487b7100000000000000000000000000000000000000000000000000000000600052604160045260246000fd5b600080fd5b600080fd5b600080fd5b600080fd5b600080fd5b600080fd5b6000601f19601f8301169050919050565b7f5265737472696374656420746f206f776e6572732e0000000000000000000000600082015250565b7f54686520666f6c6c6f77696e67206361722068617320616c726561647920626560008201527f656e2061646465642e0000000000000000000000000000000000000000000000602082015250565b60028110611a1c57611a1b611879565b5b50565b60078110611a3057611a2f611879565b5b50565b611a3c816116c0565b8114611a4757600080fd5b50565b611a53816116de565b8114611a5e57600080fd5b50565b60078110611a6e57600080fd5b50565b611a7a8161172e565b8114611a8557600080fd5b5056fea264697066735822122016c61f4254c7107deef94ff1301b92830d9d187ebcbf822878a4897482e5b96f64736f6c63430008070033",
					"opcodes": "PUSH1 0x80 PUSH1 0x40 MSTORE PUSH1 0x0 PUSH1 0x1 SSTORE CALLVALUE DUP1 ISZERO PUSH2 0x15 JUMPI PUSH1 0x0 DUP1 REVERT JUMPDEST POP PUSH2 0x1ABE DUP1 PUSH2 0x25 PUSH1 0x0 CODECOPY PUSH1 0x0 RETURN INVALID PUSH1 0x80 PUSH1 0x40 MSTORE CALLVALUE DUP1 ISZERO PUSH2 0x10 JUMPI PUSH1 0x0 DUP1 REVERT JUMPDEST POP PUSH1 0x4 CALLDATASIZE LT PUSH2 0x10B JUMPI PUSH1 0x0 CALLDATALOAD PUSH1 0xE0 SHR DUP1 PUSH4 0x9010D07C GT PUSH2 0xA2 JUMPI DUP1 PUSH4 0xA5139670 GT PUSH2 0x71 JUMPI DUP1 PUSH4 0xA5139670 EQ PUSH2 0x2C0 JUMPI DUP1 PUSH4 0xB97C9F77 EQ PUSH2 0x2FA JUMPI DUP1 PUSH4 0xCA15C873 EQ PUSH2 0x318 JUMPI DUP1 PUSH4 0xDE8B1989 EQ PUSH2 0x348 JUMPI DUP1 PUSH4 0xE58378BB EQ PUSH2 0x364 JUMPI PUSH2 0x10B JUMP JUMPDEST DUP1 PUSH4 0x9010D07C EQ PUSH2 0x226 JUMPI DUP1 PUSH4 0x91D14854 EQ PUSH2 0x256 JUMPI DUP1 PUSH4 0x9F2BC40E EQ PUSH2 0x286 JUMPI DUP1 PUSH4 0xA36A5D8D EQ PUSH2 0x2B6 JUMPI PUSH2 0x10B JUMP JUMPDEST DUP1 PUSH4 0x2F54BF6E GT PUSH2 0xDE JUMPI DUP1 PUSH4 0x2F54BF6E EQ PUSH2 0x170 JUMPI DUP1 PUSH4 0x312BD3B5 EQ PUSH2 0x1A0 JUMPI DUP1 PUSH4 0x41500498 EQ PUSH2 0x1D0 JUMPI DUP1 PUSH4 0x7065CB48 EQ PUSH2 0x20A JUMPI PUSH2 0x10B JUMP JUMPDEST DUP1 PUSH4 0x2AEC3CE EQ PUSH2 0x110 JUMPI DUP1 PUSH4 0x173825D9 EQ PUSH2 0x12C JUMPI DUP1 PUSH4 0x28C23A45 EQ PUSH2 0x148 JUMPI DUP1 PUSH4 0x297A1F56 EQ PUSH2 0x152 JUMPI JUMPDEST PUSH1 0x0 DUP1 REVERT JUMPDEST PUSH2 0x12A PUSH1 0x4 DUP1 CALLDATASIZE SUB DUP2 ADD SWAP1 PUSH2 0x125 SWAP2 SWAP1 PUSH2 0x1175 JUMP JUMPDEST PUSH2 0x382 JUMP JUMPDEST STOP JUMPDEST PUSH2 0x146 PUSH1 0x4 DUP1 CALLDATASIZE SUB DUP2 ADD SWAP1 PUSH2 0x141 SWAP2 SWAP1 PUSH2 0x1175 JUMP JUMPDEST PUSH2 0x3AF JUMP JUMPDEST STOP JUMPDEST PUSH2 0x150 PUSH2 0x3DC JUMP JUMPDEST STOP JUMPDEST PUSH2 0x15A PUSH2 0x408 JUMP JUMPDEST PUSH1 0x40 MLOAD PUSH2 0x167 SWAP2 SWAP1 PUSH2 0x153C JUMP JUMPDEST PUSH1 0x40 MLOAD DUP1 SWAP2 SUB SWAP1 RETURN JUMPDEST PUSH2 0x18A PUSH1 0x4 DUP1 CALLDATASIZE SUB DUP2 ADD SWAP1 PUSH2 0x185 SWAP2 SWAP1 PUSH2 0x1175 JUMP JUMPDEST PUSH2 0x40E JUMP JUMPDEST PUSH1 0x40 MLOAD PUSH2 0x197 SWAP2 SWAP1 PUSH2 0x14C6 JUMP JUMPDEST PUSH1 0x40 MLOAD DUP1 SWAP2 SUB SWAP1 RETURN JUMPDEST PUSH2 0x1BA PUSH1 0x4 DUP1 CALLDATASIZE SUB DUP2 ADD SWAP1 PUSH2 0x1B5 SWAP2 SWAP1 PUSH2 0x120F JUMP JUMPDEST PUSH2 0x441 JUMP JUMPDEST PUSH1 0x40 MLOAD PUSH2 0x1C7 SWAP2 SWAP1 PUSH2 0x14C6 JUMP JUMPDEST PUSH1 0x40 MLOAD DUP1 SWAP2 SUB SWAP1 RETURN JUMPDEST PUSH2 0x1EA PUSH1 0x4 DUP1 CALLDATASIZE SUB DUP2 ADD SWAP1 PUSH2 0x1E5 SWAP2 SWAP1 PUSH2 0x134E JUMP JUMPDEST PUSH2 0x6DB JUMP JUMPDEST PUSH1 0x40 MLOAD PUSH2 0x201 SWAP12 SWAP11 SWAP10 SWAP9 SWAP8 SWAP7 SWAP6 SWAP5 SWAP4 SWAP3 SWAP2 SWAP1 PUSH2 0x1557 JUMP JUMPDEST PUSH1 0x40 MLOAD DUP1 SWAP2 SUB SWAP1 RETURN JUMPDEST PUSH2 0x224 PUSH1 0x4 DUP1 CALLDATASIZE SUB DUP2 ADD SWAP1 PUSH2 0x21F SWAP2 SWAP1 PUSH2 0x1175 JUMP JUMPDEST PUSH2 0x89A JUMP JUMPDEST STOP JUMPDEST PUSH2 0x240 PUSH1 0x4 DUP1 CALLDATASIZE SUB DUP2 ADD SWAP1 PUSH2 0x23B SWAP2 SWAP1 PUSH2 0x12E1 JUMP JUMPDEST PUSH2 0x8C7 JUMP JUMPDEST PUSH1 0x40 MLOAD PUSH2 0x24D SWAP2 SWAP1 PUSH2 0x14AB JUMP JUMPDEST PUSH1 0x40 MLOAD DUP1 SWAP2 SUB SWAP1 RETURN JUMPDEST PUSH2 0x270 PUSH1 0x4 DUP1 CALLDATASIZE SUB DUP2 ADD SWAP1 PUSH2 0x26B SWAP2 SWAP1 PUSH2 0x11CF JUMP JUMPDEST PUSH2 0x8F5 JUMP JUMPDEST PUSH1 0x40 MLOAD PUSH2 0x27D SWAP2 SWAP1 PUSH2 0x14C6 JUMP JUMPDEST PUSH1 0x40 MLOAD DUP1 SWAP2 SUB SWAP1 RETURN JUMPDEST PUSH2 0x2A0 PUSH1 0x4 DUP1 CALLDATASIZE SUB DUP2 ADD SWAP1 PUSH2 0x29B SWAP2 SWAP1 PUSH2 0x1175 JUMP JUMPDEST PUSH2 0x923 JUMP JUMPDEST PUSH1 0x40 MLOAD PUSH2 0x2AD SWAP2 SWAP1 PUSH2 0x14C6 JUMP JUMPDEST PUSH1 0x40 MLOAD DUP1 SWAP2 SUB SWAP1 RETURN JUMPDEST PUSH2 0x2BE PUSH2 0x956 JUMP JUMPDEST STOP JUMPDEST PUSH2 0x2DA PUSH1 0x4 DUP1 CALLDATASIZE SUB DUP2 ADD SWAP1 PUSH2 0x2D5 SWAP2 SWAP1 PUSH2 0x1321 JUMP JUMPDEST PUSH2 0x982 JUMP JUMPDEST PUSH1 0x40 MLOAD PUSH2 0x2F1 SWAP12 SWAP11 SWAP10 SWAP9 SWAP8 SWAP7 SWAP6 SWAP5 SWAP4 SWAP3 SWAP2 SWAP1 PUSH2 0x1557 JUMP JUMPDEST PUSH1 0x40 MLOAD DUP1 SWAP2 SUB SWAP1 RETURN JUMPDEST PUSH2 0x302 PUSH2 0xB24 JUMP JUMPDEST PUSH1 0x40 MLOAD PUSH2 0x30F SWAP2 SWAP1 PUSH2 0x14E1 JUMP JUMPDEST PUSH1 0x40 MLOAD DUP1 SWAP2 SUB SWAP1 RETURN JUMPDEST PUSH2 0x332 PUSH1 0x4 DUP1 CALLDATASIZE SUB DUP2 ADD SWAP1 PUSH2 0x32D SWAP2 SWAP1 PUSH2 0x11A2 JUMP JUMPDEST PUSH2 0xB48 JUMP JUMPDEST PUSH1 0x40 MLOAD PUSH2 0x33F SWAP2 SWAP1 PUSH2 0x153C JUMP JUMPDEST PUSH1 0x40 MLOAD DUP1 SWAP2 SUB SWAP1 RETURN JUMPDEST PUSH2 0x362 PUSH1 0x4 DUP1 CALLDATASIZE SUB DUP2 ADD SWAP1 PUSH2 0x35D SWAP2 SWAP1 PUSH2 0x1175 JUMP JUMPDEST PUSH2 0xB6B JUMP JUMPDEST STOP JUMPDEST PUSH2 0x36C PUSH2 0xB98 JUMP JUMPDEST PUSH1 0x40 MLOAD PUSH2 0x379 SWAP2 SWAP1 PUSH2 0x14E1 JUMP JUMPDEST PUSH1 0x40 MLOAD DUP1 SWAP2 SUB SWAP1 RETURN JUMPDEST PUSH2 0x3AC PUSH32 0x52454E5445520000000000000000000000000000000000000000000000000000 DUP3 PUSH2 0xBBC JUMP JUMPDEST POP JUMP JUMPDEST PUSH2 0x3D9 PUSH32 0x4F574E4552000000000000000000000000000000000000000000000000000000 DUP3 PUSH2 0xBBC JUMP JUMPDEST POP JUMP JUMPDEST PUSH2 0x406 PUSH32 0x4F574E4552000000000000000000000000000000000000000000000000000000 CALLER PUSH2 0xBBC JUMP JUMPDEST JUMP JUMPDEST PUSH1 0x1 SLOAD DUP2 JUMP JUMPDEST PUSH1 0x0 PUSH2 0x43A PUSH32 0x4F574E4552000000000000000000000000000000000000000000000000000000 DUP4 PUSH2 0x8F5 JUMP JUMPDEST SWAP1 POP SWAP2 SWAP1 POP JUMP JUMPDEST PUSH1 0x0 PUSH2 0x44C CALLER PUSH2 0x40E JUMP JUMPDEST PUSH2 0x48B JUMPI PUSH1 0x40 MLOAD PUSH32 0x8C379A000000000000000000000000000000000000000000000000000000000 DUP2 MSTORE PUSH1 0x4 ADD PUSH2 0x482 SWAP1 PUSH2 0x14FC JUMP JUMPDEST PUSH1 0x40 MLOAD DUP1 SWAP2 SUB SWAP1 REVERT JUMPDEST DUP9 DUP1 PUSH1 0x2 PUSH1 0x0 PUSH1 0x1 SLOAD DUP2 MSTORE PUSH1 0x20 ADD SWAP1 DUP2 MSTORE PUSH1 0x20 ADD PUSH1 0x0 KECCAK256 PUSH1 0x1 ADD SLOAD EQ PUSH2 0x4E6 JUMPI PUSH1 0x40 MLOAD PUSH32 0x8C379A000000000000000000000000000000000000000000000000000000000 DUP2 MSTORE PUSH1 0x4 ADD PUSH2 0x4DD SWAP1 PUSH2 0x151C JUMP JUMPDEST PUSH1 0x40 MLOAD DUP1 SWAP2 SUB SWAP1 REVERT JUMPDEST PUSH1 0x1 PUSH1 0x0 DUP2 SLOAD DUP1 SWAP3 SWAP2 SWAP1 PUSH2 0x4F9 SWAP1 PUSH2 0x1801 JUMP JUMPDEST SWAP2 SWAP1 POP SSTORE POP PUSH1 0x0 PUSH1 0x40 MLOAD DUP1 PUSH2 0x160 ADD PUSH1 0x40 MSTORE DUP1 PUSH1 0x1 SLOAD DUP2 MSTORE PUSH1 0x20 ADD DUP13 DUP2 MSTORE PUSH1 0x20 ADD DUP12 DUP2 MSTORE PUSH1 0x20 ADD DUP11 PUSH1 0x6 DUP2 GT ISZERO PUSH2 0x533 JUMPI PUSH2 0x532 PUSH2 0x1879 JUMP JUMPDEST JUMPDEST DUP2 MSTORE PUSH1 0x20 ADD DUP10 DUP2 MSTORE PUSH1 0x20 ADD DUP9 DUP2 MSTORE PUSH1 0x20 ADD DUP8 DUP2 MSTORE PUSH1 0x20 ADD DUP7 DUP2 MSTORE PUSH1 0x20 ADD DUP6 DUP2 MSTORE PUSH1 0x20 ADD TIMESTAMP DUP2 MSTORE PUSH1 0x20 ADD PUSH1 0x0 PUSH1 0x1 DUP2 GT ISZERO PUSH2 0x570 JUMPI PUSH2 0x56F PUSH2 0x1879 JUMP JUMPDEST JUMPDEST DUP2 MSTORE POP SWAP1 POP PUSH1 0x3 PUSH1 0x0 PUSH1 0x1 SLOAD DUP2 MSTORE PUSH1 0x20 ADD SWAP1 DUP2 MSTORE PUSH1 0x20 ADD PUSH1 0x0 KECCAK256 DUP2 SWAP1 DUP1 PUSH1 0x1 DUP2 SLOAD ADD DUP1 DUP3 SSTORE DUP1 SWAP2 POP POP PUSH1 0x1 SWAP1 SUB SWAP1 PUSH1 0x0 MSTORE PUSH1 0x20 PUSH1 0x0 KECCAK256 SWAP1 PUSH1 0xC MUL ADD PUSH1 0x0 SWAP1 SWAP2 SWAP1 SWAP2 SWAP1 SWAP2 POP PUSH1 0x0 DUP3 ADD MLOAD DUP2 PUSH1 0x0 ADD SSTORE PUSH1 0x20 DUP3 ADD MLOAD DUP2 PUSH1 0x1 ADD SSTORE PUSH1 0x40 DUP3 ADD MLOAD DUP2 PUSH1 0x2 ADD SSTORE PUSH1 0x60 DUP3 ADD MLOAD DUP2 PUSH1 0x3 ADD PUSH1 0x0 PUSH2 0x100 EXP DUP2 SLOAD DUP2 PUSH1 0xFF MUL NOT AND SWAP1 DUP4 PUSH1 0x6 DUP2 GT ISZERO PUSH2 0x5FD JUMPI PUSH2 0x5FC PUSH2 0x1879 JUMP JUMPDEST JUMPDEST MUL OR SWAP1 SSTORE POP PUSH1 0x80 DUP3 ADD MLOAD DUP2 PUSH1 0x4 ADD PUSH1 0x0 DUP3 ADD MLOAD DUP2 PUSH1 0x0 ADD SWAP1 DUP1 MLOAD SWAP1 PUSH1 0x20 ADD SWAP1 PUSH2 0x627 SWAP3 SWAP2 SWAP1 PUSH2 0xF86 JUMP JUMPDEST POP PUSH1 0x20 DUP3 ADD MLOAD DUP2 PUSH1 0x1 ADD SWAP1 DUP1 MLOAD SWAP1 PUSH1 0x20 ADD SWAP1 PUSH2 0x644 SWAP3 SWAP2 SWAP1 PUSH2 0xF86 JUMP JUMPDEST POP POP POP PUSH1 0xA0 DUP3 ADD MLOAD DUP2 PUSH1 0x6 ADD SSTORE PUSH1 0xC0 DUP3 ADD MLOAD DUP2 PUSH1 0x7 ADD SSTORE PUSH1 0xE0 DUP3 ADD MLOAD DUP2 PUSH1 0x8 ADD SSTORE PUSH2 0x100 DUP3 ADD MLOAD DUP2 PUSH1 0x9 ADD SSTORE PUSH2 0x120 DUP3 ADD MLOAD DUP2 PUSH1 0xA ADD SSTORE PUSH2 0x140 DUP3 ADD MLOAD DUP2 PUSH1 0xB ADD PUSH1 0x0 PUSH2 0x100 EXP DUP2 SLOAD DUP2 PUSH1 0xFF MUL NOT AND SWAP1 DUP4 PUSH1 0x1 DUP2 GT ISZERO PUSH2 0x6A7 JUMPI PUSH2 0x6A6 PUSH2 0x1879 JUMP JUMPDEST JUMPDEST MUL OR SWAP1 SSTORE POP POP POP PUSH1 0x0 PUSH1 0x3 PUSH1 0x0 PUSH1 0x1 SLOAD DUP2 MSTORE PUSH1 0x20 ADD SWAP1 DUP2 MSTORE PUSH1 0x20 ADD PUSH1 0x0 KECCAK256 DUP1 SLOAD SWAP1 POP EQ ISZERO SWAP3 POP POP POP SWAP9 SWAP8 POP POP POP POP POP POP POP POP JUMP JUMPDEST PUSH1 0x3 PUSH1 0x20 MSTORE DUP2 PUSH1 0x0 MSTORE PUSH1 0x40 PUSH1 0x0 KECCAK256 DUP2 DUP2 SLOAD DUP2 LT PUSH2 0x6F7 JUMPI PUSH1 0x0 DUP1 REVERT JUMPDEST SWAP1 PUSH1 0x0 MSTORE PUSH1 0x20 PUSH1 0x0 KECCAK256 SWAP1 PUSH1 0xC MUL ADD PUSH1 0x0 SWAP2 POP SWAP2 POP POP DUP1 PUSH1 0x0 ADD SLOAD SWAP1 DUP1 PUSH1 0x1 ADD SLOAD SWAP1 DUP1 PUSH1 0x2 ADD SLOAD SWAP1 DUP1 PUSH1 0x3 ADD PUSH1 0x0 SWAP1 SLOAD SWAP1 PUSH2 0x100 EXP SWAP1 DIV PUSH1 0xFF AND SWAP1 DUP1 PUSH1 0x4 ADD PUSH1 0x40 MLOAD DUP1 PUSH1 0x40 ADD PUSH1 0x40 MSTORE SWAP1 DUP2 PUSH1 0x0 DUP3 ADD DUP1 SLOAD PUSH2 0x750 SWAP1 PUSH2 0x179E JUMP JUMPDEST DUP1 PUSH1 0x1F ADD PUSH1 0x20 DUP1 SWAP2 DIV MUL PUSH1 0x20 ADD PUSH1 0x40 MLOAD SWAP1 DUP2 ADD PUSH1 0x40 MSTORE DUP1 SWAP3 SWAP2 SWAP1 DUP2 DUP2 MSTORE PUSH1 0x20 ADD DUP3 DUP1 SLOAD PUSH2 0x77C SWAP1 PUSH2 0x179E JUMP JUMPDEST DUP1 ISZERO PUSH2 0x7C9 JUMPI DUP1 PUSH1 0x1F LT PUSH2 0x79E JUMPI PUSH2 0x100 DUP1 DUP4 SLOAD DIV MUL DUP4 MSTORE SWAP2 PUSH1 0x20 ADD SWAP2 PUSH2 0x7C9 JUMP JUMPDEST DUP3 ADD SWAP2 SWAP1 PUSH1 0x0 MSTORE PUSH1 0x20 PUSH1 0x0 KECCAK256 SWAP1 JUMPDEST DUP2 SLOAD DUP2 MSTORE SWAP1 PUSH1 0x1 ADD SWAP1 PUSH1 0x20 ADD DUP1 DUP4 GT PUSH2 0x7AC JUMPI DUP3 SWAP1 SUB PUSH1 0x1F AND DUP3 ADD SWAP2 JUMPDEST POP POP POP POP POP DUP2 MSTORE PUSH1 0x20 ADD PUSH1 0x1 DUP3 ADD DUP1 SLOAD PUSH2 0x7E2 SWAP1 PUSH2 0x179E JUMP JUMPDEST DUP1 PUSH1 0x1F ADD PUSH1 0x20 DUP1 SWAP2 DIV MUL PUSH1 0x20 ADD PUSH1 0x40 MLOAD SWAP1 DUP2 ADD PUSH1 0x40 MSTORE DUP1 SWAP3 SWAP2 SWAP1 DUP2 DUP2 MSTORE PUSH1 0x20 ADD DUP3 DUP1 SLOAD PUSH2 0x80E SWAP1 PUSH2 0x179E JUMP JUMPDEST DUP1 ISZERO PUSH2 0x85B JUMPI DUP1 PUSH1 0x1F LT PUSH2 0x830 JUMPI PUSH2 0x100 DUP1 DUP4 SLOAD DIV MUL DUP4 MSTORE SWAP2 PUSH1 0x20 ADD SWAP2 PUSH2 0x85B JUMP JUMPDEST DUP3 ADD SWAP2 SWAP1 PUSH1 0x0 MSTORE PUSH1 0x20 PUSH1 0x0 KECCAK256 SWAP1 JUMPDEST DUP2 SLOAD DUP2 MSTORE SWAP1 PUSH1 0x1 ADD SWAP1 PUSH1 0x20 ADD DUP1 DUP4 GT PUSH2 0x83E JUMPI DUP3 SWAP1 SUB PUSH1 0x1F AND DUP3 ADD SWAP2 JUMPDEST POP POP POP POP POP DUP2 MSTORE POP POP SWAP1 DUP1 PUSH1 0x6 ADD SLOAD SWAP1 DUP1 PUSH1 0x7 ADD SLOAD SWAP1 DUP1 PUSH1 0x8 ADD SLOAD SWAP1 DUP1 PUSH1 0x9 ADD SLOAD SWAP1 DUP1 PUSH1 0xA ADD SLOAD SWAP1 DUP1 PUSH1 0xB ADD PUSH1 0x0 SWAP1 SLOAD SWAP1 PUSH2 0x100 EXP SWAP1 DIV PUSH1 0xFF AND SWAP1 POP DUP12 JUMP JUMPDEST PUSH2 0x8C4 PUSH32 0x4F574E4552000000000000000000000000000000000000000000000000000000 DUP3 PUSH2 0xC4C JUMP JUMPDEST POP JUMP JUMPDEST PUSH1 0x0 PUSH2 0x8ED DUP3 PUSH1 0x0 DUP1 DUP7 DUP2 MSTORE PUSH1 0x20 ADD SWAP1 DUP2 MSTORE PUSH1 0x20 ADD PUSH1 0x0 KECCAK256 PUSH2 0xCDC SWAP1 SWAP2 SWAP1 PUSH4 0xFFFFFFFF AND JUMP JUMPDEST SWAP1 POP SWAP3 SWAP2 POP POP JUMP JUMPDEST PUSH1 0x0 PUSH2 0x91B DUP3 PUSH1 0x0 DUP1 DUP7 DUP2 MSTORE PUSH1 0x20 ADD SWAP1 DUP2 MSTORE PUSH1 0x20 ADD PUSH1 0x0 KECCAK256 PUSH2 0xCF6 SWAP1 SWAP2 SWAP1 PUSH4 0xFFFFFFFF AND JUMP JUMPDEST SWAP1 POP SWAP3 SWAP2 POP POP JUMP JUMPDEST PUSH1 0x0 PUSH2 0x94F PUSH32 0x52454E5445520000000000000000000000000000000000000000000000000000 DUP4 PUSH2 0x8F5 JUMP JUMPDEST SWAP1 POP SWAP2 SWAP1 POP JUMP JUMPDEST PUSH2 0x980 PUSH32 0x52454E5445520000000000000000000000000000000000000000000000000000 CALLER PUSH2 0xBBC JUMP JUMPDEST JUMP JUMPDEST PUSH1 0x2 PUSH1 0x20 MSTORE DUP1 PUSH1 0x0 MSTORE PUSH1 0x40 PUSH1 0x0 KECCAK256 PUSH1 0x0 SWAP2 POP SWAP1 POP DUP1 PUSH1 0x0 ADD SLOAD SWAP1 DUP1 PUSH1 0x1 ADD SLOAD SWAP1 DUP1 PUSH1 0x2 ADD SLOAD SWAP1 DUP1 PUSH1 0x3 ADD PUSH1 0x0 SWAP1 SLOAD SWAP1 PUSH2 0x100 EXP SWAP1 DIV PUSH1 0xFF AND SWAP1 DUP1 PUSH1 0x4 ADD PUSH1 0x40 MLOAD DUP1 PUSH1 0x40 ADD PUSH1 0x40 MSTORE SWAP1 DUP2 PUSH1 0x0 DUP3 ADD DUP1 SLOAD PUSH2 0x9DA SWAP1 PUSH2 0x179E JUMP JUMPDEST DUP1 PUSH1 0x1F ADD PUSH1 0x20 DUP1 SWAP2 DIV MUL PUSH1 0x20 ADD PUSH1 0x40 MLOAD SWAP1 DUP2 ADD PUSH1 0x40 MSTORE DUP1 SWAP3 SWAP2 SWAP1 DUP2 DUP2 MSTORE PUSH1 0x20 ADD DUP3 DUP1 SLOAD PUSH2 0xA06 SWAP1 PUSH2 0x179E JUMP JUMPDEST DUP1 ISZERO PUSH2 0xA53 JUMPI DUP1 PUSH1 0x1F LT PUSH2 0xA28 JUMPI PUSH2 0x100 DUP1 DUP4 SLOAD DIV MUL DUP4 MSTORE SWAP2 PUSH1 0x20 ADD SWAP2 PUSH2 0xA53 JUMP JUMPDEST DUP3 ADD SWAP2 SWAP1 PUSH1 0x0 MSTORE PUSH1 0x20 PUSH1 0x0 KECCAK256 SWAP1 JUMPDEST DUP2 SLOAD DUP2 MSTORE SWAP1 PUSH1 0x1 ADD SWAP1 PUSH1 0x20 ADD DUP1 DUP4 GT PUSH2 0xA36 JUMPI DUP3 SWAP1 SUB PUSH1 0x1F AND DUP3 ADD SWAP2 JUMPDEST POP POP POP POP POP DUP2 MSTORE PUSH1 0x20 ADD PUSH1 0x1 DUP3 ADD DUP1 SLOAD PUSH2 0xA6C SWAP1 PUSH2 0x179E JUMP JUMPDEST DUP1 PUSH1 0x1F ADD PUSH1 0x20 DUP1 SWAP2 DIV MUL PUSH1 0x20 ADD PUSH1 0x40 MLOAD SWAP1 DUP2 ADD PUSH1 0x40 MSTORE DUP1 SWAP3 SWAP2 SWAP1 DUP2 DUP2 MSTORE PUSH1 0x20 ADD DUP3 DUP1 SLOAD PUSH2 0xA98 SWAP1 PUSH2 0x179E JUMP JUMPDEST DUP1 ISZERO PUSH2 0xAE5 JUMPI DUP1 PUSH1 0x1F LT PUSH2 0xABA JUMPI PUSH2 0x100 DUP1 DUP4 SLOAD DIV MUL DUP4 MSTORE SWAP2 PUSH1 0x20 ADD SWAP2 PUSH2 0xAE5 JUMP JUMPDEST DUP3 ADD SWAP2 SWAP1 PUSH1 0x0 MSTORE PUSH1 0x20 PUSH1 0x0 KECCAK256 SWAP1 JUMPDEST DUP2 SLOAD DUP2 MSTORE SWAP1 PUSH1 0x1 ADD SWAP1 PUSH1 0x20 ADD DUP1 DUP4 GT PUSH2 0xAC8 JUMPI DUP3 SWAP1 SUB PUSH1 0x1F AND DUP3 ADD SWAP2 JUMPDEST POP POP POP POP POP DUP2 MSTORE POP POP SWAP1 DUP1 PUSH1 0x6 ADD SLOAD SWAP1 DUP1 PUSH1 0x7 ADD SLOAD SWAP1 DUP1 PUSH1 0x8 ADD SLOAD SWAP1 DUP1 PUSH1 0x9 ADD SLOAD SWAP1 DUP1 PUSH1 0xA ADD SLOAD SWAP1 DUP1 PUSH1 0xB ADD PUSH1 0x0 SWAP1 SLOAD SWAP1 PUSH2 0x100 EXP SWAP1 DIV PUSH1 0xFF AND SWAP1 POP DUP12 JUMP JUMPDEST PUSH32 0x52454E5445520000000000000000000000000000000000000000000000000000 DUP2 JUMP JUMPDEST PUSH1 0x0 PUSH2 0xB64 PUSH1 0x0 DUP1 DUP5 DUP2 MSTORE PUSH1 0x20 ADD SWAP1 DUP2 MSTORE PUSH1 0x20 ADD PUSH1 0x0 KECCAK256 PUSH2 0xD26 JUMP JUMPDEST SWAP1 POP SWAP2 SWAP1 POP JUMP JUMPDEST PUSH2 0xB95 PUSH32 0x52454E5445520000000000000000000000000000000000000000000000000000 DUP3 PUSH2 0xC4C JUMP JUMPDEST POP JUMP JUMPDEST PUSH32 0x4F574E4552000000000000000000000000000000000000000000000000000000 DUP2 JUMP JUMPDEST PUSH2 0xBE0 DUP2 PUSH1 0x0 DUP1 DUP6 DUP2 MSTORE PUSH1 0x20 ADD SWAP1 DUP2 MSTORE PUSH1 0x20 ADD PUSH1 0x0 KECCAK256 PUSH2 0xD3B SWAP1 SWAP2 SWAP1 PUSH4 0xFFFFFFFF AND JUMP JUMPDEST ISZERO PUSH2 0xC48 JUMPI PUSH2 0xBED PUSH2 0xD6B JUMP JUMPDEST PUSH20 0xFFFFFFFFFFFFFFFFFFFFFFFFFFFFFFFFFFFFFFFF AND DUP2 PUSH20 0xFFFFFFFFFFFFFFFFFFFFFFFFFFFFFFFFFFFFFFFF AND DUP4 PUSH32 0xF6391F5C32D9C69D2A47EA670B442974B53935D1EDC7FD64EB21E047A839171B PUSH1 0x40 MLOAD PUSH1 0x40 MLOAD DUP1 SWAP2 SUB SWAP1 LOG4 JUMPDEST POP POP JUMP JUMPDEST PUSH2 0xC70 DUP2 PUSH1 0x0 DUP1 DUP6 DUP2 MSTORE PUSH1 0x20 ADD SWAP1 DUP2 MSTORE PUSH1 0x20 ADD PUSH1 0x0 KECCAK256 PUSH2 0xD73 SWAP1 SWAP2 SWAP1 PUSH4 0xFFFFFFFF AND JUMP JUMPDEST ISZERO PUSH2 0xCD8 JUMPI PUSH2 0xC7D PUSH2 0xD6B JUMP JUMPDEST PUSH20 0xFFFFFFFFFFFFFFFFFFFFFFFFFFFFFFFFFFFFFFFF AND DUP2 PUSH20 0xFFFFFFFFFFFFFFFFFFFFFFFFFFFFFFFFFFFFFFFF AND DUP4 PUSH32 0x2F8788117E7EFF1D82E926EC794901D17C78024A50270940304540A733656F0D PUSH1 0x40 MLOAD PUSH1 0x40 MLOAD DUP1 SWAP2 SUB SWAP1 LOG4 JUMPDEST POP POP JUMP JUMPDEST PUSH1 0x0 PUSH2 0xCEB DUP4 PUSH1 0x0 ADD DUP4 PUSH2 0xDA3 JUMP JUMPDEST PUSH1 0x0 SHR SWAP1 POP SWAP3 SWAP2 POP POP JUMP JUMPDEST PUSH1 0x0 PUSH2 0xD1E DUP4 PUSH1 0x0 ADD DUP4 PUSH20 0xFFFFFFFFFFFFFFFFFFFFFFFFFFFFFFFFFFFFFFFF AND PUSH1 0x0 SHL PUSH2 0xDCE JUMP JUMPDEST SWAP1 POP SWAP3 SWAP2 POP POP JUMP JUMPDEST PUSH1 0x0 PUSH2 0xD34 DUP3 PUSH1 0x0 ADD PUSH2 0xDF1 JUMP JUMPDEST SWAP1 POP SWAP2 SWAP1 POP JUMP JUMPDEST PUSH1 0x0 PUSH2 0xD63 DUP4 PUSH1 0x0 ADD DUP4 PUSH20 0xFFFFFFFFFFFFFFFFFFFFFFFFFFFFFFFFFFFFFFFF AND PUSH1 0x0 SHL PUSH2 0xE02 JUMP JUMPDEST SWAP1 POP SWAP3 SWAP2 POP POP JUMP JUMPDEST PUSH1 0x0 CALLER SWAP1 POP SWAP1 JUMP JUMPDEST PUSH1 0x0 PUSH2 0xD9B DUP4 PUSH1 0x0 ADD DUP4 PUSH20 0xFFFFFFFFFFFFFFFFFFFFFFFFFFFFFFFFFFFFFFFF AND PUSH1 0x0 SHL PUSH2 0xF16 JUMP JUMPDEST SWAP1 POP SWAP3 SWAP2 POP POP JUMP JUMPDEST PUSH1 0x0 DUP3 PUSH1 0x0 ADD DUP3 DUP2 SLOAD DUP2 LT PUSH2 0xDBB JUMPI PUSH2 0xDBA PUSH2 0x1906 JUMP JUMPDEST JUMPDEST SWAP1 PUSH1 0x0 MSTORE PUSH1 0x20 PUSH1 0x0 KECCAK256 ADD SLOAD SWAP1 POP SWAP3 SWAP2 POP POP JUMP JUMPDEST PUSH1 0x0 DUP1 DUP4 PUSH1 0x1 ADD PUSH1 0x0 DUP5 DUP2 MSTORE PUSH1 0x20 ADD SWAP1 DUP2 MSTORE PUSH1 0x20 ADD PUSH1 0x0 KECCAK256 SLOAD EQ ISZERO SWAP1 POP SWAP3 SWAP2 POP POP JUMP JUMPDEST PUSH1 0x0 DUP2 PUSH1 0x0 ADD DUP1 SLOAD SWAP1 POP SWAP1 POP SWAP2 SWAP1 POP JUMP JUMPDEST PUSH1 0x0 DUP1 DUP4 PUSH1 0x1 ADD PUSH1 0x0 DUP5 DUP2 MSTORE PUSH1 0x20 ADD SWAP1 DUP2 MSTORE PUSH1 0x20 ADD PUSH1 0x0 KECCAK256 SLOAD SWAP1 POP PUSH1 0x0 DUP2 EQ PUSH2 0xF0A JUMPI PUSH1 0x0 PUSH1 0x1 DUP3 PUSH2 0xE34 SWAP2 SWAP1 PUSH2 0x168C JUMP JUMPDEST SWAP1 POP PUSH1 0x0 PUSH1 0x1 DUP7 PUSH1 0x0 ADD DUP1 SLOAD SWAP1 POP PUSH2 0xE4C SWAP2 SWAP1 PUSH2 0x168C JUMP JUMPDEST SWAP1 POP DUP2 DUP2 EQ PUSH2 0xEBB JUMPI PUSH1 0x0 DUP7 PUSH1 0x0 ADD DUP3 DUP2 SLOAD DUP2 LT PUSH2 0xE6D JUMPI PUSH2 0xE6C PUSH2 0x1906 JUMP JUMPDEST JUMPDEST SWAP1 PUSH1 0x0 MSTORE PUSH1 0x20 PUSH1 0x0 KECCAK256 ADD SLOAD SWAP1 POP DUP1 DUP8 PUSH1 0x0 ADD DUP5 DUP2 SLOAD DUP2 LT PUSH2 0xE91 JUMPI PUSH2 0xE90 PUSH2 0x1906 JUMP JUMPDEST JUMPDEST SWAP1 PUSH1 0x0 MSTORE PUSH1 0x20 PUSH1 0x0 KECCAK256 ADD DUP2 SWAP1 SSTORE POP DUP4 DUP8 PUSH1 0x1 ADD PUSH1 0x0 DUP4 DUP2 MSTORE PUSH1 0x20 ADD SWAP1 DUP2 MSTORE PUSH1 0x20 ADD PUSH1 0x0 KECCAK256 DUP2 SWAP1 SSTORE POP POP JUMPDEST DUP6 PUSH1 0x0 ADD DUP1 SLOAD DUP1 PUSH2 0xECF JUMPI PUSH2 0xECE PUSH2 0x18D7 JUMP JUMPDEST JUMPDEST PUSH1 0x1 SWAP1 SUB DUP2 DUP2 SWAP1 PUSH1 0x0 MSTORE PUSH1 0x20 PUSH1 0x0 KECCAK256 ADD PUSH1 0x0 SWAP1 SSTORE SWAP1 SSTORE DUP6 PUSH1 0x1 ADD PUSH1 0x0 DUP7 DUP2 MSTORE PUSH1 0x20 ADD SWAP1 DUP2 MSTORE PUSH1 0x20 ADD PUSH1 0x0 KECCAK256 PUSH1 0x0 SWAP1 SSTORE PUSH1 0x1 SWAP4 POP POP POP POP PUSH2 0xF10 JUMP JUMPDEST PUSH1 0x0 SWAP2 POP POP JUMPDEST SWAP3 SWAP2 POP POP JUMP JUMPDEST PUSH1 0x0 PUSH2 0xF22 DUP4 DUP4 PUSH2 0xDCE JUMP JUMPDEST PUSH2 0xF7B JUMPI DUP3 PUSH1 0x0 ADD DUP3 SWAP1 DUP1 PUSH1 0x1 DUP2 SLOAD ADD DUP1 DUP3 SSTORE DUP1 SWAP2 POP POP PUSH1 0x1 SWAP1 SUB SWAP1 PUSH1 0x0 MSTORE PUSH1 0x20 PUSH1 0x0 KECCAK256 ADD PUSH1 0x0 SWAP1 SWAP2 SWAP1 SWAP2 SWAP1 SWAP2 POP SSTORE DUP3 PUSH1 0x0 ADD DUP1 SLOAD SWAP1 POP DUP4 PUSH1 0x1 ADD PUSH1 0x0 DUP5 DUP2 MSTORE PUSH1 0x20 ADD SWAP1 DUP2 MSTORE PUSH1 0x20 ADD PUSH1 0x0 KECCAK256 DUP2 SWAP1 SSTORE POP PUSH1 0x1 SWAP1 POP PUSH2 0xF80 JUMP JUMPDEST PUSH1 0x0 SWAP1 POP JUMPDEST SWAP3 SWAP2 POP POP JUMP JUMPDEST DUP3 DUP1 SLOAD PUSH2 0xF92 SWAP1 PUSH2 0x179E JUMP JUMPDEST SWAP1 PUSH1 0x0 MSTORE PUSH1 0x20 PUSH1 0x0 KECCAK256 SWAP1 PUSH1 0x1F ADD PUSH1 0x20 SWAP1 DIV DUP2 ADD SWAP3 DUP3 PUSH2 0xFB4 JUMPI PUSH1 0x0 DUP6 SSTORE PUSH2 0xFFB JUMP JUMPDEST DUP3 PUSH1 0x1F LT PUSH2 0xFCD JUMPI DUP1 MLOAD PUSH1 0xFF NOT AND DUP4 DUP1 ADD OR DUP6 SSTORE PUSH2 0xFFB JUMP JUMPDEST DUP3 DUP1 ADD PUSH1 0x1 ADD DUP6 SSTORE DUP3 ISZERO PUSH2 0xFFB JUMPI SWAP2 DUP3 ADD JUMPDEST DUP3 DUP2 GT ISZERO PUSH2 0xFFA JUMPI DUP3 MLOAD DUP3 SSTORE SWAP2 PUSH1 0x20 ADD SWAP2 SWAP1 PUSH1 0x1 ADD SWAP1 PUSH2 0xFDF JUMP JUMPDEST JUMPDEST POP SWAP1 POP PUSH2 0x1008 SWAP2 SWAP1 PUSH2 0x100C JUMP JUMPDEST POP SWAP1 JUMP JUMPDEST JUMPDEST DUP1 DUP3 GT ISZERO PUSH2 0x1025 JUMPI PUSH1 0x0 DUP2 PUSH1 0x0 SWAP1 SSTORE POP PUSH1 0x1 ADD PUSH2 0x100D JUMP JUMPDEST POP SWAP1 JUMP JUMPDEST PUSH1 0x0 PUSH2 0x103C PUSH2 0x1037 DUP5 PUSH2 0x162E JUMP JUMPDEST PUSH2 0x1609 JUMP JUMPDEST SWAP1 POP DUP3 DUP2 MSTORE PUSH1 0x20 DUP2 ADD DUP5 DUP5 DUP5 ADD GT ISZERO PUSH2 0x1058 JUMPI PUSH2 0x1057 PUSH2 0x1973 JUMP JUMPDEST JUMPDEST PUSH2 0x1063 DUP5 DUP3 DUP6 PUSH2 0x175C JUMP JUMPDEST POP SWAP4 SWAP3 POP POP POP JUMP JUMPDEST PUSH1 0x0 DUP2 CALLDATALOAD SWAP1 POP PUSH2 0x107A DUP2 PUSH2 0x1A33 JUMP JUMPDEST SWAP3 SWAP2 POP POP JUMP JUMPDEST PUSH1 0x0 DUP2 CALLDATALOAD SWAP1 POP PUSH2 0x108F DUP2 PUSH2 0x1A4A JUMP JUMPDEST SWAP3 SWAP2 POP POP JUMP JUMPDEST PUSH1 0x0 DUP2 CALLDATALOAD SWAP1 POP PUSH2 0x10A4 DUP2 PUSH2 0x1A61 JUMP JUMPDEST SWAP3 SWAP2 POP POP JUMP JUMPDEST PUSH1 0x0 DUP3 PUSH1 0x1F DUP4 ADD SLT PUSH2 0x10BF JUMPI PUSH2 0x10BE PUSH2 0x1964 JUMP JUMPDEST JUMPDEST DUP2 CALLDATALOAD PUSH2 0x10CF DUP5 DUP3 PUSH1 0x20 DUP7 ADD PUSH2 0x1029 JUMP JUMPDEST SWAP2 POP POP SWAP3 SWAP2 POP POP JUMP JUMPDEST PUSH1 0x0 PUSH1 0x40 DUP3 DUP5 SUB SLT ISZERO PUSH2 0x10EE JUMPI PUSH2 0x10ED PUSH2 0x1969 JUMP JUMPDEST JUMPDEST PUSH2 0x10F8 PUSH1 0x40 PUSH2 0x1609 JUMP JUMPDEST SWAP1 POP PUSH1 0x0 DUP3 ADD CALLDATALOAD PUSH8 0xFFFFFFFFFFFFFFFF DUP2 GT ISZERO PUSH2 0x1118 JUMPI PUSH2 0x1117 PUSH2 0x196E JUMP JUMPDEST JUMPDEST PUSH2 0x1124 DUP5 DUP3 DUP6 ADD PUSH2 0x10AA JUMP JUMPDEST PUSH1 0x0 DUP4 ADD MSTORE POP PUSH1 0x20 DUP3 ADD CALLDATALOAD PUSH8 0xFFFFFFFFFFFFFFFF DUP2 GT ISZERO PUSH2 0x1148 JUMPI PUSH2 0x1147 PUSH2 0x196E JUMP JUMPDEST JUMPDEST PUSH2 0x1154 DUP5 DUP3 DUP6 ADD PUSH2 0x10AA JUMP JUMPDEST PUSH1 0x20 DUP4 ADD MSTORE POP SWAP3 SWAP2 POP POP JUMP JUMPDEST PUSH1 0x0 DUP2 CALLDATALOAD SWAP1 POP PUSH2 0x116F DUP2 PUSH2 0x1A71 JUMP JUMPDEST SWAP3 SWAP2 POP POP JUMP JUMPDEST PUSH1 0x0 PUSH1 0x20 DUP3 DUP5 SUB SLT ISZERO PUSH2 0x118B JUMPI PUSH2 0x118A PUSH2 0x197D JUMP JUMPDEST JUMPDEST PUSH1 0x0 PUSH2 0x1199 DUP5 DUP3 DUP6 ADD PUSH2 0x106B JUMP JUMPDEST SWAP2 POP POP SWAP3 SWAP2 POP POP JUMP JUMPDEST PUSH1 0x0 PUSH1 0x20 DUP3 DUP5 SUB SLT ISZERO PUSH2 0x11B8 JUMPI PUSH2 0x11B7 PUSH2 0x197D JUMP JUMPDEST JUMPDEST PUSH1 0x0 PUSH2 0x11C6 DUP5 DUP3 DUP6 ADD PUSH2 0x1080 JUMP JUMPDEST SWAP2 POP POP SWAP3 SWAP2 POP POP JUMP JUMPDEST PUSH1 0x0 DUP1 PUSH1 0x40 DUP4 DUP6 SUB SLT ISZERO PUSH2 0x11E6 JUMPI PUSH2 0x11E5 PUSH2 0x197D JUMP JUMPDEST JUMPDEST PUSH1 0x0 PUSH2 0x11F4 DUP6 DUP3 DUP7 ADD PUSH2 0x1080 JUMP JUMPDEST SWAP3 POP POP PUSH1 0x20 PUSH2 0x1205 DUP6 DUP3 DUP7 ADD PUSH2 0x106B JUMP JUMPDEST SWAP2 POP POP SWAP3 POP SWAP3 SWAP1 POP JUMP JUMPDEST PUSH1 0x0 DUP1 PUSH1 0x0 DUP1 PUSH1 0x0 DUP1 PUSH1 0x0 DUP1 PUSH2 0x100 DUP10 DUP12 SUB SLT ISZERO PUSH2 0x1230 JUMPI PUSH2 0x122F PUSH2 0x197D JUMP JUMPDEST JUMPDEST PUSH1 0x0 PUSH2 0x123E DUP12 DUP3 DUP13 ADD PUSH2 0x1080 JUMP JUMPDEST SWAP9 POP POP PUSH1 0x20 PUSH2 0x124F DUP12 DUP3 DUP13 ADD PUSH2 0x1080 JUMP JUMPDEST SWAP8 POP POP PUSH1 0x40 PUSH2 0x1260 DUP12 DUP3 DUP13 ADD PUSH2 0x1095 JUMP JUMPDEST SWAP7 POP POP PUSH1 0x60 DUP10 ADD CALLDATALOAD PUSH8 0xFFFFFFFFFFFFFFFF DUP2 GT ISZERO PUSH2 0x1281 JUMPI PUSH2 0x1280 PUSH2 0x1978 JUMP JUMPDEST JUMPDEST PUSH2 0x128D DUP12 DUP3 DUP13 ADD PUSH2 0x10D8 JUMP JUMPDEST SWAP6 POP POP PUSH1 0x80 PUSH2 0x129E DUP12 DUP3 DUP13 ADD PUSH2 0x1160 JUMP JUMPDEST SWAP5 POP POP PUSH1 0xA0 PUSH2 0x12AF DUP12 DUP3 DUP13 ADD PUSH2 0x1080 JUMP JUMPDEST SWAP4 POP POP PUSH1 0xC0 PUSH2 0x12C0 DUP12 DUP3 DUP13 ADD PUSH2 0x1160 JUMP JUMPDEST SWAP3 POP POP PUSH1 0xE0 PUSH2 0x12D1 DUP12 DUP3 DUP13 ADD PUSH2 0x1160 JUMP JUMPDEST SWAP2 POP POP SWAP3 SWAP6 SWAP9 POP SWAP3 SWAP6 SWAP9 SWAP1 SWAP4 SWAP7 POP JUMP JUMPDEST PUSH1 0x0 DUP1 PUSH1 0x40 DUP4 DUP6 SUB SLT ISZERO PUSH2 0x12F8 JUMPI PUSH2 0x12F7 PUSH2 0x197D JUMP JUMPDEST JUMPDEST PUSH1 0x0 PUSH2 0x1306 DUP6 DUP3 DUP7 ADD PUSH2 0x1080 JUMP JUMPDEST SWAP3 POP POP PUSH1 0x20 PUSH2 0x1317 DUP6 DUP3 DUP7 ADD PUSH2 0x1160 JUMP JUMPDEST SWAP2 POP POP SWAP3 POP SWAP3 SWAP1 POP JUMP JUMPDEST PUSH1 0x0 PUSH1 0x20 DUP3 DUP5 SUB SLT ISZERO PUSH2 0x1337 JUMPI PUSH2 0x1336 PUSH2 0x197D JUMP JUMPDEST JUMPDEST PUSH1 0x0 PUSH2 0x1345 DUP5 DUP3 DUP6 ADD PUSH2 0x1160 JUMP JUMPDEST SWAP2 POP POP SWAP3 SWAP2 POP POP JUMP JUMPDEST PUSH1 0x0 DUP1 PUSH1 0x40 DUP4 DUP6 SUB SLT ISZERO PUSH2 0x1365 JUMPI PUSH2 0x1364 PUSH2 0x197D JUMP JUMPDEST JUMPDEST PUSH1 0x0 PUSH2 0x1373 DUP6 DUP3 DUP7 ADD PUSH2 0x1160 JUMP JUMPDEST SWAP3 POP POP PUSH1 0x20 PUSH2 0x1384 DUP6 DUP3 DUP7 ADD PUSH2 0x1160 JUMP JUMPDEST SWAP2 POP POP SWAP3 POP SWAP3 SWAP1 POP JUMP JUMPDEST PUSH2 0x1397 DUP2 PUSH2 0x16C0 JUMP JUMPDEST DUP3 MSTORE POP POP JUMP JUMPDEST PUSH2 0x13A6 DUP2 PUSH2 0x16D2 JUMP JUMPDEST DUP3 MSTORE POP POP JUMP JUMPDEST PUSH2 0x13B5 DUP2 PUSH2 0x16DE JUMP JUMPDEST DUP3 MSTORE POP POP JUMP JUMPDEST PUSH2 0x13C4 DUP2 PUSH2 0x1738 JUMP JUMPDEST DUP3 MSTORE POP POP JUMP JUMPDEST PUSH2 0x13D3 DUP2 PUSH2 0x174A JUMP JUMPDEST DUP3 MSTORE POP POP JUMP JUMPDEST PUSH1 0x0 PUSH2 0x13E4 DUP3 PUSH2 0x165F JUMP JUMPDEST PUSH2 0x13EE DUP2 DUP6 PUSH2 0x166A JUMP JUMPDEST SWAP4 POP PUSH2 0x13FE DUP2 DUP6 PUSH1 0x20 DUP7 ADD PUSH2 0x176B JUMP JUMPDEST PUSH2 0x1407 DUP2 PUSH2 0x1982 JUMP JUMPDEST DUP5 ADD SWAP2 POP POP SWAP3 SWAP2 POP POP JUMP JUMPDEST PUSH1 0x0 PUSH2 0x141F PUSH1 0x15 DUP4 PUSH2 0x167B JUMP JUMPDEST SWAP2 POP PUSH2 0x142A DUP3 PUSH2 0x1993 JUMP JUMPDEST PUSH1 0x20 DUP3 ADD SWAP1 POP SWAP2 SWAP1 POP JUMP JUMPDEST PUSH1 0x0 PUSH2 0x1442 PUSH1 0x29 DUP4 PUSH2 0x167B JUMP JUMPDEST SWAP2 POP PUSH2 0x144D DUP3 PUSH2 0x19BC JUMP JUMPDEST PUSH1 0x40 DUP3 ADD SWAP1 POP SWAP2 SWAP1 POP JUMP JUMPDEST PUSH1 0x0 PUSH1 0x40 DUP4 ADD PUSH1 0x0 DUP4 ADD MLOAD DUP5 DUP3 SUB PUSH1 0x0 DUP7 ADD MSTORE PUSH2 0x1475 DUP3 DUP3 PUSH2 0x13D9 JUMP JUMPDEST SWAP2 POP POP PUSH1 0x20 DUP4 ADD MLOAD DUP5 DUP3 SUB PUSH1 0x20 DUP7 ADD MSTORE PUSH2 0x148F DUP3 DUP3 PUSH2 0x13D9 JUMP JUMPDEST SWAP2 POP POP DUP1 SWAP2 POP POP SWAP3 SWAP2 POP POP JUMP JUMPDEST PUSH2 0x14A5 DUP2 PUSH2 0x172E JUMP JUMPDEST DUP3 MSTORE POP POP JUMP JUMPDEST PUSH1 0x0 PUSH1 0x20 DUP3 ADD SWAP1 POP PUSH2 0x14C0 PUSH1 0x0 DUP4 ADD DUP5 PUSH2 0x138E JUMP JUMPDEST SWAP3 SWAP2 POP POP JUMP JUMPDEST PUSH1 0x0 PUSH1 0x20 DUP3 ADD SWAP1 POP PUSH2 0x14DB PUSH1 0x0 DUP4 ADD DUP5 PUSH2 0x139D JUMP JUMPDEST SWAP3 SWAP2 POP POP JUMP JUMPDEST PUSH1 0x0 PUSH1 0x20 DUP3 ADD SWAP1 POP PUSH2 0x14F6 PUSH1 0x0 DUP4 ADD DUP5 PUSH2 0x13AC JUMP JUMPDEST SWAP3 SWAP2 POP POP JUMP JUMPDEST PUSH1 0x0 PUSH1 0x20 DUP3 ADD SWAP1 POP DUP2 DUP2 SUB PUSH1 0x0 DUP4 ADD MSTORE PUSH2 0x1515 DUP2 PUSH2 0x1412 JUMP JUMPDEST SWAP1 POP SWAP2 SWAP1 POP JUMP JUMPDEST PUSH1 0x0 PUSH1 0x20 DUP3 ADD SWAP1 POP DUP2 DUP2 SUB PUSH1 0x0 DUP4 ADD MSTORE PUSH2 0x1535 DUP2 PUSH2 0x1435 JUMP JUMPDEST SWAP1 POP SWAP2 SWAP1 POP JUMP JUMPDEST PUSH1 0x0 PUSH1 0x20 DUP3 ADD SWAP1 POP PUSH2 0x1551 PUSH1 0x0 DUP4 ADD DUP5 PUSH2 0x149C JUMP JUMPDEST SWAP3 SWAP2 POP POP JUMP JUMPDEST PUSH1 0x0 PUSH2 0x160 DUP3 ADD SWAP1 POP PUSH2 0x156D PUSH1 0x0 DUP4 ADD DUP15 PUSH2 0x149C JUMP JUMPDEST PUSH2 0x157A PUSH1 0x20 DUP4 ADD DUP14 PUSH2 0x13AC JUMP JUMPDEST PUSH2 0x1587 PUSH1 0x40 DUP4 ADD DUP13 PUSH2 0x13AC JUMP JUMPDEST PUSH2 0x1594 PUSH1 0x60 DUP4 ADD DUP12 PUSH2 0x13CA JUMP JUMPDEST DUP2 DUP2 SUB PUSH1 0x80 DUP4 ADD MSTORE PUSH2 0x15A6 DUP2 DUP11 PUSH2 0x1458 JUMP JUMPDEST SWAP1 POP PUSH2 0x15B5 PUSH1 0xA0 DUP4 ADD DUP10 PUSH2 0x149C JUMP JUMPDEST PUSH2 0x15C2 PUSH1 0xC0 DUP4 ADD DUP9 PUSH2 0x13AC JUMP JUMPDEST PUSH2 0x15CF PUSH1 0xE0 DUP4 ADD DUP8 PUSH2 0x149C JUMP JUMPDEST PUSH2 0x15DD PUSH2 0x100 DUP4 ADD DUP7 PUSH2 0x149C JUMP JUMPDEST PUSH2 0x15EB PUSH2 0x120 DUP4 ADD DUP6 PUSH2 0x149C JUMP JUMPDEST PUSH2 0x15F9 PUSH2 0x140 DUP4 ADD DUP5 PUSH2 0x13BB JUMP JUMPDEST SWAP13 SWAP12 POP POP POP POP POP POP POP POP POP POP POP POP JUMP JUMPDEST PUSH1 0x0 PUSH2 0x1613 PUSH2 0x1624 JUMP JUMPDEST SWAP1 POP PUSH2 0x161F DUP3 DUP3 PUSH2 0x17D0 JUMP JUMPDEST SWAP2 SWAP1 POP JUMP JUMPDEST PUSH1 0x0 PUSH1 0x40 MLOAD SWAP1 POP SWAP1 JUMP JUMPDEST PUSH1 0x0 PUSH8 0xFFFFFFFFFFFFFFFF DUP3 GT ISZERO PUSH2 0x1649 JUMPI PUSH2 0x1648 PUSH2 0x1935 JUMP JUMPDEST JUMPDEST PUSH2 0x1652 DUP3 PUSH2 0x1982 JUMP JUMPDEST SWAP1 POP PUSH1 0x20 DUP2 ADD SWAP1 POP SWAP2 SWAP1 POP JUMP JUMPDEST PUSH1 0x0 DUP2 MLOAD SWAP1 POP SWAP2 SWAP1 POP JUMP JUMPDEST PUSH1 0x0 DUP3 DUP3 MSTORE PUSH1 0x20 DUP3 ADD SWAP1 POP SWAP3 SWAP2 POP POP JUMP JUMPDEST PUSH1 0x0 DUP3 DUP3 MSTORE PUSH1 0x20 DUP3 ADD SWAP1 POP SWAP3 SWAP2 POP POP JUMP JUMPDEST PUSH1 0x0 PUSH2 0x1697 DUP3 PUSH2 0x172E JUMP JUMPDEST SWAP2 POP PUSH2 0x16A2 DUP4 PUSH2 0x172E JUMP JUMPDEST SWAP3 POP DUP3 DUP3 LT ISZERO PUSH2 0x16B5 JUMPI PUSH2 0x16B4 PUSH2 0x184A JUMP JUMPDEST JUMPDEST DUP3 DUP3 SUB SWAP1 POP SWAP3 SWAP2 POP POP JUMP JUMPDEST PUSH1 0x0 PUSH2 0x16CB DUP3 PUSH2 0x170E JUMP JUMPDEST SWAP1 POP SWAP2 SWAP1 POP JUMP JUMPDEST PUSH1 0x0 DUP2 ISZERO ISZERO SWAP1 POP SWAP2 SWAP1 POP JUMP JUMPDEST PUSH1 0x0 DUP2 SWAP1 POP SWAP2 SWAP1 POP JUMP JUMPDEST PUSH1 0x0 DUP2 SWAP1 POP PUSH2 0x16F6 DUP3 PUSH2 0x1A0B JUMP JUMPDEST SWAP2 SWAP1 POP JUMP JUMPDEST PUSH1 0x0 DUP2 SWAP1 POP PUSH2 0x1709 DUP3 PUSH2 0x1A1F JUMP JUMPDEST SWAP2 SWAP1 POP JUMP JUMPDEST PUSH1 0x0 PUSH20 0xFFFFFFFFFFFFFFFFFFFFFFFFFFFFFFFFFFFFFFFF DUP3 AND SWAP1 POP SWAP2 SWAP1 POP JUMP JUMPDEST PUSH1 0x0 DUP2 SWAP1 POP SWAP2 SWAP1 POP JUMP JUMPDEST PUSH1 0x0 PUSH2 0x1743 DUP3 PUSH2 0x16E8 JUMP JUMPDEST SWAP1 POP SWAP2 SWAP1 POP JUMP JUMPDEST PUSH1 0x0 PUSH2 0x1755 DUP3 PUSH2 0x16FB JUMP JUMPDEST SWAP1 POP SWAP2 SWAP1 POP JUMP JUMPDEST DUP3 DUP2 DUP4 CALLDATACOPY PUSH1 0x0 DUP4 DUP4 ADD MSTORE POP POP POP JUMP JUMPDEST PUSH1 0x0 JUMPDEST DUP4 DUP2 LT ISZERO PUSH2 0x1789 JUMPI DUP1 DUP3 ADD MLOAD DUP2 DUP5 ADD MSTORE PUSH1 0x20 DUP2 ADD SWAP1 POP PUSH2 0x176E JUMP JUMPDEST DUP4 DUP2 GT ISZERO PUSH2 0x1798 JUMPI PUSH1 0x0 DUP5 DUP5 ADD MSTORE JUMPDEST POP POP POP POP JUMP JUMPDEST PUSH1 0x0 PUSH1 0x2 DUP3 DIV SWAP1 POP PUSH1 0x1 DUP3 AND DUP1 PUSH2 0x17B6 JUMPI PUSH1 0x7F DUP3 AND SWAP2 POP JUMPDEST PUSH1 0x20 DUP3 LT DUP2 EQ ISZERO PUSH2 0x17CA JUMPI PUSH2 0x17C9 PUSH2 0x18A8 JUMP JUMPDEST JUMPDEST POP SWAP2 SWAP1 POP JUMP JUMPDEST PUSH2 0x17D9 DUP3 PUSH2 0x1982 JUMP JUMPDEST DUP2 ADD DUP2 DUP2 LT PUSH8 0xFFFFFFFFFFFFFFFF DUP3 GT OR ISZERO PUSH2 0x17F8 JUMPI PUSH2 0x17F7 PUSH2 0x1935 JUMP JUMPDEST JUMPDEST DUP1 PUSH1 0x40 MSTORE POP POP POP JUMP JUMPDEST PUSH1 0x0 PUSH2 0x180C DUP3 PUSH2 0x172E JUMP JUMPDEST SWAP2 POP PUSH32 0xFFFFFFFFFFFFFFFFFFFFFFFFFFFFFFFFFFFFFFFFFFFFFFFFFFFFFFFFFFFFFFFF DUP3 EQ ISZERO PUSH2 0x183F JUMPI PUSH2 0x183E PUSH2 0x184A JUMP JUMPDEST JUMPDEST PUSH1 0x1 DUP3 ADD SWAP1 POP SWAP2 SWAP1 POP JUMP JUMPDEST PUSH32 0x4E487B7100000000000000000000000000000000000000000000000000000000 PUSH1 0x0 MSTORE PUSH1 0x11 PUSH1 0x4 MSTORE PUSH1 0x24 PUSH1 0x0 REVERT JUMPDEST PUSH32 0x4E487B7100000000000000000000000000000000000000000000000000000000 PUSH1 0x0 MSTORE PUSH1 0x21 PUSH1 0x4 MSTORE PUSH1 0x24 PUSH1 0x0 REVERT JUMPDEST PUSH32 0x4E487B7100000000000000000000000000000000000000000000000000000000 PUSH1 0x0 MSTORE PUSH1 0x22 PUSH1 0x4 MSTORE PUSH1 0x24 PUSH1 0x0 REVERT JUMPDEST PUSH32 0x4E487B7100000000000000000000000000000000000000000000000000000000 PUSH1 0x0 MSTORE PUSH1 0x31 PUSH1 0x4 MSTORE PUSH1 0x24 PUSH1 0x0 REVERT JUMPDEST PUSH32 0x4E487B7100000000000000000000000000000000000000000000000000000000 PUSH1 0x0 MSTORE PUSH1 0x32 PUSH1 0x4 MSTORE PUSH1 0x24 PUSH1 0x0 REVERT JUMPDEST PUSH32 0x4E487B7100000000000000000000000000000000000000000000000000000000 PUSH1 0x0 MSTORE PUSH1 0x41 PUSH1 0x4 MSTORE PUSH1 0x24 PUSH1 0x0 REVERT JUMPDEST PUSH1 0x0 DUP1 REVERT JUMPDEST PUSH1 0x0 DUP1 REVERT JUMPDEST PUSH1 0x0 DUP1 REVERT JUMPDEST PUSH1 0x0 DUP1 REVERT JUMPDEST PUSH1 0x0 DUP1 REVERT JUMPDEST PUSH1 0x0 DUP1 REVERT JUMPDEST PUSH1 0x0 PUSH1 0x1F NOT PUSH1 0x1F DUP4 ADD AND SWAP1 POP SWAP2 SWAP1 POP JUMP JUMPDEST PUSH32 0x5265737472696374656420746F206F776E6572732E0000000000000000000000 PUSH1 0x0 DUP3 ADD MSTORE POP JUMP JUMPDEST PUSH32 0x54686520666F6C6C6F77696E67206361722068617320616C7265616479206265 PUSH1 0x0 DUP3 ADD MSTORE PUSH32 0x656E2061646465642E0000000000000000000000000000000000000000000000 PUSH1 0x20 DUP3 ADD MSTORE POP JUMP JUMPDEST PUSH1 0x2 DUP2 LT PUSH2 0x1A1C JUMPI PUSH2 0x1A1B PUSH2 0x1879 JUMP JUMPDEST JUMPDEST POP JUMP JUMPDEST PUSH1 0x7 DUP2 LT PUSH2 0x1A30 JUMPI PUSH2 0x1A2F PUSH2 0x1879 JUMP JUMPDEST JUMPDEST POP JUMP JUMPDEST PUSH2 0x1A3C DUP2 PUSH2 0x16C0 JUMP JUMPDEST DUP2 EQ PUSH2 0x1A47 JUMPI PUSH1 0x0 DUP1 REVERT JUMPDEST POP JUMP JUMPDEST PUSH2 0x1A53 DUP2 PUSH2 0x16DE JUMP JUMPDEST DUP2 EQ PUSH2 0x1A5E JUMPI PUSH1 0x0 DUP1 REVERT JUMPDEST POP JUMP JUMPDEST PUSH1 0x7 DUP2 LT PUSH2 0x1A6E JUMPI PUSH1 0x0 DUP1 REVERT JUMPDEST POP JUMP JUMPDEST PUSH2 0x1A7A DUP2 PUSH2 0x172E JUMP JUMPDEST DUP2 EQ PUSH2 0x1A85 JUMPI PUSH1 0x0 DUP1 REVERT JUMPDEST POP JUMP INVALID LOG2 PUSH5 0x6970667358 0x22 SLT KECCAK256 AND 0xC6 0x1F TIMESTAMP SLOAD 0xC7 LT PUSH30 0xEEF94FF1301B92830D9D187EBCBF822878A4897482E5B96F64736F6C6343 STOP ADDMOD SMOD STOP CALLER "
				},
				"gasEstimates": {
					"creation": {
						"codeDepositCost": "1369200",
						"executionCost": "6430",
						"totalCost": "1375630"
					},
					"external": {
						"OWNER_ROLE()": "439",
						"RENTER_ROLE()": "373",
						"addCar(bytes32,bytes32,uint8,(string,string),uint256,bytes32,uint256,uint256)": "infinite",
						"addOwner(address)": "infinite",
						"addRenter(address)": "infinite",
						"carCount()": "2519",
						"cars(uint256,uint256)": "infinite",
						"getCarByID(uint256)": "infinite",
						"getRoleMember(bytes32,uint256)": "infinite",
						"getRoleMemberCount(bytes32)": "2952",
						"hasRole(bytes32,address)": "infinite",
						"isOwner(address)": "infinite",
						"isRenter(address)": "infinite",
						"removeOwner(address)": "infinite",
						"removeRenter(address)": "infinite",
						"renounceOwner()": "infinite",
						"renounceRenter()": "infinite"
					}
				},
				"methodIdentifiers": {
					"OWNER_ROLE()": "e58378bb",
					"RENTER_ROLE()": "b97c9f77",
					"addCar(bytes32,bytes32,uint8,(string,string),uint256,bytes32,uint256,uint256)": "312bd3b5",
					"addOwner(address)": "7065cb48",
					"addRenter(address)": "de8b1989",
					"carCount()": "297a1f56",
					"cars(uint256,uint256)": "41500498",
					"getCarByID(uint256)": "a5139670",
					"getRoleMember(bytes32,uint256)": "9010d07c",
					"getRoleMemberCount(bytes32)": "ca15c873",
					"hasRole(bytes32,address)": "91d14854",
					"isOwner(address)": "2f54bf6e",
					"isRenter(address)": "9f2bc40e",
					"removeOwner(address)": "173825d9",
					"removeRenter(address)": "02aec3ce",
					"renounceOwner()": "28c23a45",
					"renounceRenter()": "a36a5d8d"
				}
			},
			"storageLayout": {
				"storage": [
					{
						"astId": 2041,
						"contract": "contracts/Rental.sol:Rental",
						"label": "_roles",
						"offset": 0,
						"slot": "0",
						"type": "t_mapping(t_bytes32,t_struct(AddressSet)1433_storage)"
					},
					{
						"astId": 1906,
						"contract": "contracts/Rental.sol:Rental",
						"label": "carCount",
						"offset": 0,
						"slot": "1",
						"type": "t_uint256"
					},
					{
						"astId": 1911,
						"contract": "contracts/Rental.sol:Rental",
						"label": "getCarByID",
						"offset": 0,
						"slot": "2",
						"type": "t_mapping(t_uint256,t_struct(Car)1902_storage)"
					},
					{
						"astId": 1917,
						"contract": "contracts/Rental.sol:Rental",
						"label": "cars",
						"offset": 0,
						"slot": "3",
						"type": "t_mapping(t_uint256,t_array(t_struct(Car)1902_storage)dyn_storage)"
					}
				],
				"types": {
					"t_array(t_bytes32)dyn_storage": {
						"base": "t_bytes32",
						"encoding": "dynamic_array",
						"label": "bytes32[]",
						"numberOfBytes": "32"
					},
					"t_array(t_struct(Car)1902_storage)dyn_storage": {
						"base": "t_struct(Car)1902_storage",
						"encoding": "dynamic_array",
						"label": "struct Rental.Car[]",
						"numberOfBytes": "32"
					},
					"t_bytes32": {
						"encoding": "inplace",
						"label": "bytes32",
						"numberOfBytes": "32"
					},
					"t_enum(CarStatus)1871": {
						"encoding": "inplace",
						"label": "enum Rental.CarStatus",
						"numberOfBytes": "1"
					},
					"t_enum(CarType)1868": {
						"encoding": "inplace",
						"label": "enum Rental.CarType",
						"numberOfBytes": "1"
					},
					"t_mapping(t_bytes32,t_struct(AddressSet)1433_storage)": {
						"encoding": "mapping",
						"key": "t_bytes32",
						"label": "mapping(bytes32 => struct EnumerableSet.AddressSet)",
						"numberOfBytes": "32",
						"value": "t_struct(AddressSet)1433_storage"
					},
					"t_mapping(t_bytes32,t_uint256)": {
						"encoding": "mapping",
						"key": "t_bytes32",
						"label": "mapping(bytes32 => uint256)",
						"numberOfBytes": "32",
						"value": "t_uint256"
					},
					"t_mapping(t_uint256,t_array(t_struct(Car)1902_storage)dyn_storage)": {
						"encoding": "mapping",
						"key": "t_uint256",
						"label": "mapping(uint256 => struct Rental.Car[])",
						"numberOfBytes": "32",
						"value": "t_array(t_struct(Car)1902_storage)dyn_storage"
					},
					"t_mapping(t_uint256,t_struct(Car)1902_storage)": {
						"encoding": "mapping",
						"key": "t_uint256",
						"label": "mapping(uint256 => struct Rental.Car)",
						"numberOfBytes": "32",
						"value": "t_struct(Car)1902_storage"
					},
					"t_string_storage": {
						"encoding": "bytes",
						"label": "string",
						"numberOfBytes": "32"
					},
					"t_struct(AddressSet)1433_storage": {
						"encoding": "inplace",
						"label": "struct EnumerableSet.AddressSet",
						"members": [
							{
								"astId": 1432,
								"contract": "contracts/Rental.sol:Rental",
								"label": "_inner",
								"offset": 0,
								"slot": "0",
								"type": "t_struct(Set)1132_storage"
							}
						],
						"numberOfBytes": "64"
					},
					"t_struct(Car)1902_storage": {
						"encoding": "inplace",
						"label": "struct Rental.Car",
						"members": [
							{
								"astId": 1878,
								"contract": "contracts/Rental.sol:Rental",
								"label": "id",
								"offset": 0,
								"slot": "0",
								"type": "t_uint256"
							},
							{
								"astId": 1880,
								"contract": "contracts/Rental.sol:Rental",
								"label": "name",
								"offset": 0,
								"slot": "1",
								"type": "t_bytes32"
							},
							{
								"astId": 1882,
								"contract": "contracts/Rental.sol:Rental",
								"label": "brand",
								"offset": 0,
								"slot": "2",
								"type": "t_bytes32"
							},
							{
								"astId": 1885,
								"contract": "contracts/Rental.sol:Rental",
								"label": "carType",
								"offset": 0,
								"slot": "3",
								"type": "t_enum(CarType)1868"
							},
							{
								"astId": 1888,
								"contract": "contracts/Rental.sol:Rental",
								"label": "location",
								"offset": 0,
								"slot": "4",
								"type": "t_struct(Coordinate)1876_storage"
							},
							{
								"astId": 1890,
								"contract": "contracts/Rental.sol:Rental",
								"label": "model",
								"offset": 0,
								"slot": "6",
								"type": "t_uint256"
							},
							{
								"astId": 1892,
								"contract": "contracts/Rental.sol:Rental",
								"label": "image",
								"offset": 0,
								"slot": "7",
								"type": "t_bytes32"
							},
							{
								"astId": 1894,
								"contract": "contracts/Rental.sol:Rental",
								"label": "rentCost",
								"offset": 0,
								"slot": "8",
								"type": "t_uint256"
							},
							{
								"astId": 1896,
								"contract": "contracts/Rental.sol:Rental",
								"label": "insuranceDeposit",
								"offset": 0,
								"slot": "9",
								"type": "t_uint256"
							},
							{
								"astId": 1898,
								"contract": "contracts/Rental.sol:Rental",
								"label": "timestamp",
								"offset": 0,
								"slot": "10",
								"type": "t_uint256"
							},
							{
								"astId": 1901,
								"contract": "contracts/Rental.sol:Rental",
								"label": "status",
								"offset": 0,
								"slot": "11",
								"type": "t_enum(CarStatus)1871"
							}
						],
						"numberOfBytes": "384"
					},
					"t_struct(Coordinate)1876_storage": {
						"encoding": "inplace",
						"label": "struct Rental.Coordinate",
						"members": [
							{
								"astId": 1873,
								"contract": "contracts/Rental.sol:Rental",
								"label": "latitude",
								"offset": 0,
								"slot": "0",
								"type": "t_string_storage"
							},
							{
								"astId": 1875,
								"contract": "contracts/Rental.sol:Rental",
								"label": "longitude",
								"offset": 0,
								"slot": "1",
								"type": "t_string_storage"
							}
						],
						"numberOfBytes": "64"
					},
					"t_struct(Set)1132_storage": {
						"encoding": "inplace",
						"label": "struct EnumerableSet.Set",
						"members": [
							{
								"astId": 1127,
								"contract": "contracts/Rental.sol:Rental",
								"label": "_values",
								"offset": 0,
								"slot": "0",
								"type": "t_array(t_bytes32)dyn_storage"
							},
							{
								"astId": 1131,
								"contract": "contracts/Rental.sol:Rental",
								"label": "_indexes",
								"offset": 0,
								"slot": "1",
								"type": "t_mapping(t_bytes32,t_uint256)"
							}
						],
						"numberOfBytes": "64"
					},
					"t_uint256": {
						"encoding": "inplace",
						"label": "uint256",
						"numberOfBytes": "32"
					}
				}
			},
			"userdoc": {
				"kind": "user",
				"methods": {
					"carCount()": {
						"notice": "Variables"
					}
				},
				"version": 1
			}
		}
	}
}