{
	"contracts/Rental.sol": {
		"Rental": {
			"abi": [
				{
					"inputs": [],
					"stateMutability": "nonpayable",
					"type": "constructor"
				},
				{
					"anonymous": false,
					"inputs": [
						{
							"indexed": true,
							"internalType": "bytes32",
							"name": "role",
							"type": "bytes32"
						},
						{
							"indexed": true,
							"internalType": "address",
							"name": "account",
							"type": "address"
						},
						{
							"indexed": true,
							"internalType": "address",
							"name": "sender",
							"type": "address"
						}
					],
					"name": "RoleGranted",
					"type": "event"
				},
				{
					"anonymous": false,
					"inputs": [
						{
							"indexed": true,
							"internalType": "bytes32",
							"name": "role",
							"type": "bytes32"
						},
						{
							"indexed": true,
							"internalType": "address",
							"name": "account",
							"type": "address"
						},
						{
							"indexed": true,
							"internalType": "address",
							"name": "sender",
							"type": "address"
						}
					],
					"name": "RoleRevoked",
					"type": "event"
				},
				{
					"inputs": [],
					"name": "OWNER_ROLE",
					"outputs": [
						{
							"internalType": "bytes32",
							"name": "",
							"type": "bytes32"
						}
					],
					"stateMutability": "view",
					"type": "function"
				},
				{
					"inputs": [],
					"name": "RENTER_ROLE",
					"outputs": [
						{
							"internalType": "bytes32",
							"name": "",
							"type": "bytes32"
						}
					],
					"stateMutability": "view",
					"type": "function"
				},
				{
					"inputs": [
						{
							"internalType": "uint256",
							"name": "carId",
							"type": "uint256"
						},
						{
							"internalType": "uint256",
							"name": "contractId",
							"type": "uint256"
						},
						{
							"internalType": "uint256",
							"name": "insuranceDeposit",
							"type": "uint256"
						}
					],
					"name": "addInsurancePackage",
					"outputs": [
						{
							"internalType": "bool",
							"name": "success",
							"type": "bool"
						}
					],
					"stateMutability": "nonpayable",
					"type": "function"
				},
				{
					"inputs": [
						{
							"internalType": "address",
							"name": "account",
							"type": "address"
						}
					],
					"name": "addOwner",
					"outputs": [],
					"stateMutability": "nonpayable",
					"type": "function"
				},
				{
					"inputs": [
						{
							"internalType": "uint256",
							"name": "carId",
							"type": "uint256"
						},
						{
							"components": [
								{
									"internalType": "bytes32",
									"name": "from",
									"type": "bytes32"
								},
								{
									"internalType": "bytes32",
									"name": "to",
									"type": "bytes32"
								}
							],
							"internalType": "struct Rental.Period",
							"name": "period",
							"type": "tuple"
						},
						{
							"internalType": "uint256",
							"name": "dayscount",
							"type": "uint256"
						}
					],
					"name": "addRentPeriod",
					"outputs": [
						{
							"internalType": "bool",
							"name": "success",
							"type": "bool"
						}
					],
					"stateMutability": "nonpayable",
					"type": "function"
				},
				{
					"inputs": [
						{
							"internalType": "address",
							"name": "account",
							"type": "address"
						}
					],
					"name": "addRenter",
					"outputs": [],
					"stateMutability": "nonpayable",
					"type": "function"
				},
				{
					"inputs": [
						{
							"internalType": "bytes32",
							"name": "name",
							"type": "bytes32"
						},
						{
							"internalType": "bytes32",
							"name": "brand",
							"type": "bytes32"
						},
						{
							"internalType": "enum Rental.VehicleType",
							"name": "vehicleType",
							"type": "uint8"
						},
						{
							"components": [
								{
									"internalType": "bytes",
									"name": "latitude",
									"type": "bytes"
								},
								{
									"internalType": "bytes",
									"name": "longitude",
									"type": "bytes"
								}
							],
							"internalType": "struct Rental.Coordinate",
							"name": "location",
							"type": "tuple"
						},
						{
							"internalType": "uint256",
							"name": "model",
							"type": "uint256"
						},
						{
							"internalType": "bytes32",
							"name": "image",
							"type": "bytes32"
						},
						{
							"internalType": "uint256",
							"name": "rentCost",
							"type": "uint256"
						}
					],
					"name": "addVehicle",
					"outputs": [
						{
							"internalType": "bool",
							"name": "success",
							"type": "bool"
						}
					],
					"stateMutability": "nonpayable",
					"type": "function"
				},
				{
					"inputs": [
						{
							"internalType": "uint256",
							"name": "contractId",
							"type": "uint256"
						},
						{
							"internalType": "uint256",
							"name": "carId",
							"type": "uint256"
						}
					],
					"name": "completion",
					"outputs": [
						{
							"internalType": "bool",
							"name": "success",
							"type": "bool"
						}
					],
					"stateMutability": "payable",
					"type": "function"
				},
				{
					"inputs": [
						{
							"internalType": "uint256",
							"name": "contractId",
							"type": "uint256"
						},
						{
							"internalType": "uint256",
							"name": "carId",
							"type": "uint256"
						}
					],
					"name": "confirmation",
					"outputs": [
						{
							"internalType": "bool",
							"name": "success",
							"type": "bool"
						}
					],
					"stateMutability": "payable",
					"type": "function"
				},
				{
					"inputs": [],
					"name": "contractCount",
					"outputs": [
						{
							"internalType": "uint256",
							"name": "",
							"type": "uint256"
						}
					],
					"stateMutability": "view",
					"type": "function"
				},
				{
					"inputs": [
						{
							"internalType": "uint256",
							"name": "",
							"type": "uint256"
						}
					],
					"name": "contracts",
					"outputs": [
						{
							"internalType": "address",
							"name": "id",
							"type": "address"
						},
						{
							"components": [
								{
									"internalType": "uint256",
									"name": "id",
									"type": "uint256"
								},
								{
									"internalType": "bytes32",
									"name": "name",
									"type": "bytes32"
								},
								{
									"internalType": "bytes32",
									"name": "brand",
									"type": "bytes32"
								},
								{
									"internalType": "enum Rental.VehicleType",
									"name": "vehicleType",
									"type": "uint8"
								},
								{
									"components": [
										{
											"internalType": "bytes",
											"name": "latitude",
											"type": "bytes"
										},
										{
											"internalType": "bytes",
											"name": "longitude",
											"type": "bytes"
										}
									],
									"internalType": "struct Rental.Coordinate",
									"name": "location",
									"type": "tuple"
								},
								{
									"internalType": "uint256",
									"name": "model",
									"type": "uint256"
								},
								{
									"internalType": "bytes32",
									"name": "image",
									"type": "bytes32"
								},
								{
									"internalType": "uint256",
									"name": "rentCost",
									"type": "uint256"
								},
								{
									"internalType": "enum Rental.VehicleStatus",
									"name": "status",
									"type": "uint8"
								}
							],
							"internalType": "struct Rental.Vehicle",
							"name": "selectedVehicle",
							"type": "tuple"
						},
						{
							"components": [
								{
									"internalType": "bytes32",
									"name": "from",
									"type": "bytes32"
								},
								{
									"internalType": "bytes32",
									"name": "to",
									"type": "bytes32"
								}
							],
							"internalType": "struct Rental.Period",
							"name": "period",
							"type": "tuple"
						},
						{
							"internalType": "uint256",
							"name": "totalCost",
							"type": "uint256"
						},
						{
							"internalType": "uint256",
							"name": "insuranceDeposit",
							"type": "uint256"
						},
						{
							"internalType": "uint256",
							"name": "dateOfIssuance",
							"type": "uint256"
						},
						{
							"internalType": "enum Rental.ContractStatus",
							"name": "status",
							"type": "uint8"
						}
					],
					"stateMutability": "view",
					"type": "function"
				},
				{
					"inputs": [
						{
							"internalType": "uint256",
							"name": "",
							"type": "uint256"
						}
					],
					"name": "getContractByID",
					"outputs": [
						{
							"internalType": "address",
							"name": "id",
							"type": "address"
						},
						{
							"components": [
								{
									"internalType": "uint256",
									"name": "id",
									"type": "uint256"
								},
								{
									"internalType": "bytes32",
									"name": "name",
									"type": "bytes32"
								},
								{
									"internalType": "bytes32",
									"name": "brand",
									"type": "bytes32"
								},
								{
									"internalType": "enum Rental.VehicleType",
									"name": "vehicleType",
									"type": "uint8"
								},
								{
									"components": [
										{
											"internalType": "bytes",
											"name": "latitude",
											"type": "bytes"
										},
										{
											"internalType": "bytes",
											"name": "longitude",
											"type": "bytes"
										}
									],
									"internalType": "struct Rental.Coordinate",
									"name": "location",
									"type": "tuple"
								},
								{
									"internalType": "uint256",
									"name": "model",
									"type": "uint256"
								},
								{
									"internalType": "bytes32",
									"name": "image",
									"type": "bytes32"
								},
								{
									"internalType": "uint256",
									"name": "rentCost",
									"type": "uint256"
								},
								{
									"internalType": "enum Rental.VehicleStatus",
									"name": "status",
									"type": "uint8"
								}
							],
							"internalType": "struct Rental.Vehicle",
							"name": "selectedVehicle",
							"type": "tuple"
						},
						{
							"components": [
								{
									"internalType": "bytes32",
									"name": "from",
									"type": "bytes32"
								},
								{
									"internalType": "bytes32",
									"name": "to",
									"type": "bytes32"
								}
							],
							"internalType": "struct Rental.Period",
							"name": "period",
							"type": "tuple"
						},
						{
							"internalType": "uint256",
							"name": "totalCost",
							"type": "uint256"
						},
						{
							"internalType": "uint256",
							"name": "insuranceDeposit",
							"type": "uint256"
						},
						{
							"internalType": "uint256",
							"name": "dateOfIssuance",
							"type": "uint256"
						},
						{
							"internalType": "enum Rental.ContractStatus",
							"name": "status",
							"type": "uint8"
						}
					],
					"stateMutability": "view",
					"type": "function"
				},
				{
					"inputs": [
						{
							"internalType": "bytes32",
							"name": "role",
							"type": "bytes32"
						},
						{
							"internalType": "uint256",
							"name": "index",
							"type": "uint256"
						}
					],
					"name": "getRoleMember",
					"outputs": [
						{
							"internalType": "address",
							"name": "",
							"type": "address"
						}
					],
					"stateMutability": "view",
					"type": "function"
				},
				{
					"inputs": [
						{
							"internalType": "bytes32",
							"name": "role",
							"type": "bytes32"
						}
					],
					"name": "getRoleMemberCount",
					"outputs": [
						{
							"internalType": "uint256",
							"name": "",
							"type": "uint256"
						}
					],
					"stateMutability": "view",
					"type": "function"
				},
				{
					"inputs": [
						{
							"internalType": "uint256",
							"name": "",
							"type": "uint256"
						}
					],
					"name": "getVehicleByID",
					"outputs": [
						{
							"internalType": "uint256",
							"name": "id",
							"type": "uint256"
						},
						{
							"internalType": "bytes32",
							"name": "name",
							"type": "bytes32"
						},
						{
							"internalType": "bytes32",
							"name": "brand",
							"type": "bytes32"
						},
						{
							"internalType": "enum Rental.VehicleType",
							"name": "vehicleType",
							"type": "uint8"
						},
						{
							"components": [
								{
									"internalType": "bytes",
									"name": "latitude",
									"type": "bytes"
								},
								{
									"internalType": "bytes",
									"name": "longitude",
									"type": "bytes"
								}
							],
							"internalType": "struct Rental.Coordinate",
							"name": "location",
							"type": "tuple"
						},
						{
							"internalType": "uint256",
							"name": "model",
							"type": "uint256"
						},
						{
							"internalType": "bytes32",
							"name": "image",
							"type": "bytes32"
						},
						{
							"internalType": "uint256",
							"name": "rentCost",
							"type": "uint256"
						},
						{
							"internalType": "enum Rental.VehicleStatus",
							"name": "status",
							"type": "uint8"
						}
					],
					"stateMutability": "view",
					"type": "function"
				},
				{
					"inputs": [
						{
							"internalType": "bytes32",
							"name": "role",
							"type": "bytes32"
						},
						{
							"internalType": "address",
							"name": "account",
							"type": "address"
						}
					],
					"name": "hasRole",
					"outputs": [
						{
							"internalType": "bool",
							"name": "",
							"type": "bool"
						}
					],
					"stateMutability": "view",
					"type": "function"
				},
				{
					"inputs": [
						{
							"internalType": "address",
							"name": "account",
							"type": "address"
						}
					],
					"name": "isOwner",
					"outputs": [
						{
							"internalType": "bool",
							"name": "",
							"type": "bool"
						}
					],
					"stateMutability": "view",
					"type": "function"
				},
				{
					"inputs": [
						{
							"internalType": "address",
							"name": "account",
							"type": "address"
						}
					],
					"name": "isRenter",
					"outputs": [
						{
							"internalType": "bool",
							"name": "",
							"type": "bool"
						}
					],
					"stateMutability": "view",
					"type": "function"
				},
				{
					"inputs": [
						{
							"internalType": "uint256",
							"name": "",
							"type": "uint256"
						}
					],
					"name": "paymentProcess",
					"outputs": [],
					"stateMutability": "payable",
					"type": "function"
				},
				{
					"inputs": [
						{
							"internalType": "address",
							"name": "account",
							"type": "address"
						}
					],
					"name": "removeOwner",
					"outputs": [],
					"stateMutability": "nonpayable",
					"type": "function"
				},
				{
					"inputs": [
						{
							"internalType": "address",
							"name": "account",
							"type": "address"
						}
					],
					"name": "removeRenter",
					"outputs": [],
					"stateMutability": "nonpayable",
					"type": "function"
				},
				{
					"inputs": [],
					"name": "renounceOwner",
					"outputs": [],
					"stateMutability": "nonpayable",
					"type": "function"
				},
				{
					"inputs": [],
					"name": "renounceRenter",
					"outputs": [],
					"stateMutability": "nonpayable",
					"type": "function"
				},
				{
					"inputs": [],
					"name": "vehicleCount",
					"outputs": [
						{
							"internalType": "uint256",
							"name": "",
							"type": "uint256"
						}
					],
					"stateMutability": "view",
					"type": "function"
				},
				{
					"inputs": [
						{
							"internalType": "uint256",
							"name": "",
							"type": "uint256"
						}
					],
					"name": "vehicles",
					"outputs": [
						{
							"internalType": "uint256",
							"name": "id",
							"type": "uint256"
						},
						{
							"internalType": "bytes32",
							"name": "name",
							"type": "bytes32"
						},
						{
							"internalType": "bytes32",
							"name": "brand",
							"type": "bytes32"
						},
						{
							"internalType": "enum Rental.VehicleType",
							"name": "vehicleType",
							"type": "uint8"
						},
						{
							"components": [
								{
									"internalType": "bytes",
									"name": "latitude",
									"type": "bytes"
								},
								{
									"internalType": "bytes",
									"name": "longitude",
									"type": "bytes"
								}
							],
							"internalType": "struct Rental.Coordinate",
							"name": "location",
							"type": "tuple"
						},
						{
							"internalType": "uint256",
							"name": "model",
							"type": "uint256"
						},
						{
							"internalType": "bytes32",
							"name": "image",
							"type": "bytes32"
						},
						{
							"internalType": "uint256",
							"name": "rentCost",
							"type": "uint256"
						},
						{
							"internalType": "enum Rental.VehicleStatus",
							"name": "status",
							"type": "uint8"
						}
					],
					"stateMutability": "view",
					"type": "function"
				}
			],
			"devdoc": {
				"kind": "dev",
				"methods": {
					"addInsurancePackage(uint256,uint256,uint256)": {
						"details": "The following function will be used to add insurance package to the selected vehicle. Modifiers:  - Restricted to members of the renter role.  - The selected vehicle should be available.  - The selected contract should exist."
					},
					"addOwner(address)": {
						"details": "Add an account to the owner role. Restricted to proposals."
					},
					"addRentPeriod(uint256,(bytes32,bytes32),uint256)": {
						"details": "The following function will be used to add the rent period to the selected vehicle. Modifiers:  - Restricted to members of the renter role.  - The selected vehicle should exist."
					},
					"addRenter(address)": {
						"details": "Add an account to the renter role. Restricted to proposals."
					},
					"addVehicle(bytes32,bytes32,uint8,(bytes,bytes),uint256,bytes32,uint256)": {
						"details": "The following function will be used to add Vehicles. Modifiers:  - Restricted to members of the owner role.  - Should not exist."
					},
					"completion(uint256,uint256)": {
						"details": "The following function will be used to complete the ride and return insurrance money. Modifiers:  - Restricted to members of the renter role.  - The selected vehicle should exist.  - The selected contract should exist.  - The balance of ETH in the billing account wallet should be sufficient."
					},
					"confirmation(uint256,uint256)": {
						"details": "The following function will be used for the selected vehicle and its options (sign contract).  It will include the payment process also. Modifiers:  - Restricted to members of the renter role.  - The selected vehicle should exist.  - The selected vehicle should be available.  - The selected contract should exist.  - The balance of ETH in the billing account wallet should be sufficient."
					},
					"getRoleMember(bytes32,uint256)": {
						"details": "This function will return one of the accounts that contain the 'role' attribute.  The value of the 'index' variable must be between 0 and getRoleMemberCount, excluding both numbers. There is no specific order to the people who hold roles, and the sequence in  which they appear might shift at any time. WARNING:  You need to make sure that all of your queries are performed on the same block  when you are using {getRoleMember} and {getRoleMemberCount}. For more information, take a look at the following: https://forum.openzeppelin.com/t/iterating-over-elements-on-enumerableset-in-openzeppelin-contracts/2296[forum post]"
					},
					"getRoleMemberCount(bytes32)": {
						"details": "This function returns the total number of accounts that contain the 'role' attribute. It is possible to enumerate all bearers of a role by using this method in conjunction with  the getRoleMember method."
					},
					"hasRole(bytes32,address)": {
						"details": "Returns `true` if `account` has been granted `role`."
					},
					"isOwner(address)": {
						"details": "Return `true` if the account belongs to the owner role."
					},
					"isRenter(address)": {
						"details": "Return `true` if the account belongs to the renter role."
					},
					"paymentProcess(uint256)": {
						"details": "The following function will be used to send ETH from wallet to smart contract."
					},
					"removeOwner(address)": {
						"details": "Remove an account from the owner role. Restricted to proposals."
					},
					"removeRenter(address)": {
						"details": "Remove an account from the renter role. Restricted to proposals."
					},
					"renounceOwner()": {
						"details": "Remove oneself from the leader role."
					},
					"renounceRenter()": {
						"details": "Remove oneself from the renter role."
					}
				},
				"version": 1
			},
			"evm": {
				"assembly": "    /* \"contracts/Rental.sol\":80:7998  contract Rental is Access {... */\n  mstore(0x40, 0x80)\n    /* \"contracts/Rental.sol\":1109:1110  0 */\n  0x00\n    /* \"contracts/Rental.sol\":1082:1110  uint public vehicleCount = 0 */\n  0x03\n  sstore\n    /* \"contracts/Rental.sol\":1144:1145  0 */\n  0x00\n    /* \"contracts/Rental.sol\":1116:1145  uint public contractCount = 0 */\n  0x04\n  sstore\n    /* \"contracts/Rental.sol\":1323:1340  constructor() { } */\n  callvalue\n  dup1\n  iszero\n  tag_1\n  jumpi\n  0x00\n  dup1\n  revert\ntag_1:\n  pop\n    /* \"contracts/Rental.sol\":80:7998  contract Rental is Access {... */\n  dataSize(sub_0)\n  dup1\n  dataOffset(sub_0)\n  0x00\n  codecopy\n  0x00\n  return\nstop\n\nsub_0: assembly {\n        /* \"contracts/Rental.sol\":80:7998  contract Rental is Access {... */\n      mstore(0x40, 0x80)\n      jumpi(tag_1, lt(calldatasize, 0x04))\n      shr(0xe0, calldataload(0x00))\n      dup1\n      0x8736381a\n      gt\n      tag_27\n      jumpi\n      dup1\n      0xa1a25243\n      gt\n      tag_28\n      jumpi\n      dup1\n      0xb97c9f77\n      gt\n      tag_29\n      jumpi\n      dup1\n      0xb97c9f77\n      eq\n      tag_23\n      jumpi\n      dup1\n      0xca15c873\n      eq\n      tag_24\n      jumpi\n      dup1\n      0xde8b1989\n      eq\n      tag_25\n      jumpi\n      dup1\n      0xe58378bb\n      eq\n      tag_26\n      jumpi\n      jump(tag_1)\n    tag_29:\n      dup1\n      0xa1a25243\n      eq\n      tag_20\n      jumpi\n      dup1\n      0xa36a5d8d\n      eq\n      tag_21\n      jumpi\n      dup1\n      0xb8ba95fa\n      eq\n      tag_22\n      jumpi\n      jump(tag_1)\n    tag_28:\n      dup1\n      0x8736381a\n      eq\n      tag_14\n      jumpi\n      dup1\n      0x87b50547\n      eq\n      tag_15\n      jumpi\n      dup1\n      0x9010d07c\n      eq\n      tag_16\n      jumpi\n      dup1\n      0x91d14854\n      eq\n      tag_17\n      jumpi\n      dup1\n      0x99704937\n      eq\n      tag_18\n      jumpi\n      dup1\n      0x9f2bc40e\n      eq\n      tag_19\n      jumpi\n      jump(tag_1)\n    tag_27:\n      dup1\n      0x474da79a\n      gt\n      tag_30\n      jumpi\n      dup1\n      0x474da79a\n      eq\n      tag_8\n      jumpi\n      dup1\n      0x69a8f49e\n      eq\n      tag_9\n      jumpi\n      dup1\n      0x7065cb48\n      eq\n      tag_10\n      jumpi\n      dup1\n      0x74539cd0\n      eq\n      tag_11\n      jumpi\n      dup1\n      0x79b67caa\n      eq\n      tag_12\n      jumpi\n      dup1\n      0x7b66fe2e\n      eq\n      tag_13\n      jumpi\n      jump(tag_1)\n    tag_30:\n      dup1\n      0x02aec3ce\n      eq\n      tag_2\n      jumpi\n      dup1\n      0x11060ec7\n      eq\n      tag_3\n      jumpi\n      dup1\n      0x173825d9\n      eq\n      tag_4\n      jumpi\n      dup1\n      0x28c23a45\n      eq\n      tag_5\n      jumpi\n      dup1\n      0x2f54bf6e\n      eq\n      tag_6\n      jumpi\n      dup1\n      0x37c3510a\n      eq\n      tag_7\n      jumpi\n    tag_1:\n      0x00\n      dup1\n      revert\n        /* \"contracts/Access.sol\":1533:1637  function removeRenter(address account) public virtual {... */\n    tag_2:\n      callvalue\n      dup1\n      iszero\n      tag_31\n      jumpi\n      0x00\n      dup1\n      revert\n    tag_31:\n      pop\n      tag_32\n      0x04\n      dup1\n      calldatasize\n      sub\n      dup2\n      add\n      swap1\n      tag_33\n      swap2\n      swap1\n      tag_34\n      jump\t// in\n    tag_33:\n      tag_35\n      jump\t// in\n    tag_32:\n      stop\n        /* \"contracts/Rental.sol\":3395:4065  function addVehicle(bytes32 name, bytes32 brand, VehicleType vehicleType, Coordinate memory location, uint model, bytes32 image, uint rentCost) ... */\n    tag_3:\n      callvalue\n      dup1\n      iszero\n      tag_36\n      jumpi\n      0x00\n      dup1\n      revert\n    tag_36:\n      pop\n      tag_37\n      0x04\n      dup1\n      calldatasize\n      sub\n      dup2\n      add\n      swap1\n      tag_38\n      swap2\n      swap1\n      tag_39\n      jump\t// in\n    tag_38:\n      tag_40\n      jump\t// in\n    tag_37:\n      mload(0x40)\n      tag_41\n      swap2\n      swap1\n      tag_42\n      jump\t// in\n    tag_41:\n      mload(0x40)\n      dup1\n      swap2\n      sub\n      swap1\n      return\n        /* \"contracts/Access.sol\":1720:1822  function removeOwner(address account) public virtual {... */\n    tag_4:\n      callvalue\n      dup1\n      iszero\n      tag_43\n      jumpi\n      0x00\n      dup1\n      revert\n    tag_43:\n      pop\n      tag_44\n      0x04\n      dup1\n      calldatasize\n      sub\n      dup2\n      add\n      swap1\n      tag_45\n      swap2\n      swap1\n      tag_34\n      jump\t// in\n    tag_45:\n      tag_46\n      jump\t// in\n    tag_44:\n      stop\n        /* \"contracts/Access.sol\":1879:1971  function renounceOwner() public virtual {... */\n    tag_5:\n      callvalue\n      dup1\n      iszero\n      tag_47\n      jumpi\n      0x00\n      dup1\n      revert\n    tag_47:\n      pop\n      tag_48\n      tag_49\n      jump\t// in\n    tag_48:\n      stop\n        /* \"contracts/Access.sol\":701:822  function isOwner(address account) public virtual view returns (bool) {... */\n    tag_6:\n      callvalue\n      dup1\n      iszero\n      tag_50\n      jumpi\n      0x00\n      dup1\n      revert\n    tag_50:\n      pop\n      tag_51\n      0x04\n      dup1\n      calldatasize\n      sub\n      dup2\n      add\n      swap1\n      tag_52\n      swap2\n      swap1\n      tag_34\n      jump\t// in\n    tag_52:\n      tag_53\n      jump\t// in\n    tag_51:\n      mload(0x40)\n      tag_54\n      swap2\n      swap1\n      tag_42\n      jump\t// in\n    tag_54:\n      mload(0x40)\n      dup1\n      swap2\n      sub\n      swap1\n      return\n        /* \"contracts/Rental.sol\":5280:5615  function addInsurancePackage(uint carId, uint contractId, uint insuranceDeposit)... */\n    tag_7:\n      callvalue\n      dup1\n      iszero\n      tag_55\n      jumpi\n      0x00\n      dup1\n      revert\n    tag_55:\n      pop\n      tag_56\n      0x04\n      dup1\n      calldatasize\n      sub\n      dup2\n      add\n      swap1\n      tag_57\n      swap2\n      swap1\n      tag_58\n      jump\t// in\n    tag_57:\n      tag_59\n      jump\t// in\n    tag_56:\n      mload(0x40)\n      tag_60\n      swap2\n      swap1\n      tag_42\n      jump\t// in\n    tag_60:\n      mload(0x40)\n      dup1\n      swap2\n      sub\n      swap1\n      return\n        /* \"contracts/Rental.sol\":1289:1316  Contract[] public contracts */\n    tag_8:\n      callvalue\n      dup1\n      iszero\n      tag_61\n      jumpi\n      0x00\n      dup1\n      revert\n    tag_61:\n      pop\n      tag_62\n      0x04\n      dup1\n      calldatasize\n      sub\n      dup2\n      add\n      swap1\n      tag_63\n      swap2\n      swap1\n      tag_64\n      jump\t// in\n    tag_63:\n      tag_65\n      jump\t// in\n    tag_62:\n      mload(0x40)\n      tag_66\n      swap8\n      swap7\n      swap6\n      swap5\n      swap4\n      swap3\n      swap2\n      swap1\n      tag_67\n      jump\t// in\n    tag_66:\n      mload(0x40)\n      dup1\n      swap2\n      sub\n      swap1\n      return\n        /* \"contracts/Rental.sol\":1152:1198  mapping(uint => Vehicle) public getVehicleByID */\n    tag_9:\n      callvalue\n      dup1\n      iszero\n      tag_68\n      jumpi\n      0x00\n      dup1\n      revert\n    tag_68:\n      pop\n      tag_69\n      0x04\n      dup1\n      calldatasize\n      sub\n      dup2\n      add\n      swap1\n      tag_70\n      swap2\n      swap1\n      tag_64\n      jump\t// in\n    tag_70:\n      tag_71\n      jump\t// in\n    tag_69:\n      mload(0x40)\n      tag_72\n      swap10\n      swap9\n      swap8\n      swap7\n      swap6\n      swap5\n      swap4\n      swap3\n      swap2\n      swap1\n      tag_73\n      jump\t// in\n    tag_72:\n      mload(0x40)\n      dup1\n      swap2\n      sub\n      swap1\n      return\n        /* \"contracts/Access.sol\":1313:1449  function addOwner(address account) public virtual {... */\n    tag_10:\n      callvalue\n      dup1\n      iszero\n      tag_74\n      jumpi\n      0x00\n      dup1\n      revert\n    tag_74:\n      pop\n      tag_75\n      0x04\n      dup1\n      calldatasize\n      sub\n      dup2\n      add\n      swap1\n      tag_76\n      swap2\n      swap1\n      tag_34\n      jump\t// in\n    tag_76:\n      tag_77\n      jump\t// in\n    tag_75:\n      stop\n        /* \"contracts/Rental.sol\":7946:7996  function paymentProcess(uint256) public payable {} */\n    tag_11:\n      tag_78\n      0x04\n      dup1\n      calldatasize\n      sub\n      dup2\n      add\n      swap1\n      tag_79\n      swap2\n      swap1\n      tag_64\n      jump\t// in\n    tag_79:\n      tag_80\n      jump\t// in\n    tag_78:\n      stop\n        /* \"contracts/Rental.sol\":6095:6740  function confirmation(uint contractId, uint carId) ... */\n    tag_12:\n      tag_81\n      0x04\n      dup1\n      calldatasize\n      sub\n      dup2\n      add\n      swap1\n      tag_82\n      swap2\n      swap1\n      tag_83\n      jump\t// in\n    tag_82:\n      tag_84\n      jump\t// in\n    tag_81:\n      mload(0x40)\n      tag_85\n      swap2\n      swap1\n      tag_42\n      jump\t// in\n    tag_85:\n      mload(0x40)\n      dup1\n      swap2\n      sub\n      swap1\n      return\n        /* \"contracts/Rental.sol\":1235:1283  mapping(uint => Contract) public getContractByID */\n    tag_13:\n      callvalue\n      dup1\n      iszero\n      tag_86\n      jumpi\n      0x00\n      dup1\n      revert\n    tag_86:\n      pop\n      tag_87\n      0x04\n      dup1\n      calldatasize\n      sub\n      dup2\n      add\n      swap1\n      tag_88\n      swap2\n      swap1\n      tag_64\n      jump\t// in\n    tag_88:\n      tag_89\n      jump\t// in\n    tag_87:\n      mload(0x40)\n      tag_90\n      swap8\n      swap7\n      swap6\n      swap5\n      swap4\n      swap3\n      swap2\n      swap1\n      tag_67\n      jump\t// in\n    tag_90:\n      mload(0x40)\n      dup1\n      swap2\n      sub\n      swap1\n      return\n        /* \"contracts/Rental.sol\":1116:1145  uint public contractCount = 0 */\n    tag_14:\n      callvalue\n      dup1\n      iszero\n      tag_91\n      jumpi\n      0x00\n      dup1\n      revert\n    tag_91:\n      pop\n      tag_92\n      tag_93\n      jump\t// in\n    tag_92:\n      mload(0x40)\n      tag_94\n      swap2\n      swap1\n      tag_95\n      jump\t// in\n    tag_94:\n      mload(0x40)\n      dup1\n      swap2\n      sub\n      swap1\n      return\n        /* \"contracts/Rental.sol\":7110:7832  function completion(uint contractId, uint carId) ... */\n    tag_15:\n      tag_96\n      0x04\n      dup1\n      calldatasize\n      sub\n      dup2\n      add\n      swap1\n      tag_97\n      swap2\n      swap1\n      tag_83\n      jump\t// in\n    tag_97:\n      tag_98\n      jump\t// in\n    tag_96:\n      mload(0x40)\n      tag_99\n      swap2\n      swap1\n      tag_42\n      jump\t// in\n    tag_99:\n      mload(0x40)\n      dup1\n      swap2\n      sub\n      swap1\n      return\n        /* \"contracts/utils/AccessControl.sol\":2691:2819  function getRoleMember(bytes32 role, uint256 index) public view returns (address) {... */\n    tag_16:\n      callvalue\n      dup1\n      iszero\n      tag_100\n      jumpi\n      0x00\n      dup1\n      revert\n    tag_100:\n      pop\n      tag_101\n      0x04\n      dup1\n      calldatasize\n      sub\n      dup2\n      add\n      swap1\n      tag_102\n      swap2\n      swap1\n      tag_103\n      jump\t// in\n    tag_102:\n      tag_104\n      jump\t// in\n    tag_101:\n      mload(0x40)\n      tag_105\n      swap2\n      swap1\n      tag_106\n      jump\t// in\n    tag_105:\n      mload(0x40)\n      dup1\n      swap2\n      sub\n      swap1\n      return\n        /* \"contracts/utils/AccessControl.sol\":1459:1588  function hasRole(bytes32 role, address account) public view returns (bool) {... */\n    tag_17:\n      callvalue\n      dup1\n      iszero\n      tag_107\n      jumpi\n      0x00\n      dup1\n      revert\n    tag_107:\n      pop\n      tag_108\n      0x04\n      dup1\n      calldatasize\n      sub\n      dup2\n      add\n      swap1\n      tag_109\n      swap2\n      swap1\n      tag_110\n      jump\t// in\n    tag_109:\n      tag_111\n      jump\t// in\n    tag_108:\n      mload(0x40)\n      tag_112\n      swap2\n      swap1\n      tag_42\n      jump\t// in\n    tag_112:\n      mload(0x40)\n      dup1\n      swap2\n      sub\n      swap1\n      return\n        /* \"contracts/Rental.sol\":1082:1110  uint public vehicleCount = 0 */\n    tag_18:\n      callvalue\n      dup1\n      iszero\n      tag_113\n      jumpi\n      0x00\n      dup1\n      revert\n    tag_113:\n      pop\n      tag_114\n      tag_115\n      jump\t// in\n    tag_114:\n      mload(0x40)\n      tag_116\n      swap2\n      swap1\n      tag_95\n      jump\t// in\n    tag_116:\n      mload(0x40)\n      dup1\n      swap2\n      sub\n      swap1\n      return\n        /* \"contracts/Access.sol\":898:1021  function isRenter(address account) public virtual view returns (bool) {... */\n    tag_19:\n      callvalue\n      dup1\n      iszero\n      tag_117\n      jumpi\n      0x00\n      dup1\n      revert\n    tag_117:\n      pop\n      tag_118\n      0x04\n      dup1\n      calldatasize\n      sub\n      dup2\n      add\n      swap1\n      tag_119\n      swap2\n      swap1\n      tag_34\n      jump\t// in\n    tag_119:\n      tag_120\n      jump\t// in\n    tag_118:\n      mload(0x40)\n      tag_121\n      swap2\n      swap1\n      tag_42\n      jump\t// in\n    tag_121:\n      mload(0x40)\n      dup1\n      swap2\n      sub\n      swap1\n      return\n        /* \"contracts/Rental.sol\":4305:4981  function addRentPeriod(uint carId, Period memory period, uint dayscount) ... */\n    tag_20:\n      callvalue\n      dup1\n      iszero\n      tag_122\n      jumpi\n      0x00\n      dup1\n      revert\n    tag_122:\n      pop\n      tag_123\n      0x04\n      dup1\n      calldatasize\n      sub\n      dup2\n      add\n      swap1\n      tag_124\n      swap2\n      swap1\n      tag_125\n      jump\t// in\n    tag_124:\n      tag_126\n      jump\t// in\n    tag_123:\n      mload(0x40)\n      tag_127\n      swap2\n      swap1\n      tag_42\n      jump\t// in\n    tag_127:\n      mload(0x40)\n      dup1\n      swap2\n      sub\n      swap1\n      return\n        /* \"contracts/Access.sol\":2027:2121  function renounceRenter() public virtual {... */\n    tag_21:\n      callvalue\n      dup1\n      iszero\n      tag_128\n      jumpi\n      0x00\n      dup1\n      revert\n    tag_128:\n      pop\n      tag_129\n      tag_130\n      jump\t// in\n    tag_129:\n      stop\n        /* \"contracts/Rental.sol\":1204:1229  Vehicle[] public vehicles */\n    tag_22:\n      callvalue\n      dup1\n      iszero\n      tag_131\n      jumpi\n      0x00\n      dup1\n      revert\n    tag_131:\n      pop\n      tag_132\n      0x04\n      dup1\n      calldatasize\n      sub\n      dup2\n      add\n      swap1\n      tag_133\n      swap2\n      swap1\n      tag_64\n      jump\t// in\n    tag_133:\n      tag_134\n      jump\t// in\n    tag_132:\n      mload(0x40)\n      tag_135\n      swap10\n      swap9\n      swap8\n      swap7\n      swap6\n      swap5\n      swap4\n      swap3\n      swap2\n      swap1\n      tag_73\n      jump\t// in\n    tag_135:\n      mload(0x40)\n      dup1\n      swap2\n      sub\n      swap1\n      return\n        /* \"contracts/Access.sol\":192:238  bytes32 public constant RENTER_ROLE = \"RENTER\" */\n    tag_23:\n      callvalue\n      dup1\n      iszero\n      tag_136\n      jumpi\n      0x00\n      dup1\n      revert\n    tag_136:\n      pop\n      tag_137\n      tag_138\n      jump\t// in\n    tag_137:\n      mload(0x40)\n      tag_139\n      swap2\n      swap1\n      tag_140\n      jump\t// in\n    tag_139:\n      mload(0x40)\n      dup1\n      swap2\n      sub\n      swap1\n      return\n        /* \"contracts/utils/AccessControl.sol\":1840:1957  function getRoleMemberCount(bytes32 role) public view returns (uint256) {... */\n    tag_24:\n      callvalue\n      dup1\n      iszero\n      tag_141\n      jumpi\n      0x00\n      dup1\n      revert\n    tag_141:\n      pop\n      tag_142\n      0x04\n      dup1\n      calldatasize\n      sub\n      dup2\n      add\n      swap1\n      tag_143\n      swap2\n      swap1\n      tag_144\n      jump\t// in\n    tag_143:\n      tag_145\n      jump\t// in\n    tag_142:\n      mload(0x40)\n      tag_146\n      swap2\n      swap1\n      tag_95\n      jump\t// in\n    tag_146:\n      mload(0x40)\n      dup1\n      swap2\n      sub\n      swap1\n      return\n        /* \"contracts/Access.sol\":1100:1235  function addRenter(address account) public virtual {... */\n    tag_25:\n      callvalue\n      dup1\n      iszero\n      tag_147\n      jumpi\n      0x00\n      dup1\n      revert\n    tag_147:\n      pop\n      tag_148\n      0x04\n      dup1\n      calldatasize\n      sub\n      dup2\n      add\n      swap1\n      tag_149\n      swap2\n      swap1\n      tag_34\n      jump\t// in\n    tag_149:\n      tag_150\n      jump\t// in\n    tag_148:\n      stop\n        /* \"contracts/Access.sol\":142:186  bytes32 public constant OWNER_ROLE = \"OWNER\" */\n    tag_26:\n      callvalue\n      dup1\n      iszero\n      tag_151\n      jumpi\n      0x00\n      dup1\n      revert\n    tag_151:\n      pop\n      tag_152\n      tag_153\n      jump\t// in\n    tag_152:\n      mload(0x40)\n      tag_154\n      swap2\n      swap1\n      tag_140\n      jump\t// in\n    tag_154:\n      mload(0x40)\n      dup1\n      swap2\n      sub\n      swap1\n      return\n        /* \"contracts/Access.sol\":1533:1637  function removeRenter(address account) public virtual {... */\n    tag_35:\n        /* \"contracts/Access.sol\":1597:1630  _revokeRole(RENTER_ROLE, account) */\n      tag_156\n        /* \"contracts/Access.sol\":1609:1620  RENTER_ROLE */\n      0x52454e5445520000000000000000000000000000000000000000000000000000\n        /* \"contracts/Access.sol\":1622:1629  account */\n      dup3\n        /* \"contracts/Access.sol\":1597:1608  _revokeRole */\n      tag_157\n        /* \"contracts/Access.sol\":1597:1630  _revokeRole(RENTER_ROLE, account) */\n      jump\t// in\n    tag_156:\n        /* \"contracts/Access.sol\":1533:1637  function removeRenter(address account) public virtual {... */\n      pop\n      jump\t// out\n        /* \"contracts/Rental.sol\":3395:4065  function addVehicle(bytes32 name, bytes32 brand, VehicleType vehicleType, Coordinate memory location, uint model, bytes32 image, uint rentCost) ... */\n    tag_40:\n        /* \"contracts/Rental.sol\":3613:3625  bool success */\n      0x00\n        /* \"contracts/Access.sol\":397:416  isOwner(msg.sender) */\n      tag_159\n        /* \"contracts/Access.sol\":405:415  msg.sender */\n      caller\n        /* \"contracts/Access.sol\":397:404  isOwner */\n      tag_53\n        /* \"contracts/Access.sol\":397:416  isOwner(msg.sender) */\n      jump\t// in\n    tag_159:\n        /* \"contracts/Access.sol\":389:442  require(isOwner(msg.sender), \"Restricted to owners.\") */\n      tag_160\n      jumpi\n      mload(0x40)\n      0x08c379a000000000000000000000000000000000000000000000000000000000\n      dup2\n      mstore\n      0x04\n      add\n      tag_161\n      swap1\n      tag_162\n      jump\t// in\n    tag_161:\n      mload(0x40)\n      dup1\n      swap2\n      sub\n      swap1\n      revert\n    tag_160:\n        /* \"contracts/Rental.sol\":1517:1518  1 */\n      0x01\n        /* \"contracts/Rental.sol\":1504:1516  vehicleCount */\n      sload(0x03)\n        /* \"contracts/Rental.sol\":1504:1518  vehicleCount+1 */\n      tag_164\n      swap2\n      swap1\n      tag_165\n      jump\t// in\n    tag_164:\n        /* \"contracts/Rental.sol\":1486:1494  vehicles */\n      0x06\n        /* \"contracts/Rental.sol\":1486:1501  vehicles.length */\n      dup1\n      sload\n      swap1\n      pop\n        /* \"contracts/Rental.sol\":1486:1518  vehicles.length < vehicleCount+1 */\n      lt\n        /* \"contracts/Rental.sol\":1478:1568  require(vehicles.length < vehicleCount+1, \"The following vehicle has already been added.\") */\n      tag_166\n      jumpi\n      mload(0x40)\n      0x08c379a000000000000000000000000000000000000000000000000000000000\n      dup2\n      mstore\n      0x04\n      add\n      tag_167\n      swap1\n      tag_168\n      jump\t// in\n    tag_167:\n      mload(0x40)\n      dup1\n      swap2\n      sub\n      swap1\n      revert\n    tag_166:\n        /* \"contracts/Rental.sol\":3641:3653  vehicleCount */\n      0x03\n      0x00\n        /* \"contracts/Rental.sol\":3641:3655  vehicleCount++ */\n      dup2\n      sload\n      dup1\n      swap3\n      swap2\n      swap1\n      tag_170\n      swap1\n      tag_171\n      jump\t// in\n    tag_170:\n      swap2\n      swap1\n      pop\n      sstore\n      pop\n        /* \"contracts/Rental.sol\":3665:3692  Vehicle memory temporaryObj */\n      0x00\n        /* \"contracts/Rental.sol\":3695:3919  Vehicle(... */\n      mload(0x40)\n      dup1\n      0x0120\n      add\n      0x40\n      mstore\n      dup1\n        /* \"contracts/Rental.sol\":3716:3728  vehicleCount */\n      sload(0x03)\n        /* \"contracts/Rental.sol\":3695:3919  Vehicle(... */\n      dup2\n      mstore\n      0x20\n      add\n        /* \"contracts/Rental.sol\":3742:3746  name */\n      dup11\n        /* \"contracts/Rental.sol\":3695:3919  Vehicle(... */\n      dup2\n      mstore\n      0x20\n      add\n        /* \"contracts/Rental.sol\":3760:3765  brand */\n      dup10\n        /* \"contracts/Rental.sol\":3695:3919  Vehicle(... */\n      dup2\n      mstore\n      0x20\n      add\n        /* \"contracts/Rental.sol\":3779:3790  vehicleType */\n      dup9\n        /* \"contracts/Rental.sol\":3695:3919  Vehicle(... */\n      0x06\n      dup2\n      gt\n      iszero\n      tag_172\n      jumpi\n      tag_173\n      tag_174\n      jump\t// in\n    tag_173:\n    tag_172:\n      dup2\n      mstore\n      0x20\n      add\n        /* \"contracts/Rental.sol\":3804:3812  location */\n      dup8\n        /* \"contracts/Rental.sol\":3695:3919  Vehicle(... */\n      dup2\n      mstore\n      0x20\n      add\n        /* \"contracts/Rental.sol\":3826:3831  model */\n      dup7\n        /* \"contracts/Rental.sol\":3695:3919  Vehicle(... */\n      dup2\n      mstore\n      0x20\n      add\n        /* \"contracts/Rental.sol\":3845:3850  image */\n      dup6\n        /* \"contracts/Rental.sol\":3695:3919  Vehicle(... */\n      dup2\n      mstore\n      0x20\n      add\n        /* \"contracts/Rental.sol\":3864:3872  rentCost */\n      dup5\n        /* \"contracts/Rental.sol\":3695:3919  Vehicle(... */\n      dup2\n      mstore\n      0x20\n      add\n        /* \"contracts/Rental.sol\":3886:3909  VehicleStatus.Available */\n      0x00\n        /* \"contracts/Rental.sol\":3695:3919  Vehicle(... */\n      0x01\n      dup2\n      gt\n      iszero\n      tag_175\n      jumpi\n      tag_176\n      tag_174\n      jump\t// in\n    tag_176:\n    tag_175:\n      dup2\n      mstore\n      pop\n        /* \"contracts/Rental.sol\":3665:3919  Vehicle memory temporaryObj = Vehicle(... */\n      swap1\n      pop\n        /* \"contracts/Rental.sol\":3960:3972  temporaryObj */\n      dup1\n        /* \"contracts/Rental.sol\":3929:3943  getVehicleByID */\n      0x05\n        /* \"contracts/Rental.sol\":3929:3957  getVehicleByID[vehicleCount] */\n      0x00\n        /* \"contracts/Rental.sol\":3944:3956  vehicleCount */\n      sload(0x03)\n        /* \"contracts/Rental.sol\":3929:3957  getVehicleByID[vehicleCount] */\n      dup2\n      mstore\n      0x20\n      add\n      swap1\n      dup2\n      mstore\n      0x20\n      add\n      0x00\n      keccak256\n        /* \"contracts/Rental.sol\":3929:3972  getVehicleByID[vehicleCount] = temporaryObj */\n      0x00\n      dup3\n      add\n      mload\n      dup2\n      0x00\n      add\n      sstore\n      0x20\n      dup3\n      add\n      mload\n      dup2\n      0x01\n      add\n      sstore\n      0x40\n      dup3\n      add\n      mload\n      dup2\n      0x02\n      add\n      sstore\n      0x60\n      dup3\n      add\n      mload\n      dup2\n      0x03\n      add\n      exp(0x0100, 0x00)\n      dup2\n      sload\n      dup2\n      0xff\n      mul\n      not\n      and\n      swap1\n      dup4\n      0x06\n      dup2\n      gt\n      iszero\n      tag_177\n      jumpi\n      tag_178\n      tag_174\n      jump\t// in\n    tag_178:\n    tag_177:\n      mul\n      or\n      swap1\n      sstore\n      pop\n      0x80\n      dup3\n      add\n      mload\n      dup2\n      0x04\n      add\n      0x00\n      dup3\n      add\n      mload\n      dup2\n      0x00\n      add\n      swap1\n      dup1\n      mload\n      swap1\n      0x20\n      add\n      swap1\n      tag_179\n      swap3\n      swap2\n      swap1\n      tag_180\n      jump\t// in\n    tag_179:\n      pop\n      0x20\n      dup3\n      add\n      mload\n      dup2\n      0x01\n      add\n      swap1\n      dup1\n      mload\n      swap1\n      0x20\n      add\n      swap1\n      tag_181\n      swap3\n      swap2\n      swap1\n      tag_180\n      jump\t// in\n    tag_181:\n      pop\n      pop\n      pop\n      0xa0\n      dup3\n      add\n      mload\n      dup2\n      0x06\n      add\n      sstore\n      0xc0\n      dup3\n      add\n      mload\n      dup2\n      0x07\n      add\n      sstore\n      0xe0\n      dup3\n      add\n      mload\n      dup2\n      0x08\n      add\n      sstore\n      0x0100\n      dup3\n      add\n      mload\n      dup2\n      0x09\n      add\n      exp(0x0100, 0x00)\n      dup2\n      sload\n      dup2\n      0xff\n      mul\n      not\n      and\n      swap1\n      dup4\n      0x01\n      dup2\n      gt\n      iszero\n      tag_182\n      jumpi\n      tag_183\n      tag_174\n      jump\t// in\n    tag_183:\n    tag_182:\n      mul\n      or\n      swap1\n      sstore\n      pop\n      swap1\n      pop\n      pop\n        /* \"contracts/Rental.sol\":3982:3990  vehicles */\n      0x06\n        /* \"contracts/Rental.sol\":3996:4008  temporaryObj */\n      dup2\n        /* \"contracts/Rental.sol\":3982:4009  vehicles.push(temporaryObj) */\n      swap1\n      dup1\n      0x01\n      dup2\n      sload\n      add\n      dup1\n      dup3\n      sstore\n      dup1\n      swap2\n      pop\n      pop\n      0x01\n      swap1\n      sub\n      swap1\n      0x00\n      mstore\n      keccak256(0x00, 0x20)\n      swap1\n      0x0a\n      mul\n      add\n      0x00\n      swap1\n      swap2\n      swap1\n      swap2\n      swap1\n      swap2\n      pop\n      0x00\n      dup3\n      add\n      mload\n      dup2\n      0x00\n      add\n      sstore\n      0x20\n      dup3\n      add\n      mload\n      dup2\n      0x01\n      add\n      sstore\n      0x40\n      dup3\n      add\n      mload\n      dup2\n      0x02\n      add\n      sstore\n      0x60\n      dup3\n      add\n      mload\n      dup2\n      0x03\n      add\n      exp(0x0100, 0x00)\n      dup2\n      sload\n      dup2\n      0xff\n      mul\n      not\n      and\n      swap1\n      dup4\n      0x06\n      dup2\n      gt\n      iszero\n      tag_185\n      jumpi\n      tag_186\n      tag_174\n      jump\t// in\n    tag_186:\n    tag_185:\n      mul\n      or\n      swap1\n      sstore\n      pop\n      0x80\n      dup3\n      add\n      mload\n      dup2\n      0x04\n      add\n      0x00\n      dup3\n      add\n      mload\n      dup2\n      0x00\n      add\n      swap1\n      dup1\n      mload\n      swap1\n      0x20\n      add\n      swap1\n      tag_187\n      swap3\n      swap2\n      swap1\n      tag_180\n      jump\t// in\n    tag_187:\n      pop\n      0x20\n      dup3\n      add\n      mload\n      dup2\n      0x01\n      add\n      swap1\n      dup1\n      mload\n      swap1\n      0x20\n      add\n      swap1\n      tag_188\n      swap3\n      swap2\n      swap1\n      tag_180\n      jump\t// in\n    tag_188:\n      pop\n      pop\n      pop\n      0xa0\n      dup3\n      add\n      mload\n      dup2\n      0x06\n      add\n      sstore\n      0xc0\n      dup3\n      add\n      mload\n      dup2\n      0x07\n      add\n      sstore\n      0xe0\n      dup3\n      add\n      mload\n      dup2\n      0x08\n      add\n      sstore\n      0x0100\n      dup3\n      add\n      mload\n      dup2\n      0x09\n      add\n      exp(0x0100, 0x00)\n      dup2\n      sload\n      dup2\n      0xff\n      mul\n      not\n      and\n      swap1\n      dup4\n      0x01\n      dup2\n      gt\n      iszero\n      tag_189\n      jumpi\n      tag_190\n      tag_174\n      jump\t// in\n    tag_190:\n    tag_189:\n      mul\n      or\n      swap1\n      sstore\n      pop\n      pop\n      pop\n        /* \"contracts/Rental.sol\":4046:4058  vehicleCount */\n      sload(0x03)\n        /* \"contracts/Rental.sol\":4027:4035  vehicles */\n      0x06\n        /* \"contracts/Rental.sol\":4027:4042  vehicles.length */\n      dup1\n      sload\n      swap1\n      pop\n        /* \"contracts/Rental.sol\":4027:4058  vehicles.length == vehicleCount */\n      eq\n        /* \"contracts/Rental.sol\":4020:4058  return vehicles.length == vehicleCount */\n      swap2\n      pop\n      pop\n        /* \"contracts/Rental.sol\":3395:4065  function addVehicle(bytes32 name, bytes32 brand, VehicleType vehicleType, Coordinate memory location, uint model, bytes32 image, uint rentCost) ... */\n      swap8\n      swap7\n      pop\n      pop\n      pop\n      pop\n      pop\n      pop\n      pop\n      jump\t// out\n        /* \"contracts/Access.sol\":1720:1822  function removeOwner(address account) public virtual {... */\n    tag_46:\n        /* \"contracts/Access.sol\":1783:1815  _revokeRole(OWNER_ROLE, account) */\n      tag_192\n        /* \"contracts/Access.sol\":1795:1805  OWNER_ROLE */\n      0x4f574e4552000000000000000000000000000000000000000000000000000000\n        /* \"contracts/Access.sol\":1807:1814  account */\n      dup3\n        /* \"contracts/Access.sol\":1783:1794  _revokeRole */\n      tag_157\n        /* \"contracts/Access.sol\":1783:1815  _revokeRole(OWNER_ROLE, account) */\n      jump\t// in\n    tag_192:\n        /* \"contracts/Access.sol\":1720:1822  function removeOwner(address account) public virtual {... */\n      pop\n      jump\t// out\n        /* \"contracts/Access.sol\":1879:1971  function renounceOwner() public virtual {... */\n    tag_49:\n        /* \"contracts/Access.sol\":1929:1964  _revokeRole(OWNER_ROLE, msg.sender) */\n      tag_194\n        /* \"contracts/Access.sol\":1941:1951  OWNER_ROLE */\n      0x4f574e4552000000000000000000000000000000000000000000000000000000\n        /* \"contracts/Access.sol\":1953:1963  msg.sender */\n      caller\n        /* \"contracts/Access.sol\":1929:1940  _revokeRole */\n      tag_157\n        /* \"contracts/Access.sol\":1929:1964  _revokeRole(OWNER_ROLE, msg.sender) */\n      jump\t// in\n    tag_194:\n        /* \"contracts/Access.sol\":1879:1971  function renounceOwner() public virtual {... */\n      jump\t// out\n        /* \"contracts/Access.sol\":701:822  function isOwner(address account) public virtual view returns (bool) {... */\n    tag_53:\n        /* \"contracts/Access.sol\":764:768  bool */\n      0x00\n        /* \"contracts/Access.sol\":787:815  hasRole(OWNER_ROLE, account) */\n      tag_196\n        /* \"contracts/Access.sol\":795:805  OWNER_ROLE */\n      0x4f574e4552000000000000000000000000000000000000000000000000000000\n        /* \"contracts/Access.sol\":807:814  account */\n      dup4\n        /* \"contracts/Access.sol\":787:794  hasRole */\n      tag_111\n        /* \"contracts/Access.sol\":787:815  hasRole(OWNER_ROLE, account) */\n      jump\t// in\n    tag_196:\n        /* \"contracts/Access.sol\":780:815  return hasRole(OWNER_ROLE, account) */\n      swap1\n      pop\n        /* \"contracts/Access.sol\":701:822  function isOwner(address account) public virtual view returns (bool) {... */\n      swap2\n      swap1\n      pop\n      jump\t// out\n        /* \"contracts/Rental.sol\":5280:5615  function addInsurancePackage(uint carId, uint contractId, uint insuranceDeposit)... */\n    tag_59:\n        /* \"contracts/Rental.sol\":5466:5478  bool success */\n      0x00\n        /* \"contracts/Access.sol\":561:581  isRenter(msg.sender) */\n      tag_198\n        /* \"contracts/Access.sol\":570:580  msg.sender */\n      caller\n        /* \"contracts/Access.sol\":561:569  isRenter */\n      tag_120\n        /* \"contracts/Access.sol\":561:581  isRenter(msg.sender) */\n      jump\t// in\n    tag_198:\n        /* \"contracts/Access.sol\":553:608  require(isRenter(msg.sender), \"Restricted to renters.\") */\n      tag_199\n      jumpi\n      mload(0x40)\n      0x08c379a000000000000000000000000000000000000000000000000000000000\n      dup2\n      mstore\n      0x04\n      add\n      tag_200\n      swap1\n      tag_201\n      jump\t// in\n    tag_200:\n      mload(0x40)\n      dup1\n      swap2\n      sub\n      swap1\n      revert\n    tag_199:\n        /* \"contracts/Rental.sol\":5414:5419  carId */\n      dup4\n        /* \"contracts/Rental.sol\":1975:1998  VehicleStatus.Available */\n      0x00\n        /* \"contracts/Rental.sol\":1946:1998  getVehicleByID[id].status == VehicleStatus.Available */\n      0x01\n      dup2\n      gt\n      iszero\n      tag_203\n      jumpi\n      tag_204\n      tag_174\n      jump\t// in\n    tag_204:\n    tag_203:\n        /* \"contracts/Rental.sol\":1946:1960  getVehicleByID */\n      0x05\n        /* \"contracts/Rental.sol\":1946:1964  getVehicleByID[id] */\n      0x00\n        /* \"contracts/Rental.sol\":1961:1963  id */\n      dup4\n        /* \"contracts/Rental.sol\":1946:1964  getVehicleByID[id] */\n      dup2\n      mstore\n      0x20\n      add\n      swap1\n      dup2\n      mstore\n      0x20\n      add\n      0x00\n      keccak256\n        /* \"contracts/Rental.sol\":1946:1971  getVehicleByID[id].status */\n      0x09\n      add\n      0x00\n      swap1\n      sload\n      swap1\n      0x0100\n      exp\n      swap1\n      div\n      0xff\n      and\n        /* \"contracts/Rental.sol\":1946:1998  getVehicleByID[id].status == VehicleStatus.Available */\n      0x01\n      dup2\n      gt\n      iszero\n      tag_205\n      jumpi\n      tag_206\n      tag_174\n      jump\t// in\n    tag_206:\n    tag_205:\n      eq\n        /* \"contracts/Rental.sol\":1938:2051  require(getVehicleByID[id].status == VehicleStatus.Available, \"The selected vehicle is currently not available.\") */\n      tag_207\n      jumpi\n      mload(0x40)\n      0x08c379a000000000000000000000000000000000000000000000000000000000\n      dup2\n      mstore\n      0x04\n      add\n      tag_208\n      swap1\n      tag_209\n      jump\t// in\n    tag_208:\n      mload(0x40)\n      dup1\n      swap2\n      sub\n      swap1\n      revert\n    tag_207:\n        /* \"contracts/Rental.sol\":5437:5447  contractId */\n      dup4\n        /* \"contracts/Rental.sol\":2453:2456  0x0 */\n      0x00\n        /* \"contracts/Rental.sol\":2419:2457  getContractByID[id].id != address(0x0) */\n      0xffffffffffffffffffffffffffffffffffffffff\n      and\n        /* \"contracts/Rental.sol\":2419:2434  getContractByID */\n      0x07\n        /* \"contracts/Rental.sol\":2419:2438  getContractByID[id] */\n      0x00\n        /* \"contracts/Rental.sol\":2435:2437  id */\n      dup4\n        /* \"contracts/Rental.sol\":2419:2438  getContractByID[id] */\n      dup2\n      mstore\n      0x20\n      add\n      swap1\n      dup2\n      mstore\n      0x20\n      add\n      0x00\n      keccak256\n        /* \"contracts/Rental.sol\":2419:2441  getContractByID[id].id */\n      0x00\n      add\n      0x00\n      swap1\n      sload\n      swap1\n      0x0100\n      exp\n      swap1\n      div\n      0xffffffffffffffffffffffffffffffffffffffff\n      and\n        /* \"contracts/Rental.sol\":2419:2457  getContractByID[id].id != address(0x0) */\n      0xffffffffffffffffffffffffffffffffffffffff\n      and\n      eq\n      iszero\n        /* \"contracts/Rental.sol\":2411:2524  require(getContractByID[id].id != address(0x0), \"The following contract could not be found in the mapping list.\") */\n      tag_211\n      jumpi\n      mload(0x40)\n      0x08c379a000000000000000000000000000000000000000000000000000000000\n      dup2\n      mstore\n      0x04\n      add\n      tag_212\n      swap1\n      tag_213\n      jump\t// in\n    tag_212:\n      mload(0x40)\n      dup1\n      swap2\n      sub\n      swap1\n      revert\n    tag_211:\n        /* \"contracts/Rental.sol\":5541:5557  insuranceDeposit */\n      dup4\n        /* \"contracts/Rental.sol\":5494:5509  getContractByID */\n      0x07\n        /* \"contracts/Rental.sol\":5494:5521  getContractByID[contractId] */\n      0x00\n        /* \"contracts/Rental.sol\":5510:5520  contractId */\n      dup8\n        /* \"contracts/Rental.sol\":5494:5521  getContractByID[contractId] */\n      dup2\n      mstore\n      0x20\n      add\n      swap1\n      dup2\n      mstore\n      0x20\n      add\n      0x00\n      keccak256\n        /* \"contracts/Rental.sol\":5494:5538  getContractByID[contractId].insuranceDeposit */\n      0x0e\n      add\n        /* \"contracts/Rental.sol\":5494:5557  getContractByID[contractId].insuranceDeposit = insuranceDeposit */\n      dup2\n      swap1\n      sstore\n      pop\n        /* \"contracts/Rental.sol\":5595:5608  contractCount */\n      sload(0x04)\n        /* \"contracts/Rental.sol\":5575:5584  contracts */\n      0x08\n        /* \"contracts/Rental.sol\":5575:5591  contracts.length */\n      dup1\n      sload\n      swap1\n      pop\n        /* \"contracts/Rental.sol\":5575:5608  contracts.length == contractCount */\n      eq\n        /* \"contracts/Rental.sol\":5568:5608  return contracts.length == contractCount */\n      swap3\n      pop\n        /* \"contracts/Rental.sol\":2061:2062  _ */\n      pop\n        /* \"contracts/Access.sol\":618:619  _ */\n      pop\n        /* \"contracts/Rental.sol\":5280:5615  function addInsurancePackage(uint carId, uint contractId, uint insuranceDeposit)... */\n      swap4\n      swap3\n      pop\n      pop\n      pop\n      jump\t// out\n        /* \"contracts/Rental.sol\":1289:1316  Contract[] public contracts */\n    tag_65:\n      0x08\n      dup2\n      dup2\n      sload\n      dup2\n      lt\n      tag_215\n      jumpi\n      0x00\n      dup1\n      revert\n    tag_215:\n      swap1\n      0x00\n      mstore\n      keccak256(0x00, 0x20)\n      swap1\n      0x11\n      mul\n      add\n      0x00\n      swap2\n      pop\n      swap1\n      pop\n      dup1\n      0x00\n      add\n      0x00\n      swap1\n      sload\n      swap1\n      0x0100\n      exp\n      swap1\n      div\n      0xffffffffffffffffffffffffffffffffffffffff\n      and\n      swap1\n      dup1\n      0x01\n      add\n      mload(0x40)\n      dup1\n      0x0120\n      add\n      0x40\n      mstore\n      swap1\n      dup2\n      0x00\n      dup3\n      add\n      sload\n      dup2\n      mstore\n      0x20\n      add\n      0x01\n      dup3\n      add\n      sload\n      dup2\n      mstore\n      0x20\n      add\n      0x02\n      dup3\n      add\n      sload\n      dup2\n      mstore\n      0x20\n      add\n      0x03\n      dup3\n      add\n      0x00\n      swap1\n      sload\n      swap1\n      0x0100\n      exp\n      swap1\n      div\n      0xff\n      and\n      0x06\n      dup2\n      gt\n      iszero\n      tag_217\n      jumpi\n      tag_218\n      tag_174\n      jump\t// in\n    tag_218:\n    tag_217:\n      0x06\n      dup2\n      gt\n      iszero\n      tag_219\n      jumpi\n      tag_220\n      tag_174\n      jump\t// in\n    tag_220:\n    tag_219:\n      dup2\n      mstore\n      0x20\n      add\n      0x04\n      dup3\n      add\n      mload(0x40)\n      dup1\n      0x40\n      add\n      0x40\n      mstore\n      swap1\n      dup2\n      0x00\n      dup3\n      add\n      dup1\n      sload\n      tag_221\n      swap1\n      tag_222\n      jump\t// in\n    tag_221:\n      dup1\n      0x1f\n      add\n      0x20\n      dup1\n      swap2\n      div\n      mul\n      0x20\n      add\n      mload(0x40)\n      swap1\n      dup2\n      add\n      0x40\n      mstore\n      dup1\n      swap3\n      swap2\n      swap1\n      dup2\n      dup2\n      mstore\n      0x20\n      add\n      dup3\n      dup1\n      sload\n      tag_223\n      swap1\n      tag_222\n      jump\t// in\n    tag_223:\n      dup1\n      iszero\n      tag_224\n      jumpi\n      dup1\n      0x1f\n      lt\n      tag_225\n      jumpi\n      0x0100\n      dup1\n      dup4\n      sload\n      div\n      mul\n      dup4\n      mstore\n      swap2\n      0x20\n      add\n      swap2\n      jump(tag_224)\n    tag_225:\n      dup3\n      add\n      swap2\n      swap1\n      0x00\n      mstore\n      keccak256(0x00, 0x20)\n      swap1\n    tag_226:\n      dup2\n      sload\n      dup2\n      mstore\n      swap1\n      0x01\n      add\n      swap1\n      0x20\n      add\n      dup1\n      dup4\n      gt\n      tag_226\n      jumpi\n      dup3\n      swap1\n      sub\n      0x1f\n      and\n      dup3\n      add\n      swap2\n    tag_224:\n      pop\n      pop\n      pop\n      pop\n      pop\n      dup2\n      mstore\n      0x20\n      add\n      0x01\n      dup3\n      add\n      dup1\n      sload\n      tag_227\n      swap1\n      tag_222\n      jump\t// in\n    tag_227:\n      dup1\n      0x1f\n      add\n      0x20\n      dup1\n      swap2\n      div\n      mul\n      0x20\n      add\n      mload(0x40)\n      swap1\n      dup2\n      add\n      0x40\n      mstore\n      dup1\n      swap3\n      swap2\n      swap1\n      dup2\n      dup2\n      mstore\n      0x20\n      add\n      dup3\n      dup1\n      sload\n      tag_228\n      swap1\n      tag_222\n      jump\t// in\n    tag_228:\n      dup1\n      iszero\n      tag_229\n      jumpi\n      dup1\n      0x1f\n      lt\n      tag_230\n      jumpi\n      0x0100\n      dup1\n      dup4\n      sload\n      div\n      mul\n      dup4\n      mstore\n      swap2\n      0x20\n      add\n      swap2\n      jump(tag_229)\n    tag_230:\n      dup3\n      add\n      swap2\n      swap1\n      0x00\n      mstore\n      keccak256(0x00, 0x20)\n      swap1\n    tag_231:\n      dup2\n      sload\n      dup2\n      mstore\n      swap1\n      0x01\n      add\n      swap1\n      0x20\n      add\n      dup1\n      dup4\n      gt\n      tag_231\n      jumpi\n      dup3\n      swap1\n      sub\n      0x1f\n      and\n      dup3\n      add\n      swap2\n    tag_229:\n      pop\n      pop\n      pop\n      pop\n      pop\n      dup2\n      mstore\n      pop\n      pop\n      dup2\n      mstore\n      0x20\n      add\n      0x06\n      dup3\n      add\n      sload\n      dup2\n      mstore\n      0x20\n      add\n      0x07\n      dup3\n      add\n      sload\n      dup2\n      mstore\n      0x20\n      add\n      0x08\n      dup3\n      add\n      sload\n      dup2\n      mstore\n      0x20\n      add\n      0x09\n      dup3\n      add\n      0x00\n      swap1\n      sload\n      swap1\n      0x0100\n      exp\n      swap1\n      div\n      0xff\n      and\n      0x01\n      dup2\n      gt\n      iszero\n      tag_232\n      jumpi\n      tag_233\n      tag_174\n      jump\t// in\n    tag_233:\n    tag_232:\n      0x01\n      dup2\n      gt\n      iszero\n      tag_234\n      jumpi\n      tag_235\n      tag_174\n      jump\t// in\n    tag_235:\n    tag_234:\n      dup2\n      mstore\n      pop\n      pop\n      swap1\n      dup1\n      0x0b\n      add\n      mload(0x40)\n      dup1\n      0x40\n      add\n      0x40\n      mstore\n      swap1\n      dup2\n      0x00\n      dup3\n      add\n      sload\n      dup2\n      mstore\n      0x20\n      add\n      0x01\n      dup3\n      add\n      sload\n      dup2\n      mstore\n      pop\n      pop\n      swap1\n      dup1\n      0x0d\n      add\n      sload\n      swap1\n      dup1\n      0x0e\n      add\n      sload\n      swap1\n      dup1\n      0x0f\n      add\n      sload\n      swap1\n      dup1\n      0x10\n      add\n      0x00\n      swap1\n      sload\n      swap1\n      0x0100\n      exp\n      swap1\n      div\n      0xff\n      and\n      swap1\n      pop\n      dup8\n      jump\t// out\n        /* \"contracts/Rental.sol\":1152:1198  mapping(uint => Vehicle) public getVehicleByID */\n    tag_71:\n      mstore(0x20, 0x05)\n      dup1\n      0x00\n      mstore\n      keccak256(0x00, 0x40)\n      0x00\n      swap2\n      pop\n      swap1\n      pop\n      dup1\n      0x00\n      add\n      sload\n      swap1\n      dup1\n      0x01\n      add\n      sload\n      swap1\n      dup1\n      0x02\n      add\n      sload\n      swap1\n      dup1\n      0x03\n      add\n      0x00\n      swap1\n      sload\n      swap1\n      0x0100\n      exp\n      swap1\n      div\n      0xff\n      and\n      swap1\n      dup1\n      0x04\n      add\n      mload(0x40)\n      dup1\n      0x40\n      add\n      0x40\n      mstore\n      swap1\n      dup2\n      0x00\n      dup3\n      add\n      dup1\n      sload\n      tag_236\n      swap1\n      tag_222\n      jump\t// in\n    tag_236:\n      dup1\n      0x1f\n      add\n      0x20\n      dup1\n      swap2\n      div\n      mul\n      0x20\n      add\n      mload(0x40)\n      swap1\n      dup2\n      add\n      0x40\n      mstore\n      dup1\n      swap3\n      swap2\n      swap1\n      dup2\n      dup2\n      mstore\n      0x20\n      add\n      dup3\n      dup1\n      sload\n      tag_237\n      swap1\n      tag_222\n      jump\t// in\n    tag_237:\n      dup1\n      iszero\n      tag_238\n      jumpi\n      dup1\n      0x1f\n      lt\n      tag_239\n      jumpi\n      0x0100\n      dup1\n      dup4\n      sload\n      div\n      mul\n      dup4\n      mstore\n      swap2\n      0x20\n      add\n      swap2\n      jump(tag_238)\n    tag_239:\n      dup3\n      add\n      swap2\n      swap1\n      0x00\n      mstore\n      keccak256(0x00, 0x20)\n      swap1\n    tag_240:\n      dup2\n      sload\n      dup2\n      mstore\n      swap1\n      0x01\n      add\n      swap1\n      0x20\n      add\n      dup1\n      dup4\n      gt\n      tag_240\n      jumpi\n      dup3\n      swap1\n      sub\n      0x1f\n      and\n      dup3\n      add\n      swap2\n    tag_238:\n      pop\n      pop\n      pop\n      pop\n      pop\n      dup2\n      mstore\n      0x20\n      add\n      0x01\n      dup3\n      add\n      dup1\n      sload\n      tag_241\n      swap1\n      tag_222\n      jump\t// in\n    tag_241:\n      dup1\n      0x1f\n      add\n      0x20\n      dup1\n      swap2\n      div\n      mul\n      0x20\n      add\n      mload(0x40)\n      swap1\n      dup2\n      add\n      0x40\n      mstore\n      dup1\n      swap3\n      swap2\n      swap1\n      dup2\n      dup2\n      mstore\n      0x20\n      add\n      dup3\n      dup1\n      sload\n      tag_242\n      swap1\n      tag_222\n      jump\t// in\n    tag_242:\n      dup1\n      iszero\n      tag_243\n      jumpi\n      dup1\n      0x1f\n      lt\n      tag_244\n      jumpi\n      0x0100\n      dup1\n      dup4\n      sload\n      div\n      mul\n      dup4\n      mstore\n      swap2\n      0x20\n      add\n      swap2\n      jump(tag_243)\n    tag_244:\n      dup3\n      add\n      swap2\n      swap1\n      0x00\n      mstore\n      keccak256(0x00, 0x20)\n      swap1\n    tag_245:\n      dup2\n      sload\n      dup2\n      mstore\n      swap1\n      0x01\n      add\n      swap1\n      0x20\n      add\n      dup1\n      dup4\n      gt\n      tag_245\n      jumpi\n      dup3\n      swap1\n      sub\n      0x1f\n      and\n      dup3\n      add\n      swap2\n    tag_243:\n      pop\n      pop\n      pop\n      pop\n      pop\n      dup2\n      mstore\n      pop\n      pop\n      swap1\n      dup1\n      0x06\n      add\n      sload\n      swap1\n      dup1\n      0x07\n      add\n      sload\n      swap1\n      dup1\n      0x08\n      add\n      sload\n      swap1\n      dup1\n      0x09\n      add\n      0x00\n      swap1\n      sload\n      swap1\n      0x0100\n      exp\n      swap1\n      div\n      0xff\n      and\n      swap1\n      pop\n      dup10\n      jump\t// out\n        /* \"contracts/Access.sol\":1313:1449  function addOwner(address account) public virtual {... */\n    tag_77:\n        /* \"contracts/Access.sol\":1393:1400  account */\n      dup1\n        /* \"contracts/Access.sol\":1373:1382  recipient */\n      0x02\n      0x00\n        /* \"contracts/Access.sol\":1373:1401  recipient = payable(account) */\n      0x0100\n      exp\n      dup2\n      sload\n      dup2\n      0xffffffffffffffffffffffffffffffffffffffff\n      mul\n      not\n      and\n      swap1\n      dup4\n      0xffffffffffffffffffffffffffffffffffffffff\n      and\n      mul\n      or\n      swap1\n      sstore\n      pop\n        /* \"contracts/Access.sol\":1411:1442  _grantRole(OWNER_ROLE, account) */\n      tag_247\n        /* \"contracts/Access.sol\":1422:1432  OWNER_ROLE */\n      0x4f574e4552000000000000000000000000000000000000000000000000000000\n        /* \"contracts/Access.sol\":1434:1441  account */\n      dup3\n        /* \"contracts/Access.sol\":1411:1421  _grantRole */\n      tag_248\n        /* \"contracts/Access.sol\":1411:1442  _grantRole(OWNER_ROLE, account) */\n      jump\t// in\n    tag_247:\n        /* \"contracts/Access.sol\":1313:1449  function addOwner(address account) public virtual {... */\n      pop\n      jump\t// out\n        /* \"contracts/Rental.sol\":7946:7996  function paymentProcess(uint256) public payable {} */\n    tag_80:\n      pop\n      jump\t// out\n        /* \"contracts/Rental.sol\":6095:6740  function confirmation(uint contractId, uint carId) ... */\n    tag_84:\n        /* \"contracts/Rental.sol\":6323:6335  bool success */\n      0x00\n        /* \"contracts/Access.sol\":561:581  isRenter(msg.sender) */\n      tag_251\n        /* \"contracts/Access.sol\":570:580  msg.sender */\n      caller\n        /* \"contracts/Access.sol\":561:569  isRenter */\n      tag_120\n        /* \"contracts/Access.sol\":561:581  isRenter(msg.sender) */\n      jump\t// in\n    tag_251:\n        /* \"contracts/Access.sol\":553:608  require(isRenter(msg.sender), \"Restricted to renters.\") */\n      tag_252\n      jumpi\n      mload(0x40)\n      0x08c379a000000000000000000000000000000000000000000000000000000000\n      dup2\n      mstore\n      0x04\n      add\n      tag_253\n      swap1\n      tag_201\n      jump\t// in\n    tag_253:\n      mload(0x40)\n      dup1\n      swap2\n      sub\n      swap1\n      revert\n    tag_252:\n        /* \"contracts/Rental.sol\":6204:6209  carId */\n      dup2\n        /* \"contracts/Rental.sol\":1733:1736  0x0 */\n      0x00\n        /* \"contracts/Rental.sol\":1704:1718  getVehicleByID */\n      0x05\n        /* \"contracts/Rental.sol\":1704:1722  getVehicleByID[id] */\n      0x00\n        /* \"contracts/Rental.sol\":1719:1721  id */\n      dup4\n        /* \"contracts/Rental.sol\":1704:1722  getVehicleByID[id] */\n      dup2\n      mstore\n      0x20\n      add\n      swap1\n      dup2\n      mstore\n      0x20\n      add\n      0x00\n      keccak256\n        /* \"contracts/Rental.sol\":1704:1725  getVehicleByID[id].id */\n      0x00\n      add\n      sload\n        /* \"contracts/Rental.sol\":1704:1737  getVehicleByID[id].id > uint(0x0) */\n      gt\n        /* \"contracts/Rental.sol\":1696:1803  require(getVehicleByID[id].id > uint(0x0), \"The following vehicle could not be found in the mapping list.\") */\n      tag_255\n      jumpi\n      mload(0x40)\n      0x08c379a000000000000000000000000000000000000000000000000000000000\n      dup2\n      mstore\n      0x04\n      add\n      tag_256\n      swap1\n      tag_257\n      jump\t// in\n    tag_256:\n      mload(0x40)\n      dup1\n      swap2\n      sub\n      swap1\n      revert\n    tag_255:\n        /* \"contracts/Rental.sol\":6230:6235  carId */\n      dup3\n        /* \"contracts/Rental.sol\":1975:1998  VehicleStatus.Available */\n      0x00\n        /* \"contracts/Rental.sol\":1946:1998  getVehicleByID[id].status == VehicleStatus.Available */\n      0x01\n      dup2\n      gt\n      iszero\n      tag_259\n      jumpi\n      tag_260\n      tag_174\n      jump\t// in\n    tag_260:\n    tag_259:\n        /* \"contracts/Rental.sol\":1946:1960  getVehicleByID */\n      0x05\n        /* \"contracts/Rental.sol\":1946:1964  getVehicleByID[id] */\n      0x00\n        /* \"contracts/Rental.sol\":1961:1963  id */\n      dup4\n        /* \"contracts/Rental.sol\":1946:1964  getVehicleByID[id] */\n      dup2\n      mstore\n      0x20\n      add\n      swap1\n      dup2\n      mstore\n      0x20\n      add\n      0x00\n      keccak256\n        /* \"contracts/Rental.sol\":1946:1971  getVehicleByID[id].status */\n      0x09\n      add\n      0x00\n      swap1\n      sload\n      swap1\n      0x0100\n      exp\n      swap1\n      div\n      0xff\n      and\n        /* \"contracts/Rental.sol\":1946:1998  getVehicleByID[id].status == VehicleStatus.Available */\n      0x01\n      dup2\n      gt\n      iszero\n      tag_261\n      jumpi\n      tag_262\n      tag_174\n      jump\t// in\n    tag_262:\n    tag_261:\n      eq\n        /* \"contracts/Rental.sol\":1938:2051  require(getVehicleByID[id].status == VehicleStatus.Available, \"The selected vehicle is currently not available.\") */\n      tag_263\n      jumpi\n      mload(0x40)\n      0x08c379a000000000000000000000000000000000000000000000000000000000\n      dup2\n      mstore\n      0x04\n      add\n      tag_264\n      swap1\n      tag_209\n      jump\t// in\n    tag_264:\n      mload(0x40)\n      dup1\n      swap2\n      sub\n      swap1\n      revert\n    tag_263:\n        /* \"contracts/Rental.sol\":6253:6263  contractId */\n      dup5\n        /* \"contracts/Rental.sol\":2453:2456  0x0 */\n      0x00\n        /* \"contracts/Rental.sol\":2419:2457  getContractByID[id].id != address(0x0) */\n      0xffffffffffffffffffffffffffffffffffffffff\n      and\n        /* \"contracts/Rental.sol\":2419:2434  getContractByID */\n      0x07\n        /* \"contracts/Rental.sol\":2419:2438  getContractByID[id] */\n      0x00\n        /* \"contracts/Rental.sol\":2435:2437  id */\n      dup4\n        /* \"contracts/Rental.sol\":2419:2438  getContractByID[id] */\n      dup2\n      mstore\n      0x20\n      add\n      swap1\n      dup2\n      mstore\n      0x20\n      add\n      0x00\n      keccak256\n        /* \"contracts/Rental.sol\":2419:2441  getContractByID[id].id */\n      0x00\n      add\n      0x00\n      swap1\n      sload\n      swap1\n      0x0100\n      exp\n      swap1\n      div\n      0xffffffffffffffffffffffffffffffffffffffff\n      and\n        /* \"contracts/Rental.sol\":2419:2457  getContractByID[id].id != address(0x0) */\n      0xffffffffffffffffffffffffffffffffffffffff\n      and\n      eq\n      iszero\n        /* \"contracts/Rental.sol\":2411:2524  require(getContractByID[id].id != address(0x0), \"The following contract could not be found in the mapping list.\") */\n      tag_266\n      jumpi\n      mload(0x40)\n      0x08c379a000000000000000000000000000000000000000000000000000000000\n      dup2\n      mstore\n      0x04\n      add\n      tag_267\n      swap1\n      tag_213\n      jump\t// in\n    tag_267:\n      mload(0x40)\n      dup1\n      swap2\n      sub\n      swap1\n      revert\n    tag_266:\n        /* \"contracts/Rental.sol\":6294:6304  contractId */\n      dup6\n        /* \"contracts/Rental.sol\":2707:2723  uint totalAmount */\n      0x00\n        /* \"contracts/Rental.sol\":2765:2780  getContractByID */\n      0x07\n        /* \"contracts/Rental.sol\":2765:2784  getContractByID[id] */\n      0x00\n        /* \"contracts/Rental.sol\":2781:2783  id */\n      dup4\n        /* \"contracts/Rental.sol\":2765:2784  getContractByID[id] */\n      dup2\n      mstore\n      0x20\n      add\n      swap1\n      dup2\n      mstore\n      0x20\n      add\n      0x00\n      keccak256\n        /* \"contracts/Rental.sol\":2765:2794  getContractByID[id].totalCost */\n      0x0d\n      add\n      sload\n        /* \"contracts/Rental.sol\":2726:2741  getContractByID */\n      0x07\n        /* \"contracts/Rental.sol\":2726:2745  getContractByID[id] */\n      0x00\n        /* \"contracts/Rental.sol\":2742:2744  id */\n      dup5\n        /* \"contracts/Rental.sol\":2726:2745  getContractByID[id] */\n      dup2\n      mstore\n      0x20\n      add\n      swap1\n      dup2\n      mstore\n      0x20\n      add\n      0x00\n      keccak256\n        /* \"contracts/Rental.sol\":2726:2762  getContractByID[id].insuranceDeposit */\n      0x0e\n      add\n      sload\n        /* \"contracts/Rental.sol\":2726:2794  getContractByID[id].insuranceDeposit + getContractByID[id].totalCost */\n      tag_269\n      swap2\n      swap1\n      tag_165\n      jump\t// in\n    tag_269:\n        /* \"contracts/Rental.sol\":2707:2794  uint totalAmount = getContractByID[id].insuranceDeposit + getContractByID[id].totalCost */\n      swap1\n      pop\n        /* \"contracts/Rental.sol\":2830:2841  totalAmount */\n      dup1\n        /* \"contracts/Rental.sol\":2812:2818  sender */\n      0x01\n      0x00\n      swap1\n      sload\n      swap1\n      0x0100\n      exp\n      swap1\n      div\n      0xffffffffffffffffffffffffffffffffffffffff\n      and\n        /* \"contracts/Rental.sol\":2812:2826  sender.balance */\n      0xffffffffffffffffffffffffffffffffffffffff\n      and\n      balance\n        /* \"contracts/Rental.sol\":2812:2841  sender.balance >= totalAmount */\n      lt\n      iszero\n        /* \"contracts/Rental.sol\":2804:2910  require(sender.balance >= totalAmount, \"Could not proceed because there is not enough ETH in your wallet\") */\n      tag_270\n      jumpi\n      mload(0x40)\n      0x08c379a000000000000000000000000000000000000000000000000000000000\n      dup2\n      mstore\n      0x04\n      add\n      tag_271\n      swap1\n      tag_272\n      jump\t// in\n    tag_271:\n      mload(0x40)\n      dup1\n      swap2\n      sub\n      swap1\n      revert\n    tag_270:\n        /* \"contracts/Rental.sol\":6415:6440  ContractStatus.InProgress */\n      0x01\n        /* \"contracts/Rental.sol\":6378:6393  getContractByID */\n      0x07\n        /* \"contracts/Rental.sol\":6378:6405  getContractByID[contractId] */\n      0x00\n        /* \"contracts/Rental.sol\":6394:6404  contractId */\n      dup11\n        /* \"contracts/Rental.sol\":6378:6405  getContractByID[contractId] */\n      dup2\n      mstore\n      0x20\n      add\n      swap1\n      dup2\n      mstore\n      0x20\n      add\n      0x00\n      keccak256\n        /* \"contracts/Rental.sol\":6378:6412  getContractByID[contractId].status */\n      0x10\n      add\n      0x00\n        /* \"contracts/Rental.sol\":6378:6440  getContractByID[contractId].status = ContractStatus.InProgress */\n      0x0100\n      exp\n      dup2\n      sload\n      dup2\n      0xff\n      mul\n      not\n      and\n      swap1\n      dup4\n      0x02\n      dup2\n      gt\n      iszero\n      tag_274\n      jumpi\n      tag_275\n      tag_174\n      jump\t// in\n    tag_275:\n    tag_274:\n      mul\n      or\n      swap1\n      sstore\n      pop\n        /* \"contracts/Rental.sol\":6481:6500  VehicleStatus.Hired */\n      0x01\n        /* \"contracts/Rental.sol\":6450:6464  getVehicleByID */\n      0x05\n        /* \"contracts/Rental.sol\":6450:6471  getVehicleByID[carId] */\n      0x00\n        /* \"contracts/Rental.sol\":6465:6470  carId */\n      dup10\n        /* \"contracts/Rental.sol\":6450:6471  getVehicleByID[carId] */\n      dup2\n      mstore\n      0x20\n      add\n      swap1\n      dup2\n      mstore\n      0x20\n      add\n      0x00\n      keccak256\n        /* \"contracts/Rental.sol\":6450:6478  getVehicleByID[carId].status */\n      0x09\n      add\n      0x00\n        /* \"contracts/Rental.sol\":6450:6500  getVehicleByID[carId].status = VehicleStatus.Hired */\n      0x0100\n      exp\n      dup2\n      sload\n      dup2\n      0xff\n      mul\n      not\n      and\n      swap1\n      dup4\n      0x01\n      dup2\n      gt\n      iszero\n      tag_276\n      jumpi\n      tag_277\n      tag_174\n      jump\t// in\n    tag_277:\n    tag_276:\n      mul\n      or\n      swap1\n      sstore\n      pop\n        /* \"contracts/Rental.sol\":6537:6553  uint totalAmount */\n      0x00\n        /* \"contracts/Rental.sol\":6596:6611  getContractByID */\n      0x07\n        /* \"contracts/Rental.sol\":6596:6623  getContractByID[contractId] */\n      0x00\n        /* \"contracts/Rental.sol\":6612:6622  contractId */\n      dup11\n        /* \"contracts/Rental.sol\":6596:6623  getContractByID[contractId] */\n      dup2\n      mstore\n      0x20\n      add\n      swap1\n      dup2\n      mstore\n      0x20\n      add\n      0x00\n      keccak256\n        /* \"contracts/Rental.sol\":6596:6640  getContractByID[contractId].insuranceDeposit */\n      0x0e\n      add\n      sload\n        /* \"contracts/Rental.sol\":6556:6571  getContractByID */\n      0x07\n        /* \"contracts/Rental.sol\":6556:6583  getContractByID[contractId] */\n      0x00\n        /* \"contracts/Rental.sol\":6572:6582  contractId */\n      dup12\n        /* \"contracts/Rental.sol\":6556:6583  getContractByID[contractId] */\n      dup2\n      mstore\n      0x20\n      add\n      swap1\n      dup2\n      mstore\n      0x20\n      add\n      0x00\n      keccak256\n        /* \"contracts/Rental.sol\":6556:6593  getContractByID[contractId].totalCost */\n      0x0d\n      add\n      sload\n        /* \"contracts/Rental.sol\":6556:6640  getContractByID[contractId].totalCost + getContractByID[contractId].insuranceDeposit */\n      tag_278\n      swap2\n      swap1\n      tag_165\n      jump\t// in\n    tag_278:\n        /* \"contracts/Rental.sol\":6537:6640  uint totalAmount = getContractByID[contractId].totalCost + getContractByID[contractId].insuranceDeposit */\n      swap1\n      pop\n        /* \"contracts/Rental.sol\":6650:6654  this */\n      address\n        /* \"contracts/Rental.sol\":6650:6669  this.paymentProcess */\n      0xffffffffffffffffffffffffffffffffffffffff\n      and\n      0x74539cd0\n        /* \"contracts/Rental.sol\":6670:6681  totalAmount */\n      dup3\n        /* \"contracts/Rental.sol\":6650:6682  this.paymentProcess(totalAmount) */\n      mload(0x40)\n      dup3\n      0xffffffff\n      and\n      0xe0\n      shl\n      dup2\n      mstore\n      0x04\n      add\n      tag_279\n      swap2\n      swap1\n      tag_95\n      jump\t// in\n    tag_279:\n      0x00\n      mload(0x40)\n      dup1\n      dup4\n      sub\n      dup2\n      0x00\n      dup8\n      dup1\n      extcodesize\n      iszero\n      dup1\n      iszero\n      tag_280\n      jumpi\n      0x00\n      dup1\n      revert\n    tag_280:\n      pop\n      gas\n      call\n      iszero\n      dup1\n      iszero\n      tag_282\n      jumpi\n      returndatasize\n      0x00\n      dup1\n      returndatacopy\n      revert(0x00, returndatasize)\n    tag_282:\n      pop\n      pop\n      pop\n      pop\n        /* \"contracts/Rental.sol\":6720:6733  contractCount */\n      sload(0x04)\n        /* \"contracts/Rental.sol\":6700:6709  contracts */\n      0x08\n        /* \"contracts/Rental.sol\":6700:6716  contracts.length */\n      dup1\n      sload\n      swap1\n      pop\n        /* \"contracts/Rental.sol\":6700:6733  contracts.length == contractCount */\n      eq\n        /* \"contracts/Rental.sol\":6693:6733  return contracts.length == contractCount */\n      swap7\n      pop\n      pop\n        /* \"contracts/Rental.sol\":2697:2928  {... */\n      pop\n        /* \"contracts/Rental.sol\":2534:2535  _ */\n      pop\n        /* \"contracts/Rental.sol\":2061:2062  _ */\n      pop\n        /* \"contracts/Rental.sol\":1813:1814  _ */\n      pop\n        /* \"contracts/Access.sol\":618:619  _ */\n      pop\n        /* \"contracts/Rental.sol\":6095:6740  function confirmation(uint contractId, uint carId) ... */\n      swap3\n      swap2\n      pop\n      pop\n      jump\t// out\n        /* \"contracts/Rental.sol\":1235:1283  mapping(uint => Contract) public getContractByID */\n    tag_89:\n      mstore(0x20, 0x07)\n      dup1\n      0x00\n      mstore\n      keccak256(0x00, 0x40)\n      0x00\n      swap2\n      pop\n      swap1\n      pop\n      dup1\n      0x00\n      add\n      0x00\n      swap1\n      sload\n      swap1\n      0x0100\n      exp\n      swap1\n      div\n      0xffffffffffffffffffffffffffffffffffffffff\n      and\n      swap1\n      dup1\n      0x01\n      add\n      mload(0x40)\n      dup1\n      0x0120\n      add\n      0x40\n      mstore\n      swap1\n      dup2\n      0x00\n      dup3\n      add\n      sload\n      dup2\n      mstore\n      0x20\n      add\n      0x01\n      dup3\n      add\n      sload\n      dup2\n      mstore\n      0x20\n      add\n      0x02\n      dup3\n      add\n      sload\n      dup2\n      mstore\n      0x20\n      add\n      0x03\n      dup3\n      add\n      0x00\n      swap1\n      sload\n      swap1\n      0x0100\n      exp\n      swap1\n      div\n      0xff\n      and\n      0x06\n      dup2\n      gt\n      iszero\n      tag_283\n      jumpi\n      tag_284\n      tag_174\n      jump\t// in\n    tag_284:\n    tag_283:\n      0x06\n      dup2\n      gt\n      iszero\n      tag_285\n      jumpi\n      tag_286\n      tag_174\n      jump\t// in\n    tag_286:\n    tag_285:\n      dup2\n      mstore\n      0x20\n      add\n      0x04\n      dup3\n      add\n      mload(0x40)\n      dup1\n      0x40\n      add\n      0x40\n      mstore\n      swap1\n      dup2\n      0x00\n      dup3\n      add\n      dup1\n      sload\n      tag_287\n      swap1\n      tag_222\n      jump\t// in\n    tag_287:\n      dup1\n      0x1f\n      add\n      0x20\n      dup1\n      swap2\n      div\n      mul\n      0x20\n      add\n      mload(0x40)\n      swap1\n      dup2\n      add\n      0x40\n      mstore\n      dup1\n      swap3\n      swap2\n      swap1\n      dup2\n      dup2\n      mstore\n      0x20\n      add\n      dup3\n      dup1\n      sload\n      tag_288\n      swap1\n      tag_222\n      jump\t// in\n    tag_288:\n      dup1\n      iszero\n      tag_289\n      jumpi\n      dup1\n      0x1f\n      lt\n      tag_290\n      jumpi\n      0x0100\n      dup1\n      dup4\n      sload\n      div\n      mul\n      dup4\n      mstore\n      swap2\n      0x20\n      add\n      swap2\n      jump(tag_289)\n    tag_290:\n      dup3\n      add\n      swap2\n      swap1\n      0x00\n      mstore\n      keccak256(0x00, 0x20)\n      swap1\n    tag_291:\n      dup2\n      sload\n      dup2\n      mstore\n      swap1\n      0x01\n      add\n      swap1\n      0x20\n      add\n      dup1\n      dup4\n      gt\n      tag_291\n      jumpi\n      dup3\n      swap1\n      sub\n      0x1f\n      and\n      dup3\n      add\n      swap2\n    tag_289:\n      pop\n      pop\n      pop\n      pop\n      pop\n      dup2\n      mstore\n      0x20\n      add\n      0x01\n      dup3\n      add\n      dup1\n      sload\n      tag_292\n      swap1\n      tag_222\n      jump\t// in\n    tag_292:\n      dup1\n      0x1f\n      add\n      0x20\n      dup1\n      swap2\n      div\n      mul\n      0x20\n      add\n      mload(0x40)\n      swap1\n      dup2\n      add\n      0x40\n      mstore\n      dup1\n      swap3\n      swap2\n      swap1\n      dup2\n      dup2\n      mstore\n      0x20\n      add\n      dup3\n      dup1\n      sload\n      tag_293\n      swap1\n      tag_222\n      jump\t// in\n    tag_293:\n      dup1\n      iszero\n      tag_294\n      jumpi\n      dup1\n      0x1f\n      lt\n      tag_295\n      jumpi\n      0x0100\n      dup1\n      dup4\n      sload\n      div\n      mul\n      dup4\n      mstore\n      swap2\n      0x20\n      add\n      swap2\n      jump(tag_294)\n    tag_295:\n      dup3\n      add\n      swap2\n      swap1\n      0x00\n      mstore\n      keccak256(0x00, 0x20)\n      swap1\n    tag_296:\n      dup2\n      sload\n      dup2\n      mstore\n      swap1\n      0x01\n      add\n      swap1\n      0x20\n      add\n      dup1\n      dup4\n      gt\n      tag_296\n      jumpi\n      dup3\n      swap1\n      sub\n      0x1f\n      and\n      dup3\n      add\n      swap2\n    tag_294:\n      pop\n      pop\n      pop\n      pop\n      pop\n      dup2\n      mstore\n      pop\n      pop\n      dup2\n      mstore\n      0x20\n      add\n      0x06\n      dup3\n      add\n      sload\n      dup2\n      mstore\n      0x20\n      add\n      0x07\n      dup3\n      add\n      sload\n      dup2\n      mstore\n      0x20\n      add\n      0x08\n      dup3\n      add\n      sload\n      dup2\n      mstore\n      0x20\n      add\n      0x09\n      dup3\n      add\n      0x00\n      swap1\n      sload\n      swap1\n      0x0100\n      exp\n      swap1\n      div\n      0xff\n      and\n      0x01\n      dup2\n      gt\n      iszero\n      tag_297\n      jumpi\n      tag_298\n      tag_174\n      jump\t// in\n    tag_298:\n    tag_297:\n      0x01\n      dup2\n      gt\n      iszero\n      tag_299\n      jumpi\n      tag_300\n      tag_174\n      jump\t// in\n    tag_300:\n    tag_299:\n      dup2\n      mstore\n      pop\n      pop\n      swap1\n      dup1\n      0x0b\n      add\n      mload(0x40)\n      dup1\n      0x40\n      add\n      0x40\n      mstore\n      swap1\n      dup2\n      0x00\n      dup3\n      add\n      sload\n      dup2\n      mstore\n      0x20\n      add\n      0x01\n      dup3\n      add\n      sload\n      dup2\n      mstore\n      pop\n      pop\n      swap1\n      dup1\n      0x0d\n      add\n      sload\n      swap1\n      dup1\n      0x0e\n      add\n      sload\n      swap1\n      dup1\n      0x0f\n      add\n      sload\n      swap1\n      dup1\n      0x10\n      add\n      0x00\n      swap1\n      sload\n      swap1\n      0x0100\n      exp\n      swap1\n      div\n      0xff\n      and\n      swap1\n      pop\n      dup8\n      jump\t// out\n        /* \"contracts/Rental.sol\":1116:1145  uint public contractCount = 0 */\n    tag_93:\n      sload(0x04)\n      dup2\n      jump\t// out\n        /* \"contracts/Rental.sol\":7110:7832  function completion(uint contractId, uint carId) ... */\n    tag_98:\n        /* \"contracts/Rental.sol\":7308:7320  bool success */\n      0x00\n        /* \"contracts/Access.sol\":561:581  isRenter(msg.sender) */\n      tag_302\n        /* \"contracts/Access.sol\":570:580  msg.sender */\n      caller\n        /* \"contracts/Access.sol\":561:569  isRenter */\n      tag_120\n        /* \"contracts/Access.sol\":561:581  isRenter(msg.sender) */\n      jump\t// in\n    tag_302:\n        /* \"contracts/Access.sol\":553:608  require(isRenter(msg.sender), \"Restricted to renters.\") */\n      tag_303\n      jumpi\n      mload(0x40)\n      0x08c379a000000000000000000000000000000000000000000000000000000000\n      dup2\n      mstore\n      0x04\n      add\n      tag_304\n      swap1\n      tag_201\n      jump\t// in\n    tag_304:\n      mload(0x40)\n      dup1\n      swap2\n      sub\n      swap1\n      revert\n    tag_303:\n        /* \"contracts/Rental.sol\":7217:7222  carId */\n      dup2\n        /* \"contracts/Rental.sol\":1733:1736  0x0 */\n      0x00\n        /* \"contracts/Rental.sol\":1704:1718  getVehicleByID */\n      0x05\n        /* \"contracts/Rental.sol\":1704:1722  getVehicleByID[id] */\n      0x00\n        /* \"contracts/Rental.sol\":1719:1721  id */\n      dup4\n        /* \"contracts/Rental.sol\":1704:1722  getVehicleByID[id] */\n      dup2\n      mstore\n      0x20\n      add\n      swap1\n      dup2\n      mstore\n      0x20\n      add\n      0x00\n      keccak256\n        /* \"contracts/Rental.sol\":1704:1725  getVehicleByID[id].id */\n      0x00\n      add\n      sload\n        /* \"contracts/Rental.sol\":1704:1737  getVehicleByID[id].id > uint(0x0) */\n      gt\n        /* \"contracts/Rental.sol\":1696:1803  require(getVehicleByID[id].id > uint(0x0), \"The following vehicle could not be found in the mapping list.\") */\n      tag_306\n      jumpi\n      mload(0x40)\n      0x08c379a000000000000000000000000000000000000000000000000000000000\n      dup2\n      mstore\n      0x04\n      add\n      tag_307\n      swap1\n      tag_257\n      jump\t// in\n    tag_307:\n      mload(0x40)\n      dup1\n      swap2\n      sub\n      swap1\n      revert\n    tag_306:\n        /* \"contracts/Rental.sol\":7240:7250  contractId */\n      dup4\n        /* \"contracts/Rental.sol\":2453:2456  0x0 */\n      0x00\n        /* \"contracts/Rental.sol\":2419:2457  getContractByID[id].id != address(0x0) */\n      0xffffffffffffffffffffffffffffffffffffffff\n      and\n        /* \"contracts/Rental.sol\":2419:2434  getContractByID */\n      0x07\n        /* \"contracts/Rental.sol\":2419:2438  getContractByID[id] */\n      0x00\n        /* \"contracts/Rental.sol\":2435:2437  id */\n      dup4\n        /* \"contracts/Rental.sol\":2419:2438  getContractByID[id] */\n      dup2\n      mstore\n      0x20\n      add\n      swap1\n      dup2\n      mstore\n      0x20\n      add\n      0x00\n      keccak256\n        /* \"contracts/Rental.sol\":2419:2441  getContractByID[id].id */\n      0x00\n      add\n      0x00\n      swap1\n      sload\n      swap1\n      0x0100\n      exp\n      swap1\n      div\n      0xffffffffffffffffffffffffffffffffffffffff\n      and\n        /* \"contracts/Rental.sol\":2419:2457  getContractByID[id].id != address(0x0) */\n      0xffffffffffffffffffffffffffffffffffffffff\n      and\n      eq\n      iszero\n        /* \"contracts/Rental.sol\":2411:2524  require(getContractByID[id].id != address(0x0), \"The following contract could not be found in the mapping list.\") */\n      tag_309\n      jumpi\n      mload(0x40)\n      0x08c379a000000000000000000000000000000000000000000000000000000000\n      dup2\n      mstore\n      0x04\n      add\n      tag_310\n      swap1\n      tag_213\n      jump\t// in\n    tag_310:\n      mload(0x40)\n      dup1\n      swap2\n      sub\n      swap1\n      revert\n    tag_309:\n        /* \"contracts/Rental.sol\":7279:7289  contractId */\n      dup5\n        /* \"contracts/Rental.sol\":2989:3005  uint totalAmount */\n      0x00\n        /* \"contracts/Rental.sol\":3008:3023  getContractByID */\n      0x07\n        /* \"contracts/Rental.sol\":3008:3027  getContractByID[id] */\n      0x00\n        /* \"contracts/Rental.sol\":3024:3026  id */\n      dup4\n        /* \"contracts/Rental.sol\":3008:3027  getContractByID[id] */\n      dup2\n      mstore\n      0x20\n      add\n      swap1\n      dup2\n      mstore\n      0x20\n      add\n      0x00\n      keccak256\n        /* \"contracts/Rental.sol\":3008:3044  getContractByID[id].insuranceDeposit */\n      0x0e\n      add\n      sload\n        /* \"contracts/Rental.sol\":2989:3044  uint totalAmount = getContractByID[id].insuranceDeposit */\n      swap1\n      pop\n        /* \"contracts/Rental.sol\":3087:3098  totalAmount */\n      dup1\n        /* \"contracts/Rental.sol\":3062:3083  address(this).balance */\n      selfbalance\n        /* \"contracts/Rental.sol\":3062:3098  address(this).balance >= totalAmount */\n      lt\n      iszero\n        /* \"contracts/Rental.sol\":3054:3167  require(address(this).balance >= totalAmount, \"Could not proceed because there is not enough ETH in your wallet\") */\n      tag_312\n      jumpi\n      mload(0x40)\n      0x08c379a000000000000000000000000000000000000000000000000000000000\n      dup2\n      mstore\n      0x04\n      add\n      tag_313\n      swap1\n      tag_272\n      jump\t// in\n    tag_313:\n      mload(0x40)\n      dup1\n      swap2\n      sub\n      swap1\n      revert\n    tag_312:\n        /* \"contracts/Rental.sol\":7400:7424  ContractStatus.Completed */\n      0x02\n        /* \"contracts/Rental.sol\":7363:7378  getContractByID */\n      0x07\n        /* \"contracts/Rental.sol\":7363:7390  getContractByID[contractId] */\n      0x00\n        /* \"contracts/Rental.sol\":7379:7389  contractId */\n      dup10\n        /* \"contracts/Rental.sol\":7363:7390  getContractByID[contractId] */\n      dup2\n      mstore\n      0x20\n      add\n      swap1\n      dup2\n      mstore\n      0x20\n      add\n      0x00\n      keccak256\n        /* \"contracts/Rental.sol\":7363:7397  getContractByID[contractId].status */\n      0x10\n      add\n      0x00\n        /* \"contracts/Rental.sol\":7363:7424  getContractByID[contractId].status = ContractStatus.Completed */\n      0x0100\n      exp\n      dup2\n      sload\n      dup2\n      0xff\n      mul\n      not\n      and\n      swap1\n      dup4\n      0x02\n      dup2\n      gt\n      iszero\n      tag_315\n      jumpi\n      tag_316\n      tag_174\n      jump\t// in\n    tag_316:\n    tag_315:\n      mul\n      or\n      swap1\n      sstore\n      pop\n        /* \"contracts/Rental.sol\":7465:7488  VehicleStatus.Available */\n      0x00\n        /* \"contracts/Rental.sol\":7434:7448  getVehicleByID */\n      0x05\n        /* \"contracts/Rental.sol\":7434:7455  getVehicleByID[carId] */\n      0x00\n        /* \"contracts/Rental.sol\":7449:7454  carId */\n      dup9\n        /* \"contracts/Rental.sol\":7434:7455  getVehicleByID[carId] */\n      dup2\n      mstore\n      0x20\n      add\n      swap1\n      dup2\n      mstore\n      0x20\n      add\n      0x00\n      keccak256\n        /* \"contracts/Rental.sol\":7434:7462  getVehicleByID[carId].status */\n      0x09\n      add\n      0x00\n        /* \"contracts/Rental.sol\":7434:7488  getVehicleByID[carId].status = VehicleStatus.Available */\n      0x0100\n      exp\n      dup2\n      sload\n      dup2\n      0xff\n      mul\n      not\n      and\n      swap1\n      dup4\n      0x01\n      dup2\n      gt\n      iszero\n      tag_317\n      jumpi\n      tag_318\n      tag_174\n      jump\t// in\n    tag_318:\n    tag_317:\n      mul\n      or\n      swap1\n      sstore\n      pop\n        /* \"contracts/Rental.sol\":7525:7546  uint insuranceDeposit */\n      0x00\n        /* \"contracts/Rental.sol\":7549:7564  getContractByID */\n      0x07\n        /* \"contracts/Rental.sol\":7549:7576  getContractByID[contractId] */\n      0x00\n        /* \"contracts/Rental.sol\":7565:7575  contractId */\n      dup10\n        /* \"contracts/Rental.sol\":7549:7576  getContractByID[contractId] */\n      dup2\n      mstore\n      0x20\n      add\n      swap1\n      dup2\n      mstore\n      0x20\n      add\n      0x00\n      keccak256\n        /* \"contracts/Rental.sol\":7549:7593  getContractByID[contractId].insuranceDeposit */\n      0x0e\n      add\n      sload\n        /* \"contracts/Rental.sol\":7525:7593  uint insuranceDeposit = getContractByID[contractId].insuranceDeposit */\n      swap1\n      pop\n        /* \"contracts/Rental.sol\":7603:7628  address payable recipient */\n      0x00\n        /* \"contracts/Rental.sol\":7639:7649  msg.sender */\n      caller\n        /* \"contracts/Rental.sol\":7603:7650  address payable recipient = payable(msg.sender) */\n      swap1\n      pop\n        /* \"contracts/Rental.sol\":7661:7670  bool sent */\n      0x00\n        /* \"contracts/Rental.sol\":7676:7685  recipient */\n      dup2\n        /* \"contracts/Rental.sol\":7676:7690  recipient.call */\n      0xffffffffffffffffffffffffffffffffffffffff\n      and\n        /* \"contracts/Rental.sol\":7698:7714  insuranceDeposit */\n      dup4\n        /* \"contracts/Rental.sol\":7676:7719  recipient.call{value: insuranceDeposit}(\"\") */\n      mload(0x40)\n      tag_319\n      swap1\n      tag_320\n      jump\t// in\n    tag_319:\n      0x00\n      mload(0x40)\n      dup1\n      dup4\n      sub\n      dup2\n      dup6\n      dup8\n      gas\n      call\n      swap3\n      pop\n      pop\n      pop\n      returndatasize\n      dup1\n      0x00\n      dup2\n      eq\n      tag_323\n      jumpi\n      mload(0x40)\n      swap2\n      pop\n      and(add(returndatasize, 0x3f), not(0x1f))\n      dup3\n      add\n      0x40\n      mstore\n      returndatasize\n      dup3\n      mstore\n      returndatasize\n      0x00\n      0x20\n      dup5\n      add\n      returndatacopy\n      jump(tag_322)\n    tag_323:\n      0x60\n      swap2\n      pop\n    tag_322:\n      pop\n        /* \"contracts/Rental.sol\":7660:7719  (bool sent, ) = recipient.call{value: insuranceDeposit}(\"\") */\n      pop\n      swap1\n      pop\n        /* \"contracts/Rental.sol\":7737:7741  sent */\n      dup1\n        /* \"contracts/Rental.sol\":7729:7766  require(sent, \"Failed to send Ether\") */\n      tag_324\n      jumpi\n      mload(0x40)\n      0x08c379a000000000000000000000000000000000000000000000000000000000\n      dup2\n      mstore\n      0x04\n      add\n      tag_325\n      swap1\n      tag_326\n      jump\t// in\n    tag_325:\n      mload(0x40)\n      dup1\n      swap2\n      sub\n      swap1\n      revert\n    tag_324:\n        /* \"contracts/Rental.sol\":7812:7825  contractCount */\n      sload(0x04)\n        /* \"contracts/Rental.sol\":7792:7801  contracts */\n      0x08\n        /* \"contracts/Rental.sol\":7792:7808  contracts.length */\n      dup1\n      sload\n      swap1\n      pop\n        /* \"contracts/Rental.sol\":7792:7825  contracts.length == contractCount */\n      eq\n        /* \"contracts/Rental.sol\":7785:7825  return contracts.length == contractCount */\n      swap8\n      pop\n      pop\n      pop\n      pop\n        /* \"contracts/Rental.sol\":2979:3185  {... */\n      pop\n        /* \"contracts/Rental.sol\":2534:2535  _ */\n      pop\n        /* \"contracts/Rental.sol\":1813:1814  _ */\n      pop\n        /* \"contracts/Access.sol\":618:619  _ */\n      pop\n        /* \"contracts/Rental.sol\":7110:7832  function completion(uint contractId, uint carId) ... */\n      swap3\n      swap2\n      pop\n      pop\n      jump\t// out\n        /* \"contracts/utils/AccessControl.sol\":2691:2819  function getRoleMember(bytes32 role, uint256 index) public view returns (address) {... */\n    tag_104:\n        /* \"contracts/utils/AccessControl.sol\":2764:2771  address */\n      0x00\n        /* \"contracts/utils/AccessControl.sol\":2790:2812  _roles[role].at(index) */\n      tag_328\n        /* \"contracts/utils/AccessControl.sol\":2806:2811  index */\n      dup3\n        /* \"contracts/utils/AccessControl.sol\":2790:2796  _roles */\n      0x00\n        /* \"contracts/utils/AccessControl.sol\":2790:2802  _roles[role] */\n      dup1\n        /* \"contracts/utils/AccessControl.sol\":2797:2801  role */\n      dup7\n        /* \"contracts/utils/AccessControl.sol\":2790:2802  _roles[role] */\n      dup2\n      mstore\n      0x20\n      add\n      swap1\n      dup2\n      mstore\n      0x20\n      add\n      0x00\n      keccak256\n        /* \"contracts/utils/AccessControl.sol\":2790:2805  _roles[role].at */\n      tag_329\n      swap1\n        /* \"contracts/utils/AccessControl.sol\":2790:2812  _roles[role].at(index) */\n      swap2\n      swap1\n      0xffffffff\n      and\n      jump\t// in\n    tag_328:\n        /* \"contracts/utils/AccessControl.sol\":2783:2812  return _roles[role].at(index) */\n      swap1\n      pop\n        /* \"contracts/utils/AccessControl.sol\":2691:2819  function getRoleMember(bytes32 role, uint256 index) public view returns (address) {... */\n      swap3\n      swap2\n      pop\n      pop\n      jump\t// out\n        /* \"contracts/utils/AccessControl.sol\":1459:1588  function hasRole(bytes32 role, address account) public view returns (bool) {... */\n    tag_111:\n        /* \"contracts/utils/AccessControl.sol\":1528:1532  bool */\n      0x00\n        /* \"contracts/utils/AccessControl.sol\":1551:1581  _roles[role].contains(account) */\n      tag_331\n        /* \"contracts/utils/AccessControl.sol\":1573:1580  account */\n      dup3\n        /* \"contracts/utils/AccessControl.sol\":1551:1557  _roles */\n      0x00\n        /* \"contracts/utils/AccessControl.sol\":1551:1563  _roles[role] */\n      dup1\n        /* \"contracts/utils/AccessControl.sol\":1558:1562  role */\n      dup7\n        /* \"contracts/utils/AccessControl.sol\":1551:1563  _roles[role] */\n      dup2\n      mstore\n      0x20\n      add\n      swap1\n      dup2\n      mstore\n      0x20\n      add\n      0x00\n      keccak256\n        /* \"contracts/utils/AccessControl.sol\":1551:1572  _roles[role].contains */\n      tag_332\n      swap1\n        /* \"contracts/utils/AccessControl.sol\":1551:1581  _roles[role].contains(account) */\n      swap2\n      swap1\n      0xffffffff\n      and\n      jump\t// in\n    tag_331:\n        /* \"contracts/utils/AccessControl.sol\":1544:1581  return _roles[role].contains(account) */\n      swap1\n      pop\n        /* \"contracts/utils/AccessControl.sol\":1459:1588  function hasRole(bytes32 role, address account) public view returns (bool) {... */\n      swap3\n      swap2\n      pop\n      pop\n      jump\t// out\n        /* \"contracts/Rental.sol\":1082:1110  uint public vehicleCount = 0 */\n    tag_115:\n      sload(0x03)\n      dup2\n      jump\t// out\n        /* \"contracts/Access.sol\":898:1021  function isRenter(address account) public virtual view returns (bool) {... */\n    tag_120:\n        /* \"contracts/Access.sol\":962:966  bool */\n      0x00\n        /* \"contracts/Access.sol\":985:1014  hasRole(RENTER_ROLE, account) */\n      tag_334\n        /* \"contracts/Access.sol\":993:1004  RENTER_ROLE */\n      0x52454e5445520000000000000000000000000000000000000000000000000000\n        /* \"contracts/Access.sol\":1006:1013  account */\n      dup4\n        /* \"contracts/Access.sol\":985:992  hasRole */\n      tag_111\n        /* \"contracts/Access.sol\":985:1014  hasRole(RENTER_ROLE, account) */\n      jump\t// in\n    tag_334:\n        /* \"contracts/Access.sol\":978:1014  return hasRole(RENTER_ROLE, account) */\n      swap1\n      pop\n        /* \"contracts/Access.sol\":898:1021  function isRenter(address account) public virtual view returns (bool) {... */\n      swap2\n      swap1\n      pop\n      jump\t// out\n        /* \"contracts/Rental.sol\":4305:4981  function addRentPeriod(uint carId, Period memory period, uint dayscount) ... */\n    tag_126:\n        /* \"contracts/Rental.sol\":4475:4487  bool success */\n      0x00\n        /* \"contracts/Access.sol\":561:581  isRenter(msg.sender) */\n      tag_336\n        /* \"contracts/Access.sol\":570:580  msg.sender */\n      caller\n        /* \"contracts/Access.sol\":561:569  isRenter */\n      tag_120\n        /* \"contracts/Access.sol\":561:581  isRenter(msg.sender) */\n      jump\t// in\n    tag_336:\n        /* \"contracts/Access.sol\":553:608  require(isRenter(msg.sender), \"Restricted to renters.\") */\n      tag_337\n      jumpi\n      mload(0x40)\n      0x08c379a000000000000000000000000000000000000000000000000000000000\n      dup2\n      mstore\n      0x04\n      add\n      tag_338\n      swap1\n      tag_201\n      jump\t// in\n    tag_338:\n      mload(0x40)\n      dup1\n      swap2\n      sub\n      swap1\n      revert\n    tag_337:\n        /* \"contracts/Rental.sol\":4428:4433  carId */\n      dup4\n        /* \"contracts/Rental.sol\":1733:1736  0x0 */\n      0x00\n        /* \"contracts/Rental.sol\":1704:1718  getVehicleByID */\n      0x05\n        /* \"contracts/Rental.sol\":1704:1722  getVehicleByID[id] */\n      0x00\n        /* \"contracts/Rental.sol\":1719:1721  id */\n      dup4\n        /* \"contracts/Rental.sol\":1704:1722  getVehicleByID[id] */\n      dup2\n      mstore\n      0x20\n      add\n      swap1\n      dup2\n      mstore\n      0x20\n      add\n      0x00\n      keccak256\n        /* \"contracts/Rental.sol\":1704:1725  getVehicleByID[id].id */\n      0x00\n      add\n      sload\n        /* \"contracts/Rental.sol\":1704:1737  getVehicleByID[id].id > uint(0x0) */\n      gt\n        /* \"contracts/Rental.sol\":1696:1803  require(getVehicleByID[id].id > uint(0x0), \"The following vehicle could not be found in the mapping list.\") */\n      tag_340\n      jumpi\n      mload(0x40)\n      0x08c379a000000000000000000000000000000000000000000000000000000000\n      dup2\n      mstore\n      0x04\n      add\n      tag_341\n      swap1\n      tag_257\n      jump\t// in\n    tag_341:\n      mload(0x40)\n      dup1\n      swap2\n      sub\n      swap1\n      revert\n    tag_340:\n        /* \"contracts/Rental.sol\":2230:2231  1 */\n      0x01\n        /* \"contracts/Rental.sol\":2216:2229  contractCount */\n      sload(0x04)\n        /* \"contracts/Rental.sol\":2216:2231  contractCount+1 */\n      tag_343\n      swap2\n      swap1\n      tag_165\n      jump\t// in\n    tag_343:\n        /* \"contracts/Rental.sol\":2197:2206  contracts */\n      0x08\n        /* \"contracts/Rental.sol\":2197:2213  contracts.length */\n      dup1\n      sload\n      swap1\n      pop\n        /* \"contracts/Rental.sol\":2197:2231  contracts.length < contractCount+1 */\n      lt\n        /* \"contracts/Rental.sol\":2189:2282  require(contracts.length < contractCount+1, \"The following contract has already been added.\") */\n      tag_344\n      jumpi\n      mload(0x40)\n      0x08c379a000000000000000000000000000000000000000000000000000000000\n      dup2\n      mstore\n      0x04\n      add\n      tag_345\n      swap1\n      tag_346\n      jump\t// in\n    tag_345:\n      mload(0x40)\n      dup1\n      swap2\n      sub\n      swap1\n      revert\n    tag_344:\n        /* \"contracts/Rental.sol\":4503:4516  contractCount */\n      0x04\n      0x00\n        /* \"contracts/Rental.sol\":4503:4518  contractCount++ */\n      dup2\n      sload\n      dup1\n      swap3\n      swap2\n      swap1\n      tag_348\n      swap1\n      tag_171\n      jump\t// in\n    tag_348:\n      swap2\n      swap1\n      pop\n      sstore\n      pop\n        /* \"contracts/Rental.sol\":4528:4542  uint feeAmount */\n      0x00\n        /* \"contracts/Rental.sol\":4578:4587  dayscount */\n      dup4\n        /* \"contracts/Rental.sol\":4545:4559  getVehicleByID */\n      0x05\n        /* \"contracts/Rental.sol\":4545:4566  getVehicleByID[carId] */\n      0x00\n        /* \"contracts/Rental.sol\":4560:4565  carId */\n      dup9\n        /* \"contracts/Rental.sol\":4545:4566  getVehicleByID[carId] */\n      dup2\n      mstore\n      0x20\n      add\n      swap1\n      dup2\n      mstore\n      0x20\n      add\n      0x00\n      keccak256\n        /* \"contracts/Rental.sol\":4545:4575  getVehicleByID[carId].rentCost */\n      0x08\n      add\n      sload\n        /* \"contracts/Rental.sol\":4545:4587  getVehicleByID[carId].rentCost * dayscount */\n      tag_349\n      swap2\n      swap1\n      tag_350\n      jump\t// in\n    tag_349:\n        /* \"contracts/Rental.sol\":4528:4587  uint feeAmount = getVehicleByID[carId].rentCost * dayscount */\n      swap1\n      pop\n        /* \"contracts/Rental.sol\":4597:4625  Contract memory temporaryObj */\n      0x00\n        /* \"contracts/Rental.sol\":4628:4830  Contract(... */\n      mload(0x40)\n      dup1\n      0xe0\n      add\n      0x40\n      mstore\n      dup1\n        /* \"contracts/Rental.sol\":4650:4660  msg.sender */\n      caller\n        /* \"contracts/Rental.sol\":4628:4830  Contract(... */\n      0xffffffffffffffffffffffffffffffffffffffff\n      and\n      dup2\n      mstore\n      0x20\n      add\n        /* \"contracts/Rental.sol\":4674:4688  getVehicleByID */\n      0x05\n        /* \"contracts/Rental.sol\":4674:4695  getVehicleByID[carId] */\n      0x00\n        /* \"contracts/Rental.sol\":4689:4694  carId */\n      dup11\n        /* \"contracts/Rental.sol\":4674:4695  getVehicleByID[carId] */\n      dup2\n      mstore\n      0x20\n      add\n      swap1\n      dup2\n      mstore\n      0x20\n      add\n      0x00\n      keccak256\n        /* \"contracts/Rental.sol\":4628:4830  Contract(... */\n      mload(0x40)\n      dup1\n      0x0120\n      add\n      0x40\n      mstore\n      swap1\n      dup2\n      0x00\n      dup3\n      add\n      sload\n      dup2\n      mstore\n      0x20\n      add\n      0x01\n      dup3\n      add\n      sload\n      dup2\n      mstore\n      0x20\n      add\n      0x02\n      dup3\n      add\n      sload\n      dup2\n      mstore\n      0x20\n      add\n      0x03\n      dup3\n      add\n      0x00\n      swap1\n      sload\n      swap1\n      0x0100\n      exp\n      swap1\n      div\n      0xff\n      and\n      0x06\n      dup2\n      gt\n      iszero\n      tag_351\n      jumpi\n      tag_352\n      tag_174\n      jump\t// in\n    tag_352:\n    tag_351:\n      0x06\n      dup2\n      gt\n      iszero\n      tag_353\n      jumpi\n      tag_354\n      tag_174\n      jump\t// in\n    tag_354:\n    tag_353:\n      dup2\n      mstore\n      0x20\n      add\n      0x04\n      dup3\n      add\n      mload(0x40)\n      dup1\n      0x40\n      add\n      0x40\n      mstore\n      swap1\n      dup2\n      0x00\n      dup3\n      add\n      dup1\n      sload\n      tag_355\n      swap1\n      tag_222\n      jump\t// in\n    tag_355:\n      dup1\n      0x1f\n      add\n      0x20\n      dup1\n      swap2\n      div\n      mul\n      0x20\n      add\n      mload(0x40)\n      swap1\n      dup2\n      add\n      0x40\n      mstore\n      dup1\n      swap3\n      swap2\n      swap1\n      dup2\n      dup2\n      mstore\n      0x20\n      add\n      dup3\n      dup1\n      sload\n      tag_356\n      swap1\n      tag_222\n      jump\t// in\n    tag_356:\n      dup1\n      iszero\n      tag_357\n      jumpi\n      dup1\n      0x1f\n      lt\n      tag_358\n      jumpi\n      0x0100\n      dup1\n      dup4\n      sload\n      div\n      mul\n      dup4\n      mstore\n      swap2\n      0x20\n      add\n      swap2\n      jump(tag_357)\n    tag_358:\n      dup3\n      add\n      swap2\n      swap1\n      0x00\n      mstore\n      keccak256(0x00, 0x20)\n      swap1\n    tag_359:\n      dup2\n      sload\n      dup2\n      mstore\n      swap1\n      0x01\n      add\n      swap1\n      0x20\n      add\n      dup1\n      dup4\n      gt\n      tag_359\n      jumpi\n      dup3\n      swap1\n      sub\n      0x1f\n      and\n      dup3\n      add\n      swap2\n    tag_357:\n      pop\n      pop\n      pop\n      pop\n      pop\n      dup2\n      mstore\n      0x20\n      add\n      0x01\n      dup3\n      add\n      dup1\n      sload\n      tag_360\n      swap1\n      tag_222\n      jump\t// in\n    tag_360:\n      dup1\n      0x1f\n      add\n      0x20\n      dup1\n      swap2\n      div\n      mul\n      0x20\n      add\n      mload(0x40)\n      swap1\n      dup2\n      add\n      0x40\n      mstore\n      dup1\n      swap3\n      swap2\n      swap1\n      dup2\n      dup2\n      mstore\n      0x20\n      add\n      dup3\n      dup1\n      sload\n      tag_361\n      swap1\n      tag_222\n      jump\t// in\n    tag_361:\n      dup1\n      iszero\n      tag_362\n      jumpi\n      dup1\n      0x1f\n      lt\n      tag_363\n      jumpi\n      0x0100\n      dup1\n      dup4\n      sload\n      div\n      mul\n      dup4\n      mstore\n      swap2\n      0x20\n      add\n      swap2\n      jump(tag_362)\n    tag_363:\n      dup3\n      add\n      swap2\n      swap1\n      0x00\n      mstore\n      keccak256(0x00, 0x20)\n      swap1\n    tag_364:\n      dup2\n      sload\n      dup2\n      mstore\n      swap1\n      0x01\n      add\n      swap1\n      0x20\n      add\n      dup1\n      dup4\n      gt\n      tag_364\n      jumpi\n      dup3\n      swap1\n      sub\n      0x1f\n      and\n      dup3\n      add\n      swap2\n    tag_362:\n      pop\n      pop\n      pop\n      pop\n      pop\n      dup2\n      mstore\n      pop\n      pop\n      dup2\n      mstore\n      0x20\n      add\n      0x06\n      dup3\n      add\n      sload\n      dup2\n      mstore\n      0x20\n      add\n      0x07\n      dup3\n      add\n      sload\n      dup2\n      mstore\n      0x20\n      add\n      0x08\n      dup3\n      add\n      sload\n      dup2\n      mstore\n      0x20\n      add\n      0x09\n      dup3\n      add\n      0x00\n      swap1\n      sload\n      swap1\n      0x0100\n      exp\n      swap1\n      div\n      0xff\n      and\n      0x01\n      dup2\n      gt\n      iszero\n      tag_365\n      jumpi\n      tag_366\n      tag_174\n      jump\t// in\n    tag_366:\n    tag_365:\n      0x01\n      dup2\n      gt\n      iszero\n      tag_367\n      jumpi\n      tag_368\n      tag_174\n      jump\t// in\n    tag_368:\n    tag_367:\n      dup2\n      mstore\n      pop\n      pop\n      dup2\n      mstore\n      0x20\n      add\n        /* \"contracts/Rental.sol\":4709:4715  period */\n      dup8\n        /* \"contracts/Rental.sol\":4628:4830  Contract(... */\n      dup2\n      mstore\n      0x20\n      add\n        /* \"contracts/Rental.sol\":4729:4738  feeAmount */\n      dup4\n        /* \"contracts/Rental.sol\":4628:4830  Contract(... */\n      dup2\n      mstore\n      0x20\n      add\n        /* \"contracts/Rental.sol\":4752:4753  0 */\n      0x00\n        /* \"contracts/Rental.sol\":4628:4830  Contract(... */\n      dup2\n      mstore\n      0x20\n      add\n        /* \"contracts/Rental.sol\":4767:4782  block.timestamp */\n      timestamp\n        /* \"contracts/Rental.sol\":4628:4830  Contract(... */\n      dup2\n      mstore\n      0x20\n      add\n        /* \"contracts/Rental.sol\":4796:4820  ContractStatus.Initiated */\n      0x00\n        /* \"contracts/Rental.sol\":4628:4830  Contract(... */\n      0x02\n      dup2\n      gt\n      iszero\n      tag_369\n      jumpi\n      tag_370\n      tag_174\n      jump\t// in\n    tag_370:\n    tag_369:\n      dup2\n      mstore\n      pop\n        /* \"contracts/Rental.sol\":4597:4830  Contract memory temporaryObj = Contract(... */\n      swap1\n      pop\n        /* \"contracts/Rental.sol\":4873:4885  temporaryObj */\n      dup1\n        /* \"contracts/Rental.sol\":4840:4855  getContractByID */\n      0x07\n        /* \"contracts/Rental.sol\":4840:4870  getContractByID[contractCount] */\n      0x00\n        /* \"contracts/Rental.sol\":4856:4869  contractCount */\n      sload(0x04)\n        /* \"contracts/Rental.sol\":4840:4870  getContractByID[contractCount] */\n      dup2\n      mstore\n      0x20\n      add\n      swap1\n      dup2\n      mstore\n      0x20\n      add\n      0x00\n      keccak256\n        /* \"contracts/Rental.sol\":4840:4885  getContractByID[contractCount] = temporaryObj */\n      0x00\n      dup3\n      add\n      mload\n      dup2\n      0x00\n      add\n      exp(0x0100, 0x00)\n      dup2\n      sload\n      dup2\n      0xffffffffffffffffffffffffffffffffffffffff\n      mul\n      not\n      and\n      swap1\n      dup4\n      0xffffffffffffffffffffffffffffffffffffffff\n      and\n      mul\n      or\n      swap1\n      sstore\n      pop\n      0x20\n      dup3\n      add\n      mload\n      dup2\n      0x01\n      add\n      0x00\n      dup3\n      add\n      mload\n      dup2\n      0x00\n      add\n      sstore\n      0x20\n      dup3\n      add\n      mload\n      dup2\n      0x01\n      add\n      sstore\n      0x40\n      dup3\n      add\n      mload\n      dup2\n      0x02\n      add\n      sstore\n      0x60\n      dup3\n      add\n      mload\n      dup2\n      0x03\n      add\n      exp(0x0100, 0x00)\n      dup2\n      sload\n      dup2\n      0xff\n      mul\n      not\n      and\n      swap1\n      dup4\n      0x06\n      dup2\n      gt\n      iszero\n      tag_371\n      jumpi\n      tag_372\n      tag_174\n      jump\t// in\n    tag_372:\n    tag_371:\n      mul\n      or\n      swap1\n      sstore\n      pop\n      0x80\n      dup3\n      add\n      mload\n      dup2\n      0x04\n      add\n      0x00\n      dup3\n      add\n      mload\n      dup2\n      0x00\n      add\n      swap1\n      dup1\n      mload\n      swap1\n      0x20\n      add\n      swap1\n      tag_373\n      swap3\n      swap2\n      swap1\n      tag_180\n      jump\t// in\n    tag_373:\n      pop\n      0x20\n      dup3\n      add\n      mload\n      dup2\n      0x01\n      add\n      swap1\n      dup1\n      mload\n      swap1\n      0x20\n      add\n      swap1\n      tag_374\n      swap3\n      swap2\n      swap1\n      tag_180\n      jump\t// in\n    tag_374:\n      pop\n      pop\n      pop\n      0xa0\n      dup3\n      add\n      mload\n      dup2\n      0x06\n      add\n      sstore\n      0xc0\n      dup3\n      add\n      mload\n      dup2\n      0x07\n      add\n      sstore\n      0xe0\n      dup3\n      add\n      mload\n      dup2\n      0x08\n      add\n      sstore\n      0x0100\n      dup3\n      add\n      mload\n      dup2\n      0x09\n      add\n      exp(0x0100, 0x00)\n      dup2\n      sload\n      dup2\n      0xff\n      mul\n      not\n      and\n      swap1\n      dup4\n      0x01\n      dup2\n      gt\n      iszero\n      tag_375\n      jumpi\n      tag_376\n      tag_174\n      jump\t// in\n    tag_376:\n    tag_375:\n      mul\n      or\n      swap1\n      sstore\n      pop\n      pop\n      pop\n      0x40\n      dup3\n      add\n      mload\n      dup2\n      0x0b\n      add\n      0x00\n      dup3\n      add\n      mload\n      dup2\n      0x00\n      add\n      sstore\n      0x20\n      dup3\n      add\n      mload\n      dup2\n      0x01\n      add\n      sstore\n      pop\n      pop\n      0x60\n      dup3\n      add\n      mload\n      dup2\n      0x0d\n      add\n      sstore\n      0x80\n      dup3\n      add\n      mload\n      dup2\n      0x0e\n      add\n      sstore\n      0xa0\n      dup3\n      add\n      mload\n      dup2\n      0x0f\n      add\n      sstore\n      0xc0\n      dup3\n      add\n      mload\n      dup2\n      0x10\n      add\n      exp(0x0100, 0x00)\n      dup2\n      sload\n      dup2\n      0xff\n      mul\n      not\n      and\n      swap1\n      dup4\n      0x02\n      dup2\n      gt\n      iszero\n      tag_377\n      jumpi\n      tag_378\n      tag_174\n      jump\t// in\n    tag_378:\n    tag_377:\n      mul\n      or\n      swap1\n      sstore\n      pop\n      swap1\n      pop\n      pop\n        /* \"contracts/Rental.sol\":4895:4904  contracts */\n      0x08\n        /* \"contracts/Rental.sol\":4910:4922  temporaryObj */\n      dup2\n        /* \"contracts/Rental.sol\":4895:4923  contracts.push(temporaryObj) */\n      swap1\n      dup1\n      0x01\n      dup2\n      sload\n      add\n      dup1\n      dup3\n      sstore\n      dup1\n      swap2\n      pop\n      pop\n      0x01\n      swap1\n      sub\n      swap1\n      0x00\n      mstore\n      keccak256(0x00, 0x20)\n      swap1\n      0x11\n      mul\n      add\n      0x00\n      swap1\n      swap2\n      swap1\n      swap2\n      swap1\n      swap2\n      pop\n      0x00\n      dup3\n      add\n      mload\n      dup2\n      0x00\n      add\n      exp(0x0100, 0x00)\n      dup2\n      sload\n      dup2\n      0xffffffffffffffffffffffffffffffffffffffff\n      mul\n      not\n      and\n      swap1\n      dup4\n      0xffffffffffffffffffffffffffffffffffffffff\n      and\n      mul\n      or\n      swap1\n      sstore\n      pop\n      0x20\n      dup3\n      add\n      mload\n      dup2\n      0x01\n      add\n      0x00\n      dup3\n      add\n      mload\n      dup2\n      0x00\n      add\n      sstore\n      0x20\n      dup3\n      add\n      mload\n      dup2\n      0x01\n      add\n      sstore\n      0x40\n      dup3\n      add\n      mload\n      dup2\n      0x02\n      add\n      sstore\n      0x60\n      dup3\n      add\n      mload\n      dup2\n      0x03\n      add\n      exp(0x0100, 0x00)\n      dup2\n      sload\n      dup2\n      0xff\n      mul\n      not\n      and\n      swap1\n      dup4\n      0x06\n      dup2\n      gt\n      iszero\n      tag_380\n      jumpi\n      tag_381\n      tag_174\n      jump\t// in\n    tag_381:\n    tag_380:\n      mul\n      or\n      swap1\n      sstore\n      pop\n      0x80\n      dup3\n      add\n      mload\n      dup2\n      0x04\n      add\n      0x00\n      dup3\n      add\n      mload\n      dup2\n      0x00\n      add\n      swap1\n      dup1\n      mload\n      swap1\n      0x20\n      add\n      swap1\n      tag_382\n      swap3\n      swap2\n      swap1\n      tag_180\n      jump\t// in\n    tag_382:\n      pop\n      0x20\n      dup3\n      add\n      mload\n      dup2\n      0x01\n      add\n      swap1\n      dup1\n      mload\n      swap1\n      0x20\n      add\n      swap1\n      tag_383\n      swap3\n      swap2\n      swap1\n      tag_180\n      jump\t// in\n    tag_383:\n      pop\n      pop\n      pop\n      0xa0\n      dup3\n      add\n      mload\n      dup2\n      0x06\n      add\n      sstore\n      0xc0\n      dup3\n      add\n      mload\n      dup2\n      0x07\n      add\n      sstore\n      0xe0\n      dup3\n      add\n      mload\n      dup2\n      0x08\n      add\n      sstore\n      0x0100\n      dup3\n      add\n      mload\n      dup2\n      0x09\n      add\n      exp(0x0100, 0x00)\n      dup2\n      sload\n      dup2\n      0xff\n      mul\n      not\n      and\n      swap1\n      dup4\n      0x01\n      dup2\n      gt\n      iszero\n      tag_384\n      jumpi\n      tag_385\n      tag_174\n      jump\t// in\n    tag_385:\n    tag_384:\n      mul\n      or\n      swap1\n      sstore\n      pop\n      pop\n      pop\n      0x40\n      dup3\n      add\n      mload\n      dup2\n      0x0b\n      add\n      0x00\n      dup3\n      add\n      mload\n      dup2\n      0x00\n      add\n      sstore\n      0x20\n      dup3\n      add\n      mload\n      dup2\n      0x01\n      add\n      sstore\n      pop\n      pop\n      0x60\n      dup3\n      add\n      mload\n      dup2\n      0x0d\n      add\n      sstore\n      0x80\n      dup3\n      add\n      mload\n      dup2\n      0x0e\n      add\n      sstore\n      0xa0\n      dup3\n      add\n      mload\n      dup2\n      0x0f\n      add\n      sstore\n      0xc0\n      dup3\n      add\n      mload\n      dup2\n      0x10\n      add\n      exp(0x0100, 0x00)\n      dup2\n      sload\n      dup2\n      0xff\n      mul\n      not\n      and\n      swap1\n      dup4\n      0x02\n      dup2\n      gt\n      iszero\n      tag_386\n      jumpi\n      tag_387\n      tag_174\n      jump\t// in\n    tag_387:\n    tag_386:\n      mul\n      or\n      swap1\n      sstore\n      pop\n      pop\n      pop\n        /* \"contracts/Rental.sol\":4961:4974  contractCount */\n      sload(0x04)\n        /* \"contracts/Rental.sol\":4941:4950  contracts */\n      0x08\n        /* \"contracts/Rental.sol\":4941:4957  contracts.length */\n      dup1\n      sload\n      swap1\n      pop\n        /* \"contracts/Rental.sol\":4941:4974  contracts.length == contractCount */\n      eq\n        /* \"contracts/Rental.sol\":4934:4974  return contracts.length == contractCount */\n      swap4\n      pop\n      pop\n      pop\n        /* \"contracts/Access.sol\":618:619  _ */\n      pop\n        /* \"contracts/Rental.sol\":4305:4981  function addRentPeriod(uint carId, Period memory period, uint dayscount) ... */\n      swap4\n      swap3\n      pop\n      pop\n      pop\n      jump\t// out\n        /* \"contracts/Access.sol\":2027:2121  function renounceRenter() public virtual {... */\n    tag_130:\n        /* \"contracts/Access.sol\":2078:2114  _revokeRole(RENTER_ROLE, msg.sender) */\n      tag_389\n        /* \"contracts/Access.sol\":2090:2101  RENTER_ROLE */\n      0x52454e5445520000000000000000000000000000000000000000000000000000\n        /* \"contracts/Access.sol\":2103:2113  msg.sender */\n      caller\n        /* \"contracts/Access.sol\":2078:2089  _revokeRole */\n      tag_157\n        /* \"contracts/Access.sol\":2078:2114  _revokeRole(RENTER_ROLE, msg.sender) */\n      jump\t// in\n    tag_389:\n        /* \"contracts/Access.sol\":2027:2121  function renounceRenter() public virtual {... */\n      jump\t// out\n        /* \"contracts/Rental.sol\":1204:1229  Vehicle[] public vehicles */\n    tag_134:\n      0x06\n      dup2\n      dup2\n      sload\n      dup2\n      lt\n      tag_390\n      jumpi\n      0x00\n      dup1\n      revert\n    tag_390:\n      swap1\n      0x00\n      mstore\n      keccak256(0x00, 0x20)\n      swap1\n      0x0a\n      mul\n      add\n      0x00\n      swap2\n      pop\n      swap1\n      pop\n      dup1\n      0x00\n      add\n      sload\n      swap1\n      dup1\n      0x01\n      add\n      sload\n      swap1\n      dup1\n      0x02\n      add\n      sload\n      swap1\n      dup1\n      0x03\n      add\n      0x00\n      swap1\n      sload\n      swap1\n      0x0100\n      exp\n      swap1\n      div\n      0xff\n      and\n      swap1\n      dup1\n      0x04\n      add\n      mload(0x40)\n      dup1\n      0x40\n      add\n      0x40\n      mstore\n      swap1\n      dup2\n      0x00\n      dup3\n      add\n      dup1\n      sload\n      tag_392\n      swap1\n      tag_222\n      jump\t// in\n    tag_392:\n      dup1\n      0x1f\n      add\n      0x20\n      dup1\n      swap2\n      div\n      mul\n      0x20\n      add\n      mload(0x40)\n      swap1\n      dup2\n      add\n      0x40\n      mstore\n      dup1\n      swap3\n      swap2\n      swap1\n      dup2\n      dup2\n      mstore\n      0x20\n      add\n      dup3\n      dup1\n      sload\n      tag_393\n      swap1\n      tag_222\n      jump\t// in\n    tag_393:\n      dup1\n      iszero\n      tag_394\n      jumpi\n      dup1\n      0x1f\n      lt\n      tag_395\n      jumpi\n      0x0100\n      dup1\n      dup4\n      sload\n      div\n      mul\n      dup4\n      mstore\n      swap2\n      0x20\n      add\n      swap2\n      jump(tag_394)\n    tag_395:\n      dup3\n      add\n      swap2\n      swap1\n      0x00\n      mstore\n      keccak256(0x00, 0x20)\n      swap1\n    tag_396:\n      dup2\n      sload\n      dup2\n      mstore\n      swap1\n      0x01\n      add\n      swap1\n      0x20\n      add\n      dup1\n      dup4\n      gt\n      tag_396\n      jumpi\n      dup3\n      swap1\n      sub\n      0x1f\n      and\n      dup3\n      add\n      swap2\n    tag_394:\n      pop\n      pop\n      pop\n      pop\n      pop\n      dup2\n      mstore\n      0x20\n      add\n      0x01\n      dup3\n      add\n      dup1\n      sload\n      tag_397\n      swap1\n      tag_222\n      jump\t// in\n    tag_397:\n      dup1\n      0x1f\n      add\n      0x20\n      dup1\n      swap2\n      div\n      mul\n      0x20\n      add\n      mload(0x40)\n      swap1\n      dup2\n      add\n      0x40\n      mstore\n      dup1\n      swap3\n      swap2\n      swap1\n      dup2\n      dup2\n      mstore\n      0x20\n      add\n      dup3\n      dup1\n      sload\n      tag_398\n      swap1\n      tag_222\n      jump\t// in\n    tag_398:\n      dup1\n      iszero\n      tag_399\n      jumpi\n      dup1\n      0x1f\n      lt\n      tag_400\n      jumpi\n      0x0100\n      dup1\n      dup4\n      sload\n      div\n      mul\n      dup4\n      mstore\n      swap2\n      0x20\n      add\n      swap2\n      jump(tag_399)\n    tag_400:\n      dup3\n      add\n      swap2\n      swap1\n      0x00\n      mstore\n      keccak256(0x00, 0x20)\n      swap1\n    tag_401:\n      dup2\n      sload\n      dup2\n      mstore\n      swap1\n      0x01\n      add\n      swap1\n      0x20\n      add\n      dup1\n      dup4\n      gt\n      tag_401\n      jumpi\n      dup3\n      swap1\n      sub\n      0x1f\n      and\n      dup3\n      add\n      swap2\n    tag_399:\n      pop\n      pop\n      pop\n      pop\n      pop\n      dup2\n      mstore\n      pop\n      pop\n      swap1\n      dup1\n      0x06\n      add\n      sload\n      swap1\n      dup1\n      0x07\n      add\n      sload\n      swap1\n      dup1\n      0x08\n      add\n      sload\n      swap1\n      dup1\n      0x09\n      add\n      0x00\n      swap1\n      sload\n      swap1\n      0x0100\n      exp\n      swap1\n      div\n      0xff\n      and\n      swap1\n      pop\n      dup10\n      jump\t// out\n        /* \"contracts/Access.sol\":192:238  bytes32 public constant RENTER_ROLE = \"RENTER\" */\n    tag_138:\n      0x52454e5445520000000000000000000000000000000000000000000000000000\n      dup2\n      jump\t// out\n        /* \"contracts/utils/AccessControl.sol\":1840:1957  function getRoleMemberCount(bytes32 role) public view returns (uint256) {... */\n    tag_145:\n        /* \"contracts/utils/AccessControl.sol\":1903:1910  uint256 */\n      0x00\n        /* \"contracts/utils/AccessControl.sol\":1929:1950  _roles[role].length() */\n      tag_403\n        /* \"contracts/utils/AccessControl.sol\":1929:1935  _roles */\n      0x00\n        /* \"contracts/utils/AccessControl.sol\":1929:1941  _roles[role] */\n      dup1\n        /* \"contracts/utils/AccessControl.sol\":1936:1940  role */\n      dup5\n        /* \"contracts/utils/AccessControl.sol\":1929:1941  _roles[role] */\n      dup2\n      mstore\n      0x20\n      add\n      swap1\n      dup2\n      mstore\n      0x20\n      add\n      0x00\n      keccak256\n        /* \"contracts/utils/AccessControl.sol\":1929:1948  _roles[role].length */\n      tag_404\n        /* \"contracts/utils/AccessControl.sol\":1929:1950  _roles[role].length() */\n      jump\t// in\n    tag_403:\n        /* \"contracts/utils/AccessControl.sol\":1922:1950  return _roles[role].length() */\n      swap1\n      pop\n        /* \"contracts/utils/AccessControl.sol\":1840:1957  function getRoleMemberCount(bytes32 role) public view returns (uint256) {... */\n      swap2\n      swap1\n      pop\n      jump\t// out\n        /* \"contracts/Access.sol\":1100:1235  function addRenter(address account) public virtual {... */\n    tag_150:\n        /* \"contracts/Access.sol\":1178:1185  account */\n      dup1\n        /* \"contracts/Access.sol\":1161:1167  sender */\n      0x01\n      0x00\n        /* \"contracts/Access.sol\":1161:1186  sender = payable(account) */\n      0x0100\n      exp\n      dup2\n      sload\n      dup2\n      0xffffffffffffffffffffffffffffffffffffffff\n      mul\n      not\n      and\n      swap1\n      dup4\n      0xffffffffffffffffffffffffffffffffffffffff\n      and\n      mul\n      or\n      swap1\n      sstore\n      pop\n        /* \"contracts/Access.sol\":1196:1228  _grantRole(RENTER_ROLE, account) */\n      tag_406\n        /* \"contracts/Access.sol\":1207:1218  RENTER_ROLE */\n      0x52454e5445520000000000000000000000000000000000000000000000000000\n        /* \"contracts/Access.sol\":1220:1227  account */\n      dup3\n        /* \"contracts/Access.sol\":1196:1206  _grantRole */\n      tag_248\n        /* \"contracts/Access.sol\":1196:1228  _grantRole(RENTER_ROLE, account) */\n      jump\t// in\n    tag_406:\n        /* \"contracts/Access.sol\":1100:1235  function addRenter(address account) public virtual {... */\n      pop\n      jump\t// out\n        /* \"contracts/Access.sol\":142:186  bytes32 public constant OWNER_ROLE = \"OWNER\" */\n    tag_153:\n      0x4f574e4552000000000000000000000000000000000000000000000000000000\n      dup2\n      jump\t// out\n        /* \"contracts/utils/AccessControl.sol\":3008:3189  function _revokeRole(bytes32 role, address account) internal {... */\n    tag_157:\n        /* \"contracts/utils/AccessControl.sol\":3083:3111  _roles[role].remove(account) */\n      tag_408\n        /* \"contracts/utils/AccessControl.sol\":3103:3110  account */\n      dup2\n        /* \"contracts/utils/AccessControl.sol\":3083:3089  _roles */\n      0x00\n        /* \"contracts/utils/AccessControl.sol\":3083:3095  _roles[role] */\n      dup1\n        /* \"contracts/utils/AccessControl.sol\":3090:3094  role */\n      dup6\n        /* \"contracts/utils/AccessControl.sol\":3083:3095  _roles[role] */\n      dup2\n      mstore\n      0x20\n      add\n      swap1\n      dup2\n      mstore\n      0x20\n      add\n      0x00\n      keccak256\n        /* \"contracts/utils/AccessControl.sol\":3083:3102  _roles[role].remove */\n      tag_409\n      swap1\n        /* \"contracts/utils/AccessControl.sol\":3083:3111  _roles[role].remove(account) */\n      swap2\n      swap1\n      0xffffffff\n      and\n      jump\t// in\n    tag_408:\n        /* \"contracts/utils/AccessControl.sol\":3079:3183  if (_roles[role].remove(account)) {... */\n      iszero\n      tag_410\n      jumpi\n        /* \"contracts/utils/AccessControl.sol\":3159:3171  _msgSender() */\n      tag_411\n        /* \"contracts/utils/AccessControl.sol\":3159:3169  _msgSender */\n      tag_412\n        /* \"contracts/utils/AccessControl.sol\":3159:3171  _msgSender() */\n      jump\t// in\n    tag_411:\n        /* \"contracts/utils/AccessControl.sol\":3132:3172  RoleRevoked(role, account, _msgSender()) */\n      0xffffffffffffffffffffffffffffffffffffffff\n      and\n        /* \"contracts/utils/AccessControl.sol\":3150:3157  account */\n      dup2\n        /* \"contracts/utils/AccessControl.sol\":3132:3172  RoleRevoked(role, account, _msgSender()) */\n      0xffffffffffffffffffffffffffffffffffffffff\n      and\n        /* \"contracts/utils/AccessControl.sol\":3144:3148  role */\n      dup4\n        /* \"contracts/utils/AccessControl.sol\":3132:3172  RoleRevoked(role, account, _msgSender()) */\n      0xf6391f5c32d9c69d2a47ea670b442974b53935d1edc7fd64eb21e047a839171b\n      mload(0x40)\n      mload(0x40)\n      dup1\n      swap2\n      sub\n      swap1\n      log4\n        /* \"contracts/utils/AccessControl.sol\":3079:3183  if (_roles[role].remove(account)) {... */\n    tag_410:\n        /* \"contracts/utils/AccessControl.sol\":3008:3189  function _revokeRole(bytes32 role, address account) internal {... */\n      pop\n      pop\n      jump\t// out\n        /* \"contracts/utils/AccessControl.sol\":2825:3002  function _grantRole(bytes32 role, address account) internal {... */\n    tag_248:\n        /* \"contracts/utils/AccessControl.sol\":2899:2924  _roles[role].add(account) */\n      tag_414\n        /* \"contracts/utils/AccessControl.sol\":2916:2923  account */\n      dup2\n        /* \"contracts/utils/AccessControl.sol\":2899:2905  _roles */\n      0x00\n        /* \"contracts/utils/AccessControl.sol\":2899:2911  _roles[role] */\n      dup1\n        /* \"contracts/utils/AccessControl.sol\":2906:2910  role */\n      dup6\n        /* \"contracts/utils/AccessControl.sol\":2899:2911  _roles[role] */\n      dup2\n      mstore\n      0x20\n      add\n      swap1\n      dup2\n      mstore\n      0x20\n      add\n      0x00\n      keccak256\n        /* \"contracts/utils/AccessControl.sol\":2899:2915  _roles[role].add */\n      tag_415\n      swap1\n        /* \"contracts/utils/AccessControl.sol\":2899:2924  _roles[role].add(account) */\n      swap2\n      swap1\n      0xffffffff\n      and\n      jump\t// in\n    tag_414:\n        /* \"contracts/utils/AccessControl.sol\":2895:2996  if (_roles[role].add(account)) {... */\n      iszero\n      tag_416\n      jumpi\n        /* \"contracts/utils/AccessControl.sol\":2972:2984  _msgSender() */\n      tag_417\n        /* \"contracts/utils/AccessControl.sol\":2972:2982  _msgSender */\n      tag_412\n        /* \"contracts/utils/AccessControl.sol\":2972:2984  _msgSender() */\n      jump\t// in\n    tag_417:\n        /* \"contracts/utils/AccessControl.sol\":2945:2985  RoleGranted(role, account, _msgSender()) */\n      0xffffffffffffffffffffffffffffffffffffffff\n      and\n        /* \"contracts/utils/AccessControl.sol\":2963:2970  account */\n      dup2\n        /* \"contracts/utils/AccessControl.sol\":2945:2985  RoleGranted(role, account, _msgSender()) */\n      0xffffffffffffffffffffffffffffffffffffffff\n      and\n        /* \"contracts/utils/AccessControl.sol\":2957:2961  role */\n      dup4\n        /* \"contracts/utils/AccessControl.sol\":2945:2985  RoleGranted(role, account, _msgSender()) */\n      0x2f8788117e7eff1d82e926ec794901d17c78024a50270940304540a733656f0d\n      mload(0x40)\n      mload(0x40)\n      dup1\n      swap2\n      sub\n      swap1\n      log4\n        /* \"contracts/utils/AccessControl.sol\":2895:2996  if (_roles[role].add(account)) {... */\n    tag_416:\n        /* \"contracts/utils/AccessControl.sol\":2825:3002  function _grantRole(bytes32 role, address account) internal {... */\n      pop\n      pop\n      jump\t// out\n        /* \"@openzeppelin/contracts/utils/structs/EnumerableSet.sol\":9286:9442  function at(AddressSet storage set, uint256 index) internal view returns (address) {... */\n    tag_329:\n        /* \"@openzeppelin/contracts/utils/structs/EnumerableSet.sol\":9360:9367  address */\n      0x00\n        /* \"@openzeppelin/contracts/utils/structs/EnumerableSet.sol\":9410:9432  _at(set._inner, index) */\n      tag_419\n        /* \"@openzeppelin/contracts/utils/structs/EnumerableSet.sol\":9414:9417  set */\n      dup4\n        /* \"@openzeppelin/contracts/utils/structs/EnumerableSet.sol\":9414:9424  set._inner */\n      0x00\n      add\n        /* \"@openzeppelin/contracts/utils/structs/EnumerableSet.sol\":9426:9431  index */\n      dup4\n        /* \"@openzeppelin/contracts/utils/structs/EnumerableSet.sol\":9410:9413  _at */\n      tag_420\n        /* \"@openzeppelin/contracts/utils/structs/EnumerableSet.sol\":9410:9432  _at(set._inner, index) */\n      jump\t// in\n    tag_419:\n        /* \"@openzeppelin/contracts/utils/structs/EnumerableSet.sol\":9402:9433  uint256(_at(set._inner, index)) */\n      0x00\n      shr\n        /* \"@openzeppelin/contracts/utils/structs/EnumerableSet.sol\":9379:9435  return address(uint160(uint256(_at(set._inner, index)))) */\n      swap1\n      pop\n        /* \"@openzeppelin/contracts/utils/structs/EnumerableSet.sol\":9286:9442  function at(AddressSet storage set, uint256 index) internal view returns (address) {... */\n      swap3\n      swap2\n      pop\n      pop\n      jump\t// out\n        /* \"@openzeppelin/contracts/utils/structs/EnumerableSet.sol\":8583:8748  function contains(AddressSet storage set, address value) internal view returns (bool) {... */\n    tag_332:\n        /* \"@openzeppelin/contracts/utils/structs/EnumerableSet.sol\":8663:8667  bool */\n      0x00\n        /* \"@openzeppelin/contracts/utils/structs/EnumerableSet.sol\":8686:8741  _contains(set._inner, bytes32(uint256(uint160(value)))) */\n      tag_422\n        /* \"@openzeppelin/contracts/utils/structs/EnumerableSet.sol\":8696:8699  set */\n      dup4\n        /* \"@openzeppelin/contracts/utils/structs/EnumerableSet.sol\":8696:8706  set._inner */\n      0x00\n      add\n        /* \"@openzeppelin/contracts/utils/structs/EnumerableSet.sol\":8732:8737  value */\n      dup4\n        /* \"@openzeppelin/contracts/utils/structs/EnumerableSet.sol\":8716:8739  uint256(uint160(value)) */\n      0xffffffffffffffffffffffffffffffffffffffff\n      and\n        /* \"@openzeppelin/contracts/utils/structs/EnumerableSet.sol\":8708:8740  bytes32(uint256(uint160(value))) */\n      0x00\n      shl\n        /* \"@openzeppelin/contracts/utils/structs/EnumerableSet.sol\":8686:8695  _contains */\n      tag_423\n        /* \"@openzeppelin/contracts/utils/structs/EnumerableSet.sol\":8686:8741  _contains(set._inner, bytes32(uint256(uint160(value)))) */\n      jump\t// in\n    tag_422:\n        /* \"@openzeppelin/contracts/utils/structs/EnumerableSet.sol\":8679:8741  return _contains(set._inner, bytes32(uint256(uint160(value)))) */\n      swap1\n      pop\n        /* \"@openzeppelin/contracts/utils/structs/EnumerableSet.sol\":8583:8748  function contains(AddressSet storage set, address value) internal view returns (bool) {... */\n      swap3\n      swap2\n      pop\n      pop\n      jump\t// out\n        /* \"@openzeppelin/contracts/utils/structs/EnumerableSet.sol\":8829:8944  function length(AddressSet storage set) internal view returns (uint256) {... */\n    tag_404:\n        /* \"@openzeppelin/contracts/utils/structs/EnumerableSet.sol\":8892:8899  uint256 */\n      0x00\n        /* \"@openzeppelin/contracts/utils/structs/EnumerableSet.sol\":8918:8937  _length(set._inner) */\n      tag_425\n        /* \"@openzeppelin/contracts/utils/structs/EnumerableSet.sol\":8926:8929  set */\n      dup3\n        /* \"@openzeppelin/contracts/utils/structs/EnumerableSet.sol\":8926:8936  set._inner */\n      0x00\n      add\n        /* \"@openzeppelin/contracts/utils/structs/EnumerableSet.sol\":8918:8925  _length */\n      tag_426\n        /* \"@openzeppelin/contracts/utils/structs/EnumerableSet.sol\":8918:8937  _length(set._inner) */\n      jump\t// in\n    tag_425:\n        /* \"@openzeppelin/contracts/utils/structs/EnumerableSet.sol\":8911:8937  return _length(set._inner) */\n      swap1\n      pop\n        /* \"@openzeppelin/contracts/utils/structs/EnumerableSet.sol\":8829:8944  function length(AddressSet storage set) internal view returns (uint256) {... */\n      swap2\n      swap1\n      pop\n      jump\t// out\n        /* \"@openzeppelin/contracts/utils/structs/EnumerableSet.sol\":8346:8502  function remove(AddressSet storage set, address value) internal returns (bool) {... */\n    tag_409:\n        /* \"@openzeppelin/contracts/utils/structs/EnumerableSet.sol\":8419:8423  bool */\n      0x00\n        /* \"@openzeppelin/contracts/utils/structs/EnumerableSet.sol\":8442:8495  _remove(set._inner, bytes32(uint256(uint160(value)))) */\n      tag_428\n        /* \"@openzeppelin/contracts/utils/structs/EnumerableSet.sol\":8450:8453  set */\n      dup4\n        /* \"@openzeppelin/contracts/utils/structs/EnumerableSet.sol\":8450:8460  set._inner */\n      0x00\n      add\n        /* \"@openzeppelin/contracts/utils/structs/EnumerableSet.sol\":8486:8491  value */\n      dup4\n        /* \"@openzeppelin/contracts/utils/structs/EnumerableSet.sol\":8470:8493  uint256(uint160(value)) */\n      0xffffffffffffffffffffffffffffffffffffffff\n      and\n        /* \"@openzeppelin/contracts/utils/structs/EnumerableSet.sol\":8462:8494  bytes32(uint256(uint160(value))) */\n      0x00\n      shl\n        /* \"@openzeppelin/contracts/utils/structs/EnumerableSet.sol\":8442:8449  _remove */\n      tag_429\n        /* \"@openzeppelin/contracts/utils/structs/EnumerableSet.sol\":8442:8495  _remove(set._inner, bytes32(uint256(uint160(value)))) */\n      jump\t// in\n    tag_428:\n        /* \"@openzeppelin/contracts/utils/structs/EnumerableSet.sol\":8435:8495  return _remove(set._inner, bytes32(uint256(uint160(value)))) */\n      swap1\n      pop\n        /* \"@openzeppelin/contracts/utils/structs/EnumerableSet.sol\":8346:8502  function remove(AddressSet storage set, address value) internal returns (bool) {... */\n      swap3\n      swap2\n      pop\n      pop\n      jump\t// out\n        /* \"contracts/utils/Context.sol\":606:702  function _msgSender() internal view virtual returns (address) {... */\n    tag_412:\n        /* \"contracts/utils/Context.sol\":659:666  address */\n      0x00\n        /* \"contracts/utils/Context.sol\":685:695  msg.sender */\n      caller\n        /* \"contracts/utils/Context.sol\":678:695  return msg.sender */\n      swap1\n      pop\n        /* \"contracts/utils/Context.sol\":606:702  function _msgSender() internal view virtual returns (address) {... */\n      swap1\n      jump\t// out\n        /* \"@openzeppelin/contracts/utils/structs/EnumerableSet.sol\":8028:8178  function add(AddressSet storage set, address value) internal returns (bool) {... */\n    tag_415:\n        /* \"@openzeppelin/contracts/utils/structs/EnumerableSet.sol\":8098:8102  bool */\n      0x00\n        /* \"@openzeppelin/contracts/utils/structs/EnumerableSet.sol\":8121:8171  _add(set._inner, bytes32(uint256(uint160(value)))) */\n      tag_432\n        /* \"@openzeppelin/contracts/utils/structs/EnumerableSet.sol\":8126:8129  set */\n      dup4\n        /* \"@openzeppelin/contracts/utils/structs/EnumerableSet.sol\":8126:8136  set._inner */\n      0x00\n      add\n        /* \"@openzeppelin/contracts/utils/structs/EnumerableSet.sol\":8162:8167  value */\n      dup4\n        /* \"@openzeppelin/contracts/utils/structs/EnumerableSet.sol\":8146:8169  uint256(uint160(value)) */\n      0xffffffffffffffffffffffffffffffffffffffff\n      and\n        /* \"@openzeppelin/contracts/utils/structs/EnumerableSet.sol\":8138:8170  bytes32(uint256(uint160(value))) */\n      0x00\n      shl\n        /* \"@openzeppelin/contracts/utils/structs/EnumerableSet.sol\":8121:8125  _add */\n      tag_433\n        /* \"@openzeppelin/contracts/utils/structs/EnumerableSet.sol\":8121:8171  _add(set._inner, bytes32(uint256(uint160(value)))) */\n      jump\t// in\n    tag_432:\n        /* \"@openzeppelin/contracts/utils/structs/EnumerableSet.sol\":8114:8171  return _add(set._inner, bytes32(uint256(uint160(value)))) */\n      swap1\n      pop\n        /* \"@openzeppelin/contracts/utils/structs/EnumerableSet.sol\":8028:8178  function add(AddressSet storage set, address value) internal returns (bool) {... */\n      swap3\n      swap2\n      pop\n      pop\n      jump\t// out\n        /* \"@openzeppelin/contracts/utils/structs/EnumerableSet.sol\":4811:4929  function _at(Set storage set, uint256 index) private view returns (bytes32) {... */\n    tag_420:\n        /* \"@openzeppelin/contracts/utils/structs/EnumerableSet.sol\":4878:4885  bytes32 */\n      0x00\n        /* \"@openzeppelin/contracts/utils/structs/EnumerableSet.sol\":4904:4907  set */\n      dup3\n        /* \"@openzeppelin/contracts/utils/structs/EnumerableSet.sol\":4904:4915  set._values */\n      0x00\n      add\n        /* \"@openzeppelin/contracts/utils/structs/EnumerableSet.sol\":4916:4921  index */\n      dup3\n        /* \"@openzeppelin/contracts/utils/structs/EnumerableSet.sol\":4904:4922  set._values[index] */\n      dup2\n      sload\n      dup2\n      lt\n      tag_435\n      jumpi\n      tag_436\n      tag_437\n      jump\t// in\n    tag_436:\n    tag_435:\n      swap1\n      0x00\n      mstore\n      keccak256(0x00, 0x20)\n      add\n      sload\n        /* \"@openzeppelin/contracts/utils/structs/EnumerableSet.sol\":4897:4922  return set._values[index] */\n      swap1\n      pop\n        /* \"@openzeppelin/contracts/utils/structs/EnumerableSet.sol\":4811:4929  function _at(Set storage set, uint256 index) private view returns (bytes32) {... */\n      swap3\n      swap2\n      pop\n      pop\n      jump\t// out\n        /* \"@openzeppelin/contracts/utils/structs/EnumerableSet.sol\":4154:4281  function _contains(Set storage set, bytes32 value) private view returns (bool) {... */\n    tag_423:\n        /* \"@openzeppelin/contracts/utils/structs/EnumerableSet.sol\":4227:4231  bool */\n      0x00\n        /* \"@openzeppelin/contracts/utils/structs/EnumerableSet.sol\":4273:4274  0 */\n      dup1\n        /* \"@openzeppelin/contracts/utils/structs/EnumerableSet.sol\":4250:4253  set */\n      dup4\n        /* \"@openzeppelin/contracts/utils/structs/EnumerableSet.sol\":4250:4262  set._indexes */\n      0x01\n      add\n        /* \"@openzeppelin/contracts/utils/structs/EnumerableSet.sol\":4250:4269  set._indexes[value] */\n      0x00\n        /* \"@openzeppelin/contracts/utils/structs/EnumerableSet.sol\":4263:4268  value */\n      dup5\n        /* \"@openzeppelin/contracts/utils/structs/EnumerableSet.sol\":4250:4269  set._indexes[value] */\n      dup2\n      mstore\n      0x20\n      add\n      swap1\n      dup2\n      mstore\n      0x20\n      add\n      0x00\n      keccak256\n      sload\n        /* \"@openzeppelin/contracts/utils/structs/EnumerableSet.sol\":4250:4274  set._indexes[value] != 0 */\n      eq\n      iszero\n        /* \"@openzeppelin/contracts/utils/structs/EnumerableSet.sol\":4243:4274  return set._indexes[value] != 0 */\n      swap1\n      pop\n        /* \"@openzeppelin/contracts/utils/structs/EnumerableSet.sol\":4154:4281  function _contains(Set storage set, bytes32 value) private view returns (bool) {... */\n      swap3\n      swap2\n      pop\n      pop\n      jump\t// out\n        /* \"@openzeppelin/contracts/utils/structs/EnumerableSet.sol\":4362:4469  function _length(Set storage set) private view returns (uint256) {... */\n    tag_426:\n        /* \"@openzeppelin/contracts/utils/structs/EnumerableSet.sol\":4418:4425  uint256 */\n      0x00\n        /* \"@openzeppelin/contracts/utils/structs/EnumerableSet.sol\":4444:4447  set */\n      dup2\n        /* \"@openzeppelin/contracts/utils/structs/EnumerableSet.sol\":4444:4455  set._values */\n      0x00\n      add\n        /* \"@openzeppelin/contracts/utils/structs/EnumerableSet.sol\":4444:4462  set._values.length */\n      dup1\n      sload\n      swap1\n      pop\n        /* \"@openzeppelin/contracts/utils/structs/EnumerableSet.sol\":4437:4462  return set._values.length */\n      swap1\n      pop\n        /* \"@openzeppelin/contracts/utils/structs/EnumerableSet.sol\":4362:4469  function _length(Set storage set) private view returns (uint256) {... */\n      swap2\n      swap1\n      pop\n      jump\t// out\n        /* \"@openzeppelin/contracts/utils/structs/EnumerableSet.sol\":2685:4073  function _remove(Set storage set, bytes32 value) private returns (bool) {... */\n    tag_429:\n        /* \"@openzeppelin/contracts/utils/structs/EnumerableSet.sol\":2751:2755  bool */\n      0x00\n        /* \"@openzeppelin/contracts/utils/structs/EnumerableSet.sol\":2867:2885  uint256 valueIndex */\n      dup1\n        /* \"@openzeppelin/contracts/utils/structs/EnumerableSet.sol\":2888:2891  set */\n      dup4\n        /* \"@openzeppelin/contracts/utils/structs/EnumerableSet.sol\":2888:2900  set._indexes */\n      0x01\n      add\n        /* \"@openzeppelin/contracts/utils/structs/EnumerableSet.sol\":2888:2907  set._indexes[value] */\n      0x00\n        /* \"@openzeppelin/contracts/utils/structs/EnumerableSet.sol\":2901:2906  value */\n      dup5\n        /* \"@openzeppelin/contracts/utils/structs/EnumerableSet.sol\":2888:2907  set._indexes[value] */\n      dup2\n      mstore\n      0x20\n      add\n      swap1\n      dup2\n      mstore\n      0x20\n      add\n      0x00\n      keccak256\n      sload\n        /* \"@openzeppelin/contracts/utils/structs/EnumerableSet.sol\":2867:2907  uint256 valueIndex = set._indexes[value] */\n      swap1\n      pop\n        /* \"@openzeppelin/contracts/utils/structs/EnumerableSet.sol\":2936:2937  0 */\n      0x00\n        /* \"@openzeppelin/contracts/utils/structs/EnumerableSet.sol\":2922:2932  valueIndex */\n      dup2\n        /* \"@openzeppelin/contracts/utils/structs/EnumerableSet.sol\":2922:2937  valueIndex != 0 */\n      eq\n        /* \"@openzeppelin/contracts/utils/structs/EnumerableSet.sol\":2918:4067  if (valueIndex != 0) {... */\n      tag_442\n      jumpi\n        /* \"@openzeppelin/contracts/utils/structs/EnumerableSet.sol\":3291:3312  uint256 toDeleteIndex */\n      0x00\n        /* \"@openzeppelin/contracts/utils/structs/EnumerableSet.sol\":3328:3329  1 */\n      0x01\n        /* \"@openzeppelin/contracts/utils/structs/EnumerableSet.sol\":3315:3325  valueIndex */\n      dup3\n        /* \"@openzeppelin/contracts/utils/structs/EnumerableSet.sol\":3315:3329  valueIndex - 1 */\n      tag_443\n      swap2\n      swap1\n      tag_444\n      jump\t// in\n    tag_443:\n        /* \"@openzeppelin/contracts/utils/structs/EnumerableSet.sol\":3291:3329  uint256 toDeleteIndex = valueIndex - 1 */\n      swap1\n      pop\n        /* \"@openzeppelin/contracts/utils/structs/EnumerableSet.sol\":3343:3360  uint256 lastIndex */\n      0x00\n        /* \"@openzeppelin/contracts/utils/structs/EnumerableSet.sol\":3384:3385  1 */\n      0x01\n        /* \"@openzeppelin/contracts/utils/structs/EnumerableSet.sol\":3363:3366  set */\n      dup7\n        /* \"@openzeppelin/contracts/utils/structs/EnumerableSet.sol\":3363:3374  set._values */\n      0x00\n      add\n        /* \"@openzeppelin/contracts/utils/structs/EnumerableSet.sol\":3363:3381  set._values.length */\n      dup1\n      sload\n      swap1\n      pop\n        /* \"@openzeppelin/contracts/utils/structs/EnumerableSet.sol\":3363:3385  set._values.length - 1 */\n      tag_445\n      swap2\n      swap1\n      tag_444\n      jump\t// in\n    tag_445:\n        /* \"@openzeppelin/contracts/utils/structs/EnumerableSet.sol\":3343:3385  uint256 lastIndex = set._values.length - 1 */\n      swap1\n      pop\n        /* \"@openzeppelin/contracts/utils/structs/EnumerableSet.sol\":3417:3430  toDeleteIndex */\n      dup2\n        /* \"@openzeppelin/contracts/utils/structs/EnumerableSet.sol\":3404:3413  lastIndex */\n      dup2\n        /* \"@openzeppelin/contracts/utils/structs/EnumerableSet.sol\":3404:3430  lastIndex != toDeleteIndex */\n      eq\n        /* \"@openzeppelin/contracts/utils/structs/EnumerableSet.sol\":3400:3798  if (lastIndex != toDeleteIndex) {... */\n      tag_446\n      jumpi\n        /* \"@openzeppelin/contracts/utils/structs/EnumerableSet.sol\":3450:3467  bytes32 lastValue */\n      0x00\n        /* \"@openzeppelin/contracts/utils/structs/EnumerableSet.sol\":3470:3473  set */\n      dup7\n        /* \"@openzeppelin/contracts/utils/structs/EnumerableSet.sol\":3470:3481  set._values */\n      0x00\n      add\n        /* \"@openzeppelin/contracts/utils/structs/EnumerableSet.sol\":3482:3491  lastIndex */\n      dup3\n        /* \"@openzeppelin/contracts/utils/structs/EnumerableSet.sol\":3470:3492  set._values[lastIndex] */\n      dup2\n      sload\n      dup2\n      lt\n      tag_447\n      jumpi\n      tag_448\n      tag_437\n      jump\t// in\n    tag_448:\n    tag_447:\n      swap1\n      0x00\n      mstore\n      keccak256(0x00, 0x20)\n      add\n      sload\n        /* \"@openzeppelin/contracts/utils/structs/EnumerableSet.sol\":3450:3492  bytes32 lastValue = set._values[lastIndex] */\n      swap1\n      pop\n        /* \"@openzeppelin/contracts/utils/structs/EnumerableSet.sol\":3621:3630  lastValue */\n      dup1\n        /* \"@openzeppelin/contracts/utils/structs/EnumerableSet.sol\":3592:3595  set */\n      dup8\n        /* \"@openzeppelin/contracts/utils/structs/EnumerableSet.sol\":3592:3603  set._values */\n      0x00\n      add\n        /* \"@openzeppelin/contracts/utils/structs/EnumerableSet.sol\":3604:3617  toDeleteIndex */\n      dup5\n        /* \"@openzeppelin/contracts/utils/structs/EnumerableSet.sol\":3592:3618  set._values[toDeleteIndex] */\n      dup2\n      sload\n      dup2\n      lt\n      tag_450\n      jumpi\n      tag_451\n      tag_437\n      jump\t// in\n    tag_451:\n    tag_450:\n      swap1\n      0x00\n      mstore\n      keccak256(0x00, 0x20)\n      add\n        /* \"@openzeppelin/contracts/utils/structs/EnumerableSet.sol\":3592:3630  set._values[toDeleteIndex] = lastValue */\n      dup2\n      swap1\n      sstore\n      pop\n        /* \"@openzeppelin/contracts/utils/structs/EnumerableSet.sol\":3730:3740  valueIndex */\n      dup4\n        /* \"@openzeppelin/contracts/utils/structs/EnumerableSet.sol\":3704:3707  set */\n      dup8\n        /* \"@openzeppelin/contracts/utils/structs/EnumerableSet.sol\":3704:3716  set._indexes */\n      0x01\n      add\n        /* \"@openzeppelin/contracts/utils/structs/EnumerableSet.sol\":3704:3727  set._indexes[lastValue] */\n      0x00\n        /* \"@openzeppelin/contracts/utils/structs/EnumerableSet.sol\":3717:3726  lastValue */\n      dup4\n        /* \"@openzeppelin/contracts/utils/structs/EnumerableSet.sol\":3704:3727  set._indexes[lastValue] */\n      dup2\n      mstore\n      0x20\n      add\n      swap1\n      dup2\n      mstore\n      0x20\n      add\n      0x00\n      keccak256\n        /* \"@openzeppelin/contracts/utils/structs/EnumerableSet.sol\":3704:3740  set._indexes[lastValue] = valueIndex */\n      dup2\n      swap1\n      sstore\n      pop\n        /* \"@openzeppelin/contracts/utils/structs/EnumerableSet.sol\":3432:3798  {... */\n      pop\n        /* \"@openzeppelin/contracts/utils/structs/EnumerableSet.sol\":3400:3798  if (lastIndex != toDeleteIndex) {... */\n    tag_446:\n        /* \"@openzeppelin/contracts/utils/structs/EnumerableSet.sol\":3876:3879  set */\n      dup6\n        /* \"@openzeppelin/contracts/utils/structs/EnumerableSet.sol\":3876:3887  set._values */\n      0x00\n      add\n        /* \"@openzeppelin/contracts/utils/structs/EnumerableSet.sol\":3876:3893  set._values.pop() */\n      dup1\n      sload\n      dup1\n      tag_453\n      jumpi\n      tag_454\n      tag_455\n      jump\t// in\n    tag_454:\n    tag_453:\n      0x01\n      swap1\n      sub\n      dup2\n      dup2\n      swap1\n      0x00\n      mstore\n      keccak256(0x00, 0x20)\n      add\n      0x00\n      swap1\n      sstore\n      swap1\n      sstore\n        /* \"@openzeppelin/contracts/utils/structs/EnumerableSet.sol\":3968:3971  set */\n      dup6\n        /* \"@openzeppelin/contracts/utils/structs/EnumerableSet.sol\":3968:3980  set._indexes */\n      0x01\n      add\n        /* \"@openzeppelin/contracts/utils/structs/EnumerableSet.sol\":3968:3987  set._indexes[value] */\n      0x00\n        /* \"@openzeppelin/contracts/utils/structs/EnumerableSet.sol\":3981:3986  value */\n      dup7\n        /* \"@openzeppelin/contracts/utils/structs/EnumerableSet.sol\":3968:3987  set._indexes[value] */\n      dup2\n      mstore\n      0x20\n      add\n      swap1\n      dup2\n      mstore\n      0x20\n      add\n      0x00\n      keccak256\n        /* \"@openzeppelin/contracts/utils/structs/EnumerableSet.sol\":3961:3987  delete set._indexes[value] */\n      0x00\n      swap1\n      sstore\n        /* \"@openzeppelin/contracts/utils/structs/EnumerableSet.sol\":4009:4013  true */\n      0x01\n        /* \"@openzeppelin/contracts/utils/structs/EnumerableSet.sol\":4002:4013  return true */\n      swap4\n      pop\n      pop\n      pop\n      pop\n      jump(tag_441)\n        /* \"@openzeppelin/contracts/utils/structs/EnumerableSet.sol\":2918:4067  if (valueIndex != 0) {... */\n    tag_442:\n        /* \"@openzeppelin/contracts/utils/structs/EnumerableSet.sol\":4051:4056  false */\n      0x00\n        /* \"@openzeppelin/contracts/utils/structs/EnumerableSet.sol\":4044:4056  return false */\n      swap2\n      pop\n      pop\n        /* \"@openzeppelin/contracts/utils/structs/EnumerableSet.sol\":2685:4073  function _remove(Set storage set, bytes32 value) private returns (bool) {... */\n    tag_441:\n      swap3\n      swap2\n      pop\n      pop\n      jump\t// out\n        /* \"@openzeppelin/contracts/utils/structs/EnumerableSet.sol\":2113:2517  function _add(Set storage set, bytes32 value) private returns (bool) {... */\n    tag_433:\n        /* \"@openzeppelin/contracts/utils/structs/EnumerableSet.sol\":2176:2180  bool */\n      0x00\n        /* \"@openzeppelin/contracts/utils/structs/EnumerableSet.sol\":2197:2218  _contains(set, value) */\n      tag_459\n        /* \"@openzeppelin/contracts/utils/structs/EnumerableSet.sol\":2207:2210  set */\n      dup4\n        /* \"@openzeppelin/contracts/utils/structs/EnumerableSet.sol\":2212:2217  value */\n      dup4\n        /* \"@openzeppelin/contracts/utils/structs/EnumerableSet.sol\":2197:2206  _contains */\n      tag_423\n        /* \"@openzeppelin/contracts/utils/structs/EnumerableSet.sol\":2197:2218  _contains(set, value) */\n      jump\t// in\n    tag_459:\n        /* \"@openzeppelin/contracts/utils/structs/EnumerableSet.sol\":2192:2511  if (!_contains(set, value)) {... */\n      tag_460\n      jumpi\n        /* \"@openzeppelin/contracts/utils/structs/EnumerableSet.sol\":2234:2237  set */\n      dup3\n        /* \"@openzeppelin/contracts/utils/structs/EnumerableSet.sol\":2234:2245  set._values */\n      0x00\n      add\n        /* \"@openzeppelin/contracts/utils/structs/EnumerableSet.sol\":2251:2256  value */\n      dup3\n        /* \"@openzeppelin/contracts/utils/structs/EnumerableSet.sol\":2234:2257  set._values.push(value) */\n      swap1\n      dup1\n      0x01\n      dup2\n      sload\n      add\n      dup1\n      dup3\n      sstore\n      dup1\n      swap2\n      pop\n      pop\n      0x01\n      swap1\n      sub\n      swap1\n      0x00\n      mstore\n      keccak256(0x00, 0x20)\n      add\n      0x00\n      swap1\n      swap2\n      swap1\n      swap2\n      swap1\n      swap2\n      pop\n      sstore\n        /* \"@openzeppelin/contracts/utils/structs/EnumerableSet.sol\":2414:2417  set */\n      dup3\n        /* \"@openzeppelin/contracts/utils/structs/EnumerableSet.sol\":2414:2425  set._values */\n      0x00\n      add\n        /* \"@openzeppelin/contracts/utils/structs/EnumerableSet.sol\":2414:2432  set._values.length */\n      dup1\n      sload\n      swap1\n      pop\n        /* \"@openzeppelin/contracts/utils/structs/EnumerableSet.sol\":2392:2395  set */\n      dup4\n        /* \"@openzeppelin/contracts/utils/structs/EnumerableSet.sol\":2392:2404  set._indexes */\n      0x01\n      add\n        /* \"@openzeppelin/contracts/utils/structs/EnumerableSet.sol\":2392:2411  set._indexes[value] */\n      0x00\n        /* \"@openzeppelin/contracts/utils/structs/EnumerableSet.sol\":2405:2410  value */\n      dup5\n        /* \"@openzeppelin/contracts/utils/structs/EnumerableSet.sol\":2392:2411  set._indexes[value] */\n      dup2\n      mstore\n      0x20\n      add\n      swap1\n      dup2\n      mstore\n      0x20\n      add\n      0x00\n      keccak256\n        /* \"@openzeppelin/contracts/utils/structs/EnumerableSet.sol\":2392:2432  set._indexes[value] = set._values.length */\n      dup2\n      swap1\n      sstore\n      pop\n        /* \"@openzeppelin/contracts/utils/structs/EnumerableSet.sol\":2453:2457  true */\n      0x01\n        /* \"@openzeppelin/contracts/utils/structs/EnumerableSet.sol\":2446:2457  return true */\n      swap1\n      pop\n      jump(tag_458)\n        /* \"@openzeppelin/contracts/utils/structs/EnumerableSet.sol\":2192:2511  if (!_contains(set, value)) {... */\n    tag_460:\n        /* \"@openzeppelin/contracts/utils/structs/EnumerableSet.sol\":2495:2500  false */\n      0x00\n        /* \"@openzeppelin/contracts/utils/structs/EnumerableSet.sol\":2488:2500  return false */\n      swap1\n      pop\n        /* \"@openzeppelin/contracts/utils/structs/EnumerableSet.sol\":2113:2517  function _add(Set storage set, bytes32 value) private returns (bool) {... */\n    tag_458:\n      swap3\n      swap2\n      pop\n      pop\n      jump\t// out\n    tag_180:\n      dup3\n      dup1\n      sload\n      tag_463\n      swap1\n      tag_222\n      jump\t// in\n    tag_463:\n      swap1\n      0x00\n      mstore\n      keccak256(0x00, 0x20)\n      swap1\n      0x1f\n      add\n      0x20\n      swap1\n      div\n      dup2\n      add\n      swap3\n      dup3\n      tag_465\n      jumpi\n      0x00\n      dup6\n      sstore\n      jump(tag_464)\n    tag_465:\n      dup3\n      0x1f\n      lt\n      tag_466\n      jumpi\n      dup1\n      mload\n      not(0xff)\n      and\n      dup4\n      dup1\n      add\n      or\n      dup6\n      sstore\n      jump(tag_464)\n    tag_466:\n      dup3\n      dup1\n      add\n      0x01\n      add\n      dup6\n      sstore\n      dup3\n      iszero\n      tag_464\n      jumpi\n      swap2\n      dup3\n      add\n    tag_467:\n      dup3\n      dup2\n      gt\n      iszero\n      tag_468\n      jumpi\n      dup3\n      mload\n      dup3\n      sstore\n      swap2\n      0x20\n      add\n      swap2\n      swap1\n      0x01\n      add\n      swap1\n      jump(tag_467)\n    tag_468:\n    tag_464:\n      pop\n      swap1\n      pop\n      tag_469\n      swap2\n      swap1\n      tag_470\n      jump\t// in\n    tag_469:\n      pop\n      swap1\n      jump\t// out\n    tag_470:\n    tag_471:\n      dup1\n      dup3\n      gt\n      iszero\n      tag_472\n      jumpi\n      0x00\n      dup2\n      0x00\n      swap1\n      sstore\n      pop\n      0x01\n      add\n      jump(tag_471)\n    tag_472:\n      pop\n      swap1\n      jump\t// out\n        /* \"#utility.yul\":7:417   */\n    tag_474:\n        /* \"#utility.yul\":84:89   */\n      0x00\n        /* \"#utility.yul\":109:174   */\n      tag_476\n        /* \"#utility.yul\":125:173   */\n      tag_477\n        /* \"#utility.yul\":166:172   */\n      dup5\n        /* \"#utility.yul\":125:173   */\n      tag_478\n      jump\t// in\n    tag_477:\n        /* \"#utility.yul\":109:174   */\n      tag_479\n      jump\t// in\n    tag_476:\n        /* \"#utility.yul\":100:174   */\n      swap1\n      pop\n        /* \"#utility.yul\":197:203   */\n      dup3\n        /* \"#utility.yul\":190:195   */\n      dup2\n        /* \"#utility.yul\":183:204   */\n      mstore\n        /* \"#utility.yul\":235:239   */\n      0x20\n        /* \"#utility.yul\":228:233   */\n      dup2\n        /* \"#utility.yul\":224:240   */\n      add\n        /* \"#utility.yul\":273:276   */\n      dup5\n        /* \"#utility.yul\":264:270   */\n      dup5\n        /* \"#utility.yul\":259:262   */\n      dup5\n        /* \"#utility.yul\":255:271   */\n      add\n        /* \"#utility.yul\":252:277   */\n      gt\n        /* \"#utility.yul\":249:361   */\n      iszero\n      tag_480\n      jumpi\n        /* \"#utility.yul\":280:359   */\n      tag_481\n      tag_482\n      jump\t// in\n    tag_481:\n        /* \"#utility.yul\":249:361   */\n    tag_480:\n        /* \"#utility.yul\":370:411   */\n      tag_483\n        /* \"#utility.yul\":404:410   */\n      dup5\n        /* \"#utility.yul\":399:402   */\n      dup3\n        /* \"#utility.yul\":394:397   */\n      dup6\n        /* \"#utility.yul\":370:411   */\n      tag_484\n      jump\t// in\n    tag_483:\n        /* \"#utility.yul\":90:417   */\n      pop\n        /* \"#utility.yul\":7:417   */\n      swap4\n      swap3\n      pop\n      pop\n      pop\n      jump\t// out\n        /* \"#utility.yul\":423:562   */\n    tag_485:\n        /* \"#utility.yul\":469:474   */\n      0x00\n        /* \"#utility.yul\":507:513   */\n      dup2\n        /* \"#utility.yul\":494:514   */\n      calldataload\n        /* \"#utility.yul\":485:514   */\n      swap1\n      pop\n        /* \"#utility.yul\":523:556   */\n      tag_487\n        /* \"#utility.yul\":550:555   */\n      dup2\n        /* \"#utility.yul\":523:556   */\n      tag_488\n      jump\t// in\n    tag_487:\n        /* \"#utility.yul\":423:562   */\n      swap3\n      swap2\n      pop\n      pop\n      jump\t// out\n        /* \"#utility.yul\":568:707   */\n    tag_489:\n        /* \"#utility.yul\":614:619   */\n      0x00\n        /* \"#utility.yul\":652:658   */\n      dup2\n        /* \"#utility.yul\":639:659   */\n      calldataload\n        /* \"#utility.yul\":630:659   */\n      swap1\n      pop\n        /* \"#utility.yul\":668:701   */\n      tag_491\n        /* \"#utility.yul\":695:700   */\n      dup2\n        /* \"#utility.yul\":668:701   */\n      tag_492\n      jump\t// in\n    tag_491:\n        /* \"#utility.yul\":568:707   */\n      swap3\n      swap2\n      pop\n      pop\n      jump\t// out\n        /* \"#utility.yul\":726:1064   */\n    tag_493:\n        /* \"#utility.yul\":781:786   */\n      0x00\n        /* \"#utility.yul\":830:833   */\n      dup3\n        /* \"#utility.yul\":823:827   */\n      0x1f\n        /* \"#utility.yul\":815:821   */\n      dup4\n        /* \"#utility.yul\":811:828   */\n      add\n        /* \"#utility.yul\":807:834   */\n      slt\n        /* \"#utility.yul\":797:919   */\n      tag_495\n      jumpi\n        /* \"#utility.yul\":838:917   */\n      tag_496\n      tag_497\n      jump\t// in\n    tag_496:\n        /* \"#utility.yul\":797:919   */\n    tag_495:\n        /* \"#utility.yul\":955:961   */\n      dup2\n        /* \"#utility.yul\":942:962   */\n      calldataload\n        /* \"#utility.yul\":980:1058   */\n      tag_498\n        /* \"#utility.yul\":1054:1057   */\n      dup5\n        /* \"#utility.yul\":1046:1052   */\n      dup3\n        /* \"#utility.yul\":1039:1043   */\n      0x20\n        /* \"#utility.yul\":1031:1037   */\n      dup7\n        /* \"#utility.yul\":1027:1044   */\n      add\n        /* \"#utility.yul\":980:1058   */\n      tag_474\n      jump\t// in\n    tag_498:\n        /* \"#utility.yul\":971:1058   */\n      swap2\n      pop\n        /* \"#utility.yul\":787:1064   */\n      pop\n        /* \"#utility.yul\":726:1064   */\n      swap3\n      swap2\n      pop\n      pop\n      jump\t// out\n        /* \"#utility.yul\":1070:1241   */\n    tag_499:\n        /* \"#utility.yul\":1132:1137   */\n      0x00\n        /* \"#utility.yul\":1170:1176   */\n      dup2\n        /* \"#utility.yul\":1157:1177   */\n      calldataload\n        /* \"#utility.yul\":1148:1177   */\n      swap1\n      pop\n        /* \"#utility.yul\":1186:1235   */\n      tag_501\n        /* \"#utility.yul\":1229:1234   */\n      dup2\n        /* \"#utility.yul\":1186:1235   */\n      tag_502\n      jump\t// in\n    tag_501:\n        /* \"#utility.yul\":1070:1241   */\n      swap3\n      swap2\n      pop\n      pop\n      jump\t// out\n        /* \"#utility.yul\":1279:2203   */\n    tag_503:\n        /* \"#utility.yul\":1356:1361   */\n      0x00\n        /* \"#utility.yul\":1400:1404   */\n      0x40\n        /* \"#utility.yul\":1388:1397   */\n      dup3\n        /* \"#utility.yul\":1383:1386   */\n      dup5\n        /* \"#utility.yul\":1379:1398   */\n      sub\n        /* \"#utility.yul\":1375:1405   */\n      slt\n        /* \"#utility.yul\":1372:1489   */\n      iszero\n      tag_505\n      jumpi\n        /* \"#utility.yul\":1408:1487   */\n      tag_506\n      tag_507\n      jump\t// in\n    tag_506:\n        /* \"#utility.yul\":1372:1489   */\n    tag_505:\n        /* \"#utility.yul\":1507:1528   */\n      tag_508\n        /* \"#utility.yul\":1523:1527   */\n      0x40\n        /* \"#utility.yul\":1507:1528   */\n      tag_479\n      jump\t// in\n    tag_508:\n        /* \"#utility.yul\":1498:1528   */\n      swap1\n      pop\n        /* \"#utility.yul\":1619:1620   */\n      0x00\n        /* \"#utility.yul\":1608:1617   */\n      dup3\n        /* \"#utility.yul\":1604:1621   */\n      add\n        /* \"#utility.yul\":1591:1622   */\n      calldataload\n        /* \"#utility.yul\":1649:1667   */\n      0xffffffffffffffff\n        /* \"#utility.yul\":1641:1647   */\n      dup2\n        /* \"#utility.yul\":1638:1668   */\n      gt\n        /* \"#utility.yul\":1635:1752   */\n      iszero\n      tag_509\n      jumpi\n        /* \"#utility.yul\":1671:1750   */\n      tag_510\n      tag_511\n      jump\t// in\n    tag_510:\n        /* \"#utility.yul\":1635:1752   */\n    tag_509:\n        /* \"#utility.yul\":1791:1849   */\n      tag_512\n        /* \"#utility.yul\":1845:1848   */\n      dup5\n        /* \"#utility.yul\":1836:1842   */\n      dup3\n        /* \"#utility.yul\":1825:1834   */\n      dup6\n        /* \"#utility.yul\":1821:1843   */\n      add\n        /* \"#utility.yul\":1791:1849   */\n      tag_493\n      jump\t// in\n    tag_512:\n        /* \"#utility.yul\":1784:1788   */\n      0x00\n        /* \"#utility.yul\":1777:1782   */\n      dup4\n        /* \"#utility.yul\":1773:1789   */\n      add\n        /* \"#utility.yul\":1766:1850   */\n      mstore\n        /* \"#utility.yul\":1538:1861   */\n      pop\n        /* \"#utility.yul\":1953:1955   */\n      0x20\n        /* \"#utility.yul\":1942:1951   */\n      dup3\n        /* \"#utility.yul\":1938:1956   */\n      add\n        /* \"#utility.yul\":1925:1957   */\n      calldataload\n        /* \"#utility.yul\":1984:2002   */\n      0xffffffffffffffff\n        /* \"#utility.yul\":1976:1982   */\n      dup2\n        /* \"#utility.yul\":1973:2003   */\n      gt\n        /* \"#utility.yul\":1970:2087   */\n      iszero\n      tag_513\n      jumpi\n        /* \"#utility.yul\":2006:2085   */\n      tag_514\n      tag_511\n      jump\t// in\n    tag_514:\n        /* \"#utility.yul\":1970:2087   */\n    tag_513:\n        /* \"#utility.yul\":2126:2184   */\n      tag_515\n        /* \"#utility.yul\":2180:2183   */\n      dup5\n        /* \"#utility.yul\":2171:2177   */\n      dup3\n        /* \"#utility.yul\":2160:2169   */\n      dup6\n        /* \"#utility.yul\":2156:2178   */\n      add\n        /* \"#utility.yul\":2126:2184   */\n      tag_493\n      jump\t// in\n    tag_515:\n        /* \"#utility.yul\":2119:2123   */\n      0x20\n        /* \"#utility.yul\":2112:2117   */\n      dup4\n        /* \"#utility.yul\":2108:2124   */\n      add\n        /* \"#utility.yul\":2101:2185   */\n      mstore\n        /* \"#utility.yul\":1871:2196   */\n      pop\n        /* \"#utility.yul\":1279:2203   */\n      swap3\n      swap2\n      pop\n      pop\n      jump\t// out\n        /* \"#utility.yul\":2237:2808   */\n    tag_516:\n        /* \"#utility.yul\":2310:2315   */\n      0x00\n        /* \"#utility.yul\":2354:2358   */\n      0x40\n        /* \"#utility.yul\":2342:2351   */\n      dup3\n        /* \"#utility.yul\":2337:2340   */\n      dup5\n        /* \"#utility.yul\":2333:2352   */\n      sub\n        /* \"#utility.yul\":2329:2359   */\n      slt\n        /* \"#utility.yul\":2326:2443   */\n      iszero\n      tag_518\n      jumpi\n        /* \"#utility.yul\":2362:2441   */\n      tag_519\n      tag_507\n      jump\t// in\n    tag_519:\n        /* \"#utility.yul\":2326:2443   */\n    tag_518:\n        /* \"#utility.yul\":2461:2482   */\n      tag_520\n        /* \"#utility.yul\":2477:2481   */\n      0x40\n        /* \"#utility.yul\":2461:2482   */\n      tag_479\n      jump\t// in\n    tag_520:\n        /* \"#utility.yul\":2452:2482   */\n      swap1\n      pop\n        /* \"#utility.yul\":2541:2542   */\n      0x00\n        /* \"#utility.yul\":2581:2630   */\n      tag_521\n        /* \"#utility.yul\":2626:2629   */\n      dup5\n        /* \"#utility.yul\":2617:2623   */\n      dup3\n        /* \"#utility.yul\":2606:2615   */\n      dup6\n        /* \"#utility.yul\":2602:2624   */\n      add\n        /* \"#utility.yul\":2581:2630   */\n      tag_489\n      jump\t// in\n    tag_521:\n        /* \"#utility.yul\":2574:2578   */\n      0x00\n        /* \"#utility.yul\":2567:2572   */\n      dup4\n        /* \"#utility.yul\":2563:2579   */\n      add\n        /* \"#utility.yul\":2556:2631   */\n      mstore\n        /* \"#utility.yul\":2492:2642   */\n      pop\n        /* \"#utility.yul\":2699:2701   */\n      0x20\n        /* \"#utility.yul\":2740:2789   */\n      tag_522\n        /* \"#utility.yul\":2785:2788   */\n      dup5\n        /* \"#utility.yul\":2776:2782   */\n      dup3\n        /* \"#utility.yul\":2765:2774   */\n      dup6\n        /* \"#utility.yul\":2761:2783   */\n      add\n        /* \"#utility.yul\":2740:2789   */\n      tag_489\n      jump\t// in\n    tag_522:\n        /* \"#utility.yul\":2733:2737   */\n      0x20\n        /* \"#utility.yul\":2726:2731   */\n      dup4\n        /* \"#utility.yul\":2722:2738   */\n      add\n        /* \"#utility.yul\":2715:2790   */\n      mstore\n        /* \"#utility.yul\":2652:2801   */\n      pop\n        /* \"#utility.yul\":2237:2808   */\n      swap3\n      swap2\n      pop\n      pop\n      jump\t// out\n        /* \"#utility.yul\":2814:2953   */\n    tag_523:\n        /* \"#utility.yul\":2860:2865   */\n      0x00\n        /* \"#utility.yul\":2898:2904   */\n      dup2\n        /* \"#utility.yul\":2885:2905   */\n      calldataload\n        /* \"#utility.yul\":2876:2905   */\n      swap1\n      pop\n        /* \"#utility.yul\":2914:2947   */\n      tag_525\n        /* \"#utility.yul\":2941:2946   */\n      dup2\n        /* \"#utility.yul\":2914:2947   */\n      tag_526\n      jump\t// in\n    tag_525:\n        /* \"#utility.yul\":2814:2953   */\n      swap3\n      swap2\n      pop\n      pop\n      jump\t// out\n        /* \"#utility.yul\":2959:3288   */\n    tag_34:\n        /* \"#utility.yul\":3018:3024   */\n      0x00\n        /* \"#utility.yul\":3067:3069   */\n      0x20\n        /* \"#utility.yul\":3055:3064   */\n      dup3\n        /* \"#utility.yul\":3046:3053   */\n      dup5\n        /* \"#utility.yul\":3042:3065   */\n      sub\n        /* \"#utility.yul\":3038:3070   */\n      slt\n        /* \"#utility.yul\":3035:3154   */\n      iszero\n      tag_528\n      jumpi\n        /* \"#utility.yul\":3073:3152   */\n      tag_529\n      tag_530\n      jump\t// in\n    tag_529:\n        /* \"#utility.yul\":3035:3154   */\n    tag_528:\n        /* \"#utility.yul\":3193:3194   */\n      0x00\n        /* \"#utility.yul\":3218:3271   */\n      tag_531\n        /* \"#utility.yul\":3263:3270   */\n      dup5\n        /* \"#utility.yul\":3254:3260   */\n      dup3\n        /* \"#utility.yul\":3243:3252   */\n      dup6\n        /* \"#utility.yul\":3239:3261   */\n      add\n        /* \"#utility.yul\":3218:3271   */\n      tag_485\n      jump\t// in\n    tag_531:\n        /* \"#utility.yul\":3208:3271   */\n      swap2\n      pop\n        /* \"#utility.yul\":3164:3281   */\n      pop\n        /* \"#utility.yul\":2959:3288   */\n      swap3\n      swap2\n      pop\n      pop\n      jump\t// out\n        /* \"#utility.yul\":3294:3623   */\n    tag_144:\n        /* \"#utility.yul\":3353:3359   */\n      0x00\n        /* \"#utility.yul\":3402:3404   */\n      0x20\n        /* \"#utility.yul\":3390:3399   */\n      dup3\n        /* \"#utility.yul\":3381:3388   */\n      dup5\n        /* \"#utility.yul\":3377:3400   */\n      sub\n        /* \"#utility.yul\":3373:3405   */\n      slt\n        /* \"#utility.yul\":3370:3489   */\n      iszero\n      tag_533\n      jumpi\n        /* \"#utility.yul\":3408:3487   */\n      tag_534\n      tag_530\n      jump\t// in\n    tag_534:\n        /* \"#utility.yul\":3370:3489   */\n    tag_533:\n        /* \"#utility.yul\":3528:3529   */\n      0x00\n        /* \"#utility.yul\":3553:3606   */\n      tag_535\n        /* \"#utility.yul\":3598:3605   */\n      dup5\n        /* \"#utility.yul\":3589:3595   */\n      dup3\n        /* \"#utility.yul\":3578:3587   */\n      dup6\n        /* \"#utility.yul\":3574:3596   */\n      add\n        /* \"#utility.yul\":3553:3606   */\n      tag_489\n      jump\t// in\n    tag_535:\n        /* \"#utility.yul\":3543:3606   */\n      swap2\n      pop\n        /* \"#utility.yul\":3499:3616   */\n      pop\n        /* \"#utility.yul\":3294:3623   */\n      swap3\n      swap2\n      pop\n      pop\n      jump\t// out\n        /* \"#utility.yul\":3629:4103   */\n    tag_110:\n        /* \"#utility.yul\":3697:3703   */\n      0x00\n        /* \"#utility.yul\":3705:3711   */\n      dup1\n        /* \"#utility.yul\":3754:3756   */\n      0x40\n        /* \"#utility.yul\":3742:3751   */\n      dup4\n        /* \"#utility.yul\":3733:3740   */\n      dup6\n        /* \"#utility.yul\":3729:3752   */\n      sub\n        /* \"#utility.yul\":3725:3757   */\n      slt\n        /* \"#utility.yul\":3722:3841   */\n      iszero\n      tag_537\n      jumpi\n        /* \"#utility.yul\":3760:3839   */\n      tag_538\n      tag_530\n      jump\t// in\n    tag_538:\n        /* \"#utility.yul\":3722:3841   */\n    tag_537:\n        /* \"#utility.yul\":3880:3881   */\n      0x00\n        /* \"#utility.yul\":3905:3958   */\n      tag_539\n        /* \"#utility.yul\":3950:3957   */\n      dup6\n        /* \"#utility.yul\":3941:3947   */\n      dup3\n        /* \"#utility.yul\":3930:3939   */\n      dup7\n        /* \"#utility.yul\":3926:3948   */\n      add\n        /* \"#utility.yul\":3905:3958   */\n      tag_489\n      jump\t// in\n    tag_539:\n        /* \"#utility.yul\":3895:3958   */\n      swap3\n      pop\n        /* \"#utility.yul\":3851:3968   */\n      pop\n        /* \"#utility.yul\":4007:4009   */\n      0x20\n        /* \"#utility.yul\":4033:4086   */\n      tag_540\n        /* \"#utility.yul\":4078:4085   */\n      dup6\n        /* \"#utility.yul\":4069:4075   */\n      dup3\n        /* \"#utility.yul\":4058:4067   */\n      dup7\n        /* \"#utility.yul\":4054:4076   */\n      add\n        /* \"#utility.yul\":4033:4086   */\n      tag_485\n      jump\t// in\n    tag_540:\n        /* \"#utility.yul\":4023:4086   */\n      swap2\n      pop\n        /* \"#utility.yul\":3978:4096   */\n      pop\n        /* \"#utility.yul\":3629:4103   */\n      swap3\n      pop\n      swap3\n      swap1\n      pop\n      jump\t// out\n        /* \"#utility.yul\":4109:5560   */\n    tag_39:\n        /* \"#utility.yul\":4266:4272   */\n      0x00\n        /* \"#utility.yul\":4274:4280   */\n      dup1\n        /* \"#utility.yul\":4282:4288   */\n      0x00\n        /* \"#utility.yul\":4290:4296   */\n      dup1\n        /* \"#utility.yul\":4298:4304   */\n      0x00\n        /* \"#utility.yul\":4306:4312   */\n      dup1\n        /* \"#utility.yul\":4314:4320   */\n      0x00\n        /* \"#utility.yul\":4363:4366   */\n      0xe0\n        /* \"#utility.yul\":4351:4360   */\n      dup9\n        /* \"#utility.yul\":4342:4349   */\n      dup11\n        /* \"#utility.yul\":4338:4361   */\n      sub\n        /* \"#utility.yul\":4334:4367   */\n      slt\n        /* \"#utility.yul\":4331:4451   */\n      iszero\n      tag_542\n      jumpi\n        /* \"#utility.yul\":4370:4449   */\n      tag_543\n      tag_530\n      jump\t// in\n    tag_543:\n        /* \"#utility.yul\":4331:4451   */\n    tag_542:\n        /* \"#utility.yul\":4490:4491   */\n      0x00\n        /* \"#utility.yul\":4515:4568   */\n      tag_544\n        /* \"#utility.yul\":4560:4567   */\n      dup11\n        /* \"#utility.yul\":4551:4557   */\n      dup3\n        /* \"#utility.yul\":4540:4549   */\n      dup12\n        /* \"#utility.yul\":4536:4558   */\n      add\n        /* \"#utility.yul\":4515:4568   */\n      tag_489\n      jump\t// in\n    tag_544:\n        /* \"#utility.yul\":4505:4568   */\n      swap8\n      pop\n        /* \"#utility.yul\":4461:4578   */\n      pop\n        /* \"#utility.yul\":4617:4619   */\n      0x20\n        /* \"#utility.yul\":4643:4696   */\n      tag_545\n        /* \"#utility.yul\":4688:4695   */\n      dup11\n        /* \"#utility.yul\":4679:4685   */\n      dup3\n        /* \"#utility.yul\":4668:4677   */\n      dup12\n        /* \"#utility.yul\":4664:4686   */\n      add\n        /* \"#utility.yul\":4643:4696   */\n      tag_489\n      jump\t// in\n    tag_545:\n        /* \"#utility.yul\":4633:4696   */\n      swap7\n      pop\n        /* \"#utility.yul\":4588:4706   */\n      pop\n        /* \"#utility.yul\":4745:4747   */\n      0x40\n        /* \"#utility.yul\":4771:4840   */\n      tag_546\n        /* \"#utility.yul\":4832:4839   */\n      dup11\n        /* \"#utility.yul\":4823:4829   */\n      dup3\n        /* \"#utility.yul\":4812:4821   */\n      dup12\n        /* \"#utility.yul\":4808:4830   */\n      add\n        /* \"#utility.yul\":4771:4840   */\n      tag_499\n      jump\t// in\n    tag_546:\n        /* \"#utility.yul\":4761:4840   */\n      swap6\n      pop\n        /* \"#utility.yul\":4716:4850   */\n      pop\n        /* \"#utility.yul\":4917:4919   */\n      0x60\n        /* \"#utility.yul\":4906:4915   */\n      dup9\n        /* \"#utility.yul\":4902:4920   */\n      add\n        /* \"#utility.yul\":4889:4921   */\n      calldataload\n        /* \"#utility.yul\":4948:4966   */\n      0xffffffffffffffff\n        /* \"#utility.yul\":4940:4946   */\n      dup2\n        /* \"#utility.yul\":4937:4967   */\n      gt\n        /* \"#utility.yul\":4934:5051   */\n      iszero\n      tag_547\n      jumpi\n        /* \"#utility.yul\":4970:5049   */\n      tag_548\n      tag_549\n      jump\t// in\n    tag_548:\n        /* \"#utility.yul\":4934:5051   */\n    tag_547:\n        /* \"#utility.yul\":5075:5156   */\n      tag_550\n        /* \"#utility.yul\":5148:5155   */\n      dup11\n        /* \"#utility.yul\":5139:5145   */\n      dup3\n        /* \"#utility.yul\":5128:5137   */\n      dup12\n        /* \"#utility.yul\":5124:5146   */\n      add\n        /* \"#utility.yul\":5075:5156   */\n      tag_503\n      jump\t// in\n    tag_550:\n        /* \"#utility.yul\":5065:5156   */\n      swap5\n      pop\n        /* \"#utility.yul\":4860:5166   */\n      pop\n        /* \"#utility.yul\":5205:5208   */\n      0x80\n        /* \"#utility.yul\":5232:5285   */\n      tag_551\n        /* \"#utility.yul\":5277:5284   */\n      dup11\n        /* \"#utility.yul\":5268:5274   */\n      dup3\n        /* \"#utility.yul\":5257:5266   */\n      dup12\n        /* \"#utility.yul\":5253:5275   */\n      add\n        /* \"#utility.yul\":5232:5285   */\n      tag_523\n      jump\t// in\n    tag_551:\n        /* \"#utility.yul\":5222:5285   */\n      swap4\n      pop\n        /* \"#utility.yul\":5176:5295   */\n      pop\n        /* \"#utility.yul\":5334:5337   */\n      0xa0\n        /* \"#utility.yul\":5361:5414   */\n      tag_552\n        /* \"#utility.yul\":5406:5413   */\n      dup11\n        /* \"#utility.yul\":5397:5403   */\n      dup3\n        /* \"#utility.yul\":5386:5395   */\n      dup12\n        /* \"#utility.yul\":5382:5404   */\n      add\n        /* \"#utility.yul\":5361:5414   */\n      tag_489\n      jump\t// in\n    tag_552:\n        /* \"#utility.yul\":5351:5414   */\n      swap3\n      pop\n        /* \"#utility.yul\":5305:5424   */\n      pop\n        /* \"#utility.yul\":5463:5466   */\n      0xc0\n        /* \"#utility.yul\":5490:5543   */\n      tag_553\n        /* \"#utility.yul\":5535:5542   */\n      dup11\n        /* \"#utility.yul\":5526:5532   */\n      dup3\n        /* \"#utility.yul\":5515:5524   */\n      dup12\n        /* \"#utility.yul\":5511:5533   */\n      add\n        /* \"#utility.yul\":5490:5543   */\n      tag_523\n      jump\t// in\n    tag_553:\n        /* \"#utility.yul\":5480:5543   */\n      swap2\n      pop\n        /* \"#utility.yul\":5434:5553   */\n      pop\n        /* \"#utility.yul\":4109:5560   */\n      swap3\n      swap6\n      swap9\n      swap2\n      swap5\n      swap8\n      pop\n      swap3\n      swap6\n      pop\n      jump\t// out\n        /* \"#utility.yul\":5566:6040   */\n    tag_103:\n        /* \"#utility.yul\":5634:5640   */\n      0x00\n        /* \"#utility.yul\":5642:5648   */\n      dup1\n        /* \"#utility.yul\":5691:5693   */\n      0x40\n        /* \"#utility.yul\":5679:5688   */\n      dup4\n        /* \"#utility.yul\":5670:5677   */\n      dup6\n        /* \"#utility.yul\":5666:5689   */\n      sub\n        /* \"#utility.yul\":5662:5694   */\n      slt\n        /* \"#utility.yul\":5659:5778   */\n      iszero\n      tag_555\n      jumpi\n        /* \"#utility.yul\":5697:5776   */\n      tag_556\n      tag_530\n      jump\t// in\n    tag_556:\n        /* \"#utility.yul\":5659:5778   */\n    tag_555:\n        /* \"#utility.yul\":5817:5818   */\n      0x00\n        /* \"#utility.yul\":5842:5895   */\n      tag_557\n        /* \"#utility.yul\":5887:5894   */\n      dup6\n        /* \"#utility.yul\":5878:5884   */\n      dup3\n        /* \"#utility.yul\":5867:5876   */\n      dup7\n        /* \"#utility.yul\":5863:5885   */\n      add\n        /* \"#utility.yul\":5842:5895   */\n      tag_489\n      jump\t// in\n    tag_557:\n        /* \"#utility.yul\":5832:5895   */\n      swap3\n      pop\n        /* \"#utility.yul\":5788:5905   */\n      pop\n        /* \"#utility.yul\":5944:5946   */\n      0x20\n        /* \"#utility.yul\":5970:6023   */\n      tag_558\n        /* \"#utility.yul\":6015:6022   */\n      dup6\n        /* \"#utility.yul\":6006:6012   */\n      dup3\n        /* \"#utility.yul\":5995:6004   */\n      dup7\n        /* \"#utility.yul\":5991:6013   */\n      add\n        /* \"#utility.yul\":5970:6023   */\n      tag_523\n      jump\t// in\n    tag_558:\n        /* \"#utility.yul\":5960:6023   */\n      swap2\n      pop\n        /* \"#utility.yul\":5915:6033   */\n      pop\n        /* \"#utility.yul\":5566:6040   */\n      swap3\n      pop\n      swap3\n      swap1\n      pop\n      jump\t// out\n        /* \"#utility.yul\":6046:6375   */\n    tag_64:\n        /* \"#utility.yul\":6105:6111   */\n      0x00\n        /* \"#utility.yul\":6154:6156   */\n      0x20\n        /* \"#utility.yul\":6142:6151   */\n      dup3\n        /* \"#utility.yul\":6133:6140   */\n      dup5\n        /* \"#utility.yul\":6129:6152   */\n      sub\n        /* \"#utility.yul\":6125:6157   */\n      slt\n        /* \"#utility.yul\":6122:6241   */\n      iszero\n      tag_560\n      jumpi\n        /* \"#utility.yul\":6160:6239   */\n      tag_561\n      tag_530\n      jump\t// in\n    tag_561:\n        /* \"#utility.yul\":6122:6241   */\n    tag_560:\n        /* \"#utility.yul\":6280:6281   */\n      0x00\n        /* \"#utility.yul\":6305:6358   */\n      tag_562\n        /* \"#utility.yul\":6350:6357   */\n      dup5\n        /* \"#utility.yul\":6341:6347   */\n      dup3\n        /* \"#utility.yul\":6330:6339   */\n      dup6\n        /* \"#utility.yul\":6326:6348   */\n      add\n        /* \"#utility.yul\":6305:6358   */\n      tag_523\n      jump\t// in\n    tag_562:\n        /* \"#utility.yul\":6295:6358   */\n      swap2\n      pop\n        /* \"#utility.yul\":6251:6368   */\n      pop\n        /* \"#utility.yul\":6046:6375   */\n      swap3\n      swap2\n      pop\n      pop\n      jump\t// out\n        /* \"#utility.yul\":6381:7049   */\n    tag_125:\n        /* \"#utility.yul\":6482:6488   */\n      0x00\n        /* \"#utility.yul\":6490:6496   */\n      dup1\n        /* \"#utility.yul\":6498:6504   */\n      0x00\n        /* \"#utility.yul\":6547:6550   */\n      0x80\n        /* \"#utility.yul\":6535:6544   */\n      dup5\n        /* \"#utility.yul\":6526:6533   */\n      dup7\n        /* \"#utility.yul\":6522:6545   */\n      sub\n        /* \"#utility.yul\":6518:6551   */\n      slt\n        /* \"#utility.yul\":6515:6635   */\n      iszero\n      tag_564\n      jumpi\n        /* \"#utility.yul\":6554:6633   */\n      tag_565\n      tag_530\n      jump\t// in\n    tag_565:\n        /* \"#utility.yul\":6515:6635   */\n    tag_564:\n        /* \"#utility.yul\":6674:6675   */\n      0x00\n        /* \"#utility.yul\":6699:6752   */\n      tag_566\n        /* \"#utility.yul\":6744:6751   */\n      dup7\n        /* \"#utility.yul\":6735:6741   */\n      dup3\n        /* \"#utility.yul\":6724:6733   */\n      dup8\n        /* \"#utility.yul\":6720:6742   */\n      add\n        /* \"#utility.yul\":6699:6752   */\n      tag_523\n      jump\t// in\n    tag_566:\n        /* \"#utility.yul\":6689:6752   */\n      swap4\n      pop\n        /* \"#utility.yul\":6645:6762   */\n      pop\n        /* \"#utility.yul\":6801:6803   */\n      0x20\n        /* \"#utility.yul\":6827:6904   */\n      tag_567\n        /* \"#utility.yul\":6896:6903   */\n      dup7\n        /* \"#utility.yul\":6887:6893   */\n      dup3\n        /* \"#utility.yul\":6876:6885   */\n      dup8\n        /* \"#utility.yul\":6872:6894   */\n      add\n        /* \"#utility.yul\":6827:6904   */\n      tag_516\n      jump\t// in\n    tag_567:\n        /* \"#utility.yul\":6817:6904   */\n      swap3\n      pop\n        /* \"#utility.yul\":6772:6914   */\n      pop\n        /* \"#utility.yul\":6953:6955   */\n      0x60\n        /* \"#utility.yul\":6979:7032   */\n      tag_568\n        /* \"#utility.yul\":7024:7031   */\n      dup7\n        /* \"#utility.yul\":7015:7021   */\n      dup3\n        /* \"#utility.yul\":7004:7013   */\n      dup8\n        /* \"#utility.yul\":7000:7022   */\n      add\n        /* \"#utility.yul\":6979:7032   */\n      tag_523\n      jump\t// in\n    tag_568:\n        /* \"#utility.yul\":6969:7032   */\n      swap2\n      pop\n        /* \"#utility.yul\":6924:7042   */\n      pop\n        /* \"#utility.yul\":6381:7049   */\n      swap3\n      pop\n      swap3\n      pop\n      swap3\n      jump\t// out\n        /* \"#utility.yul\":7055:7529   */\n    tag_83:\n        /* \"#utility.yul\":7123:7129   */\n      0x00\n        /* \"#utility.yul\":7131:7137   */\n      dup1\n        /* \"#utility.yul\":7180:7182   */\n      0x40\n        /* \"#utility.yul\":7168:7177   */\n      dup4\n        /* \"#utility.yul\":7159:7166   */\n      dup6\n        /* \"#utility.yul\":7155:7178   */\n      sub\n        /* \"#utility.yul\":7151:7183   */\n      slt\n        /* \"#utility.yul\":7148:7267   */\n      iszero\n      tag_570\n      jumpi\n        /* \"#utility.yul\":7186:7265   */\n      tag_571\n      tag_530\n      jump\t// in\n    tag_571:\n        /* \"#utility.yul\":7148:7267   */\n    tag_570:\n        /* \"#utility.yul\":7306:7307   */\n      0x00\n        /* \"#utility.yul\":7331:7384   */\n      tag_572\n        /* \"#utility.yul\":7376:7383   */\n      dup6\n        /* \"#utility.yul\":7367:7373   */\n      dup3\n        /* \"#utility.yul\":7356:7365   */\n      dup7\n        /* \"#utility.yul\":7352:7374   */\n      add\n        /* \"#utility.yul\":7331:7384   */\n      tag_523\n      jump\t// in\n    tag_572:\n        /* \"#utility.yul\":7321:7384   */\n      swap3\n      pop\n        /* \"#utility.yul\":7277:7394   */\n      pop\n        /* \"#utility.yul\":7433:7435   */\n      0x20\n        /* \"#utility.yul\":7459:7512   */\n      tag_573\n        /* \"#utility.yul\":7504:7511   */\n      dup6\n        /* \"#utility.yul\":7495:7501   */\n      dup3\n        /* \"#utility.yul\":7484:7493   */\n      dup7\n        /* \"#utility.yul\":7480:7502   */\n      add\n        /* \"#utility.yul\":7459:7512   */\n      tag_523\n      jump\t// in\n    tag_573:\n        /* \"#utility.yul\":7449:7512   */\n      swap2\n      pop\n        /* \"#utility.yul\":7404:7522   */\n      pop\n        /* \"#utility.yul\":7055:7529   */\n      swap3\n      pop\n      swap3\n      swap1\n      pop\n      jump\t// out\n        /* \"#utility.yul\":7535:8154   */\n    tag_58:\n        /* \"#utility.yul\":7612:7618   */\n      0x00\n        /* \"#utility.yul\":7620:7626   */\n      dup1\n        /* \"#utility.yul\":7628:7634   */\n      0x00\n        /* \"#utility.yul\":7677:7679   */\n      0x60\n        /* \"#utility.yul\":7665:7674   */\n      dup5\n        /* \"#utility.yul\":7656:7663   */\n      dup7\n        /* \"#utility.yul\":7652:7675   */\n      sub\n        /* \"#utility.yul\":7648:7680   */\n      slt\n        /* \"#utility.yul\":7645:7764   */\n      iszero\n      tag_575\n      jumpi\n        /* \"#utility.yul\":7683:7762   */\n      tag_576\n      tag_530\n      jump\t// in\n    tag_576:\n        /* \"#utility.yul\":7645:7764   */\n    tag_575:\n        /* \"#utility.yul\":7803:7804   */\n      0x00\n        /* \"#utility.yul\":7828:7881   */\n      tag_577\n        /* \"#utility.yul\":7873:7880   */\n      dup7\n        /* \"#utility.yul\":7864:7870   */\n      dup3\n        /* \"#utility.yul\":7853:7862   */\n      dup8\n        /* \"#utility.yul\":7849:7871   */\n      add\n        /* \"#utility.yul\":7828:7881   */\n      tag_523\n      jump\t// in\n    tag_577:\n        /* \"#utility.yul\":7818:7881   */\n      swap4\n      pop\n        /* \"#utility.yul\":7774:7891   */\n      pop\n        /* \"#utility.yul\":7930:7932   */\n      0x20\n        /* \"#utility.yul\":7956:8009   */\n      tag_578\n        /* \"#utility.yul\":8001:8008   */\n      dup7\n        /* \"#utility.yul\":7992:7998   */\n      dup3\n        /* \"#utility.yul\":7981:7990   */\n      dup8\n        /* \"#utility.yul\":7977:7999   */\n      add\n        /* \"#utility.yul\":7956:8009   */\n      tag_523\n      jump\t// in\n    tag_578:\n        /* \"#utility.yul\":7946:8009   */\n      swap3\n      pop\n        /* \"#utility.yul\":7901:8019   */\n      pop\n        /* \"#utility.yul\":8058:8060   */\n      0x40\n        /* \"#utility.yul\":8084:8137   */\n      tag_579\n        /* \"#utility.yul\":8129:8136   */\n      dup7\n        /* \"#utility.yul\":8120:8126   */\n      dup3\n        /* \"#utility.yul\":8109:8118   */\n      dup8\n        /* \"#utility.yul\":8105:8127   */\n      add\n        /* \"#utility.yul\":8084:8137   */\n      tag_523\n      jump\t// in\n    tag_579:\n        /* \"#utility.yul\":8074:8137   */\n      swap2\n      pop\n        /* \"#utility.yul\":8029:8147   */\n      pop\n        /* \"#utility.yul\":7535:8154   */\n      swap3\n      pop\n      swap3\n      pop\n      swap3\n      jump\t// out\n        /* \"#utility.yul\":8160:8278   */\n    tag_580:\n        /* \"#utility.yul\":8247:8271   */\n      tag_582\n        /* \"#utility.yul\":8265:8270   */\n      dup2\n        /* \"#utility.yul\":8247:8271   */\n      tag_583\n      jump\t// in\n    tag_582:\n        /* \"#utility.yul\":8242:8245   */\n      dup3\n        /* \"#utility.yul\":8235:8272   */\n      mstore\n        /* \"#utility.yul\":8160:8278   */\n      pop\n      pop\n      jump\t// out\n        /* \"#utility.yul\":8284:8393   */\n    tag_584:\n        /* \"#utility.yul\":8365:8386   */\n      tag_586\n        /* \"#utility.yul\":8380:8385   */\n      dup2\n        /* \"#utility.yul\":8365:8386   */\n      tag_587\n      jump\t// in\n    tag_586:\n        /* \"#utility.yul\":8360:8363   */\n      dup3\n        /* \"#utility.yul\":8353:8387   */\n      mstore\n        /* \"#utility.yul\":8284:8393   */\n      pop\n      pop\n      jump\t// out\n        /* \"#utility.yul\":8399:8507   */\n    tag_588:\n        /* \"#utility.yul\":8476:8500   */\n      tag_590\n        /* \"#utility.yul\":8494:8499   */\n      dup2\n        /* \"#utility.yul\":8476:8500   */\n      tag_591\n      jump\t// in\n    tag_590:\n        /* \"#utility.yul\":8471:8474   */\n      dup3\n        /* \"#utility.yul\":8464:8501   */\n      mstore\n        /* \"#utility.yul\":8399:8507   */\n      pop\n      pop\n      jump\t// out\n        /* \"#utility.yul\":8513:8631   */\n    tag_592:\n        /* \"#utility.yul\":8600:8624   */\n      tag_594\n        /* \"#utility.yul\":8618:8623   */\n      dup2\n        /* \"#utility.yul\":8600:8624   */\n      tag_591\n      jump\t// in\n    tag_594:\n        /* \"#utility.yul\":8595:8598   */\n      dup3\n        /* \"#utility.yul\":8588:8625   */\n      mstore\n        /* \"#utility.yul\":8513:8631   */\n      pop\n      pop\n      jump\t// out\n        /* \"#utility.yul\":8637:8977   */\n    tag_595:\n        /* \"#utility.yul\":8713:8716   */\n      0x00\n        /* \"#utility.yul\":8741:8779   */\n      tag_597\n        /* \"#utility.yul\":8773:8778   */\n      dup3\n        /* \"#utility.yul\":8741:8779   */\n      tag_598\n      jump\t// in\n    tag_597:\n        /* \"#utility.yul\":8795:8855   */\n      tag_599\n        /* \"#utility.yul\":8848:8854   */\n      dup2\n        /* \"#utility.yul\":8843:8846   */\n      dup6\n        /* \"#utility.yul\":8795:8855   */\n      tag_600\n      jump\t// in\n    tag_599:\n        /* \"#utility.yul\":8788:8855   */\n      swap4\n      pop\n        /* \"#utility.yul\":8864:8916   */\n      tag_601\n        /* \"#utility.yul\":8909:8915   */\n      dup2\n        /* \"#utility.yul\":8904:8907   */\n      dup6\n        /* \"#utility.yul\":8897:8901   */\n      0x20\n        /* \"#utility.yul\":8890:8895   */\n      dup7\n        /* \"#utility.yul\":8886:8902   */\n      add\n        /* \"#utility.yul\":8864:8916   */\n      tag_602\n      jump\t// in\n    tag_601:\n        /* \"#utility.yul\":8941:8970   */\n      tag_603\n        /* \"#utility.yul\":8963:8969   */\n      dup2\n        /* \"#utility.yul\":8941:8970   */\n      tag_604\n      jump\t// in\n    tag_603:\n        /* \"#utility.yul\":8936:8939   */\n      dup5\n        /* \"#utility.yul\":8932:8971   */\n      add\n        /* \"#utility.yul\":8925:8971   */\n      swap2\n      pop\n        /* \"#utility.yul\":8717:8977   */\n      pop\n        /* \"#utility.yul\":8637:8977   */\n      swap3\n      swap2\n      pop\n      pop\n      jump\t// out\n        /* \"#utility.yul\":8983:9148   */\n    tag_605:\n        /* \"#utility.yul\":9087:9141   */\n      tag_607\n        /* \"#utility.yul\":9135:9140   */\n      dup2\n        /* \"#utility.yul\":9087:9141   */\n      tag_608\n      jump\t// in\n    tag_607:\n        /* \"#utility.yul\":9082:9085   */\n      dup3\n        /* \"#utility.yul\":9075:9142   */\n      mstore\n        /* \"#utility.yul\":8983:9148   */\n      pop\n      pop\n      jump\t// out\n        /* \"#utility.yul\":9154:9307   */\n    tag_609:\n        /* \"#utility.yul\":9247:9300   */\n      tag_611\n        /* \"#utility.yul\":9294:9299   */\n      dup2\n        /* \"#utility.yul\":9247:9300   */\n      tag_612\n      jump\t// in\n    tag_611:\n        /* \"#utility.yul\":9242:9245   */\n      dup3\n        /* \"#utility.yul\":9235:9301   */\n      mstore\n        /* \"#utility.yul\":9154:9307   */\n      pop\n      pop\n      jump\t// out\n        /* \"#utility.yul\":9313:9476   */\n    tag_613:\n        /* \"#utility.yul\":9416:9469   */\n      tag_615\n        /* \"#utility.yul\":9463:9468   */\n      dup2\n        /* \"#utility.yul\":9416:9469   */\n      tag_612\n      jump\t// in\n    tag_615:\n        /* \"#utility.yul\":9411:9414   */\n      dup3\n        /* \"#utility.yul\":9404:9470   */\n      mstore\n        /* \"#utility.yul\":9313:9476   */\n      pop\n      pop\n      jump\t// out\n        /* \"#utility.yul\":9482:9631   */\n    tag_616:\n        /* \"#utility.yul\":9573:9624   */\n      tag_618\n        /* \"#utility.yul\":9618:9623   */\n      dup2\n        /* \"#utility.yul\":9573:9624   */\n      tag_619\n      jump\t// in\n    tag_618:\n        /* \"#utility.yul\":9568:9571   */\n      dup3\n        /* \"#utility.yul\":9561:9625   */\n      mstore\n        /* \"#utility.yul\":9482:9631   */\n      pop\n      pop\n      jump\t// out\n        /* \"#utility.yul\":9637:9796   */\n    tag_620:\n        /* \"#utility.yul\":9738:9789   */\n      tag_622\n        /* \"#utility.yul\":9783:9788   */\n      dup2\n        /* \"#utility.yul\":9738:9789   */\n      tag_619\n      jump\t// in\n    tag_622:\n        /* \"#utility.yul\":9733:9736   */\n      dup3\n        /* \"#utility.yul\":9726:9790   */\n      mstore\n        /* \"#utility.yul\":9637:9796   */\n      pop\n      pop\n      jump\t// out\n        /* \"#utility.yul\":9802:10168   */\n    tag_623:\n        /* \"#utility.yul\":9944:9947   */\n      0x00\n        /* \"#utility.yul\":9965:10032   */\n      tag_625\n        /* \"#utility.yul\":10029:10031   */\n      0x2e\n        /* \"#utility.yul\":10024:10027   */\n      dup4\n        /* \"#utility.yul\":9965:10032   */\n      tag_626\n      jump\t// in\n    tag_625:\n        /* \"#utility.yul\":9958:10032   */\n      swap2\n      pop\n        /* \"#utility.yul\":10041:10134   */\n      tag_627\n        /* \"#utility.yul\":10130:10133   */\n      dup3\n        /* \"#utility.yul\":10041:10134   */\n      tag_628\n      jump\t// in\n    tag_627:\n        /* \"#utility.yul\":10159:10161   */\n      0x40\n        /* \"#utility.yul\":10154:10157   */\n      dup3\n        /* \"#utility.yul\":10150:10162   */\n      add\n        /* \"#utility.yul\":10143:10162   */\n      swap1\n      pop\n        /* \"#utility.yul\":9802:10168   */\n      swap2\n      swap1\n      pop\n      jump\t// out\n        /* \"#utility.yul\":10174:10540   */\n    tag_629:\n        /* \"#utility.yul\":10316:10319   */\n      0x00\n        /* \"#utility.yul\":10337:10404   */\n      tag_631\n        /* \"#utility.yul\":10401:10403   */\n      0x2d\n        /* \"#utility.yul\":10396:10399   */\n      dup4\n        /* \"#utility.yul\":10337:10404   */\n      tag_626\n      jump\t// in\n    tag_631:\n        /* \"#utility.yul\":10330:10404   */\n      swap2\n      pop\n        /* \"#utility.yul\":10413:10506   */\n      tag_632\n        /* \"#utility.yul\":10502:10505   */\n      dup3\n        /* \"#utility.yul\":10413:10506   */\n      tag_633\n      jump\t// in\n    tag_632:\n        /* \"#utility.yul\":10531:10533   */\n      0x40\n        /* \"#utility.yul\":10526:10529   */\n      dup3\n        /* \"#utility.yul\":10522:10534   */\n      add\n        /* \"#utility.yul\":10515:10534   */\n      swap1\n      pop\n        /* \"#utility.yul\":10174:10540   */\n      swap2\n      swap1\n      pop\n      jump\t// out\n        /* \"#utility.yul\":10546:10912   */\n    tag_634:\n        /* \"#utility.yul\":10688:10691   */\n      0x00\n        /* \"#utility.yul\":10709:10776   */\n      tag_636\n        /* \"#utility.yul\":10773:10775   */\n      0x40\n        /* \"#utility.yul\":10768:10771   */\n      dup4\n        /* \"#utility.yul\":10709:10776   */\n      tag_626\n      jump\t// in\n    tag_636:\n        /* \"#utility.yul\":10702:10776   */\n      swap2\n      pop\n        /* \"#utility.yul\":10785:10878   */\n      tag_637\n        /* \"#utility.yul\":10874:10877   */\n      dup3\n        /* \"#utility.yul\":10785:10878   */\n      tag_638\n      jump\t// in\n    tag_637:\n        /* \"#utility.yul\":10903:10905   */\n      0x40\n        /* \"#utility.yul\":10898:10901   */\n      dup3\n        /* \"#utility.yul\":10894:10906   */\n      add\n        /* \"#utility.yul\":10887:10906   */\n      swap1\n      pop\n        /* \"#utility.yul\":10546:10912   */\n      swap2\n      swap1\n      pop\n      jump\t// out\n        /* \"#utility.yul\":10918:11284   */\n    tag_639:\n        /* \"#utility.yul\":11060:11063   */\n      0x00\n        /* \"#utility.yul\":11081:11148   */\n      tag_641\n        /* \"#utility.yul\":11145:11147   */\n      0x15\n        /* \"#utility.yul\":11140:11143   */\n      dup4\n        /* \"#utility.yul\":11081:11148   */\n      tag_626\n      jump\t// in\n    tag_641:\n        /* \"#utility.yul\":11074:11148   */\n      swap2\n      pop\n        /* \"#utility.yul\":11157:11250   */\n      tag_642\n        /* \"#utility.yul\":11246:11249   */\n      dup3\n        /* \"#utility.yul\":11157:11250   */\n      tag_643\n      jump\t// in\n    tag_642:\n        /* \"#utility.yul\":11275:11277   */\n      0x20\n        /* \"#utility.yul\":11270:11273   */\n      dup3\n        /* \"#utility.yul\":11266:11278   */\n      add\n        /* \"#utility.yul\":11259:11278   */\n      swap1\n      pop\n        /* \"#utility.yul\":10918:11284   */\n      swap2\n      swap1\n      pop\n      jump\t// out\n        /* \"#utility.yul\":11290:11656   */\n    tag_644:\n        /* \"#utility.yul\":11432:11435   */\n      0x00\n        /* \"#utility.yul\":11453:11520   */\n      tag_646\n        /* \"#utility.yul\":11517:11519   */\n      0x14\n        /* \"#utility.yul\":11512:11515   */\n      dup4\n        /* \"#utility.yul\":11453:11520   */\n      tag_626\n      jump\t// in\n    tag_646:\n        /* \"#utility.yul\":11446:11520   */\n      swap2\n      pop\n        /* \"#utility.yul\":11529:11622   */\n      tag_647\n        /* \"#utility.yul\":11618:11621   */\n      dup3\n        /* \"#utility.yul\":11529:11622   */\n      tag_648\n      jump\t// in\n    tag_647:\n        /* \"#utility.yul\":11647:11649   */\n      0x20\n        /* \"#utility.yul\":11642:11645   */\n      dup3\n        /* \"#utility.yul\":11638:11650   */\n      add\n        /* \"#utility.yul\":11631:11650   */\n      swap1\n      pop\n        /* \"#utility.yul\":11290:11656   */\n      swap2\n      swap1\n      pop\n      jump\t// out\n        /* \"#utility.yul\":11662:12028   */\n    tag_649:\n        /* \"#utility.yul\":11804:11807   */\n      0x00\n        /* \"#utility.yul\":11825:11892   */\n      tag_651\n        /* \"#utility.yul\":11889:11891   */\n      0x30\n        /* \"#utility.yul\":11884:11887   */\n      dup4\n        /* \"#utility.yul\":11825:11892   */\n      tag_626\n      jump\t// in\n    tag_651:\n        /* \"#utility.yul\":11818:11892   */\n      swap2\n      pop\n        /* \"#utility.yul\":11901:11994   */\n      tag_652\n        /* \"#utility.yul\":11990:11993   */\n      dup3\n        /* \"#utility.yul\":11901:11994   */\n      tag_653\n      jump\t// in\n    tag_652:\n        /* \"#utility.yul\":12019:12021   */\n      0x40\n        /* \"#utility.yul\":12014:12017   */\n      dup3\n        /* \"#utility.yul\":12010:12022   */\n      add\n        /* \"#utility.yul\":12003:12022   */\n      swap1\n      pop\n        /* \"#utility.yul\":11662:12028   */\n      swap2\n      swap1\n      pop\n      jump\t// out\n        /* \"#utility.yul\":12034:12400   */\n    tag_654:\n        /* \"#utility.yul\":12176:12179   */\n      0x00\n        /* \"#utility.yul\":12197:12264   */\n      tag_656\n        /* \"#utility.yul\":12261:12263   */\n      0x3e\n        /* \"#utility.yul\":12256:12259   */\n      dup4\n        /* \"#utility.yul\":12197:12264   */\n      tag_626\n      jump\t// in\n    tag_656:\n        /* \"#utility.yul\":12190:12264   */\n      swap2\n      pop\n        /* \"#utility.yul\":12273:12366   */\n      tag_657\n        /* \"#utility.yul\":12362:12365   */\n      dup3\n        /* \"#utility.yul\":12273:12366   */\n      tag_658\n      jump\t// in\n    tag_657:\n        /* \"#utility.yul\":12391:12393   */\n      0x40\n        /* \"#utility.yul\":12386:12389   */\n      dup3\n        /* \"#utility.yul\":12382:12394   */\n      add\n        /* \"#utility.yul\":12375:12394   */\n      swap1\n      pop\n        /* \"#utility.yul\":12034:12400   */\n      swap2\n      swap1\n      pop\n      jump\t// out\n        /* \"#utility.yul\":12406:12804   */\n    tag_659:\n        /* \"#utility.yul\":12565:12568   */\n      0x00\n        /* \"#utility.yul\":12586:12669   */\n      tag_661\n        /* \"#utility.yul\":12667:12668   */\n      0x00\n        /* \"#utility.yul\":12662:12665   */\n      dup4\n        /* \"#utility.yul\":12586:12669   */\n      tag_662\n      jump\t// in\n    tag_661:\n        /* \"#utility.yul\":12579:12669   */\n      swap2\n      pop\n        /* \"#utility.yul\":12678:12771   */\n      tag_663\n        /* \"#utility.yul\":12767:12770   */\n      dup3\n        /* \"#utility.yul\":12678:12771   */\n      tag_664\n      jump\t// in\n    tag_663:\n        /* \"#utility.yul\":12796:12797   */\n      0x00\n        /* \"#utility.yul\":12791:12794   */\n      dup3\n        /* \"#utility.yul\":12787:12798   */\n      add\n        /* \"#utility.yul\":12780:12798   */\n      swap1\n      pop\n        /* \"#utility.yul\":12406:12804   */\n      swap2\n      swap1\n      pop\n      jump\t// out\n        /* \"#utility.yul\":12810:13176   */\n    tag_665:\n        /* \"#utility.yul\":12952:12955   */\n      0x00\n        /* \"#utility.yul\":12973:13040   */\n      tag_667\n        /* \"#utility.yul\":13037:13039   */\n      0x16\n        /* \"#utility.yul\":13032:13035   */\n      dup4\n        /* \"#utility.yul\":12973:13040   */\n      tag_626\n      jump\t// in\n    tag_667:\n        /* \"#utility.yul\":12966:13040   */\n      swap2\n      pop\n        /* \"#utility.yul\":13049:13142   */\n      tag_668\n        /* \"#utility.yul\":13138:13141   */\n      dup3\n        /* \"#utility.yul\":13049:13142   */\n      tag_669\n      jump\t// in\n    tag_668:\n        /* \"#utility.yul\":13167:13169   */\n      0x20\n        /* \"#utility.yul\":13162:13165   */\n      dup3\n        /* \"#utility.yul\":13158:13170   */\n      add\n        /* \"#utility.yul\":13151:13170   */\n      swap1\n      pop\n        /* \"#utility.yul\":12810:13176   */\n      swap2\n      swap1\n      pop\n      jump\t// out\n        /* \"#utility.yul\":13182:13548   */\n    tag_670:\n        /* \"#utility.yul\":13324:13327   */\n      0x00\n        /* \"#utility.yul\":13345:13412   */\n      tag_672\n        /* \"#utility.yul\":13409:13411   */\n      0x3d\n        /* \"#utility.yul\":13404:13407   */\n      dup4\n        /* \"#utility.yul\":13345:13412   */\n      tag_626\n      jump\t// in\n    tag_672:\n        /* \"#utility.yul\":13338:13412   */\n      swap2\n      pop\n        /* \"#utility.yul\":13421:13514   */\n      tag_673\n        /* \"#utility.yul\":13510:13513   */\n      dup3\n        /* \"#utility.yul\":13421:13514   */\n      tag_674\n      jump\t// in\n    tag_673:\n        /* \"#utility.yul\":13539:13541   */\n      0x40\n        /* \"#utility.yul\":13534:13537   */\n      dup3\n        /* \"#utility.yul\":13530:13542   */\n      add\n        /* \"#utility.yul\":13523:13542   */\n      swap1\n      pop\n        /* \"#utility.yul\":13182:13548   */\n      swap2\n      swap1\n      pop\n      jump\t// out\n        /* \"#utility.yul\":13614:14292   */\n    tag_675:\n        /* \"#utility.yul\":13729:13732   */\n      0x00\n        /* \"#utility.yul\":13765:13769   */\n      0x40\n        /* \"#utility.yul\":13760:13763   */\n      dup4\n        /* \"#utility.yul\":13756:13770   */\n      add\n        /* \"#utility.yul\":13856:13860   */\n      0x00\n        /* \"#utility.yul\":13849:13854   */\n      dup4\n        /* \"#utility.yul\":13845:13861   */\n      add\n        /* \"#utility.yul\":13839:13862   */\n      mload\n        /* \"#utility.yul\":13909:13912   */\n      dup5\n        /* \"#utility.yul\":13903:13907   */\n      dup3\n        /* \"#utility.yul\":13899:13913   */\n      sub\n        /* \"#utility.yul\":13892:13896   */\n      0x00\n        /* \"#utility.yul\":13887:13890   */\n      dup7\n        /* \"#utility.yul\":13883:13897   */\n      add\n        /* \"#utility.yul\":13876:13914   */\n      mstore\n        /* \"#utility.yul\":13935:14006   */\n      tag_677\n        /* \"#utility.yul\":14001:14005   */\n      dup3\n        /* \"#utility.yul\":13987:13999   */\n      dup3\n        /* \"#utility.yul\":13935:14006   */\n      tag_595\n      jump\t// in\n    tag_677:\n        /* \"#utility.yul\":13927:14006   */\n      swap2\n      pop\n        /* \"#utility.yul\":13780:14017   */\n      pop\n        /* \"#utility.yul\":14104:14108   */\n      0x20\n        /* \"#utility.yul\":14097:14102   */\n      dup4\n        /* \"#utility.yul\":14093:14109   */\n      add\n        /* \"#utility.yul\":14087:14110   */\n      mload\n        /* \"#utility.yul\":14157:14160   */\n      dup5\n        /* \"#utility.yul\":14151:14155   */\n      dup3\n        /* \"#utility.yul\":14147:14161   */\n      sub\n        /* \"#utility.yul\":14140:14144   */\n      0x20\n        /* \"#utility.yul\":14135:14138   */\n      dup7\n        /* \"#utility.yul\":14131:14145   */\n      add\n        /* \"#utility.yul\":14124:14162   */\n      mstore\n        /* \"#utility.yul\":14183:14254   */\n      tag_678\n        /* \"#utility.yul\":14249:14253   */\n      dup3\n        /* \"#utility.yul\":14235:14247   */\n      dup3\n        /* \"#utility.yul\":14183:14254   */\n      tag_595\n      jump\t// in\n    tag_678:\n        /* \"#utility.yul\":14175:14254   */\n      swap2\n      pop\n        /* \"#utility.yul\":14027:14265   */\n      pop\n        /* \"#utility.yul\":14282:14286   */\n      dup1\n        /* \"#utility.yul\":14275:14286   */\n      swap2\n      pop\n        /* \"#utility.yul\":13734:14292   */\n      pop\n        /* \"#utility.yul\":13614:14292   */\n      swap3\n      swap2\n      pop\n      pop\n      jump\t// out\n        /* \"#utility.yul\":14358:15046   */\n    tag_679:\n        /* \"#utility.yul\":14483:14486   */\n      0x00\n        /* \"#utility.yul\":14519:14523   */\n      0x40\n        /* \"#utility.yul\":14514:14517   */\n      dup4\n        /* \"#utility.yul\":14510:14524   */\n      add\n        /* \"#utility.yul\":14610:14614   */\n      0x00\n        /* \"#utility.yul\":14603:14608   */\n      dup4\n        /* \"#utility.yul\":14599:14615   */\n      add\n        /* \"#utility.yul\":14593:14616   */\n      mload\n        /* \"#utility.yul\":14663:14666   */\n      dup5\n        /* \"#utility.yul\":14657:14661   */\n      dup3\n        /* \"#utility.yul\":14653:14667   */\n      sub\n        /* \"#utility.yul\":14646:14650   */\n      0x00\n        /* \"#utility.yul\":14641:14644   */\n      dup7\n        /* \"#utility.yul\":14637:14651   */\n      add\n        /* \"#utility.yul\":14630:14668   */\n      mstore\n        /* \"#utility.yul\":14689:14760   */\n      tag_681\n        /* \"#utility.yul\":14755:14759   */\n      dup3\n        /* \"#utility.yul\":14741:14753   */\n      dup3\n        /* \"#utility.yul\":14689:14760   */\n      tag_595\n      jump\t// in\n    tag_681:\n        /* \"#utility.yul\":14681:14760   */\n      swap2\n      pop\n        /* \"#utility.yul\":14534:14771   */\n      pop\n        /* \"#utility.yul\":14858:14862   */\n      0x20\n        /* \"#utility.yul\":14851:14856   */\n      dup4\n        /* \"#utility.yul\":14847:14863   */\n      add\n        /* \"#utility.yul\":14841:14864   */\n      mload\n        /* \"#utility.yul\":14911:14914   */\n      dup5\n        /* \"#utility.yul\":14905:14909   */\n      dup3\n        /* \"#utility.yul\":14901:14915   */\n      sub\n        /* \"#utility.yul\":14894:14898   */\n      0x20\n        /* \"#utility.yul\":14889:14892   */\n      dup7\n        /* \"#utility.yul\":14885:14899   */\n      add\n        /* \"#utility.yul\":14878:14916   */\n      mstore\n        /* \"#utility.yul\":14937:15008   */\n      tag_682\n        /* \"#utility.yul\":15003:15007   */\n      dup3\n        /* \"#utility.yul\":14989:15001   */\n      dup3\n        /* \"#utility.yul\":14937:15008   */\n      tag_595\n      jump\t// in\n    tag_682:\n        /* \"#utility.yul\":14929:15008   */\n      swap2\n      pop\n        /* \"#utility.yul\":14781:15019   */\n      pop\n        /* \"#utility.yul\":15036:15040   */\n      dup1\n        /* \"#utility.yul\":15029:15040   */\n      swap2\n      pop\n        /* \"#utility.yul\":14488:15046   */\n      pop\n        /* \"#utility.yul\":14358:15046   */\n      swap3\n      swap2\n      pop\n      pop\n      jump\t// out\n        /* \"#utility.yul\":15104:15607   */\n    tag_683:\n        /* \"#utility.yul\":15249:15253   */\n      0x40\n        /* \"#utility.yul\":15244:15247   */\n      dup3\n        /* \"#utility.yul\":15240:15254   */\n      add\n        /* \"#utility.yul\":15336:15340   */\n      0x00\n        /* \"#utility.yul\":15329:15334   */\n      dup3\n        /* \"#utility.yul\":15325:15341   */\n      add\n        /* \"#utility.yul\":15319:15342   */\n      mload\n        /* \"#utility.yul\":15355:15418   */\n      tag_685\n        /* \"#utility.yul\":15412:15416   */\n      0x00\n        /* \"#utility.yul\":15407:15410   */\n      dup6\n        /* \"#utility.yul\":15403:15417   */\n      add\n        /* \"#utility.yul\":15389:15401   */\n      dup3\n        /* \"#utility.yul\":15355:15418   */\n      tag_588\n      jump\t// in\n    tag_685:\n        /* \"#utility.yul\":15264:15428   */\n      pop\n        /* \"#utility.yul\":15508:15512   */\n      0x20\n        /* \"#utility.yul\":15501:15506   */\n      dup3\n        /* \"#utility.yul\":15497:15513   */\n      add\n        /* \"#utility.yul\":15491:15514   */\n      mload\n        /* \"#utility.yul\":15527:15590   */\n      tag_686\n        /* \"#utility.yul\":15584:15588   */\n      0x20\n        /* \"#utility.yul\":15579:15582   */\n      dup6\n        /* \"#utility.yul\":15575:15589   */\n      add\n        /* \"#utility.yul\":15561:15573   */\n      dup3\n        /* \"#utility.yul\":15527:15590   */\n      tag_588\n      jump\t// in\n    tag_686:\n        /* \"#utility.yul\":15438:15600   */\n      pop\n        /* \"#utility.yul\":15218:15607   */\n      pop\n        /* \"#utility.yul\":15104:15607   */\n      pop\n      pop\n      jump\t// out\n        /* \"#utility.yul\":15667:17581   */\n    tag_687:\n        /* \"#utility.yul\":15786:15789   */\n      0x00\n        /* \"#utility.yul\":15822:15828   */\n      0x0120\n        /* \"#utility.yul\":15817:15820   */\n      dup4\n        /* \"#utility.yul\":15813:15829   */\n      add\n        /* \"#utility.yul\":15909:15913   */\n      0x00\n        /* \"#utility.yul\":15902:15907   */\n      dup4\n        /* \"#utility.yul\":15898:15914   */\n      add\n        /* \"#utility.yul\":15892:15915   */\n      mload\n        /* \"#utility.yul\":15928:15991   */\n      tag_689\n        /* \"#utility.yul\":15985:15989   */\n      0x00\n        /* \"#utility.yul\":15980:15983   */\n      dup7\n        /* \"#utility.yul\":15976:15990   */\n      add\n        /* \"#utility.yul\":15962:15974   */\n      dup3\n        /* \"#utility.yul\":15928:15991   */\n      tag_690\n      jump\t// in\n    tag_689:\n        /* \"#utility.yul\":15839:16001   */\n      pop\n        /* \"#utility.yul\":16083:16087   */\n      0x20\n        /* \"#utility.yul\":16076:16081   */\n      dup4\n        /* \"#utility.yul\":16072:16088   */\n      add\n        /* \"#utility.yul\":16066:16089   */\n      mload\n        /* \"#utility.yul\":16102:16165   */\n      tag_691\n        /* \"#utility.yul\":16159:16163   */\n      0x20\n        /* \"#utility.yul\":16154:16157   */\n      dup7\n        /* \"#utility.yul\":16150:16164   */\n      add\n        /* \"#utility.yul\":16136:16148   */\n      dup3\n        /* \"#utility.yul\":16102:16165   */\n      tag_588\n      jump\t// in\n    tag_691:\n        /* \"#utility.yul\":16011:16175   */\n      pop\n        /* \"#utility.yul\":16258:16262   */\n      0x40\n        /* \"#utility.yul\":16251:16256   */\n      dup4\n        /* \"#utility.yul\":16247:16263   */\n      add\n        /* \"#utility.yul\":16241:16264   */\n      mload\n        /* \"#utility.yul\":16277:16340   */\n      tag_692\n        /* \"#utility.yul\":16334:16338   */\n      0x40\n        /* \"#utility.yul\":16329:16332   */\n      dup7\n        /* \"#utility.yul\":16325:16339   */\n      add\n        /* \"#utility.yul\":16311:16323   */\n      dup3\n        /* \"#utility.yul\":16277:16340   */\n      tag_588\n      jump\t// in\n    tag_692:\n        /* \"#utility.yul\":16185:16350   */\n      pop\n        /* \"#utility.yul\":16439:16443   */\n      0x60\n        /* \"#utility.yul\":16432:16437   */\n      dup4\n        /* \"#utility.yul\":16428:16444   */\n      add\n        /* \"#utility.yul\":16422:16445   */\n      mload\n        /* \"#utility.yul\":16458:16535   */\n      tag_693\n        /* \"#utility.yul\":16529:16533   */\n      0x60\n        /* \"#utility.yul\":16524:16527   */\n      dup7\n        /* \"#utility.yul\":16520:16534   */\n      add\n        /* \"#utility.yul\":16506:16518   */\n      dup3\n        /* \"#utility.yul\":16458:16535   */\n      tag_616\n      jump\t// in\n    tag_693:\n        /* \"#utility.yul\":16360:16545   */\n      pop\n        /* \"#utility.yul\":16631:16635   */\n      0x80\n        /* \"#utility.yul\":16624:16629   */\n      dup4\n        /* \"#utility.yul\":16620:16636   */\n      add\n        /* \"#utility.yul\":16614:16637   */\n      mload\n        /* \"#utility.yul\":16684:16687   */\n      dup5\n        /* \"#utility.yul\":16678:16682   */\n      dup3\n        /* \"#utility.yul\":16674:16688   */\n      sub\n        /* \"#utility.yul\":16667:16671   */\n      0x80\n        /* \"#utility.yul\":16662:16665   */\n      dup7\n        /* \"#utility.yul\":16658:16672   */\n      add\n        /* \"#utility.yul\":16651:16689   */\n      mstore\n        /* \"#utility.yul\":16710:16819   */\n      tag_694\n        /* \"#utility.yul\":16814:16818   */\n      dup3\n        /* \"#utility.yul\":16800:16812   */\n      dup3\n        /* \"#utility.yul\":16710:16819   */\n      tag_675\n      jump\t// in\n    tag_694:\n        /* \"#utility.yul\":16702:16819   */\n      swap2\n      pop\n        /* \"#utility.yul\":16555:16830   */\n      pop\n        /* \"#utility.yul\":16913:16917   */\n      0xa0\n        /* \"#utility.yul\":16906:16911   */\n      dup4\n        /* \"#utility.yul\":16902:16918   */\n      add\n        /* \"#utility.yul\":16896:16919   */\n      mload\n        /* \"#utility.yul\":16932:16995   */\n      tag_695\n        /* \"#utility.yul\":16989:16993   */\n      0xa0\n        /* \"#utility.yul\":16984:16987   */\n      dup7\n        /* \"#utility.yul\":16980:16994   */\n      add\n        /* \"#utility.yul\":16966:16978   */\n      dup3\n        /* \"#utility.yul\":16932:16995   */\n      tag_690\n      jump\t// in\n    tag_695:\n        /* \"#utility.yul\":16840:17005   */\n      pop\n        /* \"#utility.yul\":17088:17092   */\n      0xc0\n        /* \"#utility.yul\":17081:17086   */\n      dup4\n        /* \"#utility.yul\":17077:17093   */\n      add\n        /* \"#utility.yul\":17071:17094   */\n      mload\n        /* \"#utility.yul\":17107:17170   */\n      tag_696\n        /* \"#utility.yul\":17164:17168   */\n      0xc0\n        /* \"#utility.yul\":17159:17162   */\n      dup7\n        /* \"#utility.yul\":17155:17169   */\n      add\n        /* \"#utility.yul\":17141:17153   */\n      dup3\n        /* \"#utility.yul\":17107:17170   */\n      tag_588\n      jump\t// in\n    tag_696:\n        /* \"#utility.yul\":17015:17180   */\n      pop\n        /* \"#utility.yul\":17266:17270   */\n      0xe0\n        /* \"#utility.yul\":17259:17264   */\n      dup4\n        /* \"#utility.yul\":17255:17271   */\n      add\n        /* \"#utility.yul\":17249:17272   */\n      mload\n        /* \"#utility.yul\":17285:17348   */\n      tag_697\n        /* \"#utility.yul\":17342:17346   */\n      0xe0\n        /* \"#utility.yul\":17337:17340   */\n      dup7\n        /* \"#utility.yul\":17333:17347   */\n      add\n        /* \"#utility.yul\":17319:17331   */\n      dup3\n        /* \"#utility.yul\":17285:17348   */\n      tag_690\n      jump\t// in\n    tag_697:\n        /* \"#utility.yul\":17190:17358   */\n      pop\n        /* \"#utility.yul\":17442:17448   */\n      0x0100\n        /* \"#utility.yul\":17435:17440   */\n      dup4\n        /* \"#utility.yul\":17431:17449   */\n      add\n        /* \"#utility.yul\":17425:17450   */\n      mload\n        /* \"#utility.yul\":17463:17544   */\n      tag_698\n        /* \"#utility.yul\":17536:17542   */\n      0x0100\n        /* \"#utility.yul\":17531:17534   */\n      dup7\n        /* \"#utility.yul\":17527:17543   */\n      add\n        /* \"#utility.yul\":17513:17525   */\n      dup3\n        /* \"#utility.yul\":17463:17544   */\n      tag_609\n      jump\t// in\n    tag_698:\n        /* \"#utility.yul\":17368:17554   */\n      pop\n        /* \"#utility.yul\":17571:17575   */\n      dup1\n        /* \"#utility.yul\":17564:17575   */\n      swap2\n      pop\n        /* \"#utility.yul\":15791:17581   */\n      pop\n        /* \"#utility.yul\":15667:17581   */\n      swap3\n      swap2\n      pop\n      pop\n      jump\t// out\n        /* \"#utility.yul\":17587:17695   */\n    tag_690:\n        /* \"#utility.yul\":17664:17688   */\n      tag_700\n        /* \"#utility.yul\":17682:17687   */\n      dup2\n        /* \"#utility.yul\":17664:17688   */\n      tag_701\n      jump\t// in\n    tag_700:\n        /* \"#utility.yul\":17659:17662   */\n      dup3\n        /* \"#utility.yul\":17652:17689   */\n      mstore\n        /* \"#utility.yul\":17587:17695   */\n      pop\n      pop\n      jump\t// out\n        /* \"#utility.yul\":17701:17819   */\n    tag_702:\n        /* \"#utility.yul\":17788:17812   */\n      tag_704\n        /* \"#utility.yul\":17806:17811   */\n      dup2\n        /* \"#utility.yul\":17788:17812   */\n      tag_701\n      jump\t// in\n    tag_704:\n        /* \"#utility.yul\":17783:17786   */\n      dup3\n        /* \"#utility.yul\":17776:17813   */\n      mstore\n        /* \"#utility.yul\":17701:17819   */\n      pop\n      pop\n      jump\t// out\n        /* \"#utility.yul\":17825:18204   */\n    tag_320:\n        /* \"#utility.yul\":18009:18012   */\n      0x00\n        /* \"#utility.yul\":18031:18178   */\n      tag_706\n        /* \"#utility.yul\":18174:18177   */\n      dup3\n        /* \"#utility.yul\":18031:18178   */\n      tag_659\n      jump\t// in\n    tag_706:\n        /* \"#utility.yul\":18024:18178   */\n      swap2\n      pop\n        /* \"#utility.yul\":18195:18198   */\n      dup2\n        /* \"#utility.yul\":18188:18198   */\n      swap1\n      pop\n        /* \"#utility.yul\":17825:18204   */\n      swap2\n      swap1\n      pop\n      jump\t// out\n        /* \"#utility.yul\":18210:18432   */\n    tag_106:\n        /* \"#utility.yul\":18303:18307   */\n      0x00\n        /* \"#utility.yul\":18341:18343   */\n      0x20\n        /* \"#utility.yul\":18330:18339   */\n      dup3\n        /* \"#utility.yul\":18326:18344   */\n      add\n        /* \"#utility.yul\":18318:18344   */\n      swap1\n      pop\n        /* \"#utility.yul\":18354:18425   */\n      tag_708\n        /* \"#utility.yul\":18422:18423   */\n      0x00\n        /* \"#utility.yul\":18411:18420   */\n      dup4\n        /* \"#utility.yul\":18407:18424   */\n      add\n        /* \"#utility.yul\":18398:18404   */\n      dup5\n        /* \"#utility.yul\":18354:18425   */\n      tag_580\n      jump\t// in\n    tag_708:\n        /* \"#utility.yul\":18210:18432   */\n      swap3\n      swap2\n      pop\n      pop\n      jump\t// out\n        /* \"#utility.yul\":18438:19606   */\n    tag_67:\n        /* \"#utility.yul\":18814:18818   */\n      0x00\n        /* \"#utility.yul\":18852:18855   */\n      0x0100\n        /* \"#utility.yul\":18841:18850   */\n      dup3\n        /* \"#utility.yul\":18837:18856   */\n      add\n        /* \"#utility.yul\":18829:18856   */\n      swap1\n      pop\n        /* \"#utility.yul\":18866:18937   */\n      tag_710\n        /* \"#utility.yul\":18934:18935   */\n      0x00\n        /* \"#utility.yul\":18923:18932   */\n      dup4\n        /* \"#utility.yul\":18919:18936   */\n      add\n        /* \"#utility.yul\":18910:18916   */\n      dup11\n        /* \"#utility.yul\":18866:18937   */\n      tag_580\n      jump\t// in\n    tag_710:\n        /* \"#utility.yul\":18984:18993   */\n      dup2\n        /* \"#utility.yul\":18978:18982   */\n      dup2\n        /* \"#utility.yul\":18974:18994   */\n      sub\n        /* \"#utility.yul\":18969:18971   */\n      0x20\n        /* \"#utility.yul\":18958:18967   */\n      dup4\n        /* \"#utility.yul\":18954:18972   */\n      add\n        /* \"#utility.yul\":18947:18995   */\n      mstore\n        /* \"#utility.yul\":19012:19120   */\n      tag_711\n        /* \"#utility.yul\":19115:19119   */\n      dup2\n        /* \"#utility.yul\":19106:19112   */\n      dup10\n        /* \"#utility.yul\":19012:19120   */\n      tag_687\n      jump\t// in\n    tag_711:\n        /* \"#utility.yul\":19004:19120   */\n      swap1\n      pop\n        /* \"#utility.yul\":19130:19250   */\n      tag_712\n        /* \"#utility.yul\":19246:19248   */\n      0x40\n        /* \"#utility.yul\":19235:19244   */\n      dup4\n        /* \"#utility.yul\":19231:19249   */\n      add\n        /* \"#utility.yul\":19222:19228   */\n      dup9\n        /* \"#utility.yul\":19130:19250   */\n      tag_683\n      jump\t// in\n    tag_712:\n        /* \"#utility.yul\":19260:19333   */\n      tag_713\n        /* \"#utility.yul\":19328:19331   */\n      0x80\n        /* \"#utility.yul\":19317:19326   */\n      dup4\n        /* \"#utility.yul\":19313:19332   */\n      add\n        /* \"#utility.yul\":19304:19310   */\n      dup8\n        /* \"#utility.yul\":19260:19333   */\n      tag_702\n      jump\t// in\n    tag_713:\n        /* \"#utility.yul\":19343:19416   */\n      tag_714\n        /* \"#utility.yul\":19411:19414   */\n      0xa0\n        /* \"#utility.yul\":19400:19409   */\n      dup4\n        /* \"#utility.yul\":19396:19415   */\n      add\n        /* \"#utility.yul\":19387:19393   */\n      dup7\n        /* \"#utility.yul\":19343:19416   */\n      tag_702\n      jump\t// in\n    tag_714:\n        /* \"#utility.yul\":19426:19499   */\n      tag_715\n        /* \"#utility.yul\":19494:19497   */\n      0xc0\n        /* \"#utility.yul\":19483:19492   */\n      dup4\n        /* \"#utility.yul\":19479:19498   */\n      add\n        /* \"#utility.yul\":19470:19476   */\n      dup6\n        /* \"#utility.yul\":19426:19499   */\n      tag_702\n      jump\t// in\n    tag_715:\n        /* \"#utility.yul\":19509:19599   */\n      tag_716\n        /* \"#utility.yul\":19594:19597   */\n      0xe0\n        /* \"#utility.yul\":19583:19592   */\n      dup4\n        /* \"#utility.yul\":19579:19598   */\n      add\n        /* \"#utility.yul\":19570:19576   */\n      dup5\n        /* \"#utility.yul\":19509:19599   */\n      tag_605\n      jump\t// in\n    tag_716:\n        /* \"#utility.yul\":18438:19606   */\n      swap9\n      swap8\n      pop\n      pop\n      pop\n      pop\n      pop\n      pop\n      pop\n      pop\n      jump\t// out\n        /* \"#utility.yul\":19612:19822   */\n    tag_42:\n        /* \"#utility.yul\":19699:19703   */\n      0x00\n        /* \"#utility.yul\":19737:19739   */\n      0x20\n        /* \"#utility.yul\":19726:19735   */\n      dup3\n        /* \"#utility.yul\":19722:19740   */\n      add\n        /* \"#utility.yul\":19714:19740   */\n      swap1\n      pop\n        /* \"#utility.yul\":19750:19815   */\n      tag_718\n        /* \"#utility.yul\":19812:19813   */\n      0x00\n        /* \"#utility.yul\":19801:19810   */\n      dup4\n        /* \"#utility.yul\":19797:19814   */\n      add\n        /* \"#utility.yul\":19788:19794   */\n      dup5\n        /* \"#utility.yul\":19750:19815   */\n      tag_584\n      jump\t// in\n    tag_718:\n        /* \"#utility.yul\":19612:19822   */\n      swap3\n      swap2\n      pop\n      pop\n      jump\t// out\n        /* \"#utility.yul\":19828:20050   */\n    tag_140:\n        /* \"#utility.yul\":19921:19925   */\n      0x00\n        /* \"#utility.yul\":19959:19961   */\n      0x20\n        /* \"#utility.yul\":19948:19957   */\n      dup3\n        /* \"#utility.yul\":19944:19962   */\n      add\n        /* \"#utility.yul\":19936:19962   */\n      swap1\n      pop\n        /* \"#utility.yul\":19972:20043   */\n      tag_720\n        /* \"#utility.yul\":20040:20041   */\n      0x00\n        /* \"#utility.yul\":20029:20038   */\n      dup4\n        /* \"#utility.yul\":20025:20042   */\n      add\n        /* \"#utility.yul\":20016:20022   */\n      dup5\n        /* \"#utility.yul\":19972:20043   */\n      tag_592\n      jump\t// in\n    tag_720:\n        /* \"#utility.yul\":19828:20050   */\n      swap3\n      swap2\n      pop\n      pop\n      jump\t// out\n        /* \"#utility.yul\":20056:20475   */\n    tag_346:\n        /* \"#utility.yul\":20222:20226   */\n      0x00\n        /* \"#utility.yul\":20260:20262   */\n      0x20\n        /* \"#utility.yul\":20249:20258   */\n      dup3\n        /* \"#utility.yul\":20245:20263   */\n      add\n        /* \"#utility.yul\":20237:20263   */\n      swap1\n      pop\n        /* \"#utility.yul\":20309:20318   */\n      dup2\n        /* \"#utility.yul\":20303:20307   */\n      dup2\n        /* \"#utility.yul\":20299:20319   */\n      sub\n        /* \"#utility.yul\":20295:20296   */\n      0x00\n        /* \"#utility.yul\":20284:20293   */\n      dup4\n        /* \"#utility.yul\":20280:20297   */\n      add\n        /* \"#utility.yul\":20273:20320   */\n      mstore\n        /* \"#utility.yul\":20337:20468   */\n      tag_722\n        /* \"#utility.yul\":20463:20467   */\n      dup2\n        /* \"#utility.yul\":20337:20468   */\n      tag_623\n      jump\t// in\n    tag_722:\n        /* \"#utility.yul\":20329:20468   */\n      swap1\n      pop\n        /* \"#utility.yul\":20056:20475   */\n      swap2\n      swap1\n      pop\n      jump\t// out\n        /* \"#utility.yul\":20481:20900   */\n    tag_168:\n        /* \"#utility.yul\":20647:20651   */\n      0x00\n        /* \"#utility.yul\":20685:20687   */\n      0x20\n        /* \"#utility.yul\":20674:20683   */\n      dup3\n        /* \"#utility.yul\":20670:20688   */\n      add\n        /* \"#utility.yul\":20662:20688   */\n      swap1\n      pop\n        /* \"#utility.yul\":20734:20743   */\n      dup2\n        /* \"#utility.yul\":20728:20732   */\n      dup2\n        /* \"#utility.yul\":20724:20744   */\n      sub\n        /* \"#utility.yul\":20720:20721   */\n      0x00\n        /* \"#utility.yul\":20709:20718   */\n      dup4\n        /* \"#utility.yul\":20705:20722   */\n      add\n        /* \"#utility.yul\":20698:20745   */\n      mstore\n        /* \"#utility.yul\":20762:20893   */\n      tag_724\n        /* \"#utility.yul\":20888:20892   */\n      dup2\n        /* \"#utility.yul\":20762:20893   */\n      tag_629\n      jump\t// in\n    tag_724:\n        /* \"#utility.yul\":20754:20893   */\n      swap1\n      pop\n        /* \"#utility.yul\":20481:20900   */\n      swap2\n      swap1\n      pop\n      jump\t// out\n        /* \"#utility.yul\":20906:21325   */\n    tag_272:\n        /* \"#utility.yul\":21072:21076   */\n      0x00\n        /* \"#utility.yul\":21110:21112   */\n      0x20\n        /* \"#utility.yul\":21099:21108   */\n      dup3\n        /* \"#utility.yul\":21095:21113   */\n      add\n        /* \"#utility.yul\":21087:21113   */\n      swap1\n      pop\n        /* \"#utility.yul\":21159:21168   */\n      dup2\n        /* \"#utility.yul\":21153:21157   */\n      dup2\n        /* \"#utility.yul\":21149:21169   */\n      sub\n        /* \"#utility.yul\":21145:21146   */\n      0x00\n        /* \"#utility.yul\":21134:21143   */\n      dup4\n        /* \"#utility.yul\":21130:21147   */\n      add\n        /* \"#utility.yul\":21123:21170   */\n      mstore\n        /* \"#utility.yul\":21187:21318   */\n      tag_726\n        /* \"#utility.yul\":21313:21317   */\n      dup2\n        /* \"#utility.yul\":21187:21318   */\n      tag_634\n      jump\t// in\n    tag_726:\n        /* \"#utility.yul\":21179:21318   */\n      swap1\n      pop\n        /* \"#utility.yul\":20906:21325   */\n      swap2\n      swap1\n      pop\n      jump\t// out\n        /* \"#utility.yul\":21331:21750   */\n    tag_162:\n        /* \"#utility.yul\":21497:21501   */\n      0x00\n        /* \"#utility.yul\":21535:21537   */\n      0x20\n        /* \"#utility.yul\":21524:21533   */\n      dup3\n        /* \"#utility.yul\":21520:21538   */\n      add\n        /* \"#utility.yul\":21512:21538   */\n      swap1\n      pop\n        /* \"#utility.yul\":21584:21593   */\n      dup2\n        /* \"#utility.yul\":21578:21582   */\n      dup2\n        /* \"#utility.yul\":21574:21594   */\n      sub\n        /* \"#utility.yul\":21570:21571   */\n      0x00\n        /* \"#utility.yul\":21559:21568   */\n      dup4\n        /* \"#utility.yul\":21555:21572   */\n      add\n        /* \"#utility.yul\":21548:21595   */\n      mstore\n        /* \"#utility.yul\":21612:21743   */\n      tag_728\n        /* \"#utility.yul\":21738:21742   */\n      dup2\n        /* \"#utility.yul\":21612:21743   */\n      tag_639\n      jump\t// in\n    tag_728:\n        /* \"#utility.yul\":21604:21743   */\n      swap1\n      pop\n        /* \"#utility.yul\":21331:21750   */\n      swap2\n      swap1\n      pop\n      jump\t// out\n        /* \"#utility.yul\":21756:22175   */\n    tag_326:\n        /* \"#utility.yul\":21922:21926   */\n      0x00\n        /* \"#utility.yul\":21960:21962   */\n      0x20\n        /* \"#utility.yul\":21949:21958   */\n      dup3\n        /* \"#utility.yul\":21945:21963   */\n      add\n        /* \"#utility.yul\":21937:21963   */\n      swap1\n      pop\n        /* \"#utility.yul\":22009:22018   */\n      dup2\n        /* \"#utility.yul\":22003:22007   */\n      dup2\n        /* \"#utility.yul\":21999:22019   */\n      sub\n        /* \"#utility.yul\":21995:21996   */\n      0x00\n        /* \"#utility.yul\":21984:21993   */\n      dup4\n        /* \"#utility.yul\":21980:21997   */\n      add\n        /* \"#utility.yul\":21973:22020   */\n      mstore\n        /* \"#utility.yul\":22037:22168   */\n      tag_730\n        /* \"#utility.yul\":22163:22167   */\n      dup2\n        /* \"#utility.yul\":22037:22168   */\n      tag_644\n      jump\t// in\n    tag_730:\n        /* \"#utility.yul\":22029:22168   */\n      swap1\n      pop\n        /* \"#utility.yul\":21756:22175   */\n      swap2\n      swap1\n      pop\n      jump\t// out\n        /* \"#utility.yul\":22181:22600   */\n    tag_209:\n        /* \"#utility.yul\":22347:22351   */\n      0x00\n        /* \"#utility.yul\":22385:22387   */\n      0x20\n        /* \"#utility.yul\":22374:22383   */\n      dup3\n        /* \"#utility.yul\":22370:22388   */\n      add\n        /* \"#utility.yul\":22362:22388   */\n      swap1\n      pop\n        /* \"#utility.yul\":22434:22443   */\n      dup2\n        /* \"#utility.yul\":22428:22432   */\n      dup2\n        /* \"#utility.yul\":22424:22444   */\n      sub\n        /* \"#utility.yul\":22420:22421   */\n      0x00\n        /* \"#utility.yul\":22409:22418   */\n      dup4\n        /* \"#utility.yul\":22405:22422   */\n      add\n        /* \"#utility.yul\":22398:22445   */\n      mstore\n        /* \"#utility.yul\":22462:22593   */\n      tag_732\n        /* \"#utility.yul\":22588:22592   */\n      dup2\n        /* \"#utility.yul\":22462:22593   */\n      tag_649\n      jump\t// in\n    tag_732:\n        /* \"#utility.yul\":22454:22593   */\n      swap1\n      pop\n        /* \"#utility.yul\":22181:22600   */\n      swap2\n      swap1\n      pop\n      jump\t// out\n        /* \"#utility.yul\":22606:23025   */\n    tag_213:\n        /* \"#utility.yul\":22772:22776   */\n      0x00\n        /* \"#utility.yul\":22810:22812   */\n      0x20\n        /* \"#utility.yul\":22799:22808   */\n      dup3\n        /* \"#utility.yul\":22795:22813   */\n      add\n        /* \"#utility.yul\":22787:22813   */\n      swap1\n      pop\n        /* \"#utility.yul\":22859:22868   */\n      dup2\n        /* \"#utility.yul\":22853:22857   */\n      dup2\n        /* \"#utility.yul\":22849:22869   */\n      sub\n        /* \"#utility.yul\":22845:22846   */\n      0x00\n        /* \"#utility.yul\":22834:22843   */\n      dup4\n        /* \"#utility.yul\":22830:22847   */\n      add\n        /* \"#utility.yul\":22823:22870   */\n      mstore\n        /* \"#utility.yul\":22887:23018   */\n      tag_734\n        /* \"#utility.yul\":23013:23017   */\n      dup2\n        /* \"#utility.yul\":22887:23018   */\n      tag_654\n      jump\t// in\n    tag_734:\n        /* \"#utility.yul\":22879:23018   */\n      swap1\n      pop\n        /* \"#utility.yul\":22606:23025   */\n      swap2\n      swap1\n      pop\n      jump\t// out\n        /* \"#utility.yul\":23031:23450   */\n    tag_201:\n        /* \"#utility.yul\":23197:23201   */\n      0x00\n        /* \"#utility.yul\":23235:23237   */\n      0x20\n        /* \"#utility.yul\":23224:23233   */\n      dup3\n        /* \"#utility.yul\":23220:23238   */\n      add\n        /* \"#utility.yul\":23212:23238   */\n      swap1\n      pop\n        /* \"#utility.yul\":23284:23293   */\n      dup2\n        /* \"#utility.yul\":23278:23282   */\n      dup2\n        /* \"#utility.yul\":23274:23294   */\n      sub\n        /* \"#utility.yul\":23270:23271   */\n      0x00\n        /* \"#utility.yul\":23259:23268   */\n      dup4\n        /* \"#utility.yul\":23255:23272   */\n      add\n        /* \"#utility.yul\":23248:23295   */\n      mstore\n        /* \"#utility.yul\":23312:23443   */\n      tag_736\n        /* \"#utility.yul\":23438:23442   */\n      dup2\n        /* \"#utility.yul\":23312:23443   */\n      tag_665\n      jump\t// in\n    tag_736:\n        /* \"#utility.yul\":23304:23443   */\n      swap1\n      pop\n        /* \"#utility.yul\":23031:23450   */\n      swap2\n      swap1\n      pop\n      jump\t// out\n        /* \"#utility.yul\":23456:23875   */\n    tag_257:\n        /* \"#utility.yul\":23622:23626   */\n      0x00\n        /* \"#utility.yul\":23660:23662   */\n      0x20\n        /* \"#utility.yul\":23649:23658   */\n      dup3\n        /* \"#utility.yul\":23645:23663   */\n      add\n        /* \"#utility.yul\":23637:23663   */\n      swap1\n      pop\n        /* \"#utility.yul\":23709:23718   */\n      dup2\n        /* \"#utility.yul\":23703:23707   */\n      dup2\n        /* \"#utility.yul\":23699:23719   */\n      sub\n        /* \"#utility.yul\":23695:23696   */\n      0x00\n        /* \"#utility.yul\":23684:23693   */\n      dup4\n        /* \"#utility.yul\":23680:23697   */\n      add\n        /* \"#utility.yul\":23673:23720   */\n      mstore\n        /* \"#utility.yul\":23737:23868   */\n      tag_738\n        /* \"#utility.yul\":23863:23867   */\n      dup2\n        /* \"#utility.yul\":23737:23868   */\n      tag_670\n      jump\t// in\n    tag_738:\n        /* \"#utility.yul\":23729:23868   */\n      swap1\n      pop\n        /* \"#utility.yul\":23456:23875   */\n      swap2\n      swap1\n      pop\n      jump\t// out\n        /* \"#utility.yul\":23881:24103   */\n    tag_95:\n        /* \"#utility.yul\":23974:23978   */\n      0x00\n        /* \"#utility.yul\":24012:24014   */\n      0x20\n        /* \"#utility.yul\":24001:24010   */\n      dup3\n        /* \"#utility.yul\":23997:24015   */\n      add\n        /* \"#utility.yul\":23989:24015   */\n      swap1\n      pop\n        /* \"#utility.yul\":24025:24096   */\n      tag_740\n        /* \"#utility.yul\":24093:24094   */\n      0x00\n        /* \"#utility.yul\":24082:24091   */\n      dup4\n        /* \"#utility.yul\":24078:24095   */\n      add\n        /* \"#utility.yul\":24069:24075   */\n      dup5\n        /* \"#utility.yul\":24025:24096   */\n      tag_702\n      jump\t// in\n    tag_740:\n        /* \"#utility.yul\":23881:24103   */\n      swap3\n      swap2\n      pop\n      pop\n      jump\t// out\n        /* \"#utility.yul\":24109:25440   */\n    tag_73:\n        /* \"#utility.yul\":24512:24516   */\n      0x00\n        /* \"#utility.yul\":24550:24553   */\n      0x0120\n        /* \"#utility.yul\":24539:24548   */\n      dup3\n        /* \"#utility.yul\":24535:24554   */\n      add\n        /* \"#utility.yul\":24527:24554   */\n      swap1\n      pop\n        /* \"#utility.yul\":24564:24635   */\n      tag_742\n        /* \"#utility.yul\":24632:24633   */\n      0x00\n        /* \"#utility.yul\":24621:24630   */\n      dup4\n        /* \"#utility.yul\":24617:24634   */\n      add\n        /* \"#utility.yul\":24608:24614   */\n      dup13\n        /* \"#utility.yul\":24564:24635   */\n      tag_702\n      jump\t// in\n    tag_742:\n        /* \"#utility.yul\":24645:24717   */\n      tag_743\n        /* \"#utility.yul\":24713:24715   */\n      0x20\n        /* \"#utility.yul\":24702:24711   */\n      dup4\n        /* \"#utility.yul\":24698:24716   */\n      add\n        /* \"#utility.yul\":24689:24695   */\n      dup12\n        /* \"#utility.yul\":24645:24717   */\n      tag_592\n      jump\t// in\n    tag_743:\n        /* \"#utility.yul\":24727:24799   */\n      tag_744\n        /* \"#utility.yul\":24795:24797   */\n      0x40\n        /* \"#utility.yul\":24784:24793   */\n      dup4\n        /* \"#utility.yul\":24780:24798   */\n      add\n        /* \"#utility.yul\":24771:24777   */\n      dup11\n        /* \"#utility.yul\":24727:24799   */\n      tag_592\n      jump\t// in\n    tag_744:\n        /* \"#utility.yul\":24809:24895   */\n      tag_745\n        /* \"#utility.yul\":24891:24893   */\n      0x60\n        /* \"#utility.yul\":24880:24889   */\n      dup4\n        /* \"#utility.yul\":24876:24894   */\n      add\n        /* \"#utility.yul\":24867:24873   */\n      dup10\n        /* \"#utility.yul\":24809:24895   */\n      tag_620\n      jump\t// in\n    tag_745:\n        /* \"#utility.yul\":24943:24952   */\n      dup2\n        /* \"#utility.yul\":24937:24941   */\n      dup2\n        /* \"#utility.yul\":24933:24953   */\n      sub\n        /* \"#utility.yul\":24927:24930   */\n      0x80\n        /* \"#utility.yul\":24916:24925   */\n      dup4\n        /* \"#utility.yul\":24912:24931   */\n      add\n        /* \"#utility.yul\":24905:24954   */\n      mstore\n        /* \"#utility.yul\":24971:25085   */\n      tag_746\n        /* \"#utility.yul\":25080:25084   */\n      dup2\n        /* \"#utility.yul\":25071:25077   */\n      dup9\n        /* \"#utility.yul\":24971:25085   */\n      tag_679\n      jump\t// in\n    tag_746:\n        /* \"#utility.yul\":24963:25085   */\n      swap1\n      pop\n        /* \"#utility.yul\":25095:25168   */\n      tag_747\n        /* \"#utility.yul\":25163:25166   */\n      0xa0\n        /* \"#utility.yul\":25152:25161   */\n      dup4\n        /* \"#utility.yul\":25148:25167   */\n      add\n        /* \"#utility.yul\":25139:25145   */\n      dup8\n        /* \"#utility.yul\":25095:25168   */\n      tag_702\n      jump\t// in\n    tag_747:\n        /* \"#utility.yul\":25178:25251   */\n      tag_748\n        /* \"#utility.yul\":25246:25249   */\n      0xc0\n        /* \"#utility.yul\":25235:25244   */\n      dup4\n        /* \"#utility.yul\":25231:25250   */\n      add\n        /* \"#utility.yul\":25222:25228   */\n      dup7\n        /* \"#utility.yul\":25178:25251   */\n      tag_592\n      jump\t// in\n    tag_748:\n        /* \"#utility.yul\":25261:25334   */\n      tag_749\n        /* \"#utility.yul\":25329:25332   */\n      0xe0\n        /* \"#utility.yul\":25318:25327   */\n      dup4\n        /* \"#utility.yul\":25314:25333   */\n      add\n        /* \"#utility.yul\":25305:25311   */\n      dup6\n        /* \"#utility.yul\":25261:25334   */\n      tag_702\n      jump\t// in\n    tag_749:\n        /* \"#utility.yul\":25344:25433   */\n      tag_750\n        /* \"#utility.yul\":25428:25431   */\n      0x0100\n        /* \"#utility.yul\":25417:25426   */\n      dup4\n        /* \"#utility.yul\":25413:25432   */\n      add\n        /* \"#utility.yul\":25404:25410   */\n      dup5\n        /* \"#utility.yul\":25344:25433   */\n      tag_613\n      jump\t// in\n    tag_750:\n        /* \"#utility.yul\":24109:25440   */\n      swap11\n      swap10\n      pop\n      pop\n      pop\n      pop\n      pop\n      pop\n      pop\n      pop\n      pop\n      pop\n      jump\t// out\n        /* \"#utility.yul\":25446:25575   */\n    tag_479:\n        /* \"#utility.yul\":25480:25486   */\n      0x00\n        /* \"#utility.yul\":25507:25527   */\n      tag_752\n      tag_753\n      jump\t// in\n    tag_752:\n        /* \"#utility.yul\":25497:25527   */\n      swap1\n      pop\n        /* \"#utility.yul\":25536:25569   */\n      tag_754\n        /* \"#utility.yul\":25564:25568   */\n      dup3\n        /* \"#utility.yul\":25556:25562   */\n      dup3\n        /* \"#utility.yul\":25536:25569   */\n      tag_755\n      jump\t// in\n    tag_754:\n        /* \"#utility.yul\":25446:25575   */\n      swap2\n      swap1\n      pop\n      jump\t// out\n        /* \"#utility.yul\":25581:25656   */\n    tag_753:\n        /* \"#utility.yul\":25614:25620   */\n      0x00\n        /* \"#utility.yul\":25647:25649   */\n      0x40\n        /* \"#utility.yul\":25641:25650   */\n      mload\n        /* \"#utility.yul\":25631:25650   */\n      swap1\n      pop\n        /* \"#utility.yul\":25581:25656   */\n      swap1\n      jump\t// out\n        /* \"#utility.yul\":25662:25969   */\n    tag_478:\n        /* \"#utility.yul\":25723:25727   */\n      0x00\n        /* \"#utility.yul\":25813:25831   */\n      0xffffffffffffffff\n        /* \"#utility.yul\":25805:25811   */\n      dup3\n        /* \"#utility.yul\":25802:25832   */\n      gt\n        /* \"#utility.yul\":25799:25855   */\n      iszero\n      tag_758\n      jumpi\n        /* \"#utility.yul\":25835:25853   */\n      tag_759\n      tag_760\n      jump\t// in\n    tag_759:\n        /* \"#utility.yul\":25799:25855   */\n    tag_758:\n        /* \"#utility.yul\":25873:25902   */\n      tag_761\n        /* \"#utility.yul\":25895:25901   */\n      dup3\n        /* \"#utility.yul\":25873:25902   */\n      tag_604\n      jump\t// in\n    tag_761:\n        /* \"#utility.yul\":25865:25902   */\n      swap1\n      pop\n        /* \"#utility.yul\":25957:25961   */\n      0x20\n        /* \"#utility.yul\":25951:25955   */\n      dup2\n        /* \"#utility.yul\":25947:25962   */\n      add\n        /* \"#utility.yul\":25939:25962   */\n      swap1\n      pop\n        /* \"#utility.yul\":25662:25969   */\n      swap2\n      swap1\n      pop\n      jump\t// out\n        /* \"#utility.yul\":25975:26073   */\n    tag_598:\n        /* \"#utility.yul\":26026:26032   */\n      0x00\n        /* \"#utility.yul\":26060:26065   */\n      dup2\n        /* \"#utility.yul\":26054:26066   */\n      mload\n        /* \"#utility.yul\":26044:26066   */\n      swap1\n      pop\n        /* \"#utility.yul\":25975:26073   */\n      swap2\n      swap1\n      pop\n      jump\t// out\n        /* \"#utility.yul\":26079:26237   */\n    tag_600:\n        /* \"#utility.yul\":26152:26163   */\n      0x00\n        /* \"#utility.yul\":26186:26192   */\n      dup3\n        /* \"#utility.yul\":26181:26184   */\n      dup3\n        /* \"#utility.yul\":26174:26193   */\n      mstore\n        /* \"#utility.yul\":26226:26230   */\n      0x20\n        /* \"#utility.yul\":26221:26224   */\n      dup3\n        /* \"#utility.yul\":26217:26231   */\n      add\n        /* \"#utility.yul\":26202:26231   */\n      swap1\n      pop\n        /* \"#utility.yul\":26079:26237   */\n      swap3\n      swap2\n      pop\n      pop\n      jump\t// out\n        /* \"#utility.yul\":26243:26390   */\n    tag_662:\n        /* \"#utility.yul\":26344:26355   */\n      0x00\n        /* \"#utility.yul\":26381:26384   */\n      dup2\n        /* \"#utility.yul\":26366:26384   */\n      swap1\n      pop\n        /* \"#utility.yul\":26243:26390   */\n      swap3\n      swap2\n      pop\n      pop\n      jump\t// out\n        /* \"#utility.yul\":26396:26565   */\n    tag_626:\n        /* \"#utility.yul\":26480:26491   */\n      0x00\n        /* \"#utility.yul\":26514:26520   */\n      dup3\n        /* \"#utility.yul\":26509:26512   */\n      dup3\n        /* \"#utility.yul\":26502:26521   */\n      mstore\n        /* \"#utility.yul\":26554:26558   */\n      0x20\n        /* \"#utility.yul\":26549:26552   */\n      dup3\n        /* \"#utility.yul\":26545:26559   */\n      add\n        /* \"#utility.yul\":26530:26559   */\n      swap1\n      pop\n        /* \"#utility.yul\":26396:26565   */\n      swap3\n      swap2\n      pop\n      pop\n      jump\t// out\n        /* \"#utility.yul\":26571:26876   */\n    tag_165:\n        /* \"#utility.yul\":26611:26614   */\n      0x00\n        /* \"#utility.yul\":26630:26650   */\n      tag_767\n        /* \"#utility.yul\":26648:26649   */\n      dup3\n        /* \"#utility.yul\":26630:26650   */\n      tag_701\n      jump\t// in\n    tag_767:\n        /* \"#utility.yul\":26625:26650   */\n      swap2\n      pop\n        /* \"#utility.yul\":26664:26684   */\n      tag_768\n        /* \"#utility.yul\":26682:26683   */\n      dup4\n        /* \"#utility.yul\":26664:26684   */\n      tag_701\n      jump\t// in\n    tag_768:\n        /* \"#utility.yul\":26659:26684   */\n      swap3\n      pop\n        /* \"#utility.yul\":26818:26819   */\n      dup3\n        /* \"#utility.yul\":26750:26816   */\n      0xffffffffffffffffffffffffffffffffffffffffffffffffffffffffffffffff\n        /* \"#utility.yul\":26746:26820   */\n      sub\n        /* \"#utility.yul\":26743:26744   */\n      dup3\n        /* \"#utility.yul\":26740:26821   */\n      gt\n        /* \"#utility.yul\":26737:26844   */\n      iszero\n      tag_769\n      jumpi\n        /* \"#utility.yul\":26824:26842   */\n      tag_770\n      tag_771\n      jump\t// in\n    tag_770:\n        /* \"#utility.yul\":26737:26844   */\n    tag_769:\n        /* \"#utility.yul\":26868:26869   */\n      dup3\n        /* \"#utility.yul\":26865:26866   */\n      dup3\n        /* \"#utility.yul\":26861:26870   */\n      add\n        /* \"#utility.yul\":26854:26870   */\n      swap1\n      pop\n        /* \"#utility.yul\":26571:26876   */\n      swap3\n      swap2\n      pop\n      pop\n      jump\t// out\n        /* \"#utility.yul\":26882:27230   */\n    tag_350:\n        /* \"#utility.yul\":26922:26929   */\n      0x00\n        /* \"#utility.yul\":26945:26965   */\n      tag_773\n        /* \"#utility.yul\":26963:26964   */\n      dup3\n        /* \"#utility.yul\":26945:26965   */\n      tag_701\n      jump\t// in\n    tag_773:\n        /* \"#utility.yul\":26940:26965   */\n      swap2\n      pop\n        /* \"#utility.yul\":26979:26999   */\n      tag_774\n        /* \"#utility.yul\":26997:26998   */\n      dup4\n        /* \"#utility.yul\":26979:26999   */\n      tag_701\n      jump\t// in\n    tag_774:\n        /* \"#utility.yul\":26974:26999   */\n      swap3\n      pop\n        /* \"#utility.yul\":27167:27168   */\n      dup2\n        /* \"#utility.yul\":27099:27165   */\n      0xffffffffffffffffffffffffffffffffffffffffffffffffffffffffffffffff\n        /* \"#utility.yul\":27095:27169   */\n      div\n        /* \"#utility.yul\":27092:27093   */\n      dup4\n        /* \"#utility.yul\":27089:27170   */\n      gt\n        /* \"#utility.yul\":27084:27085   */\n      dup3\n        /* \"#utility.yul\":27077:27086   */\n      iszero\n        /* \"#utility.yul\":27070:27087   */\n      iszero\n        /* \"#utility.yul\":27066:27171   */\n      and\n        /* \"#utility.yul\":27063:27194   */\n      iszero\n      tag_775\n      jumpi\n        /* \"#utility.yul\":27174:27192   */\n      tag_776\n      tag_771\n      jump\t// in\n    tag_776:\n        /* \"#utility.yul\":27063:27194   */\n    tag_775:\n        /* \"#utility.yul\":27222:27223   */\n      dup3\n        /* \"#utility.yul\":27219:27220   */\n      dup3\n        /* \"#utility.yul\":27215:27224   */\n      mul\n        /* \"#utility.yul\":27204:27224   */\n      swap1\n      pop\n        /* \"#utility.yul\":26882:27230   */\n      swap3\n      swap2\n      pop\n      pop\n      jump\t// out\n        /* \"#utility.yul\":27236:27427   */\n    tag_444:\n        /* \"#utility.yul\":27276:27280   */\n      0x00\n        /* \"#utility.yul\":27296:27316   */\n      tag_778\n        /* \"#utility.yul\":27314:27315   */\n      dup3\n        /* \"#utility.yul\":27296:27316   */\n      tag_701\n      jump\t// in\n    tag_778:\n        /* \"#utility.yul\":27291:27316   */\n      swap2\n      pop\n        /* \"#utility.yul\":27330:27350   */\n      tag_779\n        /* \"#utility.yul\":27348:27349   */\n      dup4\n        /* \"#utility.yul\":27330:27350   */\n      tag_701\n      jump\t// in\n    tag_779:\n        /* \"#utility.yul\":27325:27350   */\n      swap3\n      pop\n        /* \"#utility.yul\":27369:27370   */\n      dup3\n        /* \"#utility.yul\":27366:27367   */\n      dup3\n        /* \"#utility.yul\":27363:27371   */\n      lt\n        /* \"#utility.yul\":27360:27394   */\n      iszero\n      tag_780\n      jumpi\n        /* \"#utility.yul\":27374:27392   */\n      tag_781\n      tag_771\n      jump\t// in\n    tag_781:\n        /* \"#utility.yul\":27360:27394   */\n    tag_780:\n        /* \"#utility.yul\":27419:27420   */\n      dup3\n        /* \"#utility.yul\":27416:27417   */\n      dup3\n        /* \"#utility.yul\":27412:27421   */\n      sub\n        /* \"#utility.yul\":27404:27421   */\n      swap1\n      pop\n        /* \"#utility.yul\":27236:27427   */\n      swap3\n      swap2\n      pop\n      pop\n      jump\t// out\n        /* \"#utility.yul\":27433:27529   */\n    tag_583:\n        /* \"#utility.yul\":27470:27477   */\n      0x00\n        /* \"#utility.yul\":27499:27523   */\n      tag_783\n        /* \"#utility.yul\":27517:27522   */\n      dup3\n        /* \"#utility.yul\":27499:27523   */\n      tag_784\n      jump\t// in\n    tag_783:\n        /* \"#utility.yul\":27488:27523   */\n      swap1\n      pop\n        /* \"#utility.yul\":27433:27529   */\n      swap2\n      swap1\n      pop\n      jump\t// out\n        /* \"#utility.yul\":27535:27625   */\n    tag_587:\n        /* \"#utility.yul\":27569:27576   */\n      0x00\n        /* \"#utility.yul\":27612:27617   */\n      dup2\n        /* \"#utility.yul\":27605:27618   */\n      iszero\n        /* \"#utility.yul\":27598:27619   */\n      iszero\n        /* \"#utility.yul\":27587:27619   */\n      swap1\n      pop\n        /* \"#utility.yul\":27535:27625   */\n      swap2\n      swap1\n      pop\n      jump\t// out\n        /* \"#utility.yul\":27631:27708   */\n    tag_591:\n        /* \"#utility.yul\":27668:27675   */\n      0x00\n        /* \"#utility.yul\":27697:27702   */\n      dup2\n        /* \"#utility.yul\":27686:27702   */\n      swap1\n      pop\n        /* \"#utility.yul\":27631:27708   */\n      swap2\n      swap1\n      pop\n      jump\t// out\n        /* \"#utility.yul\":27714:27863   */\n    tag_787:\n        /* \"#utility.yul\":27770:27777   */\n      0x00\n        /* \"#utility.yul\":27799:27804   */\n      dup2\n        /* \"#utility.yul\":27788:27804   */\n      swap1\n      pop\n        /* \"#utility.yul\":27805:27857   */\n      tag_789\n        /* \"#utility.yul\":27851:27856   */\n      dup3\n        /* \"#utility.yul\":27805:27857   */\n      tag_790\n      jump\t// in\n    tag_789:\n        /* \"#utility.yul\":27714:27863   */\n      swap2\n      swap1\n      pop\n      jump\t// out\n        /* \"#utility.yul\":27869:28016   */\n    tag_791:\n        /* \"#utility.yul\":27924:27931   */\n      0x00\n        /* \"#utility.yul\":27953:27958   */\n      dup2\n        /* \"#utility.yul\":27942:27958   */\n      swap1\n      pop\n        /* \"#utility.yul\":27959:28010   */\n      tag_793\n        /* \"#utility.yul\":28004:28009   */\n      dup3\n        /* \"#utility.yul\":27959:28010   */\n      tag_794\n      jump\t// in\n    tag_793:\n        /* \"#utility.yul\":27869:28016   */\n      swap2\n      swap1\n      pop\n      jump\t// out\n        /* \"#utility.yul\":28022:28165   */\n    tag_795:\n        /* \"#utility.yul\":28075:28082   */\n      0x00\n        /* \"#utility.yul\":28104:28109   */\n      dup2\n        /* \"#utility.yul\":28093:28109   */\n      swap1\n      pop\n        /* \"#utility.yul\":28110:28159   */\n      tag_797\n        /* \"#utility.yul\":28153:28158   */\n      dup3\n        /* \"#utility.yul\":28110:28159   */\n      tag_798\n      jump\t// in\n    tag_797:\n        /* \"#utility.yul\":28022:28165   */\n      swap2\n      swap1\n      pop\n      jump\t// out\n        /* \"#utility.yul\":28171:28297   */\n    tag_784:\n        /* \"#utility.yul\":28208:28215   */\n      0x00\n        /* \"#utility.yul\":28248:28290   */\n      0xffffffffffffffffffffffffffffffffffffffff\n        /* \"#utility.yul\":28241:28246   */\n      dup3\n        /* \"#utility.yul\":28237:28291   */\n      and\n        /* \"#utility.yul\":28226:28291   */\n      swap1\n      pop\n        /* \"#utility.yul\":28171:28297   */\n      swap2\n      swap1\n      pop\n      jump\t// out\n        /* \"#utility.yul\":28303:28380   */\n    tag_701:\n        /* \"#utility.yul\":28340:28347   */\n      0x00\n        /* \"#utility.yul\":28369:28374   */\n      dup2\n        /* \"#utility.yul\":28358:28374   */\n      swap1\n      pop\n        /* \"#utility.yul\":28303:28380   */\n      swap2\n      swap1\n      pop\n      jump\t// out\n        /* \"#utility.yul\":28386:28535   */\n    tag_608:\n        /* \"#utility.yul\":28453:28462   */\n      0x00\n        /* \"#utility.yul\":28486:28529   */\n      tag_802\n        /* \"#utility.yul\":28523:28528   */\n      dup3\n        /* \"#utility.yul\":28486:28529   */\n      tag_787\n      jump\t// in\n    tag_802:\n        /* \"#utility.yul\":28473:28529   */\n      swap1\n      pop\n        /* \"#utility.yul\":28386:28535   */\n      swap2\n      swap1\n      pop\n      jump\t// out\n        /* \"#utility.yul\":28541:28688   */\n    tag_612:\n        /* \"#utility.yul\":28607:28616   */\n      0x00\n        /* \"#utility.yul\":28640:28682   */\n      tag_804\n        /* \"#utility.yul\":28676:28681   */\n      dup3\n        /* \"#utility.yul\":28640:28682   */\n      tag_791\n      jump\t// in\n    tag_804:\n        /* \"#utility.yul\":28627:28682   */\n      swap1\n      pop\n        /* \"#utility.yul\":28541:28688   */\n      swap2\n      swap1\n      pop\n      jump\t// out\n        /* \"#utility.yul\":28694:28837   */\n    tag_619:\n        /* \"#utility.yul\":28758:28767   */\n      0x00\n        /* \"#utility.yul\":28791:28831   */\n      tag_806\n        /* \"#utility.yul\":28825:28830   */\n      dup3\n        /* \"#utility.yul\":28791:28831   */\n      tag_795\n      jump\t// in\n    tag_806:\n        /* \"#utility.yul\":28778:28831   */\n      swap1\n      pop\n        /* \"#utility.yul\":28694:28837   */\n      swap2\n      swap1\n      pop\n      jump\t// out\n        /* \"#utility.yul\":28843:28997   */\n    tag_484:\n        /* \"#utility.yul\":28927:28933   */\n      dup3\n        /* \"#utility.yul\":28922:28925   */\n      dup2\n        /* \"#utility.yul\":28917:28920   */\n      dup4\n        /* \"#utility.yul\":28904:28934   */\n      calldatacopy\n        /* \"#utility.yul\":28989:28990   */\n      0x00\n        /* \"#utility.yul\":28980:28986   */\n      dup4\n        /* \"#utility.yul\":28975:28978   */\n      dup4\n        /* \"#utility.yul\":28971:28987   */\n      add\n        /* \"#utility.yul\":28964:28991   */\n      mstore\n        /* \"#utility.yul\":28843:28997   */\n      pop\n      pop\n      pop\n      jump\t// out\n        /* \"#utility.yul\":29003:29310   */\n    tag_602:\n        /* \"#utility.yul\":29071:29072   */\n      0x00\n        /* \"#utility.yul\":29081:29194   */\n    tag_809:\n        /* \"#utility.yul\":29095:29101   */\n      dup4\n        /* \"#utility.yul\":29092:29093   */\n      dup2\n        /* \"#utility.yul\":29089:29102   */\n      lt\n        /* \"#utility.yul\":29081:29194   */\n      iszero\n      tag_811\n      jumpi\n        /* \"#utility.yul\":29180:29181   */\n      dup1\n        /* \"#utility.yul\":29175:29178   */\n      dup3\n        /* \"#utility.yul\":29171:29182   */\n      add\n        /* \"#utility.yul\":29165:29183   */\n      mload\n        /* \"#utility.yul\":29161:29162   */\n      dup2\n        /* \"#utility.yul\":29156:29159   */\n      dup5\n        /* \"#utility.yul\":29152:29163   */\n      add\n        /* \"#utility.yul\":29145:29184   */\n      mstore\n        /* \"#utility.yul\":29117:29119   */\n      0x20\n        /* \"#utility.yul\":29114:29115   */\n      dup2\n        /* \"#utility.yul\":29110:29120   */\n      add\n        /* \"#utility.yul\":29105:29120   */\n      swap1\n      pop\n        /* \"#utility.yul\":29081:29194   */\n      jump(tag_809)\n    tag_811:\n        /* \"#utility.yul\":29212:29218   */\n      dup4\n        /* \"#utility.yul\":29209:29210   */\n      dup2\n        /* \"#utility.yul\":29206:29219   */\n      gt\n        /* \"#utility.yul\":29203:29304   */\n      iszero\n      tag_812\n      jumpi\n        /* \"#utility.yul\":29292:29293   */\n      0x00\n        /* \"#utility.yul\":29283:29289   */\n      dup5\n        /* \"#utility.yul\":29278:29281   */\n      dup5\n        /* \"#utility.yul\":29274:29290   */\n      add\n        /* \"#utility.yul\":29267:29294   */\n      mstore\n        /* \"#utility.yul\":29203:29304   */\n    tag_812:\n        /* \"#utility.yul\":29052:29310   */\n      pop\n        /* \"#utility.yul\":29003:29310   */\n      pop\n      pop\n      pop\n      jump\t// out\n        /* \"#utility.yul\":29316:29636   */\n    tag_222:\n        /* \"#utility.yul\":29360:29366   */\n      0x00\n        /* \"#utility.yul\":29397:29398   */\n      0x02\n        /* \"#utility.yul\":29391:29395   */\n      dup3\n        /* \"#utility.yul\":29387:29399   */\n      div\n        /* \"#utility.yul\":29377:29399   */\n      swap1\n      pop\n        /* \"#utility.yul\":29444:29445   */\n      0x01\n        /* \"#utility.yul\":29438:29442   */\n      dup3\n        /* \"#utility.yul\":29434:29446   */\n      and\n        /* \"#utility.yul\":29465:29483   */\n      dup1\n        /* \"#utility.yul\":29455:29536   */\n      tag_814\n      jumpi\n        /* \"#utility.yul\":29521:29525   */\n      0x7f\n        /* \"#utility.yul\":29513:29519   */\n      dup3\n        /* \"#utility.yul\":29509:29526   */\n      and\n        /* \"#utility.yul\":29499:29526   */\n      swap2\n      pop\n        /* \"#utility.yul\":29455:29536   */\n    tag_814:\n        /* \"#utility.yul\":29583:29585   */\n      0x20\n        /* \"#utility.yul\":29575:29581   */\n      dup3\n        /* \"#utility.yul\":29572:29586   */\n      lt\n        /* \"#utility.yul\":29552:29570   */\n      dup2\n        /* \"#utility.yul\":29549:29587   */\n      eq\n        /* \"#utility.yul\":29546:29630   */\n      iszero\n      tag_815\n      jumpi\n        /* \"#utility.yul\":29602:29620   */\n      tag_816\n      tag_817\n      jump\t// in\n    tag_816:\n        /* \"#utility.yul\":29546:29630   */\n    tag_815:\n        /* \"#utility.yul\":29367:29636   */\n      pop\n        /* \"#utility.yul\":29316:29636   */\n      swap2\n      swap1\n      pop\n      jump\t// out\n        /* \"#utility.yul\":29642:29923   */\n    tag_755:\n        /* \"#utility.yul\":29725:29752   */\n      tag_819\n        /* \"#utility.yul\":29747:29751   */\n      dup3\n        /* \"#utility.yul\":29725:29752   */\n      tag_604\n      jump\t// in\n    tag_819:\n        /* \"#utility.yul\":29717:29723   */\n      dup2\n        /* \"#utility.yul\":29713:29753   */\n      add\n        /* \"#utility.yul\":29855:29861   */\n      dup2\n        /* \"#utility.yul\":29843:29853   */\n      dup2\n        /* \"#utility.yul\":29840:29862   */\n      lt\n        /* \"#utility.yul\":29819:29837   */\n      0xffffffffffffffff\n        /* \"#utility.yul\":29807:29817   */\n      dup3\n        /* \"#utility.yul\":29804:29838   */\n      gt\n        /* \"#utility.yul\":29801:29863   */\n      or\n        /* \"#utility.yul\":29798:29886   */\n      iszero\n      tag_820\n      jumpi\n        /* \"#utility.yul\":29866:29884   */\n      tag_821\n      tag_760\n      jump\t// in\n    tag_821:\n        /* \"#utility.yul\":29798:29886   */\n    tag_820:\n        /* \"#utility.yul\":29906:29916   */\n      dup1\n        /* \"#utility.yul\":29902:29904   */\n      0x40\n        /* \"#utility.yul\":29895:29917   */\n      mstore\n        /* \"#utility.yul\":29685:29923   */\n      pop\n        /* \"#utility.yul\":29642:29923   */\n      pop\n      pop\n      jump\t// out\n        /* \"#utility.yul\":29929:30162   */\n    tag_171:\n        /* \"#utility.yul\":29968:29971   */\n      0x00\n        /* \"#utility.yul\":29991:30015   */\n      tag_823\n        /* \"#utility.yul\":30009:30014   */\n      dup3\n        /* \"#utility.yul\":29991:30015   */\n      tag_701\n      jump\t// in\n    tag_823:\n        /* \"#utility.yul\":29982:30015   */\n      swap2\n      pop\n        /* \"#utility.yul\":30037:30103   */\n      0xffffffffffffffffffffffffffffffffffffffffffffffffffffffffffffffff\n        /* \"#utility.yul\":30030:30035   */\n      dup3\n        /* \"#utility.yul\":30027:30104   */\n      eq\n        /* \"#utility.yul\":30024:30127   */\n      iszero\n      tag_824\n      jumpi\n        /* \"#utility.yul\":30107:30125   */\n      tag_825\n      tag_771\n      jump\t// in\n    tag_825:\n        /* \"#utility.yul\":30024:30127   */\n    tag_824:\n        /* \"#utility.yul\":30154:30155   */\n      0x01\n        /* \"#utility.yul\":30147:30152   */\n      dup3\n        /* \"#utility.yul\":30143:30156   */\n      add\n        /* \"#utility.yul\":30136:30156   */\n      swap1\n      pop\n        /* \"#utility.yul\":29929:30162   */\n      swap2\n      swap1\n      pop\n      jump\t// out\n        /* \"#utility.yul\":30168:30348   */\n    tag_771:\n        /* \"#utility.yul\":30216:30293   */\n      0x4e487b7100000000000000000000000000000000000000000000000000000000\n        /* \"#utility.yul\":30213:30214   */\n      0x00\n        /* \"#utility.yul\":30206:30294   */\n      mstore\n        /* \"#utility.yul\":30313:30317   */\n      0x11\n        /* \"#utility.yul\":30310:30311   */\n      0x04\n        /* \"#utility.yul\":30303:30318   */\n      mstore\n        /* \"#utility.yul\":30337:30341   */\n      0x24\n        /* \"#utility.yul\":30334:30335   */\n      0x00\n        /* \"#utility.yul\":30327:30342   */\n      revert\n        /* \"#utility.yul\":30354:30534   */\n    tag_174:\n        /* \"#utility.yul\":30402:30479   */\n      0x4e487b7100000000000000000000000000000000000000000000000000000000\n        /* \"#utility.yul\":30399:30400   */\n      0x00\n        /* \"#utility.yul\":30392:30480   */\n      mstore\n        /* \"#utility.yul\":30499:30503   */\n      0x21\n        /* \"#utility.yul\":30496:30497   */\n      0x04\n        /* \"#utility.yul\":30489:30504   */\n      mstore\n        /* \"#utility.yul\":30523:30527   */\n      0x24\n        /* \"#utility.yul\":30520:30521   */\n      0x00\n        /* \"#utility.yul\":30513:30528   */\n      revert\n        /* \"#utility.yul\":30540:30720   */\n    tag_817:\n        /* \"#utility.yul\":30588:30665   */\n      0x4e487b7100000000000000000000000000000000000000000000000000000000\n        /* \"#utility.yul\":30585:30586   */\n      0x00\n        /* \"#utility.yul\":30578:30666   */\n      mstore\n        /* \"#utility.yul\":30685:30689   */\n      0x22\n        /* \"#utility.yul\":30682:30683   */\n      0x04\n        /* \"#utility.yul\":30675:30690   */\n      mstore\n        /* \"#utility.yul\":30709:30713   */\n      0x24\n        /* \"#utility.yul\":30706:30707   */\n      0x00\n        /* \"#utility.yul\":30699:30714   */\n      revert\n        /* \"#utility.yul\":30726:30906   */\n    tag_455:\n        /* \"#utility.yul\":30774:30851   */\n      0x4e487b7100000000000000000000000000000000000000000000000000000000\n        /* \"#utility.yul\":30771:30772   */\n      0x00\n        /* \"#utility.yul\":30764:30852   */\n      mstore\n        /* \"#utility.yul\":30871:30875   */\n      0x31\n        /* \"#utility.yul\":30868:30869   */\n      0x04\n        /* \"#utility.yul\":30861:30876   */\n      mstore\n        /* \"#utility.yul\":30895:30899   */\n      0x24\n        /* \"#utility.yul\":30892:30893   */\n      0x00\n        /* \"#utility.yul\":30885:30900   */\n      revert\n        /* \"#utility.yul\":30912:31092   */\n    tag_437:\n        /* \"#utility.yul\":30960:31037   */\n      0x4e487b7100000000000000000000000000000000000000000000000000000000\n        /* \"#utility.yul\":30957:30958   */\n      0x00\n        /* \"#utility.yul\":30950:31038   */\n      mstore\n        /* \"#utility.yul\":31057:31061   */\n      0x32\n        /* \"#utility.yul\":31054:31055   */\n      0x04\n        /* \"#utility.yul\":31047:31062   */\n      mstore\n        /* \"#utility.yul\":31081:31085   */\n      0x24\n        /* \"#utility.yul\":31078:31079   */\n      0x00\n        /* \"#utility.yul\":31071:31086   */\n      revert\n        /* \"#utility.yul\":31098:31278   */\n    tag_760:\n        /* \"#utility.yul\":31146:31223   */\n      0x4e487b7100000000000000000000000000000000000000000000000000000000\n        /* \"#utility.yul\":31143:31144   */\n      0x00\n        /* \"#utility.yul\":31136:31224   */\n      mstore\n        /* \"#utility.yul\":31243:31247   */\n      0x41\n        /* \"#utility.yul\":31240:31241   */\n      0x04\n        /* \"#utility.yul\":31233:31248   */\n      mstore\n        /* \"#utility.yul\":31267:31271   */\n      0x24\n        /* \"#utility.yul\":31264:31265   */\n      0x00\n        /* \"#utility.yul\":31257:31272   */\n      revert\n        /* \"#utility.yul\":31284:31401   */\n    tag_497:\n        /* \"#utility.yul\":31393:31394   */\n      0x00\n        /* \"#utility.yul\":31390:31391   */\n      dup1\n        /* \"#utility.yul\":31383:31395   */\n      revert\n        /* \"#utility.yul\":31407:31524   */\n    tag_507:\n        /* \"#utility.yul\":31516:31517   */\n      0x00\n        /* \"#utility.yul\":31513:31514   */\n      dup1\n        /* \"#utility.yul\":31506:31518   */\n      revert\n        /* \"#utility.yul\":31530:31647   */\n    tag_511:\n        /* \"#utility.yul\":31639:31640   */\n      0x00\n        /* \"#utility.yul\":31636:31637   */\n      dup1\n        /* \"#utility.yul\":31629:31641   */\n      revert\n        /* \"#utility.yul\":31653:31770   */\n    tag_482:\n        /* \"#utility.yul\":31762:31763   */\n      0x00\n        /* \"#utility.yul\":31759:31760   */\n      dup1\n        /* \"#utility.yul\":31752:31764   */\n      revert\n        /* \"#utility.yul\":31776:31893   */\n    tag_549:\n        /* \"#utility.yul\":31885:31886   */\n      0x00\n        /* \"#utility.yul\":31882:31883   */\n      dup1\n        /* \"#utility.yul\":31875:31887   */\n      revert\n        /* \"#utility.yul\":31899:32016   */\n    tag_530:\n        /* \"#utility.yul\":32008:32009   */\n      0x00\n        /* \"#utility.yul\":32005:32006   */\n      dup1\n        /* \"#utility.yul\":31998:32010   */\n      revert\n        /* \"#utility.yul\":32022:32124   */\n    tag_604:\n        /* \"#utility.yul\":32063:32069   */\n      0x00\n        /* \"#utility.yul\":32114:32116   */\n      0x1f\n        /* \"#utility.yul\":32110:32117   */\n      not\n        /* \"#utility.yul\":32105:32107   */\n      0x1f\n        /* \"#utility.yul\":32098:32103   */\n      dup4\n        /* \"#utility.yul\":32094:32108   */\n      add\n        /* \"#utility.yul\":32090:32118   */\n      and\n        /* \"#utility.yul\":32080:32118   */\n      swap1\n      pop\n        /* \"#utility.yul\":32022:32124   */\n      swap2\n      swap1\n      pop\n      jump\t// out\n        /* \"#utility.yul\":32130:32363   */\n    tag_628:\n        /* \"#utility.yul\":32270:32304   */\n      0x54686520666f6c6c6f77696e6720636f6e74726163742068617320616c726561\n        /* \"#utility.yul\":32266:32267   */\n      0x00\n        /* \"#utility.yul\":32258:32264   */\n      dup3\n        /* \"#utility.yul\":32254:32268   */\n      add\n        /* \"#utility.yul\":32247:32305   */\n      mstore\n        /* \"#utility.yul\":32339:32355   */\n      0x6479206265656e2061646465642e000000000000000000000000000000000000\n        /* \"#utility.yul\":32334:32336   */\n      0x20\n        /* \"#utility.yul\":32326:32332   */\n      dup3\n        /* \"#utility.yul\":32322:32337   */\n      add\n        /* \"#utility.yul\":32315:32356   */\n      mstore\n        /* \"#utility.yul\":32130:32363   */\n      pop\n      jump\t// out\n        /* \"#utility.yul\":32369:32601   */\n    tag_633:\n        /* \"#utility.yul\":32509:32543   */\n      0x54686520666f6c6c6f77696e672076656869636c652068617320616c72656164\n        /* \"#utility.yul\":32505:32506   */\n      0x00\n        /* \"#utility.yul\":32497:32503   */\n      dup3\n        /* \"#utility.yul\":32493:32507   */\n      add\n        /* \"#utility.yul\":32486:32544   */\n      mstore\n        /* \"#utility.yul\":32578:32593   */\n      0x79206265656e2061646465642e00000000000000000000000000000000000000\n        /* \"#utility.yul\":32573:32575   */\n      0x20\n        /* \"#utility.yul\":32565:32571   */\n      dup3\n        /* \"#utility.yul\":32561:32576   */\n      add\n        /* \"#utility.yul\":32554:32594   */\n      mstore\n        /* \"#utility.yul\":32369:32601   */\n      pop\n      jump\t// out\n        /* \"#utility.yul\":32607:32858   */\n    tag_638:\n        /* \"#utility.yul\":32747:32781   */\n      0x436f756c64206e6f742070726f63656564206265636175736520746865726520\n        /* \"#utility.yul\":32743:32744   */\n      0x00\n        /* \"#utility.yul\":32735:32741   */\n      dup3\n        /* \"#utility.yul\":32731:32745   */\n      add\n        /* \"#utility.yul\":32724:32782   */\n      mstore\n        /* \"#utility.yul\":32816:32850   */\n      0x6973206e6f7420656e6f7567682045544820696e20796f75722077616c6c6574\n        /* \"#utility.yul\":32811:32813   */\n      0x20\n        /* \"#utility.yul\":32803:32809   */\n      dup3\n        /* \"#utility.yul\":32799:32814   */\n      add\n        /* \"#utility.yul\":32792:32851   */\n      mstore\n        /* \"#utility.yul\":32607:32858   */\n      pop\n      jump\t// out\n        /* \"#utility.yul\":32864:33035   */\n    tag_643:\n        /* \"#utility.yul\":33004:33027   */\n      0x5265737472696374656420746f206f776e6572732e0000000000000000000000\n        /* \"#utility.yul\":33000:33001   */\n      0x00\n        /* \"#utility.yul\":32992:32998   */\n      dup3\n        /* \"#utility.yul\":32988:33002   */\n      add\n        /* \"#utility.yul\":32981:33028   */\n      mstore\n        /* \"#utility.yul\":32864:33035   */\n      pop\n      jump\t// out\n        /* \"#utility.yul\":33041:33211   */\n    tag_648:\n        /* \"#utility.yul\":33181:33203   */\n      0x4661696c656420746f2073656e64204574686572000000000000000000000000\n        /* \"#utility.yul\":33177:33178   */\n      0x00\n        /* \"#utility.yul\":33169:33175   */\n      dup3\n        /* \"#utility.yul\":33165:33179   */\n      add\n        /* \"#utility.yul\":33158:33204   */\n      mstore\n        /* \"#utility.yul\":33041:33211   */\n      pop\n      jump\t// out\n        /* \"#utility.yul\":33217:33452   */\n    tag_653:\n        /* \"#utility.yul\":33357:33391   */\n      0x5468652073656c65637465642076656869636c652069732063757272656e746c\n        /* \"#utility.yul\":33353:33354   */\n      0x00\n        /* \"#utility.yul\":33345:33351   */\n      dup3\n        /* \"#utility.yul\":33341:33355   */\n      add\n        /* \"#utility.yul\":33334:33392   */\n      mstore\n        /* \"#utility.yul\":33426:33444   */\n      0x79206e6f7420617661696c61626c652e00000000000000000000000000000000\n        /* \"#utility.yul\":33421:33423   */\n      0x20\n        /* \"#utility.yul\":33413:33419   */\n      dup3\n        /* \"#utility.yul\":33409:33424   */\n      add\n        /* \"#utility.yul\":33402:33445   */\n      mstore\n        /* \"#utility.yul\":33217:33452   */\n      pop\n      jump\t// out\n        /* \"#utility.yul\":33458:33707   */\n    tag_658:\n        /* \"#utility.yul\":33598:33632   */\n      0x54686520666f6c6c6f77696e6720636f6e747261637420636f756c64206e6f74\n        /* \"#utility.yul\":33594:33595   */\n      0x00\n        /* \"#utility.yul\":33586:33592   */\n      dup3\n        /* \"#utility.yul\":33582:33596   */\n      add\n        /* \"#utility.yul\":33575:33633   */\n      mstore\n        /* \"#utility.yul\":33667:33699   */\n      0x20626520666f756e6420696e20746865206d617070696e67206c6973742e0000\n        /* \"#utility.yul\":33662:33664   */\n      0x20\n        /* \"#utility.yul\":33654:33660   */\n      dup3\n        /* \"#utility.yul\":33650:33665   */\n      add\n        /* \"#utility.yul\":33643:33700   */\n      mstore\n        /* \"#utility.yul\":33458:33707   */\n      pop\n      jump\t// out\n        /* \"#utility.yul\":33713:33827   */\n    tag_664:\n      pop\n      jump\t// out\n        /* \"#utility.yul\":33833:34005   */\n    tag_669:\n        /* \"#utility.yul\":33973:33997   */\n      0x5265737472696374656420746f2072656e746572732e00000000000000000000\n        /* \"#utility.yul\":33969:33970   */\n      0x00\n        /* \"#utility.yul\":33961:33967   */\n      dup3\n        /* \"#utility.yul\":33957:33971   */\n      add\n        /* \"#utility.yul\":33950:33998   */\n      mstore\n        /* \"#utility.yul\":33833:34005   */\n      pop\n      jump\t// out\n        /* \"#utility.yul\":34011:34259   */\n    tag_674:\n        /* \"#utility.yul\":34151:34185   */\n      0x54686520666f6c6c6f77696e672076656869636c6520636f756c64206e6f7420\n        /* \"#utility.yul\":34147:34148   */\n      0x00\n        /* \"#utility.yul\":34139:34145   */\n      dup3\n        /* \"#utility.yul\":34135:34149   */\n      add\n        /* \"#utility.yul\":34128:34186   */\n      mstore\n        /* \"#utility.yul\":34220:34251   */\n      0x626520666f756e6420696e20746865206d617070696e67206c6973742e000000\n        /* \"#utility.yul\":34215:34217   */\n      0x20\n        /* \"#utility.yul\":34207:34213   */\n      dup3\n        /* \"#utility.yul\":34203:34218   */\n      add\n        /* \"#utility.yul\":34196:34252   */\n      mstore\n        /* \"#utility.yul\":34011:34259   */\n      pop\n      jump\t// out\n        /* \"#utility.yul\":34265:34389   */\n    tag_790:\n        /* \"#utility.yul\":34357:34358   */\n      0x03\n        /* \"#utility.yul\":34350:34355   */\n      dup2\n        /* \"#utility.yul\":34347:34359   */\n      lt\n        /* \"#utility.yul\":34337:34383   */\n      tag_850\n      jumpi\n        /* \"#utility.yul\":34363:34381   */\n      tag_851\n      tag_174\n      jump\t// in\n    tag_851:\n        /* \"#utility.yul\":34337:34383   */\n    tag_850:\n        /* \"#utility.yul\":34265:34389   */\n      pop\n      jump\t// out\n        /* \"#utility.yul\":34395:34518   */\n    tag_794:\n        /* \"#utility.yul\":34486:34487   */\n      0x02\n        /* \"#utility.yul\":34479:34484   */\n      dup2\n        /* \"#utility.yul\":34476:34488   */\n      lt\n        /* \"#utility.yul\":34466:34512   */\n      tag_853\n      jumpi\n        /* \"#utility.yul\":34492:34510   */\n      tag_854\n      tag_174\n      jump\t// in\n    tag_854:\n        /* \"#utility.yul\":34466:34512   */\n    tag_853:\n        /* \"#utility.yul\":34395:34518   */\n      pop\n      jump\t// out\n        /* \"#utility.yul\":34524:34645   */\n    tag_798:\n        /* \"#utility.yul\":34613:34614   */\n      0x07\n        /* \"#utility.yul\":34606:34611   */\n      dup2\n        /* \"#utility.yul\":34603:34615   */\n      lt\n        /* \"#utility.yul\":34593:34639   */\n      tag_856\n      jumpi\n        /* \"#utility.yul\":34619:34637   */\n      tag_857\n      tag_174\n      jump\t// in\n    tag_857:\n        /* \"#utility.yul\":34593:34639   */\n    tag_856:\n        /* \"#utility.yul\":34524:34645   */\n      pop\n      jump\t// out\n        /* \"#utility.yul\":34651:34773   */\n    tag_488:\n        /* \"#utility.yul\":34724:34748   */\n      tag_859\n        /* \"#utility.yul\":34742:34747   */\n      dup2\n        /* \"#utility.yul\":34724:34748   */\n      tag_583\n      jump\t// in\n    tag_859:\n        /* \"#utility.yul\":34717:34722   */\n      dup2\n        /* \"#utility.yul\":34714:34749   */\n      eq\n        /* \"#utility.yul\":34704:34767   */\n      tag_860\n      jumpi\n        /* \"#utility.yul\":34763:34764   */\n      0x00\n        /* \"#utility.yul\":34760:34761   */\n      dup1\n        /* \"#utility.yul\":34753:34765   */\n      revert\n        /* \"#utility.yul\":34704:34767   */\n    tag_860:\n        /* \"#utility.yul\":34651:34773   */\n      pop\n      jump\t// out\n        /* \"#utility.yul\":34779:34901   */\n    tag_492:\n        /* \"#utility.yul\":34852:34876   */\n      tag_862\n        /* \"#utility.yul\":34870:34875   */\n      dup2\n        /* \"#utility.yul\":34852:34876   */\n      tag_591\n      jump\t// in\n    tag_862:\n        /* \"#utility.yul\":34845:34850   */\n      dup2\n        /* \"#utility.yul\":34842:34877   */\n      eq\n        /* \"#utility.yul\":34832:34895   */\n      tag_863\n      jumpi\n        /* \"#utility.yul\":34891:34892   */\n      0x00\n        /* \"#utility.yul\":34888:34889   */\n      dup1\n        /* \"#utility.yul\":34881:34893   */\n      revert\n        /* \"#utility.yul\":34832:34895   */\n    tag_863:\n        /* \"#utility.yul\":34779:34901   */\n      pop\n      jump\t// out\n        /* \"#utility.yul\":34907:35022   */\n    tag_502:\n        /* \"#utility.yul\":34996:34997   */\n      0x07\n        /* \"#utility.yul\":34989:34994   */\n      dup2\n        /* \"#utility.yul\":34986:34998   */\n      lt\n        /* \"#utility.yul\":34976:35016   */\n      tag_865\n      jumpi\n        /* \"#utility.yul\":35012:35013   */\n      0x00\n        /* \"#utility.yul\":35009:35010   */\n      dup1\n        /* \"#utility.yul\":35002:35014   */\n      revert\n        /* \"#utility.yul\":34976:35016   */\n    tag_865:\n        /* \"#utility.yul\":34907:35022   */\n      pop\n      jump\t// out\n        /* \"#utility.yul\":35028:35150   */\n    tag_526:\n        /* \"#utility.yul\":35101:35125   */\n      tag_867\n        /* \"#utility.yul\":35119:35124   */\n      dup2\n        /* \"#utility.yul\":35101:35125   */\n      tag_701\n      jump\t// in\n    tag_867:\n        /* \"#utility.yul\":35094:35099   */\n      dup2\n        /* \"#utility.yul\":35091:35126   */\n      eq\n        /* \"#utility.yul\":35081:35144   */\n      tag_868\n      jumpi\n        /* \"#utility.yul\":35140:35141   */\n      0x00\n        /* \"#utility.yul\":35137:35138   */\n      dup1\n        /* \"#utility.yul\":35130:35142   */\n      revert\n        /* \"#utility.yul\":35081:35144   */\n    tag_868:\n        /* \"#utility.yul\":35028:35150   */\n      pop\n      jump\t// out\n\n    auxdata: 0xa26469706673582212203b31c445d478769a484ea60366aeac19ca4be3eb27b82363e198f986b969f8bd64736f6c63430008070033\n}\n",
				"bytecode": {
					"linkReferences": {},
					"object": "60806040526000600355600060045534801561001a57600080fd5b50613b218061002a6000396000f3fe6080604052600436106101665760003560e01c80638736381a116100d1578063a1a252431161008a578063b97c9f7711610064578063b97c9f77146105a1578063ca15c873146105cc578063de8b198914610609578063e58378bb1461063257610166565b8063a1a2524314610508578063a36a5d8d14610545578063b8ba95fa1461055c57610166565b80638736381a146103cb57806387b50547146103f65780639010d07c1461042657806391d148541461046357806399704937146104a05780639f2bc40e146104cb57610166565b8063474da79a11610123578063474da79a1461028b57806369a8f49e146102ce5780637065cb481461031357806374539cd01461033c57806379b67caa146103585780637b66fe2e1461038857610166565b806302aec3ce1461016b57806311060ec714610194578063173825d9146101d157806328c23a45146101fa5780632f54bf6e1461021157806337c3510a1461024e575b600080fd5b34801561017757600080fd5b50610192600480360381019061018d9190612a89565b61065d565b005b3480156101a057600080fd5b506101bb60048036038101906101b69190612b23565b61068a565b6040516101c89190613193565b60405180910390f35b3480156101dd57600080fd5b506101f860048036038101906101f39190612a89565b6109cf565b005b34801561020657600080fd5b5061020f6109fc565b005b34801561021d57600080fd5b5061023860048036038101906102339190612a89565b610a28565b6040516102459190613193565b60405180910390f35b34801561025a57600080fd5b5061027560048036038101906102709190612ce1565b610a5b565b6040516102829190613193565b60405180910390f35b34801561029757600080fd5b506102b260048036038101906102ad9190612c21565b610c07565b6040516102c5979695949392919061311c565b60405180910390f35b3480156102da57600080fd5b506102f560048036038101906102f09190612c21565b610e99565b60405161030a99989796959493929190613304565b60405180910390f35b34801561031f57600080fd5b5061033a60048036038101906103359190612a89565b61102f565b005b61035660048036038101906103519190612c21565b61109d565b005b610372600480360381019061036d9190612ca1565b6110a0565b60405161037f9190613193565b60405180910390f35b34801561039457600080fd5b506103af60048036038101906103aa9190612c21565b61146c565b6040516103c2979695949392919061311c565b60405180910390f35b3480156103d757600080fd5b506103e06116ee565b6040516103ed91906132e9565b60405180910390f35b610410600480360381019061040b9190612ca1565b6116f4565b60405161041d9190613193565b60405180910390f35b34801561043257600080fd5b5061044d60048036038101906104489190612be1565b611a01565b60405161045a9190613101565b60405180910390f35b34801561046f57600080fd5b5061048a60048036038101906104859190612ae3565b611a2f565b6040516104979190613193565b60405180910390f35b3480156104ac57600080fd5b506104b5611a5d565b6040516104c291906132e9565b60405180910390f35b3480156104d757600080fd5b506104f260048036038101906104ed9190612a89565b611a63565b6040516104ff9190613193565b60405180910390f35b34801561051457600080fd5b5061052f600480360381019061052a9190612c4e565b611a96565b60405161053c9190613193565b60405180910390f35b34801561055157600080fd5b5061055a6121d5565b005b34801561056857600080fd5b50610583600480360381019061057e9190612c21565b612201565b60405161059899989796959493929190613304565b60405180910390f35b3480156105ad57600080fd5b506105b66123a7565b6040516105c391906131ae565b60405180910390f35b3480156105d857600080fd5b506105f360048036038101906105ee9190612ab6565b6123cb565b60405161060091906132e9565b60405180910390f35b34801561061557600080fd5b50610630600480360381019061062b9190612a89565b6123ee565b005b34801561063e57600080fd5b5061064761245c565b60405161065491906131ae565b60405180910390f35b6106877f52454e544552000000000000000000000000000000000000000000000000000082612480565b50565b600061069533610a28565b6106d4576040517f08c379a00000000000000000000000000000000000000000000000000000000081526004016106cb90613229565b60405180910390fd5b60016003546106e39190613426565b60068054905010610729576040517f08c379a0000000000000000000000000000000000000000000000000000000008152600401610720906131e9565b60405180910390fd5b6003600081548092919061073c90613670565b9190505550600060405180610120016040528060035481526020018a8152602001898152602001886006811115610776576107756136e8565b5b8152602001878152602001868152602001858152602001848152602001600060018111156107a7576107a66136e8565b5b81525090508060056000600354815260200190815260200160002060008201518160000155602082015181600101556040820151816002015560608201518160030160006101000a81548160ff0219169083600681111561080b5761080a6136e8565b5b0217905550608082015181600401600082015181600001908051906020019061083592919061284a565b50602082015181600101908051906020019061085292919061284a565b50505060a0820151816006015560c0820151816007015560e082015181600801556101008201518160090160006101000a81548160ff0219169083600181111561089f5761089e6136e8565b5b021790555090505060068190806001815401808255809150506001900390600052602060002090600a020160009091909190915060008201518160000155602082015181600101556040820151816002015560608201518160030160006101000a81548160ff0219169083600681111561091c5761091b6136e8565b5b0217905550608082015181600401600082015181600001908051906020019061094692919061284a565b50602082015181600101908051906020019061096392919061284a565b50505060a0820151816006015560c0820151816007015560e082015181600801556101008201518160090160006101000a81548160ff021916908360018111156109b0576109af6136e8565b5b0217905550505060035460068054905014915050979650505050505050565b6109f97f4f574e455200000000000000000000000000000000000000000000000000000082612480565b50565b610a267f4f574e455200000000000000000000000000000000000000000000000000000033612480565b565b6000610a547f4f574e455200000000000000000000000000000000000000000000000000000083611a2f565b9050919050565b6000610a6633611a63565b610aa5576040517f08c379a0000000000000000000000000000000000000000000000000000000008152600401610a9c906132a9565b60405180910390fd5b8360006001811115610aba57610ab96136e8565b5b6005600083815260200190815260200160002060090160009054906101000a900460ff166001811115610af057610aef6136e8565b5b14610b30576040517f08c379a0000000000000000000000000000000000000000000000000000000008152600401610b2790613269565b60405180910390fd5b83600073ffffffffffffffffffffffffffffffffffffffff166007600083815260200190815260200160002060000160009054906101000a900473ffffffffffffffffffffffffffffffffffffffff1673ffffffffffffffffffffffffffffffffffffffff161415610bd7576040517f08c379a0000000000000000000000000000000000000000000000000000000008152600401610bce90613289565b60405180910390fd5b8360076000878152602001908152602001600020600e018190555060045460088054905014925050509392505050565b60088181548110610c1757600080fd5b90600052602060002090601102016000915090508060000160009054906101000a900473ffffffffffffffffffffffffffffffffffffffff169080600101604051806101200160405290816000820154815260200160018201548152602001600282015481526020016003820160009054906101000a900460ff166006811115610ca457610ca36136e8565b5b6006811115610cb657610cb56136e8565b5b815260200160048201604051806040016040529081600082018054610cda9061360d565b80601f0160208091040260200160405190810160405280929190818152602001828054610d069061360d565b8015610d535780601f10610d2857610100808354040283529160200191610d53565b820191906000526020600020905b815481529060010190602001808311610d3657829003601f168201915b50505050508152602001600182018054610d6c9061360d565b80601f0160208091040260200160405190810160405280929190818152602001828054610d989061360d565b8015610de55780601f10610dba57610100808354040283529160200191610de5565b820191906000526020600020905b815481529060010190602001808311610dc857829003601f168201915b50505050508152505081526020016006820154815260200160078201548152602001600882015481526020016009820160009054906101000a900460ff166001811115610e3557610e346136e8565b5b6001811115610e4757610e466136e8565b5b815250509080600b01604051806040016040529081600082015481526020016001820154815250509080600d01549080600e01549080600f0154908060100160009054906101000a900460ff16905087565b60056020528060005260406000206000915090508060000154908060010154908060020154908060030160009054906101000a900460ff169080600401604051806040016040529081600082018054610ef19061360d565b80601f0160208091040260200160405190810160405280929190818152602001828054610f1d9061360d565b8015610f6a5780601f10610f3f57610100808354040283529160200191610f6a565b820191906000526020600020905b815481529060010190602001808311610f4d57829003601f168201915b50505050508152602001600182018054610f839061360d565b80601f0160208091040260200160405190810160405280929190818152602001828054610faf9061360d565b8015610ffc5780601f10610fd157610100808354040283529160200191610ffc565b820191906000526020600020905b815481529060010190602001808311610fdf57829003601f168201915b505050505081525050908060060154908060070154908060080154908060090160009054906101000a900460ff16905089565b80600260006101000a81548173ffffffffffffffffffffffffffffffffffffffff021916908373ffffffffffffffffffffffffffffffffffffffff16021790555061109a7f4f574e455200000000000000000000000000000000000000000000000000000082612510565b50565b50565b60006110ab33611a63565b6110ea576040517f08c379a00000000000000000000000000000000000000000000000000000000081526004016110e1906132a9565b60405180910390fd5b816000600560008381526020019081526020016000206000015411611144576040517f08c379a000000000000000000000000000000000000000000000000000000000815260040161113b906132c9565b60405180910390fd5b8260006001811115611159576111586136e8565b5b6005600083815260200190815260200160002060090160009054906101000a900460ff16600181111561118f5761118e6136e8565b5b146111cf576040517f08c379a00000000000000000000000000000000000000000000000000000000081526004016111c690613269565b60405180910390fd5b84600073ffffffffffffffffffffffffffffffffffffffff166007600083815260200190815260200160002060000160009054906101000a900473ffffffffffffffffffffffffffffffffffffffff1673ffffffffffffffffffffffffffffffffffffffff161415611276576040517f08c379a000000000000000000000000000000000000000000000000000000000815260040161126d90613289565b60405180910390fd5b85600060076000838152602001908152602001600020600d015460076000848152602001908152602001600020600e01546112b19190613426565b905080600160009054906101000a900473ffffffffffffffffffffffffffffffffffffffff1673ffffffffffffffffffffffffffffffffffffffff1631101561132f576040517f08c379a000000000000000000000000000000000000000000000000000000000815260040161132690613209565b60405180910390fd5b6001600760008a815260200190815260200160002060100160006101000a81548160ff02191690836002811115611369576113686136e8565b5b021790555060016005600089815260200190815260200160002060090160006101000a81548160ff021916908360018111156113a8576113a76136e8565b5b02179055506000600760008a8152602001908152602001600020600e0154600760008b8152602001908152602001600020600d01546113e79190613426565b90503073ffffffffffffffffffffffffffffffffffffffff166374539cd0826040518263ffffffff1660e01b815260040161142291906132e9565b600060405180830381600087803b15801561143c57600080fd5b505af1158015611450573d6000803e3d6000fd5b5050505060045460088054905014965050505050505092915050565b60076020528060005260406000206000915090508060000160009054906101000a900473ffffffffffffffffffffffffffffffffffffffff169080600101604051806101200160405290816000820154815260200160018201548152602001600282015481526020016003820160009054906101000a900460ff1660068111156114f9576114f86136e8565b5b600681111561150b5761150a6136e8565b5b81526020016004820160405180604001604052908160008201805461152f9061360d565b80601f016020809104026020016040519081016040528092919081815260200182805461155b9061360d565b80156115a85780601f1061157d576101008083540402835291602001916115a8565b820191906000526020600020905b81548152906001019060200180831161158b57829003601f168201915b505050505081526020016001820180546115c19061360d565b80601f01602080910402602001604051908101604052809291908181526020018280546115ed9061360d565b801561163a5780601f1061160f5761010080835404028352916020019161163a565b820191906000526020600020905b81548152906001019060200180831161161d57829003601f168201915b50505050508152505081526020016006820154815260200160078201548152602001600882015481526020016009820160009054906101000a900460ff16600181111561168a576116896136e8565b5b600181111561169c5761169b6136e8565b5b815250509080600b01604051806040016040529081600082015481526020016001820154815250509080600d01549080600e01549080600f0154908060100160009054906101000a900460ff16905087565b60045481565b60006116ff33611a63565b61173e576040517f08c379a0000000000000000000000000000000000000000000000000000000008152600401611735906132a9565b60405180910390fd5b816000600560008381526020019081526020016000206000015411611798576040517f08c379a000000000000000000000000000000000000000000000000000000000815260040161178f906132c9565b60405180910390fd5b83600073ffffffffffffffffffffffffffffffffffffffff166007600083815260200190815260200160002060000160009054906101000a900473ffffffffffffffffffffffffffffffffffffffff1673ffffffffffffffffffffffffffffffffffffffff16141561183f576040517f08c379a000000000000000000000000000000000000000000000000000000000815260040161183690613289565b60405180910390fd5b84600060076000838152602001908152602001600020600e015490508047101561189e576040517f08c379a000000000000000000000000000000000000000000000000000000000815260040161189590613209565b60405180910390fd5b60026007600089815260200190815260200160002060100160006101000a81548160ff021916908360028111156118d8576118d76136e8565b5b021790555060006005600088815260200190815260200160002060090160006101000a81548160ff02191690836001811115611917576119166136e8565b5b0217905550600060076000898152602001908152602001600020600e01549050600033905060008173ffffffffffffffffffffffffffffffffffffffff1683604051611962906130ec565b60006040518083038185875af1925050503d806000811461199f576040519150601f19603f3d011682016040523d82523d6000602084013e6119a4565b606091505b50509050806119e8576040517f08c379a00000000000000000000000000000000000000000000000000000000081526004016119df90613249565b60405180910390fd5b6004546008805490501497505050505050505092915050565b6000611a27826000808681526020019081526020016000206125a090919063ffffffff16565b905092915050565b6000611a55826000808681526020019081526020016000206125ba90919063ffffffff16565b905092915050565b60035481565b6000611a8f7f52454e544552000000000000000000000000000000000000000000000000000083611a2f565b9050919050565b6000611aa133611a63565b611ae0576040517f08c379a0000000000000000000000000000000000000000000000000000000008152600401611ad7906132a9565b60405180910390fd5b836000600560008381526020019081526020016000206000015411611b3a576040517f08c379a0000000000000000000000000000000000000000000000000000000008152600401611b31906132c9565b60405180910390fd5b6001600454611b499190613426565b60088054905010611b8f576040517f08c379a0000000000000000000000000000000000000000000000000000000008152600401611b86906131c9565b60405180910390fd5b60046000815480929190611ba290613670565b91905055506000836005600088815260200190815260200160002060080154611bcb919061347c565b905060006040518060e001604052803373ffffffffffffffffffffffffffffffffffffffff168152602001600560008a8152602001908152602001600020604051806101200160405290816000820154815260200160018201548152602001600282015481526020016003820160009054906101000a900460ff166006811115611c5857611c576136e8565b5b6006811115611c6a57611c696136e8565b5b815260200160048201604051806040016040529081600082018054611c8e9061360d565b80601f0160208091040260200160405190810160405280929190818152602001828054611cba9061360d565b8015611d075780601f10611cdc57610100808354040283529160200191611d07565b820191906000526020600020905b815481529060010190602001808311611cea57829003601f168201915b50505050508152602001600182018054611d209061360d565b80601f0160208091040260200160405190810160405280929190818152602001828054611d4c9061360d565b8015611d995780601f10611d6e57610100808354040283529160200191611d99565b820191906000526020600020905b815481529060010190602001808311611d7c57829003601f168201915b50505050508152505081526020016006820154815260200160078201548152602001600882015481526020016009820160009054906101000a900460ff166001811115611de957611de86136e8565b5b6001811115611dfb57611dfa6136e8565b5b8152505081526020018781526020018381526020016000815260200142815260200160006002811115611e3157611e306136e8565b5b81525090508060076000600454815260200190815260200160002060008201518160000160006101000a81548173ffffffffffffffffffffffffffffffffffffffff021916908373ffffffffffffffffffffffffffffffffffffffff16021790555060208201518160010160008201518160000155602082015181600101556040820151816002015560608201518160030160006101000a81548160ff02191690836006811115611ee557611ee46136e8565b5b02179055506080820151816004016000820151816000019080519060200190611f0f92919061284a565b506020820151816001019080519060200190611f2c92919061284a565b50505060a0820151816006015560c0820151816007015560e082015181600801556101008201518160090160006101000a81548160ff02191690836001811115611f7957611f786136e8565b5b02179055505050604082015181600b0160008201518160000155602082015181600101555050606082015181600d0155608082015181600e015560a082015181600f015560c08201518160100160006101000a81548160ff02191690836002811115611fe857611fe76136e8565b5b0217905550905050600881908060018154018082558091505060019003906000526020600020906011020160009091909190915060008201518160000160006101000a81548173ffffffffffffffffffffffffffffffffffffffff021916908373ffffffffffffffffffffffffffffffffffffffff16021790555060208201518160010160008201518160000155602082015181600101556040820151816002015560608201518160030160006101000a81548160ff021916908360068111156120b5576120b46136e8565b5b021790555060808201518160040160008201518160000190805190602001906120df92919061284a565b5060208201518160010190805190602001906120fc92919061284a565b50505060a0820151816006015560c0820151816007015560e082015181600801556101008201518160090160006101000a81548160ff02191690836001811115612149576121486136e8565b5b02179055505050604082015181600b0160008201518160000155602082015181600101555050606082015181600d0155608082015181600e015560a082015181600f015560c08201518160100160006101000a81548160ff021916908360028111156121b8576121b76136e8565b5b021790555050506004546008805490501493505050509392505050565b6121ff7f52454e544552000000000000000000000000000000000000000000000000000033612480565b565b6006818154811061221157600080fd5b90600052602060002090600a02016000915090508060000154908060010154908060020154908060030160009054906101000a900460ff1690806004016040518060400160405290816000820180546122699061360d565b80601f01602080910402602001604051908101604052809291908181526020018280546122959061360d565b80156122e25780601f106122b7576101008083540402835291602001916122e2565b820191906000526020600020905b8154815290600101906020018083116122c557829003601f168201915b505050505081526020016001820180546122fb9061360d565b80601f01602080910402602001604051908101604052809291908181526020018280546123279061360d565b80156123745780601f1061234957610100808354040283529160200191612374565b820191906000526020600020905b81548152906001019060200180831161235757829003601f168201915b505050505081525050908060060154908060070154908060080154908060090160009054906101000a900460ff16905089565b7f52454e544552000000000000000000000000000000000000000000000000000081565b60006123e76000808481526020019081526020016000206125ea565b9050919050565b80600160006101000a81548173ffffffffffffffffffffffffffffffffffffffff021916908373ffffffffffffffffffffffffffffffffffffffff1602179055506124597f52454e544552000000000000000000000000000000000000000000000000000082612510565b50565b7f4f574e455200000000000000000000000000000000000000000000000000000081565b6124a4816000808581526020019081526020016000206125ff90919063ffffffff16565b1561250c576124b161262f565b73ffffffffffffffffffffffffffffffffffffffff168173ffffffffffffffffffffffffffffffffffffffff16837ff6391f5c32d9c69d2a47ea670b442974b53935d1edc7fd64eb21e047a839171b60405160405180910390a45b5050565b6125348160008085815260200190815260200160002061263790919063ffffffff16565b1561259c5761254161262f565b73ffffffffffffffffffffffffffffffffffffffff168173ffffffffffffffffffffffffffffffffffffffff16837f2f8788117e7eff1d82e926ec794901d17c78024a50270940304540a733656f0d60405160405180910390a45b5050565b60006125af8360000183612667565b60001c905092915050565b60006125e2836000018373ffffffffffffffffffffffffffffffffffffffff1660001b612692565b905092915050565b60006125f8826000016126b5565b9050919050565b6000612627836000018373ffffffffffffffffffffffffffffffffffffffff1660001b6126c6565b905092915050565b600033905090565b600061265f836000018373ffffffffffffffffffffffffffffffffffffffff1660001b6127da565b905092915050565b600082600001828154811061267f5761267e613775565b5b9060005260206000200154905092915050565b600080836001016000848152602001908152602001600020541415905092915050565b600081600001805490509050919050565b600080836001016000848152602001908152602001600020549050600081146127ce5760006001826126f891906134d6565b905060006001866000018054905061271091906134d6565b905081811461277f57600086600001828154811061273157612730613775565b5b906000526020600020015490508087600001848154811061275557612754613775565b5b90600052602060002001819055508387600101600083815260200190815260200160002081905550505b8560000180548061279357612792613746565b5b6001900381819060005260206000200160009055905585600101600086815260200190815260200160002060009055600193505050506127d4565b60009150505b92915050565b60006127e68383612692565b61283f578260000182908060018154018082558091505060019003906000526020600020016000909190919091505582600001805490508360010160008481526020019081526020016000208190555060019050612844565b600090505b92915050565b8280546128569061360d565b90600052602060002090601f01602090048101928261287857600085556128bf565b82601f1061289157805160ff19168380011785556128bf565b828001600101855582156128bf579182015b828111156128be5782518255916020019190600101906128a3565b5b5090506128cc91906128d0565b5090565b5b808211156128e95760008160009055506001016128d1565b5090565b60006129006128fb846133bd565b613398565b90508281526020810184848401111561291c5761291b6137e2565b5b6129278482856135cb565b509392505050565b60008135905061293e81613a96565b92915050565b60008135905061295381613aad565b92915050565b600082601f83011261296e5761296d6137d3565b5b813561297e8482602086016128ed565b91505092915050565b60008135905061299681613ac4565b92915050565b6000604082840312156129b2576129b16137d8565b5b6129bc6040613398565b9050600082013567ffffffffffffffff8111156129dc576129db6137dd565b5b6129e884828501612959565b600083015250602082013567ffffffffffffffff811115612a0c57612a0b6137dd565b5b612a1884828501612959565b60208301525092915050565b600060408284031215612a3a57612a396137d8565b5b612a446040613398565b90506000612a5484828501612944565b6000830152506020612a6884828501612944565b60208301525092915050565b600081359050612a8381613ad4565b92915050565b600060208284031215612a9f57612a9e6137ec565b5b6000612aad8482850161292f565b91505092915050565b600060208284031215612acc57612acb6137ec565b5b6000612ada84828501612944565b91505092915050565b60008060408385031215612afa57612af96137ec565b5b6000612b0885828601612944565b9250506020612b198582860161292f565b9150509250929050565b600080600080600080600060e0888a031215612b4257612b416137ec565b5b6000612b508a828b01612944565b9750506020612b618a828b01612944565b9650506040612b728a828b01612987565b955050606088013567ffffffffffffffff811115612b9357612b926137e7565b5b612b9f8a828b0161299c565b9450506080612bb08a828b01612a74565b93505060a0612bc18a828b01612944565b92505060c0612bd28a828b01612a74565b91505092959891949750929550565b60008060408385031215612bf857612bf76137ec565b5b6000612c0685828601612944565b9250506020612c1785828601612a74565b9150509250929050565b600060208284031215612c3757612c366137ec565b5b6000612c4584828501612a74565b91505092915050565b600080600060808486031215612c6757612c666137ec565b5b6000612c7586828701612a74565b9350506020612c8686828701612a24565b9250506060612c9786828701612a74565b9150509250925092565b60008060408385031215612cb857612cb76137ec565b5b6000612cc685828601612a74565b9250506020612cd785828601612a74565b9150509250929050565b600080600060608486031215612cfa57612cf96137ec565b5b6000612d0886828701612a74565b9350506020612d1986828701612a74565b9250506040612d2a86828701612a74565b9150509250925092565b612d3d8161350a565b82525050565b612d4c8161351c565b82525050565b612d5b81613528565b82525050565b612d6a81613528565b82525050565b6000612d7b826133ee565b612d8581856133f9565b9350612d958185602086016135da565b612d9e816137f1565b840191505092915050565b612db281613595565b82525050565b612dc1816135a7565b82525050565b612dd0816135a7565b82525050565b612ddf816135b9565b82525050565b612dee816135b9565b82525050565b6000612e01602e83613415565b9150612e0c82613802565b604082019050919050565b6000612e24602d83613415565b9150612e2f82613851565b604082019050919050565b6000612e47604083613415565b9150612e52826138a0565b604082019050919050565b6000612e6a601583613415565b9150612e75826138ef565b602082019050919050565b6000612e8d601483613415565b9150612e9882613918565b602082019050919050565b6000612eb0603083613415565b9150612ebb82613941565b604082019050919050565b6000612ed3603e83613415565b9150612ede82613990565b604082019050919050565b6000612ef660008361340a565b9150612f01826139df565b600082019050919050565b6000612f19601683613415565b9150612f24826139e2565b602082019050919050565b6000612f3c603d83613415565b9150612f4782613a0b565b604082019050919050565b60006040830160008301518482036000860152612f6f8282612d70565b91505060208301518482036020860152612f898282612d70565b9150508091505092915050565b60006040830160008301518482036000860152612fb38282612d70565b91505060208301518482036020860152612fcd8282612d70565b9150508091505092915050565b604082016000820151612ff06000850182612d52565b5060208201516130036020850182612d52565b50505050565b60006101208301600083015161302260008601826130ce565b5060208301516130356020860182612d52565b5060408301516130486040860182612d52565b50606083015161305b6060860182612dd6565b50608083015184820360808601526130738282612f52565b91505060a083015161308860a08601826130ce565b5060c083015161309b60c0860182612d52565b5060e08301516130ae60e08601826130ce565b506101008301516130c3610100860182612db8565b508091505092915050565b6130d78161358b565b82525050565b6130e68161358b565b82525050565b60006130f782612ee9565b9150819050919050565b60006020820190506131166000830184612d34565b92915050565b600061010082019050613132600083018a612d34565b81810360208301526131448189613009565b90506131536040830188612fda565b61316060808301876130dd565b61316d60a08301866130dd565b61317a60c08301856130dd565b61318760e0830184612da9565b98975050505050505050565b60006020820190506131a86000830184612d43565b92915050565b60006020820190506131c36000830184612d61565b92915050565b600060208201905081810360008301526131e281612df4565b9050919050565b6000602082019050818103600083015261320281612e17565b9050919050565b6000602082019050818103600083015261322281612e3a565b9050919050565b6000602082019050818103600083015261324281612e5d565b9050919050565b6000602082019050818103600083015261326281612e80565b9050919050565b6000602082019050818103600083015261328281612ea3565b9050919050565b600060208201905081810360008301526132a281612ec6565b9050919050565b600060208201905081810360008301526132c281612f0c565b9050919050565b600060208201905081810360008301526132e281612f2f565b9050919050565b60006020820190506132fe60008301846130dd565b92915050565b60006101208201905061331a600083018c6130dd565b613327602083018b612d61565b613334604083018a612d61565b6133416060830189612de5565b81810360808301526133538188612f96565b905061336260a08301876130dd565b61336f60c0830186612d61565b61337c60e08301856130dd565b61338a610100830184612dc7565b9a9950505050505050505050565b60006133a26133b3565b90506133ae828261363f565b919050565b6000604051905090565b600067ffffffffffffffff8211156133d8576133d76137a4565b5b6133e1826137f1565b9050602081019050919050565b600081519050919050565b600082825260208201905092915050565b600081905092915050565b600082825260208201905092915050565b60006134318261358b565b915061343c8361358b565b9250827fffffffffffffffffffffffffffffffffffffffffffffffffffffffffffffffff03821115613471576134706136b9565b5b828201905092915050565b60006134878261358b565b91506134928361358b565b9250817fffffffffffffffffffffffffffffffffffffffffffffffffffffffffffffffff04831182151516156134cb576134ca6136b9565b5b828202905092915050565b60006134e18261358b565b91506134ec8361358b565b9250828210156134ff576134fe6136b9565b5b828203905092915050565b60006135158261356b565b9050919050565b60008115159050919050565b6000819050919050565b600081905061354082613a5a565b919050565b600081905061355382613a6e565b919050565b600081905061356682613a82565b919050565b600073ffffffffffffffffffffffffffffffffffffffff82169050919050565b6000819050919050565b60006135a082613532565b9050919050565b60006135b282613545565b9050919050565b60006135c482613558565b9050919050565b82818337600083830152505050565b60005b838110156135f85780820151818401526020810190506135dd565b83811115613607576000848401525b50505050565b6000600282049050600182168061362557607f821691505b6020821081141561363957613638613717565b5b50919050565b613648826137f1565b810181811067ffffffffffffffff82111715613667576136666137a4565b5b80604052505050565b600061367b8261358b565b91507fffffffffffffffffffffffffffffffffffffffffffffffffffffffffffffffff8214156136ae576136ad6136b9565b5b600182019050919050565b7f4e487b7100000000000000000000000000000000000000000000000000000000600052601160045260246000fd5b7f4e487b7100000000000000000000000000000000000000000000000000000000600052602160045260246000fd5b7f4e487b7100000000000000000000000000000000000000000000000000000000600052602260045260246000fd5b7f4e487b7100000000000000000000000000000000000000000000000000000000600052603160045260246000fd5b7f4e487b7100000000000000000000000000000000000000000000000000000000600052603260045260246000fd5b7f4e487b7100000000000000000000000000000000000000000000000000000000600052604160045260246000fd5b600080fd5b600080fd5b600080fd5b600080fd5b600080fd5b600080fd5b6000601f19601f8301169050919050565b7f54686520666f6c6c6f77696e6720636f6e74726163742068617320616c72656160008201527f6479206265656e2061646465642e000000000000000000000000000000000000602082015250565b7f54686520666f6c6c6f77696e672076656869636c652068617320616c7265616460008201527f79206265656e2061646465642e00000000000000000000000000000000000000602082015250565b7f436f756c64206e6f742070726f6365656420626563617573652074686572652060008201527f6973206e6f7420656e6f7567682045544820696e20796f75722077616c6c6574602082015250565b7f5265737472696374656420746f206f776e6572732e0000000000000000000000600082015250565b7f4661696c656420746f2073656e64204574686572000000000000000000000000600082015250565b7f5468652073656c65637465642076656869636c652069732063757272656e746c60008201527f79206e6f7420617661696c61626c652e00000000000000000000000000000000602082015250565b7f54686520666f6c6c6f77696e6720636f6e747261637420636f756c64206e6f7460008201527f20626520666f756e6420696e20746865206d617070696e67206c6973742e0000602082015250565b50565b7f5265737472696374656420746f2072656e746572732e00000000000000000000600082015250565b7f54686520666f6c6c6f77696e672076656869636c6520636f756c64206e6f742060008201527f626520666f756e6420696e20746865206d617070696e67206c6973742e000000602082015250565b60038110613a6b57613a6a6136e8565b5b50565b60028110613a7f57613a7e6136e8565b5b50565b60078110613a9357613a926136e8565b5b50565b613a9f8161350a565b8114613aaa57600080fd5b50565b613ab681613528565b8114613ac157600080fd5b50565b60078110613ad157600080fd5b50565b613add8161358b565b8114613ae857600080fd5b5056fea26469706673582212203b31c445d478769a484ea60366aeac19ca4be3eb27b82363e198f986b969f8bd64736f6c63430008070033",
					"opcodes": "PUSH1 0x80 PUSH1 0x40 MSTORE PUSH1 0x0 PUSH1 0x3 SSTORE PUSH1 0x0 PUSH1 0x4 SSTORE CALLVALUE DUP1 ISZERO PUSH2 0x1A JUMPI PUSH1 0x0 DUP1 REVERT JUMPDEST POP PUSH2 0x3B21 DUP1 PUSH2 0x2A PUSH1 0x0 CODECOPY PUSH1 0x0 RETURN INVALID PUSH1 0x80 PUSH1 0x40 MSTORE PUSH1 0x4 CALLDATASIZE LT PUSH2 0x166 JUMPI PUSH1 0x0 CALLDATALOAD PUSH1 0xE0 SHR DUP1 PUSH4 0x8736381A GT PUSH2 0xD1 JUMPI DUP1 PUSH4 0xA1A25243 GT PUSH2 0x8A JUMPI DUP1 PUSH4 0xB97C9F77 GT PUSH2 0x64 JUMPI DUP1 PUSH4 0xB97C9F77 EQ PUSH2 0x5A1 JUMPI DUP1 PUSH4 0xCA15C873 EQ PUSH2 0x5CC JUMPI DUP1 PUSH4 0xDE8B1989 EQ PUSH2 0x609 JUMPI DUP1 PUSH4 0xE58378BB EQ PUSH2 0x632 JUMPI PUSH2 0x166 JUMP JUMPDEST DUP1 PUSH4 0xA1A25243 EQ PUSH2 0x508 JUMPI DUP1 PUSH4 0xA36A5D8D EQ PUSH2 0x545 JUMPI DUP1 PUSH4 0xB8BA95FA EQ PUSH2 0x55C JUMPI PUSH2 0x166 JUMP JUMPDEST DUP1 PUSH4 0x8736381A EQ PUSH2 0x3CB JUMPI DUP1 PUSH4 0x87B50547 EQ PUSH2 0x3F6 JUMPI DUP1 PUSH4 0x9010D07C EQ PUSH2 0x426 JUMPI DUP1 PUSH4 0x91D14854 EQ PUSH2 0x463 JUMPI DUP1 PUSH4 0x99704937 EQ PUSH2 0x4A0 JUMPI DUP1 PUSH4 0x9F2BC40E EQ PUSH2 0x4CB JUMPI PUSH2 0x166 JUMP JUMPDEST DUP1 PUSH4 0x474DA79A GT PUSH2 0x123 JUMPI DUP1 PUSH4 0x474DA79A EQ PUSH2 0x28B JUMPI DUP1 PUSH4 0x69A8F49E EQ PUSH2 0x2CE JUMPI DUP1 PUSH4 0x7065CB48 EQ PUSH2 0x313 JUMPI DUP1 PUSH4 0x74539CD0 EQ PUSH2 0x33C JUMPI DUP1 PUSH4 0x79B67CAA EQ PUSH2 0x358 JUMPI DUP1 PUSH4 0x7B66FE2E EQ PUSH2 0x388 JUMPI PUSH2 0x166 JUMP JUMPDEST DUP1 PUSH4 0x2AEC3CE EQ PUSH2 0x16B JUMPI DUP1 PUSH4 0x11060EC7 EQ PUSH2 0x194 JUMPI DUP1 PUSH4 0x173825D9 EQ PUSH2 0x1D1 JUMPI DUP1 PUSH4 0x28C23A45 EQ PUSH2 0x1FA JUMPI DUP1 PUSH4 0x2F54BF6E EQ PUSH2 0x211 JUMPI DUP1 PUSH4 0x37C3510A EQ PUSH2 0x24E JUMPI JUMPDEST PUSH1 0x0 DUP1 REVERT JUMPDEST CALLVALUE DUP1 ISZERO PUSH2 0x177 JUMPI PUSH1 0x0 DUP1 REVERT JUMPDEST POP PUSH2 0x192 PUSH1 0x4 DUP1 CALLDATASIZE SUB DUP2 ADD SWAP1 PUSH2 0x18D SWAP2 SWAP1 PUSH2 0x2A89 JUMP JUMPDEST PUSH2 0x65D JUMP JUMPDEST STOP JUMPDEST CALLVALUE DUP1 ISZERO PUSH2 0x1A0 JUMPI PUSH1 0x0 DUP1 REVERT JUMPDEST POP PUSH2 0x1BB PUSH1 0x4 DUP1 CALLDATASIZE SUB DUP2 ADD SWAP1 PUSH2 0x1B6 SWAP2 SWAP1 PUSH2 0x2B23 JUMP JUMPDEST PUSH2 0x68A JUMP JUMPDEST PUSH1 0x40 MLOAD PUSH2 0x1C8 SWAP2 SWAP1 PUSH2 0x3193 JUMP JUMPDEST PUSH1 0x40 MLOAD DUP1 SWAP2 SUB SWAP1 RETURN JUMPDEST CALLVALUE DUP1 ISZERO PUSH2 0x1DD JUMPI PUSH1 0x0 DUP1 REVERT JUMPDEST POP PUSH2 0x1F8 PUSH1 0x4 DUP1 CALLDATASIZE SUB DUP2 ADD SWAP1 PUSH2 0x1F3 SWAP2 SWAP1 PUSH2 0x2A89 JUMP JUMPDEST PUSH2 0x9CF JUMP JUMPDEST STOP JUMPDEST CALLVALUE DUP1 ISZERO PUSH2 0x206 JUMPI PUSH1 0x0 DUP1 REVERT JUMPDEST POP PUSH2 0x20F PUSH2 0x9FC JUMP JUMPDEST STOP JUMPDEST CALLVALUE DUP1 ISZERO PUSH2 0x21D JUMPI PUSH1 0x0 DUP1 REVERT JUMPDEST POP PUSH2 0x238 PUSH1 0x4 DUP1 CALLDATASIZE SUB DUP2 ADD SWAP1 PUSH2 0x233 SWAP2 SWAP1 PUSH2 0x2A89 JUMP JUMPDEST PUSH2 0xA28 JUMP JUMPDEST PUSH1 0x40 MLOAD PUSH2 0x245 SWAP2 SWAP1 PUSH2 0x3193 JUMP JUMPDEST PUSH1 0x40 MLOAD DUP1 SWAP2 SUB SWAP1 RETURN JUMPDEST CALLVALUE DUP1 ISZERO PUSH2 0x25A JUMPI PUSH1 0x0 DUP1 REVERT JUMPDEST POP PUSH2 0x275 PUSH1 0x4 DUP1 CALLDATASIZE SUB DUP2 ADD SWAP1 PUSH2 0x270 SWAP2 SWAP1 PUSH2 0x2CE1 JUMP JUMPDEST PUSH2 0xA5B JUMP JUMPDEST PUSH1 0x40 MLOAD PUSH2 0x282 SWAP2 SWAP1 PUSH2 0x3193 JUMP JUMPDEST PUSH1 0x40 MLOAD DUP1 SWAP2 SUB SWAP1 RETURN JUMPDEST CALLVALUE DUP1 ISZERO PUSH2 0x297 JUMPI PUSH1 0x0 DUP1 REVERT JUMPDEST POP PUSH2 0x2B2 PUSH1 0x4 DUP1 CALLDATASIZE SUB DUP2 ADD SWAP1 PUSH2 0x2AD SWAP2 SWAP1 PUSH2 0x2C21 JUMP JUMPDEST PUSH2 0xC07 JUMP JUMPDEST PUSH1 0x40 MLOAD PUSH2 0x2C5 SWAP8 SWAP7 SWAP6 SWAP5 SWAP4 SWAP3 SWAP2 SWAP1 PUSH2 0x311C JUMP JUMPDEST PUSH1 0x40 MLOAD DUP1 SWAP2 SUB SWAP1 RETURN JUMPDEST CALLVALUE DUP1 ISZERO PUSH2 0x2DA JUMPI PUSH1 0x0 DUP1 REVERT JUMPDEST POP PUSH2 0x2F5 PUSH1 0x4 DUP1 CALLDATASIZE SUB DUP2 ADD SWAP1 PUSH2 0x2F0 SWAP2 SWAP1 PUSH2 0x2C21 JUMP JUMPDEST PUSH2 0xE99 JUMP JUMPDEST PUSH1 0x40 MLOAD PUSH2 0x30A SWAP10 SWAP9 SWAP8 SWAP7 SWAP6 SWAP5 SWAP4 SWAP3 SWAP2 SWAP1 PUSH2 0x3304 JUMP JUMPDEST PUSH1 0x40 MLOAD DUP1 SWAP2 SUB SWAP1 RETURN JUMPDEST CALLVALUE DUP1 ISZERO PUSH2 0x31F JUMPI PUSH1 0x0 DUP1 REVERT JUMPDEST POP PUSH2 0x33A PUSH1 0x4 DUP1 CALLDATASIZE SUB DUP2 ADD SWAP1 PUSH2 0x335 SWAP2 SWAP1 PUSH2 0x2A89 JUMP JUMPDEST PUSH2 0x102F JUMP JUMPDEST STOP JUMPDEST PUSH2 0x356 PUSH1 0x4 DUP1 CALLDATASIZE SUB DUP2 ADD SWAP1 PUSH2 0x351 SWAP2 SWAP1 PUSH2 0x2C21 JUMP JUMPDEST PUSH2 0x109D JUMP JUMPDEST STOP JUMPDEST PUSH2 0x372 PUSH1 0x4 DUP1 CALLDATASIZE SUB DUP2 ADD SWAP1 PUSH2 0x36D SWAP2 SWAP1 PUSH2 0x2CA1 JUMP JUMPDEST PUSH2 0x10A0 JUMP JUMPDEST PUSH1 0x40 MLOAD PUSH2 0x37F SWAP2 SWAP1 PUSH2 0x3193 JUMP JUMPDEST PUSH1 0x40 MLOAD DUP1 SWAP2 SUB SWAP1 RETURN JUMPDEST CALLVALUE DUP1 ISZERO PUSH2 0x394 JUMPI PUSH1 0x0 DUP1 REVERT JUMPDEST POP PUSH2 0x3AF PUSH1 0x4 DUP1 CALLDATASIZE SUB DUP2 ADD SWAP1 PUSH2 0x3AA SWAP2 SWAP1 PUSH2 0x2C21 JUMP JUMPDEST PUSH2 0x146C JUMP JUMPDEST PUSH1 0x40 MLOAD PUSH2 0x3C2 SWAP8 SWAP7 SWAP6 SWAP5 SWAP4 SWAP3 SWAP2 SWAP1 PUSH2 0x311C JUMP JUMPDEST PUSH1 0x40 MLOAD DUP1 SWAP2 SUB SWAP1 RETURN JUMPDEST CALLVALUE DUP1 ISZERO PUSH2 0x3D7 JUMPI PUSH1 0x0 DUP1 REVERT JUMPDEST POP PUSH2 0x3E0 PUSH2 0x16EE JUMP JUMPDEST PUSH1 0x40 MLOAD PUSH2 0x3ED SWAP2 SWAP1 PUSH2 0x32E9 JUMP JUMPDEST PUSH1 0x40 MLOAD DUP1 SWAP2 SUB SWAP1 RETURN JUMPDEST PUSH2 0x410 PUSH1 0x4 DUP1 CALLDATASIZE SUB DUP2 ADD SWAP1 PUSH2 0x40B SWAP2 SWAP1 PUSH2 0x2CA1 JUMP JUMPDEST PUSH2 0x16F4 JUMP JUMPDEST PUSH1 0x40 MLOAD PUSH2 0x41D SWAP2 SWAP1 PUSH2 0x3193 JUMP JUMPDEST PUSH1 0x40 MLOAD DUP1 SWAP2 SUB SWAP1 RETURN JUMPDEST CALLVALUE DUP1 ISZERO PUSH2 0x432 JUMPI PUSH1 0x0 DUP1 REVERT JUMPDEST POP PUSH2 0x44D PUSH1 0x4 DUP1 CALLDATASIZE SUB DUP2 ADD SWAP1 PUSH2 0x448 SWAP2 SWAP1 PUSH2 0x2BE1 JUMP JUMPDEST PUSH2 0x1A01 JUMP JUMPDEST PUSH1 0x40 MLOAD PUSH2 0x45A SWAP2 SWAP1 PUSH2 0x3101 JUMP JUMPDEST PUSH1 0x40 MLOAD DUP1 SWAP2 SUB SWAP1 RETURN JUMPDEST CALLVALUE DUP1 ISZERO PUSH2 0x46F JUMPI PUSH1 0x0 DUP1 REVERT JUMPDEST POP PUSH2 0x48A PUSH1 0x4 DUP1 CALLDATASIZE SUB DUP2 ADD SWAP1 PUSH2 0x485 SWAP2 SWAP1 PUSH2 0x2AE3 JUMP JUMPDEST PUSH2 0x1A2F JUMP JUMPDEST PUSH1 0x40 MLOAD PUSH2 0x497 SWAP2 SWAP1 PUSH2 0x3193 JUMP JUMPDEST PUSH1 0x40 MLOAD DUP1 SWAP2 SUB SWAP1 RETURN JUMPDEST CALLVALUE DUP1 ISZERO PUSH2 0x4AC JUMPI PUSH1 0x0 DUP1 REVERT JUMPDEST POP PUSH2 0x4B5 PUSH2 0x1A5D JUMP JUMPDEST PUSH1 0x40 MLOAD PUSH2 0x4C2 SWAP2 SWAP1 PUSH2 0x32E9 JUMP JUMPDEST PUSH1 0x40 MLOAD DUP1 SWAP2 SUB SWAP1 RETURN JUMPDEST CALLVALUE DUP1 ISZERO PUSH2 0x4D7 JUMPI PUSH1 0x0 DUP1 REVERT JUMPDEST POP PUSH2 0x4F2 PUSH1 0x4 DUP1 CALLDATASIZE SUB DUP2 ADD SWAP1 PUSH2 0x4ED SWAP2 SWAP1 PUSH2 0x2A89 JUMP JUMPDEST PUSH2 0x1A63 JUMP JUMPDEST PUSH1 0x40 MLOAD PUSH2 0x4FF SWAP2 SWAP1 PUSH2 0x3193 JUMP JUMPDEST PUSH1 0x40 MLOAD DUP1 SWAP2 SUB SWAP1 RETURN JUMPDEST CALLVALUE DUP1 ISZERO PUSH2 0x514 JUMPI PUSH1 0x0 DUP1 REVERT JUMPDEST POP PUSH2 0x52F PUSH1 0x4 DUP1 CALLDATASIZE SUB DUP2 ADD SWAP1 PUSH2 0x52A SWAP2 SWAP1 PUSH2 0x2C4E JUMP JUMPDEST PUSH2 0x1A96 JUMP JUMPDEST PUSH1 0x40 MLOAD PUSH2 0x53C SWAP2 SWAP1 PUSH2 0x3193 JUMP JUMPDEST PUSH1 0x40 MLOAD DUP1 SWAP2 SUB SWAP1 RETURN JUMPDEST CALLVALUE DUP1 ISZERO PUSH2 0x551 JUMPI PUSH1 0x0 DUP1 REVERT JUMPDEST POP PUSH2 0x55A PUSH2 0x21D5 JUMP JUMPDEST STOP JUMPDEST CALLVALUE DUP1 ISZERO PUSH2 0x568 JUMPI PUSH1 0x0 DUP1 REVERT JUMPDEST POP PUSH2 0x583 PUSH1 0x4 DUP1 CALLDATASIZE SUB DUP2 ADD SWAP1 PUSH2 0x57E SWAP2 SWAP1 PUSH2 0x2C21 JUMP JUMPDEST PUSH2 0x2201 JUMP JUMPDEST PUSH1 0x40 MLOAD PUSH2 0x598 SWAP10 SWAP9 SWAP8 SWAP7 SWAP6 SWAP5 SWAP4 SWAP3 SWAP2 SWAP1 PUSH2 0x3304 JUMP JUMPDEST PUSH1 0x40 MLOAD DUP1 SWAP2 SUB SWAP1 RETURN JUMPDEST CALLVALUE DUP1 ISZERO PUSH2 0x5AD JUMPI PUSH1 0x0 DUP1 REVERT JUMPDEST POP PUSH2 0x5B6 PUSH2 0x23A7 JUMP JUMPDEST PUSH1 0x40 MLOAD PUSH2 0x5C3 SWAP2 SWAP1 PUSH2 0x31AE JUMP JUMPDEST PUSH1 0x40 MLOAD DUP1 SWAP2 SUB SWAP1 RETURN JUMPDEST CALLVALUE DUP1 ISZERO PUSH2 0x5D8 JUMPI PUSH1 0x0 DUP1 REVERT JUMPDEST POP PUSH2 0x5F3 PUSH1 0x4 DUP1 CALLDATASIZE SUB DUP2 ADD SWAP1 PUSH2 0x5EE SWAP2 SWAP1 PUSH2 0x2AB6 JUMP JUMPDEST PUSH2 0x23CB JUMP JUMPDEST PUSH1 0x40 MLOAD PUSH2 0x600 SWAP2 SWAP1 PUSH2 0x32E9 JUMP JUMPDEST PUSH1 0x40 MLOAD DUP1 SWAP2 SUB SWAP1 RETURN JUMPDEST CALLVALUE DUP1 ISZERO PUSH2 0x615 JUMPI PUSH1 0x0 DUP1 REVERT JUMPDEST POP PUSH2 0x630 PUSH1 0x4 DUP1 CALLDATASIZE SUB DUP2 ADD SWAP1 PUSH2 0x62B SWAP2 SWAP1 PUSH2 0x2A89 JUMP JUMPDEST PUSH2 0x23EE JUMP JUMPDEST STOP JUMPDEST CALLVALUE DUP1 ISZERO PUSH2 0x63E JUMPI PUSH1 0x0 DUP1 REVERT JUMPDEST POP PUSH2 0x647 PUSH2 0x245C JUMP JUMPDEST PUSH1 0x40 MLOAD PUSH2 0x654 SWAP2 SWAP1 PUSH2 0x31AE JUMP JUMPDEST PUSH1 0x40 MLOAD DUP1 SWAP2 SUB SWAP1 RETURN JUMPDEST PUSH2 0x687 PUSH32 0x52454E5445520000000000000000000000000000000000000000000000000000 DUP3 PUSH2 0x2480 JUMP JUMPDEST POP JUMP JUMPDEST PUSH1 0x0 PUSH2 0x695 CALLER PUSH2 0xA28 JUMP JUMPDEST PUSH2 0x6D4 JUMPI PUSH1 0x40 MLOAD PUSH32 0x8C379A000000000000000000000000000000000000000000000000000000000 DUP2 MSTORE PUSH1 0x4 ADD PUSH2 0x6CB SWAP1 PUSH2 0x3229 JUMP JUMPDEST PUSH1 0x40 MLOAD DUP1 SWAP2 SUB SWAP1 REVERT JUMPDEST PUSH1 0x1 PUSH1 0x3 SLOAD PUSH2 0x6E3 SWAP2 SWAP1 PUSH2 0x3426 JUMP JUMPDEST PUSH1 0x6 DUP1 SLOAD SWAP1 POP LT PUSH2 0x729 JUMPI PUSH1 0x40 MLOAD PUSH32 0x8C379A000000000000000000000000000000000000000000000000000000000 DUP2 MSTORE PUSH1 0x4 ADD PUSH2 0x720 SWAP1 PUSH2 0x31E9 JUMP JUMPDEST PUSH1 0x40 MLOAD DUP1 SWAP2 SUB SWAP1 REVERT JUMPDEST PUSH1 0x3 PUSH1 0x0 DUP2 SLOAD DUP1 SWAP3 SWAP2 SWAP1 PUSH2 0x73C SWAP1 PUSH2 0x3670 JUMP JUMPDEST SWAP2 SWAP1 POP SSTORE POP PUSH1 0x0 PUSH1 0x40 MLOAD DUP1 PUSH2 0x120 ADD PUSH1 0x40 MSTORE DUP1 PUSH1 0x3 SLOAD DUP2 MSTORE PUSH1 0x20 ADD DUP11 DUP2 MSTORE PUSH1 0x20 ADD DUP10 DUP2 MSTORE PUSH1 0x20 ADD DUP9 PUSH1 0x6 DUP2 GT ISZERO PUSH2 0x776 JUMPI PUSH2 0x775 PUSH2 0x36E8 JUMP JUMPDEST JUMPDEST DUP2 MSTORE PUSH1 0x20 ADD DUP8 DUP2 MSTORE PUSH1 0x20 ADD DUP7 DUP2 MSTORE PUSH1 0x20 ADD DUP6 DUP2 MSTORE PUSH1 0x20 ADD DUP5 DUP2 MSTORE PUSH1 0x20 ADD PUSH1 0x0 PUSH1 0x1 DUP2 GT ISZERO PUSH2 0x7A7 JUMPI PUSH2 0x7A6 PUSH2 0x36E8 JUMP JUMPDEST JUMPDEST DUP2 MSTORE POP SWAP1 POP DUP1 PUSH1 0x5 PUSH1 0x0 PUSH1 0x3 SLOAD DUP2 MSTORE PUSH1 0x20 ADD SWAP1 DUP2 MSTORE PUSH1 0x20 ADD PUSH1 0x0 KECCAK256 PUSH1 0x0 DUP3 ADD MLOAD DUP2 PUSH1 0x0 ADD SSTORE PUSH1 0x20 DUP3 ADD MLOAD DUP2 PUSH1 0x1 ADD SSTORE PUSH1 0x40 DUP3 ADD MLOAD DUP2 PUSH1 0x2 ADD SSTORE PUSH1 0x60 DUP3 ADD MLOAD DUP2 PUSH1 0x3 ADD PUSH1 0x0 PUSH2 0x100 EXP DUP2 SLOAD DUP2 PUSH1 0xFF MUL NOT AND SWAP1 DUP4 PUSH1 0x6 DUP2 GT ISZERO PUSH2 0x80B JUMPI PUSH2 0x80A PUSH2 0x36E8 JUMP JUMPDEST JUMPDEST MUL OR SWAP1 SSTORE POP PUSH1 0x80 DUP3 ADD MLOAD DUP2 PUSH1 0x4 ADD PUSH1 0x0 DUP3 ADD MLOAD DUP2 PUSH1 0x0 ADD SWAP1 DUP1 MLOAD SWAP1 PUSH1 0x20 ADD SWAP1 PUSH2 0x835 SWAP3 SWAP2 SWAP1 PUSH2 0x284A JUMP JUMPDEST POP PUSH1 0x20 DUP3 ADD MLOAD DUP2 PUSH1 0x1 ADD SWAP1 DUP1 MLOAD SWAP1 PUSH1 0x20 ADD SWAP1 PUSH2 0x852 SWAP3 SWAP2 SWAP1 PUSH2 0x284A JUMP JUMPDEST POP POP POP PUSH1 0xA0 DUP3 ADD MLOAD DUP2 PUSH1 0x6 ADD SSTORE PUSH1 0xC0 DUP3 ADD MLOAD DUP2 PUSH1 0x7 ADD SSTORE PUSH1 0xE0 DUP3 ADD MLOAD DUP2 PUSH1 0x8 ADD SSTORE PUSH2 0x100 DUP3 ADD MLOAD DUP2 PUSH1 0x9 ADD PUSH1 0x0 PUSH2 0x100 EXP DUP2 SLOAD DUP2 PUSH1 0xFF MUL NOT AND SWAP1 DUP4 PUSH1 0x1 DUP2 GT ISZERO PUSH2 0x89F JUMPI PUSH2 0x89E PUSH2 0x36E8 JUMP JUMPDEST JUMPDEST MUL OR SWAP1 SSTORE POP SWAP1 POP POP PUSH1 0x6 DUP2 SWAP1 DUP1 PUSH1 0x1 DUP2 SLOAD ADD DUP1 DUP3 SSTORE DUP1 SWAP2 POP POP PUSH1 0x1 SWAP1 SUB SWAP1 PUSH1 0x0 MSTORE PUSH1 0x20 PUSH1 0x0 KECCAK256 SWAP1 PUSH1 0xA MUL ADD PUSH1 0x0 SWAP1 SWAP2 SWAP1 SWAP2 SWAP1 SWAP2 POP PUSH1 0x0 DUP3 ADD MLOAD DUP2 PUSH1 0x0 ADD SSTORE PUSH1 0x20 DUP3 ADD MLOAD DUP2 PUSH1 0x1 ADD SSTORE PUSH1 0x40 DUP3 ADD MLOAD DUP2 PUSH1 0x2 ADD SSTORE PUSH1 0x60 DUP3 ADD MLOAD DUP2 PUSH1 0x3 ADD PUSH1 0x0 PUSH2 0x100 EXP DUP2 SLOAD DUP2 PUSH1 0xFF MUL NOT AND SWAP1 DUP4 PUSH1 0x6 DUP2 GT ISZERO PUSH2 0x91C JUMPI PUSH2 0x91B PUSH2 0x36E8 JUMP JUMPDEST JUMPDEST MUL OR SWAP1 SSTORE POP PUSH1 0x80 DUP3 ADD MLOAD DUP2 PUSH1 0x4 ADD PUSH1 0x0 DUP3 ADD MLOAD DUP2 PUSH1 0x0 ADD SWAP1 DUP1 MLOAD SWAP1 PUSH1 0x20 ADD SWAP1 PUSH2 0x946 SWAP3 SWAP2 SWAP1 PUSH2 0x284A JUMP JUMPDEST POP PUSH1 0x20 DUP3 ADD MLOAD DUP2 PUSH1 0x1 ADD SWAP1 DUP1 MLOAD SWAP1 PUSH1 0x20 ADD SWAP1 PUSH2 0x963 SWAP3 SWAP2 SWAP1 PUSH2 0x284A JUMP JUMPDEST POP POP POP PUSH1 0xA0 DUP3 ADD MLOAD DUP2 PUSH1 0x6 ADD SSTORE PUSH1 0xC0 DUP3 ADD MLOAD DUP2 PUSH1 0x7 ADD SSTORE PUSH1 0xE0 DUP3 ADD MLOAD DUP2 PUSH1 0x8 ADD SSTORE PUSH2 0x100 DUP3 ADD MLOAD DUP2 PUSH1 0x9 ADD PUSH1 0x0 PUSH2 0x100 EXP DUP2 SLOAD DUP2 PUSH1 0xFF MUL NOT AND SWAP1 DUP4 PUSH1 0x1 DUP2 GT ISZERO PUSH2 0x9B0 JUMPI PUSH2 0x9AF PUSH2 0x36E8 JUMP JUMPDEST JUMPDEST MUL OR SWAP1 SSTORE POP POP POP PUSH1 0x3 SLOAD PUSH1 0x6 DUP1 SLOAD SWAP1 POP EQ SWAP2 POP POP SWAP8 SWAP7 POP POP POP POP POP POP POP JUMP JUMPDEST PUSH2 0x9F9 PUSH32 0x4F574E4552000000000000000000000000000000000000000000000000000000 DUP3 PUSH2 0x2480 JUMP JUMPDEST POP JUMP JUMPDEST PUSH2 0xA26 PUSH32 0x4F574E4552000000000000000000000000000000000000000000000000000000 CALLER PUSH2 0x2480 JUMP JUMPDEST JUMP JUMPDEST PUSH1 0x0 PUSH2 0xA54 PUSH32 0x4F574E4552000000000000000000000000000000000000000000000000000000 DUP4 PUSH2 0x1A2F JUMP JUMPDEST SWAP1 POP SWAP2 SWAP1 POP JUMP JUMPDEST PUSH1 0x0 PUSH2 0xA66 CALLER PUSH2 0x1A63 JUMP JUMPDEST PUSH2 0xAA5 JUMPI PUSH1 0x40 MLOAD PUSH32 0x8C379A000000000000000000000000000000000000000000000000000000000 DUP2 MSTORE PUSH1 0x4 ADD PUSH2 0xA9C SWAP1 PUSH2 0x32A9 JUMP JUMPDEST PUSH1 0x40 MLOAD DUP1 SWAP2 SUB SWAP1 REVERT JUMPDEST DUP4 PUSH1 0x0 PUSH1 0x1 DUP2 GT ISZERO PUSH2 0xABA JUMPI PUSH2 0xAB9 PUSH2 0x36E8 JUMP JUMPDEST JUMPDEST PUSH1 0x5 PUSH1 0x0 DUP4 DUP2 MSTORE PUSH1 0x20 ADD SWAP1 DUP2 MSTORE PUSH1 0x20 ADD PUSH1 0x0 KECCAK256 PUSH1 0x9 ADD PUSH1 0x0 SWAP1 SLOAD SWAP1 PUSH2 0x100 EXP SWAP1 DIV PUSH1 0xFF AND PUSH1 0x1 DUP2 GT ISZERO PUSH2 0xAF0 JUMPI PUSH2 0xAEF PUSH2 0x36E8 JUMP JUMPDEST JUMPDEST EQ PUSH2 0xB30 JUMPI PUSH1 0x40 MLOAD PUSH32 0x8C379A000000000000000000000000000000000000000000000000000000000 DUP2 MSTORE PUSH1 0x4 ADD PUSH2 0xB27 SWAP1 PUSH2 0x3269 JUMP JUMPDEST PUSH1 0x40 MLOAD DUP1 SWAP2 SUB SWAP1 REVERT JUMPDEST DUP4 PUSH1 0x0 PUSH20 0xFFFFFFFFFFFFFFFFFFFFFFFFFFFFFFFFFFFFFFFF AND PUSH1 0x7 PUSH1 0x0 DUP4 DUP2 MSTORE PUSH1 0x20 ADD SWAP1 DUP2 MSTORE PUSH1 0x20 ADD PUSH1 0x0 KECCAK256 PUSH1 0x0 ADD PUSH1 0x0 SWAP1 SLOAD SWAP1 PUSH2 0x100 EXP SWAP1 DIV PUSH20 0xFFFFFFFFFFFFFFFFFFFFFFFFFFFFFFFFFFFFFFFF AND PUSH20 0xFFFFFFFFFFFFFFFFFFFFFFFFFFFFFFFFFFFFFFFF AND EQ ISZERO PUSH2 0xBD7 JUMPI PUSH1 0x40 MLOAD PUSH32 0x8C379A000000000000000000000000000000000000000000000000000000000 DUP2 MSTORE PUSH1 0x4 ADD PUSH2 0xBCE SWAP1 PUSH2 0x3289 JUMP JUMPDEST PUSH1 0x40 MLOAD DUP1 SWAP2 SUB SWAP1 REVERT JUMPDEST DUP4 PUSH1 0x7 PUSH1 0x0 DUP8 DUP2 MSTORE PUSH1 0x20 ADD SWAP1 DUP2 MSTORE PUSH1 0x20 ADD PUSH1 0x0 KECCAK256 PUSH1 0xE ADD DUP2 SWAP1 SSTORE POP PUSH1 0x4 SLOAD PUSH1 0x8 DUP1 SLOAD SWAP1 POP EQ SWAP3 POP POP POP SWAP4 SWAP3 POP POP POP JUMP JUMPDEST PUSH1 0x8 DUP2 DUP2 SLOAD DUP2 LT PUSH2 0xC17 JUMPI PUSH1 0x0 DUP1 REVERT JUMPDEST SWAP1 PUSH1 0x0 MSTORE PUSH1 0x20 PUSH1 0x0 KECCAK256 SWAP1 PUSH1 0x11 MUL ADD PUSH1 0x0 SWAP2 POP SWAP1 POP DUP1 PUSH1 0x0 ADD PUSH1 0x0 SWAP1 SLOAD SWAP1 PUSH2 0x100 EXP SWAP1 DIV PUSH20 0xFFFFFFFFFFFFFFFFFFFFFFFFFFFFFFFFFFFFFFFF AND SWAP1 DUP1 PUSH1 0x1 ADD PUSH1 0x40 MLOAD DUP1 PUSH2 0x120 ADD PUSH1 0x40 MSTORE SWAP1 DUP2 PUSH1 0x0 DUP3 ADD SLOAD DUP2 MSTORE PUSH1 0x20 ADD PUSH1 0x1 DUP3 ADD SLOAD DUP2 MSTORE PUSH1 0x20 ADD PUSH1 0x2 DUP3 ADD SLOAD DUP2 MSTORE PUSH1 0x20 ADD PUSH1 0x3 DUP3 ADD PUSH1 0x0 SWAP1 SLOAD SWAP1 PUSH2 0x100 EXP SWAP1 DIV PUSH1 0xFF AND PUSH1 0x6 DUP2 GT ISZERO PUSH2 0xCA4 JUMPI PUSH2 0xCA3 PUSH2 0x36E8 JUMP JUMPDEST JUMPDEST PUSH1 0x6 DUP2 GT ISZERO PUSH2 0xCB6 JUMPI PUSH2 0xCB5 PUSH2 0x36E8 JUMP JUMPDEST JUMPDEST DUP2 MSTORE PUSH1 0x20 ADD PUSH1 0x4 DUP3 ADD PUSH1 0x40 MLOAD DUP1 PUSH1 0x40 ADD PUSH1 0x40 MSTORE SWAP1 DUP2 PUSH1 0x0 DUP3 ADD DUP1 SLOAD PUSH2 0xCDA SWAP1 PUSH2 0x360D JUMP JUMPDEST DUP1 PUSH1 0x1F ADD PUSH1 0x20 DUP1 SWAP2 DIV MUL PUSH1 0x20 ADD PUSH1 0x40 MLOAD SWAP1 DUP2 ADD PUSH1 0x40 MSTORE DUP1 SWAP3 SWAP2 SWAP1 DUP2 DUP2 MSTORE PUSH1 0x20 ADD DUP3 DUP1 SLOAD PUSH2 0xD06 SWAP1 PUSH2 0x360D JUMP JUMPDEST DUP1 ISZERO PUSH2 0xD53 JUMPI DUP1 PUSH1 0x1F LT PUSH2 0xD28 JUMPI PUSH2 0x100 DUP1 DUP4 SLOAD DIV MUL DUP4 MSTORE SWAP2 PUSH1 0x20 ADD SWAP2 PUSH2 0xD53 JUMP JUMPDEST DUP3 ADD SWAP2 SWAP1 PUSH1 0x0 MSTORE PUSH1 0x20 PUSH1 0x0 KECCAK256 SWAP1 JUMPDEST DUP2 SLOAD DUP2 MSTORE SWAP1 PUSH1 0x1 ADD SWAP1 PUSH1 0x20 ADD DUP1 DUP4 GT PUSH2 0xD36 JUMPI DUP3 SWAP1 SUB PUSH1 0x1F AND DUP3 ADD SWAP2 JUMPDEST POP POP POP POP POP DUP2 MSTORE PUSH1 0x20 ADD PUSH1 0x1 DUP3 ADD DUP1 SLOAD PUSH2 0xD6C SWAP1 PUSH2 0x360D JUMP JUMPDEST DUP1 PUSH1 0x1F ADD PUSH1 0x20 DUP1 SWAP2 DIV MUL PUSH1 0x20 ADD PUSH1 0x40 MLOAD SWAP1 DUP2 ADD PUSH1 0x40 MSTORE DUP1 SWAP3 SWAP2 SWAP1 DUP2 DUP2 MSTORE PUSH1 0x20 ADD DUP3 DUP1 SLOAD PUSH2 0xD98 SWAP1 PUSH2 0x360D JUMP JUMPDEST DUP1 ISZERO PUSH2 0xDE5 JUMPI DUP1 PUSH1 0x1F LT PUSH2 0xDBA JUMPI PUSH2 0x100 DUP1 DUP4 SLOAD DIV MUL DUP4 MSTORE SWAP2 PUSH1 0x20 ADD SWAP2 PUSH2 0xDE5 JUMP JUMPDEST DUP3 ADD SWAP2 SWAP1 PUSH1 0x0 MSTORE PUSH1 0x20 PUSH1 0x0 KECCAK256 SWAP1 JUMPDEST DUP2 SLOAD DUP2 MSTORE SWAP1 PUSH1 0x1 ADD SWAP1 PUSH1 0x20 ADD DUP1 DUP4 GT PUSH2 0xDC8 JUMPI DUP3 SWAP1 SUB PUSH1 0x1F AND DUP3 ADD SWAP2 JUMPDEST POP POP POP POP POP DUP2 MSTORE POP POP DUP2 MSTORE PUSH1 0x20 ADD PUSH1 0x6 DUP3 ADD SLOAD DUP2 MSTORE PUSH1 0x20 ADD PUSH1 0x7 DUP3 ADD SLOAD DUP2 MSTORE PUSH1 0x20 ADD PUSH1 0x8 DUP3 ADD SLOAD DUP2 MSTORE PUSH1 0x20 ADD PUSH1 0x9 DUP3 ADD PUSH1 0x0 SWAP1 SLOAD SWAP1 PUSH2 0x100 EXP SWAP1 DIV PUSH1 0xFF AND PUSH1 0x1 DUP2 GT ISZERO PUSH2 0xE35 JUMPI PUSH2 0xE34 PUSH2 0x36E8 JUMP JUMPDEST JUMPDEST PUSH1 0x1 DUP2 GT ISZERO PUSH2 0xE47 JUMPI PUSH2 0xE46 PUSH2 0x36E8 JUMP JUMPDEST JUMPDEST DUP2 MSTORE POP POP SWAP1 DUP1 PUSH1 0xB ADD PUSH1 0x40 MLOAD DUP1 PUSH1 0x40 ADD PUSH1 0x40 MSTORE SWAP1 DUP2 PUSH1 0x0 DUP3 ADD SLOAD DUP2 MSTORE PUSH1 0x20 ADD PUSH1 0x1 DUP3 ADD SLOAD DUP2 MSTORE POP POP SWAP1 DUP1 PUSH1 0xD ADD SLOAD SWAP1 DUP1 PUSH1 0xE ADD SLOAD SWAP1 DUP1 PUSH1 0xF ADD SLOAD SWAP1 DUP1 PUSH1 0x10 ADD PUSH1 0x0 SWAP1 SLOAD SWAP1 PUSH2 0x100 EXP SWAP1 DIV PUSH1 0xFF AND SWAP1 POP DUP8 JUMP JUMPDEST PUSH1 0x5 PUSH1 0x20 MSTORE DUP1 PUSH1 0x0 MSTORE PUSH1 0x40 PUSH1 0x0 KECCAK256 PUSH1 0x0 SWAP2 POP SWAP1 POP DUP1 PUSH1 0x0 ADD SLOAD SWAP1 DUP1 PUSH1 0x1 ADD SLOAD SWAP1 DUP1 PUSH1 0x2 ADD SLOAD SWAP1 DUP1 PUSH1 0x3 ADD PUSH1 0x0 SWAP1 SLOAD SWAP1 PUSH2 0x100 EXP SWAP1 DIV PUSH1 0xFF AND SWAP1 DUP1 PUSH1 0x4 ADD PUSH1 0x40 MLOAD DUP1 PUSH1 0x40 ADD PUSH1 0x40 MSTORE SWAP1 DUP2 PUSH1 0x0 DUP3 ADD DUP1 SLOAD PUSH2 0xEF1 SWAP1 PUSH2 0x360D JUMP JUMPDEST DUP1 PUSH1 0x1F ADD PUSH1 0x20 DUP1 SWAP2 DIV MUL PUSH1 0x20 ADD PUSH1 0x40 MLOAD SWAP1 DUP2 ADD PUSH1 0x40 MSTORE DUP1 SWAP3 SWAP2 SWAP1 DUP2 DUP2 MSTORE PUSH1 0x20 ADD DUP3 DUP1 SLOAD PUSH2 0xF1D SWAP1 PUSH2 0x360D JUMP JUMPDEST DUP1 ISZERO PUSH2 0xF6A JUMPI DUP1 PUSH1 0x1F LT PUSH2 0xF3F JUMPI PUSH2 0x100 DUP1 DUP4 SLOAD DIV MUL DUP4 MSTORE SWAP2 PUSH1 0x20 ADD SWAP2 PUSH2 0xF6A JUMP JUMPDEST DUP3 ADD SWAP2 SWAP1 PUSH1 0x0 MSTORE PUSH1 0x20 PUSH1 0x0 KECCAK256 SWAP1 JUMPDEST DUP2 SLOAD DUP2 MSTORE SWAP1 PUSH1 0x1 ADD SWAP1 PUSH1 0x20 ADD DUP1 DUP4 GT PUSH2 0xF4D JUMPI DUP3 SWAP1 SUB PUSH1 0x1F AND DUP3 ADD SWAP2 JUMPDEST POP POP POP POP POP DUP2 MSTORE PUSH1 0x20 ADD PUSH1 0x1 DUP3 ADD DUP1 SLOAD PUSH2 0xF83 SWAP1 PUSH2 0x360D JUMP JUMPDEST DUP1 PUSH1 0x1F ADD PUSH1 0x20 DUP1 SWAP2 DIV MUL PUSH1 0x20 ADD PUSH1 0x40 MLOAD SWAP1 DUP2 ADD PUSH1 0x40 MSTORE DUP1 SWAP3 SWAP2 SWAP1 DUP2 DUP2 MSTORE PUSH1 0x20 ADD DUP3 DUP1 SLOAD PUSH2 0xFAF SWAP1 PUSH2 0x360D JUMP JUMPDEST DUP1 ISZERO PUSH2 0xFFC JUMPI DUP1 PUSH1 0x1F LT PUSH2 0xFD1 JUMPI PUSH2 0x100 DUP1 DUP4 SLOAD DIV MUL DUP4 MSTORE SWAP2 PUSH1 0x20 ADD SWAP2 PUSH2 0xFFC JUMP JUMPDEST DUP3 ADD SWAP2 SWAP1 PUSH1 0x0 MSTORE PUSH1 0x20 PUSH1 0x0 KECCAK256 SWAP1 JUMPDEST DUP2 SLOAD DUP2 MSTORE SWAP1 PUSH1 0x1 ADD SWAP1 PUSH1 0x20 ADD DUP1 DUP4 GT PUSH2 0xFDF JUMPI DUP3 SWAP1 SUB PUSH1 0x1F AND DUP3 ADD SWAP2 JUMPDEST POP POP POP POP POP DUP2 MSTORE POP POP SWAP1 DUP1 PUSH1 0x6 ADD SLOAD SWAP1 DUP1 PUSH1 0x7 ADD SLOAD SWAP1 DUP1 PUSH1 0x8 ADD SLOAD SWAP1 DUP1 PUSH1 0x9 ADD PUSH1 0x0 SWAP1 SLOAD SWAP1 PUSH2 0x100 EXP SWAP1 DIV PUSH1 0xFF AND SWAP1 POP DUP10 JUMP JUMPDEST DUP1 PUSH1 0x2 PUSH1 0x0 PUSH2 0x100 EXP DUP2 SLOAD DUP2 PUSH20 0xFFFFFFFFFFFFFFFFFFFFFFFFFFFFFFFFFFFFFFFF MUL NOT AND SWAP1 DUP4 PUSH20 0xFFFFFFFFFFFFFFFFFFFFFFFFFFFFFFFFFFFFFFFF AND MUL OR SWAP1 SSTORE POP PUSH2 0x109A PUSH32 0x4F574E4552000000000000000000000000000000000000000000000000000000 DUP3 PUSH2 0x2510 JUMP JUMPDEST POP JUMP JUMPDEST POP JUMP JUMPDEST PUSH1 0x0 PUSH2 0x10AB CALLER PUSH2 0x1A63 JUMP JUMPDEST PUSH2 0x10EA JUMPI PUSH1 0x40 MLOAD PUSH32 0x8C379A000000000000000000000000000000000000000000000000000000000 DUP2 MSTORE PUSH1 0x4 ADD PUSH2 0x10E1 SWAP1 PUSH2 0x32A9 JUMP JUMPDEST PUSH1 0x40 MLOAD DUP1 SWAP2 SUB SWAP1 REVERT JUMPDEST DUP2 PUSH1 0x0 PUSH1 0x5 PUSH1 0x0 DUP4 DUP2 MSTORE PUSH1 0x20 ADD SWAP1 DUP2 MSTORE PUSH1 0x20 ADD PUSH1 0x0 KECCAK256 PUSH1 0x0 ADD SLOAD GT PUSH2 0x1144 JUMPI PUSH1 0x40 MLOAD PUSH32 0x8C379A000000000000000000000000000000000000000000000000000000000 DUP2 MSTORE PUSH1 0x4 ADD PUSH2 0x113B SWAP1 PUSH2 0x32C9 JUMP JUMPDEST PUSH1 0x40 MLOAD DUP1 SWAP2 SUB SWAP1 REVERT JUMPDEST DUP3 PUSH1 0x0 PUSH1 0x1 DUP2 GT ISZERO PUSH2 0x1159 JUMPI PUSH2 0x1158 PUSH2 0x36E8 JUMP JUMPDEST JUMPDEST PUSH1 0x5 PUSH1 0x0 DUP4 DUP2 MSTORE PUSH1 0x20 ADD SWAP1 DUP2 MSTORE PUSH1 0x20 ADD PUSH1 0x0 KECCAK256 PUSH1 0x9 ADD PUSH1 0x0 SWAP1 SLOAD SWAP1 PUSH2 0x100 EXP SWAP1 DIV PUSH1 0xFF AND PUSH1 0x1 DUP2 GT ISZERO PUSH2 0x118F JUMPI PUSH2 0x118E PUSH2 0x36E8 JUMP JUMPDEST JUMPDEST EQ PUSH2 0x11CF JUMPI PUSH1 0x40 MLOAD PUSH32 0x8C379A000000000000000000000000000000000000000000000000000000000 DUP2 MSTORE PUSH1 0x4 ADD PUSH2 0x11C6 SWAP1 PUSH2 0x3269 JUMP JUMPDEST PUSH1 0x40 MLOAD DUP1 SWAP2 SUB SWAP1 REVERT JUMPDEST DUP5 PUSH1 0x0 PUSH20 0xFFFFFFFFFFFFFFFFFFFFFFFFFFFFFFFFFFFFFFFF AND PUSH1 0x7 PUSH1 0x0 DUP4 DUP2 MSTORE PUSH1 0x20 ADD SWAP1 DUP2 MSTORE PUSH1 0x20 ADD PUSH1 0x0 KECCAK256 PUSH1 0x0 ADD PUSH1 0x0 SWAP1 SLOAD SWAP1 PUSH2 0x100 EXP SWAP1 DIV PUSH20 0xFFFFFFFFFFFFFFFFFFFFFFFFFFFFFFFFFFFFFFFF AND PUSH20 0xFFFFFFFFFFFFFFFFFFFFFFFFFFFFFFFFFFFFFFFF AND EQ ISZERO PUSH2 0x1276 JUMPI PUSH1 0x40 MLOAD PUSH32 0x8C379A000000000000000000000000000000000000000000000000000000000 DUP2 MSTORE PUSH1 0x4 ADD PUSH2 0x126D SWAP1 PUSH2 0x3289 JUMP JUMPDEST PUSH1 0x40 MLOAD DUP1 SWAP2 SUB SWAP1 REVERT JUMPDEST DUP6 PUSH1 0x0 PUSH1 0x7 PUSH1 0x0 DUP4 DUP2 MSTORE PUSH1 0x20 ADD SWAP1 DUP2 MSTORE PUSH1 0x20 ADD PUSH1 0x0 KECCAK256 PUSH1 0xD ADD SLOAD PUSH1 0x7 PUSH1 0x0 DUP5 DUP2 MSTORE PUSH1 0x20 ADD SWAP1 DUP2 MSTORE PUSH1 0x20 ADD PUSH1 0x0 KECCAK256 PUSH1 0xE ADD SLOAD PUSH2 0x12B1 SWAP2 SWAP1 PUSH2 0x3426 JUMP JUMPDEST SWAP1 POP DUP1 PUSH1 0x1 PUSH1 0x0 SWAP1 SLOAD SWAP1 PUSH2 0x100 EXP SWAP1 DIV PUSH20 0xFFFFFFFFFFFFFFFFFFFFFFFFFFFFFFFFFFFFFFFF AND PUSH20 0xFFFFFFFFFFFFFFFFFFFFFFFFFFFFFFFFFFFFFFFF AND BALANCE LT ISZERO PUSH2 0x132F JUMPI PUSH1 0x40 MLOAD PUSH32 0x8C379A000000000000000000000000000000000000000000000000000000000 DUP2 MSTORE PUSH1 0x4 ADD PUSH2 0x1326 SWAP1 PUSH2 0x3209 JUMP JUMPDEST PUSH1 0x40 MLOAD DUP1 SWAP2 SUB SWAP1 REVERT JUMPDEST PUSH1 0x1 PUSH1 0x7 PUSH1 0x0 DUP11 DUP2 MSTORE PUSH1 0x20 ADD SWAP1 DUP2 MSTORE PUSH1 0x20 ADD PUSH1 0x0 KECCAK256 PUSH1 0x10 ADD PUSH1 0x0 PUSH2 0x100 EXP DUP2 SLOAD DUP2 PUSH1 0xFF MUL NOT AND SWAP1 DUP4 PUSH1 0x2 DUP2 GT ISZERO PUSH2 0x1369 JUMPI PUSH2 0x1368 PUSH2 0x36E8 JUMP JUMPDEST JUMPDEST MUL OR SWAP1 SSTORE POP PUSH1 0x1 PUSH1 0x5 PUSH1 0x0 DUP10 DUP2 MSTORE PUSH1 0x20 ADD SWAP1 DUP2 MSTORE PUSH1 0x20 ADD PUSH1 0x0 KECCAK256 PUSH1 0x9 ADD PUSH1 0x0 PUSH2 0x100 EXP DUP2 SLOAD DUP2 PUSH1 0xFF MUL NOT AND SWAP1 DUP4 PUSH1 0x1 DUP2 GT ISZERO PUSH2 0x13A8 JUMPI PUSH2 0x13A7 PUSH2 0x36E8 JUMP JUMPDEST JUMPDEST MUL OR SWAP1 SSTORE POP PUSH1 0x0 PUSH1 0x7 PUSH1 0x0 DUP11 DUP2 MSTORE PUSH1 0x20 ADD SWAP1 DUP2 MSTORE PUSH1 0x20 ADD PUSH1 0x0 KECCAK256 PUSH1 0xE ADD SLOAD PUSH1 0x7 PUSH1 0x0 DUP12 DUP2 MSTORE PUSH1 0x20 ADD SWAP1 DUP2 MSTORE PUSH1 0x20 ADD PUSH1 0x0 KECCAK256 PUSH1 0xD ADD SLOAD PUSH2 0x13E7 SWAP2 SWAP1 PUSH2 0x3426 JUMP JUMPDEST SWAP1 POP ADDRESS PUSH20 0xFFFFFFFFFFFFFFFFFFFFFFFFFFFFFFFFFFFFFFFF AND PUSH4 0x74539CD0 DUP3 PUSH1 0x40 MLOAD DUP3 PUSH4 0xFFFFFFFF AND PUSH1 0xE0 SHL DUP2 MSTORE PUSH1 0x4 ADD PUSH2 0x1422 SWAP2 SWAP1 PUSH2 0x32E9 JUMP JUMPDEST PUSH1 0x0 PUSH1 0x40 MLOAD DUP1 DUP4 SUB DUP2 PUSH1 0x0 DUP8 DUP1 EXTCODESIZE ISZERO DUP1 ISZERO PUSH2 0x143C JUMPI PUSH1 0x0 DUP1 REVERT JUMPDEST POP GAS CALL ISZERO DUP1 ISZERO PUSH2 0x1450 JUMPI RETURNDATASIZE PUSH1 0x0 DUP1 RETURNDATACOPY RETURNDATASIZE PUSH1 0x0 REVERT JUMPDEST POP POP POP POP PUSH1 0x4 SLOAD PUSH1 0x8 DUP1 SLOAD SWAP1 POP EQ SWAP7 POP POP POP POP POP POP POP SWAP3 SWAP2 POP POP JUMP JUMPDEST PUSH1 0x7 PUSH1 0x20 MSTORE DUP1 PUSH1 0x0 MSTORE PUSH1 0x40 PUSH1 0x0 KECCAK256 PUSH1 0x0 SWAP2 POP SWAP1 POP DUP1 PUSH1 0x0 ADD PUSH1 0x0 SWAP1 SLOAD SWAP1 PUSH2 0x100 EXP SWAP1 DIV PUSH20 0xFFFFFFFFFFFFFFFFFFFFFFFFFFFFFFFFFFFFFFFF AND SWAP1 DUP1 PUSH1 0x1 ADD PUSH1 0x40 MLOAD DUP1 PUSH2 0x120 ADD PUSH1 0x40 MSTORE SWAP1 DUP2 PUSH1 0x0 DUP3 ADD SLOAD DUP2 MSTORE PUSH1 0x20 ADD PUSH1 0x1 DUP3 ADD SLOAD DUP2 MSTORE PUSH1 0x20 ADD PUSH1 0x2 DUP3 ADD SLOAD DUP2 MSTORE PUSH1 0x20 ADD PUSH1 0x3 DUP3 ADD PUSH1 0x0 SWAP1 SLOAD SWAP1 PUSH2 0x100 EXP SWAP1 DIV PUSH1 0xFF AND PUSH1 0x6 DUP2 GT ISZERO PUSH2 0x14F9 JUMPI PUSH2 0x14F8 PUSH2 0x36E8 JUMP JUMPDEST JUMPDEST PUSH1 0x6 DUP2 GT ISZERO PUSH2 0x150B JUMPI PUSH2 0x150A PUSH2 0x36E8 JUMP JUMPDEST JUMPDEST DUP2 MSTORE PUSH1 0x20 ADD PUSH1 0x4 DUP3 ADD PUSH1 0x40 MLOAD DUP1 PUSH1 0x40 ADD PUSH1 0x40 MSTORE SWAP1 DUP2 PUSH1 0x0 DUP3 ADD DUP1 SLOAD PUSH2 0x152F SWAP1 PUSH2 0x360D JUMP JUMPDEST DUP1 PUSH1 0x1F ADD PUSH1 0x20 DUP1 SWAP2 DIV MUL PUSH1 0x20 ADD PUSH1 0x40 MLOAD SWAP1 DUP2 ADD PUSH1 0x40 MSTORE DUP1 SWAP3 SWAP2 SWAP1 DUP2 DUP2 MSTORE PUSH1 0x20 ADD DUP3 DUP1 SLOAD PUSH2 0x155B SWAP1 PUSH2 0x360D JUMP JUMPDEST DUP1 ISZERO PUSH2 0x15A8 JUMPI DUP1 PUSH1 0x1F LT PUSH2 0x157D JUMPI PUSH2 0x100 DUP1 DUP4 SLOAD DIV MUL DUP4 MSTORE SWAP2 PUSH1 0x20 ADD SWAP2 PUSH2 0x15A8 JUMP JUMPDEST DUP3 ADD SWAP2 SWAP1 PUSH1 0x0 MSTORE PUSH1 0x20 PUSH1 0x0 KECCAK256 SWAP1 JUMPDEST DUP2 SLOAD DUP2 MSTORE SWAP1 PUSH1 0x1 ADD SWAP1 PUSH1 0x20 ADD DUP1 DUP4 GT PUSH2 0x158B JUMPI DUP3 SWAP1 SUB PUSH1 0x1F AND DUP3 ADD SWAP2 JUMPDEST POP POP POP POP POP DUP2 MSTORE PUSH1 0x20 ADD PUSH1 0x1 DUP3 ADD DUP1 SLOAD PUSH2 0x15C1 SWAP1 PUSH2 0x360D JUMP JUMPDEST DUP1 PUSH1 0x1F ADD PUSH1 0x20 DUP1 SWAP2 DIV MUL PUSH1 0x20 ADD PUSH1 0x40 MLOAD SWAP1 DUP2 ADD PUSH1 0x40 MSTORE DUP1 SWAP3 SWAP2 SWAP1 DUP2 DUP2 MSTORE PUSH1 0x20 ADD DUP3 DUP1 SLOAD PUSH2 0x15ED SWAP1 PUSH2 0x360D JUMP JUMPDEST DUP1 ISZERO PUSH2 0x163A JUMPI DUP1 PUSH1 0x1F LT PUSH2 0x160F JUMPI PUSH2 0x100 DUP1 DUP4 SLOAD DIV MUL DUP4 MSTORE SWAP2 PUSH1 0x20 ADD SWAP2 PUSH2 0x163A JUMP JUMPDEST DUP3 ADD SWAP2 SWAP1 PUSH1 0x0 MSTORE PUSH1 0x20 PUSH1 0x0 KECCAK256 SWAP1 JUMPDEST DUP2 SLOAD DUP2 MSTORE SWAP1 PUSH1 0x1 ADD SWAP1 PUSH1 0x20 ADD DUP1 DUP4 GT PUSH2 0x161D JUMPI DUP3 SWAP1 SUB PUSH1 0x1F AND DUP3 ADD SWAP2 JUMPDEST POP POP POP POP POP DUP2 MSTORE POP POP DUP2 MSTORE PUSH1 0x20 ADD PUSH1 0x6 DUP3 ADD SLOAD DUP2 MSTORE PUSH1 0x20 ADD PUSH1 0x7 DUP3 ADD SLOAD DUP2 MSTORE PUSH1 0x20 ADD PUSH1 0x8 DUP3 ADD SLOAD DUP2 MSTORE PUSH1 0x20 ADD PUSH1 0x9 DUP3 ADD PUSH1 0x0 SWAP1 SLOAD SWAP1 PUSH2 0x100 EXP SWAP1 DIV PUSH1 0xFF AND PUSH1 0x1 DUP2 GT ISZERO PUSH2 0x168A JUMPI PUSH2 0x1689 PUSH2 0x36E8 JUMP JUMPDEST JUMPDEST PUSH1 0x1 DUP2 GT ISZERO PUSH2 0x169C JUMPI PUSH2 0x169B PUSH2 0x36E8 JUMP JUMPDEST JUMPDEST DUP2 MSTORE POP POP SWAP1 DUP1 PUSH1 0xB ADD PUSH1 0x40 MLOAD DUP1 PUSH1 0x40 ADD PUSH1 0x40 MSTORE SWAP1 DUP2 PUSH1 0x0 DUP3 ADD SLOAD DUP2 MSTORE PUSH1 0x20 ADD PUSH1 0x1 DUP3 ADD SLOAD DUP2 MSTORE POP POP SWAP1 DUP1 PUSH1 0xD ADD SLOAD SWAP1 DUP1 PUSH1 0xE ADD SLOAD SWAP1 DUP1 PUSH1 0xF ADD SLOAD SWAP1 DUP1 PUSH1 0x10 ADD PUSH1 0x0 SWAP1 SLOAD SWAP1 PUSH2 0x100 EXP SWAP1 DIV PUSH1 0xFF AND SWAP1 POP DUP8 JUMP JUMPDEST PUSH1 0x4 SLOAD DUP2 JUMP JUMPDEST PUSH1 0x0 PUSH2 0x16FF CALLER PUSH2 0x1A63 JUMP JUMPDEST PUSH2 0x173E JUMPI PUSH1 0x40 MLOAD PUSH32 0x8C379A000000000000000000000000000000000000000000000000000000000 DUP2 MSTORE PUSH1 0x4 ADD PUSH2 0x1735 SWAP1 PUSH2 0x32A9 JUMP JUMPDEST PUSH1 0x40 MLOAD DUP1 SWAP2 SUB SWAP1 REVERT JUMPDEST DUP2 PUSH1 0x0 PUSH1 0x5 PUSH1 0x0 DUP4 DUP2 MSTORE PUSH1 0x20 ADD SWAP1 DUP2 MSTORE PUSH1 0x20 ADD PUSH1 0x0 KECCAK256 PUSH1 0x0 ADD SLOAD GT PUSH2 0x1798 JUMPI PUSH1 0x40 MLOAD PUSH32 0x8C379A000000000000000000000000000000000000000000000000000000000 DUP2 MSTORE PUSH1 0x4 ADD PUSH2 0x178F SWAP1 PUSH2 0x32C9 JUMP JUMPDEST PUSH1 0x40 MLOAD DUP1 SWAP2 SUB SWAP1 REVERT JUMPDEST DUP4 PUSH1 0x0 PUSH20 0xFFFFFFFFFFFFFFFFFFFFFFFFFFFFFFFFFFFFFFFF AND PUSH1 0x7 PUSH1 0x0 DUP4 DUP2 MSTORE PUSH1 0x20 ADD SWAP1 DUP2 MSTORE PUSH1 0x20 ADD PUSH1 0x0 KECCAK256 PUSH1 0x0 ADD PUSH1 0x0 SWAP1 SLOAD SWAP1 PUSH2 0x100 EXP SWAP1 DIV PUSH20 0xFFFFFFFFFFFFFFFFFFFFFFFFFFFFFFFFFFFFFFFF AND PUSH20 0xFFFFFFFFFFFFFFFFFFFFFFFFFFFFFFFFFFFFFFFF AND EQ ISZERO PUSH2 0x183F JUMPI PUSH1 0x40 MLOAD PUSH32 0x8C379A000000000000000000000000000000000000000000000000000000000 DUP2 MSTORE PUSH1 0x4 ADD PUSH2 0x1836 SWAP1 PUSH2 0x3289 JUMP JUMPDEST PUSH1 0x40 MLOAD DUP1 SWAP2 SUB SWAP1 REVERT JUMPDEST DUP5 PUSH1 0x0 PUSH1 0x7 PUSH1 0x0 DUP4 DUP2 MSTORE PUSH1 0x20 ADD SWAP1 DUP2 MSTORE PUSH1 0x20 ADD PUSH1 0x0 KECCAK256 PUSH1 0xE ADD SLOAD SWAP1 POP DUP1 SELFBALANCE LT ISZERO PUSH2 0x189E JUMPI PUSH1 0x40 MLOAD PUSH32 0x8C379A000000000000000000000000000000000000000000000000000000000 DUP2 MSTORE PUSH1 0x4 ADD PUSH2 0x1895 SWAP1 PUSH2 0x3209 JUMP JUMPDEST PUSH1 0x40 MLOAD DUP1 SWAP2 SUB SWAP1 REVERT JUMPDEST PUSH1 0x2 PUSH1 0x7 PUSH1 0x0 DUP10 DUP2 MSTORE PUSH1 0x20 ADD SWAP1 DUP2 MSTORE PUSH1 0x20 ADD PUSH1 0x0 KECCAK256 PUSH1 0x10 ADD PUSH1 0x0 PUSH2 0x100 EXP DUP2 SLOAD DUP2 PUSH1 0xFF MUL NOT AND SWAP1 DUP4 PUSH1 0x2 DUP2 GT ISZERO PUSH2 0x18D8 JUMPI PUSH2 0x18D7 PUSH2 0x36E8 JUMP JUMPDEST JUMPDEST MUL OR SWAP1 SSTORE POP PUSH1 0x0 PUSH1 0x5 PUSH1 0x0 DUP9 DUP2 MSTORE PUSH1 0x20 ADD SWAP1 DUP2 MSTORE PUSH1 0x20 ADD PUSH1 0x0 KECCAK256 PUSH1 0x9 ADD PUSH1 0x0 PUSH2 0x100 EXP DUP2 SLOAD DUP2 PUSH1 0xFF MUL NOT AND SWAP1 DUP4 PUSH1 0x1 DUP2 GT ISZERO PUSH2 0x1917 JUMPI PUSH2 0x1916 PUSH2 0x36E8 JUMP JUMPDEST JUMPDEST MUL OR SWAP1 SSTORE POP PUSH1 0x0 PUSH1 0x7 PUSH1 0x0 DUP10 DUP2 MSTORE PUSH1 0x20 ADD SWAP1 DUP2 MSTORE PUSH1 0x20 ADD PUSH1 0x0 KECCAK256 PUSH1 0xE ADD SLOAD SWAP1 POP PUSH1 0x0 CALLER SWAP1 POP PUSH1 0x0 DUP2 PUSH20 0xFFFFFFFFFFFFFFFFFFFFFFFFFFFFFFFFFFFFFFFF AND DUP4 PUSH1 0x40 MLOAD PUSH2 0x1962 SWAP1 PUSH2 0x30EC JUMP JUMPDEST PUSH1 0x0 PUSH1 0x40 MLOAD DUP1 DUP4 SUB DUP2 DUP6 DUP8 GAS CALL SWAP3 POP POP POP RETURNDATASIZE DUP1 PUSH1 0x0 DUP2 EQ PUSH2 0x199F JUMPI PUSH1 0x40 MLOAD SWAP2 POP PUSH1 0x1F NOT PUSH1 0x3F RETURNDATASIZE ADD AND DUP3 ADD PUSH1 0x40 MSTORE RETURNDATASIZE DUP3 MSTORE RETURNDATASIZE PUSH1 0x0 PUSH1 0x20 DUP5 ADD RETURNDATACOPY PUSH2 0x19A4 JUMP JUMPDEST PUSH1 0x60 SWAP2 POP JUMPDEST POP POP SWAP1 POP DUP1 PUSH2 0x19E8 JUMPI PUSH1 0x40 MLOAD PUSH32 0x8C379A000000000000000000000000000000000000000000000000000000000 DUP2 MSTORE PUSH1 0x4 ADD PUSH2 0x19DF SWAP1 PUSH2 0x3249 JUMP JUMPDEST PUSH1 0x40 MLOAD DUP1 SWAP2 SUB SWAP1 REVERT JUMPDEST PUSH1 0x4 SLOAD PUSH1 0x8 DUP1 SLOAD SWAP1 POP EQ SWAP8 POP POP POP POP POP POP POP POP SWAP3 SWAP2 POP POP JUMP JUMPDEST PUSH1 0x0 PUSH2 0x1A27 DUP3 PUSH1 0x0 DUP1 DUP7 DUP2 MSTORE PUSH1 0x20 ADD SWAP1 DUP2 MSTORE PUSH1 0x20 ADD PUSH1 0x0 KECCAK256 PUSH2 0x25A0 SWAP1 SWAP2 SWAP1 PUSH4 0xFFFFFFFF AND JUMP JUMPDEST SWAP1 POP SWAP3 SWAP2 POP POP JUMP JUMPDEST PUSH1 0x0 PUSH2 0x1A55 DUP3 PUSH1 0x0 DUP1 DUP7 DUP2 MSTORE PUSH1 0x20 ADD SWAP1 DUP2 MSTORE PUSH1 0x20 ADD PUSH1 0x0 KECCAK256 PUSH2 0x25BA SWAP1 SWAP2 SWAP1 PUSH4 0xFFFFFFFF AND JUMP JUMPDEST SWAP1 POP SWAP3 SWAP2 POP POP JUMP JUMPDEST PUSH1 0x3 SLOAD DUP2 JUMP JUMPDEST PUSH1 0x0 PUSH2 0x1A8F PUSH32 0x52454E5445520000000000000000000000000000000000000000000000000000 DUP4 PUSH2 0x1A2F JUMP JUMPDEST SWAP1 POP SWAP2 SWAP1 POP JUMP JUMPDEST PUSH1 0x0 PUSH2 0x1AA1 CALLER PUSH2 0x1A63 JUMP JUMPDEST PUSH2 0x1AE0 JUMPI PUSH1 0x40 MLOAD PUSH32 0x8C379A000000000000000000000000000000000000000000000000000000000 DUP2 MSTORE PUSH1 0x4 ADD PUSH2 0x1AD7 SWAP1 PUSH2 0x32A9 JUMP JUMPDEST PUSH1 0x40 MLOAD DUP1 SWAP2 SUB SWAP1 REVERT JUMPDEST DUP4 PUSH1 0x0 PUSH1 0x5 PUSH1 0x0 DUP4 DUP2 MSTORE PUSH1 0x20 ADD SWAP1 DUP2 MSTORE PUSH1 0x20 ADD PUSH1 0x0 KECCAK256 PUSH1 0x0 ADD SLOAD GT PUSH2 0x1B3A JUMPI PUSH1 0x40 MLOAD PUSH32 0x8C379A000000000000000000000000000000000000000000000000000000000 DUP2 MSTORE PUSH1 0x4 ADD PUSH2 0x1B31 SWAP1 PUSH2 0x32C9 JUMP JUMPDEST PUSH1 0x40 MLOAD DUP1 SWAP2 SUB SWAP1 REVERT JUMPDEST PUSH1 0x1 PUSH1 0x4 SLOAD PUSH2 0x1B49 SWAP2 SWAP1 PUSH2 0x3426 JUMP JUMPDEST PUSH1 0x8 DUP1 SLOAD SWAP1 POP LT PUSH2 0x1B8F JUMPI PUSH1 0x40 MLOAD PUSH32 0x8C379A000000000000000000000000000000000000000000000000000000000 DUP2 MSTORE PUSH1 0x4 ADD PUSH2 0x1B86 SWAP1 PUSH2 0x31C9 JUMP JUMPDEST PUSH1 0x40 MLOAD DUP1 SWAP2 SUB SWAP1 REVERT JUMPDEST PUSH1 0x4 PUSH1 0x0 DUP2 SLOAD DUP1 SWAP3 SWAP2 SWAP1 PUSH2 0x1BA2 SWAP1 PUSH2 0x3670 JUMP JUMPDEST SWAP2 SWAP1 POP SSTORE POP PUSH1 0x0 DUP4 PUSH1 0x5 PUSH1 0x0 DUP9 DUP2 MSTORE PUSH1 0x20 ADD SWAP1 DUP2 MSTORE PUSH1 0x20 ADD PUSH1 0x0 KECCAK256 PUSH1 0x8 ADD SLOAD PUSH2 0x1BCB SWAP2 SWAP1 PUSH2 0x347C JUMP JUMPDEST SWAP1 POP PUSH1 0x0 PUSH1 0x40 MLOAD DUP1 PUSH1 0xE0 ADD PUSH1 0x40 MSTORE DUP1 CALLER PUSH20 0xFFFFFFFFFFFFFFFFFFFFFFFFFFFFFFFFFFFFFFFF AND DUP2 MSTORE PUSH1 0x20 ADD PUSH1 0x5 PUSH1 0x0 DUP11 DUP2 MSTORE PUSH1 0x20 ADD SWAP1 DUP2 MSTORE PUSH1 0x20 ADD PUSH1 0x0 KECCAK256 PUSH1 0x40 MLOAD DUP1 PUSH2 0x120 ADD PUSH1 0x40 MSTORE SWAP1 DUP2 PUSH1 0x0 DUP3 ADD SLOAD DUP2 MSTORE PUSH1 0x20 ADD PUSH1 0x1 DUP3 ADD SLOAD DUP2 MSTORE PUSH1 0x20 ADD PUSH1 0x2 DUP3 ADD SLOAD DUP2 MSTORE PUSH1 0x20 ADD PUSH1 0x3 DUP3 ADD PUSH1 0x0 SWAP1 SLOAD SWAP1 PUSH2 0x100 EXP SWAP1 DIV PUSH1 0xFF AND PUSH1 0x6 DUP2 GT ISZERO PUSH2 0x1C58 JUMPI PUSH2 0x1C57 PUSH2 0x36E8 JUMP JUMPDEST JUMPDEST PUSH1 0x6 DUP2 GT ISZERO PUSH2 0x1C6A JUMPI PUSH2 0x1C69 PUSH2 0x36E8 JUMP JUMPDEST JUMPDEST DUP2 MSTORE PUSH1 0x20 ADD PUSH1 0x4 DUP3 ADD PUSH1 0x40 MLOAD DUP1 PUSH1 0x40 ADD PUSH1 0x40 MSTORE SWAP1 DUP2 PUSH1 0x0 DUP3 ADD DUP1 SLOAD PUSH2 0x1C8E SWAP1 PUSH2 0x360D JUMP JUMPDEST DUP1 PUSH1 0x1F ADD PUSH1 0x20 DUP1 SWAP2 DIV MUL PUSH1 0x20 ADD PUSH1 0x40 MLOAD SWAP1 DUP2 ADD PUSH1 0x40 MSTORE DUP1 SWAP3 SWAP2 SWAP1 DUP2 DUP2 MSTORE PUSH1 0x20 ADD DUP3 DUP1 SLOAD PUSH2 0x1CBA SWAP1 PUSH2 0x360D JUMP JUMPDEST DUP1 ISZERO PUSH2 0x1D07 JUMPI DUP1 PUSH1 0x1F LT PUSH2 0x1CDC JUMPI PUSH2 0x100 DUP1 DUP4 SLOAD DIV MUL DUP4 MSTORE SWAP2 PUSH1 0x20 ADD SWAP2 PUSH2 0x1D07 JUMP JUMPDEST DUP3 ADD SWAP2 SWAP1 PUSH1 0x0 MSTORE PUSH1 0x20 PUSH1 0x0 KECCAK256 SWAP1 JUMPDEST DUP2 SLOAD DUP2 MSTORE SWAP1 PUSH1 0x1 ADD SWAP1 PUSH1 0x20 ADD DUP1 DUP4 GT PUSH2 0x1CEA JUMPI DUP3 SWAP1 SUB PUSH1 0x1F AND DUP3 ADD SWAP2 JUMPDEST POP POP POP POP POP DUP2 MSTORE PUSH1 0x20 ADD PUSH1 0x1 DUP3 ADD DUP1 SLOAD PUSH2 0x1D20 SWAP1 PUSH2 0x360D JUMP JUMPDEST DUP1 PUSH1 0x1F ADD PUSH1 0x20 DUP1 SWAP2 DIV MUL PUSH1 0x20 ADD PUSH1 0x40 MLOAD SWAP1 DUP2 ADD PUSH1 0x40 MSTORE DUP1 SWAP3 SWAP2 SWAP1 DUP2 DUP2 MSTORE PUSH1 0x20 ADD DUP3 DUP1 SLOAD PUSH2 0x1D4C SWAP1 PUSH2 0x360D JUMP JUMPDEST DUP1 ISZERO PUSH2 0x1D99 JUMPI DUP1 PUSH1 0x1F LT PUSH2 0x1D6E JUMPI PUSH2 0x100 DUP1 DUP4 SLOAD DIV MUL DUP4 MSTORE SWAP2 PUSH1 0x20 ADD SWAP2 PUSH2 0x1D99 JUMP JUMPDEST DUP3 ADD SWAP2 SWAP1 PUSH1 0x0 MSTORE PUSH1 0x20 PUSH1 0x0 KECCAK256 SWAP1 JUMPDEST DUP2 SLOAD DUP2 MSTORE SWAP1 PUSH1 0x1 ADD SWAP1 PUSH1 0x20 ADD DUP1 DUP4 GT PUSH2 0x1D7C JUMPI DUP3 SWAP1 SUB PUSH1 0x1F AND DUP3 ADD SWAP2 JUMPDEST POP POP POP POP POP DUP2 MSTORE POP POP DUP2 MSTORE PUSH1 0x20 ADD PUSH1 0x6 DUP3 ADD SLOAD DUP2 MSTORE PUSH1 0x20 ADD PUSH1 0x7 DUP3 ADD SLOAD DUP2 MSTORE PUSH1 0x20 ADD PUSH1 0x8 DUP3 ADD SLOAD DUP2 MSTORE PUSH1 0x20 ADD PUSH1 0x9 DUP3 ADD PUSH1 0x0 SWAP1 SLOAD SWAP1 PUSH2 0x100 EXP SWAP1 DIV PUSH1 0xFF AND PUSH1 0x1 DUP2 GT ISZERO PUSH2 0x1DE9 JUMPI PUSH2 0x1DE8 PUSH2 0x36E8 JUMP JUMPDEST JUMPDEST PUSH1 0x1 DUP2 GT ISZERO PUSH2 0x1DFB JUMPI PUSH2 0x1DFA PUSH2 0x36E8 JUMP JUMPDEST JUMPDEST DUP2 MSTORE POP POP DUP2 MSTORE PUSH1 0x20 ADD DUP8 DUP2 MSTORE PUSH1 0x20 ADD DUP4 DUP2 MSTORE PUSH1 0x20 ADD PUSH1 0x0 DUP2 MSTORE PUSH1 0x20 ADD TIMESTAMP DUP2 MSTORE PUSH1 0x20 ADD PUSH1 0x0 PUSH1 0x2 DUP2 GT ISZERO PUSH2 0x1E31 JUMPI PUSH2 0x1E30 PUSH2 0x36E8 JUMP JUMPDEST JUMPDEST DUP2 MSTORE POP SWAP1 POP DUP1 PUSH1 0x7 PUSH1 0x0 PUSH1 0x4 SLOAD DUP2 MSTORE PUSH1 0x20 ADD SWAP1 DUP2 MSTORE PUSH1 0x20 ADD PUSH1 0x0 KECCAK256 PUSH1 0x0 DUP3 ADD MLOAD DUP2 PUSH1 0x0 ADD PUSH1 0x0 PUSH2 0x100 EXP DUP2 SLOAD DUP2 PUSH20 0xFFFFFFFFFFFFFFFFFFFFFFFFFFFFFFFFFFFFFFFF MUL NOT AND SWAP1 DUP4 PUSH20 0xFFFFFFFFFFFFFFFFFFFFFFFFFFFFFFFFFFFFFFFF AND MUL OR SWAP1 SSTORE POP PUSH1 0x20 DUP3 ADD MLOAD DUP2 PUSH1 0x1 ADD PUSH1 0x0 DUP3 ADD MLOAD DUP2 PUSH1 0x0 ADD SSTORE PUSH1 0x20 DUP3 ADD MLOAD DUP2 PUSH1 0x1 ADD SSTORE PUSH1 0x40 DUP3 ADD MLOAD DUP2 PUSH1 0x2 ADD SSTORE PUSH1 0x60 DUP3 ADD MLOAD DUP2 PUSH1 0x3 ADD PUSH1 0x0 PUSH2 0x100 EXP DUP2 SLOAD DUP2 PUSH1 0xFF MUL NOT AND SWAP1 DUP4 PUSH1 0x6 DUP2 GT ISZERO PUSH2 0x1EE5 JUMPI PUSH2 0x1EE4 PUSH2 0x36E8 JUMP JUMPDEST JUMPDEST MUL OR SWAP1 SSTORE POP PUSH1 0x80 DUP3 ADD MLOAD DUP2 PUSH1 0x4 ADD PUSH1 0x0 DUP3 ADD MLOAD DUP2 PUSH1 0x0 ADD SWAP1 DUP1 MLOAD SWAP1 PUSH1 0x20 ADD SWAP1 PUSH2 0x1F0F SWAP3 SWAP2 SWAP1 PUSH2 0x284A JUMP JUMPDEST POP PUSH1 0x20 DUP3 ADD MLOAD DUP2 PUSH1 0x1 ADD SWAP1 DUP1 MLOAD SWAP1 PUSH1 0x20 ADD SWAP1 PUSH2 0x1F2C SWAP3 SWAP2 SWAP1 PUSH2 0x284A JUMP JUMPDEST POP POP POP PUSH1 0xA0 DUP3 ADD MLOAD DUP2 PUSH1 0x6 ADD SSTORE PUSH1 0xC0 DUP3 ADD MLOAD DUP2 PUSH1 0x7 ADD SSTORE PUSH1 0xE0 DUP3 ADD MLOAD DUP2 PUSH1 0x8 ADD SSTORE PUSH2 0x100 DUP3 ADD MLOAD DUP2 PUSH1 0x9 ADD PUSH1 0x0 PUSH2 0x100 EXP DUP2 SLOAD DUP2 PUSH1 0xFF MUL NOT AND SWAP1 DUP4 PUSH1 0x1 DUP2 GT ISZERO PUSH2 0x1F79 JUMPI PUSH2 0x1F78 PUSH2 0x36E8 JUMP JUMPDEST JUMPDEST MUL OR SWAP1 SSTORE POP POP POP PUSH1 0x40 DUP3 ADD MLOAD DUP2 PUSH1 0xB ADD PUSH1 0x0 DUP3 ADD MLOAD DUP2 PUSH1 0x0 ADD SSTORE PUSH1 0x20 DUP3 ADD MLOAD DUP2 PUSH1 0x1 ADD SSTORE POP POP PUSH1 0x60 DUP3 ADD MLOAD DUP2 PUSH1 0xD ADD SSTORE PUSH1 0x80 DUP3 ADD MLOAD DUP2 PUSH1 0xE ADD SSTORE PUSH1 0xA0 DUP3 ADD MLOAD DUP2 PUSH1 0xF ADD SSTORE PUSH1 0xC0 DUP3 ADD MLOAD DUP2 PUSH1 0x10 ADD PUSH1 0x0 PUSH2 0x100 EXP DUP2 SLOAD DUP2 PUSH1 0xFF MUL NOT AND SWAP1 DUP4 PUSH1 0x2 DUP2 GT ISZERO PUSH2 0x1FE8 JUMPI PUSH2 0x1FE7 PUSH2 0x36E8 JUMP JUMPDEST JUMPDEST MUL OR SWAP1 SSTORE POP SWAP1 POP POP PUSH1 0x8 DUP2 SWAP1 DUP1 PUSH1 0x1 DUP2 SLOAD ADD DUP1 DUP3 SSTORE DUP1 SWAP2 POP POP PUSH1 0x1 SWAP1 SUB SWAP1 PUSH1 0x0 MSTORE PUSH1 0x20 PUSH1 0x0 KECCAK256 SWAP1 PUSH1 0x11 MUL ADD PUSH1 0x0 SWAP1 SWAP2 SWAP1 SWAP2 SWAP1 SWAP2 POP PUSH1 0x0 DUP3 ADD MLOAD DUP2 PUSH1 0x0 ADD PUSH1 0x0 PUSH2 0x100 EXP DUP2 SLOAD DUP2 PUSH20 0xFFFFFFFFFFFFFFFFFFFFFFFFFFFFFFFFFFFFFFFF MUL NOT AND SWAP1 DUP4 PUSH20 0xFFFFFFFFFFFFFFFFFFFFFFFFFFFFFFFFFFFFFFFF AND MUL OR SWAP1 SSTORE POP PUSH1 0x20 DUP3 ADD MLOAD DUP2 PUSH1 0x1 ADD PUSH1 0x0 DUP3 ADD MLOAD DUP2 PUSH1 0x0 ADD SSTORE PUSH1 0x20 DUP3 ADD MLOAD DUP2 PUSH1 0x1 ADD SSTORE PUSH1 0x40 DUP3 ADD MLOAD DUP2 PUSH1 0x2 ADD SSTORE PUSH1 0x60 DUP3 ADD MLOAD DUP2 PUSH1 0x3 ADD PUSH1 0x0 PUSH2 0x100 EXP DUP2 SLOAD DUP2 PUSH1 0xFF MUL NOT AND SWAP1 DUP4 PUSH1 0x6 DUP2 GT ISZERO PUSH2 0x20B5 JUMPI PUSH2 0x20B4 PUSH2 0x36E8 JUMP JUMPDEST JUMPDEST MUL OR SWAP1 SSTORE POP PUSH1 0x80 DUP3 ADD MLOAD DUP2 PUSH1 0x4 ADD PUSH1 0x0 DUP3 ADD MLOAD DUP2 PUSH1 0x0 ADD SWAP1 DUP1 MLOAD SWAP1 PUSH1 0x20 ADD SWAP1 PUSH2 0x20DF SWAP3 SWAP2 SWAP1 PUSH2 0x284A JUMP JUMPDEST POP PUSH1 0x20 DUP3 ADD MLOAD DUP2 PUSH1 0x1 ADD SWAP1 DUP1 MLOAD SWAP1 PUSH1 0x20 ADD SWAP1 PUSH2 0x20FC SWAP3 SWAP2 SWAP1 PUSH2 0x284A JUMP JUMPDEST POP POP POP PUSH1 0xA0 DUP3 ADD MLOAD DUP2 PUSH1 0x6 ADD SSTORE PUSH1 0xC0 DUP3 ADD MLOAD DUP2 PUSH1 0x7 ADD SSTORE PUSH1 0xE0 DUP3 ADD MLOAD DUP2 PUSH1 0x8 ADD SSTORE PUSH2 0x100 DUP3 ADD MLOAD DUP2 PUSH1 0x9 ADD PUSH1 0x0 PUSH2 0x100 EXP DUP2 SLOAD DUP2 PUSH1 0xFF MUL NOT AND SWAP1 DUP4 PUSH1 0x1 DUP2 GT ISZERO PUSH2 0x2149 JUMPI PUSH2 0x2148 PUSH2 0x36E8 JUMP JUMPDEST JUMPDEST MUL OR SWAP1 SSTORE POP POP POP PUSH1 0x40 DUP3 ADD MLOAD DUP2 PUSH1 0xB ADD PUSH1 0x0 DUP3 ADD MLOAD DUP2 PUSH1 0x0 ADD SSTORE PUSH1 0x20 DUP3 ADD MLOAD DUP2 PUSH1 0x1 ADD SSTORE POP POP PUSH1 0x60 DUP3 ADD MLOAD DUP2 PUSH1 0xD ADD SSTORE PUSH1 0x80 DUP3 ADD MLOAD DUP2 PUSH1 0xE ADD SSTORE PUSH1 0xA0 DUP3 ADD MLOAD DUP2 PUSH1 0xF ADD SSTORE PUSH1 0xC0 DUP3 ADD MLOAD DUP2 PUSH1 0x10 ADD PUSH1 0x0 PUSH2 0x100 EXP DUP2 SLOAD DUP2 PUSH1 0xFF MUL NOT AND SWAP1 DUP4 PUSH1 0x2 DUP2 GT ISZERO PUSH2 0x21B8 JUMPI PUSH2 0x21B7 PUSH2 0x36E8 JUMP JUMPDEST JUMPDEST MUL OR SWAP1 SSTORE POP POP POP PUSH1 0x4 SLOAD PUSH1 0x8 DUP1 SLOAD SWAP1 POP EQ SWAP4 POP POP POP POP SWAP4 SWAP3 POP POP POP JUMP JUMPDEST PUSH2 0x21FF PUSH32 0x52454E5445520000000000000000000000000000000000000000000000000000 CALLER PUSH2 0x2480 JUMP JUMPDEST JUMP JUMPDEST PUSH1 0x6 DUP2 DUP2 SLOAD DUP2 LT PUSH2 0x2211 JUMPI PUSH1 0x0 DUP1 REVERT JUMPDEST SWAP1 PUSH1 0x0 MSTORE PUSH1 0x20 PUSH1 0x0 KECCAK256 SWAP1 PUSH1 0xA MUL ADD PUSH1 0x0 SWAP2 POP SWAP1 POP DUP1 PUSH1 0x0 ADD SLOAD SWAP1 DUP1 PUSH1 0x1 ADD SLOAD SWAP1 DUP1 PUSH1 0x2 ADD SLOAD SWAP1 DUP1 PUSH1 0x3 ADD PUSH1 0x0 SWAP1 SLOAD SWAP1 PUSH2 0x100 EXP SWAP1 DIV PUSH1 0xFF AND SWAP1 DUP1 PUSH1 0x4 ADD PUSH1 0x40 MLOAD DUP1 PUSH1 0x40 ADD PUSH1 0x40 MSTORE SWAP1 DUP2 PUSH1 0x0 DUP3 ADD DUP1 SLOAD PUSH2 0x2269 SWAP1 PUSH2 0x360D JUMP JUMPDEST DUP1 PUSH1 0x1F ADD PUSH1 0x20 DUP1 SWAP2 DIV MUL PUSH1 0x20 ADD PUSH1 0x40 MLOAD SWAP1 DUP2 ADD PUSH1 0x40 MSTORE DUP1 SWAP3 SWAP2 SWAP1 DUP2 DUP2 MSTORE PUSH1 0x20 ADD DUP3 DUP1 SLOAD PUSH2 0x2295 SWAP1 PUSH2 0x360D JUMP JUMPDEST DUP1 ISZERO PUSH2 0x22E2 JUMPI DUP1 PUSH1 0x1F LT PUSH2 0x22B7 JUMPI PUSH2 0x100 DUP1 DUP4 SLOAD DIV MUL DUP4 MSTORE SWAP2 PUSH1 0x20 ADD SWAP2 PUSH2 0x22E2 JUMP JUMPDEST DUP3 ADD SWAP2 SWAP1 PUSH1 0x0 MSTORE PUSH1 0x20 PUSH1 0x0 KECCAK256 SWAP1 JUMPDEST DUP2 SLOAD DUP2 MSTORE SWAP1 PUSH1 0x1 ADD SWAP1 PUSH1 0x20 ADD DUP1 DUP4 GT PUSH2 0x22C5 JUMPI DUP3 SWAP1 SUB PUSH1 0x1F AND DUP3 ADD SWAP2 JUMPDEST POP POP POP POP POP DUP2 MSTORE PUSH1 0x20 ADD PUSH1 0x1 DUP3 ADD DUP1 SLOAD PUSH2 0x22FB SWAP1 PUSH2 0x360D JUMP JUMPDEST DUP1 PUSH1 0x1F ADD PUSH1 0x20 DUP1 SWAP2 DIV MUL PUSH1 0x20 ADD PUSH1 0x40 MLOAD SWAP1 DUP2 ADD PUSH1 0x40 MSTORE DUP1 SWAP3 SWAP2 SWAP1 DUP2 DUP2 MSTORE PUSH1 0x20 ADD DUP3 DUP1 SLOAD PUSH2 0x2327 SWAP1 PUSH2 0x360D JUMP JUMPDEST DUP1 ISZERO PUSH2 0x2374 JUMPI DUP1 PUSH1 0x1F LT PUSH2 0x2349 JUMPI PUSH2 0x100 DUP1 DUP4 SLOAD DIV MUL DUP4 MSTORE SWAP2 PUSH1 0x20 ADD SWAP2 PUSH2 0x2374 JUMP JUMPDEST DUP3 ADD SWAP2 SWAP1 PUSH1 0x0 MSTORE PUSH1 0x20 PUSH1 0x0 KECCAK256 SWAP1 JUMPDEST DUP2 SLOAD DUP2 MSTORE SWAP1 PUSH1 0x1 ADD SWAP1 PUSH1 0x20 ADD DUP1 DUP4 GT PUSH2 0x2357 JUMPI DUP3 SWAP1 SUB PUSH1 0x1F AND DUP3 ADD SWAP2 JUMPDEST POP POP POP POP POP DUP2 MSTORE POP POP SWAP1 DUP1 PUSH1 0x6 ADD SLOAD SWAP1 DUP1 PUSH1 0x7 ADD SLOAD SWAP1 DUP1 PUSH1 0x8 ADD SLOAD SWAP1 DUP1 PUSH1 0x9 ADD PUSH1 0x0 SWAP1 SLOAD SWAP1 PUSH2 0x100 EXP SWAP1 DIV PUSH1 0xFF AND SWAP1 POP DUP10 JUMP JUMPDEST PUSH32 0x52454E5445520000000000000000000000000000000000000000000000000000 DUP2 JUMP JUMPDEST PUSH1 0x0 PUSH2 0x23E7 PUSH1 0x0 DUP1 DUP5 DUP2 MSTORE PUSH1 0x20 ADD SWAP1 DUP2 MSTORE PUSH1 0x20 ADD PUSH1 0x0 KECCAK256 PUSH2 0x25EA JUMP JUMPDEST SWAP1 POP SWAP2 SWAP1 POP JUMP JUMPDEST DUP1 PUSH1 0x1 PUSH1 0x0 PUSH2 0x100 EXP DUP2 SLOAD DUP2 PUSH20 0xFFFFFFFFFFFFFFFFFFFFFFFFFFFFFFFFFFFFFFFF MUL NOT AND SWAP1 DUP4 PUSH20 0xFFFFFFFFFFFFFFFFFFFFFFFFFFFFFFFFFFFFFFFF AND MUL OR SWAP1 SSTORE POP PUSH2 0x2459 PUSH32 0x52454E5445520000000000000000000000000000000000000000000000000000 DUP3 PUSH2 0x2510 JUMP JUMPDEST POP JUMP JUMPDEST PUSH32 0x4F574E4552000000000000000000000000000000000000000000000000000000 DUP2 JUMP JUMPDEST PUSH2 0x24A4 DUP2 PUSH1 0x0 DUP1 DUP6 DUP2 MSTORE PUSH1 0x20 ADD SWAP1 DUP2 MSTORE PUSH1 0x20 ADD PUSH1 0x0 KECCAK256 PUSH2 0x25FF SWAP1 SWAP2 SWAP1 PUSH4 0xFFFFFFFF AND JUMP JUMPDEST ISZERO PUSH2 0x250C JUMPI PUSH2 0x24B1 PUSH2 0x262F JUMP JUMPDEST PUSH20 0xFFFFFFFFFFFFFFFFFFFFFFFFFFFFFFFFFFFFFFFF AND DUP2 PUSH20 0xFFFFFFFFFFFFFFFFFFFFFFFFFFFFFFFFFFFFFFFF AND DUP4 PUSH32 0xF6391F5C32D9C69D2A47EA670B442974B53935D1EDC7FD64EB21E047A839171B PUSH1 0x40 MLOAD PUSH1 0x40 MLOAD DUP1 SWAP2 SUB SWAP1 LOG4 JUMPDEST POP POP JUMP JUMPDEST PUSH2 0x2534 DUP2 PUSH1 0x0 DUP1 DUP6 DUP2 MSTORE PUSH1 0x20 ADD SWAP1 DUP2 MSTORE PUSH1 0x20 ADD PUSH1 0x0 KECCAK256 PUSH2 0x2637 SWAP1 SWAP2 SWAP1 PUSH4 0xFFFFFFFF AND JUMP JUMPDEST ISZERO PUSH2 0x259C JUMPI PUSH2 0x2541 PUSH2 0x262F JUMP JUMPDEST PUSH20 0xFFFFFFFFFFFFFFFFFFFFFFFFFFFFFFFFFFFFFFFF AND DUP2 PUSH20 0xFFFFFFFFFFFFFFFFFFFFFFFFFFFFFFFFFFFFFFFF AND DUP4 PUSH32 0x2F8788117E7EFF1D82E926EC794901D17C78024A50270940304540A733656F0D PUSH1 0x40 MLOAD PUSH1 0x40 MLOAD DUP1 SWAP2 SUB SWAP1 LOG4 JUMPDEST POP POP JUMP JUMPDEST PUSH1 0x0 PUSH2 0x25AF DUP4 PUSH1 0x0 ADD DUP4 PUSH2 0x2667 JUMP JUMPDEST PUSH1 0x0 SHR SWAP1 POP SWAP3 SWAP2 POP POP JUMP JUMPDEST PUSH1 0x0 PUSH2 0x25E2 DUP4 PUSH1 0x0 ADD DUP4 PUSH20 0xFFFFFFFFFFFFFFFFFFFFFFFFFFFFFFFFFFFFFFFF AND PUSH1 0x0 SHL PUSH2 0x2692 JUMP JUMPDEST SWAP1 POP SWAP3 SWAP2 POP POP JUMP JUMPDEST PUSH1 0x0 PUSH2 0x25F8 DUP3 PUSH1 0x0 ADD PUSH2 0x26B5 JUMP JUMPDEST SWAP1 POP SWAP2 SWAP1 POP JUMP JUMPDEST PUSH1 0x0 PUSH2 0x2627 DUP4 PUSH1 0x0 ADD DUP4 PUSH20 0xFFFFFFFFFFFFFFFFFFFFFFFFFFFFFFFFFFFFFFFF AND PUSH1 0x0 SHL PUSH2 0x26C6 JUMP JUMPDEST SWAP1 POP SWAP3 SWAP2 POP POP JUMP JUMPDEST PUSH1 0x0 CALLER SWAP1 POP SWAP1 JUMP JUMPDEST PUSH1 0x0 PUSH2 0x265F DUP4 PUSH1 0x0 ADD DUP4 PUSH20 0xFFFFFFFFFFFFFFFFFFFFFFFFFFFFFFFFFFFFFFFF AND PUSH1 0x0 SHL PUSH2 0x27DA JUMP JUMPDEST SWAP1 POP SWAP3 SWAP2 POP POP JUMP JUMPDEST PUSH1 0x0 DUP3 PUSH1 0x0 ADD DUP3 DUP2 SLOAD DUP2 LT PUSH2 0x267F JUMPI PUSH2 0x267E PUSH2 0x3775 JUMP JUMPDEST JUMPDEST SWAP1 PUSH1 0x0 MSTORE PUSH1 0x20 PUSH1 0x0 KECCAK256 ADD SLOAD SWAP1 POP SWAP3 SWAP2 POP POP JUMP JUMPDEST PUSH1 0x0 DUP1 DUP4 PUSH1 0x1 ADD PUSH1 0x0 DUP5 DUP2 MSTORE PUSH1 0x20 ADD SWAP1 DUP2 MSTORE PUSH1 0x20 ADD PUSH1 0x0 KECCAK256 SLOAD EQ ISZERO SWAP1 POP SWAP3 SWAP2 POP POP JUMP JUMPDEST PUSH1 0x0 DUP2 PUSH1 0x0 ADD DUP1 SLOAD SWAP1 POP SWAP1 POP SWAP2 SWAP1 POP JUMP JUMPDEST PUSH1 0x0 DUP1 DUP4 PUSH1 0x1 ADD PUSH1 0x0 DUP5 DUP2 MSTORE PUSH1 0x20 ADD SWAP1 DUP2 MSTORE PUSH1 0x20 ADD PUSH1 0x0 KECCAK256 SLOAD SWAP1 POP PUSH1 0x0 DUP2 EQ PUSH2 0x27CE JUMPI PUSH1 0x0 PUSH1 0x1 DUP3 PUSH2 0x26F8 SWAP2 SWAP1 PUSH2 0x34D6 JUMP JUMPDEST SWAP1 POP PUSH1 0x0 PUSH1 0x1 DUP7 PUSH1 0x0 ADD DUP1 SLOAD SWAP1 POP PUSH2 0x2710 SWAP2 SWAP1 PUSH2 0x34D6 JUMP JUMPDEST SWAP1 POP DUP2 DUP2 EQ PUSH2 0x277F JUMPI PUSH1 0x0 DUP7 PUSH1 0x0 ADD DUP3 DUP2 SLOAD DUP2 LT PUSH2 0x2731 JUMPI PUSH2 0x2730 PUSH2 0x3775 JUMP JUMPDEST JUMPDEST SWAP1 PUSH1 0x0 MSTORE PUSH1 0x20 PUSH1 0x0 KECCAK256 ADD SLOAD SWAP1 POP DUP1 DUP8 PUSH1 0x0 ADD DUP5 DUP2 SLOAD DUP2 LT PUSH2 0x2755 JUMPI PUSH2 0x2754 PUSH2 0x3775 JUMP JUMPDEST JUMPDEST SWAP1 PUSH1 0x0 MSTORE PUSH1 0x20 PUSH1 0x0 KECCAK256 ADD DUP2 SWAP1 SSTORE POP DUP4 DUP8 PUSH1 0x1 ADD PUSH1 0x0 DUP4 DUP2 MSTORE PUSH1 0x20 ADD SWAP1 DUP2 MSTORE PUSH1 0x20 ADD PUSH1 0x0 KECCAK256 DUP2 SWAP1 SSTORE POP POP JUMPDEST DUP6 PUSH1 0x0 ADD DUP1 SLOAD DUP1 PUSH2 0x2793 JUMPI PUSH2 0x2792 PUSH2 0x3746 JUMP JUMPDEST JUMPDEST PUSH1 0x1 SWAP1 SUB DUP2 DUP2 SWAP1 PUSH1 0x0 MSTORE PUSH1 0x20 PUSH1 0x0 KECCAK256 ADD PUSH1 0x0 SWAP1 SSTORE SWAP1 SSTORE DUP6 PUSH1 0x1 ADD PUSH1 0x0 DUP7 DUP2 MSTORE PUSH1 0x20 ADD SWAP1 DUP2 MSTORE PUSH1 0x20 ADD PUSH1 0x0 KECCAK256 PUSH1 0x0 SWAP1 SSTORE PUSH1 0x1 SWAP4 POP POP POP POP PUSH2 0x27D4 JUMP JUMPDEST PUSH1 0x0 SWAP2 POP POP JUMPDEST SWAP3 SWAP2 POP POP JUMP JUMPDEST PUSH1 0x0 PUSH2 0x27E6 DUP4 DUP4 PUSH2 0x2692 JUMP JUMPDEST PUSH2 0x283F JUMPI DUP3 PUSH1 0x0 ADD DUP3 SWAP1 DUP1 PUSH1 0x1 DUP2 SLOAD ADD DUP1 DUP3 SSTORE DUP1 SWAP2 POP POP PUSH1 0x1 SWAP1 SUB SWAP1 PUSH1 0x0 MSTORE PUSH1 0x20 PUSH1 0x0 KECCAK256 ADD PUSH1 0x0 SWAP1 SWAP2 SWAP1 SWAP2 SWAP1 SWAP2 POP SSTORE DUP3 PUSH1 0x0 ADD DUP1 SLOAD SWAP1 POP DUP4 PUSH1 0x1 ADD PUSH1 0x0 DUP5 DUP2 MSTORE PUSH1 0x20 ADD SWAP1 DUP2 MSTORE PUSH1 0x20 ADD PUSH1 0x0 KECCAK256 DUP2 SWAP1 SSTORE POP PUSH1 0x1 SWAP1 POP PUSH2 0x2844 JUMP JUMPDEST PUSH1 0x0 SWAP1 POP JUMPDEST SWAP3 SWAP2 POP POP JUMP JUMPDEST DUP3 DUP1 SLOAD PUSH2 0x2856 SWAP1 PUSH2 0x360D JUMP JUMPDEST SWAP1 PUSH1 0x0 MSTORE PUSH1 0x20 PUSH1 0x0 KECCAK256 SWAP1 PUSH1 0x1F ADD PUSH1 0x20 SWAP1 DIV DUP2 ADD SWAP3 DUP3 PUSH2 0x2878 JUMPI PUSH1 0x0 DUP6 SSTORE PUSH2 0x28BF JUMP JUMPDEST DUP3 PUSH1 0x1F LT PUSH2 0x2891 JUMPI DUP1 MLOAD PUSH1 0xFF NOT AND DUP4 DUP1 ADD OR DUP6 SSTORE PUSH2 0x28BF JUMP JUMPDEST DUP3 DUP1 ADD PUSH1 0x1 ADD DUP6 SSTORE DUP3 ISZERO PUSH2 0x28BF JUMPI SWAP2 DUP3 ADD JUMPDEST DUP3 DUP2 GT ISZERO PUSH2 0x28BE JUMPI DUP3 MLOAD DUP3 SSTORE SWAP2 PUSH1 0x20 ADD SWAP2 SWAP1 PUSH1 0x1 ADD SWAP1 PUSH2 0x28A3 JUMP JUMPDEST JUMPDEST POP SWAP1 POP PUSH2 0x28CC SWAP2 SWAP1 PUSH2 0x28D0 JUMP JUMPDEST POP SWAP1 JUMP JUMPDEST JUMPDEST DUP1 DUP3 GT ISZERO PUSH2 0x28E9 JUMPI PUSH1 0x0 DUP2 PUSH1 0x0 SWAP1 SSTORE POP PUSH1 0x1 ADD PUSH2 0x28D1 JUMP JUMPDEST POP SWAP1 JUMP JUMPDEST PUSH1 0x0 PUSH2 0x2900 PUSH2 0x28FB DUP5 PUSH2 0x33BD JUMP JUMPDEST PUSH2 0x3398 JUMP JUMPDEST SWAP1 POP DUP3 DUP2 MSTORE PUSH1 0x20 DUP2 ADD DUP5 DUP5 DUP5 ADD GT ISZERO PUSH2 0x291C JUMPI PUSH2 0x291B PUSH2 0x37E2 JUMP JUMPDEST JUMPDEST PUSH2 0x2927 DUP5 DUP3 DUP6 PUSH2 0x35CB JUMP JUMPDEST POP SWAP4 SWAP3 POP POP POP JUMP JUMPDEST PUSH1 0x0 DUP2 CALLDATALOAD SWAP1 POP PUSH2 0x293E DUP2 PUSH2 0x3A96 JUMP JUMPDEST SWAP3 SWAP2 POP POP JUMP JUMPDEST PUSH1 0x0 DUP2 CALLDATALOAD SWAP1 POP PUSH2 0x2953 DUP2 PUSH2 0x3AAD JUMP JUMPDEST SWAP3 SWAP2 POP POP JUMP JUMPDEST PUSH1 0x0 DUP3 PUSH1 0x1F DUP4 ADD SLT PUSH2 0x296E JUMPI PUSH2 0x296D PUSH2 0x37D3 JUMP JUMPDEST JUMPDEST DUP2 CALLDATALOAD PUSH2 0x297E DUP5 DUP3 PUSH1 0x20 DUP7 ADD PUSH2 0x28ED JUMP JUMPDEST SWAP2 POP POP SWAP3 SWAP2 POP POP JUMP JUMPDEST PUSH1 0x0 DUP2 CALLDATALOAD SWAP1 POP PUSH2 0x2996 DUP2 PUSH2 0x3AC4 JUMP JUMPDEST SWAP3 SWAP2 POP POP JUMP JUMPDEST PUSH1 0x0 PUSH1 0x40 DUP3 DUP5 SUB SLT ISZERO PUSH2 0x29B2 JUMPI PUSH2 0x29B1 PUSH2 0x37D8 JUMP JUMPDEST JUMPDEST PUSH2 0x29BC PUSH1 0x40 PUSH2 0x3398 JUMP JUMPDEST SWAP1 POP PUSH1 0x0 DUP3 ADD CALLDATALOAD PUSH8 0xFFFFFFFFFFFFFFFF DUP2 GT ISZERO PUSH2 0x29DC JUMPI PUSH2 0x29DB PUSH2 0x37DD JUMP JUMPDEST JUMPDEST PUSH2 0x29E8 DUP5 DUP3 DUP6 ADD PUSH2 0x2959 JUMP JUMPDEST PUSH1 0x0 DUP4 ADD MSTORE POP PUSH1 0x20 DUP3 ADD CALLDATALOAD PUSH8 0xFFFFFFFFFFFFFFFF DUP2 GT ISZERO PUSH2 0x2A0C JUMPI PUSH2 0x2A0B PUSH2 0x37DD JUMP JUMPDEST JUMPDEST PUSH2 0x2A18 DUP5 DUP3 DUP6 ADD PUSH2 0x2959 JUMP JUMPDEST PUSH1 0x20 DUP4 ADD MSTORE POP SWAP3 SWAP2 POP POP JUMP JUMPDEST PUSH1 0x0 PUSH1 0x40 DUP3 DUP5 SUB SLT ISZERO PUSH2 0x2A3A JUMPI PUSH2 0x2A39 PUSH2 0x37D8 JUMP JUMPDEST JUMPDEST PUSH2 0x2A44 PUSH1 0x40 PUSH2 0x3398 JUMP JUMPDEST SWAP1 POP PUSH1 0x0 PUSH2 0x2A54 DUP5 DUP3 DUP6 ADD PUSH2 0x2944 JUMP JUMPDEST PUSH1 0x0 DUP4 ADD MSTORE POP PUSH1 0x20 PUSH2 0x2A68 DUP5 DUP3 DUP6 ADD PUSH2 0x2944 JUMP JUMPDEST PUSH1 0x20 DUP4 ADD MSTORE POP SWAP3 SWAP2 POP POP JUMP JUMPDEST PUSH1 0x0 DUP2 CALLDATALOAD SWAP1 POP PUSH2 0x2A83 DUP2 PUSH2 0x3AD4 JUMP JUMPDEST SWAP3 SWAP2 POP POP JUMP JUMPDEST PUSH1 0x0 PUSH1 0x20 DUP3 DUP5 SUB SLT ISZERO PUSH2 0x2A9F JUMPI PUSH2 0x2A9E PUSH2 0x37EC JUMP JUMPDEST JUMPDEST PUSH1 0x0 PUSH2 0x2AAD DUP5 DUP3 DUP6 ADD PUSH2 0x292F JUMP JUMPDEST SWAP2 POP POP SWAP3 SWAP2 POP POP JUMP JUMPDEST PUSH1 0x0 PUSH1 0x20 DUP3 DUP5 SUB SLT ISZERO PUSH2 0x2ACC JUMPI PUSH2 0x2ACB PUSH2 0x37EC JUMP JUMPDEST JUMPDEST PUSH1 0x0 PUSH2 0x2ADA DUP5 DUP3 DUP6 ADD PUSH2 0x2944 JUMP JUMPDEST SWAP2 POP POP SWAP3 SWAP2 POP POP JUMP JUMPDEST PUSH1 0x0 DUP1 PUSH1 0x40 DUP4 DUP6 SUB SLT ISZERO PUSH2 0x2AFA JUMPI PUSH2 0x2AF9 PUSH2 0x37EC JUMP JUMPDEST JUMPDEST PUSH1 0x0 PUSH2 0x2B08 DUP6 DUP3 DUP7 ADD PUSH2 0x2944 JUMP JUMPDEST SWAP3 POP POP PUSH1 0x20 PUSH2 0x2B19 DUP6 DUP3 DUP7 ADD PUSH2 0x292F JUMP JUMPDEST SWAP2 POP POP SWAP3 POP SWAP3 SWAP1 POP JUMP JUMPDEST PUSH1 0x0 DUP1 PUSH1 0x0 DUP1 PUSH1 0x0 DUP1 PUSH1 0x0 PUSH1 0xE0 DUP9 DUP11 SUB SLT ISZERO PUSH2 0x2B42 JUMPI PUSH2 0x2B41 PUSH2 0x37EC JUMP JUMPDEST JUMPDEST PUSH1 0x0 PUSH2 0x2B50 DUP11 DUP3 DUP12 ADD PUSH2 0x2944 JUMP JUMPDEST SWAP8 POP POP PUSH1 0x20 PUSH2 0x2B61 DUP11 DUP3 DUP12 ADD PUSH2 0x2944 JUMP JUMPDEST SWAP7 POP POP PUSH1 0x40 PUSH2 0x2B72 DUP11 DUP3 DUP12 ADD PUSH2 0x2987 JUMP JUMPDEST SWAP6 POP POP PUSH1 0x60 DUP9 ADD CALLDATALOAD PUSH8 0xFFFFFFFFFFFFFFFF DUP2 GT ISZERO PUSH2 0x2B93 JUMPI PUSH2 0x2B92 PUSH2 0x37E7 JUMP JUMPDEST JUMPDEST PUSH2 0x2B9F DUP11 DUP3 DUP12 ADD PUSH2 0x299C JUMP JUMPDEST SWAP5 POP POP PUSH1 0x80 PUSH2 0x2BB0 DUP11 DUP3 DUP12 ADD PUSH2 0x2A74 JUMP JUMPDEST SWAP4 POP POP PUSH1 0xA0 PUSH2 0x2BC1 DUP11 DUP3 DUP12 ADD PUSH2 0x2944 JUMP JUMPDEST SWAP3 POP POP PUSH1 0xC0 PUSH2 0x2BD2 DUP11 DUP3 DUP12 ADD PUSH2 0x2A74 JUMP JUMPDEST SWAP2 POP POP SWAP3 SWAP6 SWAP9 SWAP2 SWAP5 SWAP8 POP SWAP3 SWAP6 POP JUMP JUMPDEST PUSH1 0x0 DUP1 PUSH1 0x40 DUP4 DUP6 SUB SLT ISZERO PUSH2 0x2BF8 JUMPI PUSH2 0x2BF7 PUSH2 0x37EC JUMP JUMPDEST JUMPDEST PUSH1 0x0 PUSH2 0x2C06 DUP6 DUP3 DUP7 ADD PUSH2 0x2944 JUMP JUMPDEST SWAP3 POP POP PUSH1 0x20 PUSH2 0x2C17 DUP6 DUP3 DUP7 ADD PUSH2 0x2A74 JUMP JUMPDEST SWAP2 POP POP SWAP3 POP SWAP3 SWAP1 POP JUMP JUMPDEST PUSH1 0x0 PUSH1 0x20 DUP3 DUP5 SUB SLT ISZERO PUSH2 0x2C37 JUMPI PUSH2 0x2C36 PUSH2 0x37EC JUMP JUMPDEST JUMPDEST PUSH1 0x0 PUSH2 0x2C45 DUP5 DUP3 DUP6 ADD PUSH2 0x2A74 JUMP JUMPDEST SWAP2 POP POP SWAP3 SWAP2 POP POP JUMP JUMPDEST PUSH1 0x0 DUP1 PUSH1 0x0 PUSH1 0x80 DUP5 DUP7 SUB SLT ISZERO PUSH2 0x2C67 JUMPI PUSH2 0x2C66 PUSH2 0x37EC JUMP JUMPDEST JUMPDEST PUSH1 0x0 PUSH2 0x2C75 DUP7 DUP3 DUP8 ADD PUSH2 0x2A74 JUMP JUMPDEST SWAP4 POP POP PUSH1 0x20 PUSH2 0x2C86 DUP7 DUP3 DUP8 ADD PUSH2 0x2A24 JUMP JUMPDEST SWAP3 POP POP PUSH1 0x60 PUSH2 0x2C97 DUP7 DUP3 DUP8 ADD PUSH2 0x2A74 JUMP JUMPDEST SWAP2 POP POP SWAP3 POP SWAP3 POP SWAP3 JUMP JUMPDEST PUSH1 0x0 DUP1 PUSH1 0x40 DUP4 DUP6 SUB SLT ISZERO PUSH2 0x2CB8 JUMPI PUSH2 0x2CB7 PUSH2 0x37EC JUMP JUMPDEST JUMPDEST PUSH1 0x0 PUSH2 0x2CC6 DUP6 DUP3 DUP7 ADD PUSH2 0x2A74 JUMP JUMPDEST SWAP3 POP POP PUSH1 0x20 PUSH2 0x2CD7 DUP6 DUP3 DUP7 ADD PUSH2 0x2A74 JUMP JUMPDEST SWAP2 POP POP SWAP3 POP SWAP3 SWAP1 POP JUMP JUMPDEST PUSH1 0x0 DUP1 PUSH1 0x0 PUSH1 0x60 DUP5 DUP7 SUB SLT ISZERO PUSH2 0x2CFA JUMPI PUSH2 0x2CF9 PUSH2 0x37EC JUMP JUMPDEST JUMPDEST PUSH1 0x0 PUSH2 0x2D08 DUP7 DUP3 DUP8 ADD PUSH2 0x2A74 JUMP JUMPDEST SWAP4 POP POP PUSH1 0x20 PUSH2 0x2D19 DUP7 DUP3 DUP8 ADD PUSH2 0x2A74 JUMP JUMPDEST SWAP3 POP POP PUSH1 0x40 PUSH2 0x2D2A DUP7 DUP3 DUP8 ADD PUSH2 0x2A74 JUMP JUMPDEST SWAP2 POP POP SWAP3 POP SWAP3 POP SWAP3 JUMP JUMPDEST PUSH2 0x2D3D DUP2 PUSH2 0x350A JUMP JUMPDEST DUP3 MSTORE POP POP JUMP JUMPDEST PUSH2 0x2D4C DUP2 PUSH2 0x351C JUMP JUMPDEST DUP3 MSTORE POP POP JUMP JUMPDEST PUSH2 0x2D5B DUP2 PUSH2 0x3528 JUMP JUMPDEST DUP3 MSTORE POP POP JUMP JUMPDEST PUSH2 0x2D6A DUP2 PUSH2 0x3528 JUMP JUMPDEST DUP3 MSTORE POP POP JUMP JUMPDEST PUSH1 0x0 PUSH2 0x2D7B DUP3 PUSH2 0x33EE JUMP JUMPDEST PUSH2 0x2D85 DUP2 DUP6 PUSH2 0x33F9 JUMP JUMPDEST SWAP4 POP PUSH2 0x2D95 DUP2 DUP6 PUSH1 0x20 DUP7 ADD PUSH2 0x35DA JUMP JUMPDEST PUSH2 0x2D9E DUP2 PUSH2 0x37F1 JUMP JUMPDEST DUP5 ADD SWAP2 POP POP SWAP3 SWAP2 POP POP JUMP JUMPDEST PUSH2 0x2DB2 DUP2 PUSH2 0x3595 JUMP JUMPDEST DUP3 MSTORE POP POP JUMP JUMPDEST PUSH2 0x2DC1 DUP2 PUSH2 0x35A7 JUMP JUMPDEST DUP3 MSTORE POP POP JUMP JUMPDEST PUSH2 0x2DD0 DUP2 PUSH2 0x35A7 JUMP JUMPDEST DUP3 MSTORE POP POP JUMP JUMPDEST PUSH2 0x2DDF DUP2 PUSH2 0x35B9 JUMP JUMPDEST DUP3 MSTORE POP POP JUMP JUMPDEST PUSH2 0x2DEE DUP2 PUSH2 0x35B9 JUMP JUMPDEST DUP3 MSTORE POP POP JUMP JUMPDEST PUSH1 0x0 PUSH2 0x2E01 PUSH1 0x2E DUP4 PUSH2 0x3415 JUMP JUMPDEST SWAP2 POP PUSH2 0x2E0C DUP3 PUSH2 0x3802 JUMP JUMPDEST PUSH1 0x40 DUP3 ADD SWAP1 POP SWAP2 SWAP1 POP JUMP JUMPDEST PUSH1 0x0 PUSH2 0x2E24 PUSH1 0x2D DUP4 PUSH2 0x3415 JUMP JUMPDEST SWAP2 POP PUSH2 0x2E2F DUP3 PUSH2 0x3851 JUMP JUMPDEST PUSH1 0x40 DUP3 ADD SWAP1 POP SWAP2 SWAP1 POP JUMP JUMPDEST PUSH1 0x0 PUSH2 0x2E47 PUSH1 0x40 DUP4 PUSH2 0x3415 JUMP JUMPDEST SWAP2 POP PUSH2 0x2E52 DUP3 PUSH2 0x38A0 JUMP JUMPDEST PUSH1 0x40 DUP3 ADD SWAP1 POP SWAP2 SWAP1 POP JUMP JUMPDEST PUSH1 0x0 PUSH2 0x2E6A PUSH1 0x15 DUP4 PUSH2 0x3415 JUMP JUMPDEST SWAP2 POP PUSH2 0x2E75 DUP3 PUSH2 0x38EF JUMP JUMPDEST PUSH1 0x20 DUP3 ADD SWAP1 POP SWAP2 SWAP1 POP JUMP JUMPDEST PUSH1 0x0 PUSH2 0x2E8D PUSH1 0x14 DUP4 PUSH2 0x3415 JUMP JUMPDEST SWAP2 POP PUSH2 0x2E98 DUP3 PUSH2 0x3918 JUMP JUMPDEST PUSH1 0x20 DUP3 ADD SWAP1 POP SWAP2 SWAP1 POP JUMP JUMPDEST PUSH1 0x0 PUSH2 0x2EB0 PUSH1 0x30 DUP4 PUSH2 0x3415 JUMP JUMPDEST SWAP2 POP PUSH2 0x2EBB DUP3 PUSH2 0x3941 JUMP JUMPDEST PUSH1 0x40 DUP3 ADD SWAP1 POP SWAP2 SWAP1 POP JUMP JUMPDEST PUSH1 0x0 PUSH2 0x2ED3 PUSH1 0x3E DUP4 PUSH2 0x3415 JUMP JUMPDEST SWAP2 POP PUSH2 0x2EDE DUP3 PUSH2 0x3990 JUMP JUMPDEST PUSH1 0x40 DUP3 ADD SWAP1 POP SWAP2 SWAP1 POP JUMP JUMPDEST PUSH1 0x0 PUSH2 0x2EF6 PUSH1 0x0 DUP4 PUSH2 0x340A JUMP JUMPDEST SWAP2 POP PUSH2 0x2F01 DUP3 PUSH2 0x39DF JUMP JUMPDEST PUSH1 0x0 DUP3 ADD SWAP1 POP SWAP2 SWAP1 POP JUMP JUMPDEST PUSH1 0x0 PUSH2 0x2F19 PUSH1 0x16 DUP4 PUSH2 0x3415 JUMP JUMPDEST SWAP2 POP PUSH2 0x2F24 DUP3 PUSH2 0x39E2 JUMP JUMPDEST PUSH1 0x20 DUP3 ADD SWAP1 POP SWAP2 SWAP1 POP JUMP JUMPDEST PUSH1 0x0 PUSH2 0x2F3C PUSH1 0x3D DUP4 PUSH2 0x3415 JUMP JUMPDEST SWAP2 POP PUSH2 0x2F47 DUP3 PUSH2 0x3A0B JUMP JUMPDEST PUSH1 0x40 DUP3 ADD SWAP1 POP SWAP2 SWAP1 POP JUMP JUMPDEST PUSH1 0x0 PUSH1 0x40 DUP4 ADD PUSH1 0x0 DUP4 ADD MLOAD DUP5 DUP3 SUB PUSH1 0x0 DUP7 ADD MSTORE PUSH2 0x2F6F DUP3 DUP3 PUSH2 0x2D70 JUMP JUMPDEST SWAP2 POP POP PUSH1 0x20 DUP4 ADD MLOAD DUP5 DUP3 SUB PUSH1 0x20 DUP7 ADD MSTORE PUSH2 0x2F89 DUP3 DUP3 PUSH2 0x2D70 JUMP JUMPDEST SWAP2 POP POP DUP1 SWAP2 POP POP SWAP3 SWAP2 POP POP JUMP JUMPDEST PUSH1 0x0 PUSH1 0x40 DUP4 ADD PUSH1 0x0 DUP4 ADD MLOAD DUP5 DUP3 SUB PUSH1 0x0 DUP7 ADD MSTORE PUSH2 0x2FB3 DUP3 DUP3 PUSH2 0x2D70 JUMP JUMPDEST SWAP2 POP POP PUSH1 0x20 DUP4 ADD MLOAD DUP5 DUP3 SUB PUSH1 0x20 DUP7 ADD MSTORE PUSH2 0x2FCD DUP3 DUP3 PUSH2 0x2D70 JUMP JUMPDEST SWAP2 POP POP DUP1 SWAP2 POP POP SWAP3 SWAP2 POP POP JUMP JUMPDEST PUSH1 0x40 DUP3 ADD PUSH1 0x0 DUP3 ADD MLOAD PUSH2 0x2FF0 PUSH1 0x0 DUP6 ADD DUP3 PUSH2 0x2D52 JUMP JUMPDEST POP PUSH1 0x20 DUP3 ADD MLOAD PUSH2 0x3003 PUSH1 0x20 DUP6 ADD DUP3 PUSH2 0x2D52 JUMP JUMPDEST POP POP POP POP JUMP JUMPDEST PUSH1 0x0 PUSH2 0x120 DUP4 ADD PUSH1 0x0 DUP4 ADD MLOAD PUSH2 0x3022 PUSH1 0x0 DUP7 ADD DUP3 PUSH2 0x30CE JUMP JUMPDEST POP PUSH1 0x20 DUP4 ADD MLOAD PUSH2 0x3035 PUSH1 0x20 DUP7 ADD DUP3 PUSH2 0x2D52 JUMP JUMPDEST POP PUSH1 0x40 DUP4 ADD MLOAD PUSH2 0x3048 PUSH1 0x40 DUP7 ADD DUP3 PUSH2 0x2D52 JUMP JUMPDEST POP PUSH1 0x60 DUP4 ADD MLOAD PUSH2 0x305B PUSH1 0x60 DUP7 ADD DUP3 PUSH2 0x2DD6 JUMP JUMPDEST POP PUSH1 0x80 DUP4 ADD MLOAD DUP5 DUP3 SUB PUSH1 0x80 DUP7 ADD MSTORE PUSH2 0x3073 DUP3 DUP3 PUSH2 0x2F52 JUMP JUMPDEST SWAP2 POP POP PUSH1 0xA0 DUP4 ADD MLOAD PUSH2 0x3088 PUSH1 0xA0 DUP7 ADD DUP3 PUSH2 0x30CE JUMP JUMPDEST POP PUSH1 0xC0 DUP4 ADD MLOAD PUSH2 0x309B PUSH1 0xC0 DUP7 ADD DUP3 PUSH2 0x2D52 JUMP JUMPDEST POP PUSH1 0xE0 DUP4 ADD MLOAD PUSH2 0x30AE PUSH1 0xE0 DUP7 ADD DUP3 PUSH2 0x30CE JUMP JUMPDEST POP PUSH2 0x100 DUP4 ADD MLOAD PUSH2 0x30C3 PUSH2 0x100 DUP7 ADD DUP3 PUSH2 0x2DB8 JUMP JUMPDEST POP DUP1 SWAP2 POP POP SWAP3 SWAP2 POP POP JUMP JUMPDEST PUSH2 0x30D7 DUP2 PUSH2 0x358B JUMP JUMPDEST DUP3 MSTORE POP POP JUMP JUMPDEST PUSH2 0x30E6 DUP2 PUSH2 0x358B JUMP JUMPDEST DUP3 MSTORE POP POP JUMP JUMPDEST PUSH1 0x0 PUSH2 0x30F7 DUP3 PUSH2 0x2EE9 JUMP JUMPDEST SWAP2 POP DUP2 SWAP1 POP SWAP2 SWAP1 POP JUMP JUMPDEST PUSH1 0x0 PUSH1 0x20 DUP3 ADD SWAP1 POP PUSH2 0x3116 PUSH1 0x0 DUP4 ADD DUP5 PUSH2 0x2D34 JUMP JUMPDEST SWAP3 SWAP2 POP POP JUMP JUMPDEST PUSH1 0x0 PUSH2 0x100 DUP3 ADD SWAP1 POP PUSH2 0x3132 PUSH1 0x0 DUP4 ADD DUP11 PUSH2 0x2D34 JUMP JUMPDEST DUP2 DUP2 SUB PUSH1 0x20 DUP4 ADD MSTORE PUSH2 0x3144 DUP2 DUP10 PUSH2 0x3009 JUMP JUMPDEST SWAP1 POP PUSH2 0x3153 PUSH1 0x40 DUP4 ADD DUP9 PUSH2 0x2FDA JUMP JUMPDEST PUSH2 0x3160 PUSH1 0x80 DUP4 ADD DUP8 PUSH2 0x30DD JUMP JUMPDEST PUSH2 0x316D PUSH1 0xA0 DUP4 ADD DUP7 PUSH2 0x30DD JUMP JUMPDEST PUSH2 0x317A PUSH1 0xC0 DUP4 ADD DUP6 PUSH2 0x30DD JUMP JUMPDEST PUSH2 0x3187 PUSH1 0xE0 DUP4 ADD DUP5 PUSH2 0x2DA9 JUMP JUMPDEST SWAP9 SWAP8 POP POP POP POP POP POP POP POP JUMP JUMPDEST PUSH1 0x0 PUSH1 0x20 DUP3 ADD SWAP1 POP PUSH2 0x31A8 PUSH1 0x0 DUP4 ADD DUP5 PUSH2 0x2D43 JUMP JUMPDEST SWAP3 SWAP2 POP POP JUMP JUMPDEST PUSH1 0x0 PUSH1 0x20 DUP3 ADD SWAP1 POP PUSH2 0x31C3 PUSH1 0x0 DUP4 ADD DUP5 PUSH2 0x2D61 JUMP JUMPDEST SWAP3 SWAP2 POP POP JUMP JUMPDEST PUSH1 0x0 PUSH1 0x20 DUP3 ADD SWAP1 POP DUP2 DUP2 SUB PUSH1 0x0 DUP4 ADD MSTORE PUSH2 0x31E2 DUP2 PUSH2 0x2DF4 JUMP JUMPDEST SWAP1 POP SWAP2 SWAP1 POP JUMP JUMPDEST PUSH1 0x0 PUSH1 0x20 DUP3 ADD SWAP1 POP DUP2 DUP2 SUB PUSH1 0x0 DUP4 ADD MSTORE PUSH2 0x3202 DUP2 PUSH2 0x2E17 JUMP JUMPDEST SWAP1 POP SWAP2 SWAP1 POP JUMP JUMPDEST PUSH1 0x0 PUSH1 0x20 DUP3 ADD SWAP1 POP DUP2 DUP2 SUB PUSH1 0x0 DUP4 ADD MSTORE PUSH2 0x3222 DUP2 PUSH2 0x2E3A JUMP JUMPDEST SWAP1 POP SWAP2 SWAP1 POP JUMP JUMPDEST PUSH1 0x0 PUSH1 0x20 DUP3 ADD SWAP1 POP DUP2 DUP2 SUB PUSH1 0x0 DUP4 ADD MSTORE PUSH2 0x3242 DUP2 PUSH2 0x2E5D JUMP JUMPDEST SWAP1 POP SWAP2 SWAP1 POP JUMP JUMPDEST PUSH1 0x0 PUSH1 0x20 DUP3 ADD SWAP1 POP DUP2 DUP2 SUB PUSH1 0x0 DUP4 ADD MSTORE PUSH2 0x3262 DUP2 PUSH2 0x2E80 JUMP JUMPDEST SWAP1 POP SWAP2 SWAP1 POP JUMP JUMPDEST PUSH1 0x0 PUSH1 0x20 DUP3 ADD SWAP1 POP DUP2 DUP2 SUB PUSH1 0x0 DUP4 ADD MSTORE PUSH2 0x3282 DUP2 PUSH2 0x2EA3 JUMP JUMPDEST SWAP1 POP SWAP2 SWAP1 POP JUMP JUMPDEST PUSH1 0x0 PUSH1 0x20 DUP3 ADD SWAP1 POP DUP2 DUP2 SUB PUSH1 0x0 DUP4 ADD MSTORE PUSH2 0x32A2 DUP2 PUSH2 0x2EC6 JUMP JUMPDEST SWAP1 POP SWAP2 SWAP1 POP JUMP JUMPDEST PUSH1 0x0 PUSH1 0x20 DUP3 ADD SWAP1 POP DUP2 DUP2 SUB PUSH1 0x0 DUP4 ADD MSTORE PUSH2 0x32C2 DUP2 PUSH2 0x2F0C JUMP JUMPDEST SWAP1 POP SWAP2 SWAP1 POP JUMP JUMPDEST PUSH1 0x0 PUSH1 0x20 DUP3 ADD SWAP1 POP DUP2 DUP2 SUB PUSH1 0x0 DUP4 ADD MSTORE PUSH2 0x32E2 DUP2 PUSH2 0x2F2F JUMP JUMPDEST SWAP1 POP SWAP2 SWAP1 POP JUMP JUMPDEST PUSH1 0x0 PUSH1 0x20 DUP3 ADD SWAP1 POP PUSH2 0x32FE PUSH1 0x0 DUP4 ADD DUP5 PUSH2 0x30DD JUMP JUMPDEST SWAP3 SWAP2 POP POP JUMP JUMPDEST PUSH1 0x0 PUSH2 0x120 DUP3 ADD SWAP1 POP PUSH2 0x331A PUSH1 0x0 DUP4 ADD DUP13 PUSH2 0x30DD JUMP JUMPDEST PUSH2 0x3327 PUSH1 0x20 DUP4 ADD DUP12 PUSH2 0x2D61 JUMP JUMPDEST PUSH2 0x3334 PUSH1 0x40 DUP4 ADD DUP11 PUSH2 0x2D61 JUMP JUMPDEST PUSH2 0x3341 PUSH1 0x60 DUP4 ADD DUP10 PUSH2 0x2DE5 JUMP JUMPDEST DUP2 DUP2 SUB PUSH1 0x80 DUP4 ADD MSTORE PUSH2 0x3353 DUP2 DUP9 PUSH2 0x2F96 JUMP JUMPDEST SWAP1 POP PUSH2 0x3362 PUSH1 0xA0 DUP4 ADD DUP8 PUSH2 0x30DD JUMP JUMPDEST PUSH2 0x336F PUSH1 0xC0 DUP4 ADD DUP7 PUSH2 0x2D61 JUMP JUMPDEST PUSH2 0x337C PUSH1 0xE0 DUP4 ADD DUP6 PUSH2 0x30DD JUMP JUMPDEST PUSH2 0x338A PUSH2 0x100 DUP4 ADD DUP5 PUSH2 0x2DC7 JUMP JUMPDEST SWAP11 SWAP10 POP POP POP POP POP POP POP POP POP POP JUMP JUMPDEST PUSH1 0x0 PUSH2 0x33A2 PUSH2 0x33B3 JUMP JUMPDEST SWAP1 POP PUSH2 0x33AE DUP3 DUP3 PUSH2 0x363F JUMP JUMPDEST SWAP2 SWAP1 POP JUMP JUMPDEST PUSH1 0x0 PUSH1 0x40 MLOAD SWAP1 POP SWAP1 JUMP JUMPDEST PUSH1 0x0 PUSH8 0xFFFFFFFFFFFFFFFF DUP3 GT ISZERO PUSH2 0x33D8 JUMPI PUSH2 0x33D7 PUSH2 0x37A4 JUMP JUMPDEST JUMPDEST PUSH2 0x33E1 DUP3 PUSH2 0x37F1 JUMP JUMPDEST SWAP1 POP PUSH1 0x20 DUP2 ADD SWAP1 POP SWAP2 SWAP1 POP JUMP JUMPDEST PUSH1 0x0 DUP2 MLOAD SWAP1 POP SWAP2 SWAP1 POP JUMP JUMPDEST PUSH1 0x0 DUP3 DUP3 MSTORE PUSH1 0x20 DUP3 ADD SWAP1 POP SWAP3 SWAP2 POP POP JUMP JUMPDEST PUSH1 0x0 DUP2 SWAP1 POP SWAP3 SWAP2 POP POP JUMP JUMPDEST PUSH1 0x0 DUP3 DUP3 MSTORE PUSH1 0x20 DUP3 ADD SWAP1 POP SWAP3 SWAP2 POP POP JUMP JUMPDEST PUSH1 0x0 PUSH2 0x3431 DUP3 PUSH2 0x358B JUMP JUMPDEST SWAP2 POP PUSH2 0x343C DUP4 PUSH2 0x358B JUMP JUMPDEST SWAP3 POP DUP3 PUSH32 0xFFFFFFFFFFFFFFFFFFFFFFFFFFFFFFFFFFFFFFFFFFFFFFFFFFFFFFFFFFFFFFFF SUB DUP3 GT ISZERO PUSH2 0x3471 JUMPI PUSH2 0x3470 PUSH2 0x36B9 JUMP JUMPDEST JUMPDEST DUP3 DUP3 ADD SWAP1 POP SWAP3 SWAP2 POP POP JUMP JUMPDEST PUSH1 0x0 PUSH2 0x3487 DUP3 PUSH2 0x358B JUMP JUMPDEST SWAP2 POP PUSH2 0x3492 DUP4 PUSH2 0x358B JUMP JUMPDEST SWAP3 POP DUP2 PUSH32 0xFFFFFFFFFFFFFFFFFFFFFFFFFFFFFFFFFFFFFFFFFFFFFFFFFFFFFFFFFFFFFFFF DIV DUP4 GT DUP3 ISZERO ISZERO AND ISZERO PUSH2 0x34CB JUMPI PUSH2 0x34CA PUSH2 0x36B9 JUMP JUMPDEST JUMPDEST DUP3 DUP3 MUL SWAP1 POP SWAP3 SWAP2 POP POP JUMP JUMPDEST PUSH1 0x0 PUSH2 0x34E1 DUP3 PUSH2 0x358B JUMP JUMPDEST SWAP2 POP PUSH2 0x34EC DUP4 PUSH2 0x358B JUMP JUMPDEST SWAP3 POP DUP3 DUP3 LT ISZERO PUSH2 0x34FF JUMPI PUSH2 0x34FE PUSH2 0x36B9 JUMP JUMPDEST JUMPDEST DUP3 DUP3 SUB SWAP1 POP SWAP3 SWAP2 POP POP JUMP JUMPDEST PUSH1 0x0 PUSH2 0x3515 DUP3 PUSH2 0x356B JUMP JUMPDEST SWAP1 POP SWAP2 SWAP1 POP JUMP JUMPDEST PUSH1 0x0 DUP2 ISZERO ISZERO SWAP1 POP SWAP2 SWAP1 POP JUMP JUMPDEST PUSH1 0x0 DUP2 SWAP1 POP SWAP2 SWAP1 POP JUMP JUMPDEST PUSH1 0x0 DUP2 SWAP1 POP PUSH2 0x3540 DUP3 PUSH2 0x3A5A JUMP JUMPDEST SWAP2 SWAP1 POP JUMP JUMPDEST PUSH1 0x0 DUP2 SWAP1 POP PUSH2 0x3553 DUP3 PUSH2 0x3A6E JUMP JUMPDEST SWAP2 SWAP1 POP JUMP JUMPDEST PUSH1 0x0 DUP2 SWAP1 POP PUSH2 0x3566 DUP3 PUSH2 0x3A82 JUMP JUMPDEST SWAP2 SWAP1 POP JUMP JUMPDEST PUSH1 0x0 PUSH20 0xFFFFFFFFFFFFFFFFFFFFFFFFFFFFFFFFFFFFFFFF DUP3 AND SWAP1 POP SWAP2 SWAP1 POP JUMP JUMPDEST PUSH1 0x0 DUP2 SWAP1 POP SWAP2 SWAP1 POP JUMP JUMPDEST PUSH1 0x0 PUSH2 0x35A0 DUP3 PUSH2 0x3532 JUMP JUMPDEST SWAP1 POP SWAP2 SWAP1 POP JUMP JUMPDEST PUSH1 0x0 PUSH2 0x35B2 DUP3 PUSH2 0x3545 JUMP JUMPDEST SWAP1 POP SWAP2 SWAP1 POP JUMP JUMPDEST PUSH1 0x0 PUSH2 0x35C4 DUP3 PUSH2 0x3558 JUMP JUMPDEST SWAP1 POP SWAP2 SWAP1 POP JUMP JUMPDEST DUP3 DUP2 DUP4 CALLDATACOPY PUSH1 0x0 DUP4 DUP4 ADD MSTORE POP POP POP JUMP JUMPDEST PUSH1 0x0 JUMPDEST DUP4 DUP2 LT ISZERO PUSH2 0x35F8 JUMPI DUP1 DUP3 ADD MLOAD DUP2 DUP5 ADD MSTORE PUSH1 0x20 DUP2 ADD SWAP1 POP PUSH2 0x35DD JUMP JUMPDEST DUP4 DUP2 GT ISZERO PUSH2 0x3607 JUMPI PUSH1 0x0 DUP5 DUP5 ADD MSTORE JUMPDEST POP POP POP POP JUMP JUMPDEST PUSH1 0x0 PUSH1 0x2 DUP3 DIV SWAP1 POP PUSH1 0x1 DUP3 AND DUP1 PUSH2 0x3625 JUMPI PUSH1 0x7F DUP3 AND SWAP2 POP JUMPDEST PUSH1 0x20 DUP3 LT DUP2 EQ ISZERO PUSH2 0x3639 JUMPI PUSH2 0x3638 PUSH2 0x3717 JUMP JUMPDEST JUMPDEST POP SWAP2 SWAP1 POP JUMP JUMPDEST PUSH2 0x3648 DUP3 PUSH2 0x37F1 JUMP JUMPDEST DUP2 ADD DUP2 DUP2 LT PUSH8 0xFFFFFFFFFFFFFFFF DUP3 GT OR ISZERO PUSH2 0x3667 JUMPI PUSH2 0x3666 PUSH2 0x37A4 JUMP JUMPDEST JUMPDEST DUP1 PUSH1 0x40 MSTORE POP POP POP JUMP JUMPDEST PUSH1 0x0 PUSH2 0x367B DUP3 PUSH2 0x358B JUMP JUMPDEST SWAP2 POP PUSH32 0xFFFFFFFFFFFFFFFFFFFFFFFFFFFFFFFFFFFFFFFFFFFFFFFFFFFFFFFFFFFFFFFF DUP3 EQ ISZERO PUSH2 0x36AE JUMPI PUSH2 0x36AD PUSH2 0x36B9 JUMP JUMPDEST JUMPDEST PUSH1 0x1 DUP3 ADD SWAP1 POP SWAP2 SWAP1 POP JUMP JUMPDEST PUSH32 0x4E487B7100000000000000000000000000000000000000000000000000000000 PUSH1 0x0 MSTORE PUSH1 0x11 PUSH1 0x4 MSTORE PUSH1 0x24 PUSH1 0x0 REVERT JUMPDEST PUSH32 0x4E487B7100000000000000000000000000000000000000000000000000000000 PUSH1 0x0 MSTORE PUSH1 0x21 PUSH1 0x4 MSTORE PUSH1 0x24 PUSH1 0x0 REVERT JUMPDEST PUSH32 0x4E487B7100000000000000000000000000000000000000000000000000000000 PUSH1 0x0 MSTORE PUSH1 0x22 PUSH1 0x4 MSTORE PUSH1 0x24 PUSH1 0x0 REVERT JUMPDEST PUSH32 0x4E487B7100000000000000000000000000000000000000000000000000000000 PUSH1 0x0 MSTORE PUSH1 0x31 PUSH1 0x4 MSTORE PUSH1 0x24 PUSH1 0x0 REVERT JUMPDEST PUSH32 0x4E487B7100000000000000000000000000000000000000000000000000000000 PUSH1 0x0 MSTORE PUSH1 0x32 PUSH1 0x4 MSTORE PUSH1 0x24 PUSH1 0x0 REVERT JUMPDEST PUSH32 0x4E487B7100000000000000000000000000000000000000000000000000000000 PUSH1 0x0 MSTORE PUSH1 0x41 PUSH1 0x4 MSTORE PUSH1 0x24 PUSH1 0x0 REVERT JUMPDEST PUSH1 0x0 DUP1 REVERT JUMPDEST PUSH1 0x0 DUP1 REVERT JUMPDEST PUSH1 0x0 DUP1 REVERT JUMPDEST PUSH1 0x0 DUP1 REVERT JUMPDEST PUSH1 0x0 DUP1 REVERT JUMPDEST PUSH1 0x0 DUP1 REVERT JUMPDEST PUSH1 0x0 PUSH1 0x1F NOT PUSH1 0x1F DUP4 ADD AND SWAP1 POP SWAP2 SWAP1 POP JUMP JUMPDEST PUSH32 0x54686520666F6C6C6F77696E6720636F6E74726163742068617320616C726561 PUSH1 0x0 DUP3 ADD MSTORE PUSH32 0x6479206265656E2061646465642E000000000000000000000000000000000000 PUSH1 0x20 DUP3 ADD MSTORE POP JUMP JUMPDEST PUSH32 0x54686520666F6C6C6F77696E672076656869636C652068617320616C72656164 PUSH1 0x0 DUP3 ADD MSTORE PUSH32 0x79206265656E2061646465642E00000000000000000000000000000000000000 PUSH1 0x20 DUP3 ADD MSTORE POP JUMP JUMPDEST PUSH32 0x436F756C64206E6F742070726F63656564206265636175736520746865726520 PUSH1 0x0 DUP3 ADD MSTORE PUSH32 0x6973206E6F7420656E6F7567682045544820696E20796F75722077616C6C6574 PUSH1 0x20 DUP3 ADD MSTORE POP JUMP JUMPDEST PUSH32 0x5265737472696374656420746F206F776E6572732E0000000000000000000000 PUSH1 0x0 DUP3 ADD MSTORE POP JUMP JUMPDEST PUSH32 0x4661696C656420746F2073656E64204574686572000000000000000000000000 PUSH1 0x0 DUP3 ADD MSTORE POP JUMP JUMPDEST PUSH32 0x5468652073656C65637465642076656869636C652069732063757272656E746C PUSH1 0x0 DUP3 ADD MSTORE PUSH32 0x79206E6F7420617661696C61626C652E00000000000000000000000000000000 PUSH1 0x20 DUP3 ADD MSTORE POP JUMP JUMPDEST PUSH32 0x54686520666F6C6C6F77696E6720636F6E747261637420636F756C64206E6F74 PUSH1 0x0 DUP3 ADD MSTORE PUSH32 0x20626520666F756E6420696E20746865206D617070696E67206C6973742E0000 PUSH1 0x20 DUP3 ADD MSTORE POP JUMP JUMPDEST POP JUMP JUMPDEST PUSH32 0x5265737472696374656420746F2072656E746572732E00000000000000000000 PUSH1 0x0 DUP3 ADD MSTORE POP JUMP JUMPDEST PUSH32 0x54686520666F6C6C6F77696E672076656869636C6520636F756C64206E6F7420 PUSH1 0x0 DUP3 ADD MSTORE PUSH32 0x626520666F756E6420696E20746865206D617070696E67206C6973742E000000 PUSH1 0x20 DUP3 ADD MSTORE POP JUMP JUMPDEST PUSH1 0x3 DUP2 LT PUSH2 0x3A6B JUMPI PUSH2 0x3A6A PUSH2 0x36E8 JUMP JUMPDEST JUMPDEST POP JUMP JUMPDEST PUSH1 0x2 DUP2 LT PUSH2 0x3A7F JUMPI PUSH2 0x3A7E PUSH2 0x36E8 JUMP JUMPDEST JUMPDEST POP JUMP JUMPDEST PUSH1 0x7 DUP2 LT PUSH2 0x3A93 JUMPI PUSH2 0x3A92 PUSH2 0x36E8 JUMP JUMPDEST JUMPDEST POP JUMP JUMPDEST PUSH2 0x3A9F DUP2 PUSH2 0x350A JUMP JUMPDEST DUP2 EQ PUSH2 0x3AAA JUMPI PUSH1 0x0 DUP1 REVERT JUMPDEST POP JUMP JUMPDEST PUSH2 0x3AB6 DUP2 PUSH2 0x3528 JUMP JUMPDEST DUP2 EQ PUSH2 0x3AC1 JUMPI PUSH1 0x0 DUP1 REVERT JUMPDEST POP JUMP JUMPDEST PUSH1 0x7 DUP2 LT PUSH2 0x3AD1 JUMPI PUSH1 0x0 DUP1 REVERT JUMPDEST POP JUMP JUMPDEST PUSH2 0x3ADD DUP2 PUSH2 0x358B JUMP JUMPDEST DUP2 EQ PUSH2 0x3AE8 JUMPI PUSH1 0x0 DUP1 REVERT JUMPDEST POP JUMP INVALID LOG2 PUSH5 0x6970667358 0x22 SLT KECCAK256 EXTCODESIZE BALANCE 0xC4 GASLIMIT 0xD4 PUSH25 0x769A484EA60366AEAC19CA4BE3EB27B82363E198F986B969F8 0xBD PUSH5 0x736F6C6343 STOP ADDMOD SMOD STOP CALLER "
				},
				"gasEstimates": {
					"creation": {
						"codeDepositCost": "3027400",
						"executionCost": "13345",
						"totalCost": "3040745"
					},
					"external": {
						"OWNER_ROLE()": "439",
						"RENTER_ROLE()": "373",
						"addInsurancePackage(uint256,uint256,uint256)": "infinite",
						"addOwner(address)": "infinite",
						"addRentPeriod(uint256,(bytes32,bytes32),uint256)": "infinite",
						"addRenter(address)": "infinite",
						"addVehicle(bytes32,bytes32,uint8,(bytes,bytes),uint256,bytes32,uint256)": "infinite",
						"completion(uint256,uint256)": "infinite",
						"confirmation(uint256,uint256)": "infinite",
						"contractCount()": "2452",
						"contracts(uint256)": "infinite",
						"getContractByID(uint256)": "infinite",
						"getRoleMember(bytes32,uint256)": "infinite",
						"getRoleMemberCount(bytes32)": "2952",
						"getVehicleByID(uint256)": "infinite",
						"hasRole(bytes32,address)": "infinite",
						"isOwner(address)": "infinite",
						"isRenter(address)": "infinite",
						"paymentProcess(uint256)": "471",
						"removeOwner(address)": "infinite",
						"removeRenter(address)": "infinite",
						"renounceOwner()": "infinite",
						"renounceRenter()": "infinite",
						"vehicleCount()": "2540",
						"vehicles(uint256)": "infinite"
					}
				},
				"methodIdentifiers": {
					"OWNER_ROLE()": "e58378bb",
					"RENTER_ROLE()": "b97c9f77",
					"addInsurancePackage(uint256,uint256,uint256)": "37c3510a",
					"addOwner(address)": "7065cb48",
					"addRentPeriod(uint256,(bytes32,bytes32),uint256)": "a1a25243",
					"addRenter(address)": "de8b1989",
					"addVehicle(bytes32,bytes32,uint8,(bytes,bytes),uint256,bytes32,uint256)": "11060ec7",
					"completion(uint256,uint256)": "87b50547",
					"confirmation(uint256,uint256)": "79b67caa",
					"contractCount()": "8736381a",
					"contracts(uint256)": "474da79a",
					"getContractByID(uint256)": "7b66fe2e",
					"getRoleMember(bytes32,uint256)": "9010d07c",
					"getRoleMemberCount(bytes32)": "ca15c873",
					"getVehicleByID(uint256)": "69a8f49e",
					"hasRole(bytes32,address)": "91d14854",
					"isOwner(address)": "2f54bf6e",
					"isRenter(address)": "9f2bc40e",
					"paymentProcess(uint256)": "74539cd0",
					"removeOwner(address)": "173825d9",
					"removeRenter(address)": "02aec3ce",
					"renounceOwner()": "28c23a45",
					"renounceRenter()": "a36a5d8d",
					"vehicleCount()": "99704937",
					"vehicles(uint256)": "b8ba95fa"
				}
			},
			"storageLayout": {
				"storage": [
					{
						"astId": 2434,
						"contract": "contracts/Rental.sol:Rental",
						"label": "_roles",
						"offset": 0,
						"slot": "0",
						"type": "t_mapping(t_bytes32,t_struct(AddressSet)1433_storage)"
					},
					{
						"astId": 1733,
						"contract": "contracts/Rental.sol:Rental",
						"label": "sender",
						"offset": 0,
						"slot": "1",
						"type": "t_address_payable"
					},
					{
						"astId": 1735,
						"contract": "contracts/Rental.sol:Rental",
						"label": "recipient",
						"offset": 0,
						"slot": "2",
						"type": "t_address_payable"
					},
					{
						"astId": 1947,
						"contract": "contracts/Rental.sol:Rental",
						"label": "vehicleCount",
						"offset": 0,
						"slot": "3",
						"type": "t_uint256"
					},
					{
						"astId": 1950,
						"contract": "contracts/Rental.sol:Rental",
						"label": "contractCount",
						"offset": 0,
						"slot": "4",
						"type": "t_uint256"
					},
					{
						"astId": 1955,
						"contract": "contracts/Rental.sol:Rental",
						"label": "getVehicleByID",
						"offset": 0,
						"slot": "5",
						"type": "t_mapping(t_uint256,t_struct(Vehicle)1920_storage)"
					},
					{
						"astId": 1959,
						"contract": "contracts/Rental.sol:Rental",
						"label": "vehicles",
						"offset": 0,
						"slot": "6",
						"type": "t_array(t_struct(Vehicle)1920_storage)dyn_storage"
					},
					{
						"astId": 1964,
						"contract": "contracts/Rental.sol:Rental",
						"label": "getContractByID",
						"offset": 0,
						"slot": "7",
						"type": "t_mapping(t_uint256,t_struct(Contract)1943_storage)"
					},
					{
						"astId": 1968,
						"contract": "contracts/Rental.sol:Rental",
						"label": "contracts",
						"offset": 0,
						"slot": "8",
						"type": "t_array(t_struct(Contract)1943_storage)dyn_storage"
					}
				],
				"types": {
					"t_address": {
						"encoding": "inplace",
						"label": "address",
						"numberOfBytes": "20"
					},
					"t_address_payable": {
						"encoding": "inplace",
						"label": "address payable",
						"numberOfBytes": "20"
					},
					"t_array(t_bytes32)dyn_storage": {
						"base": "t_bytes32",
						"encoding": "dynamic_array",
						"label": "bytes32[]",
						"numberOfBytes": "32"
					},
					"t_array(t_struct(Contract)1943_storage)dyn_storage": {
						"base": "t_struct(Contract)1943_storage",
						"encoding": "dynamic_array",
						"label": "struct Rental.Contract[]",
						"numberOfBytes": "32"
					},
					"t_array(t_struct(Vehicle)1920_storage)dyn_storage": {
						"base": "t_struct(Vehicle)1920_storage",
						"encoding": "dynamic_array",
						"label": "struct Rental.Vehicle[]",
						"numberOfBytes": "32"
					},
					"t_bytes32": {
						"encoding": "inplace",
						"label": "bytes32",
						"numberOfBytes": "32"
					},
					"t_bytes_storage": {
						"encoding": "bytes",
						"label": "bytes",
						"numberOfBytes": "32"
					},
					"t_enum(ContractStatus)1893": {
						"encoding": "inplace",
						"label": "enum Rental.ContractStatus",
						"numberOfBytes": "1"
					},
					"t_enum(VehicleStatus)1889": {
						"encoding": "inplace",
						"label": "enum Rental.VehicleStatus",
						"numberOfBytes": "1"
					},
					"t_enum(VehicleType)1886": {
						"encoding": "inplace",
						"label": "enum Rental.VehicleType",
						"numberOfBytes": "1"
					},
					"t_mapping(t_bytes32,t_struct(AddressSet)1433_storage)": {
						"encoding": "mapping",
						"key": "t_bytes32",
						"label": "mapping(bytes32 => struct EnumerableSet.AddressSet)",
						"numberOfBytes": "32",
						"value": "t_struct(AddressSet)1433_storage"
					},
					"t_mapping(t_bytes32,t_uint256)": {
						"encoding": "mapping",
						"key": "t_bytes32",
						"label": "mapping(bytes32 => uint256)",
						"numberOfBytes": "32",
						"value": "t_uint256"
					},
					"t_mapping(t_uint256,t_struct(Contract)1943_storage)": {
						"encoding": "mapping",
						"key": "t_uint256",
						"label": "mapping(uint256 => struct Rental.Contract)",
						"numberOfBytes": "32",
						"value": "t_struct(Contract)1943_storage"
					},
					"t_mapping(t_uint256,t_struct(Vehicle)1920_storage)": {
						"encoding": "mapping",
						"key": "t_uint256",
						"label": "mapping(uint256 => struct Rental.Vehicle)",
						"numberOfBytes": "32",
						"value": "t_struct(Vehicle)1920_storage"
					},
					"t_struct(AddressSet)1433_storage": {
						"encoding": "inplace",
						"label": "struct EnumerableSet.AddressSet",
						"members": [
							{
								"astId": 1432,
								"contract": "contracts/Rental.sol:Rental",
								"label": "_inner",
								"offset": 0,
								"slot": "0",
								"type": "t_struct(Set)1132_storage"
							}
						],
						"numberOfBytes": "64"
					},
					"t_struct(Contract)1943_storage": {
						"encoding": "inplace",
						"label": "struct Rental.Contract",
						"members": [
							{
								"astId": 1927,
								"contract": "contracts/Rental.sol:Rental",
								"label": "id",
								"offset": 0,
								"slot": "0",
								"type": "t_address"
							},
							{
								"astId": 1930,
								"contract": "contracts/Rental.sol:Rental",
								"label": "selectedVehicle",
								"offset": 0,
								"slot": "1",
								"type": "t_struct(Vehicle)1920_storage"
							},
							{
								"astId": 1933,
								"contract": "contracts/Rental.sol:Rental",
								"label": "period",
								"offset": 0,
								"slot": "11",
								"type": "t_struct(Period)1925_storage"
							},
							{
								"astId": 1935,
								"contract": "contracts/Rental.sol:Rental",
								"label": "totalCost",
								"offset": 0,
								"slot": "13",
								"type": "t_uint256"
							},
							{
								"astId": 1937,
								"contract": "contracts/Rental.sol:Rental",
								"label": "insuranceDeposit",
								"offset": 0,
								"slot": "14",
								"type": "t_uint256"
							},
							{
								"astId": 1939,
								"contract": "contracts/Rental.sol:Rental",
								"label": "dateOfIssuance",
								"offset": 0,
								"slot": "15",
								"type": "t_uint256"
							},
							{
								"astId": 1942,
								"contract": "contracts/Rental.sol:Rental",
								"label": "status",
								"offset": 0,
								"slot": "16",
								"type": "t_enum(ContractStatus)1893"
							}
						],
						"numberOfBytes": "544"
					},
					"t_struct(Coordinate)1898_storage": {
						"encoding": "inplace",
						"label": "struct Rental.Coordinate",
						"members": [
							{
								"astId": 1895,
								"contract": "contracts/Rental.sol:Rental",
								"label": "latitude",
								"offset": 0,
								"slot": "0",
								"type": "t_bytes_storage"
							},
							{
								"astId": 1897,
								"contract": "contracts/Rental.sol:Rental",
								"label": "longitude",
								"offset": 0,
								"slot": "1",
								"type": "t_bytes_storage"
							}
						],
						"numberOfBytes": "64"
					},
					"t_struct(Period)1925_storage": {
						"encoding": "inplace",
						"label": "struct Rental.Period",
						"members": [
							{
								"astId": 1922,
								"contract": "contracts/Rental.sol:Rental",
								"label": "from",
								"offset": 0,
								"slot": "0",
								"type": "t_bytes32"
							},
							{
								"astId": 1924,
								"contract": "contracts/Rental.sol:Rental",
								"label": "to",
								"offset": 0,
								"slot": "1",
								"type": "t_bytes32"
							}
						],
						"numberOfBytes": "64"
					},
					"t_struct(Set)1132_storage": {
						"encoding": "inplace",
						"label": "struct EnumerableSet.Set",
						"members": [
							{
								"astId": 1127,
								"contract": "contracts/Rental.sol:Rental",
								"label": "_values",
								"offset": 0,
								"slot": "0",
								"type": "t_array(t_bytes32)dyn_storage"
							},
							{
								"astId": 1131,
								"contract": "contracts/Rental.sol:Rental",
								"label": "_indexes",
								"offset": 0,
								"slot": "1",
								"type": "t_mapping(t_bytes32,t_uint256)"
							}
						],
						"numberOfBytes": "64"
					},
					"t_struct(Vehicle)1920_storage": {
						"encoding": "inplace",
						"label": "struct Rental.Vehicle",
						"members": [
							{
								"astId": 1900,
								"contract": "contracts/Rental.sol:Rental",
								"label": "id",
								"offset": 0,
								"slot": "0",
								"type": "t_uint256"
							},
							{
								"astId": 1902,
								"contract": "contracts/Rental.sol:Rental",
								"label": "name",
								"offset": 0,
								"slot": "1",
								"type": "t_bytes32"
							},
							{
								"astId": 1904,
								"contract": "contracts/Rental.sol:Rental",
								"label": "brand",
								"offset": 0,
								"slot": "2",
								"type": "t_bytes32"
							},
							{
								"astId": 1907,
								"contract": "contracts/Rental.sol:Rental",
								"label": "vehicleType",
								"offset": 0,
								"slot": "3",
								"type": "t_enum(VehicleType)1886"
							},
							{
								"astId": 1910,
								"contract": "contracts/Rental.sol:Rental",
								"label": "location",
								"offset": 0,
								"slot": "4",
								"type": "t_struct(Coordinate)1898_storage"
							},
							{
								"astId": 1912,
								"contract": "contracts/Rental.sol:Rental",
								"label": "model",
								"offset": 0,
								"slot": "6",
								"type": "t_uint256"
							},
							{
								"astId": 1914,
								"contract": "contracts/Rental.sol:Rental",
								"label": "image",
								"offset": 0,
								"slot": "7",
								"type": "t_bytes32"
							},
							{
								"astId": 1916,
								"contract": "contracts/Rental.sol:Rental",
								"label": "rentCost",
								"offset": 0,
								"slot": "8",
								"type": "t_uint256"
							},
							{
								"astId": 1919,
								"contract": "contracts/Rental.sol:Rental",
								"label": "status",
								"offset": 0,
								"slot": "9",
								"type": "t_enum(VehicleStatus)1889"
							}
						],
						"numberOfBytes": "320"
					},
					"t_uint256": {
						"encoding": "inplace",
						"label": "uint256",
						"numberOfBytes": "32"
					}
				}
			},
			"userdoc": {
				"kind": "user",
				"methods": {
					"vehicleCount()": {
						"notice": "Variables"
					}
				},
				"version": 1
			}
		}
	}
}