{
  "_format": "hh-sol-artifact-1",
  "contractName": "Rental",
  "sourceName": "contracts/Rental.sol",
  "abi": [
    {
      "inputs": [],
      "stateMutability": "nonpayable",
      "type": "constructor"
    },
    {
      "anonymous": false,
      "inputs": [
        {
          "indexed": false,
          "internalType": "uint256",
          "name": "contractId",
          "type": "uint256"
        }
      ],
      "name": "Finished",
      "type": "event"
    },
    {
      "anonymous": false,
      "inputs": [
        {
          "indexed": false,
          "internalType": "uint256",
          "name": "carId",
          "type": "uint256"
        },
        {
          "indexed": false,
          "internalType": "uint256",
          "name": "contractId",
          "type": "uint256"
        },
        {
          "indexed": false,
          "internalType": "uint256",
          "name": "insuranceDeposit",
          "type": "uint256"
        }
      ],
      "name": "InsurancePackageAdded",
      "type": "event"
    },
    {
      "anonymous": false,
      "inputs": [
        {
          "indexed": false,
          "internalType": "address",
          "name": "id",
          "type": "address"
        },
        {
          "indexed": false,
          "internalType": "uint256",
          "name": "carId",
          "type": "uint256"
        },
        {
          "indexed": false,
          "internalType": "bytes32",
          "name": "from",
          "type": "bytes32"
        },
        {
          "indexed": false,
          "internalType": "bytes32",
          "name": "to",
          "type": "bytes32"
        },
        {
          "indexed": false,
          "internalType": "uint256",
          "name": "dayscount",
          "type": "uint256"
        },
        {
          "indexed": false,
          "internalType": "uint256",
          "name": "totalCost",
          "type": "uint256"
        },
        {
          "indexed": false,
          "internalType": "uint256",
          "name": "insuranceDeposit",
          "type": "uint256"
        },
        {
          "indexed": false,
          "internalType": "uint256",
          "name": "dateOfIssuance",
          "type": "uint256"
        }
      ],
      "name": "NewContract",
      "type": "event"
    },
    {
      "anonymous": false,
      "inputs": [
        {
          "indexed": false,
          "internalType": "uint256",
          "name": "id",
          "type": "uint256"
        },
        {
          "indexed": false,
          "internalType": "bytes32",
          "name": "name",
          "type": "bytes32"
        },
        {
          "indexed": false,
          "internalType": "bytes32",
          "name": "brand",
          "type": "bytes32"
        },
        {
          "indexed": false,
          "internalType": "uint256",
          "name": "vehicleType",
          "type": "uint256"
        },
        {
          "indexed": false,
          "internalType": "bytes32",
          "name": "latitude",
          "type": "bytes32"
        },
        {
          "indexed": false,
          "internalType": "bytes32",
          "name": "longitude",
          "type": "bytes32"
        },
        {
          "indexed": false,
          "internalType": "uint256",
          "name": "model",
          "type": "uint256"
        },
        {
          "indexed": false,
          "internalType": "bytes32",
          "name": "image",
          "type": "bytes32"
        },
        {
          "indexed": false,
          "internalType": "uint256",
          "name": "rentCost",
          "type": "uint256"
        }
      ],
      "name": "NewVehicle",
      "type": "event"
    },
    {
      "anonymous": false,
      "inputs": [
        {
          "indexed": false,
          "internalType": "uint256",
          "name": "contractId",
          "type": "uint256"
        },
        {
          "indexed": false,
          "internalType": "uint256",
          "name": "carId",
          "type": "uint256"
        },
        {
          "indexed": false,
          "internalType": "uint256",
          "name": "totalAmount",
          "type": "uint256"
        }
      ],
      "name": "ProceedPayment",
      "type": "event"
    },
    {
      "anonymous": false,
      "inputs": [
        {
          "indexed": false,
          "internalType": "uint256",
          "name": "contractId",
          "type": "uint256"
        },
        {
          "indexed": false,
          "internalType": "uint256",
          "name": "insuranceDeposit",
          "type": "uint256"
        }
      ],
      "name": "ReturnInsuranceDeposit",
      "type": "event"
    },
    {
      "anonymous": false,
      "inputs": [
        {
          "indexed": true,
          "internalType": "bytes32",
          "name": "role",
          "type": "bytes32"
        },
        {
          "indexed": true,
          "internalType": "address",
          "name": "account",
          "type": "address"
        },
        {
          "indexed": true,
          "internalType": "address",
          "name": "sender",
          "type": "address"
        }
      ],
      "name": "RoleGranted",
      "type": "event"
    },
    {
      "anonymous": false,
      "inputs": [
        {
          "indexed": true,
          "internalType": "bytes32",
          "name": "role",
          "type": "bytes32"
        },
        {
          "indexed": true,
          "internalType": "address",
          "name": "account",
          "type": "address"
        },
        {
          "indexed": true,
          "internalType": "address",
          "name": "sender",
          "type": "address"
        }
      ],
      "name": "RoleRevoked",
      "type": "event"
    },
    {
      "inputs": [],
      "name": "OWNER_ROLE",
      "outputs": [
        {
          "internalType": "bytes32",
          "name": "",
          "type": "bytes32"
        }
      ],
      "stateMutability": "view",
      "type": "function"
    },
    {
      "inputs": [],
      "name": "RENTER_ROLE",
      "outputs": [
        {
          "internalType": "bytes32",
          "name": "",
          "type": "bytes32"
        }
      ],
      "stateMutability": "view",
      "type": "function"
    },
    {
      "inputs": [
        {
          "internalType": "uint256",
          "name": "carId",
          "type": "uint256"
        },
        {
          "internalType": "uint256",
          "name": "contractId",
          "type": "uint256"
        },
        {
          "internalType": "uint256",
          "name": "insuranceDeposit",
          "type": "uint256"
        }
      ],
      "name": "addInsurancePackage",
      "outputs": [
        {
          "internalType": "bool",
          "name": "success",
          "type": "bool"
        }
      ],
      "stateMutability": "nonpayable",
      "type": "function"
    },
    {
      "inputs": [
        {
          "internalType": "address",
          "name": "account",
          "type": "address"
        }
      ],
      "name": "addOwner",
      "outputs": [],
      "stateMutability": "nonpayable",
      "type": "function"
    },
    {
      "inputs": [
        {
          "internalType": "uint256",
          "name": "carId",
          "type": "uint256"
        },
        {
          "internalType": "bytes32",
          "name": "from",
          "type": "bytes32"
        },
        {
          "internalType": "bytes32",
          "name": "to",
          "type": "bytes32"
        },
        {
          "internalType": "uint256",
          "name": "dayscount",
          "type": "uint256"
        }
      ],
      "name": "addRentPeriod",
      "outputs": [
        {
          "internalType": "bool",
          "name": "success",
          "type": "bool"
        }
      ],
      "stateMutability": "nonpayable",
      "type": "function"
    },
    {
      "inputs": [
        {
          "internalType": "address",
          "name": "account",
          "type": "address"
        }
      ],
      "name": "addRenter",
      "outputs": [],
      "stateMutability": "nonpayable",
      "type": "function"
    },
    {
      "inputs": [
        {
          "internalType": "bytes32",
          "name": "name",
          "type": "bytes32"
        },
        {
          "internalType": "bytes32",
          "name": "brand",
          "type": "bytes32"
        },
        {
          "internalType": "uint256",
          "name": "vehicleType",
          "type": "uint256"
        },
        {
          "internalType": "bytes32",
          "name": "latitude",
          "type": "bytes32"
        },
        {
          "internalType": "bytes32",
          "name": "longitude",
          "type": "bytes32"
        },
        {
          "internalType": "uint256",
          "name": "model",
          "type": "uint256"
        },
        {
          "internalType": "bytes32",
          "name": "image",
          "type": "bytes32"
        },
        {
          "internalType": "uint256",
          "name": "rentCost",
          "type": "uint256"
        }
      ],
      "name": "addVehicle",
      "outputs": [
        {
          "internalType": "bool",
          "name": "success",
          "type": "bool"
        }
      ],
      "stateMutability": "nonpayable",
      "type": "function"
    },
    {
      "inputs": [
        {
          "internalType": "uint256",
          "name": "contractId",
          "type": "uint256"
        },
        {
          "internalType": "uint256",
          "name": "carId",
          "type": "uint256"
        }
      ],
      "name": "completion",
      "outputs": [
        {
          "internalType": "bool",
          "name": "success",
          "type": "bool"
        }
      ],
      "stateMutability": "payable",
      "type": "function"
    },
    {
      "inputs": [
        {
          "internalType": "uint256",
          "name": "contractId",
          "type": "uint256"
        },
        {
          "internalType": "uint256",
          "name": "carId",
          "type": "uint256"
        }
      ],
      "name": "confirmation",
      "outputs": [
        {
          "internalType": "bool",
          "name": "success",
          "type": "bool"
        }
      ],
      "stateMutability": "payable",
      "type": "function"
    },
    {
      "inputs": [],
      "name": "contractCount",
      "outputs": [
        {
          "internalType": "uint256",
          "name": "",
          "type": "uint256"
        }
      ],
      "stateMutability": "view",
      "type": "function"
    },
    {
      "inputs": [
        {
          "internalType": "uint256",
          "name": "",
          "type": "uint256"
        }
      ],
      "name": "contracts",
      "outputs": [
        {
          "internalType": "address",
          "name": "id",
          "type": "address"
        },
        {
          "components": [
            {
              "internalType": "uint256",
              "name": "id",
              "type": "uint256"
            },
            {
              "internalType": "bytes32",
              "name": "name",
              "type": "bytes32"
            },
            {
              "internalType": "bytes32",
              "name": "brand",
              "type": "bytes32"
            },
            {
              "internalType": "enum Rental.VehicleType",
              "name": "vehicleType",
              "type": "uint8"
            },
            {
              "components": [
                {
                  "internalType": "bytes32",
                  "name": "latitude",
                  "type": "bytes32"
                },
                {
                  "internalType": "bytes32",
                  "name": "longitude",
                  "type": "bytes32"
                }
              ],
              "internalType": "struct Rental.Coordinate",
              "name": "location",
              "type": "tuple"
            },
            {
              "internalType": "uint256",
              "name": "model",
              "type": "uint256"
            },
            {
              "internalType": "bytes32",
              "name": "image",
              "type": "bytes32"
            },
            {
              "internalType": "uint256",
              "name": "rentCost",
              "type": "uint256"
            },
            {
              "internalType": "enum Rental.VehicleStatus",
              "name": "status",
              "type": "uint8"
            }
          ],
          "internalType": "struct Rental.Vehicle",
          "name": "selectedVehicle",
          "type": "tuple"
        },
        {
          "components": [
            {
              "internalType": "bytes32",
              "name": "from",
              "type": "bytes32"
            },
            {
              "internalType": "bytes32",
              "name": "to",
              "type": "bytes32"
            }
          ],
          "internalType": "struct Rental.Period",
          "name": "period",
          "type": "tuple"
        },
        {
          "internalType": "uint256",
          "name": "totalCost",
          "type": "uint256"
        },
        {
          "internalType": "uint256",
          "name": "insuranceDeposit",
          "type": "uint256"
        },
        {
          "internalType": "uint256",
          "name": "dateOfIssuance",
          "type": "uint256"
        },
        {
          "internalType": "enum Rental.ContractStatus",
          "name": "status",
          "type": "uint8"
        }
      ],
      "stateMutability": "view",
      "type": "function"
    },
    {
      "inputs": [
        {
          "internalType": "uint256",
          "name": "",
          "type": "uint256"
        }
      ],
      "name": "getContractByID",
      "outputs": [
        {
          "internalType": "address",
          "name": "id",
          "type": "address"
        },
        {
          "components": [
            {
              "internalType": "uint256",
              "name": "id",
              "type": "uint256"
            },
            {
              "internalType": "bytes32",
              "name": "name",
              "type": "bytes32"
            },
            {
              "internalType": "bytes32",
              "name": "brand",
              "type": "bytes32"
            },
            {
              "internalType": "enum Rental.VehicleType",
              "name": "vehicleType",
              "type": "uint8"
            },
            {
              "components": [
                {
                  "internalType": "bytes32",
                  "name": "latitude",
                  "type": "bytes32"
                },
                {
                  "internalType": "bytes32",
                  "name": "longitude",
                  "type": "bytes32"
                }
              ],
              "internalType": "struct Rental.Coordinate",
              "name": "location",
              "type": "tuple"
            },
            {
              "internalType": "uint256",
              "name": "model",
              "type": "uint256"
            },
            {
              "internalType": "bytes32",
              "name": "image",
              "type": "bytes32"
            },
            {
              "internalType": "uint256",
              "name": "rentCost",
              "type": "uint256"
            },
            {
              "internalType": "enum Rental.VehicleStatus",
              "name": "status",
              "type": "uint8"
            }
          ],
          "internalType": "struct Rental.Vehicle",
          "name": "selectedVehicle",
          "type": "tuple"
        },
        {
          "components": [
            {
              "internalType": "bytes32",
              "name": "from",
              "type": "bytes32"
            },
            {
              "internalType": "bytes32",
              "name": "to",
              "type": "bytes32"
            }
          ],
          "internalType": "struct Rental.Period",
          "name": "period",
          "type": "tuple"
        },
        {
          "internalType": "uint256",
          "name": "totalCost",
          "type": "uint256"
        },
        {
          "internalType": "uint256",
          "name": "insuranceDeposit",
          "type": "uint256"
        },
        {
          "internalType": "uint256",
          "name": "dateOfIssuance",
          "type": "uint256"
        },
        {
          "internalType": "enum Rental.ContractStatus",
          "name": "status",
          "type": "uint8"
        }
      ],
      "stateMutability": "view",
      "type": "function"
    },
    {
      "inputs": [
        {
          "internalType": "bytes32",
          "name": "role",
          "type": "bytes32"
        },
        {
          "internalType": "uint256",
          "name": "index",
          "type": "uint256"
        }
      ],
      "name": "getRoleMember",
      "outputs": [
        {
          "internalType": "address",
          "name": "",
          "type": "address"
        }
      ],
      "stateMutability": "view",
      "type": "function"
    },
    {
      "inputs": [
        {
          "internalType": "bytes32",
          "name": "role",
          "type": "bytes32"
        }
      ],
      "name": "getRoleMemberCount",
      "outputs": [
        {
          "internalType": "uint256",
          "name": "",
          "type": "uint256"
        }
      ],
      "stateMutability": "view",
      "type": "function"
    },
    {
      "inputs": [
        {
          "internalType": "uint256",
          "name": "",
          "type": "uint256"
        }
      ],
      "name": "getVehicleByID",
      "outputs": [
        {
          "internalType": "uint256",
          "name": "id",
          "type": "uint256"
        },
        {
          "internalType": "bytes32",
          "name": "name",
          "type": "bytes32"
        },
        {
          "internalType": "bytes32",
          "name": "brand",
          "type": "bytes32"
        },
        {
          "internalType": "enum Rental.VehicleType",
          "name": "vehicleType",
          "type": "uint8"
        },
        {
          "components": [
            {
              "internalType": "bytes32",
              "name": "latitude",
              "type": "bytes32"
            },
            {
              "internalType": "bytes32",
              "name": "longitude",
              "type": "bytes32"
            }
          ],
          "internalType": "struct Rental.Coordinate",
          "name": "location",
          "type": "tuple"
        },
        {
          "internalType": "uint256",
          "name": "model",
          "type": "uint256"
        },
        {
          "internalType": "bytes32",
          "name": "image",
          "type": "bytes32"
        },
        {
          "internalType": "uint256",
          "name": "rentCost",
          "type": "uint256"
        },
        {
          "internalType": "enum Rental.VehicleStatus",
          "name": "status",
          "type": "uint8"
        }
      ],
      "stateMutability": "view",
      "type": "function"
    },
    {
      "inputs": [
        {
          "internalType": "bytes32",
          "name": "role",
          "type": "bytes32"
        },
        {
          "internalType": "address",
          "name": "account",
          "type": "address"
        }
      ],
      "name": "hasRole",
      "outputs": [
        {
          "internalType": "bool",
          "name": "",
          "type": "bool"
        }
      ],
      "stateMutability": "view",
      "type": "function"
    },
    {
      "inputs": [
        {
          "internalType": "address",
          "name": "account",
          "type": "address"
        }
      ],
      "name": "isOwner",
      "outputs": [
        {
          "internalType": "bool",
          "name": "",
          "type": "bool"
        }
      ],
      "stateMutability": "view",
      "type": "function"
    },
    {
      "inputs": [
        {
          "internalType": "address",
          "name": "account",
          "type": "address"
        }
      ],
      "name": "isRenter",
      "outputs": [
        {
          "internalType": "bool",
          "name": "",
          "type": "bool"
        }
      ],
      "stateMutability": "view",
      "type": "function"
    },
    {
      "inputs": [
        {
          "internalType": "uint256",
          "name": "",
          "type": "uint256"
        }
      ],
      "name": "paymentProcess",
      "outputs": [],
      "stateMutability": "payable",
      "type": "function"
    },
    {
      "inputs": [
        {
          "internalType": "address",
          "name": "account",
          "type": "address"
        }
      ],
      "name": "removeOwner",
      "outputs": [],
      "stateMutability": "nonpayable",
      "type": "function"
    },
    {
      "inputs": [
        {
          "internalType": "address",
          "name": "account",
          "type": "address"
        }
      ],
      "name": "removeRenter",
      "outputs": [],
      "stateMutability": "nonpayable",
      "type": "function"
    },
    {
      "inputs": [],
      "name": "renounceOwner",
      "outputs": [],
      "stateMutability": "nonpayable",
      "type": "function"
    },
    {
      "inputs": [],
      "name": "renounceRenter",
      "outputs": [],
      "stateMutability": "nonpayable",
      "type": "function"
    },
    {
      "inputs": [],
      "name": "vehicleCount",
      "outputs": [
        {
          "internalType": "uint256",
          "name": "",
          "type": "uint256"
        }
      ],
      "stateMutability": "view",
      "type": "function"
    },
    {
      "inputs": [
        {
          "internalType": "uint256",
          "name": "",
          "type": "uint256"
        }
      ],
      "name": "vehicles",
      "outputs": [
        {
          "internalType": "uint256",
          "name": "id",
          "type": "uint256"
        },
        {
          "internalType": "bytes32",
          "name": "name",
          "type": "bytes32"
        },
        {
          "internalType": "bytes32",
          "name": "brand",
          "type": "bytes32"
        },
        {
          "internalType": "enum Rental.VehicleType",
          "name": "vehicleType",
          "type": "uint8"
        },
        {
          "components": [
            {
              "internalType": "bytes32",
              "name": "latitude",
              "type": "bytes32"
            },
            {
              "internalType": "bytes32",
              "name": "longitude",
              "type": "bytes32"
            }
          ],
          "internalType": "struct Rental.Coordinate",
          "name": "location",
          "type": "tuple"
        },
        {
          "internalType": "uint256",
          "name": "model",
          "type": "uint256"
        },
        {
          "internalType": "bytes32",
          "name": "image",
          "type": "bytes32"
        },
        {
          "internalType": "uint256",
          "name": "rentCost",
          "type": "uint256"
        },
        {
          "internalType": "enum Rental.VehicleStatus",
          "name": "status",
          "type": "uint8"
        }
      ],
      "stateMutability": "view",
      "type": "function"
    }
  ],
  "bytecode": "0x608060405234801561001057600080fd5b5061346b806100206000396000f3fe6080604052600436106101665760003560e01c80638736381a116100d1578063a36a5d8d1161008a578063b97c9f7711610064578063b97c9f77146105a1578063ca15c873146105cc578063de8b198914610609578063e58378bb1461063257610166565b8063a36a5d8d14610508578063aeea80f51461051f578063b8ba95fa1461055c57610166565b80638736381a146103cb57806387b50547146103f65780639010d07c1461042657806391d148541461046357806399704937146104a05780639f2bc40e146104cb57610166565b806369a8f49e1161012357806369a8f49e146102915780637065cb48146102d657806374539cd0146102ff57806379b67caa1461031b5780637b66fe2e1461034b57806385aee0a61461038e57610166565b806302aec3ce1461016b578063173825d91461019457806328c23a45146101bd5780632f54bf6e146101d457806337c3510a14610211578063474da79a1461024e575b600080fd5b34801561017757600080fd5b50610192600480360381019061018d9190612485565b61065d565b005b3480156101a057600080fd5b506101bb60048036038101906101b69190612485565b61068a565b005b3480156101c957600080fd5b506101d26106b7565b005b3480156101e057600080fd5b506101fb60048036038101906101f69190612485565b6106e3565b60405161020891906124cd565b60405180910390f35b34801561021d57600080fd5b506102386004803603810190610233919061251e565b610716565b60405161024591906124cd565b60405180910390f35b34801561025a57600080fd5b5061027560048036038101906102709190612571565b6108fc565b6040516102889796959493929190612801565b60405180910390f35b34801561029d57600080fd5b506102b860048036038101906102b39190612571565b610a7e565b6040516102cd999897969594939291906128d2565b60405180910390f35b3480156102e257600080fd5b506102fd60048036038101906102f89190612485565b610b04565b005b61031960048036038101906103149190612571565b610b72565b005b61033560048036038101906103309190612960565b610b75565b60405161034291906124cd565b60405180910390f35b34801561035757600080fd5b50610372600480360381019061036d9190612571565b610f7b565b6040516103859796959493929190612801565b60405180910390f35b34801561039a57600080fd5b506103b560048036038101906103b091906129cc565b6110ed565b6040516103c291906124cd565b60405180910390f35b3480156103d757600080fd5b506103e0611462565b6040516103ed9190612a82565b60405180910390f35b610410600480360381019061040b9190612960565b611468565b60405161041d91906124cd565b60405180910390f35b34801561043257600080fd5b5061044d60048036038101906104489190612a9d565b6117e4565b60405161045a9190612add565b60405180910390f35b34801561046f57600080fd5b5061048a60048036038101906104859190612af8565b611812565b60405161049791906124cd565b60405180910390f35b3480156104ac57600080fd5b506104b5611840565b6040516104c29190612a82565b60405180910390f35b3480156104d757600080fd5b506104f260048036038101906104ed9190612485565b611846565b6040516104ff91906124cd565b60405180910390f35b34801561051457600080fd5b5061051d611879565b005b34801561052b57600080fd5b5061054660048036038101906105419190612b38565b6118a5565b60405161055391906124cd565b60405180910390f35b34801561056857600080fd5b50610583600480360381019061057e9190612571565b611ee9565b604051610598999897969594939291906128d2565b60405180910390f35b3480156105ad57600080fd5b506105b6611f7f565b6040516105c39190612b9f565b60405180910390f35b3480156105d857600080fd5b506105f360048036038101906105ee9190612bba565b611fa3565b6040516106009190612a82565b60405180910390f35b34801561061557600080fd5b50610630600480360381019061062b9190612485565b611fc6565b005b34801561063e57600080fd5b50610647612034565b6040516106549190612b9f565b60405180910390f35b6106877f52454e544552000000000000000000000000000000000000000000000000000082612058565b50565b6106b47f4f574e455200000000000000000000000000000000000000000000000000000082612058565b50565b6106e17f4f574e455200000000000000000000000000000000000000000000000000000033612058565b565b600061070f7f4f574e455200000000000000000000000000000000000000000000000000000083611812565b9050919050565b600061072133611846565b610760576040517f08c379a000000000000000000000000000000000000000000000000000000000815260040161075790612c44565b60405180910390fd5b8360006001811115610775576107746125d5565b5b6005600083815260200190815260200160002060090160009054906101000a900460ff1660018111156107ab576107aa6125d5565b5b146107eb576040517f08c379a00000000000000000000000000000000000000000000000000000000081526004016107e290612cd6565b60405180910390fd5b83600073ffffffffffffffffffffffffffffffffffffffff166007600083815260200190815260200160002060000160009054906101000a900473ffffffffffffffffffffffffffffffffffffffff1673ffffffffffffffffffffffffffffffffffffffff1603610891576040517f08c379a000000000000000000000000000000000000000000000000000000000815260040161088890612d68565b60405180910390fd5b8360076000878152602001908152602001600020600e01819055507f601f6815f14e12706e308b49dec47ece2d3669abbedd5fb135f3c0a46be9e3a08686866040516108df93929190612d88565b60405180910390a160045460088054905014925050509392505050565b6008818154811061090c57600080fd5b90600052602060002090601102016000915090508060000160009054906101000a900473ffffffffffffffffffffffffffffffffffffffff169080600101604051806101200160405290816000820154815260200160018201548152602001600282015481526020016003820160009054906101000a900460ff166006811115610999576109986125d5565b5b60068111156109ab576109aa6125d5565b5b8152602001600482016040518060400160405290816000820154815260200160018201548152505081526020016006820154815260200160078201548152602001600882015481526020016009820160009054906101000a900460ff166001811115610a1a57610a196125d5565b5b6001811115610a2c57610a2b6125d5565b5b815250509080600b01604051806040016040529081600082015481526020016001820154815250509080600d01549080600e01549080600f0154908060100160009054906101000a900460ff16905087565b60056020528060005260406000206000915090508060000154908060010154908060020154908060030160009054906101000a900460ff16908060040160405180604001604052908160008201548152602001600182015481525050908060060154908060070154908060080154908060090160009054906101000a900460ff16905089565b80600260006101000a81548173ffffffffffffffffffffffffffffffffffffffff021916908373ffffffffffffffffffffffffffffffffffffffff160217905550610b6f7f4f574e4552000000000000000000000000000000000000000000000000000000826120e8565b50565b50565b6000610b8033611846565b610bbf576040517f08c379a0000000000000000000000000000000000000000000000000000000008152600401610bb690612c44565b60405180910390fd5b816000600560008381526020019081526020016000206000015411610c19576040517f08c379a0000000000000000000000000000000000000000000000000000000008152600401610c1090612e31565b60405180910390fd5b8260006001811115610c2e57610c2d6125d5565b5b6005600083815260200190815260200160002060090160009054906101000a900460ff166001811115610c6457610c636125d5565b5b14610ca4576040517f08c379a0000000000000000000000000000000000000000000000000000000008152600401610c9b90612cd6565b60405180910390fd5b84600073ffffffffffffffffffffffffffffffffffffffff166007600083815260200190815260200160002060000160009054906101000a900473ffffffffffffffffffffffffffffffffffffffff1673ffffffffffffffffffffffffffffffffffffffff1603610d4a576040517f08c379a0000000000000000000000000000000000000000000000000000000008152600401610d4190612d68565b60405180910390fd5b85600060076000838152602001908152602001600020600d015460076000848152602001908152602001600020600e0154610d859190612e80565b905080600160009054906101000a900473ffffffffffffffffffffffffffffffffffffffff1673ffffffffffffffffffffffffffffffffffffffff16311015610e03576040517f08c379a0000000000000000000000000000000000000000000000000000000008152600401610dfa90612f26565b60405180910390fd5b6001600760008a815260200190815260200160002060100160006101000a81548160ff02191690836002811115610e3d57610e3c6125d5565b5b021790555060016005600089815260200190815260200160002060090160006101000a81548160ff02191690836001811115610e7c57610e7b6125d5565b5b02179055506000600760008a8152602001908152602001600020600e0154600760008b8152602001908152602001600020600d0154610ebb9190612e80565b90503073ffffffffffffffffffffffffffffffffffffffff166374539cd0826040518263ffffffff1660e01b8152600401610ef69190612a82565b600060405180830381600087803b158015610f1057600080fd5b505af1158015610f24573d6000803e3d6000fd5b505050507f817d426b50bb3c789777f2646e1f9c67c82533f69218769a08734cf7958a7aea898983604051610f5b93929190612d88565b60405180910390a160045460088054905014965050505050505092915050565b60076020528060005260406000206000915090508060000160009054906101000a900473ffffffffffffffffffffffffffffffffffffffff169080600101604051806101200160405290816000820154815260200160018201548152602001600282015481526020016003820160009054906101000a900460ff166006811115611008576110076125d5565b5b600681111561101a576110196125d5565b5b8152602001600482016040518060400160405290816000820154815260200160018201548152505081526020016006820154815260200160078201548152602001600882015481526020016009820160009054906101000a900460ff166001811115611089576110886125d5565b5b600181111561109b5761109a6125d5565b5b815250509080600b01604051806040016040529081600082015481526020016001820154815250509080600d01549080600e01549080600f0154908060100160009054906101000a900460ff16905087565b60006110f8336106e3565b611137576040517f08c379a000000000000000000000000000000000000000000000000000000000815260040161112e90612f92565b60405180910390fd5b60016003546111469190612e80565b6006805490501061118c576040517f08c379a000000000000000000000000000000000000000000000000000000000815260040161118390613024565b60405180910390fd5b60008760068111156111a1576111a06125d5565b5b905060006040518060400160405280898152602001888152509050600060405180610120016040528060035481526020018d81526020018c81526020018460068111156111f1576111f06125d5565b5b815260200183815260200188815260200187815260200186815260200160006001811115611222576112216125d5565b5b81525090508060056000600354815260200190815260200160002060008201518160000155602082015181600101556040820151816002015560608201518160030160006101000a81548160ff02191690836006811115611286576112856125d5565b5b02179055506080820151816004016000820151816000015560208201518160010155505060a0820151816006015560c0820151816007015560e082015181600801556101008201518160090160006101000a81548160ff021916908360018111156112f4576112f36125d5565b5b021790555090505060068190806001815401808255809150506001900390600052602060002090600a020160009091909190915060008201518160000155602082015181600101556040820151816002015560608201518160030160006101000a81548160ff02191690836006811115611371576113706125d5565b5b02179055506080820151816004016000820151816000015560208201518160010155505060a0820151816006015560c0820151816007015560e082015181600801556101008201518160090160006101000a81548160ff021916908360018111156113df576113de6125d5565b5b021790555050507fa380668d7c9d014e9c355ea8aecdc0884e0d3cc63699fad47beea363dfe695796003548d8d8d8d8d8d8d8d60405161142799989796959493929190613044565b60405180910390a160036000815480929190611442906130d1565b919050555060035460068054905014935050505098975050505050505050565b60045481565b600061147333611846565b6114b2576040517f08c379a00000000000000000000000000000000000000000000000000000000081526004016114a990612c44565b60405180910390fd5b81600060056000838152602001908152602001600020600001541161150c576040517f08c379a000000000000000000000000000000000000000000000000000000000815260040161150390612e31565b60405180910390fd5b83600073ffffffffffffffffffffffffffffffffffffffff166007600083815260200190815260200160002060000160009054906101000a900473ffffffffffffffffffffffffffffffffffffffff1673ffffffffffffffffffffffffffffffffffffffff16036115b2576040517f08c379a00000000000000000000000000000000000000000000000000000000081526004016115a990612d68565b60405180910390fd5b84600060076000838152602001908152602001600020600e0154905080471015611611576040517f08c379a000000000000000000000000000000000000000000000000000000000815260040161160890612f26565b60405180910390fd5b60026007600089815260200190815260200160002060100160006101000a81548160ff0219169083600281111561164b5761164a6125d5565b5b02179055507f86954ecc0ae072157fcf7f87a425a1461295a4cc9cc3122d2efc73bf32d98e1a8760405161167f9190612a82565b60405180910390a160006005600088815260200190815260200160002060090160006101000a81548160ff021916908360018111156116c1576116c06125d5565b5b0217905550600060076000898152602001908152602001600020600e01549050600033905060008173ffffffffffffffffffffffffffffffffffffffff168360405161170c9061314a565b60006040518083038185875af1925050503d8060008114611749576040519150601f19603f3d011682016040523d82523d6000602084013e61174e565b606091505b5050905080611792576040517f08c379a0000000000000000000000000000000000000000000000000000000008152600401611789906131ab565b60405180910390fd5b7f55d8ea4e97b2718543a86d587d879e63fd70c898255156d5682619aa36e1440e8a846040516117c39291906131cb565b60405180910390a16004546008805490501497505050505050505092915050565b600061180a8260008086815260200190815260200160002061217890919063ffffffff16565b905092915050565b60006118388260008086815260200190815260200160002061219290919063ffffffff16565b905092915050565b60035481565b60006118727f52454e544552000000000000000000000000000000000000000000000000000083611812565b9050919050565b6118a37f52454e544552000000000000000000000000000000000000000000000000000033612058565b565b60006118b033611846565b6118ef576040517f08c379a00000000000000000000000000000000000000000000000000000000081526004016118e690612c44565b60405180910390fd5b846000600560008381526020019081526020016000206000015411611949576040517f08c379a000000000000000000000000000000000000000000000000000000000815260040161194090612e31565b60405180910390fd5b60016004546119589190612e80565b6008805490501061199e576040517f08c379a000000000000000000000000000000000000000000000000000000000815260040161199590613266565b60405180910390fd5b60006040518060400160405280878152602001868152509050600084600560008a8152602001908152602001600020600801546119db9190613286565b905060006040518060e001604052803373ffffffffffffffffffffffffffffffffffffffff168152602001600560008c8152602001908152602001600020604051806101200160405290816000820154815260200160018201548152602001600282015481526020016003820160009054906101000a900460ff166006811115611a6857611a676125d5565b5b6006811115611a7a57611a796125d5565b5b8152602001600482016040518060400160405290816000820154815260200160018201548152505081526020016006820154815260200160078201548152602001600882015481526020016009820160009054906101000a900460ff166001811115611ae957611ae86125d5565b5b6001811115611afb57611afa6125d5565b5b8152505081526020018481526020018381526020016000815260200142815260200160006002811115611b3157611b306125d5565b5b81525090508060076000600454815260200190815260200160002060008201518160000160006101000a81548173ffffffffffffffffffffffffffffffffffffffff021916908373ffffffffffffffffffffffffffffffffffffffff16021790555060208201518160010160008201518160000155602082015181600101556040820151816002015560608201518160030160006101000a81548160ff02191690836006811115611be557611be46125d5565b5b02179055506080820151816004016000820151816000015560208201518160010155505060a0820151816006015560c0820151816007015560e082015181600801556101008201518160090160006101000a81548160ff02191690836001811115611c5357611c526125d5565b5b02179055505050604082015181600b0160008201518160000155602082015181600101555050606082015181600d0155608082015181600e015560a082015181600f015560c08201518160100160006101000a81548160ff02191690836002811115611cc257611cc16125d5565b5b0217905550905050600881908060018154018082558091505060019003906000526020600020906011020160009091909190915060008201518160000160006101000a81548173ffffffffffffffffffffffffffffffffffffffff021916908373ffffffffffffffffffffffffffffffffffffffff16021790555060208201518160010160008201518160000155602082015181600101556040820151816002015560608201518160030160006101000a81548160ff02191690836006811115611d8f57611d8e6125d5565b5b02179055506080820151816004016000820151816000015560208201518160010155505060a0820151816006015560c0820151816007015560e082015181600801556101008201518160090160006101000a81548160ff02191690836001811115611dfd57611dfc6125d5565b5b02179055505050604082015181600b0160008201518160000155602082015181600101555050606082015181600d0155608082015181600e015560a082015181600f015560c08201518160100160006101000a81548160ff02191690836002811115611e6c57611e6b6125d5565b5b021790555050507fdca1c5ef6380dbdc3098ce5627be896ce3cad54f75a359647f56d223ec04603c338a8a8a8a87600042604051611eb1989796959493929190613325565b60405180910390a160046000815480929190611ecc906130d1565b919050555060045460088054905014945050505050949350505050565b60068181548110611ef957600080fd5b90600052602060002090600a02016000915090508060000154908060010154908060020154908060030160009054906101000a900460ff16908060040160405180604001604052908160008201548152602001600182015481525050908060060154908060070154908060080154908060090160009054906101000a900460ff16905089565b7f52454e544552000000000000000000000000000000000000000000000000000081565b6000611fbf6000808481526020019081526020016000206121c2565b9050919050565b80600160006101000a81548173ffffffffffffffffffffffffffffffffffffffff021916908373ffffffffffffffffffffffffffffffffffffffff1602179055506120317f52454e5445520000000000000000000000000000000000000000000000000000826120e8565b50565b7f4f574e455200000000000000000000000000000000000000000000000000000081565b61207c816000808581526020019081526020016000206121d790919063ffffffff16565b156120e457612089612207565b73ffffffffffffffffffffffffffffffffffffffff168173ffffffffffffffffffffffffffffffffffffffff16837ff6391f5c32d9c69d2a47ea670b442974b53935d1edc7fd64eb21e047a839171b60405160405180910390a45b5050565b61210c8160008085815260200190815260200160002061220f90919063ffffffff16565b1561217457612119612207565b73ffffffffffffffffffffffffffffffffffffffff168173ffffffffffffffffffffffffffffffffffffffff16837f2f8788117e7eff1d82e926ec794901d17c78024a50270940304540a733656f0d60405160405180910390a45b5050565b6000612187836000018361223f565b60001c905092915050565b60006121ba836000018373ffffffffffffffffffffffffffffffffffffffff1660001b61226a565b905092915050565b60006121d08260000161228d565b9050919050565b60006121ff836000018373ffffffffffffffffffffffffffffffffffffffff1660001b61229e565b905092915050565b600033905090565b6000612237836000018373ffffffffffffffffffffffffffffffffffffffff1660001b6123b2565b905092915050565b6000826000018281548110612257576122566133a3565b5b9060005260206000200154905092915050565b600080836001016000848152602001908152602001600020541415905092915050565b600081600001805490509050919050565b600080836001016000848152602001908152602001600020549050600081146123a65760006001826122d091906133d2565b90506000600186600001805490506122e891906133d2565b9050818114612357576000866000018281548110612309576123086133a3565b5b906000526020600020015490508087600001848154811061232d5761232c6133a3565b5b90600052602060002001819055508387600101600083815260200190815260200160002081905550505b8560000180548061236b5761236a613406565b5b6001900381819060005260206000200160009055905585600101600086815260200190815260200160002060009055600193505050506123ac565b60009150505b92915050565b60006123be838361226a565b61241757826000018290806001815401808255809150506001900390600052602060002001600090919091909150558260000180549050836001016000848152602001908152602001600020819055506001905061241c565b600090505b92915050565b600080fd5b600073ffffffffffffffffffffffffffffffffffffffff82169050919050565b600061245282612427565b9050919050565b61246281612447565b811461246d57600080fd5b50565b60008135905061247f81612459565b92915050565b60006020828403121561249b5761249a612422565b5b60006124a984828501612470565b91505092915050565b60008115159050919050565b6124c7816124b2565b82525050565b60006020820190506124e260008301846124be565b92915050565b6000819050919050565b6124fb816124e8565b811461250657600080fd5b50565b600081359050612518816124f2565b92915050565b60008060006060848603121561253757612536612422565b5b600061254586828701612509565b935050602061255686828701612509565b925050604061256786828701612509565b9150509250925092565b60006020828403121561258757612586612422565b5b600061259584828501612509565b91505092915050565b6125a781612447565b82525050565b6125b6816124e8565b82525050565b6000819050919050565b6125cf816125bc565b82525050565b7f4e487b7100000000000000000000000000000000000000000000000000000000600052602160045260246000fd5b60078110612615576126146125d5565b5b50565b600081905061262682612604565b919050565b600061263682612618565b9050919050565b6126468161262b565b82525050565b60408201600082015161266260008501826125c6565b50602082015161267560208501826125c6565b50505050565b6002811061268c5761268b6125d5565b5b50565b600081905061269d8261267b565b919050565b60006126ad8261268f565b9050919050565b6126bd816126a2565b82525050565b610140820160008201516126da60008501826125ad565b5060208201516126ed60208501826125c6565b50604082015161270060408501826125c6565b506060820151612713606085018261263d565b506080820151612726608085018261264c565b5060a082015161273960c08501826125ad565b5060c082015161274c60e08501826125c6565b5060e08201516127606101008501826125ad565b506101008201516127756101208501826126b4565b50505050565b60408201600082015161279160008501826125c6565b5060208201516127a460208501826125c6565b50505050565b6127b3816124e8565b82525050565b600381106127ca576127c96125d5565b5b50565b60008190506127db826127b9565b919050565b60006127eb826127cd565b9050919050565b6127fb816127e0565b82525050565b600061022082019050612817600083018a61259e565b61282460208301896126c3565b61283261016083018861277b565b6128406101a08301876127aa565b61284e6101c08301866127aa565b61285c6101e08301856127aa565b61286a6102008301846127f2565b98975050505050505050565b61287f816125bc565b82525050565b61288e8161262b565b82525050565b6040820160008201516128aa60008501826125c6565b5060208201516128bd60208501826125c6565b50505050565b6128cc816126a2565b82525050565b6000610140820190506128e8600083018c6127aa565b6128f5602083018b612876565b612902604083018a612876565b61290f6060830189612885565b61291c6080830188612894565b61292960c08301876127aa565b61293660e0830186612876565b6129446101008301856127aa565b6129526101208301846128c3565b9a9950505050505050505050565b6000806040838503121561297757612976612422565b5b600061298585828601612509565b925050602061299685828601612509565b9150509250929050565b6129a9816125bc565b81146129b457600080fd5b50565b6000813590506129c6816129a0565b92915050565b600080600080600080600080610100898b0312156129ed576129ec612422565b5b60006129fb8b828c016129b7565b9850506020612a0c8b828c016129b7565b9750506040612a1d8b828c01612509565b9650506060612a2e8b828c016129b7565b9550506080612a3f8b828c016129b7565b94505060a0612a508b828c01612509565b93505060c0612a618b828c016129b7565b92505060e0612a728b828c01612509565b9150509295985092959890939650565b6000602082019050612a9760008301846127aa565b92915050565b60008060408385031215612ab457612ab3612422565b5b6000612ac2858286016129b7565b9250506020612ad385828601612509565b9150509250929050565b6000602082019050612af2600083018461259e565b92915050565b60008060408385031215612b0f57612b0e612422565b5b6000612b1d858286016129b7565b9250506020612b2e85828601612470565b9150509250929050565b60008060008060808587031215612b5257612b51612422565b5b6000612b6087828801612509565b9450506020612b71878288016129b7565b9350506040612b82878288016129b7565b9250506060612b9387828801612509565b91505092959194509250565b6000602082019050612bb46000830184612876565b92915050565b600060208284031215612bd057612bcf612422565b5b6000612bde848285016129b7565b91505092915050565b600082825260208201905092915050565b7f5265737472696374656420746f2072656e746572732e00000000000000000000600082015250565b6000612c2e601683612be7565b9150612c3982612bf8565b602082019050919050565b60006020820190508181036000830152612c5d81612c21565b9050919050565b7f5468652073656c65637465642076656869636c652069732063757272656e746c60008201527f79206e6f7420617661696c61626c652e00000000000000000000000000000000602082015250565b6000612cc0603083612be7565b9150612ccb82612c64565b604082019050919050565b60006020820190508181036000830152612cef81612cb3565b9050919050565b7f54686520666f6c6c6f77696e6720636f6e747261637420636f756c64206e6f7460008201527f20626520666f756e6420696e20746865206d617070696e67206c6973742e0000602082015250565b6000612d52603e83612be7565b9150612d5d82612cf6565b604082019050919050565b60006020820190508181036000830152612d8181612d45565b9050919050565b6000606082019050612d9d60008301866127aa565b612daa60208301856127aa565b612db760408301846127aa565b949350505050565b7f54686520666f6c6c6f77696e672076656869636c6520636f756c64206e6f742060008201527f626520666f756e6420696e20746865206d617070696e67206c6973742e000000602082015250565b6000612e1b603d83612be7565b9150612e2682612dbf565b604082019050919050565b60006020820190508181036000830152612e4a81612e0e565b9050919050565b7f4e487b7100000000000000000000000000000000000000000000000000000000600052601160045260246000fd5b6000612e8b826124e8565b9150612e96836124e8565b9250828201905080821115612eae57612ead612e51565b5b92915050565b7f436f756c64206e6f742070726f6365656420626563617573652074686572652060008201527f6973206e6f7420656e6f7567682045544820696e20796f75722077616c6c6574602082015250565b6000612f10604083612be7565b9150612f1b82612eb4565b604082019050919050565b60006020820190508181036000830152612f3f81612f03565b9050919050565b7f5265737472696374656420746f206f776e6572732e0000000000000000000000600082015250565b6000612f7c601583612be7565b9150612f8782612f46565b602082019050919050565b60006020820190508181036000830152612fab81612f6f565b9050919050565b7f54686520666f6c6c6f77696e672076656869636c652068617320616c7265616460008201527f79206265656e2061646465642e00000000000000000000000000000000000000602082015250565b600061300e602d83612be7565b915061301982612fb2565b604082019050919050565b6000602082019050818103600083015261303d81613001565b9050919050565b60006101208201905061305a600083018c6127aa565b613067602083018b612876565b613074604083018a612876565b61308160608301896127aa565b61308e6080830188612876565b61309b60a0830187612876565b6130a860c08301866127aa565b6130b560e0830185612876565b6130c36101008301846127aa565b9a9950505050505050505050565b60006130dc826124e8565b91507fffffffffffffffffffffffffffffffffffffffffffffffffffffffffffffffff820361310e5761310d612e51565b5b600182019050919050565b600081905092915050565b50565b6000613134600083613119565b915061313f82613124565b600082019050919050565b600061315582613127565b9150819050919050565b7f4661696c656420746f2073656e64204574686572000000000000000000000000600082015250565b6000613195601483612be7565b91506131a08261315f565b602082019050919050565b600060208201905081810360008301526131c481613188565b9050919050565b60006040820190506131e060008301856127aa565b6131ed60208301846127aa565b9392505050565b7f54686520666f6c6c6f77696e6720636f6e74726163742068617320616c72656160008201527f6479206265656e2061646465642e000000000000000000000000000000000000602082015250565b6000613250602e83612be7565b915061325b826131f4565b604082019050919050565b6000602082019050818103600083015261327f81613243565b9050919050565b6000613291826124e8565b915061329c836124e8565b9250817fffffffffffffffffffffffffffffffffffffffffffffffffffffffffffffffff04831182151516156132d5576132d4612e51565b5b828202905092915050565b6000819050919050565b6000819050919050565b600061330f61330a613305846132e0565b6132ea565b6124e8565b9050919050565b61331f816132f4565b82525050565b60006101008201905061333b600083018b61259e565b613348602083018a6127aa565b6133556040830189612876565b6133626060830188612876565b61336f60808301876127aa565b61337c60a08301866127aa565b61338960c0830185613316565b61339660e08301846127aa565b9998505050505050505050565b7f4e487b7100000000000000000000000000000000000000000000000000000000600052603260045260246000fd5b60006133dd826124e8565b91506133e8836124e8565b9250828203905081811115613400576133ff612e51565b5b92915050565b7f4e487b7100000000000000000000000000000000000000000000000000000000600052603160045260246000fdfea2646970667358221220c4d9b2b0f9b070d78f3a493b4d9b4033a908b8de855deead1a1d65f4fbcbb94964736f6c63430008100033",
  "linkReferences": {},
  "deployedLinkReferences": {}
}