{"contracts/Rental.sol":{"Rental":{"abi":[{"inputs":[],"stateMutability":"nonpayable","type":"constructor"},{"anonymous":false,"inputs":[{"indexed":false,"internalType":"uint256","name":"contractId","type":"uint256"}],"name":"Finished","type":"event"},{"anonymous":false,"inputs":[{"indexed":false,"internalType":"uint256","name":"carId","type":"uint256"},{"indexed":false,"internalType":"uint256","name":"contractId","type":"uint256"},{"indexed":false,"internalType":"uint256","name":"insuranceDeposit","type":"uint256"}],"name":"InsurancePackageAdded","type":"event"},{"anonymous":false,"inputs":[{"indexed":false,"internalType":"address","name":"id","type":"address"},{"indexed":false,"internalType":"uint256","name":"carId","type":"uint256"},{"indexed":false,"internalType":"bytes32","name":"from","type":"bytes32"},{"indexed":false,"internalType":"bytes32","name":"to","type":"bytes32"},{"indexed":false,"internalType":"uint256","name":"dayscount","type":"uint256"},{"indexed":false,"internalType":"uint256","name":"totalCost","type":"uint256"},{"indexed":false,"internalType":"uint256","name":"insuranceDeposit","type":"uint256"},{"indexed":false,"internalType":"uint256","name":"dateOfIssuance","type":"uint256"}],"name":"NewContract","type":"event"},{"anonymous":false,"inputs":[{"indexed":false,"internalType":"uint256","name":"id","type":"uint256"},{"indexed":false,"internalType":"bytes32","name":"name","type":"bytes32"},{"indexed":false,"internalType":"bytes32","name":"brand","type":"bytes32"},{"indexed":false,"internalType":"uint256","name":"vehicleType","type":"uint256"},{"indexed":false,"internalType":"bytes32","name":"latitude","type":"bytes32"},{"indexed":false,"internalType":"bytes32","name":"longitude","type":"bytes32"},{"indexed":false,"internalType":"uint256","name":"model","type":"uint256"},{"indexed":false,"internalType":"bytes32","name":"image","type":"bytes32"},{"indexed":false,"internalType":"uint256","name":"rentCost","type":"uint256"}],"name":"NewVehicle","type":"event"},{"anonymous":false,"inputs":[{"indexed":false,"internalType":"uint256","name":"contractId","type":"uint256"},{"indexed":false,"internalType":"uint256","name":"carId","type":"uint256"},{"indexed":false,"internalType":"uint256","name":"totalAmount","type":"uint256"}],"name":"ProceedPayment","type":"event"},{"anonymous":false,"inputs":[{"indexed":false,"internalType":"uint256","name":"contractId","type":"uint256"},{"indexed":false,"internalType":"uint256","name":"insuranceDeposit","type":"uint256"}],"name":"ReturnInsuranceDeposit","type":"event"},{"anonymous":false,"inputs":[{"indexed":true,"internalType":"bytes32","name":"role","type":"bytes32"},{"indexed":true,"internalType":"address","name":"account","type":"address"},{"indexed":true,"internalType":"address","name":"sender","type":"address"}],"name":"RoleGranted","type":"event"},{"anonymous":false,"inputs":[{"indexed":true,"internalType":"bytes32","name":"role","type":"bytes32"},{"indexed":true,"internalType":"address","name":"account","type":"address"},{"indexed":true,"internalType":"address","name":"sender","type":"address"}],"name":"RoleRevoked","type":"event"},{"inputs":[],"name":"OWNER_ROLE","outputs":[{"internalType":"bytes32","name":"","type":"bytes32"}],"stateMutability":"view","type":"function"},{"inputs":[],"name":"RENTER_ROLE","outputs":[{"internalType":"bytes32","name":"","type":"bytes32"}],"stateMutability":"view","type":"function"},{"inputs":[{"internalType":"uint256","name":"carId","type":"uint256"},{"internalType":"uint256","name":"contractId","type":"uint256"},{"internalType":"uint256","name":"insuranceDeposit","type":"uint256"}],"name":"addInsurancePackage","outputs":[{"internalType":"bool","name":"success","type":"bool"}],"stateMutability":"nonpayable","type":"function"},{"inputs":[{"internalType":"address","name":"account","type":"address"}],"name":"addOwner","outputs":[],"stateMutability":"nonpayable","type":"function"},{"inputs":[{"internalType":"uint256","name":"carId","type":"uint256"},{"internalType":"bytes32","name":"from","type":"bytes32"},{"internalType":"bytes32","name":"to","type":"bytes32"},{"internalType":"uint256","name":"dayscount","type":"uint256"}],"name":"addRentPeriod","outputs":[{"internalType":"bool","name":"success","type":"bool"}],"stateMutability":"nonpayable","type":"function"},{"inputs":[{"internalType":"address","name":"account","type":"address"}],"name":"addRenter","outputs":[],"stateMutability":"nonpayable","type":"function"},{"inputs":[{"internalType":"bytes32","name":"name","type":"bytes32"},{"internalType":"bytes32","name":"brand","type":"bytes32"},{"internalType":"uint256","name":"vehicleType","type":"uint256"},{"internalType":"bytes32","name":"latitude","type":"bytes32"},{"internalType":"bytes32","name":"longitude","type":"bytes32"},{"internalType":"uint256","name":"model","type":"uint256"},{"internalType":"bytes32","name":"image","type":"bytes32"},{"internalType":"uint256","name":"rentCost","type":"uint256"}],"name":"addVehicle","outputs":[{"internalType":"bool","name":"success","type":"bool"}],"stateMutability":"nonpayable","type":"function"},{"inputs":[{"internalType":"uint256","name":"contractId","type":"uint256"},{"internalType":"uint256","name":"carId","type":"uint256"}],"name":"completion","outputs":[{"internalType":"bool","name":"success","type":"bool"}],"stateMutability":"payable","type":"function"},{"inputs":[{"internalType":"uint256","name":"contractId","type":"uint256"},{"internalType":"uint256","name":"carId","type":"uint256"}],"name":"confirmation","outputs":[{"internalType":"bool","name":"success","type":"bool"}],"stateMutability":"payable","type":"function"},{"inputs":[],"name":"contractCount","outputs":[{"internalType":"uint256","name":"","type":"uint256"}],"stateMutability":"view","type":"function"},{"inputs":[{"internalType":"uint256","name":"","type":"uint256"}],"name":"contracts","outputs":[{"internalType":"address","name":"id","type":"address"},{"components":[{"internalType":"uint256","name":"id","type":"uint256"},{"internalType":"bytes32","name":"name","type":"bytes32"},{"internalType":"bytes32","name":"brand","type":"bytes32"},{"internalType":"enum Rental.VehicleType","name":"vehicleType","type":"uint8"},{"components":[{"internalType":"bytes32","name":"latitude","type":"bytes32"},{"internalType":"bytes32","name":"longitude","type":"bytes32"}],"internalType":"struct Rental.Coordinate","name":"location","type":"tuple"},{"internalType":"uint256","name":"model","type":"uint256"},{"internalType":"bytes32","name":"image","type":"bytes32"},{"internalType":"uint256","name":"rentCost","type":"uint256"},{"internalType":"enum Rental.VehicleStatus","name":"status","type":"uint8"}],"internalType":"struct Rental.Vehicle","name":"selectedVehicle","type":"tuple"},{"components":[{"internalType":"bytes32","name":"from","type":"bytes32"},{"internalType":"bytes32","name":"to","type":"bytes32"}],"internalType":"struct Rental.Period","name":"period","type":"tuple"},{"internalType":"uint256","name":"totalCost","type":"uint256"},{"internalType":"uint256","name":"insuranceDeposit","type":"uint256"},{"internalType":"uint256","name":"dateOfIssuance","type":"uint256"},{"internalType":"enum Rental.ContractStatus","name":"status","type":"uint8"}],"stateMutability":"view","type":"function"},{"inputs":[{"internalType":"uint256","name":"","type":"uint256"}],"name":"getContractByID","outputs":[{"internalType":"address","name":"id","type":"address"},{"components":[{"internalType":"uint256","name":"id","type":"uint256"},{"internalType":"bytes32","name":"name","type":"bytes32"},{"internalType":"bytes32","name":"brand","type":"bytes32"},{"internalType":"enum Rental.VehicleType","name":"vehicleType","type":"uint8"},{"components":[{"internalType":"bytes32","name":"latitude","type":"bytes32"},{"internalType":"bytes32","name":"longitude","type":"bytes32"}],"internalType":"struct Rental.Coordinate","name":"location","type":"tuple"},{"internalType":"uint256","name":"model","type":"uint256"},{"internalType":"bytes32","name":"image","type":"bytes32"},{"internalType":"uint256","name":"rentCost","type":"uint256"},{"internalType":"enum Rental.VehicleStatus","name":"status","type":"uint8"}],"internalType":"struct Rental.Vehicle","name":"selectedVehicle","type":"tuple"},{"components":[{"internalType":"bytes32","name":"from","type":"bytes32"},{"internalType":"bytes32","name":"to","type":"bytes32"}],"internalType":"struct Rental.Period","name":"period","type":"tuple"},{"internalType":"uint256","name":"totalCost","type":"uint256"},{"internalType":"uint256","name":"insuranceDeposit","type":"uint256"},{"internalType":"uint256","name":"dateOfIssuance","type":"uint256"},{"internalType":"enum Rental.ContractStatus","name":"status","type":"uint8"}],"stateMutability":"view","type":"function"},{"inputs":[{"internalType":"bytes32","name":"role","type":"bytes32"},{"internalType":"uint256","name":"index","type":"uint256"}],"name":"getRoleMember","outputs":[{"internalType":"address","name":"","type":"address"}],"stateMutability":"view","type":"function"},{"inputs":[{"internalType":"bytes32","name":"role","type":"bytes32"}],"name":"getRoleMemberCount","outputs":[{"internalType":"uint256","name":"","type":"uint256"}],"stateMutability":"view","type":"function"},{"inputs":[{"internalType":"uint256","name":"","type":"uint256"}],"name":"getVehicleByID","outputs":[{"internalType":"uint256","name":"id","type":"uint256"},{"internalType":"bytes32","name":"name","type":"bytes32"},{"internalType":"bytes32","name":"brand","type":"bytes32"},{"internalType":"enum Rental.VehicleType","name":"vehicleType","type":"uint8"},{"components":[{"internalType":"bytes32","name":"latitude","type":"bytes32"},{"internalType":"bytes32","name":"longitude","type":"bytes32"}],"internalType":"struct Rental.Coordinate","name":"location","type":"tuple"},{"internalType":"uint256","name":"model","type":"uint256"},{"internalType":"bytes32","name":"image","type":"bytes32"},{"internalType":"uint256","name":"rentCost","type":"uint256"},{"internalType":"enum Rental.VehicleStatus","name":"status","type":"uint8"}],"stateMutability":"view","type":"function"},{"inputs":[{"internalType":"bytes32","name":"role","type":"bytes32"},{"internalType":"address","name":"account","type":"address"}],"name":"hasRole","outputs":[{"internalType":"bool","name":"","type":"bool"}],"stateMutability":"view","type":"function"},{"inputs":[{"internalType":"address","name":"account","type":"address"}],"name":"isOwner","outputs":[{"internalType":"bool","name":"","type":"bool"}],"stateMutability":"view","type":"function"},{"inputs":[{"internalType":"address","name":"account","type":"address"}],"name":"isRenter","outputs":[{"internalType":"bool","name":"","type":"bool"}],"stateMutability":"view","type":"function"},{"inputs":[{"internalType":"uint256","name":"","type":"uint256"}],"name":"paymentProcess","outputs":[],"stateMutability":"payable","type":"function"},{"inputs":[{"internalType":"address","name":"account","type":"address"}],"name":"removeOwner","outputs":[],"stateMutability":"nonpayable","type":"function"},{"inputs":[{"internalType":"address","name":"account","type":"address"}],"name":"removeRenter","outputs":[],"stateMutability":"nonpayable","type":"function"},{"inputs":[],"name":"renounceOwner","outputs":[],"stateMutability":"nonpayable","type":"function"},{"inputs":[],"name":"renounceRenter","outputs":[],"stateMutability":"nonpayable","type":"function"},{"inputs":[],"name":"vehicleCount","outputs":[{"internalType":"uint256","name":"","type":"uint256"}],"stateMutability":"view","type":"function"},{"inputs":[{"internalType":"uint256","name":"","type":"uint256"}],"name":"vehicles","outputs":[{"internalType":"uint256","name":"id","type":"uint256"},{"internalType":"bytes32","name":"name","type":"bytes32"},{"internalType":"bytes32","name":"brand","type":"bytes32"},{"internalType":"enum Rental.VehicleType","name":"vehicleType","type":"uint8"},{"components":[{"internalType":"bytes32","name":"latitude","type":"bytes32"},{"internalType":"bytes32","name":"longitude","type":"bytes32"}],"internalType":"struct Rental.Coordinate","name":"location","type":"tuple"},{"internalType":"uint256","name":"model","type":"uint256"},{"internalType":"bytes32","name":"image","type":"bytes32"},{"internalType":"uint256","name":"rentCost","type":"uint256"},{"internalType":"enum Rental.VehicleStatus","name":"status","type":"uint8"}],"stateMutability":"view","type":"function"}],"evm":{"bytecode":{"linkReferences":{},"object":"608060405234801561001057600080fd5b5061346b806100206000396000f3fe6080604052600436106101665760003560e01c80638736381a116100d1578063a36a5d8d1161008a578063b97c9f7711610064578063b97c9f77146105a1578063ca15c873146105cc578063de8b198914610609578063e58378bb1461063257610166565b8063a36a5d8d14610508578063aeea80f51461051f578063b8ba95fa1461055c57610166565b80638736381a146103cb57806387b50547146103f65780639010d07c1461042657806391d148541461046357806399704937146104a05780639f2bc40e146104cb57610166565b806369a8f49e1161012357806369a8f49e146102915780637065cb48146102d657806374539cd0146102ff57806379b67caa1461031b5780637b66fe2e1461034b57806385aee0a61461038e57610166565b806302aec3ce1461016b578063173825d91461019457806328c23a45146101bd5780632f54bf6e146101d457806337c3510a14610211578063474da79a1461024e575b600080fd5b34801561017757600080fd5b50610192600480360381019061018d9190612485565b61065d565b005b3480156101a057600080fd5b506101bb60048036038101906101b69190612485565b61068a565b005b3480156101c957600080fd5b506101d26106b7565b005b3480156101e057600080fd5b506101fb60048036038101906101f69190612485565b6106e3565b60405161020891906124cd565b60405180910390f35b34801561021d57600080fd5b506102386004803603810190610233919061251e565b610716565b60405161024591906124cd565b60405180910390f35b34801561025a57600080fd5b5061027560048036038101906102709190612571565b6108fc565b6040516102889796959493929190612801565b60405180910390f35b34801561029d57600080fd5b506102b860048036038101906102b39190612571565b610a7e565b6040516102cd999897969594939291906128d2565b60405180910390f35b3480156102e257600080fd5b506102fd60048036038101906102f89190612485565b610b04565b005b61031960048036038101906103149190612571565b610b72565b005b61033560048036038101906103309190612960565b610b75565b60405161034291906124cd565b60405180910390f35b34801561035757600080fd5b50610372600480360381019061036d9190612571565b610f7b565b6040516103859796959493929190612801565b60405180910390f35b34801561039a57600080fd5b506103b560048036038101906103b091906129cc565b6110ed565b6040516103c291906124cd565b60405180910390f35b3480156103d757600080fd5b506103e0611462565b6040516103ed9190612a82565b60405180910390f35b610410600480360381019061040b9190612960565b611468565b60405161041d91906124cd565b60405180910390f35b34801561043257600080fd5b5061044d60048036038101906104489190612a9d565b6117e4565b60405161045a9190612add565b60405180910390f35b34801561046f57600080fd5b5061048a60048036038101906104859190612af8565b611812565b60405161049791906124cd565b60405180910390f35b3480156104ac57600080fd5b506104b5611840565b6040516104c29190612a82565b60405180910390f35b3480156104d757600080fd5b506104f260048036038101906104ed9190612485565b611846565b6040516104ff91906124cd565b60405180910390f35b34801561051457600080fd5b5061051d611879565b005b34801561052b57600080fd5b5061054660048036038101906105419190612b38565b6118a5565b60405161055391906124cd565b60405180910390f35b34801561056857600080fd5b50610583600480360381019061057e9190612571565b611ee9565b604051610598999897969594939291906128d2565b60405180910390f35b3480156105ad57600080fd5b506105b6611f7f565b6040516105c39190612b9f565b60405180910390f35b3480156105d857600080fd5b506105f360048036038101906105ee9190612bba565b611fa3565b6040516106009190612a82565b60405180910390f35b34801561061557600080fd5b50610630600480360381019061062b9190612485565b611fc6565b005b34801561063e57600080fd5b50610647612034565b6040516106549190612b9f565b60405180910390f35b6106877f52454e544552000000000000000000000000000000000000000000000000000082612058565b50565b6106b47f4f574e455200000000000000000000000000000000000000000000000000000082612058565b50565b6106e17f4f574e455200000000000000000000000000000000000000000000000000000033612058565b565b600061070f7f4f574e455200000000000000000000000000000000000000000000000000000083611812565b9050919050565b600061072133611846565b610760576040517f08c379a000000000000000000000000000000000000000000000000000000000815260040161075790612c44565b60405180910390fd5b8360006001811115610775576107746125d5565b5b6005600083815260200190815260200160002060090160009054906101000a900460ff1660018111156107ab576107aa6125d5565b5b146107eb576040517f08c379a00000000000000000000000000000000000000000000000000000000081526004016107e290612cd6565b60405180910390fd5b83600073ffffffffffffffffffffffffffffffffffffffff166007600083815260200190815260200160002060000160009054906101000a900473ffffffffffffffffffffffffffffffffffffffff1673ffffffffffffffffffffffffffffffffffffffff1603610891576040517f08c379a000000000000000000000000000000000000000000000000000000000815260040161088890612d68565b60405180910390fd5b8360076000878152602001908152602001600020600e01819055507f601f6815f14e12706e308b49dec47ece2d3669abbedd5fb135f3c0a46be9e3a08686866040516108df93929190612d88565b60405180910390a160045460088054905014925050509392505050565b6008818154811061090c57600080fd5b90600052602060002090601102016000915090508060000160009054906101000a900473ffffffffffffffffffffffffffffffffffffffff169080600101604051806101200160405290816000820154815260200160018201548152602001600282015481526020016003820160009054906101000a900460ff166006811115610999576109986125d5565b5b60068111156109ab576109aa6125d5565b5b8152602001600482016040518060400160405290816000820154815260200160018201548152505081526020016006820154815260200160078201548152602001600882015481526020016009820160009054906101000a900460ff166001811115610a1a57610a196125d5565b5b6001811115610a2c57610a2b6125d5565b5b815250509080600b01604051806040016040529081600082015481526020016001820154815250509080600d01549080600e01549080600f0154908060100160009054906101000a900460ff16905087565b60056020528060005260406000206000915090508060000154908060010154908060020154908060030160009054906101000a900460ff16908060040160405180604001604052908160008201548152602001600182015481525050908060060154908060070154908060080154908060090160009054906101000a900460ff16905089565b80600260006101000a81548173ffffffffffffffffffffffffffffffffffffffff021916908373ffffffffffffffffffffffffffffffffffffffff160217905550610b6f7f4f574e4552000000000000000000000000000000000000000000000000000000826120e8565b50565b50565b6000610b8033611846565b610bbf576040517f08c379a0000000000000000000000000000000000000000000000000000000008152600401610bb690612c44565b60405180910390fd5b816000600560008381526020019081526020016000206000015411610c19576040517f08c379a0000000000000000000000000000000000000000000000000000000008152600401610c1090612e31565b60405180910390fd5b8260006001811115610c2e57610c2d6125d5565b5b6005600083815260200190815260200160002060090160009054906101000a900460ff166001811115610c6457610c636125d5565b5b14610ca4576040517f08c379a0000000000000000000000000000000000000000000000000000000008152600401610c9b90612cd6565b60405180910390fd5b84600073ffffffffffffffffffffffffffffffffffffffff166007600083815260200190815260200160002060000160009054906101000a900473ffffffffffffffffffffffffffffffffffffffff1673ffffffffffffffffffffffffffffffffffffffff1603610d4a576040517f08c379a0000000000000000000000000000000000000000000000000000000008152600401610d4190612d68565b60405180910390fd5b85600060076000838152602001908152602001600020600d015460076000848152602001908152602001600020600e0154610d859190612e80565b905080600160009054906101000a900473ffffffffffffffffffffffffffffffffffffffff1673ffffffffffffffffffffffffffffffffffffffff16311015610e03576040517f08c379a0000000000000000000000000000000000000000000000000000000008152600401610dfa90612f26565b60405180910390fd5b6001600760008a815260200190815260200160002060100160006101000a81548160ff02191690836002811115610e3d57610e3c6125d5565b5b021790555060016005600089815260200190815260200160002060090160006101000a81548160ff02191690836001811115610e7c57610e7b6125d5565b5b02179055506000600760008a8152602001908152602001600020600e0154600760008b8152602001908152602001600020600d0154610ebb9190612e80565b90503073ffffffffffffffffffffffffffffffffffffffff166374539cd0826040518263ffffffff1660e01b8152600401610ef69190612a82565b600060405180830381600087803b158015610f1057600080fd5b505af1158015610f24573d6000803e3d6000fd5b505050507f817d426b50bb3c789777f2646e1f9c67c82533f69218769a08734cf7958a7aea898983604051610f5b93929190612d88565b60405180910390a160045460088054905014965050505050505092915050565b60076020528060005260406000206000915090508060000160009054906101000a900473ffffffffffffffffffffffffffffffffffffffff169080600101604051806101200160405290816000820154815260200160018201548152602001600282015481526020016003820160009054906101000a900460ff166006811115611008576110076125d5565b5b600681111561101a576110196125d5565b5b8152602001600482016040518060400160405290816000820154815260200160018201548152505081526020016006820154815260200160078201548152602001600882015481526020016009820160009054906101000a900460ff166001811115611089576110886125d5565b5b600181111561109b5761109a6125d5565b5b815250509080600b01604051806040016040529081600082015481526020016001820154815250509080600d01549080600e01549080600f0154908060100160009054906101000a900460ff16905087565b60006110f8336106e3565b611137576040517f08c379a000000000000000000000000000000000000000000000000000000000815260040161112e90612f92565b60405180910390fd5b60016003546111469190612e80565b6006805490501061118c576040517f08c379a000000000000000000000000000000000000000000000000000000000815260040161118390613024565b60405180910390fd5b60008760068111156111a1576111a06125d5565b5b905060006040518060400160405280898152602001888152509050600060405180610120016040528060035481526020018d81526020018c81526020018460068111156111f1576111f06125d5565b5b815260200183815260200188815260200187815260200186815260200160006001811115611222576112216125d5565b5b81525090508060056000600354815260200190815260200160002060008201518160000155602082015181600101556040820151816002015560608201518160030160006101000a81548160ff02191690836006811115611286576112856125d5565b5b02179055506080820151816004016000820151816000015560208201518160010155505060a0820151816006015560c0820151816007015560e082015181600801556101008201518160090160006101000a81548160ff021916908360018111156112f4576112f36125d5565b5b021790555090505060068190806001815401808255809150506001900390600052602060002090600a020160009091909190915060008201518160000155602082015181600101556040820151816002015560608201518160030160006101000a81548160ff02191690836006811115611371576113706125d5565b5b02179055506080820151816004016000820151816000015560208201518160010155505060a0820151816006015560c0820151816007015560e082015181600801556101008201518160090160006101000a81548160ff021916908360018111156113df576113de6125d5565b5b021790555050507fa380668d7c9d014e9c355ea8aecdc0884e0d3cc63699fad47beea363dfe695796003548d8d8d8d8d8d8d8d60405161142799989796959493929190613044565b60405180910390a160036000815480929190611442906130d1565b919050555060035460068054905014935050505098975050505050505050565b60045481565b600061147333611846565b6114b2576040517f08c379a00000000000000000000000000000000000000000000000000000000081526004016114a990612c44565b60405180910390fd5b81600060056000838152602001908152602001600020600001541161150c576040517f08c379a000000000000000000000000000000000000000000000000000000000815260040161150390612e31565b60405180910390fd5b83600073ffffffffffffffffffffffffffffffffffffffff166007600083815260200190815260200160002060000160009054906101000a900473ffffffffffffffffffffffffffffffffffffffff1673ffffffffffffffffffffffffffffffffffffffff16036115b2576040517f08c379a00000000000000000000000000000000000000000000000000000000081526004016115a990612d68565b60405180910390fd5b84600060076000838152602001908152602001600020600e0154905080471015611611576040517f08c379a000000000000000000000000000000000000000000000000000000000815260040161160890612f26565b60405180910390fd5b60026007600089815260200190815260200160002060100160006101000a81548160ff0219169083600281111561164b5761164a6125d5565b5b02179055507f86954ecc0ae072157fcf7f87a425a1461295a4cc9cc3122d2efc73bf32d98e1a8760405161167f9190612a82565b60405180910390a160006005600088815260200190815260200160002060090160006101000a81548160ff021916908360018111156116c1576116c06125d5565b5b0217905550600060076000898152602001908152602001600020600e01549050600033905060008173ffffffffffffffffffffffffffffffffffffffff168360405161170c9061314a565b60006040518083038185875af1925050503d8060008114611749576040519150601f19603f3d011682016040523d82523d6000602084013e61174e565b606091505b5050905080611792576040517f08c379a0000000000000000000000000000000000000000000000000000000008152600401611789906131ab565b60405180910390fd5b7f55d8ea4e97b2718543a86d587d879e63fd70c898255156d5682619aa36e1440e8a846040516117c39291906131cb565b60405180910390a16004546008805490501497505050505050505092915050565b600061180a8260008086815260200190815260200160002061217890919063ffffffff16565b905092915050565b60006118388260008086815260200190815260200160002061219290919063ffffffff16565b905092915050565b60035481565b60006118727f52454e544552000000000000000000000000000000000000000000000000000083611812565b9050919050565b6118a37f52454e544552000000000000000000000000000000000000000000000000000033612058565b565b60006118b033611846565b6118ef576040517f08c379a00000000000000000000000000000000000000000000000000000000081526004016118e690612c44565b60405180910390fd5b846000600560008381526020019081526020016000206000015411611949576040517f08c379a000000000000000000000000000000000000000000000000000000000815260040161194090612e31565b60405180910390fd5b60016004546119589190612e80565b6008805490501061199e576040517f08c379a000000000000000000000000000000000000000000000000000000000815260040161199590613266565b60405180910390fd5b60006040518060400160405280878152602001868152509050600084600560008a8152602001908152602001600020600801546119db9190613286565b905060006040518060e001604052803373ffffffffffffffffffffffffffffffffffffffff168152602001600560008c8152602001908152602001600020604051806101200160405290816000820154815260200160018201548152602001600282015481526020016003820160009054906101000a900460ff166006811115611a6857611a676125d5565b5b6006811115611a7a57611a796125d5565b5b8152602001600482016040518060400160405290816000820154815260200160018201548152505081526020016006820154815260200160078201548152602001600882015481526020016009820160009054906101000a900460ff166001811115611ae957611ae86125d5565b5b6001811115611afb57611afa6125d5565b5b8152505081526020018481526020018381526020016000815260200142815260200160006002811115611b3157611b306125d5565b5b81525090508060076000600454815260200190815260200160002060008201518160000160006101000a81548173ffffffffffffffffffffffffffffffffffffffff021916908373ffffffffffffffffffffffffffffffffffffffff16021790555060208201518160010160008201518160000155602082015181600101556040820151816002015560608201518160030160006101000a81548160ff02191690836006811115611be557611be46125d5565b5b02179055506080820151816004016000820151816000015560208201518160010155505060a0820151816006015560c0820151816007015560e082015181600801556101008201518160090160006101000a81548160ff02191690836001811115611c5357611c526125d5565b5b02179055505050604082015181600b0160008201518160000155602082015181600101555050606082015181600d0155608082015181600e015560a082015181600f015560c08201518160100160006101000a81548160ff02191690836002811115611cc257611cc16125d5565b5b0217905550905050600881908060018154018082558091505060019003906000526020600020906011020160009091909190915060008201518160000160006101000a81548173ffffffffffffffffffffffffffffffffffffffff021916908373ffffffffffffffffffffffffffffffffffffffff16021790555060208201518160010160008201518160000155602082015181600101556040820151816002015560608201518160030160006101000a81548160ff02191690836006811115611d8f57611d8e6125d5565b5b02179055506080820151816004016000820151816000015560208201518160010155505060a0820151816006015560c0820151816007015560e082015181600801556101008201518160090160006101000a81548160ff02191690836001811115611dfd57611dfc6125d5565b5b02179055505050604082015181600b0160008201518160000155602082015181600101555050606082015181600d0155608082015181600e015560a082015181600f015560c08201518160100160006101000a81548160ff02191690836002811115611e6c57611e6b6125d5565b5b021790555050507fdca1c5ef6380dbdc3098ce5627be896ce3cad54f75a359647f56d223ec04603c338a8a8a8a87600042604051611eb1989796959493929190613325565b60405180910390a160046000815480929190611ecc906130d1565b919050555060045460088054905014945050505050949350505050565b60068181548110611ef957600080fd5b90600052602060002090600a02016000915090508060000154908060010154908060020154908060030160009054906101000a900460ff16908060040160405180604001604052908160008201548152602001600182015481525050908060060154908060070154908060080154908060090160009054906101000a900460ff16905089565b7f52454e544552000000000000000000000000000000000000000000000000000081565b6000611fbf6000808481526020019081526020016000206121c2565b9050919050565b80600160006101000a81548173ffffffffffffffffffffffffffffffffffffffff021916908373ffffffffffffffffffffffffffffffffffffffff1602179055506120317f52454e5445520000000000000000000000000000000000000000000000000000826120e8565b50565b7f4f574e455200000000000000000000000000000000000000000000000000000081565b61207c816000808581526020019081526020016000206121d790919063ffffffff16565b156120e457612089612207565b73ffffffffffffffffffffffffffffffffffffffff168173ffffffffffffffffffffffffffffffffffffffff16837ff6391f5c32d9c69d2a47ea670b442974b53935d1edc7fd64eb21e047a839171b60405160405180910390a45b5050565b61210c8160008085815260200190815260200160002061220f90919063ffffffff16565b1561217457612119612207565b73ffffffffffffffffffffffffffffffffffffffff168173ffffffffffffffffffffffffffffffffffffffff16837f2f8788117e7eff1d82e926ec794901d17c78024a50270940304540a733656f0d60405160405180910390a45b5050565b6000612187836000018361223f565b60001c905092915050565b60006121ba836000018373ffffffffffffffffffffffffffffffffffffffff1660001b61226a565b905092915050565b60006121d08260000161228d565b9050919050565b60006121ff836000018373ffffffffffffffffffffffffffffffffffffffff1660001b61229e565b905092915050565b600033905090565b6000612237836000018373ffffffffffffffffffffffffffffffffffffffff1660001b6123b2565b905092915050565b6000826000018281548110612257576122566133a3565b5b9060005260206000200154905092915050565b600080836001016000848152602001908152602001600020541415905092915050565b600081600001805490509050919050565b600080836001016000848152602001908152602001600020549050600081146123a65760006001826122d091906133d2565b90506000600186600001805490506122e891906133d2565b9050818114612357576000866000018281548110612309576123086133a3565b5b906000526020600020015490508087600001848154811061232d5761232c6133a3565b5b90600052602060002001819055508387600101600083815260200190815260200160002081905550505b8560000180548061236b5761236a613406565b5b6001900381819060005260206000200160009055905585600101600086815260200190815260200160002060009055600193505050506123ac565b60009150505b92915050565b60006123be838361226a565b61241757826000018290806001815401808255809150506001900390600052602060002001600090919091909150558260000180549050836001016000848152602001908152602001600020819055506001905061241c565b600090505b92915050565b600080fd5b600073ffffffffffffffffffffffffffffffffffffffff82169050919050565b600061245282612427565b9050919050565b61246281612447565b811461246d57600080fd5b50565b60008135905061247f81612459565b92915050565b60006020828403121561249b5761249a612422565b5b60006124a984828501612470565b91505092915050565b60008115159050919050565b6124c7816124b2565b82525050565b60006020820190506124e260008301846124be565b92915050565b6000819050919050565b6124fb816124e8565b811461250657600080fd5b50565b600081359050612518816124f2565b92915050565b60008060006060848603121561253757612536612422565b5b600061254586828701612509565b935050602061255686828701612509565b925050604061256786828701612509565b9150509250925092565b60006020828403121561258757612586612422565b5b600061259584828501612509565b91505092915050565b6125a781612447565b82525050565b6125b6816124e8565b82525050565b6000819050919050565b6125cf816125bc565b82525050565b7f4e487b7100000000000000000000000000000000000000000000000000000000600052602160045260246000fd5b60078110612615576126146125d5565b5b50565b600081905061262682612604565b919050565b600061263682612618565b9050919050565b6126468161262b565b82525050565b60408201600082015161266260008501826125c6565b50602082015161267560208501826125c6565b50505050565b6002811061268c5761268b6125d5565b5b50565b600081905061269d8261267b565b919050565b60006126ad8261268f565b9050919050565b6126bd816126a2565b82525050565b610140820160008201516126da60008501826125ad565b5060208201516126ed60208501826125c6565b50604082015161270060408501826125c6565b506060820151612713606085018261263d565b506080820151612726608085018261264c565b5060a082015161273960c08501826125ad565b5060c082015161274c60e08501826125c6565b5060e08201516127606101008501826125ad565b506101008201516127756101208501826126b4565b50505050565b60408201600082015161279160008501826125c6565b5060208201516127a460208501826125c6565b50505050565b6127b3816124e8565b82525050565b600381106127ca576127c96125d5565b5b50565b60008190506127db826127b9565b919050565b60006127eb826127cd565b9050919050565b6127fb816127e0565b82525050565b600061022082019050612817600083018a61259e565b61282460208301896126c3565b61283261016083018861277b565b6128406101a08301876127aa565b61284e6101c08301866127aa565b61285c6101e08301856127aa565b61286a6102008301846127f2565b98975050505050505050565b61287f816125bc565b82525050565b61288e8161262b565b82525050565b6040820160008201516128aa60008501826125c6565b5060208201516128bd60208501826125c6565b50505050565b6128cc816126a2565b82525050565b6000610140820190506128e8600083018c6127aa565b6128f5602083018b612876565b612902604083018a612876565b61290f6060830189612885565b61291c6080830188612894565b61292960c08301876127aa565b61293660e0830186612876565b6129446101008301856127aa565b6129526101208301846128c3565b9a9950505050505050505050565b6000806040838503121561297757612976612422565b5b600061298585828601612509565b925050602061299685828601612509565b9150509250929050565b6129a9816125bc565b81146129b457600080fd5b50565b6000813590506129c6816129a0565b92915050565b600080600080600080600080610100898b0312156129ed576129ec612422565b5b60006129fb8b828c016129b7565b9850506020612a0c8b828c016129b7565b9750506040612a1d8b828c01612509565b9650506060612a2e8b828c016129b7565b9550506080612a3f8b828c016129b7565b94505060a0612a508b828c01612509565b93505060c0612a618b828c016129b7565b92505060e0612a728b828c01612509565b9150509295985092959890939650565b6000602082019050612a9760008301846127aa565b92915050565b60008060408385031215612ab457612ab3612422565b5b6000612ac2858286016129b7565b9250506020612ad385828601612509565b9150509250929050565b6000602082019050612af2600083018461259e565b92915050565b60008060408385031215612b0f57612b0e612422565b5b6000612b1d858286016129b7565b9250506020612b2e85828601612470565b9150509250929050565b60008060008060808587031215612b5257612b51612422565b5b6000612b6087828801612509565b9450506020612b71878288016129b7565b9350506040612b82878288016129b7565b9250506060612b9387828801612509565b91505092959194509250565b6000602082019050612bb46000830184612876565b92915050565b600060208284031215612bd057612bcf612422565b5b6000612bde848285016129b7565b91505092915050565b600082825260208201905092915050565b7f5265737472696374656420746f2072656e746572732e00000000000000000000600082015250565b6000612c2e601683612be7565b9150612c3982612bf8565b602082019050919050565b60006020820190508181036000830152612c5d81612c21565b9050919050565b7f5468652073656c65637465642076656869636c652069732063757272656e746c60008201527f79206e6f7420617661696c61626c652e00000000000000000000000000000000602082015250565b6000612cc0603083612be7565b9150612ccb82612c64565b604082019050919050565b60006020820190508181036000830152612cef81612cb3565b9050919050565b7f54686520666f6c6c6f77696e6720636f6e747261637420636f756c64206e6f7460008201527f20626520666f756e6420696e20746865206d617070696e67206c6973742e0000602082015250565b6000612d52603e83612be7565b9150612d5d82612cf6565b604082019050919050565b60006020820190508181036000830152612d8181612d45565b9050919050565b6000606082019050612d9d60008301866127aa565b612daa60208301856127aa565b612db760408301846127aa565b949350505050565b7f54686520666f6c6c6f77696e672076656869636c6520636f756c64206e6f742060008201527f626520666f756e6420696e20746865206d617070696e67206c6973742e000000602082015250565b6000612e1b603d83612be7565b9150612e2682612dbf565b604082019050919050565b60006020820190508181036000830152612e4a81612e0e565b9050919050565b7f4e487b7100000000000000000000000000000000000000000000000000000000600052601160045260246000fd5b6000612e8b826124e8565b9150612e96836124e8565b9250828201905080821115612eae57612ead612e51565b5b92915050565b7f436f756c64206e6f742070726f6365656420626563617573652074686572652060008201527f6973206e6f7420656e6f7567682045544820696e20796f75722077616c6c6574602082015250565b6000612f10604083612be7565b9150612f1b82612eb4565b604082019050919050565b60006020820190508181036000830152612f3f81612f03565b9050919050565b7f5265737472696374656420746f206f776e6572732e0000000000000000000000600082015250565b6000612f7c601583612be7565b9150612f8782612f46565b602082019050919050565b60006020820190508181036000830152612fab81612f6f565b9050919050565b7f54686520666f6c6c6f77696e672076656869636c652068617320616c7265616460008201527f79206265656e2061646465642e00000000000000000000000000000000000000602082015250565b600061300e602d83612be7565b915061301982612fb2565b604082019050919050565b6000602082019050818103600083015261303d81613001565b9050919050565b60006101208201905061305a600083018c6127aa565b613067602083018b612876565b613074604083018a612876565b61308160608301896127aa565b61308e6080830188612876565b61309b60a0830187612876565b6130a860c08301866127aa565b6130b560e0830185612876565b6130c36101008301846127aa565b9a9950505050505050505050565b60006130dc826124e8565b91507fffffffffffffffffffffffffffffffffffffffffffffffffffffffffffffffff820361310e5761310d612e51565b5b600182019050919050565b600081905092915050565b50565b6000613134600083613119565b915061313f82613124565b600082019050919050565b600061315582613127565b9150819050919050565b7f4661696c656420746f2073656e64204574686572000000000000000000000000600082015250565b6000613195601483612be7565b91506131a08261315f565b602082019050919050565b600060208201905081810360008301526131c481613188565b9050919050565b60006040820190506131e060008301856127aa565b6131ed60208301846127aa565b9392505050565b7f54686520666f6c6c6f77696e6720636f6e74726163742068617320616c72656160008201527f6479206265656e2061646465642e000000000000000000000000000000000000602082015250565b6000613250602e83612be7565b915061325b826131f4565b604082019050919050565b6000602082019050818103600083015261327f81613243565b9050919050565b6000613291826124e8565b915061329c836124e8565b9250817fffffffffffffffffffffffffffffffffffffffffffffffffffffffffffffffff04831182151516156132d5576132d4612e51565b5b828202905092915050565b6000819050919050565b6000819050919050565b600061330f61330a613305846132e0565b6132ea565b6124e8565b9050919050565b61331f816132f4565b82525050565b60006101008201905061333b600083018b61259e565b613348602083018a6127aa565b6133556040830189612876565b6133626060830188612876565b61336f60808301876127aa565b61337c60a08301866127aa565b61338960c0830185613316565b61339660e08301846127aa565b9998505050505050505050565b7f4e487b7100000000000000000000000000000000000000000000000000000000600052603260045260246000fd5b60006133dd826124e8565b91506133e8836124e8565b9250828203905081811115613400576133ff612e51565b5b92915050565b7f4e487b7100000000000000000000000000000000000000000000000000000000600052603160045260246000fdfea2646970667358221220c4d9b2b0f9b070d78f3a493b4d9b4033a908b8de855deead1a1d65f4fbcbb94964736f6c63430008100033","opcodes":"PUSH1 0x80 PUSH1 0x40 MSTORE CALLVALUE DUP1 ISZERO PUSH2 0x10 JUMPI PUSH1 0x0 DUP1 REVERT JUMPDEST POP PUSH2 0x346B DUP1 PUSH2 0x20 PUSH1 0x0 CODECOPY PUSH1 0x0 RETURN INVALID PUSH1 0x80 PUSH1 0x40 MSTORE PUSH1 0x4 CALLDATASIZE LT PUSH2 0x166 JUMPI PUSH1 0x0 CALLDATALOAD PUSH1 0xE0 SHR DUP1 PUSH4 0x8736381A GT PUSH2 0xD1 JUMPI DUP1 PUSH4 0xA36A5D8D GT PUSH2 0x8A JUMPI DUP1 PUSH4 0xB97C9F77 GT PUSH2 0x64 JUMPI DUP1 PUSH4 0xB97C9F77 EQ PUSH2 0x5A1 JUMPI DUP1 PUSH4 0xCA15C873 EQ PUSH2 0x5CC JUMPI DUP1 PUSH4 0xDE8B1989 EQ PUSH2 0x609 JUMPI DUP1 PUSH4 0xE58378BB EQ PUSH2 0x632 JUMPI PUSH2 0x166 JUMP JUMPDEST DUP1 PUSH4 0xA36A5D8D EQ PUSH2 0x508 JUMPI DUP1 PUSH4 0xAEEA80F5 EQ PUSH2 0x51F JUMPI DUP1 PUSH4 0xB8BA95FA EQ PUSH2 0x55C JUMPI PUSH2 0x166 JUMP JUMPDEST DUP1 PUSH4 0x8736381A EQ PUSH2 0x3CB JUMPI DUP1 PUSH4 0x87B50547 EQ PUSH2 0x3F6 JUMPI DUP1 PUSH4 0x9010D07C EQ PUSH2 0x426 JUMPI DUP1 PUSH4 0x91D14854 EQ PUSH2 0x463 JUMPI DUP1 PUSH4 0x99704937 EQ PUSH2 0x4A0 JUMPI DUP1 PUSH4 0x9F2BC40E EQ PUSH2 0x4CB JUMPI PUSH2 0x166 JUMP JUMPDEST DUP1 PUSH4 0x69A8F49E GT PUSH2 0x123 JUMPI DUP1 PUSH4 0x69A8F49E EQ PUSH2 0x291 JUMPI DUP1 PUSH4 0x7065CB48 EQ PUSH2 0x2D6 JUMPI DUP1 PUSH4 0x74539CD0 EQ PUSH2 0x2FF JUMPI DUP1 PUSH4 0x79B67CAA EQ PUSH2 0x31B JUMPI DUP1 PUSH4 0x7B66FE2E EQ PUSH2 0x34B JUMPI DUP1 PUSH4 0x85AEE0A6 EQ PUSH2 0x38E JUMPI PUSH2 0x166 JUMP JUMPDEST DUP1 PUSH4 0x2AEC3CE EQ PUSH2 0x16B JUMPI DUP1 PUSH4 0x173825D9 EQ PUSH2 0x194 JUMPI DUP1 PUSH4 0x28C23A45 EQ PUSH2 0x1BD JUMPI DUP1 PUSH4 0x2F54BF6E EQ PUSH2 0x1D4 JUMPI DUP1 PUSH4 0x37C3510A EQ PUSH2 0x211 JUMPI DUP1 PUSH4 0x474DA79A EQ PUSH2 0x24E JUMPI JUMPDEST PUSH1 0x0 DUP1 REVERT JUMPDEST CALLVALUE DUP1 ISZERO PUSH2 0x177 JUMPI PUSH1 0x0 DUP1 REVERT JUMPDEST POP PUSH2 0x192 PUSH1 0x4 DUP1 CALLDATASIZE SUB DUP2 ADD SWAP1 PUSH2 0x18D SWAP2 SWAP1 PUSH2 0x2485 JUMP JUMPDEST PUSH2 0x65D JUMP JUMPDEST STOP JUMPDEST CALLVALUE DUP1 ISZERO PUSH2 0x1A0 JUMPI PUSH1 0x0 DUP1 REVERT JUMPDEST POP PUSH2 0x1BB PUSH1 0x4 DUP1 CALLDATASIZE SUB DUP2 ADD SWAP1 PUSH2 0x1B6 SWAP2 SWAP1 PUSH2 0x2485 JUMP JUMPDEST PUSH2 0x68A JUMP JUMPDEST STOP JUMPDEST CALLVALUE DUP1 ISZERO PUSH2 0x1C9 JUMPI PUSH1 0x0 DUP1 REVERT JUMPDEST POP PUSH2 0x1D2 PUSH2 0x6B7 JUMP JUMPDEST STOP JUMPDEST CALLVALUE DUP1 ISZERO PUSH2 0x1E0 JUMPI PUSH1 0x0 DUP1 REVERT JUMPDEST POP PUSH2 0x1FB PUSH1 0x4 DUP1 CALLDATASIZE SUB DUP2 ADD SWAP1 PUSH2 0x1F6 SWAP2 SWAP1 PUSH2 0x2485 JUMP JUMPDEST PUSH2 0x6E3 JUMP JUMPDEST PUSH1 0x40 MLOAD PUSH2 0x208 SWAP2 SWAP1 PUSH2 0x24CD JUMP JUMPDEST PUSH1 0x40 MLOAD DUP1 SWAP2 SUB SWAP1 RETURN JUMPDEST CALLVALUE DUP1 ISZERO PUSH2 0x21D JUMPI PUSH1 0x0 DUP1 REVERT JUMPDEST POP PUSH2 0x238 PUSH1 0x4 DUP1 CALLDATASIZE SUB DUP2 ADD SWAP1 PUSH2 0x233 SWAP2 SWAP1 PUSH2 0x251E JUMP JUMPDEST PUSH2 0x716 JUMP JUMPDEST PUSH1 0x40 MLOAD PUSH2 0x245 SWAP2 SWAP1 PUSH2 0x24CD JUMP JUMPDEST PUSH1 0x40 MLOAD DUP1 SWAP2 SUB SWAP1 RETURN JUMPDEST CALLVALUE DUP1 ISZERO PUSH2 0x25A JUMPI PUSH1 0x0 DUP1 REVERT JUMPDEST POP PUSH2 0x275 PUSH1 0x4 DUP1 CALLDATASIZE SUB DUP2 ADD SWAP1 PUSH2 0x270 SWAP2 SWAP1 PUSH2 0x2571 JUMP JUMPDEST PUSH2 0x8FC JUMP JUMPDEST PUSH1 0x40 MLOAD PUSH2 0x288 SWAP8 SWAP7 SWAP6 SWAP5 SWAP4 SWAP3 SWAP2 SWAP1 PUSH2 0x2801 JUMP JUMPDEST PUSH1 0x40 MLOAD DUP1 SWAP2 SUB SWAP1 RETURN JUMPDEST CALLVALUE DUP1 ISZERO PUSH2 0x29D JUMPI PUSH1 0x0 DUP1 REVERT JUMPDEST POP PUSH2 0x2B8 PUSH1 0x4 DUP1 CALLDATASIZE SUB DUP2 ADD SWAP1 PUSH2 0x2B3 SWAP2 SWAP1 PUSH2 0x2571 JUMP JUMPDEST PUSH2 0xA7E JUMP JUMPDEST PUSH1 0x40 MLOAD PUSH2 0x2CD SWAP10 SWAP9 SWAP8 SWAP7 SWAP6 SWAP5 SWAP4 SWAP3 SWAP2 SWAP1 PUSH2 0x28D2 JUMP JUMPDEST PUSH1 0x40 MLOAD DUP1 SWAP2 SUB SWAP1 RETURN JUMPDEST CALLVALUE DUP1 ISZERO PUSH2 0x2E2 JUMPI PUSH1 0x0 DUP1 REVERT JUMPDEST POP PUSH2 0x2FD PUSH1 0x4 DUP1 CALLDATASIZE SUB DUP2 ADD SWAP1 PUSH2 0x2F8 SWAP2 SWAP1 PUSH2 0x2485 JUMP JUMPDEST PUSH2 0xB04 JUMP JUMPDEST STOP JUMPDEST PUSH2 0x319 PUSH1 0x4 DUP1 CALLDATASIZE SUB DUP2 ADD SWAP1 PUSH2 0x314 SWAP2 SWAP1 PUSH2 0x2571 JUMP JUMPDEST PUSH2 0xB72 JUMP JUMPDEST STOP JUMPDEST PUSH2 0x335 PUSH1 0x4 DUP1 CALLDATASIZE SUB DUP2 ADD SWAP1 PUSH2 0x330 SWAP2 SWAP1 PUSH2 0x2960 JUMP JUMPDEST PUSH2 0xB75 JUMP JUMPDEST PUSH1 0x40 MLOAD PUSH2 0x342 SWAP2 SWAP1 PUSH2 0x24CD JUMP JUMPDEST PUSH1 0x40 MLOAD DUP1 SWAP2 SUB SWAP1 RETURN JUMPDEST CALLVALUE DUP1 ISZERO PUSH2 0x357 JUMPI PUSH1 0x0 DUP1 REVERT JUMPDEST POP PUSH2 0x372 PUSH1 0x4 DUP1 CALLDATASIZE SUB DUP2 ADD SWAP1 PUSH2 0x36D SWAP2 SWAP1 PUSH2 0x2571 JUMP JUMPDEST PUSH2 0xF7B JUMP JUMPDEST PUSH1 0x40 MLOAD PUSH2 0x385 SWAP8 SWAP7 SWAP6 SWAP5 SWAP4 SWAP3 SWAP2 SWAP1 PUSH2 0x2801 JUMP JUMPDEST PUSH1 0x40 MLOAD DUP1 SWAP2 SUB SWAP1 RETURN JUMPDEST CALLVALUE DUP1 ISZERO PUSH2 0x39A JUMPI PUSH1 0x0 DUP1 REVERT JUMPDEST POP PUSH2 0x3B5 PUSH1 0x4 DUP1 CALLDATASIZE SUB DUP2 ADD SWAP1 PUSH2 0x3B0 SWAP2 SWAP1 PUSH2 0x29CC JUMP JUMPDEST PUSH2 0x10ED JUMP JUMPDEST PUSH1 0x40 MLOAD PUSH2 0x3C2 SWAP2 SWAP1 PUSH2 0x24CD JUMP JUMPDEST PUSH1 0x40 MLOAD DUP1 SWAP2 SUB SWAP1 RETURN JUMPDEST CALLVALUE DUP1 ISZERO PUSH2 0x3D7 JUMPI PUSH1 0x0 DUP1 REVERT JUMPDEST POP PUSH2 0x3E0 PUSH2 0x1462 JUMP JUMPDEST PUSH1 0x40 MLOAD PUSH2 0x3ED SWAP2 SWAP1 PUSH2 0x2A82 JUMP JUMPDEST PUSH1 0x40 MLOAD DUP1 SWAP2 SUB SWAP1 RETURN JUMPDEST PUSH2 0x410 PUSH1 0x4 DUP1 CALLDATASIZE SUB DUP2 ADD SWAP1 PUSH2 0x40B SWAP2 SWAP1 PUSH2 0x2960 JUMP JUMPDEST PUSH2 0x1468 JUMP JUMPDEST PUSH1 0x40 MLOAD PUSH2 0x41D SWAP2 SWAP1 PUSH2 0x24CD JUMP JUMPDEST PUSH1 0x40 MLOAD DUP1 SWAP2 SUB SWAP1 RETURN JUMPDEST CALLVALUE DUP1 ISZERO PUSH2 0x432 JUMPI PUSH1 0x0 DUP1 REVERT JUMPDEST POP PUSH2 0x44D PUSH1 0x4 DUP1 CALLDATASIZE SUB DUP2 ADD SWAP1 PUSH2 0x448 SWAP2 SWAP1 PUSH2 0x2A9D JUMP JUMPDEST PUSH2 0x17E4 JUMP JUMPDEST PUSH1 0x40 MLOAD PUSH2 0x45A SWAP2 SWAP1 PUSH2 0x2ADD JUMP JUMPDEST PUSH1 0x40 MLOAD DUP1 SWAP2 SUB SWAP1 RETURN JUMPDEST CALLVALUE DUP1 ISZERO PUSH2 0x46F JUMPI PUSH1 0x0 DUP1 REVERT JUMPDEST POP PUSH2 0x48A PUSH1 0x4 DUP1 CALLDATASIZE SUB DUP2 ADD SWAP1 PUSH2 0x485 SWAP2 SWAP1 PUSH2 0x2AF8 JUMP JUMPDEST PUSH2 0x1812 JUMP JUMPDEST PUSH1 0x40 MLOAD PUSH2 0x497 SWAP2 SWAP1 PUSH2 0x24CD JUMP JUMPDEST PUSH1 0x40 MLOAD DUP1 SWAP2 SUB SWAP1 RETURN JUMPDEST CALLVALUE DUP1 ISZERO PUSH2 0x4AC JUMPI PUSH1 0x0 DUP1 REVERT JUMPDEST POP PUSH2 0x4B5 PUSH2 0x1840 JUMP JUMPDEST PUSH1 0x40 MLOAD PUSH2 0x4C2 SWAP2 SWAP1 PUSH2 0x2A82 JUMP JUMPDEST PUSH1 0x40 MLOAD DUP1 SWAP2 SUB SWAP1 RETURN JUMPDEST CALLVALUE DUP1 ISZERO PUSH2 0x4D7 JUMPI PUSH1 0x0 DUP1 REVERT JUMPDEST POP PUSH2 0x4F2 PUSH1 0x4 DUP1 CALLDATASIZE SUB DUP2 ADD SWAP1 PUSH2 0x4ED SWAP2 SWAP1 PUSH2 0x2485 JUMP JUMPDEST PUSH2 0x1846 JUMP JUMPDEST PUSH1 0x40 MLOAD PUSH2 0x4FF SWAP2 SWAP1 PUSH2 0x24CD JUMP JUMPDEST PUSH1 0x40 MLOAD DUP1 SWAP2 SUB SWAP1 RETURN JUMPDEST CALLVALUE DUP1 ISZERO PUSH2 0x514 JUMPI PUSH1 0x0 DUP1 REVERT JUMPDEST POP PUSH2 0x51D PUSH2 0x1879 JUMP JUMPDEST STOP JUMPDEST CALLVALUE DUP1 ISZERO PUSH2 0x52B JUMPI PUSH1 0x0 DUP1 REVERT JUMPDEST POP PUSH2 0x546 PUSH1 0x4 DUP1 CALLDATASIZE SUB DUP2 ADD SWAP1 PUSH2 0x541 SWAP2 SWAP1 PUSH2 0x2B38 JUMP JUMPDEST PUSH2 0x18A5 JUMP JUMPDEST PUSH1 0x40 MLOAD PUSH2 0x553 SWAP2 SWAP1 PUSH2 0x24CD JUMP JUMPDEST PUSH1 0x40 MLOAD DUP1 SWAP2 SUB SWAP1 RETURN JUMPDEST CALLVALUE DUP1 ISZERO PUSH2 0x568 JUMPI PUSH1 0x0 DUP1 REVERT JUMPDEST POP PUSH2 0x583 PUSH1 0x4 DUP1 CALLDATASIZE SUB DUP2 ADD SWAP1 PUSH2 0x57E SWAP2 SWAP1 PUSH2 0x2571 JUMP JUMPDEST PUSH2 0x1EE9 JUMP JUMPDEST PUSH1 0x40 MLOAD PUSH2 0x598 SWAP10 SWAP9 SWAP8 SWAP7 SWAP6 SWAP5 SWAP4 SWAP3 SWAP2 SWAP1 PUSH2 0x28D2 JUMP JUMPDEST PUSH1 0x40 MLOAD DUP1 SWAP2 SUB SWAP1 RETURN JUMPDEST CALLVALUE DUP1 ISZERO PUSH2 0x5AD JUMPI PUSH1 0x0 DUP1 REVERT JUMPDEST POP PUSH2 0x5B6 PUSH2 0x1F7F JUMP JUMPDEST PUSH1 0x40 MLOAD PUSH2 0x5C3 SWAP2 SWAP1 PUSH2 0x2B9F JUMP JUMPDEST PUSH1 0x40 MLOAD DUP1 SWAP2 SUB SWAP1 RETURN JUMPDEST CALLVALUE DUP1 ISZERO PUSH2 0x5D8 JUMPI PUSH1 0x0 DUP1 REVERT JUMPDEST POP PUSH2 0x5F3 PUSH1 0x4 DUP1 CALLDATASIZE SUB DUP2 ADD SWAP1 PUSH2 0x5EE SWAP2 SWAP1 PUSH2 0x2BBA JUMP JUMPDEST PUSH2 0x1FA3 JUMP JUMPDEST PUSH1 0x40 MLOAD PUSH2 0x600 SWAP2 SWAP1 PUSH2 0x2A82 JUMP JUMPDEST PUSH1 0x40 MLOAD DUP1 SWAP2 SUB SWAP1 RETURN JUMPDEST CALLVALUE DUP1 ISZERO PUSH2 0x615 JUMPI PUSH1 0x0 DUP1 REVERT JUMPDEST POP PUSH2 0x630 PUSH1 0x4 DUP1 CALLDATASIZE SUB DUP2 ADD SWAP1 PUSH2 0x62B SWAP2 SWAP1 PUSH2 0x2485 JUMP JUMPDEST PUSH2 0x1FC6 JUMP JUMPDEST STOP JUMPDEST CALLVALUE DUP1 ISZERO PUSH2 0x63E JUMPI PUSH1 0x0 DUP1 REVERT JUMPDEST POP PUSH2 0x647 PUSH2 0x2034 JUMP JUMPDEST PUSH1 0x40 MLOAD PUSH2 0x654 SWAP2 SWAP1 PUSH2 0x2B9F JUMP JUMPDEST PUSH1 0x40 MLOAD DUP1 SWAP2 SUB SWAP1 RETURN JUMPDEST PUSH2 0x687 PUSH32 0x52454E5445520000000000000000000000000000000000000000000000000000 DUP3 PUSH2 0x2058 JUMP JUMPDEST POP JUMP JUMPDEST PUSH2 0x6B4 PUSH32 0x4F574E4552000000000000000000000000000000000000000000000000000000 DUP3 PUSH2 0x2058 JUMP JUMPDEST POP JUMP JUMPDEST PUSH2 0x6E1 PUSH32 0x4F574E4552000000000000000000000000000000000000000000000000000000 CALLER PUSH2 0x2058 JUMP JUMPDEST JUMP JUMPDEST PUSH1 0x0 PUSH2 0x70F PUSH32 0x4F574E4552000000000000000000000000000000000000000000000000000000 DUP4 PUSH2 0x1812 JUMP JUMPDEST SWAP1 POP SWAP2 SWAP1 POP JUMP JUMPDEST PUSH1 0x0 PUSH2 0x721 CALLER PUSH2 0x1846 JUMP JUMPDEST PUSH2 0x760 JUMPI PUSH1 0x40 MLOAD PUSH32 0x8C379A000000000000000000000000000000000000000000000000000000000 DUP2 MSTORE PUSH1 0x4 ADD PUSH2 0x757 SWAP1 PUSH2 0x2C44 JUMP JUMPDEST PUSH1 0x40 MLOAD DUP1 SWAP2 SUB SWAP1 REVERT JUMPDEST DUP4 PUSH1 0x0 PUSH1 0x1 DUP2 GT ISZERO PUSH2 0x775 JUMPI PUSH2 0x774 PUSH2 0x25D5 JUMP JUMPDEST JUMPDEST PUSH1 0x5 PUSH1 0x0 DUP4 DUP2 MSTORE PUSH1 0x20 ADD SWAP1 DUP2 MSTORE PUSH1 0x20 ADD PUSH1 0x0 KECCAK256 PUSH1 0x9 ADD PUSH1 0x0 SWAP1 SLOAD SWAP1 PUSH2 0x100 EXP SWAP1 DIV PUSH1 0xFF AND PUSH1 0x1 DUP2 GT ISZERO PUSH2 0x7AB JUMPI PUSH2 0x7AA PUSH2 0x25D5 JUMP JUMPDEST JUMPDEST EQ PUSH2 0x7EB JUMPI PUSH1 0x40 MLOAD PUSH32 0x8C379A000000000000000000000000000000000000000000000000000000000 DUP2 MSTORE PUSH1 0x4 ADD PUSH2 0x7E2 SWAP1 PUSH2 0x2CD6 JUMP JUMPDEST PUSH1 0x40 MLOAD DUP1 SWAP2 SUB SWAP1 REVERT JUMPDEST DUP4 PUSH1 0x0 PUSH20 0xFFFFFFFFFFFFFFFFFFFFFFFFFFFFFFFFFFFFFFFF AND PUSH1 0x7 PUSH1 0x0 DUP4 DUP2 MSTORE PUSH1 0x20 ADD SWAP1 DUP2 MSTORE PUSH1 0x20 ADD PUSH1 0x0 KECCAK256 PUSH1 0x0 ADD PUSH1 0x0 SWAP1 SLOAD SWAP1 PUSH2 0x100 EXP SWAP1 DIV PUSH20 0xFFFFFFFFFFFFFFFFFFFFFFFFFFFFFFFFFFFFFFFF AND PUSH20 0xFFFFFFFFFFFFFFFFFFFFFFFFFFFFFFFFFFFFFFFF AND SUB PUSH2 0x891 JUMPI PUSH1 0x40 MLOAD PUSH32 0x8C379A000000000000000000000000000000000000000000000000000000000 DUP2 MSTORE PUSH1 0x4 ADD PUSH2 0x888 SWAP1 PUSH2 0x2D68 JUMP JUMPDEST PUSH1 0x40 MLOAD DUP1 SWAP2 SUB SWAP1 REVERT JUMPDEST DUP4 PUSH1 0x7 PUSH1 0x0 DUP8 DUP2 MSTORE PUSH1 0x20 ADD SWAP1 DUP2 MSTORE PUSH1 0x20 ADD PUSH1 0x0 KECCAK256 PUSH1 0xE ADD DUP2 SWAP1 SSTORE POP PUSH32 0x601F6815F14E12706E308B49DEC47ECE2D3669ABBEDD5FB135F3C0A46BE9E3A0 DUP7 DUP7 DUP7 PUSH1 0x40 MLOAD PUSH2 0x8DF SWAP4 SWAP3 SWAP2 SWAP1 PUSH2 0x2D88 JUMP JUMPDEST PUSH1 0x40 MLOAD DUP1 SWAP2 SUB SWAP1 LOG1 PUSH1 0x4 SLOAD PUSH1 0x8 DUP1 SLOAD SWAP1 POP EQ SWAP3 POP POP POP SWAP4 SWAP3 POP POP POP JUMP JUMPDEST PUSH1 0x8 DUP2 DUP2 SLOAD DUP2 LT PUSH2 0x90C JUMPI PUSH1 0x0 DUP1 REVERT JUMPDEST SWAP1 PUSH1 0x0 MSTORE PUSH1 0x20 PUSH1 0x0 KECCAK256 SWAP1 PUSH1 0x11 MUL ADD PUSH1 0x0 SWAP2 POP SWAP1 POP DUP1 PUSH1 0x0 ADD PUSH1 0x0 SWAP1 SLOAD SWAP1 PUSH2 0x100 EXP SWAP1 DIV PUSH20 0xFFFFFFFFFFFFFFFFFFFFFFFFFFFFFFFFFFFFFFFF AND SWAP1 DUP1 PUSH1 0x1 ADD PUSH1 0x40 MLOAD DUP1 PUSH2 0x120 ADD PUSH1 0x40 MSTORE SWAP1 DUP2 PUSH1 0x0 DUP3 ADD SLOAD DUP2 MSTORE PUSH1 0x20 ADD PUSH1 0x1 DUP3 ADD SLOAD DUP2 MSTORE PUSH1 0x20 ADD PUSH1 0x2 DUP3 ADD SLOAD DUP2 MSTORE PUSH1 0x20 ADD PUSH1 0x3 DUP3 ADD PUSH1 0x0 SWAP1 SLOAD SWAP1 PUSH2 0x100 EXP SWAP1 DIV PUSH1 0xFF AND PUSH1 0x6 DUP2 GT ISZERO PUSH2 0x999 JUMPI PUSH2 0x998 PUSH2 0x25D5 JUMP JUMPDEST JUMPDEST PUSH1 0x6 DUP2 GT ISZERO PUSH2 0x9AB JUMPI PUSH2 0x9AA PUSH2 0x25D5 JUMP JUMPDEST JUMPDEST DUP2 MSTORE PUSH1 0x20 ADD PUSH1 0x4 DUP3 ADD PUSH1 0x40 MLOAD DUP1 PUSH1 0x40 ADD PUSH1 0x40 MSTORE SWAP1 DUP2 PUSH1 0x0 DUP3 ADD SLOAD DUP2 MSTORE PUSH1 0x20 ADD PUSH1 0x1 DUP3 ADD SLOAD DUP2 MSTORE POP POP DUP2 MSTORE PUSH1 0x20 ADD PUSH1 0x6 DUP3 ADD SLOAD DUP2 MSTORE PUSH1 0x20 ADD PUSH1 0x7 DUP3 ADD SLOAD DUP2 MSTORE PUSH1 0x20 ADD PUSH1 0x8 DUP3 ADD SLOAD DUP2 MSTORE PUSH1 0x20 ADD PUSH1 0x9 DUP3 ADD PUSH1 0x0 SWAP1 SLOAD SWAP1 PUSH2 0x100 EXP SWAP1 DIV PUSH1 0xFF AND PUSH1 0x1 DUP2 GT ISZERO PUSH2 0xA1A JUMPI PUSH2 0xA19 PUSH2 0x25D5 JUMP JUMPDEST JUMPDEST PUSH1 0x1 DUP2 GT ISZERO PUSH2 0xA2C JUMPI PUSH2 0xA2B PUSH2 0x25D5 JUMP JUMPDEST JUMPDEST DUP2 MSTORE POP POP SWAP1 DUP1 PUSH1 0xB ADD PUSH1 0x40 MLOAD DUP1 PUSH1 0x40 ADD PUSH1 0x40 MSTORE SWAP1 DUP2 PUSH1 0x0 DUP3 ADD SLOAD DUP2 MSTORE PUSH1 0x20 ADD PUSH1 0x1 DUP3 ADD SLOAD DUP2 MSTORE POP POP SWAP1 DUP1 PUSH1 0xD ADD SLOAD SWAP1 DUP1 PUSH1 0xE ADD SLOAD SWAP1 DUP1 PUSH1 0xF ADD SLOAD SWAP1 DUP1 PUSH1 0x10 ADD PUSH1 0x0 SWAP1 SLOAD SWAP1 PUSH2 0x100 EXP SWAP1 DIV PUSH1 0xFF AND SWAP1 POP DUP8 JUMP JUMPDEST PUSH1 0x5 PUSH1 0x20 MSTORE DUP1 PUSH1 0x0 MSTORE PUSH1 0x40 PUSH1 0x0 KECCAK256 PUSH1 0x0 SWAP2 POP SWAP1 POP DUP1 PUSH1 0x0 ADD SLOAD SWAP1 DUP1 PUSH1 0x1 ADD SLOAD SWAP1 DUP1 PUSH1 0x2 ADD SLOAD SWAP1 DUP1 PUSH1 0x3 ADD PUSH1 0x0 SWAP1 SLOAD SWAP1 PUSH2 0x100 EXP SWAP1 DIV PUSH1 0xFF AND SWAP1 DUP1 PUSH1 0x4 ADD PUSH1 0x40 MLOAD DUP1 PUSH1 0x40 ADD PUSH1 0x40 MSTORE SWAP1 DUP2 PUSH1 0x0 DUP3 ADD SLOAD DUP2 MSTORE PUSH1 0x20 ADD PUSH1 0x1 DUP3 ADD SLOAD DUP2 MSTORE POP POP SWAP1 DUP1 PUSH1 0x6 ADD SLOAD SWAP1 DUP1 PUSH1 0x7 ADD SLOAD SWAP1 DUP1 PUSH1 0x8 ADD SLOAD SWAP1 DUP1 PUSH1 0x9 ADD PUSH1 0x0 SWAP1 SLOAD SWAP1 PUSH2 0x100 EXP SWAP1 DIV PUSH1 0xFF AND SWAP1 POP DUP10 JUMP JUMPDEST DUP1 PUSH1 0x2 PUSH1 0x0 PUSH2 0x100 EXP DUP2 SLOAD DUP2 PUSH20 0xFFFFFFFFFFFFFFFFFFFFFFFFFFFFFFFFFFFFFFFF MUL NOT AND SWAP1 DUP4 PUSH20 0xFFFFFFFFFFFFFFFFFFFFFFFFFFFFFFFFFFFFFFFF AND MUL OR SWAP1 SSTORE POP PUSH2 0xB6F PUSH32 0x4F574E4552000000000000000000000000000000000000000000000000000000 DUP3 PUSH2 0x20E8 JUMP JUMPDEST POP JUMP JUMPDEST POP JUMP JUMPDEST PUSH1 0x0 PUSH2 0xB80 CALLER PUSH2 0x1846 JUMP JUMPDEST PUSH2 0xBBF JUMPI PUSH1 0x40 MLOAD PUSH32 0x8C379A000000000000000000000000000000000000000000000000000000000 DUP2 MSTORE PUSH1 0x4 ADD PUSH2 0xBB6 SWAP1 PUSH2 0x2C44 JUMP JUMPDEST PUSH1 0x40 MLOAD DUP1 SWAP2 SUB SWAP1 REVERT JUMPDEST DUP2 PUSH1 0x0 PUSH1 0x5 PUSH1 0x0 DUP4 DUP2 MSTORE PUSH1 0x20 ADD SWAP1 DUP2 MSTORE PUSH1 0x20 ADD PUSH1 0x0 KECCAK256 PUSH1 0x0 ADD SLOAD GT PUSH2 0xC19 JUMPI PUSH1 0x40 MLOAD PUSH32 0x8C379A000000000000000000000000000000000000000000000000000000000 DUP2 MSTORE PUSH1 0x4 ADD PUSH2 0xC10 SWAP1 PUSH2 0x2E31 JUMP JUMPDEST PUSH1 0x40 MLOAD DUP1 SWAP2 SUB SWAP1 REVERT JUMPDEST DUP3 PUSH1 0x0 PUSH1 0x1 DUP2 GT ISZERO PUSH2 0xC2E JUMPI PUSH2 0xC2D PUSH2 0x25D5 JUMP JUMPDEST JUMPDEST PUSH1 0x5 PUSH1 0x0 DUP4 DUP2 MSTORE PUSH1 0x20 ADD SWAP1 DUP2 MSTORE PUSH1 0x20 ADD PUSH1 0x0 KECCAK256 PUSH1 0x9 ADD PUSH1 0x0 SWAP1 SLOAD SWAP1 PUSH2 0x100 EXP SWAP1 DIV PUSH1 0xFF AND PUSH1 0x1 DUP2 GT ISZERO PUSH2 0xC64 JUMPI PUSH2 0xC63 PUSH2 0x25D5 JUMP JUMPDEST JUMPDEST EQ PUSH2 0xCA4 JUMPI PUSH1 0x40 MLOAD PUSH32 0x8C379A000000000000000000000000000000000000000000000000000000000 DUP2 MSTORE PUSH1 0x4 ADD PUSH2 0xC9B SWAP1 PUSH2 0x2CD6 JUMP JUMPDEST PUSH1 0x40 MLOAD DUP1 SWAP2 SUB SWAP1 REVERT JUMPDEST DUP5 PUSH1 0x0 PUSH20 0xFFFFFFFFFFFFFFFFFFFFFFFFFFFFFFFFFFFFFFFF AND PUSH1 0x7 PUSH1 0x0 DUP4 DUP2 MSTORE PUSH1 0x20 ADD SWAP1 DUP2 MSTORE PUSH1 0x20 ADD PUSH1 0x0 KECCAK256 PUSH1 0x0 ADD PUSH1 0x0 SWAP1 SLOAD SWAP1 PUSH2 0x100 EXP SWAP1 DIV PUSH20 0xFFFFFFFFFFFFFFFFFFFFFFFFFFFFFFFFFFFFFFFF AND PUSH20 0xFFFFFFFFFFFFFFFFFFFFFFFFFFFFFFFFFFFFFFFF AND SUB PUSH2 0xD4A JUMPI PUSH1 0x40 MLOAD PUSH32 0x8C379A000000000000000000000000000000000000000000000000000000000 DUP2 MSTORE PUSH1 0x4 ADD PUSH2 0xD41 SWAP1 PUSH2 0x2D68 JUMP JUMPDEST PUSH1 0x40 MLOAD DUP1 SWAP2 SUB SWAP1 REVERT JUMPDEST DUP6 PUSH1 0x0 PUSH1 0x7 PUSH1 0x0 DUP4 DUP2 MSTORE PUSH1 0x20 ADD SWAP1 DUP2 MSTORE PUSH1 0x20 ADD PUSH1 0x0 KECCAK256 PUSH1 0xD ADD SLOAD PUSH1 0x7 PUSH1 0x0 DUP5 DUP2 MSTORE PUSH1 0x20 ADD SWAP1 DUP2 MSTORE PUSH1 0x20 ADD PUSH1 0x0 KECCAK256 PUSH1 0xE ADD SLOAD PUSH2 0xD85 SWAP2 SWAP1 PUSH2 0x2E80 JUMP JUMPDEST SWAP1 POP DUP1 PUSH1 0x1 PUSH1 0x0 SWAP1 SLOAD SWAP1 PUSH2 0x100 EXP SWAP1 DIV PUSH20 0xFFFFFFFFFFFFFFFFFFFFFFFFFFFFFFFFFFFFFFFF AND PUSH20 0xFFFFFFFFFFFFFFFFFFFFFFFFFFFFFFFFFFFFFFFF AND BALANCE LT ISZERO PUSH2 0xE03 JUMPI PUSH1 0x40 MLOAD PUSH32 0x8C379A000000000000000000000000000000000000000000000000000000000 DUP2 MSTORE PUSH1 0x4 ADD PUSH2 0xDFA SWAP1 PUSH2 0x2F26 JUMP JUMPDEST PUSH1 0x40 MLOAD DUP1 SWAP2 SUB SWAP1 REVERT JUMPDEST PUSH1 0x1 PUSH1 0x7 PUSH1 0x0 DUP11 DUP2 MSTORE PUSH1 0x20 ADD SWAP1 DUP2 MSTORE PUSH1 0x20 ADD PUSH1 0x0 KECCAK256 PUSH1 0x10 ADD PUSH1 0x0 PUSH2 0x100 EXP DUP2 SLOAD DUP2 PUSH1 0xFF MUL NOT AND SWAP1 DUP4 PUSH1 0x2 DUP2 GT ISZERO PUSH2 0xE3D JUMPI PUSH2 0xE3C PUSH2 0x25D5 JUMP JUMPDEST JUMPDEST MUL OR SWAP1 SSTORE POP PUSH1 0x1 PUSH1 0x5 PUSH1 0x0 DUP10 DUP2 MSTORE PUSH1 0x20 ADD SWAP1 DUP2 MSTORE PUSH1 0x20 ADD PUSH1 0x0 KECCAK256 PUSH1 0x9 ADD PUSH1 0x0 PUSH2 0x100 EXP DUP2 SLOAD DUP2 PUSH1 0xFF MUL NOT AND SWAP1 DUP4 PUSH1 0x1 DUP2 GT ISZERO PUSH2 0xE7C JUMPI PUSH2 0xE7B PUSH2 0x25D5 JUMP JUMPDEST JUMPDEST MUL OR SWAP1 SSTORE POP PUSH1 0x0 PUSH1 0x7 PUSH1 0x0 DUP11 DUP2 MSTORE PUSH1 0x20 ADD SWAP1 DUP2 MSTORE PUSH1 0x20 ADD PUSH1 0x0 KECCAK256 PUSH1 0xE ADD SLOAD PUSH1 0x7 PUSH1 0x0 DUP12 DUP2 MSTORE PUSH1 0x20 ADD SWAP1 DUP2 MSTORE PUSH1 0x20 ADD PUSH1 0x0 KECCAK256 PUSH1 0xD ADD SLOAD PUSH2 0xEBB SWAP2 SWAP1 PUSH2 0x2E80 JUMP JUMPDEST SWAP1 POP ADDRESS PUSH20 0xFFFFFFFFFFFFFFFFFFFFFFFFFFFFFFFFFFFFFFFF AND PUSH4 0x74539CD0 DUP3 PUSH1 0x40 MLOAD DUP3 PUSH4 0xFFFFFFFF AND PUSH1 0xE0 SHL DUP2 MSTORE PUSH1 0x4 ADD PUSH2 0xEF6 SWAP2 SWAP1 PUSH2 0x2A82 JUMP JUMPDEST PUSH1 0x0 PUSH1 0x40 MLOAD DUP1 DUP4 SUB DUP2 PUSH1 0x0 DUP8 DUP1 EXTCODESIZE ISZERO DUP1 ISZERO PUSH2 0xF10 JUMPI PUSH1 0x0 DUP1 REVERT JUMPDEST POP GAS CALL ISZERO DUP1 ISZERO PUSH2 0xF24 JUMPI RETURNDATASIZE PUSH1 0x0 DUP1 RETURNDATACOPY RETURNDATASIZE PUSH1 0x0 REVERT JUMPDEST POP POP POP POP PUSH32 0x817D426B50BB3C789777F2646E1F9C67C82533F69218769A08734CF7958A7AEA DUP10 DUP10 DUP4 PUSH1 0x40 MLOAD PUSH2 0xF5B SWAP4 SWAP3 SWAP2 SWAP1 PUSH2 0x2D88 JUMP JUMPDEST PUSH1 0x40 MLOAD DUP1 SWAP2 SUB SWAP1 LOG1 PUSH1 0x4 SLOAD PUSH1 0x8 DUP1 SLOAD SWAP1 POP EQ SWAP7 POP POP POP POP POP POP POP SWAP3 SWAP2 POP POP JUMP JUMPDEST PUSH1 0x7 PUSH1 0x20 MSTORE DUP1 PUSH1 0x0 MSTORE PUSH1 0x40 PUSH1 0x0 KECCAK256 PUSH1 0x0 SWAP2 POP SWAP1 POP DUP1 PUSH1 0x0 ADD PUSH1 0x0 SWAP1 SLOAD SWAP1 PUSH2 0x100 EXP SWAP1 DIV PUSH20 0xFFFFFFFFFFFFFFFFFFFFFFFFFFFFFFFFFFFFFFFF AND SWAP1 DUP1 PUSH1 0x1 ADD PUSH1 0x40 MLOAD DUP1 PUSH2 0x120 ADD PUSH1 0x40 MSTORE SWAP1 DUP2 PUSH1 0x0 DUP3 ADD SLOAD DUP2 MSTORE PUSH1 0x20 ADD PUSH1 0x1 DUP3 ADD SLOAD DUP2 MSTORE PUSH1 0x20 ADD PUSH1 0x2 DUP3 ADD SLOAD DUP2 MSTORE PUSH1 0x20 ADD PUSH1 0x3 DUP3 ADD PUSH1 0x0 SWAP1 SLOAD SWAP1 PUSH2 0x100 EXP SWAP1 DIV PUSH1 0xFF AND PUSH1 0x6 DUP2 GT ISZERO PUSH2 0x1008 JUMPI PUSH2 0x1007 PUSH2 0x25D5 JUMP JUMPDEST JUMPDEST PUSH1 0x6 DUP2 GT ISZERO PUSH2 0x101A JUMPI PUSH2 0x1019 PUSH2 0x25D5 JUMP JUMPDEST JUMPDEST DUP2 MSTORE PUSH1 0x20 ADD PUSH1 0x4 DUP3 ADD PUSH1 0x40 MLOAD DUP1 PUSH1 0x40 ADD PUSH1 0x40 MSTORE SWAP1 DUP2 PUSH1 0x0 DUP3 ADD SLOAD DUP2 MSTORE PUSH1 0x20 ADD PUSH1 0x1 DUP3 ADD SLOAD DUP2 MSTORE POP POP DUP2 MSTORE PUSH1 0x20 ADD PUSH1 0x6 DUP3 ADD SLOAD DUP2 MSTORE PUSH1 0x20 ADD PUSH1 0x7 DUP3 ADD SLOAD DUP2 MSTORE PUSH1 0x20 ADD PUSH1 0x8 DUP3 ADD SLOAD DUP2 MSTORE PUSH1 0x20 ADD PUSH1 0x9 DUP3 ADD PUSH1 0x0 SWAP1 SLOAD SWAP1 PUSH2 0x100 EXP SWAP1 DIV PUSH1 0xFF AND PUSH1 0x1 DUP2 GT ISZERO PUSH2 0x1089 JUMPI PUSH2 0x1088 PUSH2 0x25D5 JUMP JUMPDEST JUMPDEST PUSH1 0x1 DUP2 GT ISZERO PUSH2 0x109B JUMPI PUSH2 0x109A PUSH2 0x25D5 JUMP JUMPDEST JUMPDEST DUP2 MSTORE POP POP SWAP1 DUP1 PUSH1 0xB ADD PUSH1 0x40 MLOAD DUP1 PUSH1 0x40 ADD PUSH1 0x40 MSTORE SWAP1 DUP2 PUSH1 0x0 DUP3 ADD SLOAD DUP2 MSTORE PUSH1 0x20 ADD PUSH1 0x1 DUP3 ADD SLOAD DUP2 MSTORE POP POP SWAP1 DUP1 PUSH1 0xD ADD SLOAD SWAP1 DUP1 PUSH1 0xE ADD SLOAD SWAP1 DUP1 PUSH1 0xF ADD SLOAD SWAP1 DUP1 PUSH1 0x10 ADD PUSH1 0x0 SWAP1 SLOAD SWAP1 PUSH2 0x100 EXP SWAP1 DIV PUSH1 0xFF AND SWAP1 POP DUP8 JUMP JUMPDEST PUSH1 0x0 PUSH2 0x10F8 CALLER PUSH2 0x6E3 JUMP JUMPDEST PUSH2 0x1137 JUMPI PUSH1 0x40 MLOAD PUSH32 0x8C379A000000000000000000000000000000000000000000000000000000000 DUP2 MSTORE PUSH1 0x4 ADD PUSH2 0x112E SWAP1 PUSH2 0x2F92 JUMP JUMPDEST PUSH1 0x40 MLOAD DUP1 SWAP2 SUB SWAP1 REVERT JUMPDEST PUSH1 0x1 PUSH1 0x3 SLOAD PUSH2 0x1146 SWAP2 SWAP1 PUSH2 0x2E80 JUMP JUMPDEST PUSH1 0x6 DUP1 SLOAD SWAP1 POP LT PUSH2 0x118C JUMPI PUSH1 0x40 MLOAD PUSH32 0x8C379A000000000000000000000000000000000000000000000000000000000 DUP2 MSTORE PUSH1 0x4 ADD PUSH2 0x1183 SWAP1 PUSH2 0x3024 JUMP JUMPDEST PUSH1 0x40 MLOAD DUP1 SWAP2 SUB SWAP1 REVERT JUMPDEST PUSH1 0x0 DUP8 PUSH1 0x6 DUP2 GT ISZERO PUSH2 0x11A1 JUMPI PUSH2 0x11A0 PUSH2 0x25D5 JUMP JUMPDEST JUMPDEST SWAP1 POP PUSH1 0x0 PUSH1 0x40 MLOAD DUP1 PUSH1 0x40 ADD PUSH1 0x40 MSTORE DUP1 DUP10 DUP2 MSTORE PUSH1 0x20 ADD DUP9 DUP2 MSTORE POP SWAP1 POP PUSH1 0x0 PUSH1 0x40 MLOAD DUP1 PUSH2 0x120 ADD PUSH1 0x40 MSTORE DUP1 PUSH1 0x3 SLOAD DUP2 MSTORE PUSH1 0x20 ADD DUP14 DUP2 MSTORE PUSH1 0x20 ADD DUP13 DUP2 MSTORE PUSH1 0x20 ADD DUP5 PUSH1 0x6 DUP2 GT ISZERO PUSH2 0x11F1 JUMPI PUSH2 0x11F0 PUSH2 0x25D5 JUMP JUMPDEST JUMPDEST DUP2 MSTORE PUSH1 0x20 ADD DUP4 DUP2 MSTORE PUSH1 0x20 ADD DUP9 DUP2 MSTORE PUSH1 0x20 ADD DUP8 DUP2 MSTORE PUSH1 0x20 ADD DUP7 DUP2 MSTORE PUSH1 0x20 ADD PUSH1 0x0 PUSH1 0x1 DUP2 GT ISZERO PUSH2 0x1222 JUMPI PUSH2 0x1221 PUSH2 0x25D5 JUMP JUMPDEST JUMPDEST DUP2 MSTORE POP SWAP1 POP DUP1 PUSH1 0x5 PUSH1 0x0 PUSH1 0x3 SLOAD DUP2 MSTORE PUSH1 0x20 ADD SWAP1 DUP2 MSTORE PUSH1 0x20 ADD PUSH1 0x0 KECCAK256 PUSH1 0x0 DUP3 ADD MLOAD DUP2 PUSH1 0x0 ADD SSTORE PUSH1 0x20 DUP3 ADD MLOAD DUP2 PUSH1 0x1 ADD SSTORE PUSH1 0x40 DUP3 ADD MLOAD DUP2 PUSH1 0x2 ADD SSTORE PUSH1 0x60 DUP3 ADD MLOAD DUP2 PUSH1 0x3 ADD PUSH1 0x0 PUSH2 0x100 EXP DUP2 SLOAD DUP2 PUSH1 0xFF MUL NOT AND SWAP1 DUP4 PUSH1 0x6 DUP2 GT ISZERO PUSH2 0x1286 JUMPI PUSH2 0x1285 PUSH2 0x25D5 JUMP JUMPDEST JUMPDEST MUL OR SWAP1 SSTORE POP PUSH1 0x80 DUP3 ADD MLOAD DUP2 PUSH1 0x4 ADD PUSH1 0x0 DUP3 ADD MLOAD DUP2 PUSH1 0x0 ADD SSTORE PUSH1 0x20 DUP3 ADD MLOAD DUP2 PUSH1 0x1 ADD SSTORE POP POP PUSH1 0xA0 DUP3 ADD MLOAD DUP2 PUSH1 0x6 ADD SSTORE PUSH1 0xC0 DUP3 ADD MLOAD DUP2 PUSH1 0x7 ADD SSTORE PUSH1 0xE0 DUP3 ADD MLOAD DUP2 PUSH1 0x8 ADD SSTORE PUSH2 0x100 DUP3 ADD MLOAD DUP2 PUSH1 0x9 ADD PUSH1 0x0 PUSH2 0x100 EXP DUP2 SLOAD DUP2 PUSH1 0xFF MUL NOT AND SWAP1 DUP4 PUSH1 0x1 DUP2 GT ISZERO PUSH2 0x12F4 JUMPI PUSH2 0x12F3 PUSH2 0x25D5 JUMP JUMPDEST JUMPDEST MUL OR SWAP1 SSTORE POP SWAP1 POP POP PUSH1 0x6 DUP2 SWAP1 DUP1 PUSH1 0x1 DUP2 SLOAD ADD DUP1 DUP3 SSTORE DUP1 SWAP2 POP POP PUSH1 0x1 SWAP1 SUB SWAP1 PUSH1 0x0 MSTORE PUSH1 0x20 PUSH1 0x0 KECCAK256 SWAP1 PUSH1 0xA MUL ADD PUSH1 0x0 SWAP1 SWAP2 SWAP1 SWAP2 SWAP1 SWAP2 POP PUSH1 0x0 DUP3 ADD MLOAD DUP2 PUSH1 0x0 ADD SSTORE PUSH1 0x20 DUP3 ADD MLOAD DUP2 PUSH1 0x1 ADD SSTORE PUSH1 0x40 DUP3 ADD MLOAD DUP2 PUSH1 0x2 ADD SSTORE PUSH1 0x60 DUP3 ADD MLOAD DUP2 PUSH1 0x3 ADD PUSH1 0x0 PUSH2 0x100 EXP DUP2 SLOAD DUP2 PUSH1 0xFF MUL NOT AND SWAP1 DUP4 PUSH1 0x6 DUP2 GT ISZERO PUSH2 0x1371 JUMPI PUSH2 0x1370 PUSH2 0x25D5 JUMP JUMPDEST JUMPDEST MUL OR SWAP1 SSTORE POP PUSH1 0x80 DUP3 ADD MLOAD DUP2 PUSH1 0x4 ADD PUSH1 0x0 DUP3 ADD MLOAD DUP2 PUSH1 0x0 ADD SSTORE PUSH1 0x20 DUP3 ADD MLOAD DUP2 PUSH1 0x1 ADD SSTORE POP POP PUSH1 0xA0 DUP3 ADD MLOAD DUP2 PUSH1 0x6 ADD SSTORE PUSH1 0xC0 DUP3 ADD MLOAD DUP2 PUSH1 0x7 ADD SSTORE PUSH1 0xE0 DUP3 ADD MLOAD DUP2 PUSH1 0x8 ADD SSTORE PUSH2 0x100 DUP3 ADD MLOAD DUP2 PUSH1 0x9 ADD PUSH1 0x0 PUSH2 0x100 EXP DUP2 SLOAD DUP2 PUSH1 0xFF MUL NOT AND SWAP1 DUP4 PUSH1 0x1 DUP2 GT ISZERO PUSH2 0x13DF JUMPI PUSH2 0x13DE PUSH2 0x25D5 JUMP JUMPDEST JUMPDEST MUL OR SWAP1 SSTORE POP POP POP PUSH32 0xA380668D7C9D014E9C355EA8AECDC0884E0D3CC63699FAD47BEEA363DFE69579 PUSH1 0x3 SLOAD DUP14 DUP14 DUP14 DUP14 DUP14 DUP14 DUP14 DUP14 PUSH1 0x40 MLOAD PUSH2 0x1427 SWAP10 SWAP9 SWAP8 SWAP7 SWAP6 SWAP5 SWAP4 SWAP3 SWAP2 SWAP1 PUSH2 0x3044 JUMP JUMPDEST PUSH1 0x40 MLOAD DUP1 SWAP2 SUB SWAP1 LOG1 PUSH1 0x3 PUSH1 0x0 DUP2 SLOAD DUP1 SWAP3 SWAP2 SWAP1 PUSH2 0x1442 SWAP1 PUSH2 0x30D1 JUMP JUMPDEST SWAP2 SWAP1 POP SSTORE POP PUSH1 0x3 SLOAD PUSH1 0x6 DUP1 SLOAD SWAP1 POP EQ SWAP4 POP POP POP POP SWAP9 SWAP8 POP POP POP POP POP POP POP POP JUMP JUMPDEST PUSH1 0x4 SLOAD DUP2 JUMP JUMPDEST PUSH1 0x0 PUSH2 0x1473 CALLER PUSH2 0x1846 JUMP JUMPDEST PUSH2 0x14B2 JUMPI PUSH1 0x40 MLOAD PUSH32 0x8C379A000000000000000000000000000000000000000000000000000000000 DUP2 MSTORE PUSH1 0x4 ADD PUSH2 0x14A9 SWAP1 PUSH2 0x2C44 JUMP JUMPDEST PUSH1 0x40 MLOAD DUP1 SWAP2 SUB SWAP1 REVERT JUMPDEST DUP2 PUSH1 0x0 PUSH1 0x5 PUSH1 0x0 DUP4 DUP2 MSTORE PUSH1 0x20 ADD SWAP1 DUP2 MSTORE PUSH1 0x20 ADD PUSH1 0x0 KECCAK256 PUSH1 0x0 ADD SLOAD GT PUSH2 0x150C JUMPI PUSH1 0x40 MLOAD PUSH32 0x8C379A000000000000000000000000000000000000000000000000000000000 DUP2 MSTORE PUSH1 0x4 ADD PUSH2 0x1503 SWAP1 PUSH2 0x2E31 JUMP JUMPDEST PUSH1 0x40 MLOAD DUP1 SWAP2 SUB SWAP1 REVERT JUMPDEST DUP4 PUSH1 0x0 PUSH20 0xFFFFFFFFFFFFFFFFFFFFFFFFFFFFFFFFFFFFFFFF AND PUSH1 0x7 PUSH1 0x0 DUP4 DUP2 MSTORE PUSH1 0x20 ADD SWAP1 DUP2 MSTORE PUSH1 0x20 ADD PUSH1 0x0 KECCAK256 PUSH1 0x0 ADD PUSH1 0x0 SWAP1 SLOAD SWAP1 PUSH2 0x100 EXP SWAP1 DIV PUSH20 0xFFFFFFFFFFFFFFFFFFFFFFFFFFFFFFFFFFFFFFFF AND PUSH20 0xFFFFFFFFFFFFFFFFFFFFFFFFFFFFFFFFFFFFFFFF AND SUB PUSH2 0x15B2 JUMPI PUSH1 0x40 MLOAD PUSH32 0x8C379A000000000000000000000000000000000000000000000000000000000 DUP2 MSTORE PUSH1 0x4 ADD PUSH2 0x15A9 SWAP1 PUSH2 0x2D68 JUMP JUMPDEST PUSH1 0x40 MLOAD DUP1 SWAP2 SUB SWAP1 REVERT JUMPDEST DUP5 PUSH1 0x0 PUSH1 0x7 PUSH1 0x0 DUP4 DUP2 MSTORE PUSH1 0x20 ADD SWAP1 DUP2 MSTORE PUSH1 0x20 ADD PUSH1 0x0 KECCAK256 PUSH1 0xE ADD SLOAD SWAP1 POP DUP1 SELFBALANCE LT ISZERO PUSH2 0x1611 JUMPI PUSH1 0x40 MLOAD PUSH32 0x8C379A000000000000000000000000000000000000000000000000000000000 DUP2 MSTORE PUSH1 0x4 ADD PUSH2 0x1608 SWAP1 PUSH2 0x2F26 JUMP JUMPDEST PUSH1 0x40 MLOAD DUP1 SWAP2 SUB SWAP1 REVERT JUMPDEST PUSH1 0x2 PUSH1 0x7 PUSH1 0x0 DUP10 DUP2 MSTORE PUSH1 0x20 ADD SWAP1 DUP2 MSTORE PUSH1 0x20 ADD PUSH1 0x0 KECCAK256 PUSH1 0x10 ADD PUSH1 0x0 PUSH2 0x100 EXP DUP2 SLOAD DUP2 PUSH1 0xFF MUL NOT AND SWAP1 DUP4 PUSH1 0x2 DUP2 GT ISZERO PUSH2 0x164B JUMPI PUSH2 0x164A PUSH2 0x25D5 JUMP JUMPDEST JUMPDEST MUL OR SWAP1 SSTORE POP PUSH32 0x86954ECC0AE072157FCF7F87A425A1461295A4CC9CC3122D2EFC73BF32D98E1A DUP8 PUSH1 0x40 MLOAD PUSH2 0x167F SWAP2 SWAP1 PUSH2 0x2A82 JUMP JUMPDEST PUSH1 0x40 MLOAD DUP1 SWAP2 SUB SWAP1 LOG1 PUSH1 0x0 PUSH1 0x5 PUSH1 0x0 DUP9 DUP2 MSTORE PUSH1 0x20 ADD SWAP1 DUP2 MSTORE PUSH1 0x20 ADD PUSH1 0x0 KECCAK256 PUSH1 0x9 ADD PUSH1 0x0 PUSH2 0x100 EXP DUP2 SLOAD DUP2 PUSH1 0xFF MUL NOT AND SWAP1 DUP4 PUSH1 0x1 DUP2 GT ISZERO PUSH2 0x16C1 JUMPI PUSH2 0x16C0 PUSH2 0x25D5 JUMP JUMPDEST JUMPDEST MUL OR SWAP1 SSTORE POP PUSH1 0x0 PUSH1 0x7 PUSH1 0x0 DUP10 DUP2 MSTORE PUSH1 0x20 ADD SWAP1 DUP2 MSTORE PUSH1 0x20 ADD PUSH1 0x0 KECCAK256 PUSH1 0xE ADD SLOAD SWAP1 POP PUSH1 0x0 CALLER SWAP1 POP PUSH1 0x0 DUP2 PUSH20 0xFFFFFFFFFFFFFFFFFFFFFFFFFFFFFFFFFFFFFFFF AND DUP4 PUSH1 0x40 MLOAD PUSH2 0x170C SWAP1 PUSH2 0x314A JUMP JUMPDEST PUSH1 0x0 PUSH1 0x40 MLOAD DUP1 DUP4 SUB DUP2 DUP6 DUP8 GAS CALL SWAP3 POP POP POP RETURNDATASIZE DUP1 PUSH1 0x0 DUP2 EQ PUSH2 0x1749 JUMPI PUSH1 0x40 MLOAD SWAP2 POP PUSH1 0x1F NOT PUSH1 0x3F RETURNDATASIZE ADD AND DUP3 ADD PUSH1 0x40 MSTORE RETURNDATASIZE DUP3 MSTORE RETURNDATASIZE PUSH1 0x0 PUSH1 0x20 DUP5 ADD RETURNDATACOPY PUSH2 0x174E JUMP JUMPDEST PUSH1 0x60 SWAP2 POP JUMPDEST POP POP SWAP1 POP DUP1 PUSH2 0x1792 JUMPI PUSH1 0x40 MLOAD PUSH32 0x8C379A000000000000000000000000000000000000000000000000000000000 DUP2 MSTORE PUSH1 0x4 ADD PUSH2 0x1789 SWAP1 PUSH2 0x31AB JUMP JUMPDEST PUSH1 0x40 MLOAD DUP1 SWAP2 SUB SWAP1 REVERT JUMPDEST PUSH32 0x55D8EA4E97B2718543A86D587D879E63FD70C898255156D5682619AA36E1440E DUP11 DUP5 PUSH1 0x40 MLOAD PUSH2 0x17C3 SWAP3 SWAP2 SWAP1 PUSH2 0x31CB JUMP JUMPDEST PUSH1 0x40 MLOAD DUP1 SWAP2 SUB SWAP1 LOG1 PUSH1 0x4 SLOAD PUSH1 0x8 DUP1 SLOAD SWAP1 POP EQ SWAP8 POP POP POP POP POP POP POP POP SWAP3 SWAP2 POP POP JUMP JUMPDEST PUSH1 0x0 PUSH2 0x180A DUP3 PUSH1 0x0 DUP1 DUP7 DUP2 MSTORE PUSH1 0x20 ADD SWAP1 DUP2 MSTORE PUSH1 0x20 ADD PUSH1 0x0 KECCAK256 PUSH2 0x2178 SWAP1 SWAP2 SWAP1 PUSH4 0xFFFFFFFF AND JUMP JUMPDEST SWAP1 POP SWAP3 SWAP2 POP POP JUMP JUMPDEST PUSH1 0x0 PUSH2 0x1838 DUP3 PUSH1 0x0 DUP1 DUP7 DUP2 MSTORE PUSH1 0x20 ADD SWAP1 DUP2 MSTORE PUSH1 0x20 ADD PUSH1 0x0 KECCAK256 PUSH2 0x2192 SWAP1 SWAP2 SWAP1 PUSH4 0xFFFFFFFF AND JUMP JUMPDEST SWAP1 POP SWAP3 SWAP2 POP POP JUMP JUMPDEST PUSH1 0x3 SLOAD DUP2 JUMP JUMPDEST PUSH1 0x0 PUSH2 0x1872 PUSH32 0x52454E5445520000000000000000000000000000000000000000000000000000 DUP4 PUSH2 0x1812 JUMP JUMPDEST SWAP1 POP SWAP2 SWAP1 POP JUMP JUMPDEST PUSH2 0x18A3 PUSH32 0x52454E5445520000000000000000000000000000000000000000000000000000 CALLER PUSH2 0x2058 JUMP JUMPDEST JUMP JUMPDEST PUSH1 0x0 PUSH2 0x18B0 CALLER PUSH2 0x1846 JUMP JUMPDEST PUSH2 0x18EF JUMPI PUSH1 0x40 MLOAD PUSH32 0x8C379A000000000000000000000000000000000000000000000000000000000 DUP2 MSTORE PUSH1 0x4 ADD PUSH2 0x18E6 SWAP1 PUSH2 0x2C44 JUMP JUMPDEST PUSH1 0x40 MLOAD DUP1 SWAP2 SUB SWAP1 REVERT JUMPDEST DUP5 PUSH1 0x0 PUSH1 0x5 PUSH1 0x0 DUP4 DUP2 MSTORE PUSH1 0x20 ADD SWAP1 DUP2 MSTORE PUSH1 0x20 ADD PUSH1 0x0 KECCAK256 PUSH1 0x0 ADD SLOAD GT PUSH2 0x1949 JUMPI PUSH1 0x40 MLOAD PUSH32 0x8C379A000000000000000000000000000000000000000000000000000000000 DUP2 MSTORE PUSH1 0x4 ADD PUSH2 0x1940 SWAP1 PUSH2 0x2E31 JUMP JUMPDEST PUSH1 0x40 MLOAD DUP1 SWAP2 SUB SWAP1 REVERT JUMPDEST PUSH1 0x1 PUSH1 0x4 SLOAD PUSH2 0x1958 SWAP2 SWAP1 PUSH2 0x2E80 JUMP JUMPDEST PUSH1 0x8 DUP1 SLOAD SWAP1 POP LT PUSH2 0x199E JUMPI PUSH1 0x40 MLOAD PUSH32 0x8C379A000000000000000000000000000000000000000000000000000000000 DUP2 MSTORE PUSH1 0x4 ADD PUSH2 0x1995 SWAP1 PUSH2 0x3266 JUMP JUMPDEST PUSH1 0x40 MLOAD DUP1 SWAP2 SUB SWAP1 REVERT JUMPDEST PUSH1 0x0 PUSH1 0x40 MLOAD DUP1 PUSH1 0x40 ADD PUSH1 0x40 MSTORE DUP1 DUP8 DUP2 MSTORE PUSH1 0x20 ADD DUP7 DUP2 MSTORE POP SWAP1 POP PUSH1 0x0 DUP5 PUSH1 0x5 PUSH1 0x0 DUP11 DUP2 MSTORE PUSH1 0x20 ADD SWAP1 DUP2 MSTORE PUSH1 0x20 ADD PUSH1 0x0 KECCAK256 PUSH1 0x8 ADD SLOAD PUSH2 0x19DB SWAP2 SWAP1 PUSH2 0x3286 JUMP JUMPDEST SWAP1 POP PUSH1 0x0 PUSH1 0x40 MLOAD DUP1 PUSH1 0xE0 ADD PUSH1 0x40 MSTORE DUP1 CALLER PUSH20 0xFFFFFFFFFFFFFFFFFFFFFFFFFFFFFFFFFFFFFFFF AND DUP2 MSTORE PUSH1 0x20 ADD PUSH1 0x5 PUSH1 0x0 DUP13 DUP2 MSTORE PUSH1 0x20 ADD SWAP1 DUP2 MSTORE PUSH1 0x20 ADD PUSH1 0x0 KECCAK256 PUSH1 0x40 MLOAD DUP1 PUSH2 0x120 ADD PUSH1 0x40 MSTORE SWAP1 DUP2 PUSH1 0x0 DUP3 ADD SLOAD DUP2 MSTORE PUSH1 0x20 ADD PUSH1 0x1 DUP3 ADD SLOAD DUP2 MSTORE PUSH1 0x20 ADD PUSH1 0x2 DUP3 ADD SLOAD DUP2 MSTORE PUSH1 0x20 ADD PUSH1 0x3 DUP3 ADD PUSH1 0x0 SWAP1 SLOAD SWAP1 PUSH2 0x100 EXP SWAP1 DIV PUSH1 0xFF AND PUSH1 0x6 DUP2 GT ISZERO PUSH2 0x1A68 JUMPI PUSH2 0x1A67 PUSH2 0x25D5 JUMP JUMPDEST JUMPDEST PUSH1 0x6 DUP2 GT ISZERO PUSH2 0x1A7A JUMPI PUSH2 0x1A79 PUSH2 0x25D5 JUMP JUMPDEST JUMPDEST DUP2 MSTORE PUSH1 0x20 ADD PUSH1 0x4 DUP3 ADD PUSH1 0x40 MLOAD DUP1 PUSH1 0x40 ADD PUSH1 0x40 MSTORE SWAP1 DUP2 PUSH1 0x0 DUP3 ADD SLOAD DUP2 MSTORE PUSH1 0x20 ADD PUSH1 0x1 DUP3 ADD SLOAD DUP2 MSTORE POP POP DUP2 MSTORE PUSH1 0x20 ADD PUSH1 0x6 DUP3 ADD SLOAD DUP2 MSTORE PUSH1 0x20 ADD PUSH1 0x7 DUP3 ADD SLOAD DUP2 MSTORE PUSH1 0x20 ADD PUSH1 0x8 DUP3 ADD SLOAD DUP2 MSTORE PUSH1 0x20 ADD PUSH1 0x9 DUP3 ADD PUSH1 0x0 SWAP1 SLOAD SWAP1 PUSH2 0x100 EXP SWAP1 DIV PUSH1 0xFF AND PUSH1 0x1 DUP2 GT ISZERO PUSH2 0x1AE9 JUMPI PUSH2 0x1AE8 PUSH2 0x25D5 JUMP JUMPDEST JUMPDEST PUSH1 0x1 DUP2 GT ISZERO PUSH2 0x1AFB JUMPI PUSH2 0x1AFA PUSH2 0x25D5 JUMP JUMPDEST JUMPDEST DUP2 MSTORE POP POP DUP2 MSTORE PUSH1 0x20 ADD DUP5 DUP2 MSTORE PUSH1 0x20 ADD DUP4 DUP2 MSTORE PUSH1 0x20 ADD PUSH1 0x0 DUP2 MSTORE PUSH1 0x20 ADD TIMESTAMP DUP2 MSTORE PUSH1 0x20 ADD PUSH1 0x0 PUSH1 0x2 DUP2 GT ISZERO PUSH2 0x1B31 JUMPI PUSH2 0x1B30 PUSH2 0x25D5 JUMP JUMPDEST JUMPDEST DUP2 MSTORE POP SWAP1 POP DUP1 PUSH1 0x7 PUSH1 0x0 PUSH1 0x4 SLOAD DUP2 MSTORE PUSH1 0x20 ADD SWAP1 DUP2 MSTORE PUSH1 0x20 ADD PUSH1 0x0 KECCAK256 PUSH1 0x0 DUP3 ADD MLOAD DUP2 PUSH1 0x0 ADD PUSH1 0x0 PUSH2 0x100 EXP DUP2 SLOAD DUP2 PUSH20 0xFFFFFFFFFFFFFFFFFFFFFFFFFFFFFFFFFFFFFFFF MUL NOT AND SWAP1 DUP4 PUSH20 0xFFFFFFFFFFFFFFFFFFFFFFFFFFFFFFFFFFFFFFFF AND MUL OR SWAP1 SSTORE POP PUSH1 0x20 DUP3 ADD MLOAD DUP2 PUSH1 0x1 ADD PUSH1 0x0 DUP3 ADD MLOAD DUP2 PUSH1 0x0 ADD SSTORE PUSH1 0x20 DUP3 ADD MLOAD DUP2 PUSH1 0x1 ADD SSTORE PUSH1 0x40 DUP3 ADD MLOAD DUP2 PUSH1 0x2 ADD SSTORE PUSH1 0x60 DUP3 ADD MLOAD DUP2 PUSH1 0x3 ADD PUSH1 0x0 PUSH2 0x100 EXP DUP2 SLOAD DUP2 PUSH1 0xFF MUL NOT AND SWAP1 DUP4 PUSH1 0x6 DUP2 GT ISZERO PUSH2 0x1BE5 JUMPI PUSH2 0x1BE4 PUSH2 0x25D5 JUMP JUMPDEST JUMPDEST MUL OR SWAP1 SSTORE POP PUSH1 0x80 DUP3 ADD MLOAD DUP2 PUSH1 0x4 ADD PUSH1 0x0 DUP3 ADD MLOAD DUP2 PUSH1 0x0 ADD SSTORE PUSH1 0x20 DUP3 ADD MLOAD DUP2 PUSH1 0x1 ADD SSTORE POP POP PUSH1 0xA0 DUP3 ADD MLOAD DUP2 PUSH1 0x6 ADD SSTORE PUSH1 0xC0 DUP3 ADD MLOAD DUP2 PUSH1 0x7 ADD SSTORE PUSH1 0xE0 DUP3 ADD MLOAD DUP2 PUSH1 0x8 ADD SSTORE PUSH2 0x100 DUP3 ADD MLOAD DUP2 PUSH1 0x9 ADD PUSH1 0x0 PUSH2 0x100 EXP DUP2 SLOAD DUP2 PUSH1 0xFF MUL NOT AND SWAP1 DUP4 PUSH1 0x1 DUP2 GT ISZERO PUSH2 0x1C53 JUMPI PUSH2 0x1C52 PUSH2 0x25D5 JUMP JUMPDEST JUMPDEST MUL OR SWAP1 SSTORE POP POP POP PUSH1 0x40 DUP3 ADD MLOAD DUP2 PUSH1 0xB ADD PUSH1 0x0 DUP3 ADD MLOAD DUP2 PUSH1 0x0 ADD SSTORE PUSH1 0x20 DUP3 ADD MLOAD DUP2 PUSH1 0x1 ADD SSTORE POP POP PUSH1 0x60 DUP3 ADD MLOAD DUP2 PUSH1 0xD ADD SSTORE PUSH1 0x80 DUP3 ADD MLOAD DUP2 PUSH1 0xE ADD SSTORE PUSH1 0xA0 DUP3 ADD MLOAD DUP2 PUSH1 0xF ADD SSTORE PUSH1 0xC0 DUP3 ADD MLOAD DUP2 PUSH1 0x10 ADD PUSH1 0x0 PUSH2 0x100 EXP DUP2 SLOAD DUP2 PUSH1 0xFF MUL NOT AND SWAP1 DUP4 PUSH1 0x2 DUP2 GT ISZERO PUSH2 0x1CC2 JUMPI PUSH2 0x1CC1 PUSH2 0x25D5 JUMP JUMPDEST JUMPDEST MUL OR SWAP1 SSTORE POP SWAP1 POP POP PUSH1 0x8 DUP2 SWAP1 DUP1 PUSH1 0x1 DUP2 SLOAD ADD DUP1 DUP3 SSTORE DUP1 SWAP2 POP POP PUSH1 0x1 SWAP1 SUB SWAP1 PUSH1 0x0 MSTORE PUSH1 0x20 PUSH1 0x0 KECCAK256 SWAP1 PUSH1 0x11 MUL ADD PUSH1 0x0 SWAP1 SWAP2 SWAP1 SWAP2 SWAP1 SWAP2 POP PUSH1 0x0 DUP3 ADD MLOAD DUP2 PUSH1 0x0 ADD PUSH1 0x0 PUSH2 0x100 EXP DUP2 SLOAD DUP2 PUSH20 0xFFFFFFFFFFFFFFFFFFFFFFFFFFFFFFFFFFFFFFFF MUL NOT AND SWAP1 DUP4 PUSH20 0xFFFFFFFFFFFFFFFFFFFFFFFFFFFFFFFFFFFFFFFF AND MUL OR SWAP1 SSTORE POP PUSH1 0x20 DUP3 ADD MLOAD DUP2 PUSH1 0x1 ADD PUSH1 0x0 DUP3 ADD MLOAD DUP2 PUSH1 0x0 ADD SSTORE PUSH1 0x20 DUP3 ADD MLOAD DUP2 PUSH1 0x1 ADD SSTORE PUSH1 0x40 DUP3 ADD MLOAD DUP2 PUSH1 0x2 ADD SSTORE PUSH1 0x60 DUP3 ADD MLOAD DUP2 PUSH1 0x3 ADD PUSH1 0x0 PUSH2 0x100 EXP DUP2 SLOAD DUP2 PUSH1 0xFF MUL NOT AND SWAP1 DUP4 PUSH1 0x6 DUP2 GT ISZERO PUSH2 0x1D8F JUMPI PUSH2 0x1D8E PUSH2 0x25D5 JUMP JUMPDEST JUMPDEST MUL OR SWAP1 SSTORE POP PUSH1 0x80 DUP3 ADD MLOAD DUP2 PUSH1 0x4 ADD PUSH1 0x0 DUP3 ADD MLOAD DUP2 PUSH1 0x0 ADD SSTORE PUSH1 0x20 DUP3 ADD MLOAD DUP2 PUSH1 0x1 ADD SSTORE POP POP PUSH1 0xA0 DUP3 ADD MLOAD DUP2 PUSH1 0x6 ADD SSTORE PUSH1 0xC0 DUP3 ADD MLOAD DUP2 PUSH1 0x7 ADD SSTORE PUSH1 0xE0 DUP3 ADD MLOAD DUP2 PUSH1 0x8 ADD SSTORE PUSH2 0x100 DUP3 ADD MLOAD DUP2 PUSH1 0x9 ADD PUSH1 0x0 PUSH2 0x100 EXP DUP2 SLOAD DUP2 PUSH1 0xFF MUL NOT AND SWAP1 DUP4 PUSH1 0x1 DUP2 GT ISZERO PUSH2 0x1DFD JUMPI PUSH2 0x1DFC PUSH2 0x25D5 JUMP JUMPDEST JUMPDEST MUL OR SWAP1 SSTORE POP POP POP PUSH1 0x40 DUP3 ADD MLOAD DUP2 PUSH1 0xB ADD PUSH1 0x0 DUP3 ADD MLOAD DUP2 PUSH1 0x0 ADD SSTORE PUSH1 0x20 DUP3 ADD MLOAD DUP2 PUSH1 0x1 ADD SSTORE POP POP PUSH1 0x60 DUP3 ADD MLOAD DUP2 PUSH1 0xD ADD SSTORE PUSH1 0x80 DUP3 ADD MLOAD DUP2 PUSH1 0xE ADD SSTORE PUSH1 0xA0 DUP3 ADD MLOAD DUP2 PUSH1 0xF ADD SSTORE PUSH1 0xC0 DUP3 ADD MLOAD DUP2 PUSH1 0x10 ADD PUSH1 0x0 PUSH2 0x100 EXP DUP2 SLOAD DUP2 PUSH1 0xFF MUL NOT AND SWAP1 DUP4 PUSH1 0x2 DUP2 GT ISZERO PUSH2 0x1E6C JUMPI PUSH2 0x1E6B PUSH2 0x25D5 JUMP JUMPDEST JUMPDEST MUL OR SWAP1 SSTORE POP POP POP PUSH32 0xDCA1C5EF6380DBDC3098CE5627BE896CE3CAD54F75A359647F56D223EC04603C CALLER DUP11 DUP11 DUP11 DUP11 DUP8 PUSH1 0x0 TIMESTAMP PUSH1 0x40 MLOAD PUSH2 0x1EB1 SWAP9 SWAP8 SWAP7 SWAP6 SWAP5 SWAP4 SWAP3 SWAP2 SWAP1 PUSH2 0x3325 JUMP JUMPDEST PUSH1 0x40 MLOAD DUP1 SWAP2 SUB SWAP1 LOG1 PUSH1 0x4 PUSH1 0x0 DUP2 SLOAD DUP1 SWAP3 SWAP2 SWAP1 PUSH2 0x1ECC SWAP1 PUSH2 0x30D1 JUMP JUMPDEST SWAP2 SWAP1 POP SSTORE POP PUSH1 0x4 SLOAD PUSH1 0x8 DUP1 SLOAD SWAP1 POP EQ SWAP5 POP POP POP POP POP SWAP5 SWAP4 POP POP POP POP JUMP JUMPDEST PUSH1 0x6 DUP2 DUP2 SLOAD DUP2 LT PUSH2 0x1EF9 JUMPI PUSH1 0x0 DUP1 REVERT JUMPDEST SWAP1 PUSH1 0x0 MSTORE PUSH1 0x20 PUSH1 0x0 KECCAK256 SWAP1 PUSH1 0xA MUL ADD PUSH1 0x0 SWAP2 POP SWAP1 POP DUP1 PUSH1 0x0 ADD SLOAD SWAP1 DUP1 PUSH1 0x1 ADD SLOAD SWAP1 DUP1 PUSH1 0x2 ADD SLOAD SWAP1 DUP1 PUSH1 0x3 ADD PUSH1 0x0 SWAP1 SLOAD SWAP1 PUSH2 0x100 EXP SWAP1 DIV PUSH1 0xFF AND SWAP1 DUP1 PUSH1 0x4 ADD PUSH1 0x40 MLOAD DUP1 PUSH1 0x40 ADD PUSH1 0x40 MSTORE SWAP1 DUP2 PUSH1 0x0 DUP3 ADD SLOAD DUP2 MSTORE PUSH1 0x20 ADD PUSH1 0x1 DUP3 ADD SLOAD DUP2 MSTORE POP POP SWAP1 DUP1 PUSH1 0x6 ADD SLOAD SWAP1 DUP1 PUSH1 0x7 ADD SLOAD SWAP1 DUP1 PUSH1 0x8 ADD SLOAD SWAP1 DUP1 PUSH1 0x9 ADD PUSH1 0x0 SWAP1 SLOAD SWAP1 PUSH2 0x100 EXP SWAP1 DIV PUSH1 0xFF AND SWAP1 POP DUP10 JUMP JUMPDEST PUSH32 0x52454E5445520000000000000000000000000000000000000000000000000000 DUP2 JUMP JUMPDEST PUSH1 0x0 PUSH2 0x1FBF PUSH1 0x0 DUP1 DUP5 DUP2 MSTORE PUSH1 0x20 ADD SWAP1 DUP2 MSTORE PUSH1 0x20 ADD PUSH1 0x0 KECCAK256 PUSH2 0x21C2 JUMP JUMPDEST SWAP1 POP SWAP2 SWAP1 POP JUMP JUMPDEST DUP1 PUSH1 0x1 PUSH1 0x0 PUSH2 0x100 EXP DUP2 SLOAD DUP2 PUSH20 0xFFFFFFFFFFFFFFFFFFFFFFFFFFFFFFFFFFFFFFFF MUL NOT AND SWAP1 DUP4 PUSH20 0xFFFFFFFFFFFFFFFFFFFFFFFFFFFFFFFFFFFFFFFF AND MUL OR SWAP1 SSTORE POP PUSH2 0x2031 PUSH32 0x52454E5445520000000000000000000000000000000000000000000000000000 DUP3 PUSH2 0x20E8 JUMP JUMPDEST POP JUMP JUMPDEST PUSH32 0x4F574E4552000000000000000000000000000000000000000000000000000000 DUP2 JUMP JUMPDEST PUSH2 0x207C DUP2 PUSH1 0x0 DUP1 DUP6 DUP2 MSTORE PUSH1 0x20 ADD SWAP1 DUP2 MSTORE PUSH1 0x20 ADD PUSH1 0x0 KECCAK256 PUSH2 0x21D7 SWAP1 SWAP2 SWAP1 PUSH4 0xFFFFFFFF AND JUMP JUMPDEST ISZERO PUSH2 0x20E4 JUMPI PUSH2 0x2089 PUSH2 0x2207 JUMP JUMPDEST PUSH20 0xFFFFFFFFFFFFFFFFFFFFFFFFFFFFFFFFFFFFFFFF AND DUP2 PUSH20 0xFFFFFFFFFFFFFFFFFFFFFFFFFFFFFFFFFFFFFFFF AND DUP4 PUSH32 0xF6391F5C32D9C69D2A47EA670B442974B53935D1EDC7FD64EB21E047A839171B PUSH1 0x40 MLOAD PUSH1 0x40 MLOAD DUP1 SWAP2 SUB SWAP1 LOG4 JUMPDEST POP POP JUMP JUMPDEST PUSH2 0x210C DUP2 PUSH1 0x0 DUP1 DUP6 DUP2 MSTORE PUSH1 0x20 ADD SWAP1 DUP2 MSTORE PUSH1 0x20 ADD PUSH1 0x0 KECCAK256 PUSH2 0x220F SWAP1 SWAP2 SWAP1 PUSH4 0xFFFFFFFF AND JUMP JUMPDEST ISZERO PUSH2 0x2174 JUMPI PUSH2 0x2119 PUSH2 0x2207 JUMP JUMPDEST PUSH20 0xFFFFFFFFFFFFFFFFFFFFFFFFFFFFFFFFFFFFFFFF AND DUP2 PUSH20 0xFFFFFFFFFFFFFFFFFFFFFFFFFFFFFFFFFFFFFFFF AND DUP4 PUSH32 0x2F8788117E7EFF1D82E926EC794901D17C78024A50270940304540A733656F0D PUSH1 0x40 MLOAD PUSH1 0x40 MLOAD DUP1 SWAP2 SUB SWAP1 LOG4 JUMPDEST POP POP JUMP JUMPDEST PUSH1 0x0 PUSH2 0x2187 DUP4 PUSH1 0x0 ADD DUP4 PUSH2 0x223F JUMP JUMPDEST PUSH1 0x0 SHR SWAP1 POP SWAP3 SWAP2 POP POP JUMP JUMPDEST PUSH1 0x0 PUSH2 0x21BA DUP4 PUSH1 0x0 ADD DUP4 PUSH20 0xFFFFFFFFFFFFFFFFFFFFFFFFFFFFFFFFFFFFFFFF AND PUSH1 0x0 SHL PUSH2 0x226A JUMP JUMPDEST SWAP1 POP SWAP3 SWAP2 POP POP JUMP JUMPDEST PUSH1 0x0 PUSH2 0x21D0 DUP3 PUSH1 0x0 ADD PUSH2 0x228D JUMP JUMPDEST SWAP1 POP SWAP2 SWAP1 POP JUMP JUMPDEST PUSH1 0x0 PUSH2 0x21FF DUP4 PUSH1 0x0 ADD DUP4 PUSH20 0xFFFFFFFFFFFFFFFFFFFFFFFFFFFFFFFFFFFFFFFF AND PUSH1 0x0 SHL PUSH2 0x229E JUMP JUMPDEST SWAP1 POP SWAP3 SWAP2 POP POP JUMP JUMPDEST PUSH1 0x0 CALLER SWAP1 POP SWAP1 JUMP JUMPDEST PUSH1 0x0 PUSH2 0x2237 DUP4 PUSH1 0x0 ADD DUP4 PUSH20 0xFFFFFFFFFFFFFFFFFFFFFFFFFFFFFFFFFFFFFFFF AND PUSH1 0x0 SHL PUSH2 0x23B2 JUMP JUMPDEST SWAP1 POP SWAP3 SWAP2 POP POP JUMP JUMPDEST PUSH1 0x0 DUP3 PUSH1 0x0 ADD DUP3 DUP2 SLOAD DUP2 LT PUSH2 0x2257 JUMPI PUSH2 0x2256 PUSH2 0x33A3 JUMP JUMPDEST JUMPDEST SWAP1 PUSH1 0x0 MSTORE PUSH1 0x20 PUSH1 0x0 KECCAK256 ADD SLOAD SWAP1 POP SWAP3 SWAP2 POP POP JUMP JUMPDEST PUSH1 0x0 DUP1 DUP4 PUSH1 0x1 ADD PUSH1 0x0 DUP5 DUP2 MSTORE PUSH1 0x20 ADD SWAP1 DUP2 MSTORE PUSH1 0x20 ADD PUSH1 0x0 KECCAK256 SLOAD EQ ISZERO SWAP1 POP SWAP3 SWAP2 POP POP JUMP JUMPDEST PUSH1 0x0 DUP2 PUSH1 0x0 ADD DUP1 SLOAD SWAP1 POP SWAP1 POP SWAP2 SWAP1 POP JUMP JUMPDEST PUSH1 0x0 DUP1 DUP4 PUSH1 0x1 ADD PUSH1 0x0 DUP5 DUP2 MSTORE PUSH1 0x20 ADD SWAP1 DUP2 MSTORE PUSH1 0x20 ADD PUSH1 0x0 KECCAK256 SLOAD SWAP1 POP PUSH1 0x0 DUP2 EQ PUSH2 0x23A6 JUMPI PUSH1 0x0 PUSH1 0x1 DUP3 PUSH2 0x22D0 SWAP2 SWAP1 PUSH2 0x33D2 JUMP JUMPDEST SWAP1 POP PUSH1 0x0 PUSH1 0x1 DUP7 PUSH1 0x0 ADD DUP1 SLOAD SWAP1 POP PUSH2 0x22E8 SWAP2 SWAP1 PUSH2 0x33D2 JUMP JUMPDEST SWAP1 POP DUP2 DUP2 EQ PUSH2 0x2357 JUMPI PUSH1 0x0 DUP7 PUSH1 0x0 ADD DUP3 DUP2 SLOAD DUP2 LT PUSH2 0x2309 JUMPI PUSH2 0x2308 PUSH2 0x33A3 JUMP JUMPDEST JUMPDEST SWAP1 PUSH1 0x0 MSTORE PUSH1 0x20 PUSH1 0x0 KECCAK256 ADD SLOAD SWAP1 POP DUP1 DUP8 PUSH1 0x0 ADD DUP5 DUP2 SLOAD DUP2 LT PUSH2 0x232D JUMPI PUSH2 0x232C PUSH2 0x33A3 JUMP JUMPDEST JUMPDEST SWAP1 PUSH1 0x0 MSTORE PUSH1 0x20 PUSH1 0x0 KECCAK256 ADD DUP2 SWAP1 SSTORE POP DUP4 DUP8 PUSH1 0x1 ADD PUSH1 0x0 DUP4 DUP2 MSTORE PUSH1 0x20 ADD SWAP1 DUP2 MSTORE PUSH1 0x20 ADD PUSH1 0x0 KECCAK256 DUP2 SWAP1 SSTORE POP POP JUMPDEST DUP6 PUSH1 0x0 ADD DUP1 SLOAD DUP1 PUSH2 0x236B JUMPI PUSH2 0x236A PUSH2 0x3406 JUMP JUMPDEST JUMPDEST PUSH1 0x1 SWAP1 SUB DUP2 DUP2 SWAP1 PUSH1 0x0 MSTORE PUSH1 0x20 PUSH1 0x0 KECCAK256 ADD PUSH1 0x0 SWAP1 SSTORE SWAP1 SSTORE DUP6 PUSH1 0x1 ADD PUSH1 0x0 DUP7 DUP2 MSTORE PUSH1 0x20 ADD SWAP1 DUP2 MSTORE PUSH1 0x20 ADD PUSH1 0x0 KECCAK256 PUSH1 0x0 SWAP1 SSTORE PUSH1 0x1 SWAP4 POP POP POP POP PUSH2 0x23AC JUMP JUMPDEST PUSH1 0x0 SWAP2 POP POP JUMPDEST SWAP3 SWAP2 POP POP JUMP JUMPDEST PUSH1 0x0 PUSH2 0x23BE DUP4 DUP4 PUSH2 0x226A JUMP JUMPDEST PUSH2 0x2417 JUMPI DUP3 PUSH1 0x0 ADD DUP3 SWAP1 DUP1 PUSH1 0x1 DUP2 SLOAD ADD DUP1 DUP3 SSTORE DUP1 SWAP2 POP POP PUSH1 0x1 SWAP1 SUB SWAP1 PUSH1 0x0 MSTORE PUSH1 0x20 PUSH1 0x0 KECCAK256 ADD PUSH1 0x0 SWAP1 SWAP2 SWAP1 SWAP2 SWAP1 SWAP2 POP SSTORE DUP3 PUSH1 0x0 ADD DUP1 SLOAD SWAP1 POP DUP4 PUSH1 0x1 ADD PUSH1 0x0 DUP5 DUP2 MSTORE PUSH1 0x20 ADD SWAP1 DUP2 MSTORE PUSH1 0x20 ADD PUSH1 0x0 KECCAK256 DUP2 SWAP1 SSTORE POP PUSH1 0x1 SWAP1 POP PUSH2 0x241C JUMP JUMPDEST PUSH1 0x0 SWAP1 POP JUMPDEST SWAP3 SWAP2 POP POP JUMP JUMPDEST PUSH1 0x0 DUP1 REVERT JUMPDEST PUSH1 0x0 PUSH20 0xFFFFFFFFFFFFFFFFFFFFFFFFFFFFFFFFFFFFFFFF DUP3 AND SWAP1 POP SWAP2 SWAP1 POP JUMP JUMPDEST PUSH1 0x0 PUSH2 0x2452 DUP3 PUSH2 0x2427 JUMP JUMPDEST SWAP1 POP SWAP2 SWAP1 POP JUMP JUMPDEST PUSH2 0x2462 DUP2 PUSH2 0x2447 JUMP JUMPDEST DUP2 EQ PUSH2 0x246D JUMPI PUSH1 0x0 DUP1 REVERT JUMPDEST POP JUMP JUMPDEST PUSH1 0x0 DUP2 CALLDATALOAD SWAP1 POP PUSH2 0x247F DUP2 PUSH2 0x2459 JUMP JUMPDEST SWAP3 SWAP2 POP POP JUMP JUMPDEST PUSH1 0x0 PUSH1 0x20 DUP3 DUP5 SUB SLT ISZERO PUSH2 0x249B JUMPI PUSH2 0x249A PUSH2 0x2422 JUMP JUMPDEST JUMPDEST PUSH1 0x0 PUSH2 0x24A9 DUP5 DUP3 DUP6 ADD PUSH2 0x2470 JUMP JUMPDEST SWAP2 POP POP SWAP3 SWAP2 POP POP JUMP JUMPDEST PUSH1 0x0 DUP2 ISZERO ISZERO SWAP1 POP SWAP2 SWAP1 POP JUMP JUMPDEST PUSH2 0x24C7 DUP2 PUSH2 0x24B2 JUMP JUMPDEST DUP3 MSTORE POP POP JUMP JUMPDEST PUSH1 0x0 PUSH1 0x20 DUP3 ADD SWAP1 POP PUSH2 0x24E2 PUSH1 0x0 DUP4 ADD DUP5 PUSH2 0x24BE JUMP JUMPDEST SWAP3 SWAP2 POP POP JUMP JUMPDEST PUSH1 0x0 DUP2 SWAP1 POP SWAP2 SWAP1 POP JUMP JUMPDEST PUSH2 0x24FB DUP2 PUSH2 0x24E8 JUMP JUMPDEST DUP2 EQ PUSH2 0x2506 JUMPI PUSH1 0x0 DUP1 REVERT JUMPDEST POP JUMP JUMPDEST PUSH1 0x0 DUP2 CALLDATALOAD SWAP1 POP PUSH2 0x2518 DUP2 PUSH2 0x24F2 JUMP JUMPDEST SWAP3 SWAP2 POP POP JUMP JUMPDEST PUSH1 0x0 DUP1 PUSH1 0x0 PUSH1 0x60 DUP5 DUP7 SUB SLT ISZERO PUSH2 0x2537 JUMPI PUSH2 0x2536 PUSH2 0x2422 JUMP JUMPDEST JUMPDEST PUSH1 0x0 PUSH2 0x2545 DUP7 DUP3 DUP8 ADD PUSH2 0x2509 JUMP JUMPDEST SWAP4 POP POP PUSH1 0x20 PUSH2 0x2556 DUP7 DUP3 DUP8 ADD PUSH2 0x2509 JUMP JUMPDEST SWAP3 POP POP PUSH1 0x40 PUSH2 0x2567 DUP7 DUP3 DUP8 ADD PUSH2 0x2509 JUMP JUMPDEST SWAP2 POP POP SWAP3 POP SWAP3 POP SWAP3 JUMP JUMPDEST PUSH1 0x0 PUSH1 0x20 DUP3 DUP5 SUB SLT ISZERO PUSH2 0x2587 JUMPI PUSH2 0x2586 PUSH2 0x2422 JUMP JUMPDEST JUMPDEST PUSH1 0x0 PUSH2 0x2595 DUP5 DUP3 DUP6 ADD PUSH2 0x2509 JUMP JUMPDEST SWAP2 POP POP SWAP3 SWAP2 POP POP JUMP JUMPDEST PUSH2 0x25A7 DUP2 PUSH2 0x2447 JUMP JUMPDEST DUP3 MSTORE POP POP JUMP JUMPDEST PUSH2 0x25B6 DUP2 PUSH2 0x24E8 JUMP JUMPDEST DUP3 MSTORE POP POP JUMP JUMPDEST PUSH1 0x0 DUP2 SWAP1 POP SWAP2 SWAP1 POP JUMP JUMPDEST PUSH2 0x25CF DUP2 PUSH2 0x25BC JUMP JUMPDEST DUP3 MSTORE POP POP JUMP JUMPDEST PUSH32 0x4E487B7100000000000000000000000000000000000000000000000000000000 PUSH1 0x0 MSTORE PUSH1 0x21 PUSH1 0x4 MSTORE PUSH1 0x24 PUSH1 0x0 REVERT JUMPDEST PUSH1 0x7 DUP2 LT PUSH2 0x2615 JUMPI PUSH2 0x2614 PUSH2 0x25D5 JUMP JUMPDEST JUMPDEST POP JUMP JUMPDEST PUSH1 0x0 DUP2 SWAP1 POP PUSH2 0x2626 DUP3 PUSH2 0x2604 JUMP JUMPDEST SWAP2 SWAP1 POP JUMP JUMPDEST PUSH1 0x0 PUSH2 0x2636 DUP3 PUSH2 0x2618 JUMP JUMPDEST SWAP1 POP SWAP2 SWAP1 POP JUMP JUMPDEST PUSH2 0x2646 DUP2 PUSH2 0x262B JUMP JUMPDEST DUP3 MSTORE POP POP JUMP JUMPDEST PUSH1 0x40 DUP3 ADD PUSH1 0x0 DUP3 ADD MLOAD PUSH2 0x2662 PUSH1 0x0 DUP6 ADD DUP3 PUSH2 0x25C6 JUMP JUMPDEST POP PUSH1 0x20 DUP3 ADD MLOAD PUSH2 0x2675 PUSH1 0x20 DUP6 ADD DUP3 PUSH2 0x25C6 JUMP JUMPDEST POP POP POP POP JUMP JUMPDEST PUSH1 0x2 DUP2 LT PUSH2 0x268C JUMPI PUSH2 0x268B PUSH2 0x25D5 JUMP JUMPDEST JUMPDEST POP JUMP JUMPDEST PUSH1 0x0 DUP2 SWAP1 POP PUSH2 0x269D DUP3 PUSH2 0x267B JUMP JUMPDEST SWAP2 SWAP1 POP JUMP JUMPDEST PUSH1 0x0 PUSH2 0x26AD DUP3 PUSH2 0x268F JUMP JUMPDEST SWAP1 POP SWAP2 SWAP1 POP JUMP JUMPDEST PUSH2 0x26BD DUP2 PUSH2 0x26A2 JUMP JUMPDEST DUP3 MSTORE POP POP JUMP JUMPDEST PUSH2 0x140 DUP3 ADD PUSH1 0x0 DUP3 ADD MLOAD PUSH2 0x26DA PUSH1 0x0 DUP6 ADD DUP3 PUSH2 0x25AD JUMP JUMPDEST POP PUSH1 0x20 DUP3 ADD MLOAD PUSH2 0x26ED PUSH1 0x20 DUP6 ADD DUP3 PUSH2 0x25C6 JUMP JUMPDEST POP PUSH1 0x40 DUP3 ADD MLOAD PUSH2 0x2700 PUSH1 0x40 DUP6 ADD DUP3 PUSH2 0x25C6 JUMP JUMPDEST POP PUSH1 0x60 DUP3 ADD MLOAD PUSH2 0x2713 PUSH1 0x60 DUP6 ADD DUP3 PUSH2 0x263D JUMP JUMPDEST POP PUSH1 0x80 DUP3 ADD MLOAD PUSH2 0x2726 PUSH1 0x80 DUP6 ADD DUP3 PUSH2 0x264C JUMP JUMPDEST POP PUSH1 0xA0 DUP3 ADD MLOAD PUSH2 0x2739 PUSH1 0xC0 DUP6 ADD DUP3 PUSH2 0x25AD JUMP JUMPDEST POP PUSH1 0xC0 DUP3 ADD MLOAD PUSH2 0x274C PUSH1 0xE0 DUP6 ADD DUP3 PUSH2 0x25C6 JUMP JUMPDEST POP PUSH1 0xE0 DUP3 ADD MLOAD PUSH2 0x2760 PUSH2 0x100 DUP6 ADD DUP3 PUSH2 0x25AD JUMP JUMPDEST POP PUSH2 0x100 DUP3 ADD MLOAD PUSH2 0x2775 PUSH2 0x120 DUP6 ADD DUP3 PUSH2 0x26B4 JUMP JUMPDEST POP POP POP POP JUMP JUMPDEST PUSH1 0x40 DUP3 ADD PUSH1 0x0 DUP3 ADD MLOAD PUSH2 0x2791 PUSH1 0x0 DUP6 ADD DUP3 PUSH2 0x25C6 JUMP JUMPDEST POP PUSH1 0x20 DUP3 ADD MLOAD PUSH2 0x27A4 PUSH1 0x20 DUP6 ADD DUP3 PUSH2 0x25C6 JUMP JUMPDEST POP POP POP POP JUMP JUMPDEST PUSH2 0x27B3 DUP2 PUSH2 0x24E8 JUMP JUMPDEST DUP3 MSTORE POP POP JUMP JUMPDEST PUSH1 0x3 DUP2 LT PUSH2 0x27CA JUMPI PUSH2 0x27C9 PUSH2 0x25D5 JUMP JUMPDEST JUMPDEST POP JUMP JUMPDEST PUSH1 0x0 DUP2 SWAP1 POP PUSH2 0x27DB DUP3 PUSH2 0x27B9 JUMP JUMPDEST SWAP2 SWAP1 POP JUMP JUMPDEST PUSH1 0x0 PUSH2 0x27EB DUP3 PUSH2 0x27CD JUMP JUMPDEST SWAP1 POP SWAP2 SWAP1 POP JUMP JUMPDEST PUSH2 0x27FB DUP2 PUSH2 0x27E0 JUMP JUMPDEST DUP3 MSTORE POP POP JUMP JUMPDEST PUSH1 0x0 PUSH2 0x220 DUP3 ADD SWAP1 POP PUSH2 0x2817 PUSH1 0x0 DUP4 ADD DUP11 PUSH2 0x259E JUMP JUMPDEST PUSH2 0x2824 PUSH1 0x20 DUP4 ADD DUP10 PUSH2 0x26C3 JUMP JUMPDEST PUSH2 0x2832 PUSH2 0x160 DUP4 ADD DUP9 PUSH2 0x277B JUMP JUMPDEST PUSH2 0x2840 PUSH2 0x1A0 DUP4 ADD DUP8 PUSH2 0x27AA JUMP JUMPDEST PUSH2 0x284E PUSH2 0x1C0 DUP4 ADD DUP7 PUSH2 0x27AA JUMP JUMPDEST PUSH2 0x285C PUSH2 0x1E0 DUP4 ADD DUP6 PUSH2 0x27AA JUMP JUMPDEST PUSH2 0x286A PUSH2 0x200 DUP4 ADD DUP5 PUSH2 0x27F2 JUMP JUMPDEST SWAP9 SWAP8 POP POP POP POP POP POP POP POP JUMP JUMPDEST PUSH2 0x287F DUP2 PUSH2 0x25BC JUMP JUMPDEST DUP3 MSTORE POP POP JUMP JUMPDEST PUSH2 0x288E DUP2 PUSH2 0x262B JUMP JUMPDEST DUP3 MSTORE POP POP JUMP JUMPDEST PUSH1 0x40 DUP3 ADD PUSH1 0x0 DUP3 ADD MLOAD PUSH2 0x28AA PUSH1 0x0 DUP6 ADD DUP3 PUSH2 0x25C6 JUMP JUMPDEST POP PUSH1 0x20 DUP3 ADD MLOAD PUSH2 0x28BD PUSH1 0x20 DUP6 ADD DUP3 PUSH2 0x25C6 JUMP JUMPDEST POP POP POP POP JUMP JUMPDEST PUSH2 0x28CC DUP2 PUSH2 0x26A2 JUMP JUMPDEST DUP3 MSTORE POP POP JUMP JUMPDEST PUSH1 0x0 PUSH2 0x140 DUP3 ADD SWAP1 POP PUSH2 0x28E8 PUSH1 0x0 DUP4 ADD DUP13 PUSH2 0x27AA JUMP JUMPDEST PUSH2 0x28F5 PUSH1 0x20 DUP4 ADD DUP12 PUSH2 0x2876 JUMP JUMPDEST PUSH2 0x2902 PUSH1 0x40 DUP4 ADD DUP11 PUSH2 0x2876 JUMP JUMPDEST PUSH2 0x290F PUSH1 0x60 DUP4 ADD DUP10 PUSH2 0x2885 JUMP JUMPDEST PUSH2 0x291C PUSH1 0x80 DUP4 ADD DUP9 PUSH2 0x2894 JUMP JUMPDEST PUSH2 0x2929 PUSH1 0xC0 DUP4 ADD DUP8 PUSH2 0x27AA JUMP JUMPDEST PUSH2 0x2936 PUSH1 0xE0 DUP4 ADD DUP7 PUSH2 0x2876 JUMP JUMPDEST PUSH2 0x2944 PUSH2 0x100 DUP4 ADD DUP6 PUSH2 0x27AA JUMP JUMPDEST PUSH2 0x2952 PUSH2 0x120 DUP4 ADD DUP5 PUSH2 0x28C3 JUMP JUMPDEST SWAP11 SWAP10 POP POP POP POP POP POP POP POP POP POP JUMP JUMPDEST PUSH1 0x0 DUP1 PUSH1 0x40 DUP4 DUP6 SUB SLT ISZERO PUSH2 0x2977 JUMPI PUSH2 0x2976 PUSH2 0x2422 JUMP JUMPDEST JUMPDEST PUSH1 0x0 PUSH2 0x2985 DUP6 DUP3 DUP7 ADD PUSH2 0x2509 JUMP JUMPDEST SWAP3 POP POP PUSH1 0x20 PUSH2 0x2996 DUP6 DUP3 DUP7 ADD PUSH2 0x2509 JUMP JUMPDEST SWAP2 POP POP SWAP3 POP SWAP3 SWAP1 POP JUMP JUMPDEST PUSH2 0x29A9 DUP2 PUSH2 0x25BC JUMP JUMPDEST DUP2 EQ PUSH2 0x29B4 JUMPI PUSH1 0x0 DUP1 REVERT JUMPDEST POP JUMP JUMPDEST PUSH1 0x0 DUP2 CALLDATALOAD SWAP1 POP PUSH2 0x29C6 DUP2 PUSH2 0x29A0 JUMP JUMPDEST SWAP3 SWAP2 POP POP JUMP JUMPDEST PUSH1 0x0 DUP1 PUSH1 0x0 DUP1 PUSH1 0x0 DUP1 PUSH1 0x0 DUP1 PUSH2 0x100 DUP10 DUP12 SUB SLT ISZERO PUSH2 0x29ED JUMPI PUSH2 0x29EC PUSH2 0x2422 JUMP JUMPDEST JUMPDEST PUSH1 0x0 PUSH2 0x29FB DUP12 DUP3 DUP13 ADD PUSH2 0x29B7 JUMP JUMPDEST SWAP9 POP POP PUSH1 0x20 PUSH2 0x2A0C DUP12 DUP3 DUP13 ADD PUSH2 0x29B7 JUMP JUMPDEST SWAP8 POP POP PUSH1 0x40 PUSH2 0x2A1D DUP12 DUP3 DUP13 ADD PUSH2 0x2509 JUMP JUMPDEST SWAP7 POP POP PUSH1 0x60 PUSH2 0x2A2E DUP12 DUP3 DUP13 ADD PUSH2 0x29B7 JUMP JUMPDEST SWAP6 POP POP PUSH1 0x80 PUSH2 0x2A3F DUP12 DUP3 DUP13 ADD PUSH2 0x29B7 JUMP JUMPDEST SWAP5 POP POP PUSH1 0xA0 PUSH2 0x2A50 DUP12 DUP3 DUP13 ADD PUSH2 0x2509 JUMP JUMPDEST SWAP4 POP POP PUSH1 0xC0 PUSH2 0x2A61 DUP12 DUP3 DUP13 ADD PUSH2 0x29B7 JUMP JUMPDEST SWAP3 POP POP PUSH1 0xE0 PUSH2 0x2A72 DUP12 DUP3 DUP13 ADD PUSH2 0x2509 JUMP JUMPDEST SWAP2 POP POP SWAP3 SWAP6 SWAP9 POP SWAP3 SWAP6 SWAP9 SWAP1 SWAP4 SWAP7 POP JUMP JUMPDEST PUSH1 0x0 PUSH1 0x20 DUP3 ADD SWAP1 POP PUSH2 0x2A97 PUSH1 0x0 DUP4 ADD DUP5 PUSH2 0x27AA JUMP JUMPDEST SWAP3 SWAP2 POP POP JUMP JUMPDEST PUSH1 0x0 DUP1 PUSH1 0x40 DUP4 DUP6 SUB SLT ISZERO PUSH2 0x2AB4 JUMPI PUSH2 0x2AB3 PUSH2 0x2422 JUMP JUMPDEST JUMPDEST PUSH1 0x0 PUSH2 0x2AC2 DUP6 DUP3 DUP7 ADD PUSH2 0x29B7 JUMP JUMPDEST SWAP3 POP POP PUSH1 0x20 PUSH2 0x2AD3 DUP6 DUP3 DUP7 ADD PUSH2 0x2509 JUMP JUMPDEST SWAP2 POP POP SWAP3 POP SWAP3 SWAP1 POP JUMP JUMPDEST PUSH1 0x0 PUSH1 0x20 DUP3 ADD SWAP1 POP PUSH2 0x2AF2 PUSH1 0x0 DUP4 ADD DUP5 PUSH2 0x259E JUMP JUMPDEST SWAP3 SWAP2 POP POP JUMP JUMPDEST PUSH1 0x0 DUP1 PUSH1 0x40 DUP4 DUP6 SUB SLT ISZERO PUSH2 0x2B0F JUMPI PUSH2 0x2B0E PUSH2 0x2422 JUMP JUMPDEST JUMPDEST PUSH1 0x0 PUSH2 0x2B1D DUP6 DUP3 DUP7 ADD PUSH2 0x29B7 JUMP JUMPDEST SWAP3 POP POP PUSH1 0x20 PUSH2 0x2B2E DUP6 DUP3 DUP7 ADD PUSH2 0x2470 JUMP JUMPDEST SWAP2 POP POP SWAP3 POP SWAP3 SWAP1 POP JUMP JUMPDEST PUSH1 0x0 DUP1 PUSH1 0x0 DUP1 PUSH1 0x80 DUP6 DUP8 SUB SLT ISZERO PUSH2 0x2B52 JUMPI PUSH2 0x2B51 PUSH2 0x2422 JUMP JUMPDEST JUMPDEST PUSH1 0x0 PUSH2 0x2B60 DUP8 DUP3 DUP9 ADD PUSH2 0x2509 JUMP JUMPDEST SWAP5 POP POP PUSH1 0x20 PUSH2 0x2B71 DUP8 DUP3 DUP9 ADD PUSH2 0x29B7 JUMP JUMPDEST SWAP4 POP POP PUSH1 0x40 PUSH2 0x2B82 DUP8 DUP3 DUP9 ADD PUSH2 0x29B7 JUMP JUMPDEST SWAP3 POP POP PUSH1 0x60 PUSH2 0x2B93 DUP8 DUP3 DUP9 ADD PUSH2 0x2509 JUMP JUMPDEST SWAP2 POP POP SWAP3 SWAP6 SWAP2 SWAP5 POP SWAP3 POP JUMP JUMPDEST PUSH1 0x0 PUSH1 0x20 DUP3 ADD SWAP1 POP PUSH2 0x2BB4 PUSH1 0x0 DUP4 ADD DUP5 PUSH2 0x2876 JUMP JUMPDEST SWAP3 SWAP2 POP POP JUMP JUMPDEST PUSH1 0x0 PUSH1 0x20 DUP3 DUP5 SUB SLT ISZERO PUSH2 0x2BD0 JUMPI PUSH2 0x2BCF PUSH2 0x2422 JUMP JUMPDEST JUMPDEST PUSH1 0x0 PUSH2 0x2BDE DUP5 DUP3 DUP6 ADD PUSH2 0x29B7 JUMP JUMPDEST SWAP2 POP POP SWAP3 SWAP2 POP POP JUMP JUMPDEST PUSH1 0x0 DUP3 DUP3 MSTORE PUSH1 0x20 DUP3 ADD SWAP1 POP SWAP3 SWAP2 POP POP JUMP JUMPDEST PUSH32 0x5265737472696374656420746F2072656E746572732E00000000000000000000 PUSH1 0x0 DUP3 ADD MSTORE POP JUMP JUMPDEST PUSH1 0x0 PUSH2 0x2C2E PUSH1 0x16 DUP4 PUSH2 0x2BE7 JUMP JUMPDEST SWAP2 POP PUSH2 0x2C39 DUP3 PUSH2 0x2BF8 JUMP JUMPDEST PUSH1 0x20 DUP3 ADD SWAP1 POP SWAP2 SWAP1 POP JUMP JUMPDEST PUSH1 0x0 PUSH1 0x20 DUP3 ADD SWAP1 POP DUP2 DUP2 SUB PUSH1 0x0 DUP4 ADD MSTORE PUSH2 0x2C5D DUP2 PUSH2 0x2C21 JUMP JUMPDEST SWAP1 POP SWAP2 SWAP1 POP JUMP JUMPDEST PUSH32 0x5468652073656C65637465642076656869636C652069732063757272656E746C PUSH1 0x0 DUP3 ADD MSTORE PUSH32 0x79206E6F7420617661696C61626C652E00000000000000000000000000000000 PUSH1 0x20 DUP3 ADD MSTORE POP JUMP JUMPDEST PUSH1 0x0 PUSH2 0x2CC0 PUSH1 0x30 DUP4 PUSH2 0x2BE7 JUMP JUMPDEST SWAP2 POP PUSH2 0x2CCB DUP3 PUSH2 0x2C64 JUMP JUMPDEST PUSH1 0x40 DUP3 ADD SWAP1 POP SWAP2 SWAP1 POP JUMP JUMPDEST PUSH1 0x0 PUSH1 0x20 DUP3 ADD SWAP1 POP DUP2 DUP2 SUB PUSH1 0x0 DUP4 ADD MSTORE PUSH2 0x2CEF DUP2 PUSH2 0x2CB3 JUMP JUMPDEST SWAP1 POP SWAP2 SWAP1 POP JUMP JUMPDEST PUSH32 0x54686520666F6C6C6F77696E6720636F6E747261637420636F756C64206E6F74 PUSH1 0x0 DUP3 ADD MSTORE PUSH32 0x20626520666F756E6420696E20746865206D617070696E67206C6973742E0000 PUSH1 0x20 DUP3 ADD MSTORE POP JUMP JUMPDEST PUSH1 0x0 PUSH2 0x2D52 PUSH1 0x3E DUP4 PUSH2 0x2BE7 JUMP JUMPDEST SWAP2 POP PUSH2 0x2D5D DUP3 PUSH2 0x2CF6 JUMP JUMPDEST PUSH1 0x40 DUP3 ADD SWAP1 POP SWAP2 SWAP1 POP JUMP JUMPDEST PUSH1 0x0 PUSH1 0x20 DUP3 ADD SWAP1 POP DUP2 DUP2 SUB PUSH1 0x0 DUP4 ADD MSTORE PUSH2 0x2D81 DUP2 PUSH2 0x2D45 JUMP JUMPDEST SWAP1 POP SWAP2 SWAP1 POP JUMP JUMPDEST PUSH1 0x0 PUSH1 0x60 DUP3 ADD SWAP1 POP PUSH2 0x2D9D PUSH1 0x0 DUP4 ADD DUP7 PUSH2 0x27AA JUMP JUMPDEST PUSH2 0x2DAA PUSH1 0x20 DUP4 ADD DUP6 PUSH2 0x27AA JUMP JUMPDEST PUSH2 0x2DB7 PUSH1 0x40 DUP4 ADD DUP5 PUSH2 0x27AA JUMP JUMPDEST SWAP5 SWAP4 POP POP POP POP JUMP JUMPDEST PUSH32 0x54686520666F6C6C6F77696E672076656869636C6520636F756C64206E6F7420 PUSH1 0x0 DUP3 ADD MSTORE PUSH32 0x626520666F756E6420696E20746865206D617070696E67206C6973742E000000 PUSH1 0x20 DUP3 ADD MSTORE POP JUMP JUMPDEST PUSH1 0x0 PUSH2 0x2E1B PUSH1 0x3D DUP4 PUSH2 0x2BE7 JUMP JUMPDEST SWAP2 POP PUSH2 0x2E26 DUP3 PUSH2 0x2DBF JUMP JUMPDEST PUSH1 0x40 DUP3 ADD SWAP1 POP SWAP2 SWAP1 POP JUMP JUMPDEST PUSH1 0x0 PUSH1 0x20 DUP3 ADD SWAP1 POP DUP2 DUP2 SUB PUSH1 0x0 DUP4 ADD MSTORE PUSH2 0x2E4A DUP2 PUSH2 0x2E0E JUMP JUMPDEST SWAP1 POP SWAP2 SWAP1 POP JUMP JUMPDEST PUSH32 0x4E487B7100000000000000000000000000000000000000000000000000000000 PUSH1 0x0 MSTORE PUSH1 0x11 PUSH1 0x4 MSTORE PUSH1 0x24 PUSH1 0x0 REVERT JUMPDEST PUSH1 0x0 PUSH2 0x2E8B DUP3 PUSH2 0x24E8 JUMP JUMPDEST SWAP2 POP PUSH2 0x2E96 DUP4 PUSH2 0x24E8 JUMP JUMPDEST SWAP3 POP DUP3 DUP3 ADD SWAP1 POP DUP1 DUP3 GT ISZERO PUSH2 0x2EAE JUMPI PUSH2 0x2EAD PUSH2 0x2E51 JUMP JUMPDEST JUMPDEST SWAP3 SWAP2 POP POP JUMP JUMPDEST PUSH32 0x436F756C64206E6F742070726F63656564206265636175736520746865726520 PUSH1 0x0 DUP3 ADD MSTORE PUSH32 0x6973206E6F7420656E6F7567682045544820696E20796F75722077616C6C6574 PUSH1 0x20 DUP3 ADD MSTORE POP JUMP JUMPDEST PUSH1 0x0 PUSH2 0x2F10 PUSH1 0x40 DUP4 PUSH2 0x2BE7 JUMP JUMPDEST SWAP2 POP PUSH2 0x2F1B DUP3 PUSH2 0x2EB4 JUMP JUMPDEST PUSH1 0x40 DUP3 ADD SWAP1 POP SWAP2 SWAP1 POP JUMP JUMPDEST PUSH1 0x0 PUSH1 0x20 DUP3 ADD SWAP1 POP DUP2 DUP2 SUB PUSH1 0x0 DUP4 ADD MSTORE PUSH2 0x2F3F DUP2 PUSH2 0x2F03 JUMP JUMPDEST SWAP1 POP SWAP2 SWAP1 POP JUMP JUMPDEST PUSH32 0x5265737472696374656420746F206F776E6572732E0000000000000000000000 PUSH1 0x0 DUP3 ADD MSTORE POP JUMP JUMPDEST PUSH1 0x0 PUSH2 0x2F7C PUSH1 0x15 DUP4 PUSH2 0x2BE7 JUMP JUMPDEST SWAP2 POP PUSH2 0x2F87 DUP3 PUSH2 0x2F46 JUMP JUMPDEST PUSH1 0x20 DUP3 ADD SWAP1 POP SWAP2 SWAP1 POP JUMP JUMPDEST PUSH1 0x0 PUSH1 0x20 DUP3 ADD SWAP1 POP DUP2 DUP2 SUB PUSH1 0x0 DUP4 ADD MSTORE PUSH2 0x2FAB DUP2 PUSH2 0x2F6F JUMP JUMPDEST SWAP1 POP SWAP2 SWAP1 POP JUMP JUMPDEST PUSH32 0x54686520666F6C6C6F77696E672076656869636C652068617320616C72656164 PUSH1 0x0 DUP3 ADD MSTORE PUSH32 0x79206265656E2061646465642E00000000000000000000000000000000000000 PUSH1 0x20 DUP3 ADD MSTORE POP JUMP JUMPDEST PUSH1 0x0 PUSH2 0x300E PUSH1 0x2D DUP4 PUSH2 0x2BE7 JUMP JUMPDEST SWAP2 POP PUSH2 0x3019 DUP3 PUSH2 0x2FB2 JUMP JUMPDEST PUSH1 0x40 DUP3 ADD SWAP1 POP SWAP2 SWAP1 POP JUMP JUMPDEST PUSH1 0x0 PUSH1 0x20 DUP3 ADD SWAP1 POP DUP2 DUP2 SUB PUSH1 0x0 DUP4 ADD MSTORE PUSH2 0x303D DUP2 PUSH2 0x3001 JUMP JUMPDEST SWAP1 POP SWAP2 SWAP1 POP JUMP JUMPDEST PUSH1 0x0 PUSH2 0x120 DUP3 ADD SWAP1 POP PUSH2 0x305A PUSH1 0x0 DUP4 ADD DUP13 PUSH2 0x27AA JUMP JUMPDEST PUSH2 0x3067 PUSH1 0x20 DUP4 ADD DUP12 PUSH2 0x2876 JUMP JUMPDEST PUSH2 0x3074 PUSH1 0x40 DUP4 ADD DUP11 PUSH2 0x2876 JUMP JUMPDEST PUSH2 0x3081 PUSH1 0x60 DUP4 ADD DUP10 PUSH2 0x27AA JUMP JUMPDEST PUSH2 0x308E PUSH1 0x80 DUP4 ADD DUP9 PUSH2 0x2876 JUMP JUMPDEST PUSH2 0x309B PUSH1 0xA0 DUP4 ADD DUP8 PUSH2 0x2876 JUMP JUMPDEST PUSH2 0x30A8 PUSH1 0xC0 DUP4 ADD DUP7 PUSH2 0x27AA JUMP JUMPDEST PUSH2 0x30B5 PUSH1 0xE0 DUP4 ADD DUP6 PUSH2 0x2876 JUMP JUMPDEST PUSH2 0x30C3 PUSH2 0x100 DUP4 ADD DUP5 PUSH2 0x27AA JUMP JUMPDEST SWAP11 SWAP10 POP POP POP POP POP POP POP POP POP POP JUMP JUMPDEST PUSH1 0x0 PUSH2 0x30DC DUP3 PUSH2 0x24E8 JUMP JUMPDEST SWAP2 POP PUSH32 0xFFFFFFFFFFFFFFFFFFFFFFFFFFFFFFFFFFFFFFFFFFFFFFFFFFFFFFFFFFFFFFFF DUP3 SUB PUSH2 0x310E JUMPI PUSH2 0x310D PUSH2 0x2E51 JUMP JUMPDEST JUMPDEST PUSH1 0x1 DUP3 ADD SWAP1 POP SWAP2 SWAP1 POP JUMP JUMPDEST PUSH1 0x0 DUP2 SWAP1 POP SWAP3 SWAP2 POP POP JUMP JUMPDEST POP JUMP JUMPDEST PUSH1 0x0 PUSH2 0x3134 PUSH1 0x0 DUP4 PUSH2 0x3119 JUMP JUMPDEST SWAP2 POP PUSH2 0x313F DUP3 PUSH2 0x3124 JUMP JUMPDEST PUSH1 0x0 DUP3 ADD SWAP1 POP SWAP2 SWAP1 POP JUMP JUMPDEST PUSH1 0x0 PUSH2 0x3155 DUP3 PUSH2 0x3127 JUMP JUMPDEST SWAP2 POP DUP2 SWAP1 POP SWAP2 SWAP1 POP JUMP JUMPDEST PUSH32 0x4661696C656420746F2073656E64204574686572000000000000000000000000 PUSH1 0x0 DUP3 ADD MSTORE POP JUMP JUMPDEST PUSH1 0x0 PUSH2 0x3195 PUSH1 0x14 DUP4 PUSH2 0x2BE7 JUMP JUMPDEST SWAP2 POP PUSH2 0x31A0 DUP3 PUSH2 0x315F JUMP JUMPDEST PUSH1 0x20 DUP3 ADD SWAP1 POP SWAP2 SWAP1 POP JUMP JUMPDEST PUSH1 0x0 PUSH1 0x20 DUP3 ADD SWAP1 POP DUP2 DUP2 SUB PUSH1 0x0 DUP4 ADD MSTORE PUSH2 0x31C4 DUP2 PUSH2 0x3188 JUMP JUMPDEST SWAP1 POP SWAP2 SWAP1 POP JUMP JUMPDEST PUSH1 0x0 PUSH1 0x40 DUP3 ADD SWAP1 POP PUSH2 0x31E0 PUSH1 0x0 DUP4 ADD DUP6 PUSH2 0x27AA JUMP JUMPDEST PUSH2 0x31ED PUSH1 0x20 DUP4 ADD DUP5 PUSH2 0x27AA JUMP JUMPDEST SWAP4 SWAP3 POP POP POP JUMP JUMPDEST PUSH32 0x54686520666F6C6C6F77696E6720636F6E74726163742068617320616C726561 PUSH1 0x0 DUP3 ADD MSTORE PUSH32 0x6479206265656E2061646465642E000000000000000000000000000000000000 PUSH1 0x20 DUP3 ADD MSTORE POP JUMP JUMPDEST PUSH1 0x0 PUSH2 0x3250 PUSH1 0x2E DUP4 PUSH2 0x2BE7 JUMP JUMPDEST SWAP2 POP PUSH2 0x325B DUP3 PUSH2 0x31F4 JUMP JUMPDEST PUSH1 0x40 DUP3 ADD SWAP1 POP SWAP2 SWAP1 POP JUMP JUMPDEST PUSH1 0x0 PUSH1 0x20 DUP3 ADD SWAP1 POP DUP2 DUP2 SUB PUSH1 0x0 DUP4 ADD MSTORE PUSH2 0x327F DUP2 PUSH2 0x3243 JUMP JUMPDEST SWAP1 POP SWAP2 SWAP1 POP JUMP JUMPDEST PUSH1 0x0 PUSH2 0x3291 DUP3 PUSH2 0x24E8 JUMP JUMPDEST SWAP2 POP PUSH2 0x329C DUP4 PUSH2 0x24E8 JUMP JUMPDEST SWAP3 POP DUP2 PUSH32 0xFFFFFFFFFFFFFFFFFFFFFFFFFFFFFFFFFFFFFFFFFFFFFFFFFFFFFFFFFFFFFFFF DIV DUP4 GT DUP3 ISZERO ISZERO AND ISZERO PUSH2 0x32D5 JUMPI PUSH2 0x32D4 PUSH2 0x2E51 JUMP JUMPDEST JUMPDEST DUP3 DUP3 MUL SWAP1 POP SWAP3 SWAP2 POP POP JUMP JUMPDEST PUSH1 0x0 DUP2 SWAP1 POP SWAP2 SWAP1 POP JUMP JUMPDEST PUSH1 0x0 DUP2 SWAP1 POP SWAP2 SWAP1 POP JUMP JUMPDEST PUSH1 0x0 PUSH2 0x330F PUSH2 0x330A PUSH2 0x3305 DUP5 PUSH2 0x32E0 JUMP JUMPDEST PUSH2 0x32EA JUMP JUMPDEST PUSH2 0x24E8 JUMP JUMPDEST SWAP1 POP SWAP2 SWAP1 POP JUMP JUMPDEST PUSH2 0x331F DUP2 PUSH2 0x32F4 JUMP JUMPDEST DUP3 MSTORE POP POP JUMP JUMPDEST PUSH1 0x0 PUSH2 0x100 DUP3 ADD SWAP1 POP PUSH2 0x333B PUSH1 0x0 DUP4 ADD DUP12 PUSH2 0x259E JUMP JUMPDEST PUSH2 0x3348 PUSH1 0x20 DUP4 ADD DUP11 PUSH2 0x27AA JUMP JUMPDEST PUSH2 0x3355 PUSH1 0x40 DUP4 ADD DUP10 PUSH2 0x2876 JUMP JUMPDEST PUSH2 0x3362 PUSH1 0x60 DUP4 ADD DUP9 PUSH2 0x2876 JUMP JUMPDEST PUSH2 0x336F PUSH1 0x80 DUP4 ADD DUP8 PUSH2 0x27AA JUMP JUMPDEST PUSH2 0x337C PUSH1 0xA0 DUP4 ADD DUP7 PUSH2 0x27AA JUMP JUMPDEST PUSH2 0x3389 PUSH1 0xC0 DUP4 ADD DUP6 PUSH2 0x3316 JUMP JUMPDEST PUSH2 0x3396 PUSH1 0xE0 DUP4 ADD DUP5 PUSH2 0x27AA JUMP JUMPDEST SWAP10 SWAP9 POP POP POP POP POP POP POP POP POP JUMP JUMPDEST PUSH32 0x4E487B7100000000000000000000000000000000000000000000000000000000 PUSH1 0x0 MSTORE PUSH1 0x32 PUSH1 0x4 MSTORE PUSH1 0x24 PUSH1 0x0 REVERT JUMPDEST PUSH1 0x0 PUSH2 0x33DD DUP3 PUSH2 0x24E8 JUMP JUMPDEST SWAP2 POP PUSH2 0x33E8 DUP4 PUSH2 0x24E8 JUMP JUMPDEST SWAP3 POP DUP3 DUP3 SUB SWAP1 POP DUP2 DUP2 GT ISZERO PUSH2 0x3400 JUMPI PUSH2 0x33FF PUSH2 0x2E51 JUMP JUMPDEST JUMPDEST SWAP3 SWAP2 POP POP JUMP JUMPDEST PUSH32 0x4E487B7100000000000000000000000000000000000000000000000000000000 PUSH1 0x0 MSTORE PUSH1 0x31 PUSH1 0x4 MSTORE PUSH1 0x24 PUSH1 0x0 REVERT INVALID LOG2 PUSH5 0x6970667358 0x22 SLT KECCAK256 0xC4 0xD9 0xB2 0xB0 0xF9 0xB0 PUSH17 0xD78F3A493B4D9B4033A908B8DE855DEEAD BYTE SAR PUSH6 0xF4FBCBB94964 PUSH20 0x6F6C634300081000330000000000000000000000 "},"methodIdentifiers":{"OWNER_ROLE()":"e58378bb","RENTER_ROLE()":"b97c9f77","addInsurancePackage(uint256,uint256,uint256)":"37c3510a","addOwner(address)":"7065cb48","addRentPeriod(uint256,bytes32,bytes32,uint256)":"aeea80f5","addRenter(address)":"de8b1989","addVehicle(bytes32,bytes32,uint256,bytes32,bytes32,uint256,bytes32,uint256)":"85aee0a6","completion(uint256,uint256)":"87b50547","confirmation(uint256,uint256)":"79b67caa","contractCount()":"8736381a","contracts(uint256)":"474da79a","getContractByID(uint256)":"7b66fe2e","getRoleMember(bytes32,uint256)":"9010d07c","getRoleMemberCount(bytes32)":"ca15c873","getVehicleByID(uint256)":"69a8f49e","hasRole(bytes32,address)":"91d14854","isOwner(address)":"2f54bf6e","isRenter(address)":"9f2bc40e","paymentProcess(uint256)":"74539cd0","removeOwner(address)":"173825d9","removeRenter(address)":"02aec3ce","renounceOwner()":"28c23a45","renounceRenter()":"a36a5d8d","vehicleCount()":"99704937","vehicles(uint256)":"b8ba95fa"}}}}}