{
	"data": {
		"bytecode": {
			"linkReferences": {},
			"object": "60806040526000600355600060045534801561001a57600080fd5b506138de8061002a6000396000f3fe60806040526004361061014b5760003560e01c806387b50547116100b6578063a36a5d8d1161006f578063a36a5d8d1461050e578063b8ba95fa14610525578063b97c9f771461056a578063ca15c87314610595578063de8b1989146105d2578063e58378bb146105fb5761014b565b806387b50547146103bf5780639010d07c146103ef57806391d148541461042c57806399704937146104695780639f2bc40e14610494578063a1a25243146104d15761014b565b8063474da79a11610108578063474da79a1461027057806369a8f49e146102b35780637065cb48146102f857806379b67caa146103215780637b66fe2e146103515780638736381a146103945761014b565b806302aec3ce1461015057806311060ec714610179578063173825d9146101b657806328c23a45146101df5780632f54bf6e146101f657806337c3510a14610233575b600080fd5b34801561015c57600080fd5b50610177600480360381019061017291906128f8565b610626565b005b34801561018557600080fd5b506101a0600480360381019061019b9190612992565b610653565b6040516101ad9190612fa7565b60405180910390f35b3480156101c257600080fd5b506101dd60048036038101906101d891906128f8565b610998565b005b3480156101eb57600080fd5b506101f46109c5565b005b34801561020257600080fd5b5061021d600480360381019061021891906128f8565b6109f1565b60405161022a9190612fa7565b60405180910390f35b34801561023f57600080fd5b5061025a60048036038101906102559190612b50565b610a24565b6040516102679190612fa7565b60405180910390f35b34801561027c57600080fd5b5061029760048036038101906102929190612a90565b610bd0565b6040516102aa9796959493929190612f30565b60405180910390f35b3480156102bf57600080fd5b506102da60048036038101906102d59190612a90565b610e62565b6040516102ef999897969594939291906130f8565b60405180910390f35b34801561030457600080fd5b5061031f600480360381019061031a91906128f8565b610ff8565b005b61033b60048036038101906103369190612b10565b611066565b6040516103489190612fa7565b60405180910390f35b34801561035d57600080fd5b5061037860048036038101906103739190612a90565b61138e565b60405161038b9796959493929190612f30565b60405180910390f35b3480156103a057600080fd5b506103a9611610565b6040516103b691906130dd565b60405180910390f35b6103d960048036038101906103d49190612b10565b611616565b6040516103e69190612fa7565b60405180910390f35b3480156103fb57600080fd5b5061041660048036038101906104119190612a50565b611870565b6040516104239190612f15565b60405180910390f35b34801561043857600080fd5b50610453600480360381019061044e9190612952565b61189e565b6040516104609190612fa7565b60405180910390f35b34801561047557600080fd5b5061047e6118cc565b60405161048b91906130dd565b60405180910390f35b3480156104a057600080fd5b506104bb60048036038101906104b691906128f8565b6118d2565b6040516104c89190612fa7565b60405180910390f35b3480156104dd57600080fd5b506104f860048036038101906104f39190612abd565b611905565b6040516105059190612fa7565b60405180910390f35b34801561051a57600080fd5b50610523612044565b005b34801561053157600080fd5b5061054c60048036038101906105479190612a90565b612070565b604051610561999897969594939291906130f8565b60405180910390f35b34801561057657600080fd5b5061057f612216565b60405161058c9190612fc2565b60405180910390f35b3480156105a157600080fd5b506105bc60048036038101906105b79190612925565b61223a565b6040516105c991906130dd565b60405180910390f35b3480156105de57600080fd5b506105f960048036038101906105f491906128f8565b61225d565b005b34801561060757600080fd5b506106106122cb565b60405161061d9190612fc2565b60405180910390f35b6106507f52454e5445520000000000000000000000000000000000000000000000000000826122ef565b50565b600061065e336109f1565b61069d576040517f08c379a00000000000000000000000000000000000000000000000000000000081526004016106949061303d565b60405180910390fd5b60016003546106ac919061320f565b600680549050106106f2576040517f08c379a00000000000000000000000000000000000000000000000000000000081526004016106e990612ffd565b60405180910390fd5b6003600081548092919061070590613459565b9190505550600060405180610120016040528060035481526020018a815260200189815260200188600681111561073f5761073e6134d1565b5b8152602001878152602001868152602001858152602001848152602001600060018111156107705761076f6134d1565b5b81525090508060056000600354815260200190815260200160002060008201518160000155602082015181600101556040820151816002015560608201518160030160006101000a81548160ff021916908360068111156107d4576107d36134d1565b5b021790555060808201518160040160008201518160000190805190602001906107fe9291906126b9565b50602082015181600101908051906020019061081b9291906126b9565b50505060a0820151816006015560c0820151816007015560e082015181600801556101008201518160090160006101000a81548160ff02191690836001811115610868576108676134d1565b5b021790555090505060068190806001815401808255809150506001900390600052602060002090600a020160009091909190915060008201518160000155602082015181600101556040820151816002015560608201518160030160006101000a81548160ff021916908360068111156108e5576108e46134d1565b5b0217905550608082015181600401600082015181600001908051906020019061090f9291906126b9565b50602082015181600101908051906020019061092c9291906126b9565b50505060a0820151816006015560c0820151816007015560e082015181600801556101008201518160090160006101000a81548160ff02191690836001811115610979576109786134d1565b5b0217905550505060035460068054905014915050979650505050505050565b6109c27f4f574e4552000000000000000000000000000000000000000000000000000000826122ef565b50565b6109ef7f4f574e4552000000000000000000000000000000000000000000000000000000336122ef565b565b6000610a1d7f4f574e45520000000000000000000000000000000000000000000000000000008361189e565b9050919050565b6000610a2f336118d2565b610a6e576040517f08c379a0000000000000000000000000000000000000000000000000000000008152600401610a659061309d565b60405180910390fd5b8360006001811115610a8357610a826134d1565b5b6005600083815260200190815260200160002060090160009054906101000a900460ff166001811115610ab957610ab86134d1565b5b14610af9576040517f08c379a0000000000000000000000000000000000000000000000000000000008152600401610af09061305d565b60405180910390fd5b83600073ffffffffffffffffffffffffffffffffffffffff166007600083815260200190815260200160002060000160009054906101000a900473ffffffffffffffffffffffffffffffffffffffff1673ffffffffffffffffffffffffffffffffffffffff161415610ba0576040517f08c379a0000000000000000000000000000000000000000000000000000000008152600401610b979061307d565b60405180910390fd5b8360076000878152602001908152602001600020600e018190555060045460088054905014925050509392505050565b60088181548110610be057600080fd5b90600052602060002090601102016000915090508060000160009054906101000a900473ffffffffffffffffffffffffffffffffffffffff169080600101604051806101200160405290816000820154815260200160018201548152602001600282015481526020016003820160009054906101000a900460ff166006811115610c6d57610c6c6134d1565b5b6006811115610c7f57610c7e6134d1565b5b815260200160048201604051806040016040529081600082018054610ca3906133f6565b80601f0160208091040260200160405190810160405280929190818152602001828054610ccf906133f6565b8015610d1c5780601f10610cf157610100808354040283529160200191610d1c565b820191906000526020600020905b815481529060010190602001808311610cff57829003601f168201915b50505050508152602001600182018054610d35906133f6565b80601f0160208091040260200160405190810160405280929190818152602001828054610d61906133f6565b8015610dae5780601f10610d8357610100808354040283529160200191610dae565b820191906000526020600020905b815481529060010190602001808311610d9157829003601f168201915b50505050508152505081526020016006820154815260200160078201548152602001600882015481526020016009820160009054906101000a900460ff166001811115610dfe57610dfd6134d1565b5b6001811115610e1057610e0f6134d1565b5b815250509080600b01604051806040016040529081600082015481526020016001820154815250509080600d01549080600e01549080600f0154908060100160009054906101000a900460ff16905087565b60056020528060005260406000206000915090508060000154908060010154908060020154908060030160009054906101000a900460ff169080600401604051806040016040529081600082018054610eba906133f6565b80601f0160208091040260200160405190810160405280929190818152602001828054610ee6906133f6565b8015610f335780601f10610f0857610100808354040283529160200191610f33565b820191906000526020600020905b815481529060010190602001808311610f1657829003601f168201915b50505050508152602001600182018054610f4c906133f6565b80601f0160208091040260200160405190810160405280929190818152602001828054610f78906133f6565b8015610fc55780601f10610f9a57610100808354040283529160200191610fc5565b820191906000526020600020905b815481529060010190602001808311610fa857829003601f168201915b505050505081525050908060060154908060070154908060080154908060090160009054906101000a900460ff16905089565b80600260006101000a81548173ffffffffffffffffffffffffffffffffffffffff021916908373ffffffffffffffffffffffffffffffffffffffff1602179055506110637f4f574e45520000000000000000000000000000000000000000000000000000008261237f565b50565b6000611071336109f1565b6110b0576040517f08c379a00000000000000000000000000000000000000000000000000000000081526004016110a79061303d565b60405180910390fd5b81600060056000838152602001908152602001600020600001541161110a576040517f08c379a0000000000000000000000000000000000000000000000000000000008152600401611101906130bd565b60405180910390fd5b826000600181111561111f5761111e6134d1565b5b6005600083815260200190815260200160002060090160009054906101000a900460ff166001811115611155576111546134d1565b5b14611195576040517f08c379a000000000000000000000000000000000000000000000000000000000815260040161118c9061305d565b60405180910390fd5b84600073ffffffffffffffffffffffffffffffffffffffff166007600083815260200190815260200160002060000160009054906101000a900473ffffffffffffffffffffffffffffffffffffffff1673ffffffffffffffffffffffffffffffffffffffff16141561123c576040517f08c379a00000000000000000000000000000000000000000000000000000000081526004016112339061307d565b60405180910390fd5b85600060076000838152602001908152602001600020600d015460076000848152602001908152602001600020600e0154611277919061320f565b9050803410156112bc576040517f08c379a00000000000000000000000000000000000000000000000000000000081526004016112b39061301d565b60405180910390fd5b6001600760008a815260200190815260200160002060100160006101000a81548160ff021916908360028111156112f6576112f56134d1565b5b021790555060016005600089815260200190815260200160002060090160006101000a81548160ff02191690836001811115611335576113346134d1565b5b02179055506000600760008a8152602001908152602001600020600e0154600760008b8152602001908152602001600020600d0154611374919061320f565b905060045460088054905014965050505050505092915050565b60076020528060005260406000206000915090508060000160009054906101000a900473ffffffffffffffffffffffffffffffffffffffff169080600101604051806101200160405290816000820154815260200160018201548152602001600282015481526020016003820160009054906101000a900460ff16600681111561141b5761141a6134d1565b5b600681111561142d5761142c6134d1565b5b815260200160048201604051806040016040529081600082018054611451906133f6565b80601f016020809104026020016040519081016040528092919081815260200182805461147d906133f6565b80156114ca5780601f1061149f576101008083540402835291602001916114ca565b820191906000526020600020905b8154815290600101906020018083116114ad57829003601f168201915b505050505081526020016001820180546114e3906133f6565b80601f016020809104026020016040519081016040528092919081815260200182805461150f906133f6565b801561155c5780601f106115315761010080835404028352916020019161155c565b820191906000526020600020905b81548152906001019060200180831161153f57829003601f168201915b50505050508152505081526020016006820154815260200160078201548152602001600882015481526020016009820160009054906101000a900460ff1660018111156115ac576115ab6134d1565b5b60018111156115be576115bd6134d1565b5b815250509080600b01604051806040016040529081600082015481526020016001820154815250509080600d01549080600e01549080600f0154908060100160009054906101000a900460ff16905087565b60045481565b6000611621336118d2565b611660576040517f08c379a00000000000000000000000000000000000000000000000000000000081526004016116579061309d565b60405180910390fd5b8160006005600083815260200190815260200160002060000154116116ba576040517f08c379a00000000000000000000000000000000000000000000000000000000081526004016116b1906130bd565b60405180910390fd5b83600073ffffffffffffffffffffffffffffffffffffffff166007600083815260200190815260200160002060000160009054906101000a900473ffffffffffffffffffffffffffffffffffffffff1673ffffffffffffffffffffffffffffffffffffffff161415611761576040517f08c379a00000000000000000000000000000000000000000000000000000000081526004016117589061307d565b60405180910390fd5b84600060076000838152602001908152602001600020600e01549050803410156117c0576040517f08c379a00000000000000000000000000000000000000000000000000000000081526004016117b79061301d565b60405180910390fd5b60026007600089815260200190815260200160002060100160006101000a81548160ff021916908360028111156117fa576117f96134d1565b5b021790555060006005600088815260200190815260200160002060090160006101000a81548160ff02191690836001811115611839576118386134d1565b5b0217905550600060076000898152602001908152602001600020600e01549050600454600880549050149550505050505092915050565b60006118968260008086815260200190815260200160002061240f90919063ffffffff16565b905092915050565b60006118c48260008086815260200190815260200160002061242990919063ffffffff16565b905092915050565b60035481565b60006118fe7f52454e54455200000000000000000000000000000000000000000000000000008361189e565b9050919050565b6000611910336118d2565b61194f576040517f08c379a00000000000000000000000000000000000000000000000000000000081526004016119469061309d565b60405180910390fd5b8360006005600083815260200190815260200160002060000154116119a9576040517f08c379a00000000000000000000000000000000000000000000000000000000081526004016119a0906130bd565b60405180910390fd5b60016004546119b8919061320f565b600880549050106119fe576040517f08c379a00000000000000000000000000000000000000000000000000000000081526004016119f590612fdd565b60405180910390fd5b60046000815480929190611a1190613459565b91905055506000836005600088815260200190815260200160002060080154611a3a9190613265565b905060006040518060e001604052803373ffffffffffffffffffffffffffffffffffffffff168152602001600560008a8152602001908152602001600020604051806101200160405290816000820154815260200160018201548152602001600282015481526020016003820160009054906101000a900460ff166006811115611ac757611ac66134d1565b5b6006811115611ad957611ad86134d1565b5b815260200160048201604051806040016040529081600082018054611afd906133f6565b80601f0160208091040260200160405190810160405280929190818152602001828054611b29906133f6565b8015611b765780601f10611b4b57610100808354040283529160200191611b76565b820191906000526020600020905b815481529060010190602001808311611b5957829003601f168201915b50505050508152602001600182018054611b8f906133f6565b80601f0160208091040260200160405190810160405280929190818152602001828054611bbb906133f6565b8015611c085780601f10611bdd57610100808354040283529160200191611c08565b820191906000526020600020905b815481529060010190602001808311611beb57829003601f168201915b50505050508152505081526020016006820154815260200160078201548152602001600882015481526020016009820160009054906101000a900460ff166001811115611c5857611c576134d1565b5b6001811115611c6a57611c696134d1565b5b8152505081526020018781526020018381526020016000815260200142815260200160006002811115611ca057611c9f6134d1565b5b81525090508060076000600454815260200190815260200160002060008201518160000160006101000a81548173ffffffffffffffffffffffffffffffffffffffff021916908373ffffffffffffffffffffffffffffffffffffffff16021790555060208201518160010160008201518160000155602082015181600101556040820151816002015560608201518160030160006101000a81548160ff02191690836006811115611d5457611d536134d1565b5b02179055506080820151816004016000820151816000019080519060200190611d7e9291906126b9565b506020820151816001019080519060200190611d9b9291906126b9565b50505060a0820151816006015560c0820151816007015560e082015181600801556101008201518160090160006101000a81548160ff02191690836001811115611de857611de76134d1565b5b02179055505050604082015181600b0160008201518160000155602082015181600101555050606082015181600d0155608082015181600e015560a082015181600f015560c08201518160100160006101000a81548160ff02191690836002811115611e5757611e566134d1565b5b0217905550905050600881908060018154018082558091505060019003906000526020600020906011020160009091909190915060008201518160000160006101000a81548173ffffffffffffffffffffffffffffffffffffffff021916908373ffffffffffffffffffffffffffffffffffffffff16021790555060208201518160010160008201518160000155602082015181600101556040820151816002015560608201518160030160006101000a81548160ff02191690836006811115611f2457611f236134d1565b5b02179055506080820151816004016000820151816000019080519060200190611f4e9291906126b9565b506020820151816001019080519060200190611f6b9291906126b9565b50505060a0820151816006015560c0820151816007015560e082015181600801556101008201518160090160006101000a81548160ff02191690836001811115611fb857611fb76134d1565b5b02179055505050604082015181600b0160008201518160000155602082015181600101555050606082015181600d0155608082015181600e015560a082015181600f015560c08201518160100160006101000a81548160ff02191690836002811115612027576120266134d1565b5b021790555050506004546008805490501493505050509392505050565b61206e7f52454e5445520000000000000000000000000000000000000000000000000000336122ef565b565b6006818154811061208057600080fd5b90600052602060002090600a02016000915090508060000154908060010154908060020154908060030160009054906101000a900460ff1690806004016040518060400160405290816000820180546120d8906133f6565b80601f0160208091040260200160405190810160405280929190818152602001828054612104906133f6565b80156121515780601f1061212657610100808354040283529160200191612151565b820191906000526020600020905b81548152906001019060200180831161213457829003601f168201915b5050505050815260200160018201805461216a906133f6565b80601f0160208091040260200160405190810160405280929190818152602001828054612196906133f6565b80156121e35780601f106121b8576101008083540402835291602001916121e3565b820191906000526020600020905b8154815290600101906020018083116121c657829003601f168201915b505050505081525050908060060154908060070154908060080154908060090160009054906101000a900460ff16905089565b7f52454e544552000000000000000000000000000000000000000000000000000081565b6000612256600080848152602001908152602001600020612459565b9050919050565b80600160006101000a81548173ffffffffffffffffffffffffffffffffffffffff021916908373ffffffffffffffffffffffffffffffffffffffff1602179055506122c87f52454e54455200000000000000000000000000000000000000000000000000008261237f565b50565b7f4f574e455200000000000000000000000000000000000000000000000000000081565b6123138160008085815260200190815260200160002061246e90919063ffffffff16565b1561237b5761232061249e565b73ffffffffffffffffffffffffffffffffffffffff168173ffffffffffffffffffffffffffffffffffffffff16837ff6391f5c32d9c69d2a47ea670b442974b53935d1edc7fd64eb21e047a839171b60405160405180910390a45b5050565b6123a3816000808581526020019081526020016000206124a690919063ffffffff16565b1561240b576123b061249e565b73ffffffffffffffffffffffffffffffffffffffff168173ffffffffffffffffffffffffffffffffffffffff16837f2f8788117e7eff1d82e926ec794901d17c78024a50270940304540a733656f0d60405160405180910390a45b5050565b600061241e83600001836124d6565b60001c905092915050565b6000612451836000018373ffffffffffffffffffffffffffffffffffffffff1660001b612501565b905092915050565b600061246782600001612524565b9050919050565b6000612496836000018373ffffffffffffffffffffffffffffffffffffffff1660001b612535565b905092915050565b600033905090565b60006124ce836000018373ffffffffffffffffffffffffffffffffffffffff1660001b612649565b905092915050565b60008260000182815481106124ee576124ed61355e565b5b9060005260206000200154905092915050565b600080836001016000848152602001908152602001600020541415905092915050565b600081600001805490509050919050565b6000808360010160008481526020019081526020016000205490506000811461263d57600060018261256791906132bf565b905060006001866000018054905061257f91906132bf565b90508181146125ee5760008660000182815481106125a05761259f61355e565b5b90600052602060002001549050808760000184815481106125c4576125c361355e565b5b90600052602060002001819055508387600101600083815260200190815260200160002081905550505b856000018054806126025761260161352f565b5b600190038181906000526020600020016000905590558560010160008681526020019081526020016000206000905560019350505050612643565b60009150505b92915050565b60006126558383612501565b6126ae5782600001829080600181540180825580915050600190039060005260206000200160009091909190915055826000018054905083600101600084815260200190815260200160002081905550600190506126b3565b600090505b92915050565b8280546126c5906133f6565b90600052602060002090601f0160209004810192826126e7576000855561272e565b82601f1061270057805160ff191683800117855561272e565b8280016001018555821561272e579182015b8281111561272d578251825591602001919060010190612712565b5b50905061273b919061273f565b5090565b5b80821115612758576000816000905550600101612740565b5090565b600061276f61276a846131b1565b61318c565b90508281526020810184848401111561278b5761278a6135cb565b5b6127968482856133b4565b509392505050565b6000813590506127ad81613853565b92915050565b6000813590506127c28161386a565b92915050565b600082601f8301126127dd576127dc6135bc565b5b81356127ed84826020860161275c565b91505092915050565b60008135905061280581613881565b92915050565b600060408284031215612821576128206135c1565b5b61282b604061318c565b9050600082013567ffffffffffffffff81111561284b5761284a6135c6565b5b612857848285016127c8565b600083015250602082013567ffffffffffffffff81111561287b5761287a6135c6565b5b612887848285016127c8565b60208301525092915050565b6000604082840312156128a9576128a86135c1565b5b6128b3604061318c565b905060006128c3848285016127b3565b60008301525060206128d7848285016127b3565b60208301525092915050565b6000813590506128f281613891565b92915050565b60006020828403121561290e5761290d6135d5565b5b600061291c8482850161279e565b91505092915050565b60006020828403121561293b5761293a6135d5565b5b6000612949848285016127b3565b91505092915050565b60008060408385031215612969576129686135d5565b5b6000612977858286016127b3565b92505060206129888582860161279e565b9150509250929050565b600080600080600080600060e0888a0312156129b1576129b06135d5565b5b60006129bf8a828b016127b3565b97505060206129d08a828b016127b3565b96505060406129e18a828b016127f6565b955050606088013567ffffffffffffffff811115612a0257612a016135d0565b5b612a0e8a828b0161280b565b9450506080612a1f8a828b016128e3565b93505060a0612a308a828b016127b3565b92505060c0612a418a828b016128e3565b91505092959891949750929550565b60008060408385031215612a6757612a666135d5565b5b6000612a75858286016127b3565b9250506020612a86858286016128e3565b9150509250929050565b600060208284031215612aa657612aa56135d5565b5b6000612ab4848285016128e3565b91505092915050565b600080600060808486031215612ad657612ad56135d5565b5b6000612ae4868287016128e3565b9350506020612af586828701612893565b9250506060612b06868287016128e3565b9150509250925092565b60008060408385031215612b2757612b266135d5565b5b6000612b35858286016128e3565b9250506020612b46858286016128e3565b9150509250929050565b600080600060608486031215612b6957612b686135d5565b5b6000612b77868287016128e3565b9350506020612b88868287016128e3565b9250506040612b99868287016128e3565b9150509250925092565b612bac816132f3565b82525050565b612bbb81613305565b82525050565b612bca81613311565b82525050565b612bd981613311565b82525050565b6000612bea826131e2565b612bf481856131ed565b9350612c048185602086016133c3565b612c0d816135da565b840191505092915050565b612c218161337e565b82525050565b612c3081613390565b82525050565b612c3f81613390565b82525050565b612c4e816133a2565b82525050565b612c5d816133a2565b82525050565b6000612c70602e836131fe565b9150612c7b826135eb565b604082019050919050565b6000612c93602d836131fe565b9150612c9e8261363a565b604082019050919050565b6000612cb66040836131fe565b9150612cc182613689565b604082019050919050565b6000612cd96015836131fe565b9150612ce4826136d8565b602082019050919050565b6000612cfc6030836131fe565b9150612d0782613701565b604082019050919050565b6000612d1f603e836131fe565b9150612d2a82613750565b604082019050919050565b6000612d426016836131fe565b9150612d4d8261379f565b602082019050919050565b6000612d65603d836131fe565b9150612d70826137c8565b604082019050919050565b60006040830160008301518482036000860152612d988282612bdf565b91505060208301518482036020860152612db28282612bdf565b9150508091505092915050565b60006040830160008301518482036000860152612ddc8282612bdf565b91505060208301518482036020860152612df68282612bdf565b9150508091505092915050565b604082016000820151612e196000850182612bc1565b506020820151612e2c6020850182612bc1565b50505050565b600061012083016000830151612e4b6000860182612ef7565b506020830151612e5e6020860182612bc1565b506040830151612e716040860182612bc1565b506060830151612e846060860182612c45565b5060808301518482036080860152612e9c8282612d7b565b91505060a0830151612eb160a0860182612ef7565b5060c0830151612ec460c0860182612bc1565b5060e0830151612ed760e0860182612ef7565b50610100830151612eec610100860182612c27565b508091505092915050565b612f0081613374565b82525050565b612f0f81613374565b82525050565b6000602082019050612f2a6000830184612ba3565b92915050565b600061010082019050612f46600083018a612ba3565b8181036020830152612f588189612e32565b9050612f676040830188612e03565b612f746080830187612f06565b612f8160a0830186612f06565b612f8e60c0830185612f06565b612f9b60e0830184612c18565b98975050505050505050565b6000602082019050612fbc6000830184612bb2565b92915050565b6000602082019050612fd76000830184612bd0565b92915050565b60006020820190508181036000830152612ff681612c63565b9050919050565b6000602082019050818103600083015261301681612c86565b9050919050565b6000602082019050818103600083015261303681612ca9565b9050919050565b6000602082019050818103600083015261305681612ccc565b9050919050565b6000602082019050818103600083015261307681612cef565b9050919050565b6000602082019050818103600083015261309681612d12565b9050919050565b600060208201905081810360008301526130b681612d35565b9050919050565b600060208201905081810360008301526130d681612d58565b9050919050565b60006020820190506130f26000830184612f06565b92915050565b60006101208201905061310e600083018c612f06565b61311b602083018b612bd0565b613128604083018a612bd0565b6131356060830189612c54565b81810360808301526131478188612dbf565b905061315660a0830187612f06565b61316360c0830186612bd0565b61317060e0830185612f06565b61317e610100830184612c36565b9a9950505050505050505050565b60006131966131a7565b90506131a28282613428565b919050565b6000604051905090565b600067ffffffffffffffff8211156131cc576131cb61358d565b5b6131d5826135da565b9050602081019050919050565b600081519050919050565b600082825260208201905092915050565b600082825260208201905092915050565b600061321a82613374565b915061322583613374565b9250827fffffffffffffffffffffffffffffffffffffffffffffffffffffffffffffffff0382111561325a576132596134a2565b5b828201905092915050565b600061327082613374565b915061327b83613374565b9250817fffffffffffffffffffffffffffffffffffffffffffffffffffffffffffffffff04831182151516156132b4576132b36134a2565b5b828202905092915050565b60006132ca82613374565b91506132d583613374565b9250828210156132e8576132e76134a2565b5b828203905092915050565b60006132fe82613354565b9050919050565b60008115159050919050565b6000819050919050565b600081905061332982613817565b919050565b600081905061333c8261382b565b919050565b600081905061334f8261383f565b919050565b600073ffffffffffffffffffffffffffffffffffffffff82169050919050565b6000819050919050565b60006133898261331b565b9050919050565b600061339b8261332e565b9050919050565b60006133ad82613341565b9050919050565b82818337600083830152505050565b60005b838110156133e15780820151818401526020810190506133c6565b838111156133f0576000848401525b50505050565b6000600282049050600182168061340e57607f821691505b6020821081141561342257613421613500565b5b50919050565b613431826135da565b810181811067ffffffffffffffff821117156134505761344f61358d565b5b80604052505050565b600061346482613374565b91507fffffffffffffffffffffffffffffffffffffffffffffffffffffffffffffffff821415613497576134966134a2565b5b600182019050919050565b7f4e487b7100000000000000000000000000000000000000000000000000000000600052601160045260246000fd5b7f4e487b7100000000000000000000000000000000000000000000000000000000600052602160045260246000fd5b7f4e487b7100000000000000000000000000000000000000000000000000000000600052602260045260246000fd5b7f4e487b7100000000000000000000000000000000000000000000000000000000600052603160045260246000fd5b7f4e487b7100000000000000000000000000000000000000000000000000000000600052603260045260246000fd5b7f4e487b7100000000000000000000000000000000000000000000000000000000600052604160045260246000fd5b600080fd5b600080fd5b600080fd5b600080fd5b600080fd5b600080fd5b6000601f19601f8301169050919050565b7f54686520666f6c6c6f77696e6720636f6e74726163742068617320616c72656160008201527f6479206265656e2061646465642e000000000000000000000000000000000000602082015250565b7f54686520666f6c6c6f77696e672076656869636c652068617320616c7265616460008201527f79206265656e2061646465642e00000000000000000000000000000000000000602082015250565b7f436f756c64206e6f742070726f6365656420626563617573652074686572652060008201527f6973206e6f7420656e6f7567682045544820696e20796f75722077616c6c6574602082015250565b7f5265737472696374656420746f206f776e6572732e0000000000000000000000600082015250565b7f5468652073656c65637465642076656869636c652069732063757272656e746c60008201527f79206e6f7420617661696c61626c652e00000000000000000000000000000000602082015250565b7f54686520666f6c6c6f77696e6720636f6e747261637420636f756c64206e6f7460008201527f20626520666f756e6420696e20746865206d617070696e67206c6973742e0000602082015250565b7f5265737472696374656420746f2072656e746572732e00000000000000000000600082015250565b7f54686520666f6c6c6f77696e672076656869636c6520636f756c64206e6f742060008201527f626520666f756e6420696e20746865206d617070696e67206c6973742e000000602082015250565b60038110613828576138276134d1565b5b50565b6002811061383c5761383b6134d1565b5b50565b600781106138505761384f6134d1565b5b50565b61385c816132f3565b811461386757600080fd5b50565b61387381613311565b811461387e57600080fd5b50565b6007811061388e57600080fd5b50565b61389a81613374565b81146138a557600080fd5b5056fea2646970667358221220c5f9634c3444e989e31d2d7e92e8be36414e24984288b5a0441987710b21378264736f6c63430008070033",
			"opcodes": "PUSH1 0x80 PUSH1 0x40 MSTORE PUSH1 0x0 PUSH1 0x3 SSTORE PUSH1 0x0 PUSH1 0x4 SSTORE CALLVALUE DUP1 ISZERO PUSH2 0x1A JUMPI PUSH1 0x0 DUP1 REVERT JUMPDEST POP PUSH2 0x38DE DUP1 PUSH2 0x2A PUSH1 0x0 CODECOPY PUSH1 0x0 RETURN INVALID PUSH1 0x80 PUSH1 0x40 MSTORE PUSH1 0x4 CALLDATASIZE LT PUSH2 0x14B JUMPI PUSH1 0x0 CALLDATALOAD PUSH1 0xE0 SHR DUP1 PUSH4 0x87B50547 GT PUSH2 0xB6 JUMPI DUP1 PUSH4 0xA36A5D8D GT PUSH2 0x6F JUMPI DUP1 PUSH4 0xA36A5D8D EQ PUSH2 0x50E JUMPI DUP1 PUSH4 0xB8BA95FA EQ PUSH2 0x525 JUMPI DUP1 PUSH4 0xB97C9F77 EQ PUSH2 0x56A JUMPI DUP1 PUSH4 0xCA15C873 EQ PUSH2 0x595 JUMPI DUP1 PUSH4 0xDE8B1989 EQ PUSH2 0x5D2 JUMPI DUP1 PUSH4 0xE58378BB EQ PUSH2 0x5FB JUMPI PUSH2 0x14B JUMP JUMPDEST DUP1 PUSH4 0x87B50547 EQ PUSH2 0x3BF JUMPI DUP1 PUSH4 0x9010D07C EQ PUSH2 0x3EF JUMPI DUP1 PUSH4 0x91D14854 EQ PUSH2 0x42C JUMPI DUP1 PUSH4 0x99704937 EQ PUSH2 0x469 JUMPI DUP1 PUSH4 0x9F2BC40E EQ PUSH2 0x494 JUMPI DUP1 PUSH4 0xA1A25243 EQ PUSH2 0x4D1 JUMPI PUSH2 0x14B JUMP JUMPDEST DUP1 PUSH4 0x474DA79A GT PUSH2 0x108 JUMPI DUP1 PUSH4 0x474DA79A EQ PUSH2 0x270 JUMPI DUP1 PUSH4 0x69A8F49E EQ PUSH2 0x2B3 JUMPI DUP1 PUSH4 0x7065CB48 EQ PUSH2 0x2F8 JUMPI DUP1 PUSH4 0x79B67CAA EQ PUSH2 0x321 JUMPI DUP1 PUSH4 0x7B66FE2E EQ PUSH2 0x351 JUMPI DUP1 PUSH4 0x8736381A EQ PUSH2 0x394 JUMPI PUSH2 0x14B JUMP JUMPDEST DUP1 PUSH4 0x2AEC3CE EQ PUSH2 0x150 JUMPI DUP1 PUSH4 0x11060EC7 EQ PUSH2 0x179 JUMPI DUP1 PUSH4 0x173825D9 EQ PUSH2 0x1B6 JUMPI DUP1 PUSH4 0x28C23A45 EQ PUSH2 0x1DF JUMPI DUP1 PUSH4 0x2F54BF6E EQ PUSH2 0x1F6 JUMPI DUP1 PUSH4 0x37C3510A EQ PUSH2 0x233 JUMPI JUMPDEST PUSH1 0x0 DUP1 REVERT JUMPDEST CALLVALUE DUP1 ISZERO PUSH2 0x15C JUMPI PUSH1 0x0 DUP1 REVERT JUMPDEST POP PUSH2 0x177 PUSH1 0x4 DUP1 CALLDATASIZE SUB DUP2 ADD SWAP1 PUSH2 0x172 SWAP2 SWAP1 PUSH2 0x28F8 JUMP JUMPDEST PUSH2 0x626 JUMP JUMPDEST STOP JUMPDEST CALLVALUE DUP1 ISZERO PUSH2 0x185 JUMPI PUSH1 0x0 DUP1 REVERT JUMPDEST POP PUSH2 0x1A0 PUSH1 0x4 DUP1 CALLDATASIZE SUB DUP2 ADD SWAP1 PUSH2 0x19B SWAP2 SWAP1 PUSH2 0x2992 JUMP JUMPDEST PUSH2 0x653 JUMP JUMPDEST PUSH1 0x40 MLOAD PUSH2 0x1AD SWAP2 SWAP1 PUSH2 0x2FA7 JUMP JUMPDEST PUSH1 0x40 MLOAD DUP1 SWAP2 SUB SWAP1 RETURN JUMPDEST CALLVALUE DUP1 ISZERO PUSH2 0x1C2 JUMPI PUSH1 0x0 DUP1 REVERT JUMPDEST POP PUSH2 0x1DD PUSH1 0x4 DUP1 CALLDATASIZE SUB DUP2 ADD SWAP1 PUSH2 0x1D8 SWAP2 SWAP1 PUSH2 0x28F8 JUMP JUMPDEST PUSH2 0x998 JUMP JUMPDEST STOP JUMPDEST CALLVALUE DUP1 ISZERO PUSH2 0x1EB JUMPI PUSH1 0x0 DUP1 REVERT JUMPDEST POP PUSH2 0x1F4 PUSH2 0x9C5 JUMP JUMPDEST STOP JUMPDEST CALLVALUE DUP1 ISZERO PUSH2 0x202 JUMPI PUSH1 0x0 DUP1 REVERT JUMPDEST POP PUSH2 0x21D PUSH1 0x4 DUP1 CALLDATASIZE SUB DUP2 ADD SWAP1 PUSH2 0x218 SWAP2 SWAP1 PUSH2 0x28F8 JUMP JUMPDEST PUSH2 0x9F1 JUMP JUMPDEST PUSH1 0x40 MLOAD PUSH2 0x22A SWAP2 SWAP1 PUSH2 0x2FA7 JUMP JUMPDEST PUSH1 0x40 MLOAD DUP1 SWAP2 SUB SWAP1 RETURN JUMPDEST CALLVALUE DUP1 ISZERO PUSH2 0x23F JUMPI PUSH1 0x0 DUP1 REVERT JUMPDEST POP PUSH2 0x25A PUSH1 0x4 DUP1 CALLDATASIZE SUB DUP2 ADD SWAP1 PUSH2 0x255 SWAP2 SWAP1 PUSH2 0x2B50 JUMP JUMPDEST PUSH2 0xA24 JUMP JUMPDEST PUSH1 0x40 MLOAD PUSH2 0x267 SWAP2 SWAP1 PUSH2 0x2FA7 JUMP JUMPDEST PUSH1 0x40 MLOAD DUP1 SWAP2 SUB SWAP1 RETURN JUMPDEST CALLVALUE DUP1 ISZERO PUSH2 0x27C JUMPI PUSH1 0x0 DUP1 REVERT JUMPDEST POP PUSH2 0x297 PUSH1 0x4 DUP1 CALLDATASIZE SUB DUP2 ADD SWAP1 PUSH2 0x292 SWAP2 SWAP1 PUSH2 0x2A90 JUMP JUMPDEST PUSH2 0xBD0 JUMP JUMPDEST PUSH1 0x40 MLOAD PUSH2 0x2AA SWAP8 SWAP7 SWAP6 SWAP5 SWAP4 SWAP3 SWAP2 SWAP1 PUSH2 0x2F30 JUMP JUMPDEST PUSH1 0x40 MLOAD DUP1 SWAP2 SUB SWAP1 RETURN JUMPDEST CALLVALUE DUP1 ISZERO PUSH2 0x2BF JUMPI PUSH1 0x0 DUP1 REVERT JUMPDEST POP PUSH2 0x2DA PUSH1 0x4 DUP1 CALLDATASIZE SUB DUP2 ADD SWAP1 PUSH2 0x2D5 SWAP2 SWAP1 PUSH2 0x2A90 JUMP JUMPDEST PUSH2 0xE62 JUMP JUMPDEST PUSH1 0x40 MLOAD PUSH2 0x2EF SWAP10 SWAP9 SWAP8 SWAP7 SWAP6 SWAP5 SWAP4 SWAP3 SWAP2 SWAP1 PUSH2 0x30F8 JUMP JUMPDEST PUSH1 0x40 MLOAD DUP1 SWAP2 SUB SWAP1 RETURN JUMPDEST CALLVALUE DUP1 ISZERO PUSH2 0x304 JUMPI PUSH1 0x0 DUP1 REVERT JUMPDEST POP PUSH2 0x31F PUSH1 0x4 DUP1 CALLDATASIZE SUB DUP2 ADD SWAP1 PUSH2 0x31A SWAP2 SWAP1 PUSH2 0x28F8 JUMP JUMPDEST PUSH2 0xFF8 JUMP JUMPDEST STOP JUMPDEST PUSH2 0x33B PUSH1 0x4 DUP1 CALLDATASIZE SUB DUP2 ADD SWAP1 PUSH2 0x336 SWAP2 SWAP1 PUSH2 0x2B10 JUMP JUMPDEST PUSH2 0x1066 JUMP JUMPDEST PUSH1 0x40 MLOAD PUSH2 0x348 SWAP2 SWAP1 PUSH2 0x2FA7 JUMP JUMPDEST PUSH1 0x40 MLOAD DUP1 SWAP2 SUB SWAP1 RETURN JUMPDEST CALLVALUE DUP1 ISZERO PUSH2 0x35D JUMPI PUSH1 0x0 DUP1 REVERT JUMPDEST POP PUSH2 0x378 PUSH1 0x4 DUP1 CALLDATASIZE SUB DUP2 ADD SWAP1 PUSH2 0x373 SWAP2 SWAP1 PUSH2 0x2A90 JUMP JUMPDEST PUSH2 0x138E JUMP JUMPDEST PUSH1 0x40 MLOAD PUSH2 0x38B SWAP8 SWAP7 SWAP6 SWAP5 SWAP4 SWAP3 SWAP2 SWAP1 PUSH2 0x2F30 JUMP JUMPDEST PUSH1 0x40 MLOAD DUP1 SWAP2 SUB SWAP1 RETURN JUMPDEST CALLVALUE DUP1 ISZERO PUSH2 0x3A0 JUMPI PUSH1 0x0 DUP1 REVERT JUMPDEST POP PUSH2 0x3A9 PUSH2 0x1610 JUMP JUMPDEST PUSH1 0x40 MLOAD PUSH2 0x3B6 SWAP2 SWAP1 PUSH2 0x30DD JUMP JUMPDEST PUSH1 0x40 MLOAD DUP1 SWAP2 SUB SWAP1 RETURN JUMPDEST PUSH2 0x3D9 PUSH1 0x4 DUP1 CALLDATASIZE SUB DUP2 ADD SWAP1 PUSH2 0x3D4 SWAP2 SWAP1 PUSH2 0x2B10 JUMP JUMPDEST PUSH2 0x1616 JUMP JUMPDEST PUSH1 0x40 MLOAD PUSH2 0x3E6 SWAP2 SWAP1 PUSH2 0x2FA7 JUMP JUMPDEST PUSH1 0x40 MLOAD DUP1 SWAP2 SUB SWAP1 RETURN JUMPDEST CALLVALUE DUP1 ISZERO PUSH2 0x3FB JUMPI PUSH1 0x0 DUP1 REVERT JUMPDEST POP PUSH2 0x416 PUSH1 0x4 DUP1 CALLDATASIZE SUB DUP2 ADD SWAP1 PUSH2 0x411 SWAP2 SWAP1 PUSH2 0x2A50 JUMP JUMPDEST PUSH2 0x1870 JUMP JUMPDEST PUSH1 0x40 MLOAD PUSH2 0x423 SWAP2 SWAP1 PUSH2 0x2F15 JUMP JUMPDEST PUSH1 0x40 MLOAD DUP1 SWAP2 SUB SWAP1 RETURN JUMPDEST CALLVALUE DUP1 ISZERO PUSH2 0x438 JUMPI PUSH1 0x0 DUP1 REVERT JUMPDEST POP PUSH2 0x453 PUSH1 0x4 DUP1 CALLDATASIZE SUB DUP2 ADD SWAP1 PUSH2 0x44E SWAP2 SWAP1 PUSH2 0x2952 JUMP JUMPDEST PUSH2 0x189E JUMP JUMPDEST PUSH1 0x40 MLOAD PUSH2 0x460 SWAP2 SWAP1 PUSH2 0x2FA7 JUMP JUMPDEST PUSH1 0x40 MLOAD DUP1 SWAP2 SUB SWAP1 RETURN JUMPDEST CALLVALUE DUP1 ISZERO PUSH2 0x475 JUMPI PUSH1 0x0 DUP1 REVERT JUMPDEST POP PUSH2 0x47E PUSH2 0x18CC JUMP JUMPDEST PUSH1 0x40 MLOAD PUSH2 0x48B SWAP2 SWAP1 PUSH2 0x30DD JUMP JUMPDEST PUSH1 0x40 MLOAD DUP1 SWAP2 SUB SWAP1 RETURN JUMPDEST CALLVALUE DUP1 ISZERO PUSH2 0x4A0 JUMPI PUSH1 0x0 DUP1 REVERT JUMPDEST POP PUSH2 0x4BB PUSH1 0x4 DUP1 CALLDATASIZE SUB DUP2 ADD SWAP1 PUSH2 0x4B6 SWAP2 SWAP1 PUSH2 0x28F8 JUMP JUMPDEST PUSH2 0x18D2 JUMP JUMPDEST PUSH1 0x40 MLOAD PUSH2 0x4C8 SWAP2 SWAP1 PUSH2 0x2FA7 JUMP JUMPDEST PUSH1 0x40 MLOAD DUP1 SWAP2 SUB SWAP1 RETURN JUMPDEST CALLVALUE DUP1 ISZERO PUSH2 0x4DD JUMPI PUSH1 0x0 DUP1 REVERT JUMPDEST POP PUSH2 0x4F8 PUSH1 0x4 DUP1 CALLDATASIZE SUB DUP2 ADD SWAP1 PUSH2 0x4F3 SWAP2 SWAP1 PUSH2 0x2ABD JUMP JUMPDEST PUSH2 0x1905 JUMP JUMPDEST PUSH1 0x40 MLOAD PUSH2 0x505 SWAP2 SWAP1 PUSH2 0x2FA7 JUMP JUMPDEST PUSH1 0x40 MLOAD DUP1 SWAP2 SUB SWAP1 RETURN JUMPDEST CALLVALUE DUP1 ISZERO PUSH2 0x51A JUMPI PUSH1 0x0 DUP1 REVERT JUMPDEST POP PUSH2 0x523 PUSH2 0x2044 JUMP JUMPDEST STOP JUMPDEST CALLVALUE DUP1 ISZERO PUSH2 0x531 JUMPI PUSH1 0x0 DUP1 REVERT JUMPDEST POP PUSH2 0x54C PUSH1 0x4 DUP1 CALLDATASIZE SUB DUP2 ADD SWAP1 PUSH2 0x547 SWAP2 SWAP1 PUSH2 0x2A90 JUMP JUMPDEST PUSH2 0x2070 JUMP JUMPDEST PUSH1 0x40 MLOAD PUSH2 0x561 SWAP10 SWAP9 SWAP8 SWAP7 SWAP6 SWAP5 SWAP4 SWAP3 SWAP2 SWAP1 PUSH2 0x30F8 JUMP JUMPDEST PUSH1 0x40 MLOAD DUP1 SWAP2 SUB SWAP1 RETURN JUMPDEST CALLVALUE DUP1 ISZERO PUSH2 0x576 JUMPI PUSH1 0x0 DUP1 REVERT JUMPDEST POP PUSH2 0x57F PUSH2 0x2216 JUMP JUMPDEST PUSH1 0x40 MLOAD PUSH2 0x58C SWAP2 SWAP1 PUSH2 0x2FC2 JUMP JUMPDEST PUSH1 0x40 MLOAD DUP1 SWAP2 SUB SWAP1 RETURN JUMPDEST CALLVALUE DUP1 ISZERO PUSH2 0x5A1 JUMPI PUSH1 0x0 DUP1 REVERT JUMPDEST POP PUSH2 0x5BC PUSH1 0x4 DUP1 CALLDATASIZE SUB DUP2 ADD SWAP1 PUSH2 0x5B7 SWAP2 SWAP1 PUSH2 0x2925 JUMP JUMPDEST PUSH2 0x223A JUMP JUMPDEST PUSH1 0x40 MLOAD PUSH2 0x5C9 SWAP2 SWAP1 PUSH2 0x30DD JUMP JUMPDEST PUSH1 0x40 MLOAD DUP1 SWAP2 SUB SWAP1 RETURN JUMPDEST CALLVALUE DUP1 ISZERO PUSH2 0x5DE JUMPI PUSH1 0x0 DUP1 REVERT JUMPDEST POP PUSH2 0x5F9 PUSH1 0x4 DUP1 CALLDATASIZE SUB DUP2 ADD SWAP1 PUSH2 0x5F4 SWAP2 SWAP1 PUSH2 0x28F8 JUMP JUMPDEST PUSH2 0x225D JUMP JUMPDEST STOP JUMPDEST CALLVALUE DUP1 ISZERO PUSH2 0x607 JUMPI PUSH1 0x0 DUP1 REVERT JUMPDEST POP PUSH2 0x610 PUSH2 0x22CB JUMP JUMPDEST PUSH1 0x40 MLOAD PUSH2 0x61D SWAP2 SWAP1 PUSH2 0x2FC2 JUMP JUMPDEST PUSH1 0x40 MLOAD DUP1 SWAP2 SUB SWAP1 RETURN JUMPDEST PUSH2 0x650 PUSH32 0x52454E5445520000000000000000000000000000000000000000000000000000 DUP3 PUSH2 0x22EF JUMP JUMPDEST POP JUMP JUMPDEST PUSH1 0x0 PUSH2 0x65E CALLER PUSH2 0x9F1 JUMP JUMPDEST PUSH2 0x69D JUMPI PUSH1 0x40 MLOAD PUSH32 0x8C379A000000000000000000000000000000000000000000000000000000000 DUP2 MSTORE PUSH1 0x4 ADD PUSH2 0x694 SWAP1 PUSH2 0x303D JUMP JUMPDEST PUSH1 0x40 MLOAD DUP1 SWAP2 SUB SWAP1 REVERT JUMPDEST PUSH1 0x1 PUSH1 0x3 SLOAD PUSH2 0x6AC SWAP2 SWAP1 PUSH2 0x320F JUMP JUMPDEST PUSH1 0x6 DUP1 SLOAD SWAP1 POP LT PUSH2 0x6F2 JUMPI PUSH1 0x40 MLOAD PUSH32 0x8C379A000000000000000000000000000000000000000000000000000000000 DUP2 MSTORE PUSH1 0x4 ADD PUSH2 0x6E9 SWAP1 PUSH2 0x2FFD JUMP JUMPDEST PUSH1 0x40 MLOAD DUP1 SWAP2 SUB SWAP1 REVERT JUMPDEST PUSH1 0x3 PUSH1 0x0 DUP2 SLOAD DUP1 SWAP3 SWAP2 SWAP1 PUSH2 0x705 SWAP1 PUSH2 0x3459 JUMP JUMPDEST SWAP2 SWAP1 POP SSTORE POP PUSH1 0x0 PUSH1 0x40 MLOAD DUP1 PUSH2 0x120 ADD PUSH1 0x40 MSTORE DUP1 PUSH1 0x3 SLOAD DUP2 MSTORE PUSH1 0x20 ADD DUP11 DUP2 MSTORE PUSH1 0x20 ADD DUP10 DUP2 MSTORE PUSH1 0x20 ADD DUP9 PUSH1 0x6 DUP2 GT ISZERO PUSH2 0x73F JUMPI PUSH2 0x73E PUSH2 0x34D1 JUMP JUMPDEST JUMPDEST DUP2 MSTORE PUSH1 0x20 ADD DUP8 DUP2 MSTORE PUSH1 0x20 ADD DUP7 DUP2 MSTORE PUSH1 0x20 ADD DUP6 DUP2 MSTORE PUSH1 0x20 ADD DUP5 DUP2 MSTORE PUSH1 0x20 ADD PUSH1 0x0 PUSH1 0x1 DUP2 GT ISZERO PUSH2 0x770 JUMPI PUSH2 0x76F PUSH2 0x34D1 JUMP JUMPDEST JUMPDEST DUP2 MSTORE POP SWAP1 POP DUP1 PUSH1 0x5 PUSH1 0x0 PUSH1 0x3 SLOAD DUP2 MSTORE PUSH1 0x20 ADD SWAP1 DUP2 MSTORE PUSH1 0x20 ADD PUSH1 0x0 KECCAK256 PUSH1 0x0 DUP3 ADD MLOAD DUP2 PUSH1 0x0 ADD SSTORE PUSH1 0x20 DUP3 ADD MLOAD DUP2 PUSH1 0x1 ADD SSTORE PUSH1 0x40 DUP3 ADD MLOAD DUP2 PUSH1 0x2 ADD SSTORE PUSH1 0x60 DUP3 ADD MLOAD DUP2 PUSH1 0x3 ADD PUSH1 0x0 PUSH2 0x100 EXP DUP2 SLOAD DUP2 PUSH1 0xFF MUL NOT AND SWAP1 DUP4 PUSH1 0x6 DUP2 GT ISZERO PUSH2 0x7D4 JUMPI PUSH2 0x7D3 PUSH2 0x34D1 JUMP JUMPDEST JUMPDEST MUL OR SWAP1 SSTORE POP PUSH1 0x80 DUP3 ADD MLOAD DUP2 PUSH1 0x4 ADD PUSH1 0x0 DUP3 ADD MLOAD DUP2 PUSH1 0x0 ADD SWAP1 DUP1 MLOAD SWAP1 PUSH1 0x20 ADD SWAP1 PUSH2 0x7FE SWAP3 SWAP2 SWAP1 PUSH2 0x26B9 JUMP JUMPDEST POP PUSH1 0x20 DUP3 ADD MLOAD DUP2 PUSH1 0x1 ADD SWAP1 DUP1 MLOAD SWAP1 PUSH1 0x20 ADD SWAP1 PUSH2 0x81B SWAP3 SWAP2 SWAP1 PUSH2 0x26B9 JUMP JUMPDEST POP POP POP PUSH1 0xA0 DUP3 ADD MLOAD DUP2 PUSH1 0x6 ADD SSTORE PUSH1 0xC0 DUP3 ADD MLOAD DUP2 PUSH1 0x7 ADD SSTORE PUSH1 0xE0 DUP3 ADD MLOAD DUP2 PUSH1 0x8 ADD SSTORE PUSH2 0x100 DUP3 ADD MLOAD DUP2 PUSH1 0x9 ADD PUSH1 0x0 PUSH2 0x100 EXP DUP2 SLOAD DUP2 PUSH1 0xFF MUL NOT AND SWAP1 DUP4 PUSH1 0x1 DUP2 GT ISZERO PUSH2 0x868 JUMPI PUSH2 0x867 PUSH2 0x34D1 JUMP JUMPDEST JUMPDEST MUL OR SWAP1 SSTORE POP SWAP1 POP POP PUSH1 0x6 DUP2 SWAP1 DUP1 PUSH1 0x1 DUP2 SLOAD ADD DUP1 DUP3 SSTORE DUP1 SWAP2 POP POP PUSH1 0x1 SWAP1 SUB SWAP1 PUSH1 0x0 MSTORE PUSH1 0x20 PUSH1 0x0 KECCAK256 SWAP1 PUSH1 0xA MUL ADD PUSH1 0x0 SWAP1 SWAP2 SWAP1 SWAP2 SWAP1 SWAP2 POP PUSH1 0x0 DUP3 ADD MLOAD DUP2 PUSH1 0x0 ADD SSTORE PUSH1 0x20 DUP3 ADD MLOAD DUP2 PUSH1 0x1 ADD SSTORE PUSH1 0x40 DUP3 ADD MLOAD DUP2 PUSH1 0x2 ADD SSTORE PUSH1 0x60 DUP3 ADD MLOAD DUP2 PUSH1 0x3 ADD PUSH1 0x0 PUSH2 0x100 EXP DUP2 SLOAD DUP2 PUSH1 0xFF MUL NOT AND SWAP1 DUP4 PUSH1 0x6 DUP2 GT ISZERO PUSH2 0x8E5 JUMPI PUSH2 0x8E4 PUSH2 0x34D1 JUMP JUMPDEST JUMPDEST MUL OR SWAP1 SSTORE POP PUSH1 0x80 DUP3 ADD MLOAD DUP2 PUSH1 0x4 ADD PUSH1 0x0 DUP3 ADD MLOAD DUP2 PUSH1 0x0 ADD SWAP1 DUP1 MLOAD SWAP1 PUSH1 0x20 ADD SWAP1 PUSH2 0x90F SWAP3 SWAP2 SWAP1 PUSH2 0x26B9 JUMP JUMPDEST POP PUSH1 0x20 DUP3 ADD MLOAD DUP2 PUSH1 0x1 ADD SWAP1 DUP1 MLOAD SWAP1 PUSH1 0x20 ADD SWAP1 PUSH2 0x92C SWAP3 SWAP2 SWAP1 PUSH2 0x26B9 JUMP JUMPDEST POP POP POP PUSH1 0xA0 DUP3 ADD MLOAD DUP2 PUSH1 0x6 ADD SSTORE PUSH1 0xC0 DUP3 ADD MLOAD DUP2 PUSH1 0x7 ADD SSTORE PUSH1 0xE0 DUP3 ADD MLOAD DUP2 PUSH1 0x8 ADD SSTORE PUSH2 0x100 DUP3 ADD MLOAD DUP2 PUSH1 0x9 ADD PUSH1 0x0 PUSH2 0x100 EXP DUP2 SLOAD DUP2 PUSH1 0xFF MUL NOT AND SWAP1 DUP4 PUSH1 0x1 DUP2 GT ISZERO PUSH2 0x979 JUMPI PUSH2 0x978 PUSH2 0x34D1 JUMP JUMPDEST JUMPDEST MUL OR SWAP1 SSTORE POP POP POP PUSH1 0x3 SLOAD PUSH1 0x6 DUP1 SLOAD SWAP1 POP EQ SWAP2 POP POP SWAP8 SWAP7 POP POP POP POP POP POP POP JUMP JUMPDEST PUSH2 0x9C2 PUSH32 0x4F574E4552000000000000000000000000000000000000000000000000000000 DUP3 PUSH2 0x22EF JUMP JUMPDEST POP JUMP JUMPDEST PUSH2 0x9EF PUSH32 0x4F574E4552000000000000000000000000000000000000000000000000000000 CALLER PUSH2 0x22EF JUMP JUMPDEST JUMP JUMPDEST PUSH1 0x0 PUSH2 0xA1D PUSH32 0x4F574E4552000000000000000000000000000000000000000000000000000000 DUP4 PUSH2 0x189E JUMP JUMPDEST SWAP1 POP SWAP2 SWAP1 POP JUMP JUMPDEST PUSH1 0x0 PUSH2 0xA2F CALLER PUSH2 0x18D2 JUMP JUMPDEST PUSH2 0xA6E JUMPI PUSH1 0x40 MLOAD PUSH32 0x8C379A000000000000000000000000000000000000000000000000000000000 DUP2 MSTORE PUSH1 0x4 ADD PUSH2 0xA65 SWAP1 PUSH2 0x309D JUMP JUMPDEST PUSH1 0x40 MLOAD DUP1 SWAP2 SUB SWAP1 REVERT JUMPDEST DUP4 PUSH1 0x0 PUSH1 0x1 DUP2 GT ISZERO PUSH2 0xA83 JUMPI PUSH2 0xA82 PUSH2 0x34D1 JUMP JUMPDEST JUMPDEST PUSH1 0x5 PUSH1 0x0 DUP4 DUP2 MSTORE PUSH1 0x20 ADD SWAP1 DUP2 MSTORE PUSH1 0x20 ADD PUSH1 0x0 KECCAK256 PUSH1 0x9 ADD PUSH1 0x0 SWAP1 SLOAD SWAP1 PUSH2 0x100 EXP SWAP1 DIV PUSH1 0xFF AND PUSH1 0x1 DUP2 GT ISZERO PUSH2 0xAB9 JUMPI PUSH2 0xAB8 PUSH2 0x34D1 JUMP JUMPDEST JUMPDEST EQ PUSH2 0xAF9 JUMPI PUSH1 0x40 MLOAD PUSH32 0x8C379A000000000000000000000000000000000000000000000000000000000 DUP2 MSTORE PUSH1 0x4 ADD PUSH2 0xAF0 SWAP1 PUSH2 0x305D JUMP JUMPDEST PUSH1 0x40 MLOAD DUP1 SWAP2 SUB SWAP1 REVERT JUMPDEST DUP4 PUSH1 0x0 PUSH20 0xFFFFFFFFFFFFFFFFFFFFFFFFFFFFFFFFFFFFFFFF AND PUSH1 0x7 PUSH1 0x0 DUP4 DUP2 MSTORE PUSH1 0x20 ADD SWAP1 DUP2 MSTORE PUSH1 0x20 ADD PUSH1 0x0 KECCAK256 PUSH1 0x0 ADD PUSH1 0x0 SWAP1 SLOAD SWAP1 PUSH2 0x100 EXP SWAP1 DIV PUSH20 0xFFFFFFFFFFFFFFFFFFFFFFFFFFFFFFFFFFFFFFFF AND PUSH20 0xFFFFFFFFFFFFFFFFFFFFFFFFFFFFFFFFFFFFFFFF AND EQ ISZERO PUSH2 0xBA0 JUMPI PUSH1 0x40 MLOAD PUSH32 0x8C379A000000000000000000000000000000000000000000000000000000000 DUP2 MSTORE PUSH1 0x4 ADD PUSH2 0xB97 SWAP1 PUSH2 0x307D JUMP JUMPDEST PUSH1 0x40 MLOAD DUP1 SWAP2 SUB SWAP1 REVERT JUMPDEST DUP4 PUSH1 0x7 PUSH1 0x0 DUP8 DUP2 MSTORE PUSH1 0x20 ADD SWAP1 DUP2 MSTORE PUSH1 0x20 ADD PUSH1 0x0 KECCAK256 PUSH1 0xE ADD DUP2 SWAP1 SSTORE POP PUSH1 0x4 SLOAD PUSH1 0x8 DUP1 SLOAD SWAP1 POP EQ SWAP3 POP POP POP SWAP4 SWAP3 POP POP POP JUMP JUMPDEST PUSH1 0x8 DUP2 DUP2 SLOAD DUP2 LT PUSH2 0xBE0 JUMPI PUSH1 0x0 DUP1 REVERT JUMPDEST SWAP1 PUSH1 0x0 MSTORE PUSH1 0x20 PUSH1 0x0 KECCAK256 SWAP1 PUSH1 0x11 MUL ADD PUSH1 0x0 SWAP2 POP SWAP1 POP DUP1 PUSH1 0x0 ADD PUSH1 0x0 SWAP1 SLOAD SWAP1 PUSH2 0x100 EXP SWAP1 DIV PUSH20 0xFFFFFFFFFFFFFFFFFFFFFFFFFFFFFFFFFFFFFFFF AND SWAP1 DUP1 PUSH1 0x1 ADD PUSH1 0x40 MLOAD DUP1 PUSH2 0x120 ADD PUSH1 0x40 MSTORE SWAP1 DUP2 PUSH1 0x0 DUP3 ADD SLOAD DUP2 MSTORE PUSH1 0x20 ADD PUSH1 0x1 DUP3 ADD SLOAD DUP2 MSTORE PUSH1 0x20 ADD PUSH1 0x2 DUP3 ADD SLOAD DUP2 MSTORE PUSH1 0x20 ADD PUSH1 0x3 DUP3 ADD PUSH1 0x0 SWAP1 SLOAD SWAP1 PUSH2 0x100 EXP SWAP1 DIV PUSH1 0xFF AND PUSH1 0x6 DUP2 GT ISZERO PUSH2 0xC6D JUMPI PUSH2 0xC6C PUSH2 0x34D1 JUMP JUMPDEST JUMPDEST PUSH1 0x6 DUP2 GT ISZERO PUSH2 0xC7F JUMPI PUSH2 0xC7E PUSH2 0x34D1 JUMP JUMPDEST JUMPDEST DUP2 MSTORE PUSH1 0x20 ADD PUSH1 0x4 DUP3 ADD PUSH1 0x40 MLOAD DUP1 PUSH1 0x40 ADD PUSH1 0x40 MSTORE SWAP1 DUP2 PUSH1 0x0 DUP3 ADD DUP1 SLOAD PUSH2 0xCA3 SWAP1 PUSH2 0x33F6 JUMP JUMPDEST DUP1 PUSH1 0x1F ADD PUSH1 0x20 DUP1 SWAP2 DIV MUL PUSH1 0x20 ADD PUSH1 0x40 MLOAD SWAP1 DUP2 ADD PUSH1 0x40 MSTORE DUP1 SWAP3 SWAP2 SWAP1 DUP2 DUP2 MSTORE PUSH1 0x20 ADD DUP3 DUP1 SLOAD PUSH2 0xCCF SWAP1 PUSH2 0x33F6 JUMP JUMPDEST DUP1 ISZERO PUSH2 0xD1C JUMPI DUP1 PUSH1 0x1F LT PUSH2 0xCF1 JUMPI PUSH2 0x100 DUP1 DUP4 SLOAD DIV MUL DUP4 MSTORE SWAP2 PUSH1 0x20 ADD SWAP2 PUSH2 0xD1C JUMP JUMPDEST DUP3 ADD SWAP2 SWAP1 PUSH1 0x0 MSTORE PUSH1 0x20 PUSH1 0x0 KECCAK256 SWAP1 JUMPDEST DUP2 SLOAD DUP2 MSTORE SWAP1 PUSH1 0x1 ADD SWAP1 PUSH1 0x20 ADD DUP1 DUP4 GT PUSH2 0xCFF JUMPI DUP3 SWAP1 SUB PUSH1 0x1F AND DUP3 ADD SWAP2 JUMPDEST POP POP POP POP POP DUP2 MSTORE PUSH1 0x20 ADD PUSH1 0x1 DUP3 ADD DUP1 SLOAD PUSH2 0xD35 SWAP1 PUSH2 0x33F6 JUMP JUMPDEST DUP1 PUSH1 0x1F ADD PUSH1 0x20 DUP1 SWAP2 DIV MUL PUSH1 0x20 ADD PUSH1 0x40 MLOAD SWAP1 DUP2 ADD PUSH1 0x40 MSTORE DUP1 SWAP3 SWAP2 SWAP1 DUP2 DUP2 MSTORE PUSH1 0x20 ADD DUP3 DUP1 SLOAD PUSH2 0xD61 SWAP1 PUSH2 0x33F6 JUMP JUMPDEST DUP1 ISZERO PUSH2 0xDAE JUMPI DUP1 PUSH1 0x1F LT PUSH2 0xD83 JUMPI PUSH2 0x100 DUP1 DUP4 SLOAD DIV MUL DUP4 MSTORE SWAP2 PUSH1 0x20 ADD SWAP2 PUSH2 0xDAE JUMP JUMPDEST DUP3 ADD SWAP2 SWAP1 PUSH1 0x0 MSTORE PUSH1 0x20 PUSH1 0x0 KECCAK256 SWAP1 JUMPDEST DUP2 SLOAD DUP2 MSTORE SWAP1 PUSH1 0x1 ADD SWAP1 PUSH1 0x20 ADD DUP1 DUP4 GT PUSH2 0xD91 JUMPI DUP3 SWAP1 SUB PUSH1 0x1F AND DUP3 ADD SWAP2 JUMPDEST POP POP POP POP POP DUP2 MSTORE POP POP DUP2 MSTORE PUSH1 0x20 ADD PUSH1 0x6 DUP3 ADD SLOAD DUP2 MSTORE PUSH1 0x20 ADD PUSH1 0x7 DUP3 ADD SLOAD DUP2 MSTORE PUSH1 0x20 ADD PUSH1 0x8 DUP3 ADD SLOAD DUP2 MSTORE PUSH1 0x20 ADD PUSH1 0x9 DUP3 ADD PUSH1 0x0 SWAP1 SLOAD SWAP1 PUSH2 0x100 EXP SWAP1 DIV PUSH1 0xFF AND PUSH1 0x1 DUP2 GT ISZERO PUSH2 0xDFE JUMPI PUSH2 0xDFD PUSH2 0x34D1 JUMP JUMPDEST JUMPDEST PUSH1 0x1 DUP2 GT ISZERO PUSH2 0xE10 JUMPI PUSH2 0xE0F PUSH2 0x34D1 JUMP JUMPDEST JUMPDEST DUP2 MSTORE POP POP SWAP1 DUP1 PUSH1 0xB ADD PUSH1 0x40 MLOAD DUP1 PUSH1 0x40 ADD PUSH1 0x40 MSTORE SWAP1 DUP2 PUSH1 0x0 DUP3 ADD SLOAD DUP2 MSTORE PUSH1 0x20 ADD PUSH1 0x1 DUP3 ADD SLOAD DUP2 MSTORE POP POP SWAP1 DUP1 PUSH1 0xD ADD SLOAD SWAP1 DUP1 PUSH1 0xE ADD SLOAD SWAP1 DUP1 PUSH1 0xF ADD SLOAD SWAP1 DUP1 PUSH1 0x10 ADD PUSH1 0x0 SWAP1 SLOAD SWAP1 PUSH2 0x100 EXP SWAP1 DIV PUSH1 0xFF AND SWAP1 POP DUP8 JUMP JUMPDEST PUSH1 0x5 PUSH1 0x20 MSTORE DUP1 PUSH1 0x0 MSTORE PUSH1 0x40 PUSH1 0x0 KECCAK256 PUSH1 0x0 SWAP2 POP SWAP1 POP DUP1 PUSH1 0x0 ADD SLOAD SWAP1 DUP1 PUSH1 0x1 ADD SLOAD SWAP1 DUP1 PUSH1 0x2 ADD SLOAD SWAP1 DUP1 PUSH1 0x3 ADD PUSH1 0x0 SWAP1 SLOAD SWAP1 PUSH2 0x100 EXP SWAP1 DIV PUSH1 0xFF AND SWAP1 DUP1 PUSH1 0x4 ADD PUSH1 0x40 MLOAD DUP1 PUSH1 0x40 ADD PUSH1 0x40 MSTORE SWAP1 DUP2 PUSH1 0x0 DUP3 ADD DUP1 SLOAD PUSH2 0xEBA SWAP1 PUSH2 0x33F6 JUMP JUMPDEST DUP1 PUSH1 0x1F ADD PUSH1 0x20 DUP1 SWAP2 DIV MUL PUSH1 0x20 ADD PUSH1 0x40 MLOAD SWAP1 DUP2 ADD PUSH1 0x40 MSTORE DUP1 SWAP3 SWAP2 SWAP1 DUP2 DUP2 MSTORE PUSH1 0x20 ADD DUP3 DUP1 SLOAD PUSH2 0xEE6 SWAP1 PUSH2 0x33F6 JUMP JUMPDEST DUP1 ISZERO PUSH2 0xF33 JUMPI DUP1 PUSH1 0x1F LT PUSH2 0xF08 JUMPI PUSH2 0x100 DUP1 DUP4 SLOAD DIV MUL DUP4 MSTORE SWAP2 PUSH1 0x20 ADD SWAP2 PUSH2 0xF33 JUMP JUMPDEST DUP3 ADD SWAP2 SWAP1 PUSH1 0x0 MSTORE PUSH1 0x20 PUSH1 0x0 KECCAK256 SWAP1 JUMPDEST DUP2 SLOAD DUP2 MSTORE SWAP1 PUSH1 0x1 ADD SWAP1 PUSH1 0x20 ADD DUP1 DUP4 GT PUSH2 0xF16 JUMPI DUP3 SWAP1 SUB PUSH1 0x1F AND DUP3 ADD SWAP2 JUMPDEST POP POP POP POP POP DUP2 MSTORE PUSH1 0x20 ADD PUSH1 0x1 DUP3 ADD DUP1 SLOAD PUSH2 0xF4C SWAP1 PUSH2 0x33F6 JUMP JUMPDEST DUP1 PUSH1 0x1F ADD PUSH1 0x20 DUP1 SWAP2 DIV MUL PUSH1 0x20 ADD PUSH1 0x40 MLOAD SWAP1 DUP2 ADD PUSH1 0x40 MSTORE DUP1 SWAP3 SWAP2 SWAP1 DUP2 DUP2 MSTORE PUSH1 0x20 ADD DUP3 DUP1 SLOAD PUSH2 0xF78 SWAP1 PUSH2 0x33F6 JUMP JUMPDEST DUP1 ISZERO PUSH2 0xFC5 JUMPI DUP1 PUSH1 0x1F LT PUSH2 0xF9A JUMPI PUSH2 0x100 DUP1 DUP4 SLOAD DIV MUL DUP4 MSTORE SWAP2 PUSH1 0x20 ADD SWAP2 PUSH2 0xFC5 JUMP JUMPDEST DUP3 ADD SWAP2 SWAP1 PUSH1 0x0 MSTORE PUSH1 0x20 PUSH1 0x0 KECCAK256 SWAP1 JUMPDEST DUP2 SLOAD DUP2 MSTORE SWAP1 PUSH1 0x1 ADD SWAP1 PUSH1 0x20 ADD DUP1 DUP4 GT PUSH2 0xFA8 JUMPI DUP3 SWAP1 SUB PUSH1 0x1F AND DUP3 ADD SWAP2 JUMPDEST POP POP POP POP POP DUP2 MSTORE POP POP SWAP1 DUP1 PUSH1 0x6 ADD SLOAD SWAP1 DUP1 PUSH1 0x7 ADD SLOAD SWAP1 DUP1 PUSH1 0x8 ADD SLOAD SWAP1 DUP1 PUSH1 0x9 ADD PUSH1 0x0 SWAP1 SLOAD SWAP1 PUSH2 0x100 EXP SWAP1 DIV PUSH1 0xFF AND SWAP1 POP DUP10 JUMP JUMPDEST DUP1 PUSH1 0x2 PUSH1 0x0 PUSH2 0x100 EXP DUP2 SLOAD DUP2 PUSH20 0xFFFFFFFFFFFFFFFFFFFFFFFFFFFFFFFFFFFFFFFF MUL NOT AND SWAP1 DUP4 PUSH20 0xFFFFFFFFFFFFFFFFFFFFFFFFFFFFFFFFFFFFFFFF AND MUL OR SWAP1 SSTORE POP PUSH2 0x1063 PUSH32 0x4F574E4552000000000000000000000000000000000000000000000000000000 DUP3 PUSH2 0x237F JUMP JUMPDEST POP JUMP JUMPDEST PUSH1 0x0 PUSH2 0x1071 CALLER PUSH2 0x9F1 JUMP JUMPDEST PUSH2 0x10B0 JUMPI PUSH1 0x40 MLOAD PUSH32 0x8C379A000000000000000000000000000000000000000000000000000000000 DUP2 MSTORE PUSH1 0x4 ADD PUSH2 0x10A7 SWAP1 PUSH2 0x303D JUMP JUMPDEST PUSH1 0x40 MLOAD DUP1 SWAP2 SUB SWAP1 REVERT JUMPDEST DUP2 PUSH1 0x0 PUSH1 0x5 PUSH1 0x0 DUP4 DUP2 MSTORE PUSH1 0x20 ADD SWAP1 DUP2 MSTORE PUSH1 0x20 ADD PUSH1 0x0 KECCAK256 PUSH1 0x0 ADD SLOAD GT PUSH2 0x110A JUMPI PUSH1 0x40 MLOAD PUSH32 0x8C379A000000000000000000000000000000000000000000000000000000000 DUP2 MSTORE PUSH1 0x4 ADD PUSH2 0x1101 SWAP1 PUSH2 0x30BD JUMP JUMPDEST PUSH1 0x40 MLOAD DUP1 SWAP2 SUB SWAP1 REVERT JUMPDEST DUP3 PUSH1 0x0 PUSH1 0x1 DUP2 GT ISZERO PUSH2 0x111F JUMPI PUSH2 0x111E PUSH2 0x34D1 JUMP JUMPDEST JUMPDEST PUSH1 0x5 PUSH1 0x0 DUP4 DUP2 MSTORE PUSH1 0x20 ADD SWAP1 DUP2 MSTORE PUSH1 0x20 ADD PUSH1 0x0 KECCAK256 PUSH1 0x9 ADD PUSH1 0x0 SWAP1 SLOAD SWAP1 PUSH2 0x100 EXP SWAP1 DIV PUSH1 0xFF AND PUSH1 0x1 DUP2 GT ISZERO PUSH2 0x1155 JUMPI PUSH2 0x1154 PUSH2 0x34D1 JUMP JUMPDEST JUMPDEST EQ PUSH2 0x1195 JUMPI PUSH1 0x40 MLOAD PUSH32 0x8C379A000000000000000000000000000000000000000000000000000000000 DUP2 MSTORE PUSH1 0x4 ADD PUSH2 0x118C SWAP1 PUSH2 0x305D JUMP JUMPDEST PUSH1 0x40 MLOAD DUP1 SWAP2 SUB SWAP1 REVERT JUMPDEST DUP5 PUSH1 0x0 PUSH20 0xFFFFFFFFFFFFFFFFFFFFFFFFFFFFFFFFFFFFFFFF AND PUSH1 0x7 PUSH1 0x0 DUP4 DUP2 MSTORE PUSH1 0x20 ADD SWAP1 DUP2 MSTORE PUSH1 0x20 ADD PUSH1 0x0 KECCAK256 PUSH1 0x0 ADD PUSH1 0x0 SWAP1 SLOAD SWAP1 PUSH2 0x100 EXP SWAP1 DIV PUSH20 0xFFFFFFFFFFFFFFFFFFFFFFFFFFFFFFFFFFFFFFFF AND PUSH20 0xFFFFFFFFFFFFFFFFFFFFFFFFFFFFFFFFFFFFFFFF AND EQ ISZERO PUSH2 0x123C JUMPI PUSH1 0x40 MLOAD PUSH32 0x8C379A000000000000000000000000000000000000000000000000000000000 DUP2 MSTORE PUSH1 0x4 ADD PUSH2 0x1233 SWAP1 PUSH2 0x307D JUMP JUMPDEST PUSH1 0x40 MLOAD DUP1 SWAP2 SUB SWAP1 REVERT JUMPDEST DUP6 PUSH1 0x0 PUSH1 0x7 PUSH1 0x0 DUP4 DUP2 MSTORE PUSH1 0x20 ADD SWAP1 DUP2 MSTORE PUSH1 0x20 ADD PUSH1 0x0 KECCAK256 PUSH1 0xD ADD SLOAD PUSH1 0x7 PUSH1 0x0 DUP5 DUP2 MSTORE PUSH1 0x20 ADD SWAP1 DUP2 MSTORE PUSH1 0x20 ADD PUSH1 0x0 KECCAK256 PUSH1 0xE ADD SLOAD PUSH2 0x1277 SWAP2 SWAP1 PUSH2 0x320F JUMP JUMPDEST SWAP1 POP DUP1 CALLVALUE LT ISZERO PUSH2 0x12BC JUMPI PUSH1 0x40 MLOAD PUSH32 0x8C379A000000000000000000000000000000000000000000000000000000000 DUP2 MSTORE PUSH1 0x4 ADD PUSH2 0x12B3 SWAP1 PUSH2 0x301D JUMP JUMPDEST PUSH1 0x40 MLOAD DUP1 SWAP2 SUB SWAP1 REVERT JUMPDEST PUSH1 0x1 PUSH1 0x7 PUSH1 0x0 DUP11 DUP2 MSTORE PUSH1 0x20 ADD SWAP1 DUP2 MSTORE PUSH1 0x20 ADD PUSH1 0x0 KECCAK256 PUSH1 0x10 ADD PUSH1 0x0 PUSH2 0x100 EXP DUP2 SLOAD DUP2 PUSH1 0xFF MUL NOT AND SWAP1 DUP4 PUSH1 0x2 DUP2 GT ISZERO PUSH2 0x12F6 JUMPI PUSH2 0x12F5 PUSH2 0x34D1 JUMP JUMPDEST JUMPDEST MUL OR SWAP1 SSTORE POP PUSH1 0x1 PUSH1 0x5 PUSH1 0x0 DUP10 DUP2 MSTORE PUSH1 0x20 ADD SWAP1 DUP2 MSTORE PUSH1 0x20 ADD PUSH1 0x0 KECCAK256 PUSH1 0x9 ADD PUSH1 0x0 PUSH2 0x100 EXP DUP2 SLOAD DUP2 PUSH1 0xFF MUL NOT AND SWAP1 DUP4 PUSH1 0x1 DUP2 GT ISZERO PUSH2 0x1335 JUMPI PUSH2 0x1334 PUSH2 0x34D1 JUMP JUMPDEST JUMPDEST MUL OR SWAP1 SSTORE POP PUSH1 0x0 PUSH1 0x7 PUSH1 0x0 DUP11 DUP2 MSTORE PUSH1 0x20 ADD SWAP1 DUP2 MSTORE PUSH1 0x20 ADD PUSH1 0x0 KECCAK256 PUSH1 0xE ADD SLOAD PUSH1 0x7 PUSH1 0x0 DUP12 DUP2 MSTORE PUSH1 0x20 ADD SWAP1 DUP2 MSTORE PUSH1 0x20 ADD PUSH1 0x0 KECCAK256 PUSH1 0xD ADD SLOAD PUSH2 0x1374 SWAP2 SWAP1 PUSH2 0x320F JUMP JUMPDEST SWAP1 POP PUSH1 0x4 SLOAD PUSH1 0x8 DUP1 SLOAD SWAP1 POP EQ SWAP7 POP POP POP POP POP POP POP SWAP3 SWAP2 POP POP JUMP JUMPDEST PUSH1 0x7 PUSH1 0x20 MSTORE DUP1 PUSH1 0x0 MSTORE PUSH1 0x40 PUSH1 0x0 KECCAK256 PUSH1 0x0 SWAP2 POP SWAP1 POP DUP1 PUSH1 0x0 ADD PUSH1 0x0 SWAP1 SLOAD SWAP1 PUSH2 0x100 EXP SWAP1 DIV PUSH20 0xFFFFFFFFFFFFFFFFFFFFFFFFFFFFFFFFFFFFFFFF AND SWAP1 DUP1 PUSH1 0x1 ADD PUSH1 0x40 MLOAD DUP1 PUSH2 0x120 ADD PUSH1 0x40 MSTORE SWAP1 DUP2 PUSH1 0x0 DUP3 ADD SLOAD DUP2 MSTORE PUSH1 0x20 ADD PUSH1 0x1 DUP3 ADD SLOAD DUP2 MSTORE PUSH1 0x20 ADD PUSH1 0x2 DUP3 ADD SLOAD DUP2 MSTORE PUSH1 0x20 ADD PUSH1 0x3 DUP3 ADD PUSH1 0x0 SWAP1 SLOAD SWAP1 PUSH2 0x100 EXP SWAP1 DIV PUSH1 0xFF AND PUSH1 0x6 DUP2 GT ISZERO PUSH2 0x141B JUMPI PUSH2 0x141A PUSH2 0x34D1 JUMP JUMPDEST JUMPDEST PUSH1 0x6 DUP2 GT ISZERO PUSH2 0x142D JUMPI PUSH2 0x142C PUSH2 0x34D1 JUMP JUMPDEST JUMPDEST DUP2 MSTORE PUSH1 0x20 ADD PUSH1 0x4 DUP3 ADD PUSH1 0x40 MLOAD DUP1 PUSH1 0x40 ADD PUSH1 0x40 MSTORE SWAP1 DUP2 PUSH1 0x0 DUP3 ADD DUP1 SLOAD PUSH2 0x1451 SWAP1 PUSH2 0x33F6 JUMP JUMPDEST DUP1 PUSH1 0x1F ADD PUSH1 0x20 DUP1 SWAP2 DIV MUL PUSH1 0x20 ADD PUSH1 0x40 MLOAD SWAP1 DUP2 ADD PUSH1 0x40 MSTORE DUP1 SWAP3 SWAP2 SWAP1 DUP2 DUP2 MSTORE PUSH1 0x20 ADD DUP3 DUP1 SLOAD PUSH2 0x147D SWAP1 PUSH2 0x33F6 JUMP JUMPDEST DUP1 ISZERO PUSH2 0x14CA JUMPI DUP1 PUSH1 0x1F LT PUSH2 0x149F JUMPI PUSH2 0x100 DUP1 DUP4 SLOAD DIV MUL DUP4 MSTORE SWAP2 PUSH1 0x20 ADD SWAP2 PUSH2 0x14CA JUMP JUMPDEST DUP3 ADD SWAP2 SWAP1 PUSH1 0x0 MSTORE PUSH1 0x20 PUSH1 0x0 KECCAK256 SWAP1 JUMPDEST DUP2 SLOAD DUP2 MSTORE SWAP1 PUSH1 0x1 ADD SWAP1 PUSH1 0x20 ADD DUP1 DUP4 GT PUSH2 0x14AD JUMPI DUP3 SWAP1 SUB PUSH1 0x1F AND DUP3 ADD SWAP2 JUMPDEST POP POP POP POP POP DUP2 MSTORE PUSH1 0x20 ADD PUSH1 0x1 DUP3 ADD DUP1 SLOAD PUSH2 0x14E3 SWAP1 PUSH2 0x33F6 JUMP JUMPDEST DUP1 PUSH1 0x1F ADD PUSH1 0x20 DUP1 SWAP2 DIV MUL PUSH1 0x20 ADD PUSH1 0x40 MLOAD SWAP1 DUP2 ADD PUSH1 0x40 MSTORE DUP1 SWAP3 SWAP2 SWAP1 DUP2 DUP2 MSTORE PUSH1 0x20 ADD DUP3 DUP1 SLOAD PUSH2 0x150F SWAP1 PUSH2 0x33F6 JUMP JUMPDEST DUP1 ISZERO PUSH2 0x155C JUMPI DUP1 PUSH1 0x1F LT PUSH2 0x1531 JUMPI PUSH2 0x100 DUP1 DUP4 SLOAD DIV MUL DUP4 MSTORE SWAP2 PUSH1 0x20 ADD SWAP2 PUSH2 0x155C JUMP JUMPDEST DUP3 ADD SWAP2 SWAP1 PUSH1 0x0 MSTORE PUSH1 0x20 PUSH1 0x0 KECCAK256 SWAP1 JUMPDEST DUP2 SLOAD DUP2 MSTORE SWAP1 PUSH1 0x1 ADD SWAP1 PUSH1 0x20 ADD DUP1 DUP4 GT PUSH2 0x153F JUMPI DUP3 SWAP1 SUB PUSH1 0x1F AND DUP3 ADD SWAP2 JUMPDEST POP POP POP POP POP DUP2 MSTORE POP POP DUP2 MSTORE PUSH1 0x20 ADD PUSH1 0x6 DUP3 ADD SLOAD DUP2 MSTORE PUSH1 0x20 ADD PUSH1 0x7 DUP3 ADD SLOAD DUP2 MSTORE PUSH1 0x20 ADD PUSH1 0x8 DUP3 ADD SLOAD DUP2 MSTORE PUSH1 0x20 ADD PUSH1 0x9 DUP3 ADD PUSH1 0x0 SWAP1 SLOAD SWAP1 PUSH2 0x100 EXP SWAP1 DIV PUSH1 0xFF AND PUSH1 0x1 DUP2 GT ISZERO PUSH2 0x15AC JUMPI PUSH2 0x15AB PUSH2 0x34D1 JUMP JUMPDEST JUMPDEST PUSH1 0x1 DUP2 GT ISZERO PUSH2 0x15BE JUMPI PUSH2 0x15BD PUSH2 0x34D1 JUMP JUMPDEST JUMPDEST DUP2 MSTORE POP POP SWAP1 DUP1 PUSH1 0xB ADD PUSH1 0x40 MLOAD DUP1 PUSH1 0x40 ADD PUSH1 0x40 MSTORE SWAP1 DUP2 PUSH1 0x0 DUP3 ADD SLOAD DUP2 MSTORE PUSH1 0x20 ADD PUSH1 0x1 DUP3 ADD SLOAD DUP2 MSTORE POP POP SWAP1 DUP1 PUSH1 0xD ADD SLOAD SWAP1 DUP1 PUSH1 0xE ADD SLOAD SWAP1 DUP1 PUSH1 0xF ADD SLOAD SWAP1 DUP1 PUSH1 0x10 ADD PUSH1 0x0 SWAP1 SLOAD SWAP1 PUSH2 0x100 EXP SWAP1 DIV PUSH1 0xFF AND SWAP1 POP DUP8 JUMP JUMPDEST PUSH1 0x4 SLOAD DUP2 JUMP JUMPDEST PUSH1 0x0 PUSH2 0x1621 CALLER PUSH2 0x18D2 JUMP JUMPDEST PUSH2 0x1660 JUMPI PUSH1 0x40 MLOAD PUSH32 0x8C379A000000000000000000000000000000000000000000000000000000000 DUP2 MSTORE PUSH1 0x4 ADD PUSH2 0x1657 SWAP1 PUSH2 0x309D JUMP JUMPDEST PUSH1 0x40 MLOAD DUP1 SWAP2 SUB SWAP1 REVERT JUMPDEST DUP2 PUSH1 0x0 PUSH1 0x5 PUSH1 0x0 DUP4 DUP2 MSTORE PUSH1 0x20 ADD SWAP1 DUP2 MSTORE PUSH1 0x20 ADD PUSH1 0x0 KECCAK256 PUSH1 0x0 ADD SLOAD GT PUSH2 0x16BA JUMPI PUSH1 0x40 MLOAD PUSH32 0x8C379A000000000000000000000000000000000000000000000000000000000 DUP2 MSTORE PUSH1 0x4 ADD PUSH2 0x16B1 SWAP1 PUSH2 0x30BD JUMP JUMPDEST PUSH1 0x40 MLOAD DUP1 SWAP2 SUB SWAP1 REVERT JUMPDEST DUP4 PUSH1 0x0 PUSH20 0xFFFFFFFFFFFFFFFFFFFFFFFFFFFFFFFFFFFFFFFF AND PUSH1 0x7 PUSH1 0x0 DUP4 DUP2 MSTORE PUSH1 0x20 ADD SWAP1 DUP2 MSTORE PUSH1 0x20 ADD PUSH1 0x0 KECCAK256 PUSH1 0x0 ADD PUSH1 0x0 SWAP1 SLOAD SWAP1 PUSH2 0x100 EXP SWAP1 DIV PUSH20 0xFFFFFFFFFFFFFFFFFFFFFFFFFFFFFFFFFFFFFFFF AND PUSH20 0xFFFFFFFFFFFFFFFFFFFFFFFFFFFFFFFFFFFFFFFF AND EQ ISZERO PUSH2 0x1761 JUMPI PUSH1 0x40 MLOAD PUSH32 0x8C379A000000000000000000000000000000000000000000000000000000000 DUP2 MSTORE PUSH1 0x4 ADD PUSH2 0x1758 SWAP1 PUSH2 0x307D JUMP JUMPDEST PUSH1 0x40 MLOAD DUP1 SWAP2 SUB SWAP1 REVERT JUMPDEST DUP5 PUSH1 0x0 PUSH1 0x7 PUSH1 0x0 DUP4 DUP2 MSTORE PUSH1 0x20 ADD SWAP1 DUP2 MSTORE PUSH1 0x20 ADD PUSH1 0x0 KECCAK256 PUSH1 0xE ADD SLOAD SWAP1 POP DUP1 CALLVALUE LT ISZERO PUSH2 0x17C0 JUMPI PUSH1 0x40 MLOAD PUSH32 0x8C379A000000000000000000000000000000000000000000000000000000000 DUP2 MSTORE PUSH1 0x4 ADD PUSH2 0x17B7 SWAP1 PUSH2 0x301D JUMP JUMPDEST PUSH1 0x40 MLOAD DUP1 SWAP2 SUB SWAP1 REVERT JUMPDEST PUSH1 0x2 PUSH1 0x7 PUSH1 0x0 DUP10 DUP2 MSTORE PUSH1 0x20 ADD SWAP1 DUP2 MSTORE PUSH1 0x20 ADD PUSH1 0x0 KECCAK256 PUSH1 0x10 ADD PUSH1 0x0 PUSH2 0x100 EXP DUP2 SLOAD DUP2 PUSH1 0xFF MUL NOT AND SWAP1 DUP4 PUSH1 0x2 DUP2 GT ISZERO PUSH2 0x17FA JUMPI PUSH2 0x17F9 PUSH2 0x34D1 JUMP JUMPDEST JUMPDEST MUL OR SWAP1 SSTORE POP PUSH1 0x0 PUSH1 0x5 PUSH1 0x0 DUP9 DUP2 MSTORE PUSH1 0x20 ADD SWAP1 DUP2 MSTORE PUSH1 0x20 ADD PUSH1 0x0 KECCAK256 PUSH1 0x9 ADD PUSH1 0x0 PUSH2 0x100 EXP DUP2 SLOAD DUP2 PUSH1 0xFF MUL NOT AND SWAP1 DUP4 PUSH1 0x1 DUP2 GT ISZERO PUSH2 0x1839 JUMPI PUSH2 0x1838 PUSH2 0x34D1 JUMP JUMPDEST JUMPDEST MUL OR SWAP1 SSTORE POP PUSH1 0x0 PUSH1 0x7 PUSH1 0x0 DUP10 DUP2 MSTORE PUSH1 0x20 ADD SWAP1 DUP2 MSTORE PUSH1 0x20 ADD PUSH1 0x0 KECCAK256 PUSH1 0xE ADD SLOAD SWAP1 POP PUSH1 0x4 SLOAD PUSH1 0x8 DUP1 SLOAD SWAP1 POP EQ SWAP6 POP POP POP POP POP POP SWAP3 SWAP2 POP POP JUMP JUMPDEST PUSH1 0x0 PUSH2 0x1896 DUP3 PUSH1 0x0 DUP1 DUP7 DUP2 MSTORE PUSH1 0x20 ADD SWAP1 DUP2 MSTORE PUSH1 0x20 ADD PUSH1 0x0 KECCAK256 PUSH2 0x240F SWAP1 SWAP2 SWAP1 PUSH4 0xFFFFFFFF AND JUMP JUMPDEST SWAP1 POP SWAP3 SWAP2 POP POP JUMP JUMPDEST PUSH1 0x0 PUSH2 0x18C4 DUP3 PUSH1 0x0 DUP1 DUP7 DUP2 MSTORE PUSH1 0x20 ADD SWAP1 DUP2 MSTORE PUSH1 0x20 ADD PUSH1 0x0 KECCAK256 PUSH2 0x2429 SWAP1 SWAP2 SWAP1 PUSH4 0xFFFFFFFF AND JUMP JUMPDEST SWAP1 POP SWAP3 SWAP2 POP POP JUMP JUMPDEST PUSH1 0x3 SLOAD DUP2 JUMP JUMPDEST PUSH1 0x0 PUSH2 0x18FE PUSH32 0x52454E5445520000000000000000000000000000000000000000000000000000 DUP4 PUSH2 0x189E JUMP JUMPDEST SWAP1 POP SWAP2 SWAP1 POP JUMP JUMPDEST PUSH1 0x0 PUSH2 0x1910 CALLER PUSH2 0x18D2 JUMP JUMPDEST PUSH2 0x194F JUMPI PUSH1 0x40 MLOAD PUSH32 0x8C379A000000000000000000000000000000000000000000000000000000000 DUP2 MSTORE PUSH1 0x4 ADD PUSH2 0x1946 SWAP1 PUSH2 0x309D JUMP JUMPDEST PUSH1 0x40 MLOAD DUP1 SWAP2 SUB SWAP1 REVERT JUMPDEST DUP4 PUSH1 0x0 PUSH1 0x5 PUSH1 0x0 DUP4 DUP2 MSTORE PUSH1 0x20 ADD SWAP1 DUP2 MSTORE PUSH1 0x20 ADD PUSH1 0x0 KECCAK256 PUSH1 0x0 ADD SLOAD GT PUSH2 0x19A9 JUMPI PUSH1 0x40 MLOAD PUSH32 0x8C379A000000000000000000000000000000000000000000000000000000000 DUP2 MSTORE PUSH1 0x4 ADD PUSH2 0x19A0 SWAP1 PUSH2 0x30BD JUMP JUMPDEST PUSH1 0x40 MLOAD DUP1 SWAP2 SUB SWAP1 REVERT JUMPDEST PUSH1 0x1 PUSH1 0x4 SLOAD PUSH2 0x19B8 SWAP2 SWAP1 PUSH2 0x320F JUMP JUMPDEST PUSH1 0x8 DUP1 SLOAD SWAP1 POP LT PUSH2 0x19FE JUMPI PUSH1 0x40 MLOAD PUSH32 0x8C379A000000000000000000000000000000000000000000000000000000000 DUP2 MSTORE PUSH1 0x4 ADD PUSH2 0x19F5 SWAP1 PUSH2 0x2FDD JUMP JUMPDEST PUSH1 0x40 MLOAD DUP1 SWAP2 SUB SWAP1 REVERT JUMPDEST PUSH1 0x4 PUSH1 0x0 DUP2 SLOAD DUP1 SWAP3 SWAP2 SWAP1 PUSH2 0x1A11 SWAP1 PUSH2 0x3459 JUMP JUMPDEST SWAP2 SWAP1 POP SSTORE POP PUSH1 0x0 DUP4 PUSH1 0x5 PUSH1 0x0 DUP9 DUP2 MSTORE PUSH1 0x20 ADD SWAP1 DUP2 MSTORE PUSH1 0x20 ADD PUSH1 0x0 KECCAK256 PUSH1 0x8 ADD SLOAD PUSH2 0x1A3A SWAP2 SWAP1 PUSH2 0x3265 JUMP JUMPDEST SWAP1 POP PUSH1 0x0 PUSH1 0x40 MLOAD DUP1 PUSH1 0xE0 ADD PUSH1 0x40 MSTORE DUP1 CALLER PUSH20 0xFFFFFFFFFFFFFFFFFFFFFFFFFFFFFFFFFFFFFFFF AND DUP2 MSTORE PUSH1 0x20 ADD PUSH1 0x5 PUSH1 0x0 DUP11 DUP2 MSTORE PUSH1 0x20 ADD SWAP1 DUP2 MSTORE PUSH1 0x20 ADD PUSH1 0x0 KECCAK256 PUSH1 0x40 MLOAD DUP1 PUSH2 0x120 ADD PUSH1 0x40 MSTORE SWAP1 DUP2 PUSH1 0x0 DUP3 ADD SLOAD DUP2 MSTORE PUSH1 0x20 ADD PUSH1 0x1 DUP3 ADD SLOAD DUP2 MSTORE PUSH1 0x20 ADD PUSH1 0x2 DUP3 ADD SLOAD DUP2 MSTORE PUSH1 0x20 ADD PUSH1 0x3 DUP3 ADD PUSH1 0x0 SWAP1 SLOAD SWAP1 PUSH2 0x100 EXP SWAP1 DIV PUSH1 0xFF AND PUSH1 0x6 DUP2 GT ISZERO PUSH2 0x1AC7 JUMPI PUSH2 0x1AC6 PUSH2 0x34D1 JUMP JUMPDEST JUMPDEST PUSH1 0x6 DUP2 GT ISZERO PUSH2 0x1AD9 JUMPI PUSH2 0x1AD8 PUSH2 0x34D1 JUMP JUMPDEST JUMPDEST DUP2 MSTORE PUSH1 0x20 ADD PUSH1 0x4 DUP3 ADD PUSH1 0x40 MLOAD DUP1 PUSH1 0x40 ADD PUSH1 0x40 MSTORE SWAP1 DUP2 PUSH1 0x0 DUP3 ADD DUP1 SLOAD PUSH2 0x1AFD SWAP1 PUSH2 0x33F6 JUMP JUMPDEST DUP1 PUSH1 0x1F ADD PUSH1 0x20 DUP1 SWAP2 DIV MUL PUSH1 0x20 ADD PUSH1 0x40 MLOAD SWAP1 DUP2 ADD PUSH1 0x40 MSTORE DUP1 SWAP3 SWAP2 SWAP1 DUP2 DUP2 MSTORE PUSH1 0x20 ADD DUP3 DUP1 SLOAD PUSH2 0x1B29 SWAP1 PUSH2 0x33F6 JUMP JUMPDEST DUP1 ISZERO PUSH2 0x1B76 JUMPI DUP1 PUSH1 0x1F LT PUSH2 0x1B4B JUMPI PUSH2 0x100 DUP1 DUP4 SLOAD DIV MUL DUP4 MSTORE SWAP2 PUSH1 0x20 ADD SWAP2 PUSH2 0x1B76 JUMP JUMPDEST DUP3 ADD SWAP2 SWAP1 PUSH1 0x0 MSTORE PUSH1 0x20 PUSH1 0x0 KECCAK256 SWAP1 JUMPDEST DUP2 SLOAD DUP2 MSTORE SWAP1 PUSH1 0x1 ADD SWAP1 PUSH1 0x20 ADD DUP1 DUP4 GT PUSH2 0x1B59 JUMPI DUP3 SWAP1 SUB PUSH1 0x1F AND DUP3 ADD SWAP2 JUMPDEST POP POP POP POP POP DUP2 MSTORE PUSH1 0x20 ADD PUSH1 0x1 DUP3 ADD DUP1 SLOAD PUSH2 0x1B8F SWAP1 PUSH2 0x33F6 JUMP JUMPDEST DUP1 PUSH1 0x1F ADD PUSH1 0x20 DUP1 SWAP2 DIV MUL PUSH1 0x20 ADD PUSH1 0x40 MLOAD SWAP1 DUP2 ADD PUSH1 0x40 MSTORE DUP1 SWAP3 SWAP2 SWAP1 DUP2 DUP2 MSTORE PUSH1 0x20 ADD DUP3 DUP1 SLOAD PUSH2 0x1BBB SWAP1 PUSH2 0x33F6 JUMP JUMPDEST DUP1 ISZERO PUSH2 0x1C08 JUMPI DUP1 PUSH1 0x1F LT PUSH2 0x1BDD JUMPI PUSH2 0x100 DUP1 DUP4 SLOAD DIV MUL DUP4 MSTORE SWAP2 PUSH1 0x20 ADD SWAP2 PUSH2 0x1C08 JUMP JUMPDEST DUP3 ADD SWAP2 SWAP1 PUSH1 0x0 MSTORE PUSH1 0x20 PUSH1 0x0 KECCAK256 SWAP1 JUMPDEST DUP2 SLOAD DUP2 MSTORE SWAP1 PUSH1 0x1 ADD SWAP1 PUSH1 0x20 ADD DUP1 DUP4 GT PUSH2 0x1BEB JUMPI DUP3 SWAP1 SUB PUSH1 0x1F AND DUP3 ADD SWAP2 JUMPDEST POP POP POP POP POP DUP2 MSTORE POP POP DUP2 MSTORE PUSH1 0x20 ADD PUSH1 0x6 DUP3 ADD SLOAD DUP2 MSTORE PUSH1 0x20 ADD PUSH1 0x7 DUP3 ADD SLOAD DUP2 MSTORE PUSH1 0x20 ADD PUSH1 0x8 DUP3 ADD SLOAD DUP2 MSTORE PUSH1 0x20 ADD PUSH1 0x9 DUP3 ADD PUSH1 0x0 SWAP1 SLOAD SWAP1 PUSH2 0x100 EXP SWAP1 DIV PUSH1 0xFF AND PUSH1 0x1 DUP2 GT ISZERO PUSH2 0x1C58 JUMPI PUSH2 0x1C57 PUSH2 0x34D1 JUMP JUMPDEST JUMPDEST PUSH1 0x1 DUP2 GT ISZERO PUSH2 0x1C6A JUMPI PUSH2 0x1C69 PUSH2 0x34D1 JUMP JUMPDEST JUMPDEST DUP2 MSTORE POP POP DUP2 MSTORE PUSH1 0x20 ADD DUP8 DUP2 MSTORE PUSH1 0x20 ADD DUP4 DUP2 MSTORE PUSH1 0x20 ADD PUSH1 0x0 DUP2 MSTORE PUSH1 0x20 ADD TIMESTAMP DUP2 MSTORE PUSH1 0x20 ADD PUSH1 0x0 PUSH1 0x2 DUP2 GT ISZERO PUSH2 0x1CA0 JUMPI PUSH2 0x1C9F PUSH2 0x34D1 JUMP JUMPDEST JUMPDEST DUP2 MSTORE POP SWAP1 POP DUP1 PUSH1 0x7 PUSH1 0x0 PUSH1 0x4 SLOAD DUP2 MSTORE PUSH1 0x20 ADD SWAP1 DUP2 MSTORE PUSH1 0x20 ADD PUSH1 0x0 KECCAK256 PUSH1 0x0 DUP3 ADD MLOAD DUP2 PUSH1 0x0 ADD PUSH1 0x0 PUSH2 0x100 EXP DUP2 SLOAD DUP2 PUSH20 0xFFFFFFFFFFFFFFFFFFFFFFFFFFFFFFFFFFFFFFFF MUL NOT AND SWAP1 DUP4 PUSH20 0xFFFFFFFFFFFFFFFFFFFFFFFFFFFFFFFFFFFFFFFF AND MUL OR SWAP1 SSTORE POP PUSH1 0x20 DUP3 ADD MLOAD DUP2 PUSH1 0x1 ADD PUSH1 0x0 DUP3 ADD MLOAD DUP2 PUSH1 0x0 ADD SSTORE PUSH1 0x20 DUP3 ADD MLOAD DUP2 PUSH1 0x1 ADD SSTORE PUSH1 0x40 DUP3 ADD MLOAD DUP2 PUSH1 0x2 ADD SSTORE PUSH1 0x60 DUP3 ADD MLOAD DUP2 PUSH1 0x3 ADD PUSH1 0x0 PUSH2 0x100 EXP DUP2 SLOAD DUP2 PUSH1 0xFF MUL NOT AND SWAP1 DUP4 PUSH1 0x6 DUP2 GT ISZERO PUSH2 0x1D54 JUMPI PUSH2 0x1D53 PUSH2 0x34D1 JUMP JUMPDEST JUMPDEST MUL OR SWAP1 SSTORE POP PUSH1 0x80 DUP3 ADD MLOAD DUP2 PUSH1 0x4 ADD PUSH1 0x0 DUP3 ADD MLOAD DUP2 PUSH1 0x0 ADD SWAP1 DUP1 MLOAD SWAP1 PUSH1 0x20 ADD SWAP1 PUSH2 0x1D7E SWAP3 SWAP2 SWAP1 PUSH2 0x26B9 JUMP JUMPDEST POP PUSH1 0x20 DUP3 ADD MLOAD DUP2 PUSH1 0x1 ADD SWAP1 DUP1 MLOAD SWAP1 PUSH1 0x20 ADD SWAP1 PUSH2 0x1D9B SWAP3 SWAP2 SWAP1 PUSH2 0x26B9 JUMP JUMPDEST POP POP POP PUSH1 0xA0 DUP3 ADD MLOAD DUP2 PUSH1 0x6 ADD SSTORE PUSH1 0xC0 DUP3 ADD MLOAD DUP2 PUSH1 0x7 ADD SSTORE PUSH1 0xE0 DUP3 ADD MLOAD DUP2 PUSH1 0x8 ADD SSTORE PUSH2 0x100 DUP3 ADD MLOAD DUP2 PUSH1 0x9 ADD PUSH1 0x0 PUSH2 0x100 EXP DUP2 SLOAD DUP2 PUSH1 0xFF MUL NOT AND SWAP1 DUP4 PUSH1 0x1 DUP2 GT ISZERO PUSH2 0x1DE8 JUMPI PUSH2 0x1DE7 PUSH2 0x34D1 JUMP JUMPDEST JUMPDEST MUL OR SWAP1 SSTORE POP POP POP PUSH1 0x40 DUP3 ADD MLOAD DUP2 PUSH1 0xB ADD PUSH1 0x0 DUP3 ADD MLOAD DUP2 PUSH1 0x0 ADD SSTORE PUSH1 0x20 DUP3 ADD MLOAD DUP2 PUSH1 0x1 ADD SSTORE POP POP PUSH1 0x60 DUP3 ADD MLOAD DUP2 PUSH1 0xD ADD SSTORE PUSH1 0x80 DUP3 ADD MLOAD DUP2 PUSH1 0xE ADD SSTORE PUSH1 0xA0 DUP3 ADD MLOAD DUP2 PUSH1 0xF ADD SSTORE PUSH1 0xC0 DUP3 ADD MLOAD DUP2 PUSH1 0x10 ADD PUSH1 0x0 PUSH2 0x100 EXP DUP2 SLOAD DUP2 PUSH1 0xFF MUL NOT AND SWAP1 DUP4 PUSH1 0x2 DUP2 GT ISZERO PUSH2 0x1E57 JUMPI PUSH2 0x1E56 PUSH2 0x34D1 JUMP JUMPDEST JUMPDEST MUL OR SWAP1 SSTORE POP SWAP1 POP POP PUSH1 0x8 DUP2 SWAP1 DUP1 PUSH1 0x1 DUP2 SLOAD ADD DUP1 DUP3 SSTORE DUP1 SWAP2 POP POP PUSH1 0x1 SWAP1 SUB SWAP1 PUSH1 0x0 MSTORE PUSH1 0x20 PUSH1 0x0 KECCAK256 SWAP1 PUSH1 0x11 MUL ADD PUSH1 0x0 SWAP1 SWAP2 SWAP1 SWAP2 SWAP1 SWAP2 POP PUSH1 0x0 DUP3 ADD MLOAD DUP2 PUSH1 0x0 ADD PUSH1 0x0 PUSH2 0x100 EXP DUP2 SLOAD DUP2 PUSH20 0xFFFFFFFFFFFFFFFFFFFFFFFFFFFFFFFFFFFFFFFF MUL NOT AND SWAP1 DUP4 PUSH20 0xFFFFFFFFFFFFFFFFFFFFFFFFFFFFFFFFFFFFFFFF AND MUL OR SWAP1 SSTORE POP PUSH1 0x20 DUP3 ADD MLOAD DUP2 PUSH1 0x1 ADD PUSH1 0x0 DUP3 ADD MLOAD DUP2 PUSH1 0x0 ADD SSTORE PUSH1 0x20 DUP3 ADD MLOAD DUP2 PUSH1 0x1 ADD SSTORE PUSH1 0x40 DUP3 ADD MLOAD DUP2 PUSH1 0x2 ADD SSTORE PUSH1 0x60 DUP3 ADD MLOAD DUP2 PUSH1 0x3 ADD PUSH1 0x0 PUSH2 0x100 EXP DUP2 SLOAD DUP2 PUSH1 0xFF MUL NOT AND SWAP1 DUP4 PUSH1 0x6 DUP2 GT ISZERO PUSH2 0x1F24 JUMPI PUSH2 0x1F23 PUSH2 0x34D1 JUMP JUMPDEST JUMPDEST MUL OR SWAP1 SSTORE POP PUSH1 0x80 DUP3 ADD MLOAD DUP2 PUSH1 0x4 ADD PUSH1 0x0 DUP3 ADD MLOAD DUP2 PUSH1 0x0 ADD SWAP1 DUP1 MLOAD SWAP1 PUSH1 0x20 ADD SWAP1 PUSH2 0x1F4E SWAP3 SWAP2 SWAP1 PUSH2 0x26B9 JUMP JUMPDEST POP PUSH1 0x20 DUP3 ADD MLOAD DUP2 PUSH1 0x1 ADD SWAP1 DUP1 MLOAD SWAP1 PUSH1 0x20 ADD SWAP1 PUSH2 0x1F6B SWAP3 SWAP2 SWAP1 PUSH2 0x26B9 JUMP JUMPDEST POP POP POP PUSH1 0xA0 DUP3 ADD MLOAD DUP2 PUSH1 0x6 ADD SSTORE PUSH1 0xC0 DUP3 ADD MLOAD DUP2 PUSH1 0x7 ADD SSTORE PUSH1 0xE0 DUP3 ADD MLOAD DUP2 PUSH1 0x8 ADD SSTORE PUSH2 0x100 DUP3 ADD MLOAD DUP2 PUSH1 0x9 ADD PUSH1 0x0 PUSH2 0x100 EXP DUP2 SLOAD DUP2 PUSH1 0xFF MUL NOT AND SWAP1 DUP4 PUSH1 0x1 DUP2 GT ISZERO PUSH2 0x1FB8 JUMPI PUSH2 0x1FB7 PUSH2 0x34D1 JUMP JUMPDEST JUMPDEST MUL OR SWAP1 SSTORE POP POP POP PUSH1 0x40 DUP3 ADD MLOAD DUP2 PUSH1 0xB ADD PUSH1 0x0 DUP3 ADD MLOAD DUP2 PUSH1 0x0 ADD SSTORE PUSH1 0x20 DUP3 ADD MLOAD DUP2 PUSH1 0x1 ADD SSTORE POP POP PUSH1 0x60 DUP3 ADD MLOAD DUP2 PUSH1 0xD ADD SSTORE PUSH1 0x80 DUP3 ADD MLOAD DUP2 PUSH1 0xE ADD SSTORE PUSH1 0xA0 DUP3 ADD MLOAD DUP2 PUSH1 0xF ADD SSTORE PUSH1 0xC0 DUP3 ADD MLOAD DUP2 PUSH1 0x10 ADD PUSH1 0x0 PUSH2 0x100 EXP DUP2 SLOAD DUP2 PUSH1 0xFF MUL NOT AND SWAP1 DUP4 PUSH1 0x2 DUP2 GT ISZERO PUSH2 0x2027 JUMPI PUSH2 0x2026 PUSH2 0x34D1 JUMP JUMPDEST JUMPDEST MUL OR SWAP1 SSTORE POP POP POP PUSH1 0x4 SLOAD PUSH1 0x8 DUP1 SLOAD SWAP1 POP EQ SWAP4 POP POP POP POP SWAP4 SWAP3 POP POP POP JUMP JUMPDEST PUSH2 0x206E PUSH32 0x52454E5445520000000000000000000000000000000000000000000000000000 CALLER PUSH2 0x22EF JUMP JUMPDEST JUMP JUMPDEST PUSH1 0x6 DUP2 DUP2 SLOAD DUP2 LT PUSH2 0x2080 JUMPI PUSH1 0x0 DUP1 REVERT JUMPDEST SWAP1 PUSH1 0x0 MSTORE PUSH1 0x20 PUSH1 0x0 KECCAK256 SWAP1 PUSH1 0xA MUL ADD PUSH1 0x0 SWAP2 POP SWAP1 POP DUP1 PUSH1 0x0 ADD SLOAD SWAP1 DUP1 PUSH1 0x1 ADD SLOAD SWAP1 DUP1 PUSH1 0x2 ADD SLOAD SWAP1 DUP1 PUSH1 0x3 ADD PUSH1 0x0 SWAP1 SLOAD SWAP1 PUSH2 0x100 EXP SWAP1 DIV PUSH1 0xFF AND SWAP1 DUP1 PUSH1 0x4 ADD PUSH1 0x40 MLOAD DUP1 PUSH1 0x40 ADD PUSH1 0x40 MSTORE SWAP1 DUP2 PUSH1 0x0 DUP3 ADD DUP1 SLOAD PUSH2 0x20D8 SWAP1 PUSH2 0x33F6 JUMP JUMPDEST DUP1 PUSH1 0x1F ADD PUSH1 0x20 DUP1 SWAP2 DIV MUL PUSH1 0x20 ADD PUSH1 0x40 MLOAD SWAP1 DUP2 ADD PUSH1 0x40 MSTORE DUP1 SWAP3 SWAP2 SWAP1 DUP2 DUP2 MSTORE PUSH1 0x20 ADD DUP3 DUP1 SLOAD PUSH2 0x2104 SWAP1 PUSH2 0x33F6 JUMP JUMPDEST DUP1 ISZERO PUSH2 0x2151 JUMPI DUP1 PUSH1 0x1F LT PUSH2 0x2126 JUMPI PUSH2 0x100 DUP1 DUP4 SLOAD DIV MUL DUP4 MSTORE SWAP2 PUSH1 0x20 ADD SWAP2 PUSH2 0x2151 JUMP JUMPDEST DUP3 ADD SWAP2 SWAP1 PUSH1 0x0 MSTORE PUSH1 0x20 PUSH1 0x0 KECCAK256 SWAP1 JUMPDEST DUP2 SLOAD DUP2 MSTORE SWAP1 PUSH1 0x1 ADD SWAP1 PUSH1 0x20 ADD DUP1 DUP4 GT PUSH2 0x2134 JUMPI DUP3 SWAP1 SUB PUSH1 0x1F AND DUP3 ADD SWAP2 JUMPDEST POP POP POP POP POP DUP2 MSTORE PUSH1 0x20 ADD PUSH1 0x1 DUP3 ADD DUP1 SLOAD PUSH2 0x216A SWAP1 PUSH2 0x33F6 JUMP JUMPDEST DUP1 PUSH1 0x1F ADD PUSH1 0x20 DUP1 SWAP2 DIV MUL PUSH1 0x20 ADD PUSH1 0x40 MLOAD SWAP1 DUP2 ADD PUSH1 0x40 MSTORE DUP1 SWAP3 SWAP2 SWAP1 DUP2 DUP2 MSTORE PUSH1 0x20 ADD DUP3 DUP1 SLOAD PUSH2 0x2196 SWAP1 PUSH2 0x33F6 JUMP JUMPDEST DUP1 ISZERO PUSH2 0x21E3 JUMPI DUP1 PUSH1 0x1F LT PUSH2 0x21B8 JUMPI PUSH2 0x100 DUP1 DUP4 SLOAD DIV MUL DUP4 MSTORE SWAP2 PUSH1 0x20 ADD SWAP2 PUSH2 0x21E3 JUMP JUMPDEST DUP3 ADD SWAP2 SWAP1 PUSH1 0x0 MSTORE PUSH1 0x20 PUSH1 0x0 KECCAK256 SWAP1 JUMPDEST DUP2 SLOAD DUP2 MSTORE SWAP1 PUSH1 0x1 ADD SWAP1 PUSH1 0x20 ADD DUP1 DUP4 GT PUSH2 0x21C6 JUMPI DUP3 SWAP1 SUB PUSH1 0x1F AND DUP3 ADD SWAP2 JUMPDEST POP POP POP POP POP DUP2 MSTORE POP POP SWAP1 DUP1 PUSH1 0x6 ADD SLOAD SWAP1 DUP1 PUSH1 0x7 ADD SLOAD SWAP1 DUP1 PUSH1 0x8 ADD SLOAD SWAP1 DUP1 PUSH1 0x9 ADD PUSH1 0x0 SWAP1 SLOAD SWAP1 PUSH2 0x100 EXP SWAP1 DIV PUSH1 0xFF AND SWAP1 POP DUP10 JUMP JUMPDEST PUSH32 0x52454E5445520000000000000000000000000000000000000000000000000000 DUP2 JUMP JUMPDEST PUSH1 0x0 PUSH2 0x2256 PUSH1 0x0 DUP1 DUP5 DUP2 MSTORE PUSH1 0x20 ADD SWAP1 DUP2 MSTORE PUSH1 0x20 ADD PUSH1 0x0 KECCAK256 PUSH2 0x2459 JUMP JUMPDEST SWAP1 POP SWAP2 SWAP1 POP JUMP JUMPDEST DUP1 PUSH1 0x1 PUSH1 0x0 PUSH2 0x100 EXP DUP2 SLOAD DUP2 PUSH20 0xFFFFFFFFFFFFFFFFFFFFFFFFFFFFFFFFFFFFFFFF MUL NOT AND SWAP1 DUP4 PUSH20 0xFFFFFFFFFFFFFFFFFFFFFFFFFFFFFFFFFFFFFFFF AND MUL OR SWAP1 SSTORE POP PUSH2 0x22C8 PUSH32 0x52454E5445520000000000000000000000000000000000000000000000000000 DUP3 PUSH2 0x237F JUMP JUMPDEST POP JUMP JUMPDEST PUSH32 0x4F574E4552000000000000000000000000000000000000000000000000000000 DUP2 JUMP JUMPDEST PUSH2 0x2313 DUP2 PUSH1 0x0 DUP1 DUP6 DUP2 MSTORE PUSH1 0x20 ADD SWAP1 DUP2 MSTORE PUSH1 0x20 ADD PUSH1 0x0 KECCAK256 PUSH2 0x246E SWAP1 SWAP2 SWAP1 PUSH4 0xFFFFFFFF AND JUMP JUMPDEST ISZERO PUSH2 0x237B JUMPI PUSH2 0x2320 PUSH2 0x249E JUMP JUMPDEST PUSH20 0xFFFFFFFFFFFFFFFFFFFFFFFFFFFFFFFFFFFFFFFF AND DUP2 PUSH20 0xFFFFFFFFFFFFFFFFFFFFFFFFFFFFFFFFFFFFFFFF AND DUP4 PUSH32 0xF6391F5C32D9C69D2A47EA670B442974B53935D1EDC7FD64EB21E047A839171B PUSH1 0x40 MLOAD PUSH1 0x40 MLOAD DUP1 SWAP2 SUB SWAP1 LOG4 JUMPDEST POP POP JUMP JUMPDEST PUSH2 0x23A3 DUP2 PUSH1 0x0 DUP1 DUP6 DUP2 MSTORE PUSH1 0x20 ADD SWAP1 DUP2 MSTORE PUSH1 0x20 ADD PUSH1 0x0 KECCAK256 PUSH2 0x24A6 SWAP1 SWAP2 SWAP1 PUSH4 0xFFFFFFFF AND JUMP JUMPDEST ISZERO PUSH2 0x240B JUMPI PUSH2 0x23B0 PUSH2 0x249E JUMP JUMPDEST PUSH20 0xFFFFFFFFFFFFFFFFFFFFFFFFFFFFFFFFFFFFFFFF AND DUP2 PUSH20 0xFFFFFFFFFFFFFFFFFFFFFFFFFFFFFFFFFFFFFFFF AND DUP4 PUSH32 0x2F8788117E7EFF1D82E926EC794901D17C78024A50270940304540A733656F0D PUSH1 0x40 MLOAD PUSH1 0x40 MLOAD DUP1 SWAP2 SUB SWAP1 LOG4 JUMPDEST POP POP JUMP JUMPDEST PUSH1 0x0 PUSH2 0x241E DUP4 PUSH1 0x0 ADD DUP4 PUSH2 0x24D6 JUMP JUMPDEST PUSH1 0x0 SHR SWAP1 POP SWAP3 SWAP2 POP POP JUMP JUMPDEST PUSH1 0x0 PUSH2 0x2451 DUP4 PUSH1 0x0 ADD DUP4 PUSH20 0xFFFFFFFFFFFFFFFFFFFFFFFFFFFFFFFFFFFFFFFF AND PUSH1 0x0 SHL PUSH2 0x2501 JUMP JUMPDEST SWAP1 POP SWAP3 SWAP2 POP POP JUMP JUMPDEST PUSH1 0x0 PUSH2 0x2467 DUP3 PUSH1 0x0 ADD PUSH2 0x2524 JUMP JUMPDEST SWAP1 POP SWAP2 SWAP1 POP JUMP JUMPDEST PUSH1 0x0 PUSH2 0x2496 DUP4 PUSH1 0x0 ADD DUP4 PUSH20 0xFFFFFFFFFFFFFFFFFFFFFFFFFFFFFFFFFFFFFFFF AND PUSH1 0x0 SHL PUSH2 0x2535 JUMP JUMPDEST SWAP1 POP SWAP3 SWAP2 POP POP JUMP JUMPDEST PUSH1 0x0 CALLER SWAP1 POP SWAP1 JUMP JUMPDEST PUSH1 0x0 PUSH2 0x24CE DUP4 PUSH1 0x0 ADD DUP4 PUSH20 0xFFFFFFFFFFFFFFFFFFFFFFFFFFFFFFFFFFFFFFFF AND PUSH1 0x0 SHL PUSH2 0x2649 JUMP JUMPDEST SWAP1 POP SWAP3 SWAP2 POP POP JUMP JUMPDEST PUSH1 0x0 DUP3 PUSH1 0x0 ADD DUP3 DUP2 SLOAD DUP2 LT PUSH2 0x24EE JUMPI PUSH2 0x24ED PUSH2 0x355E JUMP JUMPDEST JUMPDEST SWAP1 PUSH1 0x0 MSTORE PUSH1 0x20 PUSH1 0x0 KECCAK256 ADD SLOAD SWAP1 POP SWAP3 SWAP2 POP POP JUMP JUMPDEST PUSH1 0x0 DUP1 DUP4 PUSH1 0x1 ADD PUSH1 0x0 DUP5 DUP2 MSTORE PUSH1 0x20 ADD SWAP1 DUP2 MSTORE PUSH1 0x20 ADD PUSH1 0x0 KECCAK256 SLOAD EQ ISZERO SWAP1 POP SWAP3 SWAP2 POP POP JUMP JUMPDEST PUSH1 0x0 DUP2 PUSH1 0x0 ADD DUP1 SLOAD SWAP1 POP SWAP1 POP SWAP2 SWAP1 POP JUMP JUMPDEST PUSH1 0x0 DUP1 DUP4 PUSH1 0x1 ADD PUSH1 0x0 DUP5 DUP2 MSTORE PUSH1 0x20 ADD SWAP1 DUP2 MSTORE PUSH1 0x20 ADD PUSH1 0x0 KECCAK256 SLOAD SWAP1 POP PUSH1 0x0 DUP2 EQ PUSH2 0x263D JUMPI PUSH1 0x0 PUSH1 0x1 DUP3 PUSH2 0x2567 SWAP2 SWAP1 PUSH2 0x32BF JUMP JUMPDEST SWAP1 POP PUSH1 0x0 PUSH1 0x1 DUP7 PUSH1 0x0 ADD DUP1 SLOAD SWAP1 POP PUSH2 0x257F SWAP2 SWAP1 PUSH2 0x32BF JUMP JUMPDEST SWAP1 POP DUP2 DUP2 EQ PUSH2 0x25EE JUMPI PUSH1 0x0 DUP7 PUSH1 0x0 ADD DUP3 DUP2 SLOAD DUP2 LT PUSH2 0x25A0 JUMPI PUSH2 0x259F PUSH2 0x355E JUMP JUMPDEST JUMPDEST SWAP1 PUSH1 0x0 MSTORE PUSH1 0x20 PUSH1 0x0 KECCAK256 ADD SLOAD SWAP1 POP DUP1 DUP8 PUSH1 0x0 ADD DUP5 DUP2 SLOAD DUP2 LT PUSH2 0x25C4 JUMPI PUSH2 0x25C3 PUSH2 0x355E JUMP JUMPDEST JUMPDEST SWAP1 PUSH1 0x0 MSTORE PUSH1 0x20 PUSH1 0x0 KECCAK256 ADD DUP2 SWAP1 SSTORE POP DUP4 DUP8 PUSH1 0x1 ADD PUSH1 0x0 DUP4 DUP2 MSTORE PUSH1 0x20 ADD SWAP1 DUP2 MSTORE PUSH1 0x20 ADD PUSH1 0x0 KECCAK256 DUP2 SWAP1 SSTORE POP POP JUMPDEST DUP6 PUSH1 0x0 ADD DUP1 SLOAD DUP1 PUSH2 0x2602 JUMPI PUSH2 0x2601 PUSH2 0x352F JUMP JUMPDEST JUMPDEST PUSH1 0x1 SWAP1 SUB DUP2 DUP2 SWAP1 PUSH1 0x0 MSTORE PUSH1 0x20 PUSH1 0x0 KECCAK256 ADD PUSH1 0x0 SWAP1 SSTORE SWAP1 SSTORE DUP6 PUSH1 0x1 ADD PUSH1 0x0 DUP7 DUP2 MSTORE PUSH1 0x20 ADD SWAP1 DUP2 MSTORE PUSH1 0x20 ADD PUSH1 0x0 KECCAK256 PUSH1 0x0 SWAP1 SSTORE PUSH1 0x1 SWAP4 POP POP POP POP PUSH2 0x2643 JUMP JUMPDEST PUSH1 0x0 SWAP2 POP POP JUMPDEST SWAP3 SWAP2 POP POP JUMP JUMPDEST PUSH1 0x0 PUSH2 0x2655 DUP4 DUP4 PUSH2 0x2501 JUMP JUMPDEST PUSH2 0x26AE JUMPI DUP3 PUSH1 0x0 ADD DUP3 SWAP1 DUP1 PUSH1 0x1 DUP2 SLOAD ADD DUP1 DUP3 SSTORE DUP1 SWAP2 POP POP PUSH1 0x1 SWAP1 SUB SWAP1 PUSH1 0x0 MSTORE PUSH1 0x20 PUSH1 0x0 KECCAK256 ADD PUSH1 0x0 SWAP1 SWAP2 SWAP1 SWAP2 SWAP1 SWAP2 POP SSTORE DUP3 PUSH1 0x0 ADD DUP1 SLOAD SWAP1 POP DUP4 PUSH1 0x1 ADD PUSH1 0x0 DUP5 DUP2 MSTORE PUSH1 0x20 ADD SWAP1 DUP2 MSTORE PUSH1 0x20 ADD PUSH1 0x0 KECCAK256 DUP2 SWAP1 SSTORE POP PUSH1 0x1 SWAP1 POP PUSH2 0x26B3 JUMP JUMPDEST PUSH1 0x0 SWAP1 POP JUMPDEST SWAP3 SWAP2 POP POP JUMP JUMPDEST DUP3 DUP1 SLOAD PUSH2 0x26C5 SWAP1 PUSH2 0x33F6 JUMP JUMPDEST SWAP1 PUSH1 0x0 MSTORE PUSH1 0x20 PUSH1 0x0 KECCAK256 SWAP1 PUSH1 0x1F ADD PUSH1 0x20 SWAP1 DIV DUP2 ADD SWAP3 DUP3 PUSH2 0x26E7 JUMPI PUSH1 0x0 DUP6 SSTORE PUSH2 0x272E JUMP JUMPDEST DUP3 PUSH1 0x1F LT PUSH2 0x2700 JUMPI DUP1 MLOAD PUSH1 0xFF NOT AND DUP4 DUP1 ADD OR DUP6 SSTORE PUSH2 0x272E JUMP JUMPDEST DUP3 DUP1 ADD PUSH1 0x1 ADD DUP6 SSTORE DUP3 ISZERO PUSH2 0x272E JUMPI SWAP2 DUP3 ADD JUMPDEST DUP3 DUP2 GT ISZERO PUSH2 0x272D JUMPI DUP3 MLOAD DUP3 SSTORE SWAP2 PUSH1 0x20 ADD SWAP2 SWAP1 PUSH1 0x1 ADD SWAP1 PUSH2 0x2712 JUMP JUMPDEST JUMPDEST POP SWAP1 POP PUSH2 0x273B SWAP2 SWAP1 PUSH2 0x273F JUMP JUMPDEST POP SWAP1 JUMP JUMPDEST JUMPDEST DUP1 DUP3 GT ISZERO PUSH2 0x2758 JUMPI PUSH1 0x0 DUP2 PUSH1 0x0 SWAP1 SSTORE POP PUSH1 0x1 ADD PUSH2 0x2740 JUMP JUMPDEST POP SWAP1 JUMP JUMPDEST PUSH1 0x0 PUSH2 0x276F PUSH2 0x276A DUP5 PUSH2 0x31B1 JUMP JUMPDEST PUSH2 0x318C JUMP JUMPDEST SWAP1 POP DUP3 DUP2 MSTORE PUSH1 0x20 DUP2 ADD DUP5 DUP5 DUP5 ADD GT ISZERO PUSH2 0x278B JUMPI PUSH2 0x278A PUSH2 0x35CB JUMP JUMPDEST JUMPDEST PUSH2 0x2796 DUP5 DUP3 DUP6 PUSH2 0x33B4 JUMP JUMPDEST POP SWAP4 SWAP3 POP POP POP JUMP JUMPDEST PUSH1 0x0 DUP2 CALLDATALOAD SWAP1 POP PUSH2 0x27AD DUP2 PUSH2 0x3853 JUMP JUMPDEST SWAP3 SWAP2 POP POP JUMP JUMPDEST PUSH1 0x0 DUP2 CALLDATALOAD SWAP1 POP PUSH2 0x27C2 DUP2 PUSH2 0x386A JUMP JUMPDEST SWAP3 SWAP2 POP POP JUMP JUMPDEST PUSH1 0x0 DUP3 PUSH1 0x1F DUP4 ADD SLT PUSH2 0x27DD JUMPI PUSH2 0x27DC PUSH2 0x35BC JUMP JUMPDEST JUMPDEST DUP2 CALLDATALOAD PUSH2 0x27ED DUP5 DUP3 PUSH1 0x20 DUP7 ADD PUSH2 0x275C JUMP JUMPDEST SWAP2 POP POP SWAP3 SWAP2 POP POP JUMP JUMPDEST PUSH1 0x0 DUP2 CALLDATALOAD SWAP1 POP PUSH2 0x2805 DUP2 PUSH2 0x3881 JUMP JUMPDEST SWAP3 SWAP2 POP POP JUMP JUMPDEST PUSH1 0x0 PUSH1 0x40 DUP3 DUP5 SUB SLT ISZERO PUSH2 0x2821 JUMPI PUSH2 0x2820 PUSH2 0x35C1 JUMP JUMPDEST JUMPDEST PUSH2 0x282B PUSH1 0x40 PUSH2 0x318C JUMP JUMPDEST SWAP1 POP PUSH1 0x0 DUP3 ADD CALLDATALOAD PUSH8 0xFFFFFFFFFFFFFFFF DUP2 GT ISZERO PUSH2 0x284B JUMPI PUSH2 0x284A PUSH2 0x35C6 JUMP JUMPDEST JUMPDEST PUSH2 0x2857 DUP5 DUP3 DUP6 ADD PUSH2 0x27C8 JUMP JUMPDEST PUSH1 0x0 DUP4 ADD MSTORE POP PUSH1 0x20 DUP3 ADD CALLDATALOAD PUSH8 0xFFFFFFFFFFFFFFFF DUP2 GT ISZERO PUSH2 0x287B JUMPI PUSH2 0x287A PUSH2 0x35C6 JUMP JUMPDEST JUMPDEST PUSH2 0x2887 DUP5 DUP3 DUP6 ADD PUSH2 0x27C8 JUMP JUMPDEST PUSH1 0x20 DUP4 ADD MSTORE POP SWAP3 SWAP2 POP POP JUMP JUMPDEST PUSH1 0x0 PUSH1 0x40 DUP3 DUP5 SUB SLT ISZERO PUSH2 0x28A9 JUMPI PUSH2 0x28A8 PUSH2 0x35C1 JUMP JUMPDEST JUMPDEST PUSH2 0x28B3 PUSH1 0x40 PUSH2 0x318C JUMP JUMPDEST SWAP1 POP PUSH1 0x0 PUSH2 0x28C3 DUP5 DUP3 DUP6 ADD PUSH2 0x27B3 JUMP JUMPDEST PUSH1 0x0 DUP4 ADD MSTORE POP PUSH1 0x20 PUSH2 0x28D7 DUP5 DUP3 DUP6 ADD PUSH2 0x27B3 JUMP JUMPDEST PUSH1 0x20 DUP4 ADD MSTORE POP SWAP3 SWAP2 POP POP JUMP JUMPDEST PUSH1 0x0 DUP2 CALLDATALOAD SWAP1 POP PUSH2 0x28F2 DUP2 PUSH2 0x3891 JUMP JUMPDEST SWAP3 SWAP2 POP POP JUMP JUMPDEST PUSH1 0x0 PUSH1 0x20 DUP3 DUP5 SUB SLT ISZERO PUSH2 0x290E JUMPI PUSH2 0x290D PUSH2 0x35D5 JUMP JUMPDEST JUMPDEST PUSH1 0x0 PUSH2 0x291C DUP5 DUP3 DUP6 ADD PUSH2 0x279E JUMP JUMPDEST SWAP2 POP POP SWAP3 SWAP2 POP POP JUMP JUMPDEST PUSH1 0x0 PUSH1 0x20 DUP3 DUP5 SUB SLT ISZERO PUSH2 0x293B JUMPI PUSH2 0x293A PUSH2 0x35D5 JUMP JUMPDEST JUMPDEST PUSH1 0x0 PUSH2 0x2949 DUP5 DUP3 DUP6 ADD PUSH2 0x27B3 JUMP JUMPDEST SWAP2 POP POP SWAP3 SWAP2 POP POP JUMP JUMPDEST PUSH1 0x0 DUP1 PUSH1 0x40 DUP4 DUP6 SUB SLT ISZERO PUSH2 0x2969 JUMPI PUSH2 0x2968 PUSH2 0x35D5 JUMP JUMPDEST JUMPDEST PUSH1 0x0 PUSH2 0x2977 DUP6 DUP3 DUP7 ADD PUSH2 0x27B3 JUMP JUMPDEST SWAP3 POP POP PUSH1 0x20 PUSH2 0x2988 DUP6 DUP3 DUP7 ADD PUSH2 0x279E JUMP JUMPDEST SWAP2 POP POP SWAP3 POP SWAP3 SWAP1 POP JUMP JUMPDEST PUSH1 0x0 DUP1 PUSH1 0x0 DUP1 PUSH1 0x0 DUP1 PUSH1 0x0 PUSH1 0xE0 DUP9 DUP11 SUB SLT ISZERO PUSH2 0x29B1 JUMPI PUSH2 0x29B0 PUSH2 0x35D5 JUMP JUMPDEST JUMPDEST PUSH1 0x0 PUSH2 0x29BF DUP11 DUP3 DUP12 ADD PUSH2 0x27B3 JUMP JUMPDEST SWAP8 POP POP PUSH1 0x20 PUSH2 0x29D0 DUP11 DUP3 DUP12 ADD PUSH2 0x27B3 JUMP JUMPDEST SWAP7 POP POP PUSH1 0x40 PUSH2 0x29E1 DUP11 DUP3 DUP12 ADD PUSH2 0x27F6 JUMP JUMPDEST SWAP6 POP POP PUSH1 0x60 DUP9 ADD CALLDATALOAD PUSH8 0xFFFFFFFFFFFFFFFF DUP2 GT ISZERO PUSH2 0x2A02 JUMPI PUSH2 0x2A01 PUSH2 0x35D0 JUMP JUMPDEST JUMPDEST PUSH2 0x2A0E DUP11 DUP3 DUP12 ADD PUSH2 0x280B JUMP JUMPDEST SWAP5 POP POP PUSH1 0x80 PUSH2 0x2A1F DUP11 DUP3 DUP12 ADD PUSH2 0x28E3 JUMP JUMPDEST SWAP4 POP POP PUSH1 0xA0 PUSH2 0x2A30 DUP11 DUP3 DUP12 ADD PUSH2 0x27B3 JUMP JUMPDEST SWAP3 POP POP PUSH1 0xC0 PUSH2 0x2A41 DUP11 DUP3 DUP12 ADD PUSH2 0x28E3 JUMP JUMPDEST SWAP2 POP POP SWAP3 SWAP6 SWAP9 SWAP2 SWAP5 SWAP8 POP SWAP3 SWAP6 POP JUMP JUMPDEST PUSH1 0x0 DUP1 PUSH1 0x40 DUP4 DUP6 SUB SLT ISZERO PUSH2 0x2A67 JUMPI PUSH2 0x2A66 PUSH2 0x35D5 JUMP JUMPDEST JUMPDEST PUSH1 0x0 PUSH2 0x2A75 DUP6 DUP3 DUP7 ADD PUSH2 0x27B3 JUMP JUMPDEST SWAP3 POP POP PUSH1 0x20 PUSH2 0x2A86 DUP6 DUP3 DUP7 ADD PUSH2 0x28E3 JUMP JUMPDEST SWAP2 POP POP SWAP3 POP SWAP3 SWAP1 POP JUMP JUMPDEST PUSH1 0x0 PUSH1 0x20 DUP3 DUP5 SUB SLT ISZERO PUSH2 0x2AA6 JUMPI PUSH2 0x2AA5 PUSH2 0x35D5 JUMP JUMPDEST JUMPDEST PUSH1 0x0 PUSH2 0x2AB4 DUP5 DUP3 DUP6 ADD PUSH2 0x28E3 JUMP JUMPDEST SWAP2 POP POP SWAP3 SWAP2 POP POP JUMP JUMPDEST PUSH1 0x0 DUP1 PUSH1 0x0 PUSH1 0x80 DUP5 DUP7 SUB SLT ISZERO PUSH2 0x2AD6 JUMPI PUSH2 0x2AD5 PUSH2 0x35D5 JUMP JUMPDEST JUMPDEST PUSH1 0x0 PUSH2 0x2AE4 DUP7 DUP3 DUP8 ADD PUSH2 0x28E3 JUMP JUMPDEST SWAP4 POP POP PUSH1 0x20 PUSH2 0x2AF5 DUP7 DUP3 DUP8 ADD PUSH2 0x2893 JUMP JUMPDEST SWAP3 POP POP PUSH1 0x60 PUSH2 0x2B06 DUP7 DUP3 DUP8 ADD PUSH2 0x28E3 JUMP JUMPDEST SWAP2 POP POP SWAP3 POP SWAP3 POP SWAP3 JUMP JUMPDEST PUSH1 0x0 DUP1 PUSH1 0x40 DUP4 DUP6 SUB SLT ISZERO PUSH2 0x2B27 JUMPI PUSH2 0x2B26 PUSH2 0x35D5 JUMP JUMPDEST JUMPDEST PUSH1 0x0 PUSH2 0x2B35 DUP6 DUP3 DUP7 ADD PUSH2 0x28E3 JUMP JUMPDEST SWAP3 POP POP PUSH1 0x20 PUSH2 0x2B46 DUP6 DUP3 DUP7 ADD PUSH2 0x28E3 JUMP JUMPDEST SWAP2 POP POP SWAP3 POP SWAP3 SWAP1 POP JUMP JUMPDEST PUSH1 0x0 DUP1 PUSH1 0x0 PUSH1 0x60 DUP5 DUP7 SUB SLT ISZERO PUSH2 0x2B69 JUMPI PUSH2 0x2B68 PUSH2 0x35D5 JUMP JUMPDEST JUMPDEST PUSH1 0x0 PUSH2 0x2B77 DUP7 DUP3 DUP8 ADD PUSH2 0x28E3 JUMP JUMPDEST SWAP4 POP POP PUSH1 0x20 PUSH2 0x2B88 DUP7 DUP3 DUP8 ADD PUSH2 0x28E3 JUMP JUMPDEST SWAP3 POP POP PUSH1 0x40 PUSH2 0x2B99 DUP7 DUP3 DUP8 ADD PUSH2 0x28E3 JUMP JUMPDEST SWAP2 POP POP SWAP3 POP SWAP3 POP SWAP3 JUMP JUMPDEST PUSH2 0x2BAC DUP2 PUSH2 0x32F3 JUMP JUMPDEST DUP3 MSTORE POP POP JUMP JUMPDEST PUSH2 0x2BBB DUP2 PUSH2 0x3305 JUMP JUMPDEST DUP3 MSTORE POP POP JUMP JUMPDEST PUSH2 0x2BCA DUP2 PUSH2 0x3311 JUMP JUMPDEST DUP3 MSTORE POP POP JUMP JUMPDEST PUSH2 0x2BD9 DUP2 PUSH2 0x3311 JUMP JUMPDEST DUP3 MSTORE POP POP JUMP JUMPDEST PUSH1 0x0 PUSH2 0x2BEA DUP3 PUSH2 0x31E2 JUMP JUMPDEST PUSH2 0x2BF4 DUP2 DUP6 PUSH2 0x31ED JUMP JUMPDEST SWAP4 POP PUSH2 0x2C04 DUP2 DUP6 PUSH1 0x20 DUP7 ADD PUSH2 0x33C3 JUMP JUMPDEST PUSH2 0x2C0D DUP2 PUSH2 0x35DA JUMP JUMPDEST DUP5 ADD SWAP2 POP POP SWAP3 SWAP2 POP POP JUMP JUMPDEST PUSH2 0x2C21 DUP2 PUSH2 0x337E JUMP JUMPDEST DUP3 MSTORE POP POP JUMP JUMPDEST PUSH2 0x2C30 DUP2 PUSH2 0x3390 JUMP JUMPDEST DUP3 MSTORE POP POP JUMP JUMPDEST PUSH2 0x2C3F DUP2 PUSH2 0x3390 JUMP JUMPDEST DUP3 MSTORE POP POP JUMP JUMPDEST PUSH2 0x2C4E DUP2 PUSH2 0x33A2 JUMP JUMPDEST DUP3 MSTORE POP POP JUMP JUMPDEST PUSH2 0x2C5D DUP2 PUSH2 0x33A2 JUMP JUMPDEST DUP3 MSTORE POP POP JUMP JUMPDEST PUSH1 0x0 PUSH2 0x2C70 PUSH1 0x2E DUP4 PUSH2 0x31FE JUMP JUMPDEST SWAP2 POP PUSH2 0x2C7B DUP3 PUSH2 0x35EB JUMP JUMPDEST PUSH1 0x40 DUP3 ADD SWAP1 POP SWAP2 SWAP1 POP JUMP JUMPDEST PUSH1 0x0 PUSH2 0x2C93 PUSH1 0x2D DUP4 PUSH2 0x31FE JUMP JUMPDEST SWAP2 POP PUSH2 0x2C9E DUP3 PUSH2 0x363A JUMP JUMPDEST PUSH1 0x40 DUP3 ADD SWAP1 POP SWAP2 SWAP1 POP JUMP JUMPDEST PUSH1 0x0 PUSH2 0x2CB6 PUSH1 0x40 DUP4 PUSH2 0x31FE JUMP JUMPDEST SWAP2 POP PUSH2 0x2CC1 DUP3 PUSH2 0x3689 JUMP JUMPDEST PUSH1 0x40 DUP3 ADD SWAP1 POP SWAP2 SWAP1 POP JUMP JUMPDEST PUSH1 0x0 PUSH2 0x2CD9 PUSH1 0x15 DUP4 PUSH2 0x31FE JUMP JUMPDEST SWAP2 POP PUSH2 0x2CE4 DUP3 PUSH2 0x36D8 JUMP JUMPDEST PUSH1 0x20 DUP3 ADD SWAP1 POP SWAP2 SWAP1 POP JUMP JUMPDEST PUSH1 0x0 PUSH2 0x2CFC PUSH1 0x30 DUP4 PUSH2 0x31FE JUMP JUMPDEST SWAP2 POP PUSH2 0x2D07 DUP3 PUSH2 0x3701 JUMP JUMPDEST PUSH1 0x40 DUP3 ADD SWAP1 POP SWAP2 SWAP1 POP JUMP JUMPDEST PUSH1 0x0 PUSH2 0x2D1F PUSH1 0x3E DUP4 PUSH2 0x31FE JUMP JUMPDEST SWAP2 POP PUSH2 0x2D2A DUP3 PUSH2 0x3750 JUMP JUMPDEST PUSH1 0x40 DUP3 ADD SWAP1 POP SWAP2 SWAP1 POP JUMP JUMPDEST PUSH1 0x0 PUSH2 0x2D42 PUSH1 0x16 DUP4 PUSH2 0x31FE JUMP JUMPDEST SWAP2 POP PUSH2 0x2D4D DUP3 PUSH2 0x379F JUMP JUMPDEST PUSH1 0x20 DUP3 ADD SWAP1 POP SWAP2 SWAP1 POP JUMP JUMPDEST PUSH1 0x0 PUSH2 0x2D65 PUSH1 0x3D DUP4 PUSH2 0x31FE JUMP JUMPDEST SWAP2 POP PUSH2 0x2D70 DUP3 PUSH2 0x37C8 JUMP JUMPDEST PUSH1 0x40 DUP3 ADD SWAP1 POP SWAP2 SWAP1 POP JUMP JUMPDEST PUSH1 0x0 PUSH1 0x40 DUP4 ADD PUSH1 0x0 DUP4 ADD MLOAD DUP5 DUP3 SUB PUSH1 0x0 DUP7 ADD MSTORE PUSH2 0x2D98 DUP3 DUP3 PUSH2 0x2BDF JUMP JUMPDEST SWAP2 POP POP PUSH1 0x20 DUP4 ADD MLOAD DUP5 DUP3 SUB PUSH1 0x20 DUP7 ADD MSTORE PUSH2 0x2DB2 DUP3 DUP3 PUSH2 0x2BDF JUMP JUMPDEST SWAP2 POP POP DUP1 SWAP2 POP POP SWAP3 SWAP2 POP POP JUMP JUMPDEST PUSH1 0x0 PUSH1 0x40 DUP4 ADD PUSH1 0x0 DUP4 ADD MLOAD DUP5 DUP3 SUB PUSH1 0x0 DUP7 ADD MSTORE PUSH2 0x2DDC DUP3 DUP3 PUSH2 0x2BDF JUMP JUMPDEST SWAP2 POP POP PUSH1 0x20 DUP4 ADD MLOAD DUP5 DUP3 SUB PUSH1 0x20 DUP7 ADD MSTORE PUSH2 0x2DF6 DUP3 DUP3 PUSH2 0x2BDF JUMP JUMPDEST SWAP2 POP POP DUP1 SWAP2 POP POP SWAP3 SWAP2 POP POP JUMP JUMPDEST PUSH1 0x40 DUP3 ADD PUSH1 0x0 DUP3 ADD MLOAD PUSH2 0x2E19 PUSH1 0x0 DUP6 ADD DUP3 PUSH2 0x2BC1 JUMP JUMPDEST POP PUSH1 0x20 DUP3 ADD MLOAD PUSH2 0x2E2C PUSH1 0x20 DUP6 ADD DUP3 PUSH2 0x2BC1 JUMP JUMPDEST POP POP POP POP JUMP JUMPDEST PUSH1 0x0 PUSH2 0x120 DUP4 ADD PUSH1 0x0 DUP4 ADD MLOAD PUSH2 0x2E4B PUSH1 0x0 DUP7 ADD DUP3 PUSH2 0x2EF7 JUMP JUMPDEST POP PUSH1 0x20 DUP4 ADD MLOAD PUSH2 0x2E5E PUSH1 0x20 DUP7 ADD DUP3 PUSH2 0x2BC1 JUMP JUMPDEST POP PUSH1 0x40 DUP4 ADD MLOAD PUSH2 0x2E71 PUSH1 0x40 DUP7 ADD DUP3 PUSH2 0x2BC1 JUMP JUMPDEST POP PUSH1 0x60 DUP4 ADD MLOAD PUSH2 0x2E84 PUSH1 0x60 DUP7 ADD DUP3 PUSH2 0x2C45 JUMP JUMPDEST POP PUSH1 0x80 DUP4 ADD MLOAD DUP5 DUP3 SUB PUSH1 0x80 DUP7 ADD MSTORE PUSH2 0x2E9C DUP3 DUP3 PUSH2 0x2D7B JUMP JUMPDEST SWAP2 POP POP PUSH1 0xA0 DUP4 ADD MLOAD PUSH2 0x2EB1 PUSH1 0xA0 DUP7 ADD DUP3 PUSH2 0x2EF7 JUMP JUMPDEST POP PUSH1 0xC0 DUP4 ADD MLOAD PUSH2 0x2EC4 PUSH1 0xC0 DUP7 ADD DUP3 PUSH2 0x2BC1 JUMP JUMPDEST POP PUSH1 0xE0 DUP4 ADD MLOAD PUSH2 0x2ED7 PUSH1 0xE0 DUP7 ADD DUP3 PUSH2 0x2EF7 JUMP JUMPDEST POP PUSH2 0x100 DUP4 ADD MLOAD PUSH2 0x2EEC PUSH2 0x100 DUP7 ADD DUP3 PUSH2 0x2C27 JUMP JUMPDEST POP DUP1 SWAP2 POP POP SWAP3 SWAP2 POP POP JUMP JUMPDEST PUSH2 0x2F00 DUP2 PUSH2 0x3374 JUMP JUMPDEST DUP3 MSTORE POP POP JUMP JUMPDEST PUSH2 0x2F0F DUP2 PUSH2 0x3374 JUMP JUMPDEST DUP3 MSTORE POP POP JUMP JUMPDEST PUSH1 0x0 PUSH1 0x20 DUP3 ADD SWAP1 POP PUSH2 0x2F2A PUSH1 0x0 DUP4 ADD DUP5 PUSH2 0x2BA3 JUMP JUMPDEST SWAP3 SWAP2 POP POP JUMP JUMPDEST PUSH1 0x0 PUSH2 0x100 DUP3 ADD SWAP1 POP PUSH2 0x2F46 PUSH1 0x0 DUP4 ADD DUP11 PUSH2 0x2BA3 JUMP JUMPDEST DUP2 DUP2 SUB PUSH1 0x20 DUP4 ADD MSTORE PUSH2 0x2F58 DUP2 DUP10 PUSH2 0x2E32 JUMP JUMPDEST SWAP1 POP PUSH2 0x2F67 PUSH1 0x40 DUP4 ADD DUP9 PUSH2 0x2E03 JUMP JUMPDEST PUSH2 0x2F74 PUSH1 0x80 DUP4 ADD DUP8 PUSH2 0x2F06 JUMP JUMPDEST PUSH2 0x2F81 PUSH1 0xA0 DUP4 ADD DUP7 PUSH2 0x2F06 JUMP JUMPDEST PUSH2 0x2F8E PUSH1 0xC0 DUP4 ADD DUP6 PUSH2 0x2F06 JUMP JUMPDEST PUSH2 0x2F9B PUSH1 0xE0 DUP4 ADD DUP5 PUSH2 0x2C18 JUMP JUMPDEST SWAP9 SWAP8 POP POP POP POP POP POP POP POP JUMP JUMPDEST PUSH1 0x0 PUSH1 0x20 DUP3 ADD SWAP1 POP PUSH2 0x2FBC PUSH1 0x0 DUP4 ADD DUP5 PUSH2 0x2BB2 JUMP JUMPDEST SWAP3 SWAP2 POP POP JUMP JUMPDEST PUSH1 0x0 PUSH1 0x20 DUP3 ADD SWAP1 POP PUSH2 0x2FD7 PUSH1 0x0 DUP4 ADD DUP5 PUSH2 0x2BD0 JUMP JUMPDEST SWAP3 SWAP2 POP POP JUMP JUMPDEST PUSH1 0x0 PUSH1 0x20 DUP3 ADD SWAP1 POP DUP2 DUP2 SUB PUSH1 0x0 DUP4 ADD MSTORE PUSH2 0x2FF6 DUP2 PUSH2 0x2C63 JUMP JUMPDEST SWAP1 POP SWAP2 SWAP1 POP JUMP JUMPDEST PUSH1 0x0 PUSH1 0x20 DUP3 ADD SWAP1 POP DUP2 DUP2 SUB PUSH1 0x0 DUP4 ADD MSTORE PUSH2 0x3016 DUP2 PUSH2 0x2C86 JUMP JUMPDEST SWAP1 POP SWAP2 SWAP1 POP JUMP JUMPDEST PUSH1 0x0 PUSH1 0x20 DUP3 ADD SWAP1 POP DUP2 DUP2 SUB PUSH1 0x0 DUP4 ADD MSTORE PUSH2 0x3036 DUP2 PUSH2 0x2CA9 JUMP JUMPDEST SWAP1 POP SWAP2 SWAP1 POP JUMP JUMPDEST PUSH1 0x0 PUSH1 0x20 DUP3 ADD SWAP1 POP DUP2 DUP2 SUB PUSH1 0x0 DUP4 ADD MSTORE PUSH2 0x3056 DUP2 PUSH2 0x2CCC JUMP JUMPDEST SWAP1 POP SWAP2 SWAP1 POP JUMP JUMPDEST PUSH1 0x0 PUSH1 0x20 DUP3 ADD SWAP1 POP DUP2 DUP2 SUB PUSH1 0x0 DUP4 ADD MSTORE PUSH2 0x3076 DUP2 PUSH2 0x2CEF JUMP JUMPDEST SWAP1 POP SWAP2 SWAP1 POP JUMP JUMPDEST PUSH1 0x0 PUSH1 0x20 DUP3 ADD SWAP1 POP DUP2 DUP2 SUB PUSH1 0x0 DUP4 ADD MSTORE PUSH2 0x3096 DUP2 PUSH2 0x2D12 JUMP JUMPDEST SWAP1 POP SWAP2 SWAP1 POP JUMP JUMPDEST PUSH1 0x0 PUSH1 0x20 DUP3 ADD SWAP1 POP DUP2 DUP2 SUB PUSH1 0x0 DUP4 ADD MSTORE PUSH2 0x30B6 DUP2 PUSH2 0x2D35 JUMP JUMPDEST SWAP1 POP SWAP2 SWAP1 POP JUMP JUMPDEST PUSH1 0x0 PUSH1 0x20 DUP3 ADD SWAP1 POP DUP2 DUP2 SUB PUSH1 0x0 DUP4 ADD MSTORE PUSH2 0x30D6 DUP2 PUSH2 0x2D58 JUMP JUMPDEST SWAP1 POP SWAP2 SWAP1 POP JUMP JUMPDEST PUSH1 0x0 PUSH1 0x20 DUP3 ADD SWAP1 POP PUSH2 0x30F2 PUSH1 0x0 DUP4 ADD DUP5 PUSH2 0x2F06 JUMP JUMPDEST SWAP3 SWAP2 POP POP JUMP JUMPDEST PUSH1 0x0 PUSH2 0x120 DUP3 ADD SWAP1 POP PUSH2 0x310E PUSH1 0x0 DUP4 ADD DUP13 PUSH2 0x2F06 JUMP JUMPDEST PUSH2 0x311B PUSH1 0x20 DUP4 ADD DUP12 PUSH2 0x2BD0 JUMP JUMPDEST PUSH2 0x3128 PUSH1 0x40 DUP4 ADD DUP11 PUSH2 0x2BD0 JUMP JUMPDEST PUSH2 0x3135 PUSH1 0x60 DUP4 ADD DUP10 PUSH2 0x2C54 JUMP JUMPDEST DUP2 DUP2 SUB PUSH1 0x80 DUP4 ADD MSTORE PUSH2 0x3147 DUP2 DUP9 PUSH2 0x2DBF JUMP JUMPDEST SWAP1 POP PUSH2 0x3156 PUSH1 0xA0 DUP4 ADD DUP8 PUSH2 0x2F06 JUMP JUMPDEST PUSH2 0x3163 PUSH1 0xC0 DUP4 ADD DUP7 PUSH2 0x2BD0 JUMP JUMPDEST PUSH2 0x3170 PUSH1 0xE0 DUP4 ADD DUP6 PUSH2 0x2F06 JUMP JUMPDEST PUSH2 0x317E PUSH2 0x100 DUP4 ADD DUP5 PUSH2 0x2C36 JUMP JUMPDEST SWAP11 SWAP10 POP POP POP POP POP POP POP POP POP POP JUMP JUMPDEST PUSH1 0x0 PUSH2 0x3196 PUSH2 0x31A7 JUMP JUMPDEST SWAP1 POP PUSH2 0x31A2 DUP3 DUP3 PUSH2 0x3428 JUMP JUMPDEST SWAP2 SWAP1 POP JUMP JUMPDEST PUSH1 0x0 PUSH1 0x40 MLOAD SWAP1 POP SWAP1 JUMP JUMPDEST PUSH1 0x0 PUSH8 0xFFFFFFFFFFFFFFFF DUP3 GT ISZERO PUSH2 0x31CC JUMPI PUSH2 0x31CB PUSH2 0x358D JUMP JUMPDEST JUMPDEST PUSH2 0x31D5 DUP3 PUSH2 0x35DA JUMP JUMPDEST SWAP1 POP PUSH1 0x20 DUP2 ADD SWAP1 POP SWAP2 SWAP1 POP JUMP JUMPDEST PUSH1 0x0 DUP2 MLOAD SWAP1 POP SWAP2 SWAP1 POP JUMP JUMPDEST PUSH1 0x0 DUP3 DUP3 MSTORE PUSH1 0x20 DUP3 ADD SWAP1 POP SWAP3 SWAP2 POP POP JUMP JUMPDEST PUSH1 0x0 DUP3 DUP3 MSTORE PUSH1 0x20 DUP3 ADD SWAP1 POP SWAP3 SWAP2 POP POP JUMP JUMPDEST PUSH1 0x0 PUSH2 0x321A DUP3 PUSH2 0x3374 JUMP JUMPDEST SWAP2 POP PUSH2 0x3225 DUP4 PUSH2 0x3374 JUMP JUMPDEST SWAP3 POP DUP3 PUSH32 0xFFFFFFFFFFFFFFFFFFFFFFFFFFFFFFFFFFFFFFFFFFFFFFFFFFFFFFFFFFFFFFFF SUB DUP3 GT ISZERO PUSH2 0x325A JUMPI PUSH2 0x3259 PUSH2 0x34A2 JUMP JUMPDEST JUMPDEST DUP3 DUP3 ADD SWAP1 POP SWAP3 SWAP2 POP POP JUMP JUMPDEST PUSH1 0x0 PUSH2 0x3270 DUP3 PUSH2 0x3374 JUMP JUMPDEST SWAP2 POP PUSH2 0x327B DUP4 PUSH2 0x3374 JUMP JUMPDEST SWAP3 POP DUP2 PUSH32 0xFFFFFFFFFFFFFFFFFFFFFFFFFFFFFFFFFFFFFFFFFFFFFFFFFFFFFFFFFFFFFFFF DIV DUP4 GT DUP3 ISZERO ISZERO AND ISZERO PUSH2 0x32B4 JUMPI PUSH2 0x32B3 PUSH2 0x34A2 JUMP JUMPDEST JUMPDEST DUP3 DUP3 MUL SWAP1 POP SWAP3 SWAP2 POP POP JUMP JUMPDEST PUSH1 0x0 PUSH2 0x32CA DUP3 PUSH2 0x3374 JUMP JUMPDEST SWAP2 POP PUSH2 0x32D5 DUP4 PUSH2 0x3374 JUMP JUMPDEST SWAP3 POP DUP3 DUP3 LT ISZERO PUSH2 0x32E8 JUMPI PUSH2 0x32E7 PUSH2 0x34A2 JUMP JUMPDEST JUMPDEST DUP3 DUP3 SUB SWAP1 POP SWAP3 SWAP2 POP POP JUMP JUMPDEST PUSH1 0x0 PUSH2 0x32FE DUP3 PUSH2 0x3354 JUMP JUMPDEST SWAP1 POP SWAP2 SWAP1 POP JUMP JUMPDEST PUSH1 0x0 DUP2 ISZERO ISZERO SWAP1 POP SWAP2 SWAP1 POP JUMP JUMPDEST PUSH1 0x0 DUP2 SWAP1 POP SWAP2 SWAP1 POP JUMP JUMPDEST PUSH1 0x0 DUP2 SWAP1 POP PUSH2 0x3329 DUP3 PUSH2 0x3817 JUMP JUMPDEST SWAP2 SWAP1 POP JUMP JUMPDEST PUSH1 0x0 DUP2 SWAP1 POP PUSH2 0x333C DUP3 PUSH2 0x382B JUMP JUMPDEST SWAP2 SWAP1 POP JUMP JUMPDEST PUSH1 0x0 DUP2 SWAP1 POP PUSH2 0x334F DUP3 PUSH2 0x383F JUMP JUMPDEST SWAP2 SWAP1 POP JUMP JUMPDEST PUSH1 0x0 PUSH20 0xFFFFFFFFFFFFFFFFFFFFFFFFFFFFFFFFFFFFFFFF DUP3 AND SWAP1 POP SWAP2 SWAP1 POP JUMP JUMPDEST PUSH1 0x0 DUP2 SWAP1 POP SWAP2 SWAP1 POP JUMP JUMPDEST PUSH1 0x0 PUSH2 0x3389 DUP3 PUSH2 0x331B JUMP JUMPDEST SWAP1 POP SWAP2 SWAP1 POP JUMP JUMPDEST PUSH1 0x0 PUSH2 0x339B DUP3 PUSH2 0x332E JUMP JUMPDEST SWAP1 POP SWAP2 SWAP1 POP JUMP JUMPDEST PUSH1 0x0 PUSH2 0x33AD DUP3 PUSH2 0x3341 JUMP JUMPDEST SWAP1 POP SWAP2 SWAP1 POP JUMP JUMPDEST DUP3 DUP2 DUP4 CALLDATACOPY PUSH1 0x0 DUP4 DUP4 ADD MSTORE POP POP POP JUMP JUMPDEST PUSH1 0x0 JUMPDEST DUP4 DUP2 LT ISZERO PUSH2 0x33E1 JUMPI DUP1 DUP3 ADD MLOAD DUP2 DUP5 ADD MSTORE PUSH1 0x20 DUP2 ADD SWAP1 POP PUSH2 0x33C6 JUMP JUMPDEST DUP4 DUP2 GT ISZERO PUSH2 0x33F0 JUMPI PUSH1 0x0 DUP5 DUP5 ADD MSTORE JUMPDEST POP POP POP POP JUMP JUMPDEST PUSH1 0x0 PUSH1 0x2 DUP3 DIV SWAP1 POP PUSH1 0x1 DUP3 AND DUP1 PUSH2 0x340E JUMPI PUSH1 0x7F DUP3 AND SWAP2 POP JUMPDEST PUSH1 0x20 DUP3 LT DUP2 EQ ISZERO PUSH2 0x3422 JUMPI PUSH2 0x3421 PUSH2 0x3500 JUMP JUMPDEST JUMPDEST POP SWAP2 SWAP1 POP JUMP JUMPDEST PUSH2 0x3431 DUP3 PUSH2 0x35DA JUMP JUMPDEST DUP2 ADD DUP2 DUP2 LT PUSH8 0xFFFFFFFFFFFFFFFF DUP3 GT OR ISZERO PUSH2 0x3450 JUMPI PUSH2 0x344F PUSH2 0x358D JUMP JUMPDEST JUMPDEST DUP1 PUSH1 0x40 MSTORE POP POP POP JUMP JUMPDEST PUSH1 0x0 PUSH2 0x3464 DUP3 PUSH2 0x3374 JUMP JUMPDEST SWAP2 POP PUSH32 0xFFFFFFFFFFFFFFFFFFFFFFFFFFFFFFFFFFFFFFFFFFFFFFFFFFFFFFFFFFFFFFFF DUP3 EQ ISZERO PUSH2 0x3497 JUMPI PUSH2 0x3496 PUSH2 0x34A2 JUMP JUMPDEST JUMPDEST PUSH1 0x1 DUP3 ADD SWAP1 POP SWAP2 SWAP1 POP JUMP JUMPDEST PUSH32 0x4E487B7100000000000000000000000000000000000000000000000000000000 PUSH1 0x0 MSTORE PUSH1 0x11 PUSH1 0x4 MSTORE PUSH1 0x24 PUSH1 0x0 REVERT JUMPDEST PUSH32 0x4E487B7100000000000000000000000000000000000000000000000000000000 PUSH1 0x0 MSTORE PUSH1 0x21 PUSH1 0x4 MSTORE PUSH1 0x24 PUSH1 0x0 REVERT JUMPDEST PUSH32 0x4E487B7100000000000000000000000000000000000000000000000000000000 PUSH1 0x0 MSTORE PUSH1 0x22 PUSH1 0x4 MSTORE PUSH1 0x24 PUSH1 0x0 REVERT JUMPDEST PUSH32 0x4E487B7100000000000000000000000000000000000000000000000000000000 PUSH1 0x0 MSTORE PUSH1 0x31 PUSH1 0x4 MSTORE PUSH1 0x24 PUSH1 0x0 REVERT JUMPDEST PUSH32 0x4E487B7100000000000000000000000000000000000000000000000000000000 PUSH1 0x0 MSTORE PUSH1 0x32 PUSH1 0x4 MSTORE PUSH1 0x24 PUSH1 0x0 REVERT JUMPDEST PUSH32 0x4E487B7100000000000000000000000000000000000000000000000000000000 PUSH1 0x0 MSTORE PUSH1 0x41 PUSH1 0x4 MSTORE PUSH1 0x24 PUSH1 0x0 REVERT JUMPDEST PUSH1 0x0 DUP1 REVERT JUMPDEST PUSH1 0x0 DUP1 REVERT JUMPDEST PUSH1 0x0 DUP1 REVERT JUMPDEST PUSH1 0x0 DUP1 REVERT JUMPDEST PUSH1 0x0 DUP1 REVERT JUMPDEST PUSH1 0x0 DUP1 REVERT JUMPDEST PUSH1 0x0 PUSH1 0x1F NOT PUSH1 0x1F DUP4 ADD AND SWAP1 POP SWAP2 SWAP1 POP JUMP JUMPDEST PUSH32 0x54686520666F6C6C6F77696E6720636F6E74726163742068617320616C726561 PUSH1 0x0 DUP3 ADD MSTORE PUSH32 0x6479206265656E2061646465642E000000000000000000000000000000000000 PUSH1 0x20 DUP3 ADD MSTORE POP JUMP JUMPDEST PUSH32 0x54686520666F6C6C6F77696E672076656869636C652068617320616C72656164 PUSH1 0x0 DUP3 ADD MSTORE PUSH32 0x79206265656E2061646465642E00000000000000000000000000000000000000 PUSH1 0x20 DUP3 ADD MSTORE POP JUMP JUMPDEST PUSH32 0x436F756C64206E6F742070726F63656564206265636175736520746865726520 PUSH1 0x0 DUP3 ADD MSTORE PUSH32 0x6973206E6F7420656E6F7567682045544820696E20796F75722077616C6C6574 PUSH1 0x20 DUP3 ADD MSTORE POP JUMP JUMPDEST PUSH32 0x5265737472696374656420746F206F776E6572732E0000000000000000000000 PUSH1 0x0 DUP3 ADD MSTORE POP JUMP JUMPDEST PUSH32 0x5468652073656C65637465642076656869636C652069732063757272656E746C PUSH1 0x0 DUP3 ADD MSTORE PUSH32 0x79206E6F7420617661696C61626C652E00000000000000000000000000000000 PUSH1 0x20 DUP3 ADD MSTORE POP JUMP JUMPDEST PUSH32 0x54686520666F6C6C6F77696E6720636F6E747261637420636F756C64206E6F74 PUSH1 0x0 DUP3 ADD MSTORE PUSH32 0x20626520666F756E6420696E20746865206D617070696E67206C6973742E0000 PUSH1 0x20 DUP3 ADD MSTORE POP JUMP JUMPDEST PUSH32 0x5265737472696374656420746F2072656E746572732E00000000000000000000 PUSH1 0x0 DUP3 ADD MSTORE POP JUMP JUMPDEST PUSH32 0x54686520666F6C6C6F77696E672076656869636C6520636F756C64206E6F7420 PUSH1 0x0 DUP3 ADD MSTORE PUSH32 0x626520666F756E6420696E20746865206D617070696E67206C6973742E000000 PUSH1 0x20 DUP3 ADD MSTORE POP JUMP JUMPDEST PUSH1 0x3 DUP2 LT PUSH2 0x3828 JUMPI PUSH2 0x3827 PUSH2 0x34D1 JUMP JUMPDEST JUMPDEST POP JUMP JUMPDEST PUSH1 0x2 DUP2 LT PUSH2 0x383C JUMPI PUSH2 0x383B PUSH2 0x34D1 JUMP JUMPDEST JUMPDEST POP JUMP JUMPDEST PUSH1 0x7 DUP2 LT PUSH2 0x3850 JUMPI PUSH2 0x384F PUSH2 0x34D1 JUMP JUMPDEST JUMPDEST POP JUMP JUMPDEST PUSH2 0x385C DUP2 PUSH2 0x32F3 JUMP JUMPDEST DUP2 EQ PUSH2 0x3867 JUMPI PUSH1 0x0 DUP1 REVERT JUMPDEST POP JUMP JUMPDEST PUSH2 0x3873 DUP2 PUSH2 0x3311 JUMP JUMPDEST DUP2 EQ PUSH2 0x387E JUMPI PUSH1 0x0 DUP1 REVERT JUMPDEST POP JUMP JUMPDEST PUSH1 0x7 DUP2 LT PUSH2 0x388E JUMPI PUSH1 0x0 DUP1 REVERT JUMPDEST POP JUMP JUMPDEST PUSH2 0x389A DUP2 PUSH2 0x3374 JUMP JUMPDEST DUP2 EQ PUSH2 0x38A5 JUMPI PUSH1 0x0 DUP1 REVERT JUMPDEST POP JUMP INVALID LOG2 PUSH5 0x6970667358 0x22 SLT KECCAK256 0xC5 0xF9 PUSH4 0x4C3444E9 DUP10 0xE3 SAR 0x2D PUSH31 0x92E8BE36414E24984288B5A0441987710B21378264736F6C63430008070033 "
		},
		"gasEstimates": {
			"creation": {
				"codeDepositCost": "2911600",
				"executionCost": "13197",
				"totalCost": "2924797"
			},
			"external": {
				"OWNER_ROLE()": "461",
				"RENTER_ROLE()": "395",
				"addInsurancePackage(uint256,uint256,uint256)": "infinite",
				"addOwner(address)": "infinite",
				"addRentPeriod(uint256,(bytes32,bytes32),uint256)": "infinite",
				"addRenter(address)": "infinite",
				"addVehicle(bytes32,bytes32,uint8,(bytes,bytes),uint256,bytes32,uint256)": "infinite",
				"completion(uint256,uint256)": "infinite",
				"confirmation(uint256,uint256)": "infinite",
				"contractCount()": "2562",
				"contracts(uint256)": "infinite",
				"getContractByID(uint256)": "infinite",
				"getRoleMember(bytes32,uint256)": "infinite",
				"getRoleMemberCount(bytes32)": "2974",
				"getVehicleByID(uint256)": "infinite",
				"hasRole(bytes32,address)": "infinite",
				"isOwner(address)": "infinite",
				"isRenter(address)": "infinite",
				"removeOwner(address)": "infinite",
				"removeRenter(address)": "infinite",
				"renounceOwner()": "infinite",
				"renounceRenter()": "infinite",
				"vehicleCount()": "2518",
				"vehicles(uint256)": "infinite"
			}
		},
		"methodIdentifiers": {
			"OWNER_ROLE()": "e58378bb",
			"RENTER_ROLE()": "b97c9f77",
			"addInsurancePackage(uint256,uint256,uint256)": "37c3510a",
			"addOwner(address)": "7065cb48",
			"addRentPeriod(uint256,(bytes32,bytes32),uint256)": "a1a25243",
			"addRenter(address)": "de8b1989",
			"addVehicle(bytes32,bytes32,uint8,(bytes,bytes),uint256,bytes32,uint256)": "11060ec7",
			"completion(uint256,uint256)": "87b50547",
			"confirmation(uint256,uint256)": "79b67caa",
			"contractCount()": "8736381a",
			"contracts(uint256)": "474da79a",
			"getContractByID(uint256)": "7b66fe2e",
			"getRoleMember(bytes32,uint256)": "9010d07c",
			"getRoleMemberCount(bytes32)": "ca15c873",
			"getVehicleByID(uint256)": "69a8f49e",
			"hasRole(bytes32,address)": "91d14854",
			"isOwner(address)": "2f54bf6e",
			"isRenter(address)": "9f2bc40e",
			"removeOwner(address)": "173825d9",
			"removeRenter(address)": "02aec3ce",
			"renounceOwner()": "28c23a45",
			"renounceRenter()": "a36a5d8d",
			"vehicleCount()": "99704937",
			"vehicles(uint256)": "b8ba95fa"
		}
	},
	"abi": [
		{
			"inputs": [],
			"stateMutability": "nonpayable",
			"type": "constructor"
		},
		{
			"anonymous": false,
			"inputs": [
				{
					"indexed": true,
					"internalType": "bytes32",
					"name": "role",
					"type": "bytes32"
				},
				{
					"indexed": true,
					"internalType": "address",
					"name": "account",
					"type": "address"
				},
				{
					"indexed": true,
					"internalType": "address",
					"name": "sender",
					"type": "address"
				}
			],
			"name": "RoleGranted",
			"type": "event"
		},
		{
			"anonymous": false,
			"inputs": [
				{
					"indexed": true,
					"internalType": "bytes32",
					"name": "role",
					"type": "bytes32"
				},
				{
					"indexed": true,
					"internalType": "address",
					"name": "account",
					"type": "address"
				},
				{
					"indexed": true,
					"internalType": "address",
					"name": "sender",
					"type": "address"
				}
			],
			"name": "RoleRevoked",
			"type": "event"
		},
		{
			"inputs": [],
			"name": "OWNER_ROLE",
			"outputs": [
				{
					"internalType": "bytes32",
					"name": "",
					"type": "bytes32"
				}
			],
			"stateMutability": "view",
			"type": "function"
		},
		{
			"inputs": [],
			"name": "RENTER_ROLE",
			"outputs": [
				{
					"internalType": "bytes32",
					"name": "",
					"type": "bytes32"
				}
			],
			"stateMutability": "view",
			"type": "function"
		},
		{
			"inputs": [
				{
					"internalType": "uint256",
					"name": "carId",
					"type": "uint256"
				},
				{
					"internalType": "uint256",
					"name": "contractId",
					"type": "uint256"
				},
				{
					"internalType": "uint256",
					"name": "insuranceDeposit",
					"type": "uint256"
				}
			],
			"name": "addInsurancePackage",
			"outputs": [
				{
					"internalType": "bool",
					"name": "success",
					"type": "bool"
				}
			],
			"stateMutability": "nonpayable",
			"type": "function"
		},
		{
			"inputs": [
				{
					"internalType": "address",
					"name": "account",
					"type": "address"
				}
			],
			"name": "addOwner",
			"outputs": [],
			"stateMutability": "nonpayable",
			"type": "function"
		},
		{
			"inputs": [
				{
					"internalType": "uint256",
					"name": "carId",
					"type": "uint256"
				},
				{
					"components": [
						{
							"internalType": "bytes32",
							"name": "from",
							"type": "bytes32"
						},
						{
							"internalType": "bytes32",
							"name": "to",
							"type": "bytes32"
						}
					],
					"internalType": "struct Rental.Period",
					"name": "period",
					"type": "tuple"
				},
				{
					"internalType": "uint256",
					"name": "dayscount",
					"type": "uint256"
				}
			],
			"name": "addRentPeriod",
			"outputs": [
				{
					"internalType": "bool",
					"name": "success",
					"type": "bool"
				}
			],
			"stateMutability": "nonpayable",
			"type": "function"
		},
		{
			"inputs": [
				{
					"internalType": "address",
					"name": "account",
					"type": "address"
				}
			],
			"name": "addRenter",
			"outputs": [],
			"stateMutability": "nonpayable",
			"type": "function"
		},
		{
			"inputs": [
				{
					"internalType": "bytes32",
					"name": "name",
					"type": "bytes32"
				},
				{
					"internalType": "bytes32",
					"name": "brand",
					"type": "bytes32"
				},
				{
					"internalType": "enum Rental.VehicleType",
					"name": "vehicleType",
					"type": "uint8"
				},
				{
					"components": [
						{
							"internalType": "bytes",
							"name": "latitude",
							"type": "bytes"
						},
						{
							"internalType": "bytes",
							"name": "longitude",
							"type": "bytes"
						}
					],
					"internalType": "struct Rental.Coordinate",
					"name": "location",
					"type": "tuple"
				},
				{
					"internalType": "uint256",
					"name": "model",
					"type": "uint256"
				},
				{
					"internalType": "bytes32",
					"name": "image",
					"type": "bytes32"
				},
				{
					"internalType": "uint256",
					"name": "rentCost",
					"type": "uint256"
				}
			],
			"name": "addVehicle",
			"outputs": [
				{
					"internalType": "bool",
					"name": "success",
					"type": "bool"
				}
			],
			"stateMutability": "nonpayable",
			"type": "function"
		},
		{
			"inputs": [
				{
					"internalType": "uint256",
					"name": "contractId",
					"type": "uint256"
				},
				{
					"internalType": "uint256",
					"name": "carId",
					"type": "uint256"
				}
			],
			"name": "completion",
			"outputs": [
				{
					"internalType": "bool",
					"name": "success",
					"type": "bool"
				}
			],
			"stateMutability": "payable",
			"type": "function"
		},
		{
			"inputs": [
				{
					"internalType": "uint256",
					"name": "contractId",
					"type": "uint256"
				},
				{
					"internalType": "uint256",
					"name": "carId",
					"type": "uint256"
				}
			],
			"name": "confirmation",
			"outputs": [
				{
					"internalType": "bool",
					"name": "success",
					"type": "bool"
				}
			],
			"stateMutability": "payable",
			"type": "function"
		},
		{
			"inputs": [],
			"name": "contractCount",
			"outputs": [
				{
					"internalType": "uint256",
					"name": "",
					"type": "uint256"
				}
			],
			"stateMutability": "view",
			"type": "function"
		},
		{
			"inputs": [
				{
					"internalType": "uint256",
					"name": "",
					"type": "uint256"
				}
			],
			"name": "contracts",
			"outputs": [
				{
					"internalType": "address",
					"name": "id",
					"type": "address"
				},
				{
					"components": [
						{
							"internalType": "uint256",
							"name": "id",
							"type": "uint256"
						},
						{
							"internalType": "bytes32",
							"name": "name",
							"type": "bytes32"
						},
						{
							"internalType": "bytes32",
							"name": "brand",
							"type": "bytes32"
						},
						{
							"internalType": "enum Rental.VehicleType",
							"name": "vehicleType",
							"type": "uint8"
						},
						{
							"components": [
								{
									"internalType": "bytes",
									"name": "latitude",
									"type": "bytes"
								},
								{
									"internalType": "bytes",
									"name": "longitude",
									"type": "bytes"
								}
							],
							"internalType": "struct Rental.Coordinate",
							"name": "location",
							"type": "tuple"
						},
						{
							"internalType": "uint256",
							"name": "model",
							"type": "uint256"
						},
						{
							"internalType": "bytes32",
							"name": "image",
							"type": "bytes32"
						},
						{
							"internalType": "uint256",
							"name": "rentCost",
							"type": "uint256"
						},
						{
							"internalType": "enum Rental.VehicleStatus",
							"name": "status",
							"type": "uint8"
						}
					],
					"internalType": "struct Rental.Vehicle",
					"name": "selectedVehicle",
					"type": "tuple"
				},
				{
					"components": [
						{
							"internalType": "bytes32",
							"name": "from",
							"type": "bytes32"
						},
						{
							"internalType": "bytes32",
							"name": "to",
							"type": "bytes32"
						}
					],
					"internalType": "struct Rental.Period",
					"name": "period",
					"type": "tuple"
				},
				{
					"internalType": "uint256",
					"name": "totalCost",
					"type": "uint256"
				},
				{
					"internalType": "uint256",
					"name": "insuranceDeposit",
					"type": "uint256"
				},
				{
					"internalType": "uint256",
					"name": "dateOfIssuance",
					"type": "uint256"
				},
				{
					"internalType": "enum Rental.ContractStatus",
					"name": "status",
					"type": "uint8"
				}
			],
			"stateMutability": "view",
			"type": "function"
		},
		{
			"inputs": [
				{
					"internalType": "uint256",
					"name": "",
					"type": "uint256"
				}
			],
			"name": "getContractByID",
			"outputs": [
				{
					"internalType": "address",
					"name": "id",
					"type": "address"
				},
				{
					"components": [
						{
							"internalType": "uint256",
							"name": "id",
							"type": "uint256"
						},
						{
							"internalType": "bytes32",
							"name": "name",
							"type": "bytes32"
						},
						{
							"internalType": "bytes32",
							"name": "brand",
							"type": "bytes32"
						},
						{
							"internalType": "enum Rental.VehicleType",
							"name": "vehicleType",
							"type": "uint8"
						},
						{
							"components": [
								{
									"internalType": "bytes",
									"name": "latitude",
									"type": "bytes"
								},
								{
									"internalType": "bytes",
									"name": "longitude",
									"type": "bytes"
								}
							],
							"internalType": "struct Rental.Coordinate",
							"name": "location",
							"type": "tuple"
						},
						{
							"internalType": "uint256",
							"name": "model",
							"type": "uint256"
						},
						{
							"internalType": "bytes32",
							"name": "image",
							"type": "bytes32"
						},
						{
							"internalType": "uint256",
							"name": "rentCost",
							"type": "uint256"
						},
						{
							"internalType": "enum Rental.VehicleStatus",
							"name": "status",
							"type": "uint8"
						}
					],
					"internalType": "struct Rental.Vehicle",
					"name": "selectedVehicle",
					"type": "tuple"
				},
				{
					"components": [
						{
							"internalType": "bytes32",
							"name": "from",
							"type": "bytes32"
						},
						{
							"internalType": "bytes32",
							"name": "to",
							"type": "bytes32"
						}
					],
					"internalType": "struct Rental.Period",
					"name": "period",
					"type": "tuple"
				},
				{
					"internalType": "uint256",
					"name": "totalCost",
					"type": "uint256"
				},
				{
					"internalType": "uint256",
					"name": "insuranceDeposit",
					"type": "uint256"
				},
				{
					"internalType": "uint256",
					"name": "dateOfIssuance",
					"type": "uint256"
				},
				{
					"internalType": "enum Rental.ContractStatus",
					"name": "status",
					"type": "uint8"
				}
			],
			"stateMutability": "view",
			"type": "function"
		},
		{
			"inputs": [
				{
					"internalType": "bytes32",
					"name": "role",
					"type": "bytes32"
				},
				{
					"internalType": "uint256",
					"name": "index",
					"type": "uint256"
				}
			],
			"name": "getRoleMember",
			"outputs": [
				{
					"internalType": "address",
					"name": "",
					"type": "address"
				}
			],
			"stateMutability": "view",
			"type": "function"
		},
		{
			"inputs": [
				{
					"internalType": "bytes32",
					"name": "role",
					"type": "bytes32"
				}
			],
			"name": "getRoleMemberCount",
			"outputs": [
				{
					"internalType": "uint256",
					"name": "",
					"type": "uint256"
				}
			],
			"stateMutability": "view",
			"type": "function"
		},
		{
			"inputs": [
				{
					"internalType": "uint256",
					"name": "",
					"type": "uint256"
				}
			],
			"name": "getVehicleByID",
			"outputs": [
				{
					"internalType": "uint256",
					"name": "id",
					"type": "uint256"
				},
				{
					"internalType": "bytes32",
					"name": "name",
					"type": "bytes32"
				},
				{
					"internalType": "bytes32",
					"name": "brand",
					"type": "bytes32"
				},
				{
					"internalType": "enum Rental.VehicleType",
					"name": "vehicleType",
					"type": "uint8"
				},
				{
					"components": [
						{
							"internalType": "bytes",
							"name": "latitude",
							"type": "bytes"
						},
						{
							"internalType": "bytes",
							"name": "longitude",
							"type": "bytes"
						}
					],
					"internalType": "struct Rental.Coordinate",
					"name": "location",
					"type": "tuple"
				},
				{
					"internalType": "uint256",
					"name": "model",
					"type": "uint256"
				},
				{
					"internalType": "bytes32",
					"name": "image",
					"type": "bytes32"
				},
				{
					"internalType": "uint256",
					"name": "rentCost",
					"type": "uint256"
				},
				{
					"internalType": "enum Rental.VehicleStatus",
					"name": "status",
					"type": "uint8"
				}
			],
			"stateMutability": "view",
			"type": "function"
		},
		{
			"inputs": [
				{
					"internalType": "bytes32",
					"name": "role",
					"type": "bytes32"
				},
				{
					"internalType": "address",
					"name": "account",
					"type": "address"
				}
			],
			"name": "hasRole",
			"outputs": [
				{
					"internalType": "bool",
					"name": "",
					"type": "bool"
				}
			],
			"stateMutability": "view",
			"type": "function"
		},
		{
			"inputs": [
				{
					"internalType": "address",
					"name": "account",
					"type": "address"
				}
			],
			"name": "isOwner",
			"outputs": [
				{
					"internalType": "bool",
					"name": "",
					"type": "bool"
				}
			],
			"stateMutability": "view",
			"type": "function"
		},
		{
			"inputs": [
				{
					"internalType": "address",
					"name": "account",
					"type": "address"
				}
			],
			"name": "isRenter",
			"outputs": [
				{
					"internalType": "bool",
					"name": "",
					"type": "bool"
				}
			],
			"stateMutability": "view",
			"type": "function"
		},
		{
			"inputs": [
				{
					"internalType": "address",
					"name": "account",
					"type": "address"
				}
			],
			"name": "removeOwner",
			"outputs": [],
			"stateMutability": "nonpayable",
			"type": "function"
		},
		{
			"inputs": [
				{
					"internalType": "address",
					"name": "account",
					"type": "address"
				}
			],
			"name": "removeRenter",
			"outputs": [],
			"stateMutability": "nonpayable",
			"type": "function"
		},
		{
			"inputs": [],
			"name": "renounceOwner",
			"outputs": [],
			"stateMutability": "nonpayable",
			"type": "function"
		},
		{
			"inputs": [],
			"name": "renounceRenter",
			"outputs": [],
			"stateMutability": "nonpayable",
			"type": "function"
		},
		{
			"inputs": [],
			"name": "vehicleCount",
			"outputs": [
				{
					"internalType": "uint256",
					"name": "",
					"type": "uint256"
				}
			],
			"stateMutability": "view",
			"type": "function"
		},
		{
			"inputs": [
				{
					"internalType": "uint256",
					"name": "",
					"type": "uint256"
				}
			],
			"name": "vehicles",
			"outputs": [
				{
					"internalType": "uint256",
					"name": "id",
					"type": "uint256"
				},
				{
					"internalType": "bytes32",
					"name": "name",
					"type": "bytes32"
				},
				{
					"internalType": "bytes32",
					"name": "brand",
					"type": "bytes32"
				},
				{
					"internalType": "enum Rental.VehicleType",
					"name": "vehicleType",
					"type": "uint8"
				},
				{
					"components": [
						{
							"internalType": "bytes",
							"name": "latitude",
							"type": "bytes"
						},
						{
							"internalType": "bytes",
							"name": "longitude",
							"type": "bytes"
						}
					],
					"internalType": "struct Rental.Coordinate",
					"name": "location",
					"type": "tuple"
				},
				{
					"internalType": "uint256",
					"name": "model",
					"type": "uint256"
				},
				{
					"internalType": "bytes32",
					"name": "image",
					"type": "bytes32"
				},
				{
					"internalType": "uint256",
					"name": "rentCost",
					"type": "uint256"
				},
				{
					"internalType": "enum Rental.VehicleStatus",
					"name": "status",
					"type": "uint8"
				}
			],
			"stateMutability": "view",
			"type": "function"
		}
	]
}