{
	"data": {
		"bytecode": {
			"linkReferences": {},
			"object": "60806040526000600355600060045534801561001a57600080fd5b50613b218061002a6000396000f3fe6080604052600436106101665760003560e01c80638736381a116100d1578063a1a252431161008a578063b97c9f7711610064578063b97c9f77146105a1578063ca15c873146105cc578063de8b198914610609578063e58378bb1461063257610166565b8063a1a2524314610508578063a36a5d8d14610545578063b8ba95fa1461055c57610166565b80638736381a146103cb57806387b50547146103f65780639010d07c1461042657806391d148541461046357806399704937146104a05780639f2bc40e146104cb57610166565b8063474da79a11610123578063474da79a1461028b57806369a8f49e146102ce5780637065cb481461031357806374539cd01461033c57806379b67caa146103585780637b66fe2e1461038857610166565b806302aec3ce1461016b57806311060ec714610194578063173825d9146101d157806328c23a45146101fa5780632f54bf6e1461021157806337c3510a1461024e575b600080fd5b34801561017757600080fd5b50610192600480360381019061018d9190612a89565b61065d565b005b3480156101a057600080fd5b506101bb60048036038101906101b69190612b23565b61068a565b6040516101c89190613193565b60405180910390f35b3480156101dd57600080fd5b506101f860048036038101906101f39190612a89565b6109cf565b005b34801561020657600080fd5b5061020f6109fc565b005b34801561021d57600080fd5b5061023860048036038101906102339190612a89565b610a28565b6040516102459190613193565b60405180910390f35b34801561025a57600080fd5b5061027560048036038101906102709190612ce1565b610a5b565b6040516102829190613193565b60405180910390f35b34801561029757600080fd5b506102b260048036038101906102ad9190612c21565b610c07565b6040516102c5979695949392919061311c565b60405180910390f35b3480156102da57600080fd5b506102f560048036038101906102f09190612c21565b610e99565b60405161030a99989796959493929190613304565b60405180910390f35b34801561031f57600080fd5b5061033a60048036038101906103359190612a89565b61102f565b005b61035660048036038101906103519190612c21565b61109d565b005b610372600480360381019061036d9190612ca1565b6110a0565b60405161037f9190613193565b60405180910390f35b34801561039457600080fd5b506103af60048036038101906103aa9190612c21565b61146c565b6040516103c2979695949392919061311c565b60405180910390f35b3480156103d757600080fd5b506103e06116ee565b6040516103ed91906132e9565b60405180910390f35b610410600480360381019061040b9190612ca1565b6116f4565b60405161041d9190613193565b60405180910390f35b34801561043257600080fd5b5061044d60048036038101906104489190612be1565b611a01565b60405161045a9190613101565b60405180910390f35b34801561046f57600080fd5b5061048a60048036038101906104859190612ae3565b611a2f565b6040516104979190613193565b60405180910390f35b3480156104ac57600080fd5b506104b5611a5d565b6040516104c291906132e9565b60405180910390f35b3480156104d757600080fd5b506104f260048036038101906104ed9190612a89565b611a63565b6040516104ff9190613193565b60405180910390f35b34801561051457600080fd5b5061052f600480360381019061052a9190612c4e565b611a96565b60405161053c9190613193565b60405180910390f35b34801561055157600080fd5b5061055a6121d5565b005b34801561056857600080fd5b50610583600480360381019061057e9190612c21565b612201565b60405161059899989796959493929190613304565b60405180910390f35b3480156105ad57600080fd5b506105b66123a7565b6040516105c391906131ae565b60405180910390f35b3480156105d857600080fd5b506105f360048036038101906105ee9190612ab6565b6123cb565b60405161060091906132e9565b60405180910390f35b34801561061557600080fd5b50610630600480360381019061062b9190612a89565b6123ee565b005b34801561063e57600080fd5b5061064761245c565b60405161065491906131ae565b60405180910390f35b6106877f52454e544552000000000000000000000000000000000000000000000000000082612480565b50565b600061069533610a28565b6106d4576040517f08c379a00000000000000000000000000000000000000000000000000000000081526004016106cb90613229565b60405180910390fd5b60016003546106e39190613426565b60068054905010610729576040517f08c379a0000000000000000000000000000000000000000000000000000000008152600401610720906131e9565b60405180910390fd5b6003600081548092919061073c90613670565b9190505550600060405180610120016040528060035481526020018a8152602001898152602001886006811115610776576107756136e8565b5b8152602001878152602001868152602001858152602001848152602001600060018111156107a7576107a66136e8565b5b81525090508060056000600354815260200190815260200160002060008201518160000155602082015181600101556040820151816002015560608201518160030160006101000a81548160ff0219169083600681111561080b5761080a6136e8565b5b0217905550608082015181600401600082015181600001908051906020019061083592919061284a565b50602082015181600101908051906020019061085292919061284a565b50505060a0820151816006015560c0820151816007015560e082015181600801556101008201518160090160006101000a81548160ff0219169083600181111561089f5761089e6136e8565b5b021790555090505060068190806001815401808255809150506001900390600052602060002090600a020160009091909190915060008201518160000155602082015181600101556040820151816002015560608201518160030160006101000a81548160ff0219169083600681111561091c5761091b6136e8565b5b0217905550608082015181600401600082015181600001908051906020019061094692919061284a565b50602082015181600101908051906020019061096392919061284a565b50505060a0820151816006015560c0820151816007015560e082015181600801556101008201518160090160006101000a81548160ff021916908360018111156109b0576109af6136e8565b5b0217905550505060035460068054905014915050979650505050505050565b6109f97f4f574e455200000000000000000000000000000000000000000000000000000082612480565b50565b610a267f4f574e455200000000000000000000000000000000000000000000000000000033612480565b565b6000610a547f4f574e455200000000000000000000000000000000000000000000000000000083611a2f565b9050919050565b6000610a6633611a63565b610aa5576040517f08c379a0000000000000000000000000000000000000000000000000000000008152600401610a9c906132a9565b60405180910390fd5b8360006001811115610aba57610ab96136e8565b5b6005600083815260200190815260200160002060090160009054906101000a900460ff166001811115610af057610aef6136e8565b5b14610b30576040517f08c379a0000000000000000000000000000000000000000000000000000000008152600401610b2790613269565b60405180910390fd5b83600073ffffffffffffffffffffffffffffffffffffffff166007600083815260200190815260200160002060000160009054906101000a900473ffffffffffffffffffffffffffffffffffffffff1673ffffffffffffffffffffffffffffffffffffffff161415610bd7576040517f08c379a0000000000000000000000000000000000000000000000000000000008152600401610bce90613289565b60405180910390fd5b8360076000878152602001908152602001600020600e018190555060045460088054905014925050509392505050565b60088181548110610c1757600080fd5b90600052602060002090601102016000915090508060000160009054906101000a900473ffffffffffffffffffffffffffffffffffffffff169080600101604051806101200160405290816000820154815260200160018201548152602001600282015481526020016003820160009054906101000a900460ff166006811115610ca457610ca36136e8565b5b6006811115610cb657610cb56136e8565b5b815260200160048201604051806040016040529081600082018054610cda9061360d565b80601f0160208091040260200160405190810160405280929190818152602001828054610d069061360d565b8015610d535780601f10610d2857610100808354040283529160200191610d53565b820191906000526020600020905b815481529060010190602001808311610d3657829003601f168201915b50505050508152602001600182018054610d6c9061360d565b80601f0160208091040260200160405190810160405280929190818152602001828054610d989061360d565b8015610de55780601f10610dba57610100808354040283529160200191610de5565b820191906000526020600020905b815481529060010190602001808311610dc857829003601f168201915b50505050508152505081526020016006820154815260200160078201548152602001600882015481526020016009820160009054906101000a900460ff166001811115610e3557610e346136e8565b5b6001811115610e4757610e466136e8565b5b815250509080600b01604051806040016040529081600082015481526020016001820154815250509080600d01549080600e01549080600f0154908060100160009054906101000a900460ff16905087565b60056020528060005260406000206000915090508060000154908060010154908060020154908060030160009054906101000a900460ff169080600401604051806040016040529081600082018054610ef19061360d565b80601f0160208091040260200160405190810160405280929190818152602001828054610f1d9061360d565b8015610f6a5780601f10610f3f57610100808354040283529160200191610f6a565b820191906000526020600020905b815481529060010190602001808311610f4d57829003601f168201915b50505050508152602001600182018054610f839061360d565b80601f0160208091040260200160405190810160405280929190818152602001828054610faf9061360d565b8015610ffc5780601f10610fd157610100808354040283529160200191610ffc565b820191906000526020600020905b815481529060010190602001808311610fdf57829003601f168201915b505050505081525050908060060154908060070154908060080154908060090160009054906101000a900460ff16905089565b80600260006101000a81548173ffffffffffffffffffffffffffffffffffffffff021916908373ffffffffffffffffffffffffffffffffffffffff16021790555061109a7f4f574e455200000000000000000000000000000000000000000000000000000082612510565b50565b50565b60006110ab33611a63565b6110ea576040517f08c379a00000000000000000000000000000000000000000000000000000000081526004016110e1906132a9565b60405180910390fd5b816000600560008381526020019081526020016000206000015411611144576040517f08c379a000000000000000000000000000000000000000000000000000000000815260040161113b906132c9565b60405180910390fd5b8260006001811115611159576111586136e8565b5b6005600083815260200190815260200160002060090160009054906101000a900460ff16600181111561118f5761118e6136e8565b5b146111cf576040517f08c379a00000000000000000000000000000000000000000000000000000000081526004016111c690613269565b60405180910390fd5b84600073ffffffffffffffffffffffffffffffffffffffff166007600083815260200190815260200160002060000160009054906101000a900473ffffffffffffffffffffffffffffffffffffffff1673ffffffffffffffffffffffffffffffffffffffff161415611276576040517f08c379a000000000000000000000000000000000000000000000000000000000815260040161126d90613289565b60405180910390fd5b85600060076000838152602001908152602001600020600d015460076000848152602001908152602001600020600e01546112b19190613426565b905080600160009054906101000a900473ffffffffffffffffffffffffffffffffffffffff1673ffffffffffffffffffffffffffffffffffffffff1631101561132f576040517f08c379a000000000000000000000000000000000000000000000000000000000815260040161132690613209565b60405180910390fd5b6001600760008a815260200190815260200160002060100160006101000a81548160ff02191690836002811115611369576113686136e8565b5b021790555060016005600089815260200190815260200160002060090160006101000a81548160ff021916908360018111156113a8576113a76136e8565b5b02179055506000600760008a8152602001908152602001600020600e0154600760008b8152602001908152602001600020600d01546113e79190613426565b90503073ffffffffffffffffffffffffffffffffffffffff166374539cd0826040518263ffffffff1660e01b815260040161142291906132e9565b600060405180830381600087803b15801561143c57600080fd5b505af1158015611450573d6000803e3d6000fd5b5050505060045460088054905014965050505050505092915050565b60076020528060005260406000206000915090508060000160009054906101000a900473ffffffffffffffffffffffffffffffffffffffff169080600101604051806101200160405290816000820154815260200160018201548152602001600282015481526020016003820160009054906101000a900460ff1660068111156114f9576114f86136e8565b5b600681111561150b5761150a6136e8565b5b81526020016004820160405180604001604052908160008201805461152f9061360d565b80601f016020809104026020016040519081016040528092919081815260200182805461155b9061360d565b80156115a85780601f1061157d576101008083540402835291602001916115a8565b820191906000526020600020905b81548152906001019060200180831161158b57829003601f168201915b505050505081526020016001820180546115c19061360d565b80601f01602080910402602001604051908101604052809291908181526020018280546115ed9061360d565b801561163a5780601f1061160f5761010080835404028352916020019161163a565b820191906000526020600020905b81548152906001019060200180831161161d57829003601f168201915b50505050508152505081526020016006820154815260200160078201548152602001600882015481526020016009820160009054906101000a900460ff16600181111561168a576116896136e8565b5b600181111561169c5761169b6136e8565b5b815250509080600b01604051806040016040529081600082015481526020016001820154815250509080600d01549080600e01549080600f0154908060100160009054906101000a900460ff16905087565b60045481565b60006116ff33611a63565b61173e576040517f08c379a0000000000000000000000000000000000000000000000000000000008152600401611735906132a9565b60405180910390fd5b816000600560008381526020019081526020016000206000015411611798576040517f08c379a000000000000000000000000000000000000000000000000000000000815260040161178f906132c9565b60405180910390fd5b83600073ffffffffffffffffffffffffffffffffffffffff166007600083815260200190815260200160002060000160009054906101000a900473ffffffffffffffffffffffffffffffffffffffff1673ffffffffffffffffffffffffffffffffffffffff16141561183f576040517f08c379a000000000000000000000000000000000000000000000000000000000815260040161183690613289565b60405180910390fd5b84600060076000838152602001908152602001600020600e015490508047101561189e576040517f08c379a000000000000000000000000000000000000000000000000000000000815260040161189590613209565b60405180910390fd5b60026007600089815260200190815260200160002060100160006101000a81548160ff021916908360028111156118d8576118d76136e8565b5b021790555060006005600088815260200190815260200160002060090160006101000a81548160ff02191690836001811115611917576119166136e8565b5b0217905550600060076000898152602001908152602001600020600e01549050600033905060008173ffffffffffffffffffffffffffffffffffffffff1683604051611962906130ec565b60006040518083038185875af1925050503d806000811461199f576040519150601f19603f3d011682016040523d82523d6000602084013e6119a4565b606091505b50509050806119e8576040517f08c379a00000000000000000000000000000000000000000000000000000000081526004016119df90613249565b60405180910390fd5b6004546008805490501497505050505050505092915050565b6000611a27826000808681526020019081526020016000206125a090919063ffffffff16565b905092915050565b6000611a55826000808681526020019081526020016000206125ba90919063ffffffff16565b905092915050565b60035481565b6000611a8f7f52454e544552000000000000000000000000000000000000000000000000000083611a2f565b9050919050565b6000611aa133611a63565b611ae0576040517f08c379a0000000000000000000000000000000000000000000000000000000008152600401611ad7906132a9565b60405180910390fd5b836000600560008381526020019081526020016000206000015411611b3a576040517f08c379a0000000000000000000000000000000000000000000000000000000008152600401611b31906132c9565b60405180910390fd5b6001600454611b499190613426565b60088054905010611b8f576040517f08c379a0000000000000000000000000000000000000000000000000000000008152600401611b86906131c9565b60405180910390fd5b60046000815480929190611ba290613670565b91905055506000836005600088815260200190815260200160002060080154611bcb919061347c565b905060006040518060e001604052803373ffffffffffffffffffffffffffffffffffffffff168152602001600560008a8152602001908152602001600020604051806101200160405290816000820154815260200160018201548152602001600282015481526020016003820160009054906101000a900460ff166006811115611c5857611c576136e8565b5b6006811115611c6a57611c696136e8565b5b815260200160048201604051806040016040529081600082018054611c8e9061360d565b80601f0160208091040260200160405190810160405280929190818152602001828054611cba9061360d565b8015611d075780601f10611cdc57610100808354040283529160200191611d07565b820191906000526020600020905b815481529060010190602001808311611cea57829003601f168201915b50505050508152602001600182018054611d209061360d565b80601f0160208091040260200160405190810160405280929190818152602001828054611d4c9061360d565b8015611d995780601f10611d6e57610100808354040283529160200191611d99565b820191906000526020600020905b815481529060010190602001808311611d7c57829003601f168201915b50505050508152505081526020016006820154815260200160078201548152602001600882015481526020016009820160009054906101000a900460ff166001811115611de957611de86136e8565b5b6001811115611dfb57611dfa6136e8565b5b8152505081526020018781526020018381526020016000815260200142815260200160006002811115611e3157611e306136e8565b5b81525090508060076000600454815260200190815260200160002060008201518160000160006101000a81548173ffffffffffffffffffffffffffffffffffffffff021916908373ffffffffffffffffffffffffffffffffffffffff16021790555060208201518160010160008201518160000155602082015181600101556040820151816002015560608201518160030160006101000a81548160ff02191690836006811115611ee557611ee46136e8565b5b02179055506080820151816004016000820151816000019080519060200190611f0f92919061284a565b506020820151816001019080519060200190611f2c92919061284a565b50505060a0820151816006015560c0820151816007015560e082015181600801556101008201518160090160006101000a81548160ff02191690836001811115611f7957611f786136e8565b5b02179055505050604082015181600b0160008201518160000155602082015181600101555050606082015181600d0155608082015181600e015560a082015181600f015560c08201518160100160006101000a81548160ff02191690836002811115611fe857611fe76136e8565b5b0217905550905050600881908060018154018082558091505060019003906000526020600020906011020160009091909190915060008201518160000160006101000a81548173ffffffffffffffffffffffffffffffffffffffff021916908373ffffffffffffffffffffffffffffffffffffffff16021790555060208201518160010160008201518160000155602082015181600101556040820151816002015560608201518160030160006101000a81548160ff021916908360068111156120b5576120b46136e8565b5b021790555060808201518160040160008201518160000190805190602001906120df92919061284a565b5060208201518160010190805190602001906120fc92919061284a565b50505060a0820151816006015560c0820151816007015560e082015181600801556101008201518160090160006101000a81548160ff02191690836001811115612149576121486136e8565b5b02179055505050604082015181600b0160008201518160000155602082015181600101555050606082015181600d0155608082015181600e015560a082015181600f015560c08201518160100160006101000a81548160ff021916908360028111156121b8576121b76136e8565b5b021790555050506004546008805490501493505050509392505050565b6121ff7f52454e544552000000000000000000000000000000000000000000000000000033612480565b565b6006818154811061221157600080fd5b90600052602060002090600a02016000915090508060000154908060010154908060020154908060030160009054906101000a900460ff1690806004016040518060400160405290816000820180546122699061360d565b80601f01602080910402602001604051908101604052809291908181526020018280546122959061360d565b80156122e25780601f106122b7576101008083540402835291602001916122e2565b820191906000526020600020905b8154815290600101906020018083116122c557829003601f168201915b505050505081526020016001820180546122fb9061360d565b80601f01602080910402602001604051908101604052809291908181526020018280546123279061360d565b80156123745780601f1061234957610100808354040283529160200191612374565b820191906000526020600020905b81548152906001019060200180831161235757829003601f168201915b505050505081525050908060060154908060070154908060080154908060090160009054906101000a900460ff16905089565b7f52454e544552000000000000000000000000000000000000000000000000000081565b60006123e76000808481526020019081526020016000206125ea565b9050919050565b80600160006101000a81548173ffffffffffffffffffffffffffffffffffffffff021916908373ffffffffffffffffffffffffffffffffffffffff1602179055506124597f52454e544552000000000000000000000000000000000000000000000000000082612510565b50565b7f4f574e455200000000000000000000000000000000000000000000000000000081565b6124a4816000808581526020019081526020016000206125ff90919063ffffffff16565b1561250c576124b161262f565b73ffffffffffffffffffffffffffffffffffffffff168173ffffffffffffffffffffffffffffffffffffffff16837ff6391f5c32d9c69d2a47ea670b442974b53935d1edc7fd64eb21e047a839171b60405160405180910390a45b5050565b6125348160008085815260200190815260200160002061263790919063ffffffff16565b1561259c5761254161262f565b73ffffffffffffffffffffffffffffffffffffffff168173ffffffffffffffffffffffffffffffffffffffff16837f2f8788117e7eff1d82e926ec794901d17c78024a50270940304540a733656f0d60405160405180910390a45b5050565b60006125af8360000183612667565b60001c905092915050565b60006125e2836000018373ffffffffffffffffffffffffffffffffffffffff1660001b612692565b905092915050565b60006125f8826000016126b5565b9050919050565b6000612627836000018373ffffffffffffffffffffffffffffffffffffffff1660001b6126c6565b905092915050565b600033905090565b600061265f836000018373ffffffffffffffffffffffffffffffffffffffff1660001b6127da565b905092915050565b600082600001828154811061267f5761267e613775565b5b9060005260206000200154905092915050565b600080836001016000848152602001908152602001600020541415905092915050565b600081600001805490509050919050565b600080836001016000848152602001908152602001600020549050600081146127ce5760006001826126f891906134d6565b905060006001866000018054905061271091906134d6565b905081811461277f57600086600001828154811061273157612730613775565b5b906000526020600020015490508087600001848154811061275557612754613775565b5b90600052602060002001819055508387600101600083815260200190815260200160002081905550505b8560000180548061279357612792613746565b5b6001900381819060005260206000200160009055905585600101600086815260200190815260200160002060009055600193505050506127d4565b60009150505b92915050565b60006127e68383612692565b61283f578260000182908060018154018082558091505060019003906000526020600020016000909190919091505582600001805490508360010160008481526020019081526020016000208190555060019050612844565b600090505b92915050565b8280546128569061360d565b90600052602060002090601f01602090048101928261287857600085556128bf565b82601f1061289157805160ff19168380011785556128bf565b828001600101855582156128bf579182015b828111156128be5782518255916020019190600101906128a3565b5b5090506128cc91906128d0565b5090565b5b808211156128e95760008160009055506001016128d1565b5090565b60006129006128fb846133bd565b613398565b90508281526020810184848401111561291c5761291b6137e2565b5b6129278482856135cb565b509392505050565b60008135905061293e81613a96565b92915050565b60008135905061295381613aad565b92915050565b600082601f83011261296e5761296d6137d3565b5b813561297e8482602086016128ed565b91505092915050565b60008135905061299681613ac4565b92915050565b6000604082840312156129b2576129b16137d8565b5b6129bc6040613398565b9050600082013567ffffffffffffffff8111156129dc576129db6137dd565b5b6129e884828501612959565b600083015250602082013567ffffffffffffffff811115612a0c57612a0b6137dd565b5b612a1884828501612959565b60208301525092915050565b600060408284031215612a3a57612a396137d8565b5b612a446040613398565b90506000612a5484828501612944565b6000830152506020612a6884828501612944565b60208301525092915050565b600081359050612a8381613ad4565b92915050565b600060208284031215612a9f57612a9e6137ec565b5b6000612aad8482850161292f565b91505092915050565b600060208284031215612acc57612acb6137ec565b5b6000612ada84828501612944565b91505092915050565b60008060408385031215612afa57612af96137ec565b5b6000612b0885828601612944565b9250506020612b198582860161292f565b9150509250929050565b600080600080600080600060e0888a031215612b4257612b416137ec565b5b6000612b508a828b01612944565b9750506020612b618a828b01612944565b9650506040612b728a828b01612987565b955050606088013567ffffffffffffffff811115612b9357612b926137e7565b5b612b9f8a828b0161299c565b9450506080612bb08a828b01612a74565b93505060a0612bc18a828b01612944565b92505060c0612bd28a828b01612a74565b91505092959891949750929550565b60008060408385031215612bf857612bf76137ec565b5b6000612c0685828601612944565b9250506020612c1785828601612a74565b9150509250929050565b600060208284031215612c3757612c366137ec565b5b6000612c4584828501612a74565b91505092915050565b600080600060808486031215612c6757612c666137ec565b5b6000612c7586828701612a74565b9350506020612c8686828701612a24565b9250506060612c9786828701612a74565b9150509250925092565b60008060408385031215612cb857612cb76137ec565b5b6000612cc685828601612a74565b9250506020612cd785828601612a74565b9150509250929050565b600080600060608486031215612cfa57612cf96137ec565b5b6000612d0886828701612a74565b9350506020612d1986828701612a74565b9250506040612d2a86828701612a74565b9150509250925092565b612d3d8161350a565b82525050565b612d4c8161351c565b82525050565b612d5b81613528565b82525050565b612d6a81613528565b82525050565b6000612d7b826133ee565b612d8581856133f9565b9350612d958185602086016135da565b612d9e816137f1565b840191505092915050565b612db281613595565b82525050565b612dc1816135a7565b82525050565b612dd0816135a7565b82525050565b612ddf816135b9565b82525050565b612dee816135b9565b82525050565b6000612e01602e83613415565b9150612e0c82613802565b604082019050919050565b6000612e24602d83613415565b9150612e2f82613851565b604082019050919050565b6000612e47604083613415565b9150612e52826138a0565b604082019050919050565b6000612e6a601583613415565b9150612e75826138ef565b602082019050919050565b6000612e8d601483613415565b9150612e9882613918565b602082019050919050565b6000612eb0603083613415565b9150612ebb82613941565b604082019050919050565b6000612ed3603e83613415565b9150612ede82613990565b604082019050919050565b6000612ef660008361340a565b9150612f01826139df565b600082019050919050565b6000612f19601683613415565b9150612f24826139e2565b602082019050919050565b6000612f3c603d83613415565b9150612f4782613a0b565b604082019050919050565b60006040830160008301518482036000860152612f6f8282612d70565b91505060208301518482036020860152612f898282612d70565b9150508091505092915050565b60006040830160008301518482036000860152612fb38282612d70565b91505060208301518482036020860152612fcd8282612d70565b9150508091505092915050565b604082016000820151612ff06000850182612d52565b5060208201516130036020850182612d52565b50505050565b60006101208301600083015161302260008601826130ce565b5060208301516130356020860182612d52565b5060408301516130486040860182612d52565b50606083015161305b6060860182612dd6565b50608083015184820360808601526130738282612f52565b91505060a083015161308860a08601826130ce565b5060c083015161309b60c0860182612d52565b5060e08301516130ae60e08601826130ce565b506101008301516130c3610100860182612db8565b508091505092915050565b6130d78161358b565b82525050565b6130e68161358b565b82525050565b60006130f782612ee9565b9150819050919050565b60006020820190506131166000830184612d34565b92915050565b600061010082019050613132600083018a612d34565b81810360208301526131448189613009565b90506131536040830188612fda565b61316060808301876130dd565b61316d60a08301866130dd565b61317a60c08301856130dd565b61318760e0830184612da9565b98975050505050505050565b60006020820190506131a86000830184612d43565b92915050565b60006020820190506131c36000830184612d61565b92915050565b600060208201905081810360008301526131e281612df4565b9050919050565b6000602082019050818103600083015261320281612e17565b9050919050565b6000602082019050818103600083015261322281612e3a565b9050919050565b6000602082019050818103600083015261324281612e5d565b9050919050565b6000602082019050818103600083015261326281612e80565b9050919050565b6000602082019050818103600083015261328281612ea3565b9050919050565b600060208201905081810360008301526132a281612ec6565b9050919050565b600060208201905081810360008301526132c281612f0c565b9050919050565b600060208201905081810360008301526132e281612f2f565b9050919050565b60006020820190506132fe60008301846130dd565b92915050565b60006101208201905061331a600083018c6130dd565b613327602083018b612d61565b613334604083018a612d61565b6133416060830189612de5565b81810360808301526133538188612f96565b905061336260a08301876130dd565b61336f60c0830186612d61565b61337c60e08301856130dd565b61338a610100830184612dc7565b9a9950505050505050505050565b60006133a26133b3565b90506133ae828261363f565b919050565b6000604051905090565b600067ffffffffffffffff8211156133d8576133d76137a4565b5b6133e1826137f1565b9050602081019050919050565b600081519050919050565b600082825260208201905092915050565b600081905092915050565b600082825260208201905092915050565b60006134318261358b565b915061343c8361358b565b9250827fffffffffffffffffffffffffffffffffffffffffffffffffffffffffffffffff03821115613471576134706136b9565b5b828201905092915050565b60006134878261358b565b91506134928361358b565b9250817fffffffffffffffffffffffffffffffffffffffffffffffffffffffffffffffff04831182151516156134cb576134ca6136b9565b5b828202905092915050565b60006134e18261358b565b91506134ec8361358b565b9250828210156134ff576134fe6136b9565b5b828203905092915050565b60006135158261356b565b9050919050565b60008115159050919050565b6000819050919050565b600081905061354082613a5a565b919050565b600081905061355382613a6e565b919050565b600081905061356682613a82565b919050565b600073ffffffffffffffffffffffffffffffffffffffff82169050919050565b6000819050919050565b60006135a082613532565b9050919050565b60006135b282613545565b9050919050565b60006135c482613558565b9050919050565b82818337600083830152505050565b60005b838110156135f85780820151818401526020810190506135dd565b83811115613607576000848401525b50505050565b6000600282049050600182168061362557607f821691505b6020821081141561363957613638613717565b5b50919050565b613648826137f1565b810181811067ffffffffffffffff82111715613667576136666137a4565b5b80604052505050565b600061367b8261358b565b91507fffffffffffffffffffffffffffffffffffffffffffffffffffffffffffffffff8214156136ae576136ad6136b9565b5b600182019050919050565b7f4e487b7100000000000000000000000000000000000000000000000000000000600052601160045260246000fd5b7f4e487b7100000000000000000000000000000000000000000000000000000000600052602160045260246000fd5b7f4e487b7100000000000000000000000000000000000000000000000000000000600052602260045260246000fd5b7f4e487b7100000000000000000000000000000000000000000000000000000000600052603160045260246000fd5b7f4e487b7100000000000000000000000000000000000000000000000000000000600052603260045260246000fd5b7f4e487b7100000000000000000000000000000000000000000000000000000000600052604160045260246000fd5b600080fd5b600080fd5b600080fd5b600080fd5b600080fd5b600080fd5b6000601f19601f8301169050919050565b7f54686520666f6c6c6f77696e6720636f6e74726163742068617320616c72656160008201527f6479206265656e2061646465642e000000000000000000000000000000000000602082015250565b7f54686520666f6c6c6f77696e672076656869636c652068617320616c7265616460008201527f79206265656e2061646465642e00000000000000000000000000000000000000602082015250565b7f436f756c64206e6f742070726f6365656420626563617573652074686572652060008201527f6973206e6f7420656e6f7567682045544820696e20796f75722077616c6c6574602082015250565b7f5265737472696374656420746f206f776e6572732e0000000000000000000000600082015250565b7f4661696c656420746f2073656e64204574686572000000000000000000000000600082015250565b7f5468652073656c65637465642076656869636c652069732063757272656e746c60008201527f79206e6f7420617661696c61626c652e00000000000000000000000000000000602082015250565b7f54686520666f6c6c6f77696e6720636f6e747261637420636f756c64206e6f7460008201527f20626520666f756e6420696e20746865206d617070696e67206c6973742e0000602082015250565b50565b7f5265737472696374656420746f2072656e746572732e00000000000000000000600082015250565b7f54686520666f6c6c6f77696e672076656869636c6520636f756c64206e6f742060008201527f626520666f756e6420696e20746865206d617070696e67206c6973742e000000602082015250565b60038110613a6b57613a6a6136e8565b5b50565b60028110613a7f57613a7e6136e8565b5b50565b60078110613a9357613a926136e8565b5b50565b613a9f8161350a565b8114613aaa57600080fd5b50565b613ab681613528565b8114613ac157600080fd5b50565b60078110613ad157600080fd5b50565b613add8161358b565b8114613ae857600080fd5b5056fea26469706673582212203b31c445d478769a484ea60366aeac19ca4be3eb27b82363e198f986b969f8bd64736f6c63430008070033",
			"opcodes": "PUSH1 0x80 PUSH1 0x40 MSTORE PUSH1 0x0 PUSH1 0x3 SSTORE PUSH1 0x0 PUSH1 0x4 SSTORE CALLVALUE DUP1 ISZERO PUSH2 0x1A JUMPI PUSH1 0x0 DUP1 REVERT JUMPDEST POP PUSH2 0x3B21 DUP1 PUSH2 0x2A PUSH1 0x0 CODECOPY PUSH1 0x0 RETURN INVALID PUSH1 0x80 PUSH1 0x40 MSTORE PUSH1 0x4 CALLDATASIZE LT PUSH2 0x166 JUMPI PUSH1 0x0 CALLDATALOAD PUSH1 0xE0 SHR DUP1 PUSH4 0x8736381A GT PUSH2 0xD1 JUMPI DUP1 PUSH4 0xA1A25243 GT PUSH2 0x8A JUMPI DUP1 PUSH4 0xB97C9F77 GT PUSH2 0x64 JUMPI DUP1 PUSH4 0xB97C9F77 EQ PUSH2 0x5A1 JUMPI DUP1 PUSH4 0xCA15C873 EQ PUSH2 0x5CC JUMPI DUP1 PUSH4 0xDE8B1989 EQ PUSH2 0x609 JUMPI DUP1 PUSH4 0xE58378BB EQ PUSH2 0x632 JUMPI PUSH2 0x166 JUMP JUMPDEST DUP1 PUSH4 0xA1A25243 EQ PUSH2 0x508 JUMPI DUP1 PUSH4 0xA36A5D8D EQ PUSH2 0x545 JUMPI DUP1 PUSH4 0xB8BA95FA EQ PUSH2 0x55C JUMPI PUSH2 0x166 JUMP JUMPDEST DUP1 PUSH4 0x8736381A EQ PUSH2 0x3CB JUMPI DUP1 PUSH4 0x87B50547 EQ PUSH2 0x3F6 JUMPI DUP1 PUSH4 0x9010D07C EQ PUSH2 0x426 JUMPI DUP1 PUSH4 0x91D14854 EQ PUSH2 0x463 JUMPI DUP1 PUSH4 0x99704937 EQ PUSH2 0x4A0 JUMPI DUP1 PUSH4 0x9F2BC40E EQ PUSH2 0x4CB JUMPI PUSH2 0x166 JUMP JUMPDEST DUP1 PUSH4 0x474DA79A GT PUSH2 0x123 JUMPI DUP1 PUSH4 0x474DA79A EQ PUSH2 0x28B JUMPI DUP1 PUSH4 0x69A8F49E EQ PUSH2 0x2CE JUMPI DUP1 PUSH4 0x7065CB48 EQ PUSH2 0x313 JUMPI DUP1 PUSH4 0x74539CD0 EQ PUSH2 0x33C JUMPI DUP1 PUSH4 0x79B67CAA EQ PUSH2 0x358 JUMPI DUP1 PUSH4 0x7B66FE2E EQ PUSH2 0x388 JUMPI PUSH2 0x166 JUMP JUMPDEST DUP1 PUSH4 0x2AEC3CE EQ PUSH2 0x16B JUMPI DUP1 PUSH4 0x11060EC7 EQ PUSH2 0x194 JUMPI DUP1 PUSH4 0x173825D9 EQ PUSH2 0x1D1 JUMPI DUP1 PUSH4 0x28C23A45 EQ PUSH2 0x1FA JUMPI DUP1 PUSH4 0x2F54BF6E EQ PUSH2 0x211 JUMPI DUP1 PUSH4 0x37C3510A EQ PUSH2 0x24E JUMPI JUMPDEST PUSH1 0x0 DUP1 REVERT JUMPDEST CALLVALUE DUP1 ISZERO PUSH2 0x177 JUMPI PUSH1 0x0 DUP1 REVERT JUMPDEST POP PUSH2 0x192 PUSH1 0x4 DUP1 CALLDATASIZE SUB DUP2 ADD SWAP1 PUSH2 0x18D SWAP2 SWAP1 PUSH2 0x2A89 JUMP JUMPDEST PUSH2 0x65D JUMP JUMPDEST STOP JUMPDEST CALLVALUE DUP1 ISZERO PUSH2 0x1A0 JUMPI PUSH1 0x0 DUP1 REVERT JUMPDEST POP PUSH2 0x1BB PUSH1 0x4 DUP1 CALLDATASIZE SUB DUP2 ADD SWAP1 PUSH2 0x1B6 SWAP2 SWAP1 PUSH2 0x2B23 JUMP JUMPDEST PUSH2 0x68A JUMP JUMPDEST PUSH1 0x40 MLOAD PUSH2 0x1C8 SWAP2 SWAP1 PUSH2 0x3193 JUMP JUMPDEST PUSH1 0x40 MLOAD DUP1 SWAP2 SUB SWAP1 RETURN JUMPDEST CALLVALUE DUP1 ISZERO PUSH2 0x1DD JUMPI PUSH1 0x0 DUP1 REVERT JUMPDEST POP PUSH2 0x1F8 PUSH1 0x4 DUP1 CALLDATASIZE SUB DUP2 ADD SWAP1 PUSH2 0x1F3 SWAP2 SWAP1 PUSH2 0x2A89 JUMP JUMPDEST PUSH2 0x9CF JUMP JUMPDEST STOP JUMPDEST CALLVALUE DUP1 ISZERO PUSH2 0x206 JUMPI PUSH1 0x0 DUP1 REVERT JUMPDEST POP PUSH2 0x20F PUSH2 0x9FC JUMP JUMPDEST STOP JUMPDEST CALLVALUE DUP1 ISZERO PUSH2 0x21D JUMPI PUSH1 0x0 DUP1 REVERT JUMPDEST POP PUSH2 0x238 PUSH1 0x4 DUP1 CALLDATASIZE SUB DUP2 ADD SWAP1 PUSH2 0x233 SWAP2 SWAP1 PUSH2 0x2A89 JUMP JUMPDEST PUSH2 0xA28 JUMP JUMPDEST PUSH1 0x40 MLOAD PUSH2 0x245 SWAP2 SWAP1 PUSH2 0x3193 JUMP JUMPDEST PUSH1 0x40 MLOAD DUP1 SWAP2 SUB SWAP1 RETURN JUMPDEST CALLVALUE DUP1 ISZERO PUSH2 0x25A JUMPI PUSH1 0x0 DUP1 REVERT JUMPDEST POP PUSH2 0x275 PUSH1 0x4 DUP1 CALLDATASIZE SUB DUP2 ADD SWAP1 PUSH2 0x270 SWAP2 SWAP1 PUSH2 0x2CE1 JUMP JUMPDEST PUSH2 0xA5B JUMP JUMPDEST PUSH1 0x40 MLOAD PUSH2 0x282 SWAP2 SWAP1 PUSH2 0x3193 JUMP JUMPDEST PUSH1 0x40 MLOAD DUP1 SWAP2 SUB SWAP1 RETURN JUMPDEST CALLVALUE DUP1 ISZERO PUSH2 0x297 JUMPI PUSH1 0x0 DUP1 REVERT JUMPDEST POP PUSH2 0x2B2 PUSH1 0x4 DUP1 CALLDATASIZE SUB DUP2 ADD SWAP1 PUSH2 0x2AD SWAP2 SWAP1 PUSH2 0x2C21 JUMP JUMPDEST PUSH2 0xC07 JUMP JUMPDEST PUSH1 0x40 MLOAD PUSH2 0x2C5 SWAP8 SWAP7 SWAP6 SWAP5 SWAP4 SWAP3 SWAP2 SWAP1 PUSH2 0x311C JUMP JUMPDEST PUSH1 0x40 MLOAD DUP1 SWAP2 SUB SWAP1 RETURN JUMPDEST CALLVALUE DUP1 ISZERO PUSH2 0x2DA JUMPI PUSH1 0x0 DUP1 REVERT JUMPDEST POP PUSH2 0x2F5 PUSH1 0x4 DUP1 CALLDATASIZE SUB DUP2 ADD SWAP1 PUSH2 0x2F0 SWAP2 SWAP1 PUSH2 0x2C21 JUMP JUMPDEST PUSH2 0xE99 JUMP JUMPDEST PUSH1 0x40 MLOAD PUSH2 0x30A SWAP10 SWAP9 SWAP8 SWAP7 SWAP6 SWAP5 SWAP4 SWAP3 SWAP2 SWAP1 PUSH2 0x3304 JUMP JUMPDEST PUSH1 0x40 MLOAD DUP1 SWAP2 SUB SWAP1 RETURN JUMPDEST CALLVALUE DUP1 ISZERO PUSH2 0x31F JUMPI PUSH1 0x0 DUP1 REVERT JUMPDEST POP PUSH2 0x33A PUSH1 0x4 DUP1 CALLDATASIZE SUB DUP2 ADD SWAP1 PUSH2 0x335 SWAP2 SWAP1 PUSH2 0x2A89 JUMP JUMPDEST PUSH2 0x102F JUMP JUMPDEST STOP JUMPDEST PUSH2 0x356 PUSH1 0x4 DUP1 CALLDATASIZE SUB DUP2 ADD SWAP1 PUSH2 0x351 SWAP2 SWAP1 PUSH2 0x2C21 JUMP JUMPDEST PUSH2 0x109D JUMP JUMPDEST STOP JUMPDEST PUSH2 0x372 PUSH1 0x4 DUP1 CALLDATASIZE SUB DUP2 ADD SWAP1 PUSH2 0x36D SWAP2 SWAP1 PUSH2 0x2CA1 JUMP JUMPDEST PUSH2 0x10A0 JUMP JUMPDEST PUSH1 0x40 MLOAD PUSH2 0x37F SWAP2 SWAP1 PUSH2 0x3193 JUMP JUMPDEST PUSH1 0x40 MLOAD DUP1 SWAP2 SUB SWAP1 RETURN JUMPDEST CALLVALUE DUP1 ISZERO PUSH2 0x394 JUMPI PUSH1 0x0 DUP1 REVERT JUMPDEST POP PUSH2 0x3AF PUSH1 0x4 DUP1 CALLDATASIZE SUB DUP2 ADD SWAP1 PUSH2 0x3AA SWAP2 SWAP1 PUSH2 0x2C21 JUMP JUMPDEST PUSH2 0x146C JUMP JUMPDEST PUSH1 0x40 MLOAD PUSH2 0x3C2 SWAP8 SWAP7 SWAP6 SWAP5 SWAP4 SWAP3 SWAP2 SWAP1 PUSH2 0x311C JUMP JUMPDEST PUSH1 0x40 MLOAD DUP1 SWAP2 SUB SWAP1 RETURN JUMPDEST CALLVALUE DUP1 ISZERO PUSH2 0x3D7 JUMPI PUSH1 0x0 DUP1 REVERT JUMPDEST POP PUSH2 0x3E0 PUSH2 0x16EE JUMP JUMPDEST PUSH1 0x40 MLOAD PUSH2 0x3ED SWAP2 SWAP1 PUSH2 0x32E9 JUMP JUMPDEST PUSH1 0x40 MLOAD DUP1 SWAP2 SUB SWAP1 RETURN JUMPDEST PUSH2 0x410 PUSH1 0x4 DUP1 CALLDATASIZE SUB DUP2 ADD SWAP1 PUSH2 0x40B SWAP2 SWAP1 PUSH2 0x2CA1 JUMP JUMPDEST PUSH2 0x16F4 JUMP JUMPDEST PUSH1 0x40 MLOAD PUSH2 0x41D SWAP2 SWAP1 PUSH2 0x3193 JUMP JUMPDEST PUSH1 0x40 MLOAD DUP1 SWAP2 SUB SWAP1 RETURN JUMPDEST CALLVALUE DUP1 ISZERO PUSH2 0x432 JUMPI PUSH1 0x0 DUP1 REVERT JUMPDEST POP PUSH2 0x44D PUSH1 0x4 DUP1 CALLDATASIZE SUB DUP2 ADD SWAP1 PUSH2 0x448 SWAP2 SWAP1 PUSH2 0x2BE1 JUMP JUMPDEST PUSH2 0x1A01 JUMP JUMPDEST PUSH1 0x40 MLOAD PUSH2 0x45A SWAP2 SWAP1 PUSH2 0x3101 JUMP JUMPDEST PUSH1 0x40 MLOAD DUP1 SWAP2 SUB SWAP1 RETURN JUMPDEST CALLVALUE DUP1 ISZERO PUSH2 0x46F JUMPI PUSH1 0x0 DUP1 REVERT JUMPDEST POP PUSH2 0x48A PUSH1 0x4 DUP1 CALLDATASIZE SUB DUP2 ADD SWAP1 PUSH2 0x485 SWAP2 SWAP1 PUSH2 0x2AE3 JUMP JUMPDEST PUSH2 0x1A2F JUMP JUMPDEST PUSH1 0x40 MLOAD PUSH2 0x497 SWAP2 SWAP1 PUSH2 0x3193 JUMP JUMPDEST PUSH1 0x40 MLOAD DUP1 SWAP2 SUB SWAP1 RETURN JUMPDEST CALLVALUE DUP1 ISZERO PUSH2 0x4AC JUMPI PUSH1 0x0 DUP1 REVERT JUMPDEST POP PUSH2 0x4B5 PUSH2 0x1A5D JUMP JUMPDEST PUSH1 0x40 MLOAD PUSH2 0x4C2 SWAP2 SWAP1 PUSH2 0x32E9 JUMP JUMPDEST PUSH1 0x40 MLOAD DUP1 SWAP2 SUB SWAP1 RETURN JUMPDEST CALLVALUE DUP1 ISZERO PUSH2 0x4D7 JUMPI PUSH1 0x0 DUP1 REVERT JUMPDEST POP PUSH2 0x4F2 PUSH1 0x4 DUP1 CALLDATASIZE SUB DUP2 ADD SWAP1 PUSH2 0x4ED SWAP2 SWAP1 PUSH2 0x2A89 JUMP JUMPDEST PUSH2 0x1A63 JUMP JUMPDEST PUSH1 0x40 MLOAD PUSH2 0x4FF SWAP2 SWAP1 PUSH2 0x3193 JUMP JUMPDEST PUSH1 0x40 MLOAD DUP1 SWAP2 SUB SWAP1 RETURN JUMPDEST CALLVALUE DUP1 ISZERO PUSH2 0x514 JUMPI PUSH1 0x0 DUP1 REVERT JUMPDEST POP PUSH2 0x52F PUSH1 0x4 DUP1 CALLDATASIZE SUB DUP2 ADD SWAP1 PUSH2 0x52A SWAP2 SWAP1 PUSH2 0x2C4E JUMP JUMPDEST PUSH2 0x1A96 JUMP JUMPDEST PUSH1 0x40 MLOAD PUSH2 0x53C SWAP2 SWAP1 PUSH2 0x3193 JUMP JUMPDEST PUSH1 0x40 MLOAD DUP1 SWAP2 SUB SWAP1 RETURN JUMPDEST CALLVALUE DUP1 ISZERO PUSH2 0x551 JUMPI PUSH1 0x0 DUP1 REVERT JUMPDEST POP PUSH2 0x55A PUSH2 0x21D5 JUMP JUMPDEST STOP JUMPDEST CALLVALUE DUP1 ISZERO PUSH2 0x568 JUMPI PUSH1 0x0 DUP1 REVERT JUMPDEST POP PUSH2 0x583 PUSH1 0x4 DUP1 CALLDATASIZE SUB DUP2 ADD SWAP1 PUSH2 0x57E SWAP2 SWAP1 PUSH2 0x2C21 JUMP JUMPDEST PUSH2 0x2201 JUMP JUMPDEST PUSH1 0x40 MLOAD PUSH2 0x598 SWAP10 SWAP9 SWAP8 SWAP7 SWAP6 SWAP5 SWAP4 SWAP3 SWAP2 SWAP1 PUSH2 0x3304 JUMP JUMPDEST PUSH1 0x40 MLOAD DUP1 SWAP2 SUB SWAP1 RETURN JUMPDEST CALLVALUE DUP1 ISZERO PUSH2 0x5AD JUMPI PUSH1 0x0 DUP1 REVERT JUMPDEST POP PUSH2 0x5B6 PUSH2 0x23A7 JUMP JUMPDEST PUSH1 0x40 MLOAD PUSH2 0x5C3 SWAP2 SWAP1 PUSH2 0x31AE JUMP JUMPDEST PUSH1 0x40 MLOAD DUP1 SWAP2 SUB SWAP1 RETURN JUMPDEST CALLVALUE DUP1 ISZERO PUSH2 0x5D8 JUMPI PUSH1 0x0 DUP1 REVERT JUMPDEST POP PUSH2 0x5F3 PUSH1 0x4 DUP1 CALLDATASIZE SUB DUP2 ADD SWAP1 PUSH2 0x5EE SWAP2 SWAP1 PUSH2 0x2AB6 JUMP JUMPDEST PUSH2 0x23CB JUMP JUMPDEST PUSH1 0x40 MLOAD PUSH2 0x600 SWAP2 SWAP1 PUSH2 0x32E9 JUMP JUMPDEST PUSH1 0x40 MLOAD DUP1 SWAP2 SUB SWAP1 RETURN JUMPDEST CALLVALUE DUP1 ISZERO PUSH2 0x615 JUMPI PUSH1 0x0 DUP1 REVERT JUMPDEST POP PUSH2 0x630 PUSH1 0x4 DUP1 CALLDATASIZE SUB DUP2 ADD SWAP1 PUSH2 0x62B SWAP2 SWAP1 PUSH2 0x2A89 JUMP JUMPDEST PUSH2 0x23EE JUMP JUMPDEST STOP JUMPDEST CALLVALUE DUP1 ISZERO PUSH2 0x63E JUMPI PUSH1 0x0 DUP1 REVERT JUMPDEST POP PUSH2 0x647 PUSH2 0x245C JUMP JUMPDEST PUSH1 0x40 MLOAD PUSH2 0x654 SWAP2 SWAP1 PUSH2 0x31AE JUMP JUMPDEST PUSH1 0x40 MLOAD DUP1 SWAP2 SUB SWAP1 RETURN JUMPDEST PUSH2 0x687 PUSH32 0x52454E5445520000000000000000000000000000000000000000000000000000 DUP3 PUSH2 0x2480 JUMP JUMPDEST POP JUMP JUMPDEST PUSH1 0x0 PUSH2 0x695 CALLER PUSH2 0xA28 JUMP JUMPDEST PUSH2 0x6D4 JUMPI PUSH1 0x40 MLOAD PUSH32 0x8C379A000000000000000000000000000000000000000000000000000000000 DUP2 MSTORE PUSH1 0x4 ADD PUSH2 0x6CB SWAP1 PUSH2 0x3229 JUMP JUMPDEST PUSH1 0x40 MLOAD DUP1 SWAP2 SUB SWAP1 REVERT JUMPDEST PUSH1 0x1 PUSH1 0x3 SLOAD PUSH2 0x6E3 SWAP2 SWAP1 PUSH2 0x3426 JUMP JUMPDEST PUSH1 0x6 DUP1 SLOAD SWAP1 POP LT PUSH2 0x729 JUMPI PUSH1 0x40 MLOAD PUSH32 0x8C379A000000000000000000000000000000000000000000000000000000000 DUP2 MSTORE PUSH1 0x4 ADD PUSH2 0x720 SWAP1 PUSH2 0x31E9 JUMP JUMPDEST PUSH1 0x40 MLOAD DUP1 SWAP2 SUB SWAP1 REVERT JUMPDEST PUSH1 0x3 PUSH1 0x0 DUP2 SLOAD DUP1 SWAP3 SWAP2 SWAP1 PUSH2 0x73C SWAP1 PUSH2 0x3670 JUMP JUMPDEST SWAP2 SWAP1 POP SSTORE POP PUSH1 0x0 PUSH1 0x40 MLOAD DUP1 PUSH2 0x120 ADD PUSH1 0x40 MSTORE DUP1 PUSH1 0x3 SLOAD DUP2 MSTORE PUSH1 0x20 ADD DUP11 DUP2 MSTORE PUSH1 0x20 ADD DUP10 DUP2 MSTORE PUSH1 0x20 ADD DUP9 PUSH1 0x6 DUP2 GT ISZERO PUSH2 0x776 JUMPI PUSH2 0x775 PUSH2 0x36E8 JUMP JUMPDEST JUMPDEST DUP2 MSTORE PUSH1 0x20 ADD DUP8 DUP2 MSTORE PUSH1 0x20 ADD DUP7 DUP2 MSTORE PUSH1 0x20 ADD DUP6 DUP2 MSTORE PUSH1 0x20 ADD DUP5 DUP2 MSTORE PUSH1 0x20 ADD PUSH1 0x0 PUSH1 0x1 DUP2 GT ISZERO PUSH2 0x7A7 JUMPI PUSH2 0x7A6 PUSH2 0x36E8 JUMP JUMPDEST JUMPDEST DUP2 MSTORE POP SWAP1 POP DUP1 PUSH1 0x5 PUSH1 0x0 PUSH1 0x3 SLOAD DUP2 MSTORE PUSH1 0x20 ADD SWAP1 DUP2 MSTORE PUSH1 0x20 ADD PUSH1 0x0 KECCAK256 PUSH1 0x0 DUP3 ADD MLOAD DUP2 PUSH1 0x0 ADD SSTORE PUSH1 0x20 DUP3 ADD MLOAD DUP2 PUSH1 0x1 ADD SSTORE PUSH1 0x40 DUP3 ADD MLOAD DUP2 PUSH1 0x2 ADD SSTORE PUSH1 0x60 DUP3 ADD MLOAD DUP2 PUSH1 0x3 ADD PUSH1 0x0 PUSH2 0x100 EXP DUP2 SLOAD DUP2 PUSH1 0xFF MUL NOT AND SWAP1 DUP4 PUSH1 0x6 DUP2 GT ISZERO PUSH2 0x80B JUMPI PUSH2 0x80A PUSH2 0x36E8 JUMP JUMPDEST JUMPDEST MUL OR SWAP1 SSTORE POP PUSH1 0x80 DUP3 ADD MLOAD DUP2 PUSH1 0x4 ADD PUSH1 0x0 DUP3 ADD MLOAD DUP2 PUSH1 0x0 ADD SWAP1 DUP1 MLOAD SWAP1 PUSH1 0x20 ADD SWAP1 PUSH2 0x835 SWAP3 SWAP2 SWAP1 PUSH2 0x284A JUMP JUMPDEST POP PUSH1 0x20 DUP3 ADD MLOAD DUP2 PUSH1 0x1 ADD SWAP1 DUP1 MLOAD SWAP1 PUSH1 0x20 ADD SWAP1 PUSH2 0x852 SWAP3 SWAP2 SWAP1 PUSH2 0x284A JUMP JUMPDEST POP POP POP PUSH1 0xA0 DUP3 ADD MLOAD DUP2 PUSH1 0x6 ADD SSTORE PUSH1 0xC0 DUP3 ADD MLOAD DUP2 PUSH1 0x7 ADD SSTORE PUSH1 0xE0 DUP3 ADD MLOAD DUP2 PUSH1 0x8 ADD SSTORE PUSH2 0x100 DUP3 ADD MLOAD DUP2 PUSH1 0x9 ADD PUSH1 0x0 PUSH2 0x100 EXP DUP2 SLOAD DUP2 PUSH1 0xFF MUL NOT AND SWAP1 DUP4 PUSH1 0x1 DUP2 GT ISZERO PUSH2 0x89F JUMPI PUSH2 0x89E PUSH2 0x36E8 JUMP JUMPDEST JUMPDEST MUL OR SWAP1 SSTORE POP SWAP1 POP POP PUSH1 0x6 DUP2 SWAP1 DUP1 PUSH1 0x1 DUP2 SLOAD ADD DUP1 DUP3 SSTORE DUP1 SWAP2 POP POP PUSH1 0x1 SWAP1 SUB SWAP1 PUSH1 0x0 MSTORE PUSH1 0x20 PUSH1 0x0 KECCAK256 SWAP1 PUSH1 0xA MUL ADD PUSH1 0x0 SWAP1 SWAP2 SWAP1 SWAP2 SWAP1 SWAP2 POP PUSH1 0x0 DUP3 ADD MLOAD DUP2 PUSH1 0x0 ADD SSTORE PUSH1 0x20 DUP3 ADD MLOAD DUP2 PUSH1 0x1 ADD SSTORE PUSH1 0x40 DUP3 ADD MLOAD DUP2 PUSH1 0x2 ADD SSTORE PUSH1 0x60 DUP3 ADD MLOAD DUP2 PUSH1 0x3 ADD PUSH1 0x0 PUSH2 0x100 EXP DUP2 SLOAD DUP2 PUSH1 0xFF MUL NOT AND SWAP1 DUP4 PUSH1 0x6 DUP2 GT ISZERO PUSH2 0x91C JUMPI PUSH2 0x91B PUSH2 0x36E8 JUMP JUMPDEST JUMPDEST MUL OR SWAP1 SSTORE POP PUSH1 0x80 DUP3 ADD MLOAD DUP2 PUSH1 0x4 ADD PUSH1 0x0 DUP3 ADD MLOAD DUP2 PUSH1 0x0 ADD SWAP1 DUP1 MLOAD SWAP1 PUSH1 0x20 ADD SWAP1 PUSH2 0x946 SWAP3 SWAP2 SWAP1 PUSH2 0x284A JUMP JUMPDEST POP PUSH1 0x20 DUP3 ADD MLOAD DUP2 PUSH1 0x1 ADD SWAP1 DUP1 MLOAD SWAP1 PUSH1 0x20 ADD SWAP1 PUSH2 0x963 SWAP3 SWAP2 SWAP1 PUSH2 0x284A JUMP JUMPDEST POP POP POP PUSH1 0xA0 DUP3 ADD MLOAD DUP2 PUSH1 0x6 ADD SSTORE PUSH1 0xC0 DUP3 ADD MLOAD DUP2 PUSH1 0x7 ADD SSTORE PUSH1 0xE0 DUP3 ADD MLOAD DUP2 PUSH1 0x8 ADD SSTORE PUSH2 0x100 DUP3 ADD MLOAD DUP2 PUSH1 0x9 ADD PUSH1 0x0 PUSH2 0x100 EXP DUP2 SLOAD DUP2 PUSH1 0xFF MUL NOT AND SWAP1 DUP4 PUSH1 0x1 DUP2 GT ISZERO PUSH2 0x9B0 JUMPI PUSH2 0x9AF PUSH2 0x36E8 JUMP JUMPDEST JUMPDEST MUL OR SWAP1 SSTORE POP POP POP PUSH1 0x3 SLOAD PUSH1 0x6 DUP1 SLOAD SWAP1 POP EQ SWAP2 POP POP SWAP8 SWAP7 POP POP POP POP POP POP POP JUMP JUMPDEST PUSH2 0x9F9 PUSH32 0x4F574E4552000000000000000000000000000000000000000000000000000000 DUP3 PUSH2 0x2480 JUMP JUMPDEST POP JUMP JUMPDEST PUSH2 0xA26 PUSH32 0x4F574E4552000000000000000000000000000000000000000000000000000000 CALLER PUSH2 0x2480 JUMP JUMPDEST JUMP JUMPDEST PUSH1 0x0 PUSH2 0xA54 PUSH32 0x4F574E4552000000000000000000000000000000000000000000000000000000 DUP4 PUSH2 0x1A2F JUMP JUMPDEST SWAP1 POP SWAP2 SWAP1 POP JUMP JUMPDEST PUSH1 0x0 PUSH2 0xA66 CALLER PUSH2 0x1A63 JUMP JUMPDEST PUSH2 0xAA5 JUMPI PUSH1 0x40 MLOAD PUSH32 0x8C379A000000000000000000000000000000000000000000000000000000000 DUP2 MSTORE PUSH1 0x4 ADD PUSH2 0xA9C SWAP1 PUSH2 0x32A9 JUMP JUMPDEST PUSH1 0x40 MLOAD DUP1 SWAP2 SUB SWAP1 REVERT JUMPDEST DUP4 PUSH1 0x0 PUSH1 0x1 DUP2 GT ISZERO PUSH2 0xABA JUMPI PUSH2 0xAB9 PUSH2 0x36E8 JUMP JUMPDEST JUMPDEST PUSH1 0x5 PUSH1 0x0 DUP4 DUP2 MSTORE PUSH1 0x20 ADD SWAP1 DUP2 MSTORE PUSH1 0x20 ADD PUSH1 0x0 KECCAK256 PUSH1 0x9 ADD PUSH1 0x0 SWAP1 SLOAD SWAP1 PUSH2 0x100 EXP SWAP1 DIV PUSH1 0xFF AND PUSH1 0x1 DUP2 GT ISZERO PUSH2 0xAF0 JUMPI PUSH2 0xAEF PUSH2 0x36E8 JUMP JUMPDEST JUMPDEST EQ PUSH2 0xB30 JUMPI PUSH1 0x40 MLOAD PUSH32 0x8C379A000000000000000000000000000000000000000000000000000000000 DUP2 MSTORE PUSH1 0x4 ADD PUSH2 0xB27 SWAP1 PUSH2 0x3269 JUMP JUMPDEST PUSH1 0x40 MLOAD DUP1 SWAP2 SUB SWAP1 REVERT JUMPDEST DUP4 PUSH1 0x0 PUSH20 0xFFFFFFFFFFFFFFFFFFFFFFFFFFFFFFFFFFFFFFFF AND PUSH1 0x7 PUSH1 0x0 DUP4 DUP2 MSTORE PUSH1 0x20 ADD SWAP1 DUP2 MSTORE PUSH1 0x20 ADD PUSH1 0x0 KECCAK256 PUSH1 0x0 ADD PUSH1 0x0 SWAP1 SLOAD SWAP1 PUSH2 0x100 EXP SWAP1 DIV PUSH20 0xFFFFFFFFFFFFFFFFFFFFFFFFFFFFFFFFFFFFFFFF AND PUSH20 0xFFFFFFFFFFFFFFFFFFFFFFFFFFFFFFFFFFFFFFFF AND EQ ISZERO PUSH2 0xBD7 JUMPI PUSH1 0x40 MLOAD PUSH32 0x8C379A000000000000000000000000000000000000000000000000000000000 DUP2 MSTORE PUSH1 0x4 ADD PUSH2 0xBCE SWAP1 PUSH2 0x3289 JUMP JUMPDEST PUSH1 0x40 MLOAD DUP1 SWAP2 SUB SWAP1 REVERT JUMPDEST DUP4 PUSH1 0x7 PUSH1 0x0 DUP8 DUP2 MSTORE PUSH1 0x20 ADD SWAP1 DUP2 MSTORE PUSH1 0x20 ADD PUSH1 0x0 KECCAK256 PUSH1 0xE ADD DUP2 SWAP1 SSTORE POP PUSH1 0x4 SLOAD PUSH1 0x8 DUP1 SLOAD SWAP1 POP EQ SWAP3 POP POP POP SWAP4 SWAP3 POP POP POP JUMP JUMPDEST PUSH1 0x8 DUP2 DUP2 SLOAD DUP2 LT PUSH2 0xC17 JUMPI PUSH1 0x0 DUP1 REVERT JUMPDEST SWAP1 PUSH1 0x0 MSTORE PUSH1 0x20 PUSH1 0x0 KECCAK256 SWAP1 PUSH1 0x11 MUL ADD PUSH1 0x0 SWAP2 POP SWAP1 POP DUP1 PUSH1 0x0 ADD PUSH1 0x0 SWAP1 SLOAD SWAP1 PUSH2 0x100 EXP SWAP1 DIV PUSH20 0xFFFFFFFFFFFFFFFFFFFFFFFFFFFFFFFFFFFFFFFF AND SWAP1 DUP1 PUSH1 0x1 ADD PUSH1 0x40 MLOAD DUP1 PUSH2 0x120 ADD PUSH1 0x40 MSTORE SWAP1 DUP2 PUSH1 0x0 DUP3 ADD SLOAD DUP2 MSTORE PUSH1 0x20 ADD PUSH1 0x1 DUP3 ADD SLOAD DUP2 MSTORE PUSH1 0x20 ADD PUSH1 0x2 DUP3 ADD SLOAD DUP2 MSTORE PUSH1 0x20 ADD PUSH1 0x3 DUP3 ADD PUSH1 0x0 SWAP1 SLOAD SWAP1 PUSH2 0x100 EXP SWAP1 DIV PUSH1 0xFF AND PUSH1 0x6 DUP2 GT ISZERO PUSH2 0xCA4 JUMPI PUSH2 0xCA3 PUSH2 0x36E8 JUMP JUMPDEST JUMPDEST PUSH1 0x6 DUP2 GT ISZERO PUSH2 0xCB6 JUMPI PUSH2 0xCB5 PUSH2 0x36E8 JUMP JUMPDEST JUMPDEST DUP2 MSTORE PUSH1 0x20 ADD PUSH1 0x4 DUP3 ADD PUSH1 0x40 MLOAD DUP1 PUSH1 0x40 ADD PUSH1 0x40 MSTORE SWAP1 DUP2 PUSH1 0x0 DUP3 ADD DUP1 SLOAD PUSH2 0xCDA SWAP1 PUSH2 0x360D JUMP JUMPDEST DUP1 PUSH1 0x1F ADD PUSH1 0x20 DUP1 SWAP2 DIV MUL PUSH1 0x20 ADD PUSH1 0x40 MLOAD SWAP1 DUP2 ADD PUSH1 0x40 MSTORE DUP1 SWAP3 SWAP2 SWAP1 DUP2 DUP2 MSTORE PUSH1 0x20 ADD DUP3 DUP1 SLOAD PUSH2 0xD06 SWAP1 PUSH2 0x360D JUMP JUMPDEST DUP1 ISZERO PUSH2 0xD53 JUMPI DUP1 PUSH1 0x1F LT PUSH2 0xD28 JUMPI PUSH2 0x100 DUP1 DUP4 SLOAD DIV MUL DUP4 MSTORE SWAP2 PUSH1 0x20 ADD SWAP2 PUSH2 0xD53 JUMP JUMPDEST DUP3 ADD SWAP2 SWAP1 PUSH1 0x0 MSTORE PUSH1 0x20 PUSH1 0x0 KECCAK256 SWAP1 JUMPDEST DUP2 SLOAD DUP2 MSTORE SWAP1 PUSH1 0x1 ADD SWAP1 PUSH1 0x20 ADD DUP1 DUP4 GT PUSH2 0xD36 JUMPI DUP3 SWAP1 SUB PUSH1 0x1F AND DUP3 ADD SWAP2 JUMPDEST POP POP POP POP POP DUP2 MSTORE PUSH1 0x20 ADD PUSH1 0x1 DUP3 ADD DUP1 SLOAD PUSH2 0xD6C SWAP1 PUSH2 0x360D JUMP JUMPDEST DUP1 PUSH1 0x1F ADD PUSH1 0x20 DUP1 SWAP2 DIV MUL PUSH1 0x20 ADD PUSH1 0x40 MLOAD SWAP1 DUP2 ADD PUSH1 0x40 MSTORE DUP1 SWAP3 SWAP2 SWAP1 DUP2 DUP2 MSTORE PUSH1 0x20 ADD DUP3 DUP1 SLOAD PUSH2 0xD98 SWAP1 PUSH2 0x360D JUMP JUMPDEST DUP1 ISZERO PUSH2 0xDE5 JUMPI DUP1 PUSH1 0x1F LT PUSH2 0xDBA JUMPI PUSH2 0x100 DUP1 DUP4 SLOAD DIV MUL DUP4 MSTORE SWAP2 PUSH1 0x20 ADD SWAP2 PUSH2 0xDE5 JUMP JUMPDEST DUP3 ADD SWAP2 SWAP1 PUSH1 0x0 MSTORE PUSH1 0x20 PUSH1 0x0 KECCAK256 SWAP1 JUMPDEST DUP2 SLOAD DUP2 MSTORE SWAP1 PUSH1 0x1 ADD SWAP1 PUSH1 0x20 ADD DUP1 DUP4 GT PUSH2 0xDC8 JUMPI DUP3 SWAP1 SUB PUSH1 0x1F AND DUP3 ADD SWAP2 JUMPDEST POP POP POP POP POP DUP2 MSTORE POP POP DUP2 MSTORE PUSH1 0x20 ADD PUSH1 0x6 DUP3 ADD SLOAD DUP2 MSTORE PUSH1 0x20 ADD PUSH1 0x7 DUP3 ADD SLOAD DUP2 MSTORE PUSH1 0x20 ADD PUSH1 0x8 DUP3 ADD SLOAD DUP2 MSTORE PUSH1 0x20 ADD PUSH1 0x9 DUP3 ADD PUSH1 0x0 SWAP1 SLOAD SWAP1 PUSH2 0x100 EXP SWAP1 DIV PUSH1 0xFF AND PUSH1 0x1 DUP2 GT ISZERO PUSH2 0xE35 JUMPI PUSH2 0xE34 PUSH2 0x36E8 JUMP JUMPDEST JUMPDEST PUSH1 0x1 DUP2 GT ISZERO PUSH2 0xE47 JUMPI PUSH2 0xE46 PUSH2 0x36E8 JUMP JUMPDEST JUMPDEST DUP2 MSTORE POP POP SWAP1 DUP1 PUSH1 0xB ADD PUSH1 0x40 MLOAD DUP1 PUSH1 0x40 ADD PUSH1 0x40 MSTORE SWAP1 DUP2 PUSH1 0x0 DUP3 ADD SLOAD DUP2 MSTORE PUSH1 0x20 ADD PUSH1 0x1 DUP3 ADD SLOAD DUP2 MSTORE POP POP SWAP1 DUP1 PUSH1 0xD ADD SLOAD SWAP1 DUP1 PUSH1 0xE ADD SLOAD SWAP1 DUP1 PUSH1 0xF ADD SLOAD SWAP1 DUP1 PUSH1 0x10 ADD PUSH1 0x0 SWAP1 SLOAD SWAP1 PUSH2 0x100 EXP SWAP1 DIV PUSH1 0xFF AND SWAP1 POP DUP8 JUMP JUMPDEST PUSH1 0x5 PUSH1 0x20 MSTORE DUP1 PUSH1 0x0 MSTORE PUSH1 0x40 PUSH1 0x0 KECCAK256 PUSH1 0x0 SWAP2 POP SWAP1 POP DUP1 PUSH1 0x0 ADD SLOAD SWAP1 DUP1 PUSH1 0x1 ADD SLOAD SWAP1 DUP1 PUSH1 0x2 ADD SLOAD SWAP1 DUP1 PUSH1 0x3 ADD PUSH1 0x0 SWAP1 SLOAD SWAP1 PUSH2 0x100 EXP SWAP1 DIV PUSH1 0xFF AND SWAP1 DUP1 PUSH1 0x4 ADD PUSH1 0x40 MLOAD DUP1 PUSH1 0x40 ADD PUSH1 0x40 MSTORE SWAP1 DUP2 PUSH1 0x0 DUP3 ADD DUP1 SLOAD PUSH2 0xEF1 SWAP1 PUSH2 0x360D JUMP JUMPDEST DUP1 PUSH1 0x1F ADD PUSH1 0x20 DUP1 SWAP2 DIV MUL PUSH1 0x20 ADD PUSH1 0x40 MLOAD SWAP1 DUP2 ADD PUSH1 0x40 MSTORE DUP1 SWAP3 SWAP2 SWAP1 DUP2 DUP2 MSTORE PUSH1 0x20 ADD DUP3 DUP1 SLOAD PUSH2 0xF1D SWAP1 PUSH2 0x360D JUMP JUMPDEST DUP1 ISZERO PUSH2 0xF6A JUMPI DUP1 PUSH1 0x1F LT PUSH2 0xF3F JUMPI PUSH2 0x100 DUP1 DUP4 SLOAD DIV MUL DUP4 MSTORE SWAP2 PUSH1 0x20 ADD SWAP2 PUSH2 0xF6A JUMP JUMPDEST DUP3 ADD SWAP2 SWAP1 PUSH1 0x0 MSTORE PUSH1 0x20 PUSH1 0x0 KECCAK256 SWAP1 JUMPDEST DUP2 SLOAD DUP2 MSTORE SWAP1 PUSH1 0x1 ADD SWAP1 PUSH1 0x20 ADD DUP1 DUP4 GT PUSH2 0xF4D JUMPI DUP3 SWAP1 SUB PUSH1 0x1F AND DUP3 ADD SWAP2 JUMPDEST POP POP POP POP POP DUP2 MSTORE PUSH1 0x20 ADD PUSH1 0x1 DUP3 ADD DUP1 SLOAD PUSH2 0xF83 SWAP1 PUSH2 0x360D JUMP JUMPDEST DUP1 PUSH1 0x1F ADD PUSH1 0x20 DUP1 SWAP2 DIV MUL PUSH1 0x20 ADD PUSH1 0x40 MLOAD SWAP1 DUP2 ADD PUSH1 0x40 MSTORE DUP1 SWAP3 SWAP2 SWAP1 DUP2 DUP2 MSTORE PUSH1 0x20 ADD DUP3 DUP1 SLOAD PUSH2 0xFAF SWAP1 PUSH2 0x360D JUMP JUMPDEST DUP1 ISZERO PUSH2 0xFFC JUMPI DUP1 PUSH1 0x1F LT PUSH2 0xFD1 JUMPI PUSH2 0x100 DUP1 DUP4 SLOAD DIV MUL DUP4 MSTORE SWAP2 PUSH1 0x20 ADD SWAP2 PUSH2 0xFFC JUMP JUMPDEST DUP3 ADD SWAP2 SWAP1 PUSH1 0x0 MSTORE PUSH1 0x20 PUSH1 0x0 KECCAK256 SWAP1 JUMPDEST DUP2 SLOAD DUP2 MSTORE SWAP1 PUSH1 0x1 ADD SWAP1 PUSH1 0x20 ADD DUP1 DUP4 GT PUSH2 0xFDF JUMPI DUP3 SWAP1 SUB PUSH1 0x1F AND DUP3 ADD SWAP2 JUMPDEST POP POP POP POP POP DUP2 MSTORE POP POP SWAP1 DUP1 PUSH1 0x6 ADD SLOAD SWAP1 DUP1 PUSH1 0x7 ADD SLOAD SWAP1 DUP1 PUSH1 0x8 ADD SLOAD SWAP1 DUP1 PUSH1 0x9 ADD PUSH1 0x0 SWAP1 SLOAD SWAP1 PUSH2 0x100 EXP SWAP1 DIV PUSH1 0xFF AND SWAP1 POP DUP10 JUMP JUMPDEST DUP1 PUSH1 0x2 PUSH1 0x0 PUSH2 0x100 EXP DUP2 SLOAD DUP2 PUSH20 0xFFFFFFFFFFFFFFFFFFFFFFFFFFFFFFFFFFFFFFFF MUL NOT AND SWAP1 DUP4 PUSH20 0xFFFFFFFFFFFFFFFFFFFFFFFFFFFFFFFFFFFFFFFF AND MUL OR SWAP1 SSTORE POP PUSH2 0x109A PUSH32 0x4F574E4552000000000000000000000000000000000000000000000000000000 DUP3 PUSH2 0x2510 JUMP JUMPDEST POP JUMP JUMPDEST POP JUMP JUMPDEST PUSH1 0x0 PUSH2 0x10AB CALLER PUSH2 0x1A63 JUMP JUMPDEST PUSH2 0x10EA JUMPI PUSH1 0x40 MLOAD PUSH32 0x8C379A000000000000000000000000000000000000000000000000000000000 DUP2 MSTORE PUSH1 0x4 ADD PUSH2 0x10E1 SWAP1 PUSH2 0x32A9 JUMP JUMPDEST PUSH1 0x40 MLOAD DUP1 SWAP2 SUB SWAP1 REVERT JUMPDEST DUP2 PUSH1 0x0 PUSH1 0x5 PUSH1 0x0 DUP4 DUP2 MSTORE PUSH1 0x20 ADD SWAP1 DUP2 MSTORE PUSH1 0x20 ADD PUSH1 0x0 KECCAK256 PUSH1 0x0 ADD SLOAD GT PUSH2 0x1144 JUMPI PUSH1 0x40 MLOAD PUSH32 0x8C379A000000000000000000000000000000000000000000000000000000000 DUP2 MSTORE PUSH1 0x4 ADD PUSH2 0x113B SWAP1 PUSH2 0x32C9 JUMP JUMPDEST PUSH1 0x40 MLOAD DUP1 SWAP2 SUB SWAP1 REVERT JUMPDEST DUP3 PUSH1 0x0 PUSH1 0x1 DUP2 GT ISZERO PUSH2 0x1159 JUMPI PUSH2 0x1158 PUSH2 0x36E8 JUMP JUMPDEST JUMPDEST PUSH1 0x5 PUSH1 0x0 DUP4 DUP2 MSTORE PUSH1 0x20 ADD SWAP1 DUP2 MSTORE PUSH1 0x20 ADD PUSH1 0x0 KECCAK256 PUSH1 0x9 ADD PUSH1 0x0 SWAP1 SLOAD SWAP1 PUSH2 0x100 EXP SWAP1 DIV PUSH1 0xFF AND PUSH1 0x1 DUP2 GT ISZERO PUSH2 0x118F JUMPI PUSH2 0x118E PUSH2 0x36E8 JUMP JUMPDEST JUMPDEST EQ PUSH2 0x11CF JUMPI PUSH1 0x40 MLOAD PUSH32 0x8C379A000000000000000000000000000000000000000000000000000000000 DUP2 MSTORE PUSH1 0x4 ADD PUSH2 0x11C6 SWAP1 PUSH2 0x3269 JUMP JUMPDEST PUSH1 0x40 MLOAD DUP1 SWAP2 SUB SWAP1 REVERT JUMPDEST DUP5 PUSH1 0x0 PUSH20 0xFFFFFFFFFFFFFFFFFFFFFFFFFFFFFFFFFFFFFFFF AND PUSH1 0x7 PUSH1 0x0 DUP4 DUP2 MSTORE PUSH1 0x20 ADD SWAP1 DUP2 MSTORE PUSH1 0x20 ADD PUSH1 0x0 KECCAK256 PUSH1 0x0 ADD PUSH1 0x0 SWAP1 SLOAD SWAP1 PUSH2 0x100 EXP SWAP1 DIV PUSH20 0xFFFFFFFFFFFFFFFFFFFFFFFFFFFFFFFFFFFFFFFF AND PUSH20 0xFFFFFFFFFFFFFFFFFFFFFFFFFFFFFFFFFFFFFFFF AND EQ ISZERO PUSH2 0x1276 JUMPI PUSH1 0x40 MLOAD PUSH32 0x8C379A000000000000000000000000000000000000000000000000000000000 DUP2 MSTORE PUSH1 0x4 ADD PUSH2 0x126D SWAP1 PUSH2 0x3289 JUMP JUMPDEST PUSH1 0x40 MLOAD DUP1 SWAP2 SUB SWAP1 REVERT JUMPDEST DUP6 PUSH1 0x0 PUSH1 0x7 PUSH1 0x0 DUP4 DUP2 MSTORE PUSH1 0x20 ADD SWAP1 DUP2 MSTORE PUSH1 0x20 ADD PUSH1 0x0 KECCAK256 PUSH1 0xD ADD SLOAD PUSH1 0x7 PUSH1 0x0 DUP5 DUP2 MSTORE PUSH1 0x20 ADD SWAP1 DUP2 MSTORE PUSH1 0x20 ADD PUSH1 0x0 KECCAK256 PUSH1 0xE ADD SLOAD PUSH2 0x12B1 SWAP2 SWAP1 PUSH2 0x3426 JUMP JUMPDEST SWAP1 POP DUP1 PUSH1 0x1 PUSH1 0x0 SWAP1 SLOAD SWAP1 PUSH2 0x100 EXP SWAP1 DIV PUSH20 0xFFFFFFFFFFFFFFFFFFFFFFFFFFFFFFFFFFFFFFFF AND PUSH20 0xFFFFFFFFFFFFFFFFFFFFFFFFFFFFFFFFFFFFFFFF AND BALANCE LT ISZERO PUSH2 0x132F JUMPI PUSH1 0x40 MLOAD PUSH32 0x8C379A000000000000000000000000000000000000000000000000000000000 DUP2 MSTORE PUSH1 0x4 ADD PUSH2 0x1326 SWAP1 PUSH2 0x3209 JUMP JUMPDEST PUSH1 0x40 MLOAD DUP1 SWAP2 SUB SWAP1 REVERT JUMPDEST PUSH1 0x1 PUSH1 0x7 PUSH1 0x0 DUP11 DUP2 MSTORE PUSH1 0x20 ADD SWAP1 DUP2 MSTORE PUSH1 0x20 ADD PUSH1 0x0 KECCAK256 PUSH1 0x10 ADD PUSH1 0x0 PUSH2 0x100 EXP DUP2 SLOAD DUP2 PUSH1 0xFF MUL NOT AND SWAP1 DUP4 PUSH1 0x2 DUP2 GT ISZERO PUSH2 0x1369 JUMPI PUSH2 0x1368 PUSH2 0x36E8 JUMP JUMPDEST JUMPDEST MUL OR SWAP1 SSTORE POP PUSH1 0x1 PUSH1 0x5 PUSH1 0x0 DUP10 DUP2 MSTORE PUSH1 0x20 ADD SWAP1 DUP2 MSTORE PUSH1 0x20 ADD PUSH1 0x0 KECCAK256 PUSH1 0x9 ADD PUSH1 0x0 PUSH2 0x100 EXP DUP2 SLOAD DUP2 PUSH1 0xFF MUL NOT AND SWAP1 DUP4 PUSH1 0x1 DUP2 GT ISZERO PUSH2 0x13A8 JUMPI PUSH2 0x13A7 PUSH2 0x36E8 JUMP JUMPDEST JUMPDEST MUL OR SWAP1 SSTORE POP PUSH1 0x0 PUSH1 0x7 PUSH1 0x0 DUP11 DUP2 MSTORE PUSH1 0x20 ADD SWAP1 DUP2 MSTORE PUSH1 0x20 ADD PUSH1 0x0 KECCAK256 PUSH1 0xE ADD SLOAD PUSH1 0x7 PUSH1 0x0 DUP12 DUP2 MSTORE PUSH1 0x20 ADD SWAP1 DUP2 MSTORE PUSH1 0x20 ADD PUSH1 0x0 KECCAK256 PUSH1 0xD ADD SLOAD PUSH2 0x13E7 SWAP2 SWAP1 PUSH2 0x3426 JUMP JUMPDEST SWAP1 POP ADDRESS PUSH20 0xFFFFFFFFFFFFFFFFFFFFFFFFFFFFFFFFFFFFFFFF AND PUSH4 0x74539CD0 DUP3 PUSH1 0x40 MLOAD DUP3 PUSH4 0xFFFFFFFF AND PUSH1 0xE0 SHL DUP2 MSTORE PUSH1 0x4 ADD PUSH2 0x1422 SWAP2 SWAP1 PUSH2 0x32E9 JUMP JUMPDEST PUSH1 0x0 PUSH1 0x40 MLOAD DUP1 DUP4 SUB DUP2 PUSH1 0x0 DUP8 DUP1 EXTCODESIZE ISZERO DUP1 ISZERO PUSH2 0x143C JUMPI PUSH1 0x0 DUP1 REVERT JUMPDEST POP GAS CALL ISZERO DUP1 ISZERO PUSH2 0x1450 JUMPI RETURNDATASIZE PUSH1 0x0 DUP1 RETURNDATACOPY RETURNDATASIZE PUSH1 0x0 REVERT JUMPDEST POP POP POP POP PUSH1 0x4 SLOAD PUSH1 0x8 DUP1 SLOAD SWAP1 POP EQ SWAP7 POP POP POP POP POP POP POP SWAP3 SWAP2 POP POP JUMP JUMPDEST PUSH1 0x7 PUSH1 0x20 MSTORE DUP1 PUSH1 0x0 MSTORE PUSH1 0x40 PUSH1 0x0 KECCAK256 PUSH1 0x0 SWAP2 POP SWAP1 POP DUP1 PUSH1 0x0 ADD PUSH1 0x0 SWAP1 SLOAD SWAP1 PUSH2 0x100 EXP SWAP1 DIV PUSH20 0xFFFFFFFFFFFFFFFFFFFFFFFFFFFFFFFFFFFFFFFF AND SWAP1 DUP1 PUSH1 0x1 ADD PUSH1 0x40 MLOAD DUP1 PUSH2 0x120 ADD PUSH1 0x40 MSTORE SWAP1 DUP2 PUSH1 0x0 DUP3 ADD SLOAD DUP2 MSTORE PUSH1 0x20 ADD PUSH1 0x1 DUP3 ADD SLOAD DUP2 MSTORE PUSH1 0x20 ADD PUSH1 0x2 DUP3 ADD SLOAD DUP2 MSTORE PUSH1 0x20 ADD PUSH1 0x3 DUP3 ADD PUSH1 0x0 SWAP1 SLOAD SWAP1 PUSH2 0x100 EXP SWAP1 DIV PUSH1 0xFF AND PUSH1 0x6 DUP2 GT ISZERO PUSH2 0x14F9 JUMPI PUSH2 0x14F8 PUSH2 0x36E8 JUMP JUMPDEST JUMPDEST PUSH1 0x6 DUP2 GT ISZERO PUSH2 0x150B JUMPI PUSH2 0x150A PUSH2 0x36E8 JUMP JUMPDEST JUMPDEST DUP2 MSTORE PUSH1 0x20 ADD PUSH1 0x4 DUP3 ADD PUSH1 0x40 MLOAD DUP1 PUSH1 0x40 ADD PUSH1 0x40 MSTORE SWAP1 DUP2 PUSH1 0x0 DUP3 ADD DUP1 SLOAD PUSH2 0x152F SWAP1 PUSH2 0x360D JUMP JUMPDEST DUP1 PUSH1 0x1F ADD PUSH1 0x20 DUP1 SWAP2 DIV MUL PUSH1 0x20 ADD PUSH1 0x40 MLOAD SWAP1 DUP2 ADD PUSH1 0x40 MSTORE DUP1 SWAP3 SWAP2 SWAP1 DUP2 DUP2 MSTORE PUSH1 0x20 ADD DUP3 DUP1 SLOAD PUSH2 0x155B SWAP1 PUSH2 0x360D JUMP JUMPDEST DUP1 ISZERO PUSH2 0x15A8 JUMPI DUP1 PUSH1 0x1F LT PUSH2 0x157D JUMPI PUSH2 0x100 DUP1 DUP4 SLOAD DIV MUL DUP4 MSTORE SWAP2 PUSH1 0x20 ADD SWAP2 PUSH2 0x15A8 JUMP JUMPDEST DUP3 ADD SWAP2 SWAP1 PUSH1 0x0 MSTORE PUSH1 0x20 PUSH1 0x0 KECCAK256 SWAP1 JUMPDEST DUP2 SLOAD DUP2 MSTORE SWAP1 PUSH1 0x1 ADD SWAP1 PUSH1 0x20 ADD DUP1 DUP4 GT PUSH2 0x158B JUMPI DUP3 SWAP1 SUB PUSH1 0x1F AND DUP3 ADD SWAP2 JUMPDEST POP POP POP POP POP DUP2 MSTORE PUSH1 0x20 ADD PUSH1 0x1 DUP3 ADD DUP1 SLOAD PUSH2 0x15C1 SWAP1 PUSH2 0x360D JUMP JUMPDEST DUP1 PUSH1 0x1F ADD PUSH1 0x20 DUP1 SWAP2 DIV MUL PUSH1 0x20 ADD PUSH1 0x40 MLOAD SWAP1 DUP2 ADD PUSH1 0x40 MSTORE DUP1 SWAP3 SWAP2 SWAP1 DUP2 DUP2 MSTORE PUSH1 0x20 ADD DUP3 DUP1 SLOAD PUSH2 0x15ED SWAP1 PUSH2 0x360D JUMP JUMPDEST DUP1 ISZERO PUSH2 0x163A JUMPI DUP1 PUSH1 0x1F LT PUSH2 0x160F JUMPI PUSH2 0x100 DUP1 DUP4 SLOAD DIV MUL DUP4 MSTORE SWAP2 PUSH1 0x20 ADD SWAP2 PUSH2 0x163A JUMP JUMPDEST DUP3 ADD SWAP2 SWAP1 PUSH1 0x0 MSTORE PUSH1 0x20 PUSH1 0x0 KECCAK256 SWAP1 JUMPDEST DUP2 SLOAD DUP2 MSTORE SWAP1 PUSH1 0x1 ADD SWAP1 PUSH1 0x20 ADD DUP1 DUP4 GT PUSH2 0x161D JUMPI DUP3 SWAP1 SUB PUSH1 0x1F AND DUP3 ADD SWAP2 JUMPDEST POP POP POP POP POP DUP2 MSTORE POP POP DUP2 MSTORE PUSH1 0x20 ADD PUSH1 0x6 DUP3 ADD SLOAD DUP2 MSTORE PUSH1 0x20 ADD PUSH1 0x7 DUP3 ADD SLOAD DUP2 MSTORE PUSH1 0x20 ADD PUSH1 0x8 DUP3 ADD SLOAD DUP2 MSTORE PUSH1 0x20 ADD PUSH1 0x9 DUP3 ADD PUSH1 0x0 SWAP1 SLOAD SWAP1 PUSH2 0x100 EXP SWAP1 DIV PUSH1 0xFF AND PUSH1 0x1 DUP2 GT ISZERO PUSH2 0x168A JUMPI PUSH2 0x1689 PUSH2 0x36E8 JUMP JUMPDEST JUMPDEST PUSH1 0x1 DUP2 GT ISZERO PUSH2 0x169C JUMPI PUSH2 0x169B PUSH2 0x36E8 JUMP JUMPDEST JUMPDEST DUP2 MSTORE POP POP SWAP1 DUP1 PUSH1 0xB ADD PUSH1 0x40 MLOAD DUP1 PUSH1 0x40 ADD PUSH1 0x40 MSTORE SWAP1 DUP2 PUSH1 0x0 DUP3 ADD SLOAD DUP2 MSTORE PUSH1 0x20 ADD PUSH1 0x1 DUP3 ADD SLOAD DUP2 MSTORE POP POP SWAP1 DUP1 PUSH1 0xD ADD SLOAD SWAP1 DUP1 PUSH1 0xE ADD SLOAD SWAP1 DUP1 PUSH1 0xF ADD SLOAD SWAP1 DUP1 PUSH1 0x10 ADD PUSH1 0x0 SWAP1 SLOAD SWAP1 PUSH2 0x100 EXP SWAP1 DIV PUSH1 0xFF AND SWAP1 POP DUP8 JUMP JUMPDEST PUSH1 0x4 SLOAD DUP2 JUMP JUMPDEST PUSH1 0x0 PUSH2 0x16FF CALLER PUSH2 0x1A63 JUMP JUMPDEST PUSH2 0x173E JUMPI PUSH1 0x40 MLOAD PUSH32 0x8C379A000000000000000000000000000000000000000000000000000000000 DUP2 MSTORE PUSH1 0x4 ADD PUSH2 0x1735 SWAP1 PUSH2 0x32A9 JUMP JUMPDEST PUSH1 0x40 MLOAD DUP1 SWAP2 SUB SWAP1 REVERT JUMPDEST DUP2 PUSH1 0x0 PUSH1 0x5 PUSH1 0x0 DUP4 DUP2 MSTORE PUSH1 0x20 ADD SWAP1 DUP2 MSTORE PUSH1 0x20 ADD PUSH1 0x0 KECCAK256 PUSH1 0x0 ADD SLOAD GT PUSH2 0x1798 JUMPI PUSH1 0x40 MLOAD PUSH32 0x8C379A000000000000000000000000000000000000000000000000000000000 DUP2 MSTORE PUSH1 0x4 ADD PUSH2 0x178F SWAP1 PUSH2 0x32C9 JUMP JUMPDEST PUSH1 0x40 MLOAD DUP1 SWAP2 SUB SWAP1 REVERT JUMPDEST DUP4 PUSH1 0x0 PUSH20 0xFFFFFFFFFFFFFFFFFFFFFFFFFFFFFFFFFFFFFFFF AND PUSH1 0x7 PUSH1 0x0 DUP4 DUP2 MSTORE PUSH1 0x20 ADD SWAP1 DUP2 MSTORE PUSH1 0x20 ADD PUSH1 0x0 KECCAK256 PUSH1 0x0 ADD PUSH1 0x0 SWAP1 SLOAD SWAP1 PUSH2 0x100 EXP SWAP1 DIV PUSH20 0xFFFFFFFFFFFFFFFFFFFFFFFFFFFFFFFFFFFFFFFF AND PUSH20 0xFFFFFFFFFFFFFFFFFFFFFFFFFFFFFFFFFFFFFFFF AND EQ ISZERO PUSH2 0x183F JUMPI PUSH1 0x40 MLOAD PUSH32 0x8C379A000000000000000000000000000000000000000000000000000000000 DUP2 MSTORE PUSH1 0x4 ADD PUSH2 0x1836 SWAP1 PUSH2 0x3289 JUMP JUMPDEST PUSH1 0x40 MLOAD DUP1 SWAP2 SUB SWAP1 REVERT JUMPDEST DUP5 PUSH1 0x0 PUSH1 0x7 PUSH1 0x0 DUP4 DUP2 MSTORE PUSH1 0x20 ADD SWAP1 DUP2 MSTORE PUSH1 0x20 ADD PUSH1 0x0 KECCAK256 PUSH1 0xE ADD SLOAD SWAP1 POP DUP1 SELFBALANCE LT ISZERO PUSH2 0x189E JUMPI PUSH1 0x40 MLOAD PUSH32 0x8C379A000000000000000000000000000000000000000000000000000000000 DUP2 MSTORE PUSH1 0x4 ADD PUSH2 0x1895 SWAP1 PUSH2 0x3209 JUMP JUMPDEST PUSH1 0x40 MLOAD DUP1 SWAP2 SUB SWAP1 REVERT JUMPDEST PUSH1 0x2 PUSH1 0x7 PUSH1 0x0 DUP10 DUP2 MSTORE PUSH1 0x20 ADD SWAP1 DUP2 MSTORE PUSH1 0x20 ADD PUSH1 0x0 KECCAK256 PUSH1 0x10 ADD PUSH1 0x0 PUSH2 0x100 EXP DUP2 SLOAD DUP2 PUSH1 0xFF MUL NOT AND SWAP1 DUP4 PUSH1 0x2 DUP2 GT ISZERO PUSH2 0x18D8 JUMPI PUSH2 0x18D7 PUSH2 0x36E8 JUMP JUMPDEST JUMPDEST MUL OR SWAP1 SSTORE POP PUSH1 0x0 PUSH1 0x5 PUSH1 0x0 DUP9 DUP2 MSTORE PUSH1 0x20 ADD SWAP1 DUP2 MSTORE PUSH1 0x20 ADD PUSH1 0x0 KECCAK256 PUSH1 0x9 ADD PUSH1 0x0 PUSH2 0x100 EXP DUP2 SLOAD DUP2 PUSH1 0xFF MUL NOT AND SWAP1 DUP4 PUSH1 0x1 DUP2 GT ISZERO PUSH2 0x1917 JUMPI PUSH2 0x1916 PUSH2 0x36E8 JUMP JUMPDEST JUMPDEST MUL OR SWAP1 SSTORE POP PUSH1 0x0 PUSH1 0x7 PUSH1 0x0 DUP10 DUP2 MSTORE PUSH1 0x20 ADD SWAP1 DUP2 MSTORE PUSH1 0x20 ADD PUSH1 0x0 KECCAK256 PUSH1 0xE ADD SLOAD SWAP1 POP PUSH1 0x0 CALLER SWAP1 POP PUSH1 0x0 DUP2 PUSH20 0xFFFFFFFFFFFFFFFFFFFFFFFFFFFFFFFFFFFFFFFF AND DUP4 PUSH1 0x40 MLOAD PUSH2 0x1962 SWAP1 PUSH2 0x30EC JUMP JUMPDEST PUSH1 0x0 PUSH1 0x40 MLOAD DUP1 DUP4 SUB DUP2 DUP6 DUP8 GAS CALL SWAP3 POP POP POP RETURNDATASIZE DUP1 PUSH1 0x0 DUP2 EQ PUSH2 0x199F JUMPI PUSH1 0x40 MLOAD SWAP2 POP PUSH1 0x1F NOT PUSH1 0x3F RETURNDATASIZE ADD AND DUP3 ADD PUSH1 0x40 MSTORE RETURNDATASIZE DUP3 MSTORE RETURNDATASIZE PUSH1 0x0 PUSH1 0x20 DUP5 ADD RETURNDATACOPY PUSH2 0x19A4 JUMP JUMPDEST PUSH1 0x60 SWAP2 POP JUMPDEST POP POP SWAP1 POP DUP1 PUSH2 0x19E8 JUMPI PUSH1 0x40 MLOAD PUSH32 0x8C379A000000000000000000000000000000000000000000000000000000000 DUP2 MSTORE PUSH1 0x4 ADD PUSH2 0x19DF SWAP1 PUSH2 0x3249 JUMP JUMPDEST PUSH1 0x40 MLOAD DUP1 SWAP2 SUB SWAP1 REVERT JUMPDEST PUSH1 0x4 SLOAD PUSH1 0x8 DUP1 SLOAD SWAP1 POP EQ SWAP8 POP POP POP POP POP POP POP POP SWAP3 SWAP2 POP POP JUMP JUMPDEST PUSH1 0x0 PUSH2 0x1A27 DUP3 PUSH1 0x0 DUP1 DUP7 DUP2 MSTORE PUSH1 0x20 ADD SWAP1 DUP2 MSTORE PUSH1 0x20 ADD PUSH1 0x0 KECCAK256 PUSH2 0x25A0 SWAP1 SWAP2 SWAP1 PUSH4 0xFFFFFFFF AND JUMP JUMPDEST SWAP1 POP SWAP3 SWAP2 POP POP JUMP JUMPDEST PUSH1 0x0 PUSH2 0x1A55 DUP3 PUSH1 0x0 DUP1 DUP7 DUP2 MSTORE PUSH1 0x20 ADD SWAP1 DUP2 MSTORE PUSH1 0x20 ADD PUSH1 0x0 KECCAK256 PUSH2 0x25BA SWAP1 SWAP2 SWAP1 PUSH4 0xFFFFFFFF AND JUMP JUMPDEST SWAP1 POP SWAP3 SWAP2 POP POP JUMP JUMPDEST PUSH1 0x3 SLOAD DUP2 JUMP JUMPDEST PUSH1 0x0 PUSH2 0x1A8F PUSH32 0x52454E5445520000000000000000000000000000000000000000000000000000 DUP4 PUSH2 0x1A2F JUMP JUMPDEST SWAP1 POP SWAP2 SWAP1 POP JUMP JUMPDEST PUSH1 0x0 PUSH2 0x1AA1 CALLER PUSH2 0x1A63 JUMP JUMPDEST PUSH2 0x1AE0 JUMPI PUSH1 0x40 MLOAD PUSH32 0x8C379A000000000000000000000000000000000000000000000000000000000 DUP2 MSTORE PUSH1 0x4 ADD PUSH2 0x1AD7 SWAP1 PUSH2 0x32A9 JUMP JUMPDEST PUSH1 0x40 MLOAD DUP1 SWAP2 SUB SWAP1 REVERT JUMPDEST DUP4 PUSH1 0x0 PUSH1 0x5 PUSH1 0x0 DUP4 DUP2 MSTORE PUSH1 0x20 ADD SWAP1 DUP2 MSTORE PUSH1 0x20 ADD PUSH1 0x0 KECCAK256 PUSH1 0x0 ADD SLOAD GT PUSH2 0x1B3A JUMPI PUSH1 0x40 MLOAD PUSH32 0x8C379A000000000000000000000000000000000000000000000000000000000 DUP2 MSTORE PUSH1 0x4 ADD PUSH2 0x1B31 SWAP1 PUSH2 0x32C9 JUMP JUMPDEST PUSH1 0x40 MLOAD DUP1 SWAP2 SUB SWAP1 REVERT JUMPDEST PUSH1 0x1 PUSH1 0x4 SLOAD PUSH2 0x1B49 SWAP2 SWAP1 PUSH2 0x3426 JUMP JUMPDEST PUSH1 0x8 DUP1 SLOAD SWAP1 POP LT PUSH2 0x1B8F JUMPI PUSH1 0x40 MLOAD PUSH32 0x8C379A000000000000000000000000000000000000000000000000000000000 DUP2 MSTORE PUSH1 0x4 ADD PUSH2 0x1B86 SWAP1 PUSH2 0x31C9 JUMP JUMPDEST PUSH1 0x40 MLOAD DUP1 SWAP2 SUB SWAP1 REVERT JUMPDEST PUSH1 0x4 PUSH1 0x0 DUP2 SLOAD DUP1 SWAP3 SWAP2 SWAP1 PUSH2 0x1BA2 SWAP1 PUSH2 0x3670 JUMP JUMPDEST SWAP2 SWAP1 POP SSTORE POP PUSH1 0x0 DUP4 PUSH1 0x5 PUSH1 0x0 DUP9 DUP2 MSTORE PUSH1 0x20 ADD SWAP1 DUP2 MSTORE PUSH1 0x20 ADD PUSH1 0x0 KECCAK256 PUSH1 0x8 ADD SLOAD PUSH2 0x1BCB SWAP2 SWAP1 PUSH2 0x347C JUMP JUMPDEST SWAP1 POP PUSH1 0x0 PUSH1 0x40 MLOAD DUP1 PUSH1 0xE0 ADD PUSH1 0x40 MSTORE DUP1 CALLER PUSH20 0xFFFFFFFFFFFFFFFFFFFFFFFFFFFFFFFFFFFFFFFF AND DUP2 MSTORE PUSH1 0x20 ADD PUSH1 0x5 PUSH1 0x0 DUP11 DUP2 MSTORE PUSH1 0x20 ADD SWAP1 DUP2 MSTORE PUSH1 0x20 ADD PUSH1 0x0 KECCAK256 PUSH1 0x40 MLOAD DUP1 PUSH2 0x120 ADD PUSH1 0x40 MSTORE SWAP1 DUP2 PUSH1 0x0 DUP3 ADD SLOAD DUP2 MSTORE PUSH1 0x20 ADD PUSH1 0x1 DUP3 ADD SLOAD DUP2 MSTORE PUSH1 0x20 ADD PUSH1 0x2 DUP3 ADD SLOAD DUP2 MSTORE PUSH1 0x20 ADD PUSH1 0x3 DUP3 ADD PUSH1 0x0 SWAP1 SLOAD SWAP1 PUSH2 0x100 EXP SWAP1 DIV PUSH1 0xFF AND PUSH1 0x6 DUP2 GT ISZERO PUSH2 0x1C58 JUMPI PUSH2 0x1C57 PUSH2 0x36E8 JUMP JUMPDEST JUMPDEST PUSH1 0x6 DUP2 GT ISZERO PUSH2 0x1C6A JUMPI PUSH2 0x1C69 PUSH2 0x36E8 JUMP JUMPDEST JUMPDEST DUP2 MSTORE PUSH1 0x20 ADD PUSH1 0x4 DUP3 ADD PUSH1 0x40 MLOAD DUP1 PUSH1 0x40 ADD PUSH1 0x40 MSTORE SWAP1 DUP2 PUSH1 0x0 DUP3 ADD DUP1 SLOAD PUSH2 0x1C8E SWAP1 PUSH2 0x360D JUMP JUMPDEST DUP1 PUSH1 0x1F ADD PUSH1 0x20 DUP1 SWAP2 DIV MUL PUSH1 0x20 ADD PUSH1 0x40 MLOAD SWAP1 DUP2 ADD PUSH1 0x40 MSTORE DUP1 SWAP3 SWAP2 SWAP1 DUP2 DUP2 MSTORE PUSH1 0x20 ADD DUP3 DUP1 SLOAD PUSH2 0x1CBA SWAP1 PUSH2 0x360D JUMP JUMPDEST DUP1 ISZERO PUSH2 0x1D07 JUMPI DUP1 PUSH1 0x1F LT PUSH2 0x1CDC JUMPI PUSH2 0x100 DUP1 DUP4 SLOAD DIV MUL DUP4 MSTORE SWAP2 PUSH1 0x20 ADD SWAP2 PUSH2 0x1D07 JUMP JUMPDEST DUP3 ADD SWAP2 SWAP1 PUSH1 0x0 MSTORE PUSH1 0x20 PUSH1 0x0 KECCAK256 SWAP1 JUMPDEST DUP2 SLOAD DUP2 MSTORE SWAP1 PUSH1 0x1 ADD SWAP1 PUSH1 0x20 ADD DUP1 DUP4 GT PUSH2 0x1CEA JUMPI DUP3 SWAP1 SUB PUSH1 0x1F AND DUP3 ADD SWAP2 JUMPDEST POP POP POP POP POP DUP2 MSTORE PUSH1 0x20 ADD PUSH1 0x1 DUP3 ADD DUP1 SLOAD PUSH2 0x1D20 SWAP1 PUSH2 0x360D JUMP JUMPDEST DUP1 PUSH1 0x1F ADD PUSH1 0x20 DUP1 SWAP2 DIV MUL PUSH1 0x20 ADD PUSH1 0x40 MLOAD SWAP1 DUP2 ADD PUSH1 0x40 MSTORE DUP1 SWAP3 SWAP2 SWAP1 DUP2 DUP2 MSTORE PUSH1 0x20 ADD DUP3 DUP1 SLOAD PUSH2 0x1D4C SWAP1 PUSH2 0x360D JUMP JUMPDEST DUP1 ISZERO PUSH2 0x1D99 JUMPI DUP1 PUSH1 0x1F LT PUSH2 0x1D6E JUMPI PUSH2 0x100 DUP1 DUP4 SLOAD DIV MUL DUP4 MSTORE SWAP2 PUSH1 0x20 ADD SWAP2 PUSH2 0x1D99 JUMP JUMPDEST DUP3 ADD SWAP2 SWAP1 PUSH1 0x0 MSTORE PUSH1 0x20 PUSH1 0x0 KECCAK256 SWAP1 JUMPDEST DUP2 SLOAD DUP2 MSTORE SWAP1 PUSH1 0x1 ADD SWAP1 PUSH1 0x20 ADD DUP1 DUP4 GT PUSH2 0x1D7C JUMPI DUP3 SWAP1 SUB PUSH1 0x1F AND DUP3 ADD SWAP2 JUMPDEST POP POP POP POP POP DUP2 MSTORE POP POP DUP2 MSTORE PUSH1 0x20 ADD PUSH1 0x6 DUP3 ADD SLOAD DUP2 MSTORE PUSH1 0x20 ADD PUSH1 0x7 DUP3 ADD SLOAD DUP2 MSTORE PUSH1 0x20 ADD PUSH1 0x8 DUP3 ADD SLOAD DUP2 MSTORE PUSH1 0x20 ADD PUSH1 0x9 DUP3 ADD PUSH1 0x0 SWAP1 SLOAD SWAP1 PUSH2 0x100 EXP SWAP1 DIV PUSH1 0xFF AND PUSH1 0x1 DUP2 GT ISZERO PUSH2 0x1DE9 JUMPI PUSH2 0x1DE8 PUSH2 0x36E8 JUMP JUMPDEST JUMPDEST PUSH1 0x1 DUP2 GT ISZERO PUSH2 0x1DFB JUMPI PUSH2 0x1DFA PUSH2 0x36E8 JUMP JUMPDEST JUMPDEST DUP2 MSTORE POP POP DUP2 MSTORE PUSH1 0x20 ADD DUP8 DUP2 MSTORE PUSH1 0x20 ADD DUP4 DUP2 MSTORE PUSH1 0x20 ADD PUSH1 0x0 DUP2 MSTORE PUSH1 0x20 ADD TIMESTAMP DUP2 MSTORE PUSH1 0x20 ADD PUSH1 0x0 PUSH1 0x2 DUP2 GT ISZERO PUSH2 0x1E31 JUMPI PUSH2 0x1E30 PUSH2 0x36E8 JUMP JUMPDEST JUMPDEST DUP2 MSTORE POP SWAP1 POP DUP1 PUSH1 0x7 PUSH1 0x0 PUSH1 0x4 SLOAD DUP2 MSTORE PUSH1 0x20 ADD SWAP1 DUP2 MSTORE PUSH1 0x20 ADD PUSH1 0x0 KECCAK256 PUSH1 0x0 DUP3 ADD MLOAD DUP2 PUSH1 0x0 ADD PUSH1 0x0 PUSH2 0x100 EXP DUP2 SLOAD DUP2 PUSH20 0xFFFFFFFFFFFFFFFFFFFFFFFFFFFFFFFFFFFFFFFF MUL NOT AND SWAP1 DUP4 PUSH20 0xFFFFFFFFFFFFFFFFFFFFFFFFFFFFFFFFFFFFFFFF AND MUL OR SWAP1 SSTORE POP PUSH1 0x20 DUP3 ADD MLOAD DUP2 PUSH1 0x1 ADD PUSH1 0x0 DUP3 ADD MLOAD DUP2 PUSH1 0x0 ADD SSTORE PUSH1 0x20 DUP3 ADD MLOAD DUP2 PUSH1 0x1 ADD SSTORE PUSH1 0x40 DUP3 ADD MLOAD DUP2 PUSH1 0x2 ADD SSTORE PUSH1 0x60 DUP3 ADD MLOAD DUP2 PUSH1 0x3 ADD PUSH1 0x0 PUSH2 0x100 EXP DUP2 SLOAD DUP2 PUSH1 0xFF MUL NOT AND SWAP1 DUP4 PUSH1 0x6 DUP2 GT ISZERO PUSH2 0x1EE5 JUMPI PUSH2 0x1EE4 PUSH2 0x36E8 JUMP JUMPDEST JUMPDEST MUL OR SWAP1 SSTORE POP PUSH1 0x80 DUP3 ADD MLOAD DUP2 PUSH1 0x4 ADD PUSH1 0x0 DUP3 ADD MLOAD DUP2 PUSH1 0x0 ADD SWAP1 DUP1 MLOAD SWAP1 PUSH1 0x20 ADD SWAP1 PUSH2 0x1F0F SWAP3 SWAP2 SWAP1 PUSH2 0x284A JUMP JUMPDEST POP PUSH1 0x20 DUP3 ADD MLOAD DUP2 PUSH1 0x1 ADD SWAP1 DUP1 MLOAD SWAP1 PUSH1 0x20 ADD SWAP1 PUSH2 0x1F2C SWAP3 SWAP2 SWAP1 PUSH2 0x284A JUMP JUMPDEST POP POP POP PUSH1 0xA0 DUP3 ADD MLOAD DUP2 PUSH1 0x6 ADD SSTORE PUSH1 0xC0 DUP3 ADD MLOAD DUP2 PUSH1 0x7 ADD SSTORE PUSH1 0xE0 DUP3 ADD MLOAD DUP2 PUSH1 0x8 ADD SSTORE PUSH2 0x100 DUP3 ADD MLOAD DUP2 PUSH1 0x9 ADD PUSH1 0x0 PUSH2 0x100 EXP DUP2 SLOAD DUP2 PUSH1 0xFF MUL NOT AND SWAP1 DUP4 PUSH1 0x1 DUP2 GT ISZERO PUSH2 0x1F79 JUMPI PUSH2 0x1F78 PUSH2 0x36E8 JUMP JUMPDEST JUMPDEST MUL OR SWAP1 SSTORE POP POP POP PUSH1 0x40 DUP3 ADD MLOAD DUP2 PUSH1 0xB ADD PUSH1 0x0 DUP3 ADD MLOAD DUP2 PUSH1 0x0 ADD SSTORE PUSH1 0x20 DUP3 ADD MLOAD DUP2 PUSH1 0x1 ADD SSTORE POP POP PUSH1 0x60 DUP3 ADD MLOAD DUP2 PUSH1 0xD ADD SSTORE PUSH1 0x80 DUP3 ADD MLOAD DUP2 PUSH1 0xE ADD SSTORE PUSH1 0xA0 DUP3 ADD MLOAD DUP2 PUSH1 0xF ADD SSTORE PUSH1 0xC0 DUP3 ADD MLOAD DUP2 PUSH1 0x10 ADD PUSH1 0x0 PUSH2 0x100 EXP DUP2 SLOAD DUP2 PUSH1 0xFF MUL NOT AND SWAP1 DUP4 PUSH1 0x2 DUP2 GT ISZERO PUSH2 0x1FE8 JUMPI PUSH2 0x1FE7 PUSH2 0x36E8 JUMP JUMPDEST JUMPDEST MUL OR SWAP1 SSTORE POP SWAP1 POP POP PUSH1 0x8 DUP2 SWAP1 DUP1 PUSH1 0x1 DUP2 SLOAD ADD DUP1 DUP3 SSTORE DUP1 SWAP2 POP POP PUSH1 0x1 SWAP1 SUB SWAP1 PUSH1 0x0 MSTORE PUSH1 0x20 PUSH1 0x0 KECCAK256 SWAP1 PUSH1 0x11 MUL ADD PUSH1 0x0 SWAP1 SWAP2 SWAP1 SWAP2 SWAP1 SWAP2 POP PUSH1 0x0 DUP3 ADD MLOAD DUP2 PUSH1 0x0 ADD PUSH1 0x0 PUSH2 0x100 EXP DUP2 SLOAD DUP2 PUSH20 0xFFFFFFFFFFFFFFFFFFFFFFFFFFFFFFFFFFFFFFFF MUL NOT AND SWAP1 DUP4 PUSH20 0xFFFFFFFFFFFFFFFFFFFFFFFFFFFFFFFFFFFFFFFF AND MUL OR SWAP1 SSTORE POP PUSH1 0x20 DUP3 ADD MLOAD DUP2 PUSH1 0x1 ADD PUSH1 0x0 DUP3 ADD MLOAD DUP2 PUSH1 0x0 ADD SSTORE PUSH1 0x20 DUP3 ADD MLOAD DUP2 PUSH1 0x1 ADD SSTORE PUSH1 0x40 DUP3 ADD MLOAD DUP2 PUSH1 0x2 ADD SSTORE PUSH1 0x60 DUP3 ADD MLOAD DUP2 PUSH1 0x3 ADD PUSH1 0x0 PUSH2 0x100 EXP DUP2 SLOAD DUP2 PUSH1 0xFF MUL NOT AND SWAP1 DUP4 PUSH1 0x6 DUP2 GT ISZERO PUSH2 0x20B5 JUMPI PUSH2 0x20B4 PUSH2 0x36E8 JUMP JUMPDEST JUMPDEST MUL OR SWAP1 SSTORE POP PUSH1 0x80 DUP3 ADD MLOAD DUP2 PUSH1 0x4 ADD PUSH1 0x0 DUP3 ADD MLOAD DUP2 PUSH1 0x0 ADD SWAP1 DUP1 MLOAD SWAP1 PUSH1 0x20 ADD SWAP1 PUSH2 0x20DF SWAP3 SWAP2 SWAP1 PUSH2 0x284A JUMP JUMPDEST POP PUSH1 0x20 DUP3 ADD MLOAD DUP2 PUSH1 0x1 ADD SWAP1 DUP1 MLOAD SWAP1 PUSH1 0x20 ADD SWAP1 PUSH2 0x20FC SWAP3 SWAP2 SWAP1 PUSH2 0x284A JUMP JUMPDEST POP POP POP PUSH1 0xA0 DUP3 ADD MLOAD DUP2 PUSH1 0x6 ADD SSTORE PUSH1 0xC0 DUP3 ADD MLOAD DUP2 PUSH1 0x7 ADD SSTORE PUSH1 0xE0 DUP3 ADD MLOAD DUP2 PUSH1 0x8 ADD SSTORE PUSH2 0x100 DUP3 ADD MLOAD DUP2 PUSH1 0x9 ADD PUSH1 0x0 PUSH2 0x100 EXP DUP2 SLOAD DUP2 PUSH1 0xFF MUL NOT AND SWAP1 DUP4 PUSH1 0x1 DUP2 GT ISZERO PUSH2 0x2149 JUMPI PUSH2 0x2148 PUSH2 0x36E8 JUMP JUMPDEST JUMPDEST MUL OR SWAP1 SSTORE POP POP POP PUSH1 0x40 DUP3 ADD MLOAD DUP2 PUSH1 0xB ADD PUSH1 0x0 DUP3 ADD MLOAD DUP2 PUSH1 0x0 ADD SSTORE PUSH1 0x20 DUP3 ADD MLOAD DUP2 PUSH1 0x1 ADD SSTORE POP POP PUSH1 0x60 DUP3 ADD MLOAD DUP2 PUSH1 0xD ADD SSTORE PUSH1 0x80 DUP3 ADD MLOAD DUP2 PUSH1 0xE ADD SSTORE PUSH1 0xA0 DUP3 ADD MLOAD DUP2 PUSH1 0xF ADD SSTORE PUSH1 0xC0 DUP3 ADD MLOAD DUP2 PUSH1 0x10 ADD PUSH1 0x0 PUSH2 0x100 EXP DUP2 SLOAD DUP2 PUSH1 0xFF MUL NOT AND SWAP1 DUP4 PUSH1 0x2 DUP2 GT ISZERO PUSH2 0x21B8 JUMPI PUSH2 0x21B7 PUSH2 0x36E8 JUMP JUMPDEST JUMPDEST MUL OR SWAP1 SSTORE POP POP POP PUSH1 0x4 SLOAD PUSH1 0x8 DUP1 SLOAD SWAP1 POP EQ SWAP4 POP POP POP POP SWAP4 SWAP3 POP POP POP JUMP JUMPDEST PUSH2 0x21FF PUSH32 0x52454E5445520000000000000000000000000000000000000000000000000000 CALLER PUSH2 0x2480 JUMP JUMPDEST JUMP JUMPDEST PUSH1 0x6 DUP2 DUP2 SLOAD DUP2 LT PUSH2 0x2211 JUMPI PUSH1 0x0 DUP1 REVERT JUMPDEST SWAP1 PUSH1 0x0 MSTORE PUSH1 0x20 PUSH1 0x0 KECCAK256 SWAP1 PUSH1 0xA MUL ADD PUSH1 0x0 SWAP2 POP SWAP1 POP DUP1 PUSH1 0x0 ADD SLOAD SWAP1 DUP1 PUSH1 0x1 ADD SLOAD SWAP1 DUP1 PUSH1 0x2 ADD SLOAD SWAP1 DUP1 PUSH1 0x3 ADD PUSH1 0x0 SWAP1 SLOAD SWAP1 PUSH2 0x100 EXP SWAP1 DIV PUSH1 0xFF AND SWAP1 DUP1 PUSH1 0x4 ADD PUSH1 0x40 MLOAD DUP1 PUSH1 0x40 ADD PUSH1 0x40 MSTORE SWAP1 DUP2 PUSH1 0x0 DUP3 ADD DUP1 SLOAD PUSH2 0x2269 SWAP1 PUSH2 0x360D JUMP JUMPDEST DUP1 PUSH1 0x1F ADD PUSH1 0x20 DUP1 SWAP2 DIV MUL PUSH1 0x20 ADD PUSH1 0x40 MLOAD SWAP1 DUP2 ADD PUSH1 0x40 MSTORE DUP1 SWAP3 SWAP2 SWAP1 DUP2 DUP2 MSTORE PUSH1 0x20 ADD DUP3 DUP1 SLOAD PUSH2 0x2295 SWAP1 PUSH2 0x360D JUMP JUMPDEST DUP1 ISZERO PUSH2 0x22E2 JUMPI DUP1 PUSH1 0x1F LT PUSH2 0x22B7 JUMPI PUSH2 0x100 DUP1 DUP4 SLOAD DIV MUL DUP4 MSTORE SWAP2 PUSH1 0x20 ADD SWAP2 PUSH2 0x22E2 JUMP JUMPDEST DUP3 ADD SWAP2 SWAP1 PUSH1 0x0 MSTORE PUSH1 0x20 PUSH1 0x0 KECCAK256 SWAP1 JUMPDEST DUP2 SLOAD DUP2 MSTORE SWAP1 PUSH1 0x1 ADD SWAP1 PUSH1 0x20 ADD DUP1 DUP4 GT PUSH2 0x22C5 JUMPI DUP3 SWAP1 SUB PUSH1 0x1F AND DUP3 ADD SWAP2 JUMPDEST POP POP POP POP POP DUP2 MSTORE PUSH1 0x20 ADD PUSH1 0x1 DUP3 ADD DUP1 SLOAD PUSH2 0x22FB SWAP1 PUSH2 0x360D JUMP JUMPDEST DUP1 PUSH1 0x1F ADD PUSH1 0x20 DUP1 SWAP2 DIV MUL PUSH1 0x20 ADD PUSH1 0x40 MLOAD SWAP1 DUP2 ADD PUSH1 0x40 MSTORE DUP1 SWAP3 SWAP2 SWAP1 DUP2 DUP2 MSTORE PUSH1 0x20 ADD DUP3 DUP1 SLOAD PUSH2 0x2327 SWAP1 PUSH2 0x360D JUMP JUMPDEST DUP1 ISZERO PUSH2 0x2374 JUMPI DUP1 PUSH1 0x1F LT PUSH2 0x2349 JUMPI PUSH2 0x100 DUP1 DUP4 SLOAD DIV MUL DUP4 MSTORE SWAP2 PUSH1 0x20 ADD SWAP2 PUSH2 0x2374 JUMP JUMPDEST DUP3 ADD SWAP2 SWAP1 PUSH1 0x0 MSTORE PUSH1 0x20 PUSH1 0x0 KECCAK256 SWAP1 JUMPDEST DUP2 SLOAD DUP2 MSTORE SWAP1 PUSH1 0x1 ADD SWAP1 PUSH1 0x20 ADD DUP1 DUP4 GT PUSH2 0x2357 JUMPI DUP3 SWAP1 SUB PUSH1 0x1F AND DUP3 ADD SWAP2 JUMPDEST POP POP POP POP POP DUP2 MSTORE POP POP SWAP1 DUP1 PUSH1 0x6 ADD SLOAD SWAP1 DUP1 PUSH1 0x7 ADD SLOAD SWAP1 DUP1 PUSH1 0x8 ADD SLOAD SWAP1 DUP1 PUSH1 0x9 ADD PUSH1 0x0 SWAP1 SLOAD SWAP1 PUSH2 0x100 EXP SWAP1 DIV PUSH1 0xFF AND SWAP1 POP DUP10 JUMP JUMPDEST PUSH32 0x52454E5445520000000000000000000000000000000000000000000000000000 DUP2 JUMP JUMPDEST PUSH1 0x0 PUSH2 0x23E7 PUSH1 0x0 DUP1 DUP5 DUP2 MSTORE PUSH1 0x20 ADD SWAP1 DUP2 MSTORE PUSH1 0x20 ADD PUSH1 0x0 KECCAK256 PUSH2 0x25EA JUMP JUMPDEST SWAP1 POP SWAP2 SWAP1 POP JUMP JUMPDEST DUP1 PUSH1 0x1 PUSH1 0x0 PUSH2 0x100 EXP DUP2 SLOAD DUP2 PUSH20 0xFFFFFFFFFFFFFFFFFFFFFFFFFFFFFFFFFFFFFFFF MUL NOT AND SWAP1 DUP4 PUSH20 0xFFFFFFFFFFFFFFFFFFFFFFFFFFFFFFFFFFFFFFFF AND MUL OR SWAP1 SSTORE POP PUSH2 0x2459 PUSH32 0x52454E5445520000000000000000000000000000000000000000000000000000 DUP3 PUSH2 0x2510 JUMP JUMPDEST POP JUMP JUMPDEST PUSH32 0x4F574E4552000000000000000000000000000000000000000000000000000000 DUP2 JUMP JUMPDEST PUSH2 0x24A4 DUP2 PUSH1 0x0 DUP1 DUP6 DUP2 MSTORE PUSH1 0x20 ADD SWAP1 DUP2 MSTORE PUSH1 0x20 ADD PUSH1 0x0 KECCAK256 PUSH2 0x25FF SWAP1 SWAP2 SWAP1 PUSH4 0xFFFFFFFF AND JUMP JUMPDEST ISZERO PUSH2 0x250C JUMPI PUSH2 0x24B1 PUSH2 0x262F JUMP JUMPDEST PUSH20 0xFFFFFFFFFFFFFFFFFFFFFFFFFFFFFFFFFFFFFFFF AND DUP2 PUSH20 0xFFFFFFFFFFFFFFFFFFFFFFFFFFFFFFFFFFFFFFFF AND DUP4 PUSH32 0xF6391F5C32D9C69D2A47EA670B442974B53935D1EDC7FD64EB21E047A839171B PUSH1 0x40 MLOAD PUSH1 0x40 MLOAD DUP1 SWAP2 SUB SWAP1 LOG4 JUMPDEST POP POP JUMP JUMPDEST PUSH2 0x2534 DUP2 PUSH1 0x0 DUP1 DUP6 DUP2 MSTORE PUSH1 0x20 ADD SWAP1 DUP2 MSTORE PUSH1 0x20 ADD PUSH1 0x0 KECCAK256 PUSH2 0x2637 SWAP1 SWAP2 SWAP1 PUSH4 0xFFFFFFFF AND JUMP JUMPDEST ISZERO PUSH2 0x259C JUMPI PUSH2 0x2541 PUSH2 0x262F JUMP JUMPDEST PUSH20 0xFFFFFFFFFFFFFFFFFFFFFFFFFFFFFFFFFFFFFFFF AND DUP2 PUSH20 0xFFFFFFFFFFFFFFFFFFFFFFFFFFFFFFFFFFFFFFFF AND DUP4 PUSH32 0x2F8788117E7EFF1D82E926EC794901D17C78024A50270940304540A733656F0D PUSH1 0x40 MLOAD PUSH1 0x40 MLOAD DUP1 SWAP2 SUB SWAP1 LOG4 JUMPDEST POP POP JUMP JUMPDEST PUSH1 0x0 PUSH2 0x25AF DUP4 PUSH1 0x0 ADD DUP4 PUSH2 0x2667 JUMP JUMPDEST PUSH1 0x0 SHR SWAP1 POP SWAP3 SWAP2 POP POP JUMP JUMPDEST PUSH1 0x0 PUSH2 0x25E2 DUP4 PUSH1 0x0 ADD DUP4 PUSH20 0xFFFFFFFFFFFFFFFFFFFFFFFFFFFFFFFFFFFFFFFF AND PUSH1 0x0 SHL PUSH2 0x2692 JUMP JUMPDEST SWAP1 POP SWAP3 SWAP2 POP POP JUMP JUMPDEST PUSH1 0x0 PUSH2 0x25F8 DUP3 PUSH1 0x0 ADD PUSH2 0x26B5 JUMP JUMPDEST SWAP1 POP SWAP2 SWAP1 POP JUMP JUMPDEST PUSH1 0x0 PUSH2 0x2627 DUP4 PUSH1 0x0 ADD DUP4 PUSH20 0xFFFFFFFFFFFFFFFFFFFFFFFFFFFFFFFFFFFFFFFF AND PUSH1 0x0 SHL PUSH2 0x26C6 JUMP JUMPDEST SWAP1 POP SWAP3 SWAP2 POP POP JUMP JUMPDEST PUSH1 0x0 CALLER SWAP1 POP SWAP1 JUMP JUMPDEST PUSH1 0x0 PUSH2 0x265F DUP4 PUSH1 0x0 ADD DUP4 PUSH20 0xFFFFFFFFFFFFFFFFFFFFFFFFFFFFFFFFFFFFFFFF AND PUSH1 0x0 SHL PUSH2 0x27DA JUMP JUMPDEST SWAP1 POP SWAP3 SWAP2 POP POP JUMP JUMPDEST PUSH1 0x0 DUP3 PUSH1 0x0 ADD DUP3 DUP2 SLOAD DUP2 LT PUSH2 0x267F JUMPI PUSH2 0x267E PUSH2 0x3775 JUMP JUMPDEST JUMPDEST SWAP1 PUSH1 0x0 MSTORE PUSH1 0x20 PUSH1 0x0 KECCAK256 ADD SLOAD SWAP1 POP SWAP3 SWAP2 POP POP JUMP JUMPDEST PUSH1 0x0 DUP1 DUP4 PUSH1 0x1 ADD PUSH1 0x0 DUP5 DUP2 MSTORE PUSH1 0x20 ADD SWAP1 DUP2 MSTORE PUSH1 0x20 ADD PUSH1 0x0 KECCAK256 SLOAD EQ ISZERO SWAP1 POP SWAP3 SWAP2 POP POP JUMP JUMPDEST PUSH1 0x0 DUP2 PUSH1 0x0 ADD DUP1 SLOAD SWAP1 POP SWAP1 POP SWAP2 SWAP1 POP JUMP JUMPDEST PUSH1 0x0 DUP1 DUP4 PUSH1 0x1 ADD PUSH1 0x0 DUP5 DUP2 MSTORE PUSH1 0x20 ADD SWAP1 DUP2 MSTORE PUSH1 0x20 ADD PUSH1 0x0 KECCAK256 SLOAD SWAP1 POP PUSH1 0x0 DUP2 EQ PUSH2 0x27CE JUMPI PUSH1 0x0 PUSH1 0x1 DUP3 PUSH2 0x26F8 SWAP2 SWAP1 PUSH2 0x34D6 JUMP JUMPDEST SWAP1 POP PUSH1 0x0 PUSH1 0x1 DUP7 PUSH1 0x0 ADD DUP1 SLOAD SWAP1 POP PUSH2 0x2710 SWAP2 SWAP1 PUSH2 0x34D6 JUMP JUMPDEST SWAP1 POP DUP2 DUP2 EQ PUSH2 0x277F JUMPI PUSH1 0x0 DUP7 PUSH1 0x0 ADD DUP3 DUP2 SLOAD DUP2 LT PUSH2 0x2731 JUMPI PUSH2 0x2730 PUSH2 0x3775 JUMP JUMPDEST JUMPDEST SWAP1 PUSH1 0x0 MSTORE PUSH1 0x20 PUSH1 0x0 KECCAK256 ADD SLOAD SWAP1 POP DUP1 DUP8 PUSH1 0x0 ADD DUP5 DUP2 SLOAD DUP2 LT PUSH2 0x2755 JUMPI PUSH2 0x2754 PUSH2 0x3775 JUMP JUMPDEST JUMPDEST SWAP1 PUSH1 0x0 MSTORE PUSH1 0x20 PUSH1 0x0 KECCAK256 ADD DUP2 SWAP1 SSTORE POP DUP4 DUP8 PUSH1 0x1 ADD PUSH1 0x0 DUP4 DUP2 MSTORE PUSH1 0x20 ADD SWAP1 DUP2 MSTORE PUSH1 0x20 ADD PUSH1 0x0 KECCAK256 DUP2 SWAP1 SSTORE POP POP JUMPDEST DUP6 PUSH1 0x0 ADD DUP1 SLOAD DUP1 PUSH2 0x2793 JUMPI PUSH2 0x2792 PUSH2 0x3746 JUMP JUMPDEST JUMPDEST PUSH1 0x1 SWAP1 SUB DUP2 DUP2 SWAP1 PUSH1 0x0 MSTORE PUSH1 0x20 PUSH1 0x0 KECCAK256 ADD PUSH1 0x0 SWAP1 SSTORE SWAP1 SSTORE DUP6 PUSH1 0x1 ADD PUSH1 0x0 DUP7 DUP2 MSTORE PUSH1 0x20 ADD SWAP1 DUP2 MSTORE PUSH1 0x20 ADD PUSH1 0x0 KECCAK256 PUSH1 0x0 SWAP1 SSTORE PUSH1 0x1 SWAP4 POP POP POP POP PUSH2 0x27D4 JUMP JUMPDEST PUSH1 0x0 SWAP2 POP POP JUMPDEST SWAP3 SWAP2 POP POP JUMP JUMPDEST PUSH1 0x0 PUSH2 0x27E6 DUP4 DUP4 PUSH2 0x2692 JUMP JUMPDEST PUSH2 0x283F JUMPI DUP3 PUSH1 0x0 ADD DUP3 SWAP1 DUP1 PUSH1 0x1 DUP2 SLOAD ADD DUP1 DUP3 SSTORE DUP1 SWAP2 POP POP PUSH1 0x1 SWAP1 SUB SWAP1 PUSH1 0x0 MSTORE PUSH1 0x20 PUSH1 0x0 KECCAK256 ADD PUSH1 0x0 SWAP1 SWAP2 SWAP1 SWAP2 SWAP1 SWAP2 POP SSTORE DUP3 PUSH1 0x0 ADD DUP1 SLOAD SWAP1 POP DUP4 PUSH1 0x1 ADD PUSH1 0x0 DUP5 DUP2 MSTORE PUSH1 0x20 ADD SWAP1 DUP2 MSTORE PUSH1 0x20 ADD PUSH1 0x0 KECCAK256 DUP2 SWAP1 SSTORE POP PUSH1 0x1 SWAP1 POP PUSH2 0x2844 JUMP JUMPDEST PUSH1 0x0 SWAP1 POP JUMPDEST SWAP3 SWAP2 POP POP JUMP JUMPDEST DUP3 DUP1 SLOAD PUSH2 0x2856 SWAP1 PUSH2 0x360D JUMP JUMPDEST SWAP1 PUSH1 0x0 MSTORE PUSH1 0x20 PUSH1 0x0 KECCAK256 SWAP1 PUSH1 0x1F ADD PUSH1 0x20 SWAP1 DIV DUP2 ADD SWAP3 DUP3 PUSH2 0x2878 JUMPI PUSH1 0x0 DUP6 SSTORE PUSH2 0x28BF JUMP JUMPDEST DUP3 PUSH1 0x1F LT PUSH2 0x2891 JUMPI DUP1 MLOAD PUSH1 0xFF NOT AND DUP4 DUP1 ADD OR DUP6 SSTORE PUSH2 0x28BF JUMP JUMPDEST DUP3 DUP1 ADD PUSH1 0x1 ADD DUP6 SSTORE DUP3 ISZERO PUSH2 0x28BF JUMPI SWAP2 DUP3 ADD JUMPDEST DUP3 DUP2 GT ISZERO PUSH2 0x28BE JUMPI DUP3 MLOAD DUP3 SSTORE SWAP2 PUSH1 0x20 ADD SWAP2 SWAP1 PUSH1 0x1 ADD SWAP1 PUSH2 0x28A3 JUMP JUMPDEST JUMPDEST POP SWAP1 POP PUSH2 0x28CC SWAP2 SWAP1 PUSH2 0x28D0 JUMP JUMPDEST POP SWAP1 JUMP JUMPDEST JUMPDEST DUP1 DUP3 GT ISZERO PUSH2 0x28E9 JUMPI PUSH1 0x0 DUP2 PUSH1 0x0 SWAP1 SSTORE POP PUSH1 0x1 ADD PUSH2 0x28D1 JUMP JUMPDEST POP SWAP1 JUMP JUMPDEST PUSH1 0x0 PUSH2 0x2900 PUSH2 0x28FB DUP5 PUSH2 0x33BD JUMP JUMPDEST PUSH2 0x3398 JUMP JUMPDEST SWAP1 POP DUP3 DUP2 MSTORE PUSH1 0x20 DUP2 ADD DUP5 DUP5 DUP5 ADD GT ISZERO PUSH2 0x291C JUMPI PUSH2 0x291B PUSH2 0x37E2 JUMP JUMPDEST JUMPDEST PUSH2 0x2927 DUP5 DUP3 DUP6 PUSH2 0x35CB JUMP JUMPDEST POP SWAP4 SWAP3 POP POP POP JUMP JUMPDEST PUSH1 0x0 DUP2 CALLDATALOAD SWAP1 POP PUSH2 0x293E DUP2 PUSH2 0x3A96 JUMP JUMPDEST SWAP3 SWAP2 POP POP JUMP JUMPDEST PUSH1 0x0 DUP2 CALLDATALOAD SWAP1 POP PUSH2 0x2953 DUP2 PUSH2 0x3AAD JUMP JUMPDEST SWAP3 SWAP2 POP POP JUMP JUMPDEST PUSH1 0x0 DUP3 PUSH1 0x1F DUP4 ADD SLT PUSH2 0x296E JUMPI PUSH2 0x296D PUSH2 0x37D3 JUMP JUMPDEST JUMPDEST DUP2 CALLDATALOAD PUSH2 0x297E DUP5 DUP3 PUSH1 0x20 DUP7 ADD PUSH2 0x28ED JUMP JUMPDEST SWAP2 POP POP SWAP3 SWAP2 POP POP JUMP JUMPDEST PUSH1 0x0 DUP2 CALLDATALOAD SWAP1 POP PUSH2 0x2996 DUP2 PUSH2 0x3AC4 JUMP JUMPDEST SWAP3 SWAP2 POP POP JUMP JUMPDEST PUSH1 0x0 PUSH1 0x40 DUP3 DUP5 SUB SLT ISZERO PUSH2 0x29B2 JUMPI PUSH2 0x29B1 PUSH2 0x37D8 JUMP JUMPDEST JUMPDEST PUSH2 0x29BC PUSH1 0x40 PUSH2 0x3398 JUMP JUMPDEST SWAP1 POP PUSH1 0x0 DUP3 ADD CALLDATALOAD PUSH8 0xFFFFFFFFFFFFFFFF DUP2 GT ISZERO PUSH2 0x29DC JUMPI PUSH2 0x29DB PUSH2 0x37DD JUMP JUMPDEST JUMPDEST PUSH2 0x29E8 DUP5 DUP3 DUP6 ADD PUSH2 0x2959 JUMP JUMPDEST PUSH1 0x0 DUP4 ADD MSTORE POP PUSH1 0x20 DUP3 ADD CALLDATALOAD PUSH8 0xFFFFFFFFFFFFFFFF DUP2 GT ISZERO PUSH2 0x2A0C JUMPI PUSH2 0x2A0B PUSH2 0x37DD JUMP JUMPDEST JUMPDEST PUSH2 0x2A18 DUP5 DUP3 DUP6 ADD PUSH2 0x2959 JUMP JUMPDEST PUSH1 0x20 DUP4 ADD MSTORE POP SWAP3 SWAP2 POP POP JUMP JUMPDEST PUSH1 0x0 PUSH1 0x40 DUP3 DUP5 SUB SLT ISZERO PUSH2 0x2A3A JUMPI PUSH2 0x2A39 PUSH2 0x37D8 JUMP JUMPDEST JUMPDEST PUSH2 0x2A44 PUSH1 0x40 PUSH2 0x3398 JUMP JUMPDEST SWAP1 POP PUSH1 0x0 PUSH2 0x2A54 DUP5 DUP3 DUP6 ADD PUSH2 0x2944 JUMP JUMPDEST PUSH1 0x0 DUP4 ADD MSTORE POP PUSH1 0x20 PUSH2 0x2A68 DUP5 DUP3 DUP6 ADD PUSH2 0x2944 JUMP JUMPDEST PUSH1 0x20 DUP4 ADD MSTORE POP SWAP3 SWAP2 POP POP JUMP JUMPDEST PUSH1 0x0 DUP2 CALLDATALOAD SWAP1 POP PUSH2 0x2A83 DUP2 PUSH2 0x3AD4 JUMP JUMPDEST SWAP3 SWAP2 POP POP JUMP JUMPDEST PUSH1 0x0 PUSH1 0x20 DUP3 DUP5 SUB SLT ISZERO PUSH2 0x2A9F JUMPI PUSH2 0x2A9E PUSH2 0x37EC JUMP JUMPDEST JUMPDEST PUSH1 0x0 PUSH2 0x2AAD DUP5 DUP3 DUP6 ADD PUSH2 0x292F JUMP JUMPDEST SWAP2 POP POP SWAP3 SWAP2 POP POP JUMP JUMPDEST PUSH1 0x0 PUSH1 0x20 DUP3 DUP5 SUB SLT ISZERO PUSH2 0x2ACC JUMPI PUSH2 0x2ACB PUSH2 0x37EC JUMP JUMPDEST JUMPDEST PUSH1 0x0 PUSH2 0x2ADA DUP5 DUP3 DUP6 ADD PUSH2 0x2944 JUMP JUMPDEST SWAP2 POP POP SWAP3 SWAP2 POP POP JUMP JUMPDEST PUSH1 0x0 DUP1 PUSH1 0x40 DUP4 DUP6 SUB SLT ISZERO PUSH2 0x2AFA JUMPI PUSH2 0x2AF9 PUSH2 0x37EC JUMP JUMPDEST JUMPDEST PUSH1 0x0 PUSH2 0x2B08 DUP6 DUP3 DUP7 ADD PUSH2 0x2944 JUMP JUMPDEST SWAP3 POP POP PUSH1 0x20 PUSH2 0x2B19 DUP6 DUP3 DUP7 ADD PUSH2 0x292F JUMP JUMPDEST SWAP2 POP POP SWAP3 POP SWAP3 SWAP1 POP JUMP JUMPDEST PUSH1 0x0 DUP1 PUSH1 0x0 DUP1 PUSH1 0x0 DUP1 PUSH1 0x0 PUSH1 0xE0 DUP9 DUP11 SUB SLT ISZERO PUSH2 0x2B42 JUMPI PUSH2 0x2B41 PUSH2 0x37EC JUMP JUMPDEST JUMPDEST PUSH1 0x0 PUSH2 0x2B50 DUP11 DUP3 DUP12 ADD PUSH2 0x2944 JUMP JUMPDEST SWAP8 POP POP PUSH1 0x20 PUSH2 0x2B61 DUP11 DUP3 DUP12 ADD PUSH2 0x2944 JUMP JUMPDEST SWAP7 POP POP PUSH1 0x40 PUSH2 0x2B72 DUP11 DUP3 DUP12 ADD PUSH2 0x2987 JUMP JUMPDEST SWAP6 POP POP PUSH1 0x60 DUP9 ADD CALLDATALOAD PUSH8 0xFFFFFFFFFFFFFFFF DUP2 GT ISZERO PUSH2 0x2B93 JUMPI PUSH2 0x2B92 PUSH2 0x37E7 JUMP JUMPDEST JUMPDEST PUSH2 0x2B9F DUP11 DUP3 DUP12 ADD PUSH2 0x299C JUMP JUMPDEST SWAP5 POP POP PUSH1 0x80 PUSH2 0x2BB0 DUP11 DUP3 DUP12 ADD PUSH2 0x2A74 JUMP JUMPDEST SWAP4 POP POP PUSH1 0xA0 PUSH2 0x2BC1 DUP11 DUP3 DUP12 ADD PUSH2 0x2944 JUMP JUMPDEST SWAP3 POP POP PUSH1 0xC0 PUSH2 0x2BD2 DUP11 DUP3 DUP12 ADD PUSH2 0x2A74 JUMP JUMPDEST SWAP2 POP POP SWAP3 SWAP6 SWAP9 SWAP2 SWAP5 SWAP8 POP SWAP3 SWAP6 POP JUMP JUMPDEST PUSH1 0x0 DUP1 PUSH1 0x40 DUP4 DUP6 SUB SLT ISZERO PUSH2 0x2BF8 JUMPI PUSH2 0x2BF7 PUSH2 0x37EC JUMP JUMPDEST JUMPDEST PUSH1 0x0 PUSH2 0x2C06 DUP6 DUP3 DUP7 ADD PUSH2 0x2944 JUMP JUMPDEST SWAP3 POP POP PUSH1 0x20 PUSH2 0x2C17 DUP6 DUP3 DUP7 ADD PUSH2 0x2A74 JUMP JUMPDEST SWAP2 POP POP SWAP3 POP SWAP3 SWAP1 POP JUMP JUMPDEST PUSH1 0x0 PUSH1 0x20 DUP3 DUP5 SUB SLT ISZERO PUSH2 0x2C37 JUMPI PUSH2 0x2C36 PUSH2 0x37EC JUMP JUMPDEST JUMPDEST PUSH1 0x0 PUSH2 0x2C45 DUP5 DUP3 DUP6 ADD PUSH2 0x2A74 JUMP JUMPDEST SWAP2 POP POP SWAP3 SWAP2 POP POP JUMP JUMPDEST PUSH1 0x0 DUP1 PUSH1 0x0 PUSH1 0x80 DUP5 DUP7 SUB SLT ISZERO PUSH2 0x2C67 JUMPI PUSH2 0x2C66 PUSH2 0x37EC JUMP JUMPDEST JUMPDEST PUSH1 0x0 PUSH2 0x2C75 DUP7 DUP3 DUP8 ADD PUSH2 0x2A74 JUMP JUMPDEST SWAP4 POP POP PUSH1 0x20 PUSH2 0x2C86 DUP7 DUP3 DUP8 ADD PUSH2 0x2A24 JUMP JUMPDEST SWAP3 POP POP PUSH1 0x60 PUSH2 0x2C97 DUP7 DUP3 DUP8 ADD PUSH2 0x2A74 JUMP JUMPDEST SWAP2 POP POP SWAP3 POP SWAP3 POP SWAP3 JUMP JUMPDEST PUSH1 0x0 DUP1 PUSH1 0x40 DUP4 DUP6 SUB SLT ISZERO PUSH2 0x2CB8 JUMPI PUSH2 0x2CB7 PUSH2 0x37EC JUMP JUMPDEST JUMPDEST PUSH1 0x0 PUSH2 0x2CC6 DUP6 DUP3 DUP7 ADD PUSH2 0x2A74 JUMP JUMPDEST SWAP3 POP POP PUSH1 0x20 PUSH2 0x2CD7 DUP6 DUP3 DUP7 ADD PUSH2 0x2A74 JUMP JUMPDEST SWAP2 POP POP SWAP3 POP SWAP3 SWAP1 POP JUMP JUMPDEST PUSH1 0x0 DUP1 PUSH1 0x0 PUSH1 0x60 DUP5 DUP7 SUB SLT ISZERO PUSH2 0x2CFA JUMPI PUSH2 0x2CF9 PUSH2 0x37EC JUMP JUMPDEST JUMPDEST PUSH1 0x0 PUSH2 0x2D08 DUP7 DUP3 DUP8 ADD PUSH2 0x2A74 JUMP JUMPDEST SWAP4 POP POP PUSH1 0x20 PUSH2 0x2D19 DUP7 DUP3 DUP8 ADD PUSH2 0x2A74 JUMP JUMPDEST SWAP3 POP POP PUSH1 0x40 PUSH2 0x2D2A DUP7 DUP3 DUP8 ADD PUSH2 0x2A74 JUMP JUMPDEST SWAP2 POP POP SWAP3 POP SWAP3 POP SWAP3 JUMP JUMPDEST PUSH2 0x2D3D DUP2 PUSH2 0x350A JUMP JUMPDEST DUP3 MSTORE POP POP JUMP JUMPDEST PUSH2 0x2D4C DUP2 PUSH2 0x351C JUMP JUMPDEST DUP3 MSTORE POP POP JUMP JUMPDEST PUSH2 0x2D5B DUP2 PUSH2 0x3528 JUMP JUMPDEST DUP3 MSTORE POP POP JUMP JUMPDEST PUSH2 0x2D6A DUP2 PUSH2 0x3528 JUMP JUMPDEST DUP3 MSTORE POP POP JUMP JUMPDEST PUSH1 0x0 PUSH2 0x2D7B DUP3 PUSH2 0x33EE JUMP JUMPDEST PUSH2 0x2D85 DUP2 DUP6 PUSH2 0x33F9 JUMP JUMPDEST SWAP4 POP PUSH2 0x2D95 DUP2 DUP6 PUSH1 0x20 DUP7 ADD PUSH2 0x35DA JUMP JUMPDEST PUSH2 0x2D9E DUP2 PUSH2 0x37F1 JUMP JUMPDEST DUP5 ADD SWAP2 POP POP SWAP3 SWAP2 POP POP JUMP JUMPDEST PUSH2 0x2DB2 DUP2 PUSH2 0x3595 JUMP JUMPDEST DUP3 MSTORE POP POP JUMP JUMPDEST PUSH2 0x2DC1 DUP2 PUSH2 0x35A7 JUMP JUMPDEST DUP3 MSTORE POP POP JUMP JUMPDEST PUSH2 0x2DD0 DUP2 PUSH2 0x35A7 JUMP JUMPDEST DUP3 MSTORE POP POP JUMP JUMPDEST PUSH2 0x2DDF DUP2 PUSH2 0x35B9 JUMP JUMPDEST DUP3 MSTORE POP POP JUMP JUMPDEST PUSH2 0x2DEE DUP2 PUSH2 0x35B9 JUMP JUMPDEST DUP3 MSTORE POP POP JUMP JUMPDEST PUSH1 0x0 PUSH2 0x2E01 PUSH1 0x2E DUP4 PUSH2 0x3415 JUMP JUMPDEST SWAP2 POP PUSH2 0x2E0C DUP3 PUSH2 0x3802 JUMP JUMPDEST PUSH1 0x40 DUP3 ADD SWAP1 POP SWAP2 SWAP1 POP JUMP JUMPDEST PUSH1 0x0 PUSH2 0x2E24 PUSH1 0x2D DUP4 PUSH2 0x3415 JUMP JUMPDEST SWAP2 POP PUSH2 0x2E2F DUP3 PUSH2 0x3851 JUMP JUMPDEST PUSH1 0x40 DUP3 ADD SWAP1 POP SWAP2 SWAP1 POP JUMP JUMPDEST PUSH1 0x0 PUSH2 0x2E47 PUSH1 0x40 DUP4 PUSH2 0x3415 JUMP JUMPDEST SWAP2 POP PUSH2 0x2E52 DUP3 PUSH2 0x38A0 JUMP JUMPDEST PUSH1 0x40 DUP3 ADD SWAP1 POP SWAP2 SWAP1 POP JUMP JUMPDEST PUSH1 0x0 PUSH2 0x2E6A PUSH1 0x15 DUP4 PUSH2 0x3415 JUMP JUMPDEST SWAP2 POP PUSH2 0x2E75 DUP3 PUSH2 0x38EF JUMP JUMPDEST PUSH1 0x20 DUP3 ADD SWAP1 POP SWAP2 SWAP1 POP JUMP JUMPDEST PUSH1 0x0 PUSH2 0x2E8D PUSH1 0x14 DUP4 PUSH2 0x3415 JUMP JUMPDEST SWAP2 POP PUSH2 0x2E98 DUP3 PUSH2 0x3918 JUMP JUMPDEST PUSH1 0x20 DUP3 ADD SWAP1 POP SWAP2 SWAP1 POP JUMP JUMPDEST PUSH1 0x0 PUSH2 0x2EB0 PUSH1 0x30 DUP4 PUSH2 0x3415 JUMP JUMPDEST SWAP2 POP PUSH2 0x2EBB DUP3 PUSH2 0x3941 JUMP JUMPDEST PUSH1 0x40 DUP3 ADD SWAP1 POP SWAP2 SWAP1 POP JUMP JUMPDEST PUSH1 0x0 PUSH2 0x2ED3 PUSH1 0x3E DUP4 PUSH2 0x3415 JUMP JUMPDEST SWAP2 POP PUSH2 0x2EDE DUP3 PUSH2 0x3990 JUMP JUMPDEST PUSH1 0x40 DUP3 ADD SWAP1 POP SWAP2 SWAP1 POP JUMP JUMPDEST PUSH1 0x0 PUSH2 0x2EF6 PUSH1 0x0 DUP4 PUSH2 0x340A JUMP JUMPDEST SWAP2 POP PUSH2 0x2F01 DUP3 PUSH2 0x39DF JUMP JUMPDEST PUSH1 0x0 DUP3 ADD SWAP1 POP SWAP2 SWAP1 POP JUMP JUMPDEST PUSH1 0x0 PUSH2 0x2F19 PUSH1 0x16 DUP4 PUSH2 0x3415 JUMP JUMPDEST SWAP2 POP PUSH2 0x2F24 DUP3 PUSH2 0x39E2 JUMP JUMPDEST PUSH1 0x20 DUP3 ADD SWAP1 POP SWAP2 SWAP1 POP JUMP JUMPDEST PUSH1 0x0 PUSH2 0x2F3C PUSH1 0x3D DUP4 PUSH2 0x3415 JUMP JUMPDEST SWAP2 POP PUSH2 0x2F47 DUP3 PUSH2 0x3A0B JUMP JUMPDEST PUSH1 0x40 DUP3 ADD SWAP1 POP SWAP2 SWAP1 POP JUMP JUMPDEST PUSH1 0x0 PUSH1 0x40 DUP4 ADD PUSH1 0x0 DUP4 ADD MLOAD DUP5 DUP3 SUB PUSH1 0x0 DUP7 ADD MSTORE PUSH2 0x2F6F DUP3 DUP3 PUSH2 0x2D70 JUMP JUMPDEST SWAP2 POP POP PUSH1 0x20 DUP4 ADD MLOAD DUP5 DUP3 SUB PUSH1 0x20 DUP7 ADD MSTORE PUSH2 0x2F89 DUP3 DUP3 PUSH2 0x2D70 JUMP JUMPDEST SWAP2 POP POP DUP1 SWAP2 POP POP SWAP3 SWAP2 POP POP JUMP JUMPDEST PUSH1 0x0 PUSH1 0x40 DUP4 ADD PUSH1 0x0 DUP4 ADD MLOAD DUP5 DUP3 SUB PUSH1 0x0 DUP7 ADD MSTORE PUSH2 0x2FB3 DUP3 DUP3 PUSH2 0x2D70 JUMP JUMPDEST SWAP2 POP POP PUSH1 0x20 DUP4 ADD MLOAD DUP5 DUP3 SUB PUSH1 0x20 DUP7 ADD MSTORE PUSH2 0x2FCD DUP3 DUP3 PUSH2 0x2D70 JUMP JUMPDEST SWAP2 POP POP DUP1 SWAP2 POP POP SWAP3 SWAP2 POP POP JUMP JUMPDEST PUSH1 0x40 DUP3 ADD PUSH1 0x0 DUP3 ADD MLOAD PUSH2 0x2FF0 PUSH1 0x0 DUP6 ADD DUP3 PUSH2 0x2D52 JUMP JUMPDEST POP PUSH1 0x20 DUP3 ADD MLOAD PUSH2 0x3003 PUSH1 0x20 DUP6 ADD DUP3 PUSH2 0x2D52 JUMP JUMPDEST POP POP POP POP JUMP JUMPDEST PUSH1 0x0 PUSH2 0x120 DUP4 ADD PUSH1 0x0 DUP4 ADD MLOAD PUSH2 0x3022 PUSH1 0x0 DUP7 ADD DUP3 PUSH2 0x30CE JUMP JUMPDEST POP PUSH1 0x20 DUP4 ADD MLOAD PUSH2 0x3035 PUSH1 0x20 DUP7 ADD DUP3 PUSH2 0x2D52 JUMP JUMPDEST POP PUSH1 0x40 DUP4 ADD MLOAD PUSH2 0x3048 PUSH1 0x40 DUP7 ADD DUP3 PUSH2 0x2D52 JUMP JUMPDEST POP PUSH1 0x60 DUP4 ADD MLOAD PUSH2 0x305B PUSH1 0x60 DUP7 ADD DUP3 PUSH2 0x2DD6 JUMP JUMPDEST POP PUSH1 0x80 DUP4 ADD MLOAD DUP5 DUP3 SUB PUSH1 0x80 DUP7 ADD MSTORE PUSH2 0x3073 DUP3 DUP3 PUSH2 0x2F52 JUMP JUMPDEST SWAP2 POP POP PUSH1 0xA0 DUP4 ADD MLOAD PUSH2 0x3088 PUSH1 0xA0 DUP7 ADD DUP3 PUSH2 0x30CE JUMP JUMPDEST POP PUSH1 0xC0 DUP4 ADD MLOAD PUSH2 0x309B PUSH1 0xC0 DUP7 ADD DUP3 PUSH2 0x2D52 JUMP JUMPDEST POP PUSH1 0xE0 DUP4 ADD MLOAD PUSH2 0x30AE PUSH1 0xE0 DUP7 ADD DUP3 PUSH2 0x30CE JUMP JUMPDEST POP PUSH2 0x100 DUP4 ADD MLOAD PUSH2 0x30C3 PUSH2 0x100 DUP7 ADD DUP3 PUSH2 0x2DB8 JUMP JUMPDEST POP DUP1 SWAP2 POP POP SWAP3 SWAP2 POP POP JUMP JUMPDEST PUSH2 0x30D7 DUP2 PUSH2 0x358B JUMP JUMPDEST DUP3 MSTORE POP POP JUMP JUMPDEST PUSH2 0x30E6 DUP2 PUSH2 0x358B JUMP JUMPDEST DUP3 MSTORE POP POP JUMP JUMPDEST PUSH1 0x0 PUSH2 0x30F7 DUP3 PUSH2 0x2EE9 JUMP JUMPDEST SWAP2 POP DUP2 SWAP1 POP SWAP2 SWAP1 POP JUMP JUMPDEST PUSH1 0x0 PUSH1 0x20 DUP3 ADD SWAP1 POP PUSH2 0x3116 PUSH1 0x0 DUP4 ADD DUP5 PUSH2 0x2D34 JUMP JUMPDEST SWAP3 SWAP2 POP POP JUMP JUMPDEST PUSH1 0x0 PUSH2 0x100 DUP3 ADD SWAP1 POP PUSH2 0x3132 PUSH1 0x0 DUP4 ADD DUP11 PUSH2 0x2D34 JUMP JUMPDEST DUP2 DUP2 SUB PUSH1 0x20 DUP4 ADD MSTORE PUSH2 0x3144 DUP2 DUP10 PUSH2 0x3009 JUMP JUMPDEST SWAP1 POP PUSH2 0x3153 PUSH1 0x40 DUP4 ADD DUP9 PUSH2 0x2FDA JUMP JUMPDEST PUSH2 0x3160 PUSH1 0x80 DUP4 ADD DUP8 PUSH2 0x30DD JUMP JUMPDEST PUSH2 0x316D PUSH1 0xA0 DUP4 ADD DUP7 PUSH2 0x30DD JUMP JUMPDEST PUSH2 0x317A PUSH1 0xC0 DUP4 ADD DUP6 PUSH2 0x30DD JUMP JUMPDEST PUSH2 0x3187 PUSH1 0xE0 DUP4 ADD DUP5 PUSH2 0x2DA9 JUMP JUMPDEST SWAP9 SWAP8 POP POP POP POP POP POP POP POP JUMP JUMPDEST PUSH1 0x0 PUSH1 0x20 DUP3 ADD SWAP1 POP PUSH2 0x31A8 PUSH1 0x0 DUP4 ADD DUP5 PUSH2 0x2D43 JUMP JUMPDEST SWAP3 SWAP2 POP POP JUMP JUMPDEST PUSH1 0x0 PUSH1 0x20 DUP3 ADD SWAP1 POP PUSH2 0x31C3 PUSH1 0x0 DUP4 ADD DUP5 PUSH2 0x2D61 JUMP JUMPDEST SWAP3 SWAP2 POP POP JUMP JUMPDEST PUSH1 0x0 PUSH1 0x20 DUP3 ADD SWAP1 POP DUP2 DUP2 SUB PUSH1 0x0 DUP4 ADD MSTORE PUSH2 0x31E2 DUP2 PUSH2 0x2DF4 JUMP JUMPDEST SWAP1 POP SWAP2 SWAP1 POP JUMP JUMPDEST PUSH1 0x0 PUSH1 0x20 DUP3 ADD SWAP1 POP DUP2 DUP2 SUB PUSH1 0x0 DUP4 ADD MSTORE PUSH2 0x3202 DUP2 PUSH2 0x2E17 JUMP JUMPDEST SWAP1 POP SWAP2 SWAP1 POP JUMP JUMPDEST PUSH1 0x0 PUSH1 0x20 DUP3 ADD SWAP1 POP DUP2 DUP2 SUB PUSH1 0x0 DUP4 ADD MSTORE PUSH2 0x3222 DUP2 PUSH2 0x2E3A JUMP JUMPDEST SWAP1 POP SWAP2 SWAP1 POP JUMP JUMPDEST PUSH1 0x0 PUSH1 0x20 DUP3 ADD SWAP1 POP DUP2 DUP2 SUB PUSH1 0x0 DUP4 ADD MSTORE PUSH2 0x3242 DUP2 PUSH2 0x2E5D JUMP JUMPDEST SWAP1 POP SWAP2 SWAP1 POP JUMP JUMPDEST PUSH1 0x0 PUSH1 0x20 DUP3 ADD SWAP1 POP DUP2 DUP2 SUB PUSH1 0x0 DUP4 ADD MSTORE PUSH2 0x3262 DUP2 PUSH2 0x2E80 JUMP JUMPDEST SWAP1 POP SWAP2 SWAP1 POP JUMP JUMPDEST PUSH1 0x0 PUSH1 0x20 DUP3 ADD SWAP1 POP DUP2 DUP2 SUB PUSH1 0x0 DUP4 ADD MSTORE PUSH2 0x3282 DUP2 PUSH2 0x2EA3 JUMP JUMPDEST SWAP1 POP SWAP2 SWAP1 POP JUMP JUMPDEST PUSH1 0x0 PUSH1 0x20 DUP3 ADD SWAP1 POP DUP2 DUP2 SUB PUSH1 0x0 DUP4 ADD MSTORE PUSH2 0x32A2 DUP2 PUSH2 0x2EC6 JUMP JUMPDEST SWAP1 POP SWAP2 SWAP1 POP JUMP JUMPDEST PUSH1 0x0 PUSH1 0x20 DUP3 ADD SWAP1 POP DUP2 DUP2 SUB PUSH1 0x0 DUP4 ADD MSTORE PUSH2 0x32C2 DUP2 PUSH2 0x2F0C JUMP JUMPDEST SWAP1 POP SWAP2 SWAP1 POP JUMP JUMPDEST PUSH1 0x0 PUSH1 0x20 DUP3 ADD SWAP1 POP DUP2 DUP2 SUB PUSH1 0x0 DUP4 ADD MSTORE PUSH2 0x32E2 DUP2 PUSH2 0x2F2F JUMP JUMPDEST SWAP1 POP SWAP2 SWAP1 POP JUMP JUMPDEST PUSH1 0x0 PUSH1 0x20 DUP3 ADD SWAP1 POP PUSH2 0x32FE PUSH1 0x0 DUP4 ADD DUP5 PUSH2 0x30DD JUMP JUMPDEST SWAP3 SWAP2 POP POP JUMP JUMPDEST PUSH1 0x0 PUSH2 0x120 DUP3 ADD SWAP1 POP PUSH2 0x331A PUSH1 0x0 DUP4 ADD DUP13 PUSH2 0x30DD JUMP JUMPDEST PUSH2 0x3327 PUSH1 0x20 DUP4 ADD DUP12 PUSH2 0x2D61 JUMP JUMPDEST PUSH2 0x3334 PUSH1 0x40 DUP4 ADD DUP11 PUSH2 0x2D61 JUMP JUMPDEST PUSH2 0x3341 PUSH1 0x60 DUP4 ADD DUP10 PUSH2 0x2DE5 JUMP JUMPDEST DUP2 DUP2 SUB PUSH1 0x80 DUP4 ADD MSTORE PUSH2 0x3353 DUP2 DUP9 PUSH2 0x2F96 JUMP JUMPDEST SWAP1 POP PUSH2 0x3362 PUSH1 0xA0 DUP4 ADD DUP8 PUSH2 0x30DD JUMP JUMPDEST PUSH2 0x336F PUSH1 0xC0 DUP4 ADD DUP7 PUSH2 0x2D61 JUMP JUMPDEST PUSH2 0x337C PUSH1 0xE0 DUP4 ADD DUP6 PUSH2 0x30DD JUMP JUMPDEST PUSH2 0x338A PUSH2 0x100 DUP4 ADD DUP5 PUSH2 0x2DC7 JUMP JUMPDEST SWAP11 SWAP10 POP POP POP POP POP POP POP POP POP POP JUMP JUMPDEST PUSH1 0x0 PUSH2 0x33A2 PUSH2 0x33B3 JUMP JUMPDEST SWAP1 POP PUSH2 0x33AE DUP3 DUP3 PUSH2 0x363F JUMP JUMPDEST SWAP2 SWAP1 POP JUMP JUMPDEST PUSH1 0x0 PUSH1 0x40 MLOAD SWAP1 POP SWAP1 JUMP JUMPDEST PUSH1 0x0 PUSH8 0xFFFFFFFFFFFFFFFF DUP3 GT ISZERO PUSH2 0x33D8 JUMPI PUSH2 0x33D7 PUSH2 0x37A4 JUMP JUMPDEST JUMPDEST PUSH2 0x33E1 DUP3 PUSH2 0x37F1 JUMP JUMPDEST SWAP1 POP PUSH1 0x20 DUP2 ADD SWAP1 POP SWAP2 SWAP1 POP JUMP JUMPDEST PUSH1 0x0 DUP2 MLOAD SWAP1 POP SWAP2 SWAP1 POP JUMP JUMPDEST PUSH1 0x0 DUP3 DUP3 MSTORE PUSH1 0x20 DUP3 ADD SWAP1 POP SWAP3 SWAP2 POP POP JUMP JUMPDEST PUSH1 0x0 DUP2 SWAP1 POP SWAP3 SWAP2 POP POP JUMP JUMPDEST PUSH1 0x0 DUP3 DUP3 MSTORE PUSH1 0x20 DUP3 ADD SWAP1 POP SWAP3 SWAP2 POP POP JUMP JUMPDEST PUSH1 0x0 PUSH2 0x3431 DUP3 PUSH2 0x358B JUMP JUMPDEST SWAP2 POP PUSH2 0x343C DUP4 PUSH2 0x358B JUMP JUMPDEST SWAP3 POP DUP3 PUSH32 0xFFFFFFFFFFFFFFFFFFFFFFFFFFFFFFFFFFFFFFFFFFFFFFFFFFFFFFFFFFFFFFFF SUB DUP3 GT ISZERO PUSH2 0x3471 JUMPI PUSH2 0x3470 PUSH2 0x36B9 JUMP JUMPDEST JUMPDEST DUP3 DUP3 ADD SWAP1 POP SWAP3 SWAP2 POP POP JUMP JUMPDEST PUSH1 0x0 PUSH2 0x3487 DUP3 PUSH2 0x358B JUMP JUMPDEST SWAP2 POP PUSH2 0x3492 DUP4 PUSH2 0x358B JUMP JUMPDEST SWAP3 POP DUP2 PUSH32 0xFFFFFFFFFFFFFFFFFFFFFFFFFFFFFFFFFFFFFFFFFFFFFFFFFFFFFFFFFFFFFFFF DIV DUP4 GT DUP3 ISZERO ISZERO AND ISZERO PUSH2 0x34CB JUMPI PUSH2 0x34CA PUSH2 0x36B9 JUMP JUMPDEST JUMPDEST DUP3 DUP3 MUL SWAP1 POP SWAP3 SWAP2 POP POP JUMP JUMPDEST PUSH1 0x0 PUSH2 0x34E1 DUP3 PUSH2 0x358B JUMP JUMPDEST SWAP2 POP PUSH2 0x34EC DUP4 PUSH2 0x358B JUMP JUMPDEST SWAP3 POP DUP3 DUP3 LT ISZERO PUSH2 0x34FF JUMPI PUSH2 0x34FE PUSH2 0x36B9 JUMP JUMPDEST JUMPDEST DUP3 DUP3 SUB SWAP1 POP SWAP3 SWAP2 POP POP JUMP JUMPDEST PUSH1 0x0 PUSH2 0x3515 DUP3 PUSH2 0x356B JUMP JUMPDEST SWAP1 POP SWAP2 SWAP1 POP JUMP JUMPDEST PUSH1 0x0 DUP2 ISZERO ISZERO SWAP1 POP SWAP2 SWAP1 POP JUMP JUMPDEST PUSH1 0x0 DUP2 SWAP1 POP SWAP2 SWAP1 POP JUMP JUMPDEST PUSH1 0x0 DUP2 SWAP1 POP PUSH2 0x3540 DUP3 PUSH2 0x3A5A JUMP JUMPDEST SWAP2 SWAP1 POP JUMP JUMPDEST PUSH1 0x0 DUP2 SWAP1 POP PUSH2 0x3553 DUP3 PUSH2 0x3A6E JUMP JUMPDEST SWAP2 SWAP1 POP JUMP JUMPDEST PUSH1 0x0 DUP2 SWAP1 POP PUSH2 0x3566 DUP3 PUSH2 0x3A82 JUMP JUMPDEST SWAP2 SWAP1 POP JUMP JUMPDEST PUSH1 0x0 PUSH20 0xFFFFFFFFFFFFFFFFFFFFFFFFFFFFFFFFFFFFFFFF DUP3 AND SWAP1 POP SWAP2 SWAP1 POP JUMP JUMPDEST PUSH1 0x0 DUP2 SWAP1 POP SWAP2 SWAP1 POP JUMP JUMPDEST PUSH1 0x0 PUSH2 0x35A0 DUP3 PUSH2 0x3532 JUMP JUMPDEST SWAP1 POP SWAP2 SWAP1 POP JUMP JUMPDEST PUSH1 0x0 PUSH2 0x35B2 DUP3 PUSH2 0x3545 JUMP JUMPDEST SWAP1 POP SWAP2 SWAP1 POP JUMP JUMPDEST PUSH1 0x0 PUSH2 0x35C4 DUP3 PUSH2 0x3558 JUMP JUMPDEST SWAP1 POP SWAP2 SWAP1 POP JUMP JUMPDEST DUP3 DUP2 DUP4 CALLDATACOPY PUSH1 0x0 DUP4 DUP4 ADD MSTORE POP POP POP JUMP JUMPDEST PUSH1 0x0 JUMPDEST DUP4 DUP2 LT ISZERO PUSH2 0x35F8 JUMPI DUP1 DUP3 ADD MLOAD DUP2 DUP5 ADD MSTORE PUSH1 0x20 DUP2 ADD SWAP1 POP PUSH2 0x35DD JUMP JUMPDEST DUP4 DUP2 GT ISZERO PUSH2 0x3607 JUMPI PUSH1 0x0 DUP5 DUP5 ADD MSTORE JUMPDEST POP POP POP POP JUMP JUMPDEST PUSH1 0x0 PUSH1 0x2 DUP3 DIV SWAP1 POP PUSH1 0x1 DUP3 AND DUP1 PUSH2 0x3625 JUMPI PUSH1 0x7F DUP3 AND SWAP2 POP JUMPDEST PUSH1 0x20 DUP3 LT DUP2 EQ ISZERO PUSH2 0x3639 JUMPI PUSH2 0x3638 PUSH2 0x3717 JUMP JUMPDEST JUMPDEST POP SWAP2 SWAP1 POP JUMP JUMPDEST PUSH2 0x3648 DUP3 PUSH2 0x37F1 JUMP JUMPDEST DUP2 ADD DUP2 DUP2 LT PUSH8 0xFFFFFFFFFFFFFFFF DUP3 GT OR ISZERO PUSH2 0x3667 JUMPI PUSH2 0x3666 PUSH2 0x37A4 JUMP JUMPDEST JUMPDEST DUP1 PUSH1 0x40 MSTORE POP POP POP JUMP JUMPDEST PUSH1 0x0 PUSH2 0x367B DUP3 PUSH2 0x358B JUMP JUMPDEST SWAP2 POP PUSH32 0xFFFFFFFFFFFFFFFFFFFFFFFFFFFFFFFFFFFFFFFFFFFFFFFFFFFFFFFFFFFFFFFF DUP3 EQ ISZERO PUSH2 0x36AE JUMPI PUSH2 0x36AD PUSH2 0x36B9 JUMP JUMPDEST JUMPDEST PUSH1 0x1 DUP3 ADD SWAP1 POP SWAP2 SWAP1 POP JUMP JUMPDEST PUSH32 0x4E487B7100000000000000000000000000000000000000000000000000000000 PUSH1 0x0 MSTORE PUSH1 0x11 PUSH1 0x4 MSTORE PUSH1 0x24 PUSH1 0x0 REVERT JUMPDEST PUSH32 0x4E487B7100000000000000000000000000000000000000000000000000000000 PUSH1 0x0 MSTORE PUSH1 0x21 PUSH1 0x4 MSTORE PUSH1 0x24 PUSH1 0x0 REVERT JUMPDEST PUSH32 0x4E487B7100000000000000000000000000000000000000000000000000000000 PUSH1 0x0 MSTORE PUSH1 0x22 PUSH1 0x4 MSTORE PUSH1 0x24 PUSH1 0x0 REVERT JUMPDEST PUSH32 0x4E487B7100000000000000000000000000000000000000000000000000000000 PUSH1 0x0 MSTORE PUSH1 0x31 PUSH1 0x4 MSTORE PUSH1 0x24 PUSH1 0x0 REVERT JUMPDEST PUSH32 0x4E487B7100000000000000000000000000000000000000000000000000000000 PUSH1 0x0 MSTORE PUSH1 0x32 PUSH1 0x4 MSTORE PUSH1 0x24 PUSH1 0x0 REVERT JUMPDEST PUSH32 0x4E487B7100000000000000000000000000000000000000000000000000000000 PUSH1 0x0 MSTORE PUSH1 0x41 PUSH1 0x4 MSTORE PUSH1 0x24 PUSH1 0x0 REVERT JUMPDEST PUSH1 0x0 DUP1 REVERT JUMPDEST PUSH1 0x0 DUP1 REVERT JUMPDEST PUSH1 0x0 DUP1 REVERT JUMPDEST PUSH1 0x0 DUP1 REVERT JUMPDEST PUSH1 0x0 DUP1 REVERT JUMPDEST PUSH1 0x0 DUP1 REVERT JUMPDEST PUSH1 0x0 PUSH1 0x1F NOT PUSH1 0x1F DUP4 ADD AND SWAP1 POP SWAP2 SWAP1 POP JUMP JUMPDEST PUSH32 0x54686520666F6C6C6F77696E6720636F6E74726163742068617320616C726561 PUSH1 0x0 DUP3 ADD MSTORE PUSH32 0x6479206265656E2061646465642E000000000000000000000000000000000000 PUSH1 0x20 DUP3 ADD MSTORE POP JUMP JUMPDEST PUSH32 0x54686520666F6C6C6F77696E672076656869636C652068617320616C72656164 PUSH1 0x0 DUP3 ADD MSTORE PUSH32 0x79206265656E2061646465642E00000000000000000000000000000000000000 PUSH1 0x20 DUP3 ADD MSTORE POP JUMP JUMPDEST PUSH32 0x436F756C64206E6F742070726F63656564206265636175736520746865726520 PUSH1 0x0 DUP3 ADD MSTORE PUSH32 0x6973206E6F7420656E6F7567682045544820696E20796F75722077616C6C6574 PUSH1 0x20 DUP3 ADD MSTORE POP JUMP JUMPDEST PUSH32 0x5265737472696374656420746F206F776E6572732E0000000000000000000000 PUSH1 0x0 DUP3 ADD MSTORE POP JUMP JUMPDEST PUSH32 0x4661696C656420746F2073656E64204574686572000000000000000000000000 PUSH1 0x0 DUP3 ADD MSTORE POP JUMP JUMPDEST PUSH32 0x5468652073656C65637465642076656869636C652069732063757272656E746C PUSH1 0x0 DUP3 ADD MSTORE PUSH32 0x79206E6F7420617661696C61626C652E00000000000000000000000000000000 PUSH1 0x20 DUP3 ADD MSTORE POP JUMP JUMPDEST PUSH32 0x54686520666F6C6C6F77696E6720636F6E747261637420636F756C64206E6F74 PUSH1 0x0 DUP3 ADD MSTORE PUSH32 0x20626520666F756E6420696E20746865206D617070696E67206C6973742E0000 PUSH1 0x20 DUP3 ADD MSTORE POP JUMP JUMPDEST POP JUMP JUMPDEST PUSH32 0x5265737472696374656420746F2072656E746572732E00000000000000000000 PUSH1 0x0 DUP3 ADD MSTORE POP JUMP JUMPDEST PUSH32 0x54686520666F6C6C6F77696E672076656869636C6520636F756C64206E6F7420 PUSH1 0x0 DUP3 ADD MSTORE PUSH32 0x626520666F756E6420696E20746865206D617070696E67206C6973742E000000 PUSH1 0x20 DUP3 ADD MSTORE POP JUMP JUMPDEST PUSH1 0x3 DUP2 LT PUSH2 0x3A6B JUMPI PUSH2 0x3A6A PUSH2 0x36E8 JUMP JUMPDEST JUMPDEST POP JUMP JUMPDEST PUSH1 0x2 DUP2 LT PUSH2 0x3A7F JUMPI PUSH2 0x3A7E PUSH2 0x36E8 JUMP JUMPDEST JUMPDEST POP JUMP JUMPDEST PUSH1 0x7 DUP2 LT PUSH2 0x3A93 JUMPI PUSH2 0x3A92 PUSH2 0x36E8 JUMP JUMPDEST JUMPDEST POP JUMP JUMPDEST PUSH2 0x3A9F DUP2 PUSH2 0x350A JUMP JUMPDEST DUP2 EQ PUSH2 0x3AAA JUMPI PUSH1 0x0 DUP1 REVERT JUMPDEST POP JUMP JUMPDEST PUSH2 0x3AB6 DUP2 PUSH2 0x3528 JUMP JUMPDEST DUP2 EQ PUSH2 0x3AC1 JUMPI PUSH1 0x0 DUP1 REVERT JUMPDEST POP JUMP JUMPDEST PUSH1 0x7 DUP2 LT PUSH2 0x3AD1 JUMPI PUSH1 0x0 DUP1 REVERT JUMPDEST POP JUMP JUMPDEST PUSH2 0x3ADD DUP2 PUSH2 0x358B JUMP JUMPDEST DUP2 EQ PUSH2 0x3AE8 JUMPI PUSH1 0x0 DUP1 REVERT JUMPDEST POP JUMP INVALID LOG2 PUSH5 0x6970667358 0x22 SLT KECCAK256 EXTCODESIZE BALANCE 0xC4 GASLIMIT 0xD4 PUSH25 0x769A484EA60366AEAC19CA4BE3EB27B82363E198F986B969F8 0xBD PUSH5 0x736F6C6343 STOP ADDMOD SMOD STOP CALLER "
		},
		"gasEstimates": {
			"creation": {
				"codeDepositCost": "3027400",
				"executionCost": "13345",
				"totalCost": "3040745"
			},
			"external": {
				"OWNER_ROLE()": "439",
				"RENTER_ROLE()": "373",
				"addInsurancePackage(uint256,uint256,uint256)": "infinite",
				"addOwner(address)": "infinite",
				"addRentPeriod(uint256,(bytes32,bytes32),uint256)": "infinite",
				"addRenter(address)": "infinite",
				"addVehicle(bytes32,bytes32,uint8,(bytes,bytes),uint256,bytes32,uint256)": "infinite",
				"completion(uint256,uint256)": "infinite",
				"confirmation(uint256,uint256)": "infinite",
				"contractCount()": "2452",
				"contracts(uint256)": "infinite",
				"getContractByID(uint256)": "infinite",
				"getRoleMember(bytes32,uint256)": "infinite",
				"getRoleMemberCount(bytes32)": "2952",
				"getVehicleByID(uint256)": "infinite",
				"hasRole(bytes32,address)": "infinite",
				"isOwner(address)": "infinite",
				"isRenter(address)": "infinite",
				"paymentProcess(uint256)": "471",
				"removeOwner(address)": "infinite",
				"removeRenter(address)": "infinite",
				"renounceOwner()": "infinite",
				"renounceRenter()": "infinite",
				"vehicleCount()": "2540",
				"vehicles(uint256)": "infinite"
			}
		},
		"methodIdentifiers": {
			"OWNER_ROLE()": "e58378bb",
			"RENTER_ROLE()": "b97c9f77",
			"addInsurancePackage(uint256,uint256,uint256)": "37c3510a",
			"addOwner(address)": "7065cb48",
			"addRentPeriod(uint256,(bytes32,bytes32),uint256)": "a1a25243",
			"addRenter(address)": "de8b1989",
			"addVehicle(bytes32,bytes32,uint8,(bytes,bytes),uint256,bytes32,uint256)": "11060ec7",
			"completion(uint256,uint256)": "87b50547",
			"confirmation(uint256,uint256)": "79b67caa",
			"contractCount()": "8736381a",
			"contracts(uint256)": "474da79a",
			"getContractByID(uint256)": "7b66fe2e",
			"getRoleMember(bytes32,uint256)": "9010d07c",
			"getRoleMemberCount(bytes32)": "ca15c873",
			"getVehicleByID(uint256)": "69a8f49e",
			"hasRole(bytes32,address)": "91d14854",
			"isOwner(address)": "2f54bf6e",
			"isRenter(address)": "9f2bc40e",
			"paymentProcess(uint256)": "74539cd0",
			"removeOwner(address)": "173825d9",
			"removeRenter(address)": "02aec3ce",
			"renounceOwner()": "28c23a45",
			"renounceRenter()": "a36a5d8d",
			"vehicleCount()": "99704937",
			"vehicles(uint256)": "b8ba95fa"
		}
	},
	"abi": [
		{
			"inputs": [],
			"stateMutability": "nonpayable",
			"type": "constructor"
		},
		{
			"anonymous": false,
			"inputs": [
				{
					"indexed": true,
					"internalType": "bytes32",
					"name": "role",
					"type": "bytes32"
				},
				{
					"indexed": true,
					"internalType": "address",
					"name": "account",
					"type": "address"
				},
				{
					"indexed": true,
					"internalType": "address",
					"name": "sender",
					"type": "address"
				}
			],
			"name": "RoleGranted",
			"type": "event"
		},
		{
			"anonymous": false,
			"inputs": [
				{
					"indexed": true,
					"internalType": "bytes32",
					"name": "role",
					"type": "bytes32"
				},
				{
					"indexed": true,
					"internalType": "address",
					"name": "account",
					"type": "address"
				},
				{
					"indexed": true,
					"internalType": "address",
					"name": "sender",
					"type": "address"
				}
			],
			"name": "RoleRevoked",
			"type": "event"
		},
		{
			"inputs": [],
			"name": "OWNER_ROLE",
			"outputs": [
				{
					"internalType": "bytes32",
					"name": "",
					"type": "bytes32"
				}
			],
			"stateMutability": "view",
			"type": "function"
		},
		{
			"inputs": [],
			"name": "RENTER_ROLE",
			"outputs": [
				{
					"internalType": "bytes32",
					"name": "",
					"type": "bytes32"
				}
			],
			"stateMutability": "view",
			"type": "function"
		},
		{
			"inputs": [
				{
					"internalType": "uint256",
					"name": "carId",
					"type": "uint256"
				},
				{
					"internalType": "uint256",
					"name": "contractId",
					"type": "uint256"
				},
				{
					"internalType": "uint256",
					"name": "insuranceDeposit",
					"type": "uint256"
				}
			],
			"name": "addInsurancePackage",
			"outputs": [
				{
					"internalType": "bool",
					"name": "success",
					"type": "bool"
				}
			],
			"stateMutability": "nonpayable",
			"type": "function"
		},
		{
			"inputs": [
				{
					"internalType": "address",
					"name": "account",
					"type": "address"
				}
			],
			"name": "addOwner",
			"outputs": [],
			"stateMutability": "nonpayable",
			"type": "function"
		},
		{
			"inputs": [
				{
					"internalType": "uint256",
					"name": "carId",
					"type": "uint256"
				},
				{
					"components": [
						{
							"internalType": "bytes32",
							"name": "from",
							"type": "bytes32"
						},
						{
							"internalType": "bytes32",
							"name": "to",
							"type": "bytes32"
						}
					],
					"internalType": "struct Rental.Period",
					"name": "period",
					"type": "tuple"
				},
				{
					"internalType": "uint256",
					"name": "dayscount",
					"type": "uint256"
				}
			],
			"name": "addRentPeriod",
			"outputs": [
				{
					"internalType": "bool",
					"name": "success",
					"type": "bool"
				}
			],
			"stateMutability": "nonpayable",
			"type": "function"
		},
		{
			"inputs": [
				{
					"internalType": "address",
					"name": "account",
					"type": "address"
				}
			],
			"name": "addRenter",
			"outputs": [],
			"stateMutability": "nonpayable",
			"type": "function"
		},
		{
			"inputs": [
				{
					"internalType": "bytes32",
					"name": "name",
					"type": "bytes32"
				},
				{
					"internalType": "bytes32",
					"name": "brand",
					"type": "bytes32"
				},
				{
					"internalType": "enum Rental.VehicleType",
					"name": "vehicleType",
					"type": "uint8"
				},
				{
					"components": [
						{
							"internalType": "bytes",
							"name": "latitude",
							"type": "bytes"
						},
						{
							"internalType": "bytes",
							"name": "longitude",
							"type": "bytes"
						}
					],
					"internalType": "struct Rental.Coordinate",
					"name": "location",
					"type": "tuple"
				},
				{
					"internalType": "uint256",
					"name": "model",
					"type": "uint256"
				},
				{
					"internalType": "bytes32",
					"name": "image",
					"type": "bytes32"
				},
				{
					"internalType": "uint256",
					"name": "rentCost",
					"type": "uint256"
				}
			],
			"name": "addVehicle",
			"outputs": [
				{
					"internalType": "bool",
					"name": "success",
					"type": "bool"
				}
			],
			"stateMutability": "nonpayable",
			"type": "function"
		},
		{
			"inputs": [
				{
					"internalType": "uint256",
					"name": "contractId",
					"type": "uint256"
				},
				{
					"internalType": "uint256",
					"name": "carId",
					"type": "uint256"
				}
			],
			"name": "completion",
			"outputs": [
				{
					"internalType": "bool",
					"name": "success",
					"type": "bool"
				}
			],
			"stateMutability": "payable",
			"type": "function"
		},
		{
			"inputs": [
				{
					"internalType": "uint256",
					"name": "contractId",
					"type": "uint256"
				},
				{
					"internalType": "uint256",
					"name": "carId",
					"type": "uint256"
				}
			],
			"name": "confirmation",
			"outputs": [
				{
					"internalType": "bool",
					"name": "success",
					"type": "bool"
				}
			],
			"stateMutability": "payable",
			"type": "function"
		},
		{
			"inputs": [],
			"name": "contractCount",
			"outputs": [
				{
					"internalType": "uint256",
					"name": "",
					"type": "uint256"
				}
			],
			"stateMutability": "view",
			"type": "function"
		},
		{
			"inputs": [
				{
					"internalType": "uint256",
					"name": "",
					"type": "uint256"
				}
			],
			"name": "contracts",
			"outputs": [
				{
					"internalType": "address",
					"name": "id",
					"type": "address"
				},
				{
					"components": [
						{
							"internalType": "uint256",
							"name": "id",
							"type": "uint256"
						},
						{
							"internalType": "bytes32",
							"name": "name",
							"type": "bytes32"
						},
						{
							"internalType": "bytes32",
							"name": "brand",
							"type": "bytes32"
						},
						{
							"internalType": "enum Rental.VehicleType",
							"name": "vehicleType",
							"type": "uint8"
						},
						{
							"components": [
								{
									"internalType": "bytes",
									"name": "latitude",
									"type": "bytes"
								},
								{
									"internalType": "bytes",
									"name": "longitude",
									"type": "bytes"
								}
							],
							"internalType": "struct Rental.Coordinate",
							"name": "location",
							"type": "tuple"
						},
						{
							"internalType": "uint256",
							"name": "model",
							"type": "uint256"
						},
						{
							"internalType": "bytes32",
							"name": "image",
							"type": "bytes32"
						},
						{
							"internalType": "uint256",
							"name": "rentCost",
							"type": "uint256"
						},
						{
							"internalType": "enum Rental.VehicleStatus",
							"name": "status",
							"type": "uint8"
						}
					],
					"internalType": "struct Rental.Vehicle",
					"name": "selectedVehicle",
					"type": "tuple"
				},
				{
					"components": [
						{
							"internalType": "bytes32",
							"name": "from",
							"type": "bytes32"
						},
						{
							"internalType": "bytes32",
							"name": "to",
							"type": "bytes32"
						}
					],
					"internalType": "struct Rental.Period",
					"name": "period",
					"type": "tuple"
				},
				{
					"internalType": "uint256",
					"name": "totalCost",
					"type": "uint256"
				},
				{
					"internalType": "uint256",
					"name": "insuranceDeposit",
					"type": "uint256"
				},
				{
					"internalType": "uint256",
					"name": "dateOfIssuance",
					"type": "uint256"
				},
				{
					"internalType": "enum Rental.ContractStatus",
					"name": "status",
					"type": "uint8"
				}
			],
			"stateMutability": "view",
			"type": "function"
		},
		{
			"inputs": [
				{
					"internalType": "uint256",
					"name": "",
					"type": "uint256"
				}
			],
			"name": "getContractByID",
			"outputs": [
				{
					"internalType": "address",
					"name": "id",
					"type": "address"
				},
				{
					"components": [
						{
							"internalType": "uint256",
							"name": "id",
							"type": "uint256"
						},
						{
							"internalType": "bytes32",
							"name": "name",
							"type": "bytes32"
						},
						{
							"internalType": "bytes32",
							"name": "brand",
							"type": "bytes32"
						},
						{
							"internalType": "enum Rental.VehicleType",
							"name": "vehicleType",
							"type": "uint8"
						},
						{
							"components": [
								{
									"internalType": "bytes",
									"name": "latitude",
									"type": "bytes"
								},
								{
									"internalType": "bytes",
									"name": "longitude",
									"type": "bytes"
								}
							],
							"internalType": "struct Rental.Coordinate",
							"name": "location",
							"type": "tuple"
						},
						{
							"internalType": "uint256",
							"name": "model",
							"type": "uint256"
						},
						{
							"internalType": "bytes32",
							"name": "image",
							"type": "bytes32"
						},
						{
							"internalType": "uint256",
							"name": "rentCost",
							"type": "uint256"
						},
						{
							"internalType": "enum Rental.VehicleStatus",
							"name": "status",
							"type": "uint8"
						}
					],
					"internalType": "struct Rental.Vehicle",
					"name": "selectedVehicle",
					"type": "tuple"
				},
				{
					"components": [
						{
							"internalType": "bytes32",
							"name": "from",
							"type": "bytes32"
						},
						{
							"internalType": "bytes32",
							"name": "to",
							"type": "bytes32"
						}
					],
					"internalType": "struct Rental.Period",
					"name": "period",
					"type": "tuple"
				},
				{
					"internalType": "uint256",
					"name": "totalCost",
					"type": "uint256"
				},
				{
					"internalType": "uint256",
					"name": "insuranceDeposit",
					"type": "uint256"
				},
				{
					"internalType": "uint256",
					"name": "dateOfIssuance",
					"type": "uint256"
				},
				{
					"internalType": "enum Rental.ContractStatus",
					"name": "status",
					"type": "uint8"
				}
			],
			"stateMutability": "view",
			"type": "function"
		},
		{
			"inputs": [
				{
					"internalType": "bytes32",
					"name": "role",
					"type": "bytes32"
				},
				{
					"internalType": "uint256",
					"name": "index",
					"type": "uint256"
				}
			],
			"name": "getRoleMember",
			"outputs": [
				{
					"internalType": "address",
					"name": "",
					"type": "address"
				}
			],
			"stateMutability": "view",
			"type": "function"
		},
		{
			"inputs": [
				{
					"internalType": "bytes32",
					"name": "role",
					"type": "bytes32"
				}
			],
			"name": "getRoleMemberCount",
			"outputs": [
				{
					"internalType": "uint256",
					"name": "",
					"type": "uint256"
				}
			],
			"stateMutability": "view",
			"type": "function"
		},
		{
			"inputs": [
				{
					"internalType": "uint256",
					"name": "",
					"type": "uint256"
				}
			],
			"name": "getVehicleByID",
			"outputs": [
				{
					"internalType": "uint256",
					"name": "id",
					"type": "uint256"
				},
				{
					"internalType": "bytes32",
					"name": "name",
					"type": "bytes32"
				},
				{
					"internalType": "bytes32",
					"name": "brand",
					"type": "bytes32"
				},
				{
					"internalType": "enum Rental.VehicleType",
					"name": "vehicleType",
					"type": "uint8"
				},
				{
					"components": [
						{
							"internalType": "bytes",
							"name": "latitude",
							"type": "bytes"
						},
						{
							"internalType": "bytes",
							"name": "longitude",
							"type": "bytes"
						}
					],
					"internalType": "struct Rental.Coordinate",
					"name": "location",
					"type": "tuple"
				},
				{
					"internalType": "uint256",
					"name": "model",
					"type": "uint256"
				},
				{
					"internalType": "bytes32",
					"name": "image",
					"type": "bytes32"
				},
				{
					"internalType": "uint256",
					"name": "rentCost",
					"type": "uint256"
				},
				{
					"internalType": "enum Rental.VehicleStatus",
					"name": "status",
					"type": "uint8"
				}
			],
			"stateMutability": "view",
			"type": "function"
		},
		{
			"inputs": [
				{
					"internalType": "bytes32",
					"name": "role",
					"type": "bytes32"
				},
				{
					"internalType": "address",
					"name": "account",
					"type": "address"
				}
			],
			"name": "hasRole",
			"outputs": [
				{
					"internalType": "bool",
					"name": "",
					"type": "bool"
				}
			],
			"stateMutability": "view",
			"type": "function"
		},
		{
			"inputs": [
				{
					"internalType": "address",
					"name": "account",
					"type": "address"
				}
			],
			"name": "isOwner",
			"outputs": [
				{
					"internalType": "bool",
					"name": "",
					"type": "bool"
				}
			],
			"stateMutability": "view",
			"type": "function"
		},
		{
			"inputs": [
				{
					"internalType": "address",
					"name": "account",
					"type": "address"
				}
			],
			"name": "isRenter",
			"outputs": [
				{
					"internalType": "bool",
					"name": "",
					"type": "bool"
				}
			],
			"stateMutability": "view",
			"type": "function"
		},
		{
			"inputs": [
				{
					"internalType": "uint256",
					"name": "",
					"type": "uint256"
				}
			],
			"name": "paymentProcess",
			"outputs": [],
			"stateMutability": "payable",
			"type": "function"
		},
		{
			"inputs": [
				{
					"internalType": "address",
					"name": "account",
					"type": "address"
				}
			],
			"name": "removeOwner",
			"outputs": [],
			"stateMutability": "nonpayable",
			"type": "function"
		},
		{
			"inputs": [
				{
					"internalType": "address",
					"name": "account",
					"type": "address"
				}
			],
			"name": "removeRenter",
			"outputs": [],
			"stateMutability": "nonpayable",
			"type": "function"
		},
		{
			"inputs": [],
			"name": "renounceOwner",
			"outputs": [],
			"stateMutability": "nonpayable",
			"type": "function"
		},
		{
			"inputs": [],
			"name": "renounceRenter",
			"outputs": [],
			"stateMutability": "nonpayable",
			"type": "function"
		},
		{
			"inputs": [],
			"name": "vehicleCount",
			"outputs": [
				{
					"internalType": "uint256",
					"name": "",
					"type": "uint256"
				}
			],
			"stateMutability": "view",
			"type": "function"
		},
		{
			"inputs": [
				{
					"internalType": "uint256",
					"name": "",
					"type": "uint256"
				}
			],
			"name": "vehicles",
			"outputs": [
				{
					"internalType": "uint256",
					"name": "id",
					"type": "uint256"
				},
				{
					"internalType": "bytes32",
					"name": "name",
					"type": "bytes32"
				},
				{
					"internalType": "bytes32",
					"name": "brand",
					"type": "bytes32"
				},
				{
					"internalType": "enum Rental.VehicleType",
					"name": "vehicleType",
					"type": "uint8"
				},
				{
					"components": [
						{
							"internalType": "bytes",
							"name": "latitude",
							"type": "bytes"
						},
						{
							"internalType": "bytes",
							"name": "longitude",
							"type": "bytes"
						}
					],
					"internalType": "struct Rental.Coordinate",
					"name": "location",
					"type": "tuple"
				},
				{
					"internalType": "uint256",
					"name": "model",
					"type": "uint256"
				},
				{
					"internalType": "bytes32",
					"name": "image",
					"type": "bytes32"
				},
				{
					"internalType": "uint256",
					"name": "rentCost",
					"type": "uint256"
				},
				{
					"internalType": "enum Rental.VehicleStatus",
					"name": "status",
					"type": "uint8"
				}
			],
			"stateMutability": "view",
			"type": "function"
		}
	]
}